{
  "contractName": "ButterAccounts",
  "abi": [
    {
      "inputs": [
        {
          "internalType": "uint256",
          "name": "",
          "type": "uint256"
        }
      ],
      "name": "butterChurnedByNut",
      "outputs": [
        {
          "internalType": "uint256",
          "name": "",
          "type": "uint256"
        }
      ],
      "stateMutability": "view",
      "type": "function"
    },
    {
      "inputs": [],
      "name": "butterDeficiencyInUniverse",
      "outputs": [
        {
          "internalType": "uint256",
          "name": "",
          "type": "uint256"
        }
      ],
      "stateMutability": "view",
      "type": "function"
    },
    {
      "inputs": [
        {
          "internalType": "uint256",
          "name": "",
          "type": "uint256"
        }
      ],
      "name": "butterDeficiencyOfNut",
      "outputs": [
        {
          "internalType": "uint256",
          "name": "",
          "type": "uint256"
        }
      ],
      "stateMutability": "view",
      "type": "function"
    },
    {
      "inputs": [],
      "name": "butterJars",
      "outputs": [
        {
          "internalType": "uint256",
          "name": "",
          "type": "uint256"
        }
      ],
      "stateMutability": "view",
      "type": "function"
    },
    {
      "inputs": [
        {
          "internalType": "uint256",
          "name": "",
          "type": "uint256"
        }
      ],
      "name": "butterLocations",
      "outputs": [
        {
          "internalType": "address",
          "name": "",
          "type": "address"
        }
      ],
      "stateMutability": "view",
      "type": "function"
    },
    {
      "inputs": [],
      "name": "butterSpread",
      "outputs": [
        {
          "internalType": "uint256",
          "name": "",
          "type": "uint256"
        }
      ],
      "stateMutability": "view",
      "type": "function"
    },
    {
      "inputs": [],
      "name": "butterWeight",
      "outputs": [
        {
          "internalType": "uint256",
          "name": "",
          "type": "uint256"
        }
      ],
      "stateMutability": "view",
      "type": "function"
    },
    {
      "inputs": [
        {
          "internalType": "uint256",
          "name": "",
          "type": "uint256"
        },
        {
          "internalType": "uint256",
          "name": "",
          "type": "uint256"
        }
      ],
      "name": "buttersOfNut",
      "outputs": [
        {
          "internalType": "uint256",
          "name": "",
          "type": "uint256"
        }
      ],
      "stateMutability": "view",
      "type": "function"
    },
    {
      "inputs": [
        {
          "internalType": "uint256",
          "name": "",
          "type": "uint256"
        }
      ],
      "name": "isButterActive",
      "outputs": [
        {
          "internalType": "bool",
          "name": "",
          "type": "bool"
        }
      ],
      "stateMutability": "view",
      "type": "function"
    },
    {
      "inputs": [
        {
          "internalType": "uint256",
          "name": "",
          "type": "uint256"
        }
      ],
      "name": "matterMintedByNut",
      "outputs": [
        {
          "internalType": "uint256",
          "name": "",
          "type": "uint256"
        }
      ],
      "stateMutability": "view",
      "type": "function"
    },
    {
      "inputs": [
        {
          "internalType": "uint256",
          "name": "",
          "type": "uint256"
        }
      ],
      "name": "nutOfButter",
      "outputs": [
        {
          "internalType": "uint256",
          "name": "",
          "type": "uint256"
        }
      ],
      "stateMutability": "view",
      "type": "function"
    },
    {
      "inputs": [
        {
          "internalType": "uint256",
          "name": "_nutId",
          "type": "uint256"
        }
      ],
      "name": "numberOfButterJars",
      "outputs": [
        {
          "internalType": "uint256",
          "name": "",
          "type": "uint256"
        }
      ],
      "stateMutability": "view",
      "type": "function"
    }
  ],
  "bytecode": "0x60806040526000805560006001556000600255600060085534801561002357600080fd5b50610567806100336000396000f3fe608060405234801561001057600080fd5b50600436106100b45760003560e01c806347634e1c1161007157806347634e1c146101c757806349a6b51f146101f75780634ffe5a6f14610215578063aef054ce14610245578063df4f5ccc14610275578063f6317f8d14610293576100b4565b806302760a48146100b95780631821907a146100e95780631e0b39641461011957806326342ea414610149578063282adc8c146101675780633279bd4f14610197575b600080fd5b6100d360048036038101906100ce9190610408565b6102b1565b6040516100e09190610450565b60405180910390f35b61010360048036038101906100fe9190610408565b6102d1565b604051610110919061047a565b60405180910390f35b610133600480360381019061012e9190610495565b6102e9565b604051610140919061047a565b60405180910390f35b61015161031a565b60405161015e919061047a565b60405180910390f35b610181600480360381019061017c9190610408565b610320565b60405161018e919061047a565b60405180910390f35b6101b160048036038101906101ac9190610408565b610340565b6040516101be919061047a565b60405180910390f35b6101e160048036038101906101dc9190610408565b610358565b6040516101ee919061047a565b60405180910390f35b6101ff610370565b60405161020c919061047a565b60405180910390f35b61022f600480360381019061022a9190610408565b610376565b60405161023c919061047a565b60405180910390f35b61025f600480360381019061025a9190610408565b61038e565b60405161026c9190610516565b60405180910390f35b61027d6103c1565b60405161028a919061047a565b60405180910390f35b61029b6103c7565b6040516102a8919061047a565b60405180910390f35b600a6020528060005260406000206000915054906101000a900460ff1681565b60066020528060005260406000206000915090505481565b6003602052816000526040600020818154811061030557600080fd5b90600052602060002001600091509150505481565b60025481565b600060036000838152602001908152602001600020805490509050919050565b60056020528060005260406000206000915090505481565b60076020528060005260406000206000915090505481565b60015481565b60096020528060005260406000206000915090505481565b60046020528060005260406000206000915054906101000a900473ffffffffffffffffffffffffffffffffffffffff1681565b60085481565b60005481565b600080fd5b6000819050919050565b6103e5816103d2565b81146103f057600080fd5b50565b600081359050610402816103dc565b92915050565b60006020828403121561041e5761041d6103cd565b5b600061042c848285016103f3565b91505092915050565b60008115159050919050565b61044a81610435565b82525050565b60006020820190506104656000830184610441565b92915050565b610474816103d2565b82525050565b600060208201905061048f600083018461046b565b92915050565b600080604083850312156104ac576104ab6103cd565b5b60006104ba858286016103f3565b92505060206104cb858286016103f3565b9150509250929050565b600073ffffffffffffffffffffffffffffffffffffffff82169050919050565b6000610500826104d5565b9050919050565b610510816104f5565b82525050565b600060208201905061052b6000830184610507565b9291505056fea2646970667358221220736082c5f0f35a9f545610a1e10caabab4fc6212ac8bd25f36fa975b1c7315e164736f6c63430008110033",
  "immutableReferences": {},
  "source": "// SPDX-License-Identifier: MIT\npragma solidity ^0.8.7;\n\ncontract ButterAccounts {\n\n    /**\n     * butterWeight is the amount of matter in the universe thta is currently outstanding.\n     * butterSpread is the amount of matter that has been distributed from butterWeight, thus reducing its value.\n     * butterJams represent the total number of matter contracts created in the Universe.\n     */\n    uint256 public butterWeight = 0;\n    uint256 public butterSpread = 0;\n    uint256 public butterJars = 0;\n\n    /**\n     * buttersOfNut represents a list of all butter contracts created byt that nut.\n     * butterLocations represents the address of contract identifed by butterId.\n     *\n     */\n    mapping(uint256 => uint256[]) public buttersOfNut;\n    mapping(uint256 => address) public butterLocations;\n    mapping(uint256 => uint256) public matterMintedByNut; // Amount of matter minted by this Nut\n    mapping(uint256 => uint256) public butterChurnedByNut;\n    mapping(uint256 => uint256) public nutOfButter;\n\n    uint256 public butterDeficiencyInUniverse = 0; // Represents matter that's not fully restored to each nut\n    mapping(uint256 => uint256) public butterDeficiencyOfNut;\n    mapping(uint256 => bool) public isButterActive;\n\n    function numberOfButterJars(uint256 _nutId) public view returns (uint256) {\n        return buttersOfNut[_nutId].length;\n    }\n\n    function churnButter(uint256 _nutId, uint256 _butterId, address _butterAddress, uint256 _butterToCreate) internal {\n        butterJars += 1;\n        butterWeight += _butterToCreate;\n        buttersOfNut[_nutId].push(_butterId);\n        butterChurnedByNut[_nutId] += _butterToCreate;\n        butterLocations[_nutId] = _butterAddress;\n        isButterActive[_nutId] = true;\n        nutOfButter[_butterId] = _nutId;\n    }\n\n    function distributeButter(uint256 _butterId, uint256 _depletedBy, uint256 _balanceBefore) internal {\n        butterWeight -= _depletedBy;\n        butterSpread += _depletedBy;\n        uint256 nutId = nutOfButter[_butterId];\n        matterMintedByNut[nutId] += _depletedBy;\n\n        // Maybe we use assert on these (research material)\n        if (_balanceBefore - _depletedBy == 0) {\n            isButterActive[_butterId] = false;\n        }\n    }\n\n}\n",
  "sourcePath": "/home/redlentils/Seafile/Websites/avatarnft/contracts/ButterAccounts.sol",
  "compiler": {
    "name": "solc",
    "version": "0.8.17+commit.8df45f5f.Emscripten.clang"
  },
  "schemaVersion": "3.4.10",
  "updatedAt": "2022-10-03T18:15:56.485Z",
  "devdoc": {
    "kind": "dev",
    "methods": {},
    "version": 1
  },
  "userdoc": {
    "kind": "user",
    "methods": {
      "butterWeight()": {
        "notice": "butterWeight is the amount of matter in the universe thta is currently outstanding. butterSpread is the amount of matter that has been distributed from butterWeight, thus reducing its value. butterJams represent the total number of matter contracts created in the Universe."
      },
      "buttersOfNut(uint256,uint256)": {
        "notice": "buttersOfNut represents a list of all butter contracts created byt that nut. butterLocations represents the address of contract identifed by butterId."
      }
    },
    "version": 1
  }
}