{
  "contractName": "CosmoCreation",
  "abi": [
    {
      "inputs": [
        {
          "internalType": "string",
          "name": "_name",
          "type": "string"
        },
        {
          "internalType": "string",
          "name": "_symbol",
          "type": "string"
        },
        {
          "internalType": "uint256",
          "name": "_supply",
          "type": "uint256"
        },
        {
          "internalType": "address",
          "name": "_systemAddress",
          "type": "address"
        },
        {
          "internalType": "address",
          "name": "_treasuryAddress",
          "type": "address"
        }
      ],
      "stateMutability": "nonpayable",
      "type": "constructor"
    },
    {
      "anonymous": false,
      "inputs": [
        {
          "indexed": true,
          "internalType": "address",
          "name": "owner",
          "type": "address"
        },
        {
          "indexed": true,
          "internalType": "address",
          "name": "approved",
          "type": "address"
        },
        {
          "indexed": true,
          "internalType": "uint256",
          "name": "tokenId",
          "type": "uint256"
        }
      ],
      "name": "Approval",
      "type": "event"
    },
    {
      "anonymous": false,
      "inputs": [
        {
          "indexed": true,
          "internalType": "address",
          "name": "owner",
          "type": "address"
        },
        {
          "indexed": true,
          "internalType": "address",
          "name": "operator",
          "type": "address"
        },
        {
          "indexed": false,
          "internalType": "bool",
          "name": "approved",
          "type": "bool"
        }
      ],
      "name": "ApprovalForAll",
      "type": "event"
    },
    {
      "anonymous": false,
      "inputs": [
        {
          "indexed": true,
          "internalType": "address",
          "name": "previousOwner",
          "type": "address"
        },
        {
          "indexed": true,
          "internalType": "address",
          "name": "newOwner",
          "type": "address"
        }
      ],
      "name": "OwnershipTransferred",
      "type": "event"
    },
    {
      "anonymous": false,
      "inputs": [
        {
          "indexed": true,
          "internalType": "address",
          "name": "from",
          "type": "address"
        },
        {
          "indexed": true,
          "internalType": "address",
          "name": "to",
          "type": "address"
        },
        {
          "indexed": true,
          "internalType": "uint256",
          "name": "tokenId",
          "type": "uint256"
        }
      ],
      "name": "Transfer",
      "type": "event"
    },
    {
      "inputs": [],
      "name": "NUTS_INITIAL",
      "outputs": [
        {
          "internalType": "uint256",
          "name": "",
          "type": "uint256"
        }
      ],
      "stateMutability": "view",
      "type": "function"
    },
    {
      "inputs": [],
      "name": "SYSTEM_ADDRESS",
      "outputs": [
        {
          "internalType": "address",
          "name": "",
          "type": "address"
        }
      ],
      "stateMutability": "view",
      "type": "function"
    },
    {
      "inputs": [],
      "name": "TREASURY_ADDRESS",
      "outputs": [
        {
          "internalType": "address",
          "name": "",
          "type": "address"
        }
      ],
      "stateMutability": "view",
      "type": "function"
    },
    {
      "inputs": [
        {
          "internalType": "address",
          "name": "to",
          "type": "address"
        },
        {
          "internalType": "uint256",
          "name": "tokenId",
          "type": "uint256"
        }
      ],
      "name": "approve",
      "outputs": [],
      "stateMutability": "nonpayable",
      "type": "function"
    },
    {
      "inputs": [
        {
          "internalType": "address",
          "name": "owner",
          "type": "address"
        }
      ],
      "name": "balanceOf",
      "outputs": [
        {
          "internalType": "uint256",
          "name": "",
          "type": "uint256"
        }
      ],
      "stateMutability": "view",
      "type": "function"
    },
    {
      "inputs": [
        {
          "internalType": "uint256",
          "name": "tokenId",
          "type": "uint256"
        }
      ],
      "name": "getApproved",
      "outputs": [
        {
          "internalType": "address",
          "name": "",
          "type": "address"
        }
      ],
      "stateMutability": "view",
      "type": "function"
    },
    {
      "inputs": [
        {
          "internalType": "address",
          "name": "owner",
          "type": "address"
        },
        {
          "internalType": "address",
          "name": "operator",
          "type": "address"
        }
      ],
      "name": "isApprovedForAll",
      "outputs": [
        {
          "internalType": "bool",
          "name": "",
          "type": "bool"
        }
      ],
      "stateMutability": "view",
      "type": "function"
    },
    {
      "inputs": [],
      "name": "name",
      "outputs": [
        {
          "internalType": "string",
          "name": "",
          "type": "string"
        }
      ],
      "stateMutability": "view",
      "type": "function"
    },
    {
      "inputs": [],
      "name": "owner",
      "outputs": [
        {
          "internalType": "address",
          "name": "",
          "type": "address"
        }
      ],
      "stateMutability": "view",
      "type": "function"
    },
    {
      "inputs": [
        {
          "internalType": "uint256",
          "name": "tokenId",
          "type": "uint256"
        }
      ],
      "name": "ownerOf",
      "outputs": [
        {
          "internalType": "address",
          "name": "",
          "type": "address"
        }
      ],
      "stateMutability": "view",
      "type": "function"
    },
    {
      "inputs": [],
      "name": "renounceOwnership",
      "outputs": [],
      "stateMutability": "nonpayable",
      "type": "function"
    },
    {
      "inputs": [
        {
          "internalType": "address",
          "name": "from",
          "type": "address"
        },
        {
          "internalType": "address",
          "name": "to",
          "type": "address"
        },
        {
          "internalType": "uint256",
          "name": "tokenId",
          "type": "uint256"
        }
      ],
      "name": "safeTransferFrom",
      "outputs": [],
      "stateMutability": "nonpayable",
      "type": "function"
    },
    {
      "inputs": [
        {
          "internalType": "address",
          "name": "from",
          "type": "address"
        },
        {
          "internalType": "address",
          "name": "to",
          "type": "address"
        },
        {
          "internalType": "uint256",
          "name": "tokenId",
          "type": "uint256"
        },
        {
          "internalType": "bytes",
          "name": "_data",
          "type": "bytes"
        }
      ],
      "name": "safeTransferFrom",
      "outputs": [],
      "stateMutability": "nonpayable",
      "type": "function"
    },
    {
      "inputs": [
        {
          "internalType": "address",
          "name": "operator",
          "type": "address"
        },
        {
          "internalType": "bool",
          "name": "approved",
          "type": "bool"
        }
      ],
      "name": "setApprovalForAll",
      "outputs": [],
      "stateMutability": "nonpayable",
      "type": "function"
    },
    {
      "inputs": [],
      "name": "symbol",
      "outputs": [
        {
          "internalType": "string",
          "name": "",
          "type": "string"
        }
      ],
      "stateMutability": "view",
      "type": "function"
    },
    {
      "inputs": [
        {
          "internalType": "uint256",
          "name": "index",
          "type": "uint256"
        }
      ],
      "name": "tokenByIndex",
      "outputs": [
        {
          "internalType": "uint256",
          "name": "",
          "type": "uint256"
        }
      ],
      "stateMutability": "view",
      "type": "function"
    },
    {
      "inputs": [
        {
          "internalType": "address",
          "name": "owner",
          "type": "address"
        },
        {
          "internalType": "uint256",
          "name": "index",
          "type": "uint256"
        }
      ],
      "name": "tokenOfOwnerByIndex",
      "outputs": [
        {
          "internalType": "uint256",
          "name": "",
          "type": "uint256"
        }
      ],
      "stateMutability": "view",
      "type": "function"
    },
    {
      "inputs": [],
      "name": "totalSupply",
      "outputs": [
        {
          "internalType": "uint256",
          "name": "",
          "type": "uint256"
        }
      ],
      "stateMutability": "view",
      "type": "function"
    },
    {
      "inputs": [
        {
          "internalType": "address",
          "name": "from",
          "type": "address"
        },
        {
          "internalType": "address",
          "name": "to",
          "type": "address"
        },
        {
          "internalType": "uint256",
          "name": "tokenId",
          "type": "uint256"
        }
      ],
      "name": "transferFrom",
      "outputs": [],
      "stateMutability": "nonpayable",
      "type": "function"
    },
    {
      "inputs": [
        {
          "internalType": "address",
          "name": "newOwner",
          "type": "address"
        }
      ],
      "name": "transferOwnership",
      "outputs": [],
      "stateMutability": "nonpayable",
      "type": "function"
    },
    {
      "inputs": [
        {
          "internalType": "uint256",
          "name": "_nutId",
          "type": "uint256"
        },
        {
          "internalType": "string",
          "name": "_nutCID",
          "type": "string"
        }
      ],
      "name": "mintNut",
      "outputs": [],
      "stateMutability": "payable",
      "type": "function"
    },
    {
      "inputs": [
        {
          "internalType": "uint256",
          "name": "tokenId",
          "type": "uint256"
        }
      ],
      "name": "tokenURI",
      "outputs": [
        {
          "internalType": "string",
          "name": "",
          "type": "string"
        }
      ],
      "stateMutability": "view",
      "type": "function"
    },
    {
      "inputs": [
        {
          "internalType": "bytes4",
          "name": "interfaceId",
          "type": "bytes4"
        }
      ],
      "name": "supportsInterface",
      "outputs": [
        {
          "internalType": "bool",
          "name": "",
          "type": "bool"
        }
      ],
      "stateMutability": "view",
      "type": "function"
    }
  ],
  "bytecode": "0x60806040523480156200001157600080fd5b50604051620044a2380380620044a2833981810160405281019062000037919062000414565b848481600090816200004a91906200071b565b5080600190816200005c91906200071b565b5050506200007f620000736200011360201b60201c565b6200011b60201b60201c565b82600c8190555081600d60006101000a81548173ffffffffffffffffffffffffffffffffffffffff021916908373ffffffffffffffffffffffffffffffffffffffff16021790555080600e60006101000a81548173ffffffffffffffffffffffffffffffffffffffff021916908373ffffffffffffffffffffffffffffffffffffffff160217905550505050505062000802565b600033905090565b6000600b60009054906101000a900473ffffffffffffffffffffffffffffffffffffffff16905081600b60006101000a81548173ffffffffffffffffffffffffffffffffffffffff021916908373ffffffffffffffffffffffffffffffffffffffff1602179055508173ffffffffffffffffffffffffffffffffffffffff168173ffffffffffffffffffffffffffffffffffffffff167f8be0079c531659141344cd1fd0a4f28419497f9722a3daafe3b4186f6b6457e060405160405180910390a35050565b6000604051905090565b600080fd5b600080fd5b600080fd5b600080fd5b6000601f19601f8301169050919050565b7f4e487b7100000000000000000000000000000000000000000000000000000000600052604160045260246000fd5b6200024a82620001ff565b810181811067ffffffffffffffff821117156200026c576200026b62000210565b5b80604052505050565b600062000281620001e1565b90506200028f82826200023f565b919050565b600067ffffffffffffffff821115620002b257620002b162000210565b5b620002bd82620001ff565b9050602081019050919050565b60005b83811015620002ea578082015181840152602081019050620002cd565b60008484015250505050565b60006200030d620003078462000294565b62000275565b9050828152602081018484840111156200032c576200032b620001fa565b5b62000339848285620002ca565b509392505050565b600082601f830112620003595762000358620001f5565b5b81516200036b848260208601620002f6565b91505092915050565b6000819050919050565b620003898162000374565b81146200039557600080fd5b50565b600081519050620003a9816200037e565b92915050565b600073ffffffffffffffffffffffffffffffffffffffff82169050919050565b6000620003dc82620003af565b9050919050565b620003ee81620003cf565b8114620003fa57600080fd5b50565b6000815190506200040e81620003e3565b92915050565b600080600080600060a08688031215620004335762000432620001eb565b5b600086015167ffffffffffffffff811115620004545762000453620001f0565b5b620004628882890162000341565b955050602086015167ffffffffffffffff811115620004865762000485620001f0565b5b620004948882890162000341565b9450506040620004a78882890162000398565b9350506060620004ba88828901620003fd565b9250506080620004cd88828901620003fd565b9150509295509295909350565b600081519050919050565b7f4e487b7100000000000000000000000000000000000000000000000000000000600052602260045260246000fd5b600060028204905060018216806200052d57607f821691505b602082108103620005435762000542620004e5565b5b50919050565b60008190508160005260206000209050919050565b60006020601f8301049050919050565b600082821b905092915050565b600060088302620005ad7fffffffffffffffffffffffffffffffffffffffffffffffffffffffffffffffff826200056e565b620005b986836200056e565b95508019841693508086168417925050509392505050565b6000819050919050565b6000620005fc620005f6620005f08462000374565b620005d1565b62000374565b9050919050565b6000819050919050565b6200061883620005db565b62000630620006278262000603565b8484546200057b565b825550505050565b600090565b6200064762000638565b620006548184846200060d565b505050565b5b818110156200067c57620006706000826200063d565b6001810190506200065a565b5050565b601f821115620006cb57620006958162000549565b620006a0846200055e565b81016020851015620006b0578190505b620006c8620006bf856200055e565b83018262000659565b50505b505050565b600082821c905092915050565b6000620006f060001984600802620006d0565b1980831691505092915050565b60006200070b8383620006dd565b9150826002028217905092915050565b6200072682620004da565b67ffffffffffffffff81111562000742576200074162000210565b5b6200074e825462000514565b6200075b82828562000680565b600060209050601f8311600181146200079357600084156200077e578287015190505b6200078a8582620006fd565b865550620007fa565b601f198416620007a38662000549565b60005b82811015620007cd57848901518255600182019150602085019450602081019050620007a6565b86831015620007ed5784890151620007e9601f891682620006dd565b8355505b6001600288020188555050505b505050505050565b613c9080620008126000396000f3fe6080604052600436106101405760003560e01c806355951ab0116100b6578063a22cb4651161006f578063a22cb46514610463578063b88d4fde1461048c578063c87b56dd146104b5578063e985e9c5146104f2578063f2b97ee21461052f578063f2fde38b1461055a57610140565b806355951ab0146103605780636352211e1461037c57806370a08231146103b9578063715018a6146103f65780638da5cb5b1461040d57806395d89b411461043857610140565b806318160ddd1161010857806318160ddd1461023e57806323b872dd146102695780632f745c59146102925780633434735f146102cf57806342842e0e146102fa5780634f6ccce71461032357610140565b806301ffc9a71461014557806306fdde031461018257806307604b1a146101ad578063081812fc146101d8578063095ea7b314610215575b600080fd5b34801561015157600080fd5b5061016c600480360381019061016791906124e5565b610583565b604051610179919061252d565b60405180910390f35b34801561018e57600080fd5b50610197610595565b6040516101a491906125d8565b60405180910390f35b3480156101b957600080fd5b506101c2610627565b6040516101cf919061263b565b60405180910390f35b3480156101e457600080fd5b506101ff60048036038101906101fa919061268c565b61064d565b60405161020c919061263b565b60405180910390f35b34801561022157600080fd5b5061023c600480360381019061023791906126e5565b6106d2565b005b34801561024a57600080fd5b506102536107e9565b6040516102609190612734565b60405180910390f35b34801561027557600080fd5b50610290600480360381019061028b919061274f565b6107f6565b005b34801561029e57600080fd5b506102b960048036038101906102b491906126e5565b610856565b6040516102c69190612734565b60405180910390f35b3480156102db57600080fd5b506102e46108fb565b6040516102f1919061263b565b60405180910390f35b34801561030657600080fd5b50610321600480360381019061031c919061274f565b610921565b005b34801561032f57600080fd5b5061034a6004803603810190610345919061268c565b610941565b6040516103579190612734565b60405180910390f35b61037a600480360381019061037591906128d7565b6109b2565b005b34801561038857600080fd5b506103a3600480360381019061039e919061268c565b610abd565b6040516103b0919061263b565b60405180910390f35b3480156103c557600080fd5b506103e060048036038101906103db9190612933565b610b6e565b6040516103ed9190612734565b60405180910390f35b34801561040257600080fd5b5061040b610c25565b005b34801561041957600080fd5b50610422610cad565b60405161042f919061263b565b60405180910390f35b34801561044457600080fd5b5061044d610cd7565b60405161045a91906125d8565b60405180910390f35b34801561046f57600080fd5b5061048a6004803603810190610485919061298c565b610d69565b005b34801561049857600080fd5b506104b360048036038101906104ae9190612a6d565b610d7f565b005b3480156104c157600080fd5b506104dc60048036038101906104d7919061268c565b610de1565b6040516104e991906125d8565b60405180910390f35b3480156104fe57600080fd5b5061051960048036038101906105149190612af0565b610df3565b604051610526919061252d565b60405180910390f35b34801561053b57600080fd5b50610544610e87565b6040516105519190612734565b60405180910390f35b34801561056657600080fd5b50610581600480360381019061057c9190612933565b610e8d565b005b600061058e82610f84565b9050919050565b6060600080546105a490612b5f565b80601f01602080910402602001604051908101604052809291908181526020018280546105d090612b5f565b801561061d5780601f106105f25761010080835404028352916020019161061d565b820191906000526020600020905b81548152906001019060200180831161060057829003601f168201915b5050505050905090565b600e60009054906101000a900473ffffffffffffffffffffffffffffffffffffffff1681565b600061065882610ffe565b610697576040517f08c379a000000000000000000000000000000000000000000000000000000000815260040161068e90612c02565b60405180910390fd5b6004600083815260200190815260200160002060009054906101000a900473ffffffffffffffffffffffffffffffffffffffff169050919050565b60006106dd82610abd565b90508073ffffffffffffffffffffffffffffffffffffffff168373ffffffffffffffffffffffffffffffffffffffff160361074d576040517f08c379a000000000000000000000000000000000000000000000000000000000815260040161074490612c94565b60405180910390fd5b8073ffffffffffffffffffffffffffffffffffffffff1661076c61106a565b73ffffffffffffffffffffffffffffffffffffffff16148061079b575061079a8161079561106a565b610df3565b5b6107da576040517f08c379a00000000000000000000000000000000000000000000000000000000081526004016107d190612d26565b60405180910390fd5b6107e48383611072565b505050565b6000600880549050905090565b61080761080161106a565b8261112b565b610846576040517f08c379a000000000000000000000000000000000000000000000000000000000815260040161083d90612db8565b60405180910390fd5b610851838383611209565b505050565b600061086183610b6e565b82106108a2576040517f08c379a000000000000000000000000000000000000000000000000000000000815260040161089990612e4a565b60405180910390fd5b600660008473ffffffffffffffffffffffffffffffffffffffff1673ffffffffffffffffffffffffffffffffffffffff168152602001908152602001600020600083815260200190815260200160002054905092915050565b600d60009054906101000a900473ffffffffffffffffffffffffffffffffffffffff1681565b61093c83838360405180602001604052806000815250610d7f565b505050565b600061094b6107e9565b821061098c576040517f08c379a000000000000000000000000000000000000000000000000000000000815260040161098390612edc565b60405180910390fd5b600882815481106109a05761099f612efc565b5b90600052602060002001549050919050565b6109e5600e60009054906101000a900473ffffffffffffffffffffffffffffffffffffffff166109e06107e9565b61146f565b6109f66109f06107e9565b8261148d565b600e60009054906101000a900473ffffffffffffffffffffffffffffffffffffffff1673ffffffffffffffffffffffffffffffffffffffff16631c85949c600e60009054906101000a900473ffffffffffffffffffffffffffffffffffffffff16846040518363ffffffff1660e01b8152600401610a75929190612f2b565b6020604051808303816000875af1158015610a94573d6000803e3d6000fd5b505050506040513d601f19601f82011682018060405250810190610ab89190612f69565b505050565b6000806002600084815260200190815260200160002060009054906101000a900473ffffffffffffffffffffffffffffffffffffffff169050600073ffffffffffffffffffffffffffffffffffffffff168173ffffffffffffffffffffffffffffffffffffffff1603610b65576040517f08c379a0000000000000000000000000000000000000000000000000000000008152600401610b5c90613008565b60405180910390fd5b80915050919050565b60008073ffffffffffffffffffffffffffffffffffffffff168273ffffffffffffffffffffffffffffffffffffffff1603610bde576040517f08c379a0000000000000000000000000000000000000000000000000000000008152600401610bd59061309a565b60405180910390fd5b600360008373ffffffffffffffffffffffffffffffffffffffff1673ffffffffffffffffffffffffffffffffffffffff168152602001908152602001600020549050919050565b610c2d61106a565b73ffffffffffffffffffffffffffffffffffffffff16610c4b610cad565b73ffffffffffffffffffffffffffffffffffffffff1614610ca1576040517f08c379a0000000000000000000000000000000000000000000000000000000008152600401610c9890613106565b60405180910390fd5b610cab60006114fa565b565b6000600b60009054906101000a900473ffffffffffffffffffffffffffffffffffffffff16905090565b606060018054610ce690612b5f565b80601f0160208091040260200160405190810160405280929190818152602001828054610d1290612b5f565b8015610d5f5780601f10610d3457610100808354040283529160200191610d5f565b820191906000526020600020905b815481529060010190602001808311610d4257829003601f168201915b5050505050905090565b610d7b610d7461106a565b83836115c0565b5050565b610d90610d8a61106a565b8361112b565b610dcf576040517f08c379a0000000000000000000000000000000000000000000000000000000008152600401610dc690612db8565b60405180910390fd5b610ddb8484848461172c565b50505050565b6060610dec82611788565b9050919050565b6000600560008473ffffffffffffffffffffffffffffffffffffffff1673ffffffffffffffffffffffffffffffffffffffff16815260200190815260200160002060008373ffffffffffffffffffffffffffffffffffffffff1673ffffffffffffffffffffffffffffffffffffffff16815260200190815260200160002060009054906101000a900460ff16905092915050565b600c5481565b610e9561106a565b73ffffffffffffffffffffffffffffffffffffffff16610eb3610cad565b73ffffffffffffffffffffffffffffffffffffffff1614610f09576040517f08c379a0000000000000000000000000000000000000000000000000000000008152600401610f0090613106565b60405180910390fd5b600073ffffffffffffffffffffffffffffffffffffffff168173ffffffffffffffffffffffffffffffffffffffff1603610f78576040517f08c379a0000000000000000000000000000000000000000000000000000000008152600401610f6f90613198565b60405180910390fd5b610f81816114fa565b50565b60007f780e9d63000000000000000000000000000000000000000000000000000000007bffffffffffffffffffffffffffffffffffffffffffffffffffffffff1916827bffffffffffffffffffffffffffffffffffffffffffffffffffffffff19161480610ff75750610ff6826118d9565b5b9050919050565b60008073ffffffffffffffffffffffffffffffffffffffff166002600084815260200190815260200160002060009054906101000a900473ffffffffffffffffffffffffffffffffffffffff1673ffffffffffffffffffffffffffffffffffffffff1614159050919050565b600033905090565b816004600083815260200190815260200160002060006101000a81548173ffffffffffffffffffffffffffffffffffffffff021916908373ffffffffffffffffffffffffffffffffffffffff160217905550808273ffffffffffffffffffffffffffffffffffffffff166110e583610abd565b73ffffffffffffffffffffffffffffffffffffffff167f8c5be1e5ebec7d5bd14f71427d1e84f3dd0314c0f7b2291e5b200ac8c7c3b92560405160405180910390a45050565b600061113682610ffe565b611175576040517f08c379a000000000000000000000000000000000000000000000000000000000815260040161116c9061322a565b60405180910390fd5b600061118083610abd565b90508073ffffffffffffffffffffffffffffffffffffffff168473ffffffffffffffffffffffffffffffffffffffff1614806111c257506111c18185610df3565b5b8061120057508373ffffffffffffffffffffffffffffffffffffffff166111e88461064d565b73ffffffffffffffffffffffffffffffffffffffff16145b91505092915050565b8273ffffffffffffffffffffffffffffffffffffffff1661122982610abd565b73ffffffffffffffffffffffffffffffffffffffff161461127f576040517f08c379a0000000000000000000000000000000000000000000000000000000008152600401611276906132bc565b60405180910390fd5b600073ffffffffffffffffffffffffffffffffffffffff168273ffffffffffffffffffffffffffffffffffffffff16036112ee576040517f08c379a00000000000000000000000000000000000000000000000000000000081526004016112e59061334e565b60405180910390fd5b6112f98383836119bb565b611304600082611072565b6001600360008573ffffffffffffffffffffffffffffffffffffffff1673ffffffffffffffffffffffffffffffffffffffff1681526020019081526020016000206000828254611354919061339d565b925050819055506001600360008473ffffffffffffffffffffffffffffffffffffffff1673ffffffffffffffffffffffffffffffffffffffff16815260200190815260200160002060008282546113ab91906133d1565b92505081905550816002600083815260200190815260200160002060006101000a81548173ffffffffffffffffffffffffffffffffffffffff021916908373ffffffffffffffffffffffffffffffffffffffff160217905550808273ffffffffffffffffffffffffffffffffffffffff168473ffffffffffffffffffffffffffffffffffffffff167fddf252ad1be2c89b69c2b068fc378daa952ba7f163c4a11628f55a4df523b3ef60405160405180910390a461146a8383836119cb565b505050565b6114898282604051806020016040528060008152506119d0565b5050565b61149682610ffe565b6114d5576040517f08c379a00000000000000000000000000000000000000000000000000000000081526004016114cc90613477565b60405180910390fd5b80600a600084815260200190815260200160002090816114f59190613643565b505050565b6000600b60009054906101000a900473ffffffffffffffffffffffffffffffffffffffff16905081600b60006101000a81548173ffffffffffffffffffffffffffffffffffffffff021916908373ffffffffffffffffffffffffffffffffffffffff1602179055508173ffffffffffffffffffffffffffffffffffffffff168173ffffffffffffffffffffffffffffffffffffffff167f8be0079c531659141344cd1fd0a4f28419497f9722a3daafe3b4186f6b6457e060405160405180910390a35050565b8173ffffffffffffffffffffffffffffffffffffffff168373ffffffffffffffffffffffffffffffffffffffff160361162e576040517f08c379a000000000000000000000000000000000000000000000000000000000815260040161162590613761565b60405180910390fd5b80600560008573ffffffffffffffffffffffffffffffffffffffff1673ffffffffffffffffffffffffffffffffffffffff16815260200190815260200160002060008473ffffffffffffffffffffffffffffffffffffffff1673ffffffffffffffffffffffffffffffffffffffff16815260200190815260200160002060006101000a81548160ff0219169083151502179055508173ffffffffffffffffffffffffffffffffffffffff168373ffffffffffffffffffffffffffffffffffffffff167f17307eab39ab6107e8899845ad3d59bd9653f200f220920489ca2b5937696c318360405161171f919061252d565b60405180910390a3505050565b611737848484611209565b61174384848484611a2b565b611782576040517f08c379a0000000000000000000000000000000000000000000000000000000008152600401611779906137f3565b60405180910390fd5b50505050565b606061179382610ffe565b6117d2576040517f08c379a00000000000000000000000000000000000000000000000000000000081526004016117c990613885565b60405180910390fd5b6000600a600084815260200190815260200160002080546117f290612b5f565b80601f016020809104026020016040519081016040528092919081815260200182805461181e90612b5f565b801561186b5780601f106118405761010080835404028352916020019161186b565b820191906000526020600020905b81548152906001019060200180831161184e57829003601f168201915b50505050509050600061187c611bb2565b905060008151036118915781925050506118d4565b6000825111156118c65780826040516020016118ae9291906138e1565b604051602081830303815290604052925050506118d4565b6118cf84611bef565b925050505b919050565b60007f80ac58cd000000000000000000000000000000000000000000000000000000007bffffffffffffffffffffffffffffffffffffffffffffffffffffffff1916827bffffffffffffffffffffffffffffffffffffffffffffffffffffffff191614806119a457507f5b5e139f000000000000000000000000000000000000000000000000000000007bffffffffffffffffffffffffffffffffffffffffffffffffffffffff1916827bffffffffffffffffffffffffffffffffffffffffffffffffffffffff1916145b806119b457506119b382611c96565b5b9050919050565b6119c6838383611d00565b505050565b505050565b6119da8383611e12565b6119e76000848484611a2b565b611a26576040517f08c379a0000000000000000000000000000000000000000000000000000000008152600401611a1d906137f3565b60405180910390fd5b505050565b6000611a4c8473ffffffffffffffffffffffffffffffffffffffff16611feb565b15611ba5578373ffffffffffffffffffffffffffffffffffffffff1663150b7a02611a7561106a565b8786866040518563ffffffff1660e01b8152600401611a97949392919061395a565b6020604051808303816000875af1925050508015611ad357506040513d601f19601f82011682018060405250810190611ad091906139bb565b60015b611b55573d8060008114611b03576040519150601f19603f3d011682016040523d82523d6000602084013e611b08565b606091505b506000815103611b4d576040517f08c379a0000000000000000000000000000000000000000000000000000000008152600401611b44906137f3565b60405180910390fd5b805181602001fd5b63150b7a0260e01b7bffffffffffffffffffffffffffffffffffffffffffffffffffffffff1916817bffffffffffffffffffffffffffffffffffffffffffffffffffffffff191614915050611baa565b600190505b949350505050565b60606040518060400160405280601581526020017f68747470733a2f2f697066732e696f2f697066732f0000000000000000000000815250905090565b6060611bfa82610ffe565b611c39576040517f08c379a0000000000000000000000000000000000000000000000000000000008152600401611c3090613a5a565b60405180910390fd5b6000611c43611bb2565b90506000815111611c635760405180602001604052806000815250611c8e565b80611c6d8461200e565b604051602001611c7e9291906138e1565b6040516020818303038152906040525b915050919050565b60007f01ffc9a7000000000000000000000000000000000000000000000000000000007bffffffffffffffffffffffffffffffffffffffffffffffffffffffff1916827bffffffffffffffffffffffffffffffffffffffffffffffffffffffff1916149050919050565b611d0b83838361216e565b600073ffffffffffffffffffffffffffffffffffffffff168373ffffffffffffffffffffffffffffffffffffffff1603611d4d57611d4881612173565b611d8c565b8173ffffffffffffffffffffffffffffffffffffffff168373ffffffffffffffffffffffffffffffffffffffff1614611d8b57611d8a83826121bc565b5b5b600073ffffffffffffffffffffffffffffffffffffffff168273ffffffffffffffffffffffffffffffffffffffff1603611dce57611dc981612329565b611e0d565b8273ffffffffffffffffffffffffffffffffffffffff168273ffffffffffffffffffffffffffffffffffffffff1614611e0c57611e0b82826123fa565b5b5b505050565b600073ffffffffffffffffffffffffffffffffffffffff168273ffffffffffffffffffffffffffffffffffffffff1603611e81576040517f08c379a0000000000000000000000000000000000000000000000000000000008152600401611e7890613ac6565b60405180910390fd5b611e8a81610ffe565b15611eca576040517f08c379a0000000000000000000000000000000000000000000000000000000008152600401611ec190613b32565b60405180910390fd5b611ed6600083836119bb565b6001600360008473ffffffffffffffffffffffffffffffffffffffff1673ffffffffffffffffffffffffffffffffffffffff1681526020019081526020016000206000828254611f2691906133d1565b92505081905550816002600083815260200190815260200160002060006101000a81548173ffffffffffffffffffffffffffffffffffffffff021916908373ffffffffffffffffffffffffffffffffffffffff160217905550808273ffffffffffffffffffffffffffffffffffffffff16600073ffffffffffffffffffffffffffffffffffffffff167fddf252ad1be2c89b69c2b068fc378daa952ba7f163c4a11628f55a4df523b3ef60405160405180910390a4611fe7600083836119cb565b5050565b6000808273ffffffffffffffffffffffffffffffffffffffff163b119050919050565b606060008203612055576040518060400160405280600181526020017f30000000000000000000000000000000000000000000000000000000000000008152509050612169565b600082905060005b6000821461208757808061207090613b52565b915050600a826120809190613bc9565b915061205d565b60008167ffffffffffffffff8111156120a3576120a26127ac565b5b6040519080825280601f01601f1916602001820160405280156120d55781602001600182028036833780820191505090505b5090505b60008514612162576001826120ee919061339d565b9150600a856120fd9190613bfa565b603061210991906133d1565b60f81b81838151811061211f5761211e612efc565b5b60200101907effffffffffffffffffffffffffffffffffffffffffffffffffffffffffffff1916908160001a905350600a8561215b9190613bc9565b94506120d9565b8093505050505b919050565b505050565b6008805490506009600083815260200190815260200160002081905550600881908060018154018082558091505060019003906000526020600020016000909190919091505550565b600060016121c984610b6e565b6121d3919061339d565b90506000600760008481526020019081526020016000205490508181146122b8576000600660008673ffffffffffffffffffffffffffffffffffffffff1673ffffffffffffffffffffffffffffffffffffffff168152602001908152602001600020600084815260200190815260200160002054905080600660008773ffffffffffffffffffffffffffffffffffffffff1673ffffffffffffffffffffffffffffffffffffffff168152602001908152602001600020600084815260200190815260200160002081905550816007600083815260200190815260200160002081905550505b6007600084815260200190815260200160002060009055600660008573ffffffffffffffffffffffffffffffffffffffff1673ffffffffffffffffffffffffffffffffffffffff16815260200190815260200160002060008381526020019081526020016000206000905550505050565b6000600160088054905061233d919061339d565b905060006009600084815260200190815260200160002054905060006008838154811061236d5761236c612efc565b5b90600052602060002001549050806008838154811061238f5761238e612efc565b5b9060005260206000200181905550816009600083815260200190815260200160002081905550600960008581526020019081526020016000206000905560088054806123de576123dd613c2b565b5b6001900381819060005260206000200160009055905550505050565b600061240583610b6e565b905081600660008573ffffffffffffffffffffffffffffffffffffffff1673ffffffffffffffffffffffffffffffffffffffff168152602001908152602001600020600083815260200190815260200160002081905550806007600084815260200190815260200160002081905550505050565b6000604051905090565b600080fd5b600080fd5b60007fffffffff0000000000000000000000000000000000000000000000000000000082169050919050565b6124c28161248d565b81146124cd57600080fd5b50565b6000813590506124df816124b9565b92915050565b6000602082840312156124fb576124fa612483565b5b6000612509848285016124d0565b91505092915050565b60008115159050919050565b61252781612512565b82525050565b6000602082019050612542600083018461251e565b92915050565b600081519050919050565b600082825260208201905092915050565b60005b83811015612582578082015181840152602081019050612567565b60008484015250505050565b6000601f19601f8301169050919050565b60006125aa82612548565b6125b48185612553565b93506125c4818560208601612564565b6125cd8161258e565b840191505092915050565b600060208201905081810360008301526125f2818461259f565b905092915050565b600073ffffffffffffffffffffffffffffffffffffffff82169050919050565b6000612625826125fa565b9050919050565b6126358161261a565b82525050565b6000602082019050612650600083018461262c565b92915050565b6000819050919050565b61266981612656565b811461267457600080fd5b50565b60008135905061268681612660565b92915050565b6000602082840312156126a2576126a1612483565b5b60006126b084828501612677565b91505092915050565b6126c28161261a565b81146126cd57600080fd5b50565b6000813590506126df816126b9565b92915050565b600080604083850312156126fc576126fb612483565b5b600061270a858286016126d0565b925050602061271b85828601612677565b9150509250929050565b61272e81612656565b82525050565b60006020820190506127496000830184612725565b92915050565b60008060006060848603121561276857612767612483565b5b6000612776868287016126d0565b9350506020612787868287016126d0565b925050604061279886828701612677565b9150509250925092565b600080fd5b600080fd5b7f4e487b7100000000000000000000000000000000000000000000000000000000600052604160045260246000fd5b6127e48261258e565b810181811067ffffffffffffffff82111715612803576128026127ac565b5b80604052505050565b6000612816612479565b905061282282826127db565b919050565b600067ffffffffffffffff821115612842576128416127ac565b5b61284b8261258e565b9050602081019050919050565b82818337600083830152505050565b600061287a61287584612827565b61280c565b905082815260208101848484011115612896576128956127a7565b5b6128a1848285612858565b509392505050565b600082601f8301126128be576128bd6127a2565b5b81356128ce848260208601612867565b91505092915050565b600080604083850312156128ee576128ed612483565b5b60006128fc85828601612677565b925050602083013567ffffffffffffffff81111561291d5761291c612488565b5b612929858286016128a9565b9150509250929050565b60006020828403121561294957612948612483565b5b6000612957848285016126d0565b91505092915050565b61296981612512565b811461297457600080fd5b50565b60008135905061298681612960565b92915050565b600080604083850312156129a3576129a2612483565b5b60006129b1858286016126d0565b92505060206129c285828601612977565b9150509250929050565b600067ffffffffffffffff8211156129e7576129e66127ac565b5b6129f08261258e565b9050602081019050919050565b6000612a10612a0b846129cc565b61280c565b905082815260208101848484011115612a2c57612a2b6127a7565b5b612a37848285612858565b509392505050565b600082601f830112612a5457612a536127a2565b5b8135612a648482602086016129fd565b91505092915050565b60008060008060808587031215612a8757612a86612483565b5b6000612a95878288016126d0565b9450506020612aa6878288016126d0565b9350506040612ab787828801612677565b925050606085013567ffffffffffffffff811115612ad857612ad7612488565b5b612ae487828801612a3f565b91505092959194509250565b60008060408385031215612b0757612b06612483565b5b6000612b15858286016126d0565b9250506020612b26858286016126d0565b9150509250929050565b7f4e487b7100000000000000000000000000000000000000000000000000000000600052602260045260246000fd5b60006002820490506001821680612b7757607f821691505b602082108103612b8a57612b89612b30565b5b50919050565b7f4552433732313a20617070726f76656420717565727920666f72206e6f6e657860008201527f697374656e7420746f6b656e0000000000000000000000000000000000000000602082015250565b6000612bec602c83612553565b9150612bf782612b90565b604082019050919050565b60006020820190508181036000830152612c1b81612bdf565b9050919050565b7f4552433732313a20617070726f76616c20746f2063757272656e74206f776e6560008201527f7200000000000000000000000000000000000000000000000000000000000000602082015250565b6000612c7e602183612553565b9150612c8982612c22565b604082019050919050565b60006020820190508181036000830152612cad81612c71565b9050919050565b7f4552433732313a20617070726f76652063616c6c6572206973206e6f74206f7760008201527f6e6572206e6f7220617070726f76656420666f7220616c6c0000000000000000602082015250565b6000612d10603883612553565b9150612d1b82612cb4565b604082019050919050565b60006020820190508181036000830152612d3f81612d03565b9050919050565b7f4552433732313a207472616e736665722063616c6c6572206973206e6f74206f60008201527f776e6572206e6f7220617070726f766564000000000000000000000000000000602082015250565b6000612da2603183612553565b9150612dad82612d46565b604082019050919050565b60006020820190508181036000830152612dd181612d95565b9050919050565b7f455243373231456e756d657261626c653a206f776e657220696e646578206f7560008201527f74206f6620626f756e6473000000000000000000000000000000000000000000602082015250565b6000612e34602b83612553565b9150612e3f82612dd8565b604082019050919050565b60006020820190508181036000830152612e6381612e27565b9050919050565b7f455243373231456e756d657261626c653a20676c6f62616c20696e646578206f60008201527f7574206f6620626f756e64730000000000000000000000000000000000000000602082015250565b6000612ec6602c83612553565b9150612ed182612e6a565b604082019050919050565b60006020820190508181036000830152612ef581612eb9565b9050919050565b7f4e487b7100000000000000000000000000000000000000000000000000000000600052603260045260246000fd5b6000604082019050612f40600083018561262c565b612f4d6020830184612725565b9392505050565b600081519050612f6381612960565b92915050565b600060208284031215612f7f57612f7e612483565b5b6000612f8d84828501612f54565b91505092915050565b7f4552433732313a206f776e657220717565727920666f72206e6f6e657869737460008201527f656e7420746f6b656e0000000000000000000000000000000000000000000000602082015250565b6000612ff2602983612553565b9150612ffd82612f96565b604082019050919050565b6000602082019050818103600083015261302181612fe5565b9050919050565b7f4552433732313a2062616c616e636520717565727920666f7220746865207a6560008201527f726f206164647265737300000000000000000000000000000000000000000000602082015250565b6000613084602a83612553565b915061308f82613028565b604082019050919050565b600060208201905081810360008301526130b381613077565b9050919050565b7f4f776e61626c653a2063616c6c6572206973206e6f7420746865206f776e6572600082015250565b60006130f0602083612553565b91506130fb826130ba565b602082019050919050565b6000602082019050818103600083015261311f816130e3565b9050919050565b7f4f776e61626c653a206e6577206f776e657220697320746865207a65726f206160008201527f6464726573730000000000000000000000000000000000000000000000000000602082015250565b6000613182602683612553565b915061318d82613126565b604082019050919050565b600060208201905081810360008301526131b181613175565b9050919050565b7f4552433732313a206f70657261746f7220717565727920666f72206e6f6e657860008201527f697374656e7420746f6b656e0000000000000000000000000000000000000000602082015250565b6000613214602c83612553565b915061321f826131b8565b604082019050919050565b6000602082019050818103600083015261324381613207565b9050919050565b7f4552433732313a207472616e736665722066726f6d20696e636f72726563742060008201527f6f776e6572000000000000000000000000000000000000000000000000000000602082015250565b60006132a6602583612553565b91506132b18261324a565b604082019050919050565b600060208201905081810360008301526132d581613299565b9050919050565b7f4552433732313a207472616e7366657220746f20746865207a65726f2061646460008201527f7265737300000000000000000000000000000000000000000000000000000000602082015250565b6000613338602483612553565b9150613343826132dc565b604082019050919050565b600060208201905081810360008301526133678161332b565b9050919050565b7f4e487b7100000000000000000000000000000000000000000000000000000000600052601160045260246000fd5b60006133a882612656565b91506133b383612656565b92508282039050818111156133cb576133ca61336e565b5b92915050565b60006133dc82612656565b91506133e783612656565b92508282019050808211156133ff576133fe61336e565b5b92915050565b7f45524337323155524953746f726167653a2055524920736574206f66206e6f6e60008201527f6578697374656e7420746f6b656e000000000000000000000000000000000000602082015250565b6000613461602e83612553565b915061346c82613405565b604082019050919050565b6000602082019050818103600083015261349081613454565b9050919050565b60008190508160005260206000209050919050565b60006020601f8301049050919050565b600082821b905092915050565b6000600883026134f97fffffffffffffffffffffffffffffffffffffffffffffffffffffffffffffffff826134bc565b61350386836134bc565b95508019841693508086168417925050509392505050565b6000819050919050565b600061354061353b61353684612656565b61351b565b612656565b9050919050565b6000819050919050565b61355a83613525565b61356e61356682613547565b8484546134c9565b825550505050565b600090565b613583613576565b61358e818484613551565b505050565b5b818110156135b2576135a760008261357b565b600181019050613594565b5050565b601f8211156135f7576135c881613497565b6135d1846134ac565b810160208510156135e0578190505b6135f46135ec856134ac565b830182613593565b50505b505050565b600082821c905092915050565b600061361a600019846008026135fc565b1980831691505092915050565b60006136338383613609565b9150826002028217905092915050565b61364c82612548565b67ffffffffffffffff811115613665576136646127ac565b5b61366f8254612b5f565b61367a8282856135b6565b600060209050601f8311600181146136ad576000841561369b578287015190505b6136a58582613627565b86555061370d565b601f1984166136bb86613497565b60005b828110156136e3578489015182556001820191506020850194506020810190506136be565b8683101561370057848901516136fc601f891682613609565b8355505b6001600288020188555050505b505050505050565b7f4552433732313a20617070726f766520746f2063616c6c657200000000000000600082015250565b600061374b601983612553565b915061375682613715565b602082019050919050565b6000602082019050818103600083015261377a8161373e565b9050919050565b7f4552433732313a207472616e7366657220746f206e6f6e20455243373231526560008201527f63656976657220696d706c656d656e7465720000000000000000000000000000602082015250565b60006137dd603283612553565b91506137e882613781565b604082019050919050565b6000602082019050818103600083015261380c816137d0565b9050919050565b7f45524337323155524953746f726167653a2055524920717565727920666f722060008201527f6e6f6e6578697374656e7420746f6b656e000000000000000000000000000000602082015250565b600061386f603183612553565b915061387a82613813565b604082019050919050565b6000602082019050818103600083015261389e81613862565b9050919050565b600081905092915050565b60006138bb82612548565b6138c581856138a5565b93506138d5818560208601612564565b80840191505092915050565b60006138ed82856138b0565b91506138f982846138b0565b91508190509392505050565b600081519050919050565b600082825260208201905092915050565b600061392c82613905565b6139368185613910565b9350613946818560208601612564565b61394f8161258e565b840191505092915050565b600060808201905061396f600083018761262c565b61397c602083018661262c565b6139896040830185612725565b818103606083015261399b8184613921565b905095945050505050565b6000815190506139b5816124b9565b92915050565b6000602082840312156139d1576139d0612483565b5b60006139df848285016139a6565b91505092915050565b7f4552433732314d657461646174613a2055524920717565727920666f72206e6f60008201527f6e6578697374656e7420746f6b656e0000000000000000000000000000000000602082015250565b6000613a44602f83612553565b9150613a4f826139e8565b604082019050919050565b60006020820190508181036000830152613a7381613a37565b9050919050565b7f4552433732313a206d696e7420746f20746865207a65726f2061646472657373600082015250565b6000613ab0602083612553565b9150613abb82613a7a565b602082019050919050565b60006020820190508181036000830152613adf81613aa3565b9050919050565b7f4552433732313a20746f6b656e20616c7265616479206d696e74656400000000600082015250565b6000613b1c601c83612553565b9150613b2782613ae6565b602082019050919050565b60006020820190508181036000830152613b4b81613b0f565b9050919050565b6000613b5d82612656565b91507fffffffffffffffffffffffffffffffffffffffffffffffffffffffffffffffff8203613b8f57613b8e61336e565b5b600182019050919050565b7f4e487b7100000000000000000000000000000000000000000000000000000000600052601260045260246000fd5b6000613bd482612656565b9150613bdf83612656565b925082613bef57613bee613b9a565b5b828204905092915050565b6000613c0582612656565b9150613c1083612656565b925082613c2057613c1f613b9a565b5b828206905092915050565b7f4e487b7100000000000000000000000000000000000000000000000000000000600052603160045260246000fdfea2646970667358221220bf871dff10fc2e8fc40676059907a8e045cd217a46e11584ff0d656f8a3bcea364736f6c63430008110033",
  "immutableReferences": {},
  "source": "// SPDX-License-Identifier: MIT\npragma solidity ^0.8.7;\n\nimport \"openzeppelin-solidity/contracts/token/ERC721/ERC721.sol\";\nimport \"openzeppelin-solidity/contracts/token/ERC721/extensions/ERC721Enumerable.sol\";\nimport \"openzeppelin-solidity/contracts/token/ERC721/extensions/ERC721URIStorage.sol\";\nimport \"openzeppelin-solidity/contracts/access/Ownable.sol\";\nimport \"openzeppelin-solidity/contracts/utils/cryptography/ECDSA.sol\";\n\n//import \"./CosmoVault.sol\";\nimport \"./ICosmoTreasury.sol\";\n\ncontract CosmoCreation is ERC721, ERC721Enumerable, ERC721URIStorage, Ownable {\n\n    //CosmoVault vault;\n\n    uint256 public NUTS_INITIAL;\n\n    address public SYSTEM_ADDRESS;\n    address public TREASURY_ADDRESS;\n\n    using ECDSA for bytes32;\n\n    constructor(\n        string memory _name,\n        string memory _symbol,\n        uint256 _supply,\n        address _systemAddress,\n        address _treasuryAddress\n    )\n    ERC721(_name, _symbol)\n    {\n        //vault = CosmoVault(_vaultAddress);\n        NUTS_INITIAL = _supply;\n        SYSTEM_ADDRESS = _systemAddress;\n        TREASURY_ADDRESS = _treasuryAddress;\n    }\n\n    function _baseURI() internal pure override returns (string memory) {\n        return \"https://ipfs.io/ipfs/\";\n    }\n\n    function mintNut(uint256 _nutId, string memory _nutCID) public payable {\n        //require(vault.SALE_STATUS(), \"Sale must be active\");\n        //require(totalSupply() < vault.NUTS_INITIAL(), \"Exceed initial supply of nuts\");\n        //require(NUT_PRICE * _numberOfNuts <= msg.value, \"Ether value is not correct\");\n\n        //_safeMint(vault.TREASURY_ADDRESS(), totalSupply());\n        _safeMint(TREASURY_ADDRESS, totalSupply());\n        _setTokenURI(totalSupply(), _nutCID);\n        //vault.giveMintBalance(totalSupply());\n        ICosmoTreasury(TREASURY_ADDRESS).assignMintBalance(TREASURY_ADDRESS, _nutId);\n    }\n\n    function changeTokenURI(uint256 _tokenId, string memory _cidPath, bytes memory _signature) internal {\n        require(_isApprovedOrOwner(_msgSender(), _tokenId), \"Caller is not owner nor approved\");\n        bytes32 pathHash = keccak256(abi.encodePacked(_cidPath));\n        require(isVerified(pathHash, _signature), \"Data does not match signature\");\n\n        _setTokenURI(_tokenId, _cidPath);\n    }\n\n    function signerAddress(bytes32 _hash, bytes memory _signature) internal pure returns (address) {\n        return _hash.recover(_signature);\n    }\n\n    function isVerified(bytes32 _pathHash, bytes memory _signature) internal view returns (bool) {\n        // *Research* - Should you include the following \"\\x19Ethereum Signed Message:\\n32\"\n        require(signerAddress(_pathHash, _signature) == SYSTEM_ADDRESS, \"Invalid signature\");\n        return true;\n    }\n\n    // ----- The following functions are overrides required by Solidity -----\n    function _beforeTokenTransfer(address from, address to, uint256 tokenId) internal override(ERC721, ERC721Enumerable) {\n        super._beforeTokenTransfer(from, to, tokenId);\n    }\n\n    function _burn(uint256 tokenId) internal override(ERC721, ERC721URIStorage) {\n        super._burn(tokenId);\n    }\n\n    function tokenURI(uint256 tokenId) public view override(ERC721, ERC721URIStorage) returns (string memory) {\n        return super.tokenURI(tokenId);\n    }\n\n    function supportsInterface(bytes4 interfaceId) public view override(ERC721, ERC721Enumerable) returns (bool) {\n        return super.supportsInterface(interfaceId);\n    }\n    // -----      -----     -----     -----     -----\n}\n",
  "sourcePath": "/home/redlentils/Seafile/Websites/avatarnft/contracts/CosmoCreation.sol",
  "compiler": {
    "name": "solc",
    "version": "0.8.17+commit.8df45f5f.Emscripten.clang"
  },
  "schemaVersion": "3.4.10",
  "updatedAt": "2022-10-18T05:13:26.767Z",
  "devdoc": {
    "kind": "dev",
    "methods": {
      "approve(address,uint256)": {
        "details": "See {IERC721-approve}."
      },
      "balanceOf(address)": {
        "details": "See {IERC721-balanceOf}."
      },
      "getApproved(uint256)": {
        "details": "See {IERC721-getApproved}."
      },
      "isApprovedForAll(address,address)": {
        "details": "See {IERC721-isApprovedForAll}."
      },
      "name()": {
        "details": "See {IERC721Metadata-name}."
      },
      "owner()": {
        "details": "Returns the address of the current owner."
      },
      "ownerOf(uint256)": {
        "details": "See {IERC721-ownerOf}."
      },
      "renounceOwnership()": {
        "details": "Leaves the contract without owner. It will not be possible to call `onlyOwner` functions anymore. Can only be called by the current owner. NOTE: Renouncing ownership will leave the contract without an owner, thereby removing any functionality that is only available to the owner."
      },
      "safeTransferFrom(address,address,uint256)": {
        "details": "See {IERC721-safeTransferFrom}."
      },
      "safeTransferFrom(address,address,uint256,bytes)": {
        "details": "See {IERC721-safeTransferFrom}."
      },
      "setApprovalForAll(address,bool)": {
        "details": "See {IERC721-setApprovalForAll}."
      },
      "symbol()": {
        "details": "See {IERC721Metadata-symbol}."
      },
      "tokenByIndex(uint256)": {
        "details": "See {IERC721Enumerable-tokenByIndex}."
      },
      "tokenOfOwnerByIndex(address,uint256)": {
        "details": "See {IERC721Enumerable-tokenOfOwnerByIndex}."
      },
      "totalSupply()": {
        "details": "See {IERC721Enumerable-totalSupply}."
      },
      "transferFrom(address,address,uint256)": {
        "details": "See {IERC721-transferFrom}."
      },
      "transferOwnership(address)": {
        "details": "Transfers ownership of the contract to a new account (`newOwner`). Can only be called by the current owner."
      }
    },
    "version": 1
  },
  "userdoc": {
    "kind": "user",
    "methods": {},
    "version": 1
  }
}