{
  "contractName": "CosmoTreasury",
  "abi": [
    {
      "inputs": [],
      "name": "addressOf",
      "outputs": [
        {
          "internalType": "address",
          "name": "system",
          "type": "address"
        },
        {
          "internalType": "address",
          "name": "matter",
          "type": "address"
        },
        {
          "internalType": "address",
          "name": "treasury",
          "type": "address"
        },
        {
          "internalType": "address",
          "name": "cosmos",
          "type": "address"
        },
        {
          "internalType": "address",
          "name": "seedImplementation",
          "type": "address"
        },
        {
          "internalType": "address",
          "name": "butterImplementation",
          "type": "address"
        }
      ],
      "stateMutability": "view",
      "type": "function"
    },
    {
      "inputs": [
        {
          "internalType": "uint256",
          "name": "",
          "type": "uint256"
        }
      ],
      "name": "butterChurnedByNut",
      "outputs": [
        {
          "internalType": "uint256",
          "name": "",
          "type": "uint256"
        }
      ],
      "stateMutability": "view",
      "type": "function"
    },
    {
      "inputs": [],
      "name": "butterDeficiencyInUniverse",
      "outputs": [
        {
          "internalType": "uint256",
          "name": "",
          "type": "uint256"
        }
      ],
      "stateMutability": "view",
      "type": "function"
    },
    {
      "inputs": [
        {
          "internalType": "uint256",
          "name": "",
          "type": "uint256"
        }
      ],
      "name": "butterDeficiencyOfNut",
      "outputs": [
        {
          "internalType": "uint256",
          "name": "",
          "type": "uint256"
        }
      ],
      "stateMutability": "view",
      "type": "function"
    },
    {
      "inputs": [],
      "name": "butterJars",
      "outputs": [
        {
          "internalType": "uint256",
          "name": "",
          "type": "uint256"
        }
      ],
      "stateMutability": "view",
      "type": "function"
    },
    {
      "inputs": [
        {
          "internalType": "uint256",
          "name": "",
          "type": "uint256"
        }
      ],
      "name": "butterLocations",
      "outputs": [
        {
          "internalType": "address",
          "name": "",
          "type": "address"
        }
      ],
      "stateMutability": "view",
      "type": "function"
    },
    {
      "inputs": [],
      "name": "butterSpread",
      "outputs": [
        {
          "internalType": "uint256",
          "name": "",
          "type": "uint256"
        }
      ],
      "stateMutability": "view",
      "type": "function"
    },
    {
      "inputs": [],
      "name": "butterWeight",
      "outputs": [
        {
          "internalType": "uint256",
          "name": "",
          "type": "uint256"
        }
      ],
      "stateMutability": "view",
      "type": "function"
    },
    {
      "inputs": [
        {
          "internalType": "uint256",
          "name": "",
          "type": "uint256"
        },
        {
          "internalType": "uint256",
          "name": "",
          "type": "uint256"
        }
      ],
      "name": "buttersOfNut",
      "outputs": [
        {
          "internalType": "uint256",
          "name": "",
          "type": "uint256"
        }
      ],
      "stateMutability": "view",
      "type": "function"
    },
    {
      "inputs": [
        {
          "internalType": "uint256",
          "name": "",
          "type": "uint256"
        }
      ],
      "name": "currentOwnerOfNut",
      "outputs": [
        {
          "internalType": "address",
          "name": "",
          "type": "address"
        }
      ],
      "stateMutability": "view",
      "type": "function"
    },
    {
      "inputs": [
        {
          "internalType": "uint256",
          "name": "",
          "type": "uint256"
        }
      ],
      "name": "isButterActive",
      "outputs": [
        {
          "internalType": "bool",
          "name": "",
          "type": "bool"
        }
      ],
      "stateMutability": "view",
      "type": "function"
    },
    {
      "inputs": [
        {
          "internalType": "uint256",
          "name": "",
          "type": "uint256"
        }
      ],
      "name": "isSeedActive",
      "outputs": [
        {
          "internalType": "bool",
          "name": "",
          "type": "bool"
        }
      ],
      "stateMutability": "view",
      "type": "function"
    },
    {
      "inputs": [
        {
          "internalType": "uint256",
          "name": "",
          "type": "uint256"
        },
        {
          "internalType": "uint256",
          "name": "",
          "type": "uint256"
        }
      ],
      "name": "isSeedOfNut",
      "outputs": [
        {
          "internalType": "bool",
          "name": "",
          "type": "bool"
        }
      ],
      "stateMutability": "view",
      "type": "function"
    },
    {
      "inputs": [
        {
          "internalType": "uint256",
          "name": "",
          "type": "uint256"
        }
      ],
      "name": "matterBalanceOfNut",
      "outputs": [
        {
          "internalType": "uint256",
          "name": "",
          "type": "uint256"
        }
      ],
      "stateMutability": "view",
      "type": "function"
    },
    {
      "inputs": [
        {
          "internalType": "uint256",
          "name": "",
          "type": "uint256"
        }
      ],
      "name": "matterMintedByNut",
      "outputs": [
        {
          "internalType": "uint256",
          "name": "",
          "type": "uint256"
        }
      ],
      "stateMutability": "view",
      "type": "function"
    },
    {
      "inputs": [
        {
          "internalType": "uint256",
          "name": "_nutId",
          "type": "uint256"
        }
      ],
      "name": "numOfSeedsGrownOf",
      "outputs": [
        {
          "internalType": "uint256",
          "name": "",
          "type": "uint256"
        }
      ],
      "stateMutability": "view",
      "type": "function"
    },
    {
      "inputs": [
        {
          "internalType": "uint256",
          "name": "_nutId",
          "type": "uint256"
        }
      ],
      "name": "numOfSeedsOf",
      "outputs": [
        {
          "internalType": "uint256",
          "name": "",
          "type": "uint256"
        }
      ],
      "stateMutability": "view",
      "type": "function"
    },
    {
      "inputs": [
        {
          "internalType": "uint256",
          "name": "_nutId",
          "type": "uint256"
        }
      ],
      "name": "numberOfButterJars",
      "outputs": [
        {
          "internalType": "uint256",
          "name": "",
          "type": "uint256"
        }
      ],
      "stateMutability": "view",
      "type": "function"
    },
    {
      "inputs": [],
      "name": "nut",
      "outputs": [
        {
          "internalType": "uint256",
          "name": "price",
          "type": "uint256"
        },
        {
          "internalType": "uint256",
          "name": "rate",
          "type": "uint256"
        }
      ],
      "stateMutability": "view",
      "type": "function"
    },
    {
      "inputs": [
        {
          "internalType": "uint256",
          "name": "",
          "type": "uint256"
        }
      ],
      "name": "nutOfButter",
      "outputs": [
        {
          "internalType": "uint256",
          "name": "",
          "type": "uint256"
        }
      ],
      "stateMutability": "view",
      "type": "function"
    },
    {
      "inputs": [
        {
          "internalType": "uint256",
          "name": "",
          "type": "uint256"
        }
      ],
      "name": "nutOfSeed",
      "outputs": [
        {
          "internalType": "uint256",
          "name": "",
          "type": "uint256"
        }
      ],
      "stateMutability": "view",
      "type": "function"
    },
    {
      "inputs": [
        {
          "internalType": "uint256",
          "name": "",
          "type": "uint256"
        }
      ],
      "name": "nutsPayeeList",
      "outputs": [
        {
          "internalType": "uint256",
          "name": "",
          "type": "uint256"
        }
      ],
      "stateMutability": "view",
      "type": "function"
    },
    {
      "inputs": [
        {
          "internalType": "uint256",
          "name": "",
          "type": "uint256"
        }
      ],
      "name": "seedLocations",
      "outputs": [
        {
          "internalType": "address",
          "name": "",
          "type": "address"
        }
      ],
      "stateMutability": "view",
      "type": "function"
    },
    {
      "inputs": [],
      "name": "seedsCreated",
      "outputs": [
        {
          "internalType": "uint256",
          "name": "",
          "type": "uint256"
        }
      ],
      "stateMutability": "view",
      "type": "function"
    },
    {
      "inputs": [
        {
          "internalType": "uint256",
          "name": "",
          "type": "uint256"
        },
        {
          "internalType": "uint256",
          "name": "",
          "type": "uint256"
        }
      ],
      "name": "seedsGrownOfNut",
      "outputs": [
        {
          "internalType": "uint256",
          "name": "",
          "type": "uint256"
        }
      ],
      "stateMutability": "view",
      "type": "function"
    },
    {
      "inputs": [
        {
          "internalType": "uint256",
          "name": "",
          "type": "uint256"
        },
        {
          "internalType": "uint256",
          "name": "",
          "type": "uint256"
        }
      ],
      "name": "seedsOfNut",
      "outputs": [
        {
          "internalType": "uint256",
          "name": "",
          "type": "uint256"
        }
      ],
      "stateMutability": "view",
      "type": "function"
    },
    {
      "inputs": [
        {
          "internalType": "address",
          "name": "_systemAddress",
          "type": "address"
        },
        {
          "internalType": "address",
          "name": "_matterAddress",
          "type": "address"
        }
      ],
      "name": "initialize",
      "outputs": [],
      "stateMutability": "nonpayable",
      "type": "function"
    },
    {
      "inputs": [
        {
          "internalType": "uint256",
          "name": "_price",
          "type": "uint256"
        },
        {
          "internalType": "uint256",
          "name": "_rate",
          "type": "uint256"
        }
      ],
      "name": "updateCosmoInfo",
      "outputs": [],
      "stateMutability": "nonpayable",
      "type": "function"
    },
    {
      "inputs": [],
      "name": "getVaultLocation",
      "outputs": [
        {
          "internalType": "address",
          "name": "",
          "type": "address"
        }
      ],
      "stateMutability": "nonpayable",
      "type": "function"
    },
    {
      "inputs": [],
      "name": "getPrice",
      "outputs": [
        {
          "internalType": "uint256",
          "name": "",
          "type": "uint256"
        }
      ],
      "stateMutability": "view",
      "type": "function"
    },
    {
      "inputs": [
        {
          "internalType": "uint256",
          "name": "_nutId",
          "type": "uint256"
        }
      ],
      "name": "matterNeeded",
      "outputs": [
        {
          "internalType": "uint256",
          "name": "",
          "type": "uint256"
        }
      ],
      "stateMutability": "view",
      "type": "function"
    },
    {
      "inputs": [
        {
          "internalType": "uint256",
          "name": "_nutId",
          "type": "uint256"
        },
        {
          "internalType": "bytes32",
          "name": "_secretHash",
          "type": "bytes32"
        }
      ],
      "name": "spawnSeed",
      "outputs": [
        {
          "internalType": "bool",
          "name": "",
          "type": "bool"
        }
      ],
      "stateMutability": "payable",
      "type": "function"
    },
    {
      "inputs": [
        {
          "internalType": "uint256",
          "name": "_seedId",
          "type": "uint256"
        },
        {
          "internalType": "uint256",
          "name": "_matterNeeded",
          "type": "uint256"
        }
      ],
      "name": "seedFromNut",
      "outputs": [
        {
          "internalType": "bool",
          "name": "",
          "type": "bool"
        }
      ],
      "stateMutability": "nonpayable",
      "type": "function"
    },
    {
      "inputs": [
        {
          "internalType": "uint256",
          "name": "_nutId",
          "type": "uint256"
        },
        {
          "internalType": "uint256",
          "name": "_matterContributed",
          "type": "uint256"
        },
        {
          "internalType": "uint256",
          "name": "_matterDrawRate",
          "type": "uint256"
        },
        {
          "internalType": "bytes32",
          "name": "_secretHash",
          "type": "bytes32"
        }
      ],
      "name": "newButter",
      "outputs": [
        {
          "internalType": "bool",
          "name": "",
          "type": "bool"
        }
      ],
      "stateMutability": "nonpayable",
      "type": "function"
    },
    {
      "inputs": [
        {
          "internalType": "address",
          "name": "_drawer",
          "type": "address"
        },
        {
          "internalType": "uint256",
          "name": "_butterId",
          "type": "uint256"
        },
        {
          "internalType": "uint256",
          "name": "_balance",
          "type": "uint256"
        },
        {
          "internalType": "uint256",
          "name": "_currentBalance",
          "type": "uint256"
        }
      ],
      "name": "butterDrawn",
      "outputs": [
        {
          "internalType": "bool",
          "name": "",
          "type": "bool"
        }
      ],
      "stateMutability": "nonpayable",
      "type": "function"
    },
    {
      "inputs": [
        {
          "internalType": "address",
          "name": "_tokenOwner",
          "type": "address"
        },
        {
          "internalType": "uint256",
          "name": "_tokenId",
          "type": "uint256"
        }
      ],
      "name": "assignMintBalance",
      "outputs": [
        {
          "internalType": "bool",
          "name": "",
          "type": "bool"
        }
      ],
      "stateMutability": "nonpayable",
      "type": "function"
    }
  ],
  "bytecode": "0x6080604052600080556000600755600060085560006009556000600f5534801561002857600080fd5b50612f7d806100386000396000f3fe60806040526004361061020f5760003560e01c806353f97bc811610118578063a06fc90b116100a0578063df4f5ccc1161006f578063df4f5ccc146108e9578063ea988be814610914578063f50d43491461093f578063f6317f8d1461097c578063fe774f9d146109a75761020f565b8063a06fc90b14610802578063a83851b91461083f578063aef054ce1461086f578063d4d81032146108ac5761020f565b80638ed3df0f116100e75780638ed3df0f146106e35780639578d3df1461072057806398d5fdca1461075d5780639975a8a2146107885780639cee22b1146107c55761020f565b806353f97bc8146106155780635894d887146106525780636b651a2c1461067b57806375b689aa146106b85761020f565b806326342ea41161019b5780633c8023ad1161016a5780633c8023ad1461050a57806347634e1c14610547578063485cc9551461058457806349a6b51f146105ad5780634ffe5a6f146105d85761020f565b806326342ea414610428578063282adc8c146104535780633279bd4f1461049057806339dc84f4146104cd5761020f565b8063171e8441116101e2578063171e8441146102f75780631821907a146103345780631c85949c146103715780631e0b3964146103ae57806323f526c0146103eb5761020f565b806302760a481461021457806303f5de9d146102515780631298896e1461028e57806315d3b7a0146102cb575b600080fd5b34801561022057600080fd5b5061023b600480360381019061023691906123ba565b6109d7565b6040516102489190612402565b60405180910390f35b34801561025d57600080fd5b5061027860048036038101906102739190612453565b6109f7565b6040516102859190612402565b60405180910390f35b34801561029a57600080fd5b506102b560048036038101906102b091906124ba565b6110f0565b6040516102c29190612509565b60405180910390f35b3480156102d757600080fd5b506102e0611121565b6040516102ee929190612524565b60405180910390f35b34801561030357600080fd5b5061031e600480360381019061031991906123ba565b611133565b60405161032b9190612402565b60405180910390f35b34801561034057600080fd5b5061035b600480360381019061035691906123ba565b611153565b6040516103689190612509565b60405180910390f35b34801561037d57600080fd5b50610398600480360381019061039391906125ab565b61116b565b6040516103a59190612402565b60405180910390f35b3480156103ba57600080fd5b506103d560048036038101906103d091906124ba565b611328565b6040516103e29190612509565b60405180910390f35b3480156103f757600080fd5b50610412600480360381019061040d91906123ba565b611359565b60405161041f91906125fa565b60405180910390f35b34801561043457600080fd5b5061043d61138c565b60405161044a9190612509565b60405180910390f35b34801561045f57600080fd5b5061047a600480360381019061047591906123ba565b611392565b6040516104879190612509565b60405180910390f35b34801561049c57600080fd5b506104b760048036038101906104b291906123ba565b6113b2565b6040516104c49190612509565b60405180910390f35b3480156104d957600080fd5b506104f460048036038101906104ef91906123ba565b6113ca565b60405161050191906125fa565b60405180910390f35b34801561051657600080fd5b50610531600480360381019061052c91906124ba565b6113fd565b60405161053e9190612509565b60405180910390f35b34801561055357600080fd5b5061056e600480360381019061056991906123ba565b61142e565b60405161057b9190612509565b60405180910390f35b34801561059057600080fd5b506105ab60048036038101906105a69190612615565b611446565b005b3480156105b957600080fd5b506105c2611516565b6040516105cf9190612509565b60405180910390f35b3480156105e457600080fd5b506105ff60048036038101906105fa91906123ba565b61151c565b60405161060c9190612509565b60405180910390f35b34801561062157600080fd5b5061063c600480360381019061063791906124ba565b611534565b6040516106499190612402565b60405180910390f35b34801561065e57600080fd5b50610679600480360381019061067491906124ba565b611563565b005b34801561068757600080fd5b506106a2600480360381019061069d91906123ba565b61157b565b6040516106af9190612509565b60405180910390f35b3480156106c457600080fd5b506106cd61159b565b6040516106da91906125fa565b60405180910390f35b3480156106ef57600080fd5b5061070a600480360381019061070591906123ba565b611638565b6040516107179190612509565b60405180910390f35b34801561072c57600080fd5b50610747600480360381019061074291906123ba565b611651565b6040516107549190612509565b60405180910390f35b34801561076957600080fd5b50610772611675565b60405161077f9190612509565b60405180910390f35b34801561079457600080fd5b506107af60048036038101906107aa91906123ba565b611682565b6040516107bc9190612509565b60405180910390f35b3480156107d157600080fd5b506107ec60048036038101906107e79190612655565b6116a2565b6040516107f99190612402565b60405180910390f35b34801561080e57600080fd5b50610829600480360381019061082491906124ba565b6117d1565b6040516108369190612402565b60405180910390f35b34801561084b57600080fd5b50610854611a76565b604051610866969594939291906126bc565b60405180910390f35b34801561087b57600080fd5b50610896600480360381019061089191906123ba565b611b60565b6040516108a391906125fa565b60405180910390f35b3480156108b857600080fd5b506108d360048036038101906108ce91906123ba565b611b93565b6040516108e09190612509565b60405180910390f35b3480156108f557600080fd5b506108fe611bab565b60405161090b9190612509565b60405180910390f35b34801561092057600080fd5b50610929611bb1565b6040516109369190612509565b60405180910390f35b34801561094b57600080fd5b50610966600480360381019061096191906123ba565b611bb7565b6040516109739190612509565b60405180910390f35b34801561098857600080fd5b50610991611bcf565b60405161099e9190612509565b60405180910390f35b6109c160048036038101906109bc919061271d565b611bd5565b6040516109ce9190612402565b60405180910390f35b60116020528060005260406000206000915054906101000a900460ff1681565b600080601a600087815260200190815260200160002060009054906101000a900473ffffffffffffffffffffffffffffffffffffffff1690503373ffffffffffffffffffffffffffffffffffffffff168173ffffffffffffffffffffffffffffffffffffffff1614610a9e576040517f08c379a0000000000000000000000000000000000000000000000000000000008152600401610a95906127ba565b60405180910390fd5b84601b6000888152602001908152602001600020541015610af4576040517f08c379a0000000000000000000000000000000000000000000000000000000008152600401610aeb90612826565b60405180910390fd5b6000601260010160009054906101000a900473ffffffffffffffffffffffffffffffffffffffff1690508073ffffffffffffffffffffffffffffffffffffffff166370a08231836040518263ffffffff1660e01b8152600401610b5791906125fa565b602060405180830381865afa158015610b74573d6000803e3d6000fd5b505050506040513d601f19601f82011682018060405250810190610b98919061285b565b861115610bda576040517f08c379a0000000000000000000000000000000000000000000000000000000008152600401610bd1906128d4565b60405180910390fd5b60008587610be89190612923565b14610c28576040517f08c379a0000000000000000000000000000000000000000000000000000000008152600401610c1f906129a0565b60405180910390fd5b6000610c338861157b565b1115610ca65785600f6000828254610c4b91906129ef565b9250508190555085601060008981526020019081526020016000206000828254610c7591906129ef565b92505081905550601c8790806001815401808255809150506001900390600052602060002001600090919091909150555b60008173ffffffffffffffffffffffffffffffffffffffff166370a08231601260020160009054906101000a900473ffffffffffffffffffffffffffffffffffffffff166040518263ffffffff1660e01b8152600401610d0691906125fa565b602060405180830381865afa158015610d23573d6000803e3d6000fd5b505050506040513d601f19601f82011682018060405250810190610d47919061285b565b90506000811115610f85576000610d6082600f54611ef8565b90506000805b828114610f81576000601c80549050905060008103610d855750610f81565b80821115610d9257600092505b6000601c8481548110610da857610da7612a23565b5b906000526020600020015490506000601a600083815260200190815260200160002060009054906101000a900473ffffffffffffffffffffffffffffffffffffffff1690506000601860010154610dfe8461157b565b610e089190612a52565b905080601b60008581526020019081526020016000205403610e4b57601c8681548110610e3857610e37612a23565b5b9060005260206000200160009055610f5c565b8873ffffffffffffffffffffffffffffffffffffffff1663a9059cbb8360016040518363ffffffff1660e01b8152600401610e87929190612ad9565b6020604051808303816000875af1158015610ea6573d6000803e3d6000fd5b505050506040513d601f19601f82011682018060405250810190610eca9190612b2e565b50601c839080600181540180825580915050600190039060005260206000200160009091909190915055601c8681548110610f0857610f07612a23565b5b90600052602060002001600090556001600f6000828254610f299190612b5b565b925050819055506001601060008581526020019081526020016000206000828254610f549190612b5b565b925050819055505b8580610f6790612b8f565b965050505050508080610f7990612b8f565b915050610d66565b5050505b6000610fb5601260050160009054906101000a900473ffffffffffffffffffffffffffffffffffffffff16611f11565b90508073ffffffffffffffffffffffffffffffffffffffff1663f8257f876009548b8b8b601260020160009054906101000a900473ffffffffffffffffffffffffffffffffffffffff168c6040518763ffffffff1660e01b815260040161102196959493929190612be6565b600060405180830381600087803b15801561103b57600080fd5b505af115801561104f573d6000803e3d6000fd5b505050508273ffffffffffffffffffffffffffffffffffffffff1663a9059cbb828a6040518363ffffffff1660e01b815260040161108e929190612c47565b6020604051808303816000875af11580156110ad573d6000803e3d6000fd5b505050506040513d601f19601f820116820180604052508101906110d19190612b2e565b506110e089600954838b611fe5565b6001945050505050949350505050565b6002602052816000526040600020818154811061110c57600080fd5b90600052602060002001600091509150505481565b60188060000154908060010154905082565b60066020528060005260406000206000915054906101000a900460ff1681565b600d6020528060005260406000206000915090505481565b600080601260010160009054906101000a900473ffffffffffffffffffffffffffffffffffffffff1690506018600101548173ffffffffffffffffffffffffffffffffffffffff166370a08231601260020160009054906101000a900473ffffffffffffffffffffffffffffffffffffffff166040518263ffffffff1660e01b81526004016111fa91906125fa565b602060405180830381865afa158015611217573d6000803e3d6000fd5b505050506040513d601f19601f8201168201806040525081019061123b919061285b565b101561127c576040517f08c379a000000000000000000000000000000000000000000000000000000000815260040161127390612cbc565b60405180910390fd5b8073ffffffffffffffffffffffffffffffffffffffff1663a9059cbb856018600101546040518363ffffffff1660e01b81526004016112bc929190612c47565b6020604051808303816000875af11580156112db573d6000803e3d6000fd5b505050506040513d601f19601f820116820180604052508101906112ff9190612b2e565b50601860010154601b600085815260200190815260200160002081905550600191505092915050565b600a602052816000526040600020818154811061134457600080fd5b90600052602060002001600091509150505481565b60056020528060005260406000206000915054906101000a900473ffffffffffffffffffffffffffffffffffffffff1681565b60095481565b6000600a6000838152602001908152602001600020805490509050919050565b600c6020528060005260406000206000915090505481565b601a6020528060005260406000206000915054906101000a900473ffffffffffffffffffffffffffffffffffffffff1681565b6001602052816000526040600020818154811061141957600080fd5b90600052602060002001600091509150505481565b600e6020528060005260406000206000915090505481565b81601260000160006101000a81548173ffffffffffffffffffffffffffffffffffffffff021916908373ffffffffffffffffffffffffffffffffffffffff16021790555080601260010160006101000a81548173ffffffffffffffffffffffffffffffffffffffff021916908373ffffffffffffffffffffffffffffffffffffffff16021790555030601260020160006101000a81548173ffffffffffffffffffffffffffffffffffffffff021916908373ffffffffffffffffffffffffffffffffffffffff1602179055505050565b60085481565b60106020528060005260406000206000915090505481565b60046020528160005260406000206020528060005260406000206000915091509054906101000a900460ff1681565b81601860000181905550806018600101819055505050565b600060026000838152602001908152602001600020805490509050919050565b6000601260030160009054906101000a900473ffffffffffffffffffffffffffffffffffffffff1673ffffffffffffffffffffffffffffffffffffffff16630ef8dd956040518163ffffffff1660e01b81526004016020604051808303816000875af115801561160f573d6000803e3d6000fd5b505050506040513d601f19601f820116820180604052508101906116339190612cf1565b905090565b600061164382611682565b601860010154189050919050565b601c818154811061166157600080fd5b906000526020600020016000915090505481565b6000601860000154905090565b600060016000838152602001908152602001600020805490509050919050565b600080601260010160009054906101000a900473ffffffffffffffffffffffffffffffffffffffff1690508073ffffffffffffffffffffffffffffffffffffffff1663a9059cbb87866040518363ffffffff1660e01b8152600401611708929190612c47565b6020604051808303816000875af1158015611727573d6000803e3d6000fd5b505050506040513d601f19601f8201168201806040525081019061174b9190612b2e565b508073ffffffffffffffffffffffffffffffffffffffff16634bbc1bcd30866040518363ffffffff1660e01b8152600401611787929190612c47565b600060405180830381600087803b1580156117a157600080fd5b505af11580156117b5573d6000803e3d6000fd5b505050506117c4858585612118565b6001915050949350505050565b6000806005600085815260200190815260200160002060009054906101000a900473ffffffffffffffffffffffffffffffffffffffff1690508073ffffffffffffffffffffffffffffffffffffffff163373ffffffffffffffffffffffffffffffffffffffff1614611878576040517f08c379a000000000000000000000000000000000000000000000000000000000815260040161186f90612d90565b60405180910390fd5b60008190506000601a60008373ffffffffffffffffffffffffffffffffffffffff1663685771f46040518163ffffffff1660e01b8152600401602060405180830381865afa1580156118ce573d6000803e3d6000fd5b505050506040513d601f19601f820116820180604052508101906118f2919061285b565b815260200190815260200160002060009054906101000a900473ffffffffffffffffffffffffffffffffffffffff1690506000601260010160009054906101000a900473ffffffffffffffffffffffffffffffffffffffff1690508073ffffffffffffffffffffffffffffffffffffffff1663a9059cbb83886040518363ffffffff1660e01b8152600401611988929190612c47565b6020604051808303816000875af11580156119a7573d6000803e3d6000fd5b505050506040513d601f19601f820116820180604052508101906119cb9190612b2e565b508073ffffffffffffffffffffffffffffffffffffffff16634bbc1bcd601260020160009054906101000a900473ffffffffffffffffffffffffffffffffffffffff1660016040518363ffffffff1660e01b8152600401611a2d929190612ad9565b600060405180830381600087803b158015611a4757600080fd5b505af1158015611a5b573d6000803e3d6000fd5b50505050611a68876121d2565b600194505050505092915050565b60128060000160009054906101000a900473ffffffffffffffffffffffffffffffffffffffff16908060010160009054906101000a900473ffffffffffffffffffffffffffffffffffffffff16908060020160009054906101000a900473ffffffffffffffffffffffffffffffffffffffff16908060030160009054906101000a900473ffffffffffffffffffffffffffffffffffffffff16908060040160009054906101000a900473ffffffffffffffffffffffffffffffffffffffff16908060050160009054906101000a900473ffffffffffffffffffffffffffffffffffffffff16905086565b600b6020528060005260406000206000915054906101000a900473ffffffffffffffffffffffffffffffffffffffff1681565b60036020528060005260406000206000915090505481565b600f5481565b60005481565b601b6020528060005260406000206000915090505481565b60075481565b600080611be18461157b565b60186000015418905080341015611c2d576040517f08c379a0000000000000000000000000000000000000000000000000000000008152600401611c2490612dfc565b60405180910390fd5b6000601260010160009054906101000a900473ffffffffffffffffffffffffffffffffffffffff1690506000611c6286611638565b905060008273ffffffffffffffffffffffffffffffffffffffff166370a08231601a60008a815260200190815260200160002060009054906101000a900473ffffffffffffffffffffffffffffffffffffffff166040518263ffffffff1660e01b8152600401611cd291906125fa565b602060405180830381865afa158015611cef573d6000803e3d6000fd5b505050506040513d601f19601f82011682018060405250810190611d13919061285b565b905081811015611d58576040517f08c379a0000000000000000000000000000000000000000000000000000000008152600401611d4f90612e68565b60405180910390fd5b6000611d88601260040160009054906101000a900473ffffffffffffffffffffffffffffffffffffffff16611f11565b90508073ffffffffffffffffffffffffffffffffffffffff166348257aa46000548a30601260030160009054906101000a900473ffffffffffffffffffffffffffffffffffffffff168c6040518663ffffffff1660e01b8152600401611df2959493929190612e88565b600060405180830381600087803b158015611e0c57600080fd5b505af1158015611e20573d6000803e3d6000fd5b505050506000819050611e368960005483612254565b8473ffffffffffffffffffffffffffffffffffffffff166342966c68856040518263ffffffff1660e01b8152600401611e6f9190612509565b600060405180830381600087803b158015611e8957600080fd5b505af1158015611e9d573d6000803e3d6000fd5b505050508073ffffffffffffffffffffffffffffffffffffffff166108fc349081150290604051600060405180830381858888f19350505050158015611ee7573d6000803e3d6000fd5b506001965050505050505092915050565b6000818310611f075781611f09565b825b905092915050565b60006040517f3d602d80600a3d3981f3363d3d373d3d3d363d7300000000000000000000000081528260601b60148201527f5af43d82803e903d91602b57fd5bf3000000000000000000000000000000000060288201526037816000f0915050600073ffffffffffffffffffffffffffffffffffffffff168173ffffffffffffffffffffffffffffffffffffffff1603611fe0576040517f08c379a0000000000000000000000000000000000000000000000000000000008152600401611fd790612f27565b60405180910390fd5b919050565b600160096000828254611ff891906129ef565b92505081905550806007600082825461201191906129ef565b92505081905550600a600085815260200190815260200160002083908060018154018082558091505060019003906000526020600020016000909190919091505580600d6000868152602001908152602001600020600082825461207591906129ef565b9250508190555081600b600086815260200190815260200160002060006101000a81548173ffffffffffffffffffffffffffffffffffffffff021916908373ffffffffffffffffffffffffffffffffffffffff16021790555060016011600086815260200190815260200160002060006101000a81548160ff02191690831515021790555083600e60008581526020019081526020016000208190555050505050565b816007600082825461212a9190612b5b565b92505081905550816008600082825461214391906129ef565b925050819055506000600e600085815260200190815260200160002054905082600c6000838152602001908152602001600020600082825461218591906129ef565b925050819055506000838361219a9190612b5b565b036121cc5760006011600086815260200190815260200160002060006101000a81548160ff0219169083151502179055505b50505050565b6000600360008381526020019081526020016000205490506002600082815260200190815260200160002082908060018154018082558091505060019003906000526020600020016000909190919091505560006006600083815260200190815260200160002060006101000a81548160ff0219169083151502179055505050565b82600360008481526020019081526020016000208190555060016000848152602001908152602001600020829080600181540180825580915050600190039060005260206000200160009091909190915055600160046000848152602001908152602001600020600085815260200190815260200160002060006101000a81548160ff021916908315150217905550806005600084815260200190815260200160002060006101000a81548173ffffffffffffffffffffffffffffffffffffffff021916908373ffffffffffffffffffffffffffffffffffffffff160217905550600160008082825461234791906129ef565b9250508190555060016006600085815260200190815260200160002060006101000a81548160ff021916908315150217905550505050565b600080fd5b6000819050919050565b61239781612384565b81146123a257600080fd5b50565b6000813590506123b48161238e565b92915050565b6000602082840312156123d0576123cf61237f565b5b60006123de848285016123a5565b91505092915050565b60008115159050919050565b6123fc816123e7565b82525050565b600060208201905061241760008301846123f3565b92915050565b6000819050919050565b6124308161241d565b811461243b57600080fd5b50565b60008135905061244d81612427565b92915050565b6000806000806080858703121561246d5761246c61237f565b5b600061247b878288016123a5565b945050602061248c878288016123a5565b935050604061249d878288016123a5565b92505060606124ae8782880161243e565b91505092959194509250565b600080604083850312156124d1576124d061237f565b5b60006124df858286016123a5565b92505060206124f0858286016123a5565b9150509250929050565b61250381612384565b82525050565b600060208201905061251e60008301846124fa565b92915050565b600060408201905061253960008301856124fa565b61254660208301846124fa565b9392505050565b600073ffffffffffffffffffffffffffffffffffffffff82169050919050565b60006125788261254d565b9050919050565b6125888161256d565b811461259357600080fd5b50565b6000813590506125a58161257f565b92915050565b600080604083850312156125c2576125c161237f565b5b60006125d085828601612596565b92505060206125e1858286016123a5565b9150509250929050565b6125f48161256d565b82525050565b600060208201905061260f60008301846125eb565b92915050565b6000806040838503121561262c5761262b61237f565b5b600061263a85828601612596565b925050602061264b85828601612596565b9150509250929050565b6000806000806080858703121561266f5761266e61237f565b5b600061267d87828801612596565b945050602061268e878288016123a5565b935050604061269f878288016123a5565b92505060606126b0878288016123a5565b91505092959194509250565b600060c0820190506126d160008301896125eb565b6126de60208301886125eb565b6126eb60408301876125eb565b6126f860608301866125eb565b61270560808301856125eb565b61271260a08301846125eb565b979650505050505050565b600080604083850312156127345761273361237f565b5b6000612742858286016123a5565b92505060206127538582860161243e565b9150509250929050565b600082825260208201905092915050565b7f43616c6c6572206973206e6f7420746865206f776e6572000000000000000000600082015250565b60006127a460178361275d565b91506127af8261276e565b602082019050919050565b600060208201905081810360008301526127d381612797565b9050919050565b7f4e6f74206861766520656e6f756768206d617474657200000000000000000000600082015250565b600061281060168361275d565b915061281b826127da565b602082019050919050565b6000602082019050818103600083015261283f81612803565b9050919050565b6000815190506128558161238e565b92915050565b6000602082840312156128715761287061237f565b5b600061287f84828501612846565b91505092915050565b7f4e6f74206869676820656e6f7567680000000000000000000000000000000000600082015250565b60006128be600f8361275d565b91506128c982612888565b602082019050919050565b600060208201905081810360008301526128ed816128b1565b9050919050565b7f4e487b7100000000000000000000000000000000000000000000000000000000600052601260045260246000fd5b600061292e82612384565b915061293983612384565b925082612949576129486128f4565b5b828206905092915050565b7f447261772072617465206e6f7420646976697369626c65000000000000000000600082015250565b600061298a60178361275d565b915061299582612954565b602082019050919050565b600060208201905081810360008301526129b98161297d565b9050919050565b7f4e487b7100000000000000000000000000000000000000000000000000000000600052601160045260246000fd5b60006129fa82612384565b9150612a0583612384565b9250828201905080821115612a1d57612a1c6129c0565b5b92915050565b7f4e487b7100000000000000000000000000000000000000000000000000000000600052603260045260246000fd5b6000612a5d82612384565b9150612a6883612384565b9250828202612a7681612384565b91508282048414831517612a8d57612a8c6129c0565b5b5092915050565b6000819050919050565b6000819050919050565b6000612ac3612abe612ab984612a94565b612a9e565b612384565b9050919050565b612ad381612aa8565b82525050565b6000604082019050612aee60008301856125eb565b612afb6020830184612aca565b9392505050565b612b0b816123e7565b8114612b1657600080fd5b50565b600081519050612b2881612b02565b92915050565b600060208284031215612b4457612b4361237f565b5b6000612b5284828501612b19565b91505092915050565b6000612b6682612384565b9150612b7183612384565b9250828203905081811115612b8957612b886129c0565b5b92915050565b6000612b9a82612384565b91507fffffffffffffffffffffffffffffffffffffffffffffffffffffffffffffffff8203612bcc57612bcb6129c0565b5b600182019050919050565b612be08161241d565b82525050565b600060c082019050612bfb60008301896124fa565b612c0860208301886124fa565b612c1560408301876124fa565b612c2260608301866124fa565b612c2f60808301856125eb565b612c3c60a0830184612bd7565b979650505050505050565b6000604082019050612c5c60008301856125eb565b612c6960208301846124fa565b9392505050565b7f4e6f7420656e6f756768206d6174746572000000000000000000000000000000600082015250565b6000612ca660118361275d565b9150612cb182612c70565b602082019050919050565b60006020820190508181036000830152612cd581612c99565b9050919050565b600081519050612ceb8161257f565b92915050565b600060208284031215612d0757612d0661237f565b5b6000612d1584828501612cdc565b91505092915050565b7f43616c6c6572206973206e6f742074686520726967687420436f736d6f53656560008201527f6420636f6e747261637400000000000000000000000000000000000000000000602082015250565b6000612d7a602a8361275d565b9150612d8582612d1e565b604082019050919050565b60006020820190508181036000830152612da981612d6d565b9050919050565b7f45746865722076616c7565206973206e6f7420656e6f75676800000000000000600082015250565b6000612de660198361275d565b9150612df182612db0565b602082019050919050565b60006020820190508181036000830152612e1581612dd9565b9050919050565b7f4d61747465722062616c616e6365206973206e6f7420656e6f75676800000000600082015250565b6000612e52601c8361275d565b9150612e5d82612e1c565b602082019050919050565b60006020820190508181036000830152612e8181612e45565b9050919050565b600060a082019050612e9d60008301886124fa565b612eaa60208301876124fa565b612eb760408301866125eb565b612ec460608301856125eb565b612ed16080830184612bd7565b9695505050505050565b7f455243313136373a20637265617465206661696c656400000000000000000000600082015250565b6000612f1160168361275d565b9150612f1c82612edb565b602082019050919050565b60006020820190508181036000830152612f4081612f04565b905091905056fea2646970667358221220d97535a832b591ff5536096903ba68e611c92e0f496c2b6875b41a2efcf0410164736f6c63430008110033",
  "immutableReferences": {},
  "source": "// SPDX-License-Identifier: MIT\npragma solidity ^0.8.7;\n\nimport \"openzeppelin-solidity/contracts/utils/math/Math.sol\";\nimport { Clones } from \"openzeppelin-solidity/contracts/proxy/Clones.sol\";\n\nimport \"./CosmoMatter.sol\";\nimport \"./CosmoSeed.sol\";\nimport \"./CosmoButter.sol\";\nimport \"./ICosmoTreasury.sol\";\n\nimport \"./SeedAccounts.sol\";\nimport \"./ButterAccounts.sol\";\n\n/**\n * @dev Manages the matter balance of the CosmoNuts collection and handles interaction with the\n * ERC20 Token to mint, burn, and allocate balances\n * Acts as storage for the ERC 721 tokens on their created Seed and Butter contracts.\n */\n contract CosmoTreasury is SeedAccounts, ButterAccounts, ICosmoTreasury {\n\n     /**\n      * @dev Saved addresses include the contract which created the Treasury: UNIVERSE_ADDRESS, and\n      * the address of the CosmoNuts contract (NFTs) which is created after the Treasury and then updated: matter_ADDRESS.\n      */\n     struct AddressOf {\n         address system;\n         address matter;\n         address treasury;\n         address cosmos;\n         address seedImplementation;\n         address butterImplementation;\n     }\n     AddressOf public addressOf;\n\n     struct Nut {\n         uint256 price;\n         uint256 rate;\n     }\n     Nut public nut;\n\n     mapping(uint256 => address) public currentOwnerOfNut; // Record of current nut owners by address\n     mapping(uint256 => uint256) public matterBalanceOfNut; // Matter balance of each Nut recorded by the Treasury\n\n     uint256[] public nutsPayeeList; // List of nuts to be provided a balance\n\n     function initialize(address _systemAddress, address _matterAddress) external {\n         addressOf.system = _systemAddress;\n         addressOf.matter = _matterAddress;\n         addressOf.treasury = address(this);\n     }\n\n     /*\n     modifier onlyUniverse {\n         require(address(msg.sender) == UNIVERSE_ADDRESS, \"Caller is not Universe\");\n         _;\n     }\n     */\n\n     function updateCosmoInfo(uint256 _price, uint256 _rate) external virtual override {\n         nut.price = _price;\n         nut.rate = _rate;\n     }\n\n     function getVaultLocation() public virtual override returns (address) {\n        return ICosmoNuts(addressOf.cosmos).vaultLocation();\n     }\n\n     function getPrice() public view virtual override returns (uint256) {\n         return nut.price;\n     }\n\n     function matterNeeded(uint256 _nutId) public view virtual override returns (uint256) {\n         return nut.rate ^ (numOfSeedsOf(_nutId));\n     }\n\n     function spawnSeed(uint256 _nutId, bytes32 _secretHash) external virtual override payable returns (bool) {\n         uint256 ethToHold = nut.price ^ (numOfSeedsGrownOf(_nutId));\n         require(msg.value >= ethToHold, \"Ether value is not enough\");\n\n         CosmoMatter matter = CosmoMatter(addressOf.matter);\n         uint256 matterToBurn = matterNeeded(_nutId);\n         uint256 matterOfOwner = matter.balanceOf(currentOwnerOfNut[_nutId]);\n         require(matterOfOwner >= matterToBurn, \"Matter balance is not enough\");\n\n         CosmoSeed cosmoseed = CosmoSeed(Clones.clone(addressOf.seedImplementation));\n         cosmoseed.initialize(\n             seedsCreated, _nutId, address(this), addressOf.cosmos, _secretHash\n         );\n\n         address seedLocation = address(cosmoseed);\n         integrateSeed(_nutId, seedsCreated, seedLocation);\n\n         matter.burn(matterToBurn);\n         payable(seedLocation).transfer(msg.value);\n\n         return true;\n     }\n\n     /**\n      * Called from CosmoSeed contract.\n      */\n     function seedFromNut(uint256 _seedId, uint256 _matterNeeded) external virtual override returns (bool) {\n         address seedAddress = seedLocations[_seedId];\n         require(address(msg.sender) == seedAddress, \"Caller is not the right CosmoSeed contract\");\n         //require(matter.balanceOf(address(msg.sender)) >= _matterNeeded, \"Not enough matter\");\n\n         CosmoSeed seed = CosmoSeed(seedAddress);\n\n         address nutOwner = currentOwnerOfNut[seed.nutId()];\n         CosmoMatter matter = CosmoMatter(addressOf.matter);\n         matter.transfer(nutOwner, _matterNeeded);\n         matter.mintMatter(addressOf.treasury, 1);\n\n         growSeed(_seedId);\n\n         return true;\n     }\n\n     /**\n      * Creating new butter means the creation of a contract where other users can withdraw matter from.\n      * Need to contribute butter (which can only be done if you have a Nut with the desired level of matter to give away.\n      * A secret message is provided in hash form and checked for verification to withdraw funds.\n      */\n     function newButter(\n         uint256 _nutId,\n         uint256 _matterContributed,\n         uint256 _matterDrawRate,\n         bytes32 _secretHash\n     ) external virtual override returns (bool) {\n         address nutOwner = currentOwnerOfNut[_nutId];\n         // Do we need to be doing these checks twice? Or really new check that caller is from contract (? or person who clicked?)\n         require(nutOwner == address(msg.sender), \"Caller is not the owner\");\n         require(matterBalanceOfNut[_nutId] >= _matterContributed, \"Not have enough matter\");\n         CosmoMatter matter = CosmoMatter(addressOf.matter);\n         require(_matterContributed <= matter.balanceOf(nutOwner), \"Not high enough\");\n         require(_matterContributed % _matterDrawRate == 0, \"Draw rate not divisible\");\n\n         /**\n          * A nut must have already grown a seed to start being counted as part of the deficiency list.\n          */\n         if (numOfSeedsGrownOf(_nutId) > 0) {\n             butterDeficiencyInUniverse += _matterContributed;\n             butterDeficiencyOfNut[_nutId] += _matterContributed;\n             nutsPayeeList.push(_nutId);\n         }\n\n         /**\n          * The Treasury wants to distribute its available balance to the nutsPayeeList.\n          * It will distribute the minimum of either its available balance or the deficiency in the Universe.\n          * All payees are awarded one matter and moved to the end of the list.\n          * When their maximum available balance is reached, they are removed from the payee list.\n          */\n         uint256 matterInTreasury = matter.balanceOf(addressOf.treasury);\n         if (matterInTreasury > 0) {\n             uint256 toDistribute = Math.min(matterInTreasury, butterDeficiencyInUniverse);\n\n             uint256 index = 0;\n             for (uint j = 0; j != toDistribute; j++) {\n                 uint256 allPayees = nutsPayeeList.length;\n                 if (allPayees == 0) {\n                     break;\n                 }\n\n                 if (j > allPayees) {\n                     index = 0;\n                 }\n\n                 uint256 nutPayeeId = nutsPayeeList[index];\n                 address nutOwnerPayee = currentOwnerOfNut[nutPayeeId];\n                 uint256 maxMatter = numOfSeedsGrownOf(nutPayeeId) * nut.rate;\n                 if (matterBalanceOfNut[nutPayeeId] == maxMatter) {\n                     delete nutsPayeeList[index];\n                 } else {\n                     matter.transfer(nutOwnerPayee, 1);\n                     nutsPayeeList.push(nutPayeeId);\n                     delete nutsPayeeList[index];\n\n                     butterDeficiencyInUniverse -= 1;\n                     butterDeficiencyOfNut[nutPayeeId] -= 1;\n                 }\n\n                 index++;\n            }\n         }\n\n         CosmoButter butter = CosmoButter(Clones.clone(addressOf.butterImplementation));\n         butter.initialize(\n             butterJars, _nutId, _matterContributed, _matterDrawRate, addressOf.treasury, _secretHash\n         );\n\n         matter.transfer(address(butter), _matterContributed);\n         churnButter(_nutId, butterJars, address(butter), _matterContributed);\n\n         return true;\n\n     }\n\n     /**\n      * Runs from CosmoButter contract when someone requests to draw matter.\n      */\n     function butterDrawn(\n         address _drawer,\n         uint256 _butterId,\n         uint256 _balance,\n         uint256 _currentBalance\n     ) external virtual override returns (bool) {\n         CosmoMatter matter = CosmoMatter(addressOf.matter);\n         matter.transfer(_drawer, _balance);\n         matter.mintMatter(address(this), _balance);\n         distributeButter(_butterId, _balance, _currentBalance);\n\n         return true;\n     }\n\n     function assignMintBalance(address _tokenOwner, uint256 _tokenId) external virtual override returns (bool) {\n         CosmoMatter matter = CosmoMatter(addressOf.matter);\n         require(matter.balanceOf(addressOf.treasury) >= nut.rate, \"Not enough matter\");\n         matter.transfer(_tokenOwner, nut.rate);\n         matterBalanceOfNut[_tokenId] = nut.rate;\n\n         return true;\n     }\n\n }\n",
  "sourcePath": "/home/redlentils/Seafile/Websites/avatarnft/contracts/CosmoTreasury.sol",
  "compiler": {
    "name": "solc",
    "version": "0.8.17+commit.8df45f5f.Emscripten.clang"
  },
  "schemaVersion": "3.4.10",
  "updatedAt": "2022-10-19T18:28:02.440Z",
  "devdoc": {
    "details": "Manages the matter balance of the CosmoNuts collection and handles interaction with the ERC20 Token to mint, burn, and allocate balances Acts as storage for the ERC 721 tokens on their created Seed and Butter contracts.",
    "kind": "dev",
    "methods": {},
    "version": 1
  },
  "userdoc": {
    "kind": "user",
    "methods": {
      "butterDrawn(address,uint256,uint256,uint256)": {
        "notice": "Runs from CosmoButter contract when someone requests to draw matter."
      },
      "butterWeight()": {
        "notice": "butterWeight is the amount of matter in the universe that is currently outstanding. butterSpread is the amount of matter that has been distributed from butterWeight, thus reducing its value. butterJars represent the total number of matter contracts created in the Universe."
      },
      "buttersOfNut(uint256,uint256)": {
        "notice": "buttersOfNut represents a list of all butter contracts created byt that nut. butterLocations represents the address of contract identifed by butterId."
      },
      "newButter(uint256,uint256,uint256,bytes32)": {
        "notice": "Creating new butter means the creation of a contract where other users can withdraw matter from. Need to contribute butter (which can only be done if you have a Nut with the desired level of matter to give away. A secret message is provided in hash form and checked for verification to withdraw funds."
      },
      "seedFromNut(uint256,uint256)": {
        "notice": "Called from CosmoSeed contract."
      }
    },
    "version": 1
  }
}