{
  "contractName": "CosmoCreation",
  "abi": [
    {
      "inputs": [
        {
          "internalType": "string",
          "name": "_name",
          "type": "string"
        },
        {
          "internalType": "string",
          "name": "_symbol",
          "type": "string"
        },
        {
          "internalType": "uint256",
          "name": "_initialSupply",
          "type": "uint256"
        },
        {
          "internalType": "address",
          "name": "_vaultAddress",
          "type": "address"
        }
      ],
      "stateMutability": "nonpayable",
      "type": "constructor"
    },
    {
      "anonymous": false,
      "inputs": [
        {
          "indexed": true,
          "internalType": "address",
          "name": "owner",
          "type": "address"
        },
        {
          "indexed": true,
          "internalType": "address",
          "name": "approved",
          "type": "address"
        },
        {
          "indexed": true,
          "internalType": "uint256",
          "name": "tokenId",
          "type": "uint256"
        }
      ],
      "name": "Approval",
      "type": "event"
    },
    {
      "anonymous": false,
      "inputs": [
        {
          "indexed": true,
          "internalType": "address",
          "name": "owner",
          "type": "address"
        },
        {
          "indexed": true,
          "internalType": "address",
          "name": "operator",
          "type": "address"
        },
        {
          "indexed": false,
          "internalType": "bool",
          "name": "approved",
          "type": "bool"
        }
      ],
      "name": "ApprovalForAll",
      "type": "event"
    },
    {
      "anonymous": false,
      "inputs": [
        {
          "indexed": true,
          "internalType": "address",
          "name": "previousOwner",
          "type": "address"
        },
        {
          "indexed": true,
          "internalType": "address",
          "name": "newOwner",
          "type": "address"
        }
      ],
      "name": "OwnershipTransferred",
      "type": "event"
    },
    {
      "anonymous": false,
      "inputs": [
        {
          "indexed": true,
          "internalType": "address",
          "name": "from",
          "type": "address"
        },
        {
          "indexed": true,
          "internalType": "address",
          "name": "to",
          "type": "address"
        },
        {
          "indexed": true,
          "internalType": "uint256",
          "name": "tokenId",
          "type": "uint256"
        }
      ],
      "name": "Transfer",
      "type": "event"
    },
    {
      "inputs": [],
      "name": "INITIAL_NUTS",
      "outputs": [
        {
          "internalType": "uint256",
          "name": "",
          "type": "uint256"
        }
      ],
      "stateMutability": "view",
      "type": "function"
    },
    {
      "inputs": [
        {
          "internalType": "address",
          "name": "to",
          "type": "address"
        },
        {
          "internalType": "uint256",
          "name": "tokenId",
          "type": "uint256"
        }
      ],
      "name": "approve",
      "outputs": [],
      "stateMutability": "nonpayable",
      "type": "function"
    },
    {
      "inputs": [
        {
          "internalType": "address",
          "name": "owner",
          "type": "address"
        }
      ],
      "name": "balanceOf",
      "outputs": [
        {
          "internalType": "uint256",
          "name": "",
          "type": "uint256"
        }
      ],
      "stateMutability": "view",
      "type": "function"
    },
    {
      "inputs": [
        {
          "internalType": "uint256",
          "name": "tokenId",
          "type": "uint256"
        }
      ],
      "name": "getApproved",
      "outputs": [
        {
          "internalType": "address",
          "name": "",
          "type": "address"
        }
      ],
      "stateMutability": "view",
      "type": "function"
    },
    {
      "inputs": [
        {
          "internalType": "address",
          "name": "owner",
          "type": "address"
        },
        {
          "internalType": "address",
          "name": "operator",
          "type": "address"
        }
      ],
      "name": "isApprovedForAll",
      "outputs": [
        {
          "internalType": "bool",
          "name": "",
          "type": "bool"
        }
      ],
      "stateMutability": "view",
      "type": "function"
    },
    {
      "inputs": [],
      "name": "name",
      "outputs": [
        {
          "internalType": "string",
          "name": "",
          "type": "string"
        }
      ],
      "stateMutability": "view",
      "type": "function"
    },
    {
      "inputs": [],
      "name": "owner",
      "outputs": [
        {
          "internalType": "address",
          "name": "",
          "type": "address"
        }
      ],
      "stateMutability": "view",
      "type": "function"
    },
    {
      "inputs": [
        {
          "internalType": "uint256",
          "name": "tokenId",
          "type": "uint256"
        }
      ],
      "name": "ownerOf",
      "outputs": [
        {
          "internalType": "address",
          "name": "",
          "type": "address"
        }
      ],
      "stateMutability": "view",
      "type": "function"
    },
    {
      "inputs": [],
      "name": "renounceOwnership",
      "outputs": [],
      "stateMutability": "nonpayable",
      "type": "function"
    },
    {
      "inputs": [
        {
          "internalType": "address",
          "name": "from",
          "type": "address"
        },
        {
          "internalType": "address",
          "name": "to",
          "type": "address"
        },
        {
          "internalType": "uint256",
          "name": "tokenId",
          "type": "uint256"
        }
      ],
      "name": "safeTransferFrom",
      "outputs": [],
      "stateMutability": "nonpayable",
      "type": "function"
    },
    {
      "inputs": [
        {
          "internalType": "address",
          "name": "from",
          "type": "address"
        },
        {
          "internalType": "address",
          "name": "to",
          "type": "address"
        },
        {
          "internalType": "uint256",
          "name": "tokenId",
          "type": "uint256"
        },
        {
          "internalType": "bytes",
          "name": "_data",
          "type": "bytes"
        }
      ],
      "name": "safeTransferFrom",
      "outputs": [],
      "stateMutability": "nonpayable",
      "type": "function"
    },
    {
      "inputs": [],
      "name": "saleIsActive",
      "outputs": [
        {
          "internalType": "bool",
          "name": "",
          "type": "bool"
        }
      ],
      "stateMutability": "view",
      "type": "function"
    },
    {
      "inputs": [
        {
          "internalType": "address",
          "name": "operator",
          "type": "address"
        },
        {
          "internalType": "bool",
          "name": "approved",
          "type": "bool"
        }
      ],
      "name": "setApprovalForAll",
      "outputs": [],
      "stateMutability": "nonpayable",
      "type": "function"
    },
    {
      "inputs": [],
      "name": "symbol",
      "outputs": [
        {
          "internalType": "string",
          "name": "",
          "type": "string"
        }
      ],
      "stateMutability": "view",
      "type": "function"
    },
    {
      "inputs": [
        {
          "internalType": "uint256",
          "name": "index",
          "type": "uint256"
        }
      ],
      "name": "tokenByIndex",
      "outputs": [
        {
          "internalType": "uint256",
          "name": "",
          "type": "uint256"
        }
      ],
      "stateMutability": "view",
      "type": "function"
    },
    {
      "inputs": [
        {
          "internalType": "address",
          "name": "owner",
          "type": "address"
        },
        {
          "internalType": "uint256",
          "name": "index",
          "type": "uint256"
        }
      ],
      "name": "tokenOfOwnerByIndex",
      "outputs": [
        {
          "internalType": "uint256",
          "name": "",
          "type": "uint256"
        }
      ],
      "stateMutability": "view",
      "type": "function"
    },
    {
      "inputs": [],
      "name": "totalSupply",
      "outputs": [
        {
          "internalType": "uint256",
          "name": "",
          "type": "uint256"
        }
      ],
      "stateMutability": "view",
      "type": "function"
    },
    {
      "inputs": [
        {
          "internalType": "address",
          "name": "from",
          "type": "address"
        },
        {
          "internalType": "address",
          "name": "to",
          "type": "address"
        },
        {
          "internalType": "uint256",
          "name": "tokenId",
          "type": "uint256"
        }
      ],
      "name": "transferFrom",
      "outputs": [],
      "stateMutability": "nonpayable",
      "type": "function"
    },
    {
      "inputs": [
        {
          "internalType": "address",
          "name": "newOwner",
          "type": "address"
        }
      ],
      "name": "transferOwnership",
      "outputs": [],
      "stateMutability": "nonpayable",
      "type": "function"
    },
    {
      "inputs": [
        {
          "internalType": "string",
          "name": "_nutCID",
          "type": "string"
        }
      ],
      "name": "mintNut",
      "outputs": [],
      "stateMutability": "payable",
      "type": "function"
    },
    {
      "inputs": [
        {
          "internalType": "uint256",
          "name": "tokenId",
          "type": "uint256"
        }
      ],
      "name": "tokenURI",
      "outputs": [
        {
          "internalType": "string",
          "name": "",
          "type": "string"
        }
      ],
      "stateMutability": "view",
      "type": "function"
    },
    {
      "inputs": [
        {
          "internalType": "bytes4",
          "name": "interfaceId",
          "type": "bytes4"
        }
      ],
      "name": "supportsInterface",
      "outputs": [
        {
          "internalType": "bool",
          "name": "",
          "type": "bool"
        }
      ],
      "stateMutability": "view",
      "type": "function"
    }
  ],
  "bytecode": "0x60806040526000600d60146101000a81548160ff0219169083151502179055503480156200002c57600080fd5b50604051620045c0380380620045c08339818101604052810190620000529190620004c1565b83838160009081620000659190620007b2565b508060019081620000779190620007b2565b5050506200009a6200008e620001c060201b60201c565b620001c860201b60201c565b81600c8190555080600e60006101000a81548173ffffffffffffffffffffffffffffffffffffffff021916908373ffffffffffffffffffffffffffffffffffffffff160217905550600e60009054906101000a900473ffffffffffffffffffffffffffffffffffffffff1673ffffffffffffffffffffffffffffffffffffffff166307604b1a6040518163ffffffff1660e01b8152600401602060405180830381865afa15801562000150573d6000803e3d6000fd5b505050506040513d601f19601f8201168201806040525081019062000176919062000899565b600d60006101000a81548173ffffffffffffffffffffffffffffffffffffffff021916908373ffffffffffffffffffffffffffffffffffffffff16021790555050505050620008cb565b600033905090565b6000600b60009054906101000a900473ffffffffffffffffffffffffffffffffffffffff16905081600b60006101000a81548173ffffffffffffffffffffffffffffffffffffffff021916908373ffffffffffffffffffffffffffffffffffffffff1602179055508173ffffffffffffffffffffffffffffffffffffffff168173ffffffffffffffffffffffffffffffffffffffff167f8be0079c531659141344cd1fd0a4f28419497f9722a3daafe3b4186f6b6457e060405160405180910390a35050565b6000604051905090565b600080fd5b600080fd5b600080fd5b600080fd5b6000601f19601f8301169050919050565b7f4e487b7100000000000000000000000000000000000000000000000000000000600052604160045260246000fd5b620002f782620002ac565b810181811067ffffffffffffffff82111715620003195762000318620002bd565b5b80604052505050565b60006200032e6200028e565b90506200033c8282620002ec565b919050565b600067ffffffffffffffff8211156200035f576200035e620002bd565b5b6200036a82620002ac565b9050602081019050919050565b60005b83811015620003975780820151818401526020810190506200037a565b60008484015250505050565b6000620003ba620003b48462000341565b62000322565b905082815260208101848484011115620003d957620003d8620002a7565b5b620003e684828562000377565b509392505050565b600082601f830112620004065762000405620002a2565b5b815162000418848260208601620003a3565b91505092915050565b6000819050919050565b620004368162000421565b81146200044257600080fd5b50565b60008151905062000456816200042b565b92915050565b600073ffffffffffffffffffffffffffffffffffffffff82169050919050565b600062000489826200045c565b9050919050565b6200049b816200047c565b8114620004a757600080fd5b50565b600081519050620004bb8162000490565b92915050565b60008060008060808587031215620004de57620004dd62000298565b5b600085015167ffffffffffffffff811115620004ff57620004fe6200029d565b5b6200050d87828801620003ee565b945050602085015167ffffffffffffffff8111156200053157620005306200029d565b5b6200053f87828801620003ee565b9350506040620005528782880162000445565b92505060606200056587828801620004aa565b91505092959194509250565b600081519050919050565b7f4e487b7100000000000000000000000000000000000000000000000000000000600052602260045260246000fd5b60006002820490506001821680620005c457607f821691505b602082108103620005da57620005d96200057c565b5b50919050565b60008190508160005260206000209050919050565b60006020601f8301049050919050565b600082821b905092915050565b600060088302620006447fffffffffffffffffffffffffffffffffffffffffffffffffffffffffffffffff8262000605565b62000650868362000605565b95508019841693508086168417925050509392505050565b6000819050919050565b6000620006936200068d620006878462000421565b62000668565b62000421565b9050919050565b6000819050919050565b620006af8362000672565b620006c7620006be826200069a565b84845462000612565b825550505050565b600090565b620006de620006cf565b620006eb818484620006a4565b505050565b5b81811015620007135762000707600082620006d4565b600181019050620006f1565b5050565b601f82111562000762576200072c81620005e0565b6200073784620005f5565b8101602085101562000747578190505b6200075f6200075685620005f5565b830182620006f0565b50505b505050565b600082821c905092915050565b6000620007876000198460080262000767565b1980831691505092915050565b6000620007a2838362000774565b9150826002028217905092915050565b620007bd8262000571565b67ffffffffffffffff811115620007d957620007d8620002bd565b5b620007e58254620005ab565b620007f282828562000717565b600060209050601f8311600181146200082a576000841562000815578287015190505b62000821858262000794565b86555062000891565b601f1984166200083a86620005e0565b60005b8281101562000864578489015182556001820191506020850194506020810190506200083d565b8683101562000884578489015162000880601f89168262000774565b8355505b6001600288020188555050505b505050505050565b600060208284031215620008b257620008b162000298565b5b6000620008c284828501620004aa565b91505092915050565b613ce580620008db6000396000f3fe6080604052600436106101355760003560e01c8063715018a6116100ab578063a22cb4651161006f578063a22cb4651461042d578063b88d4fde14610456578063c87b56dd1461047f578063e985e9c5146104bc578063eb8d2444146104f9578063f2fde38b1461052457610135565b8063715018a61461037957806371ebbef4146103905780638da5cb5b146103bb57806395d89b41146103e657806395f04d051461041157610135565b806323b872dd116100fd57806323b872dd146102335780632f745c591461025c57806342842e0e146102995780634f6ccce7146102c25780636352211e146102ff57806370a082311461033c57610135565b806301ffc9a71461013a57806306fdde0314610177578063081812fc146101a2578063095ea7b3146101df57806318160ddd14610208575b600080fd5b34801561014657600080fd5b50610161600480360381019061015c91906124e0565b61054d565b60405161016e9190612528565b60405180910390f35b34801561018357600080fd5b5061018c61055f565b60405161019991906125d3565b60405180910390f35b3480156101ae57600080fd5b506101c960048036038101906101c4919061262b565b6105f1565b6040516101d69190612699565b60405180910390f35b3480156101eb57600080fd5b50610206600480360381019061020191906126e0565b610676565b005b34801561021457600080fd5b5061021d61078d565b60405161022a919061272f565b60405180910390f35b34801561023f57600080fd5b5061025a6004803603810190610255919061274a565b61079a565b005b34801561026857600080fd5b50610283600480360381019061027e91906126e0565b6107fa565b604051610290919061272f565b60405180910390f35b3480156102a557600080fd5b506102c060048036038101906102bb919061274a565b61089f565b005b3480156102ce57600080fd5b506102e960048036038101906102e4919061262b565b6108bf565b6040516102f6919061272f565b60405180910390f35b34801561030b57600080fd5b506103266004803603810190610321919061262b565b610930565b6040516103339190612699565b60405180910390f35b34801561034857600080fd5b50610363600480360381019061035e919061279d565b6109e1565b604051610370919061272f565b60405180910390f35b34801561038557600080fd5b5061038e610a98565b005b34801561039c57600080fd5b506103a5610b20565b6040516103b2919061272f565b60405180910390f35b3480156103c757600080fd5b506103d0610b26565b6040516103dd9190612699565b60405180910390f35b3480156103f257600080fd5b506103fb610b50565b60405161040891906125d3565b60405180910390f35b61042b600480360381019061042691906128ff565b610be2565b005b34801561043957600080fd5b50610454600480360381019061044f9190612974565b610d57565b005b34801561046257600080fd5b5061047d60048036038101906104789190612a55565b610d6d565b005b34801561048b57600080fd5b506104a660048036038101906104a1919061262b565b610dcf565b6040516104b391906125d3565b60405180910390f35b3480156104c857600080fd5b506104e360048036038101906104de9190612ad8565b610de1565b6040516104f09190612528565b60405180910390f35b34801561050557600080fd5b5061050e610e75565b60405161051b9190612528565b60405180910390f35b34801561053057600080fd5b5061054b6004803603810190610546919061279d565b610e88565b005b600061055882610f7f565b9050919050565b60606000805461056e90612b47565b80601f016020809104026020016040519081016040528092919081815260200182805461059a90612b47565b80156105e75780601f106105bc576101008083540402835291602001916105e7565b820191906000526020600020905b8154815290600101906020018083116105ca57829003601f168201915b5050505050905090565b60006105fc82610ff9565b61063b576040517f08c379a000000000000000000000000000000000000000000000000000000000815260040161063290612bea565b60405180910390fd5b6004600083815260200190815260200160002060009054906101000a900473ffffffffffffffffffffffffffffffffffffffff169050919050565b600061068182610930565b90508073ffffffffffffffffffffffffffffffffffffffff168373ffffffffffffffffffffffffffffffffffffffff16036106f1576040517f08c379a00000000000000000000000000000000000000000000000000000000081526004016106e890612c7c565b60405180910390fd5b8073ffffffffffffffffffffffffffffffffffffffff16610710611065565b73ffffffffffffffffffffffffffffffffffffffff16148061073f575061073e81610739611065565b610de1565b5b61077e576040517f08c379a000000000000000000000000000000000000000000000000000000000815260040161077590612d0e565b60405180910390fd5b610788838361106d565b505050565b6000600880549050905090565b6107ab6107a5611065565b82611126565b6107ea576040517f08c379a00000000000000000000000000000000000000000000000000000000081526004016107e190612da0565b60405180910390fd5b6107f5838383611204565b505050565b6000610805836109e1565b8210610846576040517f08c379a000000000000000000000000000000000000000000000000000000000815260040161083d90612e32565b60405180910390fd5b600660008473ffffffffffffffffffffffffffffffffffffffff1673ffffffffffffffffffffffffffffffffffffffff168152602001908152602001600020600083815260200190815260200160002054905092915050565b6108ba83838360405180602001604052806000815250610d6d565b505050565b60006108c961078d565b821061090a576040517f08c379a000000000000000000000000000000000000000000000000000000000815260040161090190612ec4565b60405180910390fd5b6008828154811061091e5761091d612ee4565b5b90600052602060002001549050919050565b6000806002600084815260200190815260200160002060009054906101000a900473ffffffffffffffffffffffffffffffffffffffff169050600073ffffffffffffffffffffffffffffffffffffffff168173ffffffffffffffffffffffffffffffffffffffff16036109d8576040517f08c379a00000000000000000000000000000000000000000000000000000000081526004016109cf90612f85565b60405180910390fd5b80915050919050565b60008073ffffffffffffffffffffffffffffffffffffffff168273ffffffffffffffffffffffffffffffffffffffff1603610a51576040517f08c379a0000000000000000000000000000000000000000000000000000000008152600401610a4890613017565b60405180910390fd5b600360008373ffffffffffffffffffffffffffffffffffffffff1673ffffffffffffffffffffffffffffffffffffffff168152602001908152602001600020549050919050565b610aa0611065565b73ffffffffffffffffffffffffffffffffffffffff16610abe610b26565b73ffffffffffffffffffffffffffffffffffffffff1614610b14576040517f08c379a0000000000000000000000000000000000000000000000000000000008152600401610b0b90613083565b60405180910390fd5b610b1e600061146a565b565b600c5481565b6000600b60009054906101000a900473ffffffffffffffffffffffffffffffffffffffff16905090565b606060018054610b5f90612b47565b80601f0160208091040260200160405190810160405280929190818152602001828054610b8b90612b47565b8015610bd85780601f10610bad57610100808354040283529160200191610bd8565b820191906000526020600020905b815481529060010190602001808311610bbb57829003601f168201915b5050505050905090565b600d60149054906101000a900460ff16610c31576040517f08c379a0000000000000000000000000000000000000000000000000000000008152600401610c28906130ef565b60405180910390fd5b600c54610c3c61078d565b10610c7c576040517f08c379a0000000000000000000000000000000000000000000000000000000008152600401610c739061315b565b60405180910390fd5b610caf600d60009054906101000a900473ffffffffffffffffffffffffffffffffffffffff16610caa61078d565b611530565b610cc0610cba61078d565b8261154e565b600e60009054906101000a900473ffffffffffffffffffffffffffffffffffffffff1673ffffffffffffffffffffffffffffffffffffffff1663347518a8610d0661078d565b6040518263ffffffff1660e01b8152600401610d22919061272f565b600060405180830381600087803b158015610d3c57600080fd5b505af1158015610d50573d6000803e3d6000fd5b5050505050565b610d69610d62611065565b83836115bb565b5050565b610d7e610d78611065565b83611126565b610dbd576040517f08c379a0000000000000000000000000000000000000000000000000000000008152600401610db490612da0565b60405180910390fd5b610dc984848484611727565b50505050565b6060610dda82611783565b9050919050565b6000600560008473ffffffffffffffffffffffffffffffffffffffff1673ffffffffffffffffffffffffffffffffffffffff16815260200190815260200160002060008373ffffffffffffffffffffffffffffffffffffffff1673ffffffffffffffffffffffffffffffffffffffff16815260200190815260200160002060009054906101000a900460ff16905092915050565b600d60149054906101000a900460ff1681565b610e90611065565b73ffffffffffffffffffffffffffffffffffffffff16610eae610b26565b73ffffffffffffffffffffffffffffffffffffffff1614610f04576040517f08c379a0000000000000000000000000000000000000000000000000000000008152600401610efb90613083565b60405180910390fd5b600073ffffffffffffffffffffffffffffffffffffffff168173ffffffffffffffffffffffffffffffffffffffff1603610f73576040517f08c379a0000000000000000000000000000000000000000000000000000000008152600401610f6a906131ed565b60405180910390fd5b610f7c8161146a565b50565b60007f780e9d63000000000000000000000000000000000000000000000000000000007bffffffffffffffffffffffffffffffffffffffffffffffffffffffff1916827bffffffffffffffffffffffffffffffffffffffffffffffffffffffff19161480610ff25750610ff1826118d4565b5b9050919050565b60008073ffffffffffffffffffffffffffffffffffffffff166002600084815260200190815260200160002060009054906101000a900473ffffffffffffffffffffffffffffffffffffffff1673ffffffffffffffffffffffffffffffffffffffff1614159050919050565b600033905090565b816004600083815260200190815260200160002060006101000a81548173ffffffffffffffffffffffffffffffffffffffff021916908373ffffffffffffffffffffffffffffffffffffffff160217905550808273ffffffffffffffffffffffffffffffffffffffff166110e083610930565b73ffffffffffffffffffffffffffffffffffffffff167f8c5be1e5ebec7d5bd14f71427d1e84f3dd0314c0f7b2291e5b200ac8c7c3b92560405160405180910390a45050565b600061113182610ff9565b611170576040517f08c379a00000000000000000000000000000000000000000000000000000000081526004016111679061327f565b60405180910390fd5b600061117b83610930565b90508073ffffffffffffffffffffffffffffffffffffffff168473ffffffffffffffffffffffffffffffffffffffff1614806111bd57506111bc8185610de1565b5b806111fb57508373ffffffffffffffffffffffffffffffffffffffff166111e3846105f1565b73ffffffffffffffffffffffffffffffffffffffff16145b91505092915050565b8273ffffffffffffffffffffffffffffffffffffffff1661122482610930565b73ffffffffffffffffffffffffffffffffffffffff161461127a576040517f08c379a000000000000000000000000000000000000000000000000000000000815260040161127190613311565b60405180910390fd5b600073ffffffffffffffffffffffffffffffffffffffff168273ffffffffffffffffffffffffffffffffffffffff16036112e9576040517f08c379a00000000000000000000000000000000000000000000000000000000081526004016112e0906133a3565b60405180910390fd5b6112f48383836119b6565b6112ff60008261106d565b6001600360008573ffffffffffffffffffffffffffffffffffffffff1673ffffffffffffffffffffffffffffffffffffffff168152602001908152602001600020600082825461134f91906133f2565b925050819055506001600360008473ffffffffffffffffffffffffffffffffffffffff1673ffffffffffffffffffffffffffffffffffffffff16815260200190815260200160002060008282546113a69190613426565b92505081905550816002600083815260200190815260200160002060006101000a81548173ffffffffffffffffffffffffffffffffffffffff021916908373ffffffffffffffffffffffffffffffffffffffff160217905550808273ffffffffffffffffffffffffffffffffffffffff168473ffffffffffffffffffffffffffffffffffffffff167fddf252ad1be2c89b69c2b068fc378daa952ba7f163c4a11628f55a4df523b3ef60405160405180910390a46114658383836119c6565b505050565b6000600b60009054906101000a900473ffffffffffffffffffffffffffffffffffffffff16905081600b60006101000a81548173ffffffffffffffffffffffffffffffffffffffff021916908373ffffffffffffffffffffffffffffffffffffffff1602179055508173ffffffffffffffffffffffffffffffffffffffff168173ffffffffffffffffffffffffffffffffffffffff167f8be0079c531659141344cd1fd0a4f28419497f9722a3daafe3b4186f6b6457e060405160405180910390a35050565b61154a8282604051806020016040528060008152506119cb565b5050565b61155782610ff9565b611596576040517f08c379a000000000000000000000000000000000000000000000000000000000815260040161158d906134cc565b60405180910390fd5b80600a600084815260200190815260200160002090816115b69190613698565b505050565b8173ffffffffffffffffffffffffffffffffffffffff168373ffffffffffffffffffffffffffffffffffffffff1603611629576040517f08c379a0000000000000000000000000000000000000000000000000000000008152600401611620906137b6565b60405180910390fd5b80600560008573ffffffffffffffffffffffffffffffffffffffff1673ffffffffffffffffffffffffffffffffffffffff16815260200190815260200160002060008473ffffffffffffffffffffffffffffffffffffffff1673ffffffffffffffffffffffffffffffffffffffff16815260200190815260200160002060006101000a81548160ff0219169083151502179055508173ffffffffffffffffffffffffffffffffffffffff168373ffffffffffffffffffffffffffffffffffffffff167f17307eab39ab6107e8899845ad3d59bd9653f200f220920489ca2b5937696c318360405161171a9190612528565b60405180910390a3505050565b611732848484611204565b61173e84848484611a26565b61177d576040517f08c379a000000000000000000000000000000000000000000000000000000000815260040161177490613848565b60405180910390fd5b50505050565b606061178e82610ff9565b6117cd576040517f08c379a00000000000000000000000000000000000000000000000000000000081526004016117c4906138da565b60405180910390fd5b6000600a600084815260200190815260200160002080546117ed90612b47565b80601f016020809104026020016040519081016040528092919081815260200182805461181990612b47565b80156118665780601f1061183b57610100808354040283529160200191611866565b820191906000526020600020905b81548152906001019060200180831161184957829003601f168201915b505050505090506000611877611bad565b9050600081510361188c5781925050506118cf565b6000825111156118c15780826040516020016118a9929190613936565b604051602081830303815290604052925050506118cf565b6118ca84611bea565b925050505b919050565b60007f80ac58cd000000000000000000000000000000000000000000000000000000007bffffffffffffffffffffffffffffffffffffffffffffffffffffffff1916827bffffffffffffffffffffffffffffffffffffffffffffffffffffffff1916148061199f57507f5b5e139f000000000000000000000000000000000000000000000000000000007bffffffffffffffffffffffffffffffffffffffffffffffffffffffff1916827bffffffffffffffffffffffffffffffffffffffffffffffffffffffff1916145b806119af57506119ae82611c91565b5b9050919050565b6119c1838383611cfb565b505050565b505050565b6119d58383611e0d565b6119e26000848484611a26565b611a21576040517f08c379a0000000000000000000000000000000000000000000000000000000008152600401611a1890613848565b60405180910390fd5b505050565b6000611a478473ffffffffffffffffffffffffffffffffffffffff16611fe6565b15611ba0578373ffffffffffffffffffffffffffffffffffffffff1663150b7a02611a70611065565b8786866040518563ffffffff1660e01b8152600401611a9294939291906139af565b6020604051808303816000875af1925050508015611ace57506040513d601f19601f82011682018060405250810190611acb9190613a10565b60015b611b50573d8060008114611afe576040519150601f19603f3d011682016040523d82523d6000602084013e611b03565b606091505b506000815103611b48576040517f08c379a0000000000000000000000000000000000000000000000000000000008152600401611b3f90613848565b60405180910390fd5b805181602001fd5b63150b7a0260e01b7bffffffffffffffffffffffffffffffffffffffffffffffffffffffff1916817bffffffffffffffffffffffffffffffffffffffffffffffffffffffff191614915050611ba5565b600190505b949350505050565b60606040518060400160405280601581526020017f68747470733a2f2f697066732e696f2f697066732f0000000000000000000000815250905090565b6060611bf582610ff9565b611c34576040517f08c379a0000000000000000000000000000000000000000000000000000000008152600401611c2b90613aaf565b60405180910390fd5b6000611c3e611bad565b90506000815111611c5e5760405180602001604052806000815250611c89565b80611c6884612009565b604051602001611c79929190613936565b6040516020818303038152906040525b915050919050565b60007f01ffc9a7000000000000000000000000000000000000000000000000000000007bffffffffffffffffffffffffffffffffffffffffffffffffffffffff1916827bffffffffffffffffffffffffffffffffffffffffffffffffffffffff1916149050919050565b611d06838383612169565b600073ffffffffffffffffffffffffffffffffffffffff168373ffffffffffffffffffffffffffffffffffffffff1603611d4857611d438161216e565b611d87565b8173ffffffffffffffffffffffffffffffffffffffff168373ffffffffffffffffffffffffffffffffffffffff1614611d8657611d8583826121b7565b5b5b600073ffffffffffffffffffffffffffffffffffffffff168273ffffffffffffffffffffffffffffffffffffffff1603611dc957611dc481612324565b611e08565b8273ffffffffffffffffffffffffffffffffffffffff168273ffffffffffffffffffffffffffffffffffffffff1614611e0757611e0682826123f5565b5b5b505050565b600073ffffffffffffffffffffffffffffffffffffffff168273ffffffffffffffffffffffffffffffffffffffff1603611e7c576040517f08c379a0000000000000000000000000000000000000000000000000000000008152600401611e7390613b1b565b60405180910390fd5b611e8581610ff9565b15611ec5576040517f08c379a0000000000000000000000000000000000000000000000000000000008152600401611ebc90613b87565b60405180910390fd5b611ed1600083836119b6565b6001600360008473ffffffffffffffffffffffffffffffffffffffff1673ffffffffffffffffffffffffffffffffffffffff1681526020019081526020016000206000828254611f219190613426565b92505081905550816002600083815260200190815260200160002060006101000a81548173ffffffffffffffffffffffffffffffffffffffff021916908373ffffffffffffffffffffffffffffffffffffffff160217905550808273ffffffffffffffffffffffffffffffffffffffff16600073ffffffffffffffffffffffffffffffffffffffff167fddf252ad1be2c89b69c2b068fc378daa952ba7f163c4a11628f55a4df523b3ef60405160405180910390a4611fe2600083836119c6565b5050565b6000808273ffffffffffffffffffffffffffffffffffffffff163b119050919050565b606060008203612050576040518060400160405280600181526020017f30000000000000000000000000000000000000000000000000000000000000008152509050612164565b600082905060005b6000821461208257808061206b90613ba7565b915050600a8261207b9190613c1e565b9150612058565b60008167ffffffffffffffff81111561209e5761209d6127d4565b5b6040519080825280601f01601f1916602001820160405280156120d05781602001600182028036833780820191505090505b5090505b6000851461215d576001826120e991906133f2565b9150600a856120f89190613c4f565b60306121049190613426565b60f81b81838151811061211a57612119612ee4565b5b60200101907effffffffffffffffffffffffffffffffffffffffffffffffffffffffffffff1916908160001a905350600a856121569190613c1e565b94506120d4565b8093505050505b919050565b505050565b6008805490506009600083815260200190815260200160002081905550600881908060018154018082558091505060019003906000526020600020016000909190919091505550565b600060016121c4846109e1565b6121ce91906133f2565b90506000600760008481526020019081526020016000205490508181146122b3576000600660008673ffffffffffffffffffffffffffffffffffffffff1673ffffffffffffffffffffffffffffffffffffffff168152602001908152602001600020600084815260200190815260200160002054905080600660008773ffffffffffffffffffffffffffffffffffffffff1673ffffffffffffffffffffffffffffffffffffffff168152602001908152602001600020600084815260200190815260200160002081905550816007600083815260200190815260200160002081905550505b6007600084815260200190815260200160002060009055600660008573ffffffffffffffffffffffffffffffffffffffff1673ffffffffffffffffffffffffffffffffffffffff16815260200190815260200160002060008381526020019081526020016000206000905550505050565b6000600160088054905061233891906133f2565b905060006009600084815260200190815260200160002054905060006008838154811061236857612367612ee4565b5b90600052602060002001549050806008838154811061238a57612389612ee4565b5b9060005260206000200181905550816009600083815260200190815260200160002081905550600960008581526020019081526020016000206000905560088054806123d9576123d8613c80565b5b6001900381819060005260206000200160009055905550505050565b6000612400836109e1565b905081600660008573ffffffffffffffffffffffffffffffffffffffff1673ffffffffffffffffffffffffffffffffffffffff168152602001908152602001600020600083815260200190815260200160002081905550806007600084815260200190815260200160002081905550505050565b6000604051905090565b600080fd5b600080fd5b60007fffffffff0000000000000000000000000000000000000000000000000000000082169050919050565b6124bd81612488565b81146124c857600080fd5b50565b6000813590506124da816124b4565b92915050565b6000602082840312156124f6576124f561247e565b5b6000612504848285016124cb565b91505092915050565b60008115159050919050565b6125228161250d565b82525050565b600060208201905061253d6000830184612519565b92915050565b600081519050919050565b600082825260208201905092915050565b60005b8381101561257d578082015181840152602081019050612562565b60008484015250505050565b6000601f19601f8301169050919050565b60006125a582612543565b6125af818561254e565b93506125bf81856020860161255f565b6125c881612589565b840191505092915050565b600060208201905081810360008301526125ed818461259a565b905092915050565b6000819050919050565b612608816125f5565b811461261357600080fd5b50565b600081359050612625816125ff565b92915050565b6000602082840312156126415761264061247e565b5b600061264f84828501612616565b91505092915050565b600073ffffffffffffffffffffffffffffffffffffffff82169050919050565b600061268382612658565b9050919050565b61269381612678565b82525050565b60006020820190506126ae600083018461268a565b92915050565b6126bd81612678565b81146126c857600080fd5b50565b6000813590506126da816126b4565b92915050565b600080604083850312156126f7576126f661247e565b5b6000612705858286016126cb565b925050602061271685828601612616565b9150509250929050565b612729816125f5565b82525050565b60006020820190506127446000830184612720565b92915050565b6000806000606084860312156127635761276261247e565b5b6000612771868287016126cb565b9350506020612782868287016126cb565b925050604061279386828701612616565b9150509250925092565b6000602082840312156127b3576127b261247e565b5b60006127c1848285016126cb565b91505092915050565b600080fd5b600080fd5b7f4e487b7100000000000000000000000000000000000000000000000000000000600052604160045260246000fd5b61280c82612589565b810181811067ffffffffffffffff8211171561282b5761282a6127d4565b5b80604052505050565b600061283e612474565b905061284a8282612803565b919050565b600067ffffffffffffffff82111561286a576128696127d4565b5b61287382612589565b9050602081019050919050565b82818337600083830152505050565b60006128a261289d8461284f565b612834565b9050828152602081018484840111156128be576128bd6127cf565b5b6128c9848285612880565b509392505050565b600082601f8301126128e6576128e56127ca565b5b81356128f684826020860161288f565b91505092915050565b6000602082840312156129155761291461247e565b5b600082013567ffffffffffffffff81111561293357612932612483565b5b61293f848285016128d1565b91505092915050565b6129518161250d565b811461295c57600080fd5b50565b60008135905061296e81612948565b92915050565b6000806040838503121561298b5761298a61247e565b5b6000612999858286016126cb565b92505060206129aa8582860161295f565b9150509250929050565b600067ffffffffffffffff8211156129cf576129ce6127d4565b5b6129d882612589565b9050602081019050919050565b60006129f86129f3846129b4565b612834565b905082815260208101848484011115612a1457612a136127cf565b5b612a1f848285612880565b509392505050565b600082601f830112612a3c57612a3b6127ca565b5b8135612a4c8482602086016129e5565b91505092915050565b60008060008060808587031215612a6f57612a6e61247e565b5b6000612a7d878288016126cb565b9450506020612a8e878288016126cb565b9350506040612a9f87828801612616565b925050606085013567ffffffffffffffff811115612ac057612abf612483565b5b612acc87828801612a27565b91505092959194509250565b60008060408385031215612aef57612aee61247e565b5b6000612afd858286016126cb565b9250506020612b0e858286016126cb565b9150509250929050565b7f4e487b7100000000000000000000000000000000000000000000000000000000600052602260045260246000fd5b60006002820490506001821680612b5f57607f821691505b602082108103612b7257612b71612b18565b5b50919050565b7f4552433732313a20617070726f76656420717565727920666f72206e6f6e657860008201527f697374656e7420746f6b656e0000000000000000000000000000000000000000602082015250565b6000612bd4602c8361254e565b9150612bdf82612b78565b604082019050919050565b60006020820190508181036000830152612c0381612bc7565b9050919050565b7f4552433732313a20617070726f76616c20746f2063757272656e74206f776e6560008201527f7200000000000000000000000000000000000000000000000000000000000000602082015250565b6000612c6660218361254e565b9150612c7182612c0a565b604082019050919050565b60006020820190508181036000830152612c9581612c59565b9050919050565b7f4552433732313a20617070726f76652063616c6c6572206973206e6f74206f7760008201527f6e6572206e6f7220617070726f76656420666f7220616c6c0000000000000000602082015250565b6000612cf860388361254e565b9150612d0382612c9c565b604082019050919050565b60006020820190508181036000830152612d2781612ceb565b9050919050565b7f4552433732313a207472616e736665722063616c6c6572206973206e6f74206f60008201527f776e6572206e6f7220617070726f766564000000000000000000000000000000602082015250565b6000612d8a60318361254e565b9150612d9582612d2e565b604082019050919050565b60006020820190508181036000830152612db981612d7d565b9050919050565b7f455243373231456e756d657261626c653a206f776e657220696e646578206f7560008201527f74206f6620626f756e6473000000000000000000000000000000000000000000602082015250565b6000612e1c602b8361254e565b9150612e2782612dc0565b604082019050919050565b60006020820190508181036000830152612e4b81612e0f565b9050919050565b7f455243373231456e756d657261626c653a20676c6f62616c20696e646578206f60008201527f7574206f6620626f756e64730000000000000000000000000000000000000000602082015250565b6000612eae602c8361254e565b9150612eb982612e52565b604082019050919050565b60006020820190508181036000830152612edd81612ea1565b9050919050565b7f4e487b7100000000000000000000000000000000000000000000000000000000600052603260045260246000fd5b7f4552433732313a206f776e657220717565727920666f72206e6f6e657869737460008201527f656e7420746f6b656e0000000000000000000000000000000000000000000000602082015250565b6000612f6f60298361254e565b9150612f7a82612f13565b604082019050919050565b60006020820190508181036000830152612f9e81612f62565b9050919050565b7f4552433732313a2062616c616e636520717565727920666f7220746865207a6560008201527f726f206164647265737300000000000000000000000000000000000000000000602082015250565b6000613001602a8361254e565b915061300c82612fa5565b604082019050919050565b6000602082019050818103600083015261303081612ff4565b9050919050565b7f4f776e61626c653a2063616c6c6572206973206e6f7420746865206f776e6572600082015250565b600061306d60208361254e565b915061307882613037565b602082019050919050565b6000602082019050818103600083015261309c81613060565b9050919050565b7f53616c65206d7573742062652061637469766500000000000000000000000000600082015250565b60006130d960138361254e565b91506130e4826130a3565b602082019050919050565b60006020820190508181036000830152613108816130cc565b9050919050565b7f45786365656420696e697469616c20737570706c79206f66206e757473000000600082015250565b6000613145601d8361254e565b91506131508261310f565b602082019050919050565b6000602082019050818103600083015261317481613138565b9050919050565b7f4f776e61626c653a206e6577206f776e657220697320746865207a65726f206160008201527f6464726573730000000000000000000000000000000000000000000000000000602082015250565b60006131d760268361254e565b91506131e28261317b565b604082019050919050565b60006020820190508181036000830152613206816131ca565b9050919050565b7f4552433732313a206f70657261746f7220717565727920666f72206e6f6e657860008201527f697374656e7420746f6b656e0000000000000000000000000000000000000000602082015250565b6000613269602c8361254e565b91506132748261320d565b604082019050919050565b600060208201905081810360008301526132988161325c565b9050919050565b7f4552433732313a207472616e736665722066726f6d20696e636f72726563742060008201527f6f776e6572000000000000000000000000000000000000000000000000000000602082015250565b60006132fb60258361254e565b91506133068261329f565b604082019050919050565b6000602082019050818103600083015261332a816132ee565b9050919050565b7f4552433732313a207472616e7366657220746f20746865207a65726f2061646460008201527f7265737300000000000000000000000000000000000000000000000000000000602082015250565b600061338d60248361254e565b915061339882613331565b604082019050919050565b600060208201905081810360008301526133bc81613380565b9050919050565b7f4e487b7100000000000000000000000000000000000000000000000000000000600052601160045260246000fd5b60006133fd826125f5565b9150613408836125f5565b92508282039050818111156134205761341f6133c3565b5b92915050565b6000613431826125f5565b915061343c836125f5565b9250828201905080821115613454576134536133c3565b5b92915050565b7f45524337323155524953746f726167653a2055524920736574206f66206e6f6e60008201527f6578697374656e7420746f6b656e000000000000000000000000000000000000602082015250565b60006134b6602e8361254e565b91506134c18261345a565b604082019050919050565b600060208201905081810360008301526134e5816134a9565b9050919050565b60008190508160005260206000209050919050565b60006020601f8301049050919050565b600082821b905092915050565b60006008830261354e7fffffffffffffffffffffffffffffffffffffffffffffffffffffffffffffffff82613511565b6135588683613511565b95508019841693508086168417925050509392505050565b6000819050919050565b600061359561359061358b846125f5565b613570565b6125f5565b9050919050565b6000819050919050565b6135af8361357a565b6135c36135bb8261359c565b84845461351e565b825550505050565b600090565b6135d86135cb565b6135e38184846135a6565b505050565b5b81811015613607576135fc6000826135d0565b6001810190506135e9565b5050565b601f82111561364c5761361d816134ec565b61362684613501565b81016020851015613635578190505b61364961364185613501565b8301826135e8565b50505b505050565b600082821c905092915050565b600061366f60001984600802613651565b1980831691505092915050565b6000613688838361365e565b9150826002028217905092915050565b6136a182612543565b67ffffffffffffffff8111156136ba576136b96127d4565b5b6136c48254612b47565b6136cf82828561360b565b600060209050601f83116001811461370257600084156136f0578287015190505b6136fa858261367c565b865550613762565b601f198416613710866134ec565b60005b8281101561373857848901518255600182019150602085019450602081019050613713565b868310156137555784890151613751601f89168261365e565b8355505b6001600288020188555050505b505050505050565b7f4552433732313a20617070726f766520746f2063616c6c657200000000000000600082015250565b60006137a060198361254e565b91506137ab8261376a565b602082019050919050565b600060208201905081810360008301526137cf81613793565b9050919050565b7f4552433732313a207472616e7366657220746f206e6f6e20455243373231526560008201527f63656976657220696d706c656d656e7465720000000000000000000000000000602082015250565b600061383260328361254e565b915061383d826137d6565b604082019050919050565b6000602082019050818103600083015261386181613825565b9050919050565b7f45524337323155524953746f726167653a2055524920717565727920666f722060008201527f6e6f6e6578697374656e7420746f6b656e000000000000000000000000000000602082015250565b60006138c460318361254e565b91506138cf82613868565b604082019050919050565b600060208201905081810360008301526138f3816138b7565b9050919050565b600081905092915050565b600061391082612543565b61391a81856138fa565b935061392a81856020860161255f565b80840191505092915050565b60006139428285613905565b915061394e8284613905565b91508190509392505050565b600081519050919050565b600082825260208201905092915050565b60006139818261395a565b61398b8185613965565b935061399b81856020860161255f565b6139a481612589565b840191505092915050565b60006080820190506139c4600083018761268a565b6139d1602083018661268a565b6139de6040830185612720565b81810360608301526139f08184613976565b905095945050505050565b600081519050613a0a816124b4565b92915050565b600060208284031215613a2657613a2561247e565b5b6000613a34848285016139fb565b91505092915050565b7f4552433732314d657461646174613a2055524920717565727920666f72206e6f60008201527f6e6578697374656e7420746f6b656e0000000000000000000000000000000000602082015250565b6000613a99602f8361254e565b9150613aa482613a3d565b604082019050919050565b60006020820190508181036000830152613ac881613a8c565b9050919050565b7f4552433732313a206d696e7420746f20746865207a65726f2061646472657373600082015250565b6000613b0560208361254e565b9150613b1082613acf565b602082019050919050565b60006020820190508181036000830152613b3481613af8565b9050919050565b7f4552433732313a20746f6b656e20616c7265616479206d696e74656400000000600082015250565b6000613b71601c8361254e565b9150613b7c82613b3b565b602082019050919050565b60006020820190508181036000830152613ba081613b64565b9050919050565b6000613bb2826125f5565b91507fffffffffffffffffffffffffffffffffffffffffffffffffffffffffffffffff8203613be457613be36133c3565b5b600182019050919050565b7f4e487b7100000000000000000000000000000000000000000000000000000000600052601260045260246000fd5b6000613c29826125f5565b9150613c34836125f5565b925082613c4457613c43613bef565b5b828204905092915050565b6000613c5a826125f5565b9150613c65836125f5565b925082613c7557613c74613bef565b5b828206905092915050565b7f4e487b7100000000000000000000000000000000000000000000000000000000600052603160045260246000fdfea26469706673582212207cd4a34fe42a3972b5f9be5bb0c6bb48390a8d842088085c13b0e05d8eac200564736f6c63430008110033",
  "immutableReferences": {},
  "source": "// SPDX-License-Identifier: MIT\npragma solidity ^0.8.7;\n\nimport \"openzeppelin-solidity/contracts/token/ERC721/ERC721.sol\";\nimport \"openzeppelin-solidity/contracts/token/ERC721/extensions/ERC721Enumerable.sol\";\nimport \"openzeppelin-solidity/contracts/token/ERC721/extensions/ERC721URIStorage.sol\";\nimport \"openzeppelin-solidity/contracts/access/Ownable.sol\";\nimport \"openzeppelin-solidity/contracts/utils/cryptography/ECDSA.sol\";\n\nimport \"./CosmoVault.sol\";\n\ncontract CosmoCreation is ERC721, ERC721Enumerable, ERC721URIStorage, Ownable {\n\n    uint256 public INITIAL_NUTS;\n\n    address treasuryAddress;\n    bool public saleIsActive = false;\n\n    CosmoVault vault;\n\n    constructor(\n        string memory _name,\n        string memory _symbol,\n        uint256 _initialSupply,\n        address _vaultAddress\n    )\n    ERC721(_name, _symbol)\n    {\n        INITIAL_NUTS = _initialSupply;\n        vault = CosmoVault(_vaultAddress);\n        treasuryAddress = vault.TREASURY_ADDRESS();\n    }\n\n    function _baseURI() internal pure override returns (string memory) {\n        return \"https://ipfs.io/ipfs/\";\n    }\n\n    function mintNut(string memory _nutCID) public payable {\n        require(saleIsActive, \"Sale must be active\");\n        require(totalSupply() < INITIAL_NUTS, \"Exceed initial supply of nuts\");\n        //require(NUT_PRICE * _numberOfNuts <= msg.value, \"Ether value is not correct\");\n\n        _safeMint(treasuryAddress, totalSupply());\n        _setTokenURI(totalSupply(), _nutCID);\n        vault.giveMintBalance(totalSupply());\n    }\n\n    function changeTokenURI(uint256 _tokenId, string memory _cidPath, bytes memory _signature) internal {\n        require(_isApprovedOrOwner(_msgSender(), _tokenId), \"Caller is not owner nor approved\");\n        bytes32 pathHash = keccak256(abi.encodePacked(_cidPath));\n        require(vault.isVerified(pathHash, _signature), \"Data does not match signature\");\n\n        _setTokenURI(_tokenId, _cidPath);\n    }\n\n    // ----- The following functions are overrides required by Solidity -----\n    function _beforeTokenTransfer(address from, address to, uint256 tokenId) internal override(ERC721, ERC721Enumerable) {\n        super._beforeTokenTransfer(from, to, tokenId);\n    }\n\n    function _burn(uint256 tokenId) internal override(ERC721, ERC721URIStorage) {\n        super._burn(tokenId);\n    }\n\n    function tokenURI(uint256 tokenId) public view override(ERC721, ERC721URIStorage) returns (string memory) {\n        return super.tokenURI(tokenId);\n    }\n\n    function supportsInterface(bytes4 interfaceId) public view override(ERC721, ERC721Enumerable) returns (bool) {\n        return super.supportsInterface(interfaceId);\n    }\n    // -----      -----     -----     -----     -----\n}\n",
  "sourcePath": "/home/redlentils/Seafile/Websites/avatarnft/contracts/CosmoCreation.sol",
  "compiler": {
    "name": "solc",
    "version": "0.8.17+commit.8df45f5f.Emscripten.clang"
  },
  "schemaVersion": "3.4.10",
  "updatedAt": "2022-10-06T18:49:43.073Z",
  "devdoc": {
    "kind": "dev",
    "methods": {
      "approve(address,uint256)": {
        "details": "See {IERC721-approve}."
      },
      "balanceOf(address)": {
        "details": "See {IERC721-balanceOf}."
      },
      "getApproved(uint256)": {
        "details": "See {IERC721-getApproved}."
      },
      "isApprovedForAll(address,address)": {
        "details": "See {IERC721-isApprovedForAll}."
      },
      "name()": {
        "details": "See {IERC721Metadata-name}."
      },
      "owner()": {
        "details": "Returns the address of the current owner."
      },
      "ownerOf(uint256)": {
        "details": "See {IERC721-ownerOf}."
      },
      "renounceOwnership()": {
        "details": "Leaves the contract without owner. It will not be possible to call `onlyOwner` functions anymore. Can only be called by the current owner. NOTE: Renouncing ownership will leave the contract without an owner, thereby removing any functionality that is only available to the owner."
      },
      "safeTransferFrom(address,address,uint256)": {
        "details": "See {IERC721-safeTransferFrom}."
      },
      "safeTransferFrom(address,address,uint256,bytes)": {
        "details": "See {IERC721-safeTransferFrom}."
      },
      "setApprovalForAll(address,bool)": {
        "details": "See {IERC721-setApprovalForAll}."
      },
      "symbol()": {
        "details": "See {IERC721Metadata-symbol}."
      },
      "tokenByIndex(uint256)": {
        "details": "See {IERC721Enumerable-tokenByIndex}."
      },
      "tokenOfOwnerByIndex(address,uint256)": {
        "details": "See {IERC721Enumerable-tokenOfOwnerByIndex}."
      },
      "totalSupply()": {
        "details": "See {IERC721Enumerable-totalSupply}."
      },
      "transferFrom(address,address,uint256)": {
        "details": "See {IERC721-transferFrom}."
      },
      "transferOwnership(address)": {
        "details": "Transfers ownership of the contract to a new account (`newOwner`). Can only be called by the current owner."
      }
    },
    "version": 1
  },
  "userdoc": {
    "kind": "user",
    "methods": {},
    "version": 1
  }
}