{
  "contractName": "CosmoSeed",
  "abi": [
    {
      "inputs": [
        {
          "internalType": "uint256",
          "name": "_seedId",
          "type": "uint256"
        },
        {
          "internalType": "uint256",
          "name": "_nutId",
          "type": "uint256"
        },
        {
          "internalType": "address",
          "name": "_treasuryAddress",
          "type": "address"
        },
        {
          "internalType": "bytes32",
          "name": "_secretHash",
          "type": "bytes32"
        }
      ],
      "stateMutability": "payable",
      "type": "constructor"
    },
    {
      "inputs": [],
      "name": "nutId",
      "outputs": [
        {
          "internalType": "uint256",
          "name": "",
          "type": "uint256"
        }
      ],
      "stateMutability": "view",
      "type": "function"
    },
    {
      "inputs": [
        {
          "internalType": "address",
          "name": "_parentNutOwner",
          "type": "address"
        }
      ],
      "name": "degradeSeed",
      "outputs": [],
      "stateMutability": "payable",
      "type": "function"
    },
    {
      "inputs": [
        {
          "internalType": "string",
          "name": "_secret",
          "type": "string"
        },
        {
          "internalType": "string",
          "name": "_cidPath",
          "type": "string"
        },
        {
          "internalType": "bytes",
          "name": "_signature",
          "type": "bytes"
        }
      ],
      "name": "spawnNut",
      "outputs": [],
      "stateMutability": "nonpayable",
      "type": "function"
    }
  ],
  "bytecode": "0x608060405260405162000dde38038062000dde8339818101604052810190620000299190620002f4565b600033905080600760006101000a81548173ffffffffffffffffffffffffffffffffffffffff021916908373ffffffffffffffffffffffffffffffffffffffff16021790555082600860006101000a81548173ffffffffffffffffffffffffffffffffffffffff021916908373ffffffffffffffffffffffffffffffffffffffff1602179055508460008001819055508360006001018190555034600060020181905550600860009054906101000a900473ffffffffffffffffffffffffffffffffffffffff1673ffffffffffffffffffffffffffffffffffffffff166334fc1228856040518263ffffffff1660e01b81526004016200012a919062000377565b602060405180830381865afa15801562000148573d6000803e3d6000fd5b505050506040513d601f19601f820116820180604052508101906200016e919062000394565b60006003018190555030600060040160006101000a81548173ffffffffffffffffffffffffffffffffffffffff021916908373ffffffffffffffffffffffffffffffffffffffff16021790555080600060050160006101000a81548173ffffffffffffffffffffffffffffffffffffffff021916908373ffffffffffffffffffffffffffffffffffffffff160217905550816000600601819055505050505050620003c6565b600080fd5b6000819050919050565b6200022e8162000219565b81146200023a57600080fd5b50565b6000815190506200024e8162000223565b92915050565b600073ffffffffffffffffffffffffffffffffffffffff82169050919050565b6000620002818262000254565b9050919050565b620002938162000274565b81146200029f57600080fd5b50565b600081519050620002b38162000288565b92915050565b6000819050919050565b620002ce81620002b9565b8114620002da57600080fd5b50565b600081519050620002ee81620002c3565b92915050565b6000806000806080858703121562000311576200031062000214565b5b600062000321878288016200023d565b945050602062000334878288016200023d565b93505060406200034787828801620002a2565b92505060606200035a87828801620002dd565b91505092959194509250565b620003718162000219565b82525050565b60006020820190506200038e600083018462000366565b92915050565b600060208284031215620003ad57620003ac62000214565b5b6000620003bd848285016200023d565b91505092915050565b610a0880620003d66000396000f3fe6080604052600436106100345760003560e01c806326b2c77c14610039578063685771f414610055578063956c2dc314610080575b600080fd5b610053600480360381019061004e9190610434565b6100a9565b005b34801561006157600080fd5b5061006a610203565b604051610077919061047a565b60405180910390f35b34801561008c57600080fd5b506100a760048036038101906100a2919061067c565b61020f565b005b6000600860009054906101000a900473ffffffffffffffffffffffffffffffffffffffff1673ffffffffffffffffffffffffffffffffffffffff1663b8a9736d6040518163ffffffff1660e01b8152600401602060405180830381865afa158015610118573d6000803e3d6000fd5b505050506040513d601f19601f8201168201806040525081019061013c919061074f565b90506000813461014c91906107ab565b9050600860009054906101000a900473ffffffffffffffffffffffffffffffffffffffff1673ffffffffffffffffffffffffffffffffffffffff166108fc839081150290604051600060405180830381858888f193505050501580156101b6573d6000803e3d6000fd5b508273ffffffffffffffffffffffffffffffffffffffff166108fc829081150290604051600060405180830381858888f193505050501580156101fd573d6000803e3d6000fd5b50505050565b60008060010154905090565b61021883610345565b50600860009054906101000a900473ffffffffffffffffffffffffffffffffffffffff1673ffffffffffffffffffffffffffffffffffffffff1663733b0bca60008001546000600301546040518363ffffffff1660e01b815260040161027f9291906107df565b600060405180830381600087803b15801561029957600080fd5b505af11580156102ad573d6000803e3d6000fd5b50505050600760009054906101000a900473ffffffffffffffffffffffffffffffffffffffff1673ffffffffffffffffffffffffffffffffffffffff1663a0e12efe83836040518363ffffffff1660e01b815260040161030e9291906108dc565b600060405180830381600087803b15801561032857600080fd5b505af115801561033c573d6000803e3d6000fd5b50505050505050565b60008082604051602001610359919061094f565b60405160208183030381529060405280519060200120905060006006015481146103b8576040517f08c379a00000000000000000000000000000000000000000000000000000000081526004016103af906109b2565b60405180910390fd5b6001915050919050565b6000604051905090565b600080fd5b600080fd5b600073ffffffffffffffffffffffffffffffffffffffff82169050919050565b6000610401826103d6565b9050919050565b610411816103f6565b811461041c57600080fd5b50565b60008135905061042e81610408565b92915050565b60006020828403121561044a576104496103cc565b5b60006104588482850161041f565b91505092915050565b6000819050919050565b61047481610461565b82525050565b600060208201905061048f600083018461046b565b92915050565b600080fd5b600080fd5b6000601f19601f8301169050919050565b7f4e487b7100000000000000000000000000000000000000000000000000000000600052604160045260246000fd5b6104e88261049f565b810181811067ffffffffffffffff82111715610507576105066104b0565b5b80604052505050565b600061051a6103c2565b905061052682826104df565b919050565b600067ffffffffffffffff821115610546576105456104b0565b5b61054f8261049f565b9050602081019050919050565b82818337600083830152505050565b600061057e6105798461052b565b610510565b90508281526020810184848401111561059a5761059961049a565b5b6105a584828561055c565b509392505050565b600082601f8301126105c2576105c1610495565b5b81356105d284826020860161056b565b91505092915050565b600067ffffffffffffffff8211156105f6576105f56104b0565b5b6105ff8261049f565b9050602081019050919050565b600061061f61061a846105db565b610510565b90508281526020810184848401111561063b5761063a61049a565b5b61064684828561055c565b509392505050565b600082601f83011261066357610662610495565b5b813561067384826020860161060c565b91505092915050565b600080600060608486031215610695576106946103cc565b5b600084013567ffffffffffffffff8111156106b3576106b26103d1565b5b6106bf868287016105ad565b935050602084013567ffffffffffffffff8111156106e0576106df6103d1565b5b6106ec868287016105ad565b925050604084013567ffffffffffffffff81111561070d5761070c6103d1565b5b6107198682870161064e565b9150509250925092565b61072c81610461565b811461073757600080fd5b50565b60008151905061074981610723565b92915050565b600060208284031215610765576107646103cc565b5b60006107738482850161073a565b91505092915050565b7f4e487b7100000000000000000000000000000000000000000000000000000000600052601160045260246000fd5b60006107b682610461565b91506107c183610461565b92508282039050818111156107d9576107d861077c565b5b92915050565b60006040820190506107f4600083018561046b565b610801602083018461046b565b9392505050565b600081519050919050565b600082825260208201905092915050565b60005b83811015610842578082015181840152602081019050610827565b60008484015250505050565b600061085982610808565b6108638185610813565b9350610873818560208601610824565b61087c8161049f565b840191505092915050565b600081519050919050565b600082825260208201905092915050565b60006108ae82610887565b6108b88185610892565b93506108c8818560208601610824565b6108d18161049f565b840191505092915050565b600060408201905081810360008301526108f6818561084e565b9050818103602083015261090a81846108a3565b90509392505050565b600081905092915050565b600061092982610808565b6109338185610913565b9350610943818560208601610824565b80840191505092915050565b600061095b828461091e565b915081905092915050565b7f496e70757420646f6573206e6f74206d61746368207365637265740000000000600082015250565b600061099c601b83610813565b91506109a782610966565b602082019050919050565b600060208201905081810360008301526109cb8161098f565b905091905056fea2646970667358221220dff8003e7c38d61863bdc0dca9245ed87c3d6291437679cea0d9ec7d6fa1ee0f64736f6c63430008110033",
  "immutableReferences": {},
  "source": "// SPDX-License-Identifier: MIT\npragma solidity ^0.8.7;\n\nimport \"./CosmoNuts.sol\";\nimport \"./CosmoTreasury.sol\";\n\ncontract CosmoSeed {\n\n    struct Seed {\n        uint256 id;\n        uint256 nutId;\n        uint256 heldEther;\n        uint256 matterNeeded;\n        address location;\n        address nutLocation;\n        bytes32 secretHash;\n    }\n    Seed seed;\n\n    CosmoNuts nuts;\n    CosmoTreasury treasury;\n\n    constructor(\n        uint256 _seedId,\n        uint256 _nutId,\n        address _treasuryAddress,\n        bytes32 _secretHash\n    ) payable {\n        address nutLocation = address(msg.sender);\n        nuts = CosmoNuts(nutLocation);\n        treasury = CosmoTreasury(_treasuryAddress);\n\n        seed.id = _seedId;\n        seed.nutId = _nutId;\n        seed.heldEther = msg.value;\n        seed.matterNeeded = treasury.calcMatterNeeded(_nutId);\n        seed.location = address(this);\n        seed.nutLocation = nutLocation;\n        seed.secretHash = _secretHash;\n    }\n\n    function nutId() public view returns (uint256) {\n        return seed.nutId;\n    }\n\n    /**\n     * Takes a string input and hashes it; compares to the SECRET_HASH in the contract\n     * If it matches, returns true\n     */\n    function verifySecret(string memory _input) private view returns(bool) {\n        bytes32 inputHash = keccak256(abi.encodePacked(_input));\n        require(inputHash == seed.secretHash, \"Input does not match secret\");\n        return true;\n    }\n\n    /**\n     * Called from CosmoNuts as part of the spawnNut function below\n     * Jumping back to transfer funds, and downgrade contract (does this mean deletion? - self-destruct)\n     */\n    function degradeSeed(address _parentNutOwner) external payable {\n        // Something not right here - need to double check how does msg.value work here?\n        uint256 nutPrice = treasury.NUT_PRICE();\n        uint256 excessEth = msg.value - nutPrice; // Excess ether is defined as total paid less orignial set price\n        payable(address(treasury)).transfer(nutPrice); // Transfer the set nut price to Treasury\n        payable(_parentNutOwner).transfer(excessEth); // Transfer remaining back to parent nut owner\n    }\n\n    /**\n     * Can be called from anyone who comes across, asks for secret from user\n     * The application fills out the path and signature\n     * If provided secret is correct, a new CosmoNut is minted and assigned to caller\n     */\n    function spawnNut(string memory _secret, string memory _cidPath, bytes memory _signature) public {\n        verifySecret(_secret); // Check whether provided secret is correct\n        treasury.growSeedFromNut(seed.id, seed.matterNeeded);\n        nuts.createNut(_cidPath, _signature); // Mints the new NFT and assigns to caller\n    }\n\n}\n",
  "sourcePath": "/home/redlentils/Seafile/Websites/avatarnft/contracts/CosmoSeed.sol",
  "compiler": {
    "name": "solc",
    "version": "0.8.17+commit.8df45f5f.Emscripten.clang"
  },
  "schemaVersion": "3.4.10",
  "updatedAt": "2022-10-04T09:49:06.770Z",
  "devdoc": {
    "kind": "dev",
    "methods": {},
    "version": 1
  },
  "userdoc": {
    "kind": "user",
    "methods": {
      "degradeSeed(address)": {
        "notice": "Called from CosmoNuts as part of the spawnNut function below Jumping back to transfer funds, and downgrade contract (does this mean deletion? - self-destruct)"
      },
      "spawnNut(string,string,bytes)": {
        "notice": "Can be called from anyone who comes across, asks for secret from user The application fills out the path and signature If provided secret is correct, a new CosmoNut is minted and assigned to caller"
      }
    },
    "version": 1
  }
}