{
  "contractName": "CosmoBang",
  "abi": [
    {
      "inputs": [
        {
          "internalType": "address",
          "name": "_systemAddress",
          "type": "address"
        },
        {
          "internalType": "address",
          "name": "_matterAddress",
          "type": "address"
        },
        {
          "internalType": "address",
          "name": "_treasuryImplementation",
          "type": "address"
        },
        {
          "internalType": "address",
          "name": "_seedImplementation",
          "type": "address"
        },
        {
          "internalType": "address",
          "name": "_butterImplementation",
          "type": "address"
        },
        {
          "internalType": "uint256",
          "name": "_price",
          "type": "uint256"
        },
        {
          "internalType": "uint256",
          "name": "_rate",
          "type": "uint256"
        }
      ],
      "name": "initialize",
      "outputs": [
        {
          "internalType": "address",
          "name": "",
          "type": "address"
        }
      ],
      "stateMutability": "nonpayable",
      "type": "function"
    },
    {
      "inputs": [
        {
          "internalType": "string",
          "name": "_name",
          "type": "string"
        },
        {
          "internalType": "string",
          "name": "_symbol",
          "type": "string"
        },
        {
          "internalType": "uint256",
          "name": "_supply",
          "type": "uint256"
        },
        {
          "internalType": "address",
          "name": "_treasuryLocation",
          "type": "address"
        },
        {
          "internalType": "address",
          "name": "_vaultImplementation",
          "type": "address"
        }
      ],
      "name": "createCosmo",
      "outputs": [
        {
          "internalType": "address",
          "name": "",
          "type": "address"
        }
      ],
      "stateMutability": "nonpayable",
      "type": "function"
    }
  ],
  "bytecode": "0x608060405234801561001057600080fd5b50616794806100206000396000f3fe60806040523480156200001157600080fd5b50600436106200003a5760003560e01c8063a4bb5404146200003f578063b33f95271462000075575b600080fd5b6200005d600480360381019062000057919062000666565b620000ab565b6040516200006c91906200073d565b60405180910390f35b6200009360048036038101906200008d91906200075a565b62000199565b604051620000a291906200073d565b60405180910390f35b6000808686866000800160009054906101000a900473ffffffffffffffffffffffffffffffffffffffff168787604051620000e69062000442565b620000f796959493929190620008a7565b604051809103906000f08015801562000114573d6000803e3d6000fd5b5090508073ffffffffffffffffffffffffffffffffffffffff16635d12928b6040518163ffffffff1660e01b81526004016020604051808303816000875af115801562000165573d6000803e3d6000fd5b505050506040513d601f19601f820116820180604052508101906200018b919062000939565b508091505095945050505050565b6000876000800160006101000a81548173ffffffffffffffffffffffffffffffffffffffff021916908373ffffffffffffffffffffffffffffffffffffffff16021790555086600060010160006101000a81548173ffffffffffffffffffffffffffffffffffffffff021916908373ffffffffffffffffffffffffffffffffffffffff16021790555085600060020160006101000a81548173ffffffffffffffffffffffffffffffffffffffff021916908373ffffffffffffffffffffffffffffffffffffffff160217905550600062000298600060020160009054906101000a900473ffffffffffffffffffffffffffffffffffffffff166200036b565b90508073ffffffffffffffffffffffffffffffffffffffff1663d7c41c796000800160009054906101000a900473ffffffffffffffffffffffffffffffffffffffff16600060010160009054906101000a900473ffffffffffffffffffffffffffffffffffffffff16898989896040518763ffffffff1660e01b815260040162000328969594939291906200096b565b600060405180830381600087803b1580156200034357600080fd5b505af115801562000358573d6000803e3d6000fd5b5050505080915050979650505050505050565b60006040517f3d602d80600a3d3981f3363d3d373d3d3d363d7300000000000000000000000081528260601b60148201527f5af43d82803e903d91602b57fd5bf3000000000000000000000000000000000060288201526037816000f0915050600073ffffffffffffffffffffffffffffffffffffffff168173ffffffffffffffffffffffffffffffffffffffff16036200043d576040517f08c379a0000000000000000000000000000000000000000000000000000000008152600401620004349062000a28565b60405180910390fd5b919050565b615d148062000a4b83390190565b6000604051905090565b600080fd5b600080fd5b600080fd5b600080fd5b6000601f19601f8301169050919050565b7f4e487b7100000000000000000000000000000000000000000000000000000000600052604160045260246000fd5b620004b9826200046e565b810181811067ffffffffffffffff82111715620004db57620004da6200047f565b5b80604052505050565b6000620004f062000450565b9050620004fe8282620004ae565b919050565b600067ffffffffffffffff8211156200052157620005206200047f565b5b6200052c826200046e565b9050602081019050919050565b82818337600083830152505050565b60006200055f620005598462000503565b620004e4565b9050828152602081018484840111156200057e576200057d62000469565b5b6200058b84828562000539565b509392505050565b600082601f830112620005ab57620005aa62000464565b5b8135620005bd84826020860162000548565b91505092915050565b6000819050919050565b620005db81620005c6565b8114620005e757600080fd5b50565b600081359050620005fb81620005d0565b92915050565b600073ffffffffffffffffffffffffffffffffffffffff82169050919050565b60006200062e8262000601565b9050919050565b620006408162000621565b81146200064c57600080fd5b50565b600081359050620006608162000635565b92915050565b600080600080600060a086880312156200068557620006846200045a565b5b600086013567ffffffffffffffff811115620006a657620006a56200045f565b5b620006b48882890162000593565b955050602086013567ffffffffffffffff811115620006d857620006d76200045f565b5b620006e68882890162000593565b9450506040620006f988828901620005ea565b93505060606200070c888289016200064f565b92505060806200071f888289016200064f565b9150509295509295909350565b620007378162000621565b82525050565b60006020820190506200075460008301846200072c565b92915050565b600080600080600080600060e0888a0312156200077c576200077b6200045a565b5b60006200078c8a828b016200064f565b97505060206200079f8a828b016200064f565b9650506040620007b28a828b016200064f565b9550506060620007c58a828b016200064f565b9450506080620007d88a828b016200064f565b93505060a0620007eb8a828b01620005ea565b92505060c0620007fe8a828b01620005ea565b91505092959891949750929550565b600081519050919050565b600082825260208201905092915050565b60005b83811015620008495780820151818401526020810190506200082c565b60008484015250505050565b600062000862826200080d565b6200086e818562000818565b93506200088081856020860162000829565b6200088b816200046e565b840191505092915050565b620008a181620005c6565b82525050565b600060c0820190508181036000830152620008c3818962000855565b90508181036020830152620008d9818862000855565b9050620008ea604083018762000896565b620008f960608301866200072c565b6200090860808301856200072c565b6200091760a08301846200072c565b979650505050505050565b600081519050620009338162000635565b92915050565b6000602082840312156200095257620009516200045a565b5b6000620009628482850162000922565b91505092915050565b600060c0820190506200098260008301896200072c565b6200099160208301886200072c565b620009a060408301876200072c565b620009af60608301866200072c565b620009be608083018562000896565b620009cd60a083018462000896565b979650505050505050565b7f455243313136373a20637265617465206661696c656400000000000000000000600082015250565b600062000a1060168362000818565b915062000a1d82620009d8565b602082019050919050565b6000602082019050818103600083015262000a438162000a01565b905091905056fe60806040523480156200001157600080fd5b5060405162005d1438038062005d148339818101604052810190620000379190620004dd565b85858585858585858160009081620000509190620007f8565b508060019081620000629190620007f8565b5050506200008562000079620001dc60201b60201c565b620001e460201b60201c565b83600c6000018190555082600c60010160006101000a81548173ffffffffffffffffffffffffffffffffffffffff021916908373ffffffffffffffffffffffffffffffffffffffff16021790555081600c60020160006101000a81548173ffffffffffffffffffffffffffffffffffffffff021916908373ffffffffffffffffffffffffffffffffffffffff16021790555080600c60040160006101000a81548173ffffffffffffffffffffffffffffffffffffffff021916908373ffffffffffffffffffffffffffffffffffffffff1602179055505050505050508173ffffffffffffffffffffffffffffffffffffffff1663a56c5a78306040518263ffffffff1660e01b81526004016200019c9190620008f0565b600060405180830381600087803b158015620001b757600080fd5b505af1158015620001cc573d6000803e3d6000fd5b505050505050505050506200090d565b600033905090565b6000600b60009054906101000a900473ffffffffffffffffffffffffffffffffffffffff16905081600b60006101000a81548173ffffffffffffffffffffffffffffffffffffffff021916908373ffffffffffffffffffffffffffffffffffffffff1602179055508173ffffffffffffffffffffffffffffffffffffffff168173ffffffffffffffffffffffffffffffffffffffff167f8be0079c531659141344cd1fd0a4f28419497f9722a3daafe3b4186f6b6457e060405160405180910390a35050565b6000604051905090565b600080fd5b600080fd5b600080fd5b600080fd5b6000601f19601f8301169050919050565b7f4e487b7100000000000000000000000000000000000000000000000000000000600052604160045260246000fd5b6200031382620002c8565b810181811067ffffffffffffffff82111715620003355762000334620002d9565b5b80604052505050565b60006200034a620002aa565b905062000358828262000308565b919050565b600067ffffffffffffffff8211156200037b576200037a620002d9565b5b6200038682620002c8565b9050602081019050919050565b60005b83811015620003b357808201518184015260208101905062000396565b60008484015250505050565b6000620003d6620003d0846200035d565b6200033e565b905082815260208101848484011115620003f557620003f4620002c3565b5b6200040284828562000393565b509392505050565b600082601f830112620004225762000421620002be565b5b815162000434848260208601620003bf565b91505092915050565b6000819050919050565b62000452816200043d565b81146200045e57600080fd5b50565b600081519050620004728162000447565b92915050565b600073ffffffffffffffffffffffffffffffffffffffff82169050919050565b6000620004a58262000478565b9050919050565b620004b78162000498565b8114620004c357600080fd5b50565b600081519050620004d781620004ac565b92915050565b60008060008060008060c08789031215620004fd57620004fc620002b4565b5b600087015167ffffffffffffffff8111156200051e576200051d620002b9565b5b6200052c89828a016200040a565b965050602087015167ffffffffffffffff81111562000550576200054f620002b9565b5b6200055e89828a016200040a565b95505060406200057189828a0162000461565b94505060606200058489828a01620004c6565b93505060806200059789828a01620004c6565b92505060a0620005aa89828a01620004c6565b9150509295509295509295565b600081519050919050565b7f4e487b7100000000000000000000000000000000000000000000000000000000600052602260045260246000fd5b600060028204905060018216806200060a57607f821691505b60208210810362000620576200061f620005c2565b5b50919050565b60008190508160005260206000209050919050565b60006020601f8301049050919050565b600082821b905092915050565b6000600883026200068a7fffffffffffffffffffffffffffffffffffffffffffffffffffffffffffffffff826200064b565b6200069686836200064b565b95508019841693508086168417925050509392505050565b6000819050919050565b6000620006d9620006d3620006cd846200043d565b620006ae565b6200043d565b9050919050565b6000819050919050565b620006f583620006b8565b6200070d6200070482620006e0565b84845462000658565b825550505050565b600090565b6200072462000715565b62000731818484620006ea565b505050565b5b8181101562000759576200074d6000826200071a565b60018101905062000737565b5050565b601f821115620007a857620007728162000626565b6200077d846200063b565b810160208510156200078d578190505b620007a56200079c856200063b565b83018262000736565b50505b505050565b600082821c905092915050565b6000620007cd60001984600802620007ad565b1980831691505092915050565b6000620007e88383620007ba565b9150826002028217905092915050565b6200080382620005b7565b67ffffffffffffffff8111156200081f576200081e620002d9565b5b6200082b8254620005f1565b620008388282856200075d565b600060209050601f8311600181146200087057600084156200085b578287015190505b620008678582620007da565b865550620008d7565b601f198416620008808662000626565b60005b82811015620008aa5784890151825560018201915060208501945060208101905062000883565b86831015620008ca5784890151620008c6601f891682620007ba565b8355505b6001600288020188555050505b505050505050565b620008ea8162000498565b82525050565b6000602082019050620009076000830184620008df565b92915050565b6153f7806200091d6000396000f3fe6080604052600436106101c25760003560e01c80635f9ff4a1116100f757806395f04d0511610095578063c87b56dd11610064578063c87b56dd14610649578063e985e9c514610686578063f23c9583146106c3578063f2fde38b146106f3576101c2565b806395f04d051461059e578063a0e12efe146105ba578063a22cb465146105f7578063b88d4fde14610620576101c2565b8063715018a6116100d1578063715018a6146104f4578063836387101461050b5780638da5cb5b1461054857806395d89b4114610573576101c2565b80635f9ff4a1146104515780636352211e1461047a57806370a08231146104b7576101c2565b806318160ddd116101645780633ccfd60b1161013e5780633ccfd60b146103a957806342842e0e146103c05780634f6ccce7146103e95780635d12928b14610426576101c2565b806318160ddd1461031857806323b872dd146103435780632f745c591461036c576101c2565b8063095ea7b3116101a0578063095ea7b31461026c5780630ef8dd951461029557806313845d2f146102c0578063162094c4146102ef576101c2565b806301ffc9a7146101c757806306fdde0314610204578063081812fc1461022f575b600080fd5b3480156101d357600080fd5b506101ee60048036038101906101e9919061342c565b61071c565b6040516101fb9190613474565b60405180910390f35b34801561021057600080fd5b5061021961072e565b604051610226919061351f565b60405180910390f35b34801561023b57600080fd5b5061025660048036038101906102519190613577565b6107c0565b60405161026391906135e5565b60405180910390f35b34801561027857600080fd5b50610293600480360381019061028e919061362c565b610845565b005b3480156102a157600080fd5b506102aa61095c565b6040516102b791906135e5565b60405180910390f35b3480156102cc57600080fd5b506102d5610989565b6040516102e695949392919061367b565b60405180910390f35b3480156102fb57600080fd5b5061031660048036038101906103119190613803565b610a2d565b005b34801561032457600080fd5b5061032d610a3b565b60405161033a919061385f565b60405180910390f35b34801561034f57600080fd5b5061036a6004803603810190610365919061387a565b610a48565b005b34801561037857600080fd5b50610393600480360381019061038e919061362c565b610aa8565b6040516103a0919061385f565b60405180910390f35b3480156103b557600080fd5b506103be610b4d565b005b3480156103cc57600080fd5b506103e760048036038101906103e2919061387a565b610c5b565b005b3480156103f557600080fd5b50610410600480360381019061040b9190613577565b610c7b565b60405161041d919061385f565b60405180910390f35b34801561043257600080fd5b5061043b610cec565b60405161044891906135e5565b60405180910390f35b34801561045d57600080fd5b50610478600480360381019061047391906139a4565b610cfc565b005b34801561048657600080fd5b506104a1600480360381019061049c9190613577565b610eb6565b6040516104ae91906135e5565b60405180910390f35b3480156104c357600080fd5b506104de60048036038101906104d99190613a69565b610f67565b6040516104eb919061385f565b60405180910390f35b34801561050057600080fd5b5061050961101e565b005b34801561051757600080fd5b50610532600480360381019061052d9190613577565b6110a6565b60405161053f91906135e5565b60405180910390f35b34801561055457600080fd5b5061055d6110b8565b60405161056a91906135e5565b60405180910390f35b34801561057f57600080fd5b506105886110e2565b604051610595919061351f565b60405180910390f35b6105b860048036038101906105b39190613a96565b611174565b005b3480156105c657600080fd5b506105e160048036038101906105dc9190613adf565b61135f565b6040516105ee9190613474565b60405180910390f35b34801561060357600080fd5b5061061e60048036038101906106199190613b83565b611415565b005b34801561062c57600080fd5b5061064760048036038101906106429190613bc3565b61142b565b005b34801561065557600080fd5b50610670600480360381019061066b9190613577565b61148d565b60405161067d919061351f565b60405180910390f35b34801561069257600080fd5b506106ad60048036038101906106a89190613c46565b61149f565b6040516106ba9190613474565b60405180910390f35b6106dd60048036038101906106d89190613c86565b611533565b6040516106ea91906135e5565b60405180910390f35b3480156106ff57600080fd5b5061071a60048036038101906107159190613a69565b611bc9565b005b600061072782611cc0565b9050919050565b60606000805461073d90613d54565b80601f016020809104026020016040519081016040528092919081815260200182805461076990613d54565b80156107b65780601f1061078b576101008083540402835291602001916107b6565b820191906000526020600020905b81548152906001019060200180831161079957829003601f168201915b5050505050905090565b60006107cb82611d3a565b61080a576040517f08c379a000000000000000000000000000000000000000000000000000000000815260040161080190613df7565b60405180910390fd5b6004600083815260200190815260200160002060009054906101000a900473ffffffffffffffffffffffffffffffffffffffff169050919050565b600061085082610eb6565b90508073ffffffffffffffffffffffffffffffffffffffff168373ffffffffffffffffffffffffffffffffffffffff16036108c0576040517f08c379a00000000000000000000000000000000000000000000000000000000081526004016108b790613e89565b60405180910390fd5b8073ffffffffffffffffffffffffffffffffffffffff166108df611da6565b73ffffffffffffffffffffffffffffffffffffffff16148061090e575061090d81610908611da6565b61149f565b5b61094d576040517f08c379a000000000000000000000000000000000000000000000000000000000815260040161094490613f1b565b60405180910390fd5b6109578383611dae565b505050565b6000600c60030160009054906101000a900473ffffffffffffffffffffffffffffffffffffffff16905090565b600c8060000154908060010160009054906101000a900473ffffffffffffffffffffffffffffffffffffffff16908060020160009054906101000a900473ffffffffffffffffffffffffffffffffffffffff16908060030160009054906101000a900473ffffffffffffffffffffffffffffffffffffffff16908060040160009054906101000a900473ffffffffffffffffffffffffffffffffffffffff16905085565b610a378282611e67565b5050565b6000600880549050905090565b610a59610a53611da6565b82611ed4565b610a98576040517f08c379a0000000000000000000000000000000000000000000000000000000008152600401610a8f90613fad565b60405180910390fd5b610aa3838383611fb2565b505050565b6000610ab383610f67565b8210610af4576040517f08c379a0000000000000000000000000000000000000000000000000000000008152600401610aeb9061403f565b60405180910390fd5b600660008473ffffffffffffffffffffffffffffffffffffffff1673ffffffffffffffffffffffffffffffffffffffff168152602001908152602001600020600083815260200190815260200160002054905092915050565b610b55611da6565b73ffffffffffffffffffffffffffffffffffffffff16610b736110b8565b73ffffffffffffffffffffffffffffffffffffffff1614610bc9576040517f08c379a0000000000000000000000000000000000000000000000000000000008152600401610bc0906140ab565b60405180910390fd5b600047905060004711610c11576040517f08c379a0000000000000000000000000000000000000000000000000000000008152600401610c0890614117565b60405180910390fd5b3373ffffffffffffffffffffffffffffffffffffffff166108fc829081150290604051600060405180830381858888f19350505050158015610c57573d6000803e3d6000fd5b5050565b610c768383836040518060200160405280600081525061142b565b505050565b6000610c85610a3b565b8210610cc6576040517f08c379a0000000000000000000000000000000000000000000000000000000008152600401610cbd906141a9565b60405180910390fd5b60088281548110610cda57610cd96141c9565b5b90600052602060002001549050919050565b6000610cf730612218565b905090565b610d0586610eb6565b73ffffffffffffffffffffffffffffffffffffffff163373ffffffffffffffffffffffffffffffffffffffff1614610d72576040517f08c379a0000000000000000000000000000000000000000000000000000000008152600401610d6990614244565b60405180910390fd5b600c60020160009054906101000a900473ffffffffffffffffffffffffffffffffffffffff1673ffffffffffffffffffffffffffffffffffffffff166303f5de9d878686896040518563ffffffff1660e01b8152600401610dd69493929190614273565b6020604051808303816000875af1158015610df5573d6000803e3d6000fd5b505050506040513d601f19601f82011682018060405250810190610e1991906142cd565b50600c60030160009054906101000a900473ffffffffffffffffffffffffffffffffffffffff1673ffffffffffffffffffffffffffffffffffffffff1663bd6af0098784846040518463ffffffff1660e01b8152600401610e7c9392919061434f565b600060405180830381600087803b158015610e9657600080fd5b505af1158015610eaa573d6000803e3d6000fd5b50505050505050505050565b6000806002600084815260200190815260200160002060009054906101000a900473ffffffffffffffffffffffffffffffffffffffff169050600073ffffffffffffffffffffffffffffffffffffffff168173ffffffffffffffffffffffffffffffffffffffff1603610f5e576040517f08c379a0000000000000000000000000000000000000000000000000000000008152600401610f5590614406565b60405180910390fd5b80915050919050565b60008073ffffffffffffffffffffffffffffffffffffffff168273ffffffffffffffffffffffffffffffffffffffff1603610fd7576040517f08c379a0000000000000000000000000000000000000000000000000000000008152600401610fce90614498565b60405180910390fd5b600360008373ffffffffffffffffffffffffffffffffffffffff1673ffffffffffffffffffffffffffffffffffffffff168152602001908152602001600020549050919050565b611026611da6565b73ffffffffffffffffffffffffffffffffffffffff166110446110b8565b73ffffffffffffffffffffffffffffffffffffffff161461109a576040517f08c379a0000000000000000000000000000000000000000000000000000000008152600401611091906140ab565b60405180910390fd5b6110a4600061234f565b565b60006110b182610eb6565b9050919050565b6000600b60009054906101000a900473ffffffffffffffffffffffffffffffffffffffff16905090565b6060600180546110f190613d54565b80601f016020809104026020016040519081016040528092919081815260200182805461111d90613d54565b801561116a5780601f1061113f5761010080835404028352916020019161116a565b820191906000526020600020905b81548152906001019060200180831161114d57829003601f168201915b5050505050905090565b600061117e610a3b565b9050600c6000015481106111c7576040517f08c379a00000000000000000000000000000000000000000000000000000000081526004016111be9061452a565b60405180910390fd5b6000600c60020160009054906101000a900473ffffffffffffffffffffffffffffffffffffffff1673ffffffffffffffffffffffffffffffffffffffff166398d5fdca6040518163ffffffff1660e01b8152600401602060405180830381865afa158015611239573d6000803e3d6000fd5b505050506040513d601f19601f8201168201806040525081019061125d919061455f565b9050803410156112a2576040517f08c379a0000000000000000000000000000000000000000000000000000000008152600401611299906145d8565b60405180910390fd5b6112ac3383612415565b6112b68284611e67565b600c60020160009054906101000a900473ffffffffffffffffffffffffffffffffffffffff1673ffffffffffffffffffffffffffffffffffffffff16631c85949c33846040518363ffffffff1660e01b81526004016113169291906145f8565b6020604051808303816000875af1158015611335573d6000803e3d6000fd5b505050506040513d601f19601f8201168201806040525081019061135991906142cd565b50505050565b60008061136a610a3b565b90506113763382612415565b600c60030160009054906101000a900473ffffffffffffffffffffffffffffffffffffffff1673ffffffffffffffffffffffffffffffffffffffff1663bd6af0098286866040518463ffffffff1660e01b81526004016113d89392919061434f565b600060405180830381600087803b1580156113f257600080fd5b505af1158015611406573d6000803e3d6000fd5b50505050600191505092915050565b611427611420611da6565b8383612433565b5050565b61143c611436611da6565b83611ed4565b61147b576040517f08c379a000000000000000000000000000000000000000000000000000000000815260040161147290613fad565b60405180910390fd5b6114878484848461259f565b50505050565b6060611498826125fb565b9050919050565b6000600560008473ffffffffffffffffffffffffffffffffffffffff1673ffffffffffffffffffffffffffffffffffffffff16815260200190815260200160002060008373ffffffffffffffffffffffffffffffffffffffff1673ffffffffffffffffffffffffffffffffffffffff16815260200190815260200160002060009054906101000a900460ff16905092915050565b600061153e85610eb6565b73ffffffffffffffffffffffffffffffffffffffff163373ffffffffffffffffffffffffffffffffffffffff16146115ab576040517f08c379a00000000000000000000000000000000000000000000000000000000081526004016115a290614244565b60405180910390fd5b600c600001546115b9610a3b565b10156115fa576040517f08c379a00000000000000000000000000000000000000000000000000000000081526004016115f19061466d565b60405180910390fd5b6000600c60020160009054906101000a900473ffffffffffffffffffffffffffffffffffffffff1673ffffffffffffffffffffffffffffffffffffffff1663bb5833af876040518263ffffffff1660e01b815260040161165a919061385f565b602060405180830381865afa158015611677573d6000803e3d6000fd5b505050506040513d601f19601f8201168201806040525081019061169b919061455f565b9050803410156116e0576040517f08c379a00000000000000000000000000000000000000000000000000000000081526004016116d7906145d8565b60405180910390fd5b6000600c60020160009054906101000a900473ffffffffffffffffffffffffffffffffffffffff1673ffffffffffffffffffffffffffffffffffffffff16638ed3df0f886040518263ffffffff1660e01b8152600401611740919061385f565b602060405180830381865afa15801561175d573d6000803e3d6000fd5b505050506040513d601f19601f82011682018060405250810190611781919061455f565b90506000600c60020160009054906101000a900473ffffffffffffffffffffffffffffffffffffffff1673ffffffffffffffffffffffffffffffffffffffff16635fc4b363896040518263ffffffff1660e01b81526004016117e3919061385f565b602060405180830381865afa158015611800573d6000803e3d6000fd5b505050506040513d601f19601f82011682018060405250810190611824919061455f565b905081811015611869576040517f08c379a0000000000000000000000000000000000000000000000000000000008152600401611860906146d9565b60405180910390fd5b600c60020160009054906101000a900473ffffffffffffffffffffffffffffffffffffffff1673ffffffffffffffffffffffffffffffffffffffff1663f3d8c7a733600c60020160009054906101000a900473ffffffffffffffffffffffffffffffffffffffff16856040518463ffffffff1660e01b81526004016118f0939291906146f9565b6020604051808303816000875af115801561190f573d6000803e3d6000fd5b505050506040513d601f19601f8201168201806040525081019061193391906142cd565b50600c60020160009054906101000a900473ffffffffffffffffffffffffffffffffffffffff1673ffffffffffffffffffffffffffffffffffffffff1663ff2cb34733846040518363ffffffff1660e01b81526004016119949291906145f8565b6020604051808303816000875af11580156119b3573d6000803e3d6000fd5b505050506040513d601f19601f820116820180604052508101906119d7919061455f565b50600c60020160009054906101000a900473ffffffffffffffffffffffffffffffffffffffff1673ffffffffffffffffffffffffffffffffffffffff1663fe774f9d89896040518363ffffffff1660e01b8152600401611a38929190614730565b6020604051808303816000875af1158015611a57573d6000803e3d6000fd5b505050506040513d601f19601f82011682018060405250810190611a7b919061476e565b935060008473ffffffffffffffffffffffffffffffffffffffff1634604051611aa3906147cc565b60006040518083038185875af1925050503d8060008114611ae0576040519150601f19603f3d011682016040523d82523d6000602084013e611ae5565b606091505b5050905080611b29576040517f08c379a0000000000000000000000000000000000000000000000000000000008152600401611b209061482d565b60405180910390fd5b600c60030160009054906101000a900473ffffffffffffffffffffffffffffffffffffffff1673ffffffffffffffffffffffffffffffffffffffff1663bd6af0098a89896040518463ffffffff1660e01b8152600401611b8b9392919061434f565b600060405180830381600087803b158015611ba557600080fd5b505af1158015611bb9573d6000803e3d6000fd5b5050505050505050949350505050565b611bd1611da6565b73ffffffffffffffffffffffffffffffffffffffff16611bef6110b8565b73ffffffffffffffffffffffffffffffffffffffff1614611c45576040517f08c379a0000000000000000000000000000000000000000000000000000000008152600401611c3c906140ab565b60405180910390fd5b600073ffffffffffffffffffffffffffffffffffffffff168173ffffffffffffffffffffffffffffffffffffffff1603611cb4576040517f08c379a0000000000000000000000000000000000000000000000000000000008152600401611cab906148bf565b60405180910390fd5b611cbd8161234f565b50565b60007f780e9d63000000000000000000000000000000000000000000000000000000007bffffffffffffffffffffffffffffffffffffffffffffffffffffffff1916827bffffffffffffffffffffffffffffffffffffffffffffffffffffffff19161480611d335750611d328261274c565b5b9050919050565b60008073ffffffffffffffffffffffffffffffffffffffff166002600084815260200190815260200160002060009054906101000a900473ffffffffffffffffffffffffffffffffffffffff1673ffffffffffffffffffffffffffffffffffffffff1614159050919050565b600033905090565b816004600083815260200190815260200160002060006101000a81548173ffffffffffffffffffffffffffffffffffffffff021916908373ffffffffffffffffffffffffffffffffffffffff160217905550808273ffffffffffffffffffffffffffffffffffffffff16611e2183610eb6565b73ffffffffffffffffffffffffffffffffffffffff167f8c5be1e5ebec7d5bd14f71427d1e84f3dd0314c0f7b2291e5b200ac8c7c3b92560405160405180910390a45050565b611e7082611d3a565b611eaf576040517f08c379a0000000000000000000000000000000000000000000000000000000008152600401611ea690614951565b60405180910390fd5b80600a60008481526020019081526020016000209081611ecf9190614b1d565b505050565b6000611edf82611d3a565b611f1e576040517f08c379a0000000000000000000000000000000000000000000000000000000008152600401611f1590614c61565b60405180910390fd5b6000611f2983610eb6565b90508073ffffffffffffffffffffffffffffffffffffffff168473ffffffffffffffffffffffffffffffffffffffff161480611f6b5750611f6a818561149f565b5b80611fa957508373ffffffffffffffffffffffffffffffffffffffff16611f91846107c0565b73ffffffffffffffffffffffffffffffffffffffff16145b91505092915050565b8273ffffffffffffffffffffffffffffffffffffffff16611fd282610eb6565b73ffffffffffffffffffffffffffffffffffffffff1614612028576040517f08c379a000000000000000000000000000000000000000000000000000000000815260040161201f90614cf3565b60405180910390fd5b600073ffffffffffffffffffffffffffffffffffffffff168273ffffffffffffffffffffffffffffffffffffffff1603612097576040517f08c379a000000000000000000000000000000000000000000000000000000000815260040161208e90614d85565b60405180910390fd5b6120a283838361282e565b6120ad600082611dae565b6001600360008573ffffffffffffffffffffffffffffffffffffffff1673ffffffffffffffffffffffffffffffffffffffff16815260200190815260200160002060008282546120fd9190614dd4565b925050819055506001600360008473ffffffffffffffffffffffffffffffffffffffff1673ffffffffffffffffffffffffffffffffffffffff16815260200190815260200160002060008282546121549190614e08565b92505081905550816002600083815260200190815260200160002060006101000a81548173ffffffffffffffffffffffffffffffffffffffff021916908373ffffffffffffffffffffffffffffffffffffffff160217905550808273ffffffffffffffffffffffffffffffffffffffff168473ffffffffffffffffffffffffffffffffffffffff167fddf252ad1be2c89b69c2b068fc378daa952ba7f163c4a11628f55a4df523b3ef60405160405180910390a461221383838361283e565b505050565b600080612249600c60040160009054906101000a900473ffffffffffffffffffffffffffffffffffffffff16612843565b90508073ffffffffffffffffffffffffffffffffffffffff1663485cc955600c60010160009054906101000a900473ffffffffffffffffffffffffffffffffffffffff16856040518363ffffffff1660e01b81526004016122ab929190614e3c565b600060405180830381600087803b1580156122c557600080fd5b505af11580156122d9573d6000803e3d6000fd5b5050505080600c60030160006101000a81548173ffffffffffffffffffffffffffffffffffffffff021916908373ffffffffffffffffffffffffffffffffffffffff160217905550600c60030160009054906101000a900473ffffffffffffffffffffffffffffffffffffffff16915050919050565b6000600b60009054906101000a900473ffffffffffffffffffffffffffffffffffffffff16905081600b60006101000a81548173ffffffffffffffffffffffffffffffffffffffff021916908373ffffffffffffffffffffffffffffffffffffffff1602179055508173ffffffffffffffffffffffffffffffffffffffff168173ffffffffffffffffffffffffffffffffffffffff167f8be0079c531659141344cd1fd0a4f28419497f9722a3daafe3b4186f6b6457e060405160405180910390a35050565b61242f828260405180602001604052806000815250612917565b5050565b8173ffffffffffffffffffffffffffffffffffffffff168373ffffffffffffffffffffffffffffffffffffffff16036124a1576040517f08c379a000000000000000000000000000000000000000000000000000000000815260040161249890614eb1565b60405180910390fd5b80600560008573ffffffffffffffffffffffffffffffffffffffff1673ffffffffffffffffffffffffffffffffffffffff16815260200190815260200160002060008473ffffffffffffffffffffffffffffffffffffffff1673ffffffffffffffffffffffffffffffffffffffff16815260200190815260200160002060006101000a81548160ff0219169083151502179055508173ffffffffffffffffffffffffffffffffffffffff168373ffffffffffffffffffffffffffffffffffffffff167f17307eab39ab6107e8899845ad3d59bd9653f200f220920489ca2b5937696c31836040516125929190613474565b60405180910390a3505050565b6125aa848484611fb2565b6125b684848484612972565b6125f5576040517f08c379a00000000000000000000000000000000000000000000000000000000081526004016125ec90614f43565b60405180910390fd5b50505050565b606061260682611d3a565b612645576040517f08c379a000000000000000000000000000000000000000000000000000000000815260040161263c90614fd5565b60405180910390fd5b6000600a6000848152602001908152602001600020805461266590613d54565b80601f016020809104026020016040519081016040528092919081815260200182805461269190613d54565b80156126de5780601f106126b3576101008083540402835291602001916126de565b820191906000526020600020905b8154815290600101906020018083116126c157829003601f168201915b5050505050905060006126ef612af9565b90506000815103612704578192505050612747565b600082511115612739578082604051602001612721929190615031565b60405160208183030381529060405292505050612747565b61274284612b36565b925050505b919050565b60007f80ac58cd000000000000000000000000000000000000000000000000000000007bffffffffffffffffffffffffffffffffffffffffffffffffffffffff1916827bffffffffffffffffffffffffffffffffffffffffffffffffffffffff1916148061281757507f5b5e139f000000000000000000000000000000000000000000000000000000007bffffffffffffffffffffffffffffffffffffffffffffffffffffffff1916827bffffffffffffffffffffffffffffffffffffffffffffffffffffffff1916145b80612827575061282682612bdd565b5b9050919050565b612839838383612c47565b505050565b505050565b60006040517f3d602d80600a3d3981f3363d3d373d3d3d363d7300000000000000000000000081528260601b60148201527f5af43d82803e903d91602b57fd5bf3000000000000000000000000000000000060288201526037816000f0915050600073ffffffffffffffffffffffffffffffffffffffff168173ffffffffffffffffffffffffffffffffffffffff1603612912576040517f08c379a0000000000000000000000000000000000000000000000000000000008152600401612909906150a1565b60405180910390fd5b919050565b6129218383612d59565b61292e6000848484612972565b61296d576040517f08c379a000000000000000000000000000000000000000000000000000000000815260040161296490614f43565b60405180910390fd5b505050565b60006129938473ffffffffffffffffffffffffffffffffffffffff16612f32565b15612aec578373ffffffffffffffffffffffffffffffffffffffff1663150b7a026129bc611da6565b8786866040518563ffffffff1660e01b81526004016129de94939291906150c1565b6020604051808303816000875af1925050508015612a1a57506040513d601f19601f82011682018060405250810190612a179190615122565b60015b612a9c573d8060008114612a4a576040519150601f19603f3d011682016040523d82523d6000602084013e612a4f565b606091505b506000815103612a94576040517f08c379a0000000000000000000000000000000000000000000000000000000008152600401612a8b90614f43565b60405180910390fd5b805181602001fd5b63150b7a0260e01b7bffffffffffffffffffffffffffffffffffffffffffffffffffffffff1916817bffffffffffffffffffffffffffffffffffffffffffffffffffffffff191614915050612af1565b600190505b949350505050565b60606040518060400160405280601581526020017f68747470733a2f2f697066732e696f2f697066732f0000000000000000000000815250905090565b6060612b4182611d3a565b612b80576040517f08c379a0000000000000000000000000000000000000000000000000000000008152600401612b77906151c1565b60405180910390fd5b6000612b8a612af9565b90506000815111612baa5760405180602001604052806000815250612bd5565b80612bb484612f55565b604051602001612bc5929190615031565b6040516020818303038152906040525b915050919050565b60007f01ffc9a7000000000000000000000000000000000000000000000000000000007bffffffffffffffffffffffffffffffffffffffffffffffffffffffff1916827bffffffffffffffffffffffffffffffffffffffffffffffffffffffff1916149050919050565b612c528383836130b5565b600073ffffffffffffffffffffffffffffffffffffffff168373ffffffffffffffffffffffffffffffffffffffff1603612c9457612c8f816130ba565b612cd3565b8173ffffffffffffffffffffffffffffffffffffffff168373ffffffffffffffffffffffffffffffffffffffff1614612cd257612cd18382613103565b5b5b600073ffffffffffffffffffffffffffffffffffffffff168273ffffffffffffffffffffffffffffffffffffffff1603612d1557612d1081613270565b612d54565b8273ffffffffffffffffffffffffffffffffffffffff168273ffffffffffffffffffffffffffffffffffffffff1614612d5357612d528282613341565b5b5b505050565b600073ffffffffffffffffffffffffffffffffffffffff168273ffffffffffffffffffffffffffffffffffffffff1603612dc8576040517f08c379a0000000000000000000000000000000000000000000000000000000008152600401612dbf9061522d565b60405180910390fd5b612dd181611d3a565b15612e11576040517f08c379a0000000000000000000000000000000000000000000000000000000008152600401612e0890615299565b60405180910390fd5b612e1d6000838361282e565b6001600360008473ffffffffffffffffffffffffffffffffffffffff1673ffffffffffffffffffffffffffffffffffffffff1681526020019081526020016000206000828254612e6d9190614e08565b92505081905550816002600083815260200190815260200160002060006101000a81548173ffffffffffffffffffffffffffffffffffffffff021916908373ffffffffffffffffffffffffffffffffffffffff160217905550808273ffffffffffffffffffffffffffffffffffffffff16600073ffffffffffffffffffffffffffffffffffffffff167fddf252ad1be2c89b69c2b068fc378daa952ba7f163c4a11628f55a4df523b3ef60405160405180910390a4612f2e6000838361283e565b5050565b6000808273ffffffffffffffffffffffffffffffffffffffff163b119050919050565b606060008203612f9c576040518060400160405280600181526020017f300000000000000000000000000000000000000000000000000000000000000081525090506130b0565b600082905060005b60008214612fce578080612fb7906152b9565b915050600a82612fc79190615330565b9150612fa4565b60008167ffffffffffffffff811115612fea57612fe96136d8565b5b6040519080825280601f01601f19166020018201604052801561301c5781602001600182028036833780820191505090505b5090505b600085146130a9576001826130359190614dd4565b9150600a856130449190615361565b60306130509190614e08565b60f81b818381518110613066576130656141c9565b5b60200101907effffffffffffffffffffffffffffffffffffffffffffffffffffffffffffff1916908160001a905350600a856130a29190615330565b9450613020565b8093505050505b919050565b505050565b6008805490506009600083815260200190815260200160002081905550600881908060018154018082558091505060019003906000526020600020016000909190919091505550565b6000600161311084610f67565b61311a9190614dd4565b90506000600760008481526020019081526020016000205490508181146131ff576000600660008673ffffffffffffffffffffffffffffffffffffffff1673ffffffffffffffffffffffffffffffffffffffff168152602001908152602001600020600084815260200190815260200160002054905080600660008773ffffffffffffffffffffffffffffffffffffffff1673ffffffffffffffffffffffffffffffffffffffff168152602001908152602001600020600084815260200190815260200160002081905550816007600083815260200190815260200160002081905550505b6007600084815260200190815260200160002060009055600660008573ffffffffffffffffffffffffffffffffffffffff1673ffffffffffffffffffffffffffffffffffffffff16815260200190815260200160002060008381526020019081526020016000206000905550505050565b600060016008805490506132849190614dd4565b90506000600960008481526020019081526020016000205490506000600883815481106132b4576132b36141c9565b5b9060005260206000200154905080600883815481106132d6576132d56141c9565b5b90600052602060002001819055508160096000838152602001908152602001600020819055506009600085815260200190815260200160002060009055600880548061332557613324615392565b5b6001900381819060005260206000200160009055905550505050565b600061334c83610f67565b905081600660008573ffffffffffffffffffffffffffffffffffffffff1673ffffffffffffffffffffffffffffffffffffffff168152602001908152602001600020600083815260200190815260200160002081905550806007600084815260200190815260200160002081905550505050565b6000604051905090565b600080fd5b600080fd5b60007fffffffff0000000000000000000000000000000000000000000000000000000082169050919050565b613409816133d4565b811461341457600080fd5b50565b60008135905061342681613400565b92915050565b600060208284031215613442576134416133ca565b5b600061345084828501613417565b91505092915050565b60008115159050919050565b61346e81613459565b82525050565b60006020820190506134896000830184613465565b92915050565b600081519050919050565b600082825260208201905092915050565b60005b838110156134c95780820151818401526020810190506134ae565b60008484015250505050565b6000601f19601f8301169050919050565b60006134f18261348f565b6134fb818561349a565b935061350b8185602086016134ab565b613514816134d5565b840191505092915050565b6000602082019050818103600083015261353981846134e6565b905092915050565b6000819050919050565b61355481613541565b811461355f57600080fd5b50565b6000813590506135718161354b565b92915050565b60006020828403121561358d5761358c6133ca565b5b600061359b84828501613562565b91505092915050565b600073ffffffffffffffffffffffffffffffffffffffff82169050919050565b60006135cf826135a4565b9050919050565b6135df816135c4565b82525050565b60006020820190506135fa60008301846135d6565b92915050565b613609816135c4565b811461361457600080fd5b50565b60008135905061362681613600565b92915050565b60008060408385031215613643576136426133ca565b5b600061365185828601613617565b925050602061366285828601613562565b9150509250929050565b61367581613541565b82525050565b600060a082019050613690600083018861366c565b61369d60208301876135d6565b6136aa60408301866135d6565b6136b760608301856135d6565b6136c460808301846135d6565b9695505050505050565b600080fd5b600080fd5b7f4e487b7100000000000000000000000000000000000000000000000000000000600052604160045260246000fd5b613710826134d5565b810181811067ffffffffffffffff8211171561372f5761372e6136d8565b5b80604052505050565b60006137426133c0565b905061374e8282613707565b919050565b600067ffffffffffffffff82111561376e5761376d6136d8565b5b613777826134d5565b9050602081019050919050565b82818337600083830152505050565b60006137a66137a184613753565b613738565b9050828152602081018484840111156137c2576137c16136d3565b5b6137cd848285613784565b509392505050565b600082601f8301126137ea576137e96136ce565b5b81356137fa848260208601613793565b91505092915050565b6000806040838503121561381a576138196133ca565b5b600061382885828601613562565b925050602083013567ffffffffffffffff811115613849576138486133cf565b5b613855858286016137d5565b9150509250929050565b6000602082019050613874600083018461366c565b92915050565b600080600060608486031215613893576138926133ca565b5b60006138a186828701613617565b93505060206138b286828701613617565b92505060406138c386828701613562565b9150509250925092565b6000819050919050565b6138e0816138cd565b81146138eb57600080fd5b50565b6000813590506138fd816138d7565b92915050565b600067ffffffffffffffff82111561391e5761391d6136d8565b5b613927826134d5565b9050602081019050919050565b600061394761394284613903565b613738565b905082815260208101848484011115613963576139626136d3565b5b61396e848285613784565b509392505050565b600082601f83011261398b5761398a6136ce565b5b813561399b848260208601613934565b91505092915050565b60008060008060008060c087890312156139c1576139c06133ca565b5b60006139cf89828a01613562565b96505060206139e089828a016138ee565b95505060406139f189828a01613562565b9450506060613a0289828a01613562565b935050608087013567ffffffffffffffff811115613a2357613a226133cf565b5b613a2f89828a016137d5565b92505060a087013567ffffffffffffffff811115613a5057613a4f6133cf565b5b613a5c89828a01613976565b9150509295509295509295565b600060208284031215613a7f57613a7e6133ca565b5b6000613a8d84828501613617565b91505092915050565b600060208284031215613aac57613aab6133ca565b5b600082013567ffffffffffffffff811115613aca57613ac96133cf565b5b613ad6848285016137d5565b91505092915050565b60008060408385031215613af657613af56133ca565b5b600083013567ffffffffffffffff811115613b1457613b136133cf565b5b613b20858286016137d5565b925050602083013567ffffffffffffffff811115613b4157613b406133cf565b5b613b4d85828601613976565b9150509250929050565b613b6081613459565b8114613b6b57600080fd5b50565b600081359050613b7d81613b57565b92915050565b60008060408385031215613b9a57613b996133ca565b5b6000613ba885828601613617565b9250506020613bb985828601613b6e565b9150509250929050565b60008060008060808587031215613bdd57613bdc6133ca565b5b6000613beb87828801613617565b9450506020613bfc87828801613617565b9350506040613c0d87828801613562565b925050606085013567ffffffffffffffff811115613c2e57613c2d6133cf565b5b613c3a87828801613976565b91505092959194509250565b60008060408385031215613c5d57613c5c6133ca565b5b6000613c6b85828601613617565b9250506020613c7c85828601613617565b9150509250929050565b60008060008060808587031215613ca057613c9f6133ca565b5b6000613cae87828801613562565b9450506020613cbf878288016138ee565b935050604085013567ffffffffffffffff811115613ce057613cdf6133cf565b5b613cec878288016137d5565b925050606085013567ffffffffffffffff811115613d0d57613d0c6133cf565b5b613d1987828801613976565b91505092959194509250565b7f4e487b7100000000000000000000000000000000000000000000000000000000600052602260045260246000fd5b60006002820490506001821680613d6c57607f821691505b602082108103613d7f57613d7e613d25565b5b50919050565b7f4552433732313a20617070726f76656420717565727920666f72206e6f6e657860008201527f697374656e7420746f6b656e0000000000000000000000000000000000000000602082015250565b6000613de1602c8361349a565b9150613dec82613d85565b604082019050919050565b60006020820190508181036000830152613e1081613dd4565b9050919050565b7f4552433732313a20617070726f76616c20746f2063757272656e74206f776e6560008201527f7200000000000000000000000000000000000000000000000000000000000000602082015250565b6000613e7360218361349a565b9150613e7e82613e17565b604082019050919050565b60006020820190508181036000830152613ea281613e66565b9050919050565b7f4552433732313a20617070726f76652063616c6c6572206973206e6f74206f7760008201527f6e6572206e6f7220617070726f76656420666f7220616c6c0000000000000000602082015250565b6000613f0560388361349a565b9150613f1082613ea9565b604082019050919050565b60006020820190508181036000830152613f3481613ef8565b9050919050565b7f4552433732313a207472616e736665722063616c6c6572206973206e6f74206f60008201527f776e6572206e6f7220617070726f766564000000000000000000000000000000602082015250565b6000613f9760318361349a565b9150613fa282613f3b565b604082019050919050565b60006020820190508181036000830152613fc681613f8a565b9050919050565b7f455243373231456e756d657261626c653a206f776e657220696e646578206f7560008201527f74206f6620626f756e6473000000000000000000000000000000000000000000602082015250565b6000614029602b8361349a565b915061403482613fcd565b604082019050919050565b600060208201905081810360008301526140588161401c565b9050919050565b7f4f776e61626c653a2063616c6c6572206973206e6f7420746865206f776e6572600082015250565b600061409560208361349a565b91506140a08261405f565b602082019050919050565b600060208201905081810360008301526140c481614088565b9050919050565b7f4e6f2062616c616e636520746f20776974686472617700000000000000000000600082015250565b600061410160168361349a565b915061410c826140cb565b602082019050919050565b60006020820190508181036000830152614130816140f4565b9050919050565b7f455243373231456e756d657261626c653a20676c6f62616c20696e646578206f60008201527f7574206f6620626f756e64730000000000000000000000000000000000000000602082015250565b6000614193602c8361349a565b915061419e82614137565b604082019050919050565b600060208201905081810360008301526141c281614186565b9050919050565b7f4e487b7100000000000000000000000000000000000000000000000000000000600052603260045260246000fd5b7f43616c6c6572206973206e6f74206f776e6572206f66206e7574000000000000600082015250565b600061422e601a8361349a565b9150614239826141f8565b602082019050919050565b6000602082019050818103600083015261425d81614221565b9050919050565b61426d816138cd565b82525050565b6000608082019050614288600083018761366c565b614295602083018661366c565b6142a2604083018561366c565b6142af6060830184614264565b95945050505050565b6000815190506142c781613b57565b92915050565b6000602082840312156142e3576142e26133ca565b5b60006142f1848285016142b8565b91505092915050565b600081519050919050565b600082825260208201905092915050565b6000614321826142fa565b61432b8185614305565b935061433b8185602086016134ab565b614344816134d5565b840191505092915050565b6000606082019050614364600083018661366c565b818103602083015261437681856134e6565b9050818103604083015261438a8184614316565b9050949350505050565b7f4552433732313a206f776e657220717565727920666f72206e6f6e657869737460008201527f656e7420746f6b656e0000000000000000000000000000000000000000000000602082015250565b60006143f060298361349a565b91506143fb82614394565b604082019050919050565b6000602082019050818103600083015261441f816143e3565b9050919050565b7f4552433732313a2062616c616e636520717565727920666f7220746865207a6560008201527f726f206164647265737300000000000000000000000000000000000000000000602082015250565b6000614482602a8361349a565b915061448d82614426565b604082019050919050565b600060208201905081810360008301526144b181614475565b9050919050565b7f496e697469616c20737570706c79206f66206e757473206973206465706c657460008201527f6564000000000000000000000000000000000000000000000000000000000000602082015250565b600061451460228361349a565b915061451f826144b8565b604082019050919050565b6000602082019050818103600083015261454381614507565b9050919050565b6000815190506145598161354b565b92915050565b600060208284031215614575576145746133ca565b5b60006145838482850161454a565b91505092915050565b7f45746865722076616c7565206973206e6f7420656e6f75676800000000000000600082015250565b60006145c260198361349a565b91506145cd8261458c565b602082019050919050565b600060208201905081810360008301526145f1816145b5565b9050919050565b600060408201905061460d60008301856135d6565b61461a602083018461366c565b9392505050565b7f4e757473207374696c6c2065786973742066726f6d206372656174696f6e0000600082015250565b6000614657601e8361349a565b915061466282614621565b602082019050919050565b600060208201905081810360008301526146868161464a565b9050919050565b7f4d61747465722062616c616e6365206973206e6f7420656e6f75676800000000600082015250565b60006146c3601c8361349a565b91506146ce8261468d565b602082019050919050565b600060208201905081810360008301526146f2816146b6565b9050919050565b600060608201905061470e60008301866135d6565b61471b60208301856135d6565b614728604083018461366c565b949350505050565b6000604082019050614745600083018561366c565b6147526020830184614264565b9392505050565b60008151905061476881613600565b92915050565b600060208284031215614784576147836133ca565b5b600061479284828501614759565b91505092915050565b600081905092915050565b50565b60006147b660008361479b565b91506147c1826147a6565b600082019050919050565b60006147d7826147a9565b9150819050919050565b7f4574686572206e6f742073656e7420746f207365656400000000000000000000600082015250565b600061481760168361349a565b9150614822826147e1565b602082019050919050565b600060208201905081810360008301526148468161480a565b9050919050565b7f4f776e61626c653a206e6577206f776e657220697320746865207a65726f206160008201527f6464726573730000000000000000000000000000000000000000000000000000602082015250565b60006148a960268361349a565b91506148b48261484d565b604082019050919050565b600060208201905081810360008301526148d88161489c565b9050919050565b7f45524337323155524953746f726167653a2055524920736574206f66206e6f6e60008201527f6578697374656e7420746f6b656e000000000000000000000000000000000000602082015250565b600061493b602e8361349a565b9150614946826148df565b604082019050919050565b6000602082019050818103600083015261496a8161492e565b9050919050565b60008190508160005260206000209050919050565b60006020601f8301049050919050565b600082821b905092915050565b6000600883026149d37fffffffffffffffffffffffffffffffffffffffffffffffffffffffffffffffff82614996565b6149dd8683614996565b95508019841693508086168417925050509392505050565b6000819050919050565b6000614a1a614a15614a1084613541565b6149f5565b613541565b9050919050565b6000819050919050565b614a34836149ff565b614a48614a4082614a21565b8484546149a3565b825550505050565b600090565b614a5d614a50565b614a68818484614a2b565b505050565b5b81811015614a8c57614a81600082614a55565b600181019050614a6e565b5050565b601f821115614ad157614aa281614971565b614aab84614986565b81016020851015614aba578190505b614ace614ac685614986565b830182614a6d565b50505b505050565b600082821c905092915050565b6000614af460001984600802614ad6565b1980831691505092915050565b6000614b0d8383614ae3565b9150826002028217905092915050565b614b268261348f565b67ffffffffffffffff811115614b3f57614b3e6136d8565b5b614b498254613d54565b614b54828285614a90565b600060209050601f831160018114614b875760008415614b75578287015190505b614b7f8582614b01565b865550614be7565b601f198416614b9586614971565b60005b82811015614bbd57848901518255600182019150602085019450602081019050614b98565b86831015614bda5784890151614bd6601f891682614ae3565b8355505b6001600288020188555050505b505050505050565b7f4552433732313a206f70657261746f7220717565727920666f72206e6f6e657860008201527f697374656e7420746f6b656e0000000000000000000000000000000000000000602082015250565b6000614c4b602c8361349a565b9150614c5682614bef565b604082019050919050565b60006020820190508181036000830152614c7a81614c3e565b9050919050565b7f4552433732313a207472616e736665722066726f6d20696e636f72726563742060008201527f6f776e6572000000000000000000000000000000000000000000000000000000602082015250565b6000614cdd60258361349a565b9150614ce882614c81565b604082019050919050565b60006020820190508181036000830152614d0c81614cd0565b9050919050565b7f4552433732313a207472616e7366657220746f20746865207a65726f2061646460008201527f7265737300000000000000000000000000000000000000000000000000000000602082015250565b6000614d6f60248361349a565b9150614d7a82614d13565b604082019050919050565b60006020820190508181036000830152614d9e81614d62565b9050919050565b7f4e487b7100000000000000000000000000000000000000000000000000000000600052601160045260246000fd5b6000614ddf82613541565b9150614dea83613541565b9250828203905081811115614e0257614e01614da5565b5b92915050565b6000614e1382613541565b9150614e1e83613541565b9250828201905080821115614e3657614e35614da5565b5b92915050565b6000604082019050614e5160008301856135d6565b614e5e60208301846135d6565b9392505050565b7f4552433732313a20617070726f766520746f2063616c6c657200000000000000600082015250565b6000614e9b60198361349a565b9150614ea682614e65565b602082019050919050565b60006020820190508181036000830152614eca81614e8e565b9050919050565b7f4552433732313a207472616e7366657220746f206e6f6e20455243373231526560008201527f63656976657220696d706c656d656e7465720000000000000000000000000000602082015250565b6000614f2d60328361349a565b9150614f3882614ed1565b604082019050919050565b60006020820190508181036000830152614f5c81614f20565b9050919050565b7f45524337323155524953746f726167653a2055524920717565727920666f722060008201527f6e6f6e6578697374656e7420746f6b656e000000000000000000000000000000602082015250565b6000614fbf60318361349a565b9150614fca82614f63565b604082019050919050565b60006020820190508181036000830152614fee81614fb2565b9050919050565b600081905092915050565b600061500b8261348f565b6150158185614ff5565b93506150258185602086016134ab565b80840191505092915050565b600061503d8285615000565b91506150498284615000565b91508190509392505050565b7f455243313136373a20637265617465206661696c656400000000000000000000600082015250565b600061508b60168361349a565b915061509682615055565b602082019050919050565b600060208201905081810360008301526150ba8161507e565b9050919050565b60006080820190506150d660008301876135d6565b6150e360208301866135d6565b6150f0604083018561366c565b81810360608301526151028184614316565b905095945050505050565b60008151905061511c81613400565b92915050565b600060208284031215615138576151376133ca565b5b60006151468482850161510d565b91505092915050565b7f4552433732314d657461646174613a2055524920717565727920666f72206e6f60008201527f6e6578697374656e7420746f6b656e0000000000000000000000000000000000602082015250565b60006151ab602f8361349a565b91506151b68261514f565b604082019050919050565b600060208201905081810360008301526151da8161519e565b9050919050565b7f4552433732313a206d696e7420746f20746865207a65726f2061646472657373600082015250565b600061521760208361349a565b9150615222826151e1565b602082019050919050565b600060208201905081810360008301526152468161520a565b9050919050565b7f4552433732313a20746f6b656e20616c7265616479206d696e74656400000000600082015250565b6000615283601c8361349a565b915061528e8261524d565b602082019050919050565b600060208201905081810360008301526152b281615276565b9050919050565b60006152c482613541565b91507fffffffffffffffffffffffffffffffffffffffffffffffffffffffffffffffff82036152f6576152f5614da5565b5b600182019050919050565b7f4e487b7100000000000000000000000000000000000000000000000000000000600052601260045260246000fd5b600061533b82613541565b915061534683613541565b92508261535657615355615301565b5b828204905092915050565b600061536c82613541565b915061537783613541565b92508261538757615386615301565b5b828206905092915050565b7f4e487b7100000000000000000000000000000000000000000000000000000000600052603160045260246000fdfea26469706673582212200d424f6131a256dccc358e345ef11091000eb7dfd4fd3c906d6de9bbfabe0efa64736f6c63430008110033a2646970667358221220ff37c6394709b537fa275627bc1964956e6c2399d94220f7c723d42226d9d05d64736f6c63430008110033",
  "immutableReferences": {},
  "source": "// SPDX-License-Identifier: MIT\npragma solidity ^0.8.7;\n\nimport { Clones } from \"openzeppelin-solidity/contracts/proxy/Clones.sol\";\n\nimport \"./CosmoNuts.sol\";\nimport \"./ICosmoNuts.sol\";\nimport \"./CosmoTreasury.sol\";\n\ncontract CosmoBang {\n\n    struct Cosmo {\n        address systemAddress;\n        address matterAddress;\n        address treasuryImplementation;\n    }\n    Cosmo cosmo;\n\n    function initialize(\n        address _systemAddress,\n        address _matterAddress,\n        address _treasuryImplementation,\n        address _seedImplementation,\n        address _butterImplementation,\n        uint256 _price,\n        uint256 _rate\n    ) external returns (address) {\n        cosmo.systemAddress = _systemAddress;\n        cosmo.matterAddress = _matterAddress;\n        cosmo.treasuryImplementation = _treasuryImplementation;\n\n        CosmoTreasury treasury = CosmoTreasury(Clones.clone(cosmo.treasuryImplementation));\n        treasury.initialize(\n            cosmo.systemAddress,\n            cosmo.matterAddress,\n            _seedImplementation,\n            _butterImplementation,\n            _price,\n            _rate\n        );\n\n        return address(treasury);\n    }\n\n    function createCosmo(\n        string memory _name,\n        string memory _symbol,\n        uint256 _supply,\n        address _treasuryLocation,\n        address _vaultImplementation\n    ) external returns (address) {\n        CosmoNuts nuts = new CosmoNuts(\n            _name,\n            _symbol,\n            _supply,\n            cosmo.systemAddress,\n            _treasuryLocation,\n            _vaultImplementation\n        );\n        ICosmoNuts(address(nuts)).createVault();\n\n        return address(nuts);\n    }\n\n}\n",
  "sourcePath": "/home/redlentils/Seafile/Websites/avatarnft/contracts/CosmoBang.sol",
  "compiler": {
    "name": "solc",
    "version": "0.8.17+commit.8df45f5f.Emscripten.clang"
  },
  "schemaVersion": "3.4.10",
  "updatedAt": "2022-10-25T08:55:07.083Z",
  "devdoc": {
    "kind": "dev",
    "methods": {},
    "version": 1
  },
  "userdoc": {
    "kind": "user",
    "methods": {},
    "version": 1
  }
}