{
  "contractName": "CosmoTreasury",
  "abi": [
    {
      "inputs": [
        {
          "internalType": "address",
          "name": "_matterAddress",
          "type": "address"
        },
        {
          "internalType": "uint256",
          "name": "_matterRate",
          "type": "uint256"
        }
      ],
      "stateMutability": "nonpayable",
      "type": "constructor"
    },
    {
      "inputs": [],
      "name": "MATTER_ADDRESS",
      "outputs": [
        {
          "internalType": "address",
          "name": "",
          "type": "address"
        }
      ],
      "stateMutability": "view",
      "type": "function"
    },
    {
      "inputs": [],
      "name": "MATTER_RATE",
      "outputs": [
        {
          "internalType": "uint256",
          "name": "",
          "type": "uint256"
        }
      ],
      "stateMutability": "view",
      "type": "function"
    },
    {
      "inputs": [],
      "name": "NUT_PRICE",
      "outputs": [
        {
          "internalType": "uint256",
          "name": "",
          "type": "uint256"
        }
      ],
      "stateMutability": "view",
      "type": "function"
    },
    {
      "inputs": [
        {
          "internalType": "uint256",
          "name": "",
          "type": "uint256"
        }
      ],
      "name": "butterChurnedByNut",
      "outputs": [
        {
          "internalType": "uint256",
          "name": "",
          "type": "uint256"
        }
      ],
      "stateMutability": "view",
      "type": "function"
    },
    {
      "inputs": [],
      "name": "butterDeficiencyInUniverse",
      "outputs": [
        {
          "internalType": "uint256",
          "name": "",
          "type": "uint256"
        }
      ],
      "stateMutability": "view",
      "type": "function"
    },
    {
      "inputs": [
        {
          "internalType": "uint256",
          "name": "",
          "type": "uint256"
        }
      ],
      "name": "butterDeficiencyOfNut",
      "outputs": [
        {
          "internalType": "uint256",
          "name": "",
          "type": "uint256"
        }
      ],
      "stateMutability": "view",
      "type": "function"
    },
    {
      "inputs": [],
      "name": "butterJars",
      "outputs": [
        {
          "internalType": "uint256",
          "name": "",
          "type": "uint256"
        }
      ],
      "stateMutability": "view",
      "type": "function"
    },
    {
      "inputs": [
        {
          "internalType": "uint256",
          "name": "",
          "type": "uint256"
        }
      ],
      "name": "butterLocations",
      "outputs": [
        {
          "internalType": "address",
          "name": "",
          "type": "address"
        }
      ],
      "stateMutability": "view",
      "type": "function"
    },
    {
      "inputs": [],
      "name": "butterSpread",
      "outputs": [
        {
          "internalType": "uint256",
          "name": "",
          "type": "uint256"
        }
      ],
      "stateMutability": "view",
      "type": "function"
    },
    {
      "inputs": [],
      "name": "butterWeight",
      "outputs": [
        {
          "internalType": "uint256",
          "name": "",
          "type": "uint256"
        }
      ],
      "stateMutability": "view",
      "type": "function"
    },
    {
      "inputs": [
        {
          "internalType": "uint256",
          "name": "",
          "type": "uint256"
        },
        {
          "internalType": "uint256",
          "name": "",
          "type": "uint256"
        }
      ],
      "name": "buttersOfNut",
      "outputs": [
        {
          "internalType": "uint256",
          "name": "",
          "type": "uint256"
        }
      ],
      "stateMutability": "view",
      "type": "function"
    },
    {
      "inputs": [
        {
          "internalType": "uint256",
          "name": "",
          "type": "uint256"
        }
      ],
      "name": "currentOwnerOfNut",
      "outputs": [
        {
          "internalType": "address",
          "name": "",
          "type": "address"
        }
      ],
      "stateMutability": "view",
      "type": "function"
    },
    {
      "inputs": [
        {
          "internalType": "uint256",
          "name": "",
          "type": "uint256"
        }
      ],
      "name": "isButterActive",
      "outputs": [
        {
          "internalType": "bool",
          "name": "",
          "type": "bool"
        }
      ],
      "stateMutability": "view",
      "type": "function"
    },
    {
      "inputs": [
        {
          "internalType": "uint256",
          "name": "",
          "type": "uint256"
        }
      ],
      "name": "isSeedActive",
      "outputs": [
        {
          "internalType": "bool",
          "name": "",
          "type": "bool"
        }
      ],
      "stateMutability": "view",
      "type": "function"
    },
    {
      "inputs": [
        {
          "internalType": "uint256",
          "name": "",
          "type": "uint256"
        },
        {
          "internalType": "uint256",
          "name": "",
          "type": "uint256"
        }
      ],
      "name": "isSeedOfNut",
      "outputs": [
        {
          "internalType": "bool",
          "name": "",
          "type": "bool"
        }
      ],
      "stateMutability": "view",
      "type": "function"
    },
    {
      "inputs": [
        {
          "internalType": "uint256",
          "name": "",
          "type": "uint256"
        }
      ],
      "name": "matterBalanceOfNut",
      "outputs": [
        {
          "internalType": "uint256",
          "name": "",
          "type": "uint256"
        }
      ],
      "stateMutability": "view",
      "type": "function"
    },
    {
      "inputs": [],
      "name": "matterInTreasury",
      "outputs": [
        {
          "internalType": "uint256",
          "name": "",
          "type": "uint256"
        }
      ],
      "stateMutability": "view",
      "type": "function"
    },
    {
      "inputs": [],
      "name": "matterInUniverse",
      "outputs": [
        {
          "internalType": "uint256",
          "name": "",
          "type": "uint256"
        }
      ],
      "stateMutability": "view",
      "type": "function"
    },
    {
      "inputs": [
        {
          "internalType": "uint256",
          "name": "",
          "type": "uint256"
        }
      ],
      "name": "matterMintedByNut",
      "outputs": [
        {
          "internalType": "uint256",
          "name": "",
          "type": "uint256"
        }
      ],
      "stateMutability": "view",
      "type": "function"
    },
    {
      "inputs": [
        {
          "internalType": "uint256",
          "name": "_nutId",
          "type": "uint256"
        }
      ],
      "name": "numberOfButterJars",
      "outputs": [
        {
          "internalType": "uint256",
          "name": "",
          "type": "uint256"
        }
      ],
      "stateMutability": "view",
      "type": "function"
    },
    {
      "inputs": [
        {
          "internalType": "uint256",
          "name": "",
          "type": "uint256"
        }
      ],
      "name": "nutOfButter",
      "outputs": [
        {
          "internalType": "uint256",
          "name": "",
          "type": "uint256"
        }
      ],
      "stateMutability": "view",
      "type": "function"
    },
    {
      "inputs": [
        {
          "internalType": "uint256",
          "name": "",
          "type": "uint256"
        }
      ],
      "name": "nutOfSeed",
      "outputs": [
        {
          "internalType": "uint256",
          "name": "",
          "type": "uint256"
        }
      ],
      "stateMutability": "view",
      "type": "function"
    },
    {
      "inputs": [
        {
          "internalType": "uint256",
          "name": "",
          "type": "uint256"
        }
      ],
      "name": "nutsPayeeList",
      "outputs": [
        {
          "internalType": "uint256",
          "name": "",
          "type": "uint256"
        }
      ],
      "stateMutability": "view",
      "type": "function"
    },
    {
      "inputs": [
        {
          "internalType": "uint256",
          "name": "",
          "type": "uint256"
        }
      ],
      "name": "seedLocations",
      "outputs": [
        {
          "internalType": "address",
          "name": "",
          "type": "address"
        }
      ],
      "stateMutability": "view",
      "type": "function"
    },
    {
      "inputs": [],
      "name": "seedsCreated",
      "outputs": [
        {
          "internalType": "uint256",
          "name": "",
          "type": "uint256"
        }
      ],
      "stateMutability": "view",
      "type": "function"
    },
    {
      "inputs": [
        {
          "internalType": "uint256",
          "name": "",
          "type": "uint256"
        }
      ],
      "name": "seedsGrownOfNut",
      "outputs": [
        {
          "internalType": "uint256",
          "name": "",
          "type": "uint256"
        }
      ],
      "stateMutability": "view",
      "type": "function"
    },
    {
      "inputs": [
        {
          "internalType": "uint256",
          "name": "",
          "type": "uint256"
        }
      ],
      "name": "seedsOfNut",
      "outputs": [
        {
          "internalType": "uint256",
          "name": "",
          "type": "uint256"
        }
      ],
      "stateMutability": "view",
      "type": "function"
    },
    {
      "inputs": [
        {
          "internalType": "uint256",
          "name": "_nutId",
          "type": "uint256"
        }
      ],
      "name": "calcMatterNeeded",
      "outputs": [
        {
          "internalType": "uint256",
          "name": "",
          "type": "uint256"
        }
      ],
      "stateMutability": "view",
      "type": "function"
    },
    {
      "inputs": [
        {
          "internalType": "uint256",
          "name": "_nutId",
          "type": "uint256"
        },
        {
          "internalType": "bytes32",
          "name": "_secretHash",
          "type": "bytes32"
        },
        {
          "internalType": "uint256",
          "name": "_matterContributed",
          "type": "uint256"
        }
      ],
      "name": "spawnSeed",
      "outputs": [],
      "stateMutability": "payable",
      "type": "function"
    },
    {
      "inputs": [
        {
          "internalType": "uint256",
          "name": "_seedId",
          "type": "uint256"
        },
        {
          "internalType": "uint256",
          "name": "_matterNeeded",
          "type": "uint256"
        }
      ],
      "name": "growSeedFromNut",
      "outputs": [],
      "stateMutability": "nonpayable",
      "type": "function"
    },
    {
      "inputs": [
        {
          "internalType": "uint256",
          "name": "_nutId",
          "type": "uint256"
        },
        {
          "internalType": "uint256",
          "name": "_matterContributed",
          "type": "uint256"
        },
        {
          "internalType": "uint256",
          "name": "_matterDrawRate",
          "type": "uint256"
        },
        {
          "internalType": "bytes32",
          "name": "_secretHash",
          "type": "bytes32"
        }
      ],
      "name": "newButter",
      "outputs": [],
      "stateMutability": "nonpayable",
      "type": "function"
    },
    {
      "inputs": [
        {
          "internalType": "address",
          "name": "_drawer",
          "type": "address"
        },
        {
          "internalType": "uint256",
          "name": "_butterId",
          "type": "uint256"
        },
        {
          "internalType": "uint256",
          "name": "_balance",
          "type": "uint256"
        },
        {
          "internalType": "uint256",
          "name": "_currentBalance",
          "type": "uint256"
        }
      ],
      "name": "butterDrawn",
      "outputs": [],
      "stateMutability": "nonpayable",
      "type": "function"
    },
    {
      "inputs": [
        {
          "internalType": "address",
          "name": "_tokenOwner",
          "type": "address"
        },
        {
          "internalType": "uint256",
          "name": "_tokenId",
          "type": "uint256"
        }
      ],
      "name": "assignMintBalance",
      "outputs": [],
      "stateMutability": "nonpayable",
      "type": "function"
    }
  ],
  "bytecode": "0x6080604052600080556000600755600060085560006009556000600f553480156200002957600080fd5b5060405162004e3838038062004e3883398181016040528101906200004f9190620002e8565b81601260006101000a81548173ffffffffffffffffffffffffffffffffffffffff021916908373ffffffffffffffffffffffffffffffffffffffff16021790555080601481905550601260009054906101000a900473ffffffffffffffffffffffffffffffffffffffff16601a60006101000a81548173ffffffffffffffffffffffffffffffffffffffff021916908373ffffffffffffffffffffffffffffffffffffffff160217905550601a60009054906101000a900473ffffffffffffffffffffffffffffffffffffffff1673ffffffffffffffffffffffffffffffffffffffff166318160ddd6040518163ffffffff1660e01b8152600401602060405180830381865afa15801562000168573d6000803e3d6000fd5b505050506040513d601f19601f820116820180604052508101906200018e91906200032f565b601581905550601a60009054906101000a900473ffffffffffffffffffffffffffffffffffffffff1673ffffffffffffffffffffffffffffffffffffffff166370a08231306040518263ffffffff1660e01b8152600401620001f1919062000372565b602060405180830381865afa1580156200020f573d6000803e3d6000fd5b505050506040513d601f19601f820116820180604052508101906200023591906200032f565b60168190555050506200038f565b600080fd5b600073ffffffffffffffffffffffffffffffffffffffff82169050919050565b6000620002758262000248565b9050919050565b620002878162000268565b81146200029357600080fd5b50565b600081519050620002a7816200027c565b92915050565b6000819050919050565b620002c281620002ad565b8114620002ce57600080fd5b50565b600081519050620002e281620002b7565b92915050565b6000806040838503121562000302576200030162000243565b5b6000620003128582860162000296565b92505060206200032585828601620002d1565b9150509250929050565b60006020828403121562000348576200034762000243565b5b60006200035884828501620002d1565b91505092915050565b6200036c8162000268565b82525050565b600060208201905062000389600083018462000361565b92915050565b614a99806200039f6000396000f3fe6080604052600436106200021e5760003560e01c806349a6b51f1162000127578063aef054ce11620000af578063df4f5ccc1162000079578063df4f5ccc146200088b578063ea0f136614620008bb578063ea988be814620008ff578063f50d4349146200092f578063f6317f8d1462000973576200021e565b8063aef054ce14620007b3578063b876ec0a14620007f7578063b8a9736d1462000817578063d4d810321462000847576200021e565b8063733b0bca11620000f1578063733b0bca14620006e35780639578d3df14620007115780639cee22b11462000755578063a89092c11462000783576200021e565b806349a6b51f14620005fb5780634ffe5a6f146200062b57806353f97bc8146200066f57806364b1b66314620006b3576200021e565b8063282adc8c11620001ab57806334fc1228116200017557806334fc122814620004ff57806339dc84f414620005435780633c89d09f146200058757806347634e1c14620005b7576200021e565b8063282adc8c14620004035780632c533085146200044757806331ad1b4214620004775780633279bd4f14620004bb576200021e565b80631c85949c11620001ed5780631c85949c146200031d5780631e0b3964146200034b57806323f526c0146200038f57806326342ea414620003d3576200021e565b806302760a48146200022357806303f5de9d1462000267578063171e844114620002955780631821907a14620002d9575b600080fd5b3480156200023057600080fd5b506200024f60048036038101906200024991906200249c565b620009a3565b6040516200025e9190620024eb565b60405180910390f35b3480156200027457600080fd5b506200029360048036038101906200028d919062002543565b620009c3565b005b348015620002a257600080fd5b50620002c16004803603810190620002bb91906200249c565b6200116d565b604051620002d09190620024eb565b60405180910390f35b348015620002e657600080fd5b50620003056004803603810190620002ff91906200249c565b6200118d565b604051620003149190620025c6565b60405180910390f35b3480156200032a57600080fd5b5062000349600480360381019062000343919062002648565b620011a5565b005b3480156200035857600080fd5b506200037760048036038101906200037191906200268f565b620012d2565b604051620003869190620025c6565b60405180910390f35b3480156200039c57600080fd5b50620003bb6004803603810190620003b591906200249c565b62001304565b604051620003ca9190620026e7565b60405180910390f35b348015620003e057600080fd5b50620003eb62001337565b604051620003fa9190620025c6565b60405180910390f35b3480156200041057600080fd5b506200042f60048036038101906200042991906200249c565b6200133d565b6040516200043e9190620025c6565b60405180910390f35b3480156200045457600080fd5b506200045f6200135d565b6040516200046e9190620025c6565b60405180910390f35b3480156200048457600080fd5b50620004a360048036038101906200049d91906200249c565b62001363565b604051620004b29190620025c6565b60405180910390f35b348015620004c857600080fd5b50620004e76004803603810190620004e191906200249c565b6200137b565b604051620004f69190620025c6565b60405180910390f35b3480156200050c57600080fd5b506200052b60048036038101906200052591906200249c565b62001393565b6040516200053a9190620025c6565b60405180910390f35b3480156200055057600080fd5b506200056f60048036038101906200056991906200249c565b620013c1565b6040516200057e9190620026e7565b60405180910390f35b3480156200059457600080fd5b506200059f620013f4565b604051620005ae9190620025c6565b60405180910390f35b348015620005c457600080fd5b50620005e36004803603810190620005dd91906200249c565b620013fa565b604051620005f29190620025c6565b60405180910390f35b3480156200060857600080fd5b506200061362001412565b604051620006229190620025c6565b60405180910390f35b3480156200063857600080fd5b506200065760048036038101906200065191906200249c565b62001418565b604051620006669190620025c6565b60405180910390f35b3480156200067c57600080fd5b506200069b60048036038101906200069591906200268f565b62001430565b604051620006aa9190620024eb565b60405180910390f35b348015620006c057600080fd5b50620006cb6200145f565b604051620006da9190620026e7565b60405180910390f35b348015620006f057600080fd5b506200070f60048036038101906200070991906200268f565b62001485565b005b3480156200071e57600080fd5b506200073d60048036038101906200073791906200249c565b6200194d565b6040516200074c9190620025c6565b60405180910390f35b3480156200076257600080fd5b506200078160048036038101906200077b919062002704565b62001972565b005b3480156200079057600080fd5b506200079b62001bff565b604051620007aa9190620025c6565b60405180910390f35b348015620007c057600080fd5b50620007df6004803603810190620007d991906200249c565b62001c05565b604051620007ee9190620026e7565b60405180910390f35b6200081560048036038101906200080f919062002776565b62001c38565b005b3480156200082457600080fd5b506200082f62002009565b6040516200083e9190620025c6565b60405180910390f35b3480156200085457600080fd5b506200087360048036038101906200086d91906200249c565b6200200f565b604051620008829190620025c6565b60405180910390f35b3480156200089857600080fd5b50620008a362002027565b604051620008b29190620025c6565b60405180910390f35b348015620008c857600080fd5b50620008e76004803603810190620008e191906200249c565b6200202d565b604051620008f69190620025c6565b60405180910390f35b3480156200090c57600080fd5b506200091762002045565b604051620009269190620025c6565b60405180910390f35b3480156200093c57600080fd5b506200095b60048036038101906200095591906200249c565b6200204b565b6040516200096a9190620025c6565b60405180910390f35b3480156200098057600080fd5b506200098b62002063565b6040516200099a9190620025c6565b60405180910390f35b60116020528060005260406000206000915054906101000a900460ff1681565b60006017600086815260200190815260200160002060009054906101000a900473ffffffffffffffffffffffffffffffffffffffff1690503373ffffffffffffffffffffffffffffffffffffffff168173ffffffffffffffffffffffffffffffffffffffff161462000a6c576040517f08c379a000000000000000000000000000000000000000000000000000000000815260040162000a639062002833565b60405180910390fd5b836018600087815260200190815260200160002054101562000ac5576040517f08c379a000000000000000000000000000000000000000000000000000000000815260040162000abc90620028a5565b60405180910390fd5b601a60009054906101000a900473ffffffffffffffffffffffffffffffffffffffff1673ffffffffffffffffffffffffffffffffffffffff166370a08231826040518263ffffffff1660e01b815260040162000b229190620026e7565b602060405180830381865afa15801562000b40573d6000803e3d6000fd5b505050506040513d601f19601f8201168201806040525081019062000b669190620028de565b84111562000bab576040517f08c379a000000000000000000000000000000000000000000000000000000000815260040162000ba29062002960565b60405180910390fd5b6000838562000bbb9190620029b1565b1462000bfe576040517f08c379a000000000000000000000000000000000000000000000000000000000815260040162000bf59062002a39565b60405180910390fd5b60006002600087815260200190815260200160002054111562000c8c5783600f600082825462000c2f919062002a8a565b925050819055508360106000878152602001908152602001600020600082825462000c5b919062002a8a565b9250508190555060198590806001815401808255809150506001900390600052602060002001600090919091909150555b601a60009054906101000a900473ffffffffffffffffffffffffffffffffffffffff1673ffffffffffffffffffffffffffffffffffffffff166370a08231306040518263ffffffff1660e01b815260040162000ce99190620026e7565b602060405180830381865afa15801562000d07573d6000803e3d6000fd5b505050506040513d601f19601f8201168201806040525081019062000d2d9190620028de565b601681905550600060165411156200106657600062000d51601654600f5462002069565b90506000805b82811462000fbb57600060198054905090506000810362000d79575062000fbb565b8082111562000d8757600092505b60006019848154811062000da05762000d9f62002ac5565b5b9060005260206000200154905060006017600083815260200190815260200160002060009054906101000a900473ffffffffffffffffffffffffffffffffffffffff1690506000601454600260008581526020019081526020016000205462000e0a919062002af4565b90508060186000858152602001908152602001600020540362000e52576019868154811062000e3e5762000e3d62002ac5565b5b906000526020600020016000905562000f91565b601a60009054906101000a900473ffffffffffffffffffffffffffffffffffffffff1673ffffffffffffffffffffffffffffffffffffffff1663a9059cbb8360016040518363ffffffff1660e01b815260040162000eb292919062002b8c565b6020604051808303816000875af115801562000ed2573d6000803e3d6000fd5b505050506040513d601f19601f8201168201806040525081019062000ef8919062002bea565b5060198390806001815401808255809150506001900390600052602060002001600090919091909150556019868154811062000f395762000f3862002ac5565b5b90600052602060002001600090556001600f600082825462000f5c919062002c1c565b92505081905550600160106000858152602001908152602001600020600082825462000f89919062002c1c565b925050819055505b858062000f9e9062002c57565b96505050505050808062000fb29062002c57565b91505062000d57565b50601a60009054906101000a900473ffffffffffffffffffffffffffffffffffffffff1673ffffffffffffffffffffffffffffffffffffffff166370a08231306040518263ffffffff1660e01b8152600401620010199190620026e7565b602060405180830381865afa15801562001037573d6000803e3d6000fd5b505050506040513d601f19601f820116820180604052508101906200105d9190620028de565b60168190555050505b600060095486868630876040516200107e9062002440565b6200108f9695949392919062002cb5565b604051809103906000f080158015620010ac573d6000803e3d6000fd5b509050601a60009054906101000a900473ffffffffffffffffffffffffffffffffffffffff1673ffffffffffffffffffffffffffffffffffffffff1663a9059cbb82876040518363ffffffff1660e01b81526004016200110e92919062002d22565b6020604051808303816000875af11580156200112e573d6000803e3d6000fd5b505050506040513d601f19601f8201168201806040525081019062001154919062002bea565b506200116586600954838862002084565b505050505050565b60066020528060005260406000206000915054906101000a900460ff1681565b600d6020528060005260406000206000915090505481565b6014546016541015620011ef576040517f08c379a0000000000000000000000000000000000000000000000000000000008152600401620011e69062002d9f565b60405180910390fd5b601a60009054906101000a900473ffffffffffffffffffffffffffffffffffffffff1673ffffffffffffffffffffffffffffffffffffffff1663a9059cbb836014546040518363ffffffff1660e01b81526004016200125092919062002d22565b6020604051808303816000875af115801562001270573d6000803e3d6000fd5b505050506040513d601f19601f8201168201806040525081019062001296919062002bea565b50601454601860008381526020019081526020016000208190555060145460166000828254620012c7919062002c1c565b925050819055505050565b600a6020528160005260406000208181548110620012ef57600080fd5b90600052602060002001600091509150505481565b60056020528060005260406000206000915054906101000a900473ffffffffffffffffffffffffffffffffffffffff1681565b60095481565b6000600a6000838152602001908152602001600020805490509050919050565b60145481565b60016020528060005260406000206000915090505481565b600c6020528060005260406000206000915090505481565b6000600180600084815260200190815260200160002054620013b6919062002a8a565b601454189050919050565b60176020528060005260406000206000915054906101000a900473ffffffffffffffffffffffffffffffffffffffff1681565b60155481565b600e6020528060005260406000206000915090505481565b60085481565b60106020528060005260406000206000915090505481565b60046020528160005260406000206020528060005260406000206000915091509054906101000a900460ff1681565b601260009054906101000a900473ffffffffffffffffffffffffffffffffffffffff1681565b80601a60009054906101000a900473ffffffffffffffffffffffffffffffffffffffff1673ffffffffffffffffffffffffffffffffffffffff166370a08231336040518263ffffffff1660e01b8152600401620014e39190620026e7565b602060405180830381865afa15801562001501573d6000803e3d6000fd5b505050506040513d601f19601f82011682018060405250810190620015279190620028de565b10156200156b576040517f08c379a0000000000000000000000000000000000000000000000000000000008152600401620015629062002d9f565b60405180910390fd5b60006005600084815260200190815260200160002060009054906101000a900473ffffffffffffffffffffffffffffffffffffffff16905060008190506000601760008373ffffffffffffffffffffffffffffffffffffffff1663685771f46040518163ffffffff1660e01b8152600401602060405180830381865afa158015620015fa573d6000803e3d6000fd5b505050506040513d601f19601f82011682018060405250810190620016209190620028de565b815260200190815260200160002060009054906101000a900473ffffffffffffffffffffffffffffffffffffffff169050601a60009054906101000a900473ffffffffffffffffffffffffffffffffffffffff1673ffffffffffffffffffffffffffffffffffffffff1663a9059cbb82866040518363ffffffff1660e01b8152600401620016b092919062002d22565b6020604051808303816000875af1158015620016d0573d6000803e3d6000fd5b505050506040513d601f19601f82011682018060405250810190620016f6919062002bea565b50601a60009054906101000a900473ffffffffffffffffffffffffffffffffffffffff1673ffffffffffffffffffffffffffffffffffffffff16634bbc1bcd3060016040518363ffffffff1660e01b81526004016200175792919062002b8c565b600060405180830381600087803b1580156200177257600080fd5b505af115801562001787573d6000803e3d6000fd5b505050508173ffffffffffffffffffffffffffffffffffffffff166326b2c77c826040518263ffffffff1660e01b8152600401620017c69190620026e7565b600060405180830381600087803b158015620017e157600080fd5b505af1158015620017f6573d6000803e3d6000fd5b50505050601a60009054906101000a900473ffffffffffffffffffffffffffffffffffffffff1673ffffffffffffffffffffffffffffffffffffffff166318160ddd6040518163ffffffff1660e01b8152600401602060405180830381865afa15801562001868573d6000803e3d6000fd5b505050506040513d601f19601f820116820180604052508101906200188e9190620028de565b601581905550601a60009054906101000a900473ffffffffffffffffffffffffffffffffffffffff1673ffffffffffffffffffffffffffffffffffffffff166370a08231306040518263ffffffff1660e01b8152600401620018f19190620026e7565b602060405180830381865afa1580156200190f573d6000803e3d6000fd5b505050506040513d601f19601f82011682018060405250810190620019359190620028de565b6016819055506200194685620021bd565b5050505050565b601981815481106200195e57600080fd5b906000526020600020016000915090505481565b601a60009054906101000a900473ffffffffffffffffffffffffffffffffffffffff1673ffffffffffffffffffffffffffffffffffffffff1663a9059cbb85846040518363ffffffff1660e01b8152600401620019d192919062002d22565b6020604051808303816000875af1158015620019f1573d6000803e3d6000fd5b505050506040513d601f19601f8201168201806040525081019062001a17919062002bea565b50601a60009054906101000a900473ffffffffffffffffffffffffffffffffffffffff1673ffffffffffffffffffffffffffffffffffffffff16634bbc1bcd30846040518363ffffffff1660e01b815260040162001a7792919062002d22565b600060405180830381600087803b15801562001a9257600080fd5b505af115801562001aa7573d6000803e3d6000fd5b5050505062001ab88383836200225e565b601a60009054906101000a900473ffffffffffffffffffffffffffffffffffffffff1673ffffffffffffffffffffffffffffffffffffffff166318160ddd6040518163ffffffff1660e01b8152600401602060405180830381865afa15801562001b26573d6000803e3d6000fd5b505050506040513d601f19601f8201168201806040525081019062001b4c9190620028de565b601581905550601a60009054906101000a900473ffffffffffffffffffffffffffffffffffffffff1673ffffffffffffffffffffffffffffffffffffffff166370a08231306040518263ffffffff1660e01b815260040162001baf9190620026e7565b602060405180830381865afa15801562001bcd573d6000803e3d6000fd5b505050506040513d601f19601f8201168201806040525081019062001bf39190620028de565b60168190555050505050565b60165481565b600b6020528060005260406000206000915054906101000a900473ffffffffffffffffffffffffffffffffffffffff1681565b60006001600260008681526020019081526020016000205462001c5c919062002a8a565b6013541890508034101562001ca8576040517f08c379a000000000000000000000000000000000000000000000000000000000815260040162001c9f9062002e11565b60405180910390fd5b600062001cb58562001393565b90506000601a60009054906101000a900473ffffffffffffffffffffffffffffffffffffffff1673ffffffffffffffffffffffffffffffffffffffff166370a082316017600089815260200190815260200160002060009054906101000a900473ffffffffffffffffffffffffffffffffffffffff166040518263ffffffff1660e01b815260040162001d499190620026e7565b602060405180830381865afa15801562001d67573d6000803e3d6000fd5b505050506040513d601f19601f8201168201806040525081019062001d8d9190620028de565b90508181101562001dd5576040517f08c379a000000000000000000000000000000000000000000000000000000000815260040162001dcc9062002e83565b60405180910390fd5b8184101562001e1b576040517f08c379a000000000000000000000000000000000000000000000000000000000815260040162001e129062002ef5565b60405180910390fd5b6000805487308860405162001e30906200244e565b62001e3f949392919062002f17565b604051809103906000f08015801562001e5c573d6000803e3d6000fd5b50905062001e6e876000548362002321565b6000838662001e7e919062002c1c565b9050601a60009054906101000a900473ffffffffffffffffffffffffffffffffffffffff1673ffffffffffffffffffffffffffffffffffffffff166342966c68856040518263ffffffff1660e01b815260040162001edd9190620025c6565b600060405180830381600087803b15801562001ef857600080fd5b505af115801562001f0d573d6000803e3d6000fd5b50505050601a60009054906101000a900473ffffffffffffffffffffffffffffffffffffffff1673ffffffffffffffffffffffffffffffffffffffff1663a9059cbb83836040518363ffffffff1660e01b815260040162001f7092919062002d22565b6020604051808303816000875af115801562001f90573d6000803e3d6000fd5b505050506040513d601f19601f8201168201806040525081019062001fb6919062002bea565b508173ffffffffffffffffffffffffffffffffffffffff166108fc349081150290604051600060405180830381858888f1935050505015801562001ffe573d6000803e3d6000fd5b505050505050505050565b60135481565b60036020528060005260406000206000915090505481565b600f5481565b60026020528060005260406000206000915090505481565b60005481565b60186020528060005260406000206000915090505481565b60075481565b60008183106200207a57816200207c565b825b905092915050565b60016009600082825462002099919062002a8a565b925050819055508060076000828254620020b4919062002a8a565b92505081905550600a600085815260200190815260200160002083908060018154018082558091505060019003906000526020600020016000909190919091505580600d600086815260200190815260200160002060008282546200211a919062002a8a565b9250508190555081600b600086815260200190815260200160002060006101000a81548173ffffffffffffffffffffffffffffffffffffffff021916908373ffffffffffffffffffffffffffffffffffffffff16021790555060016011600086815260200190815260200160002060006101000a81548160ff02191690831515021790555083600e60008581526020019081526020016000208190555050505050565b60006003600083815260200190815260200160002054905060018060008381526020019081526020016000206000828254620021fa919062002c1c565b92505081905550600160026000838152602001908152602001600020600082825462002227919062002a8a565b9250508190555060006006600083815260200190815260200160002060006101000a81548160ff0219169083151502179055505050565b816007600082825462002272919062002c1c565b9250508190555081600860008282546200228d919062002a8a565b925050819055506000600e600085815260200190815260200160002054905082600c60008381526020019081526020016000206000828254620022d1919062002a8a565b9250508190555060008383620022e8919062002c1c565b036200231b5760006011600086815260200190815260200160002060006101000a81548160ff0219169083151502179055505b50505050565b826003600084815260200190815260200160002081905550600180600085815260200190815260200160002060008282546200235e919062002a8a565b92505081905550600160046000848152602001908152602001600020600085815260200190815260200160002060006101000a81548160ff021916908315150217905550806005600084815260200190815260200160002060006101000a81548173ffffffffffffffffffffffffffffffffffffffff021916908373ffffffffffffffffffffffffffffffffffffffff160217905550600160008082825462002408919062002a8a565b9250508190555060016006600085815260200190815260200160002060006101000a81548160ff021916908315150217905550505050565b610d218062002f6583390190565b610dde8062003c8683390190565b600080fd5b6000819050919050565b620024768162002461565b81146200248257600080fd5b50565b60008135905062002496816200246b565b92915050565b600060208284031215620024b557620024b46200245c565b5b6000620024c58482850162002485565b91505092915050565b60008115159050919050565b620024e581620024ce565b82525050565b6000602082019050620025026000830184620024da565b92915050565b6000819050919050565b6200251d8162002508565b81146200252957600080fd5b50565b6000813590506200253d8162002512565b92915050565b6000806000806080858703121562002560576200255f6200245c565b5b6000620025708782880162002485565b9450506020620025838782880162002485565b9350506040620025968782880162002485565b9250506060620025a9878288016200252c565b91505092959194509250565b620025c08162002461565b82525050565b6000602082019050620025dd6000830184620025b5565b92915050565b600073ffffffffffffffffffffffffffffffffffffffff82169050919050565b60006200261082620025e3565b9050919050565b620026228162002603565b81146200262e57600080fd5b50565b600081359050620026428162002617565b92915050565b600080604083850312156200266257620026616200245c565b5b6000620026728582860162002631565b9250506020620026858582860162002485565b9150509250929050565b60008060408385031215620026a957620026a86200245c565b5b6000620026b98582860162002485565b9250506020620026cc8582860162002485565b9150509250929050565b620026e18162002603565b82525050565b6000602082019050620026fe6000830184620026d6565b92915050565b600080600080608085870312156200272157620027206200245c565b5b6000620027318782880162002631565b9450506020620027448782880162002485565b9350506040620027578782880162002485565b92505060606200276a8782880162002485565b91505092959194509250565b6000806000606084860312156200279257620027916200245c565b5b6000620027a28682870162002485565b9350506020620027b5868287016200252c565b9250506040620027c88682870162002485565b9150509250925092565b600082825260208201905092915050565b7f43616c6c6572206973206e6f7420746865206f776e6572000000000000000000600082015250565b60006200281b601783620027d2565b91506200282882620027e3565b602082019050919050565b600060208201905081810360008301526200284e816200280c565b9050919050565b7f4e6f74206861766520656e6f756768206d617474657200000000000000000000600082015250565b60006200288d601683620027d2565b91506200289a8262002855565b602082019050919050565b60006020820190508181036000830152620028c0816200287e565b9050919050565b600081519050620028d8816200246b565b92915050565b600060208284031215620028f757620028f66200245c565b5b60006200290784828501620028c7565b91505092915050565b7f4e6f74206869676820656e6f7567680000000000000000000000000000000000600082015250565b600062002948600f83620027d2565b9150620029558262002910565b602082019050919050565b600060208201905081810360008301526200297b8162002939565b9050919050565b7f4e487b7100000000000000000000000000000000000000000000000000000000600052601260045260246000fd5b6000620029be8262002461565b9150620029cb8362002461565b925082620029de57620029dd62002982565b5b828206905092915050565b7f447261772072617465206e6f7420646976697369626c65000000000000000000600082015250565b600062002a21601783620027d2565b915062002a2e82620029e9565b602082019050919050565b6000602082019050818103600083015262002a548162002a12565b9050919050565b7f4e487b7100000000000000000000000000000000000000000000000000000000600052601160045260246000fd5b600062002a978262002461565b915062002aa48362002461565b925082820190508082111562002abf5762002abe62002a5b565b5b92915050565b7f4e487b7100000000000000000000000000000000000000000000000000000000600052603260045260246000fd5b600062002b018262002461565b915062002b0e8362002461565b925082820262002b1e8162002461565b9150828204841483151762002b385762002b3762002a5b565b5b5092915050565b6000819050919050565b6000819050919050565b600062002b7462002b6e62002b688462002b3f565b62002b49565b62002461565b9050919050565b62002b868162002b53565b82525050565b600060408201905062002ba36000830185620026d6565b62002bb2602083018462002b7b565b9392505050565b62002bc481620024ce565b811462002bd057600080fd5b50565b60008151905062002be48162002bb9565b92915050565b60006020828403121562002c035762002c026200245c565b5b600062002c138482850162002bd3565b91505092915050565b600062002c298262002461565b915062002c368362002461565b925082820390508181111562002c515762002c5062002a5b565b5b92915050565b600062002c648262002461565b91507fffffffffffffffffffffffffffffffffffffffffffffffffffffffffffffffff820362002c995762002c9862002a5b565b5b600182019050919050565b62002caf8162002508565b82525050565b600060c08201905062002ccc6000830189620025b5565b62002cdb6020830188620025b5565b62002cea6040830187620025b5565b62002cf96060830186620025b5565b62002d086080830185620026d6565b62002d1760a083018462002ca4565b979650505050505050565b600060408201905062002d396000830185620026d6565b62002d486020830184620025b5565b9392505050565b7f4e6f7420656e6f756768206d6174746572000000000000000000000000000000600082015250565b600062002d87601183620027d2565b915062002d948262002d4f565b602082019050919050565b6000602082019050818103600083015262002dba8162002d78565b9050919050565b7f45746865722076616c7565206973206e6f7420656e6f75676800000000000000600082015250565b600062002df9601983620027d2565b915062002e068262002dc1565b602082019050919050565b6000602082019050818103600083015262002e2c8162002dea565b9050919050565b7f4d61747465722062616c616e6365206973206e6f7420656e6f75676800000000600082015250565b600062002e6b601c83620027d2565b915062002e788262002e33565b602082019050919050565b6000602082019050818103600083015262002e9e8162002e5c565b9050919050565b7f4e6f7420656e6f756768206d617474657220676976656e000000000000000000600082015250565b600062002edd601783620027d2565b915062002eea8262002ea5565b602082019050919050565b6000602082019050818103600083015262002f108162002ece565b9050919050565b600060808201905062002f2e6000830187620025b5565b62002f3d6020830186620025b5565b62002f4c6040830185620026d6565b62002f5b606083018462002ca4565b9594505050505056fe60806040523480156200001157600080fd5b5060405162000d2138038062000d21833981810160405281019062000037919062000283565b85600080018190555084600060010181905550836000600201819055508260006003018190555030600060040160006101000a81548173ffffffffffffffffffffffffffffffffffffffff021916908373ffffffffffffffffffffffffffffffffffffffff16021790555033600060050160006101000a81548173ffffffffffffffffffffffffffffffffffffffff021916908373ffffffffffffffffffffffffffffffffffffffff16021790555080600060060181905550600060050160009054906101000a900473ffffffffffffffffffffffffffffffffffffffff16600860006101000a81548173ffffffffffffffffffffffffffffffffffffffff021916908373ffffffffffffffffffffffffffffffffffffffff16021790555081600960006101000a81548173ffffffffffffffffffffffffffffffffffffffff021916908373ffffffffffffffffffffffffffffffffffffffff1602179055505050505050506200031f565b600080fd5b6000819050919050565b620001bd81620001a8565b8114620001c957600080fd5b50565b600081519050620001dd81620001b2565b92915050565b600073ffffffffffffffffffffffffffffffffffffffff82169050919050565b60006200021082620001e3565b9050919050565b620002228162000203565b81146200022e57600080fd5b50565b600081519050620002428162000217565b92915050565b6000819050919050565b6200025d8162000248565b81146200026957600080fd5b50565b6000815190506200027d8162000252565b92915050565b60008060008060008060c08789031215620002a357620002a2620001a3565b5b6000620002b389828a01620001cc565b9650506020620002c689828a01620001cc565b9550506040620002d989828a01620001cc565b9450506060620002ec89828a01620001cc565b9350506080620002ff89828a0162000231565b92505060a06200031289828a016200026c565b9150509295509295509295565b6109f2806200032f6000396000f3fe608060405234801561001057600080fd5b506004361061002b5760003560e01c806327ac1b6514610030575b600080fd5b61004a60048036038101906100459190610563565b61004c565b005b60011515600060070160003373ffffffffffffffffffffffffffffffffffffffff1673ffffffffffffffffffffffffffffffffffffffff16815260200190815260200160002060009054906101000a900460ff161515036100e2576040517f08c379a00000000000000000000000000000000000000000000000000000000081526004016100d990610667565b60405180910390fd5b6000806002015411610129576040517f08c379a0000000000000000000000000000000000000000000000000000000008152600401610120906106d3565b60405180910390fd5b610132836102eb565b50600960009054906101000a900473ffffffffffffffffffffffffffffffffffffffff1673ffffffffffffffffffffffffffffffffffffffff16639cee22b13360008001546000600301546000600201546040518563ffffffff1660e01b81526004016101a2949392919061074d565b600060405180830381600087803b1580156101bc57600080fd5b505af11580156101d0573d6000803e3d6000fd5b50505050600060030154600060020160008282546101ee91906107c1565b925050819055506001600060070160003373ffffffffffffffffffffffffffffffffffffffff1673ffffffffffffffffffffffffffffffffffffffff16815260200190815260200160002060006101000a81548160ff021916908315150217905550600860009054906101000a900473ffffffffffffffffffffffffffffffffffffffff1673ffffffffffffffffffffffffffffffffffffffff16639202c1ec60006001015484846040518463ffffffff1660e01b81526004016102b4939291906108b8565b600060405180830381600087803b1580156102ce57600080fd5b505af11580156102e2573d6000803e3d6000fd5b50505050505050565b600080826040516020016102ff9190610939565b604051602081830303815290604052805190602001209050600060060154811461035e576040517f08c379a00000000000000000000000000000000000000000000000000000000081526004016103559061099c565b60405180910390fd5b6001915050919050565b6000604051905090565b600080fd5b600080fd5b600080fd5b600080fd5b6000601f19601f8301169050919050565b7f4e487b7100000000000000000000000000000000000000000000000000000000600052604160045260246000fd5b6103cf82610386565b810181811067ffffffffffffffff821117156103ee576103ed610397565b5b80604052505050565b6000610401610368565b905061040d82826103c6565b919050565b600067ffffffffffffffff82111561042d5761042c610397565b5b61043682610386565b9050602081019050919050565b82818337600083830152505050565b600061046561046084610412565b6103f7565b90508281526020810184848401111561048157610480610381565b5b61048c848285610443565b509392505050565b600082601f8301126104a9576104a861037c565b5b81356104b9848260208601610452565b91505092915050565b600067ffffffffffffffff8211156104dd576104dc610397565b5b6104e682610386565b9050602081019050919050565b6000610506610501846104c2565b6103f7565b90508281526020810184848401111561052257610521610381565b5b61052d848285610443565b509392505050565b600082601f83011261054a5761054961037c565b5b813561055a8482602086016104f3565b91505092915050565b60008060006060848603121561057c5761057b610372565b5b600084013567ffffffffffffffff81111561059a57610599610377565b5b6105a686828701610494565b935050602084013567ffffffffffffffff8111156105c7576105c6610377565b5b6105d386828701610494565b925050604084013567ffffffffffffffff8111156105f4576105f3610377565b5b61060086828701610535565b9150509250925092565b600082825260208201905092915050565b7f43616e206f6e6c792064726177206f6e63650000000000000000000000000000600082015250565b600061065160128361060a565b915061065c8261061b565b602082019050919050565b6000602082019050818103600083015261068081610644565b9050919050565b7f4e6f2062757474657220746f2064726177000000000000000000000000000000600082015250565b60006106bd60118361060a565b91506106c882610687565b602082019050919050565b600060208201905081810360008301526106ec816106b0565b9050919050565b600073ffffffffffffffffffffffffffffffffffffffff82169050919050565b600061071e826106f3565b9050919050565b61072e81610713565b82525050565b6000819050919050565b61074781610734565b82525050565b60006080820190506107626000830187610725565b61076f602083018661073e565b61077c604083018561073e565b610789606083018461073e565b95945050505050565b7f4e487b7100000000000000000000000000000000000000000000000000000000600052601160045260246000fd5b60006107cc82610734565b91506107d783610734565b92508282039050818111156107ef576107ee610792565b5b92915050565b600081519050919050565b60005b8381101561081e578082015181840152602081019050610803565b60008484015250505050565b6000610835826107f5565b61083f818561060a565b935061084f818560208601610800565b61085881610386565b840191505092915050565b600081519050919050565b600082825260208201905092915050565b600061088a82610863565b610894818561086e565b93506108a4818560208601610800565b6108ad81610386565b840191505092915050565b60006060820190506108cd600083018661073e565b81810360208301526108df818561082a565b905081810360408301526108f3818461087f565b9050949350505050565b600081905092915050565b6000610913826107f5565b61091d81856108fd565b935061092d818560208601610800565b80840191505092915050565b60006109458284610908565b915081905092915050565b7f496e70757420646f6573206e6f74206d61746368207365637265740000000000600082015250565b6000610986601b8361060a565b915061099182610950565b602082019050919050565b600060208201905081810360008301526109b581610979565b905091905056fea2646970667358221220de2d61d1602145dfb562f9e771d4d60dacacadeb5e0f6be71ccd6fe7a283952964736f6c63430008110033608060405260405162000dde38038062000dde8339818101604052810190620000299190620002f4565b600033905080600760006101000a81548173ffffffffffffffffffffffffffffffffffffffff021916908373ffffffffffffffffffffffffffffffffffffffff16021790555082600860006101000a81548173ffffffffffffffffffffffffffffffffffffffff021916908373ffffffffffffffffffffffffffffffffffffffff1602179055508460008001819055508360006001018190555034600060020181905550600860009054906101000a900473ffffffffffffffffffffffffffffffffffffffff1673ffffffffffffffffffffffffffffffffffffffff166334fc1228856040518263ffffffff1660e01b81526004016200012a919062000377565b602060405180830381865afa15801562000148573d6000803e3d6000fd5b505050506040513d601f19601f820116820180604052508101906200016e919062000394565b60006003018190555030600060040160006101000a81548173ffffffffffffffffffffffffffffffffffffffff021916908373ffffffffffffffffffffffffffffffffffffffff16021790555080600060050160006101000a81548173ffffffffffffffffffffffffffffffffffffffff021916908373ffffffffffffffffffffffffffffffffffffffff160217905550816000600601819055505050505050620003c6565b600080fd5b6000819050919050565b6200022e8162000219565b81146200023a57600080fd5b50565b6000815190506200024e8162000223565b92915050565b600073ffffffffffffffffffffffffffffffffffffffff82169050919050565b6000620002818262000254565b9050919050565b620002938162000274565b81146200029f57600080fd5b50565b600081519050620002b38162000288565b92915050565b6000819050919050565b620002ce81620002b9565b8114620002da57600080fd5b50565b600081519050620002ee81620002c3565b92915050565b6000806000806080858703121562000311576200031062000214565b5b600062000321878288016200023d565b945050602062000334878288016200023d565b93505060406200034787828801620002a2565b92505060606200035a87828801620002dd565b91505092959194509250565b620003718162000219565b82525050565b60006020820190506200038e600083018462000366565b92915050565b600060208284031215620003ad57620003ac62000214565b5b6000620003bd848285016200023d565b91505092915050565b610a0880620003d66000396000f3fe6080604052600436106100345760003560e01c806326b2c77c14610039578063685771f414610055578063956c2dc314610080575b600080fd5b610053600480360381019061004e9190610434565b6100a9565b005b34801561006157600080fd5b5061006a610203565b604051610077919061047a565b60405180910390f35b34801561008c57600080fd5b506100a760048036038101906100a2919061067c565b61020f565b005b6000600860009054906101000a900473ffffffffffffffffffffffffffffffffffffffff1673ffffffffffffffffffffffffffffffffffffffff1663b8a9736d6040518163ffffffff1660e01b8152600401602060405180830381865afa158015610118573d6000803e3d6000fd5b505050506040513d601f19601f8201168201806040525081019061013c919061074f565b90506000813461014c91906107ab565b9050600860009054906101000a900473ffffffffffffffffffffffffffffffffffffffff1673ffffffffffffffffffffffffffffffffffffffff166108fc839081150290604051600060405180830381858888f193505050501580156101b6573d6000803e3d6000fd5b508273ffffffffffffffffffffffffffffffffffffffff166108fc829081150290604051600060405180830381858888f193505050501580156101fd573d6000803e3d6000fd5b50505050565b60008060010154905090565b61021883610345565b50600860009054906101000a900473ffffffffffffffffffffffffffffffffffffffff1673ffffffffffffffffffffffffffffffffffffffff1663733b0bca60008001546000600301546040518363ffffffff1660e01b815260040161027f9291906107df565b600060405180830381600087803b15801561029957600080fd5b505af11580156102ad573d6000803e3d6000fd5b50505050600760009054906101000a900473ffffffffffffffffffffffffffffffffffffffff1673ffffffffffffffffffffffffffffffffffffffff1663a0e12efe83836040518363ffffffff1660e01b815260040161030e9291906108dc565b600060405180830381600087803b15801561032857600080fd5b505af115801561033c573d6000803e3d6000fd5b50505050505050565b60008082604051602001610359919061094f565b60405160208183030381529060405280519060200120905060006006015481146103b8576040517f08c379a00000000000000000000000000000000000000000000000000000000081526004016103af906109b2565b60405180910390fd5b6001915050919050565b6000604051905090565b600080fd5b600080fd5b600073ffffffffffffffffffffffffffffffffffffffff82169050919050565b6000610401826103d6565b9050919050565b610411816103f6565b811461041c57600080fd5b50565b60008135905061042e81610408565b92915050565b60006020828403121561044a576104496103cc565b5b60006104588482850161041f565b91505092915050565b6000819050919050565b61047481610461565b82525050565b600060208201905061048f600083018461046b565b92915050565b600080fd5b600080fd5b6000601f19601f8301169050919050565b7f4e487b7100000000000000000000000000000000000000000000000000000000600052604160045260246000fd5b6104e88261049f565b810181811067ffffffffffffffff82111715610507576105066104b0565b5b80604052505050565b600061051a6103c2565b905061052682826104df565b919050565b600067ffffffffffffffff821115610546576105456104b0565b5b61054f8261049f565b9050602081019050919050565b82818337600083830152505050565b600061057e6105798461052b565b610510565b90508281526020810184848401111561059a5761059961049a565b5b6105a584828561055c565b509392505050565b600082601f8301126105c2576105c1610495565b5b81356105d284826020860161056b565b91505092915050565b600067ffffffffffffffff8211156105f6576105f56104b0565b5b6105ff8261049f565b9050602081019050919050565b600061061f61061a846105db565b610510565b90508281526020810184848401111561063b5761063a61049a565b5b61064684828561055c565b509392505050565b600082601f83011261066357610662610495565b5b813561067384826020860161060c565b91505092915050565b600080600060608486031215610695576106946103cc565b5b600084013567ffffffffffffffff8111156106b3576106b26103d1565b5b6106bf868287016105ad565b935050602084013567ffffffffffffffff8111156106e0576106df6103d1565b5b6106ec868287016105ad565b925050604084013567ffffffffffffffff81111561070d5761070c6103d1565b5b6107198682870161064e565b9150509250925092565b61072c81610461565b811461073757600080fd5b50565b60008151905061074981610723565b92915050565b600060208284031215610765576107646103cc565b5b60006107738482850161073a565b91505092915050565b7f4e487b7100000000000000000000000000000000000000000000000000000000600052601160045260246000fd5b60006107b682610461565b91506107c183610461565b92508282039050818111156107d9576107d861077c565b5b92915050565b60006040820190506107f4600083018561046b565b610801602083018461046b565b9392505050565b600081519050919050565b600082825260208201905092915050565b60005b83811015610842578082015181840152602081019050610827565b60008484015250505050565b600061085982610808565b6108638185610813565b9350610873818560208601610824565b61087c8161049f565b840191505092915050565b600081519050919050565b600082825260208201905092915050565b60006108ae82610887565b6108b88185610892565b93506108c8818560208601610824565b6108d18161049f565b840191505092915050565b600060408201905081810360008301526108f6818561084e565b9050818103602083015261090a81846108a3565b90509392505050565b600081905092915050565b600061092982610808565b6109338185610913565b9350610943818560208601610824565b80840191505092915050565b600061095b828461091e565b915081905092915050565b7f496e70757420646f6573206e6f74206d61746368207365637265740000000000600082015250565b600061099c601b83610813565b91506109a782610966565b602082019050919050565b600060208201905081810360008301526109cb8161098f565b905091905056fea2646970667358221220e61017584e0e64ffc3524278fc2ba80cda84a8b8d66a0be4bed889064a4485ab64736f6c63430008110033a26469706673582212206c4c4a7a90fe27fdf09be9844d8f5819a725df8f1a4202b36613072cb40889b164736f6c63430008110033",
  "immutableReferences": {},
  "source": "// SPDX-License-Identifier: MIT\npragma solidity ^0.8.7;\n\nimport \"openzeppelin-solidity/contracts/utils/math/Math.sol\";\nimport \"./CosmoMatter.sol\";\nimport \"./CosmoSeed.sol\";\nimport \"./CosmoButter.sol\";\n\nimport \"./SeedAccounts.sol\";\nimport \"./ButterAccounts.sol\";\n\n/**\n * @dev Manages the matter balance of the CosmoNuts collection and handles interaction with the\n * ERC20 Token to mint, burn, and allocate balances\n * Acts as storage for the ERC 721 tokens on their created Seed and Butter contracts.\n */\n contract CosmoTreasury is SeedAccounts, ButterAccounts {\n\n    /**\n     * @dev Saved addresses include the contract which created the Treasury: UNIVERSE_ADDRESS, and\n     * the address of the CosmoNuts contract (NFTs) which is created after the Treasury and then updated: matter_ADDRESS.\n     */\n    //address public UNIVERSE_ADDRESS;\n    address public MATTER_ADDRESS;\n    uint256 public NUT_PRICE;\n    uint256 public MATTER_RATE;\n\n    /**\n     * @dev matterInUniverse is the Treasury's own account of the current ERC20 token supply available in Universe.\n     * matterInTreasury is the balanceOf ERC20 tokens that are assigned to the Treasury address and controlled by this contract.\n     * MATTER_RATE is the amount of matter it takes to create one NFT (used in calculating pricing) - set to 100\n     */\n    uint256 public matterInUniverse;\n    uint256 public matterInTreasury;\n\n    mapping(uint256 => address) public currentOwnerOfNut; // Record of current nut owners by address\n    mapping(uint256 => uint256) public matterBalanceOfNut; // Matter balance of each Nut recorded by the Treasury\n\n    uint256[] public nutsPayeeList; // List of nuts to be provided a balance\n\n    CosmoMatter matter;\n    //CosmoSeed seed;\n    //CosmoButter butter;\n\n    /**\n     *\n     */\n    constructor(address _matterAddress, uint256 _matterRate) {\n        MATTER_ADDRESS = _matterAddress;\n        MATTER_RATE = _matterRate;\n        matter = CosmoMatter(MATTER_ADDRESS);\n        matterInUniverse = matter.totalSupply();\n        matterInTreasury = matter.balanceOf(address(this));\n    }\n\n    /*\n    modifier onlyUniverse {\n        require(address(msg.sender) == UNIVERSE_ADDRESS, \"Caller is not Universe\");\n        _;\n    }\n    */\n\n    /*\n    function updateCosmosAddress(address _matterAddressNew) external onlyUniverse {\n        MATTER_ADDRESS = _matterAddressNew;\n    }\n    */\n\n    //function updateNutPrice(uint256 _setNutPrice) external onlyUniverse {\n    //    NUT_PRICE = _setNutPrice;\n    //}\n\n    function calcMatterNeeded(uint256 _nutId) public view returns (uint256) {\n        return MATTER_RATE ^ (seedsOfNut[_nutId] + 1);\n    }\n\n    function spawnSeed(uint256 _nutId, bytes32 _secretHash, uint256 _matterContributed) external payable {\n        uint256 ethToHold = NUT_PRICE ^ (seedsGrownOfNut[_nutId] + 1);\n        require(msg.value >= ethToHold, \"Ether value is not enough\");\n        //matter = CosmoMatter(MATTER_ADDRESS);\n\n        uint256 matterToBurn = calcMatterNeeded(_nutId);\n        uint256 matterOfOwner = matter.balanceOf((currentOwnerOfNut[_nutId]));\n\n        require(matterOfOwner >= matterToBurn, \"Matter balance is not enough\");\n        require(_matterContributed >= matterToBurn, \"Not enough matter given\");\n\n        CosmoSeed seed = new CosmoSeed(\n            seedsCreated, _nutId, address(this), _secretHash\n            //MATTER_ADDRESS, _nutId, seedsCreated, _secretHash, address(this), NUT_PRICE\n        );\n        integrateSeed(_nutId, seedsCreated, address(seed));\n\n        uint256 excessMatter = _matterContributed - matterToBurn;\n\n        matter.burn(matterToBurn);\n        matter.transfer(address(seed), excessMatter);\n        payable(address(seed)).transfer(msg.value);\n    }\n\n    function growSeedFromNut(uint256 _seedId, uint256 _matterNeeded) external {\n        //matter = CosmoMatter(MATTER_ADDRESS);\n        require(matter.balanceOf(address(msg.sender)) >= _matterNeeded, \"Not enough matter\");\n\n        address seedAddress = seedLocations[_seedId];\n        CosmoSeed seed = CosmoSeed(seedAddress);\n\n        //address nutOwner = currentOwnerOfNut[seed.NUT_ID()];\n        address nutOwner = currentOwnerOfNut[seed.nutId()];\n        matter.transfer(nutOwner, _matterNeeded);\n        matter.mintMatter(address(this), 1);\n\n        seed.degradeSeed(nutOwner);\n\n        matterInUniverse = matter.totalSupply();\n        matterInTreasury = matter.balanceOf(address(this));\n\n        growSeed(_seedId);\n\n    }\n\n    /**\n     * Creating new butter means the creation of a contract where other users can withdraw matter from.\n     * Need to contribute butter (which can only be done if you have a Nut with the desired level of matter to give away.\n     * A secret message is provided in hash form and checked for verification to withdraw funds.\n     */\n    function newButter(uint256 _nutId, uint256 _matterContributed, uint256 _matterDrawRate, bytes32 _secretHash) external {\n        address nutOwner = currentOwnerOfNut[_nutId];\n        // Do we need to be doing these checks twice? Or really new check that caller is from contract (? or person who clicked?)\n        require(nutOwner == address(msg.sender), \"Caller is not the owner\");\n        require(matterBalanceOfNut[_nutId] >= _matterContributed, \"Not have enough matter\");\n        //matter = CosmoMatter(MATTER_ADDRESS);\n        require(_matterContributed <= matter.balanceOf(nutOwner), \"Not high enough\");\n        require(_matterContributed % _matterDrawRate == 0, \"Draw rate not divisible\");\n\n        /**\n         * A nut must have already grown a seed to start being counted as part of the deficiency list.\n         */\n        if (seedsGrownOfNut[_nutId] > 0) {\n            butterDeficiencyInUniverse += _matterContributed;\n            butterDeficiencyOfNut[_nutId] += _matterContributed;\n            nutsPayeeList.push(_nutId);\n        }\n\n        /**\n         * The Treasury wants to distribute its available balance to the nutsPayeeList.\n         * It will distribute the minimum of either its available balance or the deficiency in the Universe.\n         * All payees are awarded one matter and moved to the end of the list.\n         * When their maximum available balance is reached, they are removed from the payee list.\n         */\n        matterInTreasury = matter.balanceOf(address(this));\n        if (matterInTreasury > 0) {\n            uint256 toDistribute = Math.min(matterInTreasury, butterDeficiencyInUniverse);\n\n            uint256 index = 0;\n            for (uint j = 0; j != toDistribute; j++) {\n                uint256 allPayees = nutsPayeeList.length;\n                if (allPayees == 0) {\n                    break;\n                }\n\n                if (j > allPayees) {\n                    index = 0;\n                }\n\n                uint256 nutPayeeId = nutsPayeeList[index];\n                address nutOwnerPayee = currentOwnerOfNut[nutPayeeId];\n                uint256 maxMatter = seedsGrownOfNut[nutPayeeId] * MATTER_RATE;\n                if (matterBalanceOfNut[nutPayeeId] == maxMatter) {\n                    delete nutsPayeeList[index];\n                } else {\n                    matter.transfer(nutOwnerPayee, 1);\n                    nutsPayeeList.push(nutPayeeId);\n                    delete nutsPayeeList[index];\n\n                    butterDeficiencyInUniverse -= 1;\n                    butterDeficiencyOfNut[nutPayeeId] -= 1;\n                }\n\n                index++;\n           }\n           matterInTreasury = matter.balanceOf(address(this));\n        }\n\n        CosmoButter butter = new CosmoButter(\n            butterJars, _nutId, _matterContributed, _matterDrawRate, address(this), _secretHash\n        );\n        matter.transfer(address(butter), _matterContributed);\n        churnButter(_nutId, butterJars, address(butter), _matterContributed);\n\n    }\n\n    /**\n     * Runs from CosmoButter contract when someone requests to draw matter.\n     */\n    function butterDrawn(address _drawer, uint256 _butterId, uint256 _balance, uint256 _currentBalance) external {\n        //matter = CosmoMatter(MATTER_ADDRESS);\n        matter.transfer(_drawer, _balance);\n        matter.mintMatter(address(this), _balance);\n        distributeButter(_butterId, _balance, _currentBalance);\n\n        matterInUniverse = matter.totalSupply();\n        matterInTreasury = matter.balanceOf(address(this));\n    }\n\n    function assignMintBalance(address _tokenOwner, uint256 _tokenId) external {\n        require(matterInTreasury >= MATTER_RATE, \"Not enough matter\");\n        //matter = CosmoMatter(MATTER_ADDRESS);\n        matter.transfer(_tokenOwner, MATTER_RATE);\n        matterBalanceOfNut[_tokenId] = MATTER_RATE;\n        matterInTreasury -= MATTER_RATE;\n    }\n\n}\n",
  "sourcePath": "/home/redlentils/Seafile/Websites/avatarnft/contracts/CosmoTreasury.sol",
  "compiler": {
    "name": "solc",
    "version": "0.8.17+commit.8df45f5f.Emscripten.clang"
  },
  "schemaVersion": "3.4.10",
  "updatedAt": "2022-10-04T09:27:14.272Z",
  "devdoc": {
    "details": "Manages the matter balance of the CosmoNuts collection and handles interaction with the ERC20 Token to mint, burn, and allocate balances Acts as storage for the ERC 721 tokens on their created Seed and Butter contracts.",
    "kind": "dev",
    "methods": {},
    "stateVariables": {
      "MATTER_ADDRESS": {
        "details": "Saved addresses include the contract which created the Treasury: UNIVERSE_ADDRESS, and the address of the CosmoNuts contract (NFTs) which is created after the Treasury and then updated: matter_ADDRESS."
      },
      "matterInUniverse": {
        "details": "matterInUniverse is the Treasury's own account of the current ERC20 token supply available in Universe. matterInTreasury is the balanceOf ERC20 tokens that are assigned to the Treasury address and controlled by this contract. MATTER_RATE is the amount of matter it takes to create one NFT (used in calculating pricing) - set to 100"
      }
    },
    "version": 1
  },
  "userdoc": {
    "kind": "user",
    "methods": {
      "butterDrawn(address,uint256,uint256,uint256)": {
        "notice": "Runs from CosmoButter contract when someone requests to draw matter."
      },
      "butterWeight()": {
        "notice": "butterWeight is the amount of matter in the universe thta is currently outstanding. butterSpread is the amount of matter that has been distributed from butterWeight, thus reducing its value. butterJams represent the total number of matter contracts created in the Universe."
      },
      "buttersOfNut(uint256,uint256)": {
        "notice": "buttersOfNut represents a list of all butter contracts created byt that nut. butterLocations represents the address of contract identifed by butterId."
      },
      "newButter(uint256,uint256,uint256,bytes32)": {
        "notice": "Creating new butter means the creation of a contract where other users can withdraw matter from. Need to contribute butter (which can only be done if you have a Nut with the desired level of matter to give away. A secret message is provided in hash form and checked for verification to withdraw funds."
      }
    },
    "version": 1
  }
}