{
  "contractName": "CosmoTreasury",
  "abi": [
    {
      "inputs": [],
      "name": "addressOf",
      "outputs": [
        {
          "internalType": "address",
          "name": "system",
          "type": "address"
        },
        {
          "internalType": "address",
          "name": "matter",
          "type": "address"
        },
        {
          "internalType": "address",
          "name": "treasury",
          "type": "address"
        },
        {
          "internalType": "address",
          "name": "cosmos",
          "type": "address"
        },
        {
          "internalType": "address",
          "name": "seedImplementation",
          "type": "address"
        },
        {
          "internalType": "address",
          "name": "butterImplementation",
          "type": "address"
        }
      ],
      "stateMutability": "view",
      "type": "function"
    },
    {
      "inputs": [
        {
          "internalType": "uint256",
          "name": "",
          "type": "uint256"
        }
      ],
      "name": "butterChurnedByNut",
      "outputs": [
        {
          "internalType": "uint256",
          "name": "",
          "type": "uint256"
        }
      ],
      "stateMutability": "view",
      "type": "function"
    },
    {
      "inputs": [],
      "name": "butterDeficiencyInUniverse",
      "outputs": [
        {
          "internalType": "uint256",
          "name": "",
          "type": "uint256"
        }
      ],
      "stateMutability": "view",
      "type": "function"
    },
    {
      "inputs": [
        {
          "internalType": "uint256",
          "name": "",
          "type": "uint256"
        }
      ],
      "name": "butterDeficiencyOfNut",
      "outputs": [
        {
          "internalType": "uint256",
          "name": "",
          "type": "uint256"
        }
      ],
      "stateMutability": "view",
      "type": "function"
    },
    {
      "inputs": [],
      "name": "butterJars",
      "outputs": [
        {
          "internalType": "uint256",
          "name": "",
          "type": "uint256"
        }
      ],
      "stateMutability": "view",
      "type": "function"
    },
    {
      "inputs": [
        {
          "internalType": "uint256",
          "name": "",
          "type": "uint256"
        }
      ],
      "name": "butterLocations",
      "outputs": [
        {
          "internalType": "address",
          "name": "",
          "type": "address"
        }
      ],
      "stateMutability": "view",
      "type": "function"
    },
    {
      "inputs": [],
      "name": "butterSpread",
      "outputs": [
        {
          "internalType": "uint256",
          "name": "",
          "type": "uint256"
        }
      ],
      "stateMutability": "view",
      "type": "function"
    },
    {
      "inputs": [],
      "name": "butterWeight",
      "outputs": [
        {
          "internalType": "uint256",
          "name": "",
          "type": "uint256"
        }
      ],
      "stateMutability": "view",
      "type": "function"
    },
    {
      "inputs": [
        {
          "internalType": "uint256",
          "name": "",
          "type": "uint256"
        },
        {
          "internalType": "uint256",
          "name": "",
          "type": "uint256"
        }
      ],
      "name": "buttersOfNut",
      "outputs": [
        {
          "internalType": "uint256",
          "name": "",
          "type": "uint256"
        }
      ],
      "stateMutability": "view",
      "type": "function"
    },
    {
      "inputs": [
        {
          "internalType": "uint256",
          "name": "",
          "type": "uint256"
        }
      ],
      "name": "isButterActive",
      "outputs": [
        {
          "internalType": "bool",
          "name": "",
          "type": "bool"
        }
      ],
      "stateMutability": "view",
      "type": "function"
    },
    {
      "inputs": [
        {
          "internalType": "uint256",
          "name": "",
          "type": "uint256"
        }
      ],
      "name": "isSeedActive",
      "outputs": [
        {
          "internalType": "bool",
          "name": "",
          "type": "bool"
        }
      ],
      "stateMutability": "view",
      "type": "function"
    },
    {
      "inputs": [
        {
          "internalType": "uint256",
          "name": "",
          "type": "uint256"
        },
        {
          "internalType": "uint256",
          "name": "",
          "type": "uint256"
        }
      ],
      "name": "isSeedOfNut",
      "outputs": [
        {
          "internalType": "bool",
          "name": "",
          "type": "bool"
        }
      ],
      "stateMutability": "view",
      "type": "function"
    },
    {
      "inputs": [
        {
          "internalType": "uint256",
          "name": "",
          "type": "uint256"
        }
      ],
      "name": "matterBalanceOfNut",
      "outputs": [
        {
          "internalType": "uint256",
          "name": "",
          "type": "uint256"
        }
      ],
      "stateMutability": "view",
      "type": "function"
    },
    {
      "inputs": [
        {
          "internalType": "uint256",
          "name": "",
          "type": "uint256"
        }
      ],
      "name": "matterMintedByNut",
      "outputs": [
        {
          "internalType": "uint256",
          "name": "",
          "type": "uint256"
        }
      ],
      "stateMutability": "view",
      "type": "function"
    },
    {
      "inputs": [
        {
          "internalType": "uint256",
          "name": "_nutId",
          "type": "uint256"
        }
      ],
      "name": "numOfSeedsGrownOf",
      "outputs": [
        {
          "internalType": "uint256",
          "name": "",
          "type": "uint256"
        }
      ],
      "stateMutability": "view",
      "type": "function"
    },
    {
      "inputs": [
        {
          "internalType": "uint256",
          "name": "_nutId",
          "type": "uint256"
        }
      ],
      "name": "numOfSeedsOf",
      "outputs": [
        {
          "internalType": "uint256",
          "name": "",
          "type": "uint256"
        }
      ],
      "stateMutability": "view",
      "type": "function"
    },
    {
      "inputs": [
        {
          "internalType": "uint256",
          "name": "_nutId",
          "type": "uint256"
        }
      ],
      "name": "numberOfButterJars",
      "outputs": [
        {
          "internalType": "uint256",
          "name": "",
          "type": "uint256"
        }
      ],
      "stateMutability": "view",
      "type": "function"
    },
    {
      "inputs": [],
      "name": "nut",
      "outputs": [
        {
          "internalType": "uint256",
          "name": "price",
          "type": "uint256"
        },
        {
          "internalType": "uint256",
          "name": "rate",
          "type": "uint256"
        }
      ],
      "stateMutability": "view",
      "type": "function"
    },
    {
      "inputs": [
        {
          "internalType": "uint256",
          "name": "",
          "type": "uint256"
        }
      ],
      "name": "nutOfButter",
      "outputs": [
        {
          "internalType": "uint256",
          "name": "",
          "type": "uint256"
        }
      ],
      "stateMutability": "view",
      "type": "function"
    },
    {
      "inputs": [
        {
          "internalType": "uint256",
          "name": "",
          "type": "uint256"
        }
      ],
      "name": "nutOfSeed",
      "outputs": [
        {
          "internalType": "uint256",
          "name": "",
          "type": "uint256"
        }
      ],
      "stateMutability": "view",
      "type": "function"
    },
    {
      "inputs": [
        {
          "internalType": "uint256",
          "name": "",
          "type": "uint256"
        }
      ],
      "name": "nutsPayeeList",
      "outputs": [
        {
          "internalType": "uint256",
          "name": "",
          "type": "uint256"
        }
      ],
      "stateMutability": "view",
      "type": "function"
    },
    {
      "inputs": [
        {
          "internalType": "uint256",
          "name": "",
          "type": "uint256"
        }
      ],
      "name": "seedLocations",
      "outputs": [
        {
          "internalType": "address",
          "name": "",
          "type": "address"
        }
      ],
      "stateMutability": "view",
      "type": "function"
    },
    {
      "inputs": [],
      "name": "seedsCreated",
      "outputs": [
        {
          "internalType": "uint256",
          "name": "",
          "type": "uint256"
        }
      ],
      "stateMutability": "view",
      "type": "function"
    },
    {
      "inputs": [
        {
          "internalType": "uint256",
          "name": "",
          "type": "uint256"
        },
        {
          "internalType": "uint256",
          "name": "",
          "type": "uint256"
        }
      ],
      "name": "seedsGrownOfNut",
      "outputs": [
        {
          "internalType": "uint256",
          "name": "",
          "type": "uint256"
        }
      ],
      "stateMutability": "view",
      "type": "function"
    },
    {
      "inputs": [
        {
          "internalType": "uint256",
          "name": "",
          "type": "uint256"
        },
        {
          "internalType": "uint256",
          "name": "",
          "type": "uint256"
        }
      ],
      "name": "seedsOfNut",
      "outputs": [
        {
          "internalType": "uint256",
          "name": "",
          "type": "uint256"
        }
      ],
      "stateMutability": "view",
      "type": "function"
    },
    {
      "inputs": [
        {
          "internalType": "address",
          "name": "_systemAddress",
          "type": "address"
        },
        {
          "internalType": "address",
          "name": "_matterAddress",
          "type": "address"
        },
        {
          "internalType": "address",
          "name": "_seedImplementation",
          "type": "address"
        },
        {
          "internalType": "address",
          "name": "_butterImplementation",
          "type": "address"
        },
        {
          "internalType": "uint256",
          "name": "_price",
          "type": "uint256"
        },
        {
          "internalType": "uint256",
          "name": "_rate",
          "type": "uint256"
        }
      ],
      "name": "initialize",
      "outputs": [],
      "stateMutability": "nonpayable",
      "type": "function"
    },
    {
      "inputs": [],
      "name": "viewCosmos",
      "outputs": [
        {
          "internalType": "address",
          "name": "",
          "type": "address"
        }
      ],
      "stateMutability": "view",
      "type": "function"
    },
    {
      "inputs": [
        {
          "internalType": "uint256",
          "name": "_nutId",
          "type": "uint256"
        }
      ],
      "name": "matterOf",
      "outputs": [
        {
          "internalType": "uint256",
          "name": "matterOfNutOwner",
          "type": "uint256"
        }
      ],
      "stateMutability": "view",
      "type": "function"
    },
    {
      "inputs": [
        {
          "internalType": "address",
          "name": "_cosmoAddress",
          "type": "address"
        }
      ],
      "name": "linkCosmo",
      "outputs": [],
      "stateMutability": "nonpayable",
      "type": "function"
    },
    {
      "inputs": [],
      "name": "getVaultLocation",
      "outputs": [
        {
          "internalType": "address",
          "name": "",
          "type": "address"
        }
      ],
      "stateMutability": "nonpayable",
      "type": "function"
    },
    {
      "inputs": [],
      "name": "getPrice",
      "outputs": [
        {
          "internalType": "uint256",
          "name": "",
          "type": "uint256"
        }
      ],
      "stateMutability": "view",
      "type": "function"
    },
    {
      "inputs": [
        {
          "internalType": "address",
          "name": "_owner",
          "type": "address"
        },
        {
          "internalType": "address",
          "name": "_spender",
          "type": "address"
        },
        {
          "internalType": "uint256",
          "name": "_allowance",
          "type": "uint256"
        }
      ],
      "name": "grantApproval",
      "outputs": [
        {
          "internalType": "bool",
          "name": "",
          "type": "bool"
        }
      ],
      "stateMutability": "nonpayable",
      "type": "function"
    },
    {
      "inputs": [
        {
          "internalType": "address",
          "name": "_from",
          "type": "address"
        },
        {
          "internalType": "uint256",
          "name": "_toBurn",
          "type": "uint256"
        }
      ],
      "name": "burnMatterFrom",
      "outputs": [
        {
          "internalType": "uint256",
          "name": "newMatterSupply",
          "type": "uint256"
        }
      ],
      "stateMutability": "nonpayable",
      "type": "function"
    },
    {
      "inputs": [
        {
          "internalType": "uint256",
          "name": "_nutId",
          "type": "uint256"
        }
      ],
      "name": "matterNeeded",
      "outputs": [
        {
          "internalType": "uint256",
          "name": "",
          "type": "uint256"
        }
      ],
      "stateMutability": "view",
      "type": "function"
    },
    {
      "inputs": [
        {
          "internalType": "uint256",
          "name": "_nutId",
          "type": "uint256"
        }
      ],
      "name": "ethToHold",
      "outputs": [
        {
          "internalType": "uint256",
          "name": "",
          "type": "uint256"
        }
      ],
      "stateMutability": "view",
      "type": "function"
    },
    {
      "inputs": [
        {
          "internalType": "uint256",
          "name": "_nutId",
          "type": "uint256"
        },
        {
          "internalType": "bytes32",
          "name": "_secretHash",
          "type": "bytes32"
        }
      ],
      "name": "spawnSeed",
      "outputs": [
        {
          "internalType": "address",
          "name": "seedLocation",
          "type": "address"
        }
      ],
      "stateMutability": "nonpayable",
      "type": "function"
    },
    {
      "inputs": [
        {
          "internalType": "uint256",
          "name": "_seedId",
          "type": "uint256"
        },
        {
          "internalType": "uint256",
          "name": "_matterNeeded",
          "type": "uint256"
        }
      ],
      "name": "seedFromNut",
      "outputs": [
        {
          "internalType": "bool",
          "name": "",
          "type": "bool"
        }
      ],
      "stateMutability": "nonpayable",
      "type": "function"
    },
    {
      "inputs": [
        {
          "internalType": "uint256",
          "name": "_nutId",
          "type": "uint256"
        },
        {
          "internalType": "uint256",
          "name": "_matterContributed",
          "type": "uint256"
        },
        {
          "internalType": "uint256",
          "name": "_matterDrawRate",
          "type": "uint256"
        },
        {
          "internalType": "bytes32",
          "name": "_secretHash",
          "type": "bytes32"
        }
      ],
      "name": "newButter",
      "outputs": [
        {
          "internalType": "bool",
          "name": "",
          "type": "bool"
        }
      ],
      "stateMutability": "nonpayable",
      "type": "function"
    },
    {
      "inputs": [
        {
          "internalType": "address",
          "name": "_drawer",
          "type": "address"
        },
        {
          "internalType": "uint256",
          "name": "_butterId",
          "type": "uint256"
        },
        {
          "internalType": "uint256",
          "name": "_balance",
          "type": "uint256"
        },
        {
          "internalType": "uint256",
          "name": "_currentBalance",
          "type": "uint256"
        }
      ],
      "name": "butterDrawn",
      "outputs": [
        {
          "internalType": "bool",
          "name": "",
          "type": "bool"
        }
      ],
      "stateMutability": "nonpayable",
      "type": "function"
    },
    {
      "inputs": [
        {
          "internalType": "address",
          "name": "_tokenOwner",
          "type": "address"
        },
        {
          "internalType": "uint256",
          "name": "_tokenId",
          "type": "uint256"
        }
      ],
      "name": "assignMintBalance",
      "outputs": [
        {
          "internalType": "bool",
          "name": "",
          "type": "bool"
        }
      ],
      "stateMutability": "nonpayable",
      "type": "function"
    }
  ],
  "bytecode": "0x6080604052600080556000600755600060085560006009556000600f5534801561002857600080fd5b506131db806100386000396000f3fe608060405234801561001057600080fd5b50600436106102485760003560e01c806375b689aa1161013b578063bb5833af116100b8578063f3d8c7a71161007c578063f3d8c7a714610819578063f50d434914610849578063f6317f8d14610879578063fe774f9d14610897578063ff2cb347146108c757610248565b8063bb5833af14610761578063d4d8103214610791578063d7c41c79146107c1578063df4f5ccc146107dd578063ea988be8146107fb57610248565b80639cee22b1116100ff5780639cee22b114610692578063a06fc90b146106c2578063a56c5a78146106f2578063a83851b91461070e578063aef054ce1461073157610248565b806375b689aa146105c65780638ed3df0f146105e45780639578d3df1461061457806398d5fdca146106445780639975a8a21461066257610248565b806326342ea4116101c957806349a6b51f1161018d57806349a6b51f146104e85780634ffe5a6f1461050657806353f97bc8146105365780635fc4b363146105665780636b651a2c1461059657610248565b806326342ea41461040a578063282adc8c146104285780633279bd4f146104585780633c8023ad1461048857806347634e1c146104b857610248565b8063171e844111610210578063171e84411461031a5780631821907a1461034a5780631c85949c1461037a5780631e0b3964146103aa57806323f526c0146103da57610248565b806302760a481461024d57806303f5de9d1461027d57806304360286146102ad5780631298896e146102cb57806315d3b7a0146102fb575b600080fd5b610267600480360381019061026291906125ec565b6108f7565b6040516102749190612634565b60405180910390f35b61029760048036038101906102929190612685565b610917565b6040516102a49190612634565b60405180910390f35b6102b56110e6565b6040516102c2919061272d565b60405180910390f35b6102e560048036038101906102e09190612748565b611113565b6040516102f29190612797565b60405180910390f35b610303611144565b6040516103119291906127b2565b60405180910390f35b610334600480360381019061032f91906125ec565b611156565b6040516103419190612634565b60405180910390f35b610364600480360381019061035f91906125ec565b611176565b6040516103719190612797565b60405180910390f35b610394600480360381019061038f9190612807565b61118e565b6040516103a19190612634565b60405180910390f35b6103c460048036038101906103bf9190612748565b61134b565b6040516103d19190612797565b60405180910390f35b6103f460048036038101906103ef91906125ec565b61137c565b604051610401919061272d565b60405180910390f35b6104126113af565b60405161041f9190612797565b60405180910390f35b610442600480360381019061043d91906125ec565b6113b5565b60405161044f9190612797565b60405180910390f35b610472600480360381019061046d91906125ec565b6113d5565b60405161047f9190612797565b60405180910390f35b6104a2600480360381019061049d9190612748565b6113ed565b6040516104af9190612797565b60405180910390f35b6104d260048036038101906104cd91906125ec565b61141e565b6040516104df9190612797565b60405180910390f35b6104f0611436565b6040516104fd9190612797565b60405180910390f35b610520600480360381019061051b91906125ec565b61143c565b60405161052d9190612797565b60405180910390f35b610550600480360381019061054b9190612748565b611454565b60405161055d9190612634565b60405180910390f35b610580600480360381019061057b91906125ec565b611483565b60405161058d9190612797565b60405180910390f35b6105b060048036038101906105ab91906125ec565b6115ce565b6040516105bd9190612797565b60405180910390f35b6105ce6115ee565b6040516105db919061272d565b60405180910390f35b6105fe60048036038101906105f991906125ec565b61168b565b60405161060b9190612797565b60405180910390f35b61062e600480360381019061062991906125ec565b6116a4565b60405161063b9190612797565b60405180910390f35b61064c6116c8565b6040516106599190612797565b60405180910390f35b61067c600480360381019061067791906125ec565b6116d5565b6040516106899190612797565b60405180910390f35b6106ac60048036038101906106a79190612847565b6116f5565b6040516106b99190612634565b60405180910390f35b6106dc60048036038101906106d79190612748565b611824565b6040516106e99190612634565b60405180910390f35b61070c600480360381019061070791906128ae565b611b34565b005b610716611b7b565b604051610728969594939291906128db565b60405180910390f35b61074b600480360381019061074691906125ec565b611c65565b604051610758919061272d565b60405180910390f35b61077b600480360381019061077691906125ec565b611c98565b6040516107889190612797565b60405180910390f35b6107ab60048036038101906107a691906125ec565b611cb1565b6040516107b89190612797565b60405180910390f35b6107db60048036038101906107d6919061293c565b611cc9565b005b6107e5611e39565b6040516107f29190612797565b60405180910390f35b610803611e3f565b6040516108109190612797565b60405180910390f35b610833600480360381019061082e91906129c9565b611e45565b6040516108409190612634565b60405180910390f35b610863600480360381019061085e91906125ec565b611ef8565b6040516108709190612797565b60405180910390f35b610881611f10565b60405161088e9190612797565b60405180910390f35b6108b160048036038101906108ac9190612a1c565b611f16565b6040516108be919061272d565b60405180910390f35b6108e160048036038101906108dc9190612807565b611ffa565b6040516108ee9190612797565b60405180910390f35b60116020528060005260406000206000915054906101000a900460ff1681565b600080601260030160009054906101000a900473ffffffffffffffffffffffffffffffffffffffff1673ffffffffffffffffffffffffffffffffffffffff166383638710876040518263ffffffff1660e01b81526004016109789190612797565b602060405180830381865afa158015610995573d6000803e3d6000fd5b505050506040513d601f19601f820116820180604052508101906109b99190612a71565b90503373ffffffffffffffffffffffffffffffffffffffff168173ffffffffffffffffffffffffffffffffffffffff1614610a29576040517f08c379a0000000000000000000000000000000000000000000000000000000008152600401610a2090612afb565b60405180910390fd5b84601a6000888152602001908152602001600020541015610a7f576040517f08c379a0000000000000000000000000000000000000000000000000000000008152600401610a7690612b67565b60405180910390fd5b6000601260010160009054906101000a900473ffffffffffffffffffffffffffffffffffffffff1690508073ffffffffffffffffffffffffffffffffffffffff166370a08231836040518263ffffffff1660e01b8152600401610ae2919061272d565b602060405180830381865afa158015610aff573d6000803e3d6000fd5b505050506040513d601f19601f82011682018060405250810190610b239190612b9c565b861115610b65576040517f08c379a0000000000000000000000000000000000000000000000000000000008152600401610b5c90612c15565b60405180910390fd5b60008587610b739190612c64565b14610bb3576040517f08c379a0000000000000000000000000000000000000000000000000000000008152600401610baa90612ce1565b60405180910390fd5b6000610bbe886115ce565b1115610c315785600f6000828254610bd69190612d30565b9250508190555085601060008981526020019081526020016000206000828254610c009190612d30565b92505081905550601b8790806001815401808255809150506001900390600052602060002001600090919091909150555b60008173ffffffffffffffffffffffffffffffffffffffff166370a08231601260020160009054906101000a900473ffffffffffffffffffffffffffffffffffffffff166040518263ffffffff1660e01b8152600401610c91919061272d565b602060405180830381865afa158015610cae573d6000803e3d6000fd5b505050506040513d601f19601f82011682018060405250810190610cd29190612b9c565b90506000811115610f7b576000610ceb82600f5461212a565b90506000805b828114610f77576000601b80549050905060008103610d105750610f77565b80821115610d1d57600092505b6000601b8481548110610d3357610d32612d64565b5b906000526020600020015490506000601260030160009054906101000a900473ffffffffffffffffffffffffffffffffffffffff1673ffffffffffffffffffffffffffffffffffffffff166383638710836040518263ffffffff1660e01b8152600401610da09190612797565b602060405180830381865afa158015610dbd573d6000803e3d6000fd5b505050506040513d601f19601f82011682018060405250810190610de19190612a71565b90506000601860010154610df4846115ce565b610dfe9190612d93565b905080601a60008581526020019081526020016000205403610e4157601b8681548110610e2e57610e2d612d64565b5b9060005260206000200160009055610f52565b8873ffffffffffffffffffffffffffffffffffffffff1663a9059cbb8360016040518363ffffffff1660e01b8152600401610e7d929190612e1a565b6020604051808303816000875af1158015610e9c573d6000803e3d6000fd5b505050506040513d601f19601f82011682018060405250810190610ec09190612e6f565b50601b839080600181540180825580915050600190039060005260206000200160009091909190915055601b8681548110610efe57610efd612d64565b5b90600052602060002001600090556001600f6000828254610f1f9190612e9c565b925050819055506001601060008581526020019081526020016000206000828254610f4a9190612e9c565b925050819055505b8580610f5d90612ed0565b965050505050508080610f6f90612ed0565b915050610cf1565b5050505b6000610fab601260050160009054906101000a900473ffffffffffffffffffffffffffffffffffffffff16612143565b90508073ffffffffffffffffffffffffffffffffffffffff1663f8257f876009548b8b8b601260020160009054906101000a900473ffffffffffffffffffffffffffffffffffffffff168c6040518763ffffffff1660e01b815260040161101796959493929190612f27565b600060405180830381600087803b15801561103157600080fd5b505af1158015611045573d6000803e3d6000fd5b505050508273ffffffffffffffffffffffffffffffffffffffff1663a9059cbb828a6040518363ffffffff1660e01b8152600401611084929190612f88565b6020604051808303816000875af11580156110a3573d6000803e3d6000fd5b505050506040513d601f19601f820116820180604052508101906110c79190612e6f565b506110d689600954838b612217565b6001945050505050949350505050565b6000601260030160009054906101000a900473ffffffffffffffffffffffffffffffffffffffff16905090565b6002602052816000526040600020818154811061112f57600080fd5b90600052602060002001600091509150505481565b60188060000154908060010154905082565b60066020528060005260406000206000915054906101000a900460ff1681565b600d6020528060005260406000206000915090505481565b600080601260010160009054906101000a900473ffffffffffffffffffffffffffffffffffffffff1690506018600101548173ffffffffffffffffffffffffffffffffffffffff166370a08231601260020160009054906101000a900473ffffffffffffffffffffffffffffffffffffffff166040518263ffffffff1660e01b815260040161121d919061272d565b602060405180830381865afa15801561123a573d6000803e3d6000fd5b505050506040513d601f19601f8201168201806040525081019061125e9190612b9c565b101561129f576040517f08c379a000000000000000000000000000000000000000000000000000000000815260040161129690612ffd565b60405180910390fd5b8073ffffffffffffffffffffffffffffffffffffffff1663a9059cbb856018600101546040518363ffffffff1660e01b81526004016112df929190612f88565b6020604051808303816000875af11580156112fe573d6000803e3d6000fd5b505050506040513d601f19601f820116820180604052508101906113229190612e6f565b50601860010154601a600085815260200190815260200160002081905550600191505092915050565b600a602052816000526040600020818154811061136757600080fd5b90600052602060002001600091509150505481565b60056020528060005260406000206000915054906101000a900473ffffffffffffffffffffffffffffffffffffffff1681565b60095481565b6000600a6000838152602001908152602001600020805490509050919050565b600c6020528060005260406000206000915090505481565b6001602052816000526040600020818154811061140957600080fd5b90600052602060002001600091509150505481565b600e6020528060005260406000206000915090505481565b60085481565b60106020528060005260406000206000915090505481565b60046020528160005260406000206020528060005260406000206000915091509054906101000a900460ff1681565b600080601260030160009054906101000a900473ffffffffffffffffffffffffffffffffffffffff1673ffffffffffffffffffffffffffffffffffffffff166383638710846040518263ffffffff1660e01b81526004016114e49190612797565b602060405180830381865afa158015611501573d6000803e3d6000fd5b505050506040513d601f19601f820116820180604052508101906115259190612a71565b9050601260010160009054906101000a900473ffffffffffffffffffffffffffffffffffffffff1673ffffffffffffffffffffffffffffffffffffffff1663d798b462826040518263ffffffff1660e01b8152600401611585919061272d565b602060405180830381865afa1580156115a2573d6000803e3d6000fd5b505050506040513d601f19601f820116820180604052508101906115c69190612b9c565b915050919050565b600060026000838152602001908152602001600020805490509050919050565b6000601260030160009054906101000a900473ffffffffffffffffffffffffffffffffffffffff1673ffffffffffffffffffffffffffffffffffffffff16630ef8dd956040518163ffffffff1660e01b81526004016020604051808303816000875af1158015611662573d6000803e3d6000fd5b505050506040513d601f19601f820116820180604052508101906116869190612a71565b905090565b6000611696826116d5565b601860010154189050919050565b601b81815481106116b457600080fd5b906000526020600020016000915090505481565b6000601860000154905090565b600060016000838152602001908152602001600020805490509050919050565b600080601260010160009054906101000a900473ffffffffffffffffffffffffffffffffffffffff1690508073ffffffffffffffffffffffffffffffffffffffff1663a9059cbb87866040518363ffffffff1660e01b815260040161175b929190612f88565b6020604051808303816000875af115801561177a573d6000803e3d6000fd5b505050506040513d601f19601f8201168201806040525081019061179e9190612e6f565b508073ffffffffffffffffffffffffffffffffffffffff16634bbc1bcd30866040518363ffffffff1660e01b81526004016117da929190612f88565b600060405180830381600087803b1580156117f457600080fd5b505af1158015611808573d6000803e3d6000fd5b5050505061181785858561234a565b6001915050949350505050565b6000806005600085815260200190815260200160002060009054906101000a900473ffffffffffffffffffffffffffffffffffffffff1690508073ffffffffffffffffffffffffffffffffffffffff163373ffffffffffffffffffffffffffffffffffffffff16146118cb576040517f08c379a00000000000000000000000000000000000000000000000000000000081526004016118c29061308f565b60405180910390fd5b60008190506000601260030160009054906101000a900473ffffffffffffffffffffffffffffffffffffffff1673ffffffffffffffffffffffffffffffffffffffff1663836387108373ffffffffffffffffffffffffffffffffffffffff1663685771f46040518163ffffffff1660e01b8152600401602060405180830381865afa15801561195e573d6000803e3d6000fd5b505050506040513d601f19601f820116820180604052508101906119829190612b9c565b6040518263ffffffff1660e01b815260040161199e9190612797565b602060405180830381865afa1580156119bb573d6000803e3d6000fd5b505050506040513d601f19601f820116820180604052508101906119df9190612a71565b90506000601260010160009054906101000a900473ffffffffffffffffffffffffffffffffffffffff1690508073ffffffffffffffffffffffffffffffffffffffff1663a9059cbb83886040518363ffffffff1660e01b8152600401611a46929190612f88565b6020604051808303816000875af1158015611a65573d6000803e3d6000fd5b505050506040513d601f19601f82011682018060405250810190611a899190612e6f565b508073ffffffffffffffffffffffffffffffffffffffff16634bbc1bcd601260020160009054906101000a900473ffffffffffffffffffffffffffffffffffffffff1660016040518363ffffffff1660e01b8152600401611aeb929190612e1a565b600060405180830381600087803b158015611b0557600080fd5b505af1158015611b19573d6000803e3d6000fd5b50505050611b2687612404565b600194505050505092915050565b80601260030160006101000a81548173ffffffffffffffffffffffffffffffffffffffff021916908373ffffffffffffffffffffffffffffffffffffffff16021790555050565b60128060000160009054906101000a900473ffffffffffffffffffffffffffffffffffffffff16908060010160009054906101000a900473ffffffffffffffffffffffffffffffffffffffff16908060020160009054906101000a900473ffffffffffffffffffffffffffffffffffffffff16908060030160009054906101000a900473ffffffffffffffffffffffffffffffffffffffff16908060040160009054906101000a900473ffffffffffffffffffffffffffffffffffffffff16908060050160009054906101000a900473ffffffffffffffffffffffffffffffffffffffff16905086565b600b6020528060005260406000206000915054906101000a900473ffffffffffffffffffffffffffffffffffffffff1681565b6000611ca3826115ce565b601860000154189050919050565b60036020528060005260406000206000915090505481565b85601260000160006101000a81548173ffffffffffffffffffffffffffffffffffffffff021916908373ffffffffffffffffffffffffffffffffffffffff16021790555084601260010160006101000a81548173ffffffffffffffffffffffffffffffffffffffff021916908373ffffffffffffffffffffffffffffffffffffffff16021790555030601260020160006101000a81548173ffffffffffffffffffffffffffffffffffffffff021916908373ffffffffffffffffffffffffffffffffffffffff160217905550816018600001819055508060186001018190555083601260040160006101000a81548173ffffffffffffffffffffffffffffffffffffffff021916908373ffffffffffffffffffffffffffffffffffffffff16021790555082601260050160006101000a81548173ffffffffffffffffffffffffffffffffffffffff021916908373ffffffffffffffffffffffffffffffffffffffff160217905550505050505050565b600f5481565b60005481565b6000601260010160009054906101000a900473ffffffffffffffffffffffffffffffffffffffff1673ffffffffffffffffffffffffffffffffffffffff1663f3d8c7a78585856040518463ffffffff1660e01b8152600401611ea9939291906130af565b6020604051808303816000875af1158015611ec8573d6000803e3d6000fd5b505050506040513d601f19601f82011682018060405250810190611eec9190612e6f565b50600190509392505050565b601a6020528060005260406000206000915090505481565b60075481565b600080611f47601260040160009054906101000a900473ffffffffffffffffffffffffffffffffffffffff16612143565b90508073ffffffffffffffffffffffffffffffffffffffff166348257aa46000548630601260030160009054906101000a900473ffffffffffffffffffffffffffffffffffffffff16886040518663ffffffff1660e01b8152600401611fb19594939291906130e6565b600060405180830381600087803b158015611fcb57600080fd5b505af1158015611fdf573d6000803e3d6000fd5b50505050809150611ff38460005484612486565b5092915050565b6000601260010160009054906101000a900473ffffffffffffffffffffffffffffffffffffffff1673ffffffffffffffffffffffffffffffffffffffff1663ff2cb34784846040518363ffffffff1660e01b815260040161205c929190612f88565b600060405180830381600087803b15801561207657600080fd5b505af115801561208a573d6000803e3d6000fd5b50505050601260010160009054906101000a900473ffffffffffffffffffffffffffffffffffffffff1673ffffffffffffffffffffffffffffffffffffffff1663445f11fc6040518163ffffffff1660e01b8152600401602060405180830381865afa1580156120fe573d6000803e3d6000fd5b505050506040513d601f19601f820116820180604052508101906121229190612b9c565b905092915050565b6000818310612139578161213b565b825b905092915050565b60006040517f3d602d80600a3d3981f3363d3d373d3d3d363d7300000000000000000000000081528260601b60148201527f5af43d82803e903d91602b57fd5bf3000000000000000000000000000000000060288201526037816000f0915050600073ffffffffffffffffffffffffffffffffffffffff168173ffffffffffffffffffffffffffffffffffffffff1603612212576040517f08c379a000000000000000000000000000000000000000000000000000000000815260040161220990613185565b60405180910390fd5b919050565b60016009600082825461222a9190612d30565b9250508190555080600760008282546122439190612d30565b92505081905550600a600085815260200190815260200160002083908060018154018082558091505060019003906000526020600020016000909190919091505580600d600086815260200190815260200160002060008282546122a79190612d30565b9250508190555081600b600086815260200190815260200160002060006101000a81548173ffffffffffffffffffffffffffffffffffffffff021916908373ffffffffffffffffffffffffffffffffffffffff16021790555060016011600086815260200190815260200160002060006101000a81548160ff02191690831515021790555083600e60008581526020019081526020016000208190555050505050565b816007600082825461235c9190612e9c565b9250508190555081600860008282546123759190612d30565b925050819055506000600e600085815260200190815260200160002054905082600c600083815260200190815260200160002060008282546123b79190612d30565b92505081905550600083836123cc9190612e9c565b036123fe5760006011600086815260200190815260200160002060006101000a81548160ff0219169083151502179055505b50505050565b6000600360008381526020019081526020016000205490506002600082815260200190815260200160002082908060018154018082558091505060019003906000526020600020016000909190919091505560006006600083815260200190815260200160002060006101000a81548160ff0219169083151502179055505050565b82600360008481526020019081526020016000208190555060016000848152602001908152602001600020829080600181540180825580915050600190039060005260206000200160009091909190915055600160046000848152602001908152602001600020600085815260200190815260200160002060006101000a81548160ff021916908315150217905550806005600084815260200190815260200160002060006101000a81548173ffffffffffffffffffffffffffffffffffffffff021916908373ffffffffffffffffffffffffffffffffffffffff16021790555060016000808282546125799190612d30565b9250508190555060016006600085815260200190815260200160002060006101000a81548160ff021916908315150217905550505050565b600080fd5b6000819050919050565b6125c9816125b6565b81146125d457600080fd5b50565b6000813590506125e6816125c0565b92915050565b600060208284031215612602576126016125b1565b5b6000612610848285016125d7565b91505092915050565b60008115159050919050565b61262e81612619565b82525050565b60006020820190506126496000830184612625565b92915050565b6000819050919050565b6126628161264f565b811461266d57600080fd5b50565b60008135905061267f81612659565b92915050565b6000806000806080858703121561269f5761269e6125b1565b5b60006126ad878288016125d7565b94505060206126be878288016125d7565b93505060406126cf878288016125d7565b92505060606126e087828801612670565b91505092959194509250565b600073ffffffffffffffffffffffffffffffffffffffff82169050919050565b6000612717826126ec565b9050919050565b6127278161270c565b82525050565b6000602082019050612742600083018461271e565b92915050565b6000806040838503121561275f5761275e6125b1565b5b600061276d858286016125d7565b925050602061277e858286016125d7565b9150509250929050565b612791816125b6565b82525050565b60006020820190506127ac6000830184612788565b92915050565b60006040820190506127c76000830185612788565b6127d46020830184612788565b9392505050565b6127e48161270c565b81146127ef57600080fd5b50565b600081359050612801816127db565b92915050565b6000806040838503121561281e5761281d6125b1565b5b600061282c858286016127f2565b925050602061283d858286016125d7565b9150509250929050565b60008060008060808587031215612861576128606125b1565b5b600061286f878288016127f2565b9450506020612880878288016125d7565b9350506040612891878288016125d7565b92505060606128a2878288016125d7565b91505092959194509250565b6000602082840312156128c4576128c36125b1565b5b60006128d2848285016127f2565b91505092915050565b600060c0820190506128f0600083018961271e565b6128fd602083018861271e565b61290a604083018761271e565b612917606083018661271e565b612924608083018561271e565b61293160a083018461271e565b979650505050505050565b60008060008060008060c08789031215612959576129586125b1565b5b600061296789828a016127f2565b965050602061297889828a016127f2565b955050604061298989828a016127f2565b945050606061299a89828a016127f2565b93505060806129ab89828a016125d7565b92505060a06129bc89828a016125d7565b9150509295509295509295565b6000806000606084860312156129e2576129e16125b1565b5b60006129f0868287016127f2565b9350506020612a01868287016127f2565b9250506040612a12868287016125d7565b9150509250925092565b60008060408385031215612a3357612a326125b1565b5b6000612a41858286016125d7565b9250506020612a5285828601612670565b9150509250929050565b600081519050612a6b816127db565b92915050565b600060208284031215612a8757612a866125b1565b5b6000612a9584828501612a5c565b91505092915050565b600082825260208201905092915050565b7f43616c6c6572206973206e6f7420746865206f776e6572000000000000000000600082015250565b6000612ae5601783612a9e565b9150612af082612aaf565b602082019050919050565b60006020820190508181036000830152612b1481612ad8565b9050919050565b7f4e6f74206861766520656e6f756768206d617474657200000000000000000000600082015250565b6000612b51601683612a9e565b9150612b5c82612b1b565b602082019050919050565b60006020820190508181036000830152612b8081612b44565b9050919050565b600081519050612b96816125c0565b92915050565b600060208284031215612bb257612bb16125b1565b5b6000612bc084828501612b87565b91505092915050565b7f4e6f74206869676820656e6f7567680000000000000000000000000000000000600082015250565b6000612bff600f83612a9e565b9150612c0a82612bc9565b602082019050919050565b60006020820190508181036000830152612c2e81612bf2565b9050919050565b7f4e487b7100000000000000000000000000000000000000000000000000000000600052601260045260246000fd5b6000612c6f826125b6565b9150612c7a836125b6565b925082612c8a57612c89612c35565b5b828206905092915050565b7f447261772072617465206e6f7420646976697369626c65000000000000000000600082015250565b6000612ccb601783612a9e565b9150612cd682612c95565b602082019050919050565b60006020820190508181036000830152612cfa81612cbe565b9050919050565b7f4e487b7100000000000000000000000000000000000000000000000000000000600052601160045260246000fd5b6000612d3b826125b6565b9150612d46836125b6565b9250828201905080821115612d5e57612d5d612d01565b5b92915050565b7f4e487b7100000000000000000000000000000000000000000000000000000000600052603260045260246000fd5b6000612d9e826125b6565b9150612da9836125b6565b9250828202612db7816125b6565b91508282048414831517612dce57612dcd612d01565b5b5092915050565b6000819050919050565b6000819050919050565b6000612e04612dff612dfa84612dd5565b612ddf565b6125b6565b9050919050565b612e1481612de9565b82525050565b6000604082019050612e2f600083018561271e565b612e3c6020830184612e0b565b9392505050565b612e4c81612619565b8114612e5757600080fd5b50565b600081519050612e6981612e43565b92915050565b600060208284031215612e8557612e846125b1565b5b6000612e9384828501612e5a565b91505092915050565b6000612ea7826125b6565b9150612eb2836125b6565b9250828203905081811115612eca57612ec9612d01565b5b92915050565b6000612edb826125b6565b91507fffffffffffffffffffffffffffffffffffffffffffffffffffffffffffffffff8203612f0d57612f0c612d01565b5b600182019050919050565b612f218161264f565b82525050565b600060c082019050612f3c6000830189612788565b612f496020830188612788565b612f566040830187612788565b612f636060830186612788565b612f70608083018561271e565b612f7d60a0830184612f18565b979650505050505050565b6000604082019050612f9d600083018561271e565b612faa6020830184612788565b9392505050565b7f4e6f7420656e6f756768206d6174746572000000000000000000000000000000600082015250565b6000612fe7601183612a9e565b9150612ff282612fb1565b602082019050919050565b6000602082019050818103600083015261301681612fda565b9050919050565b7f43616c6c6572206973206e6f742074686520726967687420436f736d6f53656560008201527f6420636f6e747261637400000000000000000000000000000000000000000000602082015250565b6000613079602a83612a9e565b91506130848261301d565b604082019050919050565b600060208201905081810360008301526130a88161306c565b9050919050565b60006060820190506130c4600083018661271e565b6130d1602083018561271e565b6130de6040830184612788565b949350505050565b600060a0820190506130fb6000830188612788565b6131086020830187612788565b613115604083018661271e565b613122606083018561271e565b61312f6080830184612f18565b9695505050505050565b7f455243313136373a20637265617465206661696c656400000000000000000000600082015250565b600061316f601683612a9e565b915061317a82613139565b602082019050919050565b6000602082019050818103600083015261319e81613162565b905091905056fea264697066735822122050a7b8e7d32cc055040dc1896161e2e6ba0a8bf7fa444a50c296fefa6592949164736f6c63430008110033",
  "immutableReferences": {},
  "source": "// SPDX-License-Identifier: MIT\npragma solidity ^0.8.7;\n\nimport \"openzeppelin-solidity/contracts/utils/math/Math.sol\";\nimport { Clones } from \"openzeppelin-solidity/contracts/proxy/Clones.sol\";\n\nimport \"./CosmoMatter.sol\";\nimport \"./CosmoSeed.sol\";\nimport \"./CosmoButter.sol\";\nimport \"./ICosmoTreasury.sol\";\nimport \"./ICosmoNuts.sol\";\nimport \"./ICosmoSeed.sol\";\nimport \"./ICosmoMatter.sol\";\n\nimport \"./SeedAccounts.sol\";\nimport \"./ButterAccounts.sol\";\n\n/**\n * @dev Manages the matter balance of the CosmoNuts collection and handles interaction with the\n * ERC20 Token to mint, burn, and allocate balances\n * Acts as storage for the ERC 721 tokens on their created Seed and Butter contracts.\n */\n contract CosmoTreasury is SeedAccounts, ButterAccounts, ICosmoTreasury {\n\n      /**\n       * @dev Saved addresses include the contract which created the Treasury: UNIVERSE_ADDRESS, and\n       * the address of the CosmoNuts contract (NFTs) which is created after the Treasury and then updated: matter_ADDRESS.\n       */\n     struct AddressOf {\n         address system;\n         address matter;\n         address treasury;\n         address cosmos;\n         address seedImplementation;\n         address butterImplementation;\n     }\n     AddressOf public addressOf;\n\n     struct Nut {\n         uint256 price;\n         uint256 rate;\n     }\n     Nut public nut;\n\n     mapping(uint256 => uint256) public matterBalanceOfNut; // Matter balance of each Nut recorded by the Treasury\n\n     uint256[] public nutsPayeeList; // List of nuts to be provided a balance\n\n     function initialize(\n         address _systemAddress,\n         address _matterAddress,\n         address _seedImplementation,\n         address _butterImplementation,\n         uint256 _price,\n         uint256 _rate\n     ) external {\n         addressOf.system = _systemAddress;\n         addressOf.matter = _matterAddress;\n         addressOf.treasury = address(this);\n         nut.price = _price;\n         nut.rate = _rate;\n\n         addressOf.seedImplementation = _seedImplementation;\n         addressOf.butterImplementation = _butterImplementation;\n     }\n\n     /*\n     modifier onlyUniverse {\n         require(address(msg.sender) == UNIVERSE_ADDRESS, \"Caller is not Universe\");\n         _;\n     }\n     */\n\n     function viewCosmos() public view virtual override returns (address) {\n         return addressOf.cosmos;\n     }\n\n     function matterOf(uint256 _nutId) public view virtual override returns (uint256 matterOfNutOwner) {\n         address nutOwner = ICosmoNuts(addressOf.cosmos).getOwnerOf(_nutId);\n         matterOfNutOwner = ICosmoMatter(addressOf.matter).matterOf(nutOwner);\n         return matterOfNutOwner;\n     }\n\n     function linkCosmo(address _cosmoAddress) external virtual override {\n         addressOf.cosmos = _cosmoAddress;\n     }\n\n     function getVaultLocation() public virtual override returns (address) {\n        return ICosmoNuts(addressOf.cosmos).vaultLocation();\n     }\n\n     function getPrice() public view virtual override returns (uint256) {\n         return nut.price;\n     }\n\n     function grantApproval(address _owner, address _spender, uint256 _allowance) external virtual override returns (bool) {\n          ICosmoMatter(addressOf.matter).grantApproval(_owner, _spender, _allowance);\n          return true;\n     }\n\n     function burnMatterFrom(address _from, uint256 _toBurn) external virtual override returns (uint256 newMatterSupply) {\n         ICosmoMatter(addressOf.matter).burnMatterFrom(_from, _toBurn);\n         newMatterSupply = ICosmoMatter(addressOf.matter).totalMatter();\n         return newMatterSupply;\n     }\n\n     function matterNeeded(uint256 _nutId) public view virtual override returns (uint256) {\n         return nut.rate ^ (numOfSeedsOf(_nutId));\n     }\n\n     function ethToHold(uint256 _nutId) public view virtual override returns (uint256) {\n         return nut.price ^ (numOfSeedsGrownOf(_nutId));\n     }\n\n     /**\n      * Called from CosmoNuts contract.\n      */\n     function spawnSeed(uint256 _nutId, bytes32 _secretHash) external virtual override returns (address seedLocation) {\n         CosmoSeed seed = CosmoSeed(payable(Clones.clone(addressOf.seedImplementation)));\n\n         seed.initialize(\n             seedsCreated, _nutId, address(this), addressOf.cosmos, _secretHash\n         );\n         seedLocation = address(seed);\n\n         integrateSeed(_nutId, seedsCreated, seedLocation);\n\n         return seedLocation;\n     }\n\n     /**\n      * Called from CosmoSeed contract.\n      */\n     function seedFromNut(uint256 _seedId, uint256 _matterNeeded) external virtual override returns (bool) {\n         address seedAddress = seedLocations[_seedId];\n         require(address(msg.sender) == seedAddress, \"Caller is not the right CosmoSeed contract\");\n         //require(matter.balanceOf(address(msg.sender)) >= _matterNeeded, \"Not enough matter\");\n\n         CosmoSeed seed = CosmoSeed(payable(seedAddress));\n\n         address nutOwner = ICosmoNuts(addressOf.cosmos).getOwnerOf(seed.nutId());\n         CosmoMatter matter = CosmoMatter(addressOf.matter);\n         matter.transfer(nutOwner, _matterNeeded);\n         matter.mintMatter(addressOf.treasury, 1);\n\n         growSeed(_seedId);\n\n         return true;\n     }\n\n     /**\n      * Creating new butter means the creation of a contract where other users can withdraw matter from.\n      * Need to contribute butter (which can only be done if you have a Nut with the desired level of matter to give away.\n      * A secret message is provided in hash form and checked for verification to withdraw funds.\n      */\n     function newButter(\n         uint256 _nutId,\n         uint256 _matterContributed,\n         uint256 _matterDrawRate,\n         bytes32 _secretHash\n     ) external virtual override returns (bool) {\n         address nutOwner = ICosmoNuts(addressOf.cosmos).getOwnerOf(_nutId);\n         // Do we need to be doing these checks twice? Or really new check that caller is from contract (? or person who clicked?)\n         require(nutOwner == address(msg.sender), \"Caller is not the owner\");\n         require(matterBalanceOfNut[_nutId] >= _matterContributed, \"Not have enough matter\");\n         CosmoMatter matter = CosmoMatter(addressOf.matter);\n         require(_matterContributed <= matter.balanceOf(nutOwner), \"Not high enough\");\n         require(_matterContributed % _matterDrawRate == 0, \"Draw rate not divisible\");\n\n         /**\n          * A nut must have already grown a seed to start being counted as part of the deficiency list.\n          */\n         if (numOfSeedsGrownOf(_nutId) > 0) {\n             butterDeficiencyInUniverse += _matterContributed;\n             butterDeficiencyOfNut[_nutId] += _matterContributed;\n             nutsPayeeList.push(_nutId);\n         }\n\n         /**\n          * The Treasury wants to distribute its available balance to the nutsPayeeList.\n          * It will distribute the minimum of either its available balance or the deficiency in the Universe.\n          * All payees are awarded one matter and moved to the end of the list.\n          * When their maximum available balance is reached, they are removed from the payee list.\n          */\n         uint256 matterInTreasury = matter.balanceOf(addressOf.treasury);\n         if (matterInTreasury > 0) {\n             uint256 toDistribute = Math.min(matterInTreasury, butterDeficiencyInUniverse);\n\n             uint256 index = 0;\n             for (uint j = 0; j != toDistribute; j++) {\n                 uint256 allPayees = nutsPayeeList.length;\n                 if (allPayees == 0) {\n                     break;\n                 }\n\n                 if (j > allPayees) {\n                     index = 0;\n                 }\n\n                 uint256 nutPayeeId = nutsPayeeList[index];\n                 address nutOwnerPayee = ICosmoNuts(addressOf.cosmos).getOwnerOf(nutPayeeId);\n                 uint256 maxMatter = numOfSeedsGrownOf(nutPayeeId) * nut.rate;\n                 if (matterBalanceOfNut[nutPayeeId] == maxMatter) {\n                     delete nutsPayeeList[index];\n                 } else {\n                     matter.transfer(nutOwnerPayee, 1);\n                     nutsPayeeList.push(nutPayeeId);\n                     delete nutsPayeeList[index];\n\n                     butterDeficiencyInUniverse -= 1;\n                     butterDeficiencyOfNut[nutPayeeId] -= 1;\n                 }\n\n                 index++;\n            }\n         }\n\n         CosmoButter butter = CosmoButter(Clones.clone(addressOf.butterImplementation));\n         butter.initialize(\n             butterJars, _nutId, _matterContributed, _matterDrawRate, addressOf.treasury, _secretHash\n         );\n\n         matter.transfer(address(butter), _matterContributed);\n         churnButter(_nutId, butterJars, address(butter), _matterContributed);\n\n         return true;\n\n     }\n\n     /**\n      * Runs from CosmoButter contract when someone requests to draw matter.\n      */\n     function butterDrawn(\n         address _drawer,\n         uint256 _butterId,\n         uint256 _balance,\n         uint256 _currentBalance\n     ) external virtual override returns (bool) {\n         CosmoMatter matter = CosmoMatter(addressOf.matter);\n         matter.transfer(_drawer, _balance);\n         matter.mintMatter(address(this), _balance);\n         distributeButter(_butterId, _balance, _currentBalance);\n\n         return true;\n     }\n\n     function assignMintBalance(address _tokenOwner, uint256 _tokenId) external virtual override returns (bool) {\n         CosmoMatter matter = CosmoMatter(addressOf.matter);\n         require(matter.balanceOf(addressOf.treasury) >= nut.rate, \"Not enough matter\");\n         matter.transfer(_tokenOwner, nut.rate);\n         matterBalanceOfNut[_tokenId] = nut.rate;\n\n         return true;\n     }\n\n }\n",
  "sourcePath": "/home/redlentils/Seafile/Websites/avatarnft/contracts/CosmoTreasury.sol",
  "compiler": {
    "name": "solc",
    "version": "0.8.17+commit.8df45f5f.Emscripten.clang"
  },
  "schemaVersion": "3.4.10",
  "updatedAt": "2022-10-25T08:55:07.144Z",
  "devdoc": {
    "details": "Manages the matter balance of the CosmoNuts collection and handles interaction with the ERC20 Token to mint, burn, and allocate balances Acts as storage for the ERC 721 tokens on their created Seed and Butter contracts.",
    "kind": "dev",
    "methods": {},
    "version": 1
  },
  "userdoc": {
    "kind": "user",
    "methods": {
      "butterDrawn(address,uint256,uint256,uint256)": {
        "notice": "Runs from CosmoButter contract when someone requests to draw matter."
      },
      "butterWeight()": {
        "notice": "butterWeight is the amount of matter in the universe that is currently outstanding. butterSpread is the amount of matter that has been distributed from butterWeight, thus reducing its value. butterJars represent the total number of matter contracts created in the Universe."
      },
      "buttersOfNut(uint256,uint256)": {
        "notice": "buttersOfNut represents a list of all butter contracts created byt that nut. butterLocations represents the address of contract identifed by butterId. "
      },
      "newButter(uint256,uint256,uint256,bytes32)": {
        "notice": "Creating new butter means the creation of a contract where other users can withdraw matter from. Need to contribute butter (which can only be done if you have a Nut with the desired level of matter to give away. A secret message is provided in hash form and checked for verification to withdraw funds."
      },
      "seedFromNut(uint256,uint256)": {
        "notice": "Called from CosmoSeed contract."
      },
      "spawnSeed(uint256,bytes32)": {
        "notice": "Called from CosmoNuts contract."
      }
    },
    "version": 1
  }
}