{
  "contractName": "CosmoTreasury",
  "abi": [
    {
      "inputs": [
        {
          "internalType": "address",
          "name": "_matterAddress",
          "type": "address"
        },
        {
          "internalType": "uint256",
          "name": "_matterRate",
          "type": "uint256"
        }
      ],
      "stateMutability": "nonpayable",
      "type": "constructor"
    },
    {
      "inputs": [],
      "name": "MATTER_ADDRESS",
      "outputs": [
        {
          "internalType": "address",
          "name": "",
          "type": "address"
        }
      ],
      "stateMutability": "view",
      "type": "function"
    },
    {
      "inputs": [],
      "name": "MATTER_RATE",
      "outputs": [
        {
          "internalType": "uint256",
          "name": "",
          "type": "uint256"
        }
      ],
      "stateMutability": "view",
      "type": "function"
    },
    {
      "inputs": [],
      "name": "NUT_PRICE",
      "outputs": [
        {
          "internalType": "uint256",
          "name": "",
          "type": "uint256"
        }
      ],
      "stateMutability": "view",
      "type": "function"
    },
    {
      "inputs": [
        {
          "internalType": "uint256",
          "name": "",
          "type": "uint256"
        }
      ],
      "name": "butterChurnedByNut",
      "outputs": [
        {
          "internalType": "uint256",
          "name": "",
          "type": "uint256"
        }
      ],
      "stateMutability": "view",
      "type": "function"
    },
    {
      "inputs": [],
      "name": "butterDeficiencyInUniverse",
      "outputs": [
        {
          "internalType": "uint256",
          "name": "",
          "type": "uint256"
        }
      ],
      "stateMutability": "view",
      "type": "function"
    },
    {
      "inputs": [
        {
          "internalType": "uint256",
          "name": "",
          "type": "uint256"
        }
      ],
      "name": "butterDeficiencyOfNut",
      "outputs": [
        {
          "internalType": "uint256",
          "name": "",
          "type": "uint256"
        }
      ],
      "stateMutability": "view",
      "type": "function"
    },
    {
      "inputs": [],
      "name": "butterJars",
      "outputs": [
        {
          "internalType": "uint256",
          "name": "",
          "type": "uint256"
        }
      ],
      "stateMutability": "view",
      "type": "function"
    },
    {
      "inputs": [
        {
          "internalType": "uint256",
          "name": "",
          "type": "uint256"
        }
      ],
      "name": "butterLocations",
      "outputs": [
        {
          "internalType": "address",
          "name": "",
          "type": "address"
        }
      ],
      "stateMutability": "view",
      "type": "function"
    },
    {
      "inputs": [],
      "name": "butterSpread",
      "outputs": [
        {
          "internalType": "uint256",
          "name": "",
          "type": "uint256"
        }
      ],
      "stateMutability": "view",
      "type": "function"
    },
    {
      "inputs": [],
      "name": "butterWeight",
      "outputs": [
        {
          "internalType": "uint256",
          "name": "",
          "type": "uint256"
        }
      ],
      "stateMutability": "view",
      "type": "function"
    },
    {
      "inputs": [
        {
          "internalType": "uint256",
          "name": "",
          "type": "uint256"
        },
        {
          "internalType": "uint256",
          "name": "",
          "type": "uint256"
        }
      ],
      "name": "buttersOfNut",
      "outputs": [
        {
          "internalType": "uint256",
          "name": "",
          "type": "uint256"
        }
      ],
      "stateMutability": "view",
      "type": "function"
    },
    {
      "inputs": [
        {
          "internalType": "uint256",
          "name": "",
          "type": "uint256"
        }
      ],
      "name": "currentOwnerOfNut",
      "outputs": [
        {
          "internalType": "address",
          "name": "",
          "type": "address"
        }
      ],
      "stateMutability": "view",
      "type": "function"
    },
    {
      "inputs": [
        {
          "internalType": "uint256",
          "name": "",
          "type": "uint256"
        }
      ],
      "name": "isButterActive",
      "outputs": [
        {
          "internalType": "bool",
          "name": "",
          "type": "bool"
        }
      ],
      "stateMutability": "view",
      "type": "function"
    },
    {
      "inputs": [
        {
          "internalType": "uint256",
          "name": "",
          "type": "uint256"
        }
      ],
      "name": "isSeedActive",
      "outputs": [
        {
          "internalType": "bool",
          "name": "",
          "type": "bool"
        }
      ],
      "stateMutability": "view",
      "type": "function"
    },
    {
      "inputs": [
        {
          "internalType": "uint256",
          "name": "",
          "type": "uint256"
        },
        {
          "internalType": "uint256",
          "name": "",
          "type": "uint256"
        }
      ],
      "name": "isSeedOfNut",
      "outputs": [
        {
          "internalType": "bool",
          "name": "",
          "type": "bool"
        }
      ],
      "stateMutability": "view",
      "type": "function"
    },
    {
      "inputs": [
        {
          "internalType": "uint256",
          "name": "",
          "type": "uint256"
        }
      ],
      "name": "matterBalanceOfNut",
      "outputs": [
        {
          "internalType": "uint256",
          "name": "",
          "type": "uint256"
        }
      ],
      "stateMutability": "view",
      "type": "function"
    },
    {
      "inputs": [
        {
          "internalType": "uint256",
          "name": "",
          "type": "uint256"
        }
      ],
      "name": "matterMintedByNut",
      "outputs": [
        {
          "internalType": "uint256",
          "name": "",
          "type": "uint256"
        }
      ],
      "stateMutability": "view",
      "type": "function"
    },
    {
      "inputs": [
        {
          "internalType": "uint256",
          "name": "_nutId",
          "type": "uint256"
        }
      ],
      "name": "numberOfButterJars",
      "outputs": [
        {
          "internalType": "uint256",
          "name": "",
          "type": "uint256"
        }
      ],
      "stateMutability": "view",
      "type": "function"
    },
    {
      "inputs": [
        {
          "internalType": "uint256",
          "name": "",
          "type": "uint256"
        }
      ],
      "name": "nutOfButter",
      "outputs": [
        {
          "internalType": "uint256",
          "name": "",
          "type": "uint256"
        }
      ],
      "stateMutability": "view",
      "type": "function"
    },
    {
      "inputs": [
        {
          "internalType": "uint256",
          "name": "",
          "type": "uint256"
        }
      ],
      "name": "nutOfSeed",
      "outputs": [
        {
          "internalType": "uint256",
          "name": "",
          "type": "uint256"
        }
      ],
      "stateMutability": "view",
      "type": "function"
    },
    {
      "inputs": [
        {
          "internalType": "uint256",
          "name": "",
          "type": "uint256"
        }
      ],
      "name": "nutsPayeeList",
      "outputs": [
        {
          "internalType": "uint256",
          "name": "",
          "type": "uint256"
        }
      ],
      "stateMutability": "view",
      "type": "function"
    },
    {
      "inputs": [
        {
          "internalType": "uint256",
          "name": "",
          "type": "uint256"
        }
      ],
      "name": "seedLocations",
      "outputs": [
        {
          "internalType": "address",
          "name": "",
          "type": "address"
        }
      ],
      "stateMutability": "view",
      "type": "function"
    },
    {
      "inputs": [],
      "name": "seedsCreated",
      "outputs": [
        {
          "internalType": "uint256",
          "name": "",
          "type": "uint256"
        }
      ],
      "stateMutability": "view",
      "type": "function"
    },
    {
      "inputs": [
        {
          "internalType": "uint256",
          "name": "",
          "type": "uint256"
        }
      ],
      "name": "seedsGrownOfNut",
      "outputs": [
        {
          "internalType": "uint256",
          "name": "",
          "type": "uint256"
        }
      ],
      "stateMutability": "view",
      "type": "function"
    },
    {
      "inputs": [
        {
          "internalType": "uint256",
          "name": "",
          "type": "uint256"
        }
      ],
      "name": "seedsOfNut",
      "outputs": [
        {
          "internalType": "uint256",
          "name": "",
          "type": "uint256"
        }
      ],
      "stateMutability": "view",
      "type": "function"
    },
    {
      "inputs": [
        {
          "internalType": "uint256",
          "name": "_nutId",
          "type": "uint256"
        }
      ],
      "name": "calcMatterNeeded",
      "outputs": [
        {
          "internalType": "uint256",
          "name": "",
          "type": "uint256"
        }
      ],
      "stateMutability": "view",
      "type": "function"
    },
    {
      "inputs": [
        {
          "internalType": "uint256",
          "name": "_nutId",
          "type": "uint256"
        },
        {
          "internalType": "bytes32",
          "name": "_secretHash",
          "type": "bytes32"
        }
      ],
      "name": "spawnSeed",
      "outputs": [],
      "stateMutability": "payable",
      "type": "function"
    },
    {
      "inputs": [
        {
          "internalType": "uint256",
          "name": "_seedId",
          "type": "uint256"
        },
        {
          "internalType": "uint256",
          "name": "_matterNeeded",
          "type": "uint256"
        }
      ],
      "name": "growSeedFromNut",
      "outputs": [],
      "stateMutability": "nonpayable",
      "type": "function"
    },
    {
      "inputs": [
        {
          "internalType": "uint256",
          "name": "_nutId",
          "type": "uint256"
        },
        {
          "internalType": "uint256",
          "name": "_matterContributed",
          "type": "uint256"
        },
        {
          "internalType": "uint256",
          "name": "_matterDrawRate",
          "type": "uint256"
        },
        {
          "internalType": "bytes32",
          "name": "_secretHash",
          "type": "bytes32"
        }
      ],
      "name": "newButter",
      "outputs": [],
      "stateMutability": "nonpayable",
      "type": "function"
    },
    {
      "inputs": [
        {
          "internalType": "address",
          "name": "_drawer",
          "type": "address"
        },
        {
          "internalType": "uint256",
          "name": "_butterId",
          "type": "uint256"
        },
        {
          "internalType": "uint256",
          "name": "_balance",
          "type": "uint256"
        },
        {
          "internalType": "uint256",
          "name": "_currentBalance",
          "type": "uint256"
        }
      ],
      "name": "butterDrawn",
      "outputs": [],
      "stateMutability": "nonpayable",
      "type": "function"
    },
    {
      "inputs": [
        {
          "internalType": "address",
          "name": "_tokenOwner",
          "type": "address"
        },
        {
          "internalType": "uint256",
          "name": "_tokenId",
          "type": "uint256"
        }
      ],
      "name": "assignMintBalance",
      "outputs": [],
      "stateMutability": "nonpayable",
      "type": "function"
    }
  ],
  "bytecode": "0x6080604052600080556000600755600060085560006009556000600f553480156200002957600080fd5b5060405162004ab038038062004ab083398181016040528101906200004f919062000144565b81601260006101000a81548173ffffffffffffffffffffffffffffffffffffffff021916908373ffffffffffffffffffffffffffffffffffffffff1602179055508060148190555050506200018b565b600080fd5b600073ffffffffffffffffffffffffffffffffffffffff82169050919050565b6000620000d182620000a4565b9050919050565b620000e381620000c4565b8114620000ef57600080fd5b50565b6000815190506200010381620000d8565b92915050565b6000819050919050565b6200011e8162000109565b81146200012a57600080fd5b50565b6000815190506200013e8162000113565b92915050565b600080604083850312156200015e576200015d6200009f565b5b60006200016e85828601620000f2565b925050602062000181858286016200012d565b9150509250929050565b614915806200019b6000396000f3fe608060405260043610620002065760003560e01c806349a6b51f116200011b578063b8a9736d11620000a3578063ea988be8116200006d578063ea988be81462000867578063f50d43491462000897578063f6317f8d14620008db578063fe774f9d146200090b5762000206565b8063b8a9736d146200077f578063d4d8103214620007af578063df4f5ccc14620007f3578063ea0f136614620008235762000206565b8063733b0bca11620000e5578063733b0bca146200069b5780639578d3df14620006c95780639cee22b1146200070d578063aef054ce146200073b5762000206565b806349a6b51f14620005b35780634ffe5a6f14620005e357806353f97bc8146200062757806364b1b663146200066b5762000206565b806326342ea4116200019f5780633279bd4f11620001695780633279bd4f14620004a357806334fc122814620004e757806339dc84f4146200052b57806347634e1c146200056f5762000206565b806326342ea414620003bb578063282adc8c14620003eb5780632c533085146200042f57806331ad1b42146200045f5762000206565b80631821907a11620001e15780631821907a14620002c15780631c85949c14620003055780631e0b3964146200033357806323f526c014620003775762000206565b806302760a48146200020b57806303f5de9d146200024f578063171e8441146200027d575b600080fd5b3480156200021857600080fd5b5062000237600480360381019062000231919062001f3e565b6200092b565b60405162000246919062001f8d565b60405180910390f35b3480156200025c57600080fd5b506200027b600480360381019062000275919062001fe5565b6200094b565b005b3480156200028a57600080fd5b50620002a96004803603810190620002a3919062001f3e565b6200106a565b604051620002b8919062001f8d565b60405180910390f35b348015620002ce57600080fd5b50620002ed6004803603810190620002e7919062001f3e565b6200108a565b604051620002fc919062002068565b60405180910390f35b3480156200031257600080fd5b506200033160048036038101906200032b9190620020ea565b620010a2565b005b3480156200034057600080fd5b506200035f600480360381019062000359919062002131565b62001234565b6040516200036e919062002068565b60405180910390f35b3480156200038457600080fd5b50620003a360048036038101906200039d919062001f3e565b62001266565b604051620003b2919062002189565b60405180910390f35b348015620003c857600080fd5b50620003d362001299565b604051620003e2919062002068565b60405180910390f35b348015620003f857600080fd5b5062000417600480360381019062000411919062001f3e565b6200129f565b60405162000426919062002068565b60405180910390f35b3480156200043c57600080fd5b5062000447620012bf565b60405162000456919062002068565b60405180910390f35b3480156200046c57600080fd5b506200048b600480360381019062000485919062001f3e565b620012c5565b6040516200049a919062002068565b60405180910390f35b348015620004b057600080fd5b50620004cf6004803603810190620004c9919062001f3e565b620012dd565b604051620004de919062002068565b60405180910390f35b348015620004f457600080fd5b506200051360048036038101906200050d919062001f3e565b620012f5565b60405162000522919062002068565b60405180910390f35b3480156200053857600080fd5b5062000557600480360381019062000551919062001f3e565b62001323565b60405162000566919062002189565b60405180910390f35b3480156200057c57600080fd5b506200059b600480360381019062000595919062001f3e565b62001356565b604051620005aa919062002068565b60405180910390f35b348015620005c057600080fd5b50620005cb6200136e565b604051620005da919062002068565b60405180910390f35b348015620005f057600080fd5b506200060f600480360381019062000609919062001f3e565b62001374565b6040516200061e919062002068565b60405180910390f35b3480156200063457600080fd5b506200065360048036038101906200064d919062002131565b6200138c565b60405162000662919062001f8d565b60405180910390f35b3480156200067857600080fd5b5062000683620013bb565b60405162000692919062002189565b60405180910390f35b348015620006a857600080fd5b50620006c76004803603810190620006c1919062002131565b620013e1565b005b348015620006d657600080fd5b50620006f56004803603810190620006ef919062001f3e565b62001668565b60405162000704919062002068565b60405180910390f35b3480156200071a57600080fd5b50620007396004803603810190620007339190620021a6565b6200168d565b005b3480156200074857600080fd5b5062000767600480360381019062000761919062001f3e565b620017bd565b60405162000776919062002189565b60405180910390f35b3480156200078c57600080fd5b5062000797620017f0565b604051620007a6919062002068565b60405180910390f35b348015620007bc57600080fd5b50620007db6004803603810190620007d5919062001f3e565b620017f6565b604051620007ea919062002068565b60405180910390f35b3480156200080057600080fd5b506200080b6200180e565b6040516200081a919062002068565b60405180910390f35b3480156200083057600080fd5b506200084f600480360381019062000849919062001f3e565b62001814565b6040516200085e919062002068565b60405180910390f35b3480156200087457600080fd5b506200087f6200182c565b6040516200088e919062002068565b60405180910390f35b348015620008a457600080fd5b50620008c36004803603810190620008bd919062001f3e565b62001832565b604051620008d2919062002068565b60405180910390f35b348015620008e857600080fd5b50620008f36200184a565b60405162000902919062002068565b60405180910390f35b62000929600480360381019062000923919062002218565b62001850565b005b60116020528060005260406000206000915054906101000a900460ff1681565b60006015600086815260200190815260200160002060009054906101000a900473ffffffffffffffffffffffffffffffffffffffff1690506000601260009054906101000a900473ffffffffffffffffffffffffffffffffffffffff1690503373ffffffffffffffffffffffffffffffffffffffff168273ffffffffffffffffffffffffffffffffffffffff161462000a1b576040517f08c379a000000000000000000000000000000000000000000000000000000000815260040162000a1290620022c0565b60405180910390fd5b846016600088815260200190815260200160002054101562000a74576040517f08c379a000000000000000000000000000000000000000000000000000000000815260040162000a6b9062002332565b60405180910390fd5b8073ffffffffffffffffffffffffffffffffffffffff166370a08231836040518263ffffffff1660e01b815260040162000aaf919062002189565b602060405180830381865afa15801562000acd573d6000803e3d6000fd5b505050506040513d601f19601f8201168201806040525081019062000af391906200236b565b85111562000b38576040517f08c379a000000000000000000000000000000000000000000000000000000000815260040162000b2f90620023ed565b60405180910390fd5b6000848662000b4891906200243e565b1462000b8b576040517f08c379a000000000000000000000000000000000000000000000000000000000815260040162000b8290620024c6565b60405180910390fd5b60006002600088815260200190815260200160002054111562000c195784600f600082825462000bbc919062002517565b925050819055508460106000888152602001908152602001600020600082825462000be8919062002517565b9250508190555060178690806001815401808255809150506001900390600052602060002001600090919091909150555b60008173ffffffffffffffffffffffffffffffffffffffff166370a08231306040518263ffffffff1660e01b815260040162000c56919062002189565b602060405180830381865afa15801562000c74573d6000803e3d6000fd5b505050506040513d601f19601f8201168201806040525081019062000c9a91906200236b565b9050600081111562000f8357600062000cb682600f5462001b0b565b90506000805b82811462000efe57600060178054905090506000810362000cde575062000efe565b8082111562000cec57600092505b60006017848154811062000d055762000d0462002552565b5b9060005260206000200154905060006015600083815260200190815260200160002060009054906101000a900473ffffffffffffffffffffffffffffffffffffffff1690506000601454600260008581526020019081526020016000205462000d6f919062002581565b90508060166000858152602001908152602001600020540362000db7576017868154811062000da35762000da262002552565b5b906000526020600020016000905562000ed4565b8873ffffffffffffffffffffffffffffffffffffffff1663a9059cbb8360016040518363ffffffff1660e01b815260040162000df592919062002619565b6020604051808303816000875af115801562000e15573d6000803e3d6000fd5b505050506040513d601f19601f8201168201806040525081019062000e3b919062002677565b5060178390806001815401808255809150506001900390600052602060002001600090919091909150556017868154811062000e7c5762000e7b62002552565b5b90600052602060002001600090556001600f600082825462000e9f9190620026a9565b92505081905550600160106000858152602001908152602001600020600082825462000ecc9190620026a9565b925050819055505b858062000ee190620026e4565b96505050505050808062000ef590620026e4565b91505062000cbc565b508373ffffffffffffffffffffffffffffffffffffffff166370a08231306040518263ffffffff1660e01b815260040162000f3a919062002189565b602060405180830381865afa15801562000f58573d6000803e3d6000fd5b505050506040513d601f19601f8201168201806040525081019062000f7e91906200236b565b925050505b6000600954888888308960405162000f9b9062001ee2565b62000fac9695949392919062002742565b604051809103906000f08015801562000fc9573d6000803e3d6000fd5b5090508273ffffffffffffffffffffffffffffffffffffffff1663a9059cbb82896040518363ffffffff1660e01b815260040162001009929190620027af565b6020604051808303816000875af115801562001029573d6000803e3d6000fd5b505050506040513d601f19601f820116820180604052508101906200104f919062002677565b506200106088600954838a62001b26565b5050505050505050565b60066020528060005260406000206000915054906101000a900460ff1681565b600d6020528060005260406000206000915090505481565b6000601260009054906101000a900473ffffffffffffffffffffffffffffffffffffffff1690506014548173ffffffffffffffffffffffffffffffffffffffff166370a08231306040518263ffffffff1660e01b815260040162001107919062002189565b602060405180830381865afa15801562001125573d6000803e3d6000fd5b505050506040513d601f19601f820116820180604052508101906200114b91906200236b565b10156200118f576040517f08c379a000000000000000000000000000000000000000000000000000000000815260040162001186906200282c565b60405180910390fd5b8073ffffffffffffffffffffffffffffffffffffffff1663a9059cbb846014546040518363ffffffff1660e01b8152600401620011ce929190620027af565b6020604051808303816000875af1158015620011ee573d6000803e3d6000fd5b505050506040513d601f19601f8201168201806040525081019062001214919062002677565b506014546016600084815260200190815260200160002081905550505050565b600a60205281600052604060002081815481106200125157600080fd5b90600052602060002001600091509150505481565b60056020528060005260406000206000915054906101000a900473ffffffffffffffffffffffffffffffffffffffff1681565b60095481565b6000600a6000838152602001908152602001600020805490509050919050565b60145481565b60016020528060005260406000206000915090505481565b600c6020528060005260406000206000915090505481565b600060018060008481526020019081526020016000205462001318919062002517565b601454189050919050565b60156020528060005260406000206000915054906101000a900473ffffffffffffffffffffffffffffffffffffffff1681565b600e6020528060005260406000206000915090505481565b60085481565b60106020528060005260406000206000915090505481565b60046020528160005260406000206020528060005260406000206000915091509054906101000a900460ff1681565b601260009054906101000a900473ffffffffffffffffffffffffffffffffffffffff1681565b60006005600084815260200190815260200160002060009054906101000a900473ffffffffffffffffffffffffffffffffffffffff1690508073ffffffffffffffffffffffffffffffffffffffff163373ffffffffffffffffffffffffffffffffffffffff16146200148a576040517f08c379a00000000000000000000000000000000000000000000000000000000081526004016200148190620028c4565b60405180910390fd5b60008190506000601560008373ffffffffffffffffffffffffffffffffffffffff1663685771f46040518163ffffffff1660e01b8152600401602060405180830381865afa158015620014e1573d6000803e3d6000fd5b505050506040513d601f19601f820116820180604052508101906200150791906200236b565b815260200190815260200160002060009054906101000a900473ffffffffffffffffffffffffffffffffffffffff1690506000601260009054906101000a900473ffffffffffffffffffffffffffffffffffffffff1690508073ffffffffffffffffffffffffffffffffffffffff1663a9059cbb83876040518363ffffffff1660e01b81526004016200159c929190620027af565b6020604051808303816000875af1158015620015bc573d6000803e3d6000fd5b505050506040513d601f19601f82011682018060405250810190620015e2919062002677565b508073ffffffffffffffffffffffffffffffffffffffff16634bbc1bcd3060016040518363ffffffff1660e01b81526004016200162192919062002619565b600060405180830381600087803b1580156200163c57600080fd5b505af115801562001651573d6000803e3d6000fd5b50505050620016608662001c5f565b505050505050565b601781815481106200167957600080fd5b906000526020600020016000915090505481565b6000601260009054906101000a900473ffffffffffffffffffffffffffffffffffffffff1690508073ffffffffffffffffffffffffffffffffffffffff1663a9059cbb86856040518363ffffffff1660e01b8152600401620016f1929190620027af565b6020604051808303816000875af115801562001711573d6000803e3d6000fd5b505050506040513d601f19601f8201168201806040525081019062001737919062002677565b508073ffffffffffffffffffffffffffffffffffffffff16634bbc1bcd30856040518363ffffffff1660e01b815260040162001775929190620027af565b600060405180830381600087803b1580156200179057600080fd5b505af1158015620017a5573d6000803e3d6000fd5b50505050620017b684848462001d00565b5050505050565b600b6020528060005260406000206000915054906101000a900473ffffffffffffffffffffffffffffffffffffffff1681565b60135481565b60036020528060005260406000206000915090505481565b600f5481565b60026020528060005260406000206000915090505481565b60005481565b60166020528060005260406000206000915090505481565b60075481565b60006001600260008581526020019081526020016000205462001874919062002517565b60135418905080341015620018c0576040517f08c379a0000000000000000000000000000000000000000000000000000000008152600401620018b79062002936565b60405180910390fd5b6000601260009054906101000a900473ffffffffffffffffffffffffffffffffffffffff1690506000620018f485620012f5565b905060008273ffffffffffffffffffffffffffffffffffffffff166370a082316015600089815260200190815260200160002060009054906101000a900473ffffffffffffffffffffffffffffffffffffffff166040518263ffffffff1660e01b815260040162001966919062002189565b602060405180830381865afa15801562001984573d6000803e3d6000fd5b505050506040513d601f19601f82011682018060405250810190620019aa91906200236b565b905081811015620019f2576040517f08c379a0000000000000000000000000000000000000000000000000000000008152600401620019e990620029a8565b60405180910390fd5b6000805487308860405162001a079062001ef0565b62001a169493929190620029ca565b604051809103906000f08015801562001a33573d6000803e3d6000fd5b509050600081905062001a4a886000548362001dc3565b8473ffffffffffffffffffffffffffffffffffffffff166342966c68856040518263ffffffff1660e01b815260040162001a85919062002068565b600060405180830381600087803b15801562001aa057600080fd5b505af115801562001ab5573d6000803e3d6000fd5b505050508073ffffffffffffffffffffffffffffffffffffffff166108fc349081150290604051600060405180830381858888f1935050505015801562001b00573d6000803e3d6000fd5b505050505050505050565b600081831062001b1c578162001b1e565b825b905092915050565b60016009600082825462001b3b919062002517565b92505081905550806007600082825462001b56919062002517565b92505081905550600a600085815260200190815260200160002083908060018154018082558091505060019003906000526020600020016000909190919091505580600d6000868152602001908152602001600020600082825462001bbc919062002517565b9250508190555081600b600086815260200190815260200160002060006101000a81548173ffffffffffffffffffffffffffffffffffffffff021916908373ffffffffffffffffffffffffffffffffffffffff16021790555060016011600086815260200190815260200160002060006101000a81548160ff02191690831515021790555083600e60008581526020019081526020016000208190555050505050565b6000600360008381526020019081526020016000205490506001806000838152602001908152602001600020600082825462001c9c9190620026a9565b92505081905550600160026000838152602001908152602001600020600082825462001cc9919062002517565b9250508190555060006006600083815260200190815260200160002060006101000a81548160ff0219169083151502179055505050565b816007600082825462001d149190620026a9565b92505081905550816008600082825462001d2f919062002517565b925050819055506000600e600085815260200190815260200160002054905082600c6000838152602001908152602001600020600082825462001d73919062002517565b925050819055506000838362001d8a9190620026a9565b0362001dbd5760006011600086815260200190815260200160002060006101000a81548160ff0219169083151502179055505b50505050565b8260036000848152602001908152602001600020819055506001806000858152602001908152602001600020600082825462001e00919062002517565b92505081905550600160046000848152602001908152602001600020600085815260200190815260200160002060006101000a81548160ff021916908315150217905550806005600084815260200190815260200160002060006101000a81548173ffffffffffffffffffffffffffffffffffffffff021916908373ffffffffffffffffffffffffffffffffffffffff160217905550600160008082825462001eaa919062002517565b9250508190555060016006600085815260200190815260200160002060006101000a81548160ff021916908315150217905550505050565b610d218062002a1883390190565b6111a7806200373983390190565b600080fd5b6000819050919050565b62001f188162001f03565b811462001f2457600080fd5b50565b60008135905062001f388162001f0d565b92915050565b60006020828403121562001f575762001f5662001efe565b5b600062001f678482850162001f27565b91505092915050565b60008115159050919050565b62001f878162001f70565b82525050565b600060208201905062001fa4600083018462001f7c565b92915050565b6000819050919050565b62001fbf8162001faa565b811462001fcb57600080fd5b50565b60008135905062001fdf8162001fb4565b92915050565b6000806000806080858703121562002002576200200162001efe565b5b6000620020128782880162001f27565b9450506020620020258782880162001f27565b9350506040620020388782880162001f27565b92505060606200204b8782880162001fce565b91505092959194509250565b620020628162001f03565b82525050565b60006020820190506200207f600083018462002057565b92915050565b600073ffffffffffffffffffffffffffffffffffffffff82169050919050565b6000620020b28262002085565b9050919050565b620020c481620020a5565b8114620020d057600080fd5b50565b600081359050620020e481620020b9565b92915050565b6000806040838503121562002104576200210362001efe565b5b60006200211485828601620020d3565b9250506020620021278582860162001f27565b9150509250929050565b600080604083850312156200214b576200214a62001efe565b5b60006200215b8582860162001f27565b92505060206200216e8582860162001f27565b9150509250929050565b6200218381620020a5565b82525050565b6000602082019050620021a0600083018462002178565b92915050565b60008060008060808587031215620021c357620021c262001efe565b5b6000620021d387828801620020d3565b9450506020620021e68782880162001f27565b9350506040620021f98782880162001f27565b92505060606200220c8782880162001f27565b91505092959194509250565b6000806040838503121562002232576200223162001efe565b5b6000620022428582860162001f27565b9250506020620022558582860162001fce565b9150509250929050565b600082825260208201905092915050565b7f43616c6c6572206973206e6f7420746865206f776e6572000000000000000000600082015250565b6000620022a86017836200225f565b9150620022b58262002270565b602082019050919050565b60006020820190508181036000830152620022db8162002299565b9050919050565b7f4e6f74206861766520656e6f756768206d617474657200000000000000000000600082015250565b60006200231a6016836200225f565b91506200232782620022e2565b602082019050919050565b600060208201905081810360008301526200234d816200230b565b9050919050565b600081519050620023658162001f0d565b92915050565b60006020828403121562002384576200238362001efe565b5b6000620023948482850162002354565b91505092915050565b7f4e6f74206869676820656e6f7567680000000000000000000000000000000000600082015250565b6000620023d5600f836200225f565b9150620023e2826200239d565b602082019050919050565b600060208201905081810360008301526200240881620023c6565b9050919050565b7f4e487b7100000000000000000000000000000000000000000000000000000000600052601260045260246000fd5b60006200244b8262001f03565b9150620024588362001f03565b9250826200246b576200246a6200240f565b5b828206905092915050565b7f447261772072617465206e6f7420646976697369626c65000000000000000000600082015250565b6000620024ae6017836200225f565b9150620024bb8262002476565b602082019050919050565b60006020820190508181036000830152620024e1816200249f565b9050919050565b7f4e487b7100000000000000000000000000000000000000000000000000000000600052601160045260246000fd5b6000620025248262001f03565b9150620025318362001f03565b92508282019050808211156200254c576200254b620024e8565b5b92915050565b7f4e487b7100000000000000000000000000000000000000000000000000000000600052603260045260246000fd5b60006200258e8262001f03565b91506200259b8362001f03565b9250828202620025ab8162001f03565b91508282048414831517620025c557620025c4620024e8565b5b5092915050565b6000819050919050565b6000819050919050565b600062002601620025fb620025f584620025cc565b620025d6565b62001f03565b9050919050565b6200261381620025e0565b82525050565b600060408201905062002630600083018562002178565b6200263f602083018462002608565b9392505050565b620026518162001f70565b81146200265d57600080fd5b50565b600081519050620026718162002646565b92915050565b60006020828403121562002690576200268f62001efe565b5b6000620026a08482850162002660565b91505092915050565b6000620026b68262001f03565b9150620026c38362001f03565b9250828203905081811115620026de57620026dd620024e8565b5b92915050565b6000620026f18262001f03565b91507fffffffffffffffffffffffffffffffffffffffffffffffffffffffffffffffff8203620027265762002725620024e8565b5b600182019050919050565b6200273c8162001faa565b82525050565b600060c08201905062002759600083018962002057565b62002768602083018862002057565b62002777604083018762002057565b62002786606083018662002057565b62002795608083018562002178565b620027a460a083018462002731565b979650505050505050565b6000604082019050620027c6600083018562002178565b620027d5602083018462002057565b9392505050565b7f4e6f7420656e6f756768206d6174746572000000000000000000000000000000600082015250565b6000620028146011836200225f565b91506200282182620027dc565b602082019050919050565b60006020820190508181036000830152620028478162002805565b9050919050565b7f43616c6c6572206973206e6f742074686520726967687420436f736d6f53656560008201527f6420636f6e747261637400000000000000000000000000000000000000000000602082015250565b6000620028ac602a836200225f565b9150620028b9826200284e565b604082019050919050565b60006020820190508181036000830152620028df816200289d565b9050919050565b7f45746865722076616c7565206973206e6f7420656e6f75676800000000000000600082015250565b60006200291e6019836200225f565b91506200292b82620028e6565b602082019050919050565b6000602082019050818103600083015262002951816200290f565b9050919050565b7f4d61747465722062616c616e6365206973206e6f7420656e6f75676800000000600082015250565b600062002990601c836200225f565b91506200299d8262002958565b602082019050919050565b60006020820190508181036000830152620029c38162002981565b9050919050565b6000608082019050620029e1600083018762002057565b620029f0602083018662002057565b620029ff604083018562002178565b62002a0e606083018462002731565b9594505050505056fe60806040523480156200001157600080fd5b5060405162000d2138038062000d21833981810160405281019062000037919062000283565b85600080018190555084600060010181905550836000600201819055508260006003018190555030600060040160006101000a81548173ffffffffffffffffffffffffffffffffffffffff021916908373ffffffffffffffffffffffffffffffffffffffff16021790555033600060050160006101000a81548173ffffffffffffffffffffffffffffffffffffffff021916908373ffffffffffffffffffffffffffffffffffffffff16021790555080600060060181905550600060050160009054906101000a900473ffffffffffffffffffffffffffffffffffffffff16600860006101000a81548173ffffffffffffffffffffffffffffffffffffffff021916908373ffffffffffffffffffffffffffffffffffffffff16021790555081600960006101000a81548173ffffffffffffffffffffffffffffffffffffffff021916908373ffffffffffffffffffffffffffffffffffffffff1602179055505050505050506200031f565b600080fd5b6000819050919050565b620001bd81620001a8565b8114620001c957600080fd5b50565b600081519050620001dd81620001b2565b92915050565b600073ffffffffffffffffffffffffffffffffffffffff82169050919050565b60006200021082620001e3565b9050919050565b620002228162000203565b81146200022e57600080fd5b50565b600081519050620002428162000217565b92915050565b6000819050919050565b6200025d8162000248565b81146200026957600080fd5b50565b6000815190506200027d8162000252565b92915050565b60008060008060008060c08789031215620002a357620002a2620001a3565b5b6000620002b389828a01620001cc565b9650506020620002c689828a01620001cc565b9550506040620002d989828a01620001cc565b9450506060620002ec89828a01620001cc565b9350506080620002ff89828a0162000231565b92505060a06200031289828a016200026c565b9150509295509295509295565b6109f2806200032f6000396000f3fe608060405234801561001057600080fd5b506004361061002b5760003560e01c806327ac1b6514610030575b600080fd5b61004a60048036038101906100459190610563565b61004c565b005b60011515600060070160003373ffffffffffffffffffffffffffffffffffffffff1673ffffffffffffffffffffffffffffffffffffffff16815260200190815260200160002060009054906101000a900460ff161515036100e2576040517f08c379a00000000000000000000000000000000000000000000000000000000081526004016100d990610667565b60405180910390fd5b6000806002015411610129576040517f08c379a0000000000000000000000000000000000000000000000000000000008152600401610120906106d3565b60405180910390fd5b610132836102eb565b50600960009054906101000a900473ffffffffffffffffffffffffffffffffffffffff1673ffffffffffffffffffffffffffffffffffffffff16639cee22b13360008001546000600301546000600201546040518563ffffffff1660e01b81526004016101a2949392919061074d565b600060405180830381600087803b1580156101bc57600080fd5b505af11580156101d0573d6000803e3d6000fd5b50505050600060030154600060020160008282546101ee91906107c1565b925050819055506001600060070160003373ffffffffffffffffffffffffffffffffffffffff1673ffffffffffffffffffffffffffffffffffffffff16815260200190815260200160002060006101000a81548160ff021916908315150217905550600860009054906101000a900473ffffffffffffffffffffffffffffffffffffffff1673ffffffffffffffffffffffffffffffffffffffff16639202c1ec60006001015484846040518463ffffffff1660e01b81526004016102b4939291906108b8565b600060405180830381600087803b1580156102ce57600080fd5b505af11580156102e2573d6000803e3d6000fd5b50505050505050565b600080826040516020016102ff9190610939565b604051602081830303815290604052805190602001209050600060060154811461035e576040517f08c379a00000000000000000000000000000000000000000000000000000000081526004016103559061099c565b60405180910390fd5b6001915050919050565b6000604051905090565b600080fd5b600080fd5b600080fd5b600080fd5b6000601f19601f8301169050919050565b7f4e487b7100000000000000000000000000000000000000000000000000000000600052604160045260246000fd5b6103cf82610386565b810181811067ffffffffffffffff821117156103ee576103ed610397565b5b80604052505050565b6000610401610368565b905061040d82826103c6565b919050565b600067ffffffffffffffff82111561042d5761042c610397565b5b61043682610386565b9050602081019050919050565b82818337600083830152505050565b600061046561046084610412565b6103f7565b90508281526020810184848401111561048157610480610381565b5b61048c848285610443565b509392505050565b600082601f8301126104a9576104a861037c565b5b81356104b9848260208601610452565b91505092915050565b600067ffffffffffffffff8211156104dd576104dc610397565b5b6104e682610386565b9050602081019050919050565b6000610506610501846104c2565b6103f7565b90508281526020810184848401111561052257610521610381565b5b61052d848285610443565b509392505050565b600082601f83011261054a5761054961037c565b5b813561055a8482602086016104f3565b91505092915050565b60008060006060848603121561057c5761057b610372565b5b600084013567ffffffffffffffff81111561059a57610599610377565b5b6105a686828701610494565b935050602084013567ffffffffffffffff8111156105c7576105c6610377565b5b6105d386828701610494565b925050604084013567ffffffffffffffff8111156105f4576105f3610377565b5b61060086828701610535565b9150509250925092565b600082825260208201905092915050565b7f43616e206f6e6c792064726177206f6e63650000000000000000000000000000600082015250565b600061065160128361060a565b915061065c8261061b565b602082019050919050565b6000602082019050818103600083015261068081610644565b9050919050565b7f4e6f2062757474657220746f2064726177000000000000000000000000000000600082015250565b60006106bd60118361060a565b91506106c882610687565b602082019050919050565b600060208201905081810360008301526106ec816106b0565b9050919050565b600073ffffffffffffffffffffffffffffffffffffffff82169050919050565b600061071e826106f3565b9050919050565b61072e81610713565b82525050565b6000819050919050565b61074781610734565b82525050565b60006080820190506107626000830187610725565b61076f602083018661073e565b61077c604083018561073e565b610789606083018461073e565b95945050505050565b7f4e487b7100000000000000000000000000000000000000000000000000000000600052601160045260246000fd5b60006107cc82610734565b91506107d783610734565b92508282039050818111156107ef576107ee610792565b5b92915050565b600081519050919050565b60005b8381101561081e578082015181840152602081019050610803565b60008484015250505050565b6000610835826107f5565b61083f818561060a565b935061084f818560208601610800565b61085881610386565b840191505092915050565b600081519050919050565b600082825260208201905092915050565b600061088a82610863565b610894818561086e565b93506108a4818560208601610800565b6108ad81610386565b840191505092915050565b60006060820190506108cd600083018661073e565b81810360208301526108df818561082a565b905081810360408301526108f3818461087f565b9050949350505050565b600081905092915050565b6000610913826107f5565b61091d81856108fd565b935061092d818560208601610800565b80840191505092915050565b60006109458284610908565b915081905092915050565b7f496e70757420646f6573206e6f74206d61746368207365637265740000000000600082015250565b6000610986601b8361060a565b915061099182610950565b602082019050919050565b600060208201905081810360008301526109b581610979565b905091905056fea2646970667358221220c20f0938c13e9b29ee8a6f57a43e4343ceaf28782c8056d01afd303eed99ad8d64736f6c634300081100336080604052604051620011a7380380620011a78339818101604052810190620000299190620002f4565b600033905080600760006101000a81548173ffffffffffffffffffffffffffffffffffffffff021916908373ffffffffffffffffffffffffffffffffffffffff16021790555082600860006101000a81548173ffffffffffffffffffffffffffffffffffffffff021916908373ffffffffffffffffffffffffffffffffffffffff1602179055508460008001819055508360006001018190555034600060020181905550600860009054906101000a900473ffffffffffffffffffffffffffffffffffffffff1673ffffffffffffffffffffffffffffffffffffffff166334fc1228856040518263ffffffff1660e01b81526004016200012a919062000377565b602060405180830381865afa15801562000148573d6000803e3d6000fd5b505050506040513d601f19601f820116820180604052508101906200016e919062000394565b60006003018190555030600060040160006101000a81548173ffffffffffffffffffffffffffffffffffffffff021916908373ffffffffffffffffffffffffffffffffffffffff16021790555080600060050160006101000a81548173ffffffffffffffffffffffffffffffffffffffff021916908373ffffffffffffffffffffffffffffffffffffffff160217905550816000600601819055505050505050620003c6565b600080fd5b6000819050919050565b6200022e8162000219565b81146200023a57600080fd5b50565b6000815190506200024e8162000223565b92915050565b600073ffffffffffffffffffffffffffffffffffffffff82169050919050565b6000620002818262000254565b9050919050565b620002938162000274565b81146200029f57600080fd5b50565b600081519050620002b38162000288565b92915050565b6000819050919050565b620002ce81620002b9565b8114620002da57600080fd5b50565b600081519050620002ee81620002c3565b92915050565b6000806000806080858703121562000311576200031062000214565b5b600062000321878288016200023d565b945050602062000334878288016200023d565b93505060406200034787828801620002a2565b92505060606200035a87828801620002dd565b91505092959194509250565b620003718162000219565b82525050565b60006020820190506200038e600083018462000366565b92915050565b600060208284031215620003ad57620003ac62000214565b5b6000620003bd848285016200023d565b91505092915050565b610dd180620003d66000396000f3fe608060405234801561001057600080fd5b506004361061004c5760003560e01c8063685771f4146100515780637d94792a1461006f578063956c2dc314610093578063c5d12c97146100af575b600080fd5b6100596100cd565b60405161006691906105ef565b60405180910390f35b6100776100d9565b60405161008a9796959493929190610664565b60405180910390f35b6100ad60048036038101906100a891906108ce565b610149565b005b6100b761054d565b6040516100c491906105ef565b60405180910390f35b60008060010154905090565b60008060000154908060010154908060020154908060030154908060040160009054906101000a900473ffffffffffffffffffffffffffffffffffffffff16908060050160009054906101000a900473ffffffffffffffffffffffffffffffffffffffff16908060060154905087565b61015283610559565b50600860009054906101000a900473ffffffffffffffffffffffffffffffffffffffff1673ffffffffffffffffffffffffffffffffffffffff1663733b0bca60008001546000600301546040518363ffffffff1660e01b81526004016101b9929190610975565b600060405180830381600087803b1580156101d357600080fd5b505af11580156101e7573d6000803e3d6000fd5b50505050600760009054906101000a900473ffffffffffffffffffffffffffffffffffffffff1673ffffffffffffffffffffffffffffffffffffffff1663a0e12efe83836040518363ffffffff1660e01b8152600401610248929190610a72565b600060405180830381600087803b15801561026257600080fd5b505af1158015610276573d6000803e3d6000fd5b505050506000600860009054906101000a900473ffffffffffffffffffffffffffffffffffffffff1673ffffffffffffffffffffffffffffffffffffffff1663b8a9736d6040518163ffffffff1660e01b8152600401602060405180830381865afa1580156102e9573d6000803e3d6000fd5b505050506040513d601f19601f8201168201806040525081019061030d9190610ad5565b90506000600860009054906101000a900473ffffffffffffffffffffffffffffffffffffffff1673ffffffffffffffffffffffffffffffffffffffff168260405161035790610b33565b60006040518083038185875af1925050503d8060008114610394576040519150601f19603f3d011682016040523d82523d6000602084013e610399565b606091505b50509050806103dd576040517f08c379a00000000000000000000000000000000000000000000000000000000081526004016103d490610b94565b60405180910390fd5b6000826000600201546103f09190610be3565b90506000600760009054906101000a900473ffffffffffffffffffffffffffffffffffffffff1673ffffffffffffffffffffffffffffffffffffffff16636352211e6000600101546040518263ffffffff1660e01b815260040161045491906105ef565b602060405180830381865afa158015610471573d6000803e3d6000fd5b505050506040513d601f19601f820116820180604052508101906104959190610c43565b905060008173ffffffffffffffffffffffffffffffffffffffff16836040516104bd90610b33565b60006040518083038185875af1925050503d80600081146104fa576040519150601f19603f3d011682016040523d82523d6000602084013e6104ff565b606091505b5050905080610543576040517f08c379a000000000000000000000000000000000000000000000000000000000815260040161053a90610cbc565b60405180910390fd5b5050505050505050565b60008060030154905090565b6000808260405160200161056d9190610d18565b60405160208183030381529060405280519060200120905060006006015481146105cc576040517f08c379a00000000000000000000000000000000000000000000000000000000081526004016105c390610d7b565b60405180910390fd5b6001915050919050565b6000819050919050565b6105e9816105d6565b82525050565b600060208201905061060460008301846105e0565b92915050565b600073ffffffffffffffffffffffffffffffffffffffff82169050919050565b60006106358261060a565b9050919050565b6106458161062a565b82525050565b6000819050919050565b61065e8161064b565b82525050565b600060e082019050610679600083018a6105e0565b61068660208301896105e0565b61069360408301886105e0565b6106a060608301876105e0565b6106ad608083018661063c565b6106ba60a083018561063c565b6106c760c0830184610655565b98975050505050505050565b6000604051905090565b600080fd5b600080fd5b600080fd5b600080fd5b6000601f19601f8301169050919050565b7f4e487b7100000000000000000000000000000000000000000000000000000000600052604160045260246000fd5b61073a826106f1565b810181811067ffffffffffffffff8211171561075957610758610702565b5b80604052505050565b600061076c6106d3565b90506107788282610731565b919050565b600067ffffffffffffffff82111561079857610797610702565b5b6107a1826106f1565b9050602081019050919050565b82818337600083830152505050565b60006107d06107cb8461077d565b610762565b9050828152602081018484840111156107ec576107eb6106ec565b5b6107f78482856107ae565b509392505050565b600082601f830112610814576108136106e7565b5b81356108248482602086016107bd565b91505092915050565b600067ffffffffffffffff82111561084857610847610702565b5b610851826106f1565b9050602081019050919050565b600061087161086c8461082d565b610762565b90508281526020810184848401111561088d5761088c6106ec565b5b6108988482856107ae565b509392505050565b600082601f8301126108b5576108b46106e7565b5b81356108c584826020860161085e565b91505092915050565b6000806000606084860312156108e7576108e66106dd565b5b600084013567ffffffffffffffff811115610905576109046106e2565b5b610911868287016107ff565b935050602084013567ffffffffffffffff811115610932576109316106e2565b5b61093e868287016107ff565b925050604084013567ffffffffffffffff81111561095f5761095e6106e2565b5b61096b868287016108a0565b9150509250925092565b600060408201905061098a60008301856105e0565b61099760208301846105e0565b9392505050565b600081519050919050565b600082825260208201905092915050565b60005b838110156109d85780820151818401526020810190506109bd565b60008484015250505050565b60006109ef8261099e565b6109f981856109a9565b9350610a098185602086016109ba565b610a12816106f1565b840191505092915050565b600081519050919050565b600082825260208201905092915050565b6000610a4482610a1d565b610a4e8185610a28565b9350610a5e8185602086016109ba565b610a67816106f1565b840191505092915050565b60006040820190508181036000830152610a8c81856109e4565b90508181036020830152610aa08184610a39565b90509392505050565b610ab2816105d6565b8114610abd57600080fd5b50565b600081519050610acf81610aa9565b92915050565b600060208284031215610aeb57610aea6106dd565b5b6000610af984828501610ac0565b91505092915050565b600081905092915050565b50565b6000610b1d600083610b02565b9150610b2882610b0d565b600082019050919050565b6000610b3e82610b10565b9150819050919050565b7f4574686572206e6f742073656e7420746f205472656173757279000000000000600082015250565b6000610b7e601a836109a9565b9150610b8982610b48565b602082019050919050565b60006020820190508181036000830152610bad81610b71565b9050919050565b7f4e487b7100000000000000000000000000000000000000000000000000000000600052601160045260246000fd5b6000610bee826105d6565b9150610bf9836105d6565b9250828203905081811115610c1157610c10610bb4565b5b92915050565b610c208161062a565b8114610c2b57600080fd5b50565b600081519050610c3d81610c17565b92915050565b600060208284031215610c5957610c586106dd565b5b6000610c6784828501610c2e565b91505092915050565b7f4574686572206e6f742073656e7420746f20706172656e74206e757400000000600082015250565b6000610ca6601c836109a9565b9150610cb182610c70565b602082019050919050565b60006020820190508181036000830152610cd581610c99565b9050919050565b600081905092915050565b6000610cf28261099e565b610cfc8185610cdc565b9350610d0c8185602086016109ba565b80840191505092915050565b6000610d248284610ce7565b915081905092915050565b7f496e70757420646f6573206e6f74206d61746368207365637265740000000000600082015250565b6000610d65601b836109a9565b9150610d7082610d2f565b602082019050919050565b60006020820190508181036000830152610d9481610d58565b905091905056fea2646970667358221220c76ab29c697727efde08779d4795a5ab97c98cd8605f39234a8abc7cb7d3ce8564736f6c63430008110033a26469706673582212205a006a7bd6e4cf4b2952003f49275f70c282a08b474ac57e572df47277a8083c64736f6c63430008110033",
  "immutableReferences": {},
  "source": "// SPDX-License-Identifier: MIT\npragma solidity ^0.8.7;\n\nimport \"openzeppelin-solidity/contracts/utils/math/Math.sol\";\nimport \"./CosmoMatter.sol\";\nimport \"./CosmoSeed.sol\";\nimport \"./CosmoButter.sol\";\n\nimport \"./SeedAccounts.sol\";\nimport \"./ButterAccounts.sol\";\n\n/**\n * @dev Manages the matter balance of the CosmoNuts collection and handles interaction with the\n * ERC20 Token to mint, burn, and allocate balances\n * Acts as storage for the ERC 721 tokens on their created Seed and Butter contracts.\n */\n contract CosmoTreasury is SeedAccounts, ButterAccounts {\n\n    /**\n     * @dev Saved addresses include the contract which created the Treasury: UNIVERSE_ADDRESS, and\n     * the address of the CosmoNuts contract (NFTs) which is created after the Treasury and then updated: matter_ADDRESS.\n     */\n    address public MATTER_ADDRESS;\n    uint256 public NUT_PRICE;\n    uint256 public MATTER_RATE;\n\n    /**\n     * @dev matterInUniverse is the Treasury's own account of the current ERC20 token supply available in Universe.\n     * matterInTreasury is the balanceOf ERC20 tokens that are assigned to the Treasury address and controlled by this contract.\n     * MATTER_RATE is the amount of matter it takes to create one NFT (used in calculating pricing) - set to 100\n     */\n    //uint256 public matterInUniverse;\n    //uint256 public matterInTreasury;\n\n    mapping(uint256 => address) public currentOwnerOfNut; // Record of current nut owners by address\n    mapping(uint256 => uint256) public matterBalanceOfNut; // Matter balance of each Nut recorded by the Treasury\n\n    uint256[] public nutsPayeeList; // List of nuts to be provided a balance\n\n    //CosmoMatter matter;\n\n    /**\n     *\n     */\n    constructor(address _matterAddress, uint256 _matterRate) {\n        MATTER_ADDRESS = _matterAddress;\n        MATTER_RATE = _matterRate;\n        //matter = CosmoMatter(MATTER_ADDRESS);\n        //matterInUniverse = matter.totalSupply();\n        //matterInTreasury = matter.balanceOf(address(this));\n    }\n\n    /*\n    modifier onlyUniverse {\n        require(address(msg.sender) == UNIVERSE_ADDRESS, \"Caller is not Universe\");\n        _;\n    }\n    */\n\n    /*\n    function updateCosmosAddress(address _matterAddressNew) external onlyUniverse {\n        MATTER_ADDRESS = _matterAddressNew;\n    }\n    */\n\n    //function updateNutPrice(uint256 _setNutPrice) external onlyUniverse {\n    //    NUT_PRICE = _setNutPrice;\n    //}\n\n    function calcMatterNeeded(uint256 _nutId) public view returns (uint256) {\n        return MATTER_RATE ^ (seedsOfNut[_nutId] + 1);\n    }\n\n    function spawnSeed(uint256 _nutId, bytes32 _secretHash) external payable {\n        uint256 ethToHold = NUT_PRICE ^ (seedsGrownOfNut[_nutId] + 1);\n        require(msg.value >= ethToHold, \"Ether value is not enough\");\n\n        CosmoMatter matter = CosmoMatter(MATTER_ADDRESS);\n        uint256 matterToBurn = calcMatterNeeded(_nutId);\n        uint256 matterOfOwner = matter.balanceOf((currentOwnerOfNut[_nutId]));\n        require(matterOfOwner >= matterToBurn, \"Matter balance is not enough\");\n\n        CosmoSeed cosmoseed = new CosmoSeed(\n            seedsCreated, _nutId, address(this), _secretHash\n        );\n        address seedLocation = address(cosmoseed);\n        integrateSeed(_nutId, seedsCreated, seedLocation);\n\n        matter.burn(matterToBurn);\n        payable(seedLocation).transfer(msg.value);\n    }\n\n    /**\n     * Called from CosmoSeed contract.\n     */\n    function growSeedFromNut(uint256 _seedId, uint256 _matterNeeded) external {\n        address seedAddress = seedLocations[_seedId];\n        require(address(msg.sender) == seedAddress, \"Caller is not the right CosmoSeed contract\");\n        //require(matter.balanceOf(address(msg.sender)) >= _matterNeeded, \"Not enough matter\");\n\n        CosmoSeed seed = CosmoSeed(seedAddress);\n\n        address nutOwner = currentOwnerOfNut[seed.nutId()];\n        CosmoMatter matter = CosmoMatter(MATTER_ADDRESS);\n        matter.transfer(nutOwner, _matterNeeded);\n        matter.mintMatter(address(this), 1);\n\n        //seed.degradeSeed(nutOwner);\n\n        //matterInUniverse = matter.totalSupply();\n        //matterInTreasury = matter.balanceOf(address(this));\n\n        growSeed(_seedId);\n\n    }\n\n    /**\n     * Creating new butter means the creation of a contract where other users can withdraw matter from.\n     * Need to contribute butter (which can only be done if you have a Nut with the desired level of matter to give away.\n     * A secret message is provided in hash form and checked for verification to withdraw funds.\n     */\n    function newButter(uint256 _nutId, uint256 _matterContributed, uint256 _matterDrawRate, bytes32 _secretHash) external {\n        address nutOwner = currentOwnerOfNut[_nutId];\n        CosmoMatter matter = CosmoMatter(MATTER_ADDRESS);\n        // Do we need to be doing these checks twice? Or really new check that caller is from contract (? or person who clicked?)\n        require(nutOwner == address(msg.sender), \"Caller is not the owner\");\n        require(matterBalanceOfNut[_nutId] >= _matterContributed, \"Not have enough matter\");\n        require(_matterContributed <= matter.balanceOf(nutOwner), \"Not high enough\");\n        require(_matterContributed % _matterDrawRate == 0, \"Draw rate not divisible\");\n\n        /**\n         * A nut must have already grown a seed to start being counted as part of the deficiency list.\n         */\n        if (seedsGrownOfNut[_nutId] > 0) {\n            butterDeficiencyInUniverse += _matterContributed;\n            butterDeficiencyOfNut[_nutId] += _matterContributed;\n            nutsPayeeList.push(_nutId);\n        }\n\n        /**\n         * The Treasury wants to distribute its available balance to the nutsPayeeList.\n         * It will distribute the minimum of either its available balance or the deficiency in the Universe.\n         * All payees are awarded one matter and moved to the end of the list.\n         * When their maximum available balance is reached, they are removed from the payee list.\n         */\n        uint256 matterInTreasury = matter.balanceOf(address(this));\n        if (matterInTreasury > 0) {\n            uint256 toDistribute = Math.min(matterInTreasury, butterDeficiencyInUniverse);\n\n            uint256 index = 0;\n            for (uint j = 0; j != toDistribute; j++) {\n                uint256 allPayees = nutsPayeeList.length;\n                if (allPayees == 0) {\n                    break;\n                }\n\n                if (j > allPayees) {\n                    index = 0;\n                }\n\n                uint256 nutPayeeId = nutsPayeeList[index];\n                address nutOwnerPayee = currentOwnerOfNut[nutPayeeId];\n                uint256 maxMatter = seedsGrownOfNut[nutPayeeId] * MATTER_RATE;\n                if (matterBalanceOfNut[nutPayeeId] == maxMatter) {\n                    delete nutsPayeeList[index];\n                } else {\n                    matter.transfer(nutOwnerPayee, 1);\n                    nutsPayeeList.push(nutPayeeId);\n                    delete nutsPayeeList[index];\n\n                    butterDeficiencyInUniverse -= 1;\n                    butterDeficiencyOfNut[nutPayeeId] -= 1;\n                }\n\n                index++;\n           }\n           matterInTreasury = matter.balanceOf(address(this));\n        }\n\n        CosmoButter butter = new CosmoButter(\n            butterJars, _nutId, _matterContributed, _matterDrawRate, address(this), _secretHash\n        );\n        matter.transfer(address(butter), _matterContributed);\n        churnButter(_nutId, butterJars, address(butter), _matterContributed);\n\n    }\n\n    /**\n     * Runs from CosmoButter contract when someone requests to draw matter.\n     */\n    function butterDrawn(address _drawer, uint256 _butterId, uint256 _balance, uint256 _currentBalance) external {\n        CosmoMatter matter = CosmoMatter(MATTER_ADDRESS);\n        matter.transfer(_drawer, _balance);\n        matter.mintMatter(address(this), _balance);\n        distributeButter(_butterId, _balance, _currentBalance);\n\n        //matterInUniverse = matter.totalSupply();\n        //matterInTreasury = matter.balanceOf(address(this));\n    }\n\n    function assignMintBalance(address _tokenOwner, uint256 _tokenId) external {\n        CosmoMatter matter = CosmoMatter(MATTER_ADDRESS);\n        require(matter.balanceOf(address(this)) >= MATTER_RATE, \"Not enough matter\");\n        matter.transfer(_tokenOwner, MATTER_RATE);\n        matterBalanceOfNut[_tokenId] = MATTER_RATE;\n        //matterInTreasury -= MATTER_RATE;\n    }\n\n}\n",
  "sourcePath": "/home/redlentils/Seafile/Websites/avatarnft/contracts/CosmoTreasury.sol",
  "compiler": {
    "name": "solc",
    "version": "0.8.17+commit.8df45f5f.Emscripten.clang"
  },
  "schemaVersion": "3.4.10",
  "updatedAt": "2022-10-05T12:49:49.543Z",
  "devdoc": {
    "details": "Manages the matter balance of the CosmoNuts collection and handles interaction with the ERC20 Token to mint, burn, and allocate balances Acts as storage for the ERC 721 tokens on their created Seed and Butter contracts.",
    "kind": "dev",
    "methods": {},
    "stateVariables": {
      "MATTER_ADDRESS": {
        "details": "Saved addresses include the contract which created the Treasury: UNIVERSE_ADDRESS, and the address of the CosmoNuts contract (NFTs) which is created after the Treasury and then updated: matter_ADDRESS."
      },
      "currentOwnerOfNut": {
        "details": "matterInUniverse is the Treasury's own account of the current ERC20 token supply available in Universe. matterInTreasury is the balanceOf ERC20 tokens that are assigned to the Treasury address and controlled by this contract. MATTER_RATE is the amount of matter it takes to create one NFT (used in calculating pricing) - set to 100"
      }
    },
    "version": 1
  },
  "userdoc": {
    "kind": "user",
    "methods": {
      "butterDrawn(address,uint256,uint256,uint256)": {
        "notice": "Runs from CosmoButter contract when someone requests to draw matter."
      },
      "butterWeight()": {
        "notice": "butterWeight is the amount of matter in the universe thta is currently outstanding. butterSpread is the amount of matter that has been distributed from butterWeight, thus reducing its value. butterJams represent the total number of matter contracts created in the Universe."
      },
      "buttersOfNut(uint256,uint256)": {
        "notice": "buttersOfNut represents a list of all butter contracts created byt that nut. butterLocations represents the address of contract identifed by butterId."
      },
      "growSeedFromNut(uint256,uint256)": {
        "notice": "Called from CosmoSeed contract."
      },
      "newButter(uint256,uint256,uint256,bytes32)": {
        "notice": "Creating new butter means the creation of a contract where other users can withdraw matter from. Need to contribute butter (which can only be done if you have a Nut with the desired level of matter to give away. A secret message is provided in hash form and checked for verification to withdraw funds."
      }
    },
    "version": 1
  }
}