{
  "contractName": "CosmoTreasury",
  "abi": [
    {
      "inputs": [
        {
          "internalType": "address",
          "name": "_systemAddress",
          "type": "address"
        },
        {
          "internalType": "address",
          "name": "_matterAddress",
          "type": "address"
        }
      ],
      "stateMutability": "nonpayable",
      "type": "constructor"
    },
    {
      "inputs": [],
      "name": "addressOf",
      "outputs": [
        {
          "internalType": "address",
          "name": "system",
          "type": "address"
        },
        {
          "internalType": "address",
          "name": "matter",
          "type": "address"
        },
        {
          "internalType": "address",
          "name": "treasury",
          "type": "address"
        },
        {
          "internalType": "address",
          "name": "cosmos",
          "type": "address"
        }
      ],
      "stateMutability": "view",
      "type": "function"
    },
    {
      "inputs": [
        {
          "internalType": "uint256",
          "name": "",
          "type": "uint256"
        }
      ],
      "name": "butterChurnedByNut",
      "outputs": [
        {
          "internalType": "uint256",
          "name": "",
          "type": "uint256"
        }
      ],
      "stateMutability": "view",
      "type": "function"
    },
    {
      "inputs": [],
      "name": "butterDeficiencyInUniverse",
      "outputs": [
        {
          "internalType": "uint256",
          "name": "",
          "type": "uint256"
        }
      ],
      "stateMutability": "view",
      "type": "function"
    },
    {
      "inputs": [
        {
          "internalType": "uint256",
          "name": "",
          "type": "uint256"
        }
      ],
      "name": "butterDeficiencyOfNut",
      "outputs": [
        {
          "internalType": "uint256",
          "name": "",
          "type": "uint256"
        }
      ],
      "stateMutability": "view",
      "type": "function"
    },
    {
      "inputs": [],
      "name": "butterJars",
      "outputs": [
        {
          "internalType": "uint256",
          "name": "",
          "type": "uint256"
        }
      ],
      "stateMutability": "view",
      "type": "function"
    },
    {
      "inputs": [
        {
          "internalType": "uint256",
          "name": "",
          "type": "uint256"
        }
      ],
      "name": "butterLocations",
      "outputs": [
        {
          "internalType": "address",
          "name": "",
          "type": "address"
        }
      ],
      "stateMutability": "view",
      "type": "function"
    },
    {
      "inputs": [],
      "name": "butterSpread",
      "outputs": [
        {
          "internalType": "uint256",
          "name": "",
          "type": "uint256"
        }
      ],
      "stateMutability": "view",
      "type": "function"
    },
    {
      "inputs": [],
      "name": "butterWeight",
      "outputs": [
        {
          "internalType": "uint256",
          "name": "",
          "type": "uint256"
        }
      ],
      "stateMutability": "view",
      "type": "function"
    },
    {
      "inputs": [
        {
          "internalType": "uint256",
          "name": "",
          "type": "uint256"
        },
        {
          "internalType": "uint256",
          "name": "",
          "type": "uint256"
        }
      ],
      "name": "buttersOfNut",
      "outputs": [
        {
          "internalType": "uint256",
          "name": "",
          "type": "uint256"
        }
      ],
      "stateMutability": "view",
      "type": "function"
    },
    {
      "inputs": [
        {
          "internalType": "uint256",
          "name": "",
          "type": "uint256"
        }
      ],
      "name": "currentOwnerOfNut",
      "outputs": [
        {
          "internalType": "address",
          "name": "",
          "type": "address"
        }
      ],
      "stateMutability": "view",
      "type": "function"
    },
    {
      "inputs": [
        {
          "internalType": "uint256",
          "name": "",
          "type": "uint256"
        }
      ],
      "name": "isButterActive",
      "outputs": [
        {
          "internalType": "bool",
          "name": "",
          "type": "bool"
        }
      ],
      "stateMutability": "view",
      "type": "function"
    },
    {
      "inputs": [
        {
          "internalType": "uint256",
          "name": "",
          "type": "uint256"
        }
      ],
      "name": "isSeedActive",
      "outputs": [
        {
          "internalType": "bool",
          "name": "",
          "type": "bool"
        }
      ],
      "stateMutability": "view",
      "type": "function"
    },
    {
      "inputs": [
        {
          "internalType": "uint256",
          "name": "",
          "type": "uint256"
        },
        {
          "internalType": "uint256",
          "name": "",
          "type": "uint256"
        }
      ],
      "name": "isSeedOfNut",
      "outputs": [
        {
          "internalType": "bool",
          "name": "",
          "type": "bool"
        }
      ],
      "stateMutability": "view",
      "type": "function"
    },
    {
      "inputs": [
        {
          "internalType": "uint256",
          "name": "",
          "type": "uint256"
        }
      ],
      "name": "matterBalanceOfNut",
      "outputs": [
        {
          "internalType": "uint256",
          "name": "",
          "type": "uint256"
        }
      ],
      "stateMutability": "view",
      "type": "function"
    },
    {
      "inputs": [
        {
          "internalType": "uint256",
          "name": "",
          "type": "uint256"
        }
      ],
      "name": "matterMintedByNut",
      "outputs": [
        {
          "internalType": "uint256",
          "name": "",
          "type": "uint256"
        }
      ],
      "stateMutability": "view",
      "type": "function"
    },
    {
      "inputs": [
        {
          "internalType": "uint256",
          "name": "_nutId",
          "type": "uint256"
        }
      ],
      "name": "numOfSeedsGrownOf",
      "outputs": [
        {
          "internalType": "uint256",
          "name": "",
          "type": "uint256"
        }
      ],
      "stateMutability": "view",
      "type": "function"
    },
    {
      "inputs": [
        {
          "internalType": "uint256",
          "name": "_nutId",
          "type": "uint256"
        }
      ],
      "name": "numOfSeedsOf",
      "outputs": [
        {
          "internalType": "uint256",
          "name": "",
          "type": "uint256"
        }
      ],
      "stateMutability": "view",
      "type": "function"
    },
    {
      "inputs": [
        {
          "internalType": "uint256",
          "name": "_nutId",
          "type": "uint256"
        }
      ],
      "name": "numberOfButterJars",
      "outputs": [
        {
          "internalType": "uint256",
          "name": "",
          "type": "uint256"
        }
      ],
      "stateMutability": "view",
      "type": "function"
    },
    {
      "inputs": [],
      "name": "nut",
      "outputs": [
        {
          "internalType": "uint256",
          "name": "price",
          "type": "uint256"
        },
        {
          "internalType": "uint256",
          "name": "rate",
          "type": "uint256"
        }
      ],
      "stateMutability": "view",
      "type": "function"
    },
    {
      "inputs": [
        {
          "internalType": "uint256",
          "name": "",
          "type": "uint256"
        }
      ],
      "name": "nutOfButter",
      "outputs": [
        {
          "internalType": "uint256",
          "name": "",
          "type": "uint256"
        }
      ],
      "stateMutability": "view",
      "type": "function"
    },
    {
      "inputs": [
        {
          "internalType": "uint256",
          "name": "",
          "type": "uint256"
        }
      ],
      "name": "nutOfSeed",
      "outputs": [
        {
          "internalType": "uint256",
          "name": "",
          "type": "uint256"
        }
      ],
      "stateMutability": "view",
      "type": "function"
    },
    {
      "inputs": [
        {
          "internalType": "uint256",
          "name": "",
          "type": "uint256"
        }
      ],
      "name": "nutsPayeeList",
      "outputs": [
        {
          "internalType": "uint256",
          "name": "",
          "type": "uint256"
        }
      ],
      "stateMutability": "view",
      "type": "function"
    },
    {
      "inputs": [
        {
          "internalType": "uint256",
          "name": "",
          "type": "uint256"
        }
      ],
      "name": "seedLocations",
      "outputs": [
        {
          "internalType": "address",
          "name": "",
          "type": "address"
        }
      ],
      "stateMutability": "view",
      "type": "function"
    },
    {
      "inputs": [],
      "name": "seedsCreated",
      "outputs": [
        {
          "internalType": "uint256",
          "name": "",
          "type": "uint256"
        }
      ],
      "stateMutability": "view",
      "type": "function"
    },
    {
      "inputs": [
        {
          "internalType": "uint256",
          "name": "",
          "type": "uint256"
        },
        {
          "internalType": "uint256",
          "name": "",
          "type": "uint256"
        }
      ],
      "name": "seedsGrownOfNut",
      "outputs": [
        {
          "internalType": "uint256",
          "name": "",
          "type": "uint256"
        }
      ],
      "stateMutability": "view",
      "type": "function"
    },
    {
      "inputs": [
        {
          "internalType": "uint256",
          "name": "",
          "type": "uint256"
        },
        {
          "internalType": "uint256",
          "name": "",
          "type": "uint256"
        }
      ],
      "name": "seedsOfNut",
      "outputs": [
        {
          "internalType": "uint256",
          "name": "",
          "type": "uint256"
        }
      ],
      "stateMutability": "view",
      "type": "function"
    },
    {
      "inputs": [],
      "name": "getPrice",
      "outputs": [
        {
          "internalType": "uint256",
          "name": "",
          "type": "uint256"
        }
      ],
      "stateMutability": "view",
      "type": "function"
    },
    {
      "inputs": [
        {
          "internalType": "uint256",
          "name": "_nutId",
          "type": "uint256"
        }
      ],
      "name": "matterNeeded",
      "outputs": [
        {
          "internalType": "uint256",
          "name": "",
          "type": "uint256"
        }
      ],
      "stateMutability": "view",
      "type": "function"
    },
    {
      "inputs": [
        {
          "internalType": "uint256",
          "name": "_nutId",
          "type": "uint256"
        },
        {
          "internalType": "bytes32",
          "name": "_secretHash",
          "type": "bytes32"
        }
      ],
      "name": "spawnSeed",
      "outputs": [
        {
          "internalType": "bool",
          "name": "",
          "type": "bool"
        }
      ],
      "stateMutability": "payable",
      "type": "function"
    },
    {
      "inputs": [
        {
          "internalType": "uint256",
          "name": "_seedId",
          "type": "uint256"
        },
        {
          "internalType": "uint256",
          "name": "_matterNeeded",
          "type": "uint256"
        }
      ],
      "name": "seedFromNut",
      "outputs": [
        {
          "internalType": "bool",
          "name": "",
          "type": "bool"
        }
      ],
      "stateMutability": "nonpayable",
      "type": "function"
    },
    {
      "inputs": [
        {
          "internalType": "uint256",
          "name": "_nutId",
          "type": "uint256"
        },
        {
          "internalType": "uint256",
          "name": "_matterContributed",
          "type": "uint256"
        },
        {
          "internalType": "uint256",
          "name": "_matterDrawRate",
          "type": "uint256"
        },
        {
          "internalType": "bytes32",
          "name": "_secretHash",
          "type": "bytes32"
        }
      ],
      "name": "newButter",
      "outputs": [
        {
          "internalType": "bool",
          "name": "",
          "type": "bool"
        }
      ],
      "stateMutability": "nonpayable",
      "type": "function"
    },
    {
      "inputs": [
        {
          "internalType": "address",
          "name": "_drawer",
          "type": "address"
        },
        {
          "internalType": "uint256",
          "name": "_butterId",
          "type": "uint256"
        },
        {
          "internalType": "uint256",
          "name": "_balance",
          "type": "uint256"
        },
        {
          "internalType": "uint256",
          "name": "_currentBalance",
          "type": "uint256"
        }
      ],
      "name": "butterDrawn",
      "outputs": [
        {
          "internalType": "bool",
          "name": "",
          "type": "bool"
        }
      ],
      "stateMutability": "nonpayable",
      "type": "function"
    },
    {
      "inputs": [
        {
          "internalType": "address",
          "name": "_tokenOwner",
          "type": "address"
        },
        {
          "internalType": "uint256",
          "name": "_tokenId",
          "type": "uint256"
        }
      ],
      "name": "assignMintBalance",
      "outputs": [
        {
          "internalType": "bool",
          "name": "",
          "type": "bool"
        }
      ],
      "stateMutability": "nonpayable",
      "type": "function"
    }
  ],
  "bytecode": "0x6080604052600080556000600755600060085560006009556000600f553480156200002957600080fd5b5060405162004f1038038062004f1083398181016040528101906200004f91906200018d565b81601260000160006101000a81548173ffffffffffffffffffffffffffffffffffffffff021916908373ffffffffffffffffffffffffffffffffffffffff16021790555080601260010160006101000a81548173ffffffffffffffffffffffffffffffffffffffff021916908373ffffffffffffffffffffffffffffffffffffffff16021790555030601260020160006101000a81548173ffffffffffffffffffffffffffffffffffffffff021916908373ffffffffffffffffffffffffffffffffffffffff1602179055505050620001d4565b600080fd5b600073ffffffffffffffffffffffffffffffffffffffff82169050919050565b6000620001558262000128565b9050919050565b620001678162000148565b81146200017357600080fd5b50565b60008151905062000187816200015c565b92915050565b60008060408385031215620001a757620001a662000123565b5b6000620001b78582860162000176565b9250506020620001ca8582860162000176565b9150509250929050565b614d2c80620001e46000396000f3fe6080604052600436106200021e5760003560e01c80634ffe5a6f1162000127578063a06fc90b11620000af578063df4f5ccc1162000079578063df4f5ccc1462000933578063ea988be81462000963578063f50d43491462000993578063f6317f8d14620009d7578063fe774f9d1462000a07576200021e565b8063a06fc90b1462000834578063a83851b91462000878578063aef054ce14620008ab578063d4d8103214620008ef576200021e565b80639578d3df11620000f15780639578d3df146200073857806398d5fdca146200077c5780639975a8a214620007ac5780639cee22b114620007f0576200021e565b80634ffe5a6f146200062857806353f97bc8146200066c5780636b651a2c14620006b05780638ed3df0f14620006f4576200021e565b806323f526c011620001ab57806339dc84f4116200017557806339dc84f4146200052c5780633c8023ad146200057057806347634e1c14620005b457806349a6b51f14620005f8576200021e565b806323f526c0146200043057806326342ea41462000474578063282adc8c14620004a45780633279bd4f14620004e8576200021e565b8063171e844111620001ed578063171e844114620003205780631821907a14620003645780631c85949c14620003a85780631e0b396414620003ec576200021e565b806302760a48146200022357806303f5de9d14620002675780631298896e14620002ab57806315d3b7a014620002ef575b600080fd5b3480156200023057600080fd5b506200024f600480360381019062000249919062002223565b62000a3d565b6040516200025e919062002272565b60405180910390f35b3480156200027457600080fd5b506200029360048036038101906200028d9190620022ca565b62000a5d565b604051620002a2919062002272565b60405180910390f35b348015620002b857600080fd5b50620002d76004803603810190620002d191906200233c565b620011e6565b604051620002e6919062002394565b60405180910390f35b348015620002fc57600080fd5b506200030762001218565b60405162000317929190620023b1565b60405180910390f35b3480156200032d57600080fd5b506200034c600480360381019062000346919062002223565b6200122a565b6040516200035b919062002272565b60405180910390f35b3480156200037157600080fd5b506200039060048036038101906200038a919062002223565b6200124a565b6040516200039f919062002394565b60405180910390f35b348015620003b557600080fd5b50620003d46004803603810190620003ce919062002443565b62001262565b604051620003e3919062002272565b60405180910390f35b348015620003f957600080fd5b506200041860048036038101906200041291906200233c565b6200142c565b60405162000427919062002394565b60405180910390f35b3480156200043d57600080fd5b506200045c600480360381019062000456919062002223565b6200145e565b6040516200046b91906200249b565b60405180910390f35b3480156200048157600080fd5b506200048c62001491565b6040516200049b919062002394565b60405180910390f35b348015620004b157600080fd5b50620004d06004803603810190620004ca919062002223565b62001497565b604051620004df919062002394565b60405180910390f35b348015620004f557600080fd5b506200051460048036038101906200050e919062002223565b620014b7565b60405162000523919062002394565b60405180910390f35b3480156200053957600080fd5b5062000558600480360381019062000552919062002223565b620014cf565b6040516200056791906200249b565b60405180910390f35b3480156200057d57600080fd5b506200059c60048036038101906200059691906200233c565b62001502565b604051620005ab919062002394565b60405180910390f35b348015620005c157600080fd5b50620005e06004803603810190620005da919062002223565b62001534565b604051620005ef919062002394565b60405180910390f35b3480156200060557600080fd5b50620006106200154c565b6040516200061f919062002394565b60405180910390f35b3480156200063557600080fd5b506200065460048036038101906200064e919062002223565b62001552565b60405162000663919062002394565b60405180910390f35b3480156200067957600080fd5b506200069860048036038101906200069291906200233c565b6200156a565b604051620006a7919062002272565b60405180910390f35b348015620006bd57600080fd5b50620006dc6004803603810190620006d6919062002223565b62001599565b604051620006eb919062002394565b60405180910390f35b3480156200070157600080fd5b506200072060048036038101906200071a919062002223565b620015b9565b6040516200072f919062002394565b60405180910390f35b3480156200074557600080fd5b506200076460048036038101906200075e919062002223565b620015d4565b60405162000773919062002394565b60405180910390f35b3480156200078957600080fd5b5062000794620015f9565b604051620007a3919062002394565b60405180910390f35b348015620007b957600080fd5b50620007d86004803603810190620007d2919062002223565b62001606565b604051620007e7919062002394565b60405180910390f35b348015620007fd57600080fd5b506200081c6004803603810190620008169190620024b8565b62001626565b6040516200082b919062002272565b60405180910390f35b3480156200084157600080fd5b506200086060048036038101906200085a91906200233c565b62001760565b6040516200086f919062002272565b60405180910390f35b3480156200088557600080fd5b506200089062001a16565b604051620008a294939291906200252a565b60405180910390f35b348015620008b857600080fd5b50620008d76004803603810190620008d1919062002223565b62001ab4565b604051620008e691906200249b565b60405180910390f35b348015620008fc57600080fd5b506200091b600480360381019062000915919062002223565b62001ae7565b6040516200092a919062002394565b60405180910390f35b3480156200094057600080fd5b506200094b62001aff565b6040516200095a919062002394565b60405180910390f35b3480156200097057600080fd5b506200097b62001b05565b6040516200098a919062002394565b60405180910390f35b348015620009a057600080fd5b50620009bf6004803603810190620009b9919062002223565b62001b0b565b604051620009ce919062002394565b60405180910390f35b348015620009e457600080fd5b50620009ef62001b23565b604051620009fe919062002394565b60405180910390f35b62000a25600480360381019062000a1f919062002577565b62001b29565b60405162000a34919062002272565b60405180910390f35b60116020528060005260406000206000915054906101000a900460ff1681565b6000806018600087815260200190815260200160002060009054906101000a900473ffffffffffffffffffffffffffffffffffffffff1690503373ffffffffffffffffffffffffffffffffffffffff168173ffffffffffffffffffffffffffffffffffffffff161462000b07576040517f08c379a000000000000000000000000000000000000000000000000000000000815260040162000afe906200261f565b60405180910390fd5b846019600088815260200190815260200160002054101562000b60576040517f08c379a000000000000000000000000000000000000000000000000000000000815260040162000b579062002691565b60405180910390fd5b6000601260010160009054906101000a900473ffffffffffffffffffffffffffffffffffffffff1690508073ffffffffffffffffffffffffffffffffffffffff166370a08231836040518263ffffffff1660e01b815260040162000bc591906200249b565b602060405180830381865afa15801562000be3573d6000803e3d6000fd5b505050506040513d601f19601f8201168201806040525081019062000c099190620026ca565b86111562000c4e576040517f08c379a000000000000000000000000000000000000000000000000000000000815260040162000c45906200274c565b60405180910390fd5b6000858762000c5e91906200279d565b1462000ca1576040517f08c379a000000000000000000000000000000000000000000000000000000000815260040162000c989062002825565b60405180910390fd5b600062000cae8862001599565b111562000d265785600f600082825462000cc9919062002876565b925050819055508560106000898152602001908152602001600020600082825462000cf5919062002876565b92505081905550601a8790806001815401808255809150506001900390600052602060002001600090919091909150555b60008173ffffffffffffffffffffffffffffffffffffffff166370a08231601260020160009054906101000a900473ffffffffffffffffffffffffffffffffffffffff166040518263ffffffff1660e01b815260040162000d8891906200249b565b602060405180830381865afa15801562000da6573d6000803e3d6000fd5b505050506040513d601f19601f8201168201806040525081019062000dcc9190620026ca565b90506000811115620010d457600062000de882600f5462001e01565b90506000805b8281146200102a576000601a8054905090506000810362000e1057506200102a565b8082111562000e1e57600092505b6000601a848154811062000e375762000e36620028b1565b5b9060005260206000200154905060006018600083815260200190815260200160002060009054906101000a900473ffffffffffffffffffffffffffffffffffffffff169050600060166001015462000e8f8462001599565b62000e9b9190620028e0565b90508060196000858152602001908152602001600020540362000ee357601a868154811062000ecf5762000ece620028b1565b5b906000526020600020016000905562001000565b8873ffffffffffffffffffffffffffffffffffffffff1663a9059cbb8360016040518363ffffffff1660e01b815260040162000f2192919062002978565b6020604051808303816000875af115801562000f41573d6000803e3d6000fd5b505050506040513d601f19601f8201168201806040525081019062000f679190620029d6565b50601a839080600181540180825580915050600190039060005260206000200160009091909190915055601a868154811062000fa85762000fa7620028b1565b5b90600052602060002001600090556001600f600082825462000fcb919062002a08565b92505081905550600160106000858152602001908152602001600020600082825462000ff8919062002a08565b925050819055505b85806200100d9062002a43565b965050505050508080620010219062002a43565b91505062000dee565b508373ffffffffffffffffffffffffffffffffffffffff166370a08231601260020160009054906101000a900473ffffffffffffffffffffffffffffffffffffffff166040518263ffffffff1660e01b81526004016200108b91906200249b565b602060405180830381865afa158015620010a9573d6000803e3d6000fd5b505050506040513d601f19601f82011682018060405250810190620010cf9190620026ca565b925050505b6000600954898989601260020160009054906101000a900473ffffffffffffffffffffffffffffffffffffffff168a6040516200111190620021c7565b620011229695949392919062002aa1565b604051809103906000f0801580156200113f573d6000803e3d6000fd5b5090508273ffffffffffffffffffffffffffffffffffffffff1663a9059cbb828a6040518363ffffffff1660e01b81526004016200117f92919062002b0e565b6020604051808303816000875af11580156200119f573d6000803e3d6000fd5b505050506040513d601f19601f82011682018060405250810190620011c59190620029d6565b50620011d689600954838b62001e1c565b6001945050505050949350505050565b600260205281600052604060002081815481106200120357600080fd5b90600052602060002001600091509150505481565b60168060000154908060010154905082565b60066020528060005260406000206000915054906101000a900460ff1681565b600d6020528060005260406000206000915090505481565b600080601260010160009054906101000a900473ffffffffffffffffffffffffffffffffffffffff1690506016600101548173ffffffffffffffffffffffffffffffffffffffff166370a08231601260020160009054906101000a900473ffffffffffffffffffffffffffffffffffffffff166040518263ffffffff1660e01b8152600401620012f391906200249b565b602060405180830381865afa15801562001311573d6000803e3d6000fd5b505050506040513d601f19601f82011682018060405250810190620013379190620026ca565b10156200137b576040517f08c379a0000000000000000000000000000000000000000000000000000000008152600401620013729062002b8b565b60405180910390fd5b8073ffffffffffffffffffffffffffffffffffffffff1663a9059cbb856016600101546040518363ffffffff1660e01b8152600401620013bd92919062002b0e565b6020604051808303816000875af1158015620013dd573d6000803e3d6000fd5b505050506040513d601f19601f82011682018060405250810190620014039190620029d6565b506016600101546019600085815260200190815260200160002081905550600191505092915050565b600a60205281600052604060002081815481106200144957600080fd5b90600052602060002001600091509150505481565b60056020528060005260406000206000915054906101000a900473ffffffffffffffffffffffffffffffffffffffff1681565b60095481565b6000600a6000838152602001908152602001600020805490509050919050565b600c6020528060005260406000206000915090505481565b60186020528060005260406000206000915054906101000a900473ffffffffffffffffffffffffffffffffffffffff1681565b600160205281600052604060002081815481106200151f57600080fd5b90600052602060002001600091509150505481565b600e6020528060005260406000206000915090505481565b60085481565b60106020528060005260406000206000915090505481565b60046020528160005260406000206020528060005260406000206000915091509054906101000a900460ff1681565b600060026000838152602001908152602001600020805490509050919050565b6000620015c68262001606565b601660010154189050919050565b601a8181548110620015e557600080fd5b906000526020600020016000915090505481565b6000601660000154905090565b600060016000838152602001908152602001600020805490509050919050565b600080601260010160009054906101000a900473ffffffffffffffffffffffffffffffffffffffff1690508073ffffffffffffffffffffffffffffffffffffffff1663a9059cbb87866040518363ffffffff1660e01b81526004016200168e92919062002b0e565b6020604051808303816000875af1158015620016ae573d6000803e3d6000fd5b505050506040513d601f19601f82011682018060405250810190620016d49190620029d6565b508073ffffffffffffffffffffffffffffffffffffffff16634bbc1bcd30866040518363ffffffff1660e01b81526004016200171292919062002b0e565b600060405180830381600087803b1580156200172d57600080fd5b505af115801562001742573d6000803e3d6000fd5b505050506200175385858562001f55565b6001915050949350505050565b6000806005600085815260200190815260200160002060009054906101000a900473ffffffffffffffffffffffffffffffffffffffff1690508073ffffffffffffffffffffffffffffffffffffffff163373ffffffffffffffffffffffffffffffffffffffff16146200180a576040517f08c379a0000000000000000000000000000000000000000000000000000000008152600401620018019062002c23565b60405180910390fd5b60008190506000601860008373ffffffffffffffffffffffffffffffffffffffff1663685771f46040518163ffffffff1660e01b8152600401602060405180830381865afa15801562001861573d6000803e3d6000fd5b505050506040513d601f19601f82011682018060405250810190620018879190620026ca565b815260200190815260200160002060009054906101000a900473ffffffffffffffffffffffffffffffffffffffff1690506000601260010160009054906101000a900473ffffffffffffffffffffffffffffffffffffffff1690508073ffffffffffffffffffffffffffffffffffffffff1663a9059cbb83886040518363ffffffff1660e01b81526004016200191f92919062002b0e565b6020604051808303816000875af11580156200193f573d6000803e3d6000fd5b505050506040513d601f19601f82011682018060405250810190620019659190620029d6565b508073ffffffffffffffffffffffffffffffffffffffff16634bbc1bcd601260020160009054906101000a900473ffffffffffffffffffffffffffffffffffffffff1660016040518363ffffffff1660e01b8152600401620019c992919062002978565b600060405180830381600087803b158015620019e457600080fd5b505af1158015620019f9573d6000803e3d6000fd5b5050505062001a088762002018565b600194505050505092915050565b60128060000160009054906101000a900473ffffffffffffffffffffffffffffffffffffffff16908060010160009054906101000a900473ffffffffffffffffffffffffffffffffffffffff16908060020160009054906101000a900473ffffffffffffffffffffffffffffffffffffffff16908060030160009054906101000a900473ffffffffffffffffffffffffffffffffffffffff16905084565b600b6020528060005260406000206000915054906101000a900473ffffffffffffffffffffffffffffffffffffffff1681565b60036020528060005260406000206000915090505481565b600f5481565b60005481565b60196020528060005260406000206000915090505481565b60075481565b60008062001b378462001599565b6016600001541890508034101562001b86576040517f08c379a000000000000000000000000000000000000000000000000000000000815260040162001b7d9062002c95565b60405180910390fd5b6000601260010160009054906101000a900473ffffffffffffffffffffffffffffffffffffffff169050600062001bbd86620015b9565b905060008273ffffffffffffffffffffffffffffffffffffffff166370a08231601860008a815260200190815260200160002060009054906101000a900473ffffffffffffffffffffffffffffffffffffffff166040518263ffffffff1660e01b815260040162001c2f91906200249b565b602060405180830381865afa15801562001c4d573d6000803e3d6000fd5b505050506040513d601f19601f8201168201806040525081019062001c739190620026ca565b90508181101562001cbb576040517f08c379a000000000000000000000000000000000000000000000000000000000815260040162001cb29062002d07565b60405180910390fd5b600080548830601260030160009054906101000a900473ffffffffffffffffffffffffffffffffffffffff168a60405162001cf690620021d5565b62001d0695949392919062002d29565b604051809103906000f08015801562001d23573d6000803e3d6000fd5b509050600081905062001d3a89600054836200209a565b8473ffffffffffffffffffffffffffffffffffffffff166342966c68856040518263ffffffff1660e01b815260040162001d75919062002394565b600060405180830381600087803b15801562001d9057600080fd5b505af115801562001da5573d6000803e3d6000fd5b505050508073ffffffffffffffffffffffffffffffffffffffff166108fc349081150290604051600060405180830381858888f1935050505015801562001df0573d6000803e3d6000fd5b506001965050505050505092915050565b600081831062001e12578162001e14565b825b905092915050565b60016009600082825462001e31919062002876565b92505081905550806007600082825462001e4c919062002876565b92505081905550600a600085815260200190815260200160002083908060018154018082558091505060019003906000526020600020016000909190919091505580600d6000868152602001908152602001600020600082825462001eb2919062002876565b9250508190555081600b600086815260200190815260200160002060006101000a81548173ffffffffffffffffffffffffffffffffffffffff021916908373ffffffffffffffffffffffffffffffffffffffff16021790555060016011600086815260200190815260200160002060006101000a81548160ff02191690831515021790555083600e60008581526020019081526020016000208190555050505050565b816007600082825462001f69919062002a08565b92505081905550816008600082825462001f84919062002876565b925050819055506000600e600085815260200190815260200160002054905082600c6000838152602001908152602001600020600082825462001fc8919062002876565b925050819055506000838362001fdf919062002a08565b03620020125760006011600086815260200190815260200160002060006101000a81548160ff0219169083151502179055505b50505050565b6000600360008381526020019081526020016000205490506002600082815260200190815260200160002082908060018154018082558091505060019003906000526020600020016000909190919091505560006006600083815260200190815260200160002060006101000a81548160ff0219169083151502179055505050565b82600360008481526020019081526020016000208190555060016000848152602001908152602001600020829080600181540180825580915050600190039060005260206000200160009091909190915055600160046000848152602001908152602001600020600085815260200190815260200160002060006101000a81548160ff021916908315150217905550806005600084815260200190815260200160002060006101000a81548173ffffffffffffffffffffffffffffffffffffffff021916908373ffffffffffffffffffffffffffffffffffffffff16021790555060016000808282546200218f919062002876565b9250508190555060016006600085815260200190815260200160002060006101000a81548160ff021916908315150217905550505050565b610d4d8062002d8783390190565b6112238062003ad483390190565b600080fd5b6000819050919050565b620021fd81620021e8565b81146200220957600080fd5b50565b6000813590506200221d81620021f2565b92915050565b6000602082840312156200223c576200223b620021e3565b5b60006200224c848285016200220c565b91505092915050565b60008115159050919050565b6200226c8162002255565b82525050565b600060208201905062002289600083018462002261565b92915050565b6000819050919050565b620022a4816200228f565b8114620022b057600080fd5b50565b600081359050620022c48162002299565b92915050565b60008060008060808587031215620022e757620022e6620021e3565b5b6000620022f7878288016200220c565b94505060206200230a878288016200220c565b93505060406200231d878288016200220c565b92505060606200233087828801620022b3565b91505092959194509250565b60008060408385031215620023565762002355620021e3565b5b600062002366858286016200220c565b925050602062002379858286016200220c565b9150509250929050565b6200238e81620021e8565b82525050565b6000602082019050620023ab600083018462002383565b92915050565b6000604082019050620023c8600083018562002383565b620023d7602083018462002383565b9392505050565b600073ffffffffffffffffffffffffffffffffffffffff82169050919050565b60006200240b82620023de565b9050919050565b6200241d81620023fe565b81146200242957600080fd5b50565b6000813590506200243d8162002412565b92915050565b600080604083850312156200245d576200245c620021e3565b5b60006200246d858286016200242c565b925050602062002480858286016200220c565b9150509250929050565b6200249581620023fe565b82525050565b6000602082019050620024b260008301846200248a565b92915050565b60008060008060808587031215620024d557620024d4620021e3565b5b6000620024e5878288016200242c565b9450506020620024f8878288016200220c565b93505060406200250b878288016200220c565b92505060606200251e878288016200220c565b91505092959194509250565b60006080820190506200254160008301876200248a565b6200255060208301866200248a565b6200255f60408301856200248a565b6200256e60608301846200248a565b95945050505050565b60008060408385031215620025915762002590620021e3565b5b6000620025a1858286016200220c565b9250506020620025b485828601620022b3565b9150509250929050565b600082825260208201905092915050565b7f43616c6c6572206973206e6f7420746865206f776e6572000000000000000000600082015250565b600062002607601783620025be565b91506200261482620025cf565b602082019050919050565b600060208201905081810360008301526200263a81620025f8565b9050919050565b7f4e6f74206861766520656e6f756768206d617474657200000000000000000000600082015250565b600062002679601683620025be565b9150620026868262002641565b602082019050919050565b60006020820190508181036000830152620026ac816200266a565b9050919050565b600081519050620026c481620021f2565b92915050565b600060208284031215620026e357620026e2620021e3565b5b6000620026f384828501620026b3565b91505092915050565b7f4e6f74206869676820656e6f7567680000000000000000000000000000000000600082015250565b600062002734600f83620025be565b91506200274182620026fc565b602082019050919050565b60006020820190508181036000830152620027678162002725565b9050919050565b7f4e487b7100000000000000000000000000000000000000000000000000000000600052601260045260246000fd5b6000620027aa82620021e8565b9150620027b783620021e8565b925082620027ca57620027c96200276e565b5b828206905092915050565b7f447261772072617465206e6f7420646976697369626c65000000000000000000600082015250565b60006200280d601783620025be565b91506200281a82620027d5565b602082019050919050565b600060208201905081810360008301526200284081620027fe565b9050919050565b7f4e487b7100000000000000000000000000000000000000000000000000000000600052601160045260246000fd5b60006200288382620021e8565b91506200289083620021e8565b9250828201905080821115620028ab57620028aa62002847565b5b92915050565b7f4e487b7100000000000000000000000000000000000000000000000000000000600052603260045260246000fd5b6000620028ed82620021e8565b9150620028fa83620021e8565b92508282026200290a81620021e8565b9150828204841483151762002924576200292362002847565b5b5092915050565b6000819050919050565b6000819050919050565b6000620029606200295a62002954846200292b565b62002935565b620021e8565b9050919050565b62002972816200293f565b82525050565b60006040820190506200298f60008301856200248a565b6200299e602083018462002967565b9392505050565b620029b08162002255565b8114620029bc57600080fd5b50565b600081519050620029d081620029a5565b92915050565b600060208284031215620029ef57620029ee620021e3565b5b6000620029ff84828501620029bf565b91505092915050565b600062002a1582620021e8565b915062002a2283620021e8565b925082820390508181111562002a3d5762002a3c62002847565b5b92915050565b600062002a5082620021e8565b91507fffffffffffffffffffffffffffffffffffffffffffffffffffffffffffffffff820362002a855762002a8462002847565b5b600182019050919050565b62002a9b816200228f565b82525050565b600060c08201905062002ab8600083018962002383565b62002ac7602083018862002383565b62002ad6604083018762002383565b62002ae5606083018662002383565b62002af460808301856200248a565b62002b0360a083018462002a90565b979650505050505050565b600060408201905062002b2560008301856200248a565b62002b34602083018462002383565b9392505050565b7f4e6f7420656e6f756768206d6174746572000000000000000000000000000000600082015250565b600062002b73601183620025be565b915062002b808262002b3b565b602082019050919050565b6000602082019050818103600083015262002ba68162002b64565b9050919050565b7f43616c6c6572206973206e6f742074686520726967687420436f736d6f53656560008201527f6420636f6e747261637400000000000000000000000000000000000000000000602082015250565b600062002c0b602a83620025be565b915062002c188262002bad565b604082019050919050565b6000602082019050818103600083015262002c3e8162002bfc565b9050919050565b7f45746865722076616c7565206973206e6f7420656e6f75676800000000000000600082015250565b600062002c7d601983620025be565b915062002c8a8262002c45565b602082019050919050565b6000602082019050818103600083015262002cb08162002c6e565b9050919050565b7f4d61747465722062616c616e6365206973206e6f7420656e6f75676800000000600082015250565b600062002cef601c83620025be565b915062002cfc8262002cb7565b602082019050919050565b6000602082019050818103600083015262002d228162002ce0565b9050919050565b600060a08201905062002d40600083018862002383565b62002d4f602083018762002383565b62002d5e60408301866200248a565b62002d6d60608301856200248a565b62002d7c608083018462002a90565b969550505050505056fe60806040523480156200001157600080fd5b5060405162000d4d38038062000d4d833981810160405281019062000037919062000220565b85600080018190555084600060010181905550836000600201819055508260006003018190555030600060040160006101000a81548173ffffffffffffffffffffffffffffffffffffffff021916908373ffffffffffffffffffffffffffffffffffffffff16021790555081600060050160006101000a81548173ffffffffffffffffffffffffffffffffffffffff021916908373ffffffffffffffffffffffffffffffffffffffff16021790555033600060060160006101000a81548173ffffffffffffffffffffffffffffffffffffffff021916908373ffffffffffffffffffffffffffffffffffffffff16021790555080600060070181905550505050505050620002bc565b600080fd5b6000819050919050565b6200015a8162000145565b81146200016657600080fd5b50565b6000815190506200017a816200014f565b92915050565b600073ffffffffffffffffffffffffffffffffffffffff82169050919050565b6000620001ad8262000180565b9050919050565b620001bf81620001a0565b8114620001cb57600080fd5b50565b600081519050620001df81620001b4565b92915050565b6000819050919050565b620001fa81620001e5565b81146200020657600080fd5b50565b6000815190506200021a81620001ef565b92915050565b60008060008060008060c0878903121562000240576200023f62000140565b5b60006200025089828a0162000169565b96505060206200026389828a0162000169565b95505060406200027689828a0162000169565b94505060606200028989828a0162000169565b93505060806200029c89828a01620001ce565b92505060a0620002af89828a0162000209565b9150509295509295509295565b610a8180620002cc6000396000f3fe608060405234801561001057600080fd5b506004361061002b5760003560e01c806327ac1b6514610030575b600080fd5b61004a6004803603810190610045919061058d565b61004c565b005b60011515600060080160003373ffffffffffffffffffffffffffffffffffffffff1673ffffffffffffffffffffffffffffffffffffffff16815260200190815260200160002060009054906101000a900460ff161515036100e2576040517f08c379a00000000000000000000000000000000000000000000000000000000081526004016100d990610691565b60405180910390fd5b6000806002015411610129576040517f08c379a0000000000000000000000000000000000000000000000000000000008152600401610120906106fd565b60405180910390fd5b61013283610315565b50600060050160009054906101000a900473ffffffffffffffffffffffffffffffffffffffff1673ffffffffffffffffffffffffffffffffffffffff16639cee22b13360008001546000600301546000600201546040518563ffffffff1660e01b81526004016101a59493929190610777565b6020604051808303816000875af11580156101c4573d6000803e3d6000fd5b505050506040513d601f19601f820116820180604052508101906101e891906107f4565b50600060030154600060020160008282546102039190610850565b925050819055506001600060080160003373ffffffffffffffffffffffffffffffffffffffff1673ffffffffffffffffffffffffffffffffffffffff16815260200190815260200160002060006101000a81548160ff021916908315150217905550600060060160009054906101000a900473ffffffffffffffffffffffffffffffffffffffff1673ffffffffffffffffffffffffffffffffffffffff16639202c1ec60006001015484846040518463ffffffff1660e01b81526004016102cc93929190610947565b6020604051808303816000875af11580156102eb573d6000803e3d6000fd5b505050506040513d601f19601f8201168201806040525081019061030f91906107f4565b50505050565b6000808260405160200161032991906109c8565b6040516020818303038152906040528051906020012090506000600701548114610388576040517f08c379a000000000000000000000000000000000000000000000000000000000815260040161037f90610a2b565b60405180910390fd5b6001915050919050565b6000604051905090565b600080fd5b600080fd5b600080fd5b600080fd5b6000601f19601f8301169050919050565b7f4e487b7100000000000000000000000000000000000000000000000000000000600052604160045260246000fd5b6103f9826103b0565b810181811067ffffffffffffffff82111715610418576104176103c1565b5b80604052505050565b600061042b610392565b905061043782826103f0565b919050565b600067ffffffffffffffff821115610457576104566103c1565b5b610460826103b0565b9050602081019050919050565b82818337600083830152505050565b600061048f61048a8461043c565b610421565b9050828152602081018484840111156104ab576104aa6103ab565b5b6104b684828561046d565b509392505050565b600082601f8301126104d3576104d26103a6565b5b81356104e384826020860161047c565b91505092915050565b600067ffffffffffffffff821115610507576105066103c1565b5b610510826103b0565b9050602081019050919050565b600061053061052b846104ec565b610421565b90508281526020810184848401111561054c5761054b6103ab565b5b61055784828561046d565b509392505050565b600082601f830112610574576105736103a6565b5b813561058484826020860161051d565b91505092915050565b6000806000606084860312156105a6576105a561039c565b5b600084013567ffffffffffffffff8111156105c4576105c36103a1565b5b6105d0868287016104be565b935050602084013567ffffffffffffffff8111156105f1576105f06103a1565b5b6105fd868287016104be565b925050604084013567ffffffffffffffff81111561061e5761061d6103a1565b5b61062a8682870161055f565b9150509250925092565b600082825260208201905092915050565b7f43616e206f6e6c792064726177206f6e63650000000000000000000000000000600082015250565b600061067b601283610634565b915061068682610645565b602082019050919050565b600060208201905081810360008301526106aa8161066e565b9050919050565b7f4e6f2062757474657220746f2064726177000000000000000000000000000000600082015250565b60006106e7601183610634565b91506106f2826106b1565b602082019050919050565b60006020820190508181036000830152610716816106da565b9050919050565b600073ffffffffffffffffffffffffffffffffffffffff82169050919050565b60006107488261071d565b9050919050565b6107588161073d565b82525050565b6000819050919050565b6107718161075e565b82525050565b600060808201905061078c600083018761074f565b6107996020830186610768565b6107a66040830185610768565b6107b36060830184610768565b95945050505050565b60008115159050919050565b6107d1816107bc565b81146107dc57600080fd5b50565b6000815190506107ee816107c8565b92915050565b60006020828403121561080a5761080961039c565b5b6000610818848285016107df565b91505092915050565b7f4e487b7100000000000000000000000000000000000000000000000000000000600052601160045260246000fd5b600061085b8261075e565b91506108668361075e565b925082820390508181111561087e5761087d610821565b5b92915050565b600081519050919050565b60005b838110156108ad578082015181840152602081019050610892565b60008484015250505050565b60006108c482610884565b6108ce8185610634565b93506108de81856020860161088f565b6108e7816103b0565b840191505092915050565b600081519050919050565b600082825260208201905092915050565b6000610919826108f2565b61092381856108fd565b935061093381856020860161088f565b61093c816103b0565b840191505092915050565b600060608201905061095c6000830186610768565b818103602083015261096e81856108b9565b90508181036040830152610982818461090e565b9050949350505050565b600081905092915050565b60006109a282610884565b6109ac818561098c565b93506109bc81856020860161088f565b80840191505092915050565b60006109d48284610997565b915081905092915050565b7f496e70757420646f6573206e6f74206d61746368207365637265740000000000600082015250565b6000610a15601b83610634565b9150610a20826109df565b602082019050919050565b60006020820190508181036000830152610a4481610a08565b905091905056fea26469706673582212200b32424ce41173cd28d51630c0ada9f338f39056e39fe755727e58b9eab0d71564736f6c634300081100336080604052604051620012233803806200122383398181016040528101906200002991906200028f565b84600080018190555083600060010181905550346000600201819055508273ffffffffffffffffffffffffffffffffffffffff16638ed3df0f856040518263ffffffff1660e01b815260040162000081919062000328565b602060405180830381865afa1580156200009f573d6000803e3d6000fd5b505050506040513d601f19601f82011682018060405250810190620000c5919062000345565b60006003018190555030600060040160006101000a81548173ffffffffffffffffffffffffffffffffffffffff021916908373ffffffffffffffffffffffffffffffffffffffff16021790555082600060050160006101000a81548173ffffffffffffffffffffffffffffffffffffffff021916908373ffffffffffffffffffffffffffffffffffffffff16021790555081600060060160006101000a81548173ffffffffffffffffffffffffffffffffffffffff021916908373ffffffffffffffffffffffffffffffffffffffff16021790555080600060070181905550505050505062000377565b600080fd5b6000819050919050565b620001c981620001b4565b8114620001d557600080fd5b50565b600081519050620001e981620001be565b92915050565b600073ffffffffffffffffffffffffffffffffffffffff82169050919050565b60006200021c82620001ef565b9050919050565b6200022e816200020f565b81146200023a57600080fd5b50565b6000815190506200024e8162000223565b92915050565b6000819050919050565b620002698162000254565b81146200027557600080fd5b50565b60008151905062000289816200025e565b92915050565b600080600080600060a08688031215620002ae57620002ad620001af565b5b6000620002be88828901620001d8565b9550506020620002d188828901620001d8565b9450506040620002e4888289016200023d565b9350506060620002f7888289016200023d565b92505060806200030a8882890162000278565b9150509295509295909350565b6200032281620001b4565b82525050565b60006020820190506200033f600083018462000317565b92915050565b6000602082840312156200035e576200035d620001af565b5b60006200036e84828501620001d8565b91505092915050565b610e9c80620003876000396000f3fe608060405234801561001057600080fd5b506004361061004c5760003560e01c8063685771f4146100515780637d94792a1461006f578063956c2dc314610094578063c5d12c97146100b0575b600080fd5b6100596100ce565b6040516100669190610646565b60405180910390f35b6100776100da565b60405161008b9897969594939291906106bb565b60405180910390f35b6100ae60048036038101906100a99190610934565b610170565b005b6100b86105a4565b6040516100c59190610646565b60405180910390f35b60008060010154905090565b60008060000154908060010154908060020154908060030154908060040160009054906101000a900473ffffffffffffffffffffffffffffffffffffffff16908060050160009054906101000a900473ffffffffffffffffffffffffffffffffffffffff16908060060160009054906101000a900473ffffffffffffffffffffffffffffffffffffffff16908060070154905088565b610179836105b0565b50600060050160009054906101000a900473ffffffffffffffffffffffffffffffffffffffff1673ffffffffffffffffffffffffffffffffffffffff1663a06fc90b60008001546000600301546040518363ffffffff1660e01b81526004016101e39291906109db565b6020604051808303816000875af1158015610202573d6000803e3d6000fd5b505050506040513d601f19601f820116820180604052508101906102269190610a3c565b50600060060160009054906101000a900473ffffffffffffffffffffffffffffffffffffffff1673ffffffffffffffffffffffffffffffffffffffff1663a0e12efe83836040518363ffffffff1660e01b8152600401610287929190610b3d565b6020604051808303816000875af11580156102a6573d6000803e3d6000fd5b505050506040513d601f19601f820116820180604052508101906102ca9190610a3c565b5060008060050160009054906101000a900473ffffffffffffffffffffffffffffffffffffffff1673ffffffffffffffffffffffffffffffffffffffff166398d5fdca6040518163ffffffff1660e01b8152600401602060405180830381865afa15801561033c573d6000803e3d6000fd5b505050506040513d601f19601f820116820180604052508101906103609190610ba0565b905060008060050160009054906101000a900473ffffffffffffffffffffffffffffffffffffffff1673ffffffffffffffffffffffffffffffffffffffff16826040516103ac90610bfe565b60006040518083038185875af1925050503d80600081146103e9576040519150601f19603f3d011682016040523d82523d6000602084013e6103ee565b606091505b5050905080610432576040517f08c379a000000000000000000000000000000000000000000000000000000000815260040161042990610c5f565b60405180910390fd5b6000826000600201546104459190610cae565b905060008060060160009054906101000a900473ffffffffffffffffffffffffffffffffffffffff1673ffffffffffffffffffffffffffffffffffffffff1663836387106000600101546040518263ffffffff1660e01b81526004016104ab9190610646565b602060405180830381865afa1580156104c8573d6000803e3d6000fd5b505050506040513d601f19601f820116820180604052508101906104ec9190610d0e565b905060008173ffffffffffffffffffffffffffffffffffffffff168360405161051490610bfe565b60006040518083038185875af1925050503d8060008114610551576040519150601f19603f3d011682016040523d82523d6000602084013e610556565b606091505b505090508061059a576040517f08c379a000000000000000000000000000000000000000000000000000000000815260040161059190610d87565b60405180910390fd5b5050505050505050565b60008060030154905090565b600080826040516020016105c49190610de3565b6040516020818303038152906040528051906020012090506000600701548114610623576040517f08c379a000000000000000000000000000000000000000000000000000000000815260040161061a90610e46565b60405180910390fd5b6001915050919050565b6000819050919050565b6106408161062d565b82525050565b600060208201905061065b6000830184610637565b92915050565b600073ffffffffffffffffffffffffffffffffffffffff82169050919050565b600061068c82610661565b9050919050565b61069c81610681565b82525050565b6000819050919050565b6106b5816106a2565b82525050565b6000610100820190506106d1600083018b610637565b6106de602083018a610637565b6106eb6040830189610637565b6106f86060830188610637565b6107056080830187610693565b61071260a0830186610693565b61071f60c0830185610693565b61072c60e08301846106ac565b9998505050505050505050565b6000604051905090565b600080fd5b600080fd5b600080fd5b600080fd5b6000601f19601f8301169050919050565b7f4e487b7100000000000000000000000000000000000000000000000000000000600052604160045260246000fd5b6107a082610757565b810181811067ffffffffffffffff821117156107bf576107be610768565b5b80604052505050565b60006107d2610739565b90506107de8282610797565b919050565b600067ffffffffffffffff8211156107fe576107fd610768565b5b61080782610757565b9050602081019050919050565b82818337600083830152505050565b6000610836610831846107e3565b6107c8565b90508281526020810184848401111561085257610851610752565b5b61085d848285610814565b509392505050565b600082601f83011261087a5761087961074d565b5b813561088a848260208601610823565b91505092915050565b600067ffffffffffffffff8211156108ae576108ad610768565b5b6108b782610757565b9050602081019050919050565b60006108d76108d284610893565b6107c8565b9050828152602081018484840111156108f3576108f2610752565b5b6108fe848285610814565b509392505050565b600082601f83011261091b5761091a61074d565b5b813561092b8482602086016108c4565b91505092915050565b60008060006060848603121561094d5761094c610743565b5b600084013567ffffffffffffffff81111561096b5761096a610748565b5b61097786828701610865565b935050602084013567ffffffffffffffff81111561099857610997610748565b5b6109a486828701610865565b925050604084013567ffffffffffffffff8111156109c5576109c4610748565b5b6109d186828701610906565b9150509250925092565b60006040820190506109f06000830185610637565b6109fd6020830184610637565b9392505050565b60008115159050919050565b610a1981610a04565b8114610a2457600080fd5b50565b600081519050610a3681610a10565b92915050565b600060208284031215610a5257610a51610743565b5b6000610a6084828501610a27565b91505092915050565b600081519050919050565b600082825260208201905092915050565b60005b83811015610aa3578082015181840152602081019050610a88565b60008484015250505050565b6000610aba82610a69565b610ac48185610a74565b9350610ad4818560208601610a85565b610add81610757565b840191505092915050565b600081519050919050565b600082825260208201905092915050565b6000610b0f82610ae8565b610b198185610af3565b9350610b29818560208601610a85565b610b3281610757565b840191505092915050565b60006040820190508181036000830152610b578185610aaf565b90508181036020830152610b6b8184610b04565b90509392505050565b610b7d8161062d565b8114610b8857600080fd5b50565b600081519050610b9a81610b74565b92915050565b600060208284031215610bb657610bb5610743565b5b6000610bc484828501610b8b565b91505092915050565b600081905092915050565b50565b6000610be8600083610bcd565b9150610bf382610bd8565b600082019050919050565b6000610c0982610bdb565b9150819050919050565b7f4574686572206e6f742073656e7420746f205472656173757279000000000000600082015250565b6000610c49601a83610a74565b9150610c5482610c13565b602082019050919050565b60006020820190508181036000830152610c7881610c3c565b9050919050565b7f4e487b7100000000000000000000000000000000000000000000000000000000600052601160045260246000fd5b6000610cb98261062d565b9150610cc48361062d565b9250828203905081811115610cdc57610cdb610c7f565b5b92915050565b610ceb81610681565b8114610cf657600080fd5b50565b600081519050610d0881610ce2565b92915050565b600060208284031215610d2457610d23610743565b5b6000610d3284828501610cf9565b91505092915050565b7f4574686572206e6f742073656e7420746f20706172656e74206e757400000000600082015250565b6000610d71601c83610a74565b9150610d7c82610d3b565b602082019050919050565b60006020820190508181036000830152610da081610d64565b9050919050565b600081905092915050565b6000610dbd82610a69565b610dc78185610da7565b9350610dd7818560208601610a85565b80840191505092915050565b6000610def8284610db2565b915081905092915050565b7f496e70757420646f6573206e6f74206d61746368207365637265740000000000600082015250565b6000610e30601b83610a74565b9150610e3b82610dfa565b602082019050919050565b60006020820190508181036000830152610e5f81610e23565b905091905056fea2646970667358221220f1970eb56c232cb38f8debc37e308309e2d560551f02b26d4a4c9e053a017e8f64736f6c63430008110033a2646970667358221220076303e605c4f9f0c875c04db777f5f5fa7c8c2f353ebd6c1798fed87e6d4f8964736f6c63430008110033",
  "immutableReferences": {},
  "source": "// SPDX-License-Identifier: MIT\npragma solidity ^0.8.7;\n\nimport \"openzeppelin-solidity/contracts/utils/math/Math.sol\";\nimport \"./CosmoMatter.sol\";\nimport \"./CosmoSeed.sol\";\nimport \"./CosmoButter.sol\";\nimport \"./ICosmoTreasury.sol\";\n\nimport \"./SeedAccounts.sol\";\nimport \"./ButterAccounts.sol\";\n\n/**\n * @dev Manages the matter balance of the CosmoNuts collection and handles interaction with the\n * ERC20 Token to mint, burn, and allocate balances\n * Acts as storage for the ERC 721 tokens on their created Seed and Butter contracts.\n */\ncontract CosmoTreasury is SeedAccounts, ButterAccounts, ICosmoTreasury {\n\n    /**\n     * @dev Saved addresses include the contract which created the Treasury: UNIVERSE_ADDRESS, and\n     * the address of the CosmoNuts contract (NFTs) which is created after the Treasury and then updated: matter_ADDRESS.\n     */\n    struct AddressOf {\n        address system;\n        address matter;\n        address treasury;\n        address cosmos;\n    }\n    AddressOf public addressOf;\n\n    struct Nut {\n        uint256 price;\n        uint256 rate;\n    }\n    Nut public nut;\n\n    mapping(uint256 => address) public currentOwnerOfNut; // Record of current nut owners by address\n    mapping(uint256 => uint256) public matterBalanceOfNut; // Matter balance of each Nut recorded by the Treasury\n\n    uint256[] public nutsPayeeList; // List of nuts to be provided a balance\n\n    /**\n     *\n     */\n    constructor(address _systemAddress, address _matterAddress) {\n        addressOf.system = _systemAddress;\n        addressOf.matter = _matterAddress;\n        addressOf.treasury = address(this);\n    }\n\n    /*\n    modifier onlyUniverse {\n        require(address(msg.sender) == UNIVERSE_ADDRESS, \"Caller is not Universe\");\n        _;\n    }\n    */\n\n    /*\n    function updateCosmosAddress(address _matterAddressNew) external onlyUniverse {\n        MATTER_ADDRESS = _matterAddressNew;\n    }\n    */\n\n    //function updateNutPrice(uint256 _setNutPrice) external onlyUniverse {\n    //    NUT_PRICE = _setNutPrice;\n    //}\n\n    function getPrice() public view virtual override returns (uint256) {\n        return nut.price;\n    }\n\n    function matterNeeded(uint256 _nutId) public view virtual override returns (uint256) {\n        return nut.rate ^ (numOfSeedsOf(_nutId));\n    }\n\n    function spawnSeed(uint256 _nutId, bytes32 _secretHash) external virtual override payable returns (bool) {\n        uint256 ethToHold = nut.price ^ (numOfSeedsGrownOf(_nutId));\n        require(msg.value >= ethToHold, \"Ether value is not enough\");\n\n        CosmoMatter matter = CosmoMatter(addressOf.matter);\n        uint256 matterToBurn = matterNeeded(_nutId);\n        uint256 matterOfOwner = matter.balanceOf(currentOwnerOfNut[_nutId]);\n        require(matterOfOwner >= matterToBurn, \"Matter balance is not enough\");\n\n        CosmoSeed cosmoseed = new CosmoSeed(\n            seedsCreated, _nutId, address(this), addressOf.cosmos, _secretHash\n        );\n        address seedLocation = address(cosmoseed);\n        integrateSeed(_nutId, seedsCreated, seedLocation);\n\n        matter.burn(matterToBurn);\n        payable(seedLocation).transfer(msg.value);\n\n        return true;\n    }\n\n    /**\n     * Called from CosmoSeed contract.\n     */\n    function seedFromNut(uint256 _seedId, uint256 _matterNeeded) external virtual override returns (bool) {\n        address seedAddress = seedLocations[_seedId];\n        require(address(msg.sender) == seedAddress, \"Caller is not the right CosmoSeed contract\");\n        //require(matter.balanceOf(address(msg.sender)) >= _matterNeeded, \"Not enough matter\");\n\n        CosmoSeed seed = CosmoSeed(seedAddress);\n\n        address nutOwner = currentOwnerOfNut[seed.nutId()];\n        CosmoMatter matter = CosmoMatter(addressOf.matter);\n        matter.transfer(nutOwner, _matterNeeded);\n        matter.mintMatter(addressOf.treasury, 1);\n\n        growSeed(_seedId);\n\n        return true;\n    }\n\n    /**\n     * Creating new butter means the creation of a contract where other users can withdraw matter from.\n     * Need to contribute butter (which can only be done if you have a Nut with the desired level of matter to give away.\n     * A secret message is provided in hash form and checked for verification to withdraw funds.\n     */\n    function newButter(\n        uint256 _nutId,\n        uint256 _matterContributed,\n        uint256 _matterDrawRate,\n        bytes32 _secretHash\n    ) external virtual override returns (bool) {\n        address nutOwner = currentOwnerOfNut[_nutId];\n        // Do we need to be doing these checks twice? Or really new check that caller is from contract (? or person who clicked?)\n        require(nutOwner == address(msg.sender), \"Caller is not the owner\");\n        require(matterBalanceOfNut[_nutId] >= _matterContributed, \"Not have enough matter\");\n        CosmoMatter matter = CosmoMatter(addressOf.matter);\n        require(_matterContributed <= matter.balanceOf(nutOwner), \"Not high enough\");\n        require(_matterContributed % _matterDrawRate == 0, \"Draw rate not divisible\");\n\n        /**\n         * A nut must have already grown a seed to start being counted as part of the deficiency list.\n         */\n        if (numOfSeedsGrownOf(_nutId) > 0) {\n            butterDeficiencyInUniverse += _matterContributed;\n            butterDeficiencyOfNut[_nutId] += _matterContributed;\n            nutsPayeeList.push(_nutId);\n        }\n\n        /**\n         * The Treasury wants to distribute its available balance to the nutsPayeeList.\n         * It will distribute the minimum of either its available balance or the deficiency in the Universe.\n         * All payees are awarded one matter and moved to the end of the list.\n         * When their maximum available balance is reached, they are removed from the payee list.\n         */\n        uint256 matterInTreasury = matter.balanceOf(addressOf.treasury);\n        if (matterInTreasury > 0) {\n            uint256 toDistribute = Math.min(matterInTreasury, butterDeficiencyInUniverse);\n\n            uint256 index = 0;\n            for (uint j = 0; j != toDistribute; j++) {\n                uint256 allPayees = nutsPayeeList.length;\n                if (allPayees == 0) {\n                    break;\n                }\n\n                if (j > allPayees) {\n                    index = 0;\n                }\n\n                uint256 nutPayeeId = nutsPayeeList[index];\n                address nutOwnerPayee = currentOwnerOfNut[nutPayeeId];\n                uint256 maxMatter = numOfSeedsGrownOf(nutPayeeId) * nut.rate;\n                if (matterBalanceOfNut[nutPayeeId] == maxMatter) {\n                    delete nutsPayeeList[index];\n                } else {\n                    matter.transfer(nutOwnerPayee, 1);\n                    nutsPayeeList.push(nutPayeeId);\n                    delete nutsPayeeList[index];\n\n                    butterDeficiencyInUniverse -= 1;\n                    butterDeficiencyOfNut[nutPayeeId] -= 1;\n                }\n\n                index++;\n           }\n           matterInTreasury = matter.balanceOf(addressOf.treasury);\n        }\n\n        CosmoButter butter = new CosmoButter(\n            butterJars, _nutId, _matterContributed, _matterDrawRate, addressOf.treasury, _secretHash\n        );\n        matter.transfer(address(butter), _matterContributed);\n        churnButter(_nutId, butterJars, address(butter), _matterContributed);\n\n        return true;\n\n    }\n\n    /**\n     * Runs from CosmoButter contract when someone requests to draw matter.\n     */\n    function butterDrawn(\n        address _drawer,\n        uint256 _butterId,\n        uint256 _balance,\n        uint256 _currentBalance\n    ) external virtual override returns (bool) {\n        CosmoMatter matter = CosmoMatter(addressOf.matter);\n        matter.transfer(_drawer, _balance);\n        matter.mintMatter(address(this), _balance);\n        distributeButter(_butterId, _balance, _currentBalance);\n\n        return true;\n    }\n\n    function assignMintBalance(address _tokenOwner, uint256 _tokenId) external virtual override returns (bool) {\n        CosmoMatter matter = CosmoMatter(addressOf.matter);\n        require(matter.balanceOf(addressOf.treasury) >= nut.rate, \"Not enough matter\");\n        matter.transfer(_tokenOwner, nut.rate);\n        matterBalanceOfNut[_tokenId] = nut.rate;\n\n        return true;\n    }\n\n}\n",
  "sourcePath": "/home/redlentils/Seafile/Websites/avatarnft/contracts/CosmoTreasury.sol",
  "compiler": {
    "name": "solc",
    "version": "0.8.17+commit.8df45f5f.Emscripten.clang"
  },
  "schemaVersion": "3.4.10",
  "updatedAt": "2022-10-18T07:29:19.528Z",
  "devdoc": {
    "details": "Manages the matter balance of the CosmoNuts collection and handles interaction with the ERC20 Token to mint, burn, and allocate balances Acts as storage for the ERC 721 tokens on their created Seed and Butter contracts.",
    "kind": "dev",
    "methods": {},
    "version": 1
  },
  "userdoc": {
    "kind": "user",
    "methods": {
      "butterDrawn(address,uint256,uint256,uint256)": {
        "notice": "Runs from CosmoButter contract when someone requests to draw matter."
      },
      "butterWeight()": {
        "notice": "butterWeight is the amount of matter in the universe that is currently outstanding. butterSpread is the amount of matter that has been distributed from butterWeight, thus reducing its value. butterJars represent the total number of matter contracts created in the Universe."
      },
      "buttersOfNut(uint256,uint256)": {
        "notice": "buttersOfNut represents a list of all butter contracts created byt that nut. butterLocations represents the address of contract identifed by butterId."
      },
      "newButter(uint256,uint256,uint256,bytes32)": {
        "notice": "Creating new butter means the creation of a contract where other users can withdraw matter from. Need to contribute butter (which can only be done if you have a Nut with the desired level of matter to give away. A secret message is provided in hash form and checked for verification to withdraw funds."
      },
      "seedFromNut(uint256,uint256)": {
        "notice": "Called from CosmoSeed contract."
      }
    },
    "version": 1
  }
}