{
  "contractName": "CosmoNuts",
  "abi": [
    {
      "inputs": [
        {
          "internalType": "string",
          "name": "_name",
          "type": "string"
        },
        {
          "internalType": "string",
          "name": "_symbol",
          "type": "string"
        },
        {
          "internalType": "uint256",
          "name": "_initialNFTSupply",
          "type": "uint256"
        },
        {
          "internalType": "address",
          "name": "_systemAddress",
          "type": "address"
        },
        {
          "internalType": "address",
          "name": "_treasuryAddress",
          "type": "address"
        },
        {
          "internalType": "address",
          "name": "_vaultImplementation",
          "type": "address"
        }
      ],
      "stateMutability": "nonpayable",
      "type": "constructor"
    },
    {
      "anonymous": false,
      "inputs": [
        {
          "indexed": true,
          "internalType": "address",
          "name": "owner",
          "type": "address"
        },
        {
          "indexed": true,
          "internalType": "address",
          "name": "approved",
          "type": "address"
        },
        {
          "indexed": true,
          "internalType": "uint256",
          "name": "tokenId",
          "type": "uint256"
        }
      ],
      "name": "Approval",
      "type": "event"
    },
    {
      "anonymous": false,
      "inputs": [
        {
          "indexed": true,
          "internalType": "address",
          "name": "owner",
          "type": "address"
        },
        {
          "indexed": true,
          "internalType": "address",
          "name": "operator",
          "type": "address"
        },
        {
          "indexed": false,
          "internalType": "bool",
          "name": "approved",
          "type": "bool"
        }
      ],
      "name": "ApprovalForAll",
      "type": "event"
    },
    {
      "anonymous": false,
      "inputs": [
        {
          "indexed": true,
          "internalType": "address",
          "name": "previousOwner",
          "type": "address"
        },
        {
          "indexed": true,
          "internalType": "address",
          "name": "newOwner",
          "type": "address"
        }
      ],
      "name": "OwnershipTransferred",
      "type": "event"
    },
    {
      "anonymous": false,
      "inputs": [
        {
          "indexed": true,
          "internalType": "address",
          "name": "from",
          "type": "address"
        },
        {
          "indexed": true,
          "internalType": "address",
          "name": "to",
          "type": "address"
        },
        {
          "indexed": true,
          "internalType": "uint256",
          "name": "tokenId",
          "type": "uint256"
        }
      ],
      "name": "Transfer",
      "type": "event"
    },
    {
      "inputs": [
        {
          "internalType": "address",
          "name": "to",
          "type": "address"
        },
        {
          "internalType": "uint256",
          "name": "tokenId",
          "type": "uint256"
        }
      ],
      "name": "approve",
      "outputs": [],
      "stateMutability": "nonpayable",
      "type": "function"
    },
    {
      "inputs": [
        {
          "internalType": "address",
          "name": "owner",
          "type": "address"
        }
      ],
      "name": "balanceOf",
      "outputs": [
        {
          "internalType": "uint256",
          "name": "",
          "type": "uint256"
        }
      ],
      "stateMutability": "view",
      "type": "function"
    },
    {
      "inputs": [],
      "name": "creation",
      "outputs": [
        {
          "internalType": "uint256",
          "name": "initialSupply",
          "type": "uint256"
        },
        {
          "internalType": "address",
          "name": "system",
          "type": "address"
        },
        {
          "internalType": "address",
          "name": "treasury",
          "type": "address"
        },
        {
          "internalType": "address",
          "name": "vault",
          "type": "address"
        },
        {
          "internalType": "address",
          "name": "vaultImplementation",
          "type": "address"
        }
      ],
      "stateMutability": "view",
      "type": "function"
    },
    {
      "inputs": [
        {
          "internalType": "uint256",
          "name": "tokenId",
          "type": "uint256"
        }
      ],
      "name": "getApproved",
      "outputs": [
        {
          "internalType": "address",
          "name": "",
          "type": "address"
        }
      ],
      "stateMutability": "view",
      "type": "function"
    },
    {
      "inputs": [
        {
          "internalType": "address",
          "name": "owner",
          "type": "address"
        },
        {
          "internalType": "address",
          "name": "operator",
          "type": "address"
        }
      ],
      "name": "isApprovedForAll",
      "outputs": [
        {
          "internalType": "bool",
          "name": "",
          "type": "bool"
        }
      ],
      "stateMutability": "view",
      "type": "function"
    },
    {
      "inputs": [
        {
          "internalType": "string",
          "name": "_nutCID",
          "type": "string"
        }
      ],
      "name": "mintNut",
      "outputs": [],
      "stateMutability": "payable",
      "type": "function"
    },
    {
      "inputs": [],
      "name": "name",
      "outputs": [
        {
          "internalType": "string",
          "name": "",
          "type": "string"
        }
      ],
      "stateMutability": "view",
      "type": "function"
    },
    {
      "inputs": [],
      "name": "owner",
      "outputs": [
        {
          "internalType": "address",
          "name": "",
          "type": "address"
        }
      ],
      "stateMutability": "view",
      "type": "function"
    },
    {
      "inputs": [
        {
          "internalType": "uint256",
          "name": "tokenId",
          "type": "uint256"
        }
      ],
      "name": "ownerOf",
      "outputs": [
        {
          "internalType": "address",
          "name": "",
          "type": "address"
        }
      ],
      "stateMutability": "view",
      "type": "function"
    },
    {
      "inputs": [],
      "name": "renounceOwnership",
      "outputs": [],
      "stateMutability": "nonpayable",
      "type": "function"
    },
    {
      "inputs": [
        {
          "internalType": "address",
          "name": "from",
          "type": "address"
        },
        {
          "internalType": "address",
          "name": "to",
          "type": "address"
        },
        {
          "internalType": "uint256",
          "name": "tokenId",
          "type": "uint256"
        }
      ],
      "name": "safeTransferFrom",
      "outputs": [],
      "stateMutability": "nonpayable",
      "type": "function"
    },
    {
      "inputs": [
        {
          "internalType": "address",
          "name": "from",
          "type": "address"
        },
        {
          "internalType": "address",
          "name": "to",
          "type": "address"
        },
        {
          "internalType": "uint256",
          "name": "tokenId",
          "type": "uint256"
        },
        {
          "internalType": "bytes",
          "name": "_data",
          "type": "bytes"
        }
      ],
      "name": "safeTransferFrom",
      "outputs": [],
      "stateMutability": "nonpayable",
      "type": "function"
    },
    {
      "inputs": [
        {
          "internalType": "address",
          "name": "operator",
          "type": "address"
        },
        {
          "internalType": "bool",
          "name": "approved",
          "type": "bool"
        }
      ],
      "name": "setApprovalForAll",
      "outputs": [],
      "stateMutability": "nonpayable",
      "type": "function"
    },
    {
      "inputs": [
        {
          "internalType": "bytes4",
          "name": "interfaceId",
          "type": "bytes4"
        }
      ],
      "name": "supportsInterface",
      "outputs": [
        {
          "internalType": "bool",
          "name": "",
          "type": "bool"
        }
      ],
      "stateMutability": "view",
      "type": "function"
    },
    {
      "inputs": [],
      "name": "symbol",
      "outputs": [
        {
          "internalType": "string",
          "name": "",
          "type": "string"
        }
      ],
      "stateMutability": "view",
      "type": "function"
    },
    {
      "inputs": [
        {
          "internalType": "uint256",
          "name": "index",
          "type": "uint256"
        }
      ],
      "name": "tokenByIndex",
      "outputs": [
        {
          "internalType": "uint256",
          "name": "",
          "type": "uint256"
        }
      ],
      "stateMutability": "view",
      "type": "function"
    },
    {
      "inputs": [
        {
          "internalType": "address",
          "name": "owner",
          "type": "address"
        },
        {
          "internalType": "uint256",
          "name": "index",
          "type": "uint256"
        }
      ],
      "name": "tokenOfOwnerByIndex",
      "outputs": [
        {
          "internalType": "uint256",
          "name": "",
          "type": "uint256"
        }
      ],
      "stateMutability": "view",
      "type": "function"
    },
    {
      "inputs": [
        {
          "internalType": "uint256",
          "name": "tokenId",
          "type": "uint256"
        }
      ],
      "name": "tokenURI",
      "outputs": [
        {
          "internalType": "string",
          "name": "",
          "type": "string"
        }
      ],
      "stateMutability": "view",
      "type": "function"
    },
    {
      "inputs": [],
      "name": "totalSupply",
      "outputs": [
        {
          "internalType": "uint256",
          "name": "",
          "type": "uint256"
        }
      ],
      "stateMutability": "view",
      "type": "function"
    },
    {
      "inputs": [
        {
          "internalType": "address",
          "name": "from",
          "type": "address"
        },
        {
          "internalType": "address",
          "name": "to",
          "type": "address"
        },
        {
          "internalType": "uint256",
          "name": "tokenId",
          "type": "uint256"
        }
      ],
      "name": "transferFrom",
      "outputs": [],
      "stateMutability": "nonpayable",
      "type": "function"
    },
    {
      "inputs": [
        {
          "internalType": "address",
          "name": "newOwner",
          "type": "address"
        }
      ],
      "name": "transferOwnership",
      "outputs": [],
      "stateMutability": "nonpayable",
      "type": "function"
    },
    {
      "inputs": [],
      "name": "vaultLocation",
      "outputs": [
        {
          "internalType": "address",
          "name": "",
          "type": "address"
        }
      ],
      "stateMutability": "view",
      "type": "function"
    },
    {
      "inputs": [
        {
          "internalType": "uint256",
          "name": "_nutId",
          "type": "uint256"
        },
        {
          "internalType": "string",
          "name": "_nutCID",
          "type": "string"
        }
      ],
      "name": "setTokenURI",
      "outputs": [],
      "stateMutability": "nonpayable",
      "type": "function"
    },
    {
      "inputs": [
        {
          "internalType": "uint256",
          "name": "_nutId",
          "type": "uint256"
        }
      ],
      "name": "getOwnerOf",
      "outputs": [
        {
          "internalType": "address",
          "name": "",
          "type": "address"
        }
      ],
      "stateMutability": "view",
      "type": "function"
    },
    {
      "inputs": [],
      "name": "createVault",
      "outputs": [
        {
          "internalType": "address",
          "name": "",
          "type": "address"
        }
      ],
      "stateMutability": "nonpayable",
      "type": "function"
    },
    {
      "inputs": [],
      "name": "withdraw",
      "outputs": [],
      "stateMutability": "nonpayable",
      "type": "function"
    },
    {
      "inputs": [
        {
          "internalType": "string",
          "name": "_cidPath",
          "type": "string"
        },
        {
          "internalType": "bytes",
          "name": "_signature",
          "type": "bytes"
        }
      ],
      "name": "createNut",
      "outputs": [
        {
          "internalType": "bool",
          "name": "",
          "type": "bool"
        }
      ],
      "stateMutability": "nonpayable",
      "type": "function"
    },
    {
      "inputs": [
        {
          "internalType": "uint256",
          "name": "_nutId",
          "type": "uint256"
        },
        {
          "internalType": "bytes32",
          "name": "_secretHash",
          "type": "bytes32"
        }
      ],
      "name": "createSeed",
      "outputs": [
        {
          "internalType": "address",
          "name": "seedLocation",
          "type": "address"
        }
      ],
      "stateMutability": "payable",
      "type": "function"
    },
    {
      "inputs": [
        {
          "internalType": "uint256",
          "name": "_nutId",
          "type": "uint256"
        },
        {
          "internalType": "bytes32",
          "name": "_secretHash",
          "type": "bytes32"
        },
        {
          "internalType": "uint256",
          "name": "_matterContributed",
          "type": "uint256"
        },
        {
          "internalType": "uint256",
          "name": "_matterDrawRate",
          "type": "uint256"
        },
        {
          "internalType": "string",
          "name": "_cidPath",
          "type": "string"
        },
        {
          "internalType": "bytes",
          "name": "_signature",
          "type": "bytes"
        }
      ],
      "name": "createButter",
      "outputs": [],
      "stateMutability": "nonpayable",
      "type": "function"
    }
  ],
  "bytecode": "0x60806040523480156200001157600080fd5b5060405162005c1f38038062005c1f8339818101604052810190620000379190620004dd565b85858585858585858160009081620000509190620007f8565b508060019081620000629190620007f8565b5050506200008562000079620001dc60201b60201c565b620001e460201b60201c565b83600c6000018190555082600c60010160006101000a81548173ffffffffffffffffffffffffffffffffffffffff021916908373ffffffffffffffffffffffffffffffffffffffff16021790555081600c60020160006101000a81548173ffffffffffffffffffffffffffffffffffffffff021916908373ffffffffffffffffffffffffffffffffffffffff16021790555080600c60040160006101000a81548173ffffffffffffffffffffffffffffffffffffffff021916908373ffffffffffffffffffffffffffffffffffffffff1602179055505050505050508173ffffffffffffffffffffffffffffffffffffffff1663a56c5a78306040518263ffffffff1660e01b81526004016200019c9190620008f0565b600060405180830381600087803b158015620001b757600080fd5b505af1158015620001cc573d6000803e3d6000fd5b505050505050505050506200090d565b600033905090565b6000600b60009054906101000a900473ffffffffffffffffffffffffffffffffffffffff16905081600b60006101000a81548173ffffffffffffffffffffffffffffffffffffffff021916908373ffffffffffffffffffffffffffffffffffffffff1602179055508173ffffffffffffffffffffffffffffffffffffffff168173ffffffffffffffffffffffffffffffffffffffff167f8be0079c531659141344cd1fd0a4f28419497f9722a3daafe3b4186f6b6457e060405160405180910390a35050565b6000604051905090565b600080fd5b600080fd5b600080fd5b600080fd5b6000601f19601f8301169050919050565b7f4e487b7100000000000000000000000000000000000000000000000000000000600052604160045260246000fd5b6200031382620002c8565b810181811067ffffffffffffffff82111715620003355762000334620002d9565b5b80604052505050565b60006200034a620002aa565b905062000358828262000308565b919050565b600067ffffffffffffffff8211156200037b576200037a620002d9565b5b6200038682620002c8565b9050602081019050919050565b60005b83811015620003b357808201518184015260208101905062000396565b60008484015250505050565b6000620003d6620003d0846200035d565b6200033e565b905082815260208101848484011115620003f557620003f4620002c3565b5b6200040284828562000393565b509392505050565b600082601f830112620004225762000421620002be565b5b815162000434848260208601620003bf565b91505092915050565b6000819050919050565b62000452816200043d565b81146200045e57600080fd5b50565b600081519050620004728162000447565b92915050565b600073ffffffffffffffffffffffffffffffffffffffff82169050919050565b6000620004a58262000478565b9050919050565b620004b78162000498565b8114620004c357600080fd5b50565b600081519050620004d781620004ac565b92915050565b60008060008060008060c08789031215620004fd57620004fc620002b4565b5b600087015167ffffffffffffffff8111156200051e576200051d620002b9565b5b6200052c89828a016200040a565b965050602087015167ffffffffffffffff81111562000550576200054f620002b9565b5b6200055e89828a016200040a565b95505060406200057189828a0162000461565b94505060606200058489828a01620004c6565b93505060806200059789828a01620004c6565b92505060a0620005aa89828a01620004c6565b9150509295509295509295565b600081519050919050565b7f4e487b7100000000000000000000000000000000000000000000000000000000600052602260045260246000fd5b600060028204905060018216806200060a57607f821691505b60208210810362000620576200061f620005c2565b5b50919050565b60008190508160005260206000209050919050565b60006020601f8301049050919050565b600082821b905092915050565b6000600883026200068a7fffffffffffffffffffffffffffffffffffffffffffffffffffffffffffffffff826200064b565b6200069686836200064b565b95508019841693508086168417925050509392505050565b6000819050919050565b6000620006d9620006d3620006cd846200043d565b620006ae565b6200043d565b9050919050565b6000819050919050565b620006f583620006b8565b6200070d6200070482620006e0565b84845462000658565b825550505050565b600090565b6200072462000715565b62000731818484620006ea565b505050565b5b8181101562000759576200074d6000826200071a565b60018101905062000737565b5050565b601f821115620007a857620007728162000626565b6200077d846200063b565b810160208510156200078d578190505b620007a56200079c856200063b565b83018262000736565b50505b505050565b600082821c905092915050565b6000620007cd60001984600802620007ad565b1980831691505092915050565b6000620007e88383620007ba565b9150826002028217905092915050565b6200080382620005b7565b67ffffffffffffffff8111156200081f576200081e620002d9565b5b6200082b8254620005f1565b620008388282856200075d565b600060209050601f8311600181146200087057600084156200085b578287015190505b620008678582620007da565b865550620008d7565b601f198416620008808662000626565b60005b82811015620008aa5784890151825560018201915060208501945060208101905062000883565b86831015620008ca5784890151620008c6601f891682620007ba565b8355505b6001600288020188555050505b505050505050565b620008ea8162000498565b82525050565b6000602082019050620009076000830184620008df565b92915050565b615302806200091d6000396000f3fe6080604052600436106101c25760003560e01c80635f9ff4a1116100f757806395f04d0511610095578063c87b56dd11610064578063c87b56dd14610649578063e985e9c514610686578063f2fde38b146106c3578063f9a498f4146106ec576101c2565b806395f04d051461059e578063a0e12efe146105ba578063a22cb465146105f7578063b88d4fde14610620576101c2565b8063715018a6116100d1578063715018a6146104f4578063836387101461050b5780638da5cb5b1461054857806395d89b4114610573576101c2565b80635f9ff4a1146104515780636352211e1461047a57806370a08231146104b7576101c2565b806318160ddd116101645780633ccfd60b1161013e5780633ccfd60b146103a957806342842e0e146103c05780634f6ccce7146103e95780635d12928b14610426576101c2565b806318160ddd1461031857806323b872dd146103435780632f745c591461036c576101c2565b8063095ea7b3116101a0578063095ea7b31461026c5780630ef8dd951461029557806313845d2f146102c0578063162094c4146102ef576101c2565b806301ffc9a7146101c757806306fdde0314610204578063081812fc1461022f575b600080fd5b3480156101d357600080fd5b506101ee60048036038101906101e99190613396565b61071c565b6040516101fb91906133de565b60405180910390f35b34801561021057600080fd5b5061021961072e565b6040516102269190613489565b60405180910390f35b34801561023b57600080fd5b50610256600480360381019061025191906134e1565b6107c0565b604051610263919061354f565b60405180910390f35b34801561027857600080fd5b50610293600480360381019061028e9190613596565b610845565b005b3480156102a157600080fd5b506102aa61095c565b6040516102b7919061354f565b60405180910390f35b3480156102cc57600080fd5b506102d5610989565b6040516102e69594939291906135e5565b60405180910390f35b3480156102fb57600080fd5b506103166004803603810190610311919061376d565b610a2d565b005b34801561032457600080fd5b5061032d610a3b565b60405161033a91906137c9565b60405180910390f35b34801561034f57600080fd5b5061036a600480360381019061036591906137e4565b610a48565b005b34801561037857600080fd5b50610393600480360381019061038e9190613596565b610aa8565b6040516103a091906137c9565b60405180910390f35b3480156103b557600080fd5b506103be610b4d565b005b3480156103cc57600080fd5b506103e760048036038101906103e291906137e4565b610c5b565b005b3480156103f557600080fd5b50610410600480360381019061040b91906134e1565b610c7b565b60405161041d91906137c9565b60405180910390f35b34801561043257600080fd5b5061043b610cec565b604051610448919061354f565b60405180910390f35b34801561045d57600080fd5b506104786004803603810190610473919061390e565b610cfc565b005b34801561048657600080fd5b506104a1600480360381019061049c91906134e1565b610eb6565b6040516104ae919061354f565b60405180910390f35b3480156104c357600080fd5b506104de60048036038101906104d991906139d3565b610f67565b6040516104eb91906137c9565b60405180910390f35b34801561050057600080fd5b5061050961101e565b005b34801561051757600080fd5b50610532600480360381019061052d91906134e1565b6110a6565b60405161053f919061354f565b60405180910390f35b34801561055457600080fd5b5061055d6110b8565b60405161056a919061354f565b60405180910390f35b34801561057f57600080fd5b506105886110e2565b6040516105959190613489565b60405180910390f35b6105b860048036038101906105b39190613a00565b611174565b005b3480156105c657600080fd5b506105e160048036038101906105dc9190613a49565b61135f565b6040516105ee91906133de565b60405180910390f35b34801561060357600080fd5b5061061e60048036038101906106199190613aed565b611415565b005b34801561062c57600080fd5b5061064760048036038101906106429190613b2d565b61142b565b005b34801561065557600080fd5b50610670600480360381019061066b91906134e1565b61148d565b60405161067d9190613489565b60405180910390f35b34801561069257600080fd5b506106ad60048036038101906106a89190613bb0565b61149f565b6040516106ba91906133de565b60405180910390f35b3480156106cf57600080fd5b506106ea60048036038101906106e591906139d3565b611533565b005b61070660048036038101906107019190613bf0565b61162a565b604051610713919061354f565b60405180910390f35b600061072782611c2a565b9050919050565b60606000805461073d90613c5f565b80601f016020809104026020016040519081016040528092919081815260200182805461076990613c5f565b80156107b65780601f1061078b576101008083540402835291602001916107b6565b820191906000526020600020905b81548152906001019060200180831161079957829003601f168201915b5050505050905090565b60006107cb82611ca4565b61080a576040517f08c379a000000000000000000000000000000000000000000000000000000000815260040161080190613d02565b60405180910390fd5b6004600083815260200190815260200160002060009054906101000a900473ffffffffffffffffffffffffffffffffffffffff169050919050565b600061085082610eb6565b90508073ffffffffffffffffffffffffffffffffffffffff168373ffffffffffffffffffffffffffffffffffffffff16036108c0576040517f08c379a00000000000000000000000000000000000000000000000000000000081526004016108b790613d94565b60405180910390fd5b8073ffffffffffffffffffffffffffffffffffffffff166108df611d10565b73ffffffffffffffffffffffffffffffffffffffff16148061090e575061090d81610908611d10565b61149f565b5b61094d576040517f08c379a000000000000000000000000000000000000000000000000000000000815260040161094490613e26565b60405180910390fd5b6109578383611d18565b505050565b6000600c60030160009054906101000a900473ffffffffffffffffffffffffffffffffffffffff16905090565b600c8060000154908060010160009054906101000a900473ffffffffffffffffffffffffffffffffffffffff16908060020160009054906101000a900473ffffffffffffffffffffffffffffffffffffffff16908060030160009054906101000a900473ffffffffffffffffffffffffffffffffffffffff16908060040160009054906101000a900473ffffffffffffffffffffffffffffffffffffffff16905085565b610a378282611dd1565b5050565b6000600880549050905090565b610a59610a53611d10565b82611e3e565b610a98576040517f08c379a0000000000000000000000000000000000000000000000000000000008152600401610a8f90613eb8565b60405180910390fd5b610aa3838383611f1c565b505050565b6000610ab383610f67565b8210610af4576040517f08c379a0000000000000000000000000000000000000000000000000000000008152600401610aeb90613f4a565b60405180910390fd5b600660008473ffffffffffffffffffffffffffffffffffffffff1673ffffffffffffffffffffffffffffffffffffffff168152602001908152602001600020600083815260200190815260200160002054905092915050565b610b55611d10565b73ffffffffffffffffffffffffffffffffffffffff16610b736110b8565b73ffffffffffffffffffffffffffffffffffffffff1614610bc9576040517f08c379a0000000000000000000000000000000000000000000000000000000008152600401610bc090613fb6565b60405180910390fd5b600047905060004711610c11576040517f08c379a0000000000000000000000000000000000000000000000000000000008152600401610c0890614022565b60405180910390fd5b3373ffffffffffffffffffffffffffffffffffffffff166108fc829081150290604051600060405180830381858888f19350505050158015610c57573d6000803e3d6000fd5b5050565b610c768383836040518060200160405280600081525061142b565b505050565b6000610c85610a3b565b8210610cc6576040517f08c379a0000000000000000000000000000000000000000000000000000000008152600401610cbd906140b4565b60405180910390fd5b60088281548110610cda57610cd96140d4565b5b90600052602060002001549050919050565b6000610cf730612182565b905090565b610d0586610eb6565b73ffffffffffffffffffffffffffffffffffffffff163373ffffffffffffffffffffffffffffffffffffffff1614610d72576040517f08c379a0000000000000000000000000000000000000000000000000000000008152600401610d699061414f565b60405180910390fd5b600c60020160009054906101000a900473ffffffffffffffffffffffffffffffffffffffff1673ffffffffffffffffffffffffffffffffffffffff166303f5de9d878686896040518563ffffffff1660e01b8152600401610dd6949392919061417e565b6020604051808303816000875af1158015610df5573d6000803e3d6000fd5b505050506040513d601f19601f82011682018060405250810190610e1991906141d8565b50600c60030160009054906101000a900473ffffffffffffffffffffffffffffffffffffffff1673ffffffffffffffffffffffffffffffffffffffff1663bd6af0098784846040518463ffffffff1660e01b8152600401610e7c9392919061425a565b600060405180830381600087803b158015610e9657600080fd5b505af1158015610eaa573d6000803e3d6000fd5b50505050505050505050565b6000806002600084815260200190815260200160002060009054906101000a900473ffffffffffffffffffffffffffffffffffffffff169050600073ffffffffffffffffffffffffffffffffffffffff168173ffffffffffffffffffffffffffffffffffffffff1603610f5e576040517f08c379a0000000000000000000000000000000000000000000000000000000008152600401610f5590614311565b60405180910390fd5b80915050919050565b60008073ffffffffffffffffffffffffffffffffffffffff168273ffffffffffffffffffffffffffffffffffffffff1603610fd7576040517f08c379a0000000000000000000000000000000000000000000000000000000008152600401610fce906143a3565b60405180910390fd5b600360008373ffffffffffffffffffffffffffffffffffffffff1673ffffffffffffffffffffffffffffffffffffffff168152602001908152602001600020549050919050565b611026611d10565b73ffffffffffffffffffffffffffffffffffffffff166110446110b8565b73ffffffffffffffffffffffffffffffffffffffff161461109a576040517f08c379a000000000000000000000000000000000000000000000000000000000815260040161109190613fb6565b60405180910390fd5b6110a460006122b9565b565b60006110b182610eb6565b9050919050565b6000600b60009054906101000a900473ffffffffffffffffffffffffffffffffffffffff16905090565b6060600180546110f190613c5f565b80601f016020809104026020016040519081016040528092919081815260200182805461111d90613c5f565b801561116a5780601f1061113f5761010080835404028352916020019161116a565b820191906000526020600020905b81548152906001019060200180831161114d57829003601f168201915b5050505050905090565b600061117e610a3b565b9050600c6000015481106111c7576040517f08c379a00000000000000000000000000000000000000000000000000000000081526004016111be90614435565b60405180910390fd5b6000600c60020160009054906101000a900473ffffffffffffffffffffffffffffffffffffffff1673ffffffffffffffffffffffffffffffffffffffff166398d5fdca6040518163ffffffff1660e01b8152600401602060405180830381865afa158015611239573d6000803e3d6000fd5b505050506040513d601f19601f8201168201806040525081019061125d919061446a565b9050803410156112a2576040517f08c379a0000000000000000000000000000000000000000000000000000000008152600401611299906144e3565b60405180910390fd5b6112ac338361237f565b6112b68284611dd1565b600c60020160009054906101000a900473ffffffffffffffffffffffffffffffffffffffff1673ffffffffffffffffffffffffffffffffffffffff16631c85949c33846040518363ffffffff1660e01b8152600401611316929190614503565b6020604051808303816000875af1158015611335573d6000803e3d6000fd5b505050506040513d601f19601f8201168201806040525081019061135991906141d8565b50505050565b60008061136a610a3b565b9050611376338261237f565b600c60030160009054906101000a900473ffffffffffffffffffffffffffffffffffffffff1673ffffffffffffffffffffffffffffffffffffffff1663bd6af0098286866040518463ffffffff1660e01b81526004016113d89392919061425a565b600060405180830381600087803b1580156113f257600080fd5b505af1158015611406573d6000803e3d6000fd5b50505050600191505092915050565b611427611420611d10565b838361239d565b5050565b61143c611436611d10565b83611e3e565b61147b576040517f08c379a000000000000000000000000000000000000000000000000000000000815260040161147290613eb8565b60405180910390fd5b61148784848484612509565b50505050565b606061149882612565565b9050919050565b6000600560008473ffffffffffffffffffffffffffffffffffffffff1673ffffffffffffffffffffffffffffffffffffffff16815260200190815260200160002060008373ffffffffffffffffffffffffffffffffffffffff1673ffffffffffffffffffffffffffffffffffffffff16815260200190815260200160002060009054906101000a900460ff16905092915050565b61153b611d10565b73ffffffffffffffffffffffffffffffffffffffff166115596110b8565b73ffffffffffffffffffffffffffffffffffffffff16146115af576040517f08c379a00000000000000000000000000000000000000000000000000000000081526004016115a690613fb6565b60405180910390fd5b600073ffffffffffffffffffffffffffffffffffffffff168173ffffffffffffffffffffffffffffffffffffffff160361161e576040517f08c379a00000000000000000000000000000000000000000000000000000000081526004016116159061459e565b60405180910390fd5b611627816122b9565b50565b600061163583610eb6565b73ffffffffffffffffffffffffffffffffffffffff163373ffffffffffffffffffffffffffffffffffffffff16146116a2576040517f08c379a00000000000000000000000000000000000000000000000000000000081526004016116999061414f565b60405180910390fd5b600c600001546116b0610a3b565b10156116f1576040517f08c379a00000000000000000000000000000000000000000000000000000000081526004016116e89061460a565b60405180910390fd5b6000600c60020160009054906101000a900473ffffffffffffffffffffffffffffffffffffffff1673ffffffffffffffffffffffffffffffffffffffff1663bb5833af856040518263ffffffff1660e01b815260040161175191906137c9565b602060405180830381865afa15801561176e573d6000803e3d6000fd5b505050506040513d601f19601f82011682018060405250810190611792919061446a565b9050803410156117d7576040517f08c379a00000000000000000000000000000000000000000000000000000000081526004016117ce906144e3565b60405180910390fd5b6000600c60020160009054906101000a900473ffffffffffffffffffffffffffffffffffffffff1673ffffffffffffffffffffffffffffffffffffffff16638ed3df0f866040518263ffffffff1660e01b815260040161183791906137c9565b602060405180830381865afa158015611854573d6000803e3d6000fd5b505050506040513d601f19601f82011682018060405250810190611878919061446a565b90506000600c60020160009054906101000a900473ffffffffffffffffffffffffffffffffffffffff1673ffffffffffffffffffffffffffffffffffffffff16635fc4b363876040518263ffffffff1660e01b81526004016118da91906137c9565b602060405180830381865afa1580156118f7573d6000803e3d6000fd5b505050506040513d601f19601f8201168201806040525081019061191b919061446a565b905081811015611960576040517f08c379a000000000000000000000000000000000000000000000000000000000815260040161195790614676565b60405180910390fd5b600c60020160009054906101000a900473ffffffffffffffffffffffffffffffffffffffff1673ffffffffffffffffffffffffffffffffffffffff1663f3d8c7a733600c60020160009054906101000a900473ffffffffffffffffffffffffffffffffffffffff16856040518463ffffffff1660e01b81526004016119e793929190614696565b6020604051808303816000875af1158015611a06573d6000803e3d6000fd5b505050506040513d601f19601f82011682018060405250810190611a2a91906141d8565b50600c60020160009054906101000a900473ffffffffffffffffffffffffffffffffffffffff1673ffffffffffffffffffffffffffffffffffffffff1663ff2cb34733846040518363ffffffff1660e01b8152600401611a8b929190614503565b6020604051808303816000875af1158015611aaa573d6000803e3d6000fd5b505050506040513d601f19601f82011682018060405250810190611ace919061446a565b50600c60020160009054906101000a900473ffffffffffffffffffffffffffffffffffffffff1673ffffffffffffffffffffffffffffffffffffffff1663fe774f9d87876040518363ffffffff1660e01b8152600401611b2f9291906146cd565b6020604051808303816000875af1158015611b4e573d6000803e3d6000fd5b505050506040513d601f19601f82011682018060405250810190611b72919061470b565b935060008473ffffffffffffffffffffffffffffffffffffffff1634604051611b9a90614769565b60006040518083038185875af1925050503d8060008114611bd7576040519150601f19603f3d011682016040523d82523d6000602084013e611bdc565b606091505b5050905080611c20576040517f08c379a0000000000000000000000000000000000000000000000000000000008152600401611c17906147ca565b60405180910390fd5b5050505092915050565b60007f780e9d63000000000000000000000000000000000000000000000000000000007bffffffffffffffffffffffffffffffffffffffffffffffffffffffff1916827bffffffffffffffffffffffffffffffffffffffffffffffffffffffff19161480611c9d5750611c9c826126b6565b5b9050919050565b60008073ffffffffffffffffffffffffffffffffffffffff166002600084815260200190815260200160002060009054906101000a900473ffffffffffffffffffffffffffffffffffffffff1673ffffffffffffffffffffffffffffffffffffffff1614159050919050565b600033905090565b816004600083815260200190815260200160002060006101000a81548173ffffffffffffffffffffffffffffffffffffffff021916908373ffffffffffffffffffffffffffffffffffffffff160217905550808273ffffffffffffffffffffffffffffffffffffffff16611d8b83610eb6565b73ffffffffffffffffffffffffffffffffffffffff167f8c5be1e5ebec7d5bd14f71427d1e84f3dd0314c0f7b2291e5b200ac8c7c3b92560405160405180910390a45050565b611dda82611ca4565b611e19576040517f08c379a0000000000000000000000000000000000000000000000000000000008152600401611e109061485c565b60405180910390fd5b80600a60008481526020019081526020016000209081611e399190614a28565b505050565b6000611e4982611ca4565b611e88576040517f08c379a0000000000000000000000000000000000000000000000000000000008152600401611e7f90614b6c565b60405180910390fd5b6000611e9383610eb6565b90508073ffffffffffffffffffffffffffffffffffffffff168473ffffffffffffffffffffffffffffffffffffffff161480611ed55750611ed4818561149f565b5b80611f1357508373ffffffffffffffffffffffffffffffffffffffff16611efb846107c0565b73ffffffffffffffffffffffffffffffffffffffff16145b91505092915050565b8273ffffffffffffffffffffffffffffffffffffffff16611f3c82610eb6565b73ffffffffffffffffffffffffffffffffffffffff1614611f92576040517f08c379a0000000000000000000000000000000000000000000000000000000008152600401611f8990614bfe565b60405180910390fd5b600073ffffffffffffffffffffffffffffffffffffffff168273ffffffffffffffffffffffffffffffffffffffff1603612001576040517f08c379a0000000000000000000000000000000000000000000000000000000008152600401611ff890614c90565b60405180910390fd5b61200c838383612798565b612017600082611d18565b6001600360008573ffffffffffffffffffffffffffffffffffffffff1673ffffffffffffffffffffffffffffffffffffffff16815260200190815260200160002060008282546120679190614cdf565b925050819055506001600360008473ffffffffffffffffffffffffffffffffffffffff1673ffffffffffffffffffffffffffffffffffffffff16815260200190815260200160002060008282546120be9190614d13565b92505081905550816002600083815260200190815260200160002060006101000a81548173ffffffffffffffffffffffffffffffffffffffff021916908373ffffffffffffffffffffffffffffffffffffffff160217905550808273ffffffffffffffffffffffffffffffffffffffff168473ffffffffffffffffffffffffffffffffffffffff167fddf252ad1be2c89b69c2b068fc378daa952ba7f163c4a11628f55a4df523b3ef60405160405180910390a461217d8383836127a8565b505050565b6000806121b3600c60040160009054906101000a900473ffffffffffffffffffffffffffffffffffffffff166127ad565b90508073ffffffffffffffffffffffffffffffffffffffff1663485cc955600c60010160009054906101000a900473ffffffffffffffffffffffffffffffffffffffff16856040518363ffffffff1660e01b8152600401612215929190614d47565b600060405180830381600087803b15801561222f57600080fd5b505af1158015612243573d6000803e3d6000fd5b5050505080600c60030160006101000a81548173ffffffffffffffffffffffffffffffffffffffff021916908373ffffffffffffffffffffffffffffffffffffffff160217905550600c60030160009054906101000a900473ffffffffffffffffffffffffffffffffffffffff16915050919050565b6000600b60009054906101000a900473ffffffffffffffffffffffffffffffffffffffff16905081600b60006101000a81548173ffffffffffffffffffffffffffffffffffffffff021916908373ffffffffffffffffffffffffffffffffffffffff1602179055508173ffffffffffffffffffffffffffffffffffffffff168173ffffffffffffffffffffffffffffffffffffffff167f8be0079c531659141344cd1fd0a4f28419497f9722a3daafe3b4186f6b6457e060405160405180910390a35050565b612399828260405180602001604052806000815250612881565b5050565b8173ffffffffffffffffffffffffffffffffffffffff168373ffffffffffffffffffffffffffffffffffffffff160361240b576040517f08c379a000000000000000000000000000000000000000000000000000000000815260040161240290614dbc565b60405180910390fd5b80600560008573ffffffffffffffffffffffffffffffffffffffff1673ffffffffffffffffffffffffffffffffffffffff16815260200190815260200160002060008473ffffffffffffffffffffffffffffffffffffffff1673ffffffffffffffffffffffffffffffffffffffff16815260200190815260200160002060006101000a81548160ff0219169083151502179055508173ffffffffffffffffffffffffffffffffffffffff168373ffffffffffffffffffffffffffffffffffffffff167f17307eab39ab6107e8899845ad3d59bd9653f200f220920489ca2b5937696c31836040516124fc91906133de565b60405180910390a3505050565b612514848484611f1c565b612520848484846128dc565b61255f576040517f08c379a000000000000000000000000000000000000000000000000000000000815260040161255690614e4e565b60405180910390fd5b50505050565b606061257082611ca4565b6125af576040517f08c379a00000000000000000000000000000000000000000000000000000000081526004016125a690614ee0565b60405180910390fd5b6000600a600084815260200190815260200160002080546125cf90613c5f565b80601f01602080910402602001604051908101604052809291908181526020018280546125fb90613c5f565b80156126485780601f1061261d57610100808354040283529160200191612648565b820191906000526020600020905b81548152906001019060200180831161262b57829003601f168201915b505050505090506000612659612a63565b9050600081510361266e5781925050506126b1565b6000825111156126a357808260405160200161268b929190614f3c565b604051602081830303815290604052925050506126b1565b6126ac84612aa0565b925050505b919050565b60007f80ac58cd000000000000000000000000000000000000000000000000000000007bffffffffffffffffffffffffffffffffffffffffffffffffffffffff1916827bffffffffffffffffffffffffffffffffffffffffffffffffffffffff1916148061278157507f5b5e139f000000000000000000000000000000000000000000000000000000007bffffffffffffffffffffffffffffffffffffffffffffffffffffffff1916827bffffffffffffffffffffffffffffffffffffffffffffffffffffffff1916145b80612791575061279082612b47565b5b9050919050565b6127a3838383612bb1565b505050565b505050565b60006040517f3d602d80600a3d3981f3363d3d373d3d3d363d7300000000000000000000000081528260601b60148201527f5af43d82803e903d91602b57fd5bf3000000000000000000000000000000000060288201526037816000f0915050600073ffffffffffffffffffffffffffffffffffffffff168173ffffffffffffffffffffffffffffffffffffffff160361287c576040517f08c379a000000000000000000000000000000000000000000000000000000000815260040161287390614fac565b60405180910390fd5b919050565b61288b8383612cc3565b61289860008484846128dc565b6128d7576040517f08c379a00000000000000000000000000000000000000000000000000000000081526004016128ce90614e4e565b60405180910390fd5b505050565b60006128fd8473ffffffffffffffffffffffffffffffffffffffff16612e9c565b15612a56578373ffffffffffffffffffffffffffffffffffffffff1663150b7a02612926611d10565b8786866040518563ffffffff1660e01b81526004016129489493929190614fcc565b6020604051808303816000875af192505050801561298457506040513d601f19601f82011682018060405250810190612981919061502d565b60015b612a06573d80600081146129b4576040519150601f19603f3d011682016040523d82523d6000602084013e6129b9565b606091505b5060008151036129fe576040517f08c379a00000000000000000000000000000000000000000000000000000000081526004016129f590614e4e565b60405180910390fd5b805181602001fd5b63150b7a0260e01b7bffffffffffffffffffffffffffffffffffffffffffffffffffffffff1916817bffffffffffffffffffffffffffffffffffffffffffffffffffffffff191614915050612a5b565b600190505b949350505050565b60606040518060400160405280601581526020017f68747470733a2f2f697066732e696f2f697066732f0000000000000000000000815250905090565b6060612aab82611ca4565b612aea576040517f08c379a0000000000000000000000000000000000000000000000000000000008152600401612ae1906150cc565b60405180910390fd5b6000612af4612a63565b90506000815111612b145760405180602001604052806000815250612b3f565b80612b1e84612ebf565b604051602001612b2f929190614f3c565b6040516020818303038152906040525b915050919050565b60007f01ffc9a7000000000000000000000000000000000000000000000000000000007bffffffffffffffffffffffffffffffffffffffffffffffffffffffff1916827bffffffffffffffffffffffffffffffffffffffffffffffffffffffff1916149050919050565b612bbc83838361301f565b600073ffffffffffffffffffffffffffffffffffffffff168373ffffffffffffffffffffffffffffffffffffffff1603612bfe57612bf981613024565b612c3d565b8173ffffffffffffffffffffffffffffffffffffffff168373ffffffffffffffffffffffffffffffffffffffff1614612c3c57612c3b838261306d565b5b5b600073ffffffffffffffffffffffffffffffffffffffff168273ffffffffffffffffffffffffffffffffffffffff1603612c7f57612c7a816131da565b612cbe565b8273ffffffffffffffffffffffffffffffffffffffff168273ffffffffffffffffffffffffffffffffffffffff1614612cbd57612cbc82826132ab565b5b5b505050565b600073ffffffffffffffffffffffffffffffffffffffff168273ffffffffffffffffffffffffffffffffffffffff1603612d32576040517f08c379a0000000000000000000000000000000000000000000000000000000008152600401612d2990615138565b60405180910390fd5b612d3b81611ca4565b15612d7b576040517f08c379a0000000000000000000000000000000000000000000000000000000008152600401612d72906151a4565b60405180910390fd5b612d8760008383612798565b6001600360008473ffffffffffffffffffffffffffffffffffffffff1673ffffffffffffffffffffffffffffffffffffffff1681526020019081526020016000206000828254612dd79190614d13565b92505081905550816002600083815260200190815260200160002060006101000a81548173ffffffffffffffffffffffffffffffffffffffff021916908373ffffffffffffffffffffffffffffffffffffffff160217905550808273ffffffffffffffffffffffffffffffffffffffff16600073ffffffffffffffffffffffffffffffffffffffff167fddf252ad1be2c89b69c2b068fc378daa952ba7f163c4a11628f55a4df523b3ef60405160405180910390a4612e98600083836127a8565b5050565b6000808273ffffffffffffffffffffffffffffffffffffffff163b119050919050565b606060008203612f06576040518060400160405280600181526020017f3000000000000000000000000000000000000000000000000000000000000000815250905061301a565b600082905060005b60008214612f38578080612f21906151c4565b915050600a82612f31919061523b565b9150612f0e565b60008167ffffffffffffffff811115612f5457612f53613642565b5b6040519080825280601f01601f191660200182016040528015612f865781602001600182028036833780820191505090505b5090505b6000851461301357600182612f9f9190614cdf565b9150600a85612fae919061526c565b6030612fba9190614d13565b60f81b818381518110612fd057612fcf6140d4565b5b60200101907effffffffffffffffffffffffffffffffffffffffffffffffffffffffffffff1916908160001a905350600a8561300c919061523b565b9450612f8a565b8093505050505b919050565b505050565b6008805490506009600083815260200190815260200160002081905550600881908060018154018082558091505060019003906000526020600020016000909190919091505550565b6000600161307a84610f67565b6130849190614cdf565b9050600060076000848152602001908152602001600020549050818114613169576000600660008673ffffffffffffffffffffffffffffffffffffffff1673ffffffffffffffffffffffffffffffffffffffff168152602001908152602001600020600084815260200190815260200160002054905080600660008773ffffffffffffffffffffffffffffffffffffffff1673ffffffffffffffffffffffffffffffffffffffff168152602001908152602001600020600084815260200190815260200160002081905550816007600083815260200190815260200160002081905550505b6007600084815260200190815260200160002060009055600660008573ffffffffffffffffffffffffffffffffffffffff1673ffffffffffffffffffffffffffffffffffffffff16815260200190815260200160002060008381526020019081526020016000206000905550505050565b600060016008805490506131ee9190614cdf565b905060006009600084815260200190815260200160002054905060006008838154811061321e5761321d6140d4565b5b9060005260206000200154905080600883815481106132405761323f6140d4565b5b90600052602060002001819055508160096000838152602001908152602001600020819055506009600085815260200190815260200160002060009055600880548061328f5761328e61529d565b5b6001900381819060005260206000200160009055905550505050565b60006132b683610f67565b905081600660008573ffffffffffffffffffffffffffffffffffffffff1673ffffffffffffffffffffffffffffffffffffffff168152602001908152602001600020600083815260200190815260200160002081905550806007600084815260200190815260200160002081905550505050565b6000604051905090565b600080fd5b600080fd5b60007fffffffff0000000000000000000000000000000000000000000000000000000082169050919050565b6133738161333e565b811461337e57600080fd5b50565b6000813590506133908161336a565b92915050565b6000602082840312156133ac576133ab613334565b5b60006133ba84828501613381565b91505092915050565b60008115159050919050565b6133d8816133c3565b82525050565b60006020820190506133f360008301846133cf565b92915050565b600081519050919050565b600082825260208201905092915050565b60005b83811015613433578082015181840152602081019050613418565b60008484015250505050565b6000601f19601f8301169050919050565b600061345b826133f9565b6134658185613404565b9350613475818560208601613415565b61347e8161343f565b840191505092915050565b600060208201905081810360008301526134a38184613450565b905092915050565b6000819050919050565b6134be816134ab565b81146134c957600080fd5b50565b6000813590506134db816134b5565b92915050565b6000602082840312156134f7576134f6613334565b5b6000613505848285016134cc565b91505092915050565b600073ffffffffffffffffffffffffffffffffffffffff82169050919050565b60006135398261350e565b9050919050565b6135498161352e565b82525050565b60006020820190506135646000830184613540565b92915050565b6135738161352e565b811461357e57600080fd5b50565b6000813590506135908161356a565b92915050565b600080604083850312156135ad576135ac613334565b5b60006135bb85828601613581565b92505060206135cc858286016134cc565b9150509250929050565b6135df816134ab565b82525050565b600060a0820190506135fa60008301886135d6565b6136076020830187613540565b6136146040830186613540565b6136216060830185613540565b61362e6080830184613540565b9695505050505050565b600080fd5b600080fd5b7f4e487b7100000000000000000000000000000000000000000000000000000000600052604160045260246000fd5b61367a8261343f565b810181811067ffffffffffffffff8211171561369957613698613642565b5b80604052505050565b60006136ac61332a565b90506136b88282613671565b919050565b600067ffffffffffffffff8211156136d8576136d7613642565b5b6136e18261343f565b9050602081019050919050565b82818337600083830152505050565b600061371061370b846136bd565b6136a2565b90508281526020810184848401111561372c5761372b61363d565b5b6137378482856136ee565b509392505050565b600082601f83011261375457613753613638565b5b81356137648482602086016136fd565b91505092915050565b6000806040838503121561378457613783613334565b5b6000613792858286016134cc565b925050602083013567ffffffffffffffff8111156137b3576137b2613339565b5b6137bf8582860161373f565b9150509250929050565b60006020820190506137de60008301846135d6565b92915050565b6000806000606084860312156137fd576137fc613334565b5b600061380b86828701613581565b935050602061381c86828701613581565b925050604061382d868287016134cc565b9150509250925092565b6000819050919050565b61384a81613837565b811461385557600080fd5b50565b60008135905061386781613841565b92915050565b600067ffffffffffffffff82111561388857613887613642565b5b6138918261343f565b9050602081019050919050565b60006138b16138ac8461386d565b6136a2565b9050828152602081018484840111156138cd576138cc61363d565b5b6138d88482856136ee565b509392505050565b600082601f8301126138f5576138f4613638565b5b813561390584826020860161389e565b91505092915050565b60008060008060008060c0878903121561392b5761392a613334565b5b600061393989828a016134cc565b965050602061394a89828a01613858565b955050604061395b89828a016134cc565b945050606061396c89828a016134cc565b935050608087013567ffffffffffffffff81111561398d5761398c613339565b5b61399989828a0161373f565b92505060a087013567ffffffffffffffff8111156139ba576139b9613339565b5b6139c689828a016138e0565b9150509295509295509295565b6000602082840312156139e9576139e8613334565b5b60006139f784828501613581565b91505092915050565b600060208284031215613a1657613a15613334565b5b600082013567ffffffffffffffff811115613a3457613a33613339565b5b613a408482850161373f565b91505092915050565b60008060408385031215613a6057613a5f613334565b5b600083013567ffffffffffffffff811115613a7e57613a7d613339565b5b613a8a8582860161373f565b925050602083013567ffffffffffffffff811115613aab57613aaa613339565b5b613ab7858286016138e0565b9150509250929050565b613aca816133c3565b8114613ad557600080fd5b50565b600081359050613ae781613ac1565b92915050565b60008060408385031215613b0457613b03613334565b5b6000613b1285828601613581565b9250506020613b2385828601613ad8565b9150509250929050565b60008060008060808587031215613b4757613b46613334565b5b6000613b5587828801613581565b9450506020613b6687828801613581565b9350506040613b77878288016134cc565b925050606085013567ffffffffffffffff811115613b9857613b97613339565b5b613ba4878288016138e0565b91505092959194509250565b60008060408385031215613bc757613bc6613334565b5b6000613bd585828601613581565b9250506020613be685828601613581565b9150509250929050565b60008060408385031215613c0757613c06613334565b5b6000613c15858286016134cc565b9250506020613c2685828601613858565b9150509250929050565b7f4e487b7100000000000000000000000000000000000000000000000000000000600052602260045260246000fd5b60006002820490506001821680613c7757607f821691505b602082108103613c8a57613c89613c30565b5b50919050565b7f4552433732313a20617070726f76656420717565727920666f72206e6f6e657860008201527f697374656e7420746f6b656e0000000000000000000000000000000000000000602082015250565b6000613cec602c83613404565b9150613cf782613c90565b604082019050919050565b60006020820190508181036000830152613d1b81613cdf565b9050919050565b7f4552433732313a20617070726f76616c20746f2063757272656e74206f776e6560008201527f7200000000000000000000000000000000000000000000000000000000000000602082015250565b6000613d7e602183613404565b9150613d8982613d22565b604082019050919050565b60006020820190508181036000830152613dad81613d71565b9050919050565b7f4552433732313a20617070726f76652063616c6c6572206973206e6f74206f7760008201527f6e6572206e6f7220617070726f76656420666f7220616c6c0000000000000000602082015250565b6000613e10603883613404565b9150613e1b82613db4565b604082019050919050565b60006020820190508181036000830152613e3f81613e03565b9050919050565b7f4552433732313a207472616e736665722063616c6c6572206973206e6f74206f60008201527f776e6572206e6f7220617070726f766564000000000000000000000000000000602082015250565b6000613ea2603183613404565b9150613ead82613e46565b604082019050919050565b60006020820190508181036000830152613ed181613e95565b9050919050565b7f455243373231456e756d657261626c653a206f776e657220696e646578206f7560008201527f74206f6620626f756e6473000000000000000000000000000000000000000000602082015250565b6000613f34602b83613404565b9150613f3f82613ed8565b604082019050919050565b60006020820190508181036000830152613f6381613f27565b9050919050565b7f4f776e61626c653a2063616c6c6572206973206e6f7420746865206f776e6572600082015250565b6000613fa0602083613404565b9150613fab82613f6a565b602082019050919050565b60006020820190508181036000830152613fcf81613f93565b9050919050565b7f4e6f2062616c616e636520746f20776974686472617700000000000000000000600082015250565b600061400c601683613404565b915061401782613fd6565b602082019050919050565b6000602082019050818103600083015261403b81613fff565b9050919050565b7f455243373231456e756d657261626c653a20676c6f62616c20696e646578206f60008201527f7574206f6620626f756e64730000000000000000000000000000000000000000602082015250565b600061409e602c83613404565b91506140a982614042565b604082019050919050565b600060208201905081810360008301526140cd81614091565b9050919050565b7f4e487b7100000000000000000000000000000000000000000000000000000000600052603260045260246000fd5b7f43616c6c6572206973206e6f74206f776e6572206f66206e7574000000000000600082015250565b6000614139601a83613404565b915061414482614103565b602082019050919050565b600060208201905081810360008301526141688161412c565b9050919050565b61417881613837565b82525050565b600060808201905061419360008301876135d6565b6141a060208301866135d6565b6141ad60408301856135d6565b6141ba606083018461416f565b95945050505050565b6000815190506141d281613ac1565b92915050565b6000602082840312156141ee576141ed613334565b5b60006141fc848285016141c3565b91505092915050565b600081519050919050565b600082825260208201905092915050565b600061422c82614205565b6142368185614210565b9350614246818560208601613415565b61424f8161343f565b840191505092915050565b600060608201905061426f60008301866135d6565b81810360208301526142818185613450565b905081810360408301526142958184614221565b9050949350505050565b7f4552433732313a206f776e657220717565727920666f72206e6f6e657869737460008201527f656e7420746f6b656e0000000000000000000000000000000000000000000000602082015250565b60006142fb602983613404565b91506143068261429f565b604082019050919050565b6000602082019050818103600083015261432a816142ee565b9050919050565b7f4552433732313a2062616c616e636520717565727920666f7220746865207a6560008201527f726f206164647265737300000000000000000000000000000000000000000000602082015250565b600061438d602a83613404565b915061439882614331565b604082019050919050565b600060208201905081810360008301526143bc81614380565b9050919050565b7f496e697469616c20737570706c79206f66206e757473206973206465706c657460008201527f6564000000000000000000000000000000000000000000000000000000000000602082015250565b600061441f602283613404565b915061442a826143c3565b604082019050919050565b6000602082019050818103600083015261444e81614412565b9050919050565b600081519050614464816134b5565b92915050565b6000602082840312156144805761447f613334565b5b600061448e84828501614455565b91505092915050565b7f45746865722076616c7565206973206e6f7420656e6f75676800000000000000600082015250565b60006144cd601983613404565b91506144d882614497565b602082019050919050565b600060208201905081810360008301526144fc816144c0565b9050919050565b60006040820190506145186000830185613540565b61452560208301846135d6565b9392505050565b7f4f776e61626c653a206e6577206f776e657220697320746865207a65726f206160008201527f6464726573730000000000000000000000000000000000000000000000000000602082015250565b6000614588602683613404565b91506145938261452c565b604082019050919050565b600060208201905081810360008301526145b78161457b565b9050919050565b7f4e757473207374696c6c2065786973742066726f6d206372656174696f6e0000600082015250565b60006145f4601e83613404565b91506145ff826145be565b602082019050919050565b60006020820190508181036000830152614623816145e7565b9050919050565b7f4d61747465722062616c616e6365206973206e6f7420656e6f75676800000000600082015250565b6000614660601c83613404565b915061466b8261462a565b602082019050919050565b6000602082019050818103600083015261468f81614653565b9050919050565b60006060820190506146ab6000830186613540565b6146b86020830185613540565b6146c560408301846135d6565b949350505050565b60006040820190506146e260008301856135d6565b6146ef602083018461416f565b9392505050565b6000815190506147058161356a565b92915050565b60006020828403121561472157614720613334565b5b600061472f848285016146f6565b91505092915050565b600081905092915050565b50565b6000614753600083614738565b915061475e82614743565b600082019050919050565b600061477482614746565b9150819050919050565b7f4574686572206e6f742073656e7420746f207365656400000000000000000000600082015250565b60006147b4601683613404565b91506147bf8261477e565b602082019050919050565b600060208201905081810360008301526147e3816147a7565b9050919050565b7f45524337323155524953746f726167653a2055524920736574206f66206e6f6e60008201527f6578697374656e7420746f6b656e000000000000000000000000000000000000602082015250565b6000614846602e83613404565b9150614851826147ea565b604082019050919050565b6000602082019050818103600083015261487581614839565b9050919050565b60008190508160005260206000209050919050565b60006020601f8301049050919050565b600082821b905092915050565b6000600883026148de7fffffffffffffffffffffffffffffffffffffffffffffffffffffffffffffffff826148a1565b6148e886836148a1565b95508019841693508086168417925050509392505050565b6000819050919050565b600061492561492061491b846134ab565b614900565b6134ab565b9050919050565b6000819050919050565b61493f8361490a565b61495361494b8261492c565b8484546148ae565b825550505050565b600090565b61496861495b565b614973818484614936565b505050565b5b818110156149975761498c600082614960565b600181019050614979565b5050565b601f8211156149dc576149ad8161487c565b6149b684614891565b810160208510156149c5578190505b6149d96149d185614891565b830182614978565b50505b505050565b600082821c905092915050565b60006149ff600019846008026149e1565b1980831691505092915050565b6000614a1883836149ee565b9150826002028217905092915050565b614a31826133f9565b67ffffffffffffffff811115614a4a57614a49613642565b5b614a548254613c5f565b614a5f82828561499b565b600060209050601f831160018114614a925760008415614a80578287015190505b614a8a8582614a0c565b865550614af2565b601f198416614aa08661487c565b60005b82811015614ac857848901518255600182019150602085019450602081019050614aa3565b86831015614ae55784890151614ae1601f8916826149ee565b8355505b6001600288020188555050505b505050505050565b7f4552433732313a206f70657261746f7220717565727920666f72206e6f6e657860008201527f697374656e7420746f6b656e0000000000000000000000000000000000000000602082015250565b6000614b56602c83613404565b9150614b6182614afa565b604082019050919050565b60006020820190508181036000830152614b8581614b49565b9050919050565b7f4552433732313a207472616e736665722066726f6d20696e636f72726563742060008201527f6f776e6572000000000000000000000000000000000000000000000000000000602082015250565b6000614be8602583613404565b9150614bf382614b8c565b604082019050919050565b60006020820190508181036000830152614c1781614bdb565b9050919050565b7f4552433732313a207472616e7366657220746f20746865207a65726f2061646460008201527f7265737300000000000000000000000000000000000000000000000000000000602082015250565b6000614c7a602483613404565b9150614c8582614c1e565b604082019050919050565b60006020820190508181036000830152614ca981614c6d565b9050919050565b7f4e487b7100000000000000000000000000000000000000000000000000000000600052601160045260246000fd5b6000614cea826134ab565b9150614cf5836134ab565b9250828203905081811115614d0d57614d0c614cb0565b5b92915050565b6000614d1e826134ab565b9150614d29836134ab565b9250828201905080821115614d4157614d40614cb0565b5b92915050565b6000604082019050614d5c6000830185613540565b614d696020830184613540565b9392505050565b7f4552433732313a20617070726f766520746f2063616c6c657200000000000000600082015250565b6000614da6601983613404565b9150614db182614d70565b602082019050919050565b60006020820190508181036000830152614dd581614d99565b9050919050565b7f4552433732313a207472616e7366657220746f206e6f6e20455243373231526560008201527f63656976657220696d706c656d656e7465720000000000000000000000000000602082015250565b6000614e38603283613404565b9150614e4382614ddc565b604082019050919050565b60006020820190508181036000830152614e6781614e2b565b9050919050565b7f45524337323155524953746f726167653a2055524920717565727920666f722060008201527f6e6f6e6578697374656e7420746f6b656e000000000000000000000000000000602082015250565b6000614eca603183613404565b9150614ed582614e6e565b604082019050919050565b60006020820190508181036000830152614ef981614ebd565b9050919050565b600081905092915050565b6000614f16826133f9565b614f208185614f00565b9350614f30818560208601613415565b80840191505092915050565b6000614f488285614f0b565b9150614f548284614f0b565b91508190509392505050565b7f455243313136373a20637265617465206661696c656400000000000000000000600082015250565b6000614f96601683613404565b9150614fa182614f60565b602082019050919050565b60006020820190508181036000830152614fc581614f89565b9050919050565b6000608082019050614fe16000830187613540565b614fee6020830186613540565b614ffb60408301856135d6565b818103606083015261500d8184614221565b905095945050505050565b6000815190506150278161336a565b92915050565b60006020828403121561504357615042613334565b5b600061505184828501615018565b91505092915050565b7f4552433732314d657461646174613a2055524920717565727920666f72206e6f60008201527f6e6578697374656e7420746f6b656e0000000000000000000000000000000000602082015250565b60006150b6602f83613404565b91506150c18261505a565b604082019050919050565b600060208201905081810360008301526150e5816150a9565b9050919050565b7f4552433732313a206d696e7420746f20746865207a65726f2061646472657373600082015250565b6000615122602083613404565b915061512d826150ec565b602082019050919050565b6000602082019050818103600083015261515181615115565b9050919050565b7f4552433732313a20746f6b656e20616c7265616479206d696e74656400000000600082015250565b600061518e601c83613404565b915061519982615158565b602082019050919050565b600060208201905081810360008301526151bd81615181565b9050919050565b60006151cf826134ab565b91507fffffffffffffffffffffffffffffffffffffffffffffffffffffffffffffffff820361520157615200614cb0565b5b600182019050919050565b7f4e487b7100000000000000000000000000000000000000000000000000000000600052601260045260246000fd5b6000615246826134ab565b9150615251836134ab565b9250826152615761526061520c565b5b828204905092915050565b6000615277826134ab565b9150615282836134ab565b9250826152925761529161520c565b5b828206905092915050565b7f4e487b7100000000000000000000000000000000000000000000000000000000600052603160045260246000fdfea2646970667358221220548cfa4d763b01d98636fe1700682f76e3844e0832b431635742180b1c54be4864736f6c63430008110033",
  "immutableReferences": {},
  "source": "// SPDX-License-Identifier: MIT\npragma solidity ^0.8.7;\n\nimport \"./CosmoCreation.sol\";\nimport \"./ICosmoNuts.sol\";\nimport \"./ICosmoVault.sol\";\nimport \"./ICosmoTreasury.sol\";\n\n/**\n * Main Contract for the NFT tokens.\n * System address resembles the public address of the software application.\n */\ncontract CosmoNuts is CosmoCreation, ICosmoNuts {\n\n    using ECDSA for bytes32;\n\n    constructor(\n        string memory _name,\n        string memory _symbol,\n        uint256 _initialNFTSupply,\n        address _systemAddress,\n        address _treasuryAddress,\n        address _vaultImplementation\n    )\n        CosmoCreation(\n            _name,\n            _symbol,\n            _initialNFTSupply,\n            _systemAddress,\n            _treasuryAddress,\n            _vaultImplementation\n        )\n    {\n        ICosmoTreasury(_treasuryAddress).linkCosmo(address(this));\n    }\n\n    function vaultLocation() public view override returns (address) {\n        return creation.vault;\n    }\n\n    function setTokenURI(uint256 _nutId, string memory _nutCID) external virtual override {\n        _setTokenURI(_nutId, _nutCID);\n    }\n\n    function getOwnerOf(uint256 _nutId) public view virtual override returns (address) {\n        return ownerOf(_nutId);\n    }\n\n    function createVault() external virtual override returns (address) {\n        return openVault(address(this));\n    }\n\n    // only system address?\n    function withdraw() public onlyOwner {\n        uint256 balance = address(this).balance;\n        require(address(this).balance > 0 wei, \"No balance to withdraw\");\n        payable(msg.sender).transfer(balance);\n    }\n\n    /*\n     * Called from CosmoSeed to mint a new Nut\n     */\n    function createNut(\n        string memory _cidPath,\n        bytes memory _signature\n    ) external virtual override returns (bool) {\n        uint256 mintIndex = totalSupply();\n        _safeMint(msg.sender, mintIndex);\n        ICosmoVault(creation.vault).changeTokenURI(\n            mintIndex, _cidPath, _signature\n        );\n        return true;\n    }\n\n    /**\n     * Function callable by Nut owner to create a seed which has the potential to turn into a new Nut.\n     * Requires the input of a secretHash and a specified amount of Ether to create.\n     * A required level of matter must be burned which is equal to the amount of seeds you have in Universe\n     * multiplied by the matterRate.\n     */\n    function createSeed(\n        uint256 _nutId,\n        bytes32 _secretHash\n        //string memory _cidPath,\n        //bytes memory _signature\n        )\n        public payable returns (address seedLocation) {\n            require(address(msg.sender) == ownerOf(_nutId), \"Caller is not owner of nut\");\n            require(totalSupply() >= creation.initialSupply, \"Nuts still exist from creation\");\n\n            uint256 ethToHold = ICosmoTreasury(creation.treasury).ethToHold(_nutId);\n            require(msg.value >= ethToHold, \"Ether value is not enough\");\n\n            uint256 matterNeeded = ICosmoTreasury(creation.treasury).matterNeeded(_nutId);\n            uint256 matterOfOwner = ICosmoTreasury(creation.treasury).matterOf(_nutId);\n            require(matterOfOwner >= matterNeeded, \"Matter balance is not enough\");\n\n            ICosmoTreasury(creation.treasury).grantApproval(\n                msg.sender,\n                creation.treasury,\n                matterNeeded\n            );\n\n            ICosmoTreasury(creation.treasury).burnMatterFrom(msg.sender, matterNeeded);\n\n            seedLocation = ICosmoTreasury(creation.treasury).spawnSeed(_nutId, _secretHash);\n\n            // DO NOT DELETE - For testing purposes commented out\n            /*\n            ICosmoVault(creation.vault).changeTokenURI(\n                _nutId, _cidPath, _signature\n            );\n            */\n\n            (bool sentToSeed, /*memory data*/) = seedLocation.call{\n                value: msg.value\n            }(\"\");\n            require(sentToSeed, \"Ether not sent to seed\");\n\n            return seedLocation;\n    }\n\n    /**\n     * Function callable by Nut owner to create a matter faucet which allows other users to draw matter\n     * Creation requires a secret hash that must be known to suppy matter\n     * Creation requires input of total number of matter in contract and the amount each user can draw at a single time\n     * Drawing any amount of matter results in the creation of new supply of matter\n     * In creating the faucet, the creator replenishes the accounts of other nut holders (tax on system to create message)\n     * Caller will also receive matter if others call on this function\n     */\n    function createButter(\n        uint256 _nutId,\n        bytes32 _secretHash,\n        uint256 _matterContributed,\n        uint256 _matterDrawRate,\n        string memory _cidPath,\n        bytes memory _signature\n    ) public {\n        require(address(msg.sender) == ownerOf(_nutId), \"Caller is not owner of nut\");\n        ICosmoTreasury(creation.treasury).newButter(_nutId, _matterContributed, _matterDrawRate, _secretHash);\n        ICosmoVault(creation.vault).changeTokenURI(\n            _nutId, _cidPath, _signature\n        );\n    }\n\n}\n",
  "sourcePath": "/home/redlentils/Seafile/Websites/avatarnft/contracts/CosmoNuts.sol",
  "compiler": {
    "name": "solc",
    "version": "0.8.17+commit.8df45f5f.Emscripten.clang"
  },
  "schemaVersion": "3.4.10",
  "updatedAt": "2022-10-25T08:21:46.423Z",
  "devdoc": {
    "kind": "dev",
    "methods": {
      "approve(address,uint256)": {
        "details": "See {IERC721-approve}."
      },
      "balanceOf(address)": {
        "details": "See {IERC721-balanceOf}."
      },
      "getApproved(uint256)": {
        "details": "See {IERC721-getApproved}."
      },
      "isApprovedForAll(address,address)": {
        "details": "See {IERC721-isApprovedForAll}."
      },
      "name()": {
        "details": "See {IERC721Metadata-name}."
      },
      "owner()": {
        "details": "Returns the address of the current owner."
      },
      "ownerOf(uint256)": {
        "details": "See {IERC721-ownerOf}."
      },
      "renounceOwnership()": {
        "details": "Leaves the contract without owner. It will not be possible to call `onlyOwner` functions anymore. Can only be called by the current owner. NOTE: Renouncing ownership will leave the contract without an owner, thereby removing any functionality that is only available to the owner."
      },
      "safeTransferFrom(address,address,uint256)": {
        "details": "See {IERC721-safeTransferFrom}."
      },
      "safeTransferFrom(address,address,uint256,bytes)": {
        "details": "See {IERC721-safeTransferFrom}."
      },
      "setApprovalForAll(address,bool)": {
        "details": "See {IERC721-setApprovalForAll}."
      },
      "symbol()": {
        "details": "See {IERC721Metadata-symbol}."
      },
      "tokenByIndex(uint256)": {
        "details": "See {IERC721Enumerable-tokenByIndex}."
      },
      "tokenOfOwnerByIndex(address,uint256)": {
        "details": "See {IERC721Enumerable-tokenOfOwnerByIndex}."
      },
      "totalSupply()": {
        "details": "See {IERC721Enumerable-totalSupply}."
      },
      "transferFrom(address,address,uint256)": {
        "details": "See {IERC721-transferFrom}."
      },
      "transferOwnership(address)": {
        "details": "Transfers ownership of the contract to a new account (`newOwner`). Can only be called by the current owner."
      }
    },
    "version": 1
  },
  "userdoc": {
    "kind": "user",
    "methods": {
      "createButter(uint256,bytes32,uint256,uint256,string,bytes)": {
        "notice": "Function callable by Nut owner to create a matter faucet which allows other users to draw matter Creation requires a secret hash that must be known to suppy matter Creation requires input of total number of matter in contract and the amount each user can draw at a single time Drawing any amount of matter results in the creation of new supply of matter In creating the faucet, the creator replenishes the accounts of other nut holders (tax on system to create message) Caller will also receive matter if others call on this function"
      },
      "createSeed(uint256,bytes32)": {
        "notice": "Function callable by Nut owner to create a seed which has the potential to turn into a new Nut. Requires the input of a secretHash and a specified amount of Ether to create. A required level of matter must be burned which is equal to the amount of seeds you have in Universe multiplied by the matterRate."
      }
    },
    "notice": "Main Contract for the NFT tokens. System address resembles the public address of the software application.",
    "version": 1
  }
}