{
  "contractName": "CosmoButter",
  "abi": [
    {
      "inputs": [
        {
          "internalType": "uint256",
          "name": "_butterId",
          "type": "uint256"
        },
        {
          "internalType": "uint256",
          "name": "_nutId",
          "type": "uint256"
        },
        {
          "internalType": "uint256",
          "name": "_butterAmount",
          "type": "uint256"
        },
        {
          "internalType": "uint256",
          "name": "_drawRate",
          "type": "uint256"
        },
        {
          "internalType": "address",
          "name": "_treasuryAddress",
          "type": "address"
        },
        {
          "internalType": "bytes32",
          "name": "_secretHash",
          "type": "bytes32"
        }
      ],
      "stateMutability": "nonpayable",
      "type": "constructor"
    },
    {
      "inputs": [
        {
          "internalType": "string",
          "name": "_secret",
          "type": "string"
        },
        {
          "internalType": "string",
          "name": "_cidPath",
          "type": "string"
        },
        {
          "internalType": "bytes",
          "name": "_signature",
          "type": "bytes"
        }
      ],
      "name": "drawButter",
      "outputs": [],
      "stateMutability": "nonpayable",
      "type": "function"
    }
  ],
  "bytecode": "0x60806040523480156200001157600080fd5b5060405162000d2138038062000d21833981810160405281019062000037919062000283565b85600080018190555084600060010181905550836000600201819055508260006003018190555030600060040160006101000a81548173ffffffffffffffffffffffffffffffffffffffff021916908373ffffffffffffffffffffffffffffffffffffffff16021790555033600060050160006101000a81548173ffffffffffffffffffffffffffffffffffffffff021916908373ffffffffffffffffffffffffffffffffffffffff16021790555080600060060181905550600060050160009054906101000a900473ffffffffffffffffffffffffffffffffffffffff16600860006101000a81548173ffffffffffffffffffffffffffffffffffffffff021916908373ffffffffffffffffffffffffffffffffffffffff16021790555081600960006101000a81548173ffffffffffffffffffffffffffffffffffffffff021916908373ffffffffffffffffffffffffffffffffffffffff1602179055505050505050506200031f565b600080fd5b6000819050919050565b620001bd81620001a8565b8114620001c957600080fd5b50565b600081519050620001dd81620001b2565b92915050565b600073ffffffffffffffffffffffffffffffffffffffff82169050919050565b60006200021082620001e3565b9050919050565b620002228162000203565b81146200022e57600080fd5b50565b600081519050620002428162000217565b92915050565b6000819050919050565b6200025d8162000248565b81146200026957600080fd5b50565b6000815190506200027d8162000252565b92915050565b60008060008060008060c08789031215620002a357620002a2620001a3565b5b6000620002b389828a01620001cc565b9650506020620002c689828a01620001cc565b9550506040620002d989828a01620001cc565b9450506060620002ec89828a01620001cc565b9350506080620002ff89828a0162000231565b92505060a06200031289828a016200026c565b9150509295509295509295565b6109f2806200032f6000396000f3fe608060405234801561001057600080fd5b506004361061002b5760003560e01c806327ac1b6514610030575b600080fd5b61004a60048036038101906100459190610563565b61004c565b005b60011515600060070160003373ffffffffffffffffffffffffffffffffffffffff1673ffffffffffffffffffffffffffffffffffffffff16815260200190815260200160002060009054906101000a900460ff161515036100e2576040517f08c379a00000000000000000000000000000000000000000000000000000000081526004016100d990610667565b60405180910390fd5b6000806002015411610129576040517f08c379a0000000000000000000000000000000000000000000000000000000008152600401610120906106d3565b60405180910390fd5b610132836102eb565b50600960009054906101000a900473ffffffffffffffffffffffffffffffffffffffff1673ffffffffffffffffffffffffffffffffffffffff16639cee22b13360008001546000600301546000600201546040518563ffffffff1660e01b81526004016101a2949392919061074d565b600060405180830381600087803b1580156101bc57600080fd5b505af11580156101d0573d6000803e3d6000fd5b50505050600060030154600060020160008282546101ee91906107c1565b925050819055506001600060070160003373ffffffffffffffffffffffffffffffffffffffff1673ffffffffffffffffffffffffffffffffffffffff16815260200190815260200160002060006101000a81548160ff021916908315150217905550600860009054906101000a900473ffffffffffffffffffffffffffffffffffffffff1673ffffffffffffffffffffffffffffffffffffffff16639202c1ec60006001015484846040518463ffffffff1660e01b81526004016102b4939291906108b8565b600060405180830381600087803b1580156102ce57600080fd5b505af11580156102e2573d6000803e3d6000fd5b50505050505050565b600080826040516020016102ff9190610939565b604051602081830303815290604052805190602001209050600060060154811461035e576040517f08c379a00000000000000000000000000000000000000000000000000000000081526004016103559061099c565b60405180910390fd5b6001915050919050565b6000604051905090565b600080fd5b600080fd5b600080fd5b600080fd5b6000601f19601f8301169050919050565b7f4e487b7100000000000000000000000000000000000000000000000000000000600052604160045260246000fd5b6103cf82610386565b810181811067ffffffffffffffff821117156103ee576103ed610397565b5b80604052505050565b6000610401610368565b905061040d82826103c6565b919050565b600067ffffffffffffffff82111561042d5761042c610397565b5b61043682610386565b9050602081019050919050565b82818337600083830152505050565b600061046561046084610412565b6103f7565b90508281526020810184848401111561048157610480610381565b5b61048c848285610443565b509392505050565b600082601f8301126104a9576104a861037c565b5b81356104b9848260208601610452565b91505092915050565b600067ffffffffffffffff8211156104dd576104dc610397565b5b6104e682610386565b9050602081019050919050565b6000610506610501846104c2565b6103f7565b90508281526020810184848401111561052257610521610381565b5b61052d848285610443565b509392505050565b600082601f83011261054a5761054961037c565b5b813561055a8482602086016104f3565b91505092915050565b60008060006060848603121561057c5761057b610372565b5b600084013567ffffffffffffffff81111561059a57610599610377565b5b6105a686828701610494565b935050602084013567ffffffffffffffff8111156105c7576105c6610377565b5b6105d386828701610494565b925050604084013567ffffffffffffffff8111156105f4576105f3610377565b5b61060086828701610535565b9150509250925092565b600082825260208201905092915050565b7f43616e206f6e6c792064726177206f6e63650000000000000000000000000000600082015250565b600061065160128361060a565b915061065c8261061b565b602082019050919050565b6000602082019050818103600083015261068081610644565b9050919050565b7f4e6f2062757474657220746f2064726177000000000000000000000000000000600082015250565b60006106bd60118361060a565b91506106c882610687565b602082019050919050565b600060208201905081810360008301526106ec816106b0565b9050919050565b600073ffffffffffffffffffffffffffffffffffffffff82169050919050565b600061071e826106f3565b9050919050565b61072e81610713565b82525050565b6000819050919050565b61074781610734565b82525050565b60006080820190506107626000830187610725565b61076f602083018661073e565b61077c604083018561073e565b610789606083018461073e565b95945050505050565b7f4e487b7100000000000000000000000000000000000000000000000000000000600052601160045260246000fd5b60006107cc82610734565b91506107d783610734565b92508282039050818111156107ef576107ee610792565b5b92915050565b600081519050919050565b60005b8381101561081e578082015181840152602081019050610803565b60008484015250505050565b6000610835826107f5565b61083f818561060a565b935061084f818560208601610800565b61085881610386565b840191505092915050565b600081519050919050565b600082825260208201905092915050565b600061088a82610863565b610894818561086e565b93506108a4818560208601610800565b6108ad81610386565b840191505092915050565b60006060820190506108cd600083018661073e565b81810360208301526108df818561082a565b905081810360408301526108f3818461087f565b9050949350505050565b600081905092915050565b6000610913826107f5565b61091d81856108fd565b935061092d818560208601610800565b80840191505092915050565b60006109458284610908565b915081905092915050565b7f496e70757420646f6573206e6f74206d61746368207365637265740000000000600082015250565b6000610986601b8361060a565b915061099182610950565b602082019050919050565b600060208201905081810360008301526109b581610979565b905091905056fea26469706673582212206653580286634fdb75cad61f3fe24a8bb0cc31ae4ea9d8043a350150ab288f8564736f6c63430008110033",
  "immutableReferences": {},
  "source": "// SPDX-License-Identifier: MIT\npragma solidity ^0.8.7;\n\nimport \"./CosmoNuts.sol\";\nimport \"./CosmoTreasury.sol\";\n\n/**\n * A contract created by a CosmoNut which contains a certain amount of matter,\n * and can be drawn by others if the secret is known.\n */\n contract CosmoButter {\n\n     struct Butter {\n         uint256 id;\n         uint256 nutId;\n         uint256 amount;\n         uint256 drawRate;\n         address location;\n         address nutLocation;\n         bytes32 secretHash;\n         mapping(address => bool) drawnBefore;\n     }\n     Butter butter;\n\n     /* Turn these into a struct\n     uint256 public TOKEN_ID;\n     bytes32 private SECRET_HASH;\n     uint256 public BUTTER_DRAW_RATE;\n     uint256 public BUTTER_ID;\n     address public TREASURY_ADDRESS;\n     */\n\n     //uint256 public butterAmount;\n     //mapping(address => bool) private drawnBefore;\n\n     CosmoNuts nuts;\n     CosmoTreasury treasury;\n\n     constructor(\n         uint256 _butterId,\n         uint256 _nutId,\n         uint256 _butterAmount,\n         uint256 _drawRate,\n         address _treasuryAddress,\n         bytes32 _secretHash\n     ) {\n         butter.id = _butterId;\n         butter.nutId = _nutId;\n         butter.amount = _butterAmount;\n         butter.drawRate = _drawRate;\n         butter.location = address(this);\n         butter.nutLocation = address(msg.sender);\n         butter.secretHash = _secretHash;\n\n         nuts = CosmoNuts(butter.nutLocation);\n         treasury = CosmoTreasury(_treasuryAddress);\n         //TOKEN_ID = _tokenId;\n         //SECRET_HASH = _secretHash;\n         //butterAmount = _butterAmount;\n         //BUTTER_DRAW_RATE = _butterLimit;\n         //BUTTER_ID = _butterId;\n     }\n\n     modifier onlyOnce {\n         require(butter.drawnBefore[msg.sender] != true, \"Can only draw once\");\n         _;\n     }\n\n     /**\n      * Function callable from anyone, but can only be done once per Ethereum address.\n      */\n     function drawButter(string memory _secret, string memory _cidPath, bytes memory _signature) onlyOnce public {\n         require(butter.amount > 0 wei, \"No butter to draw\");\n         verifySecret(_secret);\n\n         treasury.butterDrawn(msg.sender, butter.id, butter.drawRate, butter.amount);\n         butter.amount -= butter.drawRate;\n         butter.drawnBefore[msg.sender] = true;\n\n         nuts.spreadButter(butter.nutId, _cidPath, _signature);\n     }\n\n     /**\n      * Takes a string input and hashes it; compares to the SECRET_HASH in the contract\n      * If it matches, returns true.\n      */\n     function verifySecret(string memory _input) private view returns(bool) {\n         bytes32 inputHash = keccak256(abi.encodePacked(_input));\n         require(inputHash == butter.secretHash, \"Input does not match secret\");\n         return true;\n     }\n\n\n }\n",
  "sourcePath": "/home/redlentils/Seafile/Websites/avatarnft/contracts/CosmoButter.sol",
  "compiler": {
    "name": "solc",
    "version": "0.8.17+commit.8df45f5f.Emscripten.clang"
  },
  "schemaVersion": "3.4.10",
  "updatedAt": "2022-10-04T08:42:30.286Z",
  "devdoc": {
    "kind": "dev",
    "methods": {},
    "version": 1
  },
  "userdoc": {
    "kind": "user",
    "methods": {
      "drawButter(string,string,bytes)": {
        "notice": "Function callable from anyone, but can only be done once per Ethereum address."
      }
    },
    "notice": "A contract created by a CosmoNut which contains a certain amount of matter, and can be drawn by others if the secret is known.",
    "version": 1
  }
}