{
  "contractName": "CosmoNuts",
  "abi": [
    {
      "inputs": [
        {
          "internalType": "string",
          "name": "_name",
          "type": "string"
        },
        {
          "internalType": "string",
          "name": "_symbol",
          "type": "string"
        },
        {
          "internalType": "uint256",
          "name": "_initialNFTSupply",
          "type": "uint256"
        },
        {
          "internalType": "address",
          "name": "_systemAddress",
          "type": "address"
        },
        {
          "internalType": "address",
          "name": "_treasuryAddress",
          "type": "address"
        }
      ],
      "stateMutability": "nonpayable",
      "type": "constructor"
    },
    {
      "anonymous": false,
      "inputs": [
        {
          "indexed": true,
          "internalType": "address",
          "name": "owner",
          "type": "address"
        },
        {
          "indexed": true,
          "internalType": "address",
          "name": "approved",
          "type": "address"
        },
        {
          "indexed": true,
          "internalType": "uint256",
          "name": "tokenId",
          "type": "uint256"
        }
      ],
      "name": "Approval",
      "type": "event"
    },
    {
      "anonymous": false,
      "inputs": [
        {
          "indexed": true,
          "internalType": "address",
          "name": "owner",
          "type": "address"
        },
        {
          "indexed": true,
          "internalType": "address",
          "name": "operator",
          "type": "address"
        },
        {
          "indexed": false,
          "internalType": "bool",
          "name": "approved",
          "type": "bool"
        }
      ],
      "name": "ApprovalForAll",
      "type": "event"
    },
    {
      "anonymous": false,
      "inputs": [
        {
          "indexed": true,
          "internalType": "address",
          "name": "previousOwner",
          "type": "address"
        },
        {
          "indexed": true,
          "internalType": "address",
          "name": "newOwner",
          "type": "address"
        }
      ],
      "name": "OwnershipTransferred",
      "type": "event"
    },
    {
      "anonymous": false,
      "inputs": [
        {
          "indexed": true,
          "internalType": "address",
          "name": "from",
          "type": "address"
        },
        {
          "indexed": true,
          "internalType": "address",
          "name": "to",
          "type": "address"
        },
        {
          "indexed": true,
          "internalType": "uint256",
          "name": "tokenId",
          "type": "uint256"
        }
      ],
      "name": "Transfer",
      "type": "event"
    },
    {
      "inputs": [],
      "name": "INITIAL_NUTS",
      "outputs": [
        {
          "internalType": "uint256",
          "name": "",
          "type": "uint256"
        }
      ],
      "stateMutability": "view",
      "type": "function"
    },
    {
      "inputs": [],
      "name": "NUT_PRICE",
      "outputs": [
        {
          "internalType": "uint256",
          "name": "",
          "type": "uint256"
        }
      ],
      "stateMutability": "view",
      "type": "function"
    },
    {
      "inputs": [],
      "name": "TREASURY_ADDRESS",
      "outputs": [
        {
          "internalType": "address",
          "name": "",
          "type": "address"
        }
      ],
      "stateMutability": "view",
      "type": "function"
    },
    {
      "inputs": [
        {
          "internalType": "address",
          "name": "to",
          "type": "address"
        },
        {
          "internalType": "uint256",
          "name": "tokenId",
          "type": "uint256"
        }
      ],
      "name": "approve",
      "outputs": [],
      "stateMutability": "nonpayable",
      "type": "function"
    },
    {
      "inputs": [
        {
          "internalType": "address",
          "name": "owner",
          "type": "address"
        }
      ],
      "name": "balanceOf",
      "outputs": [
        {
          "internalType": "uint256",
          "name": "",
          "type": "uint256"
        }
      ],
      "stateMutability": "view",
      "type": "function"
    },
    {
      "inputs": [
        {
          "internalType": "uint256",
          "name": "tokenId",
          "type": "uint256"
        }
      ],
      "name": "getApproved",
      "outputs": [
        {
          "internalType": "address",
          "name": "",
          "type": "address"
        }
      ],
      "stateMutability": "view",
      "type": "function"
    },
    {
      "inputs": [
        {
          "internalType": "address",
          "name": "owner",
          "type": "address"
        },
        {
          "internalType": "address",
          "name": "operator",
          "type": "address"
        }
      ],
      "name": "isApprovedForAll",
      "outputs": [
        {
          "internalType": "bool",
          "name": "",
          "type": "bool"
        }
      ],
      "stateMutability": "view",
      "type": "function"
    },
    {
      "inputs": [
        {
          "internalType": "string",
          "name": "_nutCID",
          "type": "string"
        }
      ],
      "name": "mintNut",
      "outputs": [],
      "stateMutability": "payable",
      "type": "function"
    },
    {
      "inputs": [],
      "name": "name",
      "outputs": [
        {
          "internalType": "string",
          "name": "",
          "type": "string"
        }
      ],
      "stateMutability": "view",
      "type": "function"
    },
    {
      "inputs": [],
      "name": "owner",
      "outputs": [
        {
          "internalType": "address",
          "name": "",
          "type": "address"
        }
      ],
      "stateMutability": "view",
      "type": "function"
    },
    {
      "inputs": [
        {
          "internalType": "uint256",
          "name": "tokenId",
          "type": "uint256"
        }
      ],
      "name": "ownerOf",
      "outputs": [
        {
          "internalType": "address",
          "name": "",
          "type": "address"
        }
      ],
      "stateMutability": "view",
      "type": "function"
    },
    {
      "inputs": [],
      "name": "renounceOwnership",
      "outputs": [],
      "stateMutability": "nonpayable",
      "type": "function"
    },
    {
      "inputs": [
        {
          "internalType": "address",
          "name": "from",
          "type": "address"
        },
        {
          "internalType": "address",
          "name": "to",
          "type": "address"
        },
        {
          "internalType": "uint256",
          "name": "tokenId",
          "type": "uint256"
        }
      ],
      "name": "safeTransferFrom",
      "outputs": [],
      "stateMutability": "nonpayable",
      "type": "function"
    },
    {
      "inputs": [
        {
          "internalType": "address",
          "name": "from",
          "type": "address"
        },
        {
          "internalType": "address",
          "name": "to",
          "type": "address"
        },
        {
          "internalType": "uint256",
          "name": "tokenId",
          "type": "uint256"
        },
        {
          "internalType": "bytes",
          "name": "_data",
          "type": "bytes"
        }
      ],
      "name": "safeTransferFrom",
      "outputs": [],
      "stateMutability": "nonpayable",
      "type": "function"
    },
    {
      "inputs": [],
      "name": "saleIsActive",
      "outputs": [
        {
          "internalType": "bool",
          "name": "",
          "type": "bool"
        }
      ],
      "stateMutability": "view",
      "type": "function"
    },
    {
      "inputs": [
        {
          "internalType": "address",
          "name": "operator",
          "type": "address"
        },
        {
          "internalType": "bool",
          "name": "approved",
          "type": "bool"
        }
      ],
      "name": "setApprovalForAll",
      "outputs": [],
      "stateMutability": "nonpayable",
      "type": "function"
    },
    {
      "inputs": [
        {
          "internalType": "bytes4",
          "name": "interfaceId",
          "type": "bytes4"
        }
      ],
      "name": "supportsInterface",
      "outputs": [
        {
          "internalType": "bool",
          "name": "",
          "type": "bool"
        }
      ],
      "stateMutability": "view",
      "type": "function"
    },
    {
      "inputs": [],
      "name": "symbol",
      "outputs": [
        {
          "internalType": "string",
          "name": "",
          "type": "string"
        }
      ],
      "stateMutability": "view",
      "type": "function"
    },
    {
      "inputs": [
        {
          "internalType": "uint256",
          "name": "index",
          "type": "uint256"
        }
      ],
      "name": "tokenByIndex",
      "outputs": [
        {
          "internalType": "uint256",
          "name": "",
          "type": "uint256"
        }
      ],
      "stateMutability": "view",
      "type": "function"
    },
    {
      "inputs": [
        {
          "internalType": "address",
          "name": "owner",
          "type": "address"
        },
        {
          "internalType": "uint256",
          "name": "index",
          "type": "uint256"
        }
      ],
      "name": "tokenOfOwnerByIndex",
      "outputs": [
        {
          "internalType": "uint256",
          "name": "",
          "type": "uint256"
        }
      ],
      "stateMutability": "view",
      "type": "function"
    },
    {
      "inputs": [
        {
          "internalType": "uint256",
          "name": "tokenId",
          "type": "uint256"
        }
      ],
      "name": "tokenURI",
      "outputs": [
        {
          "internalType": "string",
          "name": "",
          "type": "string"
        }
      ],
      "stateMutability": "view",
      "type": "function"
    },
    {
      "inputs": [],
      "name": "totalNuts",
      "outputs": [
        {
          "internalType": "uint256",
          "name": "",
          "type": "uint256"
        }
      ],
      "stateMutability": "view",
      "type": "function"
    },
    {
      "inputs": [],
      "name": "totalSupply",
      "outputs": [
        {
          "internalType": "uint256",
          "name": "",
          "type": "uint256"
        }
      ],
      "stateMutability": "view",
      "type": "function"
    },
    {
      "inputs": [
        {
          "internalType": "address",
          "name": "from",
          "type": "address"
        },
        {
          "internalType": "address",
          "name": "to",
          "type": "address"
        },
        {
          "internalType": "uint256",
          "name": "tokenId",
          "type": "uint256"
        }
      ],
      "name": "transferFrom",
      "outputs": [],
      "stateMutability": "nonpayable",
      "type": "function"
    },
    {
      "inputs": [
        {
          "internalType": "address",
          "name": "newOwner",
          "type": "address"
        }
      ],
      "name": "transferOwnership",
      "outputs": [],
      "stateMutability": "nonpayable",
      "type": "function"
    },
    {
      "inputs": [
        {
          "internalType": "address",
          "name": "_newSystemAddress",
          "type": "address"
        }
      ],
      "name": "updateSystemAddress",
      "outputs": [],
      "stateMutability": "nonpayable",
      "type": "function"
    },
    {
      "inputs": [
        {
          "internalType": "address",
          "name": "_newTreasuryAddress",
          "type": "address"
        }
      ],
      "name": "updateTreasuryAddress",
      "outputs": [],
      "stateMutability": "nonpayable",
      "type": "function"
    },
    {
      "inputs": [],
      "name": "withdraw",
      "outputs": [],
      "stateMutability": "nonpayable",
      "type": "function"
    },
    {
      "inputs": [],
      "name": "flipSaleState",
      "outputs": [],
      "stateMutability": "nonpayable",
      "type": "function"
    },
    {
      "inputs": [
        {
          "internalType": "string",
          "name": "_cidPath",
          "type": "string"
        },
        {
          "internalType": "bytes",
          "name": "_signature",
          "type": "bytes"
        }
      ],
      "name": "createNut",
      "outputs": [],
      "stateMutability": "nonpayable",
      "type": "function"
    },
    {
      "inputs": [
        {
          "internalType": "uint256",
          "name": "_nutId",
          "type": "uint256"
        },
        {
          "internalType": "bytes32",
          "name": "_secretHash",
          "type": "bytes32"
        },
        {
          "internalType": "uint256",
          "name": "_matterContributed",
          "type": "uint256"
        },
        {
          "internalType": "string",
          "name": "_cidPath",
          "type": "string"
        },
        {
          "internalType": "bytes",
          "name": "_signature",
          "type": "bytes"
        }
      ],
      "name": "createSeed",
      "outputs": [],
      "stateMutability": "payable",
      "type": "function"
    },
    {
      "inputs": [
        {
          "internalType": "uint256",
          "name": "_nutId",
          "type": "uint256"
        },
        {
          "internalType": "bytes32",
          "name": "_secretHash",
          "type": "bytes32"
        },
        {
          "internalType": "uint256",
          "name": "_matterContributed",
          "type": "uint256"
        },
        {
          "internalType": "string",
          "name": "_cidPath",
          "type": "string"
        },
        {
          "internalType": "bytes",
          "name": "_signature",
          "type": "bytes"
        },
        {
          "internalType": "uint256",
          "name": "_drawRate",
          "type": "uint256"
        }
      ],
      "name": "createButter",
      "outputs": [],
      "stateMutability": "nonpayable",
      "type": "function"
    },
    {
      "inputs": [
        {
          "internalType": "uint256",
          "name": "_tokenId",
          "type": "uint256"
        },
        {
          "internalType": "string",
          "name": "_cidPath",
          "type": "string"
        },
        {
          "internalType": "bytes",
          "name": "_signature",
          "type": "bytes"
        }
      ],
      "name": "spreadButter",
      "outputs": [],
      "stateMutability": "nonpayable",
      "type": "function"
    }
  ],
  "bytecode": "0x60806040526305f5e1006002556000601260006101000a81548160ff0219169083151502179055503480156200003457600080fd5b5060405162005c9038038062005c9083398181016040528101906200005a9190620004a8565b848484848484848383816000806101000a81548173ffffffffffffffffffffffffffffffffffffffff021916908373ffffffffffffffffffffffffffffffffffffffff16021790555080600160006101000a81548173ffffffffffffffffffffffffffffffffffffffff021916908373ffffffffffffffffffffffffffffffffffffffff16021790555050508160049081620000f79190620007af565b508060059081620001099190620007af565b5050506200012c620001206200019a60201b60201c565b620001a260201b60201c565b6200013c6200026860201b60201c565b6011819055508260108190555080600160006101000a81548173ffffffffffffffffffffffffffffffffffffffff021916908373ffffffffffffffffffffffffffffffffffffffff1602179055505050505050505050505062000896565b600033905090565b6000600f60009054906101000a900473ffffffffffffffffffffffffffffffffffffffff16905081600f60006101000a81548173ffffffffffffffffffffffffffffffffffffffff021916908373ffffffffffffffffffffffffffffffffffffffff1602179055508173ffffffffffffffffffffffffffffffffffffffff168173ffffffffffffffffffffffffffffffffffffffff167f8be0079c531659141344cd1fd0a4f28419497f9722a3daafe3b4186f6b6457e060405160405180910390a35050565b6000600c80549050905090565b6000604051905090565b600080fd5b600080fd5b600080fd5b600080fd5b6000601f19601f8301169050919050565b7f4e487b7100000000000000000000000000000000000000000000000000000000600052604160045260246000fd5b620002de8262000293565b810181811067ffffffffffffffff821117156200030057620002ff620002a4565b5b80604052505050565b60006200031562000275565b9050620003238282620002d3565b919050565b600067ffffffffffffffff821115620003465762000345620002a4565b5b620003518262000293565b9050602081019050919050565b60005b838110156200037e57808201518184015260208101905062000361565b60008484015250505050565b6000620003a16200039b8462000328565b62000309565b905082815260208101848484011115620003c057620003bf6200028e565b5b620003cd8482856200035e565b509392505050565b600082601f830112620003ed57620003ec62000289565b5b8151620003ff8482602086016200038a565b91505092915050565b6000819050919050565b6200041d8162000408565b81146200042957600080fd5b50565b6000815190506200043d8162000412565b92915050565b600073ffffffffffffffffffffffffffffffffffffffff82169050919050565b6000620004708262000443565b9050919050565b620004828162000463565b81146200048e57600080fd5b50565b600081519050620004a28162000477565b92915050565b600080600080600060a08688031215620004c757620004c66200027f565b5b600086015167ffffffffffffffff811115620004e857620004e762000284565b5b620004f688828901620003d5565b955050602086015167ffffffffffffffff8111156200051a576200051962000284565b5b6200052888828901620003d5565b94505060406200053b888289016200042c565b93505060606200054e8882890162000491565b9250506080620005618882890162000491565b9150509295509295909350565b600081519050919050565b7f4e487b7100000000000000000000000000000000000000000000000000000000600052602260045260246000fd5b60006002820490506001821680620005c157607f821691505b602082108103620005d757620005d662000579565b5b50919050565b60008190508160005260206000209050919050565b60006020601f8301049050919050565b600082821b905092915050565b600060088302620006417fffffffffffffffffffffffffffffffffffffffffffffffffffffffffffffffff8262000602565b6200064d868362000602565b95508019841693508086168417925050509392505050565b6000819050919050565b6000620006906200068a620006848462000408565b62000665565b62000408565b9050919050565b6000819050919050565b620006ac836200066f565b620006c4620006bb8262000697565b8484546200060f565b825550505050565b600090565b620006db620006cc565b620006e8818484620006a1565b505050565b5b81811015620007105762000704600082620006d1565b600181019050620006ee565b5050565b601f8211156200075f576200072981620005dd565b6200073484620005f2565b8101602085101562000744578190505b6200075c6200075385620005f2565b830182620006ed565b50505b505050565b600082821c905092915050565b6000620007846000198460080262000764565b1980831691505092915050565b60006200079f838362000771565b9150826002028217905092915050565b620007ba826200056e565b67ffffffffffffffff811115620007d657620007d5620002a4565b5b620007e28254620005a8565b620007ef82828562000714565b600060209050601f83116001811462000827576000841562000812578287015190505b6200081e858262000791565b8655506200088e565b601f1984166200083786620005dd565b60005b8281101562000861578489015182556001820191506020850194506020810190506200083a565b868310156200088157848901516200087d601f89168262000771565b8355505b6001600288020188555050505b505050505050565b6153ea80620008a66000396000f3fe6080604052600436106101ee5760003560e01c806371ebbef41161010d578063a0e12efe116100a0578063c87b56dd1161006f578063c87b56dd146106a7578063e3501cb1146106e4578063e985e9c51461070d578063eb8d24441461074a578063f2fde38b14610775576101ee565b8063a0e12efe14610601578063a22cb4651461062a578063b88d4fde14610653578063b8a9736d1461067c576101ee565b80638da5cb5b116100dc5780638da5cb5b146105665780639202c1ec1461059157806395d89b41146105ba57806395f04d05146105e5576101ee565b806371ebbef4146104cb5780637a3a4a61146104f6578063841e4561146105215780638d48ef351461054a576101ee565b80632f745c59116101855780634f6ccce7116101545780634f6ccce7146103fd5780636352211e1461043a57806370a0823114610477578063715018a6146104b4576101ee565b80632f745c591461036957806334918dfd146103a65780633ccfd60b146103bd57806342842e0e146103d4576101ee565b8063095ea7b3116101c1578063095ea7b3146102c357806318160ddd146102ec5780632017c7c11461031757806323b872dd14610340576101ee565b806301ffc9a7146101f357806306fdde031461023057806307604b1a1461025b578063081812fc14610286575b600080fd5b3480156101ff57600080fd5b5061021a600480360381019061021591906132e9565b61079e565b6040516102279190613331565b60405180910390f35b34801561023c57600080fd5b506102456107b0565b60405161025291906133dc565b60405180910390f35b34801561026757600080fd5b50610270610842565b60405161027d919061343f565b60405180910390f35b34801561029257600080fd5b506102ad60048036038101906102a89190613490565b610868565b6040516102ba919061343f565b60405180910390f35b3480156102cf57600080fd5b506102ea60048036038101906102e591906134e9565b6108ed565b005b3480156102f857600080fd5b50610301610a04565b60405161030e9190613538565b60405180910390f35b34801561032357600080fd5b5061033e6004803603810190610339919061375f565b610a11565b005b34801561034c57600080fd5b5061036760048036038101906103629190613824565b610b2d565b005b34801561037557600080fd5b50610390600480360381019061038b91906134e9565b610b8d565b60405161039d9190613538565b60405180910390f35b3480156103b257600080fd5b506103bb610c32565b005b3480156103c957600080fd5b506103d2610cda565b005b3480156103e057600080fd5b506103fb60048036038101906103f69190613824565b610de8565b005b34801561040957600080fd5b50610424600480360381019061041f9190613490565b610e08565b6040516104319190613538565b60405180910390f35b34801561044657600080fd5b50610461600480360381019061045c9190613490565b610e79565b60405161046e919061343f565b60405180910390f35b34801561048357600080fd5b5061049e60048036038101906104999190613877565b610f2a565b6040516104ab9190613538565b60405180910390f35b3480156104c057600080fd5b506104c9610fe1565b005b3480156104d757600080fd5b506104e0611069565b6040516104ed9190613538565b60405180910390f35b34801561050257600080fd5b5061050b61106f565b6040516105189190613538565b60405180910390f35b34801561052d57600080fd5b5061054860048036038101906105439190613877565b611075565b005b610564600480360381019061055f91906138a4565b611147565b005b34801561057257600080fd5b5061057b6112ac565b604051610588919061343f565b60405180910390f35b34801561059d57600080fd5b506105b860048036038101906105b39190613957565b6112d6565b005b3480156105c657600080fd5b506105cf6112e6565b6040516105dc91906133dc565b60405180910390f35b6105ff60048036038101906105fa91906139e2565b611378565b005b34801561060d57600080fd5b5061062860048036038101906106239190613a2b565b6114ef565b005b34801561063657600080fd5b50610651600480360381019061064c9190613acf565b611515565b005b34801561065f57600080fd5b5061067a60048036038101906106759190613b0f565b61152b565b005b34801561068857600080fd5b5061069161158d565b60405161069e9190613538565b60405180910390f35b3480156106b357600080fd5b506106ce60048036038101906106c99190613490565b611593565b6040516106db91906133dc565b60405180910390f35b3480156106f057600080fd5b5061070b60048036038101906107069190613877565b6115a5565b005b34801561071957600080fd5b50610734600480360381019061072f9190613b92565b611676565b6040516107419190613331565b60405180910390f35b34801561075657600080fd5b5061075f61170a565b60405161076c9190613331565b60405180910390f35b34801561078157600080fd5b5061079c60048036038101906107979190613877565b61171d565b005b60006107a982611814565b9050919050565b6060600480546107bf90613c01565b80601f01602080910402602001604051908101604052809291908181526020018280546107eb90613c01565b80156108385780601f1061080d57610100808354040283529160200191610838565b820191906000526020600020905b81548152906001019060200180831161081b57829003601f168201915b5050505050905090565b600160009054906101000a900473ffffffffffffffffffffffffffffffffffffffff1681565b60006108738261188e565b6108b2576040517f08c379a00000000000000000000000000000000000000000000000000000000081526004016108a990613ca4565b60405180910390fd5b6008600083815260200190815260200160002060009054906101000a900473ffffffffffffffffffffffffffffffffffffffff169050919050565b60006108f882610e79565b90508073ffffffffffffffffffffffffffffffffffffffff168373ffffffffffffffffffffffffffffffffffffffff1603610968576040517f08c379a000000000000000000000000000000000000000000000000000000000815260040161095f90613d36565b60405180910390fd5b8073ffffffffffffffffffffffffffffffffffffffff166109876118fa565b73ffffffffffffffffffffffffffffffffffffffff1614806109b657506109b5816109b06118fa565b611676565b5b6109f5576040517f08c379a00000000000000000000000000000000000000000000000000000000081526004016109ec90613dc8565b60405180910390fd5b6109ff8383611902565b505050565b6000600c80549050905090565b610a1a86610e79565b73ffffffffffffffffffffffffffffffffffffffff163373ffffffffffffffffffffffffffffffffffffffff1614610a87576040517f08c379a0000000000000000000000000000000000000000000000000000000008152600401610a7e90613e34565b60405180910390fd5b600360009054906101000a900473ffffffffffffffffffffffffffffffffffffffff1673ffffffffffffffffffffffffffffffffffffffff166303f5de9d878684896040518563ffffffff1660e01b8152600401610ae89493929190613e63565b600060405180830381600087803b158015610b0257600080fd5b505af1158015610b16573d6000803e3d6000fd5b50505050610b258684846119bb565b505050505050565b610b3e610b386118fa565b82611a8f565b610b7d576040517f08c379a0000000000000000000000000000000000000000000000000000000008152600401610b7490613f1a565b60405180910390fd5b610b88838383611b6d565b505050565b6000610b9883610f2a565b8210610bd9576040517f08c379a0000000000000000000000000000000000000000000000000000000008152600401610bd090613fac565b60405180910390fd5b600a60008473ffffffffffffffffffffffffffffffffffffffff1673ffffffffffffffffffffffffffffffffffffffff168152602001908152602001600020600083815260200190815260200160002054905092915050565b610c3a6118fa565b73ffffffffffffffffffffffffffffffffffffffff16610c586112ac565b73ffffffffffffffffffffffffffffffffffffffff1614610cae576040517f08c379a0000000000000000000000000000000000000000000000000000000008152600401610ca590614018565b60405180910390fd5b601260009054906101000a900460ff1615601260006101000a81548160ff021916908315150217905550565b610ce26118fa565b73ffffffffffffffffffffffffffffffffffffffff16610d006112ac565b73ffffffffffffffffffffffffffffffffffffffff1614610d56576040517f08c379a0000000000000000000000000000000000000000000000000000000008152600401610d4d90614018565b60405180910390fd5b600047905060004711610d9e576040517f08c379a0000000000000000000000000000000000000000000000000000000008152600401610d9590614084565b60405180910390fd5b3373ffffffffffffffffffffffffffffffffffffffff166108fc829081150290604051600060405180830381858888f19350505050158015610de4573d6000803e3d6000fd5b5050565b610e038383836040518060200160405280600081525061152b565b505050565b6000610e12610a04565b8210610e53576040517f08c379a0000000000000000000000000000000000000000000000000000000008152600401610e4a90614116565b60405180910390fd5b600c8281548110610e6757610e66614136565b5b90600052602060002001549050919050565b6000806006600084815260200190815260200160002060009054906101000a900473ffffffffffffffffffffffffffffffffffffffff169050600073ffffffffffffffffffffffffffffffffffffffff168173ffffffffffffffffffffffffffffffffffffffff1603610f21576040517f08c379a0000000000000000000000000000000000000000000000000000000008152600401610f18906141d7565b60405180910390fd5b80915050919050565b60008073ffffffffffffffffffffffffffffffffffffffff168273ffffffffffffffffffffffffffffffffffffffff1603610f9a576040517f08c379a0000000000000000000000000000000000000000000000000000000008152600401610f9190614269565b60405180910390fd5b600760008373ffffffffffffffffffffffffffffffffffffffff1673ffffffffffffffffffffffffffffffffffffffff168152602001908152602001600020549050919050565b610fe96118fa565b73ffffffffffffffffffffffffffffffffffffffff166110076112ac565b73ffffffffffffffffffffffffffffffffffffffff161461105d576040517f08c379a000000000000000000000000000000000000000000000000000000000815260040161105490614018565b60405180910390fd5b6110676000611dd3565b565b60105481565b60115481565b60008054906101000a900473ffffffffffffffffffffffffffffffffffffffff1673ffffffffffffffffffffffffffffffffffffffff163373ffffffffffffffffffffffffffffffffffffffff1614611103576040517f08c379a00000000000000000000000000000000000000000000000000000000081526004016110fa906142d5565b60405180910390fd5b80600160006101000a81548173ffffffffffffffffffffffffffffffffffffffff021916908373ffffffffffffffffffffffffffffffffffffffff16021790555050565b61115085610e79565b73ffffffffffffffffffffffffffffffffffffffff163373ffffffffffffffffffffffffffffffffffffffff16146111bd576040517f08c379a00000000000000000000000000000000000000000000000000000000081526004016111b490613e34565b60405180910390fd5b6010546111c8610a04565b1015611209576040517f08c379a000000000000000000000000000000000000000000000000000000000815260040161120090614341565b60405180910390fd5b600360009054906101000a900473ffffffffffffffffffffffffffffffffffffffff1673ffffffffffffffffffffffffffffffffffffffff1663b876ec0a8686866040518463ffffffff1660e01b815260040161126893929190614361565b600060405180830381600087803b15801561128257600080fd5b505af1158015611296573d6000803e3d6000fd5b505050506112a58583836119bb565b5050505050565b6000600f60009054906101000a900473ffffffffffffffffffffffffffffffffffffffff16905090565b6112e18383836119bb565b505050565b6060600580546112f590613c01565b80601f016020809104026020016040519081016040528092919081815260200182805461132190613c01565b801561136e5780601f106113435761010080835404028352916020019161136e565b820191906000526020600020905b81548152906001019060200180831161135157829003601f168201915b5050505050905090565b601260009054906101000a900460ff166113c7576040517f08c379a00000000000000000000000000000000000000000000000000000000081526004016113be906143e4565b60405180910390fd5b6010546113d2610a04565b10611412576040517f08c379a000000000000000000000000000000000000000000000000000000000815260040161140990614450565b60405180910390fd5b611445600160009054906101000a900473ffffffffffffffffffffffffffffffffffffffff16611440610a04565b611e99565b611456611450610a04565b82611eb7565b600360009054906101000a900473ffffffffffffffffffffffffffffffffffffffff1673ffffffffffffffffffffffffffffffffffffffff16631c85949c3361149d610a04565b6040518363ffffffff1660e01b81526004016114ba929190614470565b600060405180830381600087803b1580156114d457600080fd5b505af11580156114e8573d6000803e3d6000fd5b5050505050565b60006114f9610a04565b90506115053382611e99565b6115108184846119bb565b505050565b6115276115206118fa565b8383611f24565b5050565b61153c6115366118fa565b83611a8f565b61157b576040517f08c379a000000000000000000000000000000000000000000000000000000000815260040161157290613f1a565b60405180910390fd5b61158784848484612090565b50505050565b60025481565b606061159e826120ec565b9050919050565b60008054906101000a900473ffffffffffffffffffffffffffffffffffffffff1673ffffffffffffffffffffffffffffffffffffffff163373ffffffffffffffffffffffffffffffffffffffff1614611633576040517f08c379a000000000000000000000000000000000000000000000000000000000815260040161162a906142d5565b60405180910390fd5b806000806101000a81548173ffffffffffffffffffffffffffffffffffffffff021916908373ffffffffffffffffffffffffffffffffffffffff16021790555050565b6000600960008473ffffffffffffffffffffffffffffffffffffffff1673ffffffffffffffffffffffffffffffffffffffff16815260200190815260200160002060008373ffffffffffffffffffffffffffffffffffffffff1673ffffffffffffffffffffffffffffffffffffffff16815260200190815260200160002060009054906101000a900460ff16905092915050565b601260009054906101000a900460ff1681565b6117256118fa565b73ffffffffffffffffffffffffffffffffffffffff166117436112ac565b73ffffffffffffffffffffffffffffffffffffffff1614611799576040517f08c379a000000000000000000000000000000000000000000000000000000000815260040161179090614018565b60405180910390fd5b600073ffffffffffffffffffffffffffffffffffffffff168173ffffffffffffffffffffffffffffffffffffffff1603611808576040517f08c379a00000000000000000000000000000000000000000000000000000000081526004016117ff9061450b565b60405180910390fd5b61181181611dd3565b50565b60007f780e9d63000000000000000000000000000000000000000000000000000000007bffffffffffffffffffffffffffffffffffffffffffffffffffffffff1916827bffffffffffffffffffffffffffffffffffffffffffffffffffffffff1916148061188757506118868261223d565b5b9050919050565b60008073ffffffffffffffffffffffffffffffffffffffff166006600084815260200190815260200160002060009054906101000a900473ffffffffffffffffffffffffffffffffffffffff1673ffffffffffffffffffffffffffffffffffffffff1614159050919050565b600033905090565b816008600083815260200190815260200160002060006101000a81548173ffffffffffffffffffffffffffffffffffffffff021916908373ffffffffffffffffffffffffffffffffffffffff160217905550808273ffffffffffffffffffffffffffffffffffffffff1661197583610e79565b73ffffffffffffffffffffffffffffffffffffffff167f8c5be1e5ebec7d5bd14f71427d1e84f3dd0314c0f7b2291e5b200ac8c7c3b92560405160405180910390a45050565b6119cc6119c66118fa565b84611a8f565b611a0b576040517f08c379a0000000000000000000000000000000000000000000000000000000008152600401611a0290614577565b60405180910390fd5b600082604051602001611a1e91906145d3565b604051602081830303815290604052805190602001209050611a40818361231f565b611a7f576040517f08c379a0000000000000000000000000000000000000000000000000000000008152600401611a7690614636565b60405180910390fd5b611a898484611eb7565b50505050565b6000611a9a8261188e565b611ad9576040517f08c379a0000000000000000000000000000000000000000000000000000000008152600401611ad0906146c8565b60405180910390fd5b6000611ae483610e79565b90508073ffffffffffffffffffffffffffffffffffffffff168473ffffffffffffffffffffffffffffffffffffffff161480611b265750611b258185611676565b5b80611b6457508373ffffffffffffffffffffffffffffffffffffffff16611b4c84610868565b73ffffffffffffffffffffffffffffffffffffffff16145b91505092915050565b8273ffffffffffffffffffffffffffffffffffffffff16611b8d82610e79565b73ffffffffffffffffffffffffffffffffffffffff1614611be3576040517f08c379a0000000000000000000000000000000000000000000000000000000008152600401611bda9061475a565b60405180910390fd5b600073ffffffffffffffffffffffffffffffffffffffff168273ffffffffffffffffffffffffffffffffffffffff1603611c52576040517f08c379a0000000000000000000000000000000000000000000000000000000008152600401611c49906147ec565b60405180910390fd5b611c5d8383836123c3565b611c68600082611902565b6001600760008573ffffffffffffffffffffffffffffffffffffffff1673ffffffffffffffffffffffffffffffffffffffff1681526020019081526020016000206000828254611cb8919061483b565b925050819055506001600760008473ffffffffffffffffffffffffffffffffffffffff1673ffffffffffffffffffffffffffffffffffffffff1681526020019081526020016000206000828254611d0f919061486f565b92505081905550816006600083815260200190815260200160002060006101000a81548173ffffffffffffffffffffffffffffffffffffffff021916908373ffffffffffffffffffffffffffffffffffffffff160217905550808273ffffffffffffffffffffffffffffffffffffffff168473ffffffffffffffffffffffffffffffffffffffff167fddf252ad1be2c89b69c2b068fc378daa952ba7f163c4a11628f55a4df523b3ef60405160405180910390a4611dce8383836123d3565b505050565b6000600f60009054906101000a900473ffffffffffffffffffffffffffffffffffffffff16905081600f60006101000a81548173ffffffffffffffffffffffffffffffffffffffff021916908373ffffffffffffffffffffffffffffffffffffffff1602179055508173ffffffffffffffffffffffffffffffffffffffff168173ffffffffffffffffffffffffffffffffffffffff167f8be0079c531659141344cd1fd0a4f28419497f9722a3daafe3b4186f6b6457e060405160405180910390a35050565b611eb38282604051806020016040528060008152506123d8565b5050565b611ec08261188e565b611eff576040517f08c379a0000000000000000000000000000000000000000000000000000000008152600401611ef690614915565b60405180910390fd5b80600e60008481526020019081526020016000209081611f1f9190614ae1565b505050565b8173ffffffffffffffffffffffffffffffffffffffff168373ffffffffffffffffffffffffffffffffffffffff1603611f92576040517f08c379a0000000000000000000000000000000000000000000000000000000008152600401611f8990614bff565b60405180910390fd5b80600960008573ffffffffffffffffffffffffffffffffffffffff1673ffffffffffffffffffffffffffffffffffffffff16815260200190815260200160002060008473ffffffffffffffffffffffffffffffffffffffff1673ffffffffffffffffffffffffffffffffffffffff16815260200190815260200160002060006101000a81548160ff0219169083151502179055508173ffffffffffffffffffffffffffffffffffffffff168373ffffffffffffffffffffffffffffffffffffffff167f17307eab39ab6107e8899845ad3d59bd9653f200f220920489ca2b5937696c31836040516120839190613331565b60405180910390a3505050565b61209b848484611b6d565b6120a784848484612433565b6120e6576040517f08c379a00000000000000000000000000000000000000000000000000000000081526004016120dd90614c91565b60405180910390fd5b50505050565b60606120f78261188e565b612136576040517f08c379a000000000000000000000000000000000000000000000000000000000815260040161212d90614d23565b60405180910390fd5b6000600e6000848152602001908152602001600020805461215690613c01565b80601f016020809104026020016040519081016040528092919081815260200182805461218290613c01565b80156121cf5780601f106121a4576101008083540402835291602001916121cf565b820191906000526020600020905b8154815290600101906020018083116121b257829003601f168201915b5050505050905060006121e06125ba565b905060008151036121f5578192505050612238565b60008251111561222a578082604051602001612212929190614d43565b60405160208183030381529060405292505050612238565b612233846125f7565b925050505b919050565b60007f80ac58cd000000000000000000000000000000000000000000000000000000007bffffffffffffffffffffffffffffffffffffffffffffffffffffffff1916827bffffffffffffffffffffffffffffffffffffffffffffffffffffffff1916148061230857507f5b5e139f000000000000000000000000000000000000000000000000000000007bffffffffffffffffffffffffffffffffffffffffffffffffffffffff1916827bffffffffffffffffffffffffffffffffffffffffffffffffffffffff1916145b8061231857506123178261269e565b5b9050919050565b60008060009054906101000a900473ffffffffffffffffffffffffffffffffffffffff1673ffffffffffffffffffffffffffffffffffffffff166123638484612708565b73ffffffffffffffffffffffffffffffffffffffff16146123b9576040517f08c379a00000000000000000000000000000000000000000000000000000000081526004016123b090614db3565b60405180910390fd5b6001905092915050565b6123ce838383612725565b505050565b505050565b6123e28383612837565b6123ef6000848484612433565b61242e576040517f08c379a000000000000000000000000000000000000000000000000000000000815260040161242590614c91565b60405180910390fd5b505050565b60006124548473ffffffffffffffffffffffffffffffffffffffff16612a10565b156125ad578373ffffffffffffffffffffffffffffffffffffffff1663150b7a0261247d6118fa565b8786866040518563ffffffff1660e01b815260040161249f9493929190614e28565b6020604051808303816000875af19250505080156124db57506040513d601f19601f820116820180604052508101906124d89190614e89565b60015b61255d573d806000811461250b576040519150601f19603f3d011682016040523d82523d6000602084013e612510565b606091505b506000815103612555576040517f08c379a000000000000000000000000000000000000000000000000000000000815260040161254c90614c91565b60405180910390fd5b805181602001fd5b63150b7a0260e01b7bffffffffffffffffffffffffffffffffffffffffffffffffffffffff1916817bffffffffffffffffffffffffffffffffffffffffffffffffffffffff1916149150506125b2565b600190505b949350505050565b60606040518060400160405280601581526020017f68747470733a2f2f697066732e696f2f697066732f0000000000000000000000815250905090565b60606126028261188e565b612641576040517f08c379a000000000000000000000000000000000000000000000000000000000815260040161263890614f28565b60405180910390fd5b600061264b6125ba565b9050600081511161266b5760405180602001604052806000815250612696565b8061267584612a33565b604051602001612686929190614d43565b6040516020818303038152906040525b915050919050565b60007f01ffc9a7000000000000000000000000000000000000000000000000000000007bffffffffffffffffffffffffffffffffffffffffffffffffffffffff1916827bffffffffffffffffffffffffffffffffffffffffffffffffffffffff1916149050919050565b600061271d8284612b9390919063ffffffff16565b905092915050565b612730838383612bba565b600073ffffffffffffffffffffffffffffffffffffffff168373ffffffffffffffffffffffffffffffffffffffff16036127725761276d81612bbf565b6127b1565b8173ffffffffffffffffffffffffffffffffffffffff168373ffffffffffffffffffffffffffffffffffffffff16146127b0576127af8382612c08565b5b5b600073ffffffffffffffffffffffffffffffffffffffff168273ffffffffffffffffffffffffffffffffffffffff16036127f3576127ee81612d75565b612832565b8273ffffffffffffffffffffffffffffffffffffffff168273ffffffffffffffffffffffffffffffffffffffff1614612831576128308282612e46565b5b5b505050565b600073ffffffffffffffffffffffffffffffffffffffff168273ffffffffffffffffffffffffffffffffffffffff16036128a6576040517f08c379a000000000000000000000000000000000000000000000000000000000815260040161289d90614f94565b60405180910390fd5b6128af8161188e565b156128ef576040517f08c379a00000000000000000000000000000000000000000000000000000000081526004016128e690615000565b60405180910390fd5b6128fb600083836123c3565b6001600760008473ffffffffffffffffffffffffffffffffffffffff1673ffffffffffffffffffffffffffffffffffffffff168152602001908152602001600020600082825461294b919061486f565b92505081905550816006600083815260200190815260200160002060006101000a81548173ffffffffffffffffffffffffffffffffffffffff021916908373ffffffffffffffffffffffffffffffffffffffff160217905550808273ffffffffffffffffffffffffffffffffffffffff16600073ffffffffffffffffffffffffffffffffffffffff167fddf252ad1be2c89b69c2b068fc378daa952ba7f163c4a11628f55a4df523b3ef60405160405180910390a4612a0c600083836123d3565b5050565b6000808273ffffffffffffffffffffffffffffffffffffffff163b119050919050565b606060008203612a7a576040518060400160405280600181526020017f30000000000000000000000000000000000000000000000000000000000000008152509050612b8e565b600082905060005b60008214612aac578080612a9590615020565b915050600a82612aa59190615097565b9150612a82565b60008167ffffffffffffffff811115612ac857612ac7613593565b5b6040519080825280601f01601f191660200182016040528015612afa5781602001600182028036833780820191505090505b5090505b60008514612b8757600182612b13919061483b565b9150600a85612b2291906150c8565b6030612b2e919061486f565b60f81b818381518110612b4457612b43614136565b5b60200101907effffffffffffffffffffffffffffffffffffffffffffffffffffffffffffff1916908160001a905350600a85612b809190615097565b9450612afe565b8093505050505b919050565b6000806000612ba28585612ec5565b91509150612baf81612f46565b819250505092915050565b505050565b600c80549050600d600083815260200190815260200160002081905550600c81908060018154018082558091505060019003906000526020600020016000909190919091505550565b60006001612c1584610f2a565b612c1f919061483b565b90506000600b6000848152602001908152602001600020549050818114612d04576000600a60008673ffffffffffffffffffffffffffffffffffffffff1673ffffffffffffffffffffffffffffffffffffffff168152602001908152602001600020600084815260200190815260200160002054905080600a60008773ffffffffffffffffffffffffffffffffffffffff1673ffffffffffffffffffffffffffffffffffffffff16815260200190815260200160002060008481526020019081526020016000208190555081600b600083815260200190815260200160002081905550505b600b600084815260200190815260200160002060009055600a60008573ffffffffffffffffffffffffffffffffffffffff1673ffffffffffffffffffffffffffffffffffffffff16815260200190815260200160002060008381526020019081526020016000206000905550505050565b60006001600c80549050612d89919061483b565b90506000600d60008481526020019081526020016000205490506000600c8381548110612db957612db8614136565b5b9060005260206000200154905080600c8381548110612ddb57612dda614136565b5b906000526020600020018190555081600d600083815260200190815260200160002081905550600d600085815260200190815260200160002060009055600c805480612e2a57612e296150f9565b5b6001900381819060005260206000200160009055905550505050565b6000612e5183610f2a565b905081600a60008573ffffffffffffffffffffffffffffffffffffffff1673ffffffffffffffffffffffffffffffffffffffff16815260200190815260200160002060008381526020019081526020016000208190555080600b600084815260200190815260200160002081905550505050565b6000806041835103612f065760008060006020860151925060408601519150606086015160001a9050612efa87828585613112565b94509450505050612f3f565b6040835103612f36576000806020850151915060408501519050612f2b86838361321e565b935093505050612f3f565b60006002915091505b9250929050565b60006004811115612f5a57612f59615128565b5b816004811115612f6d57612f6c615128565b5b031561310f5760016004811115612f8757612f86615128565b5b816004811115612f9a57612f99615128565b5b03612fda576040517f08c379a0000000000000000000000000000000000000000000000000000000008152600401612fd1906151a3565b60405180910390fd5b60026004811115612fee57612fed615128565b5b81600481111561300157613000615128565b5b03613041576040517f08c379a00000000000000000000000000000000000000000000000000000000081526004016130389061520f565b60405180910390fd5b6003600481111561305557613054615128565b5b81600481111561306857613067615128565b5b036130a8576040517f08c379a000000000000000000000000000000000000000000000000000000000815260040161309f906152a1565b60405180910390fd5b6004808111156130bb576130ba615128565b5b8160048111156130ce576130cd615128565b5b0361310e576040517f08c379a000000000000000000000000000000000000000000000000000000000815260040161310590615333565b60405180910390fd5b5b50565b6000807f7fffffffffffffffffffffffffffffff5d576e7357a4501ddfe92f46681b20a08360001c111561314d576000600391509150613215565b601b8560ff16141580156131655750601c8560ff1614155b15613177576000600491509150613215565b60006001878787876040516000815260200160405260405161319c949392919061536f565b6020604051602081039080840390855afa1580156131be573d6000803e3d6000fd5b505050602060405103519050600073ffffffffffffffffffffffffffffffffffffffff168173ffffffffffffffffffffffffffffffffffffffff160361320c57600060019250925050613215565b80600092509250505b94509492505050565b60008060007f7fffffffffffffffffffffffffffffffffffffffffffffffffffffffffffffff60001b841690506000601b60ff8660001c901c613261919061486f565b905061326f87828885613112565b935093505050935093915050565b6000604051905090565b600080fd5b600080fd5b60007fffffffff0000000000000000000000000000000000000000000000000000000082169050919050565b6132c681613291565b81146132d157600080fd5b50565b6000813590506132e3816132bd565b92915050565b6000602082840312156132ff576132fe613287565b5b600061330d848285016132d4565b91505092915050565b60008115159050919050565b61332b81613316565b82525050565b60006020820190506133466000830184613322565b92915050565b600081519050919050565b600082825260208201905092915050565b60005b8381101561338657808201518184015260208101905061336b565b60008484015250505050565b6000601f19601f8301169050919050565b60006133ae8261334c565b6133b88185613357565b93506133c8818560208601613368565b6133d181613392565b840191505092915050565b600060208201905081810360008301526133f681846133a3565b905092915050565b600073ffffffffffffffffffffffffffffffffffffffff82169050919050565b6000613429826133fe565b9050919050565b6134398161341e565b82525050565b60006020820190506134546000830184613430565b92915050565b6000819050919050565b61346d8161345a565b811461347857600080fd5b50565b60008135905061348a81613464565b92915050565b6000602082840312156134a6576134a5613287565b5b60006134b48482850161347b565b91505092915050565b6134c68161341e565b81146134d157600080fd5b50565b6000813590506134e3816134bd565b92915050565b60008060408385031215613500576134ff613287565b5b600061350e858286016134d4565b925050602061351f8582860161347b565b9150509250929050565b6135328161345a565b82525050565b600060208201905061354d6000830184613529565b92915050565b6000819050919050565b61356681613553565b811461357157600080fd5b50565b6000813590506135838161355d565b92915050565b600080fd5b600080fd5b7f4e487b7100000000000000000000000000000000000000000000000000000000600052604160045260246000fd5b6135cb82613392565b810181811067ffffffffffffffff821117156135ea576135e9613593565b5b80604052505050565b60006135fd61327d565b905061360982826135c2565b919050565b600067ffffffffffffffff82111561362957613628613593565b5b61363282613392565b9050602081019050919050565b82818337600083830152505050565b600061366161365c8461360e565b6135f3565b90508281526020810184848401111561367d5761367c61358e565b5b61368884828561363f565b509392505050565b600082601f8301126136a5576136a4613589565b5b81356136b584826020860161364e565b91505092915050565b600067ffffffffffffffff8211156136d9576136d8613593565b5b6136e282613392565b9050602081019050919050565b60006137026136fd846136be565b6135f3565b90508281526020810184848401111561371e5761371d61358e565b5b61372984828561363f565b509392505050565b600082601f83011261374657613745613589565b5b81356137568482602086016136ef565b91505092915050565b60008060008060008060c0878903121561377c5761377b613287565b5b600061378a89828a0161347b565b965050602061379b89828a01613574565b95505060406137ac89828a0161347b565b945050606087013567ffffffffffffffff8111156137cd576137cc61328c565b5b6137d989828a01613690565b935050608087013567ffffffffffffffff8111156137fa576137f961328c565b5b61380689828a01613731565b92505060a061381789828a0161347b565b9150509295509295509295565b60008060006060848603121561383d5761383c613287565b5b600061384b868287016134d4565b935050602061385c868287016134d4565b925050604061386d8682870161347b565b9150509250925092565b60006020828403121561388d5761388c613287565b5b600061389b848285016134d4565b91505092915050565b600080600080600060a086880312156138c0576138bf613287565b5b60006138ce8882890161347b565b95505060206138df88828901613574565b94505060406138f08882890161347b565b935050606086013567ffffffffffffffff8111156139115761391061328c565b5b61391d88828901613690565b925050608086013567ffffffffffffffff81111561393e5761393d61328c565b5b61394a88828901613731565b9150509295509295909350565b6000806000606084860312156139705761396f613287565b5b600061397e8682870161347b565b935050602084013567ffffffffffffffff81111561399f5761399e61328c565b5b6139ab86828701613690565b925050604084013567ffffffffffffffff8111156139cc576139cb61328c565b5b6139d886828701613731565b9150509250925092565b6000602082840312156139f8576139f7613287565b5b600082013567ffffffffffffffff811115613a1657613a1561328c565b5b613a2284828501613690565b91505092915050565b60008060408385031215613a4257613a41613287565b5b600083013567ffffffffffffffff811115613a6057613a5f61328c565b5b613a6c85828601613690565b925050602083013567ffffffffffffffff811115613a8d57613a8c61328c565b5b613a9985828601613731565b9150509250929050565b613aac81613316565b8114613ab757600080fd5b50565b600081359050613ac981613aa3565b92915050565b60008060408385031215613ae657613ae5613287565b5b6000613af4858286016134d4565b9250506020613b0585828601613aba565b9150509250929050565b60008060008060808587031215613b2957613b28613287565b5b6000613b37878288016134d4565b9450506020613b48878288016134d4565b9350506040613b598782880161347b565b925050606085013567ffffffffffffffff811115613b7a57613b7961328c565b5b613b8687828801613731565b91505092959194509250565b60008060408385031215613ba957613ba8613287565b5b6000613bb7858286016134d4565b9250506020613bc8858286016134d4565b9150509250929050565b7f4e487b7100000000000000000000000000000000000000000000000000000000600052602260045260246000fd5b60006002820490506001821680613c1957607f821691505b602082108103613c2c57613c2b613bd2565b5b50919050565b7f4552433732313a20617070726f76656420717565727920666f72206e6f6e657860008201527f697374656e7420746f6b656e0000000000000000000000000000000000000000602082015250565b6000613c8e602c83613357565b9150613c9982613c32565b604082019050919050565b60006020820190508181036000830152613cbd81613c81565b9050919050565b7f4552433732313a20617070726f76616c20746f2063757272656e74206f776e6560008201527f7200000000000000000000000000000000000000000000000000000000000000602082015250565b6000613d20602183613357565b9150613d2b82613cc4565b604082019050919050565b60006020820190508181036000830152613d4f81613d13565b9050919050565b7f4552433732313a20617070726f76652063616c6c6572206973206e6f74206f7760008201527f6e6572206e6f7220617070726f76656420666f7220616c6c0000000000000000602082015250565b6000613db2603883613357565b9150613dbd82613d56565b604082019050919050565b60006020820190508181036000830152613de181613da5565b9050919050565b7f43616c6c6572206973206e6f74206f776e6572206f66206e7574000000000000600082015250565b6000613e1e601a83613357565b9150613e2982613de8565b602082019050919050565b60006020820190508181036000830152613e4d81613e11565b9050919050565b613e5d81613553565b82525050565b6000608082019050613e786000830187613529565b613e856020830186613529565b613e926040830185613529565b613e9f6060830184613e54565b95945050505050565b7f4552433732313a207472616e736665722063616c6c6572206973206e6f74206f60008201527f776e6572206e6f7220617070726f766564000000000000000000000000000000602082015250565b6000613f04603183613357565b9150613f0f82613ea8565b604082019050919050565b60006020820190508181036000830152613f3381613ef7565b9050919050565b7f455243373231456e756d657261626c653a206f776e657220696e646578206f7560008201527f74206f6620626f756e6473000000000000000000000000000000000000000000602082015250565b6000613f96602b83613357565b9150613fa182613f3a565b604082019050919050565b60006020820190508181036000830152613fc581613f89565b9050919050565b7f4f776e61626c653a2063616c6c6572206973206e6f7420746865206f776e6572600082015250565b6000614002602083613357565b915061400d82613fcc565b602082019050919050565b6000602082019050818103600083015261403181613ff5565b9050919050565b7f4e6f2062616c616e636520746f20776974686472617700000000000000000000600082015250565b600061406e601683613357565b915061407982614038565b602082019050919050565b6000602082019050818103600083015261409d81614061565b9050919050565b7f455243373231456e756d657261626c653a20676c6f62616c20696e646578206f60008201527f7574206f6620626f756e64730000000000000000000000000000000000000000602082015250565b6000614100602c83613357565b915061410b826140a4565b604082019050919050565b6000602082019050818103600083015261412f816140f3565b9050919050565b7f4e487b7100000000000000000000000000000000000000000000000000000000600052603260045260246000fd5b7f4552433732313a206f776e657220717565727920666f72206e6f6e657869737460008201527f656e7420746f6b656e0000000000000000000000000000000000000000000000602082015250565b60006141c1602983613357565b91506141cc82614165565b604082019050919050565b600060208201905081810360008301526141f0816141b4565b9050919050565b7f4552433732313a2062616c616e636520717565727920666f7220746865207a6560008201527f726f206164647265737300000000000000000000000000000000000000000000602082015250565b6000614253602a83613357565b915061425e826141f7565b604082019050919050565b6000602082019050818103600083015261428281614246565b9050919050565b7f43616c6c6572206973206e6f742073797374656d000000000000000000000000600082015250565b60006142bf601483613357565b91506142ca82614289565b602082019050919050565b600060208201905081810360008301526142ee816142b2565b9050919050565b7f4e757473207374696c6c2065786973742066726f6d206372656174696f6e0000600082015250565b600061432b601e83613357565b9150614336826142f5565b602082019050919050565b6000602082019050818103600083015261435a8161431e565b9050919050565b60006060820190506143766000830186613529565b6143836020830185613e54565b6143906040830184613529565b949350505050565b7f53616c65206d7573742062652061637469766500000000000000000000000000600082015250565b60006143ce601383613357565b91506143d982614398565b602082019050919050565b600060208201905081810360008301526143fd816143c1565b9050919050565b7f45786365656420696e697469616c20737570706c79206f66206e757473000000600082015250565b600061443a601d83613357565b915061444582614404565b602082019050919050565b600060208201905081810360008301526144698161442d565b9050919050565b60006040820190506144856000830185613430565b6144926020830184613529565b9392505050565b7f4f776e61626c653a206e6577206f776e657220697320746865207a65726f206160008201527f6464726573730000000000000000000000000000000000000000000000000000602082015250565b60006144f5602683613357565b915061450082614499565b604082019050919050565b60006020820190508181036000830152614524816144e8565b9050919050565b7f43616c6c6572206973206e6f74206f776e6572206e6f7220617070726f766564600082015250565b6000614561602083613357565b915061456c8261452b565b602082019050919050565b6000602082019050818103600083015261459081614554565b9050919050565b600081905092915050565b60006145ad8261334c565b6145b78185614597565b93506145c7818560208601613368565b80840191505092915050565b60006145df82846145a2565b915081905092915050565b7f4461746120646f6573206e6f74206d61746368207369676e6174757265000000600082015250565b6000614620601d83613357565b915061462b826145ea565b602082019050919050565b6000602082019050818103600083015261464f81614613565b9050919050565b7f4552433732313a206f70657261746f7220717565727920666f72206e6f6e657860008201527f697374656e7420746f6b656e0000000000000000000000000000000000000000602082015250565b60006146b2602c83613357565b91506146bd82614656565b604082019050919050565b600060208201905081810360008301526146e1816146a5565b9050919050565b7f4552433732313a207472616e736665722066726f6d20696e636f72726563742060008201527f6f776e6572000000000000000000000000000000000000000000000000000000602082015250565b6000614744602583613357565b915061474f826146e8565b604082019050919050565b6000602082019050818103600083015261477381614737565b9050919050565b7f4552433732313a207472616e7366657220746f20746865207a65726f2061646460008201527f7265737300000000000000000000000000000000000000000000000000000000602082015250565b60006147d6602483613357565b91506147e18261477a565b604082019050919050565b60006020820190508181036000830152614805816147c9565b9050919050565b7f4e487b7100000000000000000000000000000000000000000000000000000000600052601160045260246000fd5b60006148468261345a565b91506148518361345a565b92508282039050818111156148695761486861480c565b5b92915050565b600061487a8261345a565b91506148858361345a565b925082820190508082111561489d5761489c61480c565b5b92915050565b7f45524337323155524953746f726167653a2055524920736574206f66206e6f6e60008201527f6578697374656e7420746f6b656e000000000000000000000000000000000000602082015250565b60006148ff602e83613357565b915061490a826148a3565b604082019050919050565b6000602082019050818103600083015261492e816148f2565b9050919050565b60008190508160005260206000209050919050565b60006020601f8301049050919050565b600082821b905092915050565b6000600883026149977fffffffffffffffffffffffffffffffffffffffffffffffffffffffffffffffff8261495a565b6149a1868361495a565b95508019841693508086168417925050509392505050565b6000819050919050565b60006149de6149d96149d48461345a565b6149b9565b61345a565b9050919050565b6000819050919050565b6149f8836149c3565b614a0c614a04826149e5565b848454614967565b825550505050565b600090565b614a21614a14565b614a2c8184846149ef565b505050565b5b81811015614a5057614a45600082614a19565b600181019050614a32565b5050565b601f821115614a9557614a6681614935565b614a6f8461494a565b81016020851015614a7e578190505b614a92614a8a8561494a565b830182614a31565b50505b505050565b600082821c905092915050565b6000614ab860001984600802614a9a565b1980831691505092915050565b6000614ad18383614aa7565b9150826002028217905092915050565b614aea8261334c565b67ffffffffffffffff811115614b0357614b02613593565b5b614b0d8254613c01565b614b18828285614a54565b600060209050601f831160018114614b4b5760008415614b39578287015190505b614b438582614ac5565b865550614bab565b601f198416614b5986614935565b60005b82811015614b8157848901518255600182019150602085019450602081019050614b5c565b86831015614b9e5784890151614b9a601f891682614aa7565b8355505b6001600288020188555050505b505050505050565b7f4552433732313a20617070726f766520746f2063616c6c657200000000000000600082015250565b6000614be9601983613357565b9150614bf482614bb3565b602082019050919050565b60006020820190508181036000830152614c1881614bdc565b9050919050565b7f4552433732313a207472616e7366657220746f206e6f6e20455243373231526560008201527f63656976657220696d706c656d656e7465720000000000000000000000000000602082015250565b6000614c7b603283613357565b9150614c8682614c1f565b604082019050919050565b60006020820190508181036000830152614caa81614c6e565b9050919050565b7f45524337323155524953746f726167653a2055524920717565727920666f722060008201527f6e6f6e6578697374656e7420746f6b656e000000000000000000000000000000602082015250565b6000614d0d603183613357565b9150614d1882614cb1565b604082019050919050565b60006020820190508181036000830152614d3c81614d00565b9050919050565b6000614d4f82856145a2565b9150614d5b82846145a2565b91508190509392505050565b7f496e76616c6964207369676e6174757265000000000000000000000000000000600082015250565b6000614d9d601183613357565b9150614da882614d67565b602082019050919050565b60006020820190508181036000830152614dcc81614d90565b9050919050565b600081519050919050565b600082825260208201905092915050565b6000614dfa82614dd3565b614e048185614dde565b9350614e14818560208601613368565b614e1d81613392565b840191505092915050565b6000608082019050614e3d6000830187613430565b614e4a6020830186613430565b614e576040830185613529565b8181036060830152614e698184614def565b905095945050505050565b600081519050614e83816132bd565b92915050565b600060208284031215614e9f57614e9e613287565b5b6000614ead84828501614e74565b91505092915050565b7f4552433732314d657461646174613a2055524920717565727920666f72206e6f60008201527f6e6578697374656e7420746f6b656e0000000000000000000000000000000000602082015250565b6000614f12602f83613357565b9150614f1d82614eb6565b604082019050919050565b60006020820190508181036000830152614f4181614f05565b9050919050565b7f4552433732313a206d696e7420746f20746865207a65726f2061646472657373600082015250565b6000614f7e602083613357565b9150614f8982614f48565b602082019050919050565b60006020820190508181036000830152614fad81614f71565b9050919050565b7f4552433732313a20746f6b656e20616c7265616479206d696e74656400000000600082015250565b6000614fea601c83613357565b9150614ff582614fb4565b602082019050919050565b6000602082019050818103600083015261501981614fdd565b9050919050565b600061502b8261345a565b91507fffffffffffffffffffffffffffffffffffffffffffffffffffffffffffffffff820361505d5761505c61480c565b5b600182019050919050565b7f4e487b7100000000000000000000000000000000000000000000000000000000600052601260045260246000fd5b60006150a28261345a565b91506150ad8361345a565b9250826150bd576150bc615068565b5b828204905092915050565b60006150d38261345a565b91506150de8361345a565b9250826150ee576150ed615068565b5b828206905092915050565b7f4e487b7100000000000000000000000000000000000000000000000000000000600052603160045260246000fd5b7f4e487b7100000000000000000000000000000000000000000000000000000000600052602160045260246000fd5b7f45434453413a20696e76616c6964207369676e61747572650000000000000000600082015250565b600061518d601883613357565b915061519882615157565b602082019050919050565b600060208201905081810360008301526151bc81615180565b9050919050565b7f45434453413a20696e76616c6964207369676e6174757265206c656e67746800600082015250565b60006151f9601f83613357565b9150615204826151c3565b602082019050919050565b60006020820190508181036000830152615228816151ec565b9050919050565b7f45434453413a20696e76616c6964207369676e6174757265202773272076616c60008201527f7565000000000000000000000000000000000000000000000000000000000000602082015250565b600061528b602283613357565b91506152968261522f565b604082019050919050565b600060208201905081810360008301526152ba8161527e565b9050919050565b7f45434453413a20696e76616c6964207369676e6174757265202776272076616c60008201527f7565000000000000000000000000000000000000000000000000000000000000602082015250565b600061531d602283613357565b9150615328826152c1565b604082019050919050565b6000602082019050818103600083015261534c81615310565b9050919050565b600060ff82169050919050565b61536981615353565b82525050565b60006080820190506153846000830187613e54565b6153916020830186615360565b61539e6040830185613e54565b6153ab6060830184613e54565b9594505050505056fea2646970667358221220c655dc0742800b6b804061979fa91004c1737ec68658c5b1029d73ce00f0cc0364736f6c63430008110033",
  "immutableReferences": {},
  "source": "// SPDX-License-Identifier: MIT\npragma solidity ^0.8.7;\n\nimport \"./CosmoCreation.sol\";\n\n/**\n * Main Contract for the NFT tokens.\n * System address resembles the public address of the software application.\n */\n contract CosmoNuts is CosmoCreation {\n\n     using ECDSA for bytes32;\n\n     constructor(\n         string memory _name,\n         string memory _symbol,\n         uint256 _initialNFTSupply,\n         address _systemAddress,\n         address _treasuryAddress\n     )\n         CosmoCreation(_name, _symbol, _initialNFTSupply, _systemAddress, _treasuryAddress)\n     {}\n\n     // only system address?\n     function withdraw() public onlyOwner {\n         uint256 balance = address(this).balance;\n         require(address(this).balance > 0 wei, \"No balance to withdraw\");\n         payable(msg.sender).transfer(balance);\n     }\n\n     // only system address?\n     function flipSaleState() public onlyOwner {\n         saleIsActive = !saleIsActive;\n     }\n\n     /*\n      * Called from CosmoSeed to mint a new Nut\n      */\n     function createNut(\n         string memory _cidPath,\n         bytes memory _signature\n     ) external {\n         uint256 mintIndex = totalSupply();\n         _safeMint(msg.sender, mintIndex);\n         changeTokenURI(mintIndex, _cidPath, _signature);\n     }\n\n     /**\n      * Function callable by Nut owner to create a seed which has the potential to turn into a new Nut.\n      * Requires the input of a secretHash and a specified amount of Ether to create.\n      * A required level of matter must be burned which is equal to the amount of seeds you have in Universe\n      * multiplied by the matterRate.\n      */\n     function createSeed(\n         uint256 _nutId,\n         bytes32 _secretHash,\n         uint256 _matterContributed,\n         string memory _cidPath,\n         bytes memory _signature\n         )\n         public payable {\n             require(address(msg.sender) == ownerOf(_nutId), \"Caller is not owner of nut\");\n             require(totalSupply() >= INITIAL_NUTS, \"Nuts still exist from creation\");\n\n             treasury.spawnSeed(_nutId, _secretHash, _matterContributed);\n             changeTokenURI(_nutId, _cidPath, _signature);\n     }\n\n     /**\n      * Function callable by Nut owner to create a matter faucet which allows other users to draw matter\n      * Creation requires a secret hash that must be known to suppy matter\n      * Creation requires input of total number of matter in contract and the amount each user can draw at a single time\n      * Drawing any amount of matter results in the creation of new supply of matter\n      * In creating the faucet, the creator replenishes the accounts of other nut holders (tax on system to create message)\n      * Caller will also receive matter if others call on this function\n      */\n     function createButter(\n         uint256 _nutId,\n         bytes32 _secretHash,\n         uint256 _matterContributed,\n         string memory _cidPath,\n         bytes memory _signature,\n         uint256 _drawRate\n     ) public {\n         require(address(msg.sender) == ownerOf(_nutId), \"Caller is not owner of nut\");\n         treasury.newButter(_nutId, _matterContributed, _drawRate, _secretHash);\n         changeTokenURI(_nutId, _cidPath, _signature);\n     }\n\n     /**\n      * Called by CosmoButter when some matter is drawn from the contract.\n      */\n     function spreadButter(\n         uint256 _tokenId,\n         string memory _cidPath,\n         bytes memory _signature\n         ) external {\n         changeTokenURI(_tokenId, _cidPath, _signature);\n     }\n\n }\n",
  "sourcePath": "/home/redlentils/Seafile/Websites/avatarnft/contracts/CosmoNuts.sol",
  "compiler": {
    "name": "solc",
    "version": "0.8.17+commit.8df45f5f.Emscripten.clang"
  },
  "schemaVersion": "3.4.10",
  "updatedAt": "2022-10-04T08:42:30.317Z",
  "devdoc": {
    "kind": "dev",
    "methods": {
      "approve(address,uint256)": {
        "details": "See {IERC721-approve}."
      },
      "balanceOf(address)": {
        "details": "See {IERC721-balanceOf}."
      },
      "getApproved(uint256)": {
        "details": "See {IERC721-getApproved}."
      },
      "isApprovedForAll(address,address)": {
        "details": "See {IERC721-isApprovedForAll}."
      },
      "name()": {
        "details": "See {IERC721Metadata-name}."
      },
      "owner()": {
        "details": "Returns the address of the current owner."
      },
      "ownerOf(uint256)": {
        "details": "See {IERC721-ownerOf}."
      },
      "renounceOwnership()": {
        "details": "Leaves the contract without owner. It will not be possible to call `onlyOwner` functions anymore. Can only be called by the current owner. NOTE: Renouncing ownership will leave the contract without an owner, thereby removing any functionality that is only available to the owner."
      },
      "safeTransferFrom(address,address,uint256)": {
        "details": "See {IERC721-safeTransferFrom}."
      },
      "safeTransferFrom(address,address,uint256,bytes)": {
        "details": "See {IERC721-safeTransferFrom}."
      },
      "setApprovalForAll(address,bool)": {
        "details": "See {IERC721-setApprovalForAll}."
      },
      "symbol()": {
        "details": "See {IERC721Metadata-symbol}."
      },
      "tokenByIndex(uint256)": {
        "details": "See {IERC721Enumerable-tokenByIndex}."
      },
      "tokenOfOwnerByIndex(address,uint256)": {
        "details": "See {IERC721Enumerable-tokenOfOwnerByIndex}."
      },
      "totalSupply()": {
        "details": "See {IERC721Enumerable-totalSupply}."
      },
      "transferFrom(address,address,uint256)": {
        "details": "See {IERC721-transferFrom}."
      },
      "transferOwnership(address)": {
        "details": "Transfers ownership of the contract to a new account (`newOwner`). Can only be called by the current owner."
      }
    },
    "version": 1
  },
  "userdoc": {
    "kind": "user",
    "methods": {
      "createButter(uint256,bytes32,uint256,string,bytes,uint256)": {
        "notice": "Function callable by Nut owner to create a matter faucet which allows other users to draw matter Creation requires a secret hash that must be known to suppy matter Creation requires input of total number of matter in contract and the amount each user can draw at a single time Drawing any amount of matter results in the creation of new supply of matter In creating the faucet, the creator replenishes the accounts of other nut holders (tax on system to create message) Caller will also receive matter if others call on this function"
      },
      "createSeed(uint256,bytes32,uint256,string,bytes)": {
        "notice": "Function callable by Nut owner to create a seed which has the potential to turn into a new Nut. Requires the input of a secretHash and a specified amount of Ether to create. A required level of matter must be burned which is equal to the amount of seeds you have in Universe multiplied by the matterRate."
      },
      "spreadButter(uint256,string,bytes)": {
        "notice": "Called by CosmoButter when some matter is drawn from the contract."
      }
    },
    "notice": "Main Contract for the NFT tokens. System address resembles the public address of the software application.",
    "version": 1
  }
}