{
  "contractName": "CosmoButter",
  "abi": [
    {
      "inputs": [
        {
          "internalType": "uint256",
          "name": "_butterId",
          "type": "uint256"
        },
        {
          "internalType": "uint256",
          "name": "_nutId",
          "type": "uint256"
        },
        {
          "internalType": "uint256",
          "name": "_butterAmount",
          "type": "uint256"
        },
        {
          "internalType": "uint256",
          "name": "_drawRate",
          "type": "uint256"
        },
        {
          "internalType": "address",
          "name": "_treasuryAddress",
          "type": "address"
        },
        {
          "internalType": "bytes32",
          "name": "_secretHash",
          "type": "bytes32"
        }
      ],
      "name": "initialize",
      "outputs": [],
      "stateMutability": "nonpayable",
      "type": "function"
    },
    {
      "inputs": [
        {
          "internalType": "string",
          "name": "_secret",
          "type": "string"
        },
        {
          "internalType": "string",
          "name": "_cidPath",
          "type": "string"
        },
        {
          "internalType": "bytes",
          "name": "_signature",
          "type": "bytes"
        }
      ],
      "name": "drawButter",
      "outputs": [],
      "stateMutability": "nonpayable",
      "type": "function"
    }
  ],
  "bytecode": "0x608060405234801561001057600080fd5b50610d86806100206000396000f3fe608060405234801561001057600080fd5b50600436106100365760003560e01c806327ac1b651461003b578063f8257f8714610057575b600080fd5b61005560048036038101906100509190610735565b610073565b005b610071600480360381019061006c91906108a6565b6102a2565b005b60011515600060080160003373ffffffffffffffffffffffffffffffffffffffff1673ffffffffffffffffffffffffffffffffffffffff16815260200190815260200160002060009054906101000a900460ff16151503610109576040517f08c379a000000000000000000000000000000000000000000000000000000000815260040161010090610990565b60405180910390fd5b6000806002015411610150576040517f08c379a0000000000000000000000000000000000000000000000000000000008152600401610147906109fc565b60405180910390fd5b610159836103a7565b50600060050160009054906101000a900473ffffffffffffffffffffffffffffffffffffffff1673ffffffffffffffffffffffffffffffffffffffff16639cee22b13360008001546000600301546000600201546040518563ffffffff1660e01b81526004016101cc9493929190610a3a565b6020604051808303816000875af11580156101eb573d6000803e3d6000fd5b505050506040513d601f19601f8201168201806040525081019061020f9190610ab7565b506000600301546000600201600082825461022a9190610b13565b925050819055506001600060080160003373ffffffffffffffffffffffffffffffffffffffff1673ffffffffffffffffffffffffffffffffffffffff16815260200190815260200160002060006101000a81548160ff02191690831515021790555061029c6000600101548383610424565b50505050565b85600080018190555084600060010181905550836000600201819055508260006003018190555030600060040160006101000a81548173ffffffffffffffffffffffffffffffffffffffff021916908373ffffffffffffffffffffffffffffffffffffffff16021790555081600060050160006101000a81548173ffffffffffffffffffffffffffffffffffffffff021916908373ffffffffffffffffffffffffffffffffffffffff16021790555033600060060160006101000a81548173ffffffffffffffffffffffffffffffffffffffff021916908373ffffffffffffffffffffffffffffffffffffffff16021790555080600060070181905550505050505050565b600080826040516020016103bb9190610bb8565b604051602081830303815290604052805190602001209050600060070154811461041a576040517f08c379a000000000000000000000000000000000000000000000000000000000815260040161041190610c1b565b60405180910390fd5b6001915050919050565b600080600060050160009054906101000a900473ffffffffffffffffffffffffffffffffffffffff1673ffffffffffffffffffffffffffffffffffffffff166375b689aa6040518163ffffffff1660e01b81526004016020604051808303816000875af1158015610499573d6000803e3d6000fd5b505050506040513d601f19601f820116820180604052508101906104bd9190610c50565b90508073ffffffffffffffffffffffffffffffffffffffff1663bd6af0098686866040518463ffffffff1660e01b81526004016104fc93929190610d0b565b600060405180830381600087803b15801561051657600080fd5b505af115801561052a573d6000803e3d6000fd5b5050505060019150509392505050565b6000604051905090565b600080fd5b600080fd5b600080fd5b600080fd5b6000601f19601f8301169050919050565b7f4e487b7100000000000000000000000000000000000000000000000000000000600052604160045260246000fd5b6105a182610558565b810181811067ffffffffffffffff821117156105c0576105bf610569565b5b80604052505050565b60006105d361053a565b90506105df8282610598565b919050565b600067ffffffffffffffff8211156105ff576105fe610569565b5b61060882610558565b9050602081019050919050565b82818337600083830152505050565b6000610637610632846105e4565b6105c9565b90508281526020810184848401111561065357610652610553565b5b61065e848285610615565b509392505050565b600082601f83011261067b5761067a61054e565b5b813561068b848260208601610624565b91505092915050565b600067ffffffffffffffff8211156106af576106ae610569565b5b6106b882610558565b9050602081019050919050565b60006106d86106d384610694565b6105c9565b9050828152602081018484840111156106f4576106f3610553565b5b6106ff848285610615565b509392505050565b600082601f83011261071c5761071b61054e565b5b813561072c8482602086016106c5565b91505092915050565b60008060006060848603121561074e5761074d610544565b5b600084013567ffffffffffffffff81111561076c5761076b610549565b5b61077886828701610666565b935050602084013567ffffffffffffffff81111561079957610798610549565b5b6107a586828701610666565b925050604084013567ffffffffffffffff8111156107c6576107c5610549565b5b6107d286828701610707565b9150509250925092565b6000819050919050565b6107ef816107dc565b81146107fa57600080fd5b50565b60008135905061080c816107e6565b92915050565b600073ffffffffffffffffffffffffffffffffffffffff82169050919050565b600061083d82610812565b9050919050565b61084d81610832565b811461085857600080fd5b50565b60008135905061086a81610844565b92915050565b6000819050919050565b61088381610870565b811461088e57600080fd5b50565b6000813590506108a08161087a565b92915050565b60008060008060008060c087890312156108c3576108c2610544565b5b60006108d189828a016107fd565b96505060206108e289828a016107fd565b95505060406108f389828a016107fd565b945050606061090489828a016107fd565b935050608061091589828a0161085b565b92505060a061092689828a01610891565b9150509295509295509295565b600082825260208201905092915050565b7f43616e206f6e6c792064726177206f6e63650000000000000000000000000000600082015250565b600061097a601283610933565b915061098582610944565b602082019050919050565b600060208201905081810360008301526109a98161096d565b9050919050565b7f4e6f2062757474657220746f2064726177000000000000000000000000000000600082015250565b60006109e6601183610933565b91506109f1826109b0565b602082019050919050565b60006020820190508181036000830152610a15816109d9565b9050919050565b610a2581610832565b82525050565b610a34816107dc565b82525050565b6000608082019050610a4f6000830187610a1c565b610a5c6020830186610a2b565b610a696040830185610a2b565b610a766060830184610a2b565b95945050505050565b60008115159050919050565b610a9481610a7f565b8114610a9f57600080fd5b50565b600081519050610ab181610a8b565b92915050565b600060208284031215610acd57610acc610544565b5b6000610adb84828501610aa2565b91505092915050565b7f4e487b7100000000000000000000000000000000000000000000000000000000600052601160045260246000fd5b6000610b1e826107dc565b9150610b29836107dc565b9250828203905081811115610b4157610b40610ae4565b5b92915050565b600081519050919050565b600081905092915050565b60005b83811015610b7b578082015181840152602081019050610b60565b60008484015250505050565b6000610b9282610b47565b610b9c8185610b52565b9350610bac818560208601610b5d565b80840191505092915050565b6000610bc48284610b87565b915081905092915050565b7f496e70757420646f6573206e6f74206d61746368207365637265740000000000600082015250565b6000610c05601b83610933565b9150610c1082610bcf565b602082019050919050565b60006020820190508181036000830152610c3481610bf8565b9050919050565b600081519050610c4a81610844565b92915050565b600060208284031215610c6657610c65610544565b5b6000610c7484828501610c3b565b91505092915050565b6000610c8882610b47565b610c928185610933565b9350610ca2818560208601610b5d565b610cab81610558565b840191505092915050565b600081519050919050565b600082825260208201905092915050565b6000610cdd82610cb6565b610ce78185610cc1565b9350610cf7818560208601610b5d565b610d0081610558565b840191505092915050565b6000606082019050610d206000830186610a2b565b8181036020830152610d328185610c7d565b90508181036040830152610d468184610cd2565b905094935050505056fea2646970667358221220c221c7d0e621117854dfd472333cb252f3227b60e839fd1e94eca167350ef8d964736f6c63430008110033",
  "immutableReferences": {},
  "source": "// SPDX-License-Identifier: MIT\npragma solidity ^0.8.7;\n\nimport \"./ICosmoVault.sol\";\nimport \"./ICosmoTreasury.sol\";\n\n/**\n * A contract created by a CosmoNut which contains a certain amount of matter,\n * and can be drawn by others if the secret is known.\n */\ncontract CosmoButter {\n\n    struct Butter {\n        uint256 id;\n        uint256 nutId;\n        uint256 amount;\n        uint256 drawRate;\n        address location;\n        address treasury;\n        address nutLocation;\n        bytes32 secretHash;\n        mapping(address => bool) drawnBefore;\n    }\n    Butter butter;\n\n    function initialize(\n        uint256 _butterId,\n        uint256 _nutId,\n        uint256 _butterAmount,\n        uint256 _drawRate,\n        address _treasuryAddress,\n        bytes32 _secretHash\n    ) public {\n        butter.id = _butterId;\n        butter.nutId = _nutId;\n        butter.amount = _butterAmount;\n        butter.drawRate = _drawRate;\n        butter.location = address(this);\n        butter.treasury = _treasuryAddress;\n        butter.nutLocation = address(msg.sender);\n        butter.secretHash = _secretHash;\n    }\n\n    modifier onlyOnce {\n        require(butter.drawnBefore[msg.sender] != true, \"Can only draw once\");\n        _;\n    }\n\n    function spreadButter(\n        uint256 _nutId,\n        string memory _cidPath,\n        bytes memory _signature\n    ) internal returns (bool) {\n        address vaultAddress = ICosmoTreasury(butter.treasury).getVaultLocation();\n        ICosmoVault(vaultAddress).changeTokenURI(\n            _nutId, _cidPath, _signature\n        );\n        return true;\n    }\n\n    /**\n     * Function callable from anyone, but can only be done once per Ethereum address.\n     */\n    function drawButter(string memory _secret, string memory _cidPath, bytes memory _signature) onlyOnce public {\n        require(butter.amount > 0 wei, \"No butter to draw\");\n        verifySecret(_secret);\n\n        ICosmoTreasury(butter.treasury).butterDrawn(msg.sender, butter.id, butter.drawRate, butter.amount);\n        butter.amount -= butter.drawRate;\n        butter.drawnBefore[msg.sender] = true;\n\n        spreadButter(butter.nutId, _cidPath, _signature);\n    }\n\n    /**\n     * Takes a string input and hashes it; compares to the SECRET_HASH in the contract\n     * If it matches, returns true.\n     */\n    function verifySecret(string memory _input) private view returns(bool) {\n        bytes32 inputHash = keccak256(abi.encodePacked(_input));\n        require(inputHash == butter.secretHash, \"Input does not match secret\");\n        return true;\n    }\n\n}\n",
  "sourcePath": "/home/redlentils/Seafile/Websites/avatarnft/contracts/CosmoButter.sol",
  "compiler": {
    "name": "solc",
    "version": "0.8.17+commit.8df45f5f.Emscripten.clang"
  },
  "schemaVersion": "3.4.10",
  "updatedAt": "2022-10-25T08:21:46.375Z",
  "devdoc": {
    "kind": "dev",
    "methods": {},
    "version": 1
  },
  "userdoc": {
    "kind": "user",
    "methods": {
      "drawButter(string,string,bytes)": {
        "notice": "Function callable from anyone, but can only be done once per Ethereum address."
      }
    },
    "notice": "A contract created by a CosmoNut which contains a certain amount of matter, and can be drawn by others if the secret is known.",
    "version": 1
  }
}