{
  "contractName": "CosmoCreation",
  "abi": [
    {
      "inputs": [
        {
          "internalType": "string",
          "name": "_name",
          "type": "string"
        },
        {
          "internalType": "string",
          "name": "_symbol",
          "type": "string"
        },
        {
          "internalType": "uint256",
          "name": "_supply",
          "type": "uint256"
        },
        {
          "internalType": "address",
          "name": "_systemAddress",
          "type": "address"
        },
        {
          "internalType": "address",
          "name": "_treasuryAddress",
          "type": "address"
        },
        {
          "internalType": "address",
          "name": "_vaultImplementation",
          "type": "address"
        }
      ],
      "stateMutability": "nonpayable",
      "type": "constructor"
    },
    {
      "anonymous": false,
      "inputs": [
        {
          "indexed": true,
          "internalType": "address",
          "name": "owner",
          "type": "address"
        },
        {
          "indexed": true,
          "internalType": "address",
          "name": "approved",
          "type": "address"
        },
        {
          "indexed": true,
          "internalType": "uint256",
          "name": "tokenId",
          "type": "uint256"
        }
      ],
      "name": "Approval",
      "type": "event"
    },
    {
      "anonymous": false,
      "inputs": [
        {
          "indexed": true,
          "internalType": "address",
          "name": "owner",
          "type": "address"
        },
        {
          "indexed": true,
          "internalType": "address",
          "name": "operator",
          "type": "address"
        },
        {
          "indexed": false,
          "internalType": "bool",
          "name": "approved",
          "type": "bool"
        }
      ],
      "name": "ApprovalForAll",
      "type": "event"
    },
    {
      "anonymous": false,
      "inputs": [
        {
          "indexed": true,
          "internalType": "address",
          "name": "previousOwner",
          "type": "address"
        },
        {
          "indexed": true,
          "internalType": "address",
          "name": "newOwner",
          "type": "address"
        }
      ],
      "name": "OwnershipTransferred",
      "type": "event"
    },
    {
      "anonymous": false,
      "inputs": [
        {
          "indexed": true,
          "internalType": "address",
          "name": "from",
          "type": "address"
        },
        {
          "indexed": true,
          "internalType": "address",
          "name": "to",
          "type": "address"
        },
        {
          "indexed": true,
          "internalType": "uint256",
          "name": "tokenId",
          "type": "uint256"
        }
      ],
      "name": "Transfer",
      "type": "event"
    },
    {
      "inputs": [
        {
          "internalType": "address",
          "name": "to",
          "type": "address"
        },
        {
          "internalType": "uint256",
          "name": "tokenId",
          "type": "uint256"
        }
      ],
      "name": "approve",
      "outputs": [],
      "stateMutability": "nonpayable",
      "type": "function"
    },
    {
      "inputs": [
        {
          "internalType": "address",
          "name": "owner",
          "type": "address"
        }
      ],
      "name": "balanceOf",
      "outputs": [
        {
          "internalType": "uint256",
          "name": "",
          "type": "uint256"
        }
      ],
      "stateMutability": "view",
      "type": "function"
    },
    {
      "inputs": [],
      "name": "creation",
      "outputs": [
        {
          "internalType": "uint256",
          "name": "initialSupply",
          "type": "uint256"
        },
        {
          "internalType": "address",
          "name": "system",
          "type": "address"
        },
        {
          "internalType": "address",
          "name": "treasury",
          "type": "address"
        },
        {
          "internalType": "address",
          "name": "vault",
          "type": "address"
        },
        {
          "internalType": "address",
          "name": "vaultImplementation",
          "type": "address"
        }
      ],
      "stateMutability": "view",
      "type": "function"
    },
    {
      "inputs": [
        {
          "internalType": "uint256",
          "name": "tokenId",
          "type": "uint256"
        }
      ],
      "name": "getApproved",
      "outputs": [
        {
          "internalType": "address",
          "name": "",
          "type": "address"
        }
      ],
      "stateMutability": "view",
      "type": "function"
    },
    {
      "inputs": [
        {
          "internalType": "address",
          "name": "owner",
          "type": "address"
        },
        {
          "internalType": "address",
          "name": "operator",
          "type": "address"
        }
      ],
      "name": "isApprovedForAll",
      "outputs": [
        {
          "internalType": "bool",
          "name": "",
          "type": "bool"
        }
      ],
      "stateMutability": "view",
      "type": "function"
    },
    {
      "inputs": [],
      "name": "name",
      "outputs": [
        {
          "internalType": "string",
          "name": "",
          "type": "string"
        }
      ],
      "stateMutability": "view",
      "type": "function"
    },
    {
      "inputs": [],
      "name": "owner",
      "outputs": [
        {
          "internalType": "address",
          "name": "",
          "type": "address"
        }
      ],
      "stateMutability": "view",
      "type": "function"
    },
    {
      "inputs": [
        {
          "internalType": "uint256",
          "name": "tokenId",
          "type": "uint256"
        }
      ],
      "name": "ownerOf",
      "outputs": [
        {
          "internalType": "address",
          "name": "",
          "type": "address"
        }
      ],
      "stateMutability": "view",
      "type": "function"
    },
    {
      "inputs": [],
      "name": "renounceOwnership",
      "outputs": [],
      "stateMutability": "nonpayable",
      "type": "function"
    },
    {
      "inputs": [
        {
          "internalType": "address",
          "name": "from",
          "type": "address"
        },
        {
          "internalType": "address",
          "name": "to",
          "type": "address"
        },
        {
          "internalType": "uint256",
          "name": "tokenId",
          "type": "uint256"
        }
      ],
      "name": "safeTransferFrom",
      "outputs": [],
      "stateMutability": "nonpayable",
      "type": "function"
    },
    {
      "inputs": [
        {
          "internalType": "address",
          "name": "from",
          "type": "address"
        },
        {
          "internalType": "address",
          "name": "to",
          "type": "address"
        },
        {
          "internalType": "uint256",
          "name": "tokenId",
          "type": "uint256"
        },
        {
          "internalType": "bytes",
          "name": "_data",
          "type": "bytes"
        }
      ],
      "name": "safeTransferFrom",
      "outputs": [],
      "stateMutability": "nonpayable",
      "type": "function"
    },
    {
      "inputs": [
        {
          "internalType": "address",
          "name": "operator",
          "type": "address"
        },
        {
          "internalType": "bool",
          "name": "approved",
          "type": "bool"
        }
      ],
      "name": "setApprovalForAll",
      "outputs": [],
      "stateMutability": "nonpayable",
      "type": "function"
    },
    {
      "inputs": [],
      "name": "symbol",
      "outputs": [
        {
          "internalType": "string",
          "name": "",
          "type": "string"
        }
      ],
      "stateMutability": "view",
      "type": "function"
    },
    {
      "inputs": [
        {
          "internalType": "uint256",
          "name": "index",
          "type": "uint256"
        }
      ],
      "name": "tokenByIndex",
      "outputs": [
        {
          "internalType": "uint256",
          "name": "",
          "type": "uint256"
        }
      ],
      "stateMutability": "view",
      "type": "function"
    },
    {
      "inputs": [
        {
          "internalType": "address",
          "name": "owner",
          "type": "address"
        },
        {
          "internalType": "uint256",
          "name": "index",
          "type": "uint256"
        }
      ],
      "name": "tokenOfOwnerByIndex",
      "outputs": [
        {
          "internalType": "uint256",
          "name": "",
          "type": "uint256"
        }
      ],
      "stateMutability": "view",
      "type": "function"
    },
    {
      "inputs": [],
      "name": "totalSupply",
      "outputs": [
        {
          "internalType": "uint256",
          "name": "",
          "type": "uint256"
        }
      ],
      "stateMutability": "view",
      "type": "function"
    },
    {
      "inputs": [
        {
          "internalType": "address",
          "name": "from",
          "type": "address"
        },
        {
          "internalType": "address",
          "name": "to",
          "type": "address"
        },
        {
          "internalType": "uint256",
          "name": "tokenId",
          "type": "uint256"
        }
      ],
      "name": "transferFrom",
      "outputs": [],
      "stateMutability": "nonpayable",
      "type": "function"
    },
    {
      "inputs": [
        {
          "internalType": "address",
          "name": "newOwner",
          "type": "address"
        }
      ],
      "name": "transferOwnership",
      "outputs": [],
      "stateMutability": "nonpayable",
      "type": "function"
    },
    {
      "inputs": [
        {
          "internalType": "string",
          "name": "_nutCID",
          "type": "string"
        }
      ],
      "name": "mintNut",
      "outputs": [],
      "stateMutability": "payable",
      "type": "function"
    },
    {
      "inputs": [
        {
          "internalType": "uint256",
          "name": "tokenId",
          "type": "uint256"
        }
      ],
      "name": "tokenURI",
      "outputs": [
        {
          "internalType": "string",
          "name": "",
          "type": "string"
        }
      ],
      "stateMutability": "view",
      "type": "function"
    },
    {
      "inputs": [
        {
          "internalType": "bytes4",
          "name": "interfaceId",
          "type": "bytes4"
        }
      ],
      "name": "supportsInterface",
      "outputs": [
        {
          "internalType": "bool",
          "name": "",
          "type": "bool"
        }
      ],
      "stateMutability": "view",
      "type": "function"
    }
  ],
  "bytecode": "0x60806040523480156200001157600080fd5b506040516200477438038062004774833981810160405281019062000037919062000462565b858581600090816200004a91906200077d565b5080600190816200005c91906200077d565b5050506200007f620000736200016160201b60201c565b6200016960201b60201c565b83600c6000018190555082600c60010160006101000a81548173ffffffffffffffffffffffffffffffffffffffff021916908373ffffffffffffffffffffffffffffffffffffffff16021790555081600c60020160006101000a81548173ffffffffffffffffffffffffffffffffffffffff021916908373ffffffffffffffffffffffffffffffffffffffff16021790555080600c60040160006101000a81548173ffffffffffffffffffffffffffffffffffffffff021916908373ffffffffffffffffffffffffffffffffffffffff16021790555050505050505062000864565b600033905090565b6000600b60009054906101000a900473ffffffffffffffffffffffffffffffffffffffff16905081600b60006101000a81548173ffffffffffffffffffffffffffffffffffffffff021916908373ffffffffffffffffffffffffffffffffffffffff1602179055508173ffffffffffffffffffffffffffffffffffffffff168173ffffffffffffffffffffffffffffffffffffffff167f8be0079c531659141344cd1fd0a4f28419497f9722a3daafe3b4186f6b6457e060405160405180910390a35050565b6000604051905090565b600080fd5b600080fd5b600080fd5b600080fd5b6000601f19601f8301169050919050565b7f4e487b7100000000000000000000000000000000000000000000000000000000600052604160045260246000fd5b62000298826200024d565b810181811067ffffffffffffffff82111715620002ba57620002b96200025e565b5b80604052505050565b6000620002cf6200022f565b9050620002dd82826200028d565b919050565b600067ffffffffffffffff8211156200030057620002ff6200025e565b5b6200030b826200024d565b9050602081019050919050565b60005b83811015620003385780820151818401526020810190506200031b565b60008484015250505050565b60006200035b6200035584620002e2565b620002c3565b9050828152602081018484840111156200037a576200037962000248565b5b6200038784828562000318565b509392505050565b600082601f830112620003a757620003a662000243565b5b8151620003b984826020860162000344565b91505092915050565b6000819050919050565b620003d781620003c2565b8114620003e357600080fd5b50565b600081519050620003f781620003cc565b92915050565b600073ffffffffffffffffffffffffffffffffffffffff82169050919050565b60006200042a82620003fd565b9050919050565b6200043c816200041d565b81146200044857600080fd5b50565b6000815190506200045c8162000431565b92915050565b60008060008060008060c0878903121562000482576200048162000239565b5b600087015167ffffffffffffffff811115620004a357620004a26200023e565b5b620004b189828a016200038f565b965050602087015167ffffffffffffffff811115620004d557620004d46200023e565b5b620004e389828a016200038f565b9550506040620004f689828a01620003e6565b94505060606200050989828a016200044b565b93505060806200051c89828a016200044b565b92505060a06200052f89828a016200044b565b9150509295509295509295565b600081519050919050565b7f4e487b7100000000000000000000000000000000000000000000000000000000600052602260045260246000fd5b600060028204905060018216806200058f57607f821691505b602082108103620005a557620005a462000547565b5b50919050565b60008190508160005260206000209050919050565b60006020601f8301049050919050565b600082821b905092915050565b6000600883026200060f7fffffffffffffffffffffffffffffffffffffffffffffffffffffffffffffffff82620005d0565b6200061b8683620005d0565b95508019841693508086168417925050509392505050565b6000819050919050565b60006200065e620006586200065284620003c2565b62000633565b620003c2565b9050919050565b6000819050919050565b6200067a836200063d565b62000692620006898262000665565b848454620005dd565b825550505050565b600090565b620006a96200069a565b620006b68184846200066f565b505050565b5b81811015620006de57620006d26000826200069f565b600181019050620006bc565b5050565b601f8211156200072d57620006f781620005ab565b6200070284620005c0565b8101602085101562000712578190505b6200072a6200072185620005c0565b830182620006bb565b50505b505050565b600082821c905092915050565b6000620007526000198460080262000732565b1980831691505092915050565b60006200076d83836200073f565b9150826002028217905092915050565b62000788826200053c565b67ffffffffffffffff811115620007a457620007a36200025e565b5b620007b0825462000576565b620007bd828285620006e2565b600060209050601f831160018114620007f55760008415620007e0578287015190505b620007ec85826200075f565b8655506200085c565b601f1984166200080586620005ab565b60005b828110156200082f5784890151825560018201915060208501945060208101905062000808565b868310156200084f57848901516200084b601f8916826200073f565b8355505b6001600288020188555050505b505050505050565b613f0080620008746000396000f3fe60806040526004361061012a5760003560e01c80636352211e116100ab57806395f04d051161006f57806395f04d051461040a578063a22cb46514610426578063b88d4fde1461044f578063c87b56dd14610478578063e985e9c5146104b5578063f2fde38b146104f25761012a565b80636352211e1461032357806370a0823114610360578063715018a61461039d5780638da5cb5b146103b457806395d89b41146103df5761012a565b806318160ddd116100f257806318160ddd1461022c57806323b872dd146102575780632f745c591461028057806342842e0e146102bd5780634f6ccce7146102e65761012a565b806301ffc9a71461012f57806306fdde031461016c578063081812fc14610197578063095ea7b3146101d457806313845d2f146101fd575b600080fd5b34801561013b57600080fd5b50610156600480360381019061015191906125af565b61051b565b60405161016391906125f7565b60405180910390f35b34801561017857600080fd5b5061018161052d565b60405161018e91906126a2565b60405180910390f35b3480156101a357600080fd5b506101be60048036038101906101b991906126fa565b6105bf565b6040516101cb9190612768565b60405180910390f35b3480156101e057600080fd5b506101fb60048036038101906101f691906127af565b610644565b005b34801561020957600080fd5b5061021261075b565b6040516102239594939291906127fe565b60405180910390f35b34801561023857600080fd5b506102416107ff565b60405161024e9190612851565b60405180910390f35b34801561026357600080fd5b5061027e6004803603810190610279919061286c565b61080c565b005b34801561028c57600080fd5b506102a760048036038101906102a291906127af565b61086c565b6040516102b49190612851565b60405180910390f35b3480156102c957600080fd5b506102e460048036038101906102df919061286c565b610911565b005b3480156102f257600080fd5b5061030d600480360381019061030891906126fa565b610931565b60405161031a9190612851565b60405180910390f35b34801561032f57600080fd5b5061034a600480360381019061034591906126fa565b6109a2565b6040516103579190612768565b60405180910390f35b34801561036c57600080fd5b50610387600480360381019061038291906128bf565b610a53565b6040516103949190612851565b60405180910390f35b3480156103a957600080fd5b506103b2610b0a565b005b3480156103c057600080fd5b506103c9610b92565b6040516103d69190612768565b60405180910390f35b3480156103eb57600080fd5b506103f4610bbc565b60405161040191906126a2565b60405180910390f35b610424600480360381019061041f9190612a21565b610c4e565b005b34801561043257600080fd5b5061044d60048036038101906104489190612a96565b610e39565b005b34801561045b57600080fd5b5061047660048036038101906104719190612b77565b610e4f565b005b34801561048457600080fd5b5061049f600480360381019061049a91906126fa565b610eb1565b6040516104ac91906126a2565b60405180910390f35b3480156104c157600080fd5b506104dc60048036038101906104d79190612bfa565b610ec3565b6040516104e991906125f7565b60405180910390f35b3480156104fe57600080fd5b50610519600480360381019061051491906128bf565b610f57565b005b60006105268261104e565b9050919050565b60606000805461053c90612c69565b80601f016020809104026020016040519081016040528092919081815260200182805461056890612c69565b80156105b55780601f1061058a576101008083540402835291602001916105b5565b820191906000526020600020905b81548152906001019060200180831161059857829003601f168201915b5050505050905090565b60006105ca826110c8565b610609576040517f08c379a000000000000000000000000000000000000000000000000000000000815260040161060090612d0c565b60405180910390fd5b6004600083815260200190815260200160002060009054906101000a900473ffffffffffffffffffffffffffffffffffffffff169050919050565b600061064f826109a2565b90508073ffffffffffffffffffffffffffffffffffffffff168373ffffffffffffffffffffffffffffffffffffffff16036106bf576040517f08c379a00000000000000000000000000000000000000000000000000000000081526004016106b690612d9e565b60405180910390fd5b8073ffffffffffffffffffffffffffffffffffffffff166106de611134565b73ffffffffffffffffffffffffffffffffffffffff16148061070d575061070c81610707611134565b610ec3565b5b61074c576040517f08c379a000000000000000000000000000000000000000000000000000000000815260040161074390612e30565b60405180910390fd5b610756838361113c565b505050565b600c8060000154908060010160009054906101000a900473ffffffffffffffffffffffffffffffffffffffff16908060020160009054906101000a900473ffffffffffffffffffffffffffffffffffffffff16908060030160009054906101000a900473ffffffffffffffffffffffffffffffffffffffff16908060040160009054906101000a900473ffffffffffffffffffffffffffffffffffffffff16905085565b6000600880549050905090565b61081d610817611134565b826111f5565b61085c576040517f08c379a000000000000000000000000000000000000000000000000000000000815260040161085390612ec2565b60405180910390fd5b6108678383836112d3565b505050565b600061087783610a53565b82106108b8576040517f08c379a00000000000000000000000000000000000000000000000000000000081526004016108af90612f54565b60405180910390fd5b600660008473ffffffffffffffffffffffffffffffffffffffff1673ffffffffffffffffffffffffffffffffffffffff168152602001908152602001600020600083815260200190815260200160002054905092915050565b61092c83838360405180602001604052806000815250610e4f565b505050565b600061093b6107ff565b821061097c576040517f08c379a000000000000000000000000000000000000000000000000000000000815260040161097390612fe6565b60405180910390fd5b600882815481106109905761098f613006565b5b90600052602060002001549050919050565b6000806002600084815260200190815260200160002060009054906101000a900473ffffffffffffffffffffffffffffffffffffffff169050600073ffffffffffffffffffffffffffffffffffffffff168173ffffffffffffffffffffffffffffffffffffffff1603610a4a576040517f08c379a0000000000000000000000000000000000000000000000000000000008152600401610a41906130a7565b60405180910390fd5b80915050919050565b60008073ffffffffffffffffffffffffffffffffffffffff168273ffffffffffffffffffffffffffffffffffffffff1603610ac3576040517f08c379a0000000000000000000000000000000000000000000000000000000008152600401610aba90613139565b60405180910390fd5b600360008373ffffffffffffffffffffffffffffffffffffffff1673ffffffffffffffffffffffffffffffffffffffff168152602001908152602001600020549050919050565b610b12611134565b73ffffffffffffffffffffffffffffffffffffffff16610b30610b92565b73ffffffffffffffffffffffffffffffffffffffff1614610b86576040517f08c379a0000000000000000000000000000000000000000000000000000000008152600401610b7d906131a5565b60405180910390fd5b610b906000611539565b565b6000600b60009054906101000a900473ffffffffffffffffffffffffffffffffffffffff16905090565b606060018054610bcb90612c69565b80601f0160208091040260200160405190810160405280929190818152602001828054610bf790612c69565b8015610c445780601f10610c1957610100808354040283529160200191610c44565b820191906000526020600020905b815481529060010190602001808311610c2757829003601f168201915b5050505050905090565b6000610c586107ff565b9050600c600001548110610ca1576040517f08c379a0000000000000000000000000000000000000000000000000000000008152600401610c9890613237565b60405180910390fd5b6000600c60020160009054906101000a900473ffffffffffffffffffffffffffffffffffffffff1673ffffffffffffffffffffffffffffffffffffffff166398d5fdca6040518163ffffffff1660e01b8152600401602060405180830381865afa158015610d13573d6000803e3d6000fd5b505050506040513d601f19601f82011682018060405250810190610d37919061326c565b905080341015610d7c576040517f08c379a0000000000000000000000000000000000000000000000000000000008152600401610d739061330b565b60405180910390fd5b610d8633836115ff565b610d90828461161d565b600c60020160009054906101000a900473ffffffffffffffffffffffffffffffffffffffff1673ffffffffffffffffffffffffffffffffffffffff16631c85949c33846040518363ffffffff1660e01b8152600401610df092919061332b565b6020604051808303816000875af1158015610e0f573d6000803e3d6000fd5b505050506040513d601f19601f82011682018060405250810190610e339190613369565b50505050565b610e4b610e44611134565b838361168a565b5050565b610e60610e5a611134565b836111f5565b610e9f576040517f08c379a0000000000000000000000000000000000000000000000000000000008152600401610e9690612ec2565b60405180910390fd5b610eab848484846117f6565b50505050565b6060610ebc82611852565b9050919050565b6000600560008473ffffffffffffffffffffffffffffffffffffffff1673ffffffffffffffffffffffffffffffffffffffff16815260200190815260200160002060008373ffffffffffffffffffffffffffffffffffffffff1673ffffffffffffffffffffffffffffffffffffffff16815260200190815260200160002060009054906101000a900460ff16905092915050565b610f5f611134565b73ffffffffffffffffffffffffffffffffffffffff16610f7d610b92565b73ffffffffffffffffffffffffffffffffffffffff1614610fd3576040517f08c379a0000000000000000000000000000000000000000000000000000000008152600401610fca906131a5565b60405180910390fd5b600073ffffffffffffffffffffffffffffffffffffffff168173ffffffffffffffffffffffffffffffffffffffff1603611042576040517f08c379a000000000000000000000000000000000000000000000000000000000815260040161103990613408565b60405180910390fd5b61104b81611539565b50565b60007f780e9d63000000000000000000000000000000000000000000000000000000007bffffffffffffffffffffffffffffffffffffffffffffffffffffffff1916827bffffffffffffffffffffffffffffffffffffffffffffffffffffffff191614806110c157506110c0826119a3565b5b9050919050565b60008073ffffffffffffffffffffffffffffffffffffffff166002600084815260200190815260200160002060009054906101000a900473ffffffffffffffffffffffffffffffffffffffff1673ffffffffffffffffffffffffffffffffffffffff1614159050919050565b600033905090565b816004600083815260200190815260200160002060006101000a81548173ffffffffffffffffffffffffffffffffffffffff021916908373ffffffffffffffffffffffffffffffffffffffff160217905550808273ffffffffffffffffffffffffffffffffffffffff166111af836109a2565b73ffffffffffffffffffffffffffffffffffffffff167f8c5be1e5ebec7d5bd14f71427d1e84f3dd0314c0f7b2291e5b200ac8c7c3b92560405160405180910390a45050565b6000611200826110c8565b61123f576040517f08c379a00000000000000000000000000000000000000000000000000000000081526004016112369061349a565b60405180910390fd5b600061124a836109a2565b90508073ffffffffffffffffffffffffffffffffffffffff168473ffffffffffffffffffffffffffffffffffffffff16148061128c575061128b8185610ec3565b5b806112ca57508373ffffffffffffffffffffffffffffffffffffffff166112b2846105bf565b73ffffffffffffffffffffffffffffffffffffffff16145b91505092915050565b8273ffffffffffffffffffffffffffffffffffffffff166112f3826109a2565b73ffffffffffffffffffffffffffffffffffffffff1614611349576040517f08c379a00000000000000000000000000000000000000000000000000000000081526004016113409061352c565b60405180910390fd5b600073ffffffffffffffffffffffffffffffffffffffff168273ffffffffffffffffffffffffffffffffffffffff16036113b8576040517f08c379a00000000000000000000000000000000000000000000000000000000081526004016113af906135be565b60405180910390fd5b6113c3838383611a85565b6113ce60008261113c565b6001600360008573ffffffffffffffffffffffffffffffffffffffff1673ffffffffffffffffffffffffffffffffffffffff168152602001908152602001600020600082825461141e919061360d565b925050819055506001600360008473ffffffffffffffffffffffffffffffffffffffff1673ffffffffffffffffffffffffffffffffffffffff16815260200190815260200160002060008282546114759190613641565b92505081905550816002600083815260200190815260200160002060006101000a81548173ffffffffffffffffffffffffffffffffffffffff021916908373ffffffffffffffffffffffffffffffffffffffff160217905550808273ffffffffffffffffffffffffffffffffffffffff168473ffffffffffffffffffffffffffffffffffffffff167fddf252ad1be2c89b69c2b068fc378daa952ba7f163c4a11628f55a4df523b3ef60405160405180910390a4611534838383611a95565b505050565b6000600b60009054906101000a900473ffffffffffffffffffffffffffffffffffffffff16905081600b60006101000a81548173ffffffffffffffffffffffffffffffffffffffff021916908373ffffffffffffffffffffffffffffffffffffffff1602179055508173ffffffffffffffffffffffffffffffffffffffff168173ffffffffffffffffffffffffffffffffffffffff167f8be0079c531659141344cd1fd0a4f28419497f9722a3daafe3b4186f6b6457e060405160405180910390a35050565b611619828260405180602001604052806000815250611a9a565b5050565b611626826110c8565b611665576040517f08c379a000000000000000000000000000000000000000000000000000000000815260040161165c906136e7565b60405180910390fd5b80600a6000848152602001908152602001600020908161168591906138b3565b505050565b8173ffffffffffffffffffffffffffffffffffffffff168373ffffffffffffffffffffffffffffffffffffffff16036116f8576040517f08c379a00000000000000000000000000000000000000000000000000000000081526004016116ef906139d1565b60405180910390fd5b80600560008573ffffffffffffffffffffffffffffffffffffffff1673ffffffffffffffffffffffffffffffffffffffff16815260200190815260200160002060008473ffffffffffffffffffffffffffffffffffffffff1673ffffffffffffffffffffffffffffffffffffffff16815260200190815260200160002060006101000a81548160ff0219169083151502179055508173ffffffffffffffffffffffffffffffffffffffff168373ffffffffffffffffffffffffffffffffffffffff167f17307eab39ab6107e8899845ad3d59bd9653f200f220920489ca2b5937696c31836040516117e991906125f7565b60405180910390a3505050565b6118018484846112d3565b61180d84848484611af5565b61184c576040517f08c379a000000000000000000000000000000000000000000000000000000000815260040161184390613a63565b60405180910390fd5b50505050565b606061185d826110c8565b61189c576040517f08c379a000000000000000000000000000000000000000000000000000000000815260040161189390613af5565b60405180910390fd5b6000600a600084815260200190815260200160002080546118bc90612c69565b80601f01602080910402602001604051908101604052809291908181526020018280546118e890612c69565b80156119355780601f1061190a57610100808354040283529160200191611935565b820191906000526020600020905b81548152906001019060200180831161191857829003601f168201915b505050505090506000611946611c7c565b9050600081510361195b57819250505061199e565b600082511115611990578082604051602001611978929190613b51565b6040516020818303038152906040529250505061199e565b61199984611cb9565b925050505b919050565b60007f80ac58cd000000000000000000000000000000000000000000000000000000007bffffffffffffffffffffffffffffffffffffffffffffffffffffffff1916827bffffffffffffffffffffffffffffffffffffffffffffffffffffffff19161480611a6e57507f5b5e139f000000000000000000000000000000000000000000000000000000007bffffffffffffffffffffffffffffffffffffffffffffffffffffffff1916827bffffffffffffffffffffffffffffffffffffffffffffffffffffffff1916145b80611a7e5750611a7d82611d60565b5b9050919050565b611a90838383611dca565b505050565b505050565b611aa48383611edc565b611ab16000848484611af5565b611af0576040517f08c379a0000000000000000000000000000000000000000000000000000000008152600401611ae790613a63565b60405180910390fd5b505050565b6000611b168473ffffffffffffffffffffffffffffffffffffffff166120b5565b15611c6f578373ffffffffffffffffffffffffffffffffffffffff1663150b7a02611b3f611134565b8786866040518563ffffffff1660e01b8152600401611b619493929190613bca565b6020604051808303816000875af1925050508015611b9d57506040513d601f19601f82011682018060405250810190611b9a9190613c2b565b60015b611c1f573d8060008114611bcd576040519150601f19603f3d011682016040523d82523d6000602084013e611bd2565b606091505b506000815103611c17576040517f08c379a0000000000000000000000000000000000000000000000000000000008152600401611c0e90613a63565b60405180910390fd5b805181602001fd5b63150b7a0260e01b7bffffffffffffffffffffffffffffffffffffffffffffffffffffffff1916817bffffffffffffffffffffffffffffffffffffffffffffffffffffffff191614915050611c74565b600190505b949350505050565b60606040518060400160405280601581526020017f68747470733a2f2f697066732e696f2f697066732f0000000000000000000000815250905090565b6060611cc4826110c8565b611d03576040517f08c379a0000000000000000000000000000000000000000000000000000000008152600401611cfa90613cca565b60405180910390fd5b6000611d0d611c7c565b90506000815111611d2d5760405180602001604052806000815250611d58565b80611d37846120d8565b604051602001611d48929190613b51565b6040516020818303038152906040525b915050919050565b60007f01ffc9a7000000000000000000000000000000000000000000000000000000007bffffffffffffffffffffffffffffffffffffffffffffffffffffffff1916827bffffffffffffffffffffffffffffffffffffffffffffffffffffffff1916149050919050565b611dd5838383612238565b600073ffffffffffffffffffffffffffffffffffffffff168373ffffffffffffffffffffffffffffffffffffffff1603611e1757611e128161223d565b611e56565b8173ffffffffffffffffffffffffffffffffffffffff168373ffffffffffffffffffffffffffffffffffffffff1614611e5557611e548382612286565b5b5b600073ffffffffffffffffffffffffffffffffffffffff168273ffffffffffffffffffffffffffffffffffffffff1603611e9857611e93816123f3565b611ed7565b8273ffffffffffffffffffffffffffffffffffffffff168273ffffffffffffffffffffffffffffffffffffffff1614611ed657611ed582826124c4565b5b5b505050565b600073ffffffffffffffffffffffffffffffffffffffff168273ffffffffffffffffffffffffffffffffffffffff1603611f4b576040517f08c379a0000000000000000000000000000000000000000000000000000000008152600401611f4290613d36565b60405180910390fd5b611f54816110c8565b15611f94576040517f08c379a0000000000000000000000000000000000000000000000000000000008152600401611f8b90613da2565b60405180910390fd5b611fa060008383611a85565b6001600360008473ffffffffffffffffffffffffffffffffffffffff1673ffffffffffffffffffffffffffffffffffffffff1681526020019081526020016000206000828254611ff09190613641565b92505081905550816002600083815260200190815260200160002060006101000a81548173ffffffffffffffffffffffffffffffffffffffff021916908373ffffffffffffffffffffffffffffffffffffffff160217905550808273ffffffffffffffffffffffffffffffffffffffff16600073ffffffffffffffffffffffffffffffffffffffff167fddf252ad1be2c89b69c2b068fc378daa952ba7f163c4a11628f55a4df523b3ef60405160405180910390a46120b160008383611a95565b5050565b6000808273ffffffffffffffffffffffffffffffffffffffff163b119050919050565b60606000820361211f576040518060400160405280600181526020017f30000000000000000000000000000000000000000000000000000000000000008152509050612233565b600082905060005b6000821461215157808061213a90613dc2565b915050600a8261214a9190613e39565b9150612127565b60008167ffffffffffffffff81111561216d5761216c6128f6565b5b6040519080825280601f01601f19166020018201604052801561219f5781602001600182028036833780820191505090505b5090505b6000851461222c576001826121b8919061360d565b9150600a856121c79190613e6a565b60306121d39190613641565b60f81b8183815181106121e9576121e8613006565b5b60200101907effffffffffffffffffffffffffffffffffffffffffffffffffffffffffffff1916908160001a905350600a856122259190613e39565b94506121a3565b8093505050505b919050565b505050565b6008805490506009600083815260200190815260200160002081905550600881908060018154018082558091505060019003906000526020600020016000909190919091505550565b6000600161229384610a53565b61229d919061360d565b9050600060076000848152602001908152602001600020549050818114612382576000600660008673ffffffffffffffffffffffffffffffffffffffff1673ffffffffffffffffffffffffffffffffffffffff168152602001908152602001600020600084815260200190815260200160002054905080600660008773ffffffffffffffffffffffffffffffffffffffff1673ffffffffffffffffffffffffffffffffffffffff168152602001908152602001600020600084815260200190815260200160002081905550816007600083815260200190815260200160002081905550505b6007600084815260200190815260200160002060009055600660008573ffffffffffffffffffffffffffffffffffffffff1673ffffffffffffffffffffffffffffffffffffffff16815260200190815260200160002060008381526020019081526020016000206000905550505050565b60006001600880549050612407919061360d565b905060006009600084815260200190815260200160002054905060006008838154811061243757612436613006565b5b90600052602060002001549050806008838154811061245957612458613006565b5b9060005260206000200181905550816009600083815260200190815260200160002081905550600960008581526020019081526020016000206000905560088054806124a8576124a7613e9b565b5b6001900381819060005260206000200160009055905550505050565b60006124cf83610a53565b905081600660008573ffffffffffffffffffffffffffffffffffffffff1673ffffffffffffffffffffffffffffffffffffffff168152602001908152602001600020600083815260200190815260200160002081905550806007600084815260200190815260200160002081905550505050565b6000604051905090565b600080fd5b600080fd5b60007fffffffff0000000000000000000000000000000000000000000000000000000082169050919050565b61258c81612557565b811461259757600080fd5b50565b6000813590506125a981612583565b92915050565b6000602082840312156125c5576125c461254d565b5b60006125d38482850161259a565b91505092915050565b60008115159050919050565b6125f1816125dc565b82525050565b600060208201905061260c60008301846125e8565b92915050565b600081519050919050565b600082825260208201905092915050565b60005b8381101561264c578082015181840152602081019050612631565b60008484015250505050565b6000601f19601f8301169050919050565b600061267482612612565b61267e818561261d565b935061268e81856020860161262e565b61269781612658565b840191505092915050565b600060208201905081810360008301526126bc8184612669565b905092915050565b6000819050919050565b6126d7816126c4565b81146126e257600080fd5b50565b6000813590506126f4816126ce565b92915050565b6000602082840312156127105761270f61254d565b5b600061271e848285016126e5565b91505092915050565b600073ffffffffffffffffffffffffffffffffffffffff82169050919050565b600061275282612727565b9050919050565b61276281612747565b82525050565b600060208201905061277d6000830184612759565b92915050565b61278c81612747565b811461279757600080fd5b50565b6000813590506127a981612783565b92915050565b600080604083850312156127c6576127c561254d565b5b60006127d48582860161279a565b92505060206127e5858286016126e5565b9150509250929050565b6127f8816126c4565b82525050565b600060a08201905061281360008301886127ef565b6128206020830187612759565b61282d6040830186612759565b61283a6060830185612759565b6128476080830184612759565b9695505050505050565b600060208201905061286660008301846127ef565b92915050565b6000806000606084860312156128855761288461254d565b5b60006128938682870161279a565b93505060206128a48682870161279a565b92505060406128b5868287016126e5565b9150509250925092565b6000602082840312156128d5576128d461254d565b5b60006128e38482850161279a565b91505092915050565b600080fd5b600080fd5b7f4e487b7100000000000000000000000000000000000000000000000000000000600052604160045260246000fd5b61292e82612658565b810181811067ffffffffffffffff8211171561294d5761294c6128f6565b5b80604052505050565b6000612960612543565b905061296c8282612925565b919050565b600067ffffffffffffffff82111561298c5761298b6128f6565b5b61299582612658565b9050602081019050919050565b82818337600083830152505050565b60006129c46129bf84612971565b612956565b9050828152602081018484840111156129e0576129df6128f1565b5b6129eb8482856129a2565b509392505050565b600082601f830112612a0857612a076128ec565b5b8135612a188482602086016129b1565b91505092915050565b600060208284031215612a3757612a3661254d565b5b600082013567ffffffffffffffff811115612a5557612a54612552565b5b612a61848285016129f3565b91505092915050565b612a73816125dc565b8114612a7e57600080fd5b50565b600081359050612a9081612a6a565b92915050565b60008060408385031215612aad57612aac61254d565b5b6000612abb8582860161279a565b9250506020612acc85828601612a81565b9150509250929050565b600067ffffffffffffffff821115612af157612af06128f6565b5b612afa82612658565b9050602081019050919050565b6000612b1a612b1584612ad6565b612956565b905082815260208101848484011115612b3657612b356128f1565b5b612b418482856129a2565b509392505050565b600082601f830112612b5e57612b5d6128ec565b5b8135612b6e848260208601612b07565b91505092915050565b60008060008060808587031215612b9157612b9061254d565b5b6000612b9f8782880161279a565b9450506020612bb08782880161279a565b9350506040612bc1878288016126e5565b925050606085013567ffffffffffffffff811115612be257612be1612552565b5b612bee87828801612b49565b91505092959194509250565b60008060408385031215612c1157612c1061254d565b5b6000612c1f8582860161279a565b9250506020612c308582860161279a565b9150509250929050565b7f4e487b7100000000000000000000000000000000000000000000000000000000600052602260045260246000fd5b60006002820490506001821680612c8157607f821691505b602082108103612c9457612c93612c3a565b5b50919050565b7f4552433732313a20617070726f76656420717565727920666f72206e6f6e657860008201527f697374656e7420746f6b656e0000000000000000000000000000000000000000602082015250565b6000612cf6602c8361261d565b9150612d0182612c9a565b604082019050919050565b60006020820190508181036000830152612d2581612ce9565b9050919050565b7f4552433732313a20617070726f76616c20746f2063757272656e74206f776e6560008201527f7200000000000000000000000000000000000000000000000000000000000000602082015250565b6000612d8860218361261d565b9150612d9382612d2c565b604082019050919050565b60006020820190508181036000830152612db781612d7b565b9050919050565b7f4552433732313a20617070726f76652063616c6c6572206973206e6f74206f7760008201527f6e6572206e6f7220617070726f76656420666f7220616c6c0000000000000000602082015250565b6000612e1a60388361261d565b9150612e2582612dbe565b604082019050919050565b60006020820190508181036000830152612e4981612e0d565b9050919050565b7f4552433732313a207472616e736665722063616c6c6572206973206e6f74206f60008201527f776e6572206e6f7220617070726f766564000000000000000000000000000000602082015250565b6000612eac60318361261d565b9150612eb782612e50565b604082019050919050565b60006020820190508181036000830152612edb81612e9f565b9050919050565b7f455243373231456e756d657261626c653a206f776e657220696e646578206f7560008201527f74206f6620626f756e6473000000000000000000000000000000000000000000602082015250565b6000612f3e602b8361261d565b9150612f4982612ee2565b604082019050919050565b60006020820190508181036000830152612f6d81612f31565b9050919050565b7f455243373231456e756d657261626c653a20676c6f62616c20696e646578206f60008201527f7574206f6620626f756e64730000000000000000000000000000000000000000602082015250565b6000612fd0602c8361261d565b9150612fdb82612f74565b604082019050919050565b60006020820190508181036000830152612fff81612fc3565b9050919050565b7f4e487b7100000000000000000000000000000000000000000000000000000000600052603260045260246000fd5b7f4552433732313a206f776e657220717565727920666f72206e6f6e657869737460008201527f656e7420746f6b656e0000000000000000000000000000000000000000000000602082015250565b600061309160298361261d565b915061309c82613035565b604082019050919050565b600060208201905081810360008301526130c081613084565b9050919050565b7f4552433732313a2062616c616e636520717565727920666f7220746865207a6560008201527f726f206164647265737300000000000000000000000000000000000000000000602082015250565b6000613123602a8361261d565b915061312e826130c7565b604082019050919050565b6000602082019050818103600083015261315281613116565b9050919050565b7f4f776e61626c653a2063616c6c6572206973206e6f7420746865206f776e6572600082015250565b600061318f60208361261d565b915061319a82613159565b602082019050919050565b600060208201905081810360008301526131be81613182565b9050919050565b7f496e697469616c20737570706c79206f66206e757473206973206465706c657460008201527f6564000000000000000000000000000000000000000000000000000000000000602082015250565b600061322160228361261d565b915061322c826131c5565b604082019050919050565b6000602082019050818103600083015261325081613214565b9050919050565b600081519050613266816126ce565b92915050565b6000602082840312156132825761328161254d565b5b600061329084828501613257565b91505092915050565b7f45746865722076616c75652070726f7669646564206973206e6f7420656e6f7560008201527f6768000000000000000000000000000000000000000000000000000000000000602082015250565b60006132f560228361261d565b915061330082613299565b604082019050919050565b60006020820190508181036000830152613324816132e8565b9050919050565b60006040820190506133406000830185612759565b61334d60208301846127ef565b9392505050565b60008151905061336381612a6a565b92915050565b60006020828403121561337f5761337e61254d565b5b600061338d84828501613354565b91505092915050565b7f4f776e61626c653a206e6577206f776e657220697320746865207a65726f206160008201527f6464726573730000000000000000000000000000000000000000000000000000602082015250565b60006133f260268361261d565b91506133fd82613396565b604082019050919050565b60006020820190508181036000830152613421816133e5565b9050919050565b7f4552433732313a206f70657261746f7220717565727920666f72206e6f6e657860008201527f697374656e7420746f6b656e0000000000000000000000000000000000000000602082015250565b6000613484602c8361261d565b915061348f82613428565b604082019050919050565b600060208201905081810360008301526134b381613477565b9050919050565b7f4552433732313a207472616e736665722066726f6d20696e636f72726563742060008201527f6f776e6572000000000000000000000000000000000000000000000000000000602082015250565b600061351660258361261d565b9150613521826134ba565b604082019050919050565b6000602082019050818103600083015261354581613509565b9050919050565b7f4552433732313a207472616e7366657220746f20746865207a65726f2061646460008201527f7265737300000000000000000000000000000000000000000000000000000000602082015250565b60006135a860248361261d565b91506135b38261354c565b604082019050919050565b600060208201905081810360008301526135d78161359b565b9050919050565b7f4e487b7100000000000000000000000000000000000000000000000000000000600052601160045260246000fd5b6000613618826126c4565b9150613623836126c4565b925082820390508181111561363b5761363a6135de565b5b92915050565b600061364c826126c4565b9150613657836126c4565b925082820190508082111561366f5761366e6135de565b5b92915050565b7f45524337323155524953746f726167653a2055524920736574206f66206e6f6e60008201527f6578697374656e7420746f6b656e000000000000000000000000000000000000602082015250565b60006136d1602e8361261d565b91506136dc82613675565b604082019050919050565b60006020820190508181036000830152613700816136c4565b9050919050565b60008190508160005260206000209050919050565b60006020601f8301049050919050565b600082821b905092915050565b6000600883026137697fffffffffffffffffffffffffffffffffffffffffffffffffffffffffffffffff8261372c565b613773868361372c565b95508019841693508086168417925050509392505050565b6000819050919050565b60006137b06137ab6137a6846126c4565b61378b565b6126c4565b9050919050565b6000819050919050565b6137ca83613795565b6137de6137d6826137b7565b848454613739565b825550505050565b600090565b6137f36137e6565b6137fe8184846137c1565b505050565b5b81811015613822576138176000826137eb565b600181019050613804565b5050565b601f8211156138675761383881613707565b6138418461371c565b81016020851015613850578190505b61386461385c8561371c565b830182613803565b50505b505050565b600082821c905092915050565b600061388a6000198460080261386c565b1980831691505092915050565b60006138a38383613879565b9150826002028217905092915050565b6138bc82612612565b67ffffffffffffffff8111156138d5576138d46128f6565b5b6138df8254612c69565b6138ea828285613826565b600060209050601f83116001811461391d576000841561390b578287015190505b6139158582613897565b86555061397d565b601f19841661392b86613707565b60005b828110156139535784890151825560018201915060208501945060208101905061392e565b86831015613970578489015161396c601f891682613879565b8355505b6001600288020188555050505b505050505050565b7f4552433732313a20617070726f766520746f2063616c6c657200000000000000600082015250565b60006139bb60198361261d565b91506139c682613985565b602082019050919050565b600060208201905081810360008301526139ea816139ae565b9050919050565b7f4552433732313a207472616e7366657220746f206e6f6e20455243373231526560008201527f63656976657220696d706c656d656e7465720000000000000000000000000000602082015250565b6000613a4d60328361261d565b9150613a58826139f1565b604082019050919050565b60006020820190508181036000830152613a7c81613a40565b9050919050565b7f45524337323155524953746f726167653a2055524920717565727920666f722060008201527f6e6f6e6578697374656e7420746f6b656e000000000000000000000000000000602082015250565b6000613adf60318361261d565b9150613aea82613a83565b604082019050919050565b60006020820190508181036000830152613b0e81613ad2565b9050919050565b600081905092915050565b6000613b2b82612612565b613b358185613b15565b9350613b4581856020860161262e565b80840191505092915050565b6000613b5d8285613b20565b9150613b698284613b20565b91508190509392505050565b600081519050919050565b600082825260208201905092915050565b6000613b9c82613b75565b613ba68185613b80565b9350613bb681856020860161262e565b613bbf81612658565b840191505092915050565b6000608082019050613bdf6000830187612759565b613bec6020830186612759565b613bf960408301856127ef565b8181036060830152613c0b8184613b91565b905095945050505050565b600081519050613c2581612583565b92915050565b600060208284031215613c4157613c4061254d565b5b6000613c4f84828501613c16565b91505092915050565b7f4552433732314d657461646174613a2055524920717565727920666f72206e6f60008201527f6e6578697374656e7420746f6b656e0000000000000000000000000000000000602082015250565b6000613cb4602f8361261d565b9150613cbf82613c58565b604082019050919050565b60006020820190508181036000830152613ce381613ca7565b9050919050565b7f4552433732313a206d696e7420746f20746865207a65726f2061646472657373600082015250565b6000613d2060208361261d565b9150613d2b82613cea565b602082019050919050565b60006020820190508181036000830152613d4f81613d13565b9050919050565b7f4552433732313a20746f6b656e20616c7265616479206d696e74656400000000600082015250565b6000613d8c601c8361261d565b9150613d9782613d56565b602082019050919050565b60006020820190508181036000830152613dbb81613d7f565b9050919050565b6000613dcd826126c4565b91507fffffffffffffffffffffffffffffffffffffffffffffffffffffffffffffffff8203613dff57613dfe6135de565b5b600182019050919050565b7f4e487b7100000000000000000000000000000000000000000000000000000000600052601260045260246000fd5b6000613e44826126c4565b9150613e4f836126c4565b925082613e5f57613e5e613e0a565b5b828204905092915050565b6000613e75826126c4565b9150613e80836126c4565b925082613e9057613e8f613e0a565b5b828206905092915050565b7f4e487b7100000000000000000000000000000000000000000000000000000000600052603160045260246000fdfea264697066735822122049e94dd1a43759e40dd14f357e0bfc473c7dc692557dae3d5ddbda8abb805e7364736f6c63430008110033",
  "immutableReferences": {},
  "source": "// SPDX-License-Identifier: MIT\npragma solidity ^0.8.7;\n\nimport \"openzeppelin-solidity/contracts/token/ERC721/ERC721.sol\";\nimport \"openzeppelin-solidity/contracts/token/ERC721/extensions/ERC721Enumerable.sol\";\nimport \"openzeppelin-solidity/contracts/token/ERC721/extensions/ERC721URIStorage.sol\";\nimport \"openzeppelin-solidity/contracts/access/Ownable.sol\";\nimport \"openzeppelin-solidity/contracts/utils/cryptography/ECDSA.sol\";\nimport { Clones } from \"openzeppelin-solidity/contracts/proxy/Clones.sol\";\n\nimport \"./ICosmoTreasury.sol\";\nimport \"./CosmoVault.sol\";\n\ncontract CosmoCreation is ERC721, ERC721Enumerable, ERC721URIStorage, Ownable {\n\n    struct Creation {\n        uint256 initialSupply;\n        address system;\n        address treasury;\n        address vault;\n        address vaultImplementation;\n    }\n    Creation public creation;\n\n    using ECDSA for bytes32;\n\n    constructor(\n        string memory _name,\n        string memory _symbol,\n        uint256 _supply,\n        address _systemAddress,\n        address _treasuryAddress,\n        address _vaultImplementation\n    )\n    ERC721(_name, _symbol)\n    {\n        creation.initialSupply = _supply;\n        creation.system = _systemAddress;\n        creation.treasury = _treasuryAddress;\n        creation.vaultImplementation = _vaultImplementation;\n    }\n\n    function _baseURI() internal pure override returns (string memory) {\n        return \"https://ipfs.io/ipfs/\";\n    }\n\n    function openVault(\n        address _cosmosAddress\n    ) internal returns (address) {\n        CosmoVault vault = CosmoVault(Clones.clone(creation.vaultImplementation));\n        vault.initialize(creation.system, _cosmosAddress);\n        creation.vault = address(vault);\n        return creation.vault;\n    }\n\n    function mintNut(string memory _nutCID) public payable {\n        uint256 nutIndex = totalSupply();\n        require(nutIndex < creation.initialSupply, \"Initial supply of nuts is depleted\");\n        uint256 nutPrice = ICosmoTreasury(creation.treasury).getPrice();\n        require(msg.value >= nutPrice, \"Ether value provided is not enough\");\n\n        _safeMint(msg.sender, nutIndex);\n        _setTokenURI(nutIndex, _nutCID);\n        ICosmoTreasury(creation.treasury).assignMintBalance(msg.sender, nutIndex);\n    }\n\n    // ----- The following functions are overrides required by Solidity -----\n    function _beforeTokenTransfer(address from, address to, uint256 tokenId) internal override(ERC721, ERC721Enumerable) {\n        super._beforeTokenTransfer(from, to, tokenId);\n    }\n\n    function _burn(uint256 tokenId) internal override(ERC721, ERC721URIStorage) {\n        super._burn(tokenId);\n    }\n\n    function tokenURI(uint256 tokenId) public view override(ERC721, ERC721URIStorage) returns (string memory) {\n        return super.tokenURI(tokenId);\n    }\n\n    function supportsInterface(bytes4 interfaceId) public view override(ERC721, ERC721Enumerable) returns (bool) {\n        return super.supportsInterface(interfaceId);\n    }\n    // -----      -----     -----     -----     -----\n}\n",
  "sourcePath": "/home/redlentils/Seafile/Websites/avatarnft/contracts/CosmoCreation.sol",
  "compiler": {
    "name": "solc",
    "version": "0.8.17+commit.8df45f5f.Emscripten.clang"
  },
  "schemaVersion": "3.4.10",
  "updatedAt": "2022-10-27T06:37:23.508Z",
  "devdoc": {
    "kind": "dev",
    "methods": {
      "approve(address,uint256)": {
        "details": "See {IERC721-approve}."
      },
      "balanceOf(address)": {
        "details": "See {IERC721-balanceOf}."
      },
      "getApproved(uint256)": {
        "details": "See {IERC721-getApproved}."
      },
      "isApprovedForAll(address,address)": {
        "details": "See {IERC721-isApprovedForAll}."
      },
      "name()": {
        "details": "See {IERC721Metadata-name}."
      },
      "owner()": {
        "details": "Returns the address of the current owner."
      },
      "ownerOf(uint256)": {
        "details": "See {IERC721-ownerOf}."
      },
      "renounceOwnership()": {
        "details": "Leaves the contract without owner. It will not be possible to call `onlyOwner` functions anymore. Can only be called by the current owner. NOTE: Renouncing ownership will leave the contract without an owner, thereby removing any functionality that is only available to the owner."
      },
      "safeTransferFrom(address,address,uint256)": {
        "details": "See {IERC721-safeTransferFrom}."
      },
      "safeTransferFrom(address,address,uint256,bytes)": {
        "details": "See {IERC721-safeTransferFrom}."
      },
      "setApprovalForAll(address,bool)": {
        "details": "See {IERC721-setApprovalForAll}."
      },
      "symbol()": {
        "details": "See {IERC721Metadata-symbol}."
      },
      "tokenByIndex(uint256)": {
        "details": "See {IERC721Enumerable-tokenByIndex}."
      },
      "tokenOfOwnerByIndex(address,uint256)": {
        "details": "See {IERC721Enumerable-tokenOfOwnerByIndex}."
      },
      "totalSupply()": {
        "details": "See {IERC721Enumerable-totalSupply}."
      },
      "transferFrom(address,address,uint256)": {
        "details": "See {IERC721-transferFrom}."
      },
      "transferOwnership(address)": {
        "details": "Transfers ownership of the contract to a new account (`newOwner`). Can only be called by the current owner."
      }
    },
    "version": 1
  },
  "userdoc": {
    "kind": "user",
    "methods": {},
    "version": 1
  }
}