{
  "contractName": "CosmoNuts",
  "abi": [
    {
      "inputs": [
        {
          "internalType": "string",
          "name": "_name",
          "type": "string"
        },
        {
          "internalType": "string",
          "name": "_symbol",
          "type": "string"
        },
        {
          "internalType": "uint256",
          "name": "_initialNFTSupply",
          "type": "uint256"
        },
        {
          "internalType": "address",
          "name": "_systemAddress",
          "type": "address"
        },
        {
          "internalType": "address",
          "name": "_treasuryAddress",
          "type": "address"
        },
        {
          "internalType": "address",
          "name": "_vaultImplementation",
          "type": "address"
        }
      ],
      "stateMutability": "nonpayable",
      "type": "constructor"
    },
    {
      "anonymous": false,
      "inputs": [
        {
          "indexed": true,
          "internalType": "address",
          "name": "owner",
          "type": "address"
        },
        {
          "indexed": true,
          "internalType": "address",
          "name": "approved",
          "type": "address"
        },
        {
          "indexed": true,
          "internalType": "uint256",
          "name": "tokenId",
          "type": "uint256"
        }
      ],
      "name": "Approval",
      "type": "event"
    },
    {
      "anonymous": false,
      "inputs": [
        {
          "indexed": true,
          "internalType": "address",
          "name": "owner",
          "type": "address"
        },
        {
          "indexed": true,
          "internalType": "address",
          "name": "operator",
          "type": "address"
        },
        {
          "indexed": false,
          "internalType": "bool",
          "name": "approved",
          "type": "bool"
        }
      ],
      "name": "ApprovalForAll",
      "type": "event"
    },
    {
      "anonymous": false,
      "inputs": [
        {
          "indexed": true,
          "internalType": "address",
          "name": "previousOwner",
          "type": "address"
        },
        {
          "indexed": true,
          "internalType": "address",
          "name": "newOwner",
          "type": "address"
        }
      ],
      "name": "OwnershipTransferred",
      "type": "event"
    },
    {
      "anonymous": false,
      "inputs": [
        {
          "indexed": true,
          "internalType": "address",
          "name": "from",
          "type": "address"
        },
        {
          "indexed": true,
          "internalType": "address",
          "name": "to",
          "type": "address"
        },
        {
          "indexed": true,
          "internalType": "uint256",
          "name": "tokenId",
          "type": "uint256"
        }
      ],
      "name": "Transfer",
      "type": "event"
    },
    {
      "inputs": [
        {
          "internalType": "address",
          "name": "to",
          "type": "address"
        },
        {
          "internalType": "uint256",
          "name": "tokenId",
          "type": "uint256"
        }
      ],
      "name": "approve",
      "outputs": [],
      "stateMutability": "nonpayable",
      "type": "function"
    },
    {
      "inputs": [
        {
          "internalType": "address",
          "name": "owner",
          "type": "address"
        }
      ],
      "name": "balanceOf",
      "outputs": [
        {
          "internalType": "uint256",
          "name": "",
          "type": "uint256"
        }
      ],
      "stateMutability": "view",
      "type": "function"
    },
    {
      "inputs": [],
      "name": "creation",
      "outputs": [
        {
          "internalType": "uint256",
          "name": "initialSupply",
          "type": "uint256"
        },
        {
          "internalType": "address",
          "name": "system",
          "type": "address"
        },
        {
          "internalType": "address",
          "name": "treasury",
          "type": "address"
        },
        {
          "internalType": "address",
          "name": "vault",
          "type": "address"
        },
        {
          "internalType": "address",
          "name": "vaultImplementation",
          "type": "address"
        }
      ],
      "stateMutability": "view",
      "type": "function"
    },
    {
      "inputs": [
        {
          "internalType": "uint256",
          "name": "tokenId",
          "type": "uint256"
        }
      ],
      "name": "getApproved",
      "outputs": [
        {
          "internalType": "address",
          "name": "",
          "type": "address"
        }
      ],
      "stateMutability": "view",
      "type": "function"
    },
    {
      "inputs": [
        {
          "internalType": "address",
          "name": "owner",
          "type": "address"
        },
        {
          "internalType": "address",
          "name": "operator",
          "type": "address"
        }
      ],
      "name": "isApprovedForAll",
      "outputs": [
        {
          "internalType": "bool",
          "name": "",
          "type": "bool"
        }
      ],
      "stateMutability": "view",
      "type": "function"
    },
    {
      "inputs": [
        {
          "internalType": "string",
          "name": "_nutCID",
          "type": "string"
        }
      ],
      "name": "mintNut",
      "outputs": [],
      "stateMutability": "payable",
      "type": "function"
    },
    {
      "inputs": [],
      "name": "name",
      "outputs": [
        {
          "internalType": "string",
          "name": "",
          "type": "string"
        }
      ],
      "stateMutability": "view",
      "type": "function"
    },
    {
      "inputs": [],
      "name": "owner",
      "outputs": [
        {
          "internalType": "address",
          "name": "",
          "type": "address"
        }
      ],
      "stateMutability": "view",
      "type": "function"
    },
    {
      "inputs": [
        {
          "internalType": "uint256",
          "name": "tokenId",
          "type": "uint256"
        }
      ],
      "name": "ownerOf",
      "outputs": [
        {
          "internalType": "address",
          "name": "",
          "type": "address"
        }
      ],
      "stateMutability": "view",
      "type": "function"
    },
    {
      "inputs": [],
      "name": "renounceOwnership",
      "outputs": [],
      "stateMutability": "nonpayable",
      "type": "function"
    },
    {
      "inputs": [
        {
          "internalType": "address",
          "name": "from",
          "type": "address"
        },
        {
          "internalType": "address",
          "name": "to",
          "type": "address"
        },
        {
          "internalType": "uint256",
          "name": "tokenId",
          "type": "uint256"
        }
      ],
      "name": "safeTransferFrom",
      "outputs": [],
      "stateMutability": "nonpayable",
      "type": "function"
    },
    {
      "inputs": [
        {
          "internalType": "address",
          "name": "from",
          "type": "address"
        },
        {
          "internalType": "address",
          "name": "to",
          "type": "address"
        },
        {
          "internalType": "uint256",
          "name": "tokenId",
          "type": "uint256"
        },
        {
          "internalType": "bytes",
          "name": "_data",
          "type": "bytes"
        }
      ],
      "name": "safeTransferFrom",
      "outputs": [],
      "stateMutability": "nonpayable",
      "type": "function"
    },
    {
      "inputs": [
        {
          "internalType": "address",
          "name": "operator",
          "type": "address"
        },
        {
          "internalType": "bool",
          "name": "approved",
          "type": "bool"
        }
      ],
      "name": "setApprovalForAll",
      "outputs": [],
      "stateMutability": "nonpayable",
      "type": "function"
    },
    {
      "inputs": [
        {
          "internalType": "bytes4",
          "name": "interfaceId",
          "type": "bytes4"
        }
      ],
      "name": "supportsInterface",
      "outputs": [
        {
          "internalType": "bool",
          "name": "",
          "type": "bool"
        }
      ],
      "stateMutability": "view",
      "type": "function"
    },
    {
      "inputs": [],
      "name": "symbol",
      "outputs": [
        {
          "internalType": "string",
          "name": "",
          "type": "string"
        }
      ],
      "stateMutability": "view",
      "type": "function"
    },
    {
      "inputs": [
        {
          "internalType": "uint256",
          "name": "index",
          "type": "uint256"
        }
      ],
      "name": "tokenByIndex",
      "outputs": [
        {
          "internalType": "uint256",
          "name": "",
          "type": "uint256"
        }
      ],
      "stateMutability": "view",
      "type": "function"
    },
    {
      "inputs": [
        {
          "internalType": "address",
          "name": "owner",
          "type": "address"
        },
        {
          "internalType": "uint256",
          "name": "index",
          "type": "uint256"
        }
      ],
      "name": "tokenOfOwnerByIndex",
      "outputs": [
        {
          "internalType": "uint256",
          "name": "",
          "type": "uint256"
        }
      ],
      "stateMutability": "view",
      "type": "function"
    },
    {
      "inputs": [
        {
          "internalType": "uint256",
          "name": "tokenId",
          "type": "uint256"
        }
      ],
      "name": "tokenURI",
      "outputs": [
        {
          "internalType": "string",
          "name": "",
          "type": "string"
        }
      ],
      "stateMutability": "view",
      "type": "function"
    },
    {
      "inputs": [],
      "name": "totalSupply",
      "outputs": [
        {
          "internalType": "uint256",
          "name": "",
          "type": "uint256"
        }
      ],
      "stateMutability": "view",
      "type": "function"
    },
    {
      "inputs": [
        {
          "internalType": "address",
          "name": "from",
          "type": "address"
        },
        {
          "internalType": "address",
          "name": "to",
          "type": "address"
        },
        {
          "internalType": "uint256",
          "name": "tokenId",
          "type": "uint256"
        }
      ],
      "name": "transferFrom",
      "outputs": [],
      "stateMutability": "nonpayable",
      "type": "function"
    },
    {
      "inputs": [
        {
          "internalType": "address",
          "name": "newOwner",
          "type": "address"
        }
      ],
      "name": "transferOwnership",
      "outputs": [],
      "stateMutability": "nonpayable",
      "type": "function"
    },
    {
      "inputs": [],
      "name": "vaultLocation",
      "outputs": [
        {
          "internalType": "address",
          "name": "",
          "type": "address"
        }
      ],
      "stateMutability": "view",
      "type": "function"
    },
    {
      "inputs": [
        {
          "internalType": "uint256",
          "name": "_nutId",
          "type": "uint256"
        },
        {
          "internalType": "string",
          "name": "_nutCID",
          "type": "string"
        }
      ],
      "name": "setTokenURI",
      "outputs": [],
      "stateMutability": "nonpayable",
      "type": "function"
    },
    {
      "inputs": [
        {
          "internalType": "uint256",
          "name": "_nutId",
          "type": "uint256"
        }
      ],
      "name": "getOwnerOf",
      "outputs": [
        {
          "internalType": "address",
          "name": "",
          "type": "address"
        }
      ],
      "stateMutability": "view",
      "type": "function"
    },
    {
      "inputs": [],
      "name": "createVault",
      "outputs": [
        {
          "internalType": "address",
          "name": "",
          "type": "address"
        }
      ],
      "stateMutability": "nonpayable",
      "type": "function"
    },
    {
      "inputs": [],
      "name": "withdraw",
      "outputs": [],
      "stateMutability": "nonpayable",
      "type": "function"
    },
    {
      "inputs": [
        {
          "internalType": "address",
          "name": "_to",
          "type": "address"
        }
      ],
      "name": "newNutMint",
      "outputs": [
        {
          "internalType": "uint256",
          "name": "",
          "type": "uint256"
        }
      ],
      "stateMutability": "nonpayable",
      "type": "function"
    },
    {
      "inputs": [
        {
          "internalType": "uint256",
          "name": "_nutId",
          "type": "uint256"
        },
        {
          "internalType": "bytes32",
          "name": "_secretHash",
          "type": "bytes32"
        },
        {
          "internalType": "string",
          "name": "_cidPath",
          "type": "string"
        },
        {
          "internalType": "bytes",
          "name": "_signature",
          "type": "bytes"
        }
      ],
      "name": "createSeed",
      "outputs": [
        {
          "internalType": "address",
          "name": "seedLocation",
          "type": "address"
        }
      ],
      "stateMutability": "payable",
      "type": "function"
    },
    {
      "inputs": [
        {
          "internalType": "uint256",
          "name": "_nutId",
          "type": "uint256"
        },
        {
          "internalType": "bytes32",
          "name": "_secretHash",
          "type": "bytes32"
        },
        {
          "internalType": "uint256",
          "name": "_matterContributed",
          "type": "uint256"
        },
        {
          "internalType": "uint256",
          "name": "_matterDrawRate",
          "type": "uint256"
        },
        {
          "internalType": "string",
          "name": "_cidPath",
          "type": "string"
        },
        {
          "internalType": "bytes",
          "name": "_signature",
          "type": "bytes"
        }
      ],
      "name": "createButter",
      "outputs": [
        {
          "internalType": "address",
          "name": "butterLocation",
          "type": "address"
        }
      ],
      "stateMutability": "nonpayable",
      "type": "function"
    }
  ],
  "bytecode": "0x60806040523480156200001157600080fd5b5060405162005fd338038062005fd38339818101604052810190620000379190620004dd565b85858585858585858160009081620000509190620007f8565b508060019081620000629190620007f8565b5050506200008562000079620001dc60201b60201c565b620001e460201b60201c565b83600c6000018190555082600c60010160006101000a81548173ffffffffffffffffffffffffffffffffffffffff021916908373ffffffffffffffffffffffffffffffffffffffff16021790555081600c60020160006101000a81548173ffffffffffffffffffffffffffffffffffffffff021916908373ffffffffffffffffffffffffffffffffffffffff16021790555080600c60040160006101000a81548173ffffffffffffffffffffffffffffffffffffffff021916908373ffffffffffffffffffffffffffffffffffffffff1602179055505050505050508173ffffffffffffffffffffffffffffffffffffffff1663a56c5a78306040518263ffffffff1660e01b81526004016200019c9190620008f0565b600060405180830381600087803b158015620001b757600080fd5b505af1158015620001cc573d6000803e3d6000fd5b505050505050505050506200090d565b600033905090565b6000600b60009054906101000a900473ffffffffffffffffffffffffffffffffffffffff16905081600b60006101000a81548173ffffffffffffffffffffffffffffffffffffffff021916908373ffffffffffffffffffffffffffffffffffffffff1602179055508173ffffffffffffffffffffffffffffffffffffffff168173ffffffffffffffffffffffffffffffffffffffff167f8be0079c531659141344cd1fd0a4f28419497f9722a3daafe3b4186f6b6457e060405160405180910390a35050565b6000604051905090565b600080fd5b600080fd5b600080fd5b600080fd5b6000601f19601f8301169050919050565b7f4e487b7100000000000000000000000000000000000000000000000000000000600052604160045260246000fd5b6200031382620002c8565b810181811067ffffffffffffffff82111715620003355762000334620002d9565b5b80604052505050565b60006200034a620002aa565b905062000358828262000308565b919050565b600067ffffffffffffffff8211156200037b576200037a620002d9565b5b6200038682620002c8565b9050602081019050919050565b60005b83811015620003b357808201518184015260208101905062000396565b60008484015250505050565b6000620003d6620003d0846200035d565b6200033e565b905082815260208101848484011115620003f557620003f4620002c3565b5b6200040284828562000393565b509392505050565b600082601f830112620004225762000421620002be565b5b815162000434848260208601620003bf565b91505092915050565b6000819050919050565b62000452816200043d565b81146200045e57600080fd5b50565b600081519050620004728162000447565b92915050565b600073ffffffffffffffffffffffffffffffffffffffff82169050919050565b6000620004a58262000478565b9050919050565b620004b78162000498565b8114620004c357600080fd5b50565b600081519050620004d781620004ac565b92915050565b60008060008060008060c08789031215620004fd57620004fc620002b4565b5b600087015167ffffffffffffffff8111156200051e576200051d620002b9565b5b6200052c89828a016200040a565b965050602087015167ffffffffffffffff81111562000550576200054f620002b9565b5b6200055e89828a016200040a565b95505060406200057189828a0162000461565b94505060606200058489828a01620004c6565b93505060806200059789828a01620004c6565b92505060a0620005aa89828a01620004c6565b9150509295509295509295565b600081519050919050565b7f4e487b7100000000000000000000000000000000000000000000000000000000600052602260045260246000fd5b600060028204905060018216806200060a57607f821691505b60208210810362000620576200061f620005c2565b5b50919050565b60008190508160005260206000209050919050565b60006020601f8301049050919050565b600082821b905092915050565b6000600883026200068a7fffffffffffffffffffffffffffffffffffffffffffffffffffffffffffffffff826200064b565b6200069686836200064b565b95508019841693508086168417925050509392505050565b6000819050919050565b6000620006d9620006d3620006cd846200043d565b620006ae565b6200043d565b9050919050565b6000819050919050565b620006f583620006b8565b6200070d6200070482620006e0565b84845462000658565b825550505050565b600090565b6200072462000715565b62000731818484620006ea565b505050565b5b8181101562000759576200074d6000826200071a565b60018101905062000737565b5050565b601f821115620007a857620007728162000626565b6200077d846200063b565b810160208510156200078d578190505b620007a56200079c856200063b565b83018262000736565b50505b505050565b600082821c905092915050565b6000620007cd60001984600802620007ad565b1980831691505092915050565b6000620007e88383620007ba565b9150826002028217905092915050565b6200080382620005b7565b67ffffffffffffffff8111156200081f576200081e620002d9565b5b6200082b8254620005f1565b620008388282856200075d565b600060209050601f8311600181146200087057600084156200085b578287015190505b620008678582620007da565b865550620008d7565b601f198416620008808662000626565b60005b82811015620008aa5784890151825560018201915060208501945060208101905062000883565b86831015620008ca5784890151620008c6601f891682620007ba565b8355505b6001600288020188555050505b505050505050565b620008ea8162000498565b82525050565b6000602082019050620009076000830184620008df565b92915050565b6156b6806200091d6000396000f3fe6080604052600436106101c25760003560e01c80635d12928b116100f757806395d89b4111610095578063c87b56dd11610064578063c87b56dd1461065d578063e985e9c51461069a578063f23c9583146106d7578063f2fde38b14610707576101c2565b806395d89b41146105c457806395f04d05146105ef578063a22cb4651461060b578063b88d4fde14610634576101c2565b806370a08231116100d157806370a0823114610508578063715018a614610545578063836387101461055c5780638da5cb5b14610599576101c2565b80635d12928b146104635780635f9ff4a11461048e5780636352211e146104cb576101c2565b806318160ddd1161016457806334eff41a1161013e57806334eff41a146103a95780633ccfd60b146103e657806342842e0e146103fd5780634f6ccce714610426576101c2565b806318160ddd1461031857806323b872dd146103435780632f745c591461036c576101c2565b8063095ea7b3116101a0578063095ea7b31461026c5780630ef8dd951461029557806313845d2f146102c0578063162094c4146102ef576101c2565b806301ffc9a7146101c757806306fdde0314610204578063081812fc1461022f575b600080fd5b3480156101d357600080fd5b506101ee60048036038101906101e991906135ad565b610730565b6040516101fb91906135f5565b60405180910390f35b34801561021057600080fd5b50610219610742565b60405161022691906136a0565b60405180910390f35b34801561023b57600080fd5b50610256600480360381019061025191906136f8565b6107d4565b6040516102639190613766565b60405180910390f35b34801561027857600080fd5b50610293600480360381019061028e91906137ad565b610859565b005b3480156102a157600080fd5b506102aa610970565b6040516102b79190613766565b60405180910390f35b3480156102cc57600080fd5b506102d561099d565b6040516102e69594939291906137fc565b60405180910390f35b3480156102fb57600080fd5b5061031660048036038101906103119190613984565b610a41565b005b34801561032457600080fd5b5061032d610a4f565b60405161033a91906139e0565b60405180910390f35b34801561034f57600080fd5b5061036a600480360381019061036591906139fb565b610a5c565b005b34801561037857600080fd5b50610393600480360381019061038e91906137ad565b610abc565b6040516103a091906139e0565b60405180910390f35b3480156103b557600080fd5b506103d060048036038101906103cb9190613a4e565b610b61565b6040516103dd91906139e0565b60405180910390f35b3480156103f257600080fd5b506103fb610b81565b005b34801561040957600080fd5b50610424600480360381019061041f91906139fb565b610c8f565b005b34801561043257600080fd5b5061044d600480360381019061044891906136f8565b610caf565b60405161045a91906139e0565b60405180910390f35b34801561046f57600080fd5b50610478610d20565b6040516104859190613766565b60405180910390f35b34801561049a57600080fd5b506104b560048036038101906104b09190613b52565b610d30565b6040516104c29190613766565b60405180910390f35b3480156104d757600080fd5b506104f260048036038101906104ed91906136f8565b6110ef565b6040516104ff9190613766565b60405180910390f35b34801561051457600080fd5b5061052f600480360381019061052a9190613a4e565b6111a0565b60405161053c91906139e0565b60405180910390f35b34801561055157600080fd5b5061055a611257565b005b34801561056857600080fd5b50610583600480360381019061057e91906136f8565b6112df565b6040516105909190613766565b60405180910390f35b3480156105a557600080fd5b506105ae6112f1565b6040516105bb9190613766565b60405180910390f35b3480156105d057600080fd5b506105d961131b565b6040516105e691906136a0565b60405180910390f35b61060960048036038101906106049190613c17565b6113ad565b005b34801561061757600080fd5b50610632600480360381019061062d9190613c8c565b611596565b005b34801561064057600080fd5b5061065b60048036038101906106569190613ccc565b6115ac565b005b34801561066957600080fd5b50610684600480360381019061067f91906136f8565b61160e565b60405161069191906136a0565b60405180910390f35b3480156106a657600080fd5b506106c160048036038101906106bc9190613d4f565b611620565b6040516106ce91906135f5565b60405180910390f35b6106f160048036038101906106ec9190613d8f565b6116b4565b6040516106fe9190613766565b60405180910390f35b34801561071357600080fd5b5061072e60048036038101906107299190613a4e565b611d4a565b005b600061073b82611e41565b9050919050565b60606000805461075190613e5d565b80601f016020809104026020016040519081016040528092919081815260200182805461077d90613e5d565b80156107ca5780601f1061079f576101008083540402835291602001916107ca565b820191906000526020600020905b8154815290600101906020018083116107ad57829003601f168201915b5050505050905090565b60006107df82611ebb565b61081e576040517f08c379a000000000000000000000000000000000000000000000000000000000815260040161081590613f00565b60405180910390fd5b6004600083815260200190815260200160002060009054906101000a900473ffffffffffffffffffffffffffffffffffffffff169050919050565b6000610864826110ef565b90508073ffffffffffffffffffffffffffffffffffffffff168373ffffffffffffffffffffffffffffffffffffffff16036108d4576040517f08c379a00000000000000000000000000000000000000000000000000000000081526004016108cb90613f92565b60405180910390fd5b8073ffffffffffffffffffffffffffffffffffffffff166108f3611f27565b73ffffffffffffffffffffffffffffffffffffffff16148061092257506109218161091c611f27565b611620565b5b610961576040517f08c379a000000000000000000000000000000000000000000000000000000000815260040161095890614024565b60405180910390fd5b61096b8383611f2f565b505050565b6000600c60030160009054906101000a900473ffffffffffffffffffffffffffffffffffffffff16905090565b600c8060000154908060010160009054906101000a900473ffffffffffffffffffffffffffffffffffffffff16908060020160009054906101000a900473ffffffffffffffffffffffffffffffffffffffff16908060030160009054906101000a900473ffffffffffffffffffffffffffffffffffffffff16908060040160009054906101000a900473ffffffffffffffffffffffffffffffffffffffff16905085565b610a4b8282611fe8565b5050565b6000600880549050905090565b610a6d610a67611f27565b82612055565b610aac576040517f08c379a0000000000000000000000000000000000000000000000000000000008152600401610aa3906140b6565b60405180910390fd5b610ab7838383612133565b505050565b6000610ac7836111a0565b8210610b08576040517f08c379a0000000000000000000000000000000000000000000000000000000008152600401610aff90614148565b60405180910390fd5b600660008473ffffffffffffffffffffffffffffffffffffffff1673ffffffffffffffffffffffffffffffffffffffff168152602001908152602001600020600083815260200190815260200160002054905092915050565b600080610b6c610a4f565b9050610b788382612399565b80915050919050565b610b89611f27565b73ffffffffffffffffffffffffffffffffffffffff16610ba76112f1565b73ffffffffffffffffffffffffffffffffffffffff1614610bfd576040517f08c379a0000000000000000000000000000000000000000000000000000000008152600401610bf4906141b4565b60405180910390fd5b600047905060004711610c45576040517f08c379a0000000000000000000000000000000000000000000000000000000008152600401610c3c90614220565b60405180910390fd5b3373ffffffffffffffffffffffffffffffffffffffff166108fc829081150290604051600060405180830381858888f19350505050158015610c8b573d6000803e3d6000fd5b5050565b610caa838383604051806020016040528060008152506115ac565b505050565b6000610cb9610a4f565b8210610cfa576040517f08c379a0000000000000000000000000000000000000000000000000000000008152600401610cf1906142b2565b60405180910390fd5b60088281548110610d0e57610d0d6142d2565b5b90600052602060002001549050919050565b6000610d2b306123b7565b905090565b6000610d3b876110ef565b73ffffffffffffffffffffffffffffffffffffffff163373ffffffffffffffffffffffffffffffffffffffff1614610da8576040517f08c379a0000000000000000000000000000000000000000000000000000000008152600401610d9f9061434d565b60405180910390fd5b60008486610db6919061439c565b14610df6576040517f08c379a0000000000000000000000000000000000000000000000000000000008152600401610ded9061443f565b60405180910390fd5b6000600c60020160009054906101000a900473ffffffffffffffffffffffffffffffffffffffff1673ffffffffffffffffffffffffffffffffffffffff1663d798b462336040518263ffffffff1660e01b8152600401610e569190613766565b602060405180830381865afa158015610e73573d6000803e3d6000fd5b505050506040513d601f19601f82011682018060405250810190610e979190614474565b905085811015610edc576040517f08c379a0000000000000000000000000000000000000000000000000000000008152600401610ed390614513565b60405180910390fd5b600c60020160009054906101000a900473ffffffffffffffffffffffffffffffffffffffff1673ffffffffffffffffffffffffffffffffffffffff1663f3d8c7a733600c60020160009054906101000a900473ffffffffffffffffffffffffffffffffffffffff16896040518463ffffffff1660e01b8152600401610f6393929190614533565b6020604051808303816000875af1158015610f82573d6000803e3d6000fd5b505050506040513d601f19601f82011682018060405250810190610fa6919061457f565b50600c60020160009054906101000a900473ffffffffffffffffffffffffffffffffffffffff1673ffffffffffffffffffffffffffffffffffffffff166303f5de9d8988888b6040518563ffffffff1660e01b815260040161100b94939291906145bb565b6020604051808303816000875af115801561102a573d6000803e3d6000fd5b505050506040513d601f19601f8201168201806040525081019061104e9190614615565b9150600c60030160009054906101000a900473ffffffffffffffffffffffffffffffffffffffff1673ffffffffffffffffffffffffffffffffffffffff1663bd6af0098986866040518463ffffffff1660e01b81526004016110b293929190614697565b600060405180830381600087803b1580156110cc57600080fd5b505af11580156110e0573d6000803e3d6000fd5b50505050509695505050505050565b6000806002600084815260200190815260200160002060009054906101000a900473ffffffffffffffffffffffffffffffffffffffff169050600073ffffffffffffffffffffffffffffffffffffffff168173ffffffffffffffffffffffffffffffffffffffff1603611197576040517f08c379a000000000000000000000000000000000000000000000000000000000815260040161118e9061474e565b60405180910390fd5b80915050919050565b60008073ffffffffffffffffffffffffffffffffffffffff168273ffffffffffffffffffffffffffffffffffffffff1603611210576040517f08c379a0000000000000000000000000000000000000000000000000000000008152600401611207906147e0565b60405180910390fd5b600360008373ffffffffffffffffffffffffffffffffffffffff1673ffffffffffffffffffffffffffffffffffffffff168152602001908152602001600020549050919050565b61125f611f27565b73ffffffffffffffffffffffffffffffffffffffff1661127d6112f1565b73ffffffffffffffffffffffffffffffffffffffff16146112d3576040517f08c379a00000000000000000000000000000000000000000000000000000000081526004016112ca906141b4565b60405180910390fd5b6112dd60006124ee565b565b60006112ea826110ef565b9050919050565b6000600b60009054906101000a900473ffffffffffffffffffffffffffffffffffffffff16905090565b60606001805461132a90613e5d565b80601f016020809104026020016040519081016040528092919081815260200182805461135690613e5d565b80156113a35780601f10611378576101008083540402835291602001916113a3565b820191906000526020600020905b81548152906001019060200180831161138657829003601f168201915b5050505050905090565b60006113b7610a4f565b9050600c600001548110611400576040517f08c379a00000000000000000000000000000000000000000000000000000000081526004016113f790614872565b60405180910390fd5b6000600c60020160009054906101000a900473ffffffffffffffffffffffffffffffffffffffff1673ffffffffffffffffffffffffffffffffffffffff166398d5fdca6040518163ffffffff1660e01b8152600401602060405180830381865afa158015611472573d6000803e3d6000fd5b505050506040513d601f19601f820116820180604052508101906114969190614474565b9050803410156114db576040517f08c379a00000000000000000000000000000000000000000000000000000000081526004016114d290614904565b60405180910390fd5b6114e53383612399565b6114ef8284611fe8565b600c60020160009054906101000a900473ffffffffffffffffffffffffffffffffffffffff1673ffffffffffffffffffffffffffffffffffffffff1663c0bad4db336040518263ffffffff1660e01b815260040161154d9190613766565b6020604051808303816000875af115801561156c573d6000803e3d6000fd5b505050506040513d601f19601f82011682018060405250810190611590919061457f565b50505050565b6115a86115a1611f27565b83836125b4565b5050565b6115bd6115b7611f27565b83612055565b6115fc576040517f08c379a00000000000000000000000000000000000000000000000000000000081526004016115f3906140b6565b60405180910390fd5b61160884848484612720565b50505050565b60606116198261277c565b9050919050565b6000600560008473ffffffffffffffffffffffffffffffffffffffff1673ffffffffffffffffffffffffffffffffffffffff16815260200190815260200160002060008373ffffffffffffffffffffffffffffffffffffffff1673ffffffffffffffffffffffffffffffffffffffff16815260200190815260200160002060009054906101000a900460ff16905092915050565b60006116bf856110ef565b73ffffffffffffffffffffffffffffffffffffffff163373ffffffffffffffffffffffffffffffffffffffff161461172c576040517f08c379a00000000000000000000000000000000000000000000000000000000081526004016117239061434d565b60405180910390fd5b600c6000015461173a610a4f565b101561177b576040517f08c379a000000000000000000000000000000000000000000000000000000000815260040161177290614970565b60405180910390fd5b6000600c60020160009054906101000a900473ffffffffffffffffffffffffffffffffffffffff1673ffffffffffffffffffffffffffffffffffffffff1663bb5833af876040518263ffffffff1660e01b81526004016117db91906139e0565b602060405180830381865afa1580156117f8573d6000803e3d6000fd5b505050506040513d601f19601f8201168201806040525081019061181c9190614474565b905080341015611861576040517f08c379a0000000000000000000000000000000000000000000000000000000008152600401611858906149dc565b60405180910390fd5b6000600c60020160009054906101000a900473ffffffffffffffffffffffffffffffffffffffff1673ffffffffffffffffffffffffffffffffffffffff16638ed3df0f886040518263ffffffff1660e01b81526004016118c191906139e0565b602060405180830381865afa1580156118de573d6000803e3d6000fd5b505050506040513d601f19601f820116820180604052508101906119029190614474565b90506000600c60020160009054906101000a900473ffffffffffffffffffffffffffffffffffffffff1673ffffffffffffffffffffffffffffffffffffffff1663d798b462336040518263ffffffff1660e01b81526004016119649190613766565b602060405180830381865afa158015611981573d6000803e3d6000fd5b505050506040513d601f19601f820116820180604052508101906119a59190614474565b9050818110156119ea576040517f08c379a00000000000000000000000000000000000000000000000000000000081526004016119e190614a48565b60405180910390fd5b600c60020160009054906101000a900473ffffffffffffffffffffffffffffffffffffffff1673ffffffffffffffffffffffffffffffffffffffff1663f3d8c7a733600c60020160009054906101000a900473ffffffffffffffffffffffffffffffffffffffff16856040518463ffffffff1660e01b8152600401611a7193929190614533565b6020604051808303816000875af1158015611a90573d6000803e3d6000fd5b505050506040513d601f19601f82011682018060405250810190611ab4919061457f565b50600c60020160009054906101000a900473ffffffffffffffffffffffffffffffffffffffff1673ffffffffffffffffffffffffffffffffffffffff1663ff2cb34733846040518363ffffffff1660e01b8152600401611b15929190614a68565b6020604051808303816000875af1158015611b34573d6000803e3d6000fd5b505050506040513d601f19601f82011682018060405250810190611b589190614474565b50600c60020160009054906101000a900473ffffffffffffffffffffffffffffffffffffffff1673ffffffffffffffffffffffffffffffffffffffff1663fe774f9d89896040518363ffffffff1660e01b8152600401611bb9929190614a91565b6020604051808303816000875af1158015611bd8573d6000803e3d6000fd5b505050506040513d601f19601f82011682018060405250810190611bfc9190614615565b935060008473ffffffffffffffffffffffffffffffffffffffff1634604051611c2490614aeb565b60006040518083038185875af1925050503d8060008114611c61576040519150601f19603f3d011682016040523d82523d6000602084013e611c66565b606091505b5050905080611caa576040517f08c379a0000000000000000000000000000000000000000000000000000000008152600401611ca190614b4c565b60405180910390fd5b600c60030160009054906101000a900473ffffffffffffffffffffffffffffffffffffffff1673ffffffffffffffffffffffffffffffffffffffff1663bd6af0098a89896040518463ffffffff1660e01b8152600401611d0c93929190614697565b600060405180830381600087803b158015611d2657600080fd5b505af1158015611d3a573d6000803e3d6000fd5b5050505050505050949350505050565b611d52611f27565b73ffffffffffffffffffffffffffffffffffffffff16611d706112f1565b73ffffffffffffffffffffffffffffffffffffffff1614611dc6576040517f08c379a0000000000000000000000000000000000000000000000000000000008152600401611dbd906141b4565b60405180910390fd5b600073ffffffffffffffffffffffffffffffffffffffff168173ffffffffffffffffffffffffffffffffffffffff1603611e35576040517f08c379a0000000000000000000000000000000000000000000000000000000008152600401611e2c90614bde565b60405180910390fd5b611e3e816124ee565b50565b60007f780e9d63000000000000000000000000000000000000000000000000000000007bffffffffffffffffffffffffffffffffffffffffffffffffffffffff1916827bffffffffffffffffffffffffffffffffffffffffffffffffffffffff19161480611eb45750611eb3826128cd565b5b9050919050565b60008073ffffffffffffffffffffffffffffffffffffffff166002600084815260200190815260200160002060009054906101000a900473ffffffffffffffffffffffffffffffffffffffff1673ffffffffffffffffffffffffffffffffffffffff1614159050919050565b600033905090565b816004600083815260200190815260200160002060006101000a81548173ffffffffffffffffffffffffffffffffffffffff021916908373ffffffffffffffffffffffffffffffffffffffff160217905550808273ffffffffffffffffffffffffffffffffffffffff16611fa2836110ef565b73ffffffffffffffffffffffffffffffffffffffff167f8c5be1e5ebec7d5bd14f71427d1e84f3dd0314c0f7b2291e5b200ac8c7c3b92560405160405180910390a45050565b611ff182611ebb565b612030576040517f08c379a000000000000000000000000000000000000000000000000000000000815260040161202790614c70565b60405180910390fd5b80600a600084815260200190815260200160002090816120509190614e3c565b505050565b600061206082611ebb565b61209f576040517f08c379a000000000000000000000000000000000000000000000000000000000815260040161209690614f80565b60405180910390fd5b60006120aa836110ef565b90508073ffffffffffffffffffffffffffffffffffffffff168473ffffffffffffffffffffffffffffffffffffffff1614806120ec57506120eb8185611620565b5b8061212a57508373ffffffffffffffffffffffffffffffffffffffff16612112846107d4565b73ffffffffffffffffffffffffffffffffffffffff16145b91505092915050565b8273ffffffffffffffffffffffffffffffffffffffff16612153826110ef565b73ffffffffffffffffffffffffffffffffffffffff16146121a9576040517f08c379a00000000000000000000000000000000000000000000000000000000081526004016121a090615012565b60405180910390fd5b600073ffffffffffffffffffffffffffffffffffffffff168273ffffffffffffffffffffffffffffffffffffffff1603612218576040517f08c379a000000000000000000000000000000000000000000000000000000000815260040161220f906150a4565b60405180910390fd5b6122238383836129af565b61222e600082611f2f565b6001600360008573ffffffffffffffffffffffffffffffffffffffff1673ffffffffffffffffffffffffffffffffffffffff168152602001908152602001600020600082825461227e91906150f3565b925050819055506001600360008473ffffffffffffffffffffffffffffffffffffffff1673ffffffffffffffffffffffffffffffffffffffff16815260200190815260200160002060008282546122d59190615127565b92505081905550816002600083815260200190815260200160002060006101000a81548173ffffffffffffffffffffffffffffffffffffffff021916908373ffffffffffffffffffffffffffffffffffffffff160217905550808273ffffffffffffffffffffffffffffffffffffffff168473ffffffffffffffffffffffffffffffffffffffff167fddf252ad1be2c89b69c2b068fc378daa952ba7f163c4a11628f55a4df523b3ef60405160405180910390a46123948383836129bf565b505050565b6123b38282604051806020016040528060008152506129c4565b5050565b6000806123e8600c60040160009054906101000a900473ffffffffffffffffffffffffffffffffffffffff16612a1f565b90508073ffffffffffffffffffffffffffffffffffffffff1663485cc955600c60010160009054906101000a900473ffffffffffffffffffffffffffffffffffffffff16856040518363ffffffff1660e01b815260040161244a92919061515b565b600060405180830381600087803b15801561246457600080fd5b505af1158015612478573d6000803e3d6000fd5b5050505080600c60030160006101000a81548173ffffffffffffffffffffffffffffffffffffffff021916908373ffffffffffffffffffffffffffffffffffffffff160217905550600c60030160009054906101000a900473ffffffffffffffffffffffffffffffffffffffff16915050919050565b6000600b60009054906101000a900473ffffffffffffffffffffffffffffffffffffffff16905081600b60006101000a81548173ffffffffffffffffffffffffffffffffffffffff021916908373ffffffffffffffffffffffffffffffffffffffff1602179055508173ffffffffffffffffffffffffffffffffffffffff168173ffffffffffffffffffffffffffffffffffffffff167f8be0079c531659141344cd1fd0a4f28419497f9722a3daafe3b4186f6b6457e060405160405180910390a35050565b8173ffffffffffffffffffffffffffffffffffffffff168373ffffffffffffffffffffffffffffffffffffffff1603612622576040517f08c379a0000000000000000000000000000000000000000000000000000000008152600401612619906151d0565b60405180910390fd5b80600560008573ffffffffffffffffffffffffffffffffffffffff1673ffffffffffffffffffffffffffffffffffffffff16815260200190815260200160002060008473ffffffffffffffffffffffffffffffffffffffff1673ffffffffffffffffffffffffffffffffffffffff16815260200190815260200160002060006101000a81548160ff0219169083151502179055508173ffffffffffffffffffffffffffffffffffffffff168373ffffffffffffffffffffffffffffffffffffffff167f17307eab39ab6107e8899845ad3d59bd9653f200f220920489ca2b5937696c318360405161271391906135f5565b60405180910390a3505050565b61272b848484612133565b61273784848484612af3565b612776576040517f08c379a000000000000000000000000000000000000000000000000000000000815260040161276d90615262565b60405180910390fd5b50505050565b606061278782611ebb565b6127c6576040517f08c379a00000000000000000000000000000000000000000000000000000000081526004016127bd906152f4565b60405180910390fd5b6000600a600084815260200190815260200160002080546127e690613e5d565b80601f016020809104026020016040519081016040528092919081815260200182805461281290613e5d565b801561285f5780601f106128345761010080835404028352916020019161285f565b820191906000526020600020905b81548152906001019060200180831161284257829003601f168201915b505050505090506000612870612c7a565b905060008151036128855781925050506128c8565b6000825111156128ba5780826040516020016128a2929190615350565b604051602081830303815290604052925050506128c8565b6128c384612cb7565b925050505b919050565b60007f80ac58cd000000000000000000000000000000000000000000000000000000007bffffffffffffffffffffffffffffffffffffffffffffffffffffffff1916827bffffffffffffffffffffffffffffffffffffffffffffffffffffffff1916148061299857507f5b5e139f000000000000000000000000000000000000000000000000000000007bffffffffffffffffffffffffffffffffffffffffffffffffffffffff1916827bffffffffffffffffffffffffffffffffffffffffffffffffffffffff1916145b806129a857506129a782612d5e565b5b9050919050565b6129ba838383612dc8565b505050565b505050565b6129ce8383612eda565b6129db6000848484612af3565b612a1a576040517f08c379a0000000000000000000000000000000000000000000000000000000008152600401612a1190615262565b60405180910390fd5b505050565b60006040517f3d602d80600a3d3981f3363d3d373d3d3d363d7300000000000000000000000081528260601b60148201527f5af43d82803e903d91602b57fd5bf3000000000000000000000000000000000060288201526037816000f0915050600073ffffffffffffffffffffffffffffffffffffffff168173ffffffffffffffffffffffffffffffffffffffff1603612aee576040517f08c379a0000000000000000000000000000000000000000000000000000000008152600401612ae5906153c0565b60405180910390fd5b919050565b6000612b148473ffffffffffffffffffffffffffffffffffffffff166130b3565b15612c6d578373ffffffffffffffffffffffffffffffffffffffff1663150b7a02612b3d611f27565b8786866040518563ffffffff1660e01b8152600401612b5f94939291906153e0565b6020604051808303816000875af1925050508015612b9b57506040513d601f19601f82011682018060405250810190612b989190615441565b60015b612c1d573d8060008114612bcb576040519150601f19603f3d011682016040523d82523d6000602084013e612bd0565b606091505b506000815103612c15576040517f08c379a0000000000000000000000000000000000000000000000000000000008152600401612c0c90615262565b60405180910390fd5b805181602001fd5b63150b7a0260e01b7bffffffffffffffffffffffffffffffffffffffffffffffffffffffff1916817bffffffffffffffffffffffffffffffffffffffffffffffffffffffff191614915050612c72565b600190505b949350505050565b60606040518060400160405280601581526020017f68747470733a2f2f697066732e696f2f697066732f0000000000000000000000815250905090565b6060612cc282611ebb565b612d01576040517f08c379a0000000000000000000000000000000000000000000000000000000008152600401612cf8906154e0565b60405180910390fd5b6000612d0b612c7a565b90506000815111612d2b5760405180602001604052806000815250612d56565b80612d35846130d6565b604051602001612d46929190615350565b6040516020818303038152906040525b915050919050565b60007f01ffc9a7000000000000000000000000000000000000000000000000000000007bffffffffffffffffffffffffffffffffffffffffffffffffffffffff1916827bffffffffffffffffffffffffffffffffffffffffffffffffffffffff1916149050919050565b612dd3838383613236565b600073ffffffffffffffffffffffffffffffffffffffff168373ffffffffffffffffffffffffffffffffffffffff1603612e1557612e108161323b565b612e54565b8173ffffffffffffffffffffffffffffffffffffffff168373ffffffffffffffffffffffffffffffffffffffff1614612e5357612e528382613284565b5b5b600073ffffffffffffffffffffffffffffffffffffffff168273ffffffffffffffffffffffffffffffffffffffff1603612e9657612e91816133f1565b612ed5565b8273ffffffffffffffffffffffffffffffffffffffff168273ffffffffffffffffffffffffffffffffffffffff1614612ed457612ed382826134c2565b5b5b505050565b600073ffffffffffffffffffffffffffffffffffffffff168273ffffffffffffffffffffffffffffffffffffffff1603612f49576040517f08c379a0000000000000000000000000000000000000000000000000000000008152600401612f409061554c565b60405180910390fd5b612f5281611ebb565b15612f92576040517f08c379a0000000000000000000000000000000000000000000000000000000008152600401612f89906155b8565b60405180910390fd5b612f9e600083836129af565b6001600360008473ffffffffffffffffffffffffffffffffffffffff1673ffffffffffffffffffffffffffffffffffffffff1681526020019081526020016000206000828254612fee9190615127565b92505081905550816002600083815260200190815260200160002060006101000a81548173ffffffffffffffffffffffffffffffffffffffff021916908373ffffffffffffffffffffffffffffffffffffffff160217905550808273ffffffffffffffffffffffffffffffffffffffff16600073ffffffffffffffffffffffffffffffffffffffff167fddf252ad1be2c89b69c2b068fc378daa952ba7f163c4a11628f55a4df523b3ef60405160405180910390a46130af600083836129bf565b5050565b6000808273ffffffffffffffffffffffffffffffffffffffff163b119050919050565b60606000820361311d576040518060400160405280600181526020017f30000000000000000000000000000000000000000000000000000000000000008152509050613231565b600082905060005b6000821461314f578080613138906155d8565b915050600a826131489190615620565b9150613125565b60008167ffffffffffffffff81111561316b5761316a613859565b5b6040519080825280601f01601f19166020018201604052801561319d5781602001600182028036833780820191505090505b5090505b6000851461322a576001826131b691906150f3565b9150600a856131c5919061439c565b60306131d19190615127565b60f81b8183815181106131e7576131e66142d2565b5b60200101907effffffffffffffffffffffffffffffffffffffffffffffffffffffffffffff1916908160001a905350600a856132239190615620565b94506131a1565b8093505050505b919050565b505050565b6008805490506009600083815260200190815260200160002081905550600881908060018154018082558091505060019003906000526020600020016000909190919091505550565b60006001613291846111a0565b61329b91906150f3565b9050600060076000848152602001908152602001600020549050818114613380576000600660008673ffffffffffffffffffffffffffffffffffffffff1673ffffffffffffffffffffffffffffffffffffffff168152602001908152602001600020600084815260200190815260200160002054905080600660008773ffffffffffffffffffffffffffffffffffffffff1673ffffffffffffffffffffffffffffffffffffffff168152602001908152602001600020600084815260200190815260200160002081905550816007600083815260200190815260200160002081905550505b6007600084815260200190815260200160002060009055600660008573ffffffffffffffffffffffffffffffffffffffff1673ffffffffffffffffffffffffffffffffffffffff16815260200190815260200160002060008381526020019081526020016000206000905550505050565b6000600160088054905061340591906150f3565b9050600060096000848152602001908152602001600020549050600060088381548110613435576134346142d2565b5b906000526020600020015490508060088381548110613457576134566142d2565b5b9060005260206000200181905550816009600083815260200190815260200160002081905550600960008581526020019081526020016000206000905560088054806134a6576134a5615651565b5b6001900381819060005260206000200160009055905550505050565b60006134cd836111a0565b905081600660008573ffffffffffffffffffffffffffffffffffffffff1673ffffffffffffffffffffffffffffffffffffffff168152602001908152602001600020600083815260200190815260200160002081905550806007600084815260200190815260200160002081905550505050565b6000604051905090565b600080fd5b600080fd5b60007fffffffff0000000000000000000000000000000000000000000000000000000082169050919050565b61358a81613555565b811461359557600080fd5b50565b6000813590506135a781613581565b92915050565b6000602082840312156135c3576135c261354b565b5b60006135d184828501613598565b91505092915050565b60008115159050919050565b6135ef816135da565b82525050565b600060208201905061360a60008301846135e6565b92915050565b600081519050919050565b600082825260208201905092915050565b60005b8381101561364a57808201518184015260208101905061362f565b60008484015250505050565b6000601f19601f8301169050919050565b600061367282613610565b61367c818561361b565b935061368c81856020860161362c565b61369581613656565b840191505092915050565b600060208201905081810360008301526136ba8184613667565b905092915050565b6000819050919050565b6136d5816136c2565b81146136e057600080fd5b50565b6000813590506136f2816136cc565b92915050565b60006020828403121561370e5761370d61354b565b5b600061371c848285016136e3565b91505092915050565b600073ffffffffffffffffffffffffffffffffffffffff82169050919050565b600061375082613725565b9050919050565b61376081613745565b82525050565b600060208201905061377b6000830184613757565b92915050565b61378a81613745565b811461379557600080fd5b50565b6000813590506137a781613781565b92915050565b600080604083850312156137c4576137c361354b565b5b60006137d285828601613798565b92505060206137e3858286016136e3565b9150509250929050565b6137f6816136c2565b82525050565b600060a08201905061381160008301886137ed565b61381e6020830187613757565b61382b6040830186613757565b6138386060830185613757565b6138456080830184613757565b9695505050505050565b600080fd5b600080fd5b7f4e487b7100000000000000000000000000000000000000000000000000000000600052604160045260246000fd5b61389182613656565b810181811067ffffffffffffffff821117156138b0576138af613859565b5b80604052505050565b60006138c3613541565b90506138cf8282613888565b919050565b600067ffffffffffffffff8211156138ef576138ee613859565b5b6138f882613656565b9050602081019050919050565b82818337600083830152505050565b6000613927613922846138d4565b6138b9565b90508281526020810184848401111561394357613942613854565b5b61394e848285613905565b509392505050565b600082601f83011261396b5761396a61384f565b5b813561397b848260208601613914565b91505092915050565b6000806040838503121561399b5761399a61354b565b5b60006139a9858286016136e3565b925050602083013567ffffffffffffffff8111156139ca576139c9613550565b5b6139d685828601613956565b9150509250929050565b60006020820190506139f560008301846137ed565b92915050565b600080600060608486031215613a1457613a1361354b565b5b6000613a2286828701613798565b9350506020613a3386828701613798565b9250506040613a44868287016136e3565b9150509250925092565b600060208284031215613a6457613a6361354b565b5b6000613a7284828501613798565b91505092915050565b6000819050919050565b613a8e81613a7b565b8114613a9957600080fd5b50565b600081359050613aab81613a85565b92915050565b600067ffffffffffffffff821115613acc57613acb613859565b5b613ad582613656565b9050602081019050919050565b6000613af5613af084613ab1565b6138b9565b905082815260208101848484011115613b1157613b10613854565b5b613b1c848285613905565b509392505050565b600082601f830112613b3957613b3861384f565b5b8135613b49848260208601613ae2565b91505092915050565b60008060008060008060c08789031215613b6f57613b6e61354b565b5b6000613b7d89828a016136e3565b9650506020613b8e89828a01613a9c565b9550506040613b9f89828a016136e3565b9450506060613bb089828a016136e3565b935050608087013567ffffffffffffffff811115613bd157613bd0613550565b5b613bdd89828a01613956565b92505060a087013567ffffffffffffffff811115613bfe57613bfd613550565b5b613c0a89828a01613b24565b9150509295509295509295565b600060208284031215613c2d57613c2c61354b565b5b600082013567ffffffffffffffff811115613c4b57613c4a613550565b5b613c5784828501613956565b91505092915050565b613c69816135da565b8114613c7457600080fd5b50565b600081359050613c8681613c60565b92915050565b60008060408385031215613ca357613ca261354b565b5b6000613cb185828601613798565b9250506020613cc285828601613c77565b9150509250929050565b60008060008060808587031215613ce657613ce561354b565b5b6000613cf487828801613798565b9450506020613d0587828801613798565b9350506040613d16878288016136e3565b925050606085013567ffffffffffffffff811115613d3757613d36613550565b5b613d4387828801613b24565b91505092959194509250565b60008060408385031215613d6657613d6561354b565b5b6000613d7485828601613798565b9250506020613d8585828601613798565b9150509250929050565b60008060008060808587031215613da957613da861354b565b5b6000613db7878288016136e3565b9450506020613dc887828801613a9c565b935050604085013567ffffffffffffffff811115613de957613de8613550565b5b613df587828801613956565b925050606085013567ffffffffffffffff811115613e1657613e15613550565b5b613e2287828801613b24565b91505092959194509250565b7f4e487b7100000000000000000000000000000000000000000000000000000000600052602260045260246000fd5b60006002820490506001821680613e7557607f821691505b602082108103613e8857613e87613e2e565b5b50919050565b7f4552433732313a20617070726f76656420717565727920666f72206e6f6e657860008201527f697374656e7420746f6b656e0000000000000000000000000000000000000000602082015250565b6000613eea602c8361361b565b9150613ef582613e8e565b604082019050919050565b60006020820190508181036000830152613f1981613edd565b9050919050565b7f4552433732313a20617070726f76616c20746f2063757272656e74206f776e6560008201527f7200000000000000000000000000000000000000000000000000000000000000602082015250565b6000613f7c60218361361b565b9150613f8782613f20565b604082019050919050565b60006020820190508181036000830152613fab81613f6f565b9050919050565b7f4552433732313a20617070726f76652063616c6c6572206973206e6f74206f7760008201527f6e6572206e6f7220617070726f76656420666f7220616c6c0000000000000000602082015250565b600061400e60388361361b565b915061401982613fb2565b604082019050919050565b6000602082019050818103600083015261403d81614001565b9050919050565b7f4552433732313a207472616e736665722063616c6c6572206973206e6f74206f60008201527f776e6572206e6f7220617070726f766564000000000000000000000000000000602082015250565b60006140a060318361361b565b91506140ab82614044565b604082019050919050565b600060208201905081810360008301526140cf81614093565b9050919050565b7f455243373231456e756d657261626c653a206f776e657220696e646578206f7560008201527f74206f6620626f756e6473000000000000000000000000000000000000000000602082015250565b6000614132602b8361361b565b915061413d826140d6565b604082019050919050565b6000602082019050818103600083015261416181614125565b9050919050565b7f4f776e61626c653a2063616c6c6572206973206e6f7420746865206f776e6572600082015250565b600061419e60208361361b565b91506141a982614168565b602082019050919050565b600060208201905081810360008301526141cd81614191565b9050919050565b7f4e6f2062616c616e636520746f20776974686472617700000000000000000000600082015250565b600061420a60168361361b565b9150614215826141d4565b602082019050919050565b60006020820190508181036000830152614239816141fd565b9050919050565b7f455243373231456e756d657261626c653a20676c6f62616c20696e646578206f60008201527f7574206f6620626f756e64730000000000000000000000000000000000000000602082015250565b600061429c602c8361361b565b91506142a782614240565b604082019050919050565b600060208201905081810360008301526142cb8161428f565b9050919050565b7f4e487b7100000000000000000000000000000000000000000000000000000000600052603260045260246000fd5b7f43616c6c6572206973206e6f74206f776e6572206f66206e7574000000000000600082015250565b6000614337601a8361361b565b915061434282614301565b602082019050919050565b600060208201905081810360008301526143668161432a565b9050919050565b7f4e487b7100000000000000000000000000000000000000000000000000000000600052601260045260246000fd5b60006143a7826136c2565b91506143b2836136c2565b9250826143c2576143c161436d565b5b828206905092915050565b7f447261772072617465206e6f7420706572666563746c7920646976697369626c60008201527f6520627920636f6e747269627574696f6e000000000000000000000000000000602082015250565b600061442960318361361b565b9150614434826143cd565b604082019050919050565b600060208201905081810360008301526144588161441c565b9050919050565b60008151905061446e816136cc565b92915050565b60006020828403121561448a5761448961354b565b5b60006144988482850161445f565b91505092915050565b7f4d6174746572206f776e6564206973206c657373207468616e2064657369726560008201527f6420636f6e747269627574696f6e000000000000000000000000000000000000602082015250565b60006144fd602e8361361b565b9150614508826144a1565b604082019050919050565b6000602082019050818103600083015261452c816144f0565b9050919050565b60006060820190506145486000830186613757565b6145556020830185613757565b61456260408301846137ed565b949350505050565b60008151905061457981613c60565b92915050565b6000602082840312156145955761459461354b565b5b60006145a38482850161456a565b91505092915050565b6145b581613a7b565b82525050565b60006080820190506145d060008301876137ed565b6145dd60208301866137ed565b6145ea60408301856137ed565b6145f760608301846145ac565b95945050505050565b60008151905061460f81613781565b92915050565b60006020828403121561462b5761462a61354b565b5b600061463984828501614600565b91505092915050565b600081519050919050565b600082825260208201905092915050565b600061466982614642565b614673818561464d565b935061468381856020860161362c565b61468c81613656565b840191505092915050565b60006060820190506146ac60008301866137ed565b81810360208301526146be8185613667565b905081810360408301526146d2818461465e565b9050949350505050565b7f4552433732313a206f776e657220717565727920666f72206e6f6e657869737460008201527f656e7420746f6b656e0000000000000000000000000000000000000000000000602082015250565b600061473860298361361b565b9150614743826146dc565b604082019050919050565b600060208201905081810360008301526147678161472b565b9050919050565b7f4552433732313a2062616c616e636520717565727920666f7220746865207a6560008201527f726f206164647265737300000000000000000000000000000000000000000000602082015250565b60006147ca602a8361361b565b91506147d58261476e565b604082019050919050565b600060208201905081810360008301526147f9816147bd565b9050919050565b7f496e697469616c20737570706c79206f66206e757473206973206465706c657460008201527f6564000000000000000000000000000000000000000000000000000000000000602082015250565b600061485c60228361361b565b915061486782614800565b604082019050919050565b6000602082019050818103600083015261488b8161484f565b9050919050565b7f45746865722076616c75652070726f7669646564206973206e6f7420656e6f7560008201527f6768000000000000000000000000000000000000000000000000000000000000602082015250565b60006148ee60228361361b565b91506148f982614892565b604082019050919050565b6000602082019050818103600083015261491d816148e1565b9050919050565b7f4e757473207374696c6c2065786973742066726f6d206372656174696f6e0000600082015250565b600061495a601e8361361b565b915061496582614924565b602082019050919050565b600060208201905081810360008301526149898161494d565b9050919050565b7f45746865722076616c7565206973206e6f7420656e6f75676800000000000000600082015250565b60006149c660198361361b565b91506149d182614990565b602082019050919050565b600060208201905081810360008301526149f5816149b9565b9050919050565b7f4d61747465722062616c616e6365206973206e6f7420656e6f75676800000000600082015250565b6000614a32601c8361361b565b9150614a3d826149fc565b602082019050919050565b60006020820190508181036000830152614a6181614a25565b9050919050565b6000604082019050614a7d6000830185613757565b614a8a60208301846137ed565b9392505050565b6000604082019050614aa660008301856137ed565b614ab360208301846145ac565b9392505050565b600081905092915050565b50565b6000614ad5600083614aba565b9150614ae082614ac5565b600082019050919050565b6000614af682614ac8565b9150819050919050565b7f4574686572206e6f742073656e7420746f207365656400000000000000000000600082015250565b6000614b3660168361361b565b9150614b4182614b00565b602082019050919050565b60006020820190508181036000830152614b6581614b29565b9050919050565b7f4f776e61626c653a206e6577206f776e657220697320746865207a65726f206160008201527f6464726573730000000000000000000000000000000000000000000000000000602082015250565b6000614bc860268361361b565b9150614bd382614b6c565b604082019050919050565b60006020820190508181036000830152614bf781614bbb565b9050919050565b7f45524337323155524953746f726167653a2055524920736574206f66206e6f6e60008201527f6578697374656e7420746f6b656e000000000000000000000000000000000000602082015250565b6000614c5a602e8361361b565b9150614c6582614bfe565b604082019050919050565b60006020820190508181036000830152614c8981614c4d565b9050919050565b60008190508160005260206000209050919050565b60006020601f8301049050919050565b600082821b905092915050565b600060088302614cf27fffffffffffffffffffffffffffffffffffffffffffffffffffffffffffffffff82614cb5565b614cfc8683614cb5565b95508019841693508086168417925050509392505050565b6000819050919050565b6000614d39614d34614d2f846136c2565b614d14565b6136c2565b9050919050565b6000819050919050565b614d5383614d1e565b614d67614d5f82614d40565b848454614cc2565b825550505050565b600090565b614d7c614d6f565b614d87818484614d4a565b505050565b5b81811015614dab57614da0600082614d74565b600181019050614d8d565b5050565b601f821115614df057614dc181614c90565b614dca84614ca5565b81016020851015614dd9578190505b614ded614de585614ca5565b830182614d8c565b50505b505050565b600082821c905092915050565b6000614e1360001984600802614df5565b1980831691505092915050565b6000614e2c8383614e02565b9150826002028217905092915050565b614e4582613610565b67ffffffffffffffff811115614e5e57614e5d613859565b5b614e688254613e5d565b614e73828285614daf565b600060209050601f831160018114614ea65760008415614e94578287015190505b614e9e8582614e20565b865550614f06565b601f198416614eb486614c90565b60005b82811015614edc57848901518255600182019150602085019450602081019050614eb7565b86831015614ef95784890151614ef5601f891682614e02565b8355505b6001600288020188555050505b505050505050565b7f4552433732313a206f70657261746f7220717565727920666f72206e6f6e657860008201527f697374656e7420746f6b656e0000000000000000000000000000000000000000602082015250565b6000614f6a602c8361361b565b9150614f7582614f0e565b604082019050919050565b60006020820190508181036000830152614f9981614f5d565b9050919050565b7f4552433732313a207472616e736665722066726f6d20696e636f72726563742060008201527f6f776e6572000000000000000000000000000000000000000000000000000000602082015250565b6000614ffc60258361361b565b915061500782614fa0565b604082019050919050565b6000602082019050818103600083015261502b81614fef565b9050919050565b7f4552433732313a207472616e7366657220746f20746865207a65726f2061646460008201527f7265737300000000000000000000000000000000000000000000000000000000602082015250565b600061508e60248361361b565b915061509982615032565b604082019050919050565b600060208201905081810360008301526150bd81615081565b9050919050565b7f4e487b7100000000000000000000000000000000000000000000000000000000600052601160045260246000fd5b60006150fe826136c2565b9150615109836136c2565b9250828203905081811115615121576151206150c4565b5b92915050565b6000615132826136c2565b915061513d836136c2565b9250828201905080821115615155576151546150c4565b5b92915050565b60006040820190506151706000830185613757565b61517d6020830184613757565b9392505050565b7f4552433732313a20617070726f766520746f2063616c6c657200000000000000600082015250565b60006151ba60198361361b565b91506151c582615184565b602082019050919050565b600060208201905081810360008301526151e9816151ad565b9050919050565b7f4552433732313a207472616e7366657220746f206e6f6e20455243373231526560008201527f63656976657220696d706c656d656e7465720000000000000000000000000000602082015250565b600061524c60328361361b565b9150615257826151f0565b604082019050919050565b6000602082019050818103600083015261527b8161523f565b9050919050565b7f45524337323155524953746f726167653a2055524920717565727920666f722060008201527f6e6f6e6578697374656e7420746f6b656e000000000000000000000000000000602082015250565b60006152de60318361361b565b91506152e982615282565b604082019050919050565b6000602082019050818103600083015261530d816152d1565b9050919050565b600081905092915050565b600061532a82613610565b6153348185615314565b935061534481856020860161362c565b80840191505092915050565b600061535c828561531f565b9150615368828461531f565b91508190509392505050565b7f455243313136373a20637265617465206661696c656400000000000000000000600082015250565b60006153aa60168361361b565b91506153b582615374565b602082019050919050565b600060208201905081810360008301526153d98161539d565b9050919050565b60006080820190506153f56000830187613757565b6154026020830186613757565b61540f60408301856137ed565b8181036060830152615421818461465e565b905095945050505050565b60008151905061543b81613581565b92915050565b6000602082840312156154575761545661354b565b5b60006154658482850161542c565b91505092915050565b7f4552433732314d657461646174613a2055524920717565727920666f72206e6f60008201527f6e6578697374656e7420746f6b656e0000000000000000000000000000000000602082015250565b60006154ca602f8361361b565b91506154d58261546e565b604082019050919050565b600060208201905081810360008301526154f9816154bd565b9050919050565b7f4552433732313a206d696e7420746f20746865207a65726f2061646472657373600082015250565b600061553660208361361b565b915061554182615500565b602082019050919050565b6000602082019050818103600083015261556581615529565b9050919050565b7f4552433732313a20746f6b656e20616c7265616479206d696e74656400000000600082015250565b60006155a2601c8361361b565b91506155ad8261556c565b602082019050919050565b600060208201905081810360008301526155d181615595565b9050919050565b60006155e3826136c2565b91507fffffffffffffffffffffffffffffffffffffffffffffffffffffffffffffffff8203615615576156146150c4565b5b600182019050919050565b600061562b826136c2565b9150615636836136c2565b9250826156465761564561436d565b5b828204905092915050565b7f4e487b7100000000000000000000000000000000000000000000000000000000600052603160045260246000fdfea2646970667358221220322cb59db12a968aadef8e9d2f8e8996f4ccc7ec0d5ae45ae05c334b35d9543a64736f6c63430008110033",
  "immutableReferences": {},
  "source": "// SPDX-License-Identifier: MIT\npragma solidity ^0.8.7;\n\nimport \"./CosmoCreation.sol\";\nimport \"./ICosmoNuts.sol\";\nimport \"./ICosmoVault.sol\";\nimport \"./ICosmoTreasury.sol\";\n\n/**\n * Main Contract for the NFT tokens.\n * System address resembles the public address of the software application.\n */\n contract CosmoNuts is CosmoCreation, ICosmoNuts {\n\n     using ECDSA for bytes32;\n\n     constructor(\n         string memory _name,\n         string memory _symbol,\n         uint256 _initialNFTSupply,\n         address _systemAddress,\n         address _treasuryAddress,\n         address _vaultImplementation\n     )\n         CosmoCreation(\n             _name,\n             _symbol,\n             _initialNFTSupply,\n             _systemAddress,\n             _treasuryAddress,\n             _vaultImplementation\n         )\n     {\n         ICosmoTreasury(_treasuryAddress).linkCosmo(address(this));\n     }\n\n     function vaultLocation() public view override returns (address) {\n         return creation.vault;\n     }\n\n     function setTokenURI(uint256 _nutId, string memory _nutCID) external virtual override {\n         _setTokenURI(_nutId, _nutCID);\n     }\n\n     function getOwnerOf(uint256 _nutId) public view virtual override returns (address) {\n         return ownerOf(_nutId);\n     }\n\n     function createVault() external virtual override returns (address) {\n         return openVault(address(this));\n     }\n\n     // only system address?\n     function withdraw() public onlyOwner {\n         uint256 balance = address(this).balance;\n         require(address(this).balance > 0 wei, \"No balance to withdraw\");\n         payable(msg.sender).transfer(balance);\n     }\n\n     function newNutMint(address _to) external virtual override returns (uint256) {\n         uint256 nutIndex = totalSupply();\n         _safeMint(_to, nutIndex);\n         return nutIndex;\n     }\n\n     /**\n      * Function callable by Nut owner to create a seed which has the potential to turn into a new Nut.\n      * Requires the input of a secretHash and a specified amount of Ether to create.\n      * A required level of matter must be burned which is equal to the amount of seeds you have in Universe\n      * multiplied by the matterRate.\n      */\n     function createSeed(\n         uint256 _nutId,\n         bytes32 _secretHash,\n         string memory _cidPath,\n         bytes memory _signature\n         )\n         public payable returns (address seedLocation) {\n             require(address(msg.sender) == ownerOf(_nutId), \"Caller is not owner of nut\");\n             require(totalSupply() >= creation.initialSupply, \"Nuts still exist from creation\");\n\n             uint256 ethToHold = ICosmoTreasury(creation.treasury).ethToHold(_nutId);\n             require(msg.value >= ethToHold, \"Ether value is not enough\");\n\n             uint256 matterNeeded = ICosmoTreasury(creation.treasury).matterNeeded(_nutId);\n             uint256 matterOfOwner = ICosmoTreasury(creation.treasury).matterOf(msg.sender);\n             require(matterOfOwner >= matterNeeded, \"Matter balance is not enough\");\n\n             ICosmoTreasury(creation.treasury).grantApproval(\n                 msg.sender,\n                 creation.treasury,\n                 matterNeeded\n             );\n\n             ICosmoTreasury(creation.treasury).burnMatterFrom(msg.sender, matterNeeded);\n\n             seedLocation = ICosmoTreasury(creation.treasury).spawnSeed(_nutId, _secretHash);\n             (bool sentToSeed, /*memory data*/) = seedLocation.call{\n                 value: msg.value\n             }(\"\");\n             require(sentToSeed, \"Ether not sent to seed\");\n\n             ICosmoVault(creation.vault).changeTokenURI(\n                 _nutId, _cidPath, _signature\n             );\n\n             return seedLocation;\n     }\n\n     /**\n      * Function callable by Nut owner to create a matter faucet which allows other users to draw matter\n      * Creation requires a secret hash that must be known to suppy matter\n      * Creation requires input of total number of matter in contract and the amount each user can draw at a single time\n      * Drawing any amount of matter results in the creation of new supply of matter\n      * In creating the faucet, the creator replenishes the accounts of other nut holders (tax on system to create message)\n      * Caller will also receive matter if others call on this function\n      */\n     function createButter(\n         uint256 _nutId,\n         bytes32 _secretHash,\n         uint256 _matterContributed,\n         uint256 _matterDrawRate,\n         string memory _cidPath,\n         bytes memory _signature\n     ) public returns (address butterLocation) {\n         require(address(msg.sender) == ownerOf(_nutId), \"Caller is not owner of nut\");\n         require(_matterContributed % _matterDrawRate == 0, \"Draw rate not perfectly divisible by contribution\");\n         uint256 matterOfOwner = ICosmoTreasury(creation.treasury).matterOf(msg.sender);\n         require(matterOfOwner >= _matterContributed, \"Matter owned is less than desired contribution\");\n\n         ICosmoTreasury(creation.treasury).grantApproval(\n             msg.sender,\n             creation.treasury,\n             _matterContributed\n         );\n\n         butterLocation = ICosmoTreasury(creation.treasury).newButter(_nutId, _matterContributed, _matterDrawRate, _secretHash);\n\n         ICosmoVault(creation.vault).changeTokenURI(\n             _nutId, _cidPath, _signature\n         );\n\n         return butterLocation;\n     }\n\n }\n",
  "sourcePath": "/home/redlentils/Seafile/Websites/avatarnft/contracts/CosmoNuts.sol",
  "compiler": {
    "name": "solc",
    "version": "0.8.17+commit.8df45f5f.Emscripten.clang"
  },
  "schemaVersion": "3.4.10",
  "updatedAt": "2022-10-28T15:21:01.286Z",
  "devdoc": {
    "kind": "dev",
    "methods": {
      "approve(address,uint256)": {
        "details": "See {IERC721-approve}."
      },
      "balanceOf(address)": {
        "details": "See {IERC721-balanceOf}."
      },
      "getApproved(uint256)": {
        "details": "See {IERC721-getApproved}."
      },
      "isApprovedForAll(address,address)": {
        "details": "See {IERC721-isApprovedForAll}."
      },
      "name()": {
        "details": "See {IERC721Metadata-name}."
      },
      "owner()": {
        "details": "Returns the address of the current owner."
      },
      "ownerOf(uint256)": {
        "details": "See {IERC721-ownerOf}."
      },
      "renounceOwnership()": {
        "details": "Leaves the contract without owner. It will not be possible to call `onlyOwner` functions anymore. Can only be called by the current owner. NOTE: Renouncing ownership will leave the contract without an owner, thereby removing any functionality that is only available to the owner."
      },
      "safeTransferFrom(address,address,uint256)": {
        "details": "See {IERC721-safeTransferFrom}."
      },
      "safeTransferFrom(address,address,uint256,bytes)": {
        "details": "See {IERC721-safeTransferFrom}."
      },
      "setApprovalForAll(address,bool)": {
        "details": "See {IERC721-setApprovalForAll}."
      },
      "symbol()": {
        "details": "See {IERC721Metadata-symbol}."
      },
      "tokenByIndex(uint256)": {
        "details": "See {IERC721Enumerable-tokenByIndex}."
      },
      "tokenOfOwnerByIndex(address,uint256)": {
        "details": "See {IERC721Enumerable-tokenOfOwnerByIndex}."
      },
      "totalSupply()": {
        "details": "See {IERC721Enumerable-totalSupply}."
      },
      "transferFrom(address,address,uint256)": {
        "details": "See {IERC721-transferFrom}."
      },
      "transferOwnership(address)": {
        "details": "Transfers ownership of the contract to a new account (`newOwner`). Can only be called by the current owner."
      }
    },
    "version": 1
  },
  "userdoc": {
    "kind": "user",
    "methods": {
      "createButter(uint256,bytes32,uint256,uint256,string,bytes)": {
        "notice": "Function callable by Nut owner to create a matter faucet which allows other users to draw matter Creation requires a secret hash that must be known to suppy matter Creation requires input of total number of matter in contract and the amount each user can draw at a single time Drawing any amount of matter results in the creation of new supply of matter In creating the faucet, the creator replenishes the accounts of other nut holders (tax on system to create message) Caller will also receive matter if others call on this function"
      },
      "createSeed(uint256,bytes32,string,bytes)": {
        "notice": "Function callable by Nut owner to create a seed which has the potential to turn into a new Nut. Requires the input of a secretHash and a specified amount of Ether to create. A required level of matter must be burned which is equal to the amount of seeds you have in Universe multiplied by the matterRate."
      }
    },
    "notice": "Main Contract for the NFT tokens. System address resembles the public address of the software application.",
    "version": 1
  }
}