{
  "contractName": "CosmoSeed",
  "abi": [
    {
      "inputs": [
        {
          "internalType": "uint256",
          "name": "_seedId",
          "type": "uint256"
        },
        {
          "internalType": "uint256",
          "name": "_nutId",
          "type": "uint256"
        },
        {
          "internalType": "address",
          "name": "_treasuryAddress",
          "type": "address"
        },
        {
          "internalType": "bytes32",
          "name": "_secretHash",
          "type": "bytes32"
        }
      ],
      "stateMutability": "payable",
      "type": "constructor"
    },
    {
      "inputs": [],
      "name": "seed",
      "outputs": [
        {
          "internalType": "uint256",
          "name": "id",
          "type": "uint256"
        },
        {
          "internalType": "uint256",
          "name": "nutId",
          "type": "uint256"
        },
        {
          "internalType": "uint256",
          "name": "heldEther",
          "type": "uint256"
        },
        {
          "internalType": "uint256",
          "name": "matterNeeded",
          "type": "uint256"
        },
        {
          "internalType": "address",
          "name": "location",
          "type": "address"
        },
        {
          "internalType": "address",
          "name": "nutLocation",
          "type": "address"
        },
        {
          "internalType": "bytes32",
          "name": "secretHash",
          "type": "bytes32"
        }
      ],
      "stateMutability": "view",
      "type": "function"
    },
    {
      "inputs": [],
      "name": "matterNeeded",
      "outputs": [
        {
          "internalType": "uint256",
          "name": "",
          "type": "uint256"
        }
      ],
      "stateMutability": "view",
      "type": "function"
    },
    {
      "inputs": [],
      "name": "nutId",
      "outputs": [
        {
          "internalType": "uint256",
          "name": "",
          "type": "uint256"
        }
      ],
      "stateMutability": "view",
      "type": "function"
    },
    {
      "inputs": [
        {
          "internalType": "address",
          "name": "_parentNutOwner",
          "type": "address"
        }
      ],
      "name": "degradeSeed",
      "outputs": [],
      "stateMutability": "payable",
      "type": "function"
    },
    {
      "inputs": [
        {
          "internalType": "string",
          "name": "_secret",
          "type": "string"
        },
        {
          "internalType": "string",
          "name": "_cidPath",
          "type": "string"
        },
        {
          "internalType": "bytes",
          "name": "_signature",
          "type": "bytes"
        }
      ],
      "name": "spawnNut",
      "outputs": [],
      "stateMutability": "nonpayable",
      "type": "function"
    }
  ],
  "bytecode": "0x608060405260405162000f6338038062000f638339818101604052810190620000299190620002f4565b600033905080600760006101000a81548173ffffffffffffffffffffffffffffffffffffffff021916908373ffffffffffffffffffffffffffffffffffffffff16021790555082600860006101000a81548173ffffffffffffffffffffffffffffffffffffffff021916908373ffffffffffffffffffffffffffffffffffffffff1602179055508460008001819055508360006001018190555034600060020181905550600860009054906101000a900473ffffffffffffffffffffffffffffffffffffffff1673ffffffffffffffffffffffffffffffffffffffff166334fc1228856040518263ffffffff1660e01b81526004016200012a919062000377565b602060405180830381865afa15801562000148573d6000803e3d6000fd5b505050506040513d601f19601f820116820180604052508101906200016e919062000394565b60006003018190555030600060040160006101000a81548173ffffffffffffffffffffffffffffffffffffffff021916908373ffffffffffffffffffffffffffffffffffffffff16021790555080600060050160006101000a81548173ffffffffffffffffffffffffffffffffffffffff021916908373ffffffffffffffffffffffffffffffffffffffff160217905550816000600601819055505050505050620003c6565b600080fd5b6000819050919050565b6200022e8162000219565b81146200023a57600080fd5b50565b6000815190506200024e8162000223565b92915050565b600073ffffffffffffffffffffffffffffffffffffffff82169050919050565b6000620002818262000254565b9050919050565b620002938162000274565b81146200029f57600080fd5b50565b600081519050620002b38162000288565b92915050565b6000819050919050565b620002ce81620002b9565b8114620002da57600080fd5b50565b600081519050620002ee81620002c3565b92915050565b6000806000806080858703121562000311576200031062000214565b5b600062000321878288016200023d565b945050602062000334878288016200023d565b93505060406200034787828801620002a2565b92505060606200035a87828801620002dd565b91505092959194509250565b620003718162000219565b82525050565b60006020820190506200038e600083018462000366565b92915050565b600060208284031215620003ad57620003ac62000214565b5b6000620003bd848285016200023d565b91505092915050565b610b8d80620003d66000396000f3fe60806040526004361061004a5760003560e01c806326b2c77c1461004f578063685771f41461006b5780637d94792a14610096578063956c2dc3146100c7578063c5d12c97146100f0575b600080fd5b61006960048036038101906100649190610522565b61011b565b005b34801561007757600080fd5b50610080610275565b60405161008d9190610568565b60405180910390f35b3480156100a257600080fd5b506100ab610281565b6040516100be97969594939291906105ab565b60405180910390f35b3480156100d357600080fd5b506100ee60048036038101906100e99190610801565b6102f1565b005b3480156100fc57600080fd5b50610105610427565b6040516101129190610568565b60405180910390f35b6000600860009054906101000a900473ffffffffffffffffffffffffffffffffffffffff1673ffffffffffffffffffffffffffffffffffffffff1663b8a9736d6040518163ffffffff1660e01b8152600401602060405180830381865afa15801561018a573d6000803e3d6000fd5b505050506040513d601f19601f820116820180604052508101906101ae91906108d4565b9050600081346101be9190610930565b9050600860009054906101000a900473ffffffffffffffffffffffffffffffffffffffff1673ffffffffffffffffffffffffffffffffffffffff166108fc839081150290604051600060405180830381858888f19350505050158015610228573d6000803e3d6000fd5b508273ffffffffffffffffffffffffffffffffffffffff166108fc829081150290604051600060405180830381858888f1935050505015801561026f573d6000803e3d6000fd5b50505050565b60008060010154905090565b60008060000154908060010154908060020154908060030154908060040160009054906101000a900473ffffffffffffffffffffffffffffffffffffffff16908060050160009054906101000a900473ffffffffffffffffffffffffffffffffffffffff16908060060154905087565b6102fa83610433565b50600860009054906101000a900473ffffffffffffffffffffffffffffffffffffffff1673ffffffffffffffffffffffffffffffffffffffff1663733b0bca60008001546000600301546040518363ffffffff1660e01b8152600401610361929190610964565b600060405180830381600087803b15801561037b57600080fd5b505af115801561038f573d6000803e3d6000fd5b50505050600760009054906101000a900473ffffffffffffffffffffffffffffffffffffffff1673ffffffffffffffffffffffffffffffffffffffff1663a0e12efe83836040518363ffffffff1660e01b81526004016103f0929190610a61565b600060405180830381600087803b15801561040a57600080fd5b505af115801561041e573d6000803e3d6000fd5b50505050505050565b60008060030154905090565b600080826040516020016104479190610ad4565b60405160208183030381529060405280519060200120905060006006015481146104a6576040517f08c379a000000000000000000000000000000000000000000000000000000000815260040161049d90610b37565b60405180910390fd5b6001915050919050565b6000604051905090565b600080fd5b600080fd5b600073ffffffffffffffffffffffffffffffffffffffff82169050919050565b60006104ef826104c4565b9050919050565b6104ff816104e4565b811461050a57600080fd5b50565b60008135905061051c816104f6565b92915050565b600060208284031215610538576105376104ba565b5b60006105468482850161050d565b91505092915050565b6000819050919050565b6105628161054f565b82525050565b600060208201905061057d6000830184610559565b92915050565b61058c816104e4565b82525050565b6000819050919050565b6105a581610592565b82525050565b600060e0820190506105c0600083018a610559565b6105cd6020830189610559565b6105da6040830188610559565b6105e76060830187610559565b6105f46080830186610583565b61060160a0830185610583565b61060e60c083018461059c565b98975050505050505050565b600080fd5b600080fd5b6000601f19601f8301169050919050565b7f4e487b7100000000000000000000000000000000000000000000000000000000600052604160045260246000fd5b61066d82610624565b810181811067ffffffffffffffff8211171561068c5761068b610635565b5b80604052505050565b600061069f6104b0565b90506106ab8282610664565b919050565b600067ffffffffffffffff8211156106cb576106ca610635565b5b6106d482610624565b9050602081019050919050565b82818337600083830152505050565b60006107036106fe846106b0565b610695565b90508281526020810184848401111561071f5761071e61061f565b5b61072a8482856106e1565b509392505050565b600082601f8301126107475761074661061a565b5b81356107578482602086016106f0565b91505092915050565b600067ffffffffffffffff82111561077b5761077a610635565b5b61078482610624565b9050602081019050919050565b60006107a461079f84610760565b610695565b9050828152602081018484840111156107c0576107bf61061f565b5b6107cb8482856106e1565b509392505050565b600082601f8301126107e8576107e761061a565b5b81356107f8848260208601610791565b91505092915050565b60008060006060848603121561081a576108196104ba565b5b600084013567ffffffffffffffff811115610838576108376104bf565b5b61084486828701610732565b935050602084013567ffffffffffffffff811115610865576108646104bf565b5b61087186828701610732565b925050604084013567ffffffffffffffff811115610892576108916104bf565b5b61089e868287016107d3565b9150509250925092565b6108b18161054f565b81146108bc57600080fd5b50565b6000815190506108ce816108a8565b92915050565b6000602082840312156108ea576108e96104ba565b5b60006108f8848285016108bf565b91505092915050565b7f4e487b7100000000000000000000000000000000000000000000000000000000600052601160045260246000fd5b600061093b8261054f565b91506109468361054f565b925082820390508181111561095e5761095d610901565b5b92915050565b60006040820190506109796000830185610559565b6109866020830184610559565b9392505050565b600081519050919050565b600082825260208201905092915050565b60005b838110156109c75780820151818401526020810190506109ac565b60008484015250505050565b60006109de8261098d565b6109e88185610998565b93506109f88185602086016109a9565b610a0181610624565b840191505092915050565b600081519050919050565b600082825260208201905092915050565b6000610a3382610a0c565b610a3d8185610a17565b9350610a4d8185602086016109a9565b610a5681610624565b840191505092915050565b60006040820190508181036000830152610a7b81856109d3565b90508181036020830152610a8f8184610a28565b90509392505050565b600081905092915050565b6000610aae8261098d565b610ab88185610a98565b9350610ac88185602086016109a9565b80840191505092915050565b6000610ae08284610aa3565b915081905092915050565b7f496e70757420646f6573206e6f74206d61746368207365637265740000000000600082015250565b6000610b21601b83610998565b9150610b2c82610aeb565b602082019050919050565b60006020820190508181036000830152610b5081610b14565b905091905056fea264697066735822122096c3ae346d28c1282bf94a44b1d1af4a4e4f9884bd3156d953eb788331e04cb564736f6c63430008110033",
  "immutableReferences": {},
  "source": "// SPDX-License-Identifier: MIT\npragma solidity ^0.8.7;\n\nimport \"./CosmoNuts.sol\";\nimport \"./CosmoTreasury.sol\";\n\ncontract CosmoSeed {\n\n    struct Seed {\n        uint256 id;\n        uint256 nutId;\n        uint256 heldEther;\n        uint256 matterNeeded;\n        address location;\n        address nutLocation;\n        bytes32 secretHash;\n    }\n    Seed public seed;\n\n    CosmoNuts nuts;\n    CosmoTreasury treasury;\n\n    constructor(\n        uint256 _seedId,\n        uint256 _nutId,\n        address _treasuryAddress,\n        bytes32 _secretHash\n    ) payable {\n        address nutLocation = address(msg.sender);\n        nuts = CosmoNuts(nutLocation);\n        treasury = CosmoTreasury(_treasuryAddress);\n\n        seed.id = _seedId;\n        seed.nutId = _nutId;\n        seed.heldEther = msg.value;\n        seed.matterNeeded = treasury.calcMatterNeeded(_nutId);\n        seed.location = address(this);\n        seed.nutLocation = nutLocation;\n        seed.secretHash = _secretHash;\n    }\n\n    function matterNeeded() public view returns (uint256) {\n        return seed.matterNeeded;\n    }\n\n    function nutId() public view returns (uint256) {\n        return seed.nutId;\n    }\n\n    /**\n     * Takes a string input and hashes it; compares to the SECRET_HASH in the contract\n     * If it matches, returns true\n     */\n    function verifySecret(string memory _input) private view returns(bool) {\n        bytes32 inputHash = keccak256(abi.encodePacked(_input));\n        require(inputHash == seed.secretHash, \"Input does not match secret\");\n        return true;\n    }\n\n    /**\n     * Called from CosmoNuts as part of the spawnNut function below\n     * Jumping back to transfer funds, and downgrade contract (does this mean deletion? - self-destruct)\n     */\n    function degradeSeed(address _parentNutOwner) external payable {\n        // Something not right here - need to double check how does msg.value work here?\n        uint256 nutPrice = treasury.NUT_PRICE();\n        uint256 excessEth = msg.value - nutPrice; // Excess ether is defined as total paid less orignial set price\n        payable(address(treasury)).transfer(nutPrice); // Transfer the set nut price to Treasury\n        payable(_parentNutOwner).transfer(excessEth); // Transfer remaining back to parent nut owner\n    }\n\n    /**\n     * Can be called from anyone who comes across, asks for secret from user\n     * The application fills out the path and signature\n     * If provided secret is correct, a new CosmoNut is minted and assigned to caller\n     */\n    function spawnNut(string memory _secret, string memory _cidPath, bytes memory _signature) public {\n        verifySecret(_secret); // Check whether provided secret is correct\n        treasury.growSeedFromNut(seed.id, seed.matterNeeded);\n        nuts.createNut(_cidPath, _signature); // Mints the new NFT and assigns to caller\n    }\n\n}\n",
  "sourcePath": "/home/redlentils/Seafile/Websites/avatarnft/contracts/CosmoSeed.sol",
  "compiler": {
    "name": "solc",
    "version": "0.8.17+commit.8df45f5f.Emscripten.clang"
  },
  "schemaVersion": "3.4.10",
  "updatedAt": "2022-10-04T18:24:40.632Z",
  "devdoc": {
    "kind": "dev",
    "methods": {},
    "version": 1
  },
  "userdoc": {
    "kind": "user",
    "methods": {
      "degradeSeed(address)": {
        "notice": "Called from CosmoNuts as part of the spawnNut function below Jumping back to transfer funds, and downgrade contract (does this mean deletion? - self-destruct)"
      },
      "spawnNut(string,string,bytes)": {
        "notice": "Can be called from anyone who comes across, asks for secret from user The application fills out the path and signature If provided secret is correct, a new CosmoNut is minted and assigned to caller"
      }
    },
    "version": 1
  }
}