{
  "contractName": "CosmoVault",
  "abi": [
    {
      "inputs": [
        {
          "internalType": "address",
          "name": "_systemAddress",
          "type": "address"
        },
        {
          "internalType": "address",
          "name": "_treasuryAddress",
          "type": "address"
        }
      ],
      "stateMutability": "nonpayable",
      "type": "constructor"
    },
    {
      "inputs": [],
      "name": "NUT_PRICE",
      "outputs": [
        {
          "internalType": "uint256",
          "name": "",
          "type": "uint256"
        }
      ],
      "stateMutability": "view",
      "type": "function"
    },
    {
      "inputs": [],
      "name": "TREASURY_ADDRESS",
      "outputs": [
        {
          "internalType": "address",
          "name": "",
          "type": "address"
        }
      ],
      "stateMutability": "view",
      "type": "function"
    },
    {
      "inputs": [
        {
          "internalType": "address",
          "name": "_newSystemAddress",
          "type": "address"
        }
      ],
      "name": "updateSystemAddress",
      "outputs": [],
      "stateMutability": "nonpayable",
      "type": "function"
    },
    {
      "inputs": [
        {
          "internalType": "address",
          "name": "_newTreasuryAddress",
          "type": "address"
        }
      ],
      "name": "updateTreasuryAddress",
      "outputs": [],
      "stateMutability": "nonpayable",
      "type": "function"
    }
  ],
  "bytecode": "0x60806040526305f5e10060025534801561001857600080fd5b506040516105a93803806105a9833981810160405281019061003a9190610125565b816000806101000a81548173ffffffffffffffffffffffffffffffffffffffff021916908373ffffffffffffffffffffffffffffffffffffffff16021790555080600160006101000a81548173ffffffffffffffffffffffffffffffffffffffff021916908373ffffffffffffffffffffffffffffffffffffffff1602179055505050610165565b600080fd5b600073ffffffffffffffffffffffffffffffffffffffff82169050919050565b60006100f2826100c7565b9050919050565b610102816100e7565b811461010d57600080fd5b50565b60008151905061011f816100f9565b92915050565b6000806040838503121561013c5761013b6100c2565b5b600061014a85828601610110565b925050602061015b85828601610110565b9150509250929050565b610435806101746000396000f3fe608060405234801561001057600080fd5b506004361061004c5760003560e01c806307604b1a14610051578063841e45611461006f578063b8a9736d1461008b578063e3501cb1146100a9575b600080fd5b6100596100c5565b60405161006691906102d5565b60405180910390f35b61008960048036038101906100849190610321565b6100eb565b005b6100936101bd565b6040516100a09190610367565b60405180910390f35b6100c360048036038101906100be9190610321565b6101c3565b005b600160009054906101000a900473ffffffffffffffffffffffffffffffffffffffff1681565b60008054906101000a900473ffffffffffffffffffffffffffffffffffffffff1673ffffffffffffffffffffffffffffffffffffffff163373ffffffffffffffffffffffffffffffffffffffff1614610179576040517f08c379a0000000000000000000000000000000000000000000000000000000008152600401610170906103df565b60405180910390fd5b80600160006101000a81548173ffffffffffffffffffffffffffffffffffffffff021916908373ffffffffffffffffffffffffffffffffffffffff16021790555050565b60025481565b60008054906101000a900473ffffffffffffffffffffffffffffffffffffffff1673ffffffffffffffffffffffffffffffffffffffff163373ffffffffffffffffffffffffffffffffffffffff1614610251576040517f08c379a0000000000000000000000000000000000000000000000000000000008152600401610248906103df565b60405180910390fd5b806000806101000a81548173ffffffffffffffffffffffffffffffffffffffff021916908373ffffffffffffffffffffffffffffffffffffffff16021790555050565b600073ffffffffffffffffffffffffffffffffffffffff82169050919050565b60006102bf82610294565b9050919050565b6102cf816102b4565b82525050565b60006020820190506102ea60008301846102c6565b92915050565b600080fd5b6102fe816102b4565b811461030957600080fd5b50565b60008135905061031b816102f5565b92915050565b600060208284031215610337576103366102f0565b5b60006103458482850161030c565b91505092915050565b6000819050919050565b6103618161034e565b82525050565b600060208201905061037c6000830184610358565b92915050565b600082825260208201905092915050565b7f43616c6c6572206973206e6f742073797374656d000000000000000000000000600082015250565b60006103c9601483610382565b91506103d482610393565b602082019050919050565b600060208201905081810360008301526103f8816103bc565b905091905056fea26469706673582212209c06eeea55a221cb782662050ee4515a5377c66ff3180e4ee35de1e0009bfa0f64736f6c63430008110033",
  "immutableReferences": {},
  "source": "// SPDX-License-Identifier: MIT\npragma solidity ^0.8.7;\n\nimport \"openzeppelin-solidity/contracts/utils/cryptography/ECDSA.sol\";\nimport \"./CosmoTreasury.sol\";\n\ncontract CosmoVault {\n\n    address private SYSTEM_ADDRESS;\n    address public TREASURY_ADDRESS;\n    uint256 public NUT_PRICE = 100000000;\n\n    CosmoTreasury treasury;\n\n    using ECDSA for bytes32;\n\n    constructor(address _systemAddress, address _treasuryAddress) {\n        SYSTEM_ADDRESS = _systemAddress;\n        TREASURY_ADDRESS = _treasuryAddress;\n        //treasury = CosmoTreasury(_treasuryAddress);\n    }\n\n    modifier onlySystem {\n        require(address(msg.sender) == SYSTEM_ADDRESS, \"Caller is not system\");\n        _;\n    }\n\n    function updateSystemAddress(address _newSystemAddress) public onlySystem {\n        SYSTEM_ADDRESS = _newSystemAddress;\n    }\n\n    function updateTreasuryAddress(address _newTreasuryAddress) public onlySystem {\n        TREASURY_ADDRESS = _newTreasuryAddress;\n    }\n\n    function signerAddress(bytes32 _hash, bytes memory _signature) internal pure returns (address) {\n        return _hash.recover(_signature);\n    }\n\n    function isVerified(bytes32 _pathHash, bytes memory _signature) internal view returns (bool) {\n        // *Research* - Should you include the following \"\\x19Ethereum Signed Message:\\n32\"\n        require(signerAddress(_pathHash, _signature) == SYSTEM_ADDRESS, \"Invalid signature\");\n        return true;\n    }\n\n}\n",
  "sourcePath": "/home/redlentils/Seafile/Websites/avatarnft/contracts/CosmoVault.sol",
  "compiler": {
    "name": "solc",
    "version": "0.8.17+commit.8df45f5f.Emscripten.clang"
  },
  "schemaVersion": "3.4.10",
  "updatedAt": "2022-10-03T21:57:54.836Z",
  "devdoc": {
    "kind": "dev",
    "methods": {},
    "version": 1
  },
  "userdoc": {
    "kind": "user",
    "methods": {},
    "version": 1
  }
}