{
  "contractName": "CosmoTreasury",
  "abi": [
    {
      "inputs": [
        {
          "internalType": "address",
          "name": "_matterAddress",
          "type": "address"
        },
        {
          "internalType": "uint256",
          "name": "_matterRate",
          "type": "uint256"
        }
      ],
      "stateMutability": "nonpayable",
      "type": "constructor"
    },
    {
      "inputs": [],
      "name": "MATTER_ADDRESS",
      "outputs": [
        {
          "internalType": "address",
          "name": "",
          "type": "address"
        }
      ],
      "stateMutability": "view",
      "type": "function"
    },
    {
      "inputs": [],
      "name": "MATTER_RATE",
      "outputs": [
        {
          "internalType": "uint256",
          "name": "",
          "type": "uint256"
        }
      ],
      "stateMutability": "view",
      "type": "function"
    },
    {
      "inputs": [],
      "name": "NUT_PRICE",
      "outputs": [
        {
          "internalType": "uint256",
          "name": "",
          "type": "uint256"
        }
      ],
      "stateMutability": "view",
      "type": "function"
    },
    {
      "inputs": [
        {
          "internalType": "uint256",
          "name": "",
          "type": "uint256"
        }
      ],
      "name": "butterChurnedByNut",
      "outputs": [
        {
          "internalType": "uint256",
          "name": "",
          "type": "uint256"
        }
      ],
      "stateMutability": "view",
      "type": "function"
    },
    {
      "inputs": [],
      "name": "butterDeficiencyInUniverse",
      "outputs": [
        {
          "internalType": "uint256",
          "name": "",
          "type": "uint256"
        }
      ],
      "stateMutability": "view",
      "type": "function"
    },
    {
      "inputs": [
        {
          "internalType": "uint256",
          "name": "",
          "type": "uint256"
        }
      ],
      "name": "butterDeficiencyOfNut",
      "outputs": [
        {
          "internalType": "uint256",
          "name": "",
          "type": "uint256"
        }
      ],
      "stateMutability": "view",
      "type": "function"
    },
    {
      "inputs": [],
      "name": "butterJars",
      "outputs": [
        {
          "internalType": "uint256",
          "name": "",
          "type": "uint256"
        }
      ],
      "stateMutability": "view",
      "type": "function"
    },
    {
      "inputs": [
        {
          "internalType": "uint256",
          "name": "",
          "type": "uint256"
        }
      ],
      "name": "butterLocations",
      "outputs": [
        {
          "internalType": "address",
          "name": "",
          "type": "address"
        }
      ],
      "stateMutability": "view",
      "type": "function"
    },
    {
      "inputs": [],
      "name": "butterSpread",
      "outputs": [
        {
          "internalType": "uint256",
          "name": "",
          "type": "uint256"
        }
      ],
      "stateMutability": "view",
      "type": "function"
    },
    {
      "inputs": [],
      "name": "butterWeight",
      "outputs": [
        {
          "internalType": "uint256",
          "name": "",
          "type": "uint256"
        }
      ],
      "stateMutability": "view",
      "type": "function"
    },
    {
      "inputs": [
        {
          "internalType": "uint256",
          "name": "",
          "type": "uint256"
        },
        {
          "internalType": "uint256",
          "name": "",
          "type": "uint256"
        }
      ],
      "name": "buttersOfNut",
      "outputs": [
        {
          "internalType": "uint256",
          "name": "",
          "type": "uint256"
        }
      ],
      "stateMutability": "view",
      "type": "function"
    },
    {
      "inputs": [
        {
          "internalType": "uint256",
          "name": "",
          "type": "uint256"
        }
      ],
      "name": "currentOwnerOfNut",
      "outputs": [
        {
          "internalType": "address",
          "name": "",
          "type": "address"
        }
      ],
      "stateMutability": "view",
      "type": "function"
    },
    {
      "inputs": [
        {
          "internalType": "uint256",
          "name": "",
          "type": "uint256"
        }
      ],
      "name": "isButterActive",
      "outputs": [
        {
          "internalType": "bool",
          "name": "",
          "type": "bool"
        }
      ],
      "stateMutability": "view",
      "type": "function"
    },
    {
      "inputs": [
        {
          "internalType": "uint256",
          "name": "",
          "type": "uint256"
        }
      ],
      "name": "isSeedActive",
      "outputs": [
        {
          "internalType": "bool",
          "name": "",
          "type": "bool"
        }
      ],
      "stateMutability": "view",
      "type": "function"
    },
    {
      "inputs": [
        {
          "internalType": "uint256",
          "name": "",
          "type": "uint256"
        },
        {
          "internalType": "uint256",
          "name": "",
          "type": "uint256"
        }
      ],
      "name": "isSeedOfNut",
      "outputs": [
        {
          "internalType": "bool",
          "name": "",
          "type": "bool"
        }
      ],
      "stateMutability": "view",
      "type": "function"
    },
    {
      "inputs": [
        {
          "internalType": "uint256",
          "name": "",
          "type": "uint256"
        }
      ],
      "name": "matterBalanceOfNut",
      "outputs": [
        {
          "internalType": "uint256",
          "name": "",
          "type": "uint256"
        }
      ],
      "stateMutability": "view",
      "type": "function"
    },
    {
      "inputs": [],
      "name": "matterInTreasury",
      "outputs": [
        {
          "internalType": "uint256",
          "name": "",
          "type": "uint256"
        }
      ],
      "stateMutability": "view",
      "type": "function"
    },
    {
      "inputs": [],
      "name": "matterInUniverse",
      "outputs": [
        {
          "internalType": "uint256",
          "name": "",
          "type": "uint256"
        }
      ],
      "stateMutability": "view",
      "type": "function"
    },
    {
      "inputs": [
        {
          "internalType": "uint256",
          "name": "",
          "type": "uint256"
        }
      ],
      "name": "matterMintedByNut",
      "outputs": [
        {
          "internalType": "uint256",
          "name": "",
          "type": "uint256"
        }
      ],
      "stateMutability": "view",
      "type": "function"
    },
    {
      "inputs": [
        {
          "internalType": "uint256",
          "name": "_nutId",
          "type": "uint256"
        }
      ],
      "name": "numberOfButterJars",
      "outputs": [
        {
          "internalType": "uint256",
          "name": "",
          "type": "uint256"
        }
      ],
      "stateMutability": "view",
      "type": "function"
    },
    {
      "inputs": [
        {
          "internalType": "uint256",
          "name": "",
          "type": "uint256"
        }
      ],
      "name": "nutOfButter",
      "outputs": [
        {
          "internalType": "uint256",
          "name": "",
          "type": "uint256"
        }
      ],
      "stateMutability": "view",
      "type": "function"
    },
    {
      "inputs": [
        {
          "internalType": "uint256",
          "name": "",
          "type": "uint256"
        }
      ],
      "name": "nutOfSeed",
      "outputs": [
        {
          "internalType": "uint256",
          "name": "",
          "type": "uint256"
        }
      ],
      "stateMutability": "view",
      "type": "function"
    },
    {
      "inputs": [
        {
          "internalType": "uint256",
          "name": "",
          "type": "uint256"
        }
      ],
      "name": "nutsPayeeList",
      "outputs": [
        {
          "internalType": "uint256",
          "name": "",
          "type": "uint256"
        }
      ],
      "stateMutability": "view",
      "type": "function"
    },
    {
      "inputs": [
        {
          "internalType": "uint256",
          "name": "",
          "type": "uint256"
        }
      ],
      "name": "seedLocations",
      "outputs": [
        {
          "internalType": "address",
          "name": "",
          "type": "address"
        }
      ],
      "stateMutability": "view",
      "type": "function"
    },
    {
      "inputs": [],
      "name": "seedsCreated",
      "outputs": [
        {
          "internalType": "uint256",
          "name": "",
          "type": "uint256"
        }
      ],
      "stateMutability": "view",
      "type": "function"
    },
    {
      "inputs": [
        {
          "internalType": "uint256",
          "name": "",
          "type": "uint256"
        }
      ],
      "name": "seedsGrownOfNut",
      "outputs": [
        {
          "internalType": "uint256",
          "name": "",
          "type": "uint256"
        }
      ],
      "stateMutability": "view",
      "type": "function"
    },
    {
      "inputs": [
        {
          "internalType": "uint256",
          "name": "",
          "type": "uint256"
        }
      ],
      "name": "seedsOfNut",
      "outputs": [
        {
          "internalType": "uint256",
          "name": "",
          "type": "uint256"
        }
      ],
      "stateMutability": "view",
      "type": "function"
    },
    {
      "inputs": [
        {
          "internalType": "uint256",
          "name": "_nutId",
          "type": "uint256"
        },
        {
          "internalType": "bytes32",
          "name": "_secretHash",
          "type": "bytes32"
        },
        {
          "internalType": "uint256",
          "name": "_matterContributed",
          "type": "uint256"
        }
      ],
      "name": "spawnSeed",
      "outputs": [],
      "stateMutability": "payable",
      "type": "function"
    },
    {
      "inputs": [
        {
          "internalType": "uint256",
          "name": "_seedId",
          "type": "uint256"
        },
        {
          "internalType": "uint256",
          "name": "_matterNeeded",
          "type": "uint256"
        }
      ],
      "name": "growSeedFromNut",
      "outputs": [],
      "stateMutability": "nonpayable",
      "type": "function"
    },
    {
      "inputs": [
        {
          "internalType": "uint256",
          "name": "_nutId",
          "type": "uint256"
        },
        {
          "internalType": "uint256",
          "name": "_matterContributed",
          "type": "uint256"
        },
        {
          "internalType": "uint256",
          "name": "_matterDrawRate",
          "type": "uint256"
        },
        {
          "internalType": "bytes32",
          "name": "_secretHash",
          "type": "bytes32"
        }
      ],
      "name": "newButter",
      "outputs": [],
      "stateMutability": "nonpayable",
      "type": "function"
    },
    {
      "inputs": [
        {
          "internalType": "address",
          "name": "_drawer",
          "type": "address"
        },
        {
          "internalType": "uint256",
          "name": "_butterId",
          "type": "uint256"
        },
        {
          "internalType": "uint256",
          "name": "_balance",
          "type": "uint256"
        },
        {
          "internalType": "uint256",
          "name": "_currentBalance",
          "type": "uint256"
        }
      ],
      "name": "butterDrawn",
      "outputs": [],
      "stateMutability": "nonpayable",
      "type": "function"
    },
    {
      "inputs": [
        {
          "internalType": "address",
          "name": "_tokenOwner",
          "type": "address"
        },
        {
          "internalType": "uint256",
          "name": "_tokenId",
          "type": "uint256"
        }
      ],
      "name": "assignMintBalance",
      "outputs": [],
      "stateMutability": "nonpayable",
      "type": "function"
    }
  ],
  "bytecode": "0x6080604052600080556000600755600060085560006009556000600f553480156200002957600080fd5b5060405162004d3f38038062004d3f83398181016040528101906200004f9190620002e8565b81601260006101000a81548173ffffffffffffffffffffffffffffffffffffffff021916908373ffffffffffffffffffffffffffffffffffffffff16021790555080601481905550601260009054906101000a900473ffffffffffffffffffffffffffffffffffffffff16601a60006101000a81548173ffffffffffffffffffffffffffffffffffffffff021916908373ffffffffffffffffffffffffffffffffffffffff160217905550601a60009054906101000a900473ffffffffffffffffffffffffffffffffffffffff1673ffffffffffffffffffffffffffffffffffffffff166318160ddd6040518163ffffffff1660e01b8152600401602060405180830381865afa15801562000168573d6000803e3d6000fd5b505050506040513d601f19601f820116820180604052508101906200018e91906200032f565b601581905550601a60009054906101000a900473ffffffffffffffffffffffffffffffffffffffff1673ffffffffffffffffffffffffffffffffffffffff166370a08231306040518263ffffffff1660e01b8152600401620001f1919062000372565b602060405180830381865afa1580156200020f573d6000803e3d6000fd5b505050506040513d601f19601f820116820180604052508101906200023591906200032f565b60168190555050506200038f565b600080fd5b600073ffffffffffffffffffffffffffffffffffffffff82169050919050565b6000620002758262000248565b9050919050565b620002878162000268565b81146200029357600080fd5b50565b600081519050620002a7816200027c565b92915050565b6000819050919050565b620002c281620002ad565b8114620002ce57600080fd5b50565b600081519050620002e281620002b7565b92915050565b6000806040838503121562000302576200030162000243565b5b6000620003128582860162000296565b92505060206200032585828601620002d1565b9150509250929050565b60006020828403121562000348576200034762000243565b5b60006200035884828501620002d1565b91505092915050565b6200036c8162000268565b82525050565b600060208201905062000389600083018462000361565b92915050565b6149a0806200039f6000396000f3fe608060405260043610620002125760003560e01c80634ffe5a6f116200011b578063b876ec0a11620000a3578063ea0f1366116200006d578063ea0f1366146200086b578063ea988be814620008af578063f50d434914620008df578063f6317f8d14620009235762000212565b8063b876ec0a14620007a7578063b8a9736d14620007c7578063d4d8103214620007f7578063df4f5ccc146200083b5762000212565b80639578d3df11620000e55780639578d3df14620006c15780639cee22b11462000705578063a89092c11462000733578063aef054ce14620007635762000212565b80634ffe5a6f14620005db57806353f97bc8146200061f57806364b1b6631462000663578063733b0bca14620006935762000212565b8063282adc8c116200019f57806339dc84f4116200016957806339dc84f414620004f35780633c89d09f146200053757806347634e1c146200056757806349a6b51f14620005ab5762000212565b8063282adc8c14620003f75780632c533085146200043b57806331ad1b42146200046b5780633279bd4f14620004af5762000212565b80631c85949c11620001e15780631c85949c14620003115780631e0b3964146200033f57806323f526c0146200038357806326342ea414620003c75762000212565b806302760a48146200021757806303f5de9d146200025b578063171e844114620002895780631821907a14620002cd575b600080fd5b3480156200022457600080fd5b506200024360048036038101906200023d919062002461565b62000953565b604051620002529190620024b0565b60405180910390f35b3480156200026857600080fd5b5062000287600480360381019062000281919062002508565b62000973565b005b3480156200029657600080fd5b50620002b56004803603810190620002af919062002461565b6200111d565b604051620002c49190620024b0565b60405180910390f35b348015620002da57600080fd5b50620002f96004803603810190620002f3919062002461565b6200113d565b6040516200030891906200258b565b60405180910390f35b3480156200031e57600080fd5b506200033d60048036038101906200033791906200260d565b62001155565b005b3480156200034c57600080fd5b506200036b600480360381019062000365919062002654565b62001282565b6040516200037a91906200258b565b60405180910390f35b3480156200039057600080fd5b50620003af6004803603810190620003a9919062002461565b620012b4565b604051620003be9190620026ac565b60405180910390f35b348015620003d457600080fd5b50620003df620012e7565b604051620003ee91906200258b565b60405180910390f35b3480156200040457600080fd5b506200042360048036038101906200041d919062002461565b620012ed565b6040516200043291906200258b565b60405180910390f35b3480156200044857600080fd5b50620004536200130d565b6040516200046291906200258b565b60405180910390f35b3480156200047857600080fd5b5062000497600480360381019062000491919062002461565b62001313565b604051620004a691906200258b565b60405180910390f35b348015620004bc57600080fd5b50620004db6004803603810190620004d5919062002461565b6200132b565b604051620004ea91906200258b565b60405180910390f35b3480156200050057600080fd5b506200051f600480360381019062000519919062002461565b62001343565b6040516200052e9190620026ac565b60405180910390f35b3480156200054457600080fd5b506200054f62001376565b6040516200055e91906200258b565b60405180910390f35b3480156200057457600080fd5b506200059360048036038101906200058d919062002461565b6200137c565b604051620005a291906200258b565b60405180910390f35b348015620005b857600080fd5b50620005c362001394565b604051620005d291906200258b565b60405180910390f35b348015620005e857600080fd5b5062000607600480360381019062000601919062002461565b6200139a565b6040516200061691906200258b565b60405180910390f35b3480156200062c57600080fd5b506200064b600480360381019062000645919062002654565b620013b2565b6040516200065a9190620024b0565b60405180910390f35b3480156200067057600080fd5b506200067b620013e1565b6040516200068a9190620026ac565b60405180910390f35b348015620006a057600080fd5b50620006bf6004803603810190620006b9919062002654565b62001407565b005b348015620006ce57600080fd5b50620006ed6004803603810190620006e7919062002461565b620018cf565b604051620006fc91906200258b565b60405180910390f35b3480156200071257600080fd5b506200073160048036038101906200072b9190620026c9565b620018f4565b005b3480156200074057600080fd5b506200074b62001b81565b6040516200075a91906200258b565b60405180910390f35b3480156200077057600080fd5b506200078f600480360381019062000789919062002461565b62001b87565b6040516200079e9190620026ac565b60405180910390f35b620007c56004803603810190620007bf91906200273b565b62001bba565b005b348015620007d457600080fd5b50620007df62001fce565b604051620007ee91906200258b565b60405180910390f35b3480156200080457600080fd5b506200082360048036038101906200081d919062002461565b62001fd4565b6040516200083291906200258b565b60405180910390f35b3480156200084857600080fd5b506200085362001fec565b6040516200086291906200258b565b60405180910390f35b3480156200087857600080fd5b5062000897600480360381019062000891919062002461565b62001ff2565b604051620008a691906200258b565b60405180910390f35b348015620008bc57600080fd5b50620008c76200200a565b604051620008d691906200258b565b60405180910390f35b348015620008ec57600080fd5b506200090b600480360381019062000905919062002461565b62002010565b6040516200091a91906200258b565b60405180910390f35b3480156200093057600080fd5b506200093b62002028565b6040516200094a91906200258b565b60405180910390f35b60116020528060005260406000206000915054906101000a900460ff1681565b60006017600086815260200190815260200160002060009054906101000a900473ffffffffffffffffffffffffffffffffffffffff1690503373ffffffffffffffffffffffffffffffffffffffff168173ffffffffffffffffffffffffffffffffffffffff161462000a1c576040517f08c379a000000000000000000000000000000000000000000000000000000000815260040162000a1390620027f8565b60405180910390fd5b836018600087815260200190815260200160002054101562000a75576040517f08c379a000000000000000000000000000000000000000000000000000000000815260040162000a6c906200286a565b60405180910390fd5b601a60009054906101000a900473ffffffffffffffffffffffffffffffffffffffff1673ffffffffffffffffffffffffffffffffffffffff166370a08231826040518263ffffffff1660e01b815260040162000ad29190620026ac565b602060405180830381865afa15801562000af0573d6000803e3d6000fd5b505050506040513d601f19601f8201168201806040525081019062000b169190620028a3565b84111562000b5b576040517f08c379a000000000000000000000000000000000000000000000000000000000815260040162000b529062002925565b60405180910390fd5b6000838562000b6b919062002976565b1462000bae576040517f08c379a000000000000000000000000000000000000000000000000000000000815260040162000ba590620029fe565b60405180910390fd5b60006002600087815260200190815260200160002054111562000c3c5783600f600082825462000bdf919062002a4f565b925050819055508360106000878152602001908152602001600020600082825462000c0b919062002a4f565b9250508190555060198590806001815401808255809150506001900390600052602060002001600090919091909150555b601a60009054906101000a900473ffffffffffffffffffffffffffffffffffffffff1673ffffffffffffffffffffffffffffffffffffffff166370a08231306040518263ffffffff1660e01b815260040162000c999190620026ac565b602060405180830381865afa15801562000cb7573d6000803e3d6000fd5b505050506040513d601f19601f8201168201806040525081019062000cdd9190620028a3565b601681905550600060165411156200101657600062000d01601654600f546200202e565b90506000805b82811462000f6b57600060198054905090506000810362000d29575062000f6b565b8082111562000d3757600092505b60006019848154811062000d505762000d4f62002a8a565b5b9060005260206000200154905060006017600083815260200190815260200160002060009054906101000a900473ffffffffffffffffffffffffffffffffffffffff1690506000601454600260008581526020019081526020016000205462000dba919062002ab9565b90508060186000858152602001908152602001600020540362000e02576019868154811062000dee5762000ded62002a8a565b5b906000526020600020016000905562000f41565b601a60009054906101000a900473ffffffffffffffffffffffffffffffffffffffff1673ffffffffffffffffffffffffffffffffffffffff1663a9059cbb8360016040518363ffffffff1660e01b815260040162000e6292919062002b51565b6020604051808303816000875af115801562000e82573d6000803e3d6000fd5b505050506040513d601f19601f8201168201806040525081019062000ea8919062002baf565b5060198390806001815401808255809150506001900390600052602060002001600090919091909150556019868154811062000ee95762000ee862002a8a565b5b90600052602060002001600090556001600f600082825462000f0c919062002be1565b92505081905550600160106000858152602001908152602001600020600082825462000f39919062002be1565b925050819055505b858062000f4e9062002c1c565b96505050505050808062000f629062002c1c565b91505062000d07565b50601a60009054906101000a900473ffffffffffffffffffffffffffffffffffffffff1673ffffffffffffffffffffffffffffffffffffffff166370a08231306040518263ffffffff1660e01b815260040162000fc99190620026ac565b602060405180830381865afa15801562000fe7573d6000803e3d6000fd5b505050506040513d601f19601f820116820180604052508101906200100d9190620028a3565b60168190555050505b600060095486868630876040516200102e9062002405565b6200103f9695949392919062002c7a565b604051809103906000f0801580156200105c573d6000803e3d6000fd5b509050601a60009054906101000a900473ffffffffffffffffffffffffffffffffffffffff1673ffffffffffffffffffffffffffffffffffffffff1663a9059cbb82876040518363ffffffff1660e01b8152600401620010be92919062002ce7565b6020604051808303816000875af1158015620010de573d6000803e3d6000fd5b505050506040513d601f19601f8201168201806040525081019062001104919062002baf565b506200111586600954838862002049565b505050505050565b60066020528060005260406000206000915054906101000a900460ff1681565b600d6020528060005260406000206000915090505481565b60145460165410156200119f576040517f08c379a0000000000000000000000000000000000000000000000000000000008152600401620011969062002d64565b60405180910390fd5b601a60009054906101000a900473ffffffffffffffffffffffffffffffffffffffff1673ffffffffffffffffffffffffffffffffffffffff1663a9059cbb836014546040518363ffffffff1660e01b81526004016200120092919062002ce7565b6020604051808303816000875af115801562001220573d6000803e3d6000fd5b505050506040513d601f19601f8201168201806040525081019062001246919062002baf565b5060145460186000838152602001908152602001600020819055506014546016600082825462001277919062002be1565b925050819055505050565b600a60205281600052604060002081815481106200129f57600080fd5b90600052602060002001600091509150505481565b60056020528060005260406000206000915054906101000a900473ffffffffffffffffffffffffffffffffffffffff1681565b60095481565b6000600a6000838152602001908152602001600020805490509050919050565b60145481565b60016020528060005260406000206000915090505481565b600c6020528060005260406000206000915090505481565b60176020528060005260406000206000915054906101000a900473ffffffffffffffffffffffffffffffffffffffff1681565b60155481565b600e6020528060005260406000206000915090505481565b60085481565b60106020528060005260406000206000915090505481565b60046020528160005260406000206020528060005260406000206000915091509054906101000a900460ff1681565b601260009054906101000a900473ffffffffffffffffffffffffffffffffffffffff1681565b80601a60009054906101000a900473ffffffffffffffffffffffffffffffffffffffff1673ffffffffffffffffffffffffffffffffffffffff166370a08231336040518263ffffffff1660e01b8152600401620014659190620026ac565b602060405180830381865afa15801562001483573d6000803e3d6000fd5b505050506040513d601f19601f82011682018060405250810190620014a99190620028a3565b1015620014ed576040517f08c379a0000000000000000000000000000000000000000000000000000000008152600401620014e49062002d64565b60405180910390fd5b60006005600084815260200190815260200160002060009054906101000a900473ffffffffffffffffffffffffffffffffffffffff16905060008190506000601760008373ffffffffffffffffffffffffffffffffffffffff16632c5553c96040518163ffffffff1660e01b8152600401602060405180830381865afa1580156200157c573d6000803e3d6000fd5b505050506040513d601f19601f82011682018060405250810190620015a29190620028a3565b815260200190815260200160002060009054906101000a900473ffffffffffffffffffffffffffffffffffffffff169050601a60009054906101000a900473ffffffffffffffffffffffffffffffffffffffff1673ffffffffffffffffffffffffffffffffffffffff1663a9059cbb82866040518363ffffffff1660e01b81526004016200163292919062002ce7565b6020604051808303816000875af115801562001652573d6000803e3d6000fd5b505050506040513d601f19601f8201168201806040525081019062001678919062002baf565b50601a60009054906101000a900473ffffffffffffffffffffffffffffffffffffffff1673ffffffffffffffffffffffffffffffffffffffff16634bbc1bcd3060016040518363ffffffff1660e01b8152600401620016d992919062002b51565b600060405180830381600087803b158015620016f457600080fd5b505af115801562001709573d6000803e3d6000fd5b505050508173ffffffffffffffffffffffffffffffffffffffff166326b2c77c826040518263ffffffff1660e01b8152600401620017489190620026ac565b600060405180830381600087803b1580156200176357600080fd5b505af115801562001778573d6000803e3d6000fd5b50505050601a60009054906101000a900473ffffffffffffffffffffffffffffffffffffffff1673ffffffffffffffffffffffffffffffffffffffff166318160ddd6040518163ffffffff1660e01b8152600401602060405180830381865afa158015620017ea573d6000803e3d6000fd5b505050506040513d601f19601f82011682018060405250810190620018109190620028a3565b601581905550601a60009054906101000a900473ffffffffffffffffffffffffffffffffffffffff1673ffffffffffffffffffffffffffffffffffffffff166370a08231306040518263ffffffff1660e01b8152600401620018739190620026ac565b602060405180830381865afa15801562001891573d6000803e3d6000fd5b505050506040513d601f19601f82011682018060405250810190620018b79190620028a3565b601681905550620018c88562002182565b5050505050565b60198181548110620018e057600080fd5b906000526020600020016000915090505481565b601a60009054906101000a900473ffffffffffffffffffffffffffffffffffffffff1673ffffffffffffffffffffffffffffffffffffffff1663a9059cbb85846040518363ffffffff1660e01b81526004016200195392919062002ce7565b6020604051808303816000875af115801562001973573d6000803e3d6000fd5b505050506040513d601f19601f8201168201806040525081019062001999919062002baf565b50601a60009054906101000a900473ffffffffffffffffffffffffffffffffffffffff1673ffffffffffffffffffffffffffffffffffffffff16634bbc1bcd30846040518363ffffffff1660e01b8152600401620019f992919062002ce7565b600060405180830381600087803b15801562001a1457600080fd5b505af115801562001a29573d6000803e3d6000fd5b5050505062001a3a83838362002223565b601a60009054906101000a900473ffffffffffffffffffffffffffffffffffffffff1673ffffffffffffffffffffffffffffffffffffffff166318160ddd6040518163ffffffff1660e01b8152600401602060405180830381865afa15801562001aa8573d6000803e3d6000fd5b505050506040513d601f19601f8201168201806040525081019062001ace9190620028a3565b601581905550601a60009054906101000a900473ffffffffffffffffffffffffffffffffffffffff1673ffffffffffffffffffffffffffffffffffffffff166370a08231306040518263ffffffff1660e01b815260040162001b319190620026ac565b602060405180830381865afa15801562001b4f573d6000803e3d6000fd5b505050506040513d601f19601f8201168201806040525081019062001b759190620028a3565b60168190555050505050565b60165481565b600b6020528060005260406000206000915054906101000a900473ffffffffffffffffffffffffffffffffffffffff1681565b60006001600260008681526020019081526020016000205462001bde919062002a4f565b6013541890508034101562001c2a576040517f08c379a000000000000000000000000000000000000000000000000000000000815260040162001c219062002dd6565b60405180910390fd5b600060018060008781526020019081526020016000205462001c4d919062002a4f565b6014541890506000601a60009054906101000a900473ffffffffffffffffffffffffffffffffffffffff1673ffffffffffffffffffffffffffffffffffffffff166370a082316017600089815260200190815260200160002060009054906101000a900473ffffffffffffffffffffffffffffffffffffffff166040518263ffffffff1660e01b815260040162001ce59190620026ac565b602060405180830381865afa15801562001d03573d6000803e3d6000fd5b505050506040513d601f19601f8201168201806040525081019062001d299190620028a3565b90508181101562001d71576040517f08c379a000000000000000000000000000000000000000000000000000000000815260040162001d689062002e48565b60405180910390fd5b8184101562001db7576040517f08c379a000000000000000000000000000000000000000000000000000000000815260040162001dae9062002eba565b60405180910390fd5b6000601260009054906101000a900473ffffffffffffffffffffffffffffffffffffffff1687600054883060135460405162001df39062002413565b62001e049695949392919062002edc565b604051809103906000f08015801562001e21573d6000803e3d6000fd5b50905062001e338760005483620022e6565b6000838662001e43919062002be1565b9050601a60009054906101000a900473ffffffffffffffffffffffffffffffffffffffff1673ffffffffffffffffffffffffffffffffffffffff166342966c68856040518263ffffffff1660e01b815260040162001ea291906200258b565b600060405180830381600087803b15801562001ebd57600080fd5b505af115801562001ed2573d6000803e3d6000fd5b50505050601a60009054906101000a900473ffffffffffffffffffffffffffffffffffffffff1673ffffffffffffffffffffffffffffffffffffffff1663a9059cbb83836040518363ffffffff1660e01b815260040162001f3592919062002ce7565b6020604051808303816000875af115801562001f55573d6000803e3d6000fd5b505050506040513d601f19601f8201168201806040525081019062001f7b919062002baf565b508173ffffffffffffffffffffffffffffffffffffffff166108fc349081150290604051600060405180830381858888f1935050505015801562001fc3573d6000803e3d6000fd5b505050505050505050565b60135481565b60036020528060005260406000206000915090505481565b600f5481565b60026020528060005260406000206000915090505481565b60005481565b60186020528060005260406000206000915090505481565b60075481565b60008183106200203f578162002041565b825b905092915050565b6001600960008282546200205e919062002a4f565b92505081905550806007600082825462002079919062002a4f565b92505081905550600a600085815260200190815260200160002083908060018154018082558091505060019003906000526020600020016000909190919091505580600d60008681526020019081526020016000206000828254620020df919062002a4f565b9250508190555081600b600086815260200190815260200160002060006101000a81548173ffffffffffffffffffffffffffffffffffffffff021916908373ffffffffffffffffffffffffffffffffffffffff16021790555060016011600086815260200190815260200160002060006101000a81548160ff02191690831515021790555083600e60008581526020019081526020016000208190555050505050565b60006003600083815260200190815260200160002054905060018060008381526020019081526020016000206000828254620021bf919062002be1565b925050819055506001600260008381526020019081526020016000206000828254620021ec919062002a4f565b9250508190555060006006600083815260200190815260200160002060006101000a81548160ff0219169083151502179055505050565b816007600082825462002237919062002be1565b92505081905550816008600082825462002252919062002a4f565b925050819055506000600e600085815260200190815260200160002054905082600c6000838152602001908152602001600020600082825462002296919062002a4f565b9250508190555060008383620022ad919062002be1565b03620022e05760006011600086815260200190815260200160002060006101000a81548160ff0219169083151502179055505b50505050565b8260036000848152602001908152602001600020819055506001806000858152602001908152602001600020600082825462002323919062002a4f565b92505081905550600160046000848152602001908152602001600020600085815260200190815260200160002060006101000a81548160ff021916908315150217905550806005600084815260200190815260200160002060006101000a81548173ffffffffffffffffffffffffffffffffffffffff021916908373ffffffffffffffffffffffffffffffffffffffff1602179055506001600080828254620023cd919062002a4f565b9250508190555060016006600085815260200190815260200160002060006101000a81548160ff021916908315150217905550505050565b610d218062002f4a83390190565b610d008062003c6b83390190565b600080fd5b6000819050919050565b6200243b8162002426565b81146200244757600080fd5b50565b6000813590506200245b8162002430565b92915050565b6000602082840312156200247a576200247962002421565b5b60006200248a848285016200244a565b91505092915050565b60008115159050919050565b620024aa8162002493565b82525050565b6000602082019050620024c760008301846200249f565b92915050565b6000819050919050565b620024e281620024cd565b8114620024ee57600080fd5b50565b6000813590506200250281620024d7565b92915050565b6000806000806080858703121562002525576200252462002421565b5b600062002535878288016200244a565b945050602062002548878288016200244a565b93505060406200255b878288016200244a565b92505060606200256e87828801620024f1565b91505092959194509250565b620025858162002426565b82525050565b6000602082019050620025a260008301846200257a565b92915050565b600073ffffffffffffffffffffffffffffffffffffffff82169050919050565b6000620025d582620025a8565b9050919050565b620025e781620025c8565b8114620025f357600080fd5b50565b6000813590506200260781620025dc565b92915050565b6000806040838503121562002627576200262662002421565b5b60006200263785828601620025f6565b92505060206200264a858286016200244a565b9150509250929050565b600080604083850312156200266e576200266d62002421565b5b60006200267e858286016200244a565b925050602062002691858286016200244a565b9150509250929050565b620026a681620025c8565b82525050565b6000602082019050620026c360008301846200269b565b92915050565b60008060008060808587031215620026e657620026e562002421565b5b6000620026f687828801620025f6565b945050602062002709878288016200244a565b93505060406200271c878288016200244a565b92505060606200272f878288016200244a565b91505092959194509250565b60008060006060848603121562002757576200275662002421565b5b600062002767868287016200244a565b93505060206200277a86828701620024f1565b92505060406200278d868287016200244a565b9150509250925092565b600082825260208201905092915050565b7f43616c6c6572206973206e6f7420746865206f776e6572000000000000000000600082015250565b6000620027e060178362002797565b9150620027ed82620027a8565b602082019050919050565b600060208201905081810360008301526200281381620027d1565b9050919050565b7f4e6f74206861766520656e6f756768206d617474657200000000000000000000600082015250565b60006200285260168362002797565b91506200285f826200281a565b602082019050919050565b60006020820190508181036000830152620028858162002843565b9050919050565b6000815190506200289d8162002430565b92915050565b600060208284031215620028bc57620028bb62002421565b5b6000620028cc848285016200288c565b91505092915050565b7f4e6f74206869676820656e6f7567680000000000000000000000000000000000600082015250565b60006200290d600f8362002797565b91506200291a82620028d5565b602082019050919050565b600060208201905081810360008301526200294081620028fe565b9050919050565b7f4e487b7100000000000000000000000000000000000000000000000000000000600052601260045260246000fd5b6000620029838262002426565b9150620029908362002426565b925082620029a357620029a262002947565b5b828206905092915050565b7f447261772072617465206e6f7420646976697369626c65000000000000000000600082015250565b6000620029e660178362002797565b9150620029f382620029ae565b602082019050919050565b6000602082019050818103600083015262002a1981620029d7565b9050919050565b7f4e487b7100000000000000000000000000000000000000000000000000000000600052601160045260246000fd5b600062002a5c8262002426565b915062002a698362002426565b925082820190508082111562002a845762002a8362002a20565b5b92915050565b7f4e487b7100000000000000000000000000000000000000000000000000000000600052603260045260246000fd5b600062002ac68262002426565b915062002ad38362002426565b925082820262002ae38162002426565b9150828204841483151762002afd5762002afc62002a20565b5b5092915050565b6000819050919050565b6000819050919050565b600062002b3962002b3362002b2d8462002b04565b62002b0e565b62002426565b9050919050565b62002b4b8162002b18565b82525050565b600060408201905062002b6860008301856200269b565b62002b77602083018462002b40565b9392505050565b62002b898162002493565b811462002b9557600080fd5b50565b60008151905062002ba98162002b7e565b92915050565b60006020828403121562002bc85762002bc762002421565b5b600062002bd88482850162002b98565b91505092915050565b600062002bee8262002426565b915062002bfb8362002426565b925082820390508181111562002c165762002c1562002a20565b5b92915050565b600062002c298262002426565b91507fffffffffffffffffffffffffffffffffffffffffffffffffffffffffffffffff820362002c5e5762002c5d62002a20565b5b600182019050919050565b62002c7481620024cd565b82525050565b600060c08201905062002c9160008301896200257a565b62002ca060208301886200257a565b62002caf60408301876200257a565b62002cbe60608301866200257a565b62002ccd60808301856200269b565b62002cdc60a083018462002c69565b979650505050505050565b600060408201905062002cfe60008301856200269b565b62002d0d60208301846200257a565b9392505050565b7f4e6f7420656e6f756768206d6174746572000000000000000000000000000000600082015250565b600062002d4c60118362002797565b915062002d598262002d14565b602082019050919050565b6000602082019050818103600083015262002d7f8162002d3d565b9050919050565b7f45746865722076616c7565206973206e6f7420656e6f75676800000000000000600082015250565b600062002dbe60198362002797565b915062002dcb8262002d86565b602082019050919050565b6000602082019050818103600083015262002df18162002daf565b9050919050565b7f4d61747465722062616c616e6365206973206e6f7420656e6f75676800000000600082015250565b600062002e30601c8362002797565b915062002e3d8262002df8565b602082019050919050565b6000602082019050818103600083015262002e638162002e21565b9050919050565b7f4e6f7420656e6f756768206d617474657220676976656e000000000000000000600082015250565b600062002ea260178362002797565b915062002eaf8262002e6a565b602082019050919050565b6000602082019050818103600083015262002ed58162002e93565b9050919050565b600060c08201905062002ef360008301896200269b565b62002f0260208301886200257a565b62002f1160408301876200257a565b62002f20606083018662002c69565b62002f2f60808301856200269b565b62002f3e60a08301846200257a565b97965050505050505056fe60806040523480156200001157600080fd5b5060405162000d2138038062000d21833981810160405281019062000037919062000283565b85600080018190555084600060010181905550836000600201819055508260006003018190555030600060040160006101000a81548173ffffffffffffffffffffffffffffffffffffffff021916908373ffffffffffffffffffffffffffffffffffffffff16021790555033600060050160006101000a81548173ffffffffffffffffffffffffffffffffffffffff021916908373ffffffffffffffffffffffffffffffffffffffff16021790555080600060060181905550600060050160009054906101000a900473ffffffffffffffffffffffffffffffffffffffff16600860006101000a81548173ffffffffffffffffffffffffffffffffffffffff021916908373ffffffffffffffffffffffffffffffffffffffff16021790555081600960006101000a81548173ffffffffffffffffffffffffffffffffffffffff021916908373ffffffffffffffffffffffffffffffffffffffff1602179055505050505050506200031f565b600080fd5b6000819050919050565b620001bd81620001a8565b8114620001c957600080fd5b50565b600081519050620001dd81620001b2565b92915050565b600073ffffffffffffffffffffffffffffffffffffffff82169050919050565b60006200021082620001e3565b9050919050565b620002228162000203565b81146200022e57600080fd5b50565b600081519050620002428162000217565b92915050565b6000819050919050565b6200025d8162000248565b81146200026957600080fd5b50565b6000815190506200027d8162000252565b92915050565b60008060008060008060c08789031215620002a357620002a2620001a3565b5b6000620002b389828a01620001cc565b9650506020620002c689828a01620001cc565b9550506040620002d989828a01620001cc565b9450506060620002ec89828a01620001cc565b9350506080620002ff89828a0162000231565b92505060a06200031289828a016200026c565b9150509295509295509295565b6109f2806200032f6000396000f3fe608060405234801561001057600080fd5b506004361061002b5760003560e01c806327ac1b6514610030575b600080fd5b61004a60048036038101906100459190610563565b61004c565b005b60011515600060070160003373ffffffffffffffffffffffffffffffffffffffff1673ffffffffffffffffffffffffffffffffffffffff16815260200190815260200160002060009054906101000a900460ff161515036100e2576040517f08c379a00000000000000000000000000000000000000000000000000000000081526004016100d990610667565b60405180910390fd5b6000806002015411610129576040517f08c379a0000000000000000000000000000000000000000000000000000000008152600401610120906106d3565b60405180910390fd5b610132836102eb565b50600960009054906101000a900473ffffffffffffffffffffffffffffffffffffffff1673ffffffffffffffffffffffffffffffffffffffff16639cee22b13360008001546000600301546000600201546040518563ffffffff1660e01b81526004016101a2949392919061074d565b600060405180830381600087803b1580156101bc57600080fd5b505af11580156101d0573d6000803e3d6000fd5b50505050600060030154600060020160008282546101ee91906107c1565b925050819055506001600060070160003373ffffffffffffffffffffffffffffffffffffffff1673ffffffffffffffffffffffffffffffffffffffff16815260200190815260200160002060006101000a81548160ff021916908315150217905550600860009054906101000a900473ffffffffffffffffffffffffffffffffffffffff1673ffffffffffffffffffffffffffffffffffffffff16639202c1ec60006001015484846040518463ffffffff1660e01b81526004016102b4939291906108b8565b600060405180830381600087803b1580156102ce57600080fd5b505af11580156102e2573d6000803e3d6000fd5b50505050505050565b600080826040516020016102ff9190610939565b604051602081830303815290604052805190602001209050600060060154811461035e576040517f08c379a00000000000000000000000000000000000000000000000000000000081526004016103559061099c565b60405180910390fd5b6001915050919050565b6000604051905090565b600080fd5b600080fd5b600080fd5b600080fd5b6000601f19601f8301169050919050565b7f4e487b7100000000000000000000000000000000000000000000000000000000600052604160045260246000fd5b6103cf82610386565b810181811067ffffffffffffffff821117156103ee576103ed610397565b5b80604052505050565b6000610401610368565b905061040d82826103c6565b919050565b600067ffffffffffffffff82111561042d5761042c610397565b5b61043682610386565b9050602081019050919050565b82818337600083830152505050565b600061046561046084610412565b6103f7565b90508281526020810184848401111561048157610480610381565b5b61048c848285610443565b509392505050565b600082601f8301126104a9576104a861037c565b5b81356104b9848260208601610452565b91505092915050565b600067ffffffffffffffff8211156104dd576104dc610397565b5b6104e682610386565b9050602081019050919050565b6000610506610501846104c2565b6103f7565b90508281526020810184848401111561052257610521610381565b5b61052d848285610443565b509392505050565b600082601f83011261054a5761054961037c565b5b813561055a8482602086016104f3565b91505092915050565b60008060006060848603121561057c5761057b610372565b5b600084013567ffffffffffffffff81111561059a57610599610377565b5b6105a686828701610494565b935050602084013567ffffffffffffffff8111156105c7576105c6610377565b5b6105d386828701610494565b925050604084013567ffffffffffffffff8111156105f4576105f3610377565b5b61060086828701610535565b9150509250925092565b600082825260208201905092915050565b7f43616e206f6e6c792064726177206f6e63650000000000000000000000000000600082015250565b600061065160128361060a565b915061065c8261061b565b602082019050919050565b6000602082019050818103600083015261068081610644565b9050919050565b7f4e6f2062757474657220746f2064726177000000000000000000000000000000600082015250565b60006106bd60118361060a565b91506106c882610687565b602082019050919050565b600060208201905081810360008301526106ec816106b0565b9050919050565b600073ffffffffffffffffffffffffffffffffffffffff82169050919050565b600061071e826106f3565b9050919050565b61072e81610713565b82525050565b6000819050919050565b61074781610734565b82525050565b60006080820190506107626000830187610725565b61076f602083018661073e565b61077c604083018561073e565b610789606083018461073e565b95945050505050565b7f4e487b7100000000000000000000000000000000000000000000000000000000600052601160045260246000fd5b60006107cc82610734565b91506107d783610734565b92508282039050818111156107ef576107ee610792565b5b92915050565b600081519050919050565b60005b8381101561081e578082015181840152602081019050610803565b60008484015250505050565b6000610835826107f5565b61083f818561060a565b935061084f818560208601610800565b61085881610386565b840191505092915050565b600081519050919050565b600082825260208201905092915050565b600061088a82610863565b610894818561086e565b93506108a4818560208601610800565b6108ad81610386565b840191505092915050565b60006060820190506108cd600083018661073e565b81810360208301526108df818561082a565b905081810360408301526108f3818461087f565b9050949350505050565b600081905092915050565b6000610913826107f5565b61091d81856108fd565b935061092d818560208601610800565b80840191505092915050565b60006109458284610908565b915081905092915050565b7f496e70757420646f6573206e6f74206d61746368207365637265740000000000600082015250565b6000610986601b8361060a565b915061099182610950565b602082019050919050565b600060208201905081810360008301526109b581610979565b905091905056fea26469706673582212206653580286634fdb75cad61f3fe24a8bb0cc31ae4ea9d8043a350150ab288f8564736f6c63430008110033608060405260405162000d0038038062000d008339818101604052810190620000299190620001fb565b85600760006101000a81548173ffffffffffffffffffffffffffffffffffffffff021916908373ffffffffffffffffffffffffffffffffffffffff16021790555081600860006101000a81548173ffffffffffffffffffffffffffffffffffffffff021916908373ffffffffffffffffffffffffffffffffffffffff16021790555084600081905550836001819055508260028190555081600360006101000a81548173ffffffffffffffffffffffffffffffffffffffff021916908373ffffffffffffffffffffffffffffffffffffffff160217905550346005819055508060048190555050505050505062000297565b600080fd5b600073ffffffffffffffffffffffffffffffffffffffff82169050919050565b60006200014d8262000120565b9050919050565b6200015f8162000140565b81146200016b57600080fd5b50565b6000815190506200017f8162000154565b92915050565b6000819050919050565b6200019a8162000185565b8114620001a657600080fd5b50565b600081519050620001ba816200018f565b92915050565b6000819050919050565b620001d581620001c0565b8114620001e157600080fd5b50565b600081519050620001f581620001ca565b92915050565b60008060008060008060c087890312156200021b576200021a6200011b565b5b60006200022b89828a016200016e565b96505060206200023e89828a01620001a9565b95505060406200025189828a01620001a9565b94505060606200026489828a01620001e4565b93505060806200027789828a016200016e565b92505060a06200028a89828a01620001a9565b9150509295509295509295565b610a5980620002a76000396000f3fe6080604052600436106100705760003560e01c80637fdca4821161004e5780637fdca482146100e75780638ad23aea14610112578063956c2dc31461013d578063c5d12c971461016657610070565b806307604b1a1461007557806326b2c77c146100a05780632c5553c9146100bc575b600080fd5b34801561008157600080fd5b5061008a610191565b6040516100979190610483565b60405180910390f35b6100ba60048036038101906100b591906104de565b6101b7565b005b3480156100c857600080fd5b506100d161027f565b6040516100de9190610524565b60405180910390f35b3480156100f357600080fd5b506100fc610285565b6040516101099190610524565b60405180910390f35b34801561011e57600080fd5b5061012761028b565b6040516101349190610524565b60405180910390f35b34801561014957600080fd5b50610164600480360381019061015f9190610726565b610291565b005b34801561017257600080fd5b5061017b6103c2565b6040516101889190610524565b60405180910390f35b600360009054906101000a900473ffffffffffffffffffffffffffffffffffffffff1681565b6000600454346101c791906107fc565b9050600360009054906101000a900473ffffffffffffffffffffffffffffffffffffffff1673ffffffffffffffffffffffffffffffffffffffff166108fc6004549081150290604051600060405180830381858888f19350505050158015610233573d6000803e3d6000fd5b508173ffffffffffffffffffffffffffffffffffffffff166108fc829081150290604051600060405180830381858888f1935050505015801561027a573d6000803e3d6000fd5b505050565b60005481565b60015481565b60055481565b61029a836103c8565b50600860009054906101000a900473ffffffffffffffffffffffffffffffffffffffff1673ffffffffffffffffffffffffffffffffffffffff1663733b0bca6001546006546040518363ffffffff1660e01b81526004016102fc929190610830565b600060405180830381600087803b15801561031657600080fd5b505af115801561032a573d6000803e3d6000fd5b50505050600760009054906101000a900473ffffffffffffffffffffffffffffffffffffffff1673ffffffffffffffffffffffffffffffffffffffff1663a0e12efe83836040518363ffffffff1660e01b815260040161038b92919061092d565b600060405180830381600087803b1580156103a557600080fd5b505af11580156103b9573d6000803e3d6000fd5b50505050505050565b60065481565b600080826040516020016103dc91906109a0565b6040516020818303038152906040528051906020012090506002548114610438576040517f08c379a000000000000000000000000000000000000000000000000000000000815260040161042f90610a03565b60405180910390fd5b6001915050919050565b600073ffffffffffffffffffffffffffffffffffffffff82169050919050565b600061046d82610442565b9050919050565b61047d81610462565b82525050565b60006020820190506104986000830184610474565b92915050565b6000604051905090565b600080fd5b600080fd5b6104bb81610462565b81146104c657600080fd5b50565b6000813590506104d8816104b2565b92915050565b6000602082840312156104f4576104f36104a8565b5b6000610502848285016104c9565b91505092915050565b6000819050919050565b61051e8161050b565b82525050565b60006020820190506105396000830184610515565b92915050565b600080fd5b600080fd5b6000601f19601f8301169050919050565b7f4e487b7100000000000000000000000000000000000000000000000000000000600052604160045260246000fd5b61059282610549565b810181811067ffffffffffffffff821117156105b1576105b061055a565b5b80604052505050565b60006105c461049e565b90506105d08282610589565b919050565b600067ffffffffffffffff8211156105f0576105ef61055a565b5b6105f982610549565b9050602081019050919050565b82818337600083830152505050565b6000610628610623846105d5565b6105ba565b90508281526020810184848401111561064457610643610544565b5b61064f848285610606565b509392505050565b600082601f83011261066c5761066b61053f565b5b813561067c848260208601610615565b91505092915050565b600067ffffffffffffffff8211156106a05761069f61055a565b5b6106a982610549565b9050602081019050919050565b60006106c96106c484610685565b6105ba565b9050828152602081018484840111156106e5576106e4610544565b5b6106f0848285610606565b509392505050565b600082601f83011261070d5761070c61053f565b5b813561071d8482602086016106b6565b91505092915050565b60008060006060848603121561073f5761073e6104a8565b5b600084013567ffffffffffffffff81111561075d5761075c6104ad565b5b61076986828701610657565b935050602084013567ffffffffffffffff81111561078a576107896104ad565b5b61079686828701610657565b925050604084013567ffffffffffffffff8111156107b7576107b66104ad565b5b6107c3868287016106f8565b9150509250925092565b7f4e487b7100000000000000000000000000000000000000000000000000000000600052601160045260246000fd5b60006108078261050b565b91506108128361050b565b925082820390508181111561082a576108296107cd565b5b92915050565b60006040820190506108456000830185610515565b6108526020830184610515565b9392505050565b600081519050919050565b600082825260208201905092915050565b60005b83811015610893578082015181840152602081019050610878565b60008484015250505050565b60006108aa82610859565b6108b48185610864565b93506108c4818560208601610875565b6108cd81610549565b840191505092915050565b600081519050919050565b600082825260208201905092915050565b60006108ff826108d8565b61090981856108e3565b9350610919818560208601610875565b61092281610549565b840191505092915050565b60006040820190508181036000830152610947818561089f565b9050818103602083015261095b81846108f4565b90509392505050565b600081905092915050565b600061097a82610859565b6109848185610964565b9350610994818560208601610875565b80840191505092915050565b60006109ac828461096f565b915081905092915050565b7f496e70757420646f6573206e6f74206d61746368207365637265740000000000600082015250565b60006109ed601b83610864565b91506109f8826109b7565b602082019050919050565b60006020820190508181036000830152610a1c816109e0565b905091905056fea2646970667358221220d881e0175838d4e1c224dbd5f9358572a9708c86acba33dc3a386ab3141cce4b64736f6c63430008110033a264697066735822122056087795acf96068d2bb41f9293b31ebbdaea66be4f6533218925f8d826eef2764736f6c63430008110033",
  "immutableReferences": {},
  "source": "// SPDX-License-Identifier: MIT\npragma solidity ^0.8.7;\n\nimport \"openzeppelin-solidity/contracts/utils/math/Math.sol\";\nimport \"./CosmoMatter.sol\";\nimport \"./CosmoSeed.sol\";\nimport \"./CosmoButter.sol\";\n\nimport \"./SeedAccounts.sol\";\nimport \"./ButterAccounts.sol\";\n\n/**\n * @dev Manages the matter balance of the CosmoNuts collection and handles interaction with the\n * ERC20 Token to mint, burn, and allocate balances\n * Acts as storage for the ERC 721 tokens on their created Seed and Butter contracts.\n */\n contract CosmoTreasury is SeedAccounts, ButterAccounts {\n\n    /**\n     * @dev Saved addresses include the contract which created the Treasury: UNIVERSE_ADDRESS, and\n     * the address of the CosmoNuts contract (NFTs) which is created after the Treasury and then updated: matter_ADDRESS.\n     */\n    //address public UNIVERSE_ADDRESS;\n    address public MATTER_ADDRESS;\n    uint256 public NUT_PRICE;\n    uint256 public MATTER_RATE;\n\n    /**\n     * @dev matterInUniverse is the Treasury's own account of the current ERC20 token supply available in Universe.\n     * matterInTreasury is the balanceOf ERC20 tokens that are assigned to the Treasury address and controlled by this contract.\n     * MATTER_RATE is the amount of matter it takes to create one NFT (used in calculating pricing) - set to 100\n     */\n    uint256 public matterInUniverse;\n    uint256 public matterInTreasury;\n\n    mapping(uint256 => address) public currentOwnerOfNut; // Record of current nut owners by address\n    mapping(uint256 => uint256) public matterBalanceOfNut; // Matter balance of each Nut recorded by the Treasury\n\n    uint256[] public nutsPayeeList; // List of nuts to be provided a balance\n\n    CosmoMatter matter;\n    //CosmoSeed seed;\n    //CosmoButter butter;\n\n    /**\n     *\n     */\n    constructor(address _matterAddress, uint256 _matterRate) {\n        MATTER_ADDRESS = _matterAddress;\n        MATTER_RATE = _matterRate;\n        matter = CosmoMatter(MATTER_ADDRESS);\n        matterInUniverse = matter.totalSupply();\n        matterInTreasury = matter.balanceOf(address(this));\n    }\n\n    /*\n    modifier onlyUniverse {\n        require(address(msg.sender) == UNIVERSE_ADDRESS, \"Caller is not Universe\");\n        _;\n    }\n    */\n\n    /*\n    function updateCosmosAddress(address _matterAddressNew) external onlyUniverse {\n        MATTER_ADDRESS = _matterAddressNew;\n    }\n    */\n\n    //function updateNutPrice(uint256 _setNutPrice) external onlyUniverse {\n    //    NUT_PRICE = _setNutPrice;\n    //}\n\n    function spawnSeed(uint256 _nutId, bytes32 _secretHash, uint256 _matterContributed) external payable {\n        uint256 ethToHold = NUT_PRICE ^ (seedsGrownOfNut[_nutId] + 1);\n        require(msg.value >= ethToHold, \"Ether value is not enough\");\n        //matter = CosmoMatter(MATTER_ADDRESS);\n\n        uint256 matterToBurn = MATTER_RATE ^ (seedsOfNut[_nutId] + 1);\n        uint256 matterOfOwner = matter.balanceOf((currentOwnerOfNut[_nutId]));\n\n        require(matterOfOwner >= matterToBurn, \"Matter balance is not enough\");\n        require(_matterContributed >= matterToBurn, \"Not enough matter given\");\n\n        CosmoSeed seed = new CosmoSeed(\n            MATTER_ADDRESS, _nutId, seedsCreated, _secretHash, address(this), NUT_PRICE\n        );\n        integrateSeed(_nutId, seedsCreated, address(seed));\n\n        uint256 excessMatter = _matterContributed - matterToBurn;\n\n        matter.burn(matterToBurn);\n        matter.transfer(address(seed), excessMatter);\n        payable(address(seed)).transfer(msg.value);\n    }\n\n    function growSeedFromNut(uint256 _seedId, uint256 _matterNeeded) external {\n        //matter = CosmoMatter(MATTER_ADDRESS);\n        require(matter.balanceOf(address(msg.sender)) >= _matterNeeded, \"Not enough matter\");\n\n        address seedAddress = seedLocations[_seedId];\n        CosmoSeed seed = CosmoSeed(seedAddress);\n\n        address nutOwner = currentOwnerOfNut[seed.NUT_ID()];\n        matter.transfer(nutOwner, _matterNeeded);\n        matter.mintMatter(address(this), 1);\n\n        seed.degradeSeed(nutOwner);\n\n        matterInUniverse = matter.totalSupply();\n        matterInTreasury = matter.balanceOf(address(this));\n\n        growSeed(_seedId);\n\n    }\n\n    /**\n     * Creating new butter means the creation of a contract where other users can withdraw matter from.\n     * Need to contribute butter (which can only be done if you have a Nut with the desired level of matter to give away.\n     * A secret message is provided in hash form and checked for verification to withdraw funds.\n     */\n    function newButter(uint256 _nutId, uint256 _matterContributed, uint256 _matterDrawRate, bytes32 _secretHash) external {\n        address nutOwner = currentOwnerOfNut[_nutId];\n        // Do we need to be doing these checks twice? Or really new check that caller is from contract (? or person who clicked?)\n        require(nutOwner == address(msg.sender), \"Caller is not the owner\");\n        require(matterBalanceOfNut[_nutId] >= _matterContributed, \"Not have enough matter\");\n        //matter = CosmoMatter(MATTER_ADDRESS);\n        require(_matterContributed <= matter.balanceOf(nutOwner), \"Not high enough\");\n        require(_matterContributed % _matterDrawRate == 0, \"Draw rate not divisible\");\n\n        /**\n         * A nut must have already grown a seed to start being counted as part of the deficiency list.\n         */\n        if (seedsGrownOfNut[_nutId] > 0) {\n            butterDeficiencyInUniverse += _matterContributed;\n            butterDeficiencyOfNut[_nutId] += _matterContributed;\n            nutsPayeeList.push(_nutId);\n        }\n\n        /**\n         * The Treasury wants to distribute its available balance to the nutsPayeeList.\n         * It will distribute the minimum of either its available balance or the deficiency in the Universe.\n         * All payees are awarded one matter and moved to the end of the list.\n         * When their maximum available balance is reached, they are removed from the payee list.\n         */\n        matterInTreasury = matter.balanceOf(address(this));\n        if (matterInTreasury > 0) {\n            uint256 toDistribute = Math.min(matterInTreasury, butterDeficiencyInUniverse);\n\n            uint256 index = 0;\n            for (uint j = 0; j != toDistribute; j++) {\n                uint256 allPayees = nutsPayeeList.length;\n                if (allPayees == 0) {\n                    break;\n                }\n\n                if (j > allPayees) {\n                    index = 0;\n                }\n\n                uint256 nutPayeeId = nutsPayeeList[index];\n                address nutOwnerPayee = currentOwnerOfNut[nutPayeeId];\n                uint256 maxMatter = seedsGrownOfNut[nutPayeeId] * MATTER_RATE;\n                if (matterBalanceOfNut[nutPayeeId] == maxMatter) {\n                    delete nutsPayeeList[index];\n                } else {\n                    matter.transfer(nutOwnerPayee, 1);\n                    nutsPayeeList.push(nutPayeeId);\n                    delete nutsPayeeList[index];\n\n                    butterDeficiencyInUniverse -= 1;\n                    butterDeficiencyOfNut[nutPayeeId] -= 1;\n                }\n\n                index++;\n           }\n           matterInTreasury = matter.balanceOf(address(this));\n        }\n\n        CosmoButter butter = new CosmoButter(\n            butterJars, _nutId, _matterContributed, _matterDrawRate, address(this), _secretHash\n            //MATTER_ADDRESS, address(this), _nutId, butterJars, _matterContributed, _matterDrawRate, _secretHash\n        );\n        matter.transfer(address(butter), _matterContributed);\n        churnButter(_nutId, butterJars, address(butter), _matterContributed);\n\n    }\n\n    /**\n     * Runs from CosmoButter contract when someone requests to draw matter.\n     */\n    function butterDrawn(address _drawer, uint256 _butterId, uint256 _balance, uint256 _currentBalance) external {\n        //matter = CosmoMatter(MATTER_ADDRESS);\n        matter.transfer(_drawer, _balance);\n        matter.mintMatter(address(this), _balance);\n        distributeButter(_butterId, _balance, _currentBalance);\n\n        matterInUniverse = matter.totalSupply();\n        matterInTreasury = matter.balanceOf(address(this));\n    }\n\n    function assignMintBalance(address _tokenOwner, uint256 _tokenId) external {\n        require(matterInTreasury >= MATTER_RATE, \"Not enough matter\");\n        //matter = CosmoMatter(MATTER_ADDRESS);\n        matter.transfer(_tokenOwner, MATTER_RATE);\n        matterBalanceOfNut[_tokenId] = MATTER_RATE;\n        matterInTreasury -= MATTER_RATE;\n    }\n\n}\n",
  "sourcePath": "/home/redlentils/Seafile/Websites/avatarnft/contracts/CosmoTreasury.sol",
  "compiler": {
    "name": "solc",
    "version": "0.8.17+commit.8df45f5f.Emscripten.clang"
  },
  "schemaVersion": "3.4.10",
  "updatedAt": "2022-10-04T08:42:30.341Z",
  "devdoc": {
    "details": "Manages the matter balance of the CosmoNuts collection and handles interaction with the ERC20 Token to mint, burn, and allocate balances Acts as storage for the ERC 721 tokens on their created Seed and Butter contracts.",
    "kind": "dev",
    "methods": {},
    "stateVariables": {
      "MATTER_ADDRESS": {
        "details": "Saved addresses include the contract which created the Treasury: UNIVERSE_ADDRESS, and the address of the CosmoNuts contract (NFTs) which is created after the Treasury and then updated: matter_ADDRESS."
      },
      "matterInUniverse": {
        "details": "matterInUniverse is the Treasury's own account of the current ERC20 token supply available in Universe. matterInTreasury is the balanceOf ERC20 tokens that are assigned to the Treasury address and controlled by this contract. MATTER_RATE is the amount of matter it takes to create one NFT (used in calculating pricing) - set to 100"
      }
    },
    "version": 1
  },
  "userdoc": {
    "kind": "user",
    "methods": {
      "butterDrawn(address,uint256,uint256,uint256)": {
        "notice": "Runs from CosmoButter contract when someone requests to draw matter."
      },
      "butterWeight()": {
        "notice": "butterWeight is the amount of matter in the universe thta is currently outstanding. butterSpread is the amount of matter that has been distributed from butterWeight, thus reducing its value. butterJams represent the total number of matter contracts created in the Universe."
      },
      "buttersOfNut(uint256,uint256)": {
        "notice": "buttersOfNut represents a list of all butter contracts created byt that nut. butterLocations represents the address of contract identifed by butterId."
      },
      "newButter(uint256,uint256,uint256,bytes32)": {
        "notice": "Creating new butter means the creation of a contract where other users can withdraw matter from. Need to contribute butter (which can only be done if you have a Nut with the desired level of matter to give away. A secret message is provided in hash form and checked for verification to withdraw funds."
      }
    },
    "version": 1
  }
}