{
  "contractName": "CosmoCreation",
  "abi": [
    {
      "inputs": [
        {
          "internalType": "string",
          "name": "_name",
          "type": "string"
        },
        {
          "internalType": "string",
          "name": "_symbol",
          "type": "string"
        },
        {
          "internalType": "uint256",
          "name": "_initialSupply",
          "type": "uint256"
        },
        {
          "internalType": "address",
          "name": "_systemAddress",
          "type": "address"
        },
        {
          "internalType": "address",
          "name": "_treasuryAddress",
          "type": "address"
        }
      ],
      "stateMutability": "nonpayable",
      "type": "constructor"
    },
    {
      "anonymous": false,
      "inputs": [
        {
          "indexed": true,
          "internalType": "address",
          "name": "owner",
          "type": "address"
        },
        {
          "indexed": true,
          "internalType": "address",
          "name": "approved",
          "type": "address"
        },
        {
          "indexed": true,
          "internalType": "uint256",
          "name": "tokenId",
          "type": "uint256"
        }
      ],
      "name": "Approval",
      "type": "event"
    },
    {
      "anonymous": false,
      "inputs": [
        {
          "indexed": true,
          "internalType": "address",
          "name": "owner",
          "type": "address"
        },
        {
          "indexed": true,
          "internalType": "address",
          "name": "operator",
          "type": "address"
        },
        {
          "indexed": false,
          "internalType": "bool",
          "name": "approved",
          "type": "bool"
        }
      ],
      "name": "ApprovalForAll",
      "type": "event"
    },
    {
      "anonymous": false,
      "inputs": [
        {
          "indexed": true,
          "internalType": "address",
          "name": "previousOwner",
          "type": "address"
        },
        {
          "indexed": true,
          "internalType": "address",
          "name": "newOwner",
          "type": "address"
        }
      ],
      "name": "OwnershipTransferred",
      "type": "event"
    },
    {
      "anonymous": false,
      "inputs": [
        {
          "indexed": true,
          "internalType": "address",
          "name": "from",
          "type": "address"
        },
        {
          "indexed": true,
          "internalType": "address",
          "name": "to",
          "type": "address"
        },
        {
          "indexed": true,
          "internalType": "uint256",
          "name": "tokenId",
          "type": "uint256"
        }
      ],
      "name": "Transfer",
      "type": "event"
    },
    {
      "inputs": [],
      "name": "INITIAL_NUTS",
      "outputs": [
        {
          "internalType": "uint256",
          "name": "",
          "type": "uint256"
        }
      ],
      "stateMutability": "view",
      "type": "function"
    },
    {
      "inputs": [],
      "name": "NUT_PRICE",
      "outputs": [
        {
          "internalType": "uint256",
          "name": "",
          "type": "uint256"
        }
      ],
      "stateMutability": "view",
      "type": "function"
    },
    {
      "inputs": [],
      "name": "TREASURY_ADDRESS",
      "outputs": [
        {
          "internalType": "address",
          "name": "",
          "type": "address"
        }
      ],
      "stateMutability": "view",
      "type": "function"
    },
    {
      "inputs": [
        {
          "internalType": "address",
          "name": "to",
          "type": "address"
        },
        {
          "internalType": "uint256",
          "name": "tokenId",
          "type": "uint256"
        }
      ],
      "name": "approve",
      "outputs": [],
      "stateMutability": "nonpayable",
      "type": "function"
    },
    {
      "inputs": [
        {
          "internalType": "address",
          "name": "owner",
          "type": "address"
        }
      ],
      "name": "balanceOf",
      "outputs": [
        {
          "internalType": "uint256",
          "name": "",
          "type": "uint256"
        }
      ],
      "stateMutability": "view",
      "type": "function"
    },
    {
      "inputs": [
        {
          "internalType": "uint256",
          "name": "tokenId",
          "type": "uint256"
        }
      ],
      "name": "getApproved",
      "outputs": [
        {
          "internalType": "address",
          "name": "",
          "type": "address"
        }
      ],
      "stateMutability": "view",
      "type": "function"
    },
    {
      "inputs": [
        {
          "internalType": "address",
          "name": "owner",
          "type": "address"
        },
        {
          "internalType": "address",
          "name": "operator",
          "type": "address"
        }
      ],
      "name": "isApprovedForAll",
      "outputs": [
        {
          "internalType": "bool",
          "name": "",
          "type": "bool"
        }
      ],
      "stateMutability": "view",
      "type": "function"
    },
    {
      "inputs": [],
      "name": "name",
      "outputs": [
        {
          "internalType": "string",
          "name": "",
          "type": "string"
        }
      ],
      "stateMutability": "view",
      "type": "function"
    },
    {
      "inputs": [],
      "name": "owner",
      "outputs": [
        {
          "internalType": "address",
          "name": "",
          "type": "address"
        }
      ],
      "stateMutability": "view",
      "type": "function"
    },
    {
      "inputs": [
        {
          "internalType": "uint256",
          "name": "tokenId",
          "type": "uint256"
        }
      ],
      "name": "ownerOf",
      "outputs": [
        {
          "internalType": "address",
          "name": "",
          "type": "address"
        }
      ],
      "stateMutability": "view",
      "type": "function"
    },
    {
      "inputs": [],
      "name": "renounceOwnership",
      "outputs": [],
      "stateMutability": "nonpayable",
      "type": "function"
    },
    {
      "inputs": [
        {
          "internalType": "address",
          "name": "from",
          "type": "address"
        },
        {
          "internalType": "address",
          "name": "to",
          "type": "address"
        },
        {
          "internalType": "uint256",
          "name": "tokenId",
          "type": "uint256"
        }
      ],
      "name": "safeTransferFrom",
      "outputs": [],
      "stateMutability": "nonpayable",
      "type": "function"
    },
    {
      "inputs": [
        {
          "internalType": "address",
          "name": "from",
          "type": "address"
        },
        {
          "internalType": "address",
          "name": "to",
          "type": "address"
        },
        {
          "internalType": "uint256",
          "name": "tokenId",
          "type": "uint256"
        },
        {
          "internalType": "bytes",
          "name": "_data",
          "type": "bytes"
        }
      ],
      "name": "safeTransferFrom",
      "outputs": [],
      "stateMutability": "nonpayable",
      "type": "function"
    },
    {
      "inputs": [],
      "name": "saleIsActive",
      "outputs": [
        {
          "internalType": "bool",
          "name": "",
          "type": "bool"
        }
      ],
      "stateMutability": "view",
      "type": "function"
    },
    {
      "inputs": [
        {
          "internalType": "address",
          "name": "operator",
          "type": "address"
        },
        {
          "internalType": "bool",
          "name": "approved",
          "type": "bool"
        }
      ],
      "name": "setApprovalForAll",
      "outputs": [],
      "stateMutability": "nonpayable",
      "type": "function"
    },
    {
      "inputs": [],
      "name": "symbol",
      "outputs": [
        {
          "internalType": "string",
          "name": "",
          "type": "string"
        }
      ],
      "stateMutability": "view",
      "type": "function"
    },
    {
      "inputs": [
        {
          "internalType": "uint256",
          "name": "index",
          "type": "uint256"
        }
      ],
      "name": "tokenByIndex",
      "outputs": [
        {
          "internalType": "uint256",
          "name": "",
          "type": "uint256"
        }
      ],
      "stateMutability": "view",
      "type": "function"
    },
    {
      "inputs": [
        {
          "internalType": "address",
          "name": "owner",
          "type": "address"
        },
        {
          "internalType": "uint256",
          "name": "index",
          "type": "uint256"
        }
      ],
      "name": "tokenOfOwnerByIndex",
      "outputs": [
        {
          "internalType": "uint256",
          "name": "",
          "type": "uint256"
        }
      ],
      "stateMutability": "view",
      "type": "function"
    },
    {
      "inputs": [],
      "name": "totalNuts",
      "outputs": [
        {
          "internalType": "uint256",
          "name": "",
          "type": "uint256"
        }
      ],
      "stateMutability": "view",
      "type": "function"
    },
    {
      "inputs": [],
      "name": "totalSupply",
      "outputs": [
        {
          "internalType": "uint256",
          "name": "",
          "type": "uint256"
        }
      ],
      "stateMutability": "view",
      "type": "function"
    },
    {
      "inputs": [
        {
          "internalType": "address",
          "name": "from",
          "type": "address"
        },
        {
          "internalType": "address",
          "name": "to",
          "type": "address"
        },
        {
          "internalType": "uint256",
          "name": "tokenId",
          "type": "uint256"
        }
      ],
      "name": "transferFrom",
      "outputs": [],
      "stateMutability": "nonpayable",
      "type": "function"
    },
    {
      "inputs": [
        {
          "internalType": "address",
          "name": "newOwner",
          "type": "address"
        }
      ],
      "name": "transferOwnership",
      "outputs": [],
      "stateMutability": "nonpayable",
      "type": "function"
    },
    {
      "inputs": [
        {
          "internalType": "address",
          "name": "_newSystemAddress",
          "type": "address"
        }
      ],
      "name": "updateSystemAddress",
      "outputs": [],
      "stateMutability": "nonpayable",
      "type": "function"
    },
    {
      "inputs": [
        {
          "internalType": "address",
          "name": "_newTreasuryAddress",
          "type": "address"
        }
      ],
      "name": "updateTreasuryAddress",
      "outputs": [],
      "stateMutability": "nonpayable",
      "type": "function"
    },
    {
      "inputs": [
        {
          "internalType": "string",
          "name": "_nutCID",
          "type": "string"
        }
      ],
      "name": "mintNut",
      "outputs": [],
      "stateMutability": "payable",
      "type": "function"
    },
    {
      "inputs": [
        {
          "internalType": "uint256",
          "name": "tokenId",
          "type": "uint256"
        }
      ],
      "name": "tokenURI",
      "outputs": [
        {
          "internalType": "string",
          "name": "",
          "type": "string"
        }
      ],
      "stateMutability": "view",
      "type": "function"
    },
    {
      "inputs": [
        {
          "internalType": "bytes4",
          "name": "interfaceId",
          "type": "bytes4"
        }
      ],
      "name": "supportsInterface",
      "outputs": [
        {
          "internalType": "bool",
          "name": "",
          "type": "bool"
        }
      ],
      "stateMutability": "view",
      "type": "function"
    }
  ],
  "bytecode": "0x60806040526305f5e1006002556000601260006101000a81548160ff0219169083151502179055503480156200003457600080fd5b50604051620049273803806200492783398181016040528101906200005a91906200049e565b84848383816000806101000a81548173ffffffffffffffffffffffffffffffffffffffff021916908373ffffffffffffffffffffffffffffffffffffffff16021790555080600160006101000a81548173ffffffffffffffffffffffffffffffffffffffff021916908373ffffffffffffffffffffffffffffffffffffffff16021790555050508160049081620000f29190620007a5565b508060059081620001049190620007a5565b505050620001276200011b6200019060201b60201c565b6200019860201b60201c565b620001376200025e60201b60201c565b6011819055508260108190555080600160006101000a81548173ffffffffffffffffffffffffffffffffffffffff021916908373ffffffffffffffffffffffffffffffffffffffff16021790555050505050506200088c565b600033905090565b6000600f60009054906101000a900473ffffffffffffffffffffffffffffffffffffffff16905081600f60006101000a81548173ffffffffffffffffffffffffffffffffffffffff021916908373ffffffffffffffffffffffffffffffffffffffff1602179055508173ffffffffffffffffffffffffffffffffffffffff168173ffffffffffffffffffffffffffffffffffffffff167f8be0079c531659141344cd1fd0a4f28419497f9722a3daafe3b4186f6b6457e060405160405180910390a35050565b6000600c80549050905090565b6000604051905090565b600080fd5b600080fd5b600080fd5b600080fd5b6000601f19601f8301169050919050565b7f4e487b7100000000000000000000000000000000000000000000000000000000600052604160045260246000fd5b620002d48262000289565b810181811067ffffffffffffffff82111715620002f657620002f56200029a565b5b80604052505050565b60006200030b6200026b565b9050620003198282620002c9565b919050565b600067ffffffffffffffff8211156200033c576200033b6200029a565b5b620003478262000289565b9050602081019050919050565b60005b838110156200037457808201518184015260208101905062000357565b60008484015250505050565b60006200039762000391846200031e565b620002ff565b905082815260208101848484011115620003b657620003b562000284565b5b620003c384828562000354565b509392505050565b600082601f830112620003e357620003e26200027f565b5b8151620003f584826020860162000380565b91505092915050565b6000819050919050565b6200041381620003fe565b81146200041f57600080fd5b50565b600081519050620004338162000408565b92915050565b600073ffffffffffffffffffffffffffffffffffffffff82169050919050565b6000620004668262000439565b9050919050565b620004788162000459565b81146200048457600080fd5b50565b60008151905062000498816200046d565b92915050565b600080600080600060a08688031215620004bd57620004bc62000275565b5b600086015167ffffffffffffffff811115620004de57620004dd6200027a565b5b620004ec88828901620003cb565b955050602086015167ffffffffffffffff81111562000510576200050f6200027a565b5b6200051e88828901620003cb565b9450506040620005318882890162000422565b9350506060620005448882890162000487565b9250506080620005578882890162000487565b9150509295509295909350565b600081519050919050565b7f4e487b7100000000000000000000000000000000000000000000000000000000600052602260045260246000fd5b60006002820490506001821680620005b757607f821691505b602082108103620005cd57620005cc6200056f565b5b50919050565b60008190508160005260206000209050919050565b60006020601f8301049050919050565b600082821b905092915050565b600060088302620006377fffffffffffffffffffffffffffffffffffffffffffffffffffffffffffffffff82620005f8565b620006438683620005f8565b95508019841693508086168417925050509392505050565b6000819050919050565b600062000686620006806200067a84620003fe565b6200065b565b620003fe565b9050919050565b6000819050919050565b620006a28362000665565b620006ba620006b1826200068d565b84845462000605565b825550505050565b600090565b620006d1620006c2565b620006de81848462000697565b505050565b5b818110156200070657620006fa600082620006c7565b600181019050620006e4565b5050565b601f82111562000755576200071f81620005d3565b6200072a84620005e8565b810160208510156200073a578190505b620007526200074985620005e8565b830182620006e3565b50505b505050565b600082821c905092915050565b60006200077a600019846008026200075a565b1980831691505092915050565b600062000795838362000767565b9150826002028217905092915050565b620007b08262000564565b67ffffffffffffffff811115620007cc57620007cb6200029a565b5b620007d882546200059e565b620007e58282856200070a565b600060209050601f8311600181146200081d576000841562000808578287015190505b62000814858262000787565b86555062000884565b601f1984166200082d86620005d3565b60005b82811015620008575784890151825560018201915060208501945060208101905062000830565b8683101562000877578489015162000873601f89168262000767565b8355505b6001600288020188555050505b505050505050565b61408b806200089c6000396000f3fe60806040526004361061019c5760003560e01c806371ebbef4116100ec578063b88d4fde1161008a578063e3501cb111610064578063e3501cb1146105cd578063e985e9c5146105f6578063eb8d244414610633578063f2fde38b1461065e5761019c565b8063b88d4fde1461053c578063b8a9736d14610565578063c87b56dd146105905761019c565b80638da5cb5b116100c65780638da5cb5b146104a157806395d89b41146104cc57806395f04d05146104f7578063a22cb465146105135761019c565b806371ebbef4146104225780637a3a4a611461044d578063841e4561146104785761019c565b806323b872dd116101595780634f6ccce7116101335780634f6ccce7146103545780636352211e1461039157806370a08231146103ce578063715018a61461040b5761019c565b806323b872dd146102c55780632f745c59146102ee57806342842e0e1461032b5761019c565b806301ffc9a7146101a157806306fdde03146101de57806307604b1a14610209578063081812fc14610234578063095ea7b31461027157806318160ddd1461029a575b600080fd5b3480156101ad57600080fd5b506101c860048036038101906101c391906127f1565b610687565b6040516101d59190612839565b60405180910390f35b3480156101ea57600080fd5b506101f3610699565b60405161020091906128e4565b60405180910390f35b34801561021557600080fd5b5061021e61072b565b60405161022b9190612947565b60405180910390f35b34801561024057600080fd5b5061025b60048036038101906102569190612998565b610751565b6040516102689190612947565b60405180910390f35b34801561027d57600080fd5b50610298600480360381019061029391906129f1565b6107d6565b005b3480156102a657600080fd5b506102af6108ed565b6040516102bc9190612a40565b60405180910390f35b3480156102d157600080fd5b506102ec60048036038101906102e79190612a5b565b6108fa565b005b3480156102fa57600080fd5b50610315600480360381019061031091906129f1565b61095a565b6040516103229190612a40565b60405180910390f35b34801561033757600080fd5b50610352600480360381019061034d9190612a5b565b6109ff565b005b34801561036057600080fd5b5061037b60048036038101906103769190612998565b610a1f565b6040516103889190612a40565b60405180910390f35b34801561039d57600080fd5b506103b860048036038101906103b39190612998565b610a90565b6040516103c59190612947565b60405180910390f35b3480156103da57600080fd5b506103f560048036038101906103f09190612aae565b610b41565b6040516104029190612a40565b60405180910390f35b34801561041757600080fd5b50610420610bf8565b005b34801561042e57600080fd5b50610437610c80565b6040516104449190612a40565b60405180910390f35b34801561045957600080fd5b50610462610c86565b60405161046f9190612a40565b60405180910390f35b34801561048457600080fd5b5061049f600480360381019061049a9190612aae565b610c8c565b005b3480156104ad57600080fd5b506104b6610d5e565b6040516104c39190612947565b60405180910390f35b3480156104d857600080fd5b506104e1610d88565b6040516104ee91906128e4565b60405180910390f35b610511600480360381019061050c9190612c10565b610e1a565b005b34801561051f57600080fd5b5061053a60048036038101906105359190612c85565b610f91565b005b34801561054857600080fd5b50610563600480360381019061055e9190612d66565b610fa7565b005b34801561057157600080fd5b5061057a611009565b6040516105879190612a40565b60405180910390f35b34801561059c57600080fd5b506105b760048036038101906105b29190612998565b61100f565b6040516105c491906128e4565b60405180910390f35b3480156105d957600080fd5b506105f460048036038101906105ef9190612aae565b611021565b005b34801561060257600080fd5b5061061d60048036038101906106189190612de9565b6110f2565b60405161062a9190612839565b60405180910390f35b34801561063f57600080fd5b50610648611186565b6040516106559190612839565b60405180910390f35b34801561066a57600080fd5b5061068560048036038101906106809190612aae565b611199565b005b600061069282611290565b9050919050565b6060600480546106a890612e58565b80601f01602080910402602001604051908101604052809291908181526020018280546106d490612e58565b80156107215780601f106106f657610100808354040283529160200191610721565b820191906000526020600020905b81548152906001019060200180831161070457829003601f168201915b5050505050905090565b600160009054906101000a900473ffffffffffffffffffffffffffffffffffffffff1681565b600061075c8261130a565b61079b576040517f08c379a000000000000000000000000000000000000000000000000000000000815260040161079290612efb565b60405180910390fd5b6008600083815260200190815260200160002060009054906101000a900473ffffffffffffffffffffffffffffffffffffffff169050919050565b60006107e182610a90565b90508073ffffffffffffffffffffffffffffffffffffffff168373ffffffffffffffffffffffffffffffffffffffff1603610851576040517f08c379a000000000000000000000000000000000000000000000000000000000815260040161084890612f8d565b60405180910390fd5b8073ffffffffffffffffffffffffffffffffffffffff16610870611376565b73ffffffffffffffffffffffffffffffffffffffff16148061089f575061089e81610899611376565b6110f2565b5b6108de576040517f08c379a00000000000000000000000000000000000000000000000000000000081526004016108d59061301f565b60405180910390fd5b6108e8838361137e565b505050565b6000600c80549050905090565b61090b610905611376565b82611437565b61094a576040517f08c379a0000000000000000000000000000000000000000000000000000000008152600401610941906130b1565b60405180910390fd5b610955838383611515565b505050565b600061096583610b41565b82106109a6576040517f08c379a000000000000000000000000000000000000000000000000000000000815260040161099d90613143565b60405180910390fd5b600a60008473ffffffffffffffffffffffffffffffffffffffff1673ffffffffffffffffffffffffffffffffffffffff168152602001908152602001600020600083815260200190815260200160002054905092915050565b610a1a83838360405180602001604052806000815250610fa7565b505050565b6000610a296108ed565b8210610a6a576040517f08c379a0000000000000000000000000000000000000000000000000000000008152600401610a61906131d5565b60405180910390fd5b600c8281548110610a7e57610a7d6131f5565b5b90600052602060002001549050919050565b6000806006600084815260200190815260200160002060009054906101000a900473ffffffffffffffffffffffffffffffffffffffff169050600073ffffffffffffffffffffffffffffffffffffffff168173ffffffffffffffffffffffffffffffffffffffff1603610b38576040517f08c379a0000000000000000000000000000000000000000000000000000000008152600401610b2f90613296565b60405180910390fd5b80915050919050565b60008073ffffffffffffffffffffffffffffffffffffffff168273ffffffffffffffffffffffffffffffffffffffff1603610bb1576040517f08c379a0000000000000000000000000000000000000000000000000000000008152600401610ba890613328565b60405180910390fd5b600760008373ffffffffffffffffffffffffffffffffffffffff1673ffffffffffffffffffffffffffffffffffffffff168152602001908152602001600020549050919050565b610c00611376565b73ffffffffffffffffffffffffffffffffffffffff16610c1e610d5e565b73ffffffffffffffffffffffffffffffffffffffff1614610c74576040517f08c379a0000000000000000000000000000000000000000000000000000000008152600401610c6b90613394565b60405180910390fd5b610c7e600061177b565b565b60105481565b60115481565b60008054906101000a900473ffffffffffffffffffffffffffffffffffffffff1673ffffffffffffffffffffffffffffffffffffffff163373ffffffffffffffffffffffffffffffffffffffff1614610d1a576040517f08c379a0000000000000000000000000000000000000000000000000000000008152600401610d1190613400565b60405180910390fd5b80600160006101000a81548173ffffffffffffffffffffffffffffffffffffffff021916908373ffffffffffffffffffffffffffffffffffffffff16021790555050565b6000600f60009054906101000a900473ffffffffffffffffffffffffffffffffffffffff16905090565b606060058054610d9790612e58565b80601f0160208091040260200160405190810160405280929190818152602001828054610dc390612e58565b8015610e105780601f10610de557610100808354040283529160200191610e10565b820191906000526020600020905b815481529060010190602001808311610df357829003601f168201915b5050505050905090565b601260009054906101000a900460ff16610e69576040517f08c379a0000000000000000000000000000000000000000000000000000000008152600401610e609061346c565b60405180910390fd5b601054610e746108ed565b10610eb4576040517f08c379a0000000000000000000000000000000000000000000000000000000008152600401610eab906134d8565b60405180910390fd5b610ee7600160009054906101000a900473ffffffffffffffffffffffffffffffffffffffff16610ee26108ed565b611841565b610ef8610ef26108ed565b8261185f565b600360009054906101000a900473ffffffffffffffffffffffffffffffffffffffff1673ffffffffffffffffffffffffffffffffffffffff16631c85949c33610f3f6108ed565b6040518363ffffffff1660e01b8152600401610f5c9291906134f8565b600060405180830381600087803b158015610f7657600080fd5b505af1158015610f8a573d6000803e3d6000fd5b5050505050565b610fa3610f9c611376565b83836118cc565b5050565b610fb8610fb2611376565b83611437565b610ff7576040517f08c379a0000000000000000000000000000000000000000000000000000000008152600401610fee906130b1565b60405180910390fd5b61100384848484611a38565b50505050565b60025481565b606061101a82611a94565b9050919050565b60008054906101000a900473ffffffffffffffffffffffffffffffffffffffff1673ffffffffffffffffffffffffffffffffffffffff163373ffffffffffffffffffffffffffffffffffffffff16146110af576040517f08c379a00000000000000000000000000000000000000000000000000000000081526004016110a690613400565b60405180910390fd5b806000806101000a81548173ffffffffffffffffffffffffffffffffffffffff021916908373ffffffffffffffffffffffffffffffffffffffff16021790555050565b6000600960008473ffffffffffffffffffffffffffffffffffffffff1673ffffffffffffffffffffffffffffffffffffffff16815260200190815260200160002060008373ffffffffffffffffffffffffffffffffffffffff1673ffffffffffffffffffffffffffffffffffffffff16815260200190815260200160002060009054906101000a900460ff16905092915050565b601260009054906101000a900460ff1681565b6111a1611376565b73ffffffffffffffffffffffffffffffffffffffff166111bf610d5e565b73ffffffffffffffffffffffffffffffffffffffff1614611215576040517f08c379a000000000000000000000000000000000000000000000000000000000815260040161120c90613394565b60405180910390fd5b600073ffffffffffffffffffffffffffffffffffffffff168173ffffffffffffffffffffffffffffffffffffffff1603611284576040517f08c379a000000000000000000000000000000000000000000000000000000000815260040161127b90613593565b60405180910390fd5b61128d8161177b565b50565b60007f780e9d63000000000000000000000000000000000000000000000000000000007bffffffffffffffffffffffffffffffffffffffffffffffffffffffff1916827bffffffffffffffffffffffffffffffffffffffffffffffffffffffff19161480611303575061130282611be5565b5b9050919050565b60008073ffffffffffffffffffffffffffffffffffffffff166006600084815260200190815260200160002060009054906101000a900473ffffffffffffffffffffffffffffffffffffffff1673ffffffffffffffffffffffffffffffffffffffff1614159050919050565b600033905090565b816008600083815260200190815260200160002060006101000a81548173ffffffffffffffffffffffffffffffffffffffff021916908373ffffffffffffffffffffffffffffffffffffffff160217905550808273ffffffffffffffffffffffffffffffffffffffff166113f183610a90565b73ffffffffffffffffffffffffffffffffffffffff167f8c5be1e5ebec7d5bd14f71427d1e84f3dd0314c0f7b2291e5b200ac8c7c3b92560405160405180910390a45050565b60006114428261130a565b611481576040517f08c379a000000000000000000000000000000000000000000000000000000000815260040161147890613625565b60405180910390fd5b600061148c83610a90565b90508073ffffffffffffffffffffffffffffffffffffffff168473ffffffffffffffffffffffffffffffffffffffff1614806114ce57506114cd81856110f2565b5b8061150c57508373ffffffffffffffffffffffffffffffffffffffff166114f484610751565b73ffffffffffffffffffffffffffffffffffffffff16145b91505092915050565b8273ffffffffffffffffffffffffffffffffffffffff1661153582610a90565b73ffffffffffffffffffffffffffffffffffffffff161461158b576040517f08c379a0000000000000000000000000000000000000000000000000000000008152600401611582906136b7565b60405180910390fd5b600073ffffffffffffffffffffffffffffffffffffffff168273ffffffffffffffffffffffffffffffffffffffff16036115fa576040517f08c379a00000000000000000000000000000000000000000000000000000000081526004016115f190613749565b60405180910390fd5b611605838383611cc7565b61161060008261137e565b6001600760008573ffffffffffffffffffffffffffffffffffffffff1673ffffffffffffffffffffffffffffffffffffffff16815260200190815260200160002060008282546116609190613798565b925050819055506001600760008473ffffffffffffffffffffffffffffffffffffffff1673ffffffffffffffffffffffffffffffffffffffff16815260200190815260200160002060008282546116b791906137cc565b92505081905550816006600083815260200190815260200160002060006101000a81548173ffffffffffffffffffffffffffffffffffffffff021916908373ffffffffffffffffffffffffffffffffffffffff160217905550808273ffffffffffffffffffffffffffffffffffffffff168473ffffffffffffffffffffffffffffffffffffffff167fddf252ad1be2c89b69c2b068fc378daa952ba7f163c4a11628f55a4df523b3ef60405160405180910390a4611776838383611cd7565b505050565b6000600f60009054906101000a900473ffffffffffffffffffffffffffffffffffffffff16905081600f60006101000a81548173ffffffffffffffffffffffffffffffffffffffff021916908373ffffffffffffffffffffffffffffffffffffffff1602179055508173ffffffffffffffffffffffffffffffffffffffff168173ffffffffffffffffffffffffffffffffffffffff167f8be0079c531659141344cd1fd0a4f28419497f9722a3daafe3b4186f6b6457e060405160405180910390a35050565b61185b828260405180602001604052806000815250611cdc565b5050565b6118688261130a565b6118a7576040517f08c379a000000000000000000000000000000000000000000000000000000000815260040161189e90613872565b60405180910390fd5b80600e600084815260200190815260200160002090816118c79190613a3e565b505050565b8173ffffffffffffffffffffffffffffffffffffffff168373ffffffffffffffffffffffffffffffffffffffff160361193a576040517f08c379a000000000000000000000000000000000000000000000000000000000815260040161193190613b5c565b60405180910390fd5b80600960008573ffffffffffffffffffffffffffffffffffffffff1673ffffffffffffffffffffffffffffffffffffffff16815260200190815260200160002060008473ffffffffffffffffffffffffffffffffffffffff1673ffffffffffffffffffffffffffffffffffffffff16815260200190815260200160002060006101000a81548160ff0219169083151502179055508173ffffffffffffffffffffffffffffffffffffffff168373ffffffffffffffffffffffffffffffffffffffff167f17307eab39ab6107e8899845ad3d59bd9653f200f220920489ca2b5937696c3183604051611a2b9190612839565b60405180910390a3505050565b611a43848484611515565b611a4f84848484611d37565b611a8e576040517f08c379a0000000000000000000000000000000000000000000000000000000008152600401611a8590613bee565b60405180910390fd5b50505050565b6060611a9f8261130a565b611ade576040517f08c379a0000000000000000000000000000000000000000000000000000000008152600401611ad590613c80565b60405180910390fd5b6000600e60008481526020019081526020016000208054611afe90612e58565b80601f0160208091040260200160405190810160405280929190818152602001828054611b2a90612e58565b8015611b775780601f10611b4c57610100808354040283529160200191611b77565b820191906000526020600020905b815481529060010190602001808311611b5a57829003601f168201915b505050505090506000611b88611ebe565b90506000815103611b9d578192505050611be0565b600082511115611bd2578082604051602001611bba929190613cdc565b60405160208183030381529060405292505050611be0565b611bdb84611efb565b925050505b919050565b60007f80ac58cd000000000000000000000000000000000000000000000000000000007bffffffffffffffffffffffffffffffffffffffffffffffffffffffff1916827bffffffffffffffffffffffffffffffffffffffffffffffffffffffff19161480611cb057507f5b5e139f000000000000000000000000000000000000000000000000000000007bffffffffffffffffffffffffffffffffffffffffffffffffffffffff1916827bffffffffffffffffffffffffffffffffffffffffffffffffffffffff1916145b80611cc05750611cbf82611fa2565b5b9050919050565b611cd283838361200c565b505050565b505050565b611ce6838361211e565b611cf36000848484611d37565b611d32576040517f08c379a0000000000000000000000000000000000000000000000000000000008152600401611d2990613bee565b60405180910390fd5b505050565b6000611d588473ffffffffffffffffffffffffffffffffffffffff166122f7565b15611eb1578373ffffffffffffffffffffffffffffffffffffffff1663150b7a02611d81611376565b8786866040518563ffffffff1660e01b8152600401611da39493929190613d55565b6020604051808303816000875af1925050508015611ddf57506040513d601f19601f82011682018060405250810190611ddc9190613db6565b60015b611e61573d8060008114611e0f576040519150601f19603f3d011682016040523d82523d6000602084013e611e14565b606091505b506000815103611e59576040517f08c379a0000000000000000000000000000000000000000000000000000000008152600401611e5090613bee565b60405180910390fd5b805181602001fd5b63150b7a0260e01b7bffffffffffffffffffffffffffffffffffffffffffffffffffffffff1916817bffffffffffffffffffffffffffffffffffffffffffffffffffffffff191614915050611eb6565b600190505b949350505050565b60606040518060400160405280601581526020017f68747470733a2f2f697066732e696f2f697066732f0000000000000000000000815250905090565b6060611f068261130a565b611f45576040517f08c379a0000000000000000000000000000000000000000000000000000000008152600401611f3c90613e55565b60405180910390fd5b6000611f4f611ebe565b90506000815111611f6f5760405180602001604052806000815250611f9a565b80611f798461231a565b604051602001611f8a929190613cdc565b6040516020818303038152906040525b915050919050565b60007f01ffc9a7000000000000000000000000000000000000000000000000000000007bffffffffffffffffffffffffffffffffffffffffffffffffffffffff1916827bffffffffffffffffffffffffffffffffffffffffffffffffffffffff1916149050919050565b61201783838361247a565b600073ffffffffffffffffffffffffffffffffffffffff168373ffffffffffffffffffffffffffffffffffffffff1603612059576120548161247f565b612098565b8173ffffffffffffffffffffffffffffffffffffffff168373ffffffffffffffffffffffffffffffffffffffff16146120975761209683826124c8565b5b5b600073ffffffffffffffffffffffffffffffffffffffff168273ffffffffffffffffffffffffffffffffffffffff16036120da576120d581612635565b612119565b8273ffffffffffffffffffffffffffffffffffffffff168273ffffffffffffffffffffffffffffffffffffffff1614612118576121178282612706565b5b5b505050565b600073ffffffffffffffffffffffffffffffffffffffff168273ffffffffffffffffffffffffffffffffffffffff160361218d576040517f08c379a000000000000000000000000000000000000000000000000000000000815260040161218490613ec1565b60405180910390fd5b6121968161130a565b156121d6576040517f08c379a00000000000000000000000000000000000000000000000000000000081526004016121cd90613f2d565b60405180910390fd5b6121e260008383611cc7565b6001600760008473ffffffffffffffffffffffffffffffffffffffff1673ffffffffffffffffffffffffffffffffffffffff168152602001908152602001600020600082825461223291906137cc565b92505081905550816006600083815260200190815260200160002060006101000a81548173ffffffffffffffffffffffffffffffffffffffff021916908373ffffffffffffffffffffffffffffffffffffffff160217905550808273ffffffffffffffffffffffffffffffffffffffff16600073ffffffffffffffffffffffffffffffffffffffff167fddf252ad1be2c89b69c2b068fc378daa952ba7f163c4a11628f55a4df523b3ef60405160405180910390a46122f360008383611cd7565b5050565b6000808273ffffffffffffffffffffffffffffffffffffffff163b119050919050565b606060008203612361576040518060400160405280600181526020017f30000000000000000000000000000000000000000000000000000000000000008152509050612475565b600082905060005b6000821461239357808061237c90613f4d565b915050600a8261238c9190613fc4565b9150612369565b60008167ffffffffffffffff8111156123af576123ae612ae5565b5b6040519080825280601f01601f1916602001820160405280156123e15781602001600182028036833780820191505090505b5090505b6000851461246e576001826123fa9190613798565b9150600a856124099190613ff5565b603061241591906137cc565b60f81b81838151811061242b5761242a6131f5565b5b60200101907effffffffffffffffffffffffffffffffffffffffffffffffffffffffffffff1916908160001a905350600a856124679190613fc4565b94506123e5565b8093505050505b919050565b505050565b600c80549050600d600083815260200190815260200160002081905550600c81908060018154018082558091505060019003906000526020600020016000909190919091505550565b600060016124d584610b41565b6124df9190613798565b90506000600b60008481526020019081526020016000205490508181146125c4576000600a60008673ffffffffffffffffffffffffffffffffffffffff1673ffffffffffffffffffffffffffffffffffffffff168152602001908152602001600020600084815260200190815260200160002054905080600a60008773ffffffffffffffffffffffffffffffffffffffff1673ffffffffffffffffffffffffffffffffffffffff16815260200190815260200160002060008481526020019081526020016000208190555081600b600083815260200190815260200160002081905550505b600b600084815260200190815260200160002060009055600a60008573ffffffffffffffffffffffffffffffffffffffff1673ffffffffffffffffffffffffffffffffffffffff16815260200190815260200160002060008381526020019081526020016000206000905550505050565b60006001600c805490506126499190613798565b90506000600d60008481526020019081526020016000205490506000600c8381548110612679576126786131f5565b5b9060005260206000200154905080600c838154811061269b5761269a6131f5565b5b906000526020600020018190555081600d600083815260200190815260200160002081905550600d600085815260200190815260200160002060009055600c8054806126ea576126e9614026565b5b6001900381819060005260206000200160009055905550505050565b600061271183610b41565b905081600a60008573ffffffffffffffffffffffffffffffffffffffff1673ffffffffffffffffffffffffffffffffffffffff16815260200190815260200160002060008381526020019081526020016000208190555080600b600084815260200190815260200160002081905550505050565b6000604051905090565b600080fd5b600080fd5b60007fffffffff0000000000000000000000000000000000000000000000000000000082169050919050565b6127ce81612799565b81146127d957600080fd5b50565b6000813590506127eb816127c5565b92915050565b6000602082840312156128075761280661278f565b5b6000612815848285016127dc565b91505092915050565b60008115159050919050565b6128338161281e565b82525050565b600060208201905061284e600083018461282a565b92915050565b600081519050919050565b600082825260208201905092915050565b60005b8381101561288e578082015181840152602081019050612873565b60008484015250505050565b6000601f19601f8301169050919050565b60006128b682612854565b6128c0818561285f565b93506128d0818560208601612870565b6128d98161289a565b840191505092915050565b600060208201905081810360008301526128fe81846128ab565b905092915050565b600073ffffffffffffffffffffffffffffffffffffffff82169050919050565b600061293182612906565b9050919050565b61294181612926565b82525050565b600060208201905061295c6000830184612938565b92915050565b6000819050919050565b61297581612962565b811461298057600080fd5b50565b6000813590506129928161296c565b92915050565b6000602082840312156129ae576129ad61278f565b5b60006129bc84828501612983565b91505092915050565b6129ce81612926565b81146129d957600080fd5b50565b6000813590506129eb816129c5565b92915050565b60008060408385031215612a0857612a0761278f565b5b6000612a16858286016129dc565b9250506020612a2785828601612983565b9150509250929050565b612a3a81612962565b82525050565b6000602082019050612a556000830184612a31565b92915050565b600080600060608486031215612a7457612a7361278f565b5b6000612a82868287016129dc565b9350506020612a93868287016129dc565b9250506040612aa486828701612983565b9150509250925092565b600060208284031215612ac457612ac361278f565b5b6000612ad2848285016129dc565b91505092915050565b600080fd5b600080fd5b7f4e487b7100000000000000000000000000000000000000000000000000000000600052604160045260246000fd5b612b1d8261289a565b810181811067ffffffffffffffff82111715612b3c57612b3b612ae5565b5b80604052505050565b6000612b4f612785565b9050612b5b8282612b14565b919050565b600067ffffffffffffffff821115612b7b57612b7a612ae5565b5b612b848261289a565b9050602081019050919050565b82818337600083830152505050565b6000612bb3612bae84612b60565b612b45565b905082815260208101848484011115612bcf57612bce612ae0565b5b612bda848285612b91565b509392505050565b600082601f830112612bf757612bf6612adb565b5b8135612c07848260208601612ba0565b91505092915050565b600060208284031215612c2657612c2561278f565b5b600082013567ffffffffffffffff811115612c4457612c43612794565b5b612c5084828501612be2565b91505092915050565b612c628161281e565b8114612c6d57600080fd5b50565b600081359050612c7f81612c59565b92915050565b60008060408385031215612c9c57612c9b61278f565b5b6000612caa858286016129dc565b9250506020612cbb85828601612c70565b9150509250929050565b600067ffffffffffffffff821115612ce057612cdf612ae5565b5b612ce98261289a565b9050602081019050919050565b6000612d09612d0484612cc5565b612b45565b905082815260208101848484011115612d2557612d24612ae0565b5b612d30848285612b91565b509392505050565b600082601f830112612d4d57612d4c612adb565b5b8135612d5d848260208601612cf6565b91505092915050565b60008060008060808587031215612d8057612d7f61278f565b5b6000612d8e878288016129dc565b9450506020612d9f878288016129dc565b9350506040612db087828801612983565b925050606085013567ffffffffffffffff811115612dd157612dd0612794565b5b612ddd87828801612d38565b91505092959194509250565b60008060408385031215612e0057612dff61278f565b5b6000612e0e858286016129dc565b9250506020612e1f858286016129dc565b9150509250929050565b7f4e487b7100000000000000000000000000000000000000000000000000000000600052602260045260246000fd5b60006002820490506001821680612e7057607f821691505b602082108103612e8357612e82612e29565b5b50919050565b7f4552433732313a20617070726f76656420717565727920666f72206e6f6e657860008201527f697374656e7420746f6b656e0000000000000000000000000000000000000000602082015250565b6000612ee5602c8361285f565b9150612ef082612e89565b604082019050919050565b60006020820190508181036000830152612f1481612ed8565b9050919050565b7f4552433732313a20617070726f76616c20746f2063757272656e74206f776e6560008201527f7200000000000000000000000000000000000000000000000000000000000000602082015250565b6000612f7760218361285f565b9150612f8282612f1b565b604082019050919050565b60006020820190508181036000830152612fa681612f6a565b9050919050565b7f4552433732313a20617070726f76652063616c6c6572206973206e6f74206f7760008201527f6e6572206e6f7220617070726f76656420666f7220616c6c0000000000000000602082015250565b600061300960388361285f565b915061301482612fad565b604082019050919050565b6000602082019050818103600083015261303881612ffc565b9050919050565b7f4552433732313a207472616e736665722063616c6c6572206973206e6f74206f60008201527f776e6572206e6f7220617070726f766564000000000000000000000000000000602082015250565b600061309b60318361285f565b91506130a68261303f565b604082019050919050565b600060208201905081810360008301526130ca8161308e565b9050919050565b7f455243373231456e756d657261626c653a206f776e657220696e646578206f7560008201527f74206f6620626f756e6473000000000000000000000000000000000000000000602082015250565b600061312d602b8361285f565b9150613138826130d1565b604082019050919050565b6000602082019050818103600083015261315c81613120565b9050919050565b7f455243373231456e756d657261626c653a20676c6f62616c20696e646578206f60008201527f7574206f6620626f756e64730000000000000000000000000000000000000000602082015250565b60006131bf602c8361285f565b91506131ca82613163565b604082019050919050565b600060208201905081810360008301526131ee816131b2565b9050919050565b7f4e487b7100000000000000000000000000000000000000000000000000000000600052603260045260246000fd5b7f4552433732313a206f776e657220717565727920666f72206e6f6e657869737460008201527f656e7420746f6b656e0000000000000000000000000000000000000000000000602082015250565b600061328060298361285f565b915061328b82613224565b604082019050919050565b600060208201905081810360008301526132af81613273565b9050919050565b7f4552433732313a2062616c616e636520717565727920666f7220746865207a6560008201527f726f206164647265737300000000000000000000000000000000000000000000602082015250565b6000613312602a8361285f565b915061331d826132b6565b604082019050919050565b6000602082019050818103600083015261334181613305565b9050919050565b7f4f776e61626c653a2063616c6c6572206973206e6f7420746865206f776e6572600082015250565b600061337e60208361285f565b915061338982613348565b602082019050919050565b600060208201905081810360008301526133ad81613371565b9050919050565b7f43616c6c6572206973206e6f742073797374656d000000000000000000000000600082015250565b60006133ea60148361285f565b91506133f5826133b4565b602082019050919050565b60006020820190508181036000830152613419816133dd565b9050919050565b7f53616c65206d7573742062652061637469766500000000000000000000000000600082015250565b600061345660138361285f565b915061346182613420565b602082019050919050565b6000602082019050818103600083015261348581613449565b9050919050565b7f45786365656420696e697469616c20737570706c79206f66206e757473000000600082015250565b60006134c2601d8361285f565b91506134cd8261348c565b602082019050919050565b600060208201905081810360008301526134f1816134b5565b9050919050565b600060408201905061350d6000830185612938565b61351a6020830184612a31565b9392505050565b7f4f776e61626c653a206e6577206f776e657220697320746865207a65726f206160008201527f6464726573730000000000000000000000000000000000000000000000000000602082015250565b600061357d60268361285f565b915061358882613521565b604082019050919050565b600060208201905081810360008301526135ac81613570565b9050919050565b7f4552433732313a206f70657261746f7220717565727920666f72206e6f6e657860008201527f697374656e7420746f6b656e0000000000000000000000000000000000000000602082015250565b600061360f602c8361285f565b915061361a826135b3565b604082019050919050565b6000602082019050818103600083015261363e81613602565b9050919050565b7f4552433732313a207472616e736665722066726f6d20696e636f72726563742060008201527f6f776e6572000000000000000000000000000000000000000000000000000000602082015250565b60006136a160258361285f565b91506136ac82613645565b604082019050919050565b600060208201905081810360008301526136d081613694565b9050919050565b7f4552433732313a207472616e7366657220746f20746865207a65726f2061646460008201527f7265737300000000000000000000000000000000000000000000000000000000602082015250565b600061373360248361285f565b915061373e826136d7565b604082019050919050565b6000602082019050818103600083015261376281613726565b9050919050565b7f4e487b7100000000000000000000000000000000000000000000000000000000600052601160045260246000fd5b60006137a382612962565b91506137ae83612962565b92508282039050818111156137c6576137c5613769565b5b92915050565b60006137d782612962565b91506137e283612962565b92508282019050808211156137fa576137f9613769565b5b92915050565b7f45524337323155524953746f726167653a2055524920736574206f66206e6f6e60008201527f6578697374656e7420746f6b656e000000000000000000000000000000000000602082015250565b600061385c602e8361285f565b915061386782613800565b604082019050919050565b6000602082019050818103600083015261388b8161384f565b9050919050565b60008190508160005260206000209050919050565b60006020601f8301049050919050565b600082821b905092915050565b6000600883026138f47fffffffffffffffffffffffffffffffffffffffffffffffffffffffffffffffff826138b7565b6138fe86836138b7565b95508019841693508086168417925050509392505050565b6000819050919050565b600061393b61393661393184612962565b613916565b612962565b9050919050565b6000819050919050565b61395583613920565b61396961396182613942565b8484546138c4565b825550505050565b600090565b61397e613971565b61398981848461394c565b505050565b5b818110156139ad576139a2600082613976565b60018101905061398f565b5050565b601f8211156139f2576139c381613892565b6139cc846138a7565b810160208510156139db578190505b6139ef6139e7856138a7565b83018261398e565b50505b505050565b600082821c905092915050565b6000613a15600019846008026139f7565b1980831691505092915050565b6000613a2e8383613a04565b9150826002028217905092915050565b613a4782612854565b67ffffffffffffffff811115613a6057613a5f612ae5565b5b613a6a8254612e58565b613a758282856139b1565b600060209050601f831160018114613aa85760008415613a96578287015190505b613aa08582613a22565b865550613b08565b601f198416613ab686613892565b60005b82811015613ade57848901518255600182019150602085019450602081019050613ab9565b86831015613afb5784890151613af7601f891682613a04565b8355505b6001600288020188555050505b505050505050565b7f4552433732313a20617070726f766520746f2063616c6c657200000000000000600082015250565b6000613b4660198361285f565b9150613b5182613b10565b602082019050919050565b60006020820190508181036000830152613b7581613b39565b9050919050565b7f4552433732313a207472616e7366657220746f206e6f6e20455243373231526560008201527f63656976657220696d706c656d656e7465720000000000000000000000000000602082015250565b6000613bd860328361285f565b9150613be382613b7c565b604082019050919050565b60006020820190508181036000830152613c0781613bcb565b9050919050565b7f45524337323155524953746f726167653a2055524920717565727920666f722060008201527f6e6f6e6578697374656e7420746f6b656e000000000000000000000000000000602082015250565b6000613c6a60318361285f565b9150613c7582613c0e565b604082019050919050565b60006020820190508181036000830152613c9981613c5d565b9050919050565b600081905092915050565b6000613cb682612854565b613cc08185613ca0565b9350613cd0818560208601612870565b80840191505092915050565b6000613ce88285613cab565b9150613cf48284613cab565b91508190509392505050565b600081519050919050565b600082825260208201905092915050565b6000613d2782613d00565b613d318185613d0b565b9350613d41818560208601612870565b613d4a8161289a565b840191505092915050565b6000608082019050613d6a6000830187612938565b613d776020830186612938565b613d846040830185612a31565b8181036060830152613d968184613d1c565b905095945050505050565b600081519050613db0816127c5565b92915050565b600060208284031215613dcc57613dcb61278f565b5b6000613dda84828501613da1565b91505092915050565b7f4552433732314d657461646174613a2055524920717565727920666f72206e6f60008201527f6e6578697374656e7420746f6b656e0000000000000000000000000000000000602082015250565b6000613e3f602f8361285f565b9150613e4a82613de3565b604082019050919050565b60006020820190508181036000830152613e6e81613e32565b9050919050565b7f4552433732313a206d696e7420746f20746865207a65726f2061646472657373600082015250565b6000613eab60208361285f565b9150613eb682613e75565b602082019050919050565b60006020820190508181036000830152613eda81613e9e565b9050919050565b7f4552433732313a20746f6b656e20616c7265616479206d696e74656400000000600082015250565b6000613f17601c8361285f565b9150613f2282613ee1565b602082019050919050565b60006020820190508181036000830152613f4681613f0a565b9050919050565b6000613f5882612962565b91507fffffffffffffffffffffffffffffffffffffffffffffffffffffffffffffffff8203613f8a57613f89613769565b5b600182019050919050565b7f4e487b7100000000000000000000000000000000000000000000000000000000600052601260045260246000fd5b6000613fcf82612962565b9150613fda83612962565b925082613fea57613fe9613f95565b5b828204905092915050565b600061400082612962565b915061400b83612962565b92508261401b5761401a613f95565b5b828206905092915050565b7f4e487b7100000000000000000000000000000000000000000000000000000000600052603160045260246000fdfea264697066735822122098927a537878ee40d8cb427d087a0bfc3dab44cbb8d8c7e0e3506131a9f1d5f864736f6c63430008110033",
  "immutableReferences": {},
  "source": "// SPDX-License-Identifier: MIT\npragma solidity ^0.8.7;\n\nimport \"openzeppelin-solidity/contracts/token/ERC721/ERC721.sol\";\nimport \"openzeppelin-solidity/contracts/token/ERC721/extensions/ERC721Enumerable.sol\";\nimport \"openzeppelin-solidity/contracts/token/ERC721/extensions/ERC721URIStorage.sol\";\nimport \"openzeppelin-solidity/contracts/access/Ownable.sol\";\nimport \"openzeppelin-solidity/contracts/utils/cryptography/ECDSA.sol\";\n\nimport \"./CosmoVault.sol\";\n\ncontract CosmoCreation is CosmoVault, ERC721, ERC721Enumerable, ERC721URIStorage, Ownable {\n\n    uint256 public INITIAL_NUTS;\n\n    uint256 public totalNuts;\n    //uint256 public constant maxNutPurchase = 1;\n    bool public saleIsActive = false;\n\n    constructor(\n        string memory _name,\n        string memory _symbol,\n        uint256 _initialSupply,\n        address _systemAddress,\n        address _treasuryAddress\n    )\n    ERC721(_name, _symbol)\n    CosmoVault(_systemAddress, _treasuryAddress)\n    {\n        totalNuts = totalSupply();\n        INITIAL_NUTS = _initialSupply;\n        TREASURY_ADDRESS = _treasuryAddress;\n    }\n\n    function _baseURI() internal pure override returns (string memory) {\n        return \"https://ipfs.io/ipfs/\";\n    }\n\n    function mintNut(string memory _nutCID) public payable {\n        require(saleIsActive, \"Sale must be active\");\n        require(totalSupply() < INITIAL_NUTS, \"Exceed initial supply of nuts\");\n        //require(NUT_PRICE * _numberOfNuts <= msg.value, \"Ether value is not correct\");\n\n        _safeMint(TREASURY_ADDRESS, totalSupply());\n        _setTokenURI(totalSupply(), _nutCID);\n        treasury.assignMintBalance(address(msg.sender), totalSupply());\n\n        //for(uint i=0; i<_numberOfNuts; i++) {\n        //    uint mintIndex = totalSupply();\n        //    _safeMint(TREASURY_ADDRESS, mintIndex);\n        //    _setTokenURI(mintIndex, _nutCID);\n        //    treasury.assignMintBalance(address(msg.sender), mintIndex);\n        //}\n    }\n\n    function changeTokenURI(uint256 _tokenId, string memory _cidPath, bytes memory _signature) internal {\n        require(_isApprovedOrOwner(_msgSender(), _tokenId), \"Caller is not owner nor approved\");\n        bytes32 pathHash = keccak256(abi.encodePacked(_cidPath));\n        require(isVerified(pathHash, _signature), \"Data does not match signature\");\n\n        _setTokenURI(_tokenId, _cidPath);\n    }\n\n    // ----- The following functions are overrides required by Solidity -----\n    function _beforeTokenTransfer(address from, address to, uint256 tokenId) internal override(ERC721, ERC721Enumerable) {\n        super._beforeTokenTransfer(from, to, tokenId);\n    }\n\n    function _burn(uint256 tokenId) internal override(ERC721, ERC721URIStorage) {\n        super._burn(tokenId);\n    }\n\n    function tokenURI(uint256 tokenId) public view override(ERC721, ERC721URIStorage) returns (string memory) {\n        return super.tokenURI(tokenId);\n    }\n\n    function supportsInterface(bytes4 interfaceId) public view override(ERC721, ERC721Enumerable) returns (bool) {\n        return super.supportsInterface(interfaceId);\n    }\n    // -----      -----     -----     -----     -----\n}\n",
  "sourcePath": "/home/redlentils/Seafile/Websites/avatarnft/contracts/CosmoCreation.sol",
  "compiler": {
    "name": "solc",
    "version": "0.8.17+commit.8df45f5f.Emscripten.clang"
  },
  "schemaVersion": "3.4.10",
  "updatedAt": "2022-10-03T21:57:54.775Z",
  "devdoc": {
    "kind": "dev",
    "methods": {
      "approve(address,uint256)": {
        "details": "See {IERC721-approve}."
      },
      "balanceOf(address)": {
        "details": "See {IERC721-balanceOf}."
      },
      "getApproved(uint256)": {
        "details": "See {IERC721-getApproved}."
      },
      "isApprovedForAll(address,address)": {
        "details": "See {IERC721-isApprovedForAll}."
      },
      "name()": {
        "details": "See {IERC721Metadata-name}."
      },
      "owner()": {
        "details": "Returns the address of the current owner."
      },
      "ownerOf(uint256)": {
        "details": "See {IERC721-ownerOf}."
      },
      "renounceOwnership()": {
        "details": "Leaves the contract without owner. It will not be possible to call `onlyOwner` functions anymore. Can only be called by the current owner. NOTE: Renouncing ownership will leave the contract without an owner, thereby removing any functionality that is only available to the owner."
      },
      "safeTransferFrom(address,address,uint256)": {
        "details": "See {IERC721-safeTransferFrom}."
      },
      "safeTransferFrom(address,address,uint256,bytes)": {
        "details": "See {IERC721-safeTransferFrom}."
      },
      "setApprovalForAll(address,bool)": {
        "details": "See {IERC721-setApprovalForAll}."
      },
      "symbol()": {
        "details": "See {IERC721Metadata-symbol}."
      },
      "tokenByIndex(uint256)": {
        "details": "See {IERC721Enumerable-tokenByIndex}."
      },
      "tokenOfOwnerByIndex(address,uint256)": {
        "details": "See {IERC721Enumerable-tokenOfOwnerByIndex}."
      },
      "totalSupply()": {
        "details": "See {IERC721Enumerable-totalSupply}."
      },
      "transferFrom(address,address,uint256)": {
        "details": "See {IERC721-transferFrom}."
      },
      "transferOwnership(address)": {
        "details": "Transfers ownership of the contract to a new account (`newOwner`). Can only be called by the current owner."
      }
    },
    "version": 1
  },
  "userdoc": {
    "kind": "user",
    "methods": {},
    "version": 1
  }
}