{
  "contractName": "CosmoSystems",
  "abi": [
    {
      "inputs": [
        {
          "internalType": "address",
          "name": "_systemAddress",
          "type": "address"
        }
      ],
      "stateMutability": "nonpayable",
      "type": "constructor"
    },
    {
      "inputs": [],
      "name": "MATTER_ADDRESS",
      "outputs": [
        {
          "internalType": "address",
          "name": "",
          "type": "address"
        }
      ],
      "stateMutability": "view",
      "type": "function"
    },
    {
      "inputs": [],
      "name": "SYSTEM_ADDRESS",
      "outputs": [
        {
          "internalType": "address",
          "name": "",
          "type": "address"
        }
      ],
      "stateMutability": "view",
      "type": "function"
    },
    {
      "inputs": [
        {
          "internalType": "uint256",
          "name": "",
          "type": "uint256"
        }
      ],
      "name": "cosmos",
      "outputs": [
        {
          "internalType": "bool",
          "name": "status",
          "type": "bool"
        },
        {
          "internalType": "uint256",
          "name": "id",
          "type": "uint256"
        },
        {
          "internalType": "uint256",
          "name": "price",
          "type": "uint256"
        },
        {
          "internalType": "uint256",
          "name": "rate",
          "type": "uint256"
        },
        {
          "internalType": "uint256",
          "name": "amount",
          "type": "uint256"
        },
        {
          "internalType": "string",
          "name": "name",
          "type": "string"
        },
        {
          "internalType": "string",
          "name": "symbol",
          "type": "string"
        },
        {
          "internalType": "address",
          "name": "location",
          "type": "address"
        },
        {
          "internalType": "address",
          "name": "vaultLocation",
          "type": "address"
        }
      ],
      "stateMutability": "view",
      "type": "function"
    }
  ],
  "bytecode": "0x608060405234801561001057600080fd5b5060405161067f38038061067f833981810160405281019061003291906100e3565b80600160006101000a81548173ffffffffffffffffffffffffffffffffffffffff021916908373ffffffffffffffffffffffffffffffffffffffff1602179055506000808190555050610110565b600080fd5b600073ffffffffffffffffffffffffffffffffffffffff82169050919050565b60006100b082610085565b9050919050565b6100c0816100a5565b81146100cb57600080fd5b50565b6000815190506100dd816100b7565b92915050565b6000602082840312156100f9576100f8610080565b5b6000610107848285016100ce565b91505092915050565b6105608061011f6000396000f3fe608060405234801561001057600080fd5b50600436106100415760003560e01c80633434735f1461004657806364b1b66314610064578063d8712a6214610082575b600080fd5b61004e6100ba565b60405161005b91906102f2565b60405180910390f35b61006c6100e0565b60405161007991906102f2565b60405180910390f35b61009c60048036038101906100979190610348565b610106565b6040516100b19998979695949392919061042f565b60405180910390f35b600160009054906101000a900473ffffffffffffffffffffffffffffffffffffffff1681565b600260009054906101000a900473ffffffffffffffffffffffffffffffffffffffff1681565b600c6020528060005260406000206000915090508060000160009054906101000a900460ff1690806001015490806002015490806003015490806004015490806005018054610154906104f9565b80601f0160208091040260200160405190810160405280929190818152602001828054610180906104f9565b80156101cd5780601f106101a2576101008083540402835291602001916101cd565b820191906000526020600020905b8154815290600101906020018083116101b057829003601f168201915b5050505050908060060180546101e2906104f9565b80601f016020809104026020016040519081016040528092919081815260200182805461020e906104f9565b801561025b5780601f106102305761010080835404028352916020019161025b565b820191906000526020600020905b81548152906001019060200180831161023e57829003601f168201915b5050505050908060070160009054906101000a900473ffffffffffffffffffffffffffffffffffffffff16908060080160009054906101000a900473ffffffffffffffffffffffffffffffffffffffff16905089565b600073ffffffffffffffffffffffffffffffffffffffff82169050919050565b60006102dc826102b1565b9050919050565b6102ec816102d1565b82525050565b600060208201905061030760008301846102e3565b92915050565b600080fd5b6000819050919050565b61032581610312565b811461033057600080fd5b50565b6000813590506103428161031c565b92915050565b60006020828403121561035e5761035d61030d565b5b600061036c84828501610333565b91505092915050565b60008115159050919050565b61038a81610375565b82525050565b61039981610312565b82525050565b600081519050919050565b600082825260208201905092915050565b60005b838110156103d95780820151818401526020810190506103be565b60008484015250505050565b6000601f19601f8301169050919050565b60006104018261039f565b61040b81856103aa565b935061041b8185602086016103bb565b610424816103e5565b840191505092915050565b600061012082019050610445600083018c610381565b610452602083018b610390565b61045f604083018a610390565b61046c6060830189610390565b6104796080830188610390565b81810360a083015261048b81876103f6565b905081810360c083015261049f81866103f6565b90506104ae60e08301856102e3565b6104bc6101008301846102e3565b9a9950505050505050505050565b7f4e487b7100000000000000000000000000000000000000000000000000000000600052602260045260246000fd5b6000600282049050600182168061051157607f821691505b602082108103610524576105236104ca565b5b5091905056fea2646970667358221220a7aef5cad5bdf6075c3a352123acf7c126897bd67e79f70a78c2853531ca3e0164736f6c63430008110033",
  "immutableReferences": {},
  "source": "// SPDX-License-Identifier: MIT\npragma solidity ^0.8.7;\n\nimport \"./CosmoVault.sol\";\nimport \"./CosmoBang.sol\";\n\ncontract CosmoSystems {\n\n    uint256 COSMOS_INDEX;\n\n    address public SYSTEM_ADDRESS;\n    address public MATTER_ADDRESS;\n\n    struct Cosmo {\n        bool status;\n        uint256 id;\n        uint256 price;\n        uint256 rate;\n        uint256 amount;\n        string name;\n        string symbol;\n        address location;\n        address vaultLocation;\n    }\n    Cosmo cosmo;\n    mapping(uint256 => Cosmo) public cosmos;\n\n    constructor(address _systemAddress) {\n        SYSTEM_ADDRESS = _systemAddress;\n        COSMOS_INDEX = 0;\n    }\n\n    /*\n    constructor(string memory _name, string memory _symbol) {\n        cosmo.name = _name;\n        cosmo.symbol = _symbol;\n    }\n    */\n\n    function createVault() internal {\n        CosmoVault vault = new CosmoVault(SYSTEM_ADDRESS, MATTER_ADDRESS);\n        cosmos[COSMOS_INDEX].vaultLocation = address(vault);\n    }\n\n    // This needs to utilize CosmoBang contract to move away CosmoNuts\n    function createCosmo() internal {\n        CosmoBang bang = new CosmoBang(\n            cosmos[COSMOS_INDEX].name,\n            cosmos[COSMOS_INDEX].symbol,\n            cosmos[COSMOS_INDEX].amount,\n            SYSTEM_ADDRESS,\n            cosmos[COSMOS_INDEX].vaultLocation\n        );\n        /*\n        CosmoNuts nuts = new CosmoNuts(\n            cosmos[COSMOS_INDEX].name,\n            cosmos[COSMOS_INDEX].symbol,\n            cosmos[COSMOS_INDEX].amount,\n            SYSTEM_ADDRESS,\n            cosmos[COSMOS_INDEX].vaultLocation\n        );\n        */\n\n        // Maybe assert that the above came back true ...\n        //cosmos[COSMOS_INDEX].location = address(nuts);\n        cosmos[COSMOS_INDEX].location = bang.COSMO_ADDRESS();\n        cosmos[COSMOS_INDEX].status = true;\n    }\n\n\n}\n",
  "sourcePath": "/home/redlentils/Seafile/Websites/avatarnft/contracts/CosmoSystems.sol",
  "compiler": {
    "name": "solc",
    "version": "0.8.17+commit.8df45f5f.Emscripten.clang"
  },
  "schemaVersion": "3.4.10",
  "updatedAt": "2022-10-08T19:49:48.028Z",
  "devdoc": {
    "kind": "dev",
    "methods": {},
    "version": 1
  },
  "userdoc": {
    "kind": "user",
    "methods": {},
    "version": 1
  }
}