{
  "contractName": "CosmoBang",
  "abi": [
    {
      "inputs": [
        {
          "internalType": "address",
          "name": "_systemAddress",
          "type": "address"
        },
        {
          "internalType": "address",
          "name": "_matterAddress",
          "type": "address"
        }
      ],
      "name": "initialize",
      "outputs": [],
      "stateMutability": "nonpayable",
      "type": "function"
    },
    {
      "inputs": [
        {
          "internalType": "string",
          "name": "_name",
          "type": "string"
        },
        {
          "internalType": "string",
          "name": "_symbol",
          "type": "string"
        },
        {
          "internalType": "uint256",
          "name": "_supply",
          "type": "uint256"
        },
        {
          "internalType": "uint256",
          "name": "_price",
          "type": "uint256"
        },
        {
          "internalType": "uint256",
          "name": "_rate",
          "type": "uint256"
        }
      ],
      "name": "createCosmo",
      "outputs": [
        {
          "internalType": "address",
          "name": "cosmoAddress",
          "type": "address"
        }
      ],
      "stateMutability": "nonpayable",
      "type": "function"
    }
  ],
  "bytecode": "0x608060405234801561001057600080fd5b50615d46806100206000396000f3fe60806040523480156200001157600080fd5b50600436106200003a5760003560e01c8063485cc955146200003f5780639e652538146200005f575b600080fd5b6200005d600480360381019062000057919062000491565b62000095565b005b6200007d600480360381019062000077919062000675565b62000120565b6040516200008c91906200074c565b60405180910390f35b816000800160006101000a81548173ffffffffffffffffffffffffffffffffffffffff021916908373ffffffffffffffffffffffffffffffffffffffff16021790555080600060010160006101000a81548173ffffffffffffffffffffffffffffffffffffffff021916908373ffffffffffffffffffffffffffffffffffffffff1602179055505050565b6000806200012f84846200014b565b90506200013f8787878462000248565b91505095945050505050565b6000806200017e600060020160009054906101000a900473ffffffffffffffffffffffffffffffffffffffff1662000333565b90508073ffffffffffffffffffffffffffffffffffffffff1663eb990c596000800160009054906101000a900473ffffffffffffffffffffffffffffffffffffffff16600060010160009054906101000a900473ffffffffffffffffffffffffffffffffffffffff1687876040518563ffffffff1660e01b81526004016200020a94939291906200077a565b600060405180830381600087803b1580156200022557600080fd5b505af11580156200023a573d6000803e3d6000fd5b505050508091505092915050565b6000808585856000800160009054906101000a900473ffffffffffffffffffffffffffffffffffffffff168660405162000282906200040a565b6200029295949392919062000850565b604051809103906000f080158015620002af573d6000803e3d6000fd5b5090508073ffffffffffffffffffffffffffffffffffffffff16635d12928b6040518163ffffffff1660e01b81526004016020604051808303816000875af115801562000300573d6000803e3d6000fd5b505050506040513d601f19601f82011682018060405250810190620003269190620008d2565b5080915050949350505050565b60006040517f3d602d80600a3d3981f3363d3d373d3d3d363d7300000000000000000000000081528260601b60148201527f5af43d82803e903d91602b57fd5bf3000000000000000000000000000000000060288201526037816000f0915050600073ffffffffffffffffffffffffffffffffffffffff168173ffffffffffffffffffffffffffffffffffffffff160362000405576040517f08c379a0000000000000000000000000000000000000000000000000000000008152600401620003fc9062000954565b60405180910390fd5b919050565b61539a806200097783390190565b6000604051905090565b600080fd5b600080fd5b600073ffffffffffffffffffffffffffffffffffffffff82169050919050565b600062000459826200042c565b9050919050565b6200046b816200044c565b81146200047757600080fd5b50565b6000813590506200048b8162000460565b92915050565b60008060408385031215620004ab57620004aa62000422565b5b6000620004bb858286016200047a565b9250506020620004ce858286016200047a565b9150509250929050565b600080fd5b600080fd5b6000601f19601f8301169050919050565b7f4e487b7100000000000000000000000000000000000000000000000000000000600052604160045260246000fd5b6200052d82620004e2565b810181811067ffffffffffffffff821117156200054f576200054e620004f3565b5b80604052505050565b60006200056462000418565b905062000572828262000522565b919050565b600067ffffffffffffffff821115620005955762000594620004f3565b5b620005a082620004e2565b9050602081019050919050565b82818337600083830152505050565b6000620005d3620005cd8462000577565b62000558565b905082815260208101848484011115620005f257620005f1620004dd565b5b620005ff848285620005ad565b509392505050565b600082601f8301126200061f576200061e620004d8565b5b813562000631848260208601620005bc565b91505092915050565b6000819050919050565b6200064f816200063a565b81146200065b57600080fd5b50565b6000813590506200066f8162000644565b92915050565b600080600080600060a0868803121562000694576200069362000422565b5b600086013567ffffffffffffffff811115620006b557620006b462000427565b5b620006c38882890162000607565b955050602086013567ffffffffffffffff811115620006e757620006e662000427565b5b620006f58882890162000607565b945050604062000708888289016200065e565b93505060606200071b888289016200065e565b92505060806200072e888289016200065e565b9150509295509295909350565b62000746816200044c565b82525050565b60006020820190506200076360008301846200073b565b92915050565b62000774816200063a565b82525050565b60006080820190506200079160008301876200073b565b620007a060208301866200073b565b620007af604083018562000769565b620007be606083018462000769565b95945050505050565b600081519050919050565b600082825260208201905092915050565b60005b8381101562000803578082015181840152602081019050620007e6565b60008484015250505050565b60006200081c82620007c7565b620008288185620007d2565b93506200083a818560208601620007e3565b6200084581620004e2565b840191505092915050565b600060a08201905081810360008301526200086c81886200080f565b905081810360208301526200088281876200080f565b905062000893604083018662000769565b620008a260608301856200073b565b620008b160808301846200073b565b9695505050505050565b600081519050620008cc8162000460565b92915050565b600060208284031215620008eb57620008ea62000422565b5b6000620008fb84828501620008bb565b91505092915050565b7f455243313136373a20637265617465206661696c656400000000000000000000600082015250565b60006200093c601683620007d2565b9150620009498262000904565b602082019050919050565b600060208201905081810360008301526200096f816200092d565b905091905056fe60806040523480156200001157600080fd5b506040516200539a3803806200539a833981810160405281019062000037919062000427565b8484848484848481600090816200004f91906200072e565b5080600190816200006191906200072e565b50505062000084620000786200012660201b60201c565b6200012e60201b60201c565b82600c6000018190555081600c60010160006101000a81548173ffffffffffffffffffffffffffffffffffffffff021916908373ffffffffffffffffffffffffffffffffffffffff16021790555080600c60020160006101000a81548173ffffffffffffffffffffffffffffffffffffffff021916908373ffffffffffffffffffffffffffffffffffffffff1602179055505050505050505050505062000815565b600033905090565b6000600b60009054906101000a900473ffffffffffffffffffffffffffffffffffffffff16905081600b60006101000a81548173ffffffffffffffffffffffffffffffffffffffff021916908373ffffffffffffffffffffffffffffffffffffffff1602179055508173ffffffffffffffffffffffffffffffffffffffff168173ffffffffffffffffffffffffffffffffffffffff167f8be0079c531659141344cd1fd0a4f28419497f9722a3daafe3b4186f6b6457e060405160405180910390a35050565b6000604051905090565b600080fd5b600080fd5b600080fd5b600080fd5b6000601f19601f8301169050919050565b7f4e487b7100000000000000000000000000000000000000000000000000000000600052604160045260246000fd5b6200025d8262000212565b810181811067ffffffffffffffff821117156200027f576200027e62000223565b5b80604052505050565b600062000294620001f4565b9050620002a2828262000252565b919050565b600067ffffffffffffffff821115620002c557620002c462000223565b5b620002d08262000212565b9050602081019050919050565b60005b83811015620002fd578082015181840152602081019050620002e0565b60008484015250505050565b6000620003206200031a84620002a7565b62000288565b9050828152602081018484840111156200033f576200033e6200020d565b5b6200034c848285620002dd565b509392505050565b600082601f8301126200036c576200036b62000208565b5b81516200037e84826020860162000309565b91505092915050565b6000819050919050565b6200039c8162000387565b8114620003a857600080fd5b50565b600081519050620003bc8162000391565b92915050565b600073ffffffffffffffffffffffffffffffffffffffff82169050919050565b6000620003ef82620003c2565b9050919050565b6200040181620003e2565b81146200040d57600080fd5b50565b6000815190506200042181620003f6565b92915050565b600080600080600060a08688031215620004465762000445620001fe565b5b600086015167ffffffffffffffff81111562000467576200046662000203565b5b620004758882890162000354565b955050602086015167ffffffffffffffff81111562000499576200049862000203565b5b620004a78882890162000354565b9450506040620004ba88828901620003ab565b9350506060620004cd8882890162000410565b9250506080620004e08882890162000410565b9150509295509295909350565b600081519050919050565b7f4e487b7100000000000000000000000000000000000000000000000000000000600052602260045260246000fd5b600060028204905060018216806200054057607f821691505b602082108103620005565762000555620004f8565b5b50919050565b60008190508160005260206000209050919050565b60006020601f8301049050919050565b600082821b905092915050565b600060088302620005c07fffffffffffffffffffffffffffffffffffffffffffffffffffffffffffffffff8262000581565b620005cc868362000581565b95508019841693508086168417925050509392505050565b6000819050919050565b60006200060f62000609620006038462000387565b620005e4565b62000387565b9050919050565b6000819050919050565b6200062b83620005ee565b620006436200063a8262000616565b8484546200058e565b825550505050565b600090565b6200065a6200064b565b6200066781848462000620565b505050565b5b818110156200068f576200068360008262000650565b6001810190506200066d565b5050565b601f821115620006de57620006a8816200055c565b620006b38462000571565b81016020851015620006c3578190505b620006db620006d28562000571565b8301826200066c565b50505b505050565b600082821c905092915050565b60006200070360001984600802620006e3565b1980831691505092915050565b60006200071e8383620006f0565b9150826002028217905092915050565b6200073982620004ed565b67ffffffffffffffff81111562000755576200075462000223565b5b62000761825462000527565b6200076e82828562000693565b600060209050601f831160018114620007a6576000841562000791578287015190505b6200079d858262000710565b8655506200080d565b601f198416620007b6866200055c565b60005b82811015620007e057848901518255600182019150602085019450602081019050620007b9565b86831015620008005784890151620007fc601f891682620006f0565b8355505b6001600288020188555050505b505050505050565b614b7580620008256000396000f3fe6080604052600436106101c25760003560e01c80635d12928b116100f757806395d89b4111610095578063c87b56dd11610064578063c87b56dd14610649578063e985e9c514610686578063f23c9583146106c3578063f2fde38b146106f3576101c2565b806395d89b411461058f578063a0e12efe146105ba578063a22cb465146105f7578063b88d4fde14610620576101c2565b806370a08231116100d157806370a08231146104d3578063715018a61461051057806383638710146105275780638da5cb5b14610564576101c2565b80635d12928b146104425780635f9ff4a11461046d5780636352211e14610496576101c2565b806318160ddd116101645780633ccfd60b1161013e5780633ccfd60b146103a957806342842e0e146103c05780634f6ccce7146103e957806355951ab014610426576101c2565b806318160ddd1461031857806323b872dd146103435780632f745c591461036c576101c2565b8063095ea7b3116101a0578063095ea7b31461026c5780630ef8dd951461029557806313845d2f146102c0578063162094c4146102ef576101c2565b806301ffc9a7146101c757806306fdde0314610204578063081812fc1461022f575b600080fd5b3480156101d357600080fd5b506101ee60048036038101906101e99190612eca565b61071c565b6040516101fb9190612f12565b60405180910390f35b34801561021057600080fd5b5061021961072e565b6040516102269190612fbd565b60405180910390f35b34801561023b57600080fd5b5061025660048036038101906102519190613015565b6107c0565b6040516102639190613083565b60405180910390f35b34801561027857600080fd5b50610293600480360381019061028e91906130ca565b610845565b005b3480156102a157600080fd5b506102aa61095c565b6040516102b79190613083565b60405180910390f35b3480156102cc57600080fd5b506102d5610989565b6040516102e6959493929190613119565b60405180910390f35b3480156102fb57600080fd5b50610316600480360381019061031191906132a1565b610a2d565b005b34801561032457600080fd5b5061032d610a3b565b60405161033a91906132fd565b60405180910390f35b34801561034f57600080fd5b5061036a60048036038101906103659190613318565b610a48565b005b34801561037857600080fd5b50610393600480360381019061038e91906130ca565b610aa8565b6040516103a091906132fd565b60405180910390f35b3480156103b557600080fd5b506103be610b4d565b005b3480156103cc57600080fd5b506103e760048036038101906103e29190613318565b610c5b565b005b3480156103f557600080fd5b50610410600480360381019061040b9190613015565b610c7b565b60405161041d91906132fd565b60405180910390f35b610440600480360381019061043b91906132a1565b610cec565b005b34801561044e57600080fd5b50610457610e00565b6040516104649190613083565b60405180910390f35b34801561047957600080fd5b50610494600480360381019061048f9190613442565b610e10565b005b3480156104a257600080fd5b506104bd60048036038101906104b89190613015565b610fca565b6040516104ca9190613083565b60405180910390f35b3480156104df57600080fd5b506104fa60048036038101906104f59190613507565b61107b565b60405161050791906132fd565b60405180910390f35b34801561051c57600080fd5b50610525611132565b005b34801561053357600080fd5b5061054e60048036038101906105499190613015565b6111ba565b60405161055b9190613083565b60405180910390f35b34801561057057600080fd5b506105796111cc565b6040516105869190613083565b60405180910390f35b34801561059b57600080fd5b506105a46111f6565b6040516105b19190612fbd565b60405180910390f35b3480156105c657600080fd5b506105e160048036038101906105dc9190613534565b611288565b6040516105ee9190612f12565b60405180910390f35b34801561060357600080fd5b5061061e600480360381019061061991906135d8565b61133e565b005b34801561062c57600080fd5b5061064760048036038101906106429190613618565b611354565b005b34801561065557600080fd5b50610670600480360381019061066b9190613015565b6113b6565b60405161067d9190612fbd565b60405180910390f35b34801561069257600080fd5b506106ad60048036038101906106a8919061369b565b6113c8565b6040516106ba9190612f12565b60405180910390f35b6106dd60048036038101906106d891906136db565b61145c565b6040516106ea9190612f12565b60405180910390f35b3480156106ff57600080fd5b5061071a60048036038101906107159190613507565b611667565b005b60006107278261175e565b9050919050565b60606000805461073d906137a9565b80601f0160208091040260200160405190810160405280929190818152602001828054610769906137a9565b80156107b65780601f1061078b576101008083540402835291602001916107b6565b820191906000526020600020905b81548152906001019060200180831161079957829003601f168201915b5050505050905090565b60006107cb826117d8565b61080a576040517f08c379a00000000000000000000000000000000000000000000000000000000081526004016108019061384c565b60405180910390fd5b6004600083815260200190815260200160002060009054906101000a900473ffffffffffffffffffffffffffffffffffffffff169050919050565b600061085082610fca565b90508073ffffffffffffffffffffffffffffffffffffffff168373ffffffffffffffffffffffffffffffffffffffff16036108c0576040517f08c379a00000000000000000000000000000000000000000000000000000000081526004016108b7906138de565b60405180910390fd5b8073ffffffffffffffffffffffffffffffffffffffff166108df611844565b73ffffffffffffffffffffffffffffffffffffffff16148061090e575061090d81610908611844565b6113c8565b5b61094d576040517f08c379a000000000000000000000000000000000000000000000000000000000815260040161094490613970565b60405180910390fd5b610957838361184c565b505050565b6000600c60030160009054906101000a900473ffffffffffffffffffffffffffffffffffffffff16905090565b600c8060000154908060010160009054906101000a900473ffffffffffffffffffffffffffffffffffffffff16908060020160009054906101000a900473ffffffffffffffffffffffffffffffffffffffff16908060030160009054906101000a900473ffffffffffffffffffffffffffffffffffffffff16908060040160009054906101000a900473ffffffffffffffffffffffffffffffffffffffff16905085565b610a378282611905565b5050565b6000600880549050905090565b610a59610a53611844565b82611972565b610a98576040517f08c379a0000000000000000000000000000000000000000000000000000000008152600401610a8f90613a02565b60405180910390fd5b610aa3838383611a50565b505050565b6000610ab38361107b565b8210610af4576040517f08c379a0000000000000000000000000000000000000000000000000000000008152600401610aeb90613a94565b60405180910390fd5b600660008473ffffffffffffffffffffffffffffffffffffffff1673ffffffffffffffffffffffffffffffffffffffff168152602001908152602001600020600083815260200190815260200160002054905092915050565b610b55611844565b73ffffffffffffffffffffffffffffffffffffffff16610b736111cc565b73ffffffffffffffffffffffffffffffffffffffff1614610bc9576040517f08c379a0000000000000000000000000000000000000000000000000000000008152600401610bc090613b00565b60405180910390fd5b600047905060004711610c11576040517f08c379a0000000000000000000000000000000000000000000000000000000008152600401610c0890613b6c565b60405180910390fd5b3373ffffffffffffffffffffffffffffffffffffffff166108fc829081150290604051600060405180830381858888f19350505050158015610c57573d6000803e3d6000fd5b5050565b610c7683838360405180602001604052806000815250611354565b505050565b6000610c85610a3b565b8210610cc6576040517f08c379a0000000000000000000000000000000000000000000000000000000008152600401610cbd90613bfe565b60405180910390fd5b60088281548110610cda57610cd9613c1e565b5b90600052602060002001549050919050565b610d22600c60020160009054906101000a900473ffffffffffffffffffffffffffffffffffffffff16610d1d610a3b565b611cb6565b610d33610d2d610a3b565b82611905565b600c60020160009054906101000a900473ffffffffffffffffffffffffffffffffffffffff1673ffffffffffffffffffffffffffffffffffffffff16631c85949c600c60020160009054906101000a900473ffffffffffffffffffffffffffffffffffffffff16846040518363ffffffff1660e01b8152600401610db8929190613c4d565b6020604051808303816000875af1158015610dd7573d6000803e3d6000fd5b505050506040513d601f19601f82011682018060405250810190610dfb9190613c8b565b505050565b6000610e0b30611cd4565b905090565b610e1986610fca565b73ffffffffffffffffffffffffffffffffffffffff163373ffffffffffffffffffffffffffffffffffffffff1614610e86576040517f08c379a0000000000000000000000000000000000000000000000000000000008152600401610e7d90613d04565b60405180910390fd5b600c60020160009054906101000a900473ffffffffffffffffffffffffffffffffffffffff1673ffffffffffffffffffffffffffffffffffffffff166303f5de9d878686896040518563ffffffff1660e01b8152600401610eea9493929190613d33565b6020604051808303816000875af1158015610f09573d6000803e3d6000fd5b505050506040513d601f19601f82011682018060405250810190610f2d9190613c8b565b50600c60030160009054906101000a900473ffffffffffffffffffffffffffffffffffffffff1673ffffffffffffffffffffffffffffffffffffffff1663bd6af0098784846040518463ffffffff1660e01b8152600401610f9093929190613dcd565b600060405180830381600087803b158015610faa57600080fd5b505af1158015610fbe573d6000803e3d6000fd5b50505050505050505050565b6000806002600084815260200190815260200160002060009054906101000a900473ffffffffffffffffffffffffffffffffffffffff169050600073ffffffffffffffffffffffffffffffffffffffff168173ffffffffffffffffffffffffffffffffffffffff1603611072576040517f08c379a000000000000000000000000000000000000000000000000000000000815260040161106990613e84565b60405180910390fd5b80915050919050565b60008073ffffffffffffffffffffffffffffffffffffffff168273ffffffffffffffffffffffffffffffffffffffff16036110eb576040517f08c379a00000000000000000000000000000000000000000000000000000000081526004016110e290613f16565b60405180910390fd5b600360008373ffffffffffffffffffffffffffffffffffffffff1673ffffffffffffffffffffffffffffffffffffffff168152602001908152602001600020549050919050565b61113a611844565b73ffffffffffffffffffffffffffffffffffffffff166111586111cc565b73ffffffffffffffffffffffffffffffffffffffff16146111ae576040517f08c379a00000000000000000000000000000000000000000000000000000000081526004016111a590613b00565b60405180910390fd5b6111b86000611e0b565b565b60006111c582610fca565b9050919050565b6000600b60009054906101000a900473ffffffffffffffffffffffffffffffffffffffff16905090565b606060018054611205906137a9565b80601f0160208091040260200160405190810160405280929190818152602001828054611231906137a9565b801561127e5780601f106112535761010080835404028352916020019161127e565b820191906000526020600020905b81548152906001019060200180831161126157829003601f168201915b5050505050905090565b600080611293610a3b565b905061129f3382611cb6565b600c60030160009054906101000a900473ffffffffffffffffffffffffffffffffffffffff1673ffffffffffffffffffffffffffffffffffffffff1663bd6af0098286866040518463ffffffff1660e01b815260040161130193929190613dcd565b600060405180830381600087803b15801561131b57600080fd5b505af115801561132f573d6000803e3d6000fd5b50505050600191505092915050565b611350611349611844565b8383611ed1565b5050565b61136561135f611844565b83611972565b6113a4576040517f08c379a000000000000000000000000000000000000000000000000000000000815260040161139b90613a02565b60405180910390fd5b6113b08484848461203d565b50505050565b60606113c182612099565b9050919050565b6000600560008473ffffffffffffffffffffffffffffffffffffffff1673ffffffffffffffffffffffffffffffffffffffff16815260200190815260200160002060008373ffffffffffffffffffffffffffffffffffffffff1673ffffffffffffffffffffffffffffffffffffffff16815260200190815260200160002060009054906101000a900460ff16905092915050565b600061146785610fca565b73ffffffffffffffffffffffffffffffffffffffff163373ffffffffffffffffffffffffffffffffffffffff16146114d4576040517f08c379a00000000000000000000000000000000000000000000000000000000081526004016114cb90613d04565b60405180910390fd5b600c600001546114e2610a3b565b1015611523576040517f08c379a000000000000000000000000000000000000000000000000000000000815260040161151a90613f82565b60405180910390fd5b600c60020160009054906101000a900473ffffffffffffffffffffffffffffffffffffffff1673ffffffffffffffffffffffffffffffffffffffff1663fe774f9d86866040518363ffffffff1660e01b8152600401611583929190613fa2565b6020604051808303816000875af11580156115a2573d6000803e3d6000fd5b505050506040513d601f19601f820116820180604052508101906115c69190613c8b565b50600c60030160009054906101000a900473ffffffffffffffffffffffffffffffffffffffff1673ffffffffffffffffffffffffffffffffffffffff1663bd6af0098685856040518463ffffffff1660e01b815260040161162993929190613dcd565b600060405180830381600087803b15801561164357600080fd5b505af1158015611657573d6000803e3d6000fd5b5050505060019050949350505050565b61166f611844565b73ffffffffffffffffffffffffffffffffffffffff1661168d6111cc565b73ffffffffffffffffffffffffffffffffffffffff16146116e3576040517f08c379a00000000000000000000000000000000000000000000000000000000081526004016116da90613b00565b60405180910390fd5b600073ffffffffffffffffffffffffffffffffffffffff168173ffffffffffffffffffffffffffffffffffffffff1603611752576040517f08c379a00000000000000000000000000000000000000000000000000000000081526004016117499061403d565b60405180910390fd5b61175b81611e0b565b50565b60007f780e9d63000000000000000000000000000000000000000000000000000000007bffffffffffffffffffffffffffffffffffffffffffffffffffffffff1916827bffffffffffffffffffffffffffffffffffffffffffffffffffffffff191614806117d157506117d0826121ea565b5b9050919050565b60008073ffffffffffffffffffffffffffffffffffffffff166002600084815260200190815260200160002060009054906101000a900473ffffffffffffffffffffffffffffffffffffffff1673ffffffffffffffffffffffffffffffffffffffff1614159050919050565b600033905090565b816004600083815260200190815260200160002060006101000a81548173ffffffffffffffffffffffffffffffffffffffff021916908373ffffffffffffffffffffffffffffffffffffffff160217905550808273ffffffffffffffffffffffffffffffffffffffff166118bf83610fca565b73ffffffffffffffffffffffffffffffffffffffff167f8c5be1e5ebec7d5bd14f71427d1e84f3dd0314c0f7b2291e5b200ac8c7c3b92560405160405180910390a45050565b61190e826117d8565b61194d576040517f08c379a0000000000000000000000000000000000000000000000000000000008152600401611944906140cf565b60405180910390fd5b80600a6000848152602001908152602001600020908161196d919061429b565b505050565b600061197d826117d8565b6119bc576040517f08c379a00000000000000000000000000000000000000000000000000000000081526004016119b3906143df565b60405180910390fd5b60006119c783610fca565b90508073ffffffffffffffffffffffffffffffffffffffff168473ffffffffffffffffffffffffffffffffffffffff161480611a095750611a0881856113c8565b5b80611a4757508373ffffffffffffffffffffffffffffffffffffffff16611a2f846107c0565b73ffffffffffffffffffffffffffffffffffffffff16145b91505092915050565b8273ffffffffffffffffffffffffffffffffffffffff16611a7082610fca565b73ffffffffffffffffffffffffffffffffffffffff1614611ac6576040517f08c379a0000000000000000000000000000000000000000000000000000000008152600401611abd90614471565b60405180910390fd5b600073ffffffffffffffffffffffffffffffffffffffff168273ffffffffffffffffffffffffffffffffffffffff1603611b35576040517f08c379a0000000000000000000000000000000000000000000000000000000008152600401611b2c90614503565b60405180910390fd5b611b408383836122cc565b611b4b60008261184c565b6001600360008573ffffffffffffffffffffffffffffffffffffffff1673ffffffffffffffffffffffffffffffffffffffff1681526020019081526020016000206000828254611b9b9190614552565b925050819055506001600360008473ffffffffffffffffffffffffffffffffffffffff1673ffffffffffffffffffffffffffffffffffffffff1681526020019081526020016000206000828254611bf29190614586565b92505081905550816002600083815260200190815260200160002060006101000a81548173ffffffffffffffffffffffffffffffffffffffff021916908373ffffffffffffffffffffffffffffffffffffffff160217905550808273ffffffffffffffffffffffffffffffffffffffff168473ffffffffffffffffffffffffffffffffffffffff167fddf252ad1be2c89b69c2b068fc378daa952ba7f163c4a11628f55a4df523b3ef60405160405180910390a4611cb18383836122dc565b505050565b611cd08282604051806020016040528060008152506122e1565b5050565b600080611d05600c60040160009054906101000a900473ffffffffffffffffffffffffffffffffffffffff1661233c565b90508073ffffffffffffffffffffffffffffffffffffffff1663485cc955600c60010160009054906101000a900473ffffffffffffffffffffffffffffffffffffffff16856040518363ffffffff1660e01b8152600401611d679291906145ba565b600060405180830381600087803b158015611d8157600080fd5b505af1158015611d95573d6000803e3d6000fd5b5050505080600c60030160006101000a81548173ffffffffffffffffffffffffffffffffffffffff021916908373ffffffffffffffffffffffffffffffffffffffff160217905550600c60030160009054906101000a900473ffffffffffffffffffffffffffffffffffffffff16915050919050565b6000600b60009054906101000a900473ffffffffffffffffffffffffffffffffffffffff16905081600b60006101000a81548173ffffffffffffffffffffffffffffffffffffffff021916908373ffffffffffffffffffffffffffffffffffffffff1602179055508173ffffffffffffffffffffffffffffffffffffffff168173ffffffffffffffffffffffffffffffffffffffff167f8be0079c531659141344cd1fd0a4f28419497f9722a3daafe3b4186f6b6457e060405160405180910390a35050565b8173ffffffffffffffffffffffffffffffffffffffff168373ffffffffffffffffffffffffffffffffffffffff1603611f3f576040517f08c379a0000000000000000000000000000000000000000000000000000000008152600401611f369061462f565b60405180910390fd5b80600560008573ffffffffffffffffffffffffffffffffffffffff1673ffffffffffffffffffffffffffffffffffffffff16815260200190815260200160002060008473ffffffffffffffffffffffffffffffffffffffff1673ffffffffffffffffffffffffffffffffffffffff16815260200190815260200160002060006101000a81548160ff0219169083151502179055508173ffffffffffffffffffffffffffffffffffffffff168373ffffffffffffffffffffffffffffffffffffffff167f17307eab39ab6107e8899845ad3d59bd9653f200f220920489ca2b5937696c31836040516120309190612f12565b60405180910390a3505050565b612048848484611a50565b61205484848484612410565b612093576040517f08c379a000000000000000000000000000000000000000000000000000000000815260040161208a906146c1565b60405180910390fd5b50505050565b60606120a4826117d8565b6120e3576040517f08c379a00000000000000000000000000000000000000000000000000000000081526004016120da90614753565b60405180910390fd5b6000600a60008481526020019081526020016000208054612103906137a9565b80601f016020809104026020016040519081016040528092919081815260200182805461212f906137a9565b801561217c5780601f106121515761010080835404028352916020019161217c565b820191906000526020600020905b81548152906001019060200180831161215f57829003601f168201915b50505050509050600061218d612597565b905060008151036121a25781925050506121e5565b6000825111156121d75780826040516020016121bf9291906147af565b604051602081830303815290604052925050506121e5565b6121e0846125d4565b925050505b919050565b60007f80ac58cd000000000000000000000000000000000000000000000000000000007bffffffffffffffffffffffffffffffffffffffffffffffffffffffff1916827bffffffffffffffffffffffffffffffffffffffffffffffffffffffff191614806122b557507f5b5e139f000000000000000000000000000000000000000000000000000000007bffffffffffffffffffffffffffffffffffffffffffffffffffffffff1916827bffffffffffffffffffffffffffffffffffffffffffffffffffffffff1916145b806122c557506122c48261267b565b5b9050919050565b6122d78383836126e5565b505050565b505050565b6122eb83836127f7565b6122f86000848484612410565b612337576040517f08c379a000000000000000000000000000000000000000000000000000000000815260040161232e906146c1565b60405180910390fd5b505050565b60006040517f3d602d80600a3d3981f3363d3d373d3d3d363d7300000000000000000000000081528260601b60148201527f5af43d82803e903d91602b57fd5bf3000000000000000000000000000000000060288201526037816000f0915050600073ffffffffffffffffffffffffffffffffffffffff168173ffffffffffffffffffffffffffffffffffffffff160361240b576040517f08c379a00000000000000000000000000000000000000000000000000000000081526004016124029061481f565b60405180910390fd5b919050565b60006124318473ffffffffffffffffffffffffffffffffffffffff166129d0565b1561258a578373ffffffffffffffffffffffffffffffffffffffff1663150b7a0261245a611844565b8786866040518563ffffffff1660e01b815260040161247c949392919061483f565b6020604051808303816000875af19250505080156124b857506040513d601f19601f820116820180604052508101906124b591906148a0565b60015b61253a573d80600081146124e8576040519150601f19603f3d011682016040523d82523d6000602084013e6124ed565b606091505b506000815103612532576040517f08c379a0000000000000000000000000000000000000000000000000000000008152600401612529906146c1565b60405180910390fd5b805181602001fd5b63150b7a0260e01b7bffffffffffffffffffffffffffffffffffffffffffffffffffffffff1916817bffffffffffffffffffffffffffffffffffffffffffffffffffffffff19161491505061258f565b600190505b949350505050565b60606040518060400160405280601581526020017f68747470733a2f2f697066732e696f2f697066732f0000000000000000000000815250905090565b60606125df826117d8565b61261e576040517f08c379a00000000000000000000000000000000000000000000000000000000081526004016126159061493f565b60405180910390fd5b6000612628612597565b905060008151116126485760405180602001604052806000815250612673565b80612652846129f3565b6040516020016126639291906147af565b6040516020818303038152906040525b915050919050565b60007f01ffc9a7000000000000000000000000000000000000000000000000000000007bffffffffffffffffffffffffffffffffffffffffffffffffffffffff1916827bffffffffffffffffffffffffffffffffffffffffffffffffffffffff1916149050919050565b6126f0838383612b53565b600073ffffffffffffffffffffffffffffffffffffffff168373ffffffffffffffffffffffffffffffffffffffff16036127325761272d81612b58565b612771565b8173ffffffffffffffffffffffffffffffffffffffff168373ffffffffffffffffffffffffffffffffffffffff16146127705761276f8382612ba1565b5b5b600073ffffffffffffffffffffffffffffffffffffffff168273ffffffffffffffffffffffffffffffffffffffff16036127b3576127ae81612d0e565b6127f2565b8273ffffffffffffffffffffffffffffffffffffffff168273ffffffffffffffffffffffffffffffffffffffff16146127f1576127f08282612ddf565b5b5b505050565b600073ffffffffffffffffffffffffffffffffffffffff168273ffffffffffffffffffffffffffffffffffffffff1603612866576040517f08c379a000000000000000000000000000000000000000000000000000000000815260040161285d906149ab565b60405180910390fd5b61286f816117d8565b156128af576040517f08c379a00000000000000000000000000000000000000000000000000000000081526004016128a690614a17565b60405180910390fd5b6128bb600083836122cc565b6001600360008473ffffffffffffffffffffffffffffffffffffffff1673ffffffffffffffffffffffffffffffffffffffff168152602001908152602001600020600082825461290b9190614586565b92505081905550816002600083815260200190815260200160002060006101000a81548173ffffffffffffffffffffffffffffffffffffffff021916908373ffffffffffffffffffffffffffffffffffffffff160217905550808273ffffffffffffffffffffffffffffffffffffffff16600073ffffffffffffffffffffffffffffffffffffffff167fddf252ad1be2c89b69c2b068fc378daa952ba7f163c4a11628f55a4df523b3ef60405160405180910390a46129cc600083836122dc565b5050565b6000808273ffffffffffffffffffffffffffffffffffffffff163b119050919050565b606060008203612a3a576040518060400160405280600181526020017f30000000000000000000000000000000000000000000000000000000000000008152509050612b4e565b600082905060005b60008214612a6c578080612a5590614a37565b915050600a82612a659190614aae565b9150612a42565b60008167ffffffffffffffff811115612a8857612a87613176565b5b6040519080825280601f01601f191660200182016040528015612aba5781602001600182028036833780820191505090505b5090505b60008514612b4757600182612ad39190614552565b9150600a85612ae29190614adf565b6030612aee9190614586565b60f81b818381518110612b0457612b03613c1e565b5b60200101907effffffffffffffffffffffffffffffffffffffffffffffffffffffffffffff1916908160001a905350600a85612b409190614aae565b9450612abe565b8093505050505b919050565b505050565b6008805490506009600083815260200190815260200160002081905550600881908060018154018082558091505060019003906000526020600020016000909190919091505550565b60006001612bae8461107b565b612bb89190614552565b9050600060076000848152602001908152602001600020549050818114612c9d576000600660008673ffffffffffffffffffffffffffffffffffffffff1673ffffffffffffffffffffffffffffffffffffffff168152602001908152602001600020600084815260200190815260200160002054905080600660008773ffffffffffffffffffffffffffffffffffffffff1673ffffffffffffffffffffffffffffffffffffffff168152602001908152602001600020600084815260200190815260200160002081905550816007600083815260200190815260200160002081905550505b6007600084815260200190815260200160002060009055600660008573ffffffffffffffffffffffffffffffffffffffff1673ffffffffffffffffffffffffffffffffffffffff16815260200190815260200160002060008381526020019081526020016000206000905550505050565b60006001600880549050612d229190614552565b9050600060096000848152602001908152602001600020549050600060088381548110612d5257612d51613c1e565b5b906000526020600020015490508060088381548110612d7457612d73613c1e565b5b906000526020600020018190555081600960008381526020019081526020016000208190555060096000858152602001908152602001600020600090556008805480612dc357612dc2614b10565b5b6001900381819060005260206000200160009055905550505050565b6000612dea8361107b565b905081600660008573ffffffffffffffffffffffffffffffffffffffff1673ffffffffffffffffffffffffffffffffffffffff168152602001908152602001600020600083815260200190815260200160002081905550806007600084815260200190815260200160002081905550505050565b6000604051905090565b600080fd5b600080fd5b60007fffffffff0000000000000000000000000000000000000000000000000000000082169050919050565b612ea781612e72565b8114612eb257600080fd5b50565b600081359050612ec481612e9e565b92915050565b600060208284031215612ee057612edf612e68565b5b6000612eee84828501612eb5565b91505092915050565b60008115159050919050565b612f0c81612ef7565b82525050565b6000602082019050612f276000830184612f03565b92915050565b600081519050919050565b600082825260208201905092915050565b60005b83811015612f67578082015181840152602081019050612f4c565b60008484015250505050565b6000601f19601f8301169050919050565b6000612f8f82612f2d565b612f998185612f38565b9350612fa9818560208601612f49565b612fb281612f73565b840191505092915050565b60006020820190508181036000830152612fd78184612f84565b905092915050565b6000819050919050565b612ff281612fdf565b8114612ffd57600080fd5b50565b60008135905061300f81612fe9565b92915050565b60006020828403121561302b5761302a612e68565b5b600061303984828501613000565b91505092915050565b600073ffffffffffffffffffffffffffffffffffffffff82169050919050565b600061306d82613042565b9050919050565b61307d81613062565b82525050565b60006020820190506130986000830184613074565b92915050565b6130a781613062565b81146130b257600080fd5b50565b6000813590506130c48161309e565b92915050565b600080604083850312156130e1576130e0612e68565b5b60006130ef858286016130b5565b925050602061310085828601613000565b9150509250929050565b61311381612fdf565b82525050565b600060a08201905061312e600083018861310a565b61313b6020830187613074565b6131486040830186613074565b6131556060830185613074565b6131626080830184613074565b9695505050505050565b600080fd5b600080fd5b7f4e487b7100000000000000000000000000000000000000000000000000000000600052604160045260246000fd5b6131ae82612f73565b810181811067ffffffffffffffff821117156131cd576131cc613176565b5b80604052505050565b60006131e0612e5e565b90506131ec82826131a5565b919050565b600067ffffffffffffffff82111561320c5761320b613176565b5b61321582612f73565b9050602081019050919050565b82818337600083830152505050565b600061324461323f846131f1565b6131d6565b9050828152602081018484840111156132605761325f613171565b5b61326b848285613222565b509392505050565b600082601f8301126132885761328761316c565b5b8135613298848260208601613231565b91505092915050565b600080604083850312156132b8576132b7612e68565b5b60006132c685828601613000565b925050602083013567ffffffffffffffff8111156132e7576132e6612e6d565b5b6132f385828601613273565b9150509250929050565b6000602082019050613312600083018461310a565b92915050565b60008060006060848603121561333157613330612e68565b5b600061333f868287016130b5565b9350506020613350868287016130b5565b925050604061336186828701613000565b9150509250925092565b6000819050919050565b61337e8161336b565b811461338957600080fd5b50565b60008135905061339b81613375565b92915050565b600067ffffffffffffffff8211156133bc576133bb613176565b5b6133c582612f73565b9050602081019050919050565b60006133e56133e0846133a1565b6131d6565b90508281526020810184848401111561340157613400613171565b5b61340c848285613222565b509392505050565b600082601f8301126134295761342861316c565b5b81356134398482602086016133d2565b91505092915050565b60008060008060008060c0878903121561345f5761345e612e68565b5b600061346d89828a01613000565b965050602061347e89828a0161338c565b955050604061348f89828a01613000565b94505060606134a089828a01613000565b935050608087013567ffffffffffffffff8111156134c1576134c0612e6d565b5b6134cd89828a01613273565b92505060a087013567ffffffffffffffff8111156134ee576134ed612e6d565b5b6134fa89828a01613414565b9150509295509295509295565b60006020828403121561351d5761351c612e68565b5b600061352b848285016130b5565b91505092915050565b6000806040838503121561354b5761354a612e68565b5b600083013567ffffffffffffffff81111561356957613568612e6d565b5b61357585828601613273565b925050602083013567ffffffffffffffff81111561359657613595612e6d565b5b6135a285828601613414565b9150509250929050565b6135b581612ef7565b81146135c057600080fd5b50565b6000813590506135d2816135ac565b92915050565b600080604083850312156135ef576135ee612e68565b5b60006135fd858286016130b5565b925050602061360e858286016135c3565b9150509250929050565b6000806000806080858703121561363257613631612e68565b5b6000613640878288016130b5565b9450506020613651878288016130b5565b935050604061366287828801613000565b925050606085013567ffffffffffffffff81111561368357613682612e6d565b5b61368f87828801613414565b91505092959194509250565b600080604083850312156136b2576136b1612e68565b5b60006136c0858286016130b5565b92505060206136d1858286016130b5565b9150509250929050565b600080600080608085870312156136f5576136f4612e68565b5b600061370387828801613000565b94505060206137148782880161338c565b935050604085013567ffffffffffffffff81111561373557613734612e6d565b5b61374187828801613273565b925050606085013567ffffffffffffffff81111561376257613761612e6d565b5b61376e87828801613414565b91505092959194509250565b7f4e487b7100000000000000000000000000000000000000000000000000000000600052602260045260246000fd5b600060028204905060018216806137c157607f821691505b6020821081036137d4576137d361377a565b5b50919050565b7f4552433732313a20617070726f76656420717565727920666f72206e6f6e657860008201527f697374656e7420746f6b656e0000000000000000000000000000000000000000602082015250565b6000613836602c83612f38565b9150613841826137da565b604082019050919050565b6000602082019050818103600083015261386581613829565b9050919050565b7f4552433732313a20617070726f76616c20746f2063757272656e74206f776e6560008201527f7200000000000000000000000000000000000000000000000000000000000000602082015250565b60006138c8602183612f38565b91506138d38261386c565b604082019050919050565b600060208201905081810360008301526138f7816138bb565b9050919050565b7f4552433732313a20617070726f76652063616c6c6572206973206e6f74206f7760008201527f6e6572206e6f7220617070726f76656420666f7220616c6c0000000000000000602082015250565b600061395a603883612f38565b9150613965826138fe565b604082019050919050565b600060208201905081810360008301526139898161394d565b9050919050565b7f4552433732313a207472616e736665722063616c6c6572206973206e6f74206f60008201527f776e6572206e6f7220617070726f766564000000000000000000000000000000602082015250565b60006139ec603183612f38565b91506139f782613990565b604082019050919050565b60006020820190508181036000830152613a1b816139df565b9050919050565b7f455243373231456e756d657261626c653a206f776e657220696e646578206f7560008201527f74206f6620626f756e6473000000000000000000000000000000000000000000602082015250565b6000613a7e602b83612f38565b9150613a8982613a22565b604082019050919050565b60006020820190508181036000830152613aad81613a71565b9050919050565b7f4f776e61626c653a2063616c6c6572206973206e6f7420746865206f776e6572600082015250565b6000613aea602083612f38565b9150613af582613ab4565b602082019050919050565b60006020820190508181036000830152613b1981613add565b9050919050565b7f4e6f2062616c616e636520746f20776974686472617700000000000000000000600082015250565b6000613b56601683612f38565b9150613b6182613b20565b602082019050919050565b60006020820190508181036000830152613b8581613b49565b9050919050565b7f455243373231456e756d657261626c653a20676c6f62616c20696e646578206f60008201527f7574206f6620626f756e64730000000000000000000000000000000000000000602082015250565b6000613be8602c83612f38565b9150613bf382613b8c565b604082019050919050565b60006020820190508181036000830152613c1781613bdb565b9050919050565b7f4e487b7100000000000000000000000000000000000000000000000000000000600052603260045260246000fd5b6000604082019050613c626000830185613074565b613c6f602083018461310a565b9392505050565b600081519050613c85816135ac565b92915050565b600060208284031215613ca157613ca0612e68565b5b6000613caf84828501613c76565b91505092915050565b7f43616c6c6572206973206e6f74206f776e6572206f66206e7574000000000000600082015250565b6000613cee601a83612f38565b9150613cf982613cb8565b602082019050919050565b60006020820190508181036000830152613d1d81613ce1565b9050919050565b613d2d8161336b565b82525050565b6000608082019050613d48600083018761310a565b613d55602083018661310a565b613d62604083018561310a565b613d6f6060830184613d24565b95945050505050565b600081519050919050565b600082825260208201905092915050565b6000613d9f82613d78565b613da98185613d83565b9350613db9818560208601612f49565b613dc281612f73565b840191505092915050565b6000606082019050613de2600083018661310a565b8181036020830152613df48185612f84565b90508181036040830152613e088184613d94565b9050949350505050565b7f4552433732313a206f776e657220717565727920666f72206e6f6e657869737460008201527f656e7420746f6b656e0000000000000000000000000000000000000000000000602082015250565b6000613e6e602983612f38565b9150613e7982613e12565b604082019050919050565b60006020820190508181036000830152613e9d81613e61565b9050919050565b7f4552433732313a2062616c616e636520717565727920666f7220746865207a6560008201527f726f206164647265737300000000000000000000000000000000000000000000602082015250565b6000613f00602a83612f38565b9150613f0b82613ea4565b604082019050919050565b60006020820190508181036000830152613f2f81613ef3565b9050919050565b7f4e757473207374696c6c2065786973742066726f6d206372656174696f6e0000600082015250565b6000613f6c601e83612f38565b9150613f7782613f36565b602082019050919050565b60006020820190508181036000830152613f9b81613f5f565b9050919050565b6000604082019050613fb7600083018561310a565b613fc46020830184613d24565b9392505050565b7f4f776e61626c653a206e6577206f776e657220697320746865207a65726f206160008201527f6464726573730000000000000000000000000000000000000000000000000000602082015250565b6000614027602683612f38565b915061403282613fcb565b604082019050919050565b600060208201905081810360008301526140568161401a565b9050919050565b7f45524337323155524953746f726167653a2055524920736574206f66206e6f6e60008201527f6578697374656e7420746f6b656e000000000000000000000000000000000000602082015250565b60006140b9602e83612f38565b91506140c48261405d565b604082019050919050565b600060208201905081810360008301526140e8816140ac565b9050919050565b60008190508160005260206000209050919050565b60006020601f8301049050919050565b600082821b905092915050565b6000600883026141517fffffffffffffffffffffffffffffffffffffffffffffffffffffffffffffffff82614114565b61415b8683614114565b95508019841693508086168417925050509392505050565b6000819050919050565b600061419861419361418e84612fdf565b614173565b612fdf565b9050919050565b6000819050919050565b6141b28361417d565b6141c66141be8261419f565b848454614121565b825550505050565b600090565b6141db6141ce565b6141e68184846141a9565b505050565b5b8181101561420a576141ff6000826141d3565b6001810190506141ec565b5050565b601f82111561424f57614220816140ef565b61422984614104565b81016020851015614238578190505b61424c61424485614104565b8301826141eb565b50505b505050565b600082821c905092915050565b600061427260001984600802614254565b1980831691505092915050565b600061428b8383614261565b9150826002028217905092915050565b6142a482612f2d565b67ffffffffffffffff8111156142bd576142bc613176565b5b6142c782546137a9565b6142d282828561420e565b600060209050601f83116001811461430557600084156142f3578287015190505b6142fd858261427f565b865550614365565b601f198416614313866140ef565b60005b8281101561433b57848901518255600182019150602085019450602081019050614316565b868310156143585784890151614354601f891682614261565b8355505b6001600288020188555050505b505050505050565b7f4552433732313a206f70657261746f7220717565727920666f72206e6f6e657860008201527f697374656e7420746f6b656e0000000000000000000000000000000000000000602082015250565b60006143c9602c83612f38565b91506143d48261436d565b604082019050919050565b600060208201905081810360008301526143f8816143bc565b9050919050565b7f4552433732313a207472616e736665722066726f6d20696e636f72726563742060008201527f6f776e6572000000000000000000000000000000000000000000000000000000602082015250565b600061445b602583612f38565b9150614466826143ff565b604082019050919050565b6000602082019050818103600083015261448a8161444e565b9050919050565b7f4552433732313a207472616e7366657220746f20746865207a65726f2061646460008201527f7265737300000000000000000000000000000000000000000000000000000000602082015250565b60006144ed602483612f38565b91506144f882614491565b604082019050919050565b6000602082019050818103600083015261451c816144e0565b9050919050565b7f4e487b7100000000000000000000000000000000000000000000000000000000600052601160045260246000fd5b600061455d82612fdf565b915061456883612fdf565b92508282039050818111156145805761457f614523565b5b92915050565b600061459182612fdf565b915061459c83612fdf565b92508282019050808211156145b4576145b3614523565b5b92915050565b60006040820190506145cf6000830185613074565b6145dc6020830184613074565b9392505050565b7f4552433732313a20617070726f766520746f2063616c6c657200000000000000600082015250565b6000614619601983612f38565b9150614624826145e3565b602082019050919050565b600060208201905081810360008301526146488161460c565b9050919050565b7f4552433732313a207472616e7366657220746f206e6f6e20455243373231526560008201527f63656976657220696d706c656d656e7465720000000000000000000000000000602082015250565b60006146ab603283612f38565b91506146b68261464f565b604082019050919050565b600060208201905081810360008301526146da8161469e565b9050919050565b7f45524337323155524953746f726167653a2055524920717565727920666f722060008201527f6e6f6e6578697374656e7420746f6b656e000000000000000000000000000000602082015250565b600061473d603183612f38565b9150614748826146e1565b604082019050919050565b6000602082019050818103600083015261476c81614730565b9050919050565b600081905092915050565b600061478982612f2d565b6147938185614773565b93506147a3818560208601612f49565b80840191505092915050565b60006147bb828561477e565b91506147c7828461477e565b91508190509392505050565b7f455243313136373a20637265617465206661696c656400000000000000000000600082015250565b6000614809601683612f38565b9150614814826147d3565b602082019050919050565b60006020820190508181036000830152614838816147fc565b9050919050565b60006080820190506148546000830187613074565b6148616020830186613074565b61486e604083018561310a565b81810360608301526148808184613d94565b905095945050505050565b60008151905061489a81612e9e565b92915050565b6000602082840312156148b6576148b5612e68565b5b60006148c48482850161488b565b91505092915050565b7f4552433732314d657461646174613a2055524920717565727920666f72206e6f60008201527f6e6578697374656e7420746f6b656e0000000000000000000000000000000000602082015250565b6000614929602f83612f38565b9150614934826148cd565b604082019050919050565b600060208201905081810360008301526149588161491c565b9050919050565b7f4552433732313a206d696e7420746f20746865207a65726f2061646472657373600082015250565b6000614995602083612f38565b91506149a08261495f565b602082019050919050565b600060208201905081810360008301526149c481614988565b9050919050565b7f4552433732313a20746f6b656e20616c7265616479206d696e74656400000000600082015250565b6000614a01601c83612f38565b9150614a0c826149cb565b602082019050919050565b60006020820190508181036000830152614a30816149f4565b9050919050565b6000614a4282612fdf565b91507fffffffffffffffffffffffffffffffffffffffffffffffffffffffffffffffff8203614a7457614a73614523565b5b600182019050919050565b7f4e487b7100000000000000000000000000000000000000000000000000000000600052601260045260246000fd5b6000614ab982612fdf565b9150614ac483612fdf565b925082614ad457614ad3614a7f565b5b828204905092915050565b6000614aea82612fdf565b9150614af583612fdf565b925082614b0557614b04614a7f565b5b828206905092915050565b7f4e487b7100000000000000000000000000000000000000000000000000000000600052603160045260246000fdfea26469706673582212204dcf59780d2994b77b006e6ee5956c9bcda0284f6b9fad5200a5cd4992ddd38664736f6c63430008110033a2646970667358221220da9f0064255dd31d2710c5bcdd6fcd6266c07acfd65c0a023dcb8fd437c0fd2064736f6c63430008110033",
  "immutableReferences": {},
  "source": "// SPDX-License-Identifier: MIT\npragma solidity ^0.8.7;\n\nimport { Clones } from \"openzeppelin-solidity/contracts/proxy/Clones.sol\";\n\nimport \"./CosmoNuts.sol\";\nimport \"./ICosmoNuts.sol\";\nimport \"./CosmoTreasury.sol\";\nimport \"./ICosmoBang.sol\";\n\ncontract CosmoBang is ICosmoBang {\n\n    struct Cosmo {\n        address systemAddress;\n        address matterAddress;\n        address treasuryImplementation;\n    }\n    Cosmo cosmo;\n\n    function initialize(\n        address _systemAddress,\n        address _matterAddress\n    ) public {\n        cosmo.systemAddress = _systemAddress;\n        cosmo.matterAddress = _matterAddress;\n    }\n\n    function createTreasury(uint256 _price, uint256 _rate) internal returns (address) {\n        CosmoTreasury treasury = CosmoTreasury(Clones.clone(cosmo.treasuryImplementation));\n        treasury.initialize(\n            cosmo.systemAddress,\n            cosmo.matterAddress,\n            _price,\n            _rate\n        );\n        return address(treasury);\n    }\n\n    function createNuts(\n        string memory _name,\n        string memory _symbol,\n        uint256 _supply,\n        address _treasuryLocation\n    ) internal returns (address) {\n        CosmoNuts nuts = new CosmoNuts(\n           _name,\n            _symbol,\n            _supply,\n            cosmo.systemAddress,\n            _treasuryLocation\n        );\n        ICosmoNuts(address(nuts)).createVault();\n\n        return address(nuts);\n    }\n\n    function createCosmo(\n        string memory _name,\n        string memory _symbol,\n        uint256 _supply,\n        uint256 _price,\n        uint256 _rate\n    ) external virtual override returns (address cosmoAddress) {\n        address treasuryAddress = createTreasury(_price, _rate);\n        cosmoAddress = createNuts(_name, _symbol, _supply, treasuryAddress);\n        return cosmoAddress;\n    }\n\n}\n",
  "sourcePath": "/home/redlentils/Seafile/Websites/avatarnft/contracts/CosmoBang.sol",
  "compiler": {
    "name": "solc",
    "version": "0.8.17+commit.8df45f5f.Emscripten.clang"
  },
  "schemaVersion": "3.4.10",
  "updatedAt": "2022-10-19T18:53:30.200Z",
  "devdoc": {
    "kind": "dev",
    "methods": {},
    "version": 1
  },
  "userdoc": {
    "kind": "user",
    "methods": {},
    "version": 1
  }
}