{
  "contractName": "CosmoVault",
  "abi": [
    {
      "inputs": [
        {
          "internalType": "address",
          "name": "_systemAddress",
          "type": "address"
        },
        {
          "internalType": "address",
          "name": "_matterAddress",
          "type": "address"
        },
        {
          "internalType": "uint256",
          "name": "_nutPrice",
          "type": "uint256"
        },
        {
          "internalType": "uint256",
          "name": "_matterRate",
          "type": "uint256"
        }
      ],
      "stateMutability": "nonpayable",
      "type": "constructor"
    },
    {
      "inputs": [],
      "name": "MATTER_RATE",
      "outputs": [
        {
          "internalType": "uint256",
          "name": "",
          "type": "uint256"
        }
      ],
      "stateMutability": "view",
      "type": "function"
    },
    {
      "inputs": [],
      "name": "NUT_PRICE",
      "outputs": [
        {
          "internalType": "uint256",
          "name": "",
          "type": "uint256"
        }
      ],
      "stateMutability": "view",
      "type": "function"
    },
    {
      "inputs": [],
      "name": "SYSTEM_ADDRESS",
      "outputs": [
        {
          "internalType": "address",
          "name": "",
          "type": "address"
        }
      ],
      "stateMutability": "view",
      "type": "function"
    },
    {
      "inputs": [],
      "name": "TREASURY_ADDRESS",
      "outputs": [
        {
          "internalType": "address",
          "name": "",
          "type": "address"
        }
      ],
      "stateMutability": "view",
      "type": "function"
    },
    {
      "inputs": [
        {
          "internalType": "uint256",
          "name": "_nutId",
          "type": "uint256"
        }
      ],
      "name": "calcMatterNeeded",
      "outputs": [
        {
          "internalType": "uint256",
          "name": "",
          "type": "uint256"
        }
      ],
      "stateMutability": "view",
      "type": "function"
    },
    {
      "inputs": [
        {
          "internalType": "uint256",
          "name": "_nutIndex",
          "type": "uint256"
        }
      ],
      "name": "giveMintBalance",
      "outputs": [],
      "stateMutability": "nonpayable",
      "type": "function"
    },
    {
      "inputs": [
        {
          "internalType": "uint256",
          "name": "_seedId",
          "type": "uint256"
        }
      ],
      "name": "growSeedFromNut",
      "outputs": [],
      "stateMutability": "nonpayable",
      "type": "function"
    },
    {
      "inputs": [
        {
          "internalType": "uint256",
          "name": "_nutId",
          "type": "uint256"
        },
        {
          "internalType": "bytes32",
          "name": "_secretHash",
          "type": "bytes32"
        }
      ],
      "name": "newSeed",
      "outputs": [],
      "stateMutability": "nonpayable",
      "type": "function"
    },
    {
      "inputs": [
        {
          "internalType": "uint256",
          "name": "_nutId",
          "type": "uint256"
        },
        {
          "internalType": "uint256",
          "name": "_matterContributed",
          "type": "uint256"
        },
        {
          "internalType": "bytes32",
          "name": "_secretHash",
          "type": "bytes32"
        }
      ],
      "name": "newButterJar",
      "outputs": [],
      "stateMutability": "nonpayable",
      "type": "function"
    },
    {
      "inputs": [
        {
          "internalType": "bytes32",
          "name": "_pathHash",
          "type": "bytes32"
        },
        {
          "internalType": "bytes",
          "name": "_signature",
          "type": "bytes"
        }
      ],
      "name": "isVerified",
      "outputs": [
        {
          "internalType": "bool",
          "name": "",
          "type": "bool"
        }
      ],
      "stateMutability": "view",
      "type": "function"
    }
  ],
  "bytecode": "0x60806040523480156200001157600080fd5b5060405162006360380380620063608339818101604052810190620000379190620001e4565b83838284604051620000499062000131565b62000058949392919062000278565b604051809103906000f08015801562000075573d6000803e3d6000fd5b50600460006101000a81548173ffffffffffffffffffffffffffffffffffffffff021916908373ffffffffffffffffffffffffffffffffffffffff160217905550600460009054906101000a900473ffffffffffffffffffffffffffffffffffffffff16600160006101000a81548173ffffffffffffffffffffffffffffffffffffffff021916908373ffffffffffffffffffffffffffffffffffffffff160217905550816002819055508060038190555050505050620002c5565b614cca806200169683390190565b600080fd5b600073ffffffffffffffffffffffffffffffffffffffff82169050919050565b6000620001718262000144565b9050919050565b620001838162000164565b81146200018f57600080fd5b50565b600081519050620001a38162000178565b92915050565b6000819050919050565b620001be81620001a9565b8114620001ca57600080fd5b50565b600081519050620001de81620001b3565b92915050565b600080600080608085870312156200020157620002006200013f565b5b6000620002118782880162000192565b9450506020620002248782880162000192565b93505060406200023787828801620001cd565b92505060606200024a87828801620001cd565b91505092959194509250565b620002618162000164565b82525050565b6200027281620001a9565b82525050565b60006080820190506200028f600083018762000256565b6200029e602083018662000256565b620002ad604083018562000267565b620002bc606083018462000267565b95945050505050565b6113c180620002d56000396000f3fe608060405234801561001057600080fd5b506004361061009e5760003560e01c80637fcacc0e116100665780637fcacc0e1461014957806386d3d87114610179578063911da06214610195578063b8a9736d146101b1578063f27890f2146101cf5761009e565b806307604b1a146100a35780632c533085146100c15780633434735f146100df578063347518a8146100fd57806334fc122814610119575b600080fd5b6100ab6101eb565b6040516100b89190610b58565b60405180910390f35b6100c9610211565b6040516100d69190610b8c565b60405180910390f35b6100e7610217565b6040516100f49190610b58565b60405180910390f35b61011760048036038101906101129190610be7565b61023b565b005b610133600480360381019061012e9190610be7565b6102ef565b6040516101409190610b8c565b60405180910390f35b610163600480360381019061015e9190610d90565b610394565b6040516101709190610e07565b60405180910390f35b610193600480360381019061018e9190610e22565b6104a7565b005b6101af60048036038101906101aa9190610e62565b61053a565b005b6101b96105d4565b6040516101c69190610b8c565b60405180910390f35b6101e960048036038101906101e49190610be7565b6105da565b005b600160009054906101000a900473ffffffffffffffffffffffffffffffffffffffff1681565b60035481565b60008054906101000a900473ffffffffffffffffffffffffffffffffffffffff1681565b600460009054906101000a900473ffffffffffffffffffffffffffffffffffffffff1673ffffffffffffffffffffffffffffffffffffffff16631c85949c600160009054906101000a900473ffffffffffffffffffffffffffffffffffffffff16836040518363ffffffff1660e01b81526004016102ba929190610eb5565b600060405180830381600087803b1580156102d457600080fd5b505af11580156102e8573d6000803e3d6000fd5b5050505050565b6000600460009054906101000a900473ffffffffffffffffffffffffffffffffffffffff1673ffffffffffffffffffffffffffffffffffffffff16638ed3df0f836040518263ffffffff1660e01b815260040161034c9190610b8c565b602060405180830381865afa158015610369573d6000803e3d6000fd5b505050506040513d601f19601f8201168201806040525081019061038d9190610ef3565b9050919050565b6000600460009054906101000a900473ffffffffffffffffffffffffffffffffffffffff1673ffffffffffffffffffffffffffffffffffffffff16633434735f6040518163ffffffff1660e01b8152600401602060405180830381865afa158015610403573d6000803e3d6000fd5b505050506040513d601f19601f820116820180604052508101906104279190610f4c565b73ffffffffffffffffffffffffffffffffffffffff16610447848461071b565b73ffffffffffffffffffffffffffffffffffffffff161461049d576040517f08c379a000000000000000000000000000000000000000000000000000000000815260040161049490610fd6565b60405180910390fd5b6001905092915050565b600460009054906101000a900473ffffffffffffffffffffffffffffffffffffffff1673ffffffffffffffffffffffffffffffffffffffff1663fe774f9d83836040518363ffffffff1660e01b8152600401610504929190611005565b600060405180830381600087803b15801561051e57600080fd5b505af1158015610532573d6000803e3d6000fd5b505050505050565b600460009054906101000a900473ffffffffffffffffffffffffffffffffffffffff1673ffffffffffffffffffffffffffffffffffffffff166303f5de9d8484600354856040518563ffffffff1660e01b815260040161059d949392919061102e565b600060405180830381600087803b1580156105b757600080fd5b505af11580156105cb573d6000803e3d6000fd5b50505050505050565b60025481565b6000600460009054906101000a900473ffffffffffffffffffffffffffffffffffffffff1673ffffffffffffffffffffffffffffffffffffffff1663d4d81032836040518263ffffffff1660e01b81526004016106379190610b8c565b602060405180830381865afa158015610654573d6000803e3d6000fd5b505050506040513d601f19601f820116820180604052508101906106789190610ef3565b90506000610685826102ef565b9050600460009054906101000a900473ffffffffffffffffffffffffffffffffffffffff1673ffffffffffffffffffffffffffffffffffffffff1663a06fc90b84836040518363ffffffff1660e01b81526004016106e4929190611073565b600060405180830381600087803b1580156106fe57600080fd5b505af1158015610712573d6000803e3d6000fd5b50505050505050565b6000610730828461073890919063ffffffff16565b905092915050565b6000806000610747858561075f565b91509150610754816107e0565b819250505092915050565b60008060418351036107a05760008060006020860151925060408601519150606086015160001a9050610794878285856109ac565b945094505050506107d9565b60408351036107d05760008060208501519150604085015190506107c5868383610ab8565b9350935050506107d9565b60006002915091505b9250929050565b600060048111156107f4576107f361109c565b5b8160048111156108075761080661109c565b5b03156109a957600160048111156108215761082061109c565b5b8160048111156108345761083361109c565b5b03610874576040517f08c379a000000000000000000000000000000000000000000000000000000000815260040161086b90611117565b60405180910390fd5b600260048111156108885761088761109c565b5b81600481111561089b5761089a61109c565b5b036108db576040517f08c379a00000000000000000000000000000000000000000000000000000000081526004016108d290611183565b60405180910390fd5b600360048111156108ef576108ee61109c565b5b8160048111156109025761090161109c565b5b03610942576040517f08c379a000000000000000000000000000000000000000000000000000000000815260040161093990611215565b60405180910390fd5b6004808111156109555761095461109c565b5b8160048111156109685761096761109c565b5b036109a8576040517f08c379a000000000000000000000000000000000000000000000000000000000815260040161099f906112a7565b60405180910390fd5b5b50565b6000807f7fffffffffffffffffffffffffffffff5d576e7357a4501ddfe92f46681b20a08360001c11156109e7576000600391509150610aaf565b601b8560ff16141580156109ff5750601c8560ff1614155b15610a11576000600491509150610aaf565b600060018787878760405160008152602001604052604051610a3694939291906112e3565b6020604051602081039080840390855afa158015610a58573d6000803e3d6000fd5b505050602060405103519050600073ffffffffffffffffffffffffffffffffffffffff168173ffffffffffffffffffffffffffffffffffffffff1603610aa657600060019250925050610aaf565b80600092509250505b94509492505050565b60008060007f7fffffffffffffffffffffffffffffffffffffffffffffffffffffffffffffff60001b841690506000601b60ff8660001c901c610afb9190611357565b9050610b09878288856109ac565b935093505050935093915050565b600073ffffffffffffffffffffffffffffffffffffffff82169050919050565b6000610b4282610b17565b9050919050565b610b5281610b37565b82525050565b6000602082019050610b6d6000830184610b49565b92915050565b6000819050919050565b610b8681610b73565b82525050565b6000602082019050610ba16000830184610b7d565b92915050565b6000604051905090565b600080fd5b600080fd5b610bc481610b73565b8114610bcf57600080fd5b50565b600081359050610be181610bbb565b92915050565b600060208284031215610bfd57610bfc610bb1565b5b6000610c0b84828501610bd2565b91505092915050565b6000819050919050565b610c2781610c14565b8114610c3257600080fd5b50565b600081359050610c4481610c1e565b92915050565b600080fd5b600080fd5b6000601f19601f8301169050919050565b7f4e487b7100000000000000000000000000000000000000000000000000000000600052604160045260246000fd5b610c9d82610c54565b810181811067ffffffffffffffff82111715610cbc57610cbb610c65565b5b80604052505050565b6000610ccf610ba7565b9050610cdb8282610c94565b919050565b600067ffffffffffffffff821115610cfb57610cfa610c65565b5b610d0482610c54565b9050602081019050919050565b82818337600083830152505050565b6000610d33610d2e84610ce0565b610cc5565b905082815260208101848484011115610d4f57610d4e610c4f565b5b610d5a848285610d11565b509392505050565b600082601f830112610d7757610d76610c4a565b5b8135610d87848260208601610d20565b91505092915050565b60008060408385031215610da757610da6610bb1565b5b6000610db585828601610c35565b925050602083013567ffffffffffffffff811115610dd657610dd5610bb6565b5b610de285828601610d62565b9150509250929050565b60008115159050919050565b610e0181610dec565b82525050565b6000602082019050610e1c6000830184610df8565b92915050565b60008060408385031215610e3957610e38610bb1565b5b6000610e4785828601610bd2565b9250506020610e5885828601610c35565b9150509250929050565b600080600060608486031215610e7b57610e7a610bb1565b5b6000610e8986828701610bd2565b9350506020610e9a86828701610bd2565b9250506040610eab86828701610c35565b9150509250925092565b6000604082019050610eca6000830185610b49565b610ed76020830184610b7d565b9392505050565b600081519050610eed81610bbb565b92915050565b600060208284031215610f0957610f08610bb1565b5b6000610f1784828501610ede565b91505092915050565b610f2981610b37565b8114610f3457600080fd5b50565b600081519050610f4681610f20565b92915050565b600060208284031215610f6257610f61610bb1565b5b6000610f7084828501610f37565b91505092915050565b600082825260208201905092915050565b7f496e76616c6964207369676e6174757265000000000000000000000000000000600082015250565b6000610fc0601183610f79565b9150610fcb82610f8a565b602082019050919050565b60006020820190508181036000830152610fef81610fb3565b9050919050565b610fff81610c14565b82525050565b600060408201905061101a6000830185610b7d565b6110276020830184610ff6565b9392505050565b60006080820190506110436000830187610b7d565b6110506020830186610b7d565b61105d6040830185610b7d565b61106a6060830184610ff6565b95945050505050565b60006040820190506110886000830185610b7d565b6110956020830184610b7d565b9392505050565b7f4e487b7100000000000000000000000000000000000000000000000000000000600052602160045260246000fd5b7f45434453413a20696e76616c6964207369676e61747572650000000000000000600082015250565b6000611101601883610f79565b915061110c826110cb565b602082019050919050565b60006020820190508181036000830152611130816110f4565b9050919050565b7f45434453413a20696e76616c6964207369676e6174757265206c656e67746800600082015250565b600061116d601f83610f79565b915061117882611137565b602082019050919050565b6000602082019050818103600083015261119c81611160565b9050919050565b7f45434453413a20696e76616c6964207369676e6174757265202773272076616c60008201527f7565000000000000000000000000000000000000000000000000000000000000602082015250565b60006111ff602283610f79565b915061120a826111a3565b604082019050919050565b6000602082019050818103600083015261122e816111f2565b9050919050565b7f45434453413a20696e76616c6964207369676e6174757265202776272076616c60008201527f7565000000000000000000000000000000000000000000000000000000000000602082015250565b6000611291602283610f79565b915061129c82611235565b604082019050919050565b600060208201905081810360008301526112c081611284565b9050919050565b600060ff82169050919050565b6112dd816112c7565b82525050565b60006080820190506112f86000830187610ff6565b61130560208301866112d4565b6113126040830185610ff6565b61131f6060830184610ff6565b95945050505050565b7f4e487b7100000000000000000000000000000000000000000000000000000000600052601160045260246000fd5b600061136282610b73565b915061136d83610b73565b925082820190508082111561138557611384611328565b5b9291505056fea26469706673582212209ee2d6372cb4cc589e932ad0ac8e7f701c27ea085ca03ab4029992ec1db49de364736f6c634300081100336080604052600080556000600755600060085560006009556000600f553480156200002957600080fd5b5060405162004cca38038062004cca83398181016040528101906200004f9190620001cf565b83601260006101000a81548173ffffffffffffffffffffffffffffffffffffffff021916908373ffffffffffffffffffffffffffffffffffffffff16021790555082601360006101000a81548173ffffffffffffffffffffffffffffffffffffffff021916908373ffffffffffffffffffffffffffffffffffffffff160217905550816017819055508060168190555030601460006101000a81548173ffffffffffffffffffffffffffffffffffffffff021916908373ffffffffffffffffffffffffffffffffffffffff1602179055505050505062000241565b600080fd5b600073ffffffffffffffffffffffffffffffffffffffff82169050919050565b60006200015c826200012f565b9050919050565b6200016e816200014f565b81146200017a57600080fd5b50565b6000815190506200018e8162000163565b92915050565b6000819050919050565b620001a98162000194565b8114620001b557600080fd5b50565b600081519050620001c9816200019e565b92915050565b60008060008060808587031215620001ec57620001eb6200012a565b5b6000620001fc878288016200017d565b94505060206200020f878288016200017d565b93505060406200022287828801620001b8565b92505060606200023587828801620001b8565b91505092959194509250565b614a7980620002516000396000f3fe6080604052600436106200022a5760003560e01c806349a6b51f1162000127578063aef054ce11620000af578063ea0f13661162000079578063ea0f136614620008d7578063ea988be8146200091b578063f50d4349146200094b578063f6317f8d146200098f578063fe774f9d14620009bf576200022a565b8063aef054ce14620007ef578063b8a9736d1462000833578063d4d810321462000863578063df4f5ccc14620008a7576200022a565b80638ed3df0f11620000f15780638ed3df0f146200070b5780639578d3df146200074f5780639cee22b11462000793578063a06fc90b14620007c1576200022a565b806349a6b51f14620006235780634ffe5a6f146200065357806353f97bc8146200069757806364b1b66314620006db576200022a565b806323f526c011620001b757806331ad1b42116200018157806331ad1b4214620004e35780633279bd4f14620005275780633434735f146200056b57806339dc84f4146200059b57806347634e1c14620005df576200022a565b806323f526c014620003fb57806326342ea4146200043f578063282adc8c146200046f5780632c53308514620004b3576200022a565b80631821907a11620001f95780631821907a14620003155780631c85949c14620003595780631e0b39641462000387578063235d2c8a14620003cb576200022a565b806302760a48146200022f57806303f5de9d146200027357806307604b1a14620002a1578063171e844114620002d1575b600080fd5b3480156200023c57600080fd5b506200025b600480360381019062000255919062002064565b620009df565b6040516200026a9190620020b3565b60405180910390f35b3480156200028057600080fd5b506200029f60048036038101906200029991906200210b565b620009ff565b005b348015620002ae57600080fd5b50620002b96200111e565b604051620002c89190620021c2565b60405180910390f35b348015620002de57600080fd5b50620002fd6004803603810190620002f7919062002064565b62001144565b6040516200030c9190620020b3565b60405180910390f35b3480156200032257600080fd5b506200034160048036038101906200033b919062002064565b62001164565b604051620003509190620021f0565b60405180910390f35b3480156200036657600080fd5b506200038560048036038101906200037f91906200223e565b6200117c565b005b3480156200039457600080fd5b50620003b36004803603810190620003ad919062002285565b6200130e565b604051620003c29190620021f0565b60405180910390f35b348015620003d857600080fd5b50620003e362001340565b604051620003f29190620021c2565b60405180910390f35b3480156200040857600080fd5b5062000427600480360381019062000421919062002064565b62001366565b604051620004369190620021c2565b60405180910390f35b3480156200044c57600080fd5b506200045762001399565b604051620004669190620021f0565b60405180910390f35b3480156200047c57600080fd5b506200049b600480360381019062000495919062002064565b6200139f565b604051620004aa9190620021f0565b60405180910390f35b348015620004c057600080fd5b50620004cb620013bf565b604051620004da9190620021f0565b60405180910390f35b348015620004f057600080fd5b506200050f600480360381019062000509919062002064565b620013c5565b6040516200051e9190620021f0565b60405180910390f35b3480156200053457600080fd5b506200055360048036038101906200054d919062002064565b620013dd565b604051620005629190620021f0565b60405180910390f35b3480156200057857600080fd5b5062000583620013f5565b604051620005929190620021c2565b60405180910390f35b348015620005a857600080fd5b50620005c76004803603810190620005c1919062002064565b6200141b565b604051620005d69190620021c2565b60405180910390f35b348015620005ec57600080fd5b506200060b600480360381019062000605919062002064565b6200144e565b6040516200061a9190620021f0565b60405180910390f35b3480156200063057600080fd5b506200063b62001466565b6040516200064a9190620021f0565b60405180910390f35b3480156200066057600080fd5b506200067f600480360381019062000679919062002064565b6200146c565b6040516200068e9190620021f0565b60405180910390f35b348015620006a457600080fd5b50620006c36004803603810190620006bd919062002285565b62001484565b604051620006d29190620020b3565b60405180910390f35b348015620006e857600080fd5b50620006f3620014b3565b604051620007029190620021c2565b60405180910390f35b3480156200071857600080fd5b5062000737600480360381019062000731919062002064565b620014d9565b604051620007469190620021f0565b60405180910390f35b3480156200075c57600080fd5b506200077b600480360381019062000775919062002064565b62001507565b6040516200078a9190620021f0565b60405180910390f35b348015620007a057600080fd5b50620007bf6004803603810190620007b99190620022cc565b6200152c565b005b348015620007ce57600080fd5b50620007ed6004803603810190620007e7919062002285565b6200165c565b005b348015620007fc57600080fd5b506200081b600480360381019062000815919062002064565b620018e3565b6040516200082a9190620021c2565b60405180910390f35b3480156200084057600080fd5b506200084b62001916565b6040516200085a9190620021f0565b60405180910390f35b3480156200087057600080fd5b506200088f600480360381019062000889919062002064565b6200191c565b6040516200089e9190620021f0565b60405180910390f35b348015620008b457600080fd5b50620008bf62001934565b604051620008ce9190620021f0565b60405180910390f35b348015620008e457600080fd5b50620009036004803603810190620008fd919062002064565b6200193a565b604051620009129190620021f0565b60405180910390f35b3480156200092857600080fd5b506200093362001952565b604051620009429190620021f0565b60405180910390f35b3480156200095857600080fd5b5062000977600480360381019062000971919062002064565b62001958565b604051620009869190620021f0565b60405180910390f35b3480156200099c57600080fd5b50620009a762001970565b604051620009b69190620021f0565b60405180910390f35b620009dd6004803603810190620009d791906200233e565b62001976565b005b60116020528060005260406000206000915054906101000a900460ff1681565b60006018600086815260200190815260200160002060009054906101000a900473ffffffffffffffffffffffffffffffffffffffff1690503373ffffffffffffffffffffffffffffffffffffffff168173ffffffffffffffffffffffffffffffffffffffff161462000aa8576040517f08c379a000000000000000000000000000000000000000000000000000000000815260040162000a9f90620023e6565b60405180910390fd5b836019600087815260200190815260200160002054101562000b01576040517f08c379a000000000000000000000000000000000000000000000000000000000815260040162000af89062002458565b60405180910390fd5b6000601360009054906101000a900473ffffffffffffffffffffffffffffffffffffffff1690508073ffffffffffffffffffffffffffffffffffffffff166370a08231836040518263ffffffff1660e01b815260040162000b639190620021c2565b602060405180830381865afa15801562000b81573d6000803e3d6000fd5b505050506040513d601f19601f8201168201806040525081019062000ba7919062002491565b85111562000bec576040517f08c379a000000000000000000000000000000000000000000000000000000000815260040162000be39062002513565b60405180910390fd5b6000848662000bfc919062002564565b1462000c3f576040517f08c379a000000000000000000000000000000000000000000000000000000000815260040162000c3690620025ec565b60405180910390fd5b60006002600088815260200190815260200160002054111562000ccd5784600f600082825462000c7091906200263d565b925050819055508460106000888152602001908152602001600020600082825462000c9c91906200263d565b92505081905550601a8690806001815401808255809150506001900390600052602060002001600090919091909150555b60008173ffffffffffffffffffffffffffffffffffffffff166370a08231306040518263ffffffff1660e01b815260040162000d0a9190620021c2565b602060405180830381865afa15801562000d28573d6000803e3d6000fd5b505050506040513d601f19601f8201168201806040525081019062000d4e919062002491565b905060008111156200103757600062000d6a82600f5462001c31565b90506000805b82811462000fb2576000601a8054905090506000810362000d92575062000fb2565b8082111562000da057600092505b6000601a848154811062000db95762000db862002678565b5b9060005260206000200154905060006018600083815260200190815260200160002060009054906101000a900473ffffffffffffffffffffffffffffffffffffffff1690506000601754600260008581526020019081526020016000205462000e239190620026a7565b90508060196000858152602001908152602001600020540362000e6b57601a868154811062000e575762000e5662002678565b5b906000526020600020016000905562000f88565b8873ffffffffffffffffffffffffffffffffffffffff1663a9059cbb8360016040518363ffffffff1660e01b815260040162000ea99291906200273f565b6020604051808303816000875af115801562000ec9573d6000803e3d6000fd5b505050506040513d601f19601f8201168201806040525081019062000eef91906200279d565b50601a839080600181540180825580915050600190039060005260206000200160009091909190915055601a868154811062000f305762000f2f62002678565b5b90600052602060002001600090556001600f600082825462000f539190620027cf565b92505081905550600160106000858152602001908152602001600020600082825462000f809190620027cf565b925050819055505b858062000f95906200280a565b96505050505050808062000fa9906200280a565b91505062000d70565b508373ffffffffffffffffffffffffffffffffffffffff166370a08231306040518263ffffffff1660e01b815260040162000fee9190620021c2565b602060405180830381865afa1580156200100c573d6000803e3d6000fd5b505050506040513d601f19601f8201168201806040525081019062001032919062002491565b925050505b600060095488888830896040516200104f9062002008565b620010609695949392919062002868565b604051809103906000f0801580156200107d573d6000803e3d6000fd5b5090508273ffffffffffffffffffffffffffffffffffffffff1663a9059cbb82896040518363ffffffff1660e01b8152600401620010bd929190620028d5565b6020604051808303816000875af1158015620010dd573d6000803e3d6000fd5b505050506040513d601f19601f820116820180604052508101906200110391906200279d565b506200111488600954838a62001c4c565b5050505050505050565b601460009054906101000a900473ffffffffffffffffffffffffffffffffffffffff1681565b60066020528060005260406000206000915054906101000a900460ff1681565b600d6020528060005260406000206000915090505481565b6000601360009054906101000a900473ffffffffffffffffffffffffffffffffffffffff1690506017548173ffffffffffffffffffffffffffffffffffffffff166370a08231306040518263ffffffff1660e01b8152600401620011e19190620021c2565b602060405180830381865afa158015620011ff573d6000803e3d6000fd5b505050506040513d601f19601f8201168201806040525081019062001225919062002491565b101562001269576040517f08c379a0000000000000000000000000000000000000000000000000000000008152600401620012609062002952565b60405180910390fd5b8073ffffffffffffffffffffffffffffffffffffffff1663a9059cbb846017546040518363ffffffff1660e01b8152600401620012a8929190620028d5565b6020604051808303816000875af1158015620012c8573d6000803e3d6000fd5b505050506040513d601f19601f82011682018060405250810190620012ee91906200279d565b506017546019600084815260200190815260200160002081905550505050565b600a60205281600052604060002081815481106200132b57600080fd5b90600052602060002001600091509150505481565b601560009054906101000a900473ffffffffffffffffffffffffffffffffffffffff1681565b60056020528060005260406000206000915054906101000a900473ffffffffffffffffffffffffffffffffffffffff1681565b60095481565b6000600a6000838152602001908152602001600020805490509050919050565b60175481565b60016020528060005260406000206000915090505481565b600c6020528060005260406000206000915090505481565b601260009054906101000a900473ffffffffffffffffffffffffffffffffffffffff1681565b60186020528060005260406000206000915054906101000a900473ffffffffffffffffffffffffffffffffffffffff1681565b600e6020528060005260406000206000915090505481565b60085481565b60106020528060005260406000206000915090505481565b60046020528160005260406000206020528060005260406000206000915091509054906101000a900460ff1681565b601360009054906101000a900473ffffffffffffffffffffffffffffffffffffffff1681565b6000600180600084815260200190815260200160002054620014fc91906200263d565b601754189050919050565b601a81815481106200151857600080fd5b906000526020600020016000915090505481565b6000601360009054906101000a900473ffffffffffffffffffffffffffffffffffffffff1690508073ffffffffffffffffffffffffffffffffffffffff1663a9059cbb86856040518363ffffffff1660e01b815260040162001590929190620028d5565b6020604051808303816000875af1158015620015b0573d6000803e3d6000fd5b505050506040513d601f19601f82011682018060405250810190620015d691906200279d565b508073ffffffffffffffffffffffffffffffffffffffff16634bbc1bcd30856040518363ffffffff1660e01b815260040162001614929190620028d5565b600060405180830381600087803b1580156200162f57600080fd5b505af115801562001644573d6000803e3d6000fd5b505050506200165584848462001d85565b5050505050565b60006005600084815260200190815260200160002060009054906101000a900473ffffffffffffffffffffffffffffffffffffffff1690508073ffffffffffffffffffffffffffffffffffffffff163373ffffffffffffffffffffffffffffffffffffffff161462001705576040517f08c379a0000000000000000000000000000000000000000000000000000000008152600401620016fc90620029ea565b60405180910390fd5b60008190506000601860008373ffffffffffffffffffffffffffffffffffffffff1663685771f46040518163ffffffff1660e01b8152600401602060405180830381865afa1580156200175c573d6000803e3d6000fd5b505050506040513d601f19601f8201168201806040525081019062001782919062002491565b815260200190815260200160002060009054906101000a900473ffffffffffffffffffffffffffffffffffffffff1690506000601360009054906101000a900473ffffffffffffffffffffffffffffffffffffffff1690508073ffffffffffffffffffffffffffffffffffffffff1663a9059cbb83876040518363ffffffff1660e01b815260040162001817929190620028d5565b6020604051808303816000875af115801562001837573d6000803e3d6000fd5b505050506040513d601f19601f820116820180604052508101906200185d91906200279d565b508073ffffffffffffffffffffffffffffffffffffffff16634bbc1bcd3060016040518363ffffffff1660e01b81526004016200189c9291906200273f565b600060405180830381600087803b158015620018b757600080fd5b505af1158015620018cc573d6000803e3d6000fd5b50505050620018db8662001e48565b505050505050565b600b6020528060005260406000206000915054906101000a900473ffffffffffffffffffffffffffffffffffffffff1681565b60165481565b60036020528060005260406000206000915090505481565b600f5481565b60026020528060005260406000206000915090505481565b60005481565b60196020528060005260406000206000915090505481565b60075481565b6000600160026000858152602001908152602001600020546200199a91906200263d565b60165418905080341015620019e6576040517f08c379a0000000000000000000000000000000000000000000000000000000008152600401620019dd9062002a5c565b60405180910390fd5b6000601360009054906101000a900473ffffffffffffffffffffffffffffffffffffffff169050600062001a1a85620014d9565b905060008273ffffffffffffffffffffffffffffffffffffffff166370a082316018600089815260200190815260200160002060009054906101000a900473ffffffffffffffffffffffffffffffffffffffff166040518263ffffffff1660e01b815260040162001a8c9190620021c2565b602060405180830381865afa15801562001aaa573d6000803e3d6000fd5b505050506040513d601f19601f8201168201806040525081019062001ad0919062002491565b90508181101562001b18576040517f08c379a000000000000000000000000000000000000000000000000000000000815260040162001b0f9062002ace565b60405180910390fd5b6000805487308860405162001b2d9062002016565b62001b3c949392919062002af0565b604051809103906000f08015801562001b59573d6000803e3d6000fd5b509050600081905062001b70886000548362001ee9565b8473ffffffffffffffffffffffffffffffffffffffff166342966c68856040518263ffffffff1660e01b815260040162001bab9190620021f0565b600060405180830381600087803b15801562001bc657600080fd5b505af115801562001bdb573d6000803e3d6000fd5b505050508073ffffffffffffffffffffffffffffffffffffffff166108fc349081150290604051600060405180830381858888f1935050505015801562001c26573d6000803e3d6000fd5b505050505050505050565b600081831062001c42578162001c44565b825b905092915050565b60016009600082825462001c6191906200263d565b92505081905550806007600082825462001c7c91906200263d565b92505081905550600a600085815260200190815260200160002083908060018154018082558091505060019003906000526020600020016000909190919091505580600d6000868152602001908152602001600020600082825462001ce291906200263d565b9250508190555081600b600086815260200190815260200160002060006101000a81548173ffffffffffffffffffffffffffffffffffffffff021916908373ffffffffffffffffffffffffffffffffffffffff16021790555060016011600086815260200190815260200160002060006101000a81548160ff02191690831515021790555083600e60008581526020019081526020016000208190555050505050565b816007600082825462001d999190620027cf565b92505081905550816008600082825462001db491906200263d565b925050819055506000600e600085815260200190815260200160002054905082600c6000838152602001908152602001600020600082825462001df891906200263d565b925050819055506000838362001e0f9190620027cf565b0362001e425760006011600086815260200190815260200160002060006101000a81548160ff0219169083151502179055505b50505050565b6000600360008381526020019081526020016000205490506001806000838152602001908152602001600020600082825462001e859190620027cf565b92505081905550600160026000838152602001908152602001600020600082825462001eb291906200263d565b9250508190555060006006600083815260200190815260200160002060006101000a81548160ff0219169083151502179055505050565b8260036000848152602001908152602001600020819055506001806000858152602001908152602001600020600082825462001f2691906200263d565b92505081905550600160046000848152602001908152602001600020600085815260200190815260200160002060006101000a81548160ff021916908315150217905550806005600084815260200190815260200160002060006101000a81548173ffffffffffffffffffffffffffffffffffffffff021916908373ffffffffffffffffffffffffffffffffffffffff160217905550600160008082825462001fd091906200263d565b9250508190555060016006600085815260200190815260200160002060006101000a81548160ff021916908315150217905550505050565b610d218062002b3e83390190565b6111e5806200385f83390190565b600080fd5b6000819050919050565b6200203e8162002029565b81146200204a57600080fd5b50565b6000813590506200205e8162002033565b92915050565b6000602082840312156200207d576200207c62002024565b5b60006200208d848285016200204d565b91505092915050565b60008115159050919050565b620020ad8162002096565b82525050565b6000602082019050620020ca6000830184620020a2565b92915050565b6000819050919050565b620020e581620020d0565b8114620020f157600080fd5b50565b6000813590506200210581620020da565b92915050565b6000806000806080858703121562002128576200212762002024565b5b600062002138878288016200204d565b94505060206200214b878288016200204d565b93505060406200215e878288016200204d565b92505060606200217187828801620020f4565b91505092959194509250565b600073ffffffffffffffffffffffffffffffffffffffff82169050919050565b6000620021aa826200217d565b9050919050565b620021bc816200219d565b82525050565b6000602082019050620021d96000830184620021b1565b92915050565b620021ea8162002029565b82525050565b6000602082019050620022076000830184620021df565b92915050565b62002218816200219d565b81146200222457600080fd5b50565b60008135905062002238816200220d565b92915050565b6000806040838503121562002258576200225762002024565b5b6000620022688582860162002227565b92505060206200227b858286016200204d565b9150509250929050565b600080604083850312156200229f576200229e62002024565b5b6000620022af858286016200204d565b9250506020620022c2858286016200204d565b9150509250929050565b60008060008060808587031215620022e957620022e862002024565b5b6000620022f98782880162002227565b94505060206200230c878288016200204d565b93505060406200231f878288016200204d565b925050606062002332878288016200204d565b91505092959194509250565b6000806040838503121562002358576200235762002024565b5b600062002368858286016200204d565b92505060206200237b85828601620020f4565b9150509250929050565b600082825260208201905092915050565b7f43616c6c6572206973206e6f7420746865206f776e6572000000000000000000600082015250565b6000620023ce60178362002385565b9150620023db8262002396565b602082019050919050565b600060208201905081810360008301526200240181620023bf565b9050919050565b7f4e6f74206861766520656e6f756768206d617474657200000000000000000000600082015250565b60006200244060168362002385565b91506200244d8262002408565b602082019050919050565b60006020820190508181036000830152620024738162002431565b9050919050565b6000815190506200248b8162002033565b92915050565b600060208284031215620024aa57620024a962002024565b5b6000620024ba848285016200247a565b91505092915050565b7f4e6f74206869676820656e6f7567680000000000000000000000000000000000600082015250565b6000620024fb600f8362002385565b91506200250882620024c3565b602082019050919050565b600060208201905081810360008301526200252e81620024ec565b9050919050565b7f4e487b7100000000000000000000000000000000000000000000000000000000600052601260045260246000fd5b6000620025718262002029565b91506200257e8362002029565b92508262002591576200259062002535565b5b828206905092915050565b7f447261772072617465206e6f7420646976697369626c65000000000000000000600082015250565b6000620025d460178362002385565b9150620025e1826200259c565b602082019050919050565b600060208201905081810360008301526200260781620025c5565b9050919050565b7f4e487b7100000000000000000000000000000000000000000000000000000000600052601160045260246000fd5b60006200264a8262002029565b9150620026578362002029565b92508282019050808211156200267257620026716200260e565b5b92915050565b7f4e487b7100000000000000000000000000000000000000000000000000000000600052603260045260246000fd5b6000620026b48262002029565b9150620026c18362002029565b9250828202620026d18162002029565b91508282048414831517620026eb57620026ea6200260e565b5b5092915050565b6000819050919050565b6000819050919050565b600062002727620027216200271b84620026f2565b620026fc565b62002029565b9050919050565b620027398162002706565b82525050565b6000604082019050620027566000830185620021b1565b6200276560208301846200272e565b9392505050565b620027778162002096565b81146200278357600080fd5b50565b60008151905062002797816200276c565b92915050565b600060208284031215620027b657620027b562002024565b5b6000620027c68482850162002786565b91505092915050565b6000620027dc8262002029565b9150620027e98362002029565b92508282039050818111156200280457620028036200260e565b5b92915050565b6000620028178262002029565b91507fffffffffffffffffffffffffffffffffffffffffffffffffffffffffffffffff82036200284c576200284b6200260e565b5b600182019050919050565b6200286281620020d0565b82525050565b600060c0820190506200287f6000830189620021df565b6200288e6020830188620021df565b6200289d6040830187620021df565b620028ac6060830186620021df565b620028bb6080830185620021b1565b620028ca60a083018462002857565b979650505050505050565b6000604082019050620028ec6000830185620021b1565b620028fb6020830184620021df565b9392505050565b7f4e6f7420656e6f756768206d6174746572000000000000000000000000000000600082015250565b60006200293a60118362002385565b9150620029478262002902565b602082019050919050565b600060208201905081810360008301526200296d816200292b565b9050919050565b7f43616c6c6572206973206e6f742074686520726967687420436f736d6f53656560008201527f6420636f6e747261637400000000000000000000000000000000000000000000602082015250565b6000620029d2602a8362002385565b9150620029df8262002974565b604082019050919050565b6000602082019050818103600083015262002a0581620029c3565b9050919050565b7f45746865722076616c7565206973206e6f7420656e6f75676800000000000000600082015250565b600062002a4460198362002385565b915062002a518262002a0c565b602082019050919050565b6000602082019050818103600083015262002a778162002a35565b9050919050565b7f4d61747465722062616c616e6365206973206e6f7420656e6f75676800000000600082015250565b600062002ab6601c8362002385565b915062002ac38262002a7e565b602082019050919050565b6000602082019050818103600083015262002ae98162002aa7565b9050919050565b600060808201905062002b076000830187620021df565b62002b166020830186620021df565b62002b256040830185620021b1565b62002b34606083018462002857565b9594505050505056fe60806040523480156200001157600080fd5b5060405162000d2138038062000d21833981810160405281019062000037919062000283565b85600080018190555084600060010181905550836000600201819055508260006003018190555030600060040160006101000a81548173ffffffffffffffffffffffffffffffffffffffff021916908373ffffffffffffffffffffffffffffffffffffffff16021790555033600060050160006101000a81548173ffffffffffffffffffffffffffffffffffffffff021916908373ffffffffffffffffffffffffffffffffffffffff16021790555080600060060181905550600060050160009054906101000a900473ffffffffffffffffffffffffffffffffffffffff16600860006101000a81548173ffffffffffffffffffffffffffffffffffffffff021916908373ffffffffffffffffffffffffffffffffffffffff16021790555081600960006101000a81548173ffffffffffffffffffffffffffffffffffffffff021916908373ffffffffffffffffffffffffffffffffffffffff1602179055505050505050506200031f565b600080fd5b6000819050919050565b620001bd81620001a8565b8114620001c957600080fd5b50565b600081519050620001dd81620001b2565b92915050565b600073ffffffffffffffffffffffffffffffffffffffff82169050919050565b60006200021082620001e3565b9050919050565b620002228162000203565b81146200022e57600080fd5b50565b600081519050620002428162000217565b92915050565b6000819050919050565b6200025d8162000248565b81146200026957600080fd5b50565b6000815190506200027d8162000252565b92915050565b60008060008060008060c08789031215620002a357620002a2620001a3565b5b6000620002b389828a01620001cc565b9650506020620002c689828a01620001cc565b9550506040620002d989828a01620001cc565b9450506060620002ec89828a01620001cc565b9350506080620002ff89828a0162000231565b92505060a06200031289828a016200026c565b9150509295509295509295565b6109f2806200032f6000396000f3fe608060405234801561001057600080fd5b506004361061002b5760003560e01c806327ac1b6514610030575b600080fd5b61004a60048036038101906100459190610563565b61004c565b005b60011515600060070160003373ffffffffffffffffffffffffffffffffffffffff1673ffffffffffffffffffffffffffffffffffffffff16815260200190815260200160002060009054906101000a900460ff161515036100e2576040517f08c379a00000000000000000000000000000000000000000000000000000000081526004016100d990610667565b60405180910390fd5b6000806002015411610129576040517f08c379a0000000000000000000000000000000000000000000000000000000008152600401610120906106d3565b60405180910390fd5b610132836102eb565b50600960009054906101000a900473ffffffffffffffffffffffffffffffffffffffff1673ffffffffffffffffffffffffffffffffffffffff16639cee22b13360008001546000600301546000600201546040518563ffffffff1660e01b81526004016101a2949392919061074d565b600060405180830381600087803b1580156101bc57600080fd5b505af11580156101d0573d6000803e3d6000fd5b50505050600060030154600060020160008282546101ee91906107c1565b925050819055506001600060070160003373ffffffffffffffffffffffffffffffffffffffff1673ffffffffffffffffffffffffffffffffffffffff16815260200190815260200160002060006101000a81548160ff021916908315150217905550600860009054906101000a900473ffffffffffffffffffffffffffffffffffffffff1673ffffffffffffffffffffffffffffffffffffffff16639202c1ec60006001015484846040518463ffffffff1660e01b81526004016102b4939291906108b8565b600060405180830381600087803b1580156102ce57600080fd5b505af11580156102e2573d6000803e3d6000fd5b50505050505050565b600080826040516020016102ff9190610939565b604051602081830303815290604052805190602001209050600060060154811461035e576040517f08c379a00000000000000000000000000000000000000000000000000000000081526004016103559061099c565b60405180910390fd5b6001915050919050565b6000604051905090565b600080fd5b600080fd5b600080fd5b600080fd5b6000601f19601f8301169050919050565b7f4e487b7100000000000000000000000000000000000000000000000000000000600052604160045260246000fd5b6103cf82610386565b810181811067ffffffffffffffff821117156103ee576103ed610397565b5b80604052505050565b6000610401610368565b905061040d82826103c6565b919050565b600067ffffffffffffffff82111561042d5761042c610397565b5b61043682610386565b9050602081019050919050565b82818337600083830152505050565b600061046561046084610412565b6103f7565b90508281526020810184848401111561048157610480610381565b5b61048c848285610443565b509392505050565b600082601f8301126104a9576104a861037c565b5b81356104b9848260208601610452565b91505092915050565b600067ffffffffffffffff8211156104dd576104dc610397565b5b6104e682610386565b9050602081019050919050565b6000610506610501846104c2565b6103f7565b90508281526020810184848401111561052257610521610381565b5b61052d848285610443565b509392505050565b600082601f83011261054a5761054961037c565b5b813561055a8482602086016104f3565b91505092915050565b60008060006060848603121561057c5761057b610372565b5b600084013567ffffffffffffffff81111561059a57610599610377565b5b6105a686828701610494565b935050602084013567ffffffffffffffff8111156105c7576105c6610377565b5b6105d386828701610494565b925050604084013567ffffffffffffffff8111156105f4576105f3610377565b5b61060086828701610535565b9150509250925092565b600082825260208201905092915050565b7f43616e206f6e6c792064726177206f6e63650000000000000000000000000000600082015250565b600061065160128361060a565b915061065c8261061b565b602082019050919050565b6000602082019050818103600083015261068081610644565b9050919050565b7f4e6f2062757474657220746f2064726177000000000000000000000000000000600082015250565b60006106bd60118361060a565b91506106c882610687565b602082019050919050565b600060208201905081810360008301526106ec816106b0565b9050919050565b600073ffffffffffffffffffffffffffffffffffffffff82169050919050565b600061071e826106f3565b9050919050565b61072e81610713565b82525050565b6000819050919050565b61074781610734565b82525050565b60006080820190506107626000830187610725565b61076f602083018661073e565b61077c604083018561073e565b610789606083018461073e565b95945050505050565b7f4e487b7100000000000000000000000000000000000000000000000000000000600052601160045260246000fd5b60006107cc82610734565b91506107d783610734565b92508282039050818111156107ef576107ee610792565b5b92915050565b600081519050919050565b60005b8381101561081e578082015181840152602081019050610803565b60008484015250505050565b6000610835826107f5565b61083f818561060a565b935061084f818560208601610800565b61085881610386565b840191505092915050565b600081519050919050565b600082825260208201905092915050565b600061088a82610863565b610894818561086e565b93506108a4818560208601610800565b6108ad81610386565b840191505092915050565b60006060820190506108cd600083018661073e565b81810360208301526108df818561082a565b905081810360408301526108f3818461087f565b9050949350505050565b600081905092915050565b6000610913826107f5565b61091d81856108fd565b935061092d818560208601610800565b80840191505092915050565b60006109458284610908565b915081905092915050565b7f496e70757420646f6573206e6f74206d61746368207365637265740000000000600082015250565b6000610986601b8361060a565b915061099182610950565b602082019050919050565b600060208201905081810360008301526109b581610979565b905091905056fea2646970667358221220a448291b28b63abe94569b74444b34fec82bbdb93fee3646a7bd77ec0019e9fc64736f6c634300081100336080604052604051620011e5380380620011e58339818101604052810190620000299190620002f4565b600033905080600760006101000a81548173ffffffffffffffffffffffffffffffffffffffff021916908373ffffffffffffffffffffffffffffffffffffffff16021790555082600860006101000a81548173ffffffffffffffffffffffffffffffffffffffff021916908373ffffffffffffffffffffffffffffffffffffffff1602179055508460008001819055508360006001018190555034600060020181905550600860009054906101000a900473ffffffffffffffffffffffffffffffffffffffff1673ffffffffffffffffffffffffffffffffffffffff166334fc1228856040518263ffffffff1660e01b81526004016200012a919062000377565b602060405180830381865afa15801562000148573d6000803e3d6000fd5b505050506040513d601f19601f820116820180604052508101906200016e919062000394565b60006003018190555030600060040160006101000a81548173ffffffffffffffffffffffffffffffffffffffff021916908373ffffffffffffffffffffffffffffffffffffffff16021790555080600060050160006101000a81548173ffffffffffffffffffffffffffffffffffffffff021916908373ffffffffffffffffffffffffffffffffffffffff160217905550816000600601819055505050505050620003c6565b600080fd5b6000819050919050565b6200022e8162000219565b81146200023a57600080fd5b50565b6000815190506200024e8162000223565b92915050565b600073ffffffffffffffffffffffffffffffffffffffff82169050919050565b6000620002818262000254565b9050919050565b620002938162000274565b81146200029f57600080fd5b50565b600081519050620002b38162000288565b92915050565b6000819050919050565b620002ce81620002b9565b8114620002da57600080fd5b50565b600081519050620002ee81620002c3565b92915050565b6000806000806080858703121562000311576200031062000214565b5b600062000321878288016200023d565b945050602062000334878288016200023d565b93505060406200034787828801620002a2565b92505060606200035a87828801620002dd565b91505092959194509250565b620003718162000219565b82525050565b60006020820190506200038e600083018462000366565b92915050565b600060208284031215620003ad57620003ac62000214565b5b6000620003bd848285016200023d565b91505092915050565b610e0f80620003d66000396000f3fe608060405234801561001057600080fd5b506004361061004c5760003560e01c8063685771f4146100515780637d94792a1461006f578063956c2dc314610093578063c5d12c97146100af575b600080fd5b6100596100cd565b6040516100669190610656565b60405180910390f35b6100776100d9565b60405161008a97969594939291906106cb565b60405180910390f35b6100ad60048036038101906100a89190610935565b610149565b005b6100b76105b4565b6040516100c49190610656565b60405180910390f35b60008060010154905090565b60008060000154908060010154908060020154908060030154908060040160009054906101000a900473ffffffffffffffffffffffffffffffffffffffff16908060050160009054906101000a900473ffffffffffffffffffffffffffffffffffffffff16908060060154905087565b610152836105c0565b50600860009054906101000a900473ffffffffffffffffffffffffffffffffffffffff1673ffffffffffffffffffffffffffffffffffffffff1663f27890f260008001546040518263ffffffff1660e01b81526004016101b29190610656565b600060405180830381600087803b1580156101cc57600080fd5b505af11580156101e0573d6000803e3d6000fd5b50505050600760009054906101000a900473ffffffffffffffffffffffffffffffffffffffff1673ffffffffffffffffffffffffffffffffffffffff1663a0e12efe83836040518363ffffffff1660e01b8152600401610241929190610ab0565b600060405180830381600087803b15801561025b57600080fd5b505af115801561026f573d6000803e3d6000fd5b505050506000600860009054906101000a900473ffffffffffffffffffffffffffffffffffffffff1673ffffffffffffffffffffffffffffffffffffffff1663b8a9736d6040518163ffffffff1660e01b8152600401602060405180830381865afa1580156102e2573d6000803e3d6000fd5b505050506040513d601f19601f820116820180604052508101906103069190610b13565b90506000600860009054906101000a900473ffffffffffffffffffffffffffffffffffffffff1673ffffffffffffffffffffffffffffffffffffffff166307604b1a6040518163ffffffff1660e01b8152600401602060405180830381865afa158015610377573d6000803e3d6000fd5b505050506040513d601f19601f8201168201806040525081019061039b9190610b6c565b73ffffffffffffffffffffffffffffffffffffffff16826040516103be90610bca565b60006040518083038185875af1925050503d80600081146103fb576040519150601f19603f3d011682016040523d82523d6000602084013e610400565b606091505b5050905080610444576040517f08c379a000000000000000000000000000000000000000000000000000000000815260040161043b90610c2b565b60405180910390fd5b6000826000600201546104579190610c7a565b90506000600760009054906101000a900473ffffffffffffffffffffffffffffffffffffffff1673ffffffffffffffffffffffffffffffffffffffff16636352211e6000600101546040518263ffffffff1660e01b81526004016104bb9190610656565b602060405180830381865afa1580156104d8573d6000803e3d6000fd5b505050506040513d601f19601f820116820180604052508101906104fc9190610b6c565b905060008173ffffffffffffffffffffffffffffffffffffffff168360405161052490610bca565b60006040518083038185875af1925050503d8060008114610561576040519150601f19603f3d011682016040523d82523d6000602084013e610566565b606091505b50509050806105aa576040517f08c379a00000000000000000000000000000000000000000000000000000000081526004016105a190610cfa565b60405180910390fd5b5050505050505050565b60008060030154905090565b600080826040516020016105d49190610d56565b6040516020818303038152906040528051906020012090506000600601548114610633576040517f08c379a000000000000000000000000000000000000000000000000000000000815260040161062a90610db9565b60405180910390fd5b6001915050919050565b6000819050919050565b6106508161063d565b82525050565b600060208201905061066b6000830184610647565b92915050565b600073ffffffffffffffffffffffffffffffffffffffff82169050919050565b600061069c82610671565b9050919050565b6106ac81610691565b82525050565b6000819050919050565b6106c5816106b2565b82525050565b600060e0820190506106e0600083018a610647565b6106ed6020830189610647565b6106fa6040830188610647565b6107076060830187610647565b61071460808301866106a3565b61072160a08301856106a3565b61072e60c08301846106bc565b98975050505050505050565b6000604051905090565b600080fd5b600080fd5b600080fd5b600080fd5b6000601f19601f8301169050919050565b7f4e487b7100000000000000000000000000000000000000000000000000000000600052604160045260246000fd5b6107a182610758565b810181811067ffffffffffffffff821117156107c0576107bf610769565b5b80604052505050565b60006107d361073a565b90506107df8282610798565b919050565b600067ffffffffffffffff8211156107ff576107fe610769565b5b61080882610758565b9050602081019050919050565b82818337600083830152505050565b6000610837610832846107e4565b6107c9565b90508281526020810184848401111561085357610852610753565b5b61085e848285610815565b509392505050565b600082601f83011261087b5761087a61074e565b5b813561088b848260208601610824565b91505092915050565b600067ffffffffffffffff8211156108af576108ae610769565b5b6108b882610758565b9050602081019050919050565b60006108d86108d384610894565b6107c9565b9050828152602081018484840111156108f4576108f3610753565b5b6108ff848285610815565b509392505050565b600082601f83011261091c5761091b61074e565b5b813561092c8482602086016108c5565b91505092915050565b60008060006060848603121561094e5761094d610744565b5b600084013567ffffffffffffffff81111561096c5761096b610749565b5b61097886828701610866565b935050602084013567ffffffffffffffff81111561099957610998610749565b5b6109a586828701610866565b925050604084013567ffffffffffffffff8111156109c6576109c5610749565b5b6109d286828701610907565b9150509250925092565b600081519050919050565b600082825260208201905092915050565b60005b83811015610a165780820151818401526020810190506109fb565b60008484015250505050565b6000610a2d826109dc565b610a3781856109e7565b9350610a478185602086016109f8565b610a5081610758565b840191505092915050565b600081519050919050565b600082825260208201905092915050565b6000610a8282610a5b565b610a8c8185610a66565b9350610a9c8185602086016109f8565b610aa581610758565b840191505092915050565b60006040820190508181036000830152610aca8185610a22565b90508181036020830152610ade8184610a77565b90509392505050565b610af08161063d565b8114610afb57600080fd5b50565b600081519050610b0d81610ae7565b92915050565b600060208284031215610b2957610b28610744565b5b6000610b3784828501610afe565b91505092915050565b610b4981610691565b8114610b5457600080fd5b50565b600081519050610b6681610b40565b92915050565b600060208284031215610b8257610b81610744565b5b6000610b9084828501610b57565b91505092915050565b600081905092915050565b50565b6000610bb4600083610b99565b9150610bbf82610ba4565b600082019050919050565b6000610bd582610ba7565b9150819050919050565b7f4574686572206e6f742073656e7420746f205472656173757279000000000000600082015250565b6000610c15601a836109e7565b9150610c2082610bdf565b602082019050919050565b60006020820190508181036000830152610c4481610c08565b9050919050565b7f4e487b7100000000000000000000000000000000000000000000000000000000600052601160045260246000fd5b6000610c858261063d565b9150610c908361063d565b9250828203905081811115610ca857610ca7610c4b565b5b92915050565b7f4574686572206e6f742073656e7420746f20706172656e74206e757400000000600082015250565b6000610ce4601c836109e7565b9150610cef82610cae565b602082019050919050565b60006020820190508181036000830152610d1381610cd7565b9050919050565b600081905092915050565b6000610d30826109dc565b610d3a8185610d1a565b9350610d4a8185602086016109f8565b80840191505092915050565b6000610d628284610d25565b915081905092915050565b7f496e70757420646f6573206e6f74206d61746368207365637265740000000000600082015250565b6000610da3601b836109e7565b9150610dae82610d6d565b602082019050919050565b60006020820190508181036000830152610dd281610d96565b905091905056fea264697066735822122083bc631ddaf19f81b476cddad578e2d08e4d5c1b3bdd94e3fee05e4c575d93ff64736f6c63430008110033a2646970667358221220e6d0831046272256c8670a25ad5ba3a76dbb3041adadd2005f114eaeb96baff364736f6c63430008110033",
  "immutableReferences": {},
  "source": "// SPDX-License-Identifier: MIT\npragma solidity ^0.8.7;\n\nimport \"openzeppelin-solidity/contracts/utils/cryptography/ECDSA.sol\";\nimport \"./CosmoTreasury.sol\";\n\ncontract CosmoVault {\n\n    address public SYSTEM_ADDRESS;\n    //address public MATTER_ADDRESS;\n    address public TREASURY_ADDRESS;\n    //address public COSMO_ADDRESS;\n\n    uint256 public NUT_PRICE;\n    uint256 public MATTER_RATE;\n\n    CosmoTreasury treasury;\n\n    using ECDSA for bytes32;\n\n    constructor(\n        address _systemAddress,\n        address _matterAddress,\n        //address _treasuryAddress,\n        //address _cosmoAddress\n        uint256 _nutPrice,\n        uint256 _matterRate\n    )\n    //CosmoTreasury(_systemAddress, _matterAddress, _matterRate, _nutPrice)\n    {\n        //SYSTEM_ADDRESS = _systemAddress;\n        //MATTER_ADDRESS = _matterAddress;\n        //TREASURY_ADDRESS = _treasuryAddress;\n        //COSMO_ADDRESS = _cosmoAddress;\n        treasury = new CosmoTreasury(_systemAddress, _matterAddress, _matterRate, _nutPrice);\n        TREASURY_ADDRESS = address(treasury);\n        NUT_PRICE = _nutPrice;\n        MATTER_RATE = _matterRate;\n    }\n\n    function calcMatterNeeded(uint256 _nutId) public view returns (uint256) {\n        return treasury.matterNeeded(_nutId);\n    }\n\n    function giveMintBalance(uint256 _nutIndex) external {\n        treasury.assignMintBalance(TREASURY_ADDRESS, _nutIndex);\n    }\n\n    function growSeedFromNut(uint256 _seedId) public {\n        //uint256 nutId = treasury.nutOfSeed[_seedId];\n        uint256 nutId = treasury.nutOfSeed(_seedId);\n        uint256 matterNeeded = calcMatterNeeded(nutId);\n        treasury.seedFromNut(_seedId, matterNeeded);\n    }\n\n    function newSeed(uint256 _nutId, bytes32 _secretHash) external {\n        treasury.spawnSeed(_nutId, _secretHash);\n    }\n\n    function newButterJar(uint256 _nutId, uint256 _matterContributed, bytes32 _secretHash) external {\n        treasury.newButter(_nutId, _matterContributed, MATTER_RATE, _secretHash);\n    }\n\n    //modifier onlySystem {\n    //    require(address(msg.sender) == SYSTEM_ADDRESS, \"Caller is not system\");\n    //    _;\n    //}\n\n    //function updateSystemAddress(address _newSystemAddress) public onlySystem {\n    //    SYSTEM_ADDRESS = _newSystemAddress;\n    //}\n\n    //function updateTreasuryAddress(address _newTreasuryAddress) public onlySystem {\n    //    TREASURY_ADDRESS = _newTreasuryAddress;\n    //}\n\n    function signerAddress(bytes32 _hash, bytes memory _signature) internal pure returns (address) {\n        return _hash.recover(_signature);\n    }\n\n\n    function isVerified(bytes32 _pathHash, bytes memory _signature) external view returns (bool) {\n        // *Research* - Should you include the following \"\\x19Ethereum Signed Message:\\n32\"\n        require(signerAddress(_pathHash, _signature) == treasury.SYSTEM_ADDRESS(), \"Invalid signature\");\n        return true;\n    }\n\n\n}\n",
  "sourcePath": "/home/redlentils/Seafile/Websites/avatarnft/contracts/CosmoVault.sol",
  "compiler": {
    "name": "solc",
    "version": "0.8.17+commit.8df45f5f.Emscripten.clang"
  },
  "schemaVersion": "3.4.10",
  "updatedAt": "2022-10-06T17:42:37.196Z",
  "devdoc": {
    "kind": "dev",
    "methods": {},
    "version": 1
  },
  "userdoc": {
    "kind": "user",
    "methods": {},
    "version": 1
  }
}