{
  "contractName": "CosmoButter",
  "abi": [
    {
      "inputs": [],
      "name": "butter",
      "outputs": [
        {
          "internalType": "uint256",
          "name": "id",
          "type": "uint256"
        },
        {
          "internalType": "uint256",
          "name": "nutId",
          "type": "uint256"
        },
        {
          "internalType": "uint256",
          "name": "amount",
          "type": "uint256"
        },
        {
          "internalType": "uint256",
          "name": "drawRate",
          "type": "uint256"
        },
        {
          "internalType": "address",
          "name": "location",
          "type": "address"
        },
        {
          "internalType": "address",
          "name": "treasury",
          "type": "address"
        },
        {
          "internalType": "address",
          "name": "nutLocation",
          "type": "address"
        },
        {
          "internalType": "bytes32",
          "name": "secretHash",
          "type": "bytes32"
        }
      ],
      "stateMutability": "view",
      "type": "function"
    },
    {
      "inputs": [
        {
          "internalType": "uint256",
          "name": "_butterId",
          "type": "uint256"
        },
        {
          "internalType": "uint256",
          "name": "_nutId",
          "type": "uint256"
        },
        {
          "internalType": "uint256",
          "name": "_butterAmount",
          "type": "uint256"
        },
        {
          "internalType": "uint256",
          "name": "_drawRate",
          "type": "uint256"
        },
        {
          "internalType": "address",
          "name": "_treasuryAddress",
          "type": "address"
        },
        {
          "internalType": "bytes32",
          "name": "_secretHash",
          "type": "bytes32"
        }
      ],
      "name": "initialize",
      "outputs": [],
      "stateMutability": "nonpayable",
      "type": "function"
    },
    {
      "inputs": [
        {
          "internalType": "string",
          "name": "_secret",
          "type": "string"
        },
        {
          "internalType": "string",
          "name": "_cidPath",
          "type": "string"
        },
        {
          "internalType": "bytes",
          "name": "_signature",
          "type": "bytes"
        }
      ],
      "name": "drawButter",
      "outputs": [],
      "stateMutability": "nonpayable",
      "type": "function"
    }
  ],
  "bytecode": "0x608060405234801561001057600080fd5b506110af806100206000396000f3fe608060405234801561001057600080fd5b50600436106100415760003560e01c806327ac1b6514610046578063d419c9ee14610062578063f8257f8714610087575b600080fd5b610060600480360381019061005b919061099a565b6100a3565b005b61006a6102d2565b60405161007e989796959493929190610ab4565b60405180910390f35b6100a1600480360381019061009c9190610bb6565b610368565b005b60011515600060080160003373ffffffffffffffffffffffffffffffffffffffff1673ffffffffffffffffffffffffffffffffffffffff16815260200190815260200160002060009054906101000a900460ff16151503610139576040517f08c379a000000000000000000000000000000000000000000000000000000000815260040161013090610ca0565b60405180910390fd5b6000806002015411610180576040517f08c379a000000000000000000000000000000000000000000000000000000000815260040161017790610d0c565b60405180910390fd5b6101898361053d565b50600060050160009054906101000a900473ffffffffffffffffffffffffffffffffffffffff1673ffffffffffffffffffffffffffffffffffffffff16639cee22b13360008001546000600301546000600201546040518563ffffffff1660e01b81526004016101fc9493929190610d2c565b6020604051808303816000875af115801561021b573d6000803e3d6000fd5b505050506040513d601f19601f8201168201806040525081019061023f9190610da9565b506000600301546000600201600082825461025a9190610e05565b925050819055506001600060080160003373ffffffffffffffffffffffffffffffffffffffff1673ffffffffffffffffffffffffffffffffffffffff16815260200190815260200160002060006101000a81548160ff0219169083151502179055506102cc60006001015483836105ba565b50505050565b60008060000154908060010154908060020154908060030154908060040160009054906101000a900473ffffffffffffffffffffffffffffffffffffffff16908060050160009054906101000a900473ffffffffffffffffffffffffffffffffffffffff16908060060160009054906101000a900473ffffffffffffffffffffffffffffffffffffffff16908060070154905088565b85600080018190555084600060010181905550836000600201819055508260006003018190555030600060040160006101000a81548173ffffffffffffffffffffffffffffffffffffffff021916908373ffffffffffffffffffffffffffffffffffffffff16021790555081600060050160006101000a81548173ffffffffffffffffffffffffffffffffffffffff021916908373ffffffffffffffffffffffffffffffffffffffff16021790555033600060060160006101000a81548173ffffffffffffffffffffffffffffffffffffffff021916908373ffffffffffffffffffffffffffffffffffffffff16021790555080600060070181905550600060050160009054906101000a900473ffffffffffffffffffffffffffffffffffffffff1673ffffffffffffffffffffffffffffffffffffffff1663f3d8c7a730600060050160009054906101000a900473ffffffffffffffffffffffffffffffffffffffff166000600201546040518463ffffffff1660e01b81526004016104f193929190610e39565b6020604051808303816000875af1158015610510573d6000803e3d6000fd5b505050506040513d601f19601f820116820180604052508101906105349190610da9565b50505050505050565b600080826040516020016105519190610ee1565b60405160208183030381529060405280519060200120905060006007015481146105b0576040517f08c379a00000000000000000000000000000000000000000000000000000000081526004016105a790610f44565b60405180910390fd5b6001915050919050565b60008060050160009054906101000a900473ffffffffffffffffffffffffffffffffffffffff1673ffffffffffffffffffffffffffffffffffffffff166328c59aef30600060050160009054906101000a900473ffffffffffffffffffffffffffffffffffffffff166000600301546040518463ffffffff1660e01b815260040161064793929190610e39565b6020604051808303816000875af1158015610666573d6000803e3d6000fd5b505050506040513d601f19601f8201168201806040525081019061068a9190610da9565b5060008060050160009054906101000a900473ffffffffffffffffffffffffffffffffffffffff1673ffffffffffffffffffffffffffffffffffffffff166375b689aa6040518163ffffffff1660e01b81526004016020604051808303816000875af11580156106fe573d6000803e3d6000fd5b505050506040513d601f19601f820116820180604052508101906107229190610f79565b90508073ffffffffffffffffffffffffffffffffffffffff1663bd6af0098686866040518463ffffffff1660e01b815260040161076193929190611034565b600060405180830381600087803b15801561077b57600080fd5b505af115801561078f573d6000803e3d6000fd5b5050505060019150509392505050565b6000604051905090565b600080fd5b600080fd5b600080fd5b600080fd5b6000601f19601f8301169050919050565b7f4e487b7100000000000000000000000000000000000000000000000000000000600052604160045260246000fd5b610806826107bd565b810181811067ffffffffffffffff82111715610825576108246107ce565b5b80604052505050565b600061083861079f565b905061084482826107fd565b919050565b600067ffffffffffffffff821115610864576108636107ce565b5b61086d826107bd565b9050602081019050919050565b82818337600083830152505050565b600061089c61089784610849565b61082e565b9050828152602081018484840111156108b8576108b76107b8565b5b6108c384828561087a565b509392505050565b600082601f8301126108e0576108df6107b3565b5b81356108f0848260208601610889565b91505092915050565b600067ffffffffffffffff821115610914576109136107ce565b5b61091d826107bd565b9050602081019050919050565b600061093d610938846108f9565b61082e565b905082815260208101848484011115610959576109586107b8565b5b61096484828561087a565b509392505050565b600082601f830112610981576109806107b3565b5b813561099184826020860161092a565b91505092915050565b6000806000606084860312156109b3576109b26107a9565b5b600084013567ffffffffffffffff8111156109d1576109d06107ae565b5b6109dd868287016108cb565b935050602084013567ffffffffffffffff8111156109fe576109fd6107ae565b5b610a0a868287016108cb565b925050604084013567ffffffffffffffff811115610a2b57610a2a6107ae565b5b610a378682870161096c565b9150509250925092565b6000819050919050565b610a5481610a41565b82525050565b600073ffffffffffffffffffffffffffffffffffffffff82169050919050565b6000610a8582610a5a565b9050919050565b610a9581610a7a565b82525050565b6000819050919050565b610aae81610a9b565b82525050565b600061010082019050610aca600083018b610a4b565b610ad7602083018a610a4b565b610ae46040830189610a4b565b610af16060830188610a4b565b610afe6080830187610a8c565b610b0b60a0830186610a8c565b610b1860c0830185610a8c565b610b2560e0830184610aa5565b9998505050505050505050565b610b3b81610a41565b8114610b4657600080fd5b50565b600081359050610b5881610b32565b92915050565b610b6781610a7a565b8114610b7257600080fd5b50565b600081359050610b8481610b5e565b92915050565b610b9381610a9b565b8114610b9e57600080fd5b50565b600081359050610bb081610b8a565b92915050565b60008060008060008060c08789031215610bd357610bd26107a9565b5b6000610be189828a01610b49565b9650506020610bf289828a01610b49565b9550506040610c0389828a01610b49565b9450506060610c1489828a01610b49565b9350506080610c2589828a01610b75565b92505060a0610c3689828a01610ba1565b9150509295509295509295565b600082825260208201905092915050565b7f43616e206f6e6c792064726177206f6e63650000000000000000000000000000600082015250565b6000610c8a601283610c43565b9150610c9582610c54565b602082019050919050565b60006020820190508181036000830152610cb981610c7d565b9050919050565b7f4e6f20627574746572206c65667420746f206472617700000000000000000000600082015250565b6000610cf6601683610c43565b9150610d0182610cc0565b602082019050919050565b60006020820190508181036000830152610d2581610ce9565b9050919050565b6000608082019050610d416000830187610a8c565b610d4e6020830186610a4b565b610d5b6040830185610a4b565b610d686060830184610a4b565b95945050505050565b60008115159050919050565b610d8681610d71565b8114610d9157600080fd5b50565b600081519050610da381610d7d565b92915050565b600060208284031215610dbf57610dbe6107a9565b5b6000610dcd84828501610d94565b91505092915050565b7f4e487b7100000000000000000000000000000000000000000000000000000000600052601160045260246000fd5b6000610e1082610a41565b9150610e1b83610a41565b9250828203905081811115610e3357610e32610dd6565b5b92915050565b6000606082019050610e4e6000830186610a8c565b610e5b6020830185610a8c565b610e686040830184610a4b565b949350505050565b600081519050919050565b600081905092915050565b60005b83811015610ea4578082015181840152602081019050610e89565b60008484015250505050565b6000610ebb82610e70565b610ec58185610e7b565b9350610ed5818560208601610e86565b80840191505092915050565b6000610eed8284610eb0565b915081905092915050565b7f496e70757420646f6573206e6f74206d61746368207365637265740000000000600082015250565b6000610f2e601b83610c43565b9150610f3982610ef8565b602082019050919050565b60006020820190508181036000830152610f5d81610f21565b9050919050565b600081519050610f7381610b5e565b92915050565b600060208284031215610f8f57610f8e6107a9565b5b6000610f9d84828501610f64565b91505092915050565b6000610fb182610e70565b610fbb8185610c43565b9350610fcb818560208601610e86565b610fd4816107bd565b840191505092915050565b600081519050919050565b600082825260208201905092915050565b600061100682610fdf565b6110108185610fea565b9350611020818560208601610e86565b611029816107bd565b840191505092915050565b60006060820190506110496000830186610a4b565b818103602083015261105b8185610fa6565b9050818103604083015261106f8184610ffb565b905094935050505056fea26469706673582212204c9171acf1575669c8f6510b2afb4c337b46d8d76c2e3833fdd678dfdb800dc464736f6c63430008110033",
  "immutableReferences": {},
  "source": "// SPDX-License-Identifier: MIT\npragma solidity ^0.8.7;\n\nimport \"./ICosmoVault.sol\";\nimport \"./ICosmoTreasury.sol\";\n\n/**\n * A contract created by a CosmoNut which contains a certain amount of matter,\n * and can be drawn by others if the secret is known.\n */\n contract CosmoButter {\n\n     struct Butter {\n         uint256 id;\n         uint256 nutId;\n         uint256 amount;\n         uint256 drawRate;\n         address location;\n         address treasury;\n         address nutLocation;\n         bytes32 secretHash;\n         mapping(address => bool) drawnBefore;\n     }\n     Butter public butter;\n\n     function initialize(\n         uint256 _butterId,\n         uint256 _nutId,\n         uint256 _butterAmount,\n         uint256 _drawRate,\n         address _treasuryAddress,\n         bytes32 _secretHash\n     ) public {\n         butter.id = _butterId;\n         butter.nutId = _nutId;\n         butter.amount = _butterAmount;\n         butter.drawRate = _drawRate;\n         butter.location = address(this);\n         butter.treasury = _treasuryAddress;\n         butter.nutLocation = address(msg.sender);\n         butter.secretHash = _secretHash;\n\n         ICosmoTreasury(butter.treasury).grantApproval(\n             address(this),\n             butter.treasury,\n             butter.amount\n         );\n     }\n\n     modifier onlyOnce {\n         require(butter.drawnBefore[msg.sender] != true, \"Can only draw once\");\n         _;\n     }\n\n     function spreadButter(\n         uint256 _nutId,\n         string memory _cidPath,\n         bytes memory _signature\n     ) internal returns (bool) {\n         ICosmoTreasury(butter.treasury).transferMatterFrom(\n             address(this), butter.treasury, butter.drawRate\n         );\n\n         address vaultAddress = ICosmoTreasury(butter.treasury).getVaultLocation();\n         ICosmoVault(vaultAddress).changeTokenURI(\n             _nutId, _cidPath, _signature\n         );\n         return true;\n     }\n\n     /**\n      * Function callable from anyone, but can only be done once per Ethereum address.\n      */\n     function drawButter(string memory _secret, string memory _cidPath, bytes memory _signature) onlyOnce public {\n         require(butter.amount > 0, \"No butter left to draw\");\n         verifySecret(_secret);\n\n         ICosmoTreasury(butter.treasury).butterDrawn(msg.sender, butter.id, butter.drawRate, butter.amount);\n\n         butter.amount -= butter.drawRate;\n         butter.drawnBefore[msg.sender] = true;\n\n         spreadButter(butter.nutId, _cidPath, _signature);\n     }\n\n     /**\n      * Takes a string input and hashes it; compares to the SECRET_HASH in the contract\n      * If it matches, returns true.\n      */\n     function verifySecret(string memory _input) private view returns(bool) {\n         bytes32 inputHash = keccak256(abi.encodePacked(_input));\n         require(inputHash == butter.secretHash, \"Input does not match secret\");\n         return true;\n     }\n\n }\n",
  "sourcePath": "/home/redlentils/Seafile/Websites/avatarnft/contracts/CosmoButter.sol",
  "compiler": {
    "name": "solc",
    "version": "0.8.17+commit.8df45f5f.Emscripten.clang"
  },
  "schemaVersion": "3.4.10",
  "updatedAt": "2022-10-27T06:37:23.495Z",
  "devdoc": {
    "kind": "dev",
    "methods": {},
    "version": 1
  },
  "userdoc": {
    "kind": "user",
    "methods": {
      "drawButter(string,string,bytes)": {
        "notice": "Function callable from anyone, but can only be done once per Ethereum address."
      }
    },
    "notice": "A contract created by a CosmoNut which contains a certain amount of matter, and can be drawn by others if the secret is known.",
    "version": 1
  }
}