{
  "contractName": "CosmoUniverse",
  "abi": [
    {
      "inputs": [
        {
          "internalType": "address",
          "name": "_systemAddress",
          "type": "address"
        },
        {
          "internalType": "string",
          "name": "_matterName",
          "type": "string"
        },
        {
          "internalType": "string",
          "name": "_matterSymbol",
          "type": "string"
        },
        {
          "internalType": "uint256",
          "name": "_entityPrice",
          "type": "uint256"
        },
        {
          "internalType": "uint256",
          "name": "_matterRate",
          "type": "uint256"
        }
      ],
      "stateMutability": "nonpayable",
      "type": "constructor"
    },
    {
      "anonymous": false,
      "inputs": [
        {
          "indexed": true,
          "internalType": "address",
          "name": "previousOwner",
          "type": "address"
        },
        {
          "indexed": true,
          "internalType": "address",
          "name": "newOwner",
          "type": "address"
        }
      ],
      "name": "OwnershipTransferred",
      "type": "event"
    },
    {
      "inputs": [],
      "name": "MATTER_ADDRESS",
      "outputs": [
        {
          "internalType": "address",
          "name": "",
          "type": "address"
        }
      ],
      "stateMutability": "view",
      "type": "function"
    },
    {
      "inputs": [],
      "name": "SYSTEM_ADDRESS",
      "outputs": [
        {
          "internalType": "address",
          "name": "",
          "type": "address"
        }
      ],
      "stateMutability": "view",
      "type": "function"
    },
    {
      "inputs": [
        {
          "internalType": "uint256",
          "name": "",
          "type": "uint256"
        }
      ],
      "name": "cosmos",
      "outputs": [
        {
          "internalType": "uint256",
          "name": "cosmoId",
          "type": "uint256"
        },
        {
          "internalType": "bool",
          "name": "status",
          "type": "bool"
        },
        {
          "internalType": "string",
          "name": "name",
          "type": "string"
        },
        {
          "internalType": "string",
          "name": "symbol",
          "type": "string"
        },
        {
          "internalType": "address",
          "name": "cosmo_location",
          "type": "address"
        },
        {
          "internalType": "address",
          "name": "treasury_location",
          "type": "address"
        }
      ],
      "stateMutability": "view",
      "type": "function"
    },
    {
      "inputs": [],
      "name": "owner",
      "outputs": [
        {
          "internalType": "address",
          "name": "",
          "type": "address"
        }
      ],
      "stateMutability": "view",
      "type": "function"
    },
    {
      "inputs": [],
      "name": "renounceOwnership",
      "outputs": [],
      "stateMutability": "nonpayable",
      "type": "function"
    },
    {
      "inputs": [
        {
          "internalType": "address",
          "name": "newOwner",
          "type": "address"
        }
      ],
      "name": "transferOwnership",
      "outputs": [],
      "stateMutability": "nonpayable",
      "type": "function"
    },
    {
      "inputs": [
        {
          "internalType": "string",
          "name": "_cosmosName",
          "type": "string"
        },
        {
          "internalType": "string",
          "name": "_cosmosSymbol",
          "type": "string"
        },
        {
          "internalType": "uint256",
          "name": "_desiredEntities",
          "type": "uint256"
        }
      ],
      "name": "bigBang",
      "outputs": [],
      "stateMutability": "nonpayable",
      "type": "function"
    }
  ],
  "bytecode": "0x60806040523480156200001157600080fd5b506040516200f3643803806200f36483398181016040528101906200003791906200055f565b620000576200004b6200024460201b60201c565b6200024c60201b60201c565b84600160006101000a81548173ffffffffffffffffffffffffffffffffffffffff021916908373ffffffffffffffffffffffffffffffffffffffff1602179055508383604051620000a89062000310565b620000b592919062000682565b604051809103906000f080158015620000d2573d6000803e3d6000fd5b50600a60006101000a81548173ffffffffffffffffffffffffffffffffffffffff021916908373ffffffffffffffffffffffffffffffffffffffff160217905550600a60009054906101000a900473ffffffffffffffffffffffffffffffffffffffff16600260006101000a81548173ffffffffffffffffffffffffffffffffffffffff021916908373ffffffffffffffffffffffffffffffffffffffff160217905550600160009054906101000a900473ffffffffffffffffffffffffffffffffffffffff16600260009054906101000a900473ffffffffffffffffffffffffffffffffffffffff168383604051620001cc906200031e565b620001db9493929190620006df565b604051809103906000f080158015620001f8573d6000803e3d6000fd5b50600b60006101000a81548173ffffffffffffffffffffffffffffffffffffffff021916908373ffffffffffffffffffffffffffffffffffffffff16021790555050505050506200072c565b600033905090565b60008060009054906101000a900473ffffffffffffffffffffffffffffffffffffffff169050816000806101000a81548173ffffffffffffffffffffffffffffffffffffffff021916908373ffffffffffffffffffffffffffffffffffffffff1602179055508173ffffffffffffffffffffffffffffffffffffffff168173ffffffffffffffffffffffffffffffffffffffff167f8be0079c531659141344cd1fd0a4f28419497f9722a3daafe3b4186f6b6457e060405160405180910390a35050565b611f8880620013f883390190565b61bfe4806200338083390190565b6000604051905090565b600080fd5b600080fd5b600073ffffffffffffffffffffffffffffffffffffffff82169050919050565b60006200036d8262000340565b9050919050565b6200037f8162000360565b81146200038b57600080fd5b50565b6000815190506200039f8162000374565b92915050565b600080fd5b600080fd5b6000601f19601f8301169050919050565b7f4e487b7100000000000000000000000000000000000000000000000000000000600052604160045260246000fd5b620003fa82620003af565b810181811067ffffffffffffffff821117156200041c576200041b620003c0565b5b80604052505050565b6000620004316200032c565b90506200043f8282620003ef565b919050565b600067ffffffffffffffff821115620004625762000461620003c0565b5b6200046d82620003af565b9050602081019050919050565b60005b838110156200049a5780820151818401526020810190506200047d565b60008484015250505050565b6000620004bd620004b78462000444565b62000425565b905082815260208101848484011115620004dc57620004db620003aa565b5b620004e98482856200047a565b509392505050565b600082601f830112620005095762000508620003a5565b5b81516200051b848260208601620004a6565b91505092915050565b6000819050919050565b620005398162000524565b81146200054557600080fd5b50565b60008151905062000559816200052e565b92915050565b600080600080600060a086880312156200057e576200057d62000336565b5b60006200058e888289016200038e565b955050602086015167ffffffffffffffff811115620005b257620005b16200033b565b5b620005c088828901620004f1565b945050604086015167ffffffffffffffff811115620005e457620005e36200033b565b5b620005f288828901620004f1565b9350506060620006058882890162000548565b9250506080620006188882890162000548565b9150509295509295909350565b600081519050919050565b600082825260208201905092915050565b60006200064e8262000625565b6200065a818562000630565b93506200066c8185602086016200047a565b6200067781620003af565b840191505092915050565b600060408201905081810360008301526200069e818562000641565b90508181036020830152620006b4818462000641565b90509392505050565b620006c88162000360565b82525050565b620006d98162000524565b82525050565b6000608082019050620006f66000830187620006bd565b620007056020830186620006bd565b620007146040830185620006ce565b620007236060830184620006ce565b95945050505050565b610cbc806200073c6000396000f3fe608060405234801561001057600080fd5b506004361061007d5760003560e01c806373b8f3d41161005b57806373b8f3d4146100c85780638da5cb5b146100e4578063d8712a6214610102578063f2fde38b146101375761007d565b80633434735f1461008257806364b1b663146100a0578063715018a6146100be575b600080fd5b61008a610153565b604051610097919061070f565b60405180910390f35b6100a8610179565b6040516100b5919061070f565b60405180910390f35b6100c661019f565b005b6100e260048036038101906100dd91906108ba565b610227565b005b6100ec610339565b6040516100f9919061070f565b60405180910390f35b61011c60048036038101906101179190610945565b610362565b60405161012e96959493929190610a1b565b60405180910390f35b610151600480360381019061014c9190610ab6565b61050b565b005b600160009054906101000a900473ffffffffffffffffffffffffffffffffffffffff1681565b600260009054906101000a900473ffffffffffffffffffffffffffffffffffffffff1681565b6101a7610602565b73ffffffffffffffffffffffffffffffffffffffff166101c5610339565b73ffffffffffffffffffffffffffffffffffffffff161461021b576040517f08c379a000000000000000000000000000000000000000000000000000000000815260040161021290610b2f565b60405180910390fd5b610225600061060a565b565b61022f610602565b73ffffffffffffffffffffffffffffffffffffffff1661024d610339565b73ffffffffffffffffffffffffffffffffffffffff16146102a3576040517f08c379a000000000000000000000000000000000000000000000000000000000815260040161029a90610b2f565b60405180910390fd5b600b60009054906101000a900473ffffffffffffffffffffffffffffffffffffffff1673ffffffffffffffffffffffffffffffffffffffff1663f7c85d2e8484846040518463ffffffff1660e01b815260040161030293929190610b4f565b600060405180830381600087803b15801561031c57600080fd5b505af1158015610330573d6000803e3d6000fd5b50505050505050565b60008060009054906101000a900473ffffffffffffffffffffffffffffffffffffffff16905090565b6009818154811061037257600080fd5b90600052602060002090600602016000915090508060000154908060010160009054906101000a900460ff16908060020180546103ae90610bc3565b80601f01602080910402602001604051908101604052809291908181526020018280546103da90610bc3565b80156104275780601f106103fc57610100808354040283529160200191610427565b820191906000526020600020905b81548152906001019060200180831161040a57829003601f168201915b50505050509080600301805461043c90610bc3565b80601f016020809104026020016040519081016040528092919081815260200182805461046890610bc3565b80156104b55780601f1061048a576101008083540402835291602001916104b5565b820191906000526020600020905b81548152906001019060200180831161049857829003601f168201915b5050505050908060040160009054906101000a900473ffffffffffffffffffffffffffffffffffffffff16908060050160009054906101000a900473ffffffffffffffffffffffffffffffffffffffff16905086565b610513610602565b73ffffffffffffffffffffffffffffffffffffffff16610531610339565b73ffffffffffffffffffffffffffffffffffffffff1614610587576040517f08c379a000000000000000000000000000000000000000000000000000000000815260040161057e90610b2f565b60405180910390fd5b600073ffffffffffffffffffffffffffffffffffffffff168173ffffffffffffffffffffffffffffffffffffffff16036105f6576040517f08c379a00000000000000000000000000000000000000000000000000000000081526004016105ed90610c66565b60405180910390fd5b6105ff8161060a565b50565b600033905090565b60008060009054906101000a900473ffffffffffffffffffffffffffffffffffffffff169050816000806101000a81548173ffffffffffffffffffffffffffffffffffffffff021916908373ffffffffffffffffffffffffffffffffffffffff1602179055508173ffffffffffffffffffffffffffffffffffffffff168173ffffffffffffffffffffffffffffffffffffffff167f8be0079c531659141344cd1fd0a4f28419497f9722a3daafe3b4186f6b6457e060405160405180910390a35050565b600073ffffffffffffffffffffffffffffffffffffffff82169050919050565b60006106f9826106ce565b9050919050565b610709816106ee565b82525050565b60006020820190506107246000830184610700565b92915050565b6000604051905090565b600080fd5b600080fd5b600080fd5b600080fd5b6000601f19601f8301169050919050565b7f4e487b7100000000000000000000000000000000000000000000000000000000600052604160045260246000fd5b61079182610748565b810181811067ffffffffffffffff821117156107b0576107af610759565b5b80604052505050565b60006107c361072a565b90506107cf8282610788565b919050565b600067ffffffffffffffff8211156107ef576107ee610759565b5b6107f882610748565b9050602081019050919050565b82818337600083830152505050565b6000610827610822846107d4565b6107b9565b90508281526020810184848401111561084357610842610743565b5b61084e848285610805565b509392505050565b600082601f83011261086b5761086a61073e565b5b813561087b848260208601610814565b91505092915050565b6000819050919050565b61089781610884565b81146108a257600080fd5b50565b6000813590506108b48161088e565b92915050565b6000806000606084860312156108d3576108d2610734565b5b600084013567ffffffffffffffff8111156108f1576108f0610739565b5b6108fd86828701610856565b935050602084013567ffffffffffffffff81111561091e5761091d610739565b5b61092a86828701610856565b925050604061093b868287016108a5565b9150509250925092565b60006020828403121561095b5761095a610734565b5b6000610969848285016108a5565b91505092915050565b61097b81610884565b82525050565b60008115159050919050565b61099681610981565b82525050565b600081519050919050565b600082825260208201905092915050565b60005b838110156109d65780820151818401526020810190506109bb565b60008484015250505050565b60006109ed8261099c565b6109f781856109a7565b9350610a078185602086016109b8565b610a1081610748565b840191505092915050565b600060c082019050610a306000830189610972565b610a3d602083018861098d565b8181036040830152610a4f81876109e2565b90508181036060830152610a6381866109e2565b9050610a726080830185610700565b610a7f60a0830184610700565b979650505050505050565b610a93816106ee565b8114610a9e57600080fd5b50565b600081359050610ab081610a8a565b92915050565b600060208284031215610acc57610acb610734565b5b6000610ada84828501610aa1565b91505092915050565b7f4f776e61626c653a2063616c6c6572206973206e6f7420746865206f776e6572600082015250565b6000610b196020836109a7565b9150610b2482610ae3565b602082019050919050565b60006020820190508181036000830152610b4881610b0c565b9050919050565b60006060820190508181036000830152610b6981866109e2565b90508181036020830152610b7d81856109e2565b9050610b8c6040830184610972565b949350505050565b7f4e487b7100000000000000000000000000000000000000000000000000000000600052602260045260246000fd5b60006002820490506001821680610bdb57607f821691505b602082108103610bee57610bed610b94565b5b50919050565b7f4f776e61626c653a206e6577206f776e657220697320746865207a65726f206160008201527f6464726573730000000000000000000000000000000000000000000000000000602082015250565b6000610c506026836109a7565b9150610c5b82610bf4565b604082019050919050565b60006020820190508181036000830152610c7f81610c43565b905091905056fea26469706673582212201ea3836adef050520c89684db6debbf28989ded796ed273f9585f968ced5c68664736f6c6343000811003360806040523480156200001157600080fd5b5060405162001f8838038062001f8883398181016040528101906200003791906200021e565b818181600390816200004a9190620004ee565b5080600490816200005c9190620004ee565b5050508160059081620000709190620004ee565b508060069081620000829190620004ee565b505050620005d5565b6000604051905090565b600080fd5b600080fd5b600080fd5b600080fd5b6000601f19601f8301169050919050565b7f4e487b7100000000000000000000000000000000000000000000000000000000600052604160045260246000fd5b620000f482620000a9565b810181811067ffffffffffffffff82111715620001165762000115620000ba565b5b80604052505050565b60006200012b6200008b565b9050620001398282620000e9565b919050565b600067ffffffffffffffff8211156200015c576200015b620000ba565b5b6200016782620000a9565b9050602081019050919050565b60005b838110156200019457808201518184015260208101905062000177565b60008484015250505050565b6000620001b7620001b1846200013e565b6200011f565b905082815260208101848484011115620001d657620001d5620000a4565b5b620001e384828562000174565b509392505050565b600082601f8301126200020357620002026200009f565b5b815162000215848260208601620001a0565b91505092915050565b6000806040838503121562000238576200023762000095565b5b600083015167ffffffffffffffff8111156200025957620002586200009a565b5b6200026785828601620001eb565b925050602083015167ffffffffffffffff8111156200028b576200028a6200009a565b5b6200029985828601620001eb565b9150509250929050565b600081519050919050565b7f4e487b7100000000000000000000000000000000000000000000000000000000600052602260045260246000fd5b60006002820490506001821680620002f657607f821691505b6020821081036200030c576200030b620002ae565b5b50919050565b60008190508160005260206000209050919050565b60006020601f8301049050919050565b600082821b905092915050565b600060088302620003767fffffffffffffffffffffffffffffffffffffffffffffffffffffffffffffffff8262000337565b62000382868362000337565b95508019841693508086168417925050509392505050565b6000819050919050565b6000819050919050565b6000620003cf620003c9620003c3846200039a565b620003a4565b6200039a565b9050919050565b6000819050919050565b620003eb83620003ae565b62000403620003fa82620003d6565b84845462000344565b825550505050565b600090565b6200041a6200040b565b62000427818484620003e0565b505050565b5b818110156200044f576200044360008262000410565b6001810190506200042d565b5050565b601f8211156200049e57620004688162000312565b620004738462000327565b8101602085101562000483578190505b6200049b620004928562000327565b8301826200042c565b50505b505050565b600082821c905092915050565b6000620004c360001984600802620004a3565b1980831691505092915050565b6000620004de8383620004b0565b9150826002028217905092915050565b620004f982620002a3565b67ffffffffffffffff811115620005155762000514620000ba565b5b620005218254620002dd565b6200052e82828562000453565b600060209050601f83116001811462000566576000841562000551578287015190505b6200055d8582620004d0565b865550620005cd565b601f198416620005768662000312565b60005b82811015620005a05784890151825560018201915060208501945060208101905062000579565b86831015620005c05784890151620005bc601f891682620004b0565b8355505b6001600288020188555050505b505050505050565b6119a380620005e56000396000f3fe608060405234801561001057600080fd5b50600436106101005760003560e01c8063699aa4791161009757806395d89b411161006657806395d89b41146102af578063a457c2d7146102cd578063a9059cbb146102fd578063dd62ed3e1461032d57610100565b8063699aa4791461022757806370a082311461024557806379cc679014610275578063916965651461029157610100565b8063313ce567116100d3578063313ce567146101a157806339509351146101bf57806342966c68146101ef5780634bbc1bcd1461020b57610100565b806306fdde0314610105578063095ea7b31461012357806318160ddd1461015357806323b872dd14610171575b600080fd5b61010d61035d565b60405161011a919061108f565b60405180910390f35b61013d6004803603810190610138919061114a565b6103ef565b60405161014a91906111a5565b60405180910390f35b61015b610412565b60405161016891906111cf565b60405180910390f35b61018b600480360381019061018691906111ea565b61041c565b60405161019891906111a5565b60405180910390f35b6101a961044b565b6040516101b69190611259565b60405180910390f35b6101d960048036038101906101d4919061114a565b610454565b6040516101e691906111a5565b60405180910390f35b61020960048036038101906102049190611274565b61048b565b005b6102256004803603810190610220919061114a565b61049f565b005b61022f6104ad565b60405161023c919061108f565b60405180910390f35b61025f600480360381019061025a91906112a1565b61053b565b60405161026c91906111cf565b60405180910390f35b61028f600480360381019061028a919061114a565b610583565b005b6102996105a3565b6040516102a6919061108f565b60405180910390f35b6102b7610631565b6040516102c4919061108f565b60405180910390f35b6102e760048036038101906102e2919061114a565b6106c3565b6040516102f491906111a5565b60405180910390f35b6103176004803603810190610312919061114a565b61073a565b60405161032491906111a5565b60405180910390f35b610347600480360381019061034291906112ce565b61075d565b60405161035491906111cf565b60405180910390f35b60606003805461036c9061133d565b80601f01602080910402602001604051908101604052809291908181526020018280546103989061133d565b80156103e55780601f106103ba576101008083540402835291602001916103e5565b820191906000526020600020905b8154815290600101906020018083116103c857829003601f168201915b5050505050905090565b6000806103fa6107e4565b90506104078185856107ec565b600191505092915050565b6000600254905090565b6000806104276107e4565b90506104348582856109b5565b61043f858585610a41565b60019150509392505050565b60006012905090565b60008061045f6107e4565b9050610480818585610471858961075d565b61047b919061139d565b6107ec565b600191505092915050565b61049c6104966107e4565b82610cc0565b50565b6104a98282610e96565b5050565b600580546104ba9061133d565b80601f01602080910402602001604051908101604052809291908181526020018280546104e69061133d565b80156105335780601f1061050857610100808354040283529160200191610533565b820191906000526020600020905b81548152906001019060200180831161051657829003601f168201915b505050505081565b60008060008373ffffffffffffffffffffffffffffffffffffffff1673ffffffffffffffffffffffffffffffffffffffff168152602001908152602001600020549050919050565b6105958261058f6107e4565b836109b5565b61059f8282610cc0565b5050565b600680546105b09061133d565b80601f01602080910402602001604051908101604052809291908181526020018280546105dc9061133d565b80156106295780601f106105fe57610100808354040283529160200191610629565b820191906000526020600020905b81548152906001019060200180831161060c57829003601f168201915b505050505081565b6060600480546106409061133d565b80601f016020809104026020016040519081016040528092919081815260200182805461066c9061133d565b80156106b95780601f1061068e576101008083540402835291602001916106b9565b820191906000526020600020905b81548152906001019060200180831161069c57829003601f168201915b5050505050905090565b6000806106ce6107e4565b905060006106dc828661075d565b905083811015610721576040517f08c379a000000000000000000000000000000000000000000000000000000000815260040161071890611443565b60405180910390fd5b61072e82868684036107ec565b60019250505092915050565b6000806107456107e4565b9050610752818585610a41565b600191505092915050565b6000600160008473ffffffffffffffffffffffffffffffffffffffff1673ffffffffffffffffffffffffffffffffffffffff16815260200190815260200160002060008373ffffffffffffffffffffffffffffffffffffffff1673ffffffffffffffffffffffffffffffffffffffff16815260200190815260200160002054905092915050565b600033905090565b600073ffffffffffffffffffffffffffffffffffffffff168373ffffffffffffffffffffffffffffffffffffffff160361085b576040517f08c379a0000000000000000000000000000000000000000000000000000000008152600401610852906114d5565b60405180910390fd5b600073ffffffffffffffffffffffffffffffffffffffff168273ffffffffffffffffffffffffffffffffffffffff16036108ca576040517f08c379a00000000000000000000000000000000000000000000000000000000081526004016108c190611567565b60405180910390fd5b80600160008573ffffffffffffffffffffffffffffffffffffffff1673ffffffffffffffffffffffffffffffffffffffff16815260200190815260200160002060008473ffffffffffffffffffffffffffffffffffffffff1673ffffffffffffffffffffffffffffffffffffffff168152602001908152602001600020819055508173ffffffffffffffffffffffffffffffffffffffff168373ffffffffffffffffffffffffffffffffffffffff167f8c5be1e5ebec7d5bd14f71427d1e84f3dd0314c0f7b2291e5b200ac8c7c3b925836040516109a891906111cf565b60405180910390a3505050565b60006109c1848461075d565b90507fffffffffffffffffffffffffffffffffffffffffffffffffffffffffffffffff8114610a3b5781811015610a2d576040517f08c379a0000000000000000000000000000000000000000000000000000000008152600401610a24906115d3565b60405180910390fd5b610a3a84848484036107ec565b5b50505050565b600073ffffffffffffffffffffffffffffffffffffffff168373ffffffffffffffffffffffffffffffffffffffff1603610ab0576040517f08c379a0000000000000000000000000000000000000000000000000000000008152600401610aa790611665565b60405180910390fd5b600073ffffffffffffffffffffffffffffffffffffffff168273ffffffffffffffffffffffffffffffffffffffff1603610b1f576040517f08c379a0000000000000000000000000000000000000000000000000000000008152600401610b16906116f7565b60405180910390fd5b610b2a838383610ff5565b60008060008573ffffffffffffffffffffffffffffffffffffffff1673ffffffffffffffffffffffffffffffffffffffff16815260200190815260200160002054905081811015610bb0576040517f08c379a0000000000000000000000000000000000000000000000000000000008152600401610ba790611789565b60405180910390fd5b8181036000808673ffffffffffffffffffffffffffffffffffffffff1673ffffffffffffffffffffffffffffffffffffffff16815260200190815260200160002081905550816000808573ffffffffffffffffffffffffffffffffffffffff1673ffffffffffffffffffffffffffffffffffffffff1681526020019081526020016000206000828254610c43919061139d565b925050819055508273ffffffffffffffffffffffffffffffffffffffff168473ffffffffffffffffffffffffffffffffffffffff167fddf252ad1be2c89b69c2b068fc378daa952ba7f163c4a11628f55a4df523b3ef84604051610ca791906111cf565b60405180910390a3610cba848484610ffa565b50505050565b600073ffffffffffffffffffffffffffffffffffffffff168273ffffffffffffffffffffffffffffffffffffffff1603610d2f576040517f08c379a0000000000000000000000000000000000000000000000000000000008152600401610d269061181b565b60405180910390fd5b610d3b82600083610ff5565b60008060008473ffffffffffffffffffffffffffffffffffffffff1673ffffffffffffffffffffffffffffffffffffffff16815260200190815260200160002054905081811015610dc1576040517f08c379a0000000000000000000000000000000000000000000000000000000008152600401610db8906118ad565b60405180910390fd5b8181036000808573ffffffffffffffffffffffffffffffffffffffff1673ffffffffffffffffffffffffffffffffffffffff168152602001908152602001600020819055508160026000828254610e1891906118cd565b92505081905550600073ffffffffffffffffffffffffffffffffffffffff168373ffffffffffffffffffffffffffffffffffffffff167fddf252ad1be2c89b69c2b068fc378daa952ba7f163c4a11628f55a4df523b3ef84604051610e7d91906111cf565b60405180910390a3610e9183600084610ffa565b505050565b600073ffffffffffffffffffffffffffffffffffffffff168273ffffffffffffffffffffffffffffffffffffffff1603610f05576040517f08c379a0000000000000000000000000000000000000000000000000000000008152600401610efc9061194d565b60405180910390fd5b610f1160008383610ff5565b8060026000828254610f23919061139d565b92505081905550806000808473ffffffffffffffffffffffffffffffffffffffff1673ffffffffffffffffffffffffffffffffffffffff1681526020019081526020016000206000828254610f78919061139d565b925050819055508173ffffffffffffffffffffffffffffffffffffffff16600073ffffffffffffffffffffffffffffffffffffffff167fddf252ad1be2c89b69c2b068fc378daa952ba7f163c4a11628f55a4df523b3ef83604051610fdd91906111cf565b60405180910390a3610ff160008383610ffa565b5050565b505050565b505050565b600081519050919050565b600082825260208201905092915050565b60005b8381101561103957808201518184015260208101905061101e565b60008484015250505050565b6000601f19601f8301169050919050565b600061106182610fff565b61106b818561100a565b935061107b81856020860161101b565b61108481611045565b840191505092915050565b600060208201905081810360008301526110a98184611056565b905092915050565b600080fd5b600073ffffffffffffffffffffffffffffffffffffffff82169050919050565b60006110e1826110b6565b9050919050565b6110f1816110d6565b81146110fc57600080fd5b50565b60008135905061110e816110e8565b92915050565b6000819050919050565b61112781611114565b811461113257600080fd5b50565b6000813590506111448161111e565b92915050565b60008060408385031215611161576111606110b1565b5b600061116f858286016110ff565b925050602061118085828601611135565b9150509250929050565b60008115159050919050565b61119f8161118a565b82525050565b60006020820190506111ba6000830184611196565b92915050565b6111c981611114565b82525050565b60006020820190506111e460008301846111c0565b92915050565b600080600060608486031215611203576112026110b1565b5b6000611211868287016110ff565b9350506020611222868287016110ff565b925050604061123386828701611135565b9150509250925092565b600060ff82169050919050565b6112538161123d565b82525050565b600060208201905061126e600083018461124a565b92915050565b60006020828403121561128a576112896110b1565b5b600061129884828501611135565b91505092915050565b6000602082840312156112b7576112b66110b1565b5b60006112c5848285016110ff565b91505092915050565b600080604083850312156112e5576112e46110b1565b5b60006112f3858286016110ff565b9250506020611304858286016110ff565b9150509250929050565b7f4e487b7100000000000000000000000000000000000000000000000000000000600052602260045260246000fd5b6000600282049050600182168061135557607f821691505b6020821081036113685761136761130e565b5b50919050565b7f4e487b7100000000000000000000000000000000000000000000000000000000600052601160045260246000fd5b60006113a882611114565b91506113b383611114565b92508282019050808211156113cb576113ca61136e565b5b92915050565b7f45524332303a2064656372656173656420616c6c6f77616e63652062656c6f7760008201527f207a65726f000000000000000000000000000000000000000000000000000000602082015250565b600061142d60258361100a565b9150611438826113d1565b604082019050919050565b6000602082019050818103600083015261145c81611420565b9050919050565b7f45524332303a20617070726f76652066726f6d20746865207a65726f2061646460008201527f7265737300000000000000000000000000000000000000000000000000000000602082015250565b60006114bf60248361100a565b91506114ca82611463565b604082019050919050565b600060208201905081810360008301526114ee816114b2565b9050919050565b7f45524332303a20617070726f766520746f20746865207a65726f20616464726560008201527f7373000000000000000000000000000000000000000000000000000000000000602082015250565b600061155160228361100a565b915061155c826114f5565b604082019050919050565b6000602082019050818103600083015261158081611544565b9050919050565b7f45524332303a20696e73756666696369656e7420616c6c6f77616e6365000000600082015250565b60006115bd601d8361100a565b91506115c882611587565b602082019050919050565b600060208201905081810360008301526115ec816115b0565b9050919050565b7f45524332303a207472616e736665722066726f6d20746865207a65726f20616460008201527f6472657373000000000000000000000000000000000000000000000000000000602082015250565b600061164f60258361100a565b915061165a826115f3565b604082019050919050565b6000602082019050818103600083015261167e81611642565b9050919050565b7f45524332303a207472616e7366657220746f20746865207a65726f206164647260008201527f6573730000000000000000000000000000000000000000000000000000000000602082015250565b60006116e160238361100a565b91506116ec82611685565b604082019050919050565b60006020820190508181036000830152611710816116d4565b9050919050565b7f45524332303a207472616e7366657220616d6f756e742065786365656473206260008201527f616c616e63650000000000000000000000000000000000000000000000000000602082015250565b600061177360268361100a565b915061177e82611717565b604082019050919050565b600060208201905081810360008301526117a281611766565b9050919050565b7f45524332303a206275726e2066726f6d20746865207a65726f2061646472657360008201527f7300000000000000000000000000000000000000000000000000000000000000602082015250565b600061180560218361100a565b9150611810826117a9565b604082019050919050565b60006020820190508181036000830152611834816117f8565b9050919050565b7f45524332303a206275726e20616d6f756e7420657863656564732062616c616e60008201527f6365000000000000000000000000000000000000000000000000000000000000602082015250565b600061189760228361100a565b91506118a28261183b565b604082019050919050565b600060208201905081810360008301526118c68161188a565b9050919050565b60006118d882611114565b91506118e383611114565b92508282039050818111156118fb576118fa61136e565b5b92915050565b7f45524332303a206d696e7420746f20746865207a65726f206164647265737300600082015250565b6000611937601f8361100a565b915061194282611901565b602082019050919050565b600060208201905081810360008301526119668161192a565b905091905056fea26469706673582212207bee98e8aa06d137da54189fb79d050dead096b062edf8eedb348d3247d178f164736f6c6343000811003360806040523480156200001157600080fd5b506040516200bfe43803806200bfe48339818101604052810190620000379190620001d6565b83838383604051620000499062000123565b6200005894939291906200026a565b604051809103906000f08015801562000075573d6000803e3d6000fd5b50600260006101000a81548173ffffffffffffffffffffffffffffffffffffffff021916908373ffffffffffffffffffffffffffffffffffffffff160217905550600260009054906101000a900473ffffffffffffffffffffffffffffffffffffffff16600160006101000a81548173ffffffffffffffffffffffffffffffffffffffff021916908373ffffffffffffffffffffffffffffffffffffffff16021790555050505050620002b7565b61631b8062005cc983390190565b600080fd5b600073ffffffffffffffffffffffffffffffffffffffff82169050919050565b6000620001638262000136565b9050919050565b620001758162000156565b81146200018157600080fd5b50565b60008151905062000195816200016a565b92915050565b6000819050919050565b620001b0816200019b565b8114620001bc57600080fd5b50565b600081519050620001d081620001a5565b92915050565b60008060008060808587031215620001f357620001f262000131565b5b6000620002038782880162000184565b9450506020620002168782880162000184565b93505060406200022987828801620001bf565b92505060606200023c87828801620001bf565b91505092959194509250565b620002538162000156565b82525050565b62000264816200019b565b82525050565b600060808201905062000281600083018762000248565b62000290602083018662000248565b6200029f604083018562000259565b620002ae606083018462000259565b95945050505050565b615a0280620002c76000396000f3fe60806040523480156200001157600080fd5b5060043610620000465760003560e01c80635294abf9146200004b5780639092c31c146200006d578063f7c85d2e146200008f575b600080fd5b62000055620000af565b60405162000064919062000309565b60405180910390f35b62000077620000d3565b60405162000086919062000309565b60405180910390f35b620000ad6004803603810190620000a79190620004d7565b620000f9565b005b60008054906101000a900473ffffffffffffffffffffffffffffffffffffffff1681565b600160009054906101000a900473ffffffffffffffffffffffffffffffffffffffff1681565b6000600260009054906101000a900473ffffffffffffffffffffffffffffffffffffffff1673ffffffffffffffffffffffffffffffffffffffff166307604b1a6040518163ffffffff1660e01b8152600401602060405180830381865afa15801562000169573d6000803e3d6000fd5b505050506040513d601f19601f820116820180604052508101906200018f9190620005a2565b90506000600260009054906101000a900473ffffffffffffffffffffffffffffffffffffffff1673ffffffffffffffffffffffffffffffffffffffff16633434735f6040518163ffffffff1660e01b8152600401602060405180830381865afa15801562000201573d6000803e3d6000fd5b505050506040513d601f19601f82011682018060405250810190620002279190620005a2565b9050600085858584866040516200023e90620002b6565b6200024e9594939291906200066e565b604051809103906000f0801580156200026b573d6000803e3d6000fd5b509050806000806101000a81548173ffffffffffffffffffffffffffffffffffffffff021916908373ffffffffffffffffffffffffffffffffffffffff160217905550505050505050565b6152f380620006da83390190565b600073ffffffffffffffffffffffffffffffffffffffff82169050919050565b6000620002f182620002c4565b9050919050565b6200030381620002e4565b82525050565b6000602082019050620003206000830184620002f8565b92915050565b6000604051905090565b600080fd5b600080fd5b600080fd5b600080fd5b6000601f19601f8301169050919050565b7f4e487b7100000000000000000000000000000000000000000000000000000000600052604160045260246000fd5b6200038f8262000344565b810181811067ffffffffffffffff82111715620003b157620003b062000355565b5b80604052505050565b6000620003c662000326565b9050620003d4828262000384565b919050565b600067ffffffffffffffff821115620003f757620003f662000355565b5b620004028262000344565b9050602081019050919050565b82818337600083830152505050565b6000620004356200042f84620003d9565b620003ba565b9050828152602081018484840111156200045457620004536200033f565b5b620004618482856200040f565b509392505050565b600082601f8301126200048157620004806200033a565b5b8135620004938482602086016200041e565b91505092915050565b6000819050919050565b620004b1816200049c565b8114620004bd57600080fd5b50565b600081359050620004d181620004a6565b92915050565b600080600060608486031215620004f357620004f262000330565b5b600084013567ffffffffffffffff81111562000514576200051362000335565b5b620005228682870162000469565b935050602084013567ffffffffffffffff81111562000546576200054562000335565b5b620005548682870162000469565b92505060406200056786828701620004c0565b9150509250925092565b6200057c81620002e4565b81146200058857600080fd5b50565b6000815190506200059c8162000571565b92915050565b600060208284031215620005bb57620005ba62000330565b5b6000620005cb848285016200058b565b91505092915050565b600081519050919050565b600082825260208201905092915050565b60005b8381101562000610578082015181840152602081019050620005f3565b60008484015250505050565b60006200062982620005d4565b620006358185620005df565b935062000647818560208601620005f0565b620006528162000344565b840191505092915050565b62000668816200049c565b82525050565b600060a08201905081810360008301526200068a81886200061c565b90508181036020830152620006a081876200061c565b9050620006b160408301866200065d565b620006c06060830185620002f8565b620006cf6080830184620002f8565b969550505050505056fe60806040526000600e60006101000a81548160ff0219169083151502179055503480156200002c57600080fd5b50604051620052f3380380620052f38339818101604052810190620000529190620004ed565b8484848383838160009081620000699190620007f4565b5080600190816200007b9190620007f4565b5050506200009e62000092620001df60201b60201c565b620001e760201b60201c565b620000ae620002ad60201b60201c565b600d8190555081600c8190555080600f60006101000a81548173ffffffffffffffffffffffffffffffffffffffff021916908373ffffffffffffffffffffffffffffffffffffffff160217905550600f60009054906101000a900473ffffffffffffffffffffffffffffffffffffffff1673ffffffffffffffffffffffffffffffffffffffff166307604b1a6040518163ffffffff1660e01b8152600401602060405180830381865afa1580156200016a573d6000803e3d6000fd5b505050506040513d601f19601f82011682018060405250810190620001909190620008db565b600e60016101000a81548173ffffffffffffffffffffffffffffffffffffffff021916908373ffffffffffffffffffffffffffffffffffffffff1602179055505050505050505050506200090d565b600033905090565b6000600b60009054906101000a900473ffffffffffffffffffffffffffffffffffffffff16905081600b60006101000a81548173ffffffffffffffffffffffffffffffffffffffff021916908373ffffffffffffffffffffffffffffffffffffffff1602179055508173ffffffffffffffffffffffffffffffffffffffff168173ffffffffffffffffffffffffffffffffffffffff167f8be0079c531659141344cd1fd0a4f28419497f9722a3daafe3b4186f6b6457e060405160405180910390a35050565b6000600880549050905090565b6000604051905090565b600080fd5b600080fd5b600080fd5b600080fd5b6000601f19601f8301169050919050565b7f4e487b7100000000000000000000000000000000000000000000000000000000600052604160045260246000fd5b6200032382620002d8565b810181811067ffffffffffffffff82111715620003455762000344620002e9565b5b80604052505050565b60006200035a620002ba565b905062000368828262000318565b919050565b600067ffffffffffffffff8211156200038b576200038a620002e9565b5b6200039682620002d8565b9050602081019050919050565b60005b83811015620003c3578082015181840152602081019050620003a6565b60008484015250505050565b6000620003e6620003e0846200036d565b6200034e565b905082815260208101848484011115620004055762000404620002d3565b5b62000412848285620003a3565b509392505050565b600082601f830112620004325762000431620002ce565b5b815162000444848260208601620003cf565b91505092915050565b6000819050919050565b62000462816200044d565b81146200046e57600080fd5b50565b600081519050620004828162000457565b92915050565b600073ffffffffffffffffffffffffffffffffffffffff82169050919050565b6000620004b58262000488565b9050919050565b620004c781620004a8565b8114620004d357600080fd5b50565b600081519050620004e781620004bc565b92915050565b600080600080600060a086880312156200050c576200050b620002c4565b5b600086015167ffffffffffffffff8111156200052d576200052c620002c9565b5b6200053b888289016200041a565b955050602086015167ffffffffffffffff8111156200055f576200055e620002c9565b5b6200056d888289016200041a565b9450506040620005808882890162000471565b93505060606200059388828901620004d6565b9250506080620005a688828901620004d6565b9150509295509295909350565b600081519050919050565b7f4e487b7100000000000000000000000000000000000000000000000000000000600052602260045260246000fd5b600060028204905060018216806200060657607f821691505b6020821081036200061c576200061b620005be565b5b50919050565b60008190508160005260206000209050919050565b60006020601f8301049050919050565b600082821b905092915050565b600060088302620006867fffffffffffffffffffffffffffffffffffffffffffffffffffffffffffffffff8262000647565b62000692868362000647565b95508019841693508086168417925050509392505050565b6000819050919050565b6000620006d5620006cf620006c9846200044d565b620006aa565b6200044d565b9050919050565b6000819050919050565b620006f183620006b4565b620007096200070082620006dc565b84845462000654565b825550505050565b600090565b6200072062000711565b6200072d818484620006e6565b505050565b5b8181101562000755576200074960008262000716565b60018101905062000733565b5050565b601f821115620007a4576200076e8162000622565b620007798462000637565b8101602085101562000789578190505b620007a1620007988562000637565b83018262000732565b50505b505050565b600082821c905092915050565b6000620007c960001984600802620007a9565b1980831691505092915050565b6000620007e48383620007b6565b9150826002028217905092915050565b620007ff82620005b3565b67ffffffffffffffff8111156200081b576200081a620002e9565b5b620008278254620005ed565b6200083482828562000759565b600060209050601f8311600181146200086c576000841562000857578287015190505b620008638582620007d6565b865550620008d3565b601f1984166200087c8662000622565b60005b82811015620008a6578489015182556001820191506020850194506020810190506200087f565b86831015620008c65784890151620008c2601f891682620007b6565b8355505b6001600288020188555050505b505050505050565b600060208284031215620008f457620008f3620002c4565b5b60006200090484828501620004d6565b91505092915050565b6149d6806200091d6000396000f3fe6080604052600436106101c25760003560e01c806371ebbef4116100f7578063a22cb46511610095578063eb8d244411610064578063eb8d244414610631578063eedc76541461065c578063f23c958314610685578063f2fde38b146106a1576101c2565b8063a22cb46514610565578063b88d4fde1461058e578063c87b56dd146105b7578063e985e9c5146105f4576101c2565b80639202c1ec116100d15780639202c1ec146104cc57806395d89b41146104f557806395f04d0514610520578063a0e12efe1461053c576101c2565b806371ebbef41461044b5780637a3a4a61146104765780638da5cb5b146104a1576101c2565b806334918dfd116101645780634f6ccce71161013e5780634f6ccce71461037d5780636352211e146103ba57806370a08231146103f7578063715018a614610434576101c2565b806334918dfd146103265780633ccfd60b1461033d57806342842e0e14610354576101c2565b8063095ea7b3116101a0578063095ea7b31461026c57806318160ddd1461029557806323b872dd146102c05780632f745c59146102e9576101c2565b806301ffc9a7146101c757806306fdde0314610204578063081812fc1461022f575b600080fd5b3480156101d357600080fd5b506101ee60048036038101906101e99190612c32565b6106ca565b6040516101fb9190612c7a565b60405180910390f35b34801561021057600080fd5b506102196106dc565b6040516102269190612d25565b60405180910390f35b34801561023b57600080fd5b5061025660048036038101906102519190612d7d565b61076e565b6040516102639190612deb565b60405180910390f35b34801561027857600080fd5b50610293600480360381019061028e9190612e32565b6107f3565b005b3480156102a157600080fd5b506102aa61090a565b6040516102b79190612e81565b60405180910390f35b3480156102cc57600080fd5b506102e760048036038101906102e29190612e9c565b610917565b005b3480156102f557600080fd5b50610310600480360381019061030b9190612e32565b610977565b60405161031d9190612e81565b60405180910390f35b34801561033257600080fd5b5061033b610a1c565b005b34801561034957600080fd5b50610352610ac4565b005b34801561036057600080fd5b5061037b60048036038101906103769190612e9c565b610bd2565b005b34801561038957600080fd5b506103a4600480360381019061039f9190612d7d565b610bf2565b6040516103b19190612e81565b60405180910390f35b3480156103c657600080fd5b506103e160048036038101906103dc9190612d7d565b610c63565b6040516103ee9190612deb565b60405180910390f35b34801561040357600080fd5b5061041e60048036038101906104199190612eef565b610d14565b60405161042b9190612e81565b60405180910390f35b34801561044057600080fd5b50610449610dcb565b005b34801561045757600080fd5b50610460610e53565b60405161046d9190612e81565b60405180910390f35b34801561048257600080fd5b5061048b610e59565b6040516104989190612e81565b60405180910390f35b3480156104ad57600080fd5b506104b6610e5f565b6040516104c39190612deb565b60405180910390f35b3480156104d857600080fd5b506104f360048036038101906104ee91906130f2565b610e89565b005b34801561050157600080fd5b5061050a610e99565b6040516105179190612d25565b60405180910390f35b61053a6004803603810190610535919061317d565b610f2b565b005b34801561054857600080fd5b50610563600480360381019061055e91906131c6565b6110a0565b005b34801561057157600080fd5b5061058c6004803603810190610587919061326a565b6110c6565b005b34801561059a57600080fd5b506105b560048036038101906105b091906132aa565b6110dc565b005b3480156105c357600080fd5b506105de60048036038101906105d99190612d7d565b61113e565b6040516105eb9190612d25565b60405180910390f35b34801561060057600080fd5b5061061b6004803603810190610616919061332d565b611150565b6040516106289190612c7a565b60405180910390f35b34801561063d57600080fd5b506106466111e4565b6040516106539190612c7a565b60405180910390f35b34801561066857600080fd5b50610683600480360381019061067e91906133a3565b6111f7565b005b61069f600480360381019061069a9190613456565b611310565b005b3480156106ad57600080fd5b506106c860048036038101906106c39190612eef565b611472565b005b60006106d582611569565b9050919050565b6060600080546106eb90613524565b80601f016020809104026020016040519081016040528092919081815260200182805461071790613524565b80156107645780601f1061073957610100808354040283529160200191610764565b820191906000526020600020905b81548152906001019060200180831161074757829003601f168201915b5050505050905090565b6000610779826115e3565b6107b8576040517f08c379a00000000000000000000000000000000000000000000000000000000081526004016107af906135c7565b60405180910390fd5b6004600083815260200190815260200160002060009054906101000a900473ffffffffffffffffffffffffffffffffffffffff169050919050565b60006107fe82610c63565b90508073ffffffffffffffffffffffffffffffffffffffff168373ffffffffffffffffffffffffffffffffffffffff160361086e576040517f08c379a000000000000000000000000000000000000000000000000000000000815260040161086590613659565b60405180910390fd5b8073ffffffffffffffffffffffffffffffffffffffff1661088d61164f565b73ffffffffffffffffffffffffffffffffffffffff1614806108bc57506108bb816108b661164f565b611150565b5b6108fb576040517f08c379a00000000000000000000000000000000000000000000000000000000081526004016108f2906136eb565b60405180910390fd5b6109058383611657565b505050565b6000600880549050905090565b61092861092261164f565b82611710565b610967576040517f08c379a000000000000000000000000000000000000000000000000000000000815260040161095e9061377d565b60405180910390fd5b6109728383836117ee565b505050565b600061098283610d14565b82106109c3576040517f08c379a00000000000000000000000000000000000000000000000000000000081526004016109ba9061380f565b60405180910390fd5b600660008473ffffffffffffffffffffffffffffffffffffffff1673ffffffffffffffffffffffffffffffffffffffff168152602001908152602001600020600083815260200190815260200160002054905092915050565b610a2461164f565b73ffffffffffffffffffffffffffffffffffffffff16610a42610e5f565b73ffffffffffffffffffffffffffffffffffffffff1614610a98576040517f08c379a0000000000000000000000000000000000000000000000000000000008152600401610a8f9061387b565b60405180910390fd5b600e60009054906101000a900460ff1615600e60006101000a81548160ff021916908315150217905550565b610acc61164f565b73ffffffffffffffffffffffffffffffffffffffff16610aea610e5f565b73ffffffffffffffffffffffffffffffffffffffff1614610b40576040517f08c379a0000000000000000000000000000000000000000000000000000000008152600401610b379061387b565b60405180910390fd5b600047905060004711610b88576040517f08c379a0000000000000000000000000000000000000000000000000000000008152600401610b7f906138e7565b60405180910390fd5b3373ffffffffffffffffffffffffffffffffffffffff166108fc829081150290604051600060405180830381858888f19350505050158015610bce573d6000803e3d6000fd5b5050565b610bed838383604051806020016040528060008152506110dc565b505050565b6000610bfc61090a565b8210610c3d576040517f08c379a0000000000000000000000000000000000000000000000000000000008152600401610c3490613979565b60405180910390fd5b60088281548110610c5157610c50613999565b5b90600052602060002001549050919050565b6000806002600084815260200190815260200160002060009054906101000a900473ffffffffffffffffffffffffffffffffffffffff169050600073ffffffffffffffffffffffffffffffffffffffff168173ffffffffffffffffffffffffffffffffffffffff1603610d0b576040517f08c379a0000000000000000000000000000000000000000000000000000000008152600401610d0290613a3a565b60405180910390fd5b80915050919050565b60008073ffffffffffffffffffffffffffffffffffffffff168273ffffffffffffffffffffffffffffffffffffffff1603610d84576040517f08c379a0000000000000000000000000000000000000000000000000000000008152600401610d7b90613acc565b60405180910390fd5b600360008373ffffffffffffffffffffffffffffffffffffffff1673ffffffffffffffffffffffffffffffffffffffff168152602001908152602001600020549050919050565b610dd361164f565b73ffffffffffffffffffffffffffffffffffffffff16610df1610e5f565b73ffffffffffffffffffffffffffffffffffffffff1614610e47576040517f08c379a0000000000000000000000000000000000000000000000000000000008152600401610e3e9061387b565b60405180910390fd5b610e516000611a54565b565b600c5481565b600d5481565b6000600b60009054906101000a900473ffffffffffffffffffffffffffffffffffffffff16905090565b610e94838383611b1a565b505050565b606060018054610ea890613524565b80601f0160208091040260200160405190810160405280929190818152602001828054610ed490613524565b8015610f215780601f10610ef657610100808354040283529160200191610f21565b820191906000526020600020905b815481529060010190602001808311610f0457829003601f168201915b5050505050905090565b600e60009054906101000a900460ff16610f7a576040517f08c379a0000000000000000000000000000000000000000000000000000000008152600401610f7190613b38565b60405180910390fd5b600c54610f8561090a565b10610fc5576040517f08c379a0000000000000000000000000000000000000000000000000000000008152600401610fbc90613ba4565b60405180910390fd5b610ff8600e60019054906101000a900473ffffffffffffffffffffffffffffffffffffffff16610ff361090a565b611c82565b61100961100361090a565b82611ca0565b600f60009054906101000a900473ffffffffffffffffffffffffffffffffffffffff1673ffffffffffffffffffffffffffffffffffffffff1663347518a861104f61090a565b6040518263ffffffff1660e01b815260040161106b9190612e81565b600060405180830381600087803b15801561108557600080fd5b505af1158015611099573d6000803e3d6000fd5b5050505050565b60006110aa61090a565b90506110b63382611c82565b6110c1818484611b1a565b505050565b6110d86110d161164f565b8383611d0d565b5050565b6110ed6110e761164f565b83611710565b61112c576040517f08c379a00000000000000000000000000000000000000000000000000000000081526004016111239061377d565b60405180910390fd5b61113884848484611e79565b50505050565b606061114982611ed5565b9050919050565b6000600560008473ffffffffffffffffffffffffffffffffffffffff1673ffffffffffffffffffffffffffffffffffffffff16815260200190815260200160002060008373ffffffffffffffffffffffffffffffffffffffff1673ffffffffffffffffffffffffffffffffffffffff16815260200190815260200160002060009054906101000a900460ff16905092915050565b600e60009054906101000a900460ff1681565b61120085610c63565b73ffffffffffffffffffffffffffffffffffffffff163373ffffffffffffffffffffffffffffffffffffffff161461126d576040517f08c379a000000000000000000000000000000000000000000000000000000000815260040161126490613c10565b60405180910390fd5b600f60009054906101000a900473ffffffffffffffffffffffffffffffffffffffff1673ffffffffffffffffffffffffffffffffffffffff1663911da0628685876040518463ffffffff1660e01b81526004016112cc93929190613c3f565b600060405180830381600087803b1580156112e657600080fd5b505af11580156112fa573d6000803e3d6000fd5b50505050611309858383611b1a565b5050505050565b61131984610c63565b73ffffffffffffffffffffffffffffffffffffffff163373ffffffffffffffffffffffffffffffffffffffff1614611386576040517f08c379a000000000000000000000000000000000000000000000000000000000815260040161137d90613c10565b60405180910390fd5b600c5461139161090a565b10156113d2576040517f08c379a00000000000000000000000000000000000000000000000000000000081526004016113c990613cc2565b60405180910390fd5b600f60009054906101000a900473ffffffffffffffffffffffffffffffffffffffff1673ffffffffffffffffffffffffffffffffffffffff166386d3d87185856040518363ffffffff1660e01b815260040161142f929190613ce2565b600060405180830381600087803b15801561144957600080fd5b505af115801561145d573d6000803e3d6000fd5b5050505061146c848383611b1a565b50505050565b61147a61164f565b73ffffffffffffffffffffffffffffffffffffffff16611498610e5f565b73ffffffffffffffffffffffffffffffffffffffff16146114ee576040517f08c379a00000000000000000000000000000000000000000000000000000000081526004016114e59061387b565b60405180910390fd5b600073ffffffffffffffffffffffffffffffffffffffff168173ffffffffffffffffffffffffffffffffffffffff160361155d576040517f08c379a000000000000000000000000000000000000000000000000000000000815260040161155490613d7d565b60405180910390fd5b61156681611a54565b50565b60007f780e9d63000000000000000000000000000000000000000000000000000000007bffffffffffffffffffffffffffffffffffffffffffffffffffffffff1916827bffffffffffffffffffffffffffffffffffffffffffffffffffffffff191614806115dc57506115db82612026565b5b9050919050565b60008073ffffffffffffffffffffffffffffffffffffffff166002600084815260200190815260200160002060009054906101000a900473ffffffffffffffffffffffffffffffffffffffff1673ffffffffffffffffffffffffffffffffffffffff1614159050919050565b600033905090565b816004600083815260200190815260200160002060006101000a81548173ffffffffffffffffffffffffffffffffffffffff021916908373ffffffffffffffffffffffffffffffffffffffff160217905550808273ffffffffffffffffffffffffffffffffffffffff166116ca83610c63565b73ffffffffffffffffffffffffffffffffffffffff167f8c5be1e5ebec7d5bd14f71427d1e84f3dd0314c0f7b2291e5b200ac8c7c3b92560405160405180910390a45050565b600061171b826115e3565b61175a576040517f08c379a000000000000000000000000000000000000000000000000000000000815260040161175190613e0f565b60405180910390fd5b600061176583610c63565b90508073ffffffffffffffffffffffffffffffffffffffff168473ffffffffffffffffffffffffffffffffffffffff1614806117a757506117a68185611150565b5b806117e557508373ffffffffffffffffffffffffffffffffffffffff166117cd8461076e565b73ffffffffffffffffffffffffffffffffffffffff16145b91505092915050565b8273ffffffffffffffffffffffffffffffffffffffff1661180e82610c63565b73ffffffffffffffffffffffffffffffffffffffff1614611864576040517f08c379a000000000000000000000000000000000000000000000000000000000815260040161185b90613ea1565b60405180910390fd5b600073ffffffffffffffffffffffffffffffffffffffff168273ffffffffffffffffffffffffffffffffffffffff16036118d3576040517f08c379a00000000000000000000000000000000000000000000000000000000081526004016118ca90613f33565b60405180910390fd5b6118de838383612108565b6118e9600082611657565b6001600360008573ffffffffffffffffffffffffffffffffffffffff1673ffffffffffffffffffffffffffffffffffffffff16815260200190815260200160002060008282546119399190613f82565b925050819055506001600360008473ffffffffffffffffffffffffffffffffffffffff1673ffffffffffffffffffffffffffffffffffffffff16815260200190815260200160002060008282546119909190613fb6565b92505081905550816002600083815260200190815260200160002060006101000a81548173ffffffffffffffffffffffffffffffffffffffff021916908373ffffffffffffffffffffffffffffffffffffffff160217905550808273ffffffffffffffffffffffffffffffffffffffff168473ffffffffffffffffffffffffffffffffffffffff167fddf252ad1be2c89b69c2b068fc378daa952ba7f163c4a11628f55a4df523b3ef60405160405180910390a4611a4f838383612118565b505050565b6000600b60009054906101000a900473ffffffffffffffffffffffffffffffffffffffff16905081600b60006101000a81548173ffffffffffffffffffffffffffffffffffffffff021916908373ffffffffffffffffffffffffffffffffffffffff1602179055508173ffffffffffffffffffffffffffffffffffffffff168173ffffffffffffffffffffffffffffffffffffffff167f8be0079c531659141344cd1fd0a4f28419497f9722a3daafe3b4186f6b6457e060405160405180910390a35050565b611b2b611b2561164f565b84611710565b611b6a576040517f08c379a0000000000000000000000000000000000000000000000000000000008152600401611b6190614036565b60405180910390fd5b600082604051602001611b7d9190614092565b604051602081830303815290604052805190602001209050600f60009054906101000a900473ffffffffffffffffffffffffffffffffffffffff1673ffffffffffffffffffffffffffffffffffffffff16637fcacc0e82846040518363ffffffff1660e01b8152600401611bf29291906140fe565b602060405180830381865afa158015611c0f573d6000803e3d6000fd5b505050506040513d601f19601f82011682018060405250810190611c339190614143565b611c72576040517f08c379a0000000000000000000000000000000000000000000000000000000008152600401611c69906141bc565b60405180910390fd5b611c7c8484611ca0565b50505050565b611c9c82826040518060200160405280600081525061211d565b5050565b611ca9826115e3565b611ce8576040517f08c379a0000000000000000000000000000000000000000000000000000000008152600401611cdf9061424e565b60405180910390fd5b80600a60008481526020019081526020016000209081611d08919061441a565b505050565b8173ffffffffffffffffffffffffffffffffffffffff168373ffffffffffffffffffffffffffffffffffffffff1603611d7b576040517f08c379a0000000000000000000000000000000000000000000000000000000008152600401611d7290614538565b60405180910390fd5b80600560008573ffffffffffffffffffffffffffffffffffffffff1673ffffffffffffffffffffffffffffffffffffffff16815260200190815260200160002060008473ffffffffffffffffffffffffffffffffffffffff1673ffffffffffffffffffffffffffffffffffffffff16815260200190815260200160002060006101000a81548160ff0219169083151502179055508173ffffffffffffffffffffffffffffffffffffffff168373ffffffffffffffffffffffffffffffffffffffff167f17307eab39ab6107e8899845ad3d59bd9653f200f220920489ca2b5937696c3183604051611e6c9190612c7a565b60405180910390a3505050565b611e848484846117ee565b611e9084848484612178565b611ecf576040517f08c379a0000000000000000000000000000000000000000000000000000000008152600401611ec6906145ca565b60405180910390fd5b50505050565b6060611ee0826115e3565b611f1f576040517f08c379a0000000000000000000000000000000000000000000000000000000008152600401611f169061465c565b60405180910390fd5b6000600a60008481526020019081526020016000208054611f3f90613524565b80601f0160208091040260200160405190810160405280929190818152602001828054611f6b90613524565b8015611fb85780601f10611f8d57610100808354040283529160200191611fb8565b820191906000526020600020905b815481529060010190602001808311611f9b57829003601f168201915b505050505090506000611fc96122ff565b90506000815103611fde578192505050612021565b600082511115612013578082604051602001611ffb92919061467c565b60405160208183030381529060405292505050612021565b61201c8461233c565b925050505b919050565b60007f80ac58cd000000000000000000000000000000000000000000000000000000007bffffffffffffffffffffffffffffffffffffffffffffffffffffffff1916827bffffffffffffffffffffffffffffffffffffffffffffffffffffffff191614806120f157507f5b5e139f000000000000000000000000000000000000000000000000000000007bffffffffffffffffffffffffffffffffffffffffffffffffffffffff1916827bffffffffffffffffffffffffffffffffffffffffffffffffffffffff1916145b806121015750612100826123e3565b5b9050919050565b61211383838361244d565b505050565b505050565b612127838361255f565b6121346000848484612178565b612173576040517f08c379a000000000000000000000000000000000000000000000000000000000815260040161216a906145ca565b60405180910390fd5b505050565b60006121998473ffffffffffffffffffffffffffffffffffffffff16612738565b156122f2578373ffffffffffffffffffffffffffffffffffffffff1663150b7a026121c261164f565b8786866040518563ffffffff1660e01b81526004016121e494939291906146a0565b6020604051808303816000875af192505050801561222057506040513d601f19601f8201168201806040525081019061221d9190614701565b60015b6122a2573d8060008114612250576040519150601f19603f3d011682016040523d82523d6000602084013e612255565b606091505b50600081510361229a576040517f08c379a0000000000000000000000000000000000000000000000000000000008152600401612291906145ca565b60405180910390fd5b805181602001fd5b63150b7a0260e01b7bffffffffffffffffffffffffffffffffffffffffffffffffffffffff1916817bffffffffffffffffffffffffffffffffffffffffffffffffffffffff1916149150506122f7565b600190505b949350505050565b60606040518060400160405280601581526020017f68747470733a2f2f697066732e696f2f697066732f0000000000000000000000815250905090565b6060612347826115e3565b612386576040517f08c379a000000000000000000000000000000000000000000000000000000000815260040161237d906147a0565b60405180910390fd5b60006123906122ff565b905060008151116123b057604051806020016040528060008152506123db565b806123ba8461275b565b6040516020016123cb92919061467c565b6040516020818303038152906040525b915050919050565b60007f01ffc9a7000000000000000000000000000000000000000000000000000000007bffffffffffffffffffffffffffffffffffffffffffffffffffffffff1916827bffffffffffffffffffffffffffffffffffffffffffffffffffffffff1916149050919050565b6124588383836128bb565b600073ffffffffffffffffffffffffffffffffffffffff168373ffffffffffffffffffffffffffffffffffffffff160361249a57612495816128c0565b6124d9565b8173ffffffffffffffffffffffffffffffffffffffff168373ffffffffffffffffffffffffffffffffffffffff16146124d8576124d78382612909565b5b5b600073ffffffffffffffffffffffffffffffffffffffff168273ffffffffffffffffffffffffffffffffffffffff160361251b5761251681612a76565b61255a565b8273ffffffffffffffffffffffffffffffffffffffff168273ffffffffffffffffffffffffffffffffffffffff1614612559576125588282612b47565b5b5b505050565b600073ffffffffffffffffffffffffffffffffffffffff168273ffffffffffffffffffffffffffffffffffffffff16036125ce576040517f08c379a00000000000000000000000000000000000000000000000000000000081526004016125c59061480c565b60405180910390fd5b6125d7816115e3565b15612617576040517f08c379a000000000000000000000000000000000000000000000000000000000815260040161260e90614878565b60405180910390fd5b61262360008383612108565b6001600360008473ffffffffffffffffffffffffffffffffffffffff1673ffffffffffffffffffffffffffffffffffffffff16815260200190815260200160002060008282546126739190613fb6565b92505081905550816002600083815260200190815260200160002060006101000a81548173ffffffffffffffffffffffffffffffffffffffff021916908373ffffffffffffffffffffffffffffffffffffffff160217905550808273ffffffffffffffffffffffffffffffffffffffff16600073ffffffffffffffffffffffffffffffffffffffff167fddf252ad1be2c89b69c2b068fc378daa952ba7f163c4a11628f55a4df523b3ef60405160405180910390a461273460008383612118565b5050565b6000808273ffffffffffffffffffffffffffffffffffffffff163b119050919050565b6060600082036127a2576040518060400160405280600181526020017f300000000000000000000000000000000000000000000000000000000000000081525090506128b6565b600082905060005b600082146127d45780806127bd90614898565b915050600a826127cd919061490f565b91506127aa565b60008167ffffffffffffffff8111156127f0576127ef612f26565b5b6040519080825280601f01601f1916602001820160405280156128225781602001600182028036833780820191505090505b5090505b600085146128af5760018261283b9190613f82565b9150600a8561284a9190614940565b60306128569190613fb6565b60f81b81838151811061286c5761286b613999565b5b60200101907effffffffffffffffffffffffffffffffffffffffffffffffffffffffffffff1916908160001a905350600a856128a8919061490f565b9450612826565b8093505050505b919050565b505050565b6008805490506009600083815260200190815260200160002081905550600881908060018154018082558091505060019003906000526020600020016000909190919091505550565b6000600161291684610d14565b6129209190613f82565b9050600060076000848152602001908152602001600020549050818114612a05576000600660008673ffffffffffffffffffffffffffffffffffffffff1673ffffffffffffffffffffffffffffffffffffffff168152602001908152602001600020600084815260200190815260200160002054905080600660008773ffffffffffffffffffffffffffffffffffffffff1673ffffffffffffffffffffffffffffffffffffffff168152602001908152602001600020600084815260200190815260200160002081905550816007600083815260200190815260200160002081905550505b6007600084815260200190815260200160002060009055600660008573ffffffffffffffffffffffffffffffffffffffff1673ffffffffffffffffffffffffffffffffffffffff16815260200190815260200160002060008381526020019081526020016000206000905550505050565b60006001600880549050612a8a9190613f82565b9050600060096000848152602001908152602001600020549050600060088381548110612aba57612ab9613999565b5b906000526020600020015490508060088381548110612adc57612adb613999565b5b906000526020600020018190555081600960008381526020019081526020016000208190555060096000858152602001908152602001600020600090556008805480612b2b57612b2a614971565b5b6001900381819060005260206000200160009055905550505050565b6000612b5283610d14565b905081600660008573ffffffffffffffffffffffffffffffffffffffff1673ffffffffffffffffffffffffffffffffffffffff168152602001908152602001600020600083815260200190815260200160002081905550806007600084815260200190815260200160002081905550505050565b6000604051905090565b600080fd5b600080fd5b60007fffffffff0000000000000000000000000000000000000000000000000000000082169050919050565b612c0f81612bda565b8114612c1a57600080fd5b50565b600081359050612c2c81612c06565b92915050565b600060208284031215612c4857612c47612bd0565b5b6000612c5684828501612c1d565b91505092915050565b60008115159050919050565b612c7481612c5f565b82525050565b6000602082019050612c8f6000830184612c6b565b92915050565b600081519050919050565b600082825260208201905092915050565b60005b83811015612ccf578082015181840152602081019050612cb4565b60008484015250505050565b6000601f19601f8301169050919050565b6000612cf782612c95565b612d018185612ca0565b9350612d11818560208601612cb1565b612d1a81612cdb565b840191505092915050565b60006020820190508181036000830152612d3f8184612cec565b905092915050565b6000819050919050565b612d5a81612d47565b8114612d6557600080fd5b50565b600081359050612d7781612d51565b92915050565b600060208284031215612d9357612d92612bd0565b5b6000612da184828501612d68565b91505092915050565b600073ffffffffffffffffffffffffffffffffffffffff82169050919050565b6000612dd582612daa565b9050919050565b612de581612dca565b82525050565b6000602082019050612e006000830184612ddc565b92915050565b612e0f81612dca565b8114612e1a57600080fd5b50565b600081359050612e2c81612e06565b92915050565b60008060408385031215612e4957612e48612bd0565b5b6000612e5785828601612e1d565b9250506020612e6885828601612d68565b9150509250929050565b612e7b81612d47565b82525050565b6000602082019050612e966000830184612e72565b92915050565b600080600060608486031215612eb557612eb4612bd0565b5b6000612ec386828701612e1d565b9350506020612ed486828701612e1d565b9250506040612ee586828701612d68565b9150509250925092565b600060208284031215612f0557612f04612bd0565b5b6000612f1384828501612e1d565b91505092915050565b600080fd5b600080fd5b7f4e487b7100000000000000000000000000000000000000000000000000000000600052604160045260246000fd5b612f5e82612cdb565b810181811067ffffffffffffffff82111715612f7d57612f7c612f26565b5b80604052505050565b6000612f90612bc6565b9050612f9c8282612f55565b919050565b600067ffffffffffffffff821115612fbc57612fbb612f26565b5b612fc582612cdb565b9050602081019050919050565b82818337600083830152505050565b6000612ff4612fef84612fa1565b612f86565b9050828152602081018484840111156130105761300f612f21565b5b61301b848285612fd2565b509392505050565b600082601f83011261303857613037612f1c565b5b8135613048848260208601612fe1565b91505092915050565b600067ffffffffffffffff82111561306c5761306b612f26565b5b61307582612cdb565b9050602081019050919050565b600061309561309084613051565b612f86565b9050828152602081018484840111156130b1576130b0612f21565b5b6130bc848285612fd2565b509392505050565b600082601f8301126130d9576130d8612f1c565b5b81356130e9848260208601613082565b91505092915050565b60008060006060848603121561310b5761310a612bd0565b5b600061311986828701612d68565b935050602084013567ffffffffffffffff81111561313a57613139612bd5565b5b61314686828701613023565b925050604084013567ffffffffffffffff81111561316757613166612bd5565b5b613173868287016130c4565b9150509250925092565b60006020828403121561319357613192612bd0565b5b600082013567ffffffffffffffff8111156131b1576131b0612bd5565b5b6131bd84828501613023565b91505092915050565b600080604083850312156131dd576131dc612bd0565b5b600083013567ffffffffffffffff8111156131fb576131fa612bd5565b5b61320785828601613023565b925050602083013567ffffffffffffffff81111561322857613227612bd5565b5b613234858286016130c4565b9150509250929050565b61324781612c5f565b811461325257600080fd5b50565b6000813590506132648161323e565b92915050565b6000806040838503121561328157613280612bd0565b5b600061328f85828601612e1d565b92505060206132a085828601613255565b9150509250929050565b600080600080608085870312156132c4576132c3612bd0565b5b60006132d287828801612e1d565b94505060206132e387828801612e1d565b93505060406132f487828801612d68565b925050606085013567ffffffffffffffff81111561331557613314612bd5565b5b613321878288016130c4565b91505092959194509250565b6000806040838503121561334457613343612bd0565b5b600061335285828601612e1d565b925050602061336385828601612e1d565b9150509250929050565b6000819050919050565b6133808161336d565b811461338b57600080fd5b50565b60008135905061339d81613377565b92915050565b600080600080600060a086880312156133bf576133be612bd0565b5b60006133cd88828901612d68565b95505060206133de8882890161338e565b94505060406133ef88828901612d68565b935050606086013567ffffffffffffffff8111156134105761340f612bd5565b5b61341c88828901613023565b925050608086013567ffffffffffffffff81111561343d5761343c612bd5565b5b613449888289016130c4565b9150509295509295909350565b600080600080608085870312156134705761346f612bd0565b5b600061347e87828801612d68565b945050602061348f8782880161338e565b935050604085013567ffffffffffffffff8111156134b0576134af612bd5565b5b6134bc87828801613023565b925050606085013567ffffffffffffffff8111156134dd576134dc612bd5565b5b6134e9878288016130c4565b91505092959194509250565b7f4e487b7100000000000000000000000000000000000000000000000000000000600052602260045260246000fd5b6000600282049050600182168061353c57607f821691505b60208210810361354f5761354e6134f5565b5b50919050565b7f4552433732313a20617070726f76656420717565727920666f72206e6f6e657860008201527f697374656e7420746f6b656e0000000000000000000000000000000000000000602082015250565b60006135b1602c83612ca0565b91506135bc82613555565b604082019050919050565b600060208201905081810360008301526135e0816135a4565b9050919050565b7f4552433732313a20617070726f76616c20746f2063757272656e74206f776e6560008201527f7200000000000000000000000000000000000000000000000000000000000000602082015250565b6000613643602183612ca0565b915061364e826135e7565b604082019050919050565b6000602082019050818103600083015261367281613636565b9050919050565b7f4552433732313a20617070726f76652063616c6c6572206973206e6f74206f7760008201527f6e6572206e6f7220617070726f76656420666f7220616c6c0000000000000000602082015250565b60006136d5603883612ca0565b91506136e082613679565b604082019050919050565b60006020820190508181036000830152613704816136c8565b9050919050565b7f4552433732313a207472616e736665722063616c6c6572206973206e6f74206f60008201527f776e6572206e6f7220617070726f766564000000000000000000000000000000602082015250565b6000613767603183612ca0565b91506137728261370b565b604082019050919050565b600060208201905081810360008301526137968161375a565b9050919050565b7f455243373231456e756d657261626c653a206f776e657220696e646578206f7560008201527f74206f6620626f756e6473000000000000000000000000000000000000000000602082015250565b60006137f9602b83612ca0565b91506138048261379d565b604082019050919050565b60006020820190508181036000830152613828816137ec565b9050919050565b7f4f776e61626c653a2063616c6c6572206973206e6f7420746865206f776e6572600082015250565b6000613865602083612ca0565b91506138708261382f565b602082019050919050565b6000602082019050818103600083015261389481613858565b9050919050565b7f4e6f2062616c616e636520746f20776974686472617700000000000000000000600082015250565b60006138d1601683612ca0565b91506138dc8261389b565b602082019050919050565b60006020820190508181036000830152613900816138c4565b9050919050565b7f455243373231456e756d657261626c653a20676c6f62616c20696e646578206f60008201527f7574206f6620626f756e64730000000000000000000000000000000000000000602082015250565b6000613963602c83612ca0565b915061396e82613907565b604082019050919050565b6000602082019050818103600083015261399281613956565b9050919050565b7f4e487b7100000000000000000000000000000000000000000000000000000000600052603260045260246000fd5b7f4552433732313a206f776e657220717565727920666f72206e6f6e657869737460008201527f656e7420746f6b656e0000000000000000000000000000000000000000000000602082015250565b6000613a24602983612ca0565b9150613a2f826139c8565b604082019050919050565b60006020820190508181036000830152613a5381613a17565b9050919050565b7f4552433732313a2062616c616e636520717565727920666f7220746865207a6560008201527f726f206164647265737300000000000000000000000000000000000000000000602082015250565b6000613ab6602a83612ca0565b9150613ac182613a5a565b604082019050919050565b60006020820190508181036000830152613ae581613aa9565b9050919050565b7f53616c65206d7573742062652061637469766500000000000000000000000000600082015250565b6000613b22601383612ca0565b9150613b2d82613aec565b602082019050919050565b60006020820190508181036000830152613b5181613b15565b9050919050565b7f45786365656420696e697469616c20737570706c79206f66206e757473000000600082015250565b6000613b8e601d83612ca0565b9150613b9982613b58565b602082019050919050565b60006020820190508181036000830152613bbd81613b81565b9050919050565b7f43616c6c6572206973206e6f74206f776e6572206f66206e7574000000000000600082015250565b6000613bfa601a83612ca0565b9150613c0582613bc4565b602082019050919050565b60006020820190508181036000830152613c2981613bed565b9050919050565b613c398161336d565b82525050565b6000606082019050613c546000830186612e72565b613c616020830185612e72565b613c6e6040830184613c30565b949350505050565b7f4e757473207374696c6c2065786973742066726f6d206372656174696f6e0000600082015250565b6000613cac601e83612ca0565b9150613cb782613c76565b602082019050919050565b60006020820190508181036000830152613cdb81613c9f565b9050919050565b6000604082019050613cf76000830185612e72565b613d046020830184613c30565b9392505050565b7f4f776e61626c653a206e6577206f776e657220697320746865207a65726f206160008201527f6464726573730000000000000000000000000000000000000000000000000000602082015250565b6000613d67602683612ca0565b9150613d7282613d0b565b604082019050919050565b60006020820190508181036000830152613d9681613d5a565b9050919050565b7f4552433732313a206f70657261746f7220717565727920666f72206e6f6e657860008201527f697374656e7420746f6b656e0000000000000000000000000000000000000000602082015250565b6000613df9602c83612ca0565b9150613e0482613d9d565b604082019050919050565b60006020820190508181036000830152613e2881613dec565b9050919050565b7f4552433732313a207472616e736665722066726f6d20696e636f72726563742060008201527f6f776e6572000000000000000000000000000000000000000000000000000000602082015250565b6000613e8b602583612ca0565b9150613e9682613e2f565b604082019050919050565b60006020820190508181036000830152613eba81613e7e565b9050919050565b7f4552433732313a207472616e7366657220746f20746865207a65726f2061646460008201527f7265737300000000000000000000000000000000000000000000000000000000602082015250565b6000613f1d602483612ca0565b9150613f2882613ec1565b604082019050919050565b60006020820190508181036000830152613f4c81613f10565b9050919050565b7f4e487b7100000000000000000000000000000000000000000000000000000000600052601160045260246000fd5b6000613f8d82612d47565b9150613f9883612d47565b9250828203905081811115613fb057613faf613f53565b5b92915050565b6000613fc182612d47565b9150613fcc83612d47565b9250828201905080821115613fe457613fe3613f53565b5b92915050565b7f43616c6c6572206973206e6f74206f776e6572206e6f7220617070726f766564600082015250565b6000614020602083612ca0565b915061402b82613fea565b602082019050919050565b6000602082019050818103600083015261404f81614013565b9050919050565b600081905092915050565b600061406c82612c95565b6140768185614056565b9350614086818560208601612cb1565b80840191505092915050565b600061409e8284614061565b915081905092915050565b600081519050919050565b600082825260208201905092915050565b60006140d0826140a9565b6140da81856140b4565b93506140ea818560208601612cb1565b6140f381612cdb565b840191505092915050565b60006040820190506141136000830185613c30565b818103602083015261412581846140c5565b90509392505050565b60008151905061413d8161323e565b92915050565b60006020828403121561415957614158612bd0565b5b60006141678482850161412e565b91505092915050565b7f4461746120646f6573206e6f74206d61746368207369676e6174757265000000600082015250565b60006141a6601d83612ca0565b91506141b182614170565b602082019050919050565b600060208201905081810360008301526141d581614199565b9050919050565b7f45524337323155524953746f726167653a2055524920736574206f66206e6f6e60008201527f6578697374656e7420746f6b656e000000000000000000000000000000000000602082015250565b6000614238602e83612ca0565b9150614243826141dc565b604082019050919050565b600060208201905081810360008301526142678161422b565b9050919050565b60008190508160005260206000209050919050565b60006020601f8301049050919050565b600082821b905092915050565b6000600883026142d07fffffffffffffffffffffffffffffffffffffffffffffffffffffffffffffffff82614293565b6142da8683614293565b95508019841693508086168417925050509392505050565b6000819050919050565b600061431761431261430d84612d47565b6142f2565b612d47565b9050919050565b6000819050919050565b614331836142fc565b61434561433d8261431e565b8484546142a0565b825550505050565b600090565b61435a61434d565b614365818484614328565b505050565b5b818110156143895761437e600082614352565b60018101905061436b565b5050565b601f8211156143ce5761439f8161426e565b6143a884614283565b810160208510156143b7578190505b6143cb6143c385614283565b83018261436a565b50505b505050565b600082821c905092915050565b60006143f1600019846008026143d3565b1980831691505092915050565b600061440a83836143e0565b9150826002028217905092915050565b61442382612c95565b67ffffffffffffffff81111561443c5761443b612f26565b5b6144468254613524565b61445182828561438d565b600060209050601f8311600181146144845760008415614472578287015190505b61447c85826143fe565b8655506144e4565b601f1984166144928661426e565b60005b828110156144ba57848901518255600182019150602085019450602081019050614495565b868310156144d757848901516144d3601f8916826143e0565b8355505b6001600288020188555050505b505050505050565b7f4552433732313a20617070726f766520746f2063616c6c657200000000000000600082015250565b6000614522601983612ca0565b915061452d826144ec565b602082019050919050565b6000602082019050818103600083015261455181614515565b9050919050565b7f4552433732313a207472616e7366657220746f206e6f6e20455243373231526560008201527f63656976657220696d706c656d656e7465720000000000000000000000000000602082015250565b60006145b4603283612ca0565b91506145bf82614558565b604082019050919050565b600060208201905081810360008301526145e3816145a7565b9050919050565b7f45524337323155524953746f726167653a2055524920717565727920666f722060008201527f6e6f6e6578697374656e7420746f6b656e000000000000000000000000000000602082015250565b6000614646603183612ca0565b9150614651826145ea565b604082019050919050565b6000602082019050818103600083015261467581614639565b9050919050565b60006146888285614061565b91506146948284614061565b91508190509392505050565b60006080820190506146b56000830187612ddc565b6146c26020830186612ddc565b6146cf6040830185612e72565b81810360608301526146e181846140c5565b905095945050505050565b6000815190506146fb81612c06565b92915050565b60006020828403121561471757614716612bd0565b5b6000614725848285016146ec565b91505092915050565b7f4552433732314d657461646174613a2055524920717565727920666f72206e6f60008201527f6e6578697374656e7420746f6b656e0000000000000000000000000000000000602082015250565b600061478a602f83612ca0565b91506147958261472e565b604082019050919050565b600060208201905081810360008301526147b98161477d565b9050919050565b7f4552433732313a206d696e7420746f20746865207a65726f2061646472657373600082015250565b60006147f6602083612ca0565b9150614801826147c0565b602082019050919050565b60006020820190508181036000830152614825816147e9565b9050919050565b7f4552433732313a20746f6b656e20616c7265616479206d696e74656400000000600082015250565b6000614862601c83612ca0565b915061486d8261482c565b602082019050919050565b6000602082019050818103600083015261489181614855565b9050919050565b60006148a382612d47565b91507fffffffffffffffffffffffffffffffffffffffffffffffffffffffffffffffff82036148d5576148d4613f53565b5b600182019050919050565b7f4e487b7100000000000000000000000000000000000000000000000000000000600052601260045260246000fd5b600061491a82612d47565b915061492583612d47565b925082614935576149346148e0565b5b828204905092915050565b600061494b82612d47565b915061495683612d47565b925082614966576149656148e0565b5b828206905092915050565b7f4e487b7100000000000000000000000000000000000000000000000000000000600052603160045260246000fdfea2646970667358221220f5651ec09c1d395dbe761e4f68081d84067fce7b0d6f1614711a9b5186dda53764736f6c63430008110033a264697066735822122099f204a0a024f58ec449cf52c40b02a6ca56e0d7e7f4faa35940a96ff54a813e64736f6c6343000811003360806040523480156200001157600080fd5b506040516200631b3803806200631b8339818101604052810190620000379190620001e4565b83838284604051620000499062000131565b62000058949392919062000278565b604051809103906000f08015801562000075573d6000803e3d6000fd5b50600460006101000a81548173ffffffffffffffffffffffffffffffffffffffff021916908373ffffffffffffffffffffffffffffffffffffffff160217905550600460009054906101000a900473ffffffffffffffffffffffffffffffffffffffff16600160006101000a81548173ffffffffffffffffffffffffffffffffffffffff021916908373ffffffffffffffffffffffffffffffffffffffff160217905550816002819055508060038190555050505050620002c5565b614d4d80620015ce83390190565b600080fd5b600073ffffffffffffffffffffffffffffffffffffffff82169050919050565b6000620001718262000144565b9050919050565b620001838162000164565b81146200018f57600080fd5b50565b600081519050620001a38162000178565b92915050565b6000819050919050565b620001be81620001a9565b8114620001ca57600080fd5b50565b600081519050620001de81620001b3565b92915050565b600080600080608085870312156200020157620002006200013f565b5b6000620002118782880162000192565b9450506020620002248782880162000192565b93505060406200023787828801620001cd565b92505060606200024a87828801620001cd565b91505092959194509250565b620002618162000164565b82525050565b6200027281620001a9565b82525050565b60006080820190506200028f600083018762000256565b6200029e602083018662000256565b620002ad604083018562000267565b620002bc606083018462000267565b95945050505050565b6112f980620002d56000396000f3fe608060405234801561001057600080fd5b506004361061009e5760003560e01c80637fcacc0e116100665780637fcacc0e1461014957806386d3d87114610179578063911da06214610195578063b8a9736d146101b1578063f27890f2146101cf5761009e565b806307604b1a146100a35780632c533085146100c15780633434735f146100df578063347518a8146100fd57806334fc122814610119575b600080fd5b6100ab6101eb565b6040516100b89190610ae9565b60405180910390f35b6100c9610211565b6040516100d69190610b1d565b60405180910390f35b6100e7610217565b6040516100f49190610ae9565b60405180910390f35b61011760048036038101906101129190610b78565b61023b565b005b610133600480360381019061012e9190610b78565b6102ef565b6040516101409190610b1d565b60405180910390f35b610163600480360381019061015e9190610d21565b610394565b6040516101709190610d98565b60405180910390f35b610193600480360381019061018e9190610db3565b610438565b005b6101af60048036038101906101aa9190610df3565b6104cb565b005b6101b9610565565b6040516101c69190610b1d565b60405180910390f35b6101e960048036038101906101e49190610b78565b61056b565b005b600160009054906101000a900473ffffffffffffffffffffffffffffffffffffffff1681565b60035481565b60008054906101000a900473ffffffffffffffffffffffffffffffffffffffff1681565b600460009054906101000a900473ffffffffffffffffffffffffffffffffffffffff1673ffffffffffffffffffffffffffffffffffffffff16631c85949c600160009054906101000a900473ffffffffffffffffffffffffffffffffffffffff16836040518363ffffffff1660e01b81526004016102ba929190610e46565b600060405180830381600087803b1580156102d457600080fd5b505af11580156102e8573d6000803e3d6000fd5b5050505050565b6000600460009054906101000a900473ffffffffffffffffffffffffffffffffffffffff1673ffffffffffffffffffffffffffffffffffffffff16638ed3df0f836040518263ffffffff1660e01b815260040161034c9190610b1d565b602060405180830381865afa158015610369573d6000803e3d6000fd5b505050506040513d601f19601f8201168201806040525081019061038d9190610e84565b9050919050565b60008060009054906101000a900473ffffffffffffffffffffffffffffffffffffffff1673ffffffffffffffffffffffffffffffffffffffff166103d884846106ac565b73ffffffffffffffffffffffffffffffffffffffff161461042e576040517f08c379a000000000000000000000000000000000000000000000000000000000815260040161042590610f0e565b60405180910390fd5b6001905092915050565b600460009054906101000a900473ffffffffffffffffffffffffffffffffffffffff1673ffffffffffffffffffffffffffffffffffffffff1663fe774f9d83836040518363ffffffff1660e01b8152600401610495929190610f3d565b600060405180830381600087803b1580156104af57600080fd5b505af11580156104c3573d6000803e3d6000fd5b505050505050565b600460009054906101000a900473ffffffffffffffffffffffffffffffffffffffff1673ffffffffffffffffffffffffffffffffffffffff166303f5de9d8484600354856040518563ffffffff1660e01b815260040161052e9493929190610f66565b600060405180830381600087803b15801561054857600080fd5b505af115801561055c573d6000803e3d6000fd5b50505050505050565b60025481565b6000600460009054906101000a900473ffffffffffffffffffffffffffffffffffffffff1673ffffffffffffffffffffffffffffffffffffffff1663d4d81032836040518263ffffffff1660e01b81526004016105c89190610b1d565b602060405180830381865afa1580156105e5573d6000803e3d6000fd5b505050506040513d601f19601f820116820180604052508101906106099190610e84565b90506000610616826102ef565b9050600460009054906101000a900473ffffffffffffffffffffffffffffffffffffffff1673ffffffffffffffffffffffffffffffffffffffff1663a06fc90b84836040518363ffffffff1660e01b8152600401610675929190610fab565b600060405180830381600087803b15801561068f57600080fd5b505af11580156106a3573d6000803e3d6000fd5b50505050505050565b60006106c182846106c990919063ffffffff16565b905092915050565b60008060006106d885856106f0565b915091506106e581610771565b819250505092915050565b60008060418351036107315760008060006020860151925060408601519150606086015160001a90506107258782858561093d565b9450945050505061076a565b6040835103610761576000806020850151915060408501519050610756868383610a49565b93509350505061076a565b60006002915091505b9250929050565b6000600481111561078557610784610fd4565b5b81600481111561079857610797610fd4565b5b031561093a57600160048111156107b2576107b1610fd4565b5b8160048111156107c5576107c4610fd4565b5b03610805576040517f08c379a00000000000000000000000000000000000000000000000000000000081526004016107fc9061104f565b60405180910390fd5b6002600481111561081957610818610fd4565b5b81600481111561082c5761082b610fd4565b5b0361086c576040517f08c379a0000000000000000000000000000000000000000000000000000000008152600401610863906110bb565b60405180910390fd5b600360048111156108805761087f610fd4565b5b81600481111561089357610892610fd4565b5b036108d3576040517f08c379a00000000000000000000000000000000000000000000000000000000081526004016108ca9061114d565b60405180910390fd5b6004808111156108e6576108e5610fd4565b5b8160048111156108f9576108f8610fd4565b5b03610939576040517f08c379a0000000000000000000000000000000000000000000000000000000008152600401610930906111df565b60405180910390fd5b5b50565b6000807f7fffffffffffffffffffffffffffffff5d576e7357a4501ddfe92f46681b20a08360001c1115610978576000600391509150610a40565b601b8560ff16141580156109905750601c8560ff1614155b156109a2576000600491509150610a40565b6000600187878787604051600081526020016040526040516109c7949392919061121b565b6020604051602081039080840390855afa1580156109e9573d6000803e3d6000fd5b505050602060405103519050600073ffffffffffffffffffffffffffffffffffffffff168173ffffffffffffffffffffffffffffffffffffffff1603610a3757600060019250925050610a40565b80600092509250505b94509492505050565b60008060007f7fffffffffffffffffffffffffffffffffffffffffffffffffffffffffffffff60001b841690506000601b60ff8660001c901c610a8c919061128f565b9050610a9a8782888561093d565b935093505050935093915050565b600073ffffffffffffffffffffffffffffffffffffffff82169050919050565b6000610ad382610aa8565b9050919050565b610ae381610ac8565b82525050565b6000602082019050610afe6000830184610ada565b92915050565b6000819050919050565b610b1781610b04565b82525050565b6000602082019050610b326000830184610b0e565b92915050565b6000604051905090565b600080fd5b600080fd5b610b5581610b04565b8114610b6057600080fd5b50565b600081359050610b7281610b4c565b92915050565b600060208284031215610b8e57610b8d610b42565b5b6000610b9c84828501610b63565b91505092915050565b6000819050919050565b610bb881610ba5565b8114610bc357600080fd5b50565b600081359050610bd581610baf565b92915050565b600080fd5b600080fd5b6000601f19601f8301169050919050565b7f4e487b7100000000000000000000000000000000000000000000000000000000600052604160045260246000fd5b610c2e82610be5565b810181811067ffffffffffffffff82111715610c4d57610c4c610bf6565b5b80604052505050565b6000610c60610b38565b9050610c6c8282610c25565b919050565b600067ffffffffffffffff821115610c8c57610c8b610bf6565b5b610c9582610be5565b9050602081019050919050565b82818337600083830152505050565b6000610cc4610cbf84610c71565b610c56565b905082815260208101848484011115610ce057610cdf610be0565b5b610ceb848285610ca2565b509392505050565b600082601f830112610d0857610d07610bdb565b5b8135610d18848260208601610cb1565b91505092915050565b60008060408385031215610d3857610d37610b42565b5b6000610d4685828601610bc6565b925050602083013567ffffffffffffffff811115610d6757610d66610b47565b5b610d7385828601610cf3565b9150509250929050565b60008115159050919050565b610d9281610d7d565b82525050565b6000602082019050610dad6000830184610d89565b92915050565b60008060408385031215610dca57610dc9610b42565b5b6000610dd885828601610b63565b9250506020610de985828601610bc6565b9150509250929050565b600080600060608486031215610e0c57610e0b610b42565b5b6000610e1a86828701610b63565b9350506020610e2b86828701610b63565b9250506040610e3c86828701610bc6565b9150509250925092565b6000604082019050610e5b6000830185610ada565b610e686020830184610b0e565b9392505050565b600081519050610e7e81610b4c565b92915050565b600060208284031215610e9a57610e99610b42565b5b6000610ea884828501610e6f565b91505092915050565b600082825260208201905092915050565b7f496e76616c6964207369676e6174757265000000000000000000000000000000600082015250565b6000610ef8601183610eb1565b9150610f0382610ec2565b602082019050919050565b60006020820190508181036000830152610f2781610eeb565b9050919050565b610f3781610ba5565b82525050565b6000604082019050610f526000830185610b0e565b610f5f6020830184610f2e565b9392505050565b6000608082019050610f7b6000830187610b0e565b610f886020830186610b0e565b610f956040830185610b0e565b610fa26060830184610f2e565b95945050505050565b6000604082019050610fc06000830185610b0e565b610fcd6020830184610b0e565b9392505050565b7f4e487b7100000000000000000000000000000000000000000000000000000000600052602160045260246000fd5b7f45434453413a20696e76616c6964207369676e61747572650000000000000000600082015250565b6000611039601883610eb1565b915061104482611003565b602082019050919050565b600060208201905081810360008301526110688161102c565b9050919050565b7f45434453413a20696e76616c6964207369676e6174757265206c656e67746800600082015250565b60006110a5601f83610eb1565b91506110b08261106f565b602082019050919050565b600060208201905081810360008301526110d481611098565b9050919050565b7f45434453413a20696e76616c6964207369676e6174757265202773272076616c60008201527f7565000000000000000000000000000000000000000000000000000000000000602082015250565b6000611137602283610eb1565b9150611142826110db565b604082019050919050565b600060208201905081810360008301526111668161112a565b9050919050565b7f45434453413a20696e76616c6964207369676e6174757265202776272076616c60008201527f7565000000000000000000000000000000000000000000000000000000000000602082015250565b60006111c9602283610eb1565b91506111d48261116d565b604082019050919050565b600060208201905081810360008301526111f8816111bc565b9050919050565b600060ff82169050919050565b611215816111ff565b82525050565b60006080820190506112306000830187610f2e565b61123d602083018661120c565b61124a6040830185610f2e565b6112576060830184610f2e565b95945050505050565b7f4e487b7100000000000000000000000000000000000000000000000000000000600052601160045260246000fd5b600061129a82610b04565b91506112a583610b04565b92508282019050808211156112bd576112bc611260565b5b9291505056fea264697066735822122041083950dbbfcb4684e4c9560783fd334b641e9c675c319444ce4ddd29dfce9264736f6c634300081100336080604052600080556000600755600060085560006009556000600f553480156200002957600080fd5b5060405162004d4d38038062004d4d83398181016040528101906200004f9190620001de565b83601260000160006101000a81548173ffffffffffffffffffffffffffffffffffffffff021916908373ffffffffffffffffffffffffffffffffffffffff16021790555082601260010160006101000a81548173ffffffffffffffffffffffffffffffffffffffff021916908373ffffffffffffffffffffffffffffffffffffffff16021790555030601260020160006101000a81548173ffffffffffffffffffffffffffffffffffffffff021916908373ffffffffffffffffffffffffffffffffffffffff16021790555080601660000181905550816016600101819055505050505062000250565b600080fd5b600073ffffffffffffffffffffffffffffffffffffffff82169050919050565b60006200016b826200013e565b9050919050565b6200017d816200015e565b81146200018957600080fd5b50565b6000815190506200019d8162000172565b92915050565b6000819050919050565b620001b881620001a3565b8114620001c457600080fd5b50565b600081519050620001d881620001ad565b92915050565b60008060008060808587031215620001fb57620001fa62000139565b5b60006200020b878288016200018c565b94505060206200021e878288016200018c565b93505060406200023187828801620001c7565b92505060606200024487828801620001c7565b91505092959194509250565b614aed80620002606000396000f3fe608060405260043610620001fa5760003560e01c80634ffe5a6f116200010f578063aef054ce11620000a3578063ea988be8116200006d578063ea988be8146200082f578063f50d4349146200085f578063f6317f8d14620008a3578063fe774f9d14620008d357620001fa565b8063aef054ce1462000733578063d4d810321462000777578063df4f5ccc14620007bb578063ea0f136614620007eb57620001fa565b80639578d3df11620000e55780639578d3df14620006605780639cee22b114620006a4578063a06fc90b14620006d2578063a83851b9146200070057620001fa565b80634ffe5a6f146200059457806353f97bc814620005d85780638ed3df0f146200061c57620001fa565b806323f526c011620001935780633279bd4f116200015d5780633279bd4f146200049857806339dc84f414620004dc57806347634e1c146200052057806349a6b51f146200056457620001fa565b806323f526c0146200039c57806326342ea414620003e0578063282adc8c146200041057806331ad1b42146200045457620001fa565b8063171e844111620001d5578063171e844114620002a25780631821907a14620002e65780631c85949c146200032a5780631e0b3964146200035857620001fa565b806302760a4814620001ff57806303f5de9d146200024357806315d3b7a01462000271575b600080fd5b3480156200020c57600080fd5b506200022b60048036038101906200022591906200205e565b620008f3565b6040516200023a9190620020ad565b60405180910390f35b3480156200025057600080fd5b506200026f600480360381019062000269919062002105565b62000913565b005b3480156200027e57600080fd5b5062000289620010a7565b6040516200029992919062002188565b60405180910390f35b348015620002af57600080fd5b50620002ce6004803603810190620002c891906200205e565b620010b9565b604051620002dd9190620020ad565b60405180910390f35b348015620002f357600080fd5b506200031260048036038101906200030c91906200205e565b620010d9565b604051620003219190620021b5565b60405180910390f35b3480156200033757600080fd5b5062000356600480360381019062000350919062002237565b620010f1565b005b3480156200036557600080fd5b506200038460048036038101906200037e91906200227e565b620012b4565b604051620003939190620021b5565b60405180910390f35b348015620003a957600080fd5b50620003c86004803603810190620003c291906200205e565b620012e6565b604051620003d79190620022d6565b60405180910390f35b348015620003ed57600080fd5b50620003f862001319565b604051620004079190620021b5565b60405180910390f35b3480156200041d57600080fd5b506200043c60048036038101906200043691906200205e565b6200131f565b6040516200044b9190620021b5565b60405180910390f35b3480156200046157600080fd5b506200048060048036038101906200047a91906200205e565b6200133f565b6040516200048f9190620021b5565b60405180910390f35b348015620004a557600080fd5b50620004c46004803603810190620004be91906200205e565b62001357565b604051620004d39190620021b5565b60405180910390f35b348015620004e957600080fd5b506200050860048036038101906200050291906200205e565b6200136f565b604051620005179190620022d6565b60405180910390f35b3480156200052d57600080fd5b506200054c60048036038101906200054691906200205e565b620013a2565b6040516200055b9190620021b5565b60405180910390f35b3480156200057157600080fd5b506200057c620013ba565b6040516200058b9190620021b5565b60405180910390f35b348015620005a157600080fd5b50620005c06004803603810190620005ba91906200205e565b620013c0565b604051620005cf9190620021b5565b60405180910390f35b348015620005e557600080fd5b50620006046004803603810190620005fe91906200227e565b620013d8565b604051620006139190620020ad565b60405180910390f35b3480156200062957600080fd5b506200064860048036038101906200064291906200205e565b62001407565b604051620006579190620021b5565b60405180910390f35b3480156200066d57600080fd5b506200068c60048036038101906200068691906200205e565b62001438565b6040516200069b9190620021b5565b60405180910390f35b348015620006b157600080fd5b50620006d06004803603810190620006ca9190620022f3565b6200145d565b005b348015620006df57600080fd5b50620006fe6004803603810190620006f891906200227e565b62001590565b005b3480156200070d57600080fd5b50620007186200183f565b6040516200072a949392919062002365565b60405180910390f35b3480156200074057600080fd5b506200075f60048036038101906200075991906200205e565b620018dd565b6040516200076e9190620022d6565b60405180910390f35b3480156200078457600080fd5b50620007a360048036038101906200079d91906200205e565b62001910565b604051620007b29190620021b5565b60405180910390f35b348015620007c857600080fd5b50620007d362001928565b604051620007e29190620021b5565b60405180910390f35b348015620007f857600080fd5b506200081760048036038101906200081191906200205e565b6200192e565b604051620008269190620021b5565b60405180910390f35b3480156200083c57600080fd5b506200084762001946565b604051620008569190620021b5565b60405180910390f35b3480156200086c57600080fd5b506200088b60048036038101906200088591906200205e565b6200194c565b6040516200089a9190620021b5565b60405180910390f35b348015620008b057600080fd5b50620008bb62001964565b604051620008ca9190620021b5565b60405180910390f35b620008f16004803603810190620008eb9190620023b2565b6200196a565b005b60116020528060005260406000206000915054906101000a900460ff1681565b60006018600086815260200190815260200160002060009054906101000a900473ffffffffffffffffffffffffffffffffffffffff1690503373ffffffffffffffffffffffffffffffffffffffff168173ffffffffffffffffffffffffffffffffffffffff1614620009bc576040517f08c379a0000000000000000000000000000000000000000000000000000000008152600401620009b3906200245a565b60405180910390fd5b836019600087815260200190815260200160002054101562000a15576040517f08c379a000000000000000000000000000000000000000000000000000000000815260040162000a0c90620024cc565b60405180910390fd5b6000601260010160009054906101000a900473ffffffffffffffffffffffffffffffffffffffff1690508073ffffffffffffffffffffffffffffffffffffffff166370a08231836040518263ffffffff1660e01b815260040162000a7a9190620022d6565b602060405180830381865afa15801562000a98573d6000803e3d6000fd5b505050506040513d601f19601f8201168201806040525081019062000abe919062002505565b85111562000b03576040517f08c379a000000000000000000000000000000000000000000000000000000000815260040162000afa9062002587565b60405180910390fd5b6000848662000b139190620025d8565b1462000b56576040517f08c379a000000000000000000000000000000000000000000000000000000000815260040162000b4d9062002660565b60405180910390fd5b60006002600088815260200190815260200160002054111562000be45784600f600082825462000b879190620026b1565b925050819055508460106000888152602001908152602001600020600082825462000bb39190620026b1565b92505081905550601a8690806001815401808255809150506001900390600052602060002001600090919091909150555b60008173ffffffffffffffffffffffffffffffffffffffff166370a08231601260020160009054906101000a900473ffffffffffffffffffffffffffffffffffffffff166040518263ffffffff1660e01b815260040162000c469190620022d6565b602060405180830381865afa15801562000c64573d6000803e3d6000fd5b505050506040513d601f19601f8201168201806040525081019062000c8a919062002505565b9050600081111562000f9b57600062000ca682600f5462001c2b565b90506000805b82811462000ef1576000601a8054905090506000810362000cce575062000ef1565b8082111562000cdc57600092505b6000601a848154811062000cf55762000cf4620026ec565b5b9060005260206000200154905060006018600083815260200190815260200160002060009054906101000a900473ffffffffffffffffffffffffffffffffffffffff1690506000601660010154600260008581526020019081526020016000205462000d6291906200271b565b90508060196000858152602001908152602001600020540362000daa57601a868154811062000d965762000d95620026ec565b5b906000526020600020016000905562000ec7565b8873ffffffffffffffffffffffffffffffffffffffff1663a9059cbb8360016040518363ffffffff1660e01b815260040162000de8929190620027b3565b6020604051808303816000875af115801562000e08573d6000803e3d6000fd5b505050506040513d601f19601f8201168201806040525081019062000e2e919062002811565b50601a839080600181540180825580915050600190039060005260206000200160009091909190915055601a868154811062000e6f5762000e6e620026ec565b5b90600052602060002001600090556001600f600082825462000e92919062002843565b92505081905550600160106000858152602001908152602001600020600082825462000ebf919062002843565b925050819055505b858062000ed4906200287e565b96505050505050808062000ee8906200287e565b91505062000cac565b508373ffffffffffffffffffffffffffffffffffffffff166370a08231601260020160009054906101000a900473ffffffffffffffffffffffffffffffffffffffff166040518263ffffffff1660e01b815260040162000f529190620022d6565b602060405180830381865afa15801562000f70573d6000803e3d6000fd5b505050506040513d601f19601f8201168201806040525081019062000f96919062002505565b925050505b6000600954888888601260020160009054906101000a900473ffffffffffffffffffffffffffffffffffffffff168960405162000fd89062002002565b62000fe996959493929190620028dc565b604051809103906000f08015801562001006573d6000803e3d6000fd5b5090508273ffffffffffffffffffffffffffffffffffffffff1663a9059cbb82896040518363ffffffff1660e01b81526004016200104692919062002949565b6020604051808303816000875af115801562001066573d6000803e3d6000fd5b505050506040513d601f19601f820116820180604052508101906200108c919062002811565b506200109d88600954838a62001c46565b5050505050505050565b60168060000154908060010154905082565b60066020528060005260406000206000915054906101000a900460ff1681565b600d6020528060005260406000206000915090505481565b6000601260010160009054906101000a900473ffffffffffffffffffffffffffffffffffffffff1690506016600101548173ffffffffffffffffffffffffffffffffffffffff166370a08231601260020160009054906101000a900473ffffffffffffffffffffffffffffffffffffffff166040518263ffffffff1660e01b8152600401620011819190620022d6565b602060405180830381865afa1580156200119f573d6000803e3d6000fd5b505050506040513d601f19601f82011682018060405250810190620011c5919062002505565b101562001209576040517f08c379a00000000000000000000000000000000000000000000000000000000081526004016200120090620029c6565b60405180910390fd5b8073ffffffffffffffffffffffffffffffffffffffff1663a9059cbb846016600101546040518363ffffffff1660e01b81526004016200124b92919062002949565b6020604051808303816000875af11580156200126b573d6000803e3d6000fd5b505050506040513d601f19601f8201168201806040525081019062001291919062002811565b506016600101546019600084815260200190815260200160002081905550505050565b600a6020528160005260406000208181548110620012d157600080fd5b90600052602060002001600091509150505481565b60056020528060005260406000206000915054906101000a900473ffffffffffffffffffffffffffffffffffffffff1681565b60095481565b6000600a6000838152602001908152602001600020805490509050919050565b60016020528060005260406000206000915090505481565b600c6020528060005260406000206000915090505481565b60186020528060005260406000206000915054906101000a900473ffffffffffffffffffffffffffffffffffffffff1681565b600e6020528060005260406000206000915090505481565b60085481565b60106020528060005260406000206000915090505481565b60046020528160005260406000206020528060005260406000206000915091509054906101000a900460ff1681565b60006001806000848152602001908152602001600020546200142a9190620026b1565b601660010154189050919050565b601a81815481106200144957600080fd5b906000526020600020016000915090505481565b6000601260010160009054906101000a900473ffffffffffffffffffffffffffffffffffffffff1690508073ffffffffffffffffffffffffffffffffffffffff1663a9059cbb86856040518363ffffffff1660e01b8152600401620014c492919062002949565b6020604051808303816000875af1158015620014e4573d6000803e3d6000fd5b505050506040513d601f19601f820116820180604052508101906200150a919062002811565b508073ffffffffffffffffffffffffffffffffffffffff16634bbc1bcd30856040518363ffffffff1660e01b81526004016200154892919062002949565b600060405180830381600087803b1580156200156357600080fd5b505af115801562001578573d6000803e3d6000fd5b505050506200158984848462001d7f565b5050505050565b60006005600084815260200190815260200160002060009054906101000a900473ffffffffffffffffffffffffffffffffffffffff1690508073ffffffffffffffffffffffffffffffffffffffff163373ffffffffffffffffffffffffffffffffffffffff161462001639576040517f08c379a0000000000000000000000000000000000000000000000000000000008152600401620016309062002a5e565b60405180910390fd5b60008190506000601860008373ffffffffffffffffffffffffffffffffffffffff1663685771f46040518163ffffffff1660e01b8152600401602060405180830381865afa15801562001690573d6000803e3d6000fd5b505050506040513d601f19601f82011682018060405250810190620016b6919062002505565b815260200190815260200160002060009054906101000a900473ffffffffffffffffffffffffffffffffffffffff1690506000601260010160009054906101000a900473ffffffffffffffffffffffffffffffffffffffff1690508073ffffffffffffffffffffffffffffffffffffffff1663a9059cbb83876040518363ffffffff1660e01b81526004016200174e92919062002949565b6020604051808303816000875af11580156200176e573d6000803e3d6000fd5b505050506040513d601f19601f8201168201806040525081019062001794919062002811565b508073ffffffffffffffffffffffffffffffffffffffff16634bbc1bcd601260020160009054906101000a900473ffffffffffffffffffffffffffffffffffffffff1660016040518363ffffffff1660e01b8152600401620017f8929190620027b3565b600060405180830381600087803b1580156200181357600080fd5b505af115801562001828573d6000803e3d6000fd5b50505050620018378662001e42565b505050505050565b60128060000160009054906101000a900473ffffffffffffffffffffffffffffffffffffffff16908060010160009054906101000a900473ffffffffffffffffffffffffffffffffffffffff16908060020160009054906101000a900473ffffffffffffffffffffffffffffffffffffffff16908060030160009054906101000a900473ffffffffffffffffffffffffffffffffffffffff16905084565b600b6020528060005260406000206000915054906101000a900473ffffffffffffffffffffffffffffffffffffffff1681565b60036020528060005260406000206000915090505481565b600f5481565b60026020528060005260406000206000915090505481565b60005481565b60196020528060005260406000206000915090505481565b60075481565b6000600160026000858152602001908152602001600020546200198e9190620026b1565b60166000015418905080341015620019dd576040517f08c379a0000000000000000000000000000000000000000000000000000000008152600401620019d49062002ad0565b60405180910390fd5b6000601260010160009054906101000a900473ffffffffffffffffffffffffffffffffffffffff169050600062001a148562001407565b905060008273ffffffffffffffffffffffffffffffffffffffff166370a082316018600089815260200190815260200160002060009054906101000a900473ffffffffffffffffffffffffffffffffffffffff166040518263ffffffff1660e01b815260040162001a869190620022d6565b602060405180830381865afa15801562001aa4573d6000803e3d6000fd5b505050506040513d601f19601f8201168201806040525081019062001aca919062002505565b90508181101562001b12576040517f08c379a000000000000000000000000000000000000000000000000000000000815260040162001b099062002b42565b60405180910390fd5b6000805487308860405162001b279062002010565b62001b36949392919062002b64565b604051809103906000f08015801562001b53573d6000803e3d6000fd5b509050600081905062001b6a886000548362001ee3565b8473ffffffffffffffffffffffffffffffffffffffff166342966c68856040518263ffffffff1660e01b815260040162001ba59190620021b5565b600060405180830381600087803b15801562001bc057600080fd5b505af115801562001bd5573d6000803e3d6000fd5b505050508073ffffffffffffffffffffffffffffffffffffffff166108fc349081150290604051600060405180830381858888f1935050505015801562001c20573d6000803e3d6000fd5b505050505050505050565b600081831062001c3c578162001c3e565b825b905092915050565b60016009600082825462001c5b9190620026b1565b92505081905550806007600082825462001c769190620026b1565b92505081905550600a600085815260200190815260200160002083908060018154018082558091505060019003906000526020600020016000909190919091505580600d6000868152602001908152602001600020600082825462001cdc9190620026b1565b9250508190555081600b600086815260200190815260200160002060006101000a81548173ffffffffffffffffffffffffffffffffffffffff021916908373ffffffffffffffffffffffffffffffffffffffff16021790555060016011600086815260200190815260200160002060006101000a81548160ff02191690831515021790555083600e60008581526020019081526020016000208190555050505050565b816007600082825462001d93919062002843565b92505081905550816008600082825462001dae9190620026b1565b925050819055506000600e600085815260200190815260200160002054905082600c6000838152602001908152602001600020600082825462001df29190620026b1565b925050819055506000838362001e09919062002843565b0362001e3c5760006011600086815260200190815260200160002060006101000a81548160ff0219169083151502179055505b50505050565b6000600360008381526020019081526020016000205490506001806000838152602001908152602001600020600082825462001e7f919062002843565b92505081905550600160026000838152602001908152602001600020600082825462001eac9190620026b1565b9250508190555060006006600083815260200190815260200160002060006101000a81548160ff0219169083151502179055505050565b8260036000848152602001908152602001600020819055506001806000858152602001908152602001600020600082825462001f209190620026b1565b92505081905550600160046000848152602001908152602001600020600085815260200190815260200160002060006101000a81548160ff021916908315150217905550806005600084815260200190815260200160002060006101000a81548173ffffffffffffffffffffffffffffffffffffffff021916908373ffffffffffffffffffffffffffffffffffffffff160217905550600160008082825462001fca9190620026b1565b9250508190555060016006600085815260200190815260200160002060006101000a81548160ff021916908315150217905550505050565b610d218062002bb283390190565b6111e580620038d383390190565b600080fd5b6000819050919050565b620020388162002023565b81146200204457600080fd5b50565b60008135905062002058816200202d565b92915050565b6000602082840312156200207757620020766200201e565b5b6000620020878482850162002047565b91505092915050565b60008115159050919050565b620020a78162002090565b82525050565b6000602082019050620020c460008301846200209c565b92915050565b6000819050919050565b620020df81620020ca565b8114620020eb57600080fd5b50565b600081359050620020ff81620020d4565b92915050565b600080600080608085870312156200212257620021216200201e565b5b6000620021328782880162002047565b9450506020620021458782880162002047565b9350506040620021588782880162002047565b92505060606200216b87828801620020ee565b91505092959194509250565b620021828162002023565b82525050565b60006040820190506200219f600083018562002177565b620021ae602083018462002177565b9392505050565b6000602082019050620021cc600083018462002177565b92915050565b600073ffffffffffffffffffffffffffffffffffffffff82169050919050565b6000620021ff82620021d2565b9050919050565b6200221181620021f2565b81146200221d57600080fd5b50565b600081359050620022318162002206565b92915050565b600080604083850312156200225157620022506200201e565b5b6000620022618582860162002220565b9250506020620022748582860162002047565b9150509250929050565b600080604083850312156200229857620022976200201e565b5b6000620022a88582860162002047565b9250506020620022bb8582860162002047565b9150509250929050565b620022d081620021f2565b82525050565b6000602082019050620022ed6000830184620022c5565b92915050565b6000806000806080858703121562002310576200230f6200201e565b5b6000620023208782880162002220565b9450506020620023338782880162002047565b9350506040620023468782880162002047565b9250506060620023598782880162002047565b91505092959194509250565b60006080820190506200237c6000830187620022c5565b6200238b6020830186620022c5565b6200239a6040830185620022c5565b620023a96060830184620022c5565b95945050505050565b60008060408385031215620023cc57620023cb6200201e565b5b6000620023dc8582860162002047565b9250506020620023ef85828601620020ee565b9150509250929050565b600082825260208201905092915050565b7f43616c6c6572206973206e6f7420746865206f776e6572000000000000000000600082015250565b600062002442601783620023f9565b91506200244f826200240a565b602082019050919050565b60006020820190508181036000830152620024758162002433565b9050919050565b7f4e6f74206861766520656e6f756768206d617474657200000000000000000000600082015250565b6000620024b4601683620023f9565b9150620024c1826200247c565b602082019050919050565b60006020820190508181036000830152620024e781620024a5565b9050919050565b600081519050620024ff816200202d565b92915050565b6000602082840312156200251e576200251d6200201e565b5b60006200252e84828501620024ee565b91505092915050565b7f4e6f74206869676820656e6f7567680000000000000000000000000000000000600082015250565b60006200256f600f83620023f9565b91506200257c8262002537565b602082019050919050565b60006020820190508181036000830152620025a28162002560565b9050919050565b7f4e487b7100000000000000000000000000000000000000000000000000000000600052601260045260246000fd5b6000620025e58262002023565b9150620025f28362002023565b925082620026055762002604620025a9565b5b828206905092915050565b7f447261772072617465206e6f7420646976697369626c65000000000000000000600082015250565b600062002648601783620023f9565b9150620026558262002610565b602082019050919050565b600060208201905081810360008301526200267b8162002639565b9050919050565b7f4e487b7100000000000000000000000000000000000000000000000000000000600052601160045260246000fd5b6000620026be8262002023565b9150620026cb8362002023565b9250828201905080821115620026e657620026e562002682565b5b92915050565b7f4e487b7100000000000000000000000000000000000000000000000000000000600052603260045260246000fd5b6000620027288262002023565b9150620027358362002023565b9250828202620027458162002023565b915082820484148315176200275f576200275e62002682565b5b5092915050565b6000819050919050565b6000819050919050565b60006200279b620027956200278f8462002766565b62002770565b62002023565b9050919050565b620027ad816200277a565b82525050565b6000604082019050620027ca6000830185620022c5565b620027d96020830184620027a2565b9392505050565b620027eb8162002090565b8114620027f757600080fd5b50565b6000815190506200280b81620027e0565b92915050565b6000602082840312156200282a57620028296200201e565b5b60006200283a84828501620027fa565b91505092915050565b6000620028508262002023565b91506200285d8362002023565b925082820390508181111562002878576200287762002682565b5b92915050565b60006200288b8262002023565b91507fffffffffffffffffffffffffffffffffffffffffffffffffffffffffffffffff8203620028c057620028bf62002682565b5b600182019050919050565b620028d681620020ca565b82525050565b600060c082019050620028f3600083018962002177565b62002902602083018862002177565b62002911604083018762002177565b62002920606083018662002177565b6200292f6080830185620022c5565b6200293e60a0830184620028cb565b979650505050505050565b6000604082019050620029606000830185620022c5565b6200296f602083018462002177565b9392505050565b7f4e6f7420656e6f756768206d6174746572000000000000000000000000000000600082015250565b6000620029ae601183620023f9565b9150620029bb8262002976565b602082019050919050565b60006020820190508181036000830152620029e1816200299f565b9050919050565b7f43616c6c6572206973206e6f742074686520726967687420436f736d6f53656560008201527f6420636f6e747261637400000000000000000000000000000000000000000000602082015250565b600062002a46602a83620023f9565b915062002a5382620029e8565b604082019050919050565b6000602082019050818103600083015262002a798162002a37565b9050919050565b7f45746865722076616c7565206973206e6f7420656e6f75676800000000000000600082015250565b600062002ab8601983620023f9565b915062002ac58262002a80565b602082019050919050565b6000602082019050818103600083015262002aeb8162002aa9565b9050919050565b7f4d61747465722062616c616e6365206973206e6f7420656e6f75676800000000600082015250565b600062002b2a601c83620023f9565b915062002b378262002af2565b602082019050919050565b6000602082019050818103600083015262002b5d8162002b1b565b9050919050565b600060808201905062002b7b600083018762002177565b62002b8a602083018662002177565b62002b996040830185620022c5565b62002ba86060830184620028cb565b9594505050505056fe60806040523480156200001157600080fd5b5060405162000d2138038062000d21833981810160405281019062000037919062000283565b85600080018190555084600060010181905550836000600201819055508260006003018190555030600060040160006101000a81548173ffffffffffffffffffffffffffffffffffffffff021916908373ffffffffffffffffffffffffffffffffffffffff16021790555033600060050160006101000a81548173ffffffffffffffffffffffffffffffffffffffff021916908373ffffffffffffffffffffffffffffffffffffffff16021790555080600060060181905550600060050160009054906101000a900473ffffffffffffffffffffffffffffffffffffffff16600860006101000a81548173ffffffffffffffffffffffffffffffffffffffff021916908373ffffffffffffffffffffffffffffffffffffffff16021790555081600960006101000a81548173ffffffffffffffffffffffffffffffffffffffff021916908373ffffffffffffffffffffffffffffffffffffffff1602179055505050505050506200031f565b600080fd5b6000819050919050565b620001bd81620001a8565b8114620001c957600080fd5b50565b600081519050620001dd81620001b2565b92915050565b600073ffffffffffffffffffffffffffffffffffffffff82169050919050565b60006200021082620001e3565b9050919050565b620002228162000203565b81146200022e57600080fd5b50565b600081519050620002428162000217565b92915050565b6000819050919050565b6200025d8162000248565b81146200026957600080fd5b50565b6000815190506200027d8162000252565b92915050565b60008060008060008060c08789031215620002a357620002a2620001a3565b5b6000620002b389828a01620001cc565b9650506020620002c689828a01620001cc565b9550506040620002d989828a01620001cc565b9450506060620002ec89828a01620001cc565b9350506080620002ff89828a0162000231565b92505060a06200031289828a016200026c565b9150509295509295509295565b6109f2806200032f6000396000f3fe608060405234801561001057600080fd5b506004361061002b5760003560e01c806327ac1b6514610030575b600080fd5b61004a60048036038101906100459190610563565b61004c565b005b60011515600060070160003373ffffffffffffffffffffffffffffffffffffffff1673ffffffffffffffffffffffffffffffffffffffff16815260200190815260200160002060009054906101000a900460ff161515036100e2576040517f08c379a00000000000000000000000000000000000000000000000000000000081526004016100d990610667565b60405180910390fd5b6000806002015411610129576040517f08c379a0000000000000000000000000000000000000000000000000000000008152600401610120906106d3565b60405180910390fd5b610132836102eb565b50600960009054906101000a900473ffffffffffffffffffffffffffffffffffffffff1673ffffffffffffffffffffffffffffffffffffffff16639cee22b13360008001546000600301546000600201546040518563ffffffff1660e01b81526004016101a2949392919061074d565b600060405180830381600087803b1580156101bc57600080fd5b505af11580156101d0573d6000803e3d6000fd5b50505050600060030154600060020160008282546101ee91906107c1565b925050819055506001600060070160003373ffffffffffffffffffffffffffffffffffffffff1673ffffffffffffffffffffffffffffffffffffffff16815260200190815260200160002060006101000a81548160ff021916908315150217905550600860009054906101000a900473ffffffffffffffffffffffffffffffffffffffff1673ffffffffffffffffffffffffffffffffffffffff16639202c1ec60006001015484846040518463ffffffff1660e01b81526004016102b4939291906108b8565b600060405180830381600087803b1580156102ce57600080fd5b505af11580156102e2573d6000803e3d6000fd5b50505050505050565b600080826040516020016102ff9190610939565b604051602081830303815290604052805190602001209050600060060154811461035e576040517f08c379a00000000000000000000000000000000000000000000000000000000081526004016103559061099c565b60405180910390fd5b6001915050919050565b6000604051905090565b600080fd5b600080fd5b600080fd5b600080fd5b6000601f19601f8301169050919050565b7f4e487b7100000000000000000000000000000000000000000000000000000000600052604160045260246000fd5b6103cf82610386565b810181811067ffffffffffffffff821117156103ee576103ed610397565b5b80604052505050565b6000610401610368565b905061040d82826103c6565b919050565b600067ffffffffffffffff82111561042d5761042c610397565b5b61043682610386565b9050602081019050919050565b82818337600083830152505050565b600061046561046084610412565b6103f7565b90508281526020810184848401111561048157610480610381565b5b61048c848285610443565b509392505050565b600082601f8301126104a9576104a861037c565b5b81356104b9848260208601610452565b91505092915050565b600067ffffffffffffffff8211156104dd576104dc610397565b5b6104e682610386565b9050602081019050919050565b6000610506610501846104c2565b6103f7565b90508281526020810184848401111561052257610521610381565b5b61052d848285610443565b509392505050565b600082601f83011261054a5761054961037c565b5b813561055a8482602086016104f3565b91505092915050565b60008060006060848603121561057c5761057b610372565b5b600084013567ffffffffffffffff81111561059a57610599610377565b5b6105a686828701610494565b935050602084013567ffffffffffffffff8111156105c7576105c6610377565b5b6105d386828701610494565b925050604084013567ffffffffffffffff8111156105f4576105f3610377565b5b61060086828701610535565b9150509250925092565b600082825260208201905092915050565b7f43616e206f6e6c792064726177206f6e63650000000000000000000000000000600082015250565b600061065160128361060a565b915061065c8261061b565b602082019050919050565b6000602082019050818103600083015261068081610644565b9050919050565b7f4e6f2062757474657220746f2064726177000000000000000000000000000000600082015250565b60006106bd60118361060a565b91506106c882610687565b602082019050919050565b600060208201905081810360008301526106ec816106b0565b9050919050565b600073ffffffffffffffffffffffffffffffffffffffff82169050919050565b600061071e826106f3565b9050919050565b61072e81610713565b82525050565b6000819050919050565b61074781610734565b82525050565b60006080820190506107626000830187610725565b61076f602083018661073e565b61077c604083018561073e565b610789606083018461073e565b95945050505050565b7f4e487b7100000000000000000000000000000000000000000000000000000000600052601160045260246000fd5b60006107cc82610734565b91506107d783610734565b92508282039050818111156107ef576107ee610792565b5b92915050565b600081519050919050565b60005b8381101561081e578082015181840152602081019050610803565b60008484015250505050565b6000610835826107f5565b61083f818561060a565b935061084f818560208601610800565b61085881610386565b840191505092915050565b600081519050919050565b600082825260208201905092915050565b600061088a82610863565b610894818561086e565b93506108a4818560208601610800565b6108ad81610386565b840191505092915050565b60006060820190506108cd600083018661073e565b81810360208301526108df818561082a565b905081810360408301526108f3818461087f565b9050949350505050565b600081905092915050565b6000610913826107f5565b61091d81856108fd565b935061092d818560208601610800565b80840191505092915050565b60006109458284610908565b915081905092915050565b7f496e70757420646f6573206e6f74206d61746368207365637265740000000000600082015250565b6000610986601b8361060a565b915061099182610950565b602082019050919050565b600060208201905081810360008301526109b581610979565b905091905056fea2646970667358221220d7ee046c7445c292521445817048f0efb2e8354c57eae6fafebb3ff2f549bfc064736f6c634300081100336080604052604051620011e5380380620011e58339818101604052810190620000299190620002f4565b600033905080600760006101000a81548173ffffffffffffffffffffffffffffffffffffffff021916908373ffffffffffffffffffffffffffffffffffffffff16021790555082600860006101000a81548173ffffffffffffffffffffffffffffffffffffffff021916908373ffffffffffffffffffffffffffffffffffffffff1602179055508460008001819055508360006001018190555034600060020181905550600860009054906101000a900473ffffffffffffffffffffffffffffffffffffffff1673ffffffffffffffffffffffffffffffffffffffff166334fc1228856040518263ffffffff1660e01b81526004016200012a919062000377565b602060405180830381865afa15801562000148573d6000803e3d6000fd5b505050506040513d601f19601f820116820180604052508101906200016e919062000394565b60006003018190555030600060040160006101000a81548173ffffffffffffffffffffffffffffffffffffffff021916908373ffffffffffffffffffffffffffffffffffffffff16021790555080600060050160006101000a81548173ffffffffffffffffffffffffffffffffffffffff021916908373ffffffffffffffffffffffffffffffffffffffff160217905550816000600601819055505050505050620003c6565b600080fd5b6000819050919050565b6200022e8162000219565b81146200023a57600080fd5b50565b6000815190506200024e8162000223565b92915050565b600073ffffffffffffffffffffffffffffffffffffffff82169050919050565b6000620002818262000254565b9050919050565b620002938162000274565b81146200029f57600080fd5b50565b600081519050620002b38162000288565b92915050565b6000819050919050565b620002ce81620002b9565b8114620002da57600080fd5b50565b600081519050620002ee81620002c3565b92915050565b6000806000806080858703121562000311576200031062000214565b5b600062000321878288016200023d565b945050602062000334878288016200023d565b93505060406200034787828801620002a2565b92505060606200035a87828801620002dd565b91505092959194509250565b620003718162000219565b82525050565b60006020820190506200038e600083018462000366565b92915050565b600060208284031215620003ad57620003ac62000214565b5b6000620003bd848285016200023d565b91505092915050565b610e0f80620003d66000396000f3fe608060405234801561001057600080fd5b506004361061004c5760003560e01c8063685771f4146100515780637d94792a1461006f578063956c2dc314610093578063c5d12c97146100af575b600080fd5b6100596100cd565b6040516100669190610656565b60405180910390f35b6100776100d9565b60405161008a97969594939291906106cb565b60405180910390f35b6100ad60048036038101906100a89190610935565b610149565b005b6100b76105b4565b6040516100c49190610656565b60405180910390f35b60008060010154905090565b60008060000154908060010154908060020154908060030154908060040160009054906101000a900473ffffffffffffffffffffffffffffffffffffffff16908060050160009054906101000a900473ffffffffffffffffffffffffffffffffffffffff16908060060154905087565b610152836105c0565b50600860009054906101000a900473ffffffffffffffffffffffffffffffffffffffff1673ffffffffffffffffffffffffffffffffffffffff1663f27890f260008001546040518263ffffffff1660e01b81526004016101b29190610656565b600060405180830381600087803b1580156101cc57600080fd5b505af11580156101e0573d6000803e3d6000fd5b50505050600760009054906101000a900473ffffffffffffffffffffffffffffffffffffffff1673ffffffffffffffffffffffffffffffffffffffff1663a0e12efe83836040518363ffffffff1660e01b8152600401610241929190610ab0565b600060405180830381600087803b15801561025b57600080fd5b505af115801561026f573d6000803e3d6000fd5b505050506000600860009054906101000a900473ffffffffffffffffffffffffffffffffffffffff1673ffffffffffffffffffffffffffffffffffffffff1663b8a9736d6040518163ffffffff1660e01b8152600401602060405180830381865afa1580156102e2573d6000803e3d6000fd5b505050506040513d601f19601f820116820180604052508101906103069190610b13565b90506000600860009054906101000a900473ffffffffffffffffffffffffffffffffffffffff1673ffffffffffffffffffffffffffffffffffffffff166307604b1a6040518163ffffffff1660e01b8152600401602060405180830381865afa158015610377573d6000803e3d6000fd5b505050506040513d601f19601f8201168201806040525081019061039b9190610b6c565b73ffffffffffffffffffffffffffffffffffffffff16826040516103be90610bca565b60006040518083038185875af1925050503d80600081146103fb576040519150601f19603f3d011682016040523d82523d6000602084013e610400565b606091505b5050905080610444576040517f08c379a000000000000000000000000000000000000000000000000000000000815260040161043b90610c2b565b60405180910390fd5b6000826000600201546104579190610c7a565b90506000600760009054906101000a900473ffffffffffffffffffffffffffffffffffffffff1673ffffffffffffffffffffffffffffffffffffffff16636352211e6000600101546040518263ffffffff1660e01b81526004016104bb9190610656565b602060405180830381865afa1580156104d8573d6000803e3d6000fd5b505050506040513d601f19601f820116820180604052508101906104fc9190610b6c565b905060008173ffffffffffffffffffffffffffffffffffffffff168360405161052490610bca565b60006040518083038185875af1925050503d8060008114610561576040519150601f19603f3d011682016040523d82523d6000602084013e610566565b606091505b50509050806105aa576040517f08c379a00000000000000000000000000000000000000000000000000000000081526004016105a190610cfa565b60405180910390fd5b5050505050505050565b60008060030154905090565b600080826040516020016105d49190610d56565b6040516020818303038152906040528051906020012090506000600601548114610633576040517f08c379a000000000000000000000000000000000000000000000000000000000815260040161062a90610db9565b60405180910390fd5b6001915050919050565b6000819050919050565b6106508161063d565b82525050565b600060208201905061066b6000830184610647565b92915050565b600073ffffffffffffffffffffffffffffffffffffffff82169050919050565b600061069c82610671565b9050919050565b6106ac81610691565b82525050565b6000819050919050565b6106c5816106b2565b82525050565b600060e0820190506106e0600083018a610647565b6106ed6020830189610647565b6106fa6040830188610647565b6107076060830187610647565b61071460808301866106a3565b61072160a08301856106a3565b61072e60c08301846106bc565b98975050505050505050565b6000604051905090565b600080fd5b600080fd5b600080fd5b600080fd5b6000601f19601f8301169050919050565b7f4e487b7100000000000000000000000000000000000000000000000000000000600052604160045260246000fd5b6107a182610758565b810181811067ffffffffffffffff821117156107c0576107bf610769565b5b80604052505050565b60006107d361073a565b90506107df8282610798565b919050565b600067ffffffffffffffff8211156107ff576107fe610769565b5b61080882610758565b9050602081019050919050565b82818337600083830152505050565b6000610837610832846107e4565b6107c9565b90508281526020810184848401111561085357610852610753565b5b61085e848285610815565b509392505050565b600082601f83011261087b5761087a61074e565b5b813561088b848260208601610824565b91505092915050565b600067ffffffffffffffff8211156108af576108ae610769565b5b6108b882610758565b9050602081019050919050565b60006108d86108d384610894565b6107c9565b9050828152602081018484840111156108f4576108f3610753565b5b6108ff848285610815565b509392505050565b600082601f83011261091c5761091b61074e565b5b813561092c8482602086016108c5565b91505092915050565b60008060006060848603121561094e5761094d610744565b5b600084013567ffffffffffffffff81111561096c5761096b610749565b5b61097886828701610866565b935050602084013567ffffffffffffffff81111561099957610998610749565b5b6109a586828701610866565b925050604084013567ffffffffffffffff8111156109c6576109c5610749565b5b6109d286828701610907565b9150509250925092565b600081519050919050565b600082825260208201905092915050565b60005b83811015610a165780820151818401526020810190506109fb565b60008484015250505050565b6000610a2d826109dc565b610a3781856109e7565b9350610a478185602086016109f8565b610a5081610758565b840191505092915050565b600081519050919050565b600082825260208201905092915050565b6000610a8282610a5b565b610a8c8185610a66565b9350610a9c8185602086016109f8565b610aa581610758565b840191505092915050565b60006040820190508181036000830152610aca8185610a22565b90508181036020830152610ade8184610a77565b90509392505050565b610af08161063d565b8114610afb57600080fd5b50565b600081519050610b0d81610ae7565b92915050565b600060208284031215610b2957610b28610744565b5b6000610b3784828501610afe565b91505092915050565b610b4981610691565b8114610b5457600080fd5b50565b600081519050610b6681610b40565b92915050565b600060208284031215610b8257610b81610744565b5b6000610b9084828501610b57565b91505092915050565b600081905092915050565b50565b6000610bb4600083610b99565b9150610bbf82610ba4565b600082019050919050565b6000610bd582610ba7565b9150819050919050565b7f4574686572206e6f742073656e7420746f205472656173757279000000000000600082015250565b6000610c15601a836109e7565b9150610c2082610bdf565b602082019050919050565b60006020820190508181036000830152610c4481610c08565b9050919050565b7f4e487b7100000000000000000000000000000000000000000000000000000000600052601160045260246000fd5b6000610c858261063d565b9150610c908361063d565b9250828203905081811115610ca857610ca7610c4b565b5b92915050565b7f4574686572206e6f742073656e7420746f20706172656e74206e757400000000600082015250565b6000610ce4601c836109e7565b9150610cef82610cae565b602082019050919050565b60006020820190508181036000830152610d1381610cd7565b9050919050565b600081905092915050565b6000610d30826109dc565b610d3a8185610d1a565b9350610d4a8185602086016109f8565b80840191505092915050565b6000610d628284610d25565b915081905092915050565b7f496e70757420646f6573206e6f74206d61746368207365637265740000000000600082015250565b6000610da3601b836109e7565b9150610dae82610d6d565b602082019050919050565b60006020820190508181036000830152610dd281610d96565b905091905056fea264697066735822122080c5dd1adf997f9ea04fac5b9e8fa12658ab76bd5e827d481408d316438d55a964736f6c63430008110033a26469706673582212201fd334f89d8fbbc5d6920c4f5219128279e5b09efd56d3359a1670ed9753151764736f6c63430008110033",
  "immutableReferences": {},
  "source": "// SPDX-License-Identifier: MIT\npragma solidity ^0.8.7;\n\nimport \"openzeppelin-solidity/contracts/access/Ownable.sol\";\nimport \"./CosmoMatter.sol\";\nimport \"./CosmoBang.sol\";\n\n/**\n * CosmoUniverse is the top contract for the developer to create the planned system.\n *\n */\n contract CosmoUniverse is Ownable {\n\n    address public SYSTEM_ADDRESS;\n    address public MATTER_ADDRESS;\n\n    struct Cosmo {\n        uint256 cosmoId;\n        bool status;\n        string name;\n        string symbol;\n        address cosmo_location;\n        address treasury_location;\n    }\n    Cosmo cosmo;\n    Cosmo[] public cosmos;\n\n    CosmoMatter matter;\n    CosmoBang bang;\n\n    constructor(\n        address _systemAddress,\n        string memory _matterName,\n        string memory _matterSymbol,\n        uint256 _entityPrice,\n        uint256 _matterRate\n        )\n    {\n        SYSTEM_ADDRESS = _systemAddress;\n        matter = new CosmoMatter(_matterName, _matterSymbol);\n        MATTER_ADDRESS = address(matter);\n        bang = new CosmoBang(\n            SYSTEM_ADDRESS,\n            MATTER_ADDRESS,\n            _entityPrice,\n             _matterRate\n        );\n    }\n\n    /**\n     * The function starts the CosmoNuts universe.\n     * The amount of matter created is dependent on the desired number of NFT tokens needed and their rate.\n     * Total matter created is ul;timately equal to number of NFT tokens times the selected rate.\n     */\n    function bigBang(\n        string memory _cosmosName,\n        string memory _cosmosSymbol,\n        uint256 _desiredEntities\n    ) public onlyOwner {\n        bang.nutBang(\n            _cosmosName,\n            _cosmosSymbol,\n            _desiredEntities\n        );\n    }\n\n\n}\n",
  "sourcePath": "/home/redlentils/Seafile/Websites/avatarnft/contracts/CosmoUniverse.sol",
  "compiler": {
    "name": "solc",
    "version": "0.8.17+commit.8df45f5f.Emscripten.clang"
  },
  "schemaVersion": "3.4.10",
  "updatedAt": "2022-10-06T18:37:19.523Z",
  "devdoc": {
    "kind": "dev",
    "methods": {
      "owner()": {
        "details": "Returns the address of the current owner."
      },
      "renounceOwnership()": {
        "details": "Leaves the contract without owner. It will not be possible to call `onlyOwner` functions anymore. Can only be called by the current owner. NOTE: Renouncing ownership will leave the contract without an owner, thereby removing any functionality that is only available to the owner."
      },
      "transferOwnership(address)": {
        "details": "Transfers ownership of the contract to a new account (`newOwner`). Can only be called by the current owner."
      }
    },
    "version": 1
  },
  "userdoc": {
    "kind": "user",
    "methods": {
      "bigBang(string,string,uint256)": {
        "notice": "The function starts the CosmoNuts universe. The amount of matter created is dependent on the desired number of NFT tokens needed and their rate. Total matter created is ul;timately equal to number of NFT tokens times the selected rate."
      }
    },
    "notice": "CosmoUniverse is the top contract for the developer to create the planned system.",
    "version": 1
  }
}