{
  "contractName": "CosmoCreation",
  "abi": [
    {
      "inputs": [
        {
          "internalType": "string",
          "name": "_name",
          "type": "string"
        },
        {
          "internalType": "string",
          "name": "_symbol",
          "type": "string"
        },
        {
          "internalType": "address",
          "name": "_vaultAddress",
          "type": "address"
        }
      ],
      "stateMutability": "nonpayable",
      "type": "constructor"
    },
    {
      "anonymous": false,
      "inputs": [
        {
          "indexed": true,
          "internalType": "address",
          "name": "owner",
          "type": "address"
        },
        {
          "indexed": true,
          "internalType": "address",
          "name": "approved",
          "type": "address"
        },
        {
          "indexed": true,
          "internalType": "uint256",
          "name": "tokenId",
          "type": "uint256"
        }
      ],
      "name": "Approval",
      "type": "event"
    },
    {
      "anonymous": false,
      "inputs": [
        {
          "indexed": true,
          "internalType": "address",
          "name": "owner",
          "type": "address"
        },
        {
          "indexed": true,
          "internalType": "address",
          "name": "operator",
          "type": "address"
        },
        {
          "indexed": false,
          "internalType": "bool",
          "name": "approved",
          "type": "bool"
        }
      ],
      "name": "ApprovalForAll",
      "type": "event"
    },
    {
      "anonymous": false,
      "inputs": [
        {
          "indexed": true,
          "internalType": "address",
          "name": "previousOwner",
          "type": "address"
        },
        {
          "indexed": true,
          "internalType": "address",
          "name": "newOwner",
          "type": "address"
        }
      ],
      "name": "OwnershipTransferred",
      "type": "event"
    },
    {
      "anonymous": false,
      "inputs": [
        {
          "indexed": true,
          "internalType": "address",
          "name": "from",
          "type": "address"
        },
        {
          "indexed": true,
          "internalType": "address",
          "name": "to",
          "type": "address"
        },
        {
          "indexed": true,
          "internalType": "uint256",
          "name": "tokenId",
          "type": "uint256"
        }
      ],
      "name": "Transfer",
      "type": "event"
    },
    {
      "inputs": [
        {
          "internalType": "address",
          "name": "to",
          "type": "address"
        },
        {
          "internalType": "uint256",
          "name": "tokenId",
          "type": "uint256"
        }
      ],
      "name": "approve",
      "outputs": [],
      "stateMutability": "nonpayable",
      "type": "function"
    },
    {
      "inputs": [
        {
          "internalType": "address",
          "name": "owner",
          "type": "address"
        }
      ],
      "name": "balanceOf",
      "outputs": [
        {
          "internalType": "uint256",
          "name": "",
          "type": "uint256"
        }
      ],
      "stateMutability": "view",
      "type": "function"
    },
    {
      "inputs": [
        {
          "internalType": "uint256",
          "name": "tokenId",
          "type": "uint256"
        }
      ],
      "name": "getApproved",
      "outputs": [
        {
          "internalType": "address",
          "name": "",
          "type": "address"
        }
      ],
      "stateMutability": "view",
      "type": "function"
    },
    {
      "inputs": [
        {
          "internalType": "address",
          "name": "owner",
          "type": "address"
        },
        {
          "internalType": "address",
          "name": "operator",
          "type": "address"
        }
      ],
      "name": "isApprovedForAll",
      "outputs": [
        {
          "internalType": "bool",
          "name": "",
          "type": "bool"
        }
      ],
      "stateMutability": "view",
      "type": "function"
    },
    {
      "inputs": [],
      "name": "name",
      "outputs": [
        {
          "internalType": "string",
          "name": "",
          "type": "string"
        }
      ],
      "stateMutability": "view",
      "type": "function"
    },
    {
      "inputs": [],
      "name": "owner",
      "outputs": [
        {
          "internalType": "address",
          "name": "",
          "type": "address"
        }
      ],
      "stateMutability": "view",
      "type": "function"
    },
    {
      "inputs": [
        {
          "internalType": "uint256",
          "name": "tokenId",
          "type": "uint256"
        }
      ],
      "name": "ownerOf",
      "outputs": [
        {
          "internalType": "address",
          "name": "",
          "type": "address"
        }
      ],
      "stateMutability": "view",
      "type": "function"
    },
    {
      "inputs": [],
      "name": "renounceOwnership",
      "outputs": [],
      "stateMutability": "nonpayable",
      "type": "function"
    },
    {
      "inputs": [
        {
          "internalType": "address",
          "name": "from",
          "type": "address"
        },
        {
          "internalType": "address",
          "name": "to",
          "type": "address"
        },
        {
          "internalType": "uint256",
          "name": "tokenId",
          "type": "uint256"
        }
      ],
      "name": "safeTransferFrom",
      "outputs": [],
      "stateMutability": "nonpayable",
      "type": "function"
    },
    {
      "inputs": [
        {
          "internalType": "address",
          "name": "from",
          "type": "address"
        },
        {
          "internalType": "address",
          "name": "to",
          "type": "address"
        },
        {
          "internalType": "uint256",
          "name": "tokenId",
          "type": "uint256"
        },
        {
          "internalType": "bytes",
          "name": "_data",
          "type": "bytes"
        }
      ],
      "name": "safeTransferFrom",
      "outputs": [],
      "stateMutability": "nonpayable",
      "type": "function"
    },
    {
      "inputs": [
        {
          "internalType": "address",
          "name": "operator",
          "type": "address"
        },
        {
          "internalType": "bool",
          "name": "approved",
          "type": "bool"
        }
      ],
      "name": "setApprovalForAll",
      "outputs": [],
      "stateMutability": "nonpayable",
      "type": "function"
    },
    {
      "inputs": [],
      "name": "symbol",
      "outputs": [
        {
          "internalType": "string",
          "name": "",
          "type": "string"
        }
      ],
      "stateMutability": "view",
      "type": "function"
    },
    {
      "inputs": [
        {
          "internalType": "uint256",
          "name": "index",
          "type": "uint256"
        }
      ],
      "name": "tokenByIndex",
      "outputs": [
        {
          "internalType": "uint256",
          "name": "",
          "type": "uint256"
        }
      ],
      "stateMutability": "view",
      "type": "function"
    },
    {
      "inputs": [
        {
          "internalType": "address",
          "name": "owner",
          "type": "address"
        },
        {
          "internalType": "uint256",
          "name": "index",
          "type": "uint256"
        }
      ],
      "name": "tokenOfOwnerByIndex",
      "outputs": [
        {
          "internalType": "uint256",
          "name": "",
          "type": "uint256"
        }
      ],
      "stateMutability": "view",
      "type": "function"
    },
    {
      "inputs": [],
      "name": "totalSupply",
      "outputs": [
        {
          "internalType": "uint256",
          "name": "",
          "type": "uint256"
        }
      ],
      "stateMutability": "view",
      "type": "function"
    },
    {
      "inputs": [
        {
          "internalType": "address",
          "name": "from",
          "type": "address"
        },
        {
          "internalType": "address",
          "name": "to",
          "type": "address"
        },
        {
          "internalType": "uint256",
          "name": "tokenId",
          "type": "uint256"
        }
      ],
      "name": "transferFrom",
      "outputs": [],
      "stateMutability": "nonpayable",
      "type": "function"
    },
    {
      "inputs": [
        {
          "internalType": "address",
          "name": "newOwner",
          "type": "address"
        }
      ],
      "name": "transferOwnership",
      "outputs": [],
      "stateMutability": "nonpayable",
      "type": "function"
    },
    {
      "inputs": [
        {
          "internalType": "string",
          "name": "_nutCID",
          "type": "string"
        }
      ],
      "name": "mintNut",
      "outputs": [],
      "stateMutability": "payable",
      "type": "function"
    },
    {
      "inputs": [
        {
          "internalType": "uint256",
          "name": "tokenId",
          "type": "uint256"
        }
      ],
      "name": "tokenURI",
      "outputs": [
        {
          "internalType": "string",
          "name": "",
          "type": "string"
        }
      ],
      "stateMutability": "view",
      "type": "function"
    },
    {
      "inputs": [
        {
          "internalType": "bytes4",
          "name": "interfaceId",
          "type": "bytes4"
        }
      ],
      "name": "supportsInterface",
      "outputs": [
        {
          "internalType": "bool",
          "name": "",
          "type": "bool"
        }
      ],
      "stateMutability": "view",
      "type": "function"
    }
  ],
  "bytecode": "0x60806040523480156200001157600080fd5b506040516200460e3803806200460e83398181016040528101906200003791906200038f565b828281600090816200004a919062000674565b5080600190816200005c919062000674565b5050506200007f62000073620000c960201b60201c565b620000d160201b60201c565b80600c60006101000a81548173ffffffffffffffffffffffffffffffffffffffff021916908373ffffffffffffffffffffffffffffffffffffffff1602179055505050506200075b565b600033905090565b6000600b60009054906101000a900473ffffffffffffffffffffffffffffffffffffffff16905081600b60006101000a81548173ffffffffffffffffffffffffffffffffffffffff021916908373ffffffffffffffffffffffffffffffffffffffff1602179055508173ffffffffffffffffffffffffffffffffffffffff168173ffffffffffffffffffffffffffffffffffffffff167f8be0079c531659141344cd1fd0a4f28419497f9722a3daafe3b4186f6b6457e060405160405180910390a35050565b6000604051905090565b600080fd5b600080fd5b600080fd5b600080fd5b6000601f19601f8301169050919050565b7f4e487b7100000000000000000000000000000000000000000000000000000000600052604160045260246000fd5b6200020082620001b5565b810181811067ffffffffffffffff82111715620002225762000221620001c6565b5b80604052505050565b60006200023762000197565b9050620002458282620001f5565b919050565b600067ffffffffffffffff821115620002685762000267620001c6565b5b6200027382620001b5565b9050602081019050919050565b60005b83811015620002a057808201518184015260208101905062000283565b60008484015250505050565b6000620002c3620002bd846200024a565b6200022b565b905082815260208101848484011115620002e257620002e1620001b0565b5b620002ef84828562000280565b509392505050565b600082601f8301126200030f576200030e620001ab565b5b815162000321848260208601620002ac565b91505092915050565b600073ffffffffffffffffffffffffffffffffffffffff82169050919050565b600062000357826200032a565b9050919050565b62000369816200034a565b81146200037557600080fd5b50565b60008151905062000389816200035e565b92915050565b600080600060608486031215620003ab57620003aa620001a1565b5b600084015167ffffffffffffffff811115620003cc57620003cb620001a6565b5b620003da86828701620002f7565b935050602084015167ffffffffffffffff811115620003fe57620003fd620001a6565b5b6200040c86828701620002f7565b92505060406200041f8682870162000378565b9150509250925092565b600081519050919050565b7f4e487b7100000000000000000000000000000000000000000000000000000000600052602260045260246000fd5b600060028204905060018216806200047c57607f821691505b60208210810362000492576200049162000434565b5b50919050565b60008190508160005260206000209050919050565b60006020601f8301049050919050565b600082821b905092915050565b600060088302620004fc7fffffffffffffffffffffffffffffffffffffffffffffffffffffffffffffffff82620004bd565b620005088683620004bd565b95508019841693508086168417925050509392505050565b6000819050919050565b6000819050919050565b6000620005556200054f620005498462000520565b6200052a565b62000520565b9050919050565b6000819050919050565b620005718362000534565b6200058962000580826200055c565b848454620004ca565b825550505050565b600090565b620005a062000591565b620005ad81848462000566565b505050565b5b81811015620005d557620005c960008262000596565b600181019050620005b3565b5050565b601f8211156200062457620005ee8162000498565b620005f984620004ad565b8101602085101562000609578190505b620006216200061885620004ad565b830182620005b2565b50505b505050565b600082821c905092915050565b6000620006496000198460080262000629565b1980831691505092915050565b600062000664838362000636565b9150826002028217905092915050565b6200067f8262000429565b67ffffffffffffffff8111156200069b576200069a620001c6565b5b620006a7825462000463565b620006b4828285620005d9565b600060209050601f831160018114620006ec5760008415620006d7578287015190505b620006e3858262000656565b86555062000753565b601f198416620006fc8662000498565b60005b828110156200072657848901518255600182019150602085019450602081019050620006ff565b8683101562000746578489015162000742601f89168262000636565b8355505b6001600288020188555050505b505050505050565b613ea3806200076b6000396000f3fe60806040526004361061011f5760003560e01c806370a08231116100a0578063a22cb46511610064578063a22cb465146103ec578063b88d4fde14610415578063c87b56dd1461043e578063e985e9c51461047b578063f2fde38b146104b85761011f565b806370a0823114610326578063715018a6146103635780638da5cb5b1461037a57806395d89b41146103a557806395f04d05146103d05761011f565b806323b872dd116100e757806323b872dd1461021d5780632f745c591461024657806342842e0e146102835780634f6ccce7146102ac5780636352211e146102e95761011f565b806301ffc9a71461012457806306fdde0314610161578063081812fc1461018c578063095ea7b3146101c957806318160ddd146101f2575b600080fd5b34801561013057600080fd5b5061014b600480360381019061014691906125d8565b6104e1565b6040516101589190612620565b60405180910390f35b34801561016d57600080fd5b506101766104f3565b60405161018391906126cb565b60405180910390f35b34801561019857600080fd5b506101b360048036038101906101ae9190612723565b610585565b6040516101c09190612791565b60405180910390f35b3480156101d557600080fd5b506101f060048036038101906101eb91906127d8565b61060a565b005b3480156101fe57600080fd5b50610207610721565b6040516102149190612827565b60405180910390f35b34801561022957600080fd5b50610244600480360381019061023f9190612842565b61072e565b005b34801561025257600080fd5b5061026d600480360381019061026891906127d8565b61078e565b60405161027a9190612827565b60405180910390f35b34801561028f57600080fd5b506102aa60048036038101906102a59190612842565b610833565b005b3480156102b857600080fd5b506102d360048036038101906102ce9190612723565b610853565b6040516102e09190612827565b60405180910390f35b3480156102f557600080fd5b50610310600480360381019061030b9190612723565b6108c4565b60405161031d9190612791565b60405180910390f35b34801561033257600080fd5b5061034d60048036038101906103489190612895565b610975565b60405161035a9190612827565b60405180910390f35b34801561036f57600080fd5b50610378610a2c565b005b34801561038657600080fd5b5061038f610ab4565b60405161039c9190612791565b60405180910390f35b3480156103b157600080fd5b506103ba610ade565b6040516103c791906126cb565b60405180910390f35b6103ea60048036038101906103e591906129f7565b610b70565b005b3480156103f857600080fd5b50610413600480360381019061040e9190612a6c565b610e62565b005b34801561042157600080fd5b5061043c60048036038101906104379190612b4d565b610e78565b005b34801561044a57600080fd5b5061046560048036038101906104609190612723565b610eda565b60405161047291906126cb565b60405180910390f35b34801561048757600080fd5b506104a2600480360381019061049d9190612bd0565b610eec565b6040516104af9190612620565b60405180910390f35b3480156104c457600080fd5b506104df60048036038101906104da9190612895565b610f80565b005b60006104ec82611077565b9050919050565b60606000805461050290612c3f565b80601f016020809104026020016040519081016040528092919081815260200182805461052e90612c3f565b801561057b5780601f106105505761010080835404028352916020019161057b565b820191906000526020600020905b81548152906001019060200180831161055e57829003601f168201915b5050505050905090565b6000610590826110f1565b6105cf576040517f08c379a00000000000000000000000000000000000000000000000000000000081526004016105c690612ce2565b60405180910390fd5b6004600083815260200190815260200160002060009054906101000a900473ffffffffffffffffffffffffffffffffffffffff169050919050565b6000610615826108c4565b90508073ffffffffffffffffffffffffffffffffffffffff168373ffffffffffffffffffffffffffffffffffffffff1603610685576040517f08c379a000000000000000000000000000000000000000000000000000000000815260040161067c90612d74565b60405180910390fd5b8073ffffffffffffffffffffffffffffffffffffffff166106a461115d565b73ffffffffffffffffffffffffffffffffffffffff1614806106d357506106d2816106cd61115d565b610eec565b5b610712576040517f08c379a000000000000000000000000000000000000000000000000000000000815260040161070990612e06565b60405180910390fd5b61071c8383611165565b505050565b6000600880549050905090565b61073f61073961115d565b8261121e565b61077e576040517f08c379a000000000000000000000000000000000000000000000000000000000815260040161077590612e98565b60405180910390fd5b6107898383836112fc565b505050565b600061079983610975565b82106107da576040517f08c379a00000000000000000000000000000000000000000000000000000000081526004016107d190612f2a565b60405180910390fd5b600660008473ffffffffffffffffffffffffffffffffffffffff1673ffffffffffffffffffffffffffffffffffffffff168152602001908152602001600020600083815260200190815260200160002054905092915050565b61084e83838360405180602001604052806000815250610e78565b505050565b600061085d610721565b821061089e576040517f08c379a000000000000000000000000000000000000000000000000000000000815260040161089590612fbc565b60405180910390fd5b600882815481106108b2576108b1612fdc565b5b90600052602060002001549050919050565b6000806002600084815260200190815260200160002060009054906101000a900473ffffffffffffffffffffffffffffffffffffffff169050600073ffffffffffffffffffffffffffffffffffffffff168173ffffffffffffffffffffffffffffffffffffffff160361096c576040517f08c379a00000000000000000000000000000000000000000000000000000000081526004016109639061307d565b60405180910390fd5b80915050919050565b60008073ffffffffffffffffffffffffffffffffffffffff168273ffffffffffffffffffffffffffffffffffffffff16036109e5576040517f08c379a00000000000000000000000000000000000000000000000000000000081526004016109dc9061310f565b60405180910390fd5b600360008373ffffffffffffffffffffffffffffffffffffffff1673ffffffffffffffffffffffffffffffffffffffff168152602001908152602001600020549050919050565b610a3461115d565b73ffffffffffffffffffffffffffffffffffffffff16610a52610ab4565b73ffffffffffffffffffffffffffffffffffffffff1614610aa8576040517f08c379a0000000000000000000000000000000000000000000000000000000008152600401610a9f9061317b565b60405180910390fd5b610ab26000611562565b565b6000600b60009054906101000a900473ffffffffffffffffffffffffffffffffffffffff16905090565b606060018054610aed90612c3f565b80601f0160208091040260200160405190810160405280929190818152602001828054610b1990612c3f565b8015610b665780601f10610b3b57610100808354040283529160200191610b66565b820191906000526020600020905b815481529060010190602001808311610b4957829003601f168201915b5050505050905090565b600c60009054906101000a900473ffffffffffffffffffffffffffffffffffffffff1673ffffffffffffffffffffffffffffffffffffffff16630a82f53b6040518163ffffffff1660e01b8152600401602060405180830381865afa158015610bdd573d6000803e3d6000fd5b505050506040513d601f19601f82011682018060405250810190610c0191906131b0565b610c40576040517f08c379a0000000000000000000000000000000000000000000000000000000008152600401610c3790613229565b60405180910390fd5b600c60009054906101000a900473ffffffffffffffffffffffffffffffffffffffff1673ffffffffffffffffffffffffffffffffffffffff1663f2b97ee26040518163ffffffff1660e01b8152600401602060405180830381865afa158015610cad573d6000803e3d6000fd5b505050506040513d601f19601f82011682018060405250810190610cd1919061325e565b610cd9610721565b10610d19576040517f08c379a0000000000000000000000000000000000000000000000000000000008152600401610d10906132d7565b60405180910390fd5b610dba600c60009054906101000a900473ffffffffffffffffffffffffffffffffffffffff1673ffffffffffffffffffffffffffffffffffffffff166307604b1a6040518163ffffffff1660e01b8152600401602060405180830381865afa158015610d89573d6000803e3d6000fd5b505050506040513d601f19601f82011682018060405250810190610dad919061330c565b610db5610721565b611628565b610dcb610dc5610721565b82611646565b600c60009054906101000a900473ffffffffffffffffffffffffffffffffffffffff1673ffffffffffffffffffffffffffffffffffffffff1663347518a8610e11610721565b6040518263ffffffff1660e01b8152600401610e2d9190612827565b600060405180830381600087803b158015610e4757600080fd5b505af1158015610e5b573d6000803e3d6000fd5b5050505050565b610e74610e6d61115d565b83836116b3565b5050565b610e89610e8361115d565b8361121e565b610ec8576040517f08c379a0000000000000000000000000000000000000000000000000000000008152600401610ebf90612e98565b60405180910390fd5b610ed48484848461181f565b50505050565b6060610ee58261187b565b9050919050565b6000600560008473ffffffffffffffffffffffffffffffffffffffff1673ffffffffffffffffffffffffffffffffffffffff16815260200190815260200160002060008373ffffffffffffffffffffffffffffffffffffffff1673ffffffffffffffffffffffffffffffffffffffff16815260200190815260200160002060009054906101000a900460ff16905092915050565b610f8861115d565b73ffffffffffffffffffffffffffffffffffffffff16610fa6610ab4565b73ffffffffffffffffffffffffffffffffffffffff1614610ffc576040517f08c379a0000000000000000000000000000000000000000000000000000000008152600401610ff39061317b565b60405180910390fd5b600073ffffffffffffffffffffffffffffffffffffffff168173ffffffffffffffffffffffffffffffffffffffff160361106b576040517f08c379a0000000000000000000000000000000000000000000000000000000008152600401611062906133ab565b60405180910390fd5b61107481611562565b50565b60007f780e9d63000000000000000000000000000000000000000000000000000000007bffffffffffffffffffffffffffffffffffffffffffffffffffffffff1916827bffffffffffffffffffffffffffffffffffffffffffffffffffffffff191614806110ea57506110e9826119cc565b5b9050919050565b60008073ffffffffffffffffffffffffffffffffffffffff166002600084815260200190815260200160002060009054906101000a900473ffffffffffffffffffffffffffffffffffffffff1673ffffffffffffffffffffffffffffffffffffffff1614159050919050565b600033905090565b816004600083815260200190815260200160002060006101000a81548173ffffffffffffffffffffffffffffffffffffffff021916908373ffffffffffffffffffffffffffffffffffffffff160217905550808273ffffffffffffffffffffffffffffffffffffffff166111d8836108c4565b73ffffffffffffffffffffffffffffffffffffffff167f8c5be1e5ebec7d5bd14f71427d1e84f3dd0314c0f7b2291e5b200ac8c7c3b92560405160405180910390a45050565b6000611229826110f1565b611268576040517f08c379a000000000000000000000000000000000000000000000000000000000815260040161125f9061343d565b60405180910390fd5b6000611273836108c4565b90508073ffffffffffffffffffffffffffffffffffffffff168473ffffffffffffffffffffffffffffffffffffffff1614806112b557506112b48185610eec565b5b806112f357508373ffffffffffffffffffffffffffffffffffffffff166112db84610585565b73ffffffffffffffffffffffffffffffffffffffff16145b91505092915050565b8273ffffffffffffffffffffffffffffffffffffffff1661131c826108c4565b73ffffffffffffffffffffffffffffffffffffffff1614611372576040517f08c379a0000000000000000000000000000000000000000000000000000000008152600401611369906134cf565b60405180910390fd5b600073ffffffffffffffffffffffffffffffffffffffff168273ffffffffffffffffffffffffffffffffffffffff16036113e1576040517f08c379a00000000000000000000000000000000000000000000000000000000081526004016113d890613561565b60405180910390fd5b6113ec838383611aae565b6113f7600082611165565b6001600360008573ffffffffffffffffffffffffffffffffffffffff1673ffffffffffffffffffffffffffffffffffffffff168152602001908152602001600020600082825461144791906135b0565b925050819055506001600360008473ffffffffffffffffffffffffffffffffffffffff1673ffffffffffffffffffffffffffffffffffffffff168152602001908152602001600020600082825461149e91906135e4565b92505081905550816002600083815260200190815260200160002060006101000a81548173ffffffffffffffffffffffffffffffffffffffff021916908373ffffffffffffffffffffffffffffffffffffffff160217905550808273ffffffffffffffffffffffffffffffffffffffff168473ffffffffffffffffffffffffffffffffffffffff167fddf252ad1be2c89b69c2b068fc378daa952ba7f163c4a11628f55a4df523b3ef60405160405180910390a461155d838383611abe565b505050565b6000600b60009054906101000a900473ffffffffffffffffffffffffffffffffffffffff16905081600b60006101000a81548173ffffffffffffffffffffffffffffffffffffffff021916908373ffffffffffffffffffffffffffffffffffffffff1602179055508173ffffffffffffffffffffffffffffffffffffffff168173ffffffffffffffffffffffffffffffffffffffff167f8be0079c531659141344cd1fd0a4f28419497f9722a3daafe3b4186f6b6457e060405160405180910390a35050565b611642828260405180602001604052806000815250611ac3565b5050565b61164f826110f1565b61168e576040517f08c379a00000000000000000000000000000000000000000000000000000000081526004016116859061368a565b60405180910390fd5b80600a600084815260200190815260200160002090816116ae9190613856565b505050565b8173ffffffffffffffffffffffffffffffffffffffff168373ffffffffffffffffffffffffffffffffffffffff1603611721576040517f08c379a000000000000000000000000000000000000000000000000000000000815260040161171890613974565b60405180910390fd5b80600560008573ffffffffffffffffffffffffffffffffffffffff1673ffffffffffffffffffffffffffffffffffffffff16815260200190815260200160002060008473ffffffffffffffffffffffffffffffffffffffff1673ffffffffffffffffffffffffffffffffffffffff16815260200190815260200160002060006101000a81548160ff0219169083151502179055508173ffffffffffffffffffffffffffffffffffffffff168373ffffffffffffffffffffffffffffffffffffffff167f17307eab39ab6107e8899845ad3d59bd9653f200f220920489ca2b5937696c31836040516118129190612620565b60405180910390a3505050565b61182a8484846112fc565b61183684848484611b1e565b611875576040517f08c379a000000000000000000000000000000000000000000000000000000000815260040161186c90613a06565b60405180910390fd5b50505050565b6060611886826110f1565b6118c5576040517f08c379a00000000000000000000000000000000000000000000000000000000081526004016118bc90613a98565b60405180910390fd5b6000600a600084815260200190815260200160002080546118e590612c3f565b80601f016020809104026020016040519081016040528092919081815260200182805461191190612c3f565b801561195e5780601f106119335761010080835404028352916020019161195e565b820191906000526020600020905b81548152906001019060200180831161194157829003601f168201915b50505050509050600061196f611ca5565b905060008151036119845781925050506119c7565b6000825111156119b95780826040516020016119a1929190613af4565b604051602081830303815290604052925050506119c7565b6119c284611ce2565b925050505b919050565b60007f80ac58cd000000000000000000000000000000000000000000000000000000007bffffffffffffffffffffffffffffffffffffffffffffffffffffffff1916827bffffffffffffffffffffffffffffffffffffffffffffffffffffffff19161480611a9757507f5b5e139f000000000000000000000000000000000000000000000000000000007bffffffffffffffffffffffffffffffffffffffffffffffffffffffff1916827bffffffffffffffffffffffffffffffffffffffffffffffffffffffff1916145b80611aa75750611aa682611d89565b5b9050919050565b611ab9838383611df3565b505050565b505050565b611acd8383611f05565b611ada6000848484611b1e565b611b19576040517f08c379a0000000000000000000000000000000000000000000000000000000008152600401611b1090613a06565b60405180910390fd5b505050565b6000611b3f8473ffffffffffffffffffffffffffffffffffffffff166120de565b15611c98578373ffffffffffffffffffffffffffffffffffffffff1663150b7a02611b6861115d565b8786866040518563ffffffff1660e01b8152600401611b8a9493929190613b6d565b6020604051808303816000875af1925050508015611bc657506040513d601f19601f82011682018060405250810190611bc39190613bce565b60015b611c48573d8060008114611bf6576040519150601f19603f3d011682016040523d82523d6000602084013e611bfb565b606091505b506000815103611c40576040517f08c379a0000000000000000000000000000000000000000000000000000000008152600401611c3790613a06565b60405180910390fd5b805181602001fd5b63150b7a0260e01b7bffffffffffffffffffffffffffffffffffffffffffffffffffffffff1916817bffffffffffffffffffffffffffffffffffffffffffffffffffffffff191614915050611c9d565b600190505b949350505050565b60606040518060400160405280601581526020017f68747470733a2f2f697066732e696f2f697066732f0000000000000000000000815250905090565b6060611ced826110f1565b611d2c576040517f08c379a0000000000000000000000000000000000000000000000000000000008152600401611d2390613c6d565b60405180910390fd5b6000611d36611ca5565b90506000815111611d565760405180602001604052806000815250611d81565b80611d6084612101565b604051602001611d71929190613af4565b6040516020818303038152906040525b915050919050565b60007f01ffc9a7000000000000000000000000000000000000000000000000000000007bffffffffffffffffffffffffffffffffffffffffffffffffffffffff1916827bffffffffffffffffffffffffffffffffffffffffffffffffffffffff1916149050919050565b611dfe838383612261565b600073ffffffffffffffffffffffffffffffffffffffff168373ffffffffffffffffffffffffffffffffffffffff1603611e4057611e3b81612266565b611e7f565b8173ffffffffffffffffffffffffffffffffffffffff168373ffffffffffffffffffffffffffffffffffffffff1614611e7e57611e7d83826122af565b5b5b600073ffffffffffffffffffffffffffffffffffffffff168273ffffffffffffffffffffffffffffffffffffffff1603611ec157611ebc8161241c565b611f00565b8273ffffffffffffffffffffffffffffffffffffffff168273ffffffffffffffffffffffffffffffffffffffff1614611eff57611efe82826124ed565b5b5b505050565b600073ffffffffffffffffffffffffffffffffffffffff168273ffffffffffffffffffffffffffffffffffffffff1603611f74576040517f08c379a0000000000000000000000000000000000000000000000000000000008152600401611f6b90613cd9565b60405180910390fd5b611f7d816110f1565b15611fbd576040517f08c379a0000000000000000000000000000000000000000000000000000000008152600401611fb490613d45565b60405180910390fd5b611fc960008383611aae565b6001600360008473ffffffffffffffffffffffffffffffffffffffff1673ffffffffffffffffffffffffffffffffffffffff168152602001908152602001600020600082825461201991906135e4565b92505081905550816002600083815260200190815260200160002060006101000a81548173ffffffffffffffffffffffffffffffffffffffff021916908373ffffffffffffffffffffffffffffffffffffffff160217905550808273ffffffffffffffffffffffffffffffffffffffff16600073ffffffffffffffffffffffffffffffffffffffff167fddf252ad1be2c89b69c2b068fc378daa952ba7f163c4a11628f55a4df523b3ef60405160405180910390a46120da60008383611abe565b5050565b6000808273ffffffffffffffffffffffffffffffffffffffff163b119050919050565b606060008203612148576040518060400160405280600181526020017f3000000000000000000000000000000000000000000000000000000000000000815250905061225c565b600082905060005b6000821461217a57808061216390613d65565b915050600a826121739190613ddc565b9150612150565b60008167ffffffffffffffff811115612196576121956128cc565b5b6040519080825280601f01601f1916602001820160405280156121c85781602001600182028036833780820191505090505b5090505b60008514612255576001826121e191906135b0565b9150600a856121f09190613e0d565b60306121fc91906135e4565b60f81b81838151811061221257612211612fdc565b5b60200101907effffffffffffffffffffffffffffffffffffffffffffffffffffffffffffff1916908160001a905350600a8561224e9190613ddc565b94506121cc565b8093505050505b919050565b505050565b6008805490506009600083815260200190815260200160002081905550600881908060018154018082558091505060019003906000526020600020016000909190919091505550565b600060016122bc84610975565b6122c691906135b0565b90506000600760008481526020019081526020016000205490508181146123ab576000600660008673ffffffffffffffffffffffffffffffffffffffff1673ffffffffffffffffffffffffffffffffffffffff168152602001908152602001600020600084815260200190815260200160002054905080600660008773ffffffffffffffffffffffffffffffffffffffff1673ffffffffffffffffffffffffffffffffffffffff168152602001908152602001600020600084815260200190815260200160002081905550816007600083815260200190815260200160002081905550505b6007600084815260200190815260200160002060009055600660008573ffffffffffffffffffffffffffffffffffffffff1673ffffffffffffffffffffffffffffffffffffffff16815260200190815260200160002060008381526020019081526020016000206000905550505050565b6000600160088054905061243091906135b0565b90506000600960008481526020019081526020016000205490506000600883815481106124605761245f612fdc565b5b90600052602060002001549050806008838154811061248257612481612fdc565b5b9060005260206000200181905550816009600083815260200190815260200160002081905550600960008581526020019081526020016000206000905560088054806124d1576124d0613e3e565b5b6001900381819060005260206000200160009055905550505050565b60006124f883610975565b905081600660008573ffffffffffffffffffffffffffffffffffffffff1673ffffffffffffffffffffffffffffffffffffffff168152602001908152602001600020600083815260200190815260200160002081905550806007600084815260200190815260200160002081905550505050565b6000604051905090565b600080fd5b600080fd5b60007fffffffff0000000000000000000000000000000000000000000000000000000082169050919050565b6125b581612580565b81146125c057600080fd5b50565b6000813590506125d2816125ac565b92915050565b6000602082840312156125ee576125ed612576565b5b60006125fc848285016125c3565b91505092915050565b60008115159050919050565b61261a81612605565b82525050565b60006020820190506126356000830184612611565b92915050565b600081519050919050565b600082825260208201905092915050565b60005b8381101561267557808201518184015260208101905061265a565b60008484015250505050565b6000601f19601f8301169050919050565b600061269d8261263b565b6126a78185612646565b93506126b7818560208601612657565b6126c081612681565b840191505092915050565b600060208201905081810360008301526126e58184612692565b905092915050565b6000819050919050565b612700816126ed565b811461270b57600080fd5b50565b60008135905061271d816126f7565b92915050565b60006020828403121561273957612738612576565b5b60006127478482850161270e565b91505092915050565b600073ffffffffffffffffffffffffffffffffffffffff82169050919050565b600061277b82612750565b9050919050565b61278b81612770565b82525050565b60006020820190506127a66000830184612782565b92915050565b6127b581612770565b81146127c057600080fd5b50565b6000813590506127d2816127ac565b92915050565b600080604083850312156127ef576127ee612576565b5b60006127fd858286016127c3565b925050602061280e8582860161270e565b9150509250929050565b612821816126ed565b82525050565b600060208201905061283c6000830184612818565b92915050565b60008060006060848603121561285b5761285a612576565b5b6000612869868287016127c3565b935050602061287a868287016127c3565b925050604061288b8682870161270e565b9150509250925092565b6000602082840312156128ab576128aa612576565b5b60006128b9848285016127c3565b91505092915050565b600080fd5b600080fd5b7f4e487b7100000000000000000000000000000000000000000000000000000000600052604160045260246000fd5b61290482612681565b810181811067ffffffffffffffff82111715612923576129226128cc565b5b80604052505050565b600061293661256c565b905061294282826128fb565b919050565b600067ffffffffffffffff821115612962576129616128cc565b5b61296b82612681565b9050602081019050919050565b82818337600083830152505050565b600061299a61299584612947565b61292c565b9050828152602081018484840111156129b6576129b56128c7565b5b6129c1848285612978565b509392505050565b600082601f8301126129de576129dd6128c2565b5b81356129ee848260208601612987565b91505092915050565b600060208284031215612a0d57612a0c612576565b5b600082013567ffffffffffffffff811115612a2b57612a2a61257b565b5b612a37848285016129c9565b91505092915050565b612a4981612605565b8114612a5457600080fd5b50565b600081359050612a6681612a40565b92915050565b60008060408385031215612a8357612a82612576565b5b6000612a91858286016127c3565b9250506020612aa285828601612a57565b9150509250929050565b600067ffffffffffffffff821115612ac757612ac66128cc565b5b612ad082612681565b9050602081019050919050565b6000612af0612aeb84612aac565b61292c565b905082815260208101848484011115612b0c57612b0b6128c7565b5b612b17848285612978565b509392505050565b600082601f830112612b3457612b336128c2565b5b8135612b44848260208601612add565b91505092915050565b60008060008060808587031215612b6757612b66612576565b5b6000612b75878288016127c3565b9450506020612b86878288016127c3565b9350506040612b978782880161270e565b925050606085013567ffffffffffffffff811115612bb857612bb761257b565b5b612bc487828801612b1f565b91505092959194509250565b60008060408385031215612be757612be6612576565b5b6000612bf5858286016127c3565b9250506020612c06858286016127c3565b9150509250929050565b7f4e487b7100000000000000000000000000000000000000000000000000000000600052602260045260246000fd5b60006002820490506001821680612c5757607f821691505b602082108103612c6a57612c69612c10565b5b50919050565b7f4552433732313a20617070726f76656420717565727920666f72206e6f6e657860008201527f697374656e7420746f6b656e0000000000000000000000000000000000000000602082015250565b6000612ccc602c83612646565b9150612cd782612c70565b604082019050919050565b60006020820190508181036000830152612cfb81612cbf565b9050919050565b7f4552433732313a20617070726f76616c20746f2063757272656e74206f776e6560008201527f7200000000000000000000000000000000000000000000000000000000000000602082015250565b6000612d5e602183612646565b9150612d6982612d02565b604082019050919050565b60006020820190508181036000830152612d8d81612d51565b9050919050565b7f4552433732313a20617070726f76652063616c6c6572206973206e6f74206f7760008201527f6e6572206e6f7220617070726f76656420666f7220616c6c0000000000000000602082015250565b6000612df0603883612646565b9150612dfb82612d94565b604082019050919050565b60006020820190508181036000830152612e1f81612de3565b9050919050565b7f4552433732313a207472616e736665722063616c6c6572206973206e6f74206f60008201527f776e6572206e6f7220617070726f766564000000000000000000000000000000602082015250565b6000612e82603183612646565b9150612e8d82612e26565b604082019050919050565b60006020820190508181036000830152612eb181612e75565b9050919050565b7f455243373231456e756d657261626c653a206f776e657220696e646578206f7560008201527f74206f6620626f756e6473000000000000000000000000000000000000000000602082015250565b6000612f14602b83612646565b9150612f1f82612eb8565b604082019050919050565b60006020820190508181036000830152612f4381612f07565b9050919050565b7f455243373231456e756d657261626c653a20676c6f62616c20696e646578206f60008201527f7574206f6620626f756e64730000000000000000000000000000000000000000602082015250565b6000612fa6602c83612646565b9150612fb182612f4a565b604082019050919050565b60006020820190508181036000830152612fd581612f99565b9050919050565b7f4e487b7100000000000000000000000000000000000000000000000000000000600052603260045260246000fd5b7f4552433732313a206f776e657220717565727920666f72206e6f6e657869737460008201527f656e7420746f6b656e0000000000000000000000000000000000000000000000602082015250565b6000613067602983612646565b91506130728261300b565b604082019050919050565b600060208201905081810360008301526130968161305a565b9050919050565b7f4552433732313a2062616c616e636520717565727920666f7220746865207a6560008201527f726f206164647265737300000000000000000000000000000000000000000000602082015250565b60006130f9602a83612646565b91506131048261309d565b604082019050919050565b60006020820190508181036000830152613128816130ec565b9050919050565b7f4f776e61626c653a2063616c6c6572206973206e6f7420746865206f776e6572600082015250565b6000613165602083612646565b91506131708261312f565b602082019050919050565b6000602082019050818103600083015261319481613158565b9050919050565b6000815190506131aa81612a40565b92915050565b6000602082840312156131c6576131c5612576565b5b60006131d48482850161319b565b91505092915050565b7f53616c65206d7573742062652061637469766500000000000000000000000000600082015250565b6000613213601383612646565b915061321e826131dd565b602082019050919050565b6000602082019050818103600083015261324281613206565b9050919050565b600081519050613258816126f7565b92915050565b60006020828403121561327457613273612576565b5b600061328284828501613249565b91505092915050565b7f45786365656420696e697469616c20737570706c79206f66206e757473000000600082015250565b60006132c1601d83612646565b91506132cc8261328b565b602082019050919050565b600060208201905081810360008301526132f0816132b4565b9050919050565b600081519050613306816127ac565b92915050565b60006020828403121561332257613321612576565b5b6000613330848285016132f7565b91505092915050565b7f4f776e61626c653a206e6577206f776e657220697320746865207a65726f206160008201527f6464726573730000000000000000000000000000000000000000000000000000602082015250565b6000613395602683612646565b91506133a082613339565b604082019050919050565b600060208201905081810360008301526133c481613388565b9050919050565b7f4552433732313a206f70657261746f7220717565727920666f72206e6f6e657860008201527f697374656e7420746f6b656e0000000000000000000000000000000000000000602082015250565b6000613427602c83612646565b9150613432826133cb565b604082019050919050565b600060208201905081810360008301526134568161341a565b9050919050565b7f4552433732313a207472616e736665722066726f6d20696e636f72726563742060008201527f6f776e6572000000000000000000000000000000000000000000000000000000602082015250565b60006134b9602583612646565b91506134c48261345d565b604082019050919050565b600060208201905081810360008301526134e8816134ac565b9050919050565b7f4552433732313a207472616e7366657220746f20746865207a65726f2061646460008201527f7265737300000000000000000000000000000000000000000000000000000000602082015250565b600061354b602483612646565b9150613556826134ef565b604082019050919050565b6000602082019050818103600083015261357a8161353e565b9050919050565b7f4e487b7100000000000000000000000000000000000000000000000000000000600052601160045260246000fd5b60006135bb826126ed565b91506135c6836126ed565b92508282039050818111156135de576135dd613581565b5b92915050565b60006135ef826126ed565b91506135fa836126ed565b925082820190508082111561361257613611613581565b5b92915050565b7f45524337323155524953746f726167653a2055524920736574206f66206e6f6e60008201527f6578697374656e7420746f6b656e000000000000000000000000000000000000602082015250565b6000613674602e83612646565b915061367f82613618565b604082019050919050565b600060208201905081810360008301526136a381613667565b9050919050565b60008190508160005260206000209050919050565b60006020601f8301049050919050565b600082821b905092915050565b60006008830261370c7fffffffffffffffffffffffffffffffffffffffffffffffffffffffffffffffff826136cf565b61371686836136cf565b95508019841693508086168417925050509392505050565b6000819050919050565b600061375361374e613749846126ed565b61372e565b6126ed565b9050919050565b6000819050919050565b61376d83613738565b6137816137798261375a565b8484546136dc565b825550505050565b600090565b613796613789565b6137a1818484613764565b505050565b5b818110156137c5576137ba60008261378e565b6001810190506137a7565b5050565b601f82111561380a576137db816136aa565b6137e4846136bf565b810160208510156137f3578190505b6138076137ff856136bf565b8301826137a6565b50505b505050565b600082821c905092915050565b600061382d6000198460080261380f565b1980831691505092915050565b6000613846838361381c565b9150826002028217905092915050565b61385f8261263b565b67ffffffffffffffff811115613878576138776128cc565b5b6138828254612c3f565b61388d8282856137c9565b600060209050601f8311600181146138c057600084156138ae578287015190505b6138b8858261383a565b865550613920565b601f1984166138ce866136aa565b60005b828110156138f6578489015182556001820191506020850194506020810190506138d1565b86831015613913578489015161390f601f89168261381c565b8355505b6001600288020188555050505b505050505050565b7f4552433732313a20617070726f766520746f2063616c6c657200000000000000600082015250565b600061395e601983612646565b915061396982613928565b602082019050919050565b6000602082019050818103600083015261398d81613951565b9050919050565b7f4552433732313a207472616e7366657220746f206e6f6e20455243373231526560008201527f63656976657220696d706c656d656e7465720000000000000000000000000000602082015250565b60006139f0603283612646565b91506139fb82613994565b604082019050919050565b60006020820190508181036000830152613a1f816139e3565b9050919050565b7f45524337323155524953746f726167653a2055524920717565727920666f722060008201527f6e6f6e6578697374656e7420746f6b656e000000000000000000000000000000602082015250565b6000613a82603183612646565b9150613a8d82613a26565b604082019050919050565b60006020820190508181036000830152613ab181613a75565b9050919050565b600081905092915050565b6000613ace8261263b565b613ad88185613ab8565b9350613ae8818560208601612657565b80840191505092915050565b6000613b008285613ac3565b9150613b0c8284613ac3565b91508190509392505050565b600081519050919050565b600082825260208201905092915050565b6000613b3f82613b18565b613b498185613b23565b9350613b59818560208601612657565b613b6281612681565b840191505092915050565b6000608082019050613b826000830187612782565b613b8f6020830186612782565b613b9c6040830185612818565b8181036060830152613bae8184613b34565b905095945050505050565b600081519050613bc8816125ac565b92915050565b600060208284031215613be457613be3612576565b5b6000613bf284828501613bb9565b91505092915050565b7f4552433732314d657461646174613a2055524920717565727920666f72206e6f60008201527f6e6578697374656e7420746f6b656e0000000000000000000000000000000000602082015250565b6000613c57602f83612646565b9150613c6282613bfb565b604082019050919050565b60006020820190508181036000830152613c8681613c4a565b9050919050565b7f4552433732313a206d696e7420746f20746865207a65726f2061646472657373600082015250565b6000613cc3602083612646565b9150613cce82613c8d565b602082019050919050565b60006020820190508181036000830152613cf281613cb6565b9050919050565b7f4552433732313a20746f6b656e20616c7265616479206d696e74656400000000600082015250565b6000613d2f601c83612646565b9150613d3a82613cf9565b602082019050919050565b60006020820190508181036000830152613d5e81613d22565b9050919050565b6000613d70826126ed565b91507fffffffffffffffffffffffffffffffffffffffffffffffffffffffffffffffff8203613da257613da1613581565b5b600182019050919050565b7f4e487b7100000000000000000000000000000000000000000000000000000000600052601260045260246000fd5b6000613de7826126ed565b9150613df2836126ed565b925082613e0257613e01613dad565b5b828204905092915050565b6000613e18826126ed565b9150613e23836126ed565b925082613e3357613e32613dad565b5b828206905092915050565b7f4e487b7100000000000000000000000000000000000000000000000000000000600052603160045260246000fdfea2646970667358221220525519b759caf144804b5fa93a7f9207ac5496e1161eaf4bf08a0cf9141107df64736f6c63430008110033",
  "immutableReferences": {},
  "source": "// SPDX-License-Identifier: MIT\npragma solidity ^0.8.7;\n\nimport \"openzeppelin-solidity/contracts/token/ERC721/ERC721.sol\";\nimport \"openzeppelin-solidity/contracts/token/ERC721/extensions/ERC721Enumerable.sol\";\nimport \"openzeppelin-solidity/contracts/token/ERC721/extensions/ERC721URIStorage.sol\";\nimport \"openzeppelin-solidity/contracts/access/Ownable.sol\";\nimport \"openzeppelin-solidity/contracts/utils/cryptography/ECDSA.sol\";\n\nimport \"./CosmoVault.sol\";\n\ncontract CosmoCreation is ERC721, ERC721Enumerable, ERC721URIStorage, Ownable {\n\n    CosmoVault vault;\n\n    constructor(\n        string memory _name,\n        string memory _symbol,\n        address _vaultAddress\n    )\n    ERC721(_name, _symbol)\n    {\n        vault = CosmoVault(_vaultAddress);\n    }\n\n    function _baseURI() internal pure override returns (string memory) {\n        return \"https://ipfs.io/ipfs/\";\n    }\n\n    function mintNut(string memory _nutCID) public payable {\n        require(vault.SALE_STATUS(), \"Sale must be active\");\n        require(totalSupply() < vault.NUTS_INITIAL(), \"Exceed initial supply of nuts\");\n        //require(NUT_PRICE * _numberOfNuts <= msg.value, \"Ether value is not correct\");\n\n        _safeMint(vault.TREASURY_ADDRESS(), totalSupply());\n        _setTokenURI(totalSupply(), _nutCID);\n        vault.giveMintBalance(totalSupply());\n    }\n\n    function changeTokenURI(uint256 _tokenId, string memory _cidPath, bytes memory _signature) internal {\n        require(_isApprovedOrOwner(_msgSender(), _tokenId), \"Caller is not owner nor approved\");\n        bytes32 pathHash = keccak256(abi.encodePacked(_cidPath));\n        require(vault.isVerified(pathHash, _signature), \"Data does not match signature\");\n\n        _setTokenURI(_tokenId, _cidPath);\n    }\n\n    // ----- The following functions are overrides required by Solidity -----\n    function _beforeTokenTransfer(address from, address to, uint256 tokenId) internal override(ERC721, ERC721Enumerable) {\n        super._beforeTokenTransfer(from, to, tokenId);\n    }\n\n    function _burn(uint256 tokenId) internal override(ERC721, ERC721URIStorage) {\n        super._burn(tokenId);\n    }\n\n    function tokenURI(uint256 tokenId) public view override(ERC721, ERC721URIStorage) returns (string memory) {\n        return super.tokenURI(tokenId);\n    }\n\n    function supportsInterface(bytes4 interfaceId) public view override(ERC721, ERC721Enumerable) returns (bool) {\n        return super.supportsInterface(interfaceId);\n    }\n    // -----      -----     -----     -----     -----\n}\n",
  "sourcePath": "/home/redlentils/Seafile/Websites/avatarnft/contracts/CosmoCreation.sol",
  "compiler": {
    "name": "solc",
    "version": "0.8.17+commit.8df45f5f.Emscripten.clang"
  },
  "schemaVersion": "3.4.10",
  "updatedAt": "2022-10-07T14:49:48.557Z",
  "devdoc": {
    "kind": "dev",
    "methods": {
      "approve(address,uint256)": {
        "details": "See {IERC721-approve}."
      },
      "balanceOf(address)": {
        "details": "See {IERC721-balanceOf}."
      },
      "getApproved(uint256)": {
        "details": "See {IERC721-getApproved}."
      },
      "isApprovedForAll(address,address)": {
        "details": "See {IERC721-isApprovedForAll}."
      },
      "name()": {
        "details": "See {IERC721Metadata-name}."
      },
      "owner()": {
        "details": "Returns the address of the current owner."
      },
      "ownerOf(uint256)": {
        "details": "See {IERC721-ownerOf}."
      },
      "renounceOwnership()": {
        "details": "Leaves the contract without owner. It will not be possible to call `onlyOwner` functions anymore. Can only be called by the current owner. NOTE: Renouncing ownership will leave the contract without an owner, thereby removing any functionality that is only available to the owner."
      },
      "safeTransferFrom(address,address,uint256)": {
        "details": "See {IERC721-safeTransferFrom}."
      },
      "safeTransferFrom(address,address,uint256,bytes)": {
        "details": "See {IERC721-safeTransferFrom}."
      },
      "setApprovalForAll(address,bool)": {
        "details": "See {IERC721-setApprovalForAll}."
      },
      "symbol()": {
        "details": "See {IERC721Metadata-symbol}."
      },
      "tokenByIndex(uint256)": {
        "details": "See {IERC721Enumerable-tokenByIndex}."
      },
      "tokenOfOwnerByIndex(address,uint256)": {
        "details": "See {IERC721Enumerable-tokenOfOwnerByIndex}."
      },
      "totalSupply()": {
        "details": "See {IERC721Enumerable-totalSupply}."
      },
      "transferFrom(address,address,uint256)": {
        "details": "See {IERC721-transferFrom}."
      },
      "transferOwnership(address)": {
        "details": "Transfers ownership of the contract to a new account (`newOwner`). Can only be called by the current owner."
      }
    },
    "version": 1
  },
  "userdoc": {
    "kind": "user",
    "methods": {},
    "version": 1
  }
}