{
  "contractName": "CosmoTreasury",
  "abi": [
    {
      "inputs": [],
      "name": "addressOf",
      "outputs": [
        {
          "internalType": "address",
          "name": "system",
          "type": "address"
        },
        {
          "internalType": "address",
          "name": "matter",
          "type": "address"
        },
        {
          "internalType": "address",
          "name": "treasury",
          "type": "address"
        },
        {
          "internalType": "address",
          "name": "cosmos",
          "type": "address"
        },
        {
          "internalType": "address",
          "name": "seedImplementation",
          "type": "address"
        },
        {
          "internalType": "address",
          "name": "butterImplementation",
          "type": "address"
        }
      ],
      "stateMutability": "view",
      "type": "function"
    },
    {
      "inputs": [
        {
          "internalType": "uint256",
          "name": "",
          "type": "uint256"
        }
      ],
      "name": "butterChurnedByNut",
      "outputs": [
        {
          "internalType": "uint256",
          "name": "",
          "type": "uint256"
        }
      ],
      "stateMutability": "view",
      "type": "function"
    },
    {
      "inputs": [],
      "name": "butterDeficiencyInUniverse",
      "outputs": [
        {
          "internalType": "uint256",
          "name": "",
          "type": "uint256"
        }
      ],
      "stateMutability": "view",
      "type": "function"
    },
    {
      "inputs": [
        {
          "internalType": "uint256",
          "name": "",
          "type": "uint256"
        }
      ],
      "name": "butterDeficiencyOfNut",
      "outputs": [
        {
          "internalType": "uint256",
          "name": "",
          "type": "uint256"
        }
      ],
      "stateMutability": "view",
      "type": "function"
    },
    {
      "inputs": [],
      "name": "butterJars",
      "outputs": [
        {
          "internalType": "uint256",
          "name": "",
          "type": "uint256"
        }
      ],
      "stateMutability": "view",
      "type": "function"
    },
    {
      "inputs": [
        {
          "internalType": "uint256",
          "name": "",
          "type": "uint256"
        }
      ],
      "name": "butterLocations",
      "outputs": [
        {
          "internalType": "address",
          "name": "",
          "type": "address"
        }
      ],
      "stateMutability": "view",
      "type": "function"
    },
    {
      "inputs": [],
      "name": "butterSpread",
      "outputs": [
        {
          "internalType": "uint256",
          "name": "",
          "type": "uint256"
        }
      ],
      "stateMutability": "view",
      "type": "function"
    },
    {
      "inputs": [],
      "name": "butterWeight",
      "outputs": [
        {
          "internalType": "uint256",
          "name": "",
          "type": "uint256"
        }
      ],
      "stateMutability": "view",
      "type": "function"
    },
    {
      "inputs": [
        {
          "internalType": "uint256",
          "name": "",
          "type": "uint256"
        },
        {
          "internalType": "uint256",
          "name": "",
          "type": "uint256"
        }
      ],
      "name": "buttersOfNut",
      "outputs": [
        {
          "internalType": "uint256",
          "name": "",
          "type": "uint256"
        }
      ],
      "stateMutability": "view",
      "type": "function"
    },
    {
      "inputs": [
        {
          "internalType": "uint256",
          "name": "",
          "type": "uint256"
        }
      ],
      "name": "currentOwnerOfNut",
      "outputs": [
        {
          "internalType": "address",
          "name": "",
          "type": "address"
        }
      ],
      "stateMutability": "view",
      "type": "function"
    },
    {
      "inputs": [
        {
          "internalType": "uint256",
          "name": "",
          "type": "uint256"
        }
      ],
      "name": "isButterActive",
      "outputs": [
        {
          "internalType": "bool",
          "name": "",
          "type": "bool"
        }
      ],
      "stateMutability": "view",
      "type": "function"
    },
    {
      "inputs": [
        {
          "internalType": "uint256",
          "name": "",
          "type": "uint256"
        }
      ],
      "name": "isSeedActive",
      "outputs": [
        {
          "internalType": "bool",
          "name": "",
          "type": "bool"
        }
      ],
      "stateMutability": "view",
      "type": "function"
    },
    {
      "inputs": [
        {
          "internalType": "uint256",
          "name": "",
          "type": "uint256"
        },
        {
          "internalType": "uint256",
          "name": "",
          "type": "uint256"
        }
      ],
      "name": "isSeedOfNut",
      "outputs": [
        {
          "internalType": "bool",
          "name": "",
          "type": "bool"
        }
      ],
      "stateMutability": "view",
      "type": "function"
    },
    {
      "inputs": [
        {
          "internalType": "uint256",
          "name": "",
          "type": "uint256"
        }
      ],
      "name": "matterBalanceOfNut",
      "outputs": [
        {
          "internalType": "uint256",
          "name": "",
          "type": "uint256"
        }
      ],
      "stateMutability": "view",
      "type": "function"
    },
    {
      "inputs": [
        {
          "internalType": "uint256",
          "name": "",
          "type": "uint256"
        }
      ],
      "name": "matterMintedByNut",
      "outputs": [
        {
          "internalType": "uint256",
          "name": "",
          "type": "uint256"
        }
      ],
      "stateMutability": "view",
      "type": "function"
    },
    {
      "inputs": [
        {
          "internalType": "uint256",
          "name": "_nutId",
          "type": "uint256"
        }
      ],
      "name": "numOfSeedsGrownOf",
      "outputs": [
        {
          "internalType": "uint256",
          "name": "",
          "type": "uint256"
        }
      ],
      "stateMutability": "view",
      "type": "function"
    },
    {
      "inputs": [
        {
          "internalType": "uint256",
          "name": "_nutId",
          "type": "uint256"
        }
      ],
      "name": "numOfSeedsOf",
      "outputs": [
        {
          "internalType": "uint256",
          "name": "",
          "type": "uint256"
        }
      ],
      "stateMutability": "view",
      "type": "function"
    },
    {
      "inputs": [
        {
          "internalType": "uint256",
          "name": "_nutId",
          "type": "uint256"
        }
      ],
      "name": "numberOfButterJars",
      "outputs": [
        {
          "internalType": "uint256",
          "name": "",
          "type": "uint256"
        }
      ],
      "stateMutability": "view",
      "type": "function"
    },
    {
      "inputs": [],
      "name": "nut",
      "outputs": [
        {
          "internalType": "uint256",
          "name": "price",
          "type": "uint256"
        },
        {
          "internalType": "uint256",
          "name": "rate",
          "type": "uint256"
        }
      ],
      "stateMutability": "view",
      "type": "function"
    },
    {
      "inputs": [
        {
          "internalType": "uint256",
          "name": "",
          "type": "uint256"
        }
      ],
      "name": "nutOfButter",
      "outputs": [
        {
          "internalType": "uint256",
          "name": "",
          "type": "uint256"
        }
      ],
      "stateMutability": "view",
      "type": "function"
    },
    {
      "inputs": [
        {
          "internalType": "uint256",
          "name": "",
          "type": "uint256"
        }
      ],
      "name": "nutOfSeed",
      "outputs": [
        {
          "internalType": "uint256",
          "name": "",
          "type": "uint256"
        }
      ],
      "stateMutability": "view",
      "type": "function"
    },
    {
      "inputs": [
        {
          "internalType": "uint256",
          "name": "",
          "type": "uint256"
        }
      ],
      "name": "nutsPayeeList",
      "outputs": [
        {
          "internalType": "uint256",
          "name": "",
          "type": "uint256"
        }
      ],
      "stateMutability": "view",
      "type": "function"
    },
    {
      "inputs": [
        {
          "internalType": "uint256",
          "name": "",
          "type": "uint256"
        }
      ],
      "name": "seedLocations",
      "outputs": [
        {
          "internalType": "address",
          "name": "",
          "type": "address"
        }
      ],
      "stateMutability": "view",
      "type": "function"
    },
    {
      "inputs": [],
      "name": "seedsCreated",
      "outputs": [
        {
          "internalType": "uint256",
          "name": "",
          "type": "uint256"
        }
      ],
      "stateMutability": "view",
      "type": "function"
    },
    {
      "inputs": [
        {
          "internalType": "uint256",
          "name": "",
          "type": "uint256"
        },
        {
          "internalType": "uint256",
          "name": "",
          "type": "uint256"
        }
      ],
      "name": "seedsGrownOfNut",
      "outputs": [
        {
          "internalType": "uint256",
          "name": "",
          "type": "uint256"
        }
      ],
      "stateMutability": "view",
      "type": "function"
    },
    {
      "inputs": [
        {
          "internalType": "uint256",
          "name": "",
          "type": "uint256"
        },
        {
          "internalType": "uint256",
          "name": "",
          "type": "uint256"
        }
      ],
      "name": "seedsOfNut",
      "outputs": [
        {
          "internalType": "uint256",
          "name": "",
          "type": "uint256"
        }
      ],
      "stateMutability": "view",
      "type": "function"
    },
    {
      "inputs": [
        {
          "internalType": "address",
          "name": "_systemAddress",
          "type": "address"
        },
        {
          "internalType": "address",
          "name": "_matterAddress",
          "type": "address"
        }
      ],
      "name": "initialize",
      "outputs": [],
      "stateMutability": "nonpayable",
      "type": "function"
    },
    {
      "inputs": [],
      "name": "getPrice",
      "outputs": [
        {
          "internalType": "uint256",
          "name": "",
          "type": "uint256"
        }
      ],
      "stateMutability": "view",
      "type": "function"
    },
    {
      "inputs": [
        {
          "internalType": "uint256",
          "name": "_nutId",
          "type": "uint256"
        }
      ],
      "name": "matterNeeded",
      "outputs": [
        {
          "internalType": "uint256",
          "name": "",
          "type": "uint256"
        }
      ],
      "stateMutability": "view",
      "type": "function"
    },
    {
      "inputs": [
        {
          "internalType": "uint256",
          "name": "_nutId",
          "type": "uint256"
        },
        {
          "internalType": "bytes32",
          "name": "_secretHash",
          "type": "bytes32"
        }
      ],
      "name": "spawnSeed",
      "outputs": [
        {
          "internalType": "bool",
          "name": "",
          "type": "bool"
        }
      ],
      "stateMutability": "payable",
      "type": "function"
    },
    {
      "inputs": [
        {
          "internalType": "uint256",
          "name": "_seedId",
          "type": "uint256"
        },
        {
          "internalType": "uint256",
          "name": "_matterNeeded",
          "type": "uint256"
        }
      ],
      "name": "seedFromNut",
      "outputs": [
        {
          "internalType": "bool",
          "name": "",
          "type": "bool"
        }
      ],
      "stateMutability": "nonpayable",
      "type": "function"
    },
    {
      "inputs": [
        {
          "internalType": "uint256",
          "name": "_nutId",
          "type": "uint256"
        },
        {
          "internalType": "uint256",
          "name": "_matterContributed",
          "type": "uint256"
        },
        {
          "internalType": "uint256",
          "name": "_matterDrawRate",
          "type": "uint256"
        },
        {
          "internalType": "bytes32",
          "name": "_secretHash",
          "type": "bytes32"
        }
      ],
      "name": "newButter",
      "outputs": [
        {
          "internalType": "bool",
          "name": "",
          "type": "bool"
        }
      ],
      "stateMutability": "nonpayable",
      "type": "function"
    },
    {
      "inputs": [
        {
          "internalType": "address",
          "name": "_drawer",
          "type": "address"
        },
        {
          "internalType": "uint256",
          "name": "_butterId",
          "type": "uint256"
        },
        {
          "internalType": "uint256",
          "name": "_balance",
          "type": "uint256"
        },
        {
          "internalType": "uint256",
          "name": "_currentBalance",
          "type": "uint256"
        }
      ],
      "name": "butterDrawn",
      "outputs": [
        {
          "internalType": "bool",
          "name": "",
          "type": "bool"
        }
      ],
      "stateMutability": "nonpayable",
      "type": "function"
    },
    {
      "inputs": [
        {
          "internalType": "address",
          "name": "_tokenOwner",
          "type": "address"
        },
        {
          "internalType": "uint256",
          "name": "_tokenId",
          "type": "uint256"
        }
      ],
      "name": "assignMintBalance",
      "outputs": [
        {
          "internalType": "bool",
          "name": "",
          "type": "bool"
        }
      ],
      "stateMutability": "nonpayable",
      "type": "function"
    }
  ],
  "bytecode": "0x6080604052600080556000600755600060085560006009556000600f5534801561002857600080fd5b50612e1c806100386000396000f3fe6080604052600436106101f95760003560e01c80634ffe5a6f1161010d578063a06fc90b116100a0578063df4f5ccc1161006f578063df4f5ccc1461087f578063ea988be8146108aa578063f50d4349146108d5578063f6317f8d14610912578063fe774f9d1461093d576101f9565b8063a06fc90b14610798578063a83851b9146107d5578063aef054ce14610805578063d4d8103214610842576101f9565b80639578d3df116100dc5780639578d3df146106b657806398d5fdca146106f35780639975a8a21461071e5780639cee22b11461075b576101f9565b80634ffe5a6f146105c257806353f97bc8146105ff5780636b651a2c1461063c5780638ed3df0f14610679576101f9565b806323f526c01161019057806339dc84f41161015f57806339dc84f4146104b75780633c8023ad146104f457806347634e1c14610531578063485cc9551461056e57806349a6b51f14610597576101f9565b806323f526c0146103d557806326342ea414610412578063282adc8c1461043d5780633279bd4f1461047a576101f9565b8063171e8441116101cc578063171e8441146102e15780631821907a1461031e5780631c85949c1461035b5780631e0b396414610398576101f9565b806302760a48146101fe57806303f5de9d1461023b5780631298896e1461027857806315d3b7a0146102b5575b600080fd5b34801561020a57600080fd5b506102256004803603810190610220919061229b565b61096d565b60405161023291906122e3565b60405180910390f35b34801561024757600080fd5b50610262600480360381019061025d9190612334565b61098d565b60405161026f91906122e3565b60405180910390f35b34801561028457600080fd5b5061029f600480360381019061029a919061239b565b611086565b6040516102ac91906123ea565b60405180910390f35b3480156102c157600080fd5b506102ca6110b7565b6040516102d8929190612405565b60405180910390f35b3480156102ed57600080fd5b506103086004803603810190610303919061229b565b6110c9565b60405161031591906122e3565b60405180910390f35b34801561032a57600080fd5b506103456004803603810190610340919061229b565b6110e9565b60405161035291906123ea565b60405180910390f35b34801561036757600080fd5b50610382600480360381019061037d919061248c565b611101565b60405161038f91906122e3565b60405180910390f35b3480156103a457600080fd5b506103bf60048036038101906103ba919061239b565b6112be565b6040516103cc91906123ea565b60405180910390f35b3480156103e157600080fd5b506103fc60048036038101906103f7919061229b565b6112ef565b60405161040991906124db565b60405180910390f35b34801561041e57600080fd5b50610427611322565b60405161043491906123ea565b60405180910390f35b34801561044957600080fd5b50610464600480360381019061045f919061229b565b611328565b60405161047191906123ea565b60405180910390f35b34801561048657600080fd5b506104a1600480360381019061049c919061229b565b611348565b6040516104ae91906123ea565b60405180910390f35b3480156104c357600080fd5b506104de60048036038101906104d9919061229b565b611360565b6040516104eb91906124db565b60405180910390f35b34801561050057600080fd5b5061051b6004803603810190610516919061239b565b611393565b60405161052891906123ea565b60405180910390f35b34801561053d57600080fd5b506105586004803603810190610553919061229b565b6113c4565b60405161056591906123ea565b60405180910390f35b34801561057a57600080fd5b50610595600480360381019061059091906124f6565b6113dc565b005b3480156105a357600080fd5b506105ac6114ac565b6040516105b991906123ea565b60405180910390f35b3480156105ce57600080fd5b506105e960048036038101906105e4919061229b565b6114b2565b6040516105f691906123ea565b60405180910390f35b34801561060b57600080fd5b506106266004803603810190610621919061239b565b6114ca565b60405161063391906122e3565b60405180910390f35b34801561064857600080fd5b50610663600480360381019061065e919061229b565b6114f9565b60405161067091906123ea565b60405180910390f35b34801561068557600080fd5b506106a0600480360381019061069b919061229b565b611519565b6040516106ad91906123ea565b60405180910390f35b3480156106c257600080fd5b506106dd60048036038101906106d8919061229b565b611532565b6040516106ea91906123ea565b60405180910390f35b3480156106ff57600080fd5b50610708611556565b60405161071591906123ea565b60405180910390f35b34801561072a57600080fd5b506107456004803603810190610740919061229b565b611563565b60405161075291906123ea565b60405180910390f35b34801561076757600080fd5b50610782600480360381019061077d9190612536565b611583565b60405161078f91906122e3565b60405180910390f35b3480156107a457600080fd5b506107bf60048036038101906107ba919061239b565b6116b2565b6040516107cc91906122e3565b60405180910390f35b3480156107e157600080fd5b506107ea611957565b6040516107fc9695949392919061259d565b60405180910390f35b34801561081157600080fd5b5061082c6004803603810190610827919061229b565b611a41565b60405161083991906124db565b60405180910390f35b34801561084e57600080fd5b506108696004803603810190610864919061229b565b611a74565b60405161087691906123ea565b60405180910390f35b34801561088b57600080fd5b50610894611a8c565b6040516108a191906123ea565b60405180910390f35b3480156108b657600080fd5b506108bf611a92565b6040516108cc91906123ea565b60405180910390f35b3480156108e157600080fd5b506108fc60048036038101906108f7919061229b565b611a98565b60405161090991906123ea565b60405180910390f35b34801561091e57600080fd5b50610927611ab0565b60405161093491906123ea565b60405180910390f35b610957600480360381019061095291906125fe565b611ab6565b60405161096491906122e3565b60405180910390f35b60116020528060005260406000206000915054906101000a900460ff1681565b600080601a600087815260200190815260200160002060009054906101000a900473ffffffffffffffffffffffffffffffffffffffff1690503373ffffffffffffffffffffffffffffffffffffffff168173ffffffffffffffffffffffffffffffffffffffff1614610a34576040517f08c379a0000000000000000000000000000000000000000000000000000000008152600401610a2b9061269b565b60405180910390fd5b84601b6000888152602001908152602001600020541015610a8a576040517f08c379a0000000000000000000000000000000000000000000000000000000008152600401610a8190612707565b60405180910390fd5b6000601260010160009054906101000a900473ffffffffffffffffffffffffffffffffffffffff1690508073ffffffffffffffffffffffffffffffffffffffff166370a08231836040518263ffffffff1660e01b8152600401610aed91906124db565b602060405180830381865afa158015610b0a573d6000803e3d6000fd5b505050506040513d601f19601f82011682018060405250810190610b2e919061273c565b861115610b70576040517f08c379a0000000000000000000000000000000000000000000000000000000008152600401610b67906127b5565b60405180910390fd5b60008587610b7e9190612804565b14610bbe576040517f08c379a0000000000000000000000000000000000000000000000000000000008152600401610bb590612881565b60405180910390fd5b6000610bc9886114f9565b1115610c3c5785600f6000828254610be191906128d0565b9250508190555085601060008981526020019081526020016000206000828254610c0b91906128d0565b92505081905550601c8790806001815401808255809150506001900390600052602060002001600090919091909150555b60008173ffffffffffffffffffffffffffffffffffffffff166370a08231601260020160009054906101000a900473ffffffffffffffffffffffffffffffffffffffff166040518263ffffffff1660e01b8152600401610c9c91906124db565b602060405180830381865afa158015610cb9573d6000803e3d6000fd5b505050506040513d601f19601f82011682018060405250810190610cdd919061273c565b90506000811115610f1b576000610cf682600f54611dd9565b90506000805b828114610f17576000601c80549050905060008103610d1b5750610f17565b80821115610d2857600092505b6000601c8481548110610d3e57610d3d612904565b5b906000526020600020015490506000601a600083815260200190815260200160002060009054906101000a900473ffffffffffffffffffffffffffffffffffffffff1690506000601860010154610d94846114f9565b610d9e9190612933565b905080601b60008581526020019081526020016000205403610de157601c8681548110610dce57610dcd612904565b5b9060005260206000200160009055610ef2565b8873ffffffffffffffffffffffffffffffffffffffff1663a9059cbb8360016040518363ffffffff1660e01b8152600401610e1d9291906129ba565b6020604051808303816000875af1158015610e3c573d6000803e3d6000fd5b505050506040513d601f19601f82011682018060405250810190610e609190612a0f565b50601c839080600181540180825580915050600190039060005260206000200160009091909190915055601c8681548110610e9e57610e9d612904565b5b90600052602060002001600090556001600f6000828254610ebf9190612a3c565b925050819055506001601060008581526020019081526020016000206000828254610eea9190612a3c565b925050819055505b8580610efd90612a70565b965050505050508080610f0f90612a70565b915050610cfc565b5050505b6000610f4b601260050160009054906101000a900473ffffffffffffffffffffffffffffffffffffffff16611df2565b90508073ffffffffffffffffffffffffffffffffffffffff1663f8257f876009548b8b8b601260020160009054906101000a900473ffffffffffffffffffffffffffffffffffffffff168c6040518763ffffffff1660e01b8152600401610fb796959493929190612ac7565b600060405180830381600087803b158015610fd157600080fd5b505af1158015610fe5573d6000803e3d6000fd5b505050508273ffffffffffffffffffffffffffffffffffffffff1663a9059cbb828a6040518363ffffffff1660e01b8152600401611024929190612b28565b6020604051808303816000875af1158015611043573d6000803e3d6000fd5b505050506040513d601f19601f820116820180604052508101906110679190612a0f565b5061107689600954838b611ec6565b6001945050505050949350505050565b600260205281600052604060002081815481106110a257600080fd5b90600052602060002001600091509150505481565b60188060000154908060010154905082565b60066020528060005260406000206000915054906101000a900460ff1681565b600d6020528060005260406000206000915090505481565b600080601260010160009054906101000a900473ffffffffffffffffffffffffffffffffffffffff1690506018600101548173ffffffffffffffffffffffffffffffffffffffff166370a08231601260020160009054906101000a900473ffffffffffffffffffffffffffffffffffffffff166040518263ffffffff1660e01b815260040161119091906124db565b602060405180830381865afa1580156111ad573d6000803e3d6000fd5b505050506040513d601f19601f820116820180604052508101906111d1919061273c565b1015611212576040517f08c379a000000000000000000000000000000000000000000000000000000000815260040161120990612b9d565b60405180910390fd5b8073ffffffffffffffffffffffffffffffffffffffff1663a9059cbb856018600101546040518363ffffffff1660e01b8152600401611252929190612b28565b6020604051808303816000875af1158015611271573d6000803e3d6000fd5b505050506040513d601f19601f820116820180604052508101906112959190612a0f565b50601860010154601b600085815260200190815260200160002081905550600191505092915050565b600a60205281600052604060002081815481106112da57600080fd5b90600052602060002001600091509150505481565b60056020528060005260406000206000915054906101000a900473ffffffffffffffffffffffffffffffffffffffff1681565b60095481565b6000600a6000838152602001908152602001600020805490509050919050565b600c6020528060005260406000206000915090505481565b601a6020528060005260406000206000915054906101000a900473ffffffffffffffffffffffffffffffffffffffff1681565b600160205281600052604060002081815481106113af57600080fd5b90600052602060002001600091509150505481565b600e6020528060005260406000206000915090505481565b81601260000160006101000a81548173ffffffffffffffffffffffffffffffffffffffff021916908373ffffffffffffffffffffffffffffffffffffffff16021790555080601260010160006101000a81548173ffffffffffffffffffffffffffffffffffffffff021916908373ffffffffffffffffffffffffffffffffffffffff16021790555030601260020160006101000a81548173ffffffffffffffffffffffffffffffffffffffff021916908373ffffffffffffffffffffffffffffffffffffffff1602179055505050565b60085481565b60106020528060005260406000206000915090505481565b60046020528160005260406000206020528060005260406000206000915091509054906101000a900460ff1681565b600060026000838152602001908152602001600020805490509050919050565b600061152482611563565b601860010154189050919050565b601c818154811061154257600080fd5b906000526020600020016000915090505481565b6000601860000154905090565b600060016000838152602001908152602001600020805490509050919050565b600080601260010160009054906101000a900473ffffffffffffffffffffffffffffffffffffffff1690508073ffffffffffffffffffffffffffffffffffffffff1663a9059cbb87866040518363ffffffff1660e01b81526004016115e9929190612b28565b6020604051808303816000875af1158015611608573d6000803e3d6000fd5b505050506040513d601f19601f8201168201806040525081019061162c9190612a0f565b508073ffffffffffffffffffffffffffffffffffffffff16634bbc1bcd30866040518363ffffffff1660e01b8152600401611668929190612b28565b600060405180830381600087803b15801561168257600080fd5b505af1158015611696573d6000803e3d6000fd5b505050506116a5858585611ff9565b6001915050949350505050565b6000806005600085815260200190815260200160002060009054906101000a900473ffffffffffffffffffffffffffffffffffffffff1690508073ffffffffffffffffffffffffffffffffffffffff163373ffffffffffffffffffffffffffffffffffffffff1614611759576040517f08c379a000000000000000000000000000000000000000000000000000000000815260040161175090612c2f565b60405180910390fd5b60008190506000601a60008373ffffffffffffffffffffffffffffffffffffffff1663685771f46040518163ffffffff1660e01b8152600401602060405180830381865afa1580156117af573d6000803e3d6000fd5b505050506040513d601f19601f820116820180604052508101906117d3919061273c565b815260200190815260200160002060009054906101000a900473ffffffffffffffffffffffffffffffffffffffff1690506000601260010160009054906101000a900473ffffffffffffffffffffffffffffffffffffffff1690508073ffffffffffffffffffffffffffffffffffffffff1663a9059cbb83886040518363ffffffff1660e01b8152600401611869929190612b28565b6020604051808303816000875af1158015611888573d6000803e3d6000fd5b505050506040513d601f19601f820116820180604052508101906118ac9190612a0f565b508073ffffffffffffffffffffffffffffffffffffffff16634bbc1bcd601260020160009054906101000a900473ffffffffffffffffffffffffffffffffffffffff1660016040518363ffffffff1660e01b815260040161190e9291906129ba565b600060405180830381600087803b15801561192857600080fd5b505af115801561193c573d6000803e3d6000fd5b50505050611949876120b3565b600194505050505092915050565b60128060000160009054906101000a900473ffffffffffffffffffffffffffffffffffffffff16908060010160009054906101000a900473ffffffffffffffffffffffffffffffffffffffff16908060020160009054906101000a900473ffffffffffffffffffffffffffffffffffffffff16908060030160009054906101000a900473ffffffffffffffffffffffffffffffffffffffff16908060040160009054906101000a900473ffffffffffffffffffffffffffffffffffffffff16908060050160009054906101000a900473ffffffffffffffffffffffffffffffffffffffff16905086565b600b6020528060005260406000206000915054906101000a900473ffffffffffffffffffffffffffffffffffffffff1681565b60036020528060005260406000206000915090505481565b600f5481565b60005481565b601b6020528060005260406000206000915090505481565b60075481565b600080611ac2846114f9565b60186000015418905080341015611b0e576040517f08c379a0000000000000000000000000000000000000000000000000000000008152600401611b0590612c9b565b60405180910390fd5b6000601260010160009054906101000a900473ffffffffffffffffffffffffffffffffffffffff1690506000611b4386611519565b905060008273ffffffffffffffffffffffffffffffffffffffff166370a08231601a60008a815260200190815260200160002060009054906101000a900473ffffffffffffffffffffffffffffffffffffffff166040518263ffffffff1660e01b8152600401611bb391906124db565b602060405180830381865afa158015611bd0573d6000803e3d6000fd5b505050506040513d601f19601f82011682018060405250810190611bf4919061273c565b905081811015611c39576040517f08c379a0000000000000000000000000000000000000000000000000000000008152600401611c3090612d07565b60405180910390fd5b6000611c69601260040160009054906101000a900473ffffffffffffffffffffffffffffffffffffffff16611df2565b90508073ffffffffffffffffffffffffffffffffffffffff166348257aa46000548a30601260030160009054906101000a900473ffffffffffffffffffffffffffffffffffffffff168c6040518663ffffffff1660e01b8152600401611cd3959493929190612d27565b600060405180830381600087803b158015611ced57600080fd5b505af1158015611d01573d6000803e3d6000fd5b505050506000819050611d178960005483612135565b8473ffffffffffffffffffffffffffffffffffffffff166342966c68856040518263ffffffff1660e01b8152600401611d5091906123ea565b600060405180830381600087803b158015611d6a57600080fd5b505af1158015611d7e573d6000803e3d6000fd5b505050508073ffffffffffffffffffffffffffffffffffffffff166108fc349081150290604051600060405180830381858888f19350505050158015611dc8573d6000803e3d6000fd5b506001965050505050505092915050565b6000818310611de85781611dea565b825b905092915050565b60006040517f3d602d80600a3d3981f3363d3d373d3d3d363d7300000000000000000000000081528260601b60148201527f5af43d82803e903d91602b57fd5bf3000000000000000000000000000000000060288201526037816000f0915050600073ffffffffffffffffffffffffffffffffffffffff168173ffffffffffffffffffffffffffffffffffffffff1603611ec1576040517f08c379a0000000000000000000000000000000000000000000000000000000008152600401611eb890612dc6565b60405180910390fd5b919050565b600160096000828254611ed991906128d0565b925050819055508060076000828254611ef291906128d0565b92505081905550600a600085815260200190815260200160002083908060018154018082558091505060019003906000526020600020016000909190919091505580600d60008681526020019081526020016000206000828254611f5691906128d0565b9250508190555081600b600086815260200190815260200160002060006101000a81548173ffffffffffffffffffffffffffffffffffffffff021916908373ffffffffffffffffffffffffffffffffffffffff16021790555060016011600086815260200190815260200160002060006101000a81548160ff02191690831515021790555083600e60008581526020019081526020016000208190555050505050565b816007600082825461200b9190612a3c565b92505081905550816008600082825461202491906128d0565b925050819055506000600e600085815260200190815260200160002054905082600c6000838152602001908152602001600020600082825461206691906128d0565b925050819055506000838361207b9190612a3c565b036120ad5760006011600086815260200190815260200160002060006101000a81548160ff0219169083151502179055505b50505050565b6000600360008381526020019081526020016000205490506002600082815260200190815260200160002082908060018154018082558091505060019003906000526020600020016000909190919091505560006006600083815260200190815260200160002060006101000a81548160ff0219169083151502179055505050565b82600360008481526020019081526020016000208190555060016000848152602001908152602001600020829080600181540180825580915050600190039060005260206000200160009091909190915055600160046000848152602001908152602001600020600085815260200190815260200160002060006101000a81548160ff021916908315150217905550806005600084815260200190815260200160002060006101000a81548173ffffffffffffffffffffffffffffffffffffffff021916908373ffffffffffffffffffffffffffffffffffffffff160217905550600160008082825461222891906128d0565b9250508190555060016006600085815260200190815260200160002060006101000a81548160ff021916908315150217905550505050565b600080fd5b6000819050919050565b61227881612265565b811461228357600080fd5b50565b6000813590506122958161226f565b92915050565b6000602082840312156122b1576122b0612260565b5b60006122bf84828501612286565b91505092915050565b60008115159050919050565b6122dd816122c8565b82525050565b60006020820190506122f860008301846122d4565b92915050565b6000819050919050565b612311816122fe565b811461231c57600080fd5b50565b60008135905061232e81612308565b92915050565b6000806000806080858703121561234e5761234d612260565b5b600061235c87828801612286565b945050602061236d87828801612286565b935050604061237e87828801612286565b925050606061238f8782880161231f565b91505092959194509250565b600080604083850312156123b2576123b1612260565b5b60006123c085828601612286565b92505060206123d185828601612286565b9150509250929050565b6123e481612265565b82525050565b60006020820190506123ff60008301846123db565b92915050565b600060408201905061241a60008301856123db565b61242760208301846123db565b9392505050565b600073ffffffffffffffffffffffffffffffffffffffff82169050919050565b60006124598261242e565b9050919050565b6124698161244e565b811461247457600080fd5b50565b60008135905061248681612460565b92915050565b600080604083850312156124a3576124a2612260565b5b60006124b185828601612477565b92505060206124c285828601612286565b9150509250929050565b6124d58161244e565b82525050565b60006020820190506124f060008301846124cc565b92915050565b6000806040838503121561250d5761250c612260565b5b600061251b85828601612477565b925050602061252c85828601612477565b9150509250929050565b600080600080608085870312156125505761254f612260565b5b600061255e87828801612477565b945050602061256f87828801612286565b935050604061258087828801612286565b925050606061259187828801612286565b91505092959194509250565b600060c0820190506125b260008301896124cc565b6125bf60208301886124cc565b6125cc60408301876124cc565b6125d960608301866124cc565b6125e660808301856124cc565b6125f360a08301846124cc565b979650505050505050565b6000806040838503121561261557612614612260565b5b600061262385828601612286565b92505060206126348582860161231f565b9150509250929050565b600082825260208201905092915050565b7f43616c6c6572206973206e6f7420746865206f776e6572000000000000000000600082015250565b600061268560178361263e565b91506126908261264f565b602082019050919050565b600060208201905081810360008301526126b481612678565b9050919050565b7f4e6f74206861766520656e6f756768206d617474657200000000000000000000600082015250565b60006126f160168361263e565b91506126fc826126bb565b602082019050919050565b60006020820190508181036000830152612720816126e4565b9050919050565b6000815190506127368161226f565b92915050565b60006020828403121561275257612751612260565b5b600061276084828501612727565b91505092915050565b7f4e6f74206869676820656e6f7567680000000000000000000000000000000000600082015250565b600061279f600f8361263e565b91506127aa82612769565b602082019050919050565b600060208201905081810360008301526127ce81612792565b9050919050565b7f4e487b7100000000000000000000000000000000000000000000000000000000600052601260045260246000fd5b600061280f82612265565b915061281a83612265565b92508261282a576128296127d5565b5b828206905092915050565b7f447261772072617465206e6f7420646976697369626c65000000000000000000600082015250565b600061286b60178361263e565b915061287682612835565b602082019050919050565b6000602082019050818103600083015261289a8161285e565b9050919050565b7f4e487b7100000000000000000000000000000000000000000000000000000000600052601160045260246000fd5b60006128db82612265565b91506128e683612265565b92508282019050808211156128fe576128fd6128a1565b5b92915050565b7f4e487b7100000000000000000000000000000000000000000000000000000000600052603260045260246000fd5b600061293e82612265565b915061294983612265565b925082820261295781612265565b9150828204841483151761296e5761296d6128a1565b5b5092915050565b6000819050919050565b6000819050919050565b60006129a461299f61299a84612975565b61297f565b612265565b9050919050565b6129b481612989565b82525050565b60006040820190506129cf60008301856124cc565b6129dc60208301846129ab565b9392505050565b6129ec816122c8565b81146129f757600080fd5b50565b600081519050612a09816129e3565b92915050565b600060208284031215612a2557612a24612260565b5b6000612a33848285016129fa565b91505092915050565b6000612a4782612265565b9150612a5283612265565b9250828203905081811115612a6a57612a696128a1565b5b92915050565b6000612a7b82612265565b91507fffffffffffffffffffffffffffffffffffffffffffffffffffffffffffffffff8203612aad57612aac6128a1565b5b600182019050919050565b612ac1816122fe565b82525050565b600060c082019050612adc60008301896123db565b612ae960208301886123db565b612af660408301876123db565b612b0360608301866123db565b612b1060808301856124cc565b612b1d60a0830184612ab8565b979650505050505050565b6000604082019050612b3d60008301856124cc565b612b4a60208301846123db565b9392505050565b7f4e6f7420656e6f756768206d6174746572000000000000000000000000000000600082015250565b6000612b8760118361263e565b9150612b9282612b51565b602082019050919050565b60006020820190508181036000830152612bb681612b7a565b9050919050565b7f43616c6c6572206973206e6f742074686520726967687420436f736d6f53656560008201527f6420636f6e747261637400000000000000000000000000000000000000000000602082015250565b6000612c19602a8361263e565b9150612c2482612bbd565b604082019050919050565b60006020820190508181036000830152612c4881612c0c565b9050919050565b7f45746865722076616c7565206973206e6f7420656e6f75676800000000000000600082015250565b6000612c8560198361263e565b9150612c9082612c4f565b602082019050919050565b60006020820190508181036000830152612cb481612c78565b9050919050565b7f4d61747465722062616c616e6365206973206e6f7420656e6f75676800000000600082015250565b6000612cf1601c8361263e565b9150612cfc82612cbb565b602082019050919050565b60006020820190508181036000830152612d2081612ce4565b9050919050565b600060a082019050612d3c60008301886123db565b612d4960208301876123db565b612d5660408301866124cc565b612d6360608301856124cc565b612d706080830184612ab8565b9695505050505050565b7f455243313136373a20637265617465206661696c656400000000000000000000600082015250565b6000612db060168361263e565b9150612dbb82612d7a565b602082019050919050565b60006020820190508181036000830152612ddf81612da3565b905091905056fea26469706673582212204fec06cd4d9d3d1fbe799c1c6db2e050fc77210ded614f2605bae667a4396b6064736f6c63430008110033",
  "immutableReferences": {},
  "source": "// SPDX-License-Identifier: MIT\npragma solidity ^0.8.7;\n\nimport \"openzeppelin-solidity/contracts/utils/math/Math.sol\";\nimport { Clones } from \"openzeppelin-solidity/contracts/proxy/Clones.sol\";\n\nimport \"./CosmoMatter.sol\";\nimport \"./CosmoSeed.sol\";\nimport \"./CosmoButter.sol\";\nimport \"./ICosmoTreasury.sol\";\n\nimport \"./SeedAccounts.sol\";\nimport \"./ButterAccounts.sol\";\n\n/**\n * @dev Manages the matter balance of the CosmoNuts collection and handles interaction with the\n * ERC20 Token to mint, burn, and allocate balances\n * Acts as storage for the ERC 721 tokens on their created Seed and Butter contracts.\n */\n contract CosmoTreasury is SeedAccounts, ButterAccounts, ICosmoTreasury {\n\n     /**\n      * @dev Saved addresses include the contract which created the Treasury: UNIVERSE_ADDRESS, and\n      * the address of the CosmoNuts contract (NFTs) which is created after the Treasury and then updated: matter_ADDRESS.\n      */\n     struct AddressOf {\n         address system;\n         address matter;\n         address treasury;\n         address cosmos;\n         address seedImplementation;\n         address butterImplementation;\n     }\n     AddressOf public addressOf;\n\n     struct Nut {\n         uint256 price;\n         uint256 rate;\n     }\n     Nut public nut;\n\n     mapping(uint256 => address) public currentOwnerOfNut; // Record of current nut owners by address\n     mapping(uint256 => uint256) public matterBalanceOfNut; // Matter balance of each Nut recorded by the Treasury\n\n     uint256[] public nutsPayeeList; // List of nuts to be provided a balance\n\n     function initialize(address _systemAddress, address _matterAddress) external {\n         addressOf.system = _systemAddress;\n         addressOf.matter = _matterAddress;\n         addressOf.treasury = address(this);\n     }\n\n     /*\n     modifier onlyUniverse {\n         require(address(msg.sender) == UNIVERSE_ADDRESS, \"Caller is not Universe\");\n         _;\n     }\n     */\n\n     /*\n     function updateCosmosAddress(address _matterAddressNew) external onlyUniverse {\n         MATTER_ADDRESS = _matterAddressNew;\n     }\n     */\n\n     //function updateNutPrice(uint256 _setNutPrice) external onlyUniverse {\n     //    NUT_PRICE = _setNutPrice;\n     //}\n\n     function getPrice() public view virtual override returns (uint256) {\n         return nut.price;\n     }\n\n     function matterNeeded(uint256 _nutId) public view virtual override returns (uint256) {\n         return nut.rate ^ (numOfSeedsOf(_nutId));\n     }\n\n     function spawnSeed(uint256 _nutId, bytes32 _secretHash) external virtual override payable returns (bool) {\n         uint256 ethToHold = nut.price ^ (numOfSeedsGrownOf(_nutId));\n         require(msg.value >= ethToHold, \"Ether value is not enough\");\n\n         CosmoMatter matter = CosmoMatter(addressOf.matter);\n         uint256 matterToBurn = matterNeeded(_nutId);\n         uint256 matterOfOwner = matter.balanceOf(currentOwnerOfNut[_nutId]);\n         require(matterOfOwner >= matterToBurn, \"Matter balance is not enough\");\n\n         CosmoSeed cosmoseed = CosmoSeed(Clones.clone(addressOf.seedImplementation));\n         cosmoseed.initialize(\n             seedsCreated, _nutId, address(this), addressOf.cosmos, _secretHash\n         );\n\n         address seedLocation = address(cosmoseed);\n         integrateSeed(_nutId, seedsCreated, seedLocation);\n\n         matter.burn(matterToBurn);\n         payable(seedLocation).transfer(msg.value);\n\n         return true;\n     }\n\n     /**\n      * Called from CosmoSeed contract.\n      */\n     function seedFromNut(uint256 _seedId, uint256 _matterNeeded) external virtual override returns (bool) {\n         address seedAddress = seedLocations[_seedId];\n         require(address(msg.sender) == seedAddress, \"Caller is not the right CosmoSeed contract\");\n         //require(matter.balanceOf(address(msg.sender)) >= _matterNeeded, \"Not enough matter\");\n\n         CosmoSeed seed = CosmoSeed(seedAddress);\n\n         address nutOwner = currentOwnerOfNut[seed.nutId()];\n         CosmoMatter matter = CosmoMatter(addressOf.matter);\n         matter.transfer(nutOwner, _matterNeeded);\n         matter.mintMatter(addressOf.treasury, 1);\n\n         growSeed(_seedId);\n\n         return true;\n     }\n\n     /**\n      * Creating new butter means the creation of a contract where other users can withdraw matter from.\n      * Need to contribute butter (which can only be done if you have a Nut with the desired level of matter to give away.\n      * A secret message is provided in hash form and checked for verification to withdraw funds.\n      */\n     function newButter(\n         uint256 _nutId,\n         uint256 _matterContributed,\n         uint256 _matterDrawRate,\n         bytes32 _secretHash\n     ) external virtual override returns (bool) {\n         address nutOwner = currentOwnerOfNut[_nutId];\n         // Do we need to be doing these checks twice? Or really new check that caller is from contract (? or person who clicked?)\n         require(nutOwner == address(msg.sender), \"Caller is not the owner\");\n         require(matterBalanceOfNut[_nutId] >= _matterContributed, \"Not have enough matter\");\n         CosmoMatter matter = CosmoMatter(addressOf.matter);\n         require(_matterContributed <= matter.balanceOf(nutOwner), \"Not high enough\");\n         require(_matterContributed % _matterDrawRate == 0, \"Draw rate not divisible\");\n\n         /**\n          * A nut must have already grown a seed to start being counted as part of the deficiency list.\n          */\n         if (numOfSeedsGrownOf(_nutId) > 0) {\n             butterDeficiencyInUniverse += _matterContributed;\n             butterDeficiencyOfNut[_nutId] += _matterContributed;\n             nutsPayeeList.push(_nutId);\n         }\n\n         /**\n          * The Treasury wants to distribute its available balance to the nutsPayeeList.\n          * It will distribute the minimum of either its available balance or the deficiency in the Universe.\n          * All payees are awarded one matter and moved to the end of the list.\n          * When their maximum available balance is reached, they are removed from the payee list.\n          */\n         uint256 matterInTreasury = matter.balanceOf(addressOf.treasury);\n         if (matterInTreasury > 0) {\n             uint256 toDistribute = Math.min(matterInTreasury, butterDeficiencyInUniverse);\n\n             uint256 index = 0;\n             for (uint j = 0; j != toDistribute; j++) {\n                 uint256 allPayees = nutsPayeeList.length;\n                 if (allPayees == 0) {\n                     break;\n                 }\n\n                 if (j > allPayees) {\n                     index = 0;\n                 }\n\n                 uint256 nutPayeeId = nutsPayeeList[index];\n                 address nutOwnerPayee = currentOwnerOfNut[nutPayeeId];\n                 uint256 maxMatter = numOfSeedsGrownOf(nutPayeeId) * nut.rate;\n                 if (matterBalanceOfNut[nutPayeeId] == maxMatter) {\n                     delete nutsPayeeList[index];\n                 } else {\n                     matter.transfer(nutOwnerPayee, 1);\n                     nutsPayeeList.push(nutPayeeId);\n                     delete nutsPayeeList[index];\n\n                     butterDeficiencyInUniverse -= 1;\n                     butterDeficiencyOfNut[nutPayeeId] -= 1;\n                 }\n\n                 index++;\n            }\n         }\n\n         CosmoButter butter = CosmoButter(Clones.clone(addressOf.butterImplementation));\n         butter.initialize(\n             butterJars, _nutId, _matterContributed, _matterDrawRate, addressOf.treasury, _secretHash\n         );\n\n         matter.transfer(address(butter), _matterContributed);\n         churnButter(_nutId, butterJars, address(butter), _matterContributed);\n\n         return true;\n\n     }\n\n     /**\n      * Runs from CosmoButter contract when someone requests to draw matter.\n      */\n     function butterDrawn(\n         address _drawer,\n         uint256 _butterId,\n         uint256 _balance,\n         uint256 _currentBalance\n     ) external virtual override returns (bool) {\n         CosmoMatter matter = CosmoMatter(addressOf.matter);\n         matter.transfer(_drawer, _balance);\n         matter.mintMatter(address(this), _balance);\n         distributeButter(_butterId, _balance, _currentBalance);\n\n         return true;\n     }\n\n     function assignMintBalance(address _tokenOwner, uint256 _tokenId) external virtual override returns (bool) {\n         CosmoMatter matter = CosmoMatter(addressOf.matter);\n         require(matter.balanceOf(addressOf.treasury) >= nut.rate, \"Not enough matter\");\n         matter.transfer(_tokenOwner, nut.rate);\n         matterBalanceOfNut[_tokenId] = nut.rate;\n\n         return true;\n     }\n\n }\n",
  "sourcePath": "/home/redlentils/Seafile/Websites/avatarnft/contracts/CosmoTreasury.sol",
  "compiler": {
    "name": "solc",
    "version": "0.8.17+commit.8df45f5f.Emscripten.clang"
  },
  "schemaVersion": "3.4.10",
  "updatedAt": "2022-10-18T17:29:50.930Z",
  "devdoc": {
    "details": "Manages the matter balance of the CosmoNuts collection and handles interaction with the ERC20 Token to mint, burn, and allocate balances Acts as storage for the ERC 721 tokens on their created Seed and Butter contracts.",
    "kind": "dev",
    "methods": {},
    "version": 1
  },
  "userdoc": {
    "kind": "user",
    "methods": {
      "butterDrawn(address,uint256,uint256,uint256)": {
        "notice": "Runs from CosmoButter contract when someone requests to draw matter."
      },
      "butterWeight()": {
        "notice": "butterWeight is the amount of matter in the universe that is currently outstanding. butterSpread is the amount of matter that has been distributed from butterWeight, thus reducing its value. butterJars represent the total number of matter contracts created in the Universe."
      },
      "buttersOfNut(uint256,uint256)": {
        "notice": "buttersOfNut represents a list of all butter contracts created byt that nut. butterLocations represents the address of contract identifed by butterId."
      },
      "newButter(uint256,uint256,uint256,bytes32)": {
        "notice": "Creating new butter means the creation of a contract where other users can withdraw matter from. Need to contribute butter (which can only be done if you have a Nut with the desired level of matter to give away. A secret message is provided in hash form and checked for verification to withdraw funds."
      },
      "seedFromNut(uint256,uint256)": {
        "notice": "Called from CosmoSeed contract."
      }
    },
    "version": 1
  }
}