{
  "contractName": "CosmoSeed",
  "abi": [
    {
      "inputs": [
        {
          "internalType": "address",
          "name": "_nutsAddress",
          "type": "address"
        },
        {
          "internalType": "uint256",
          "name": "_tokenId",
          "type": "uint256"
        },
        {
          "internalType": "uint256",
          "name": "_sapplingId",
          "type": "uint256"
        },
        {
          "internalType": "bytes32",
          "name": "_secretHash",
          "type": "bytes32"
        },
        {
          "internalType": "address",
          "name": "_treasuryAddress",
          "type": "address"
        },
        {
          "internalType": "uint256",
          "name": "_nutPrice",
          "type": "uint256"
        }
      ],
      "stateMutability": "payable",
      "type": "constructor"
    },
    {
      "inputs": [],
      "name": "NUT_ID",
      "outputs": [
        {
          "internalType": "uint256",
          "name": "",
          "type": "uint256"
        }
      ],
      "stateMutability": "view",
      "type": "function"
    },
    {
      "inputs": [],
      "name": "SEED_ID",
      "outputs": [
        {
          "internalType": "uint256",
          "name": "",
          "type": "uint256"
        }
      ],
      "stateMutability": "view",
      "type": "function"
    },
    {
      "inputs": [],
      "name": "TREASURY_ADDRESS",
      "outputs": [
        {
          "internalType": "address",
          "name": "",
          "type": "address"
        }
      ],
      "stateMutability": "view",
      "type": "function"
    },
    {
      "inputs": [],
      "name": "lockedEther",
      "outputs": [
        {
          "internalType": "uint256",
          "name": "",
          "type": "uint256"
        }
      ],
      "stateMutability": "view",
      "type": "function"
    },
    {
      "inputs": [],
      "name": "matterNeeded",
      "outputs": [
        {
          "internalType": "uint256",
          "name": "",
          "type": "uint256"
        }
      ],
      "stateMutability": "view",
      "type": "function"
    },
    {
      "inputs": [
        {
          "internalType": "address",
          "name": "_parentNutOwner",
          "type": "address"
        }
      ],
      "name": "degradeSeed",
      "outputs": [],
      "stateMutability": "payable",
      "type": "function"
    },
    {
      "inputs": [
        {
          "internalType": "string",
          "name": "_secret",
          "type": "string"
        },
        {
          "internalType": "string",
          "name": "_cidPath",
          "type": "string"
        },
        {
          "internalType": "bytes",
          "name": "_signature",
          "type": "bytes"
        }
      ],
      "name": "spawnNut",
      "outputs": [],
      "stateMutability": "nonpayable",
      "type": "function"
    }
  ],
  "bytecode": "0x608060405260405162000d0038038062000d008339818101604052810190620000299190620001fb565b85600760006101000a81548173ffffffffffffffffffffffffffffffffffffffff021916908373ffffffffffffffffffffffffffffffffffffffff16021790555081600860006101000a81548173ffffffffffffffffffffffffffffffffffffffff021916908373ffffffffffffffffffffffffffffffffffffffff16021790555084600081905550836001819055508260028190555081600360006101000a81548173ffffffffffffffffffffffffffffffffffffffff021916908373ffffffffffffffffffffffffffffffffffffffff160217905550346005819055508060048190555050505050505062000297565b600080fd5b600073ffffffffffffffffffffffffffffffffffffffff82169050919050565b60006200014d8262000120565b9050919050565b6200015f8162000140565b81146200016b57600080fd5b50565b6000815190506200017f8162000154565b92915050565b6000819050919050565b6200019a8162000185565b8114620001a657600080fd5b50565b600081519050620001ba816200018f565b92915050565b6000819050919050565b620001d581620001c0565b8114620001e157600080fd5b50565b600081519050620001f581620001ca565b92915050565b60008060008060008060c087890312156200021b576200021a6200011b565b5b60006200022b89828a016200016e565b96505060206200023e89828a01620001a9565b95505060406200025189828a01620001a9565b94505060606200026489828a01620001e4565b93505060806200027789828a016200016e565b92505060a06200028a89828a01620001a9565b9150509295509295509295565b610a5980620002a76000396000f3fe6080604052600436106100705760003560e01c80637fdca4821161004e5780637fdca482146100e75780638ad23aea14610112578063956c2dc31461013d578063c5d12c971461016657610070565b806307604b1a1461007557806326b2c77c146100a05780632c5553c9146100bc575b600080fd5b34801561008157600080fd5b5061008a610191565b6040516100979190610483565b60405180910390f35b6100ba60048036038101906100b591906104de565b6101b7565b005b3480156100c857600080fd5b506100d161027f565b6040516100de9190610524565b60405180910390f35b3480156100f357600080fd5b506100fc610285565b6040516101099190610524565b60405180910390f35b34801561011e57600080fd5b5061012761028b565b6040516101349190610524565b60405180910390f35b34801561014957600080fd5b50610164600480360381019061015f9190610726565b610291565b005b34801561017257600080fd5b5061017b6103c2565b6040516101889190610524565b60405180910390f35b600360009054906101000a900473ffffffffffffffffffffffffffffffffffffffff1681565b6000600454346101c791906107fc565b9050600360009054906101000a900473ffffffffffffffffffffffffffffffffffffffff1673ffffffffffffffffffffffffffffffffffffffff166108fc6004549081150290604051600060405180830381858888f19350505050158015610233573d6000803e3d6000fd5b508173ffffffffffffffffffffffffffffffffffffffff166108fc829081150290604051600060405180830381858888f1935050505015801561027a573d6000803e3d6000fd5b505050565b60005481565b60015481565b60055481565b61029a836103c8565b50600860009054906101000a900473ffffffffffffffffffffffffffffffffffffffff1673ffffffffffffffffffffffffffffffffffffffff1663733b0bca6001546006546040518363ffffffff1660e01b81526004016102fc929190610830565b600060405180830381600087803b15801561031657600080fd5b505af115801561032a573d6000803e3d6000fd5b50505050600760009054906101000a900473ffffffffffffffffffffffffffffffffffffffff1673ffffffffffffffffffffffffffffffffffffffff1663a0e12efe83836040518363ffffffff1660e01b815260040161038b92919061092d565b600060405180830381600087803b1580156103a557600080fd5b505af11580156103b9573d6000803e3d6000fd5b50505050505050565b60065481565b600080826040516020016103dc91906109a0565b6040516020818303038152906040528051906020012090506002548114610438576040517f08c379a000000000000000000000000000000000000000000000000000000000815260040161042f90610a03565b60405180910390fd5b6001915050919050565b600073ffffffffffffffffffffffffffffffffffffffff82169050919050565b600061046d82610442565b9050919050565b61047d81610462565b82525050565b60006020820190506104986000830184610474565b92915050565b6000604051905090565b600080fd5b600080fd5b6104bb81610462565b81146104c657600080fd5b50565b6000813590506104d8816104b2565b92915050565b6000602082840312156104f4576104f36104a8565b5b6000610502848285016104c9565b91505092915050565b6000819050919050565b61051e8161050b565b82525050565b60006020820190506105396000830184610515565b92915050565b600080fd5b600080fd5b6000601f19601f8301169050919050565b7f4e487b7100000000000000000000000000000000000000000000000000000000600052604160045260246000fd5b61059282610549565b810181811067ffffffffffffffff821117156105b1576105b061055a565b5b80604052505050565b60006105c461049e565b90506105d08282610589565b919050565b600067ffffffffffffffff8211156105f0576105ef61055a565b5b6105f982610549565b9050602081019050919050565b82818337600083830152505050565b6000610628610623846105d5565b6105ba565b90508281526020810184848401111561064457610643610544565b5b61064f848285610606565b509392505050565b600082601f83011261066c5761066b61053f565b5b813561067c848260208601610615565b91505092915050565b600067ffffffffffffffff8211156106a05761069f61055a565b5b6106a982610549565b9050602081019050919050565b60006106c96106c484610685565b6105ba565b9050828152602081018484840111156106e5576106e4610544565b5b6106f0848285610606565b509392505050565b600082601f83011261070d5761070c61053f565b5b813561071d8482602086016106b6565b91505092915050565b60008060006060848603121561073f5761073e6104a8565b5b600084013567ffffffffffffffff81111561075d5761075c6104ad565b5b61076986828701610657565b935050602084013567ffffffffffffffff81111561078a576107896104ad565b5b61079686828701610657565b925050604084013567ffffffffffffffff8111156107b7576107b66104ad565b5b6107c3868287016106f8565b9150509250925092565b7f4e487b7100000000000000000000000000000000000000000000000000000000600052601160045260246000fd5b60006108078261050b565b91506108128361050b565b925082820390508181111561082a576108296107cd565b5b92915050565b60006040820190506108456000830185610515565b6108526020830184610515565b9392505050565b600081519050919050565b600082825260208201905092915050565b60005b83811015610893578082015181840152602081019050610878565b60008484015250505050565b60006108aa82610859565b6108b48185610864565b93506108c4818560208601610875565b6108cd81610549565b840191505092915050565b600081519050919050565b600082825260208201905092915050565b60006108ff826108d8565b61090981856108e3565b9350610919818560208601610875565b61092281610549565b840191505092915050565b60006040820190508181036000830152610947818561089f565b9050818103602083015261095b81846108f4565b90509392505050565b600081905092915050565b600061097a82610859565b6109848185610964565b9350610994818560208601610875565b80840191505092915050565b60006109ac828461096f565b915081905092915050565b7f496e70757420646f6573206e6f74206d61746368207365637265740000000000600082015250565b60006109ed601b83610864565b91506109f8826109b7565b602082019050919050565b60006020820190508181036000830152610a1c816109e0565b905091905056fea26469706673582212205f4f2c3e7e2f6c1e4e9e25a815b0e99c00f2dbcef1bdffcdf92524b8e07a83a464736f6c63430008110033",
  "immutableReferences": {},
  "source": "// SPDX-License-Identifier: MIT\npragma solidity ^0.8.7;\n\nimport \"./CosmoNuts.sol\";\nimport \"./CosmoTreasury.sol\";\n\ncontract CosmoSeed {\n\n    uint256 public NUT_ID; // Represents the number of the Nut that created this contract (sappling('seed'))\n    uint256 public SEED_ID; // A unique Id for the contract, also the latest one created in the Universe\n    bytes32 private SECRET_HASH; // A secret hash stored on blockchain for verification purposes later\n    address public TREASURY_ADDRESS; // The address of the Treasury assigned to deal with balances\n\n    uint256 nutPrice;\n    uint256 public lockedEther;\n    uint256 public matterNeeded;\n\n    CosmoNuts cosmonuts;\n    CosmoTreasury treasury;\n\n    constructor(\n        address _nutsAddress,\n        uint256 _tokenId,\n        uint256 _sapplingId,\n        bytes32 _secretHash,\n        address _treasuryAddress,\n        uint256 _nutPrice\n    ) payable {\n        cosmonuts = CosmoNuts(_nutsAddress);\n        treasury = CosmoTreasury(_treasuryAddress);\n        NUT_ID = _tokenId;\n        SEED_ID = _sapplingId;\n        SECRET_HASH = _secretHash;\n        TREASURY_ADDRESS = _treasuryAddress;\n        lockedEther = msg.value;\n        nutPrice = _nutPrice;\n    }\n\n    /**\n     * Takes a string input and hashes it; compares to the SECRET_HASH in the contract\n     * If it matches, returns true\n     */\n    function verifySecret(string memory _input) private view returns(bool) {\n        bytes32 inputHash = keccak256(abi.encodePacked(_input));\n        require(inputHash == SECRET_HASH, \"Input does not match secret\");\n        return true;\n    }\n\n    /**\n     * Called from CosmoNuts as part of the spawnNut function below\n     * Jumping back to transfer funds, and downgrade contract (does this mean deletion? - self-destruct)\n     */\n    function degradeSeed(address _parentNutOwner) external payable {\n        // Something not right here - need to double check how does msg.value work here?\n        uint256 excessEth = msg.value - nutPrice; // Excess ether is defined as total paid less orignial set price\n        payable(TREASURY_ADDRESS).transfer(nutPrice); // Transfer the set nut price to Treasury\n        payable(_parentNutOwner).transfer(excessEth); // Transfer remaining back to parent nut owner\n    }\n\n    /**\n     * Can be called from anyone who comes across, asks for secret from user\n     * The application fills out the path and signature\n     * If provided secret is correct, a new CosmoNut is minted and assigned to caller\n     */\n    function spawnNut(string memory _secret, string memory _cidPath, bytes memory _signature) public {\n        verifySecret(_secret); // Check whether provided secret is correct\n        treasury.growSeedFromNut(SEED_ID, matterNeeded);\n        cosmonuts.createNut(_cidPath, _signature); // Mints the new NFT and assigns to caller\n    }\n\n}\n",
  "sourcePath": "/home/redlentils/Seafile/Websites/avatarnft/contracts/CosmoSeed.sol",
  "compiler": {
    "name": "solc",
    "version": "0.8.17+commit.8df45f5f.Emscripten.clang"
  },
  "schemaVersion": "3.4.10",
  "updatedAt": "2022-10-03T21:57:54.807Z",
  "devdoc": {
    "kind": "dev",
    "methods": {},
    "version": 1
  },
  "userdoc": {
    "kind": "user",
    "methods": {
      "degradeSeed(address)": {
        "notice": "Called from CosmoNuts as part of the spawnNut function below Jumping back to transfer funds, and downgrade contract (does this mean deletion? - self-destruct)"
      },
      "spawnNut(string,string,bytes)": {
        "notice": "Can be called from anyone who comes across, asks for secret from user The application fills out the path and signature If provided secret is correct, a new CosmoNut is minted and assigned to caller"
      }
    },
    "version": 1
  }
}