{
  "contractName": "CosmoSeed",
  "abi": [
    {
      "inputs": [
        {
          "internalType": "uint256",
          "name": "_seedId",
          "type": "uint256"
        },
        {
          "internalType": "uint256",
          "name": "_nutId",
          "type": "uint256"
        },
        {
          "internalType": "address",
          "name": "_treasuryLocation",
          "type": "address"
        },
        {
          "internalType": "address",
          "name": "_cosmosLocation",
          "type": "address"
        },
        {
          "internalType": "bytes32",
          "name": "_secretHash",
          "type": "bytes32"
        }
      ],
      "stateMutability": "payable",
      "type": "constructor"
    },
    {
      "inputs": [],
      "name": "seed",
      "outputs": [
        {
          "internalType": "uint256",
          "name": "id",
          "type": "uint256"
        },
        {
          "internalType": "uint256",
          "name": "nutId",
          "type": "uint256"
        },
        {
          "internalType": "uint256",
          "name": "heldEther",
          "type": "uint256"
        },
        {
          "internalType": "uint256",
          "name": "matterNeeded",
          "type": "uint256"
        },
        {
          "internalType": "address",
          "name": "location",
          "type": "address"
        },
        {
          "internalType": "address",
          "name": "treasuryLocation",
          "type": "address"
        },
        {
          "internalType": "address",
          "name": "cosmosLocation",
          "type": "address"
        },
        {
          "internalType": "bytes32",
          "name": "secretHash",
          "type": "bytes32"
        }
      ],
      "stateMutability": "view",
      "type": "function"
    },
    {
      "inputs": [],
      "name": "matterNeeded",
      "outputs": [
        {
          "internalType": "uint256",
          "name": "",
          "type": "uint256"
        }
      ],
      "stateMutability": "view",
      "type": "function"
    },
    {
      "inputs": [],
      "name": "nutId",
      "outputs": [
        {
          "internalType": "uint256",
          "name": "",
          "type": "uint256"
        }
      ],
      "stateMutability": "view",
      "type": "function"
    },
    {
      "inputs": [
        {
          "internalType": "string",
          "name": "_secret",
          "type": "string"
        },
        {
          "internalType": "string",
          "name": "_cidPath",
          "type": "string"
        },
        {
          "internalType": "bytes",
          "name": "_signature",
          "type": "bytes"
        }
      ],
      "name": "spawnNut",
      "outputs": [],
      "stateMutability": "nonpayable",
      "type": "function"
    }
  ],
  "bytecode": "0x6080604052604051620012233803806200122383398181016040528101906200002991906200028f565b84600080018190555083600060010181905550346000600201819055508273ffffffffffffffffffffffffffffffffffffffff16638ed3df0f856040518263ffffffff1660e01b815260040162000081919062000328565b602060405180830381865afa1580156200009f573d6000803e3d6000fd5b505050506040513d601f19601f82011682018060405250810190620000c5919062000345565b60006003018190555030600060040160006101000a81548173ffffffffffffffffffffffffffffffffffffffff021916908373ffffffffffffffffffffffffffffffffffffffff16021790555082600060050160006101000a81548173ffffffffffffffffffffffffffffffffffffffff021916908373ffffffffffffffffffffffffffffffffffffffff16021790555081600060060160006101000a81548173ffffffffffffffffffffffffffffffffffffffff021916908373ffffffffffffffffffffffffffffffffffffffff16021790555080600060070181905550505050505062000377565b600080fd5b6000819050919050565b620001c981620001b4565b8114620001d557600080fd5b50565b600081519050620001e981620001be565b92915050565b600073ffffffffffffffffffffffffffffffffffffffff82169050919050565b60006200021c82620001ef565b9050919050565b6200022e816200020f565b81146200023a57600080fd5b50565b6000815190506200024e8162000223565b92915050565b6000819050919050565b620002698162000254565b81146200027557600080fd5b50565b60008151905062000289816200025e565b92915050565b600080600080600060a08688031215620002ae57620002ad620001af565b5b6000620002be88828901620001d8565b9550506020620002d188828901620001d8565b9450506040620002e4888289016200023d565b9350506060620002f7888289016200023d565b92505060806200030a8882890162000278565b9150509295509295909350565b6200032281620001b4565b82525050565b60006020820190506200033f600083018462000317565b92915050565b6000602082840312156200035e576200035d620001af565b5b60006200036e84828501620001d8565b91505092915050565b610e9c80620003876000396000f3fe608060405234801561001057600080fd5b506004361061004c5760003560e01c8063685771f4146100515780637d94792a1461006f578063956c2dc314610094578063c5d12c97146100b0575b600080fd5b6100596100ce565b6040516100669190610646565b60405180910390f35b6100776100da565b60405161008b9897969594939291906106bb565b60405180910390f35b6100ae60048036038101906100a99190610934565b610170565b005b6100b86105a4565b6040516100c59190610646565b60405180910390f35b60008060010154905090565b60008060000154908060010154908060020154908060030154908060040160009054906101000a900473ffffffffffffffffffffffffffffffffffffffff16908060050160009054906101000a900473ffffffffffffffffffffffffffffffffffffffff16908060060160009054906101000a900473ffffffffffffffffffffffffffffffffffffffff16908060070154905088565b610179836105b0565b50600060050160009054906101000a900473ffffffffffffffffffffffffffffffffffffffff1673ffffffffffffffffffffffffffffffffffffffff1663a06fc90b60008001546000600301546040518363ffffffff1660e01b81526004016101e39291906109db565b6020604051808303816000875af1158015610202573d6000803e3d6000fd5b505050506040513d601f19601f820116820180604052508101906102269190610a3c565b50600060060160009054906101000a900473ffffffffffffffffffffffffffffffffffffffff1673ffffffffffffffffffffffffffffffffffffffff1663a0e12efe83836040518363ffffffff1660e01b8152600401610287929190610b3d565b6020604051808303816000875af11580156102a6573d6000803e3d6000fd5b505050506040513d601f19601f820116820180604052508101906102ca9190610a3c565b5060008060050160009054906101000a900473ffffffffffffffffffffffffffffffffffffffff1673ffffffffffffffffffffffffffffffffffffffff166398d5fdca6040518163ffffffff1660e01b8152600401602060405180830381865afa15801561033c573d6000803e3d6000fd5b505050506040513d601f19601f820116820180604052508101906103609190610ba0565b905060008060050160009054906101000a900473ffffffffffffffffffffffffffffffffffffffff1673ffffffffffffffffffffffffffffffffffffffff16826040516103ac90610bfe565b60006040518083038185875af1925050503d80600081146103e9576040519150601f19603f3d011682016040523d82523d6000602084013e6103ee565b606091505b5050905080610432576040517f08c379a000000000000000000000000000000000000000000000000000000000815260040161042990610c5f565b60405180910390fd5b6000826000600201546104459190610cae565b905060008060060160009054906101000a900473ffffffffffffffffffffffffffffffffffffffff1673ffffffffffffffffffffffffffffffffffffffff1663836387106000600101546040518263ffffffff1660e01b81526004016104ab9190610646565b602060405180830381865afa1580156104c8573d6000803e3d6000fd5b505050506040513d601f19601f820116820180604052508101906104ec9190610d0e565b905060008173ffffffffffffffffffffffffffffffffffffffff168360405161051490610bfe565b60006040518083038185875af1925050503d8060008114610551576040519150601f19603f3d011682016040523d82523d6000602084013e610556565b606091505b505090508061059a576040517f08c379a000000000000000000000000000000000000000000000000000000000815260040161059190610d87565b60405180910390fd5b5050505050505050565b60008060030154905090565b600080826040516020016105c49190610de3565b6040516020818303038152906040528051906020012090506000600701548114610623576040517f08c379a000000000000000000000000000000000000000000000000000000000815260040161061a90610e46565b60405180910390fd5b6001915050919050565b6000819050919050565b6106408161062d565b82525050565b600060208201905061065b6000830184610637565b92915050565b600073ffffffffffffffffffffffffffffffffffffffff82169050919050565b600061068c82610661565b9050919050565b61069c81610681565b82525050565b6000819050919050565b6106b5816106a2565b82525050565b6000610100820190506106d1600083018b610637565b6106de602083018a610637565b6106eb6040830189610637565b6106f86060830188610637565b6107056080830187610693565b61071260a0830186610693565b61071f60c0830185610693565b61072c60e08301846106ac565b9998505050505050505050565b6000604051905090565b600080fd5b600080fd5b600080fd5b600080fd5b6000601f19601f8301169050919050565b7f4e487b7100000000000000000000000000000000000000000000000000000000600052604160045260246000fd5b6107a082610757565b810181811067ffffffffffffffff821117156107bf576107be610768565b5b80604052505050565b60006107d2610739565b90506107de8282610797565b919050565b600067ffffffffffffffff8211156107fe576107fd610768565b5b61080782610757565b9050602081019050919050565b82818337600083830152505050565b6000610836610831846107e3565b6107c8565b90508281526020810184848401111561085257610851610752565b5b61085d848285610814565b509392505050565b600082601f83011261087a5761087961074d565b5b813561088a848260208601610823565b91505092915050565b600067ffffffffffffffff8211156108ae576108ad610768565b5b6108b782610757565b9050602081019050919050565b60006108d76108d284610893565b6107c8565b9050828152602081018484840111156108f3576108f2610752565b5b6108fe848285610814565b509392505050565b600082601f83011261091b5761091a61074d565b5b813561092b8482602086016108c4565b91505092915050565b60008060006060848603121561094d5761094c610743565b5b600084013567ffffffffffffffff81111561096b5761096a610748565b5b61097786828701610865565b935050602084013567ffffffffffffffff81111561099857610997610748565b5b6109a486828701610865565b925050604084013567ffffffffffffffff8111156109c5576109c4610748565b5b6109d186828701610906565b9150509250925092565b60006040820190506109f06000830185610637565b6109fd6020830184610637565b9392505050565b60008115159050919050565b610a1981610a04565b8114610a2457600080fd5b50565b600081519050610a3681610a10565b92915050565b600060208284031215610a5257610a51610743565b5b6000610a6084828501610a27565b91505092915050565b600081519050919050565b600082825260208201905092915050565b60005b83811015610aa3578082015181840152602081019050610a88565b60008484015250505050565b6000610aba82610a69565b610ac48185610a74565b9350610ad4818560208601610a85565b610add81610757565b840191505092915050565b600081519050919050565b600082825260208201905092915050565b6000610b0f82610ae8565b610b198185610af3565b9350610b29818560208601610a85565b610b3281610757565b840191505092915050565b60006040820190508181036000830152610b578185610aaf565b90508181036020830152610b6b8184610b04565b90509392505050565b610b7d8161062d565b8114610b8857600080fd5b50565b600081519050610b9a81610b74565b92915050565b600060208284031215610bb657610bb5610743565b5b6000610bc484828501610b8b565b91505092915050565b600081905092915050565b50565b6000610be8600083610bcd565b9150610bf382610bd8565b600082019050919050565b6000610c0982610bdb565b9150819050919050565b7f4574686572206e6f742073656e7420746f205472656173757279000000000000600082015250565b6000610c49601a83610a74565b9150610c5482610c13565b602082019050919050565b60006020820190508181036000830152610c7881610c3c565b9050919050565b7f4e487b7100000000000000000000000000000000000000000000000000000000600052601160045260246000fd5b6000610cb98261062d565b9150610cc48361062d565b9250828203905081811115610cdc57610cdb610c7f565b5b92915050565b610ceb81610681565b8114610cf657600080fd5b50565b600081519050610d0881610ce2565b92915050565b600060208284031215610d2457610d23610743565b5b6000610d3284828501610cf9565b91505092915050565b7f4574686572206e6f742073656e7420746f20706172656e74206e757400000000600082015250565b6000610d71601c83610a74565b9150610d7c82610d3b565b602082019050919050565b60006020820190508181036000830152610da081610d64565b9050919050565b600081905092915050565b6000610dbd82610a69565b610dc78185610da7565b9350610dd7818560208601610a85565b80840191505092915050565b6000610def8284610db2565b915081905092915050565b7f496e70757420646f6573206e6f74206d61746368207365637265740000000000600082015250565b6000610e30601b83610a74565b9150610e3b82610dfa565b602082019050919050565b60006020820190508181036000830152610e5f81610e23565b905091905056fea2646970667358221220f1970eb56c232cb38f8debc37e308309e2d560551f02b26d4a4c9e053a017e8f64736f6c63430008110033",
  "immutableReferences": {},
  "source": "// SPDX-License-Identifier: MIT\npragma solidity ^0.8.7;\n\nimport \"./ICosmoTreasury.sol\";\nimport \"./ICosmoNuts.sol\";\n\n/**\n * Contract created from a CosmoNut.  This contract holds a set amount of ether.\n * Ether is unlocked when the predetermined amount of matter is transferred to nut owner.\n */\ncontract CosmoSeed {\n\n    struct Seed {\n        uint256 id;\n        uint256 nutId;\n        uint256 heldEther;\n        uint256 matterNeeded;\n        address location;\n        address treasuryLocation;\n        address cosmosLocation;\n        bytes32 secretHash;\n    }\n    Seed public seed;\n\n    constructor(\n        uint256 _seedId,\n        uint256 _nutId,\n        address _treasuryLocation,\n        address _cosmosLocation,\n        bytes32 _secretHash\n    ) payable {\n        seed.id = _seedId;\n        seed.nutId = _nutId;\n        seed.heldEther = msg.value;\n        seed.matterNeeded = ICosmoTreasury(_treasuryLocation).matterNeeded(_nutId);\n        seed.location = address(this);\n        seed.treasuryLocation = _treasuryLocation;\n        seed.cosmosLocation = _cosmosLocation;\n        seed.secretHash = _secretHash;\n    }\n\n    function matterNeeded() public view returns (uint256) {\n        return seed.matterNeeded;\n    }\n\n    function nutId() public view returns (uint256) {\n        return seed.nutId;\n    }\n\n    /**\n     * Takes a string input and hashes it; compares to the SECRET_HASH in the contract\n     * If it matches, returns true\n     */\n    function verifySecret(string memory _input) private view returns(bool) {\n        bytes32 inputHash = keccak256(abi.encodePacked(_input));\n        require(inputHash == seed.secretHash, \"Input does not match secret\");\n        return true;\n    }\n\n    /**\n     * Can be called from anyone who comes across, asks for secret from user\n     * The application fills out the path and signature\n     * If provided secret is correct, a new CosmoNut is minted and assigned to caller\n     */\n    function spawnNut(string memory _secret, string memory _cidPath, bytes memory _signature) public {\n        verifySecret(_secret); // Check whether provided secret is correct\n        ICosmoTreasury(seed.treasuryLocation).seedFromNut(seed.id, seed.matterNeeded);\n        ICosmoNuts(seed.cosmosLocation).createNut(_cidPath, _signature);\n\n        /**\n         * Sending the original set price to Treasury.  This is payment for a new NFT (nut).\n         * Consider implication - tax - and decision to keep?\n         */\n        uint256 nutPrice = ICosmoTreasury(seed.treasuryLocation).getPrice();\n        (bool sentToTreasury,/*memory data*/) = seed.treasuryLocation.call{\n            value: nutPrice\n        }(\"\");\n        require(sentToTreasury, \"Ether not sent to Treasury\");\n\n        /**\n         * Sending remaining amount back to current nut owner who created the seed.\n         */\n        uint256 returnAmount = seed.heldEther - nutPrice;\n        address nutOwner = ICosmoNuts(seed.cosmosLocation).getOwnerOf(seed.nutId);\n        (bool sentToParent,/*memory data*/) = nutOwner.call{\n            value: returnAmount\n        }(\"\");\n        require(sentToParent, \"Ether not sent to parent nut\");\n    }\n\n    /**\n     * Functions below relate to receiving ether.  This contract holds ether.\n     * Do we need? - researching\n     */\n\n}\n",
  "sourcePath": "/home/redlentils/Seafile/Websites/avatarnft/contracts/CosmoSeed.sol",
  "compiler": {
    "name": "solc",
    "version": "0.8.17+commit.8df45f5f.Emscripten.clang"
  },
  "schemaVersion": "3.4.10",
  "updatedAt": "2022-10-18T06:28:57.229Z",
  "devdoc": {
    "kind": "dev",
    "methods": {},
    "version": 1
  },
  "userdoc": {
    "kind": "user",
    "methods": {
      "spawnNut(string,string,bytes)": {
        "notice": "Can be called from anyone who comes across, asks for secret from user The application fills out the path and signature If provided secret is correct, a new CosmoNut is minted and assigned to caller"
      }
    },
    "notice": "Contract created from a CosmoNut.  This contract holds a set amount of ether. Ether is unlocked when the predetermined amount of matter is transferred to nut owner.",
    "version": 1
  }
}