{
  "contractName": "CosmoTreasury",
  "abi": [
    {
      "inputs": [
        {
          "internalType": "address",
          "name": "_matterAddress",
          "type": "address"
        },
        {
          "internalType": "uint256",
          "name": "_matterRate",
          "type": "uint256"
        }
      ],
      "stateMutability": "nonpayable",
      "type": "constructor"
    },
    {
      "inputs": [],
      "name": "MATTER_ADDRESS",
      "outputs": [
        {
          "internalType": "address",
          "name": "",
          "type": "address"
        }
      ],
      "stateMutability": "view",
      "type": "function"
    },
    {
      "inputs": [],
      "name": "MATTER_RATE",
      "outputs": [
        {
          "internalType": "uint256",
          "name": "",
          "type": "uint256"
        }
      ],
      "stateMutability": "view",
      "type": "function"
    },
    {
      "inputs": [],
      "name": "NUT_PRICE",
      "outputs": [
        {
          "internalType": "uint256",
          "name": "",
          "type": "uint256"
        }
      ],
      "stateMutability": "view",
      "type": "function"
    },
    {
      "inputs": [
        {
          "internalType": "uint256",
          "name": "",
          "type": "uint256"
        }
      ],
      "name": "butterChurnedByNut",
      "outputs": [
        {
          "internalType": "uint256",
          "name": "",
          "type": "uint256"
        }
      ],
      "stateMutability": "view",
      "type": "function"
    },
    {
      "inputs": [],
      "name": "butterDeficiencyInUniverse",
      "outputs": [
        {
          "internalType": "uint256",
          "name": "",
          "type": "uint256"
        }
      ],
      "stateMutability": "view",
      "type": "function"
    },
    {
      "inputs": [
        {
          "internalType": "uint256",
          "name": "",
          "type": "uint256"
        }
      ],
      "name": "butterDeficiencyOfNut",
      "outputs": [
        {
          "internalType": "uint256",
          "name": "",
          "type": "uint256"
        }
      ],
      "stateMutability": "view",
      "type": "function"
    },
    {
      "inputs": [],
      "name": "butterJars",
      "outputs": [
        {
          "internalType": "uint256",
          "name": "",
          "type": "uint256"
        }
      ],
      "stateMutability": "view",
      "type": "function"
    },
    {
      "inputs": [
        {
          "internalType": "uint256",
          "name": "",
          "type": "uint256"
        }
      ],
      "name": "butterLocations",
      "outputs": [
        {
          "internalType": "address",
          "name": "",
          "type": "address"
        }
      ],
      "stateMutability": "view",
      "type": "function"
    },
    {
      "inputs": [],
      "name": "butterSpread",
      "outputs": [
        {
          "internalType": "uint256",
          "name": "",
          "type": "uint256"
        }
      ],
      "stateMutability": "view",
      "type": "function"
    },
    {
      "inputs": [],
      "name": "butterWeight",
      "outputs": [
        {
          "internalType": "uint256",
          "name": "",
          "type": "uint256"
        }
      ],
      "stateMutability": "view",
      "type": "function"
    },
    {
      "inputs": [
        {
          "internalType": "uint256",
          "name": "",
          "type": "uint256"
        },
        {
          "internalType": "uint256",
          "name": "",
          "type": "uint256"
        }
      ],
      "name": "buttersOfNut",
      "outputs": [
        {
          "internalType": "uint256",
          "name": "",
          "type": "uint256"
        }
      ],
      "stateMutability": "view",
      "type": "function"
    },
    {
      "inputs": [
        {
          "internalType": "uint256",
          "name": "",
          "type": "uint256"
        }
      ],
      "name": "currentOwnerOfNut",
      "outputs": [
        {
          "internalType": "address",
          "name": "",
          "type": "address"
        }
      ],
      "stateMutability": "view",
      "type": "function"
    },
    {
      "inputs": [
        {
          "internalType": "uint256",
          "name": "",
          "type": "uint256"
        }
      ],
      "name": "isButterActive",
      "outputs": [
        {
          "internalType": "bool",
          "name": "",
          "type": "bool"
        }
      ],
      "stateMutability": "view",
      "type": "function"
    },
    {
      "inputs": [
        {
          "internalType": "uint256",
          "name": "",
          "type": "uint256"
        }
      ],
      "name": "isSeedActive",
      "outputs": [
        {
          "internalType": "bool",
          "name": "",
          "type": "bool"
        }
      ],
      "stateMutability": "view",
      "type": "function"
    },
    {
      "inputs": [
        {
          "internalType": "uint256",
          "name": "",
          "type": "uint256"
        },
        {
          "internalType": "uint256",
          "name": "",
          "type": "uint256"
        }
      ],
      "name": "isSeedOfNut",
      "outputs": [
        {
          "internalType": "bool",
          "name": "",
          "type": "bool"
        }
      ],
      "stateMutability": "view",
      "type": "function"
    },
    {
      "inputs": [
        {
          "internalType": "uint256",
          "name": "",
          "type": "uint256"
        }
      ],
      "name": "matterBalanceOfNut",
      "outputs": [
        {
          "internalType": "uint256",
          "name": "",
          "type": "uint256"
        }
      ],
      "stateMutability": "view",
      "type": "function"
    },
    {
      "inputs": [],
      "name": "matterInTreasury",
      "outputs": [
        {
          "internalType": "uint256",
          "name": "",
          "type": "uint256"
        }
      ],
      "stateMutability": "view",
      "type": "function"
    },
    {
      "inputs": [],
      "name": "matterInUniverse",
      "outputs": [
        {
          "internalType": "uint256",
          "name": "",
          "type": "uint256"
        }
      ],
      "stateMutability": "view",
      "type": "function"
    },
    {
      "inputs": [
        {
          "internalType": "uint256",
          "name": "",
          "type": "uint256"
        }
      ],
      "name": "matterMintedByNut",
      "outputs": [
        {
          "internalType": "uint256",
          "name": "",
          "type": "uint256"
        }
      ],
      "stateMutability": "view",
      "type": "function"
    },
    {
      "inputs": [
        {
          "internalType": "uint256",
          "name": "_nutId",
          "type": "uint256"
        }
      ],
      "name": "numberOfButterJars",
      "outputs": [
        {
          "internalType": "uint256",
          "name": "",
          "type": "uint256"
        }
      ],
      "stateMutability": "view",
      "type": "function"
    },
    {
      "inputs": [
        {
          "internalType": "uint256",
          "name": "",
          "type": "uint256"
        }
      ],
      "name": "nutOfButter",
      "outputs": [
        {
          "internalType": "uint256",
          "name": "",
          "type": "uint256"
        }
      ],
      "stateMutability": "view",
      "type": "function"
    },
    {
      "inputs": [
        {
          "internalType": "uint256",
          "name": "",
          "type": "uint256"
        }
      ],
      "name": "nutOfSeed",
      "outputs": [
        {
          "internalType": "uint256",
          "name": "",
          "type": "uint256"
        }
      ],
      "stateMutability": "view",
      "type": "function"
    },
    {
      "inputs": [
        {
          "internalType": "uint256",
          "name": "",
          "type": "uint256"
        }
      ],
      "name": "nutsPayeeList",
      "outputs": [
        {
          "internalType": "uint256",
          "name": "",
          "type": "uint256"
        }
      ],
      "stateMutability": "view",
      "type": "function"
    },
    {
      "inputs": [
        {
          "internalType": "uint256",
          "name": "",
          "type": "uint256"
        }
      ],
      "name": "seedLocations",
      "outputs": [
        {
          "internalType": "address",
          "name": "",
          "type": "address"
        }
      ],
      "stateMutability": "view",
      "type": "function"
    },
    {
      "inputs": [],
      "name": "seedsCreated",
      "outputs": [
        {
          "internalType": "uint256",
          "name": "",
          "type": "uint256"
        }
      ],
      "stateMutability": "view",
      "type": "function"
    },
    {
      "inputs": [
        {
          "internalType": "uint256",
          "name": "",
          "type": "uint256"
        }
      ],
      "name": "seedsGrownOfNut",
      "outputs": [
        {
          "internalType": "uint256",
          "name": "",
          "type": "uint256"
        }
      ],
      "stateMutability": "view",
      "type": "function"
    },
    {
      "inputs": [
        {
          "internalType": "uint256",
          "name": "",
          "type": "uint256"
        }
      ],
      "name": "seedsOfNut",
      "outputs": [
        {
          "internalType": "uint256",
          "name": "",
          "type": "uint256"
        }
      ],
      "stateMutability": "view",
      "type": "function"
    },
    {
      "inputs": [
        {
          "internalType": "uint256",
          "name": "_nutId",
          "type": "uint256"
        },
        {
          "internalType": "bytes32",
          "name": "_secretHash",
          "type": "bytes32"
        },
        {
          "internalType": "uint256",
          "name": "_matterContributed",
          "type": "uint256"
        }
      ],
      "name": "spawnSeed",
      "outputs": [],
      "stateMutability": "payable",
      "type": "function"
    },
    {
      "inputs": [
        {
          "internalType": "uint256",
          "name": "_seedId",
          "type": "uint256"
        },
        {
          "internalType": "uint256",
          "name": "_matterNeeded",
          "type": "uint256"
        }
      ],
      "name": "growSeedFromNut",
      "outputs": [],
      "stateMutability": "nonpayable",
      "type": "function"
    },
    {
      "inputs": [
        {
          "internalType": "uint256",
          "name": "_nutId",
          "type": "uint256"
        },
        {
          "internalType": "uint256",
          "name": "_matterContributed",
          "type": "uint256"
        },
        {
          "internalType": "uint256",
          "name": "_matterDrawRate",
          "type": "uint256"
        },
        {
          "internalType": "bytes32",
          "name": "_secretHash",
          "type": "bytes32"
        }
      ],
      "name": "newButter",
      "outputs": [],
      "stateMutability": "nonpayable",
      "type": "function"
    },
    {
      "inputs": [
        {
          "internalType": "address",
          "name": "_drawer",
          "type": "address"
        },
        {
          "internalType": "uint256",
          "name": "_butterId",
          "type": "uint256"
        },
        {
          "internalType": "uint256",
          "name": "_balance",
          "type": "uint256"
        },
        {
          "internalType": "uint256",
          "name": "_currentBalance",
          "type": "uint256"
        }
      ],
      "name": "butterDrawn",
      "outputs": [],
      "stateMutability": "nonpayable",
      "type": "function"
    },
    {
      "inputs": [
        {
          "internalType": "address",
          "name": "_tokenOwner",
          "type": "address"
        },
        {
          "internalType": "uint256",
          "name": "_tokenId",
          "type": "uint256"
        }
      ],
      "name": "assignMintBalance",
      "outputs": [],
      "stateMutability": "nonpayable",
      "type": "function"
    }
  ],
  "bytecode": "0x6080604052600080556000600755600060085560006009556000600f553480156200002957600080fd5b5060405162004df538038062004df583398181016040528101906200004f9190620002e8565b81601260006101000a81548173ffffffffffffffffffffffffffffffffffffffff021916908373ffffffffffffffffffffffffffffffffffffffff16021790555080601481905550601260009054906101000a900473ffffffffffffffffffffffffffffffffffffffff16601a60006101000a81548173ffffffffffffffffffffffffffffffffffffffff021916908373ffffffffffffffffffffffffffffffffffffffff160217905550601a60009054906101000a900473ffffffffffffffffffffffffffffffffffffffff1673ffffffffffffffffffffffffffffffffffffffff166318160ddd6040518163ffffffff1660e01b8152600401602060405180830381865afa15801562000168573d6000803e3d6000fd5b505050506040513d601f19601f820116820180604052508101906200018e91906200032f565b601581905550601a60009054906101000a900473ffffffffffffffffffffffffffffffffffffffff1673ffffffffffffffffffffffffffffffffffffffff166370a08231306040518263ffffffff1660e01b8152600401620001f1919062000372565b602060405180830381865afa1580156200020f573d6000803e3d6000fd5b505050506040513d601f19601f820116820180604052508101906200023591906200032f565b60168190555050506200038f565b600080fd5b600073ffffffffffffffffffffffffffffffffffffffff82169050919050565b6000620002758262000248565b9050919050565b620002878162000268565b81146200029357600080fd5b50565b600081519050620002a7816200027c565b92915050565b6000819050919050565b620002c281620002ad565b8114620002ce57600080fd5b50565b600081519050620002e281620002b7565b92915050565b6000806040838503121562000302576200030162000243565b5b6000620003128582860162000296565b92505060206200032585828601620002d1565b9150509250929050565b60006020828403121562000348576200034762000243565b5b60006200035884828501620002d1565b91505092915050565b6200036c8162000268565b82525050565b600060208201905062000389600083018462000361565b92915050565b614a56806200039f6000396000f3fe608060405260043610620002125760003560e01c80634ffe5a6f116200011b578063b876ec0a11620000a3578063ea0f1366116200006d578063ea0f1366146200086b578063ea988be814620008af578063f50d434914620008df578063f6317f8d14620009235762000212565b8063b876ec0a14620007a7578063b8a9736d14620007c7578063d4d8103214620007f7578063df4f5ccc146200083b5762000212565b80639578d3df11620000e55780639578d3df14620006c15780639cee22b11462000705578063a89092c11462000733578063aef054ce14620007635762000212565b80634ffe5a6f14620005db57806353f97bc8146200061f57806364b1b6631462000663578063733b0bca14620006935762000212565b8063282adc8c116200019f57806339dc84f4116200016957806339dc84f414620004f35780633c89d09f146200053757806347634e1c146200056757806349a6b51f14620005ab5762000212565b8063282adc8c14620003f75780632c533085146200043b57806331ad1b42146200046b5780633279bd4f14620004af5762000212565b80631c85949c11620001e15780631c85949c14620003115780631e0b3964146200033f57806323f526c0146200038357806326342ea414620003c75762000212565b806302760a48146200021757806303f5de9d146200025b578063171e844114620002895780631821907a14620002cd575b600080fd5b3480156200022457600080fd5b506200024360048036038101906200023d919062002485565b62000953565b604051620002529190620024d4565b60405180910390f35b3480156200026857600080fd5b506200028760048036038101906200028191906200252c565b62000973565b005b3480156200029657600080fd5b50620002b56004803603810190620002af919062002485565b62001141565b604051620002c49190620024d4565b60405180910390f35b348015620002da57600080fd5b50620002f96004803603810190620002f3919062002485565b62001161565b604051620003089190620025af565b60405180910390f35b3480156200031e57600080fd5b506200033d600480360381019062000337919062002631565b62001179565b005b3480156200034c57600080fd5b506200036b600480360381019062000365919062002678565b620012a6565b6040516200037a9190620025af565b60405180910390f35b3480156200039057600080fd5b50620003af6004803603810190620003a9919062002485565b620012d8565b604051620003be9190620026d0565b60405180910390f35b348015620003d457600080fd5b50620003df6200130b565b604051620003ee9190620025af565b60405180910390f35b3480156200040457600080fd5b506200042360048036038101906200041d919062002485565b62001311565b604051620004329190620025af565b60405180910390f35b3480156200044857600080fd5b506200045362001331565b604051620004629190620025af565b60405180910390f35b3480156200047857600080fd5b5062000497600480360381019062000491919062002485565b62001337565b604051620004a69190620025af565b60405180910390f35b348015620004bc57600080fd5b50620004db6004803603810190620004d5919062002485565b6200134f565b604051620004ea9190620025af565b60405180910390f35b3480156200050057600080fd5b506200051f600480360381019062000519919062002485565b62001367565b6040516200052e9190620026d0565b60405180910390f35b3480156200054457600080fd5b506200054f6200139a565b6040516200055e9190620025af565b60405180910390f35b3480156200057457600080fd5b506200059360048036038101906200058d919062002485565b620013a0565b604051620005a29190620025af565b60405180910390f35b348015620005b857600080fd5b50620005c3620013b8565b604051620005d29190620025af565b60405180910390f35b348015620005e857600080fd5b5062000607600480360381019062000601919062002485565b620013be565b604051620006169190620025af565b60405180910390f35b3480156200062c57600080fd5b506200064b600480360381019062000645919062002678565b620013d6565b6040516200065a9190620024d4565b60405180910390f35b3480156200067057600080fd5b506200067b62001405565b6040516200068a9190620026d0565b60405180910390f35b348015620006a057600080fd5b50620006bf6004803603810190620006b9919062002678565b6200142b565b005b348015620006ce57600080fd5b50620006ed6004803603810190620006e7919062002485565b620018f3565b604051620006fc9190620025af565b60405180910390f35b3480156200071257600080fd5b506200073160048036038101906200072b9190620026ed565b62001918565b005b3480156200074057600080fd5b506200074b62001ba5565b6040516200075a9190620025af565b60405180910390f35b3480156200077057600080fd5b506200078f600480360381019062000789919062002485565b62001bab565b6040516200079e9190620026d0565b60405180910390f35b620007c56004803603810190620007bf91906200275f565b62001bde565b005b348015620007d457600080fd5b50620007df62001ff2565b604051620007ee9190620025af565b60405180910390f35b3480156200080457600080fd5b506200082360048036038101906200081d919062002485565b62001ff8565b604051620008329190620025af565b60405180910390f35b3480156200084857600080fd5b506200085362002010565b604051620008629190620025af565b60405180910390f35b3480156200087857600080fd5b5062000897600480360381019062000891919062002485565b62002016565b604051620008a69190620025af565b60405180910390f35b348015620008bc57600080fd5b50620008c76200202e565b604051620008d69190620025af565b60405180910390f35b348015620008ec57600080fd5b506200090b600480360381019062000905919062002485565b62002034565b6040516200091a9190620025af565b60405180910390f35b3480156200093057600080fd5b506200093b6200204c565b6040516200094a9190620025af565b60405180910390f35b60116020528060005260406000206000915054906101000a900460ff1681565b60006017600086815260200190815260200160002060009054906101000a900473ffffffffffffffffffffffffffffffffffffffff1690503373ffffffffffffffffffffffffffffffffffffffff168173ffffffffffffffffffffffffffffffffffffffff161462000a1c576040517f08c379a000000000000000000000000000000000000000000000000000000000815260040162000a13906200281c565b60405180910390fd5b836018600087815260200190815260200160002054101562000a75576040517f08c379a000000000000000000000000000000000000000000000000000000000815260040162000a6c906200288e565b60405180910390fd5b601a60009054906101000a900473ffffffffffffffffffffffffffffffffffffffff1673ffffffffffffffffffffffffffffffffffffffff166370a08231826040518263ffffffff1660e01b815260040162000ad29190620026d0565b602060405180830381865afa15801562000af0573d6000803e3d6000fd5b505050506040513d601f19601f8201168201806040525081019062000b169190620028c7565b84111562000b5b576040517f08c379a000000000000000000000000000000000000000000000000000000000815260040162000b529062002949565b60405180910390fd5b6000838562000b6b91906200299a565b1462000bae576040517f08c379a000000000000000000000000000000000000000000000000000000000815260040162000ba59062002a22565b60405180910390fd5b60006002600087815260200190815260200160002054111562000c3c5783600f600082825462000bdf919062002a73565b925050819055508360106000878152602001908152602001600020600082825462000c0b919062002a73565b9250508190555060198590806001815401808255809150506001900390600052602060002001600090919091909150555b601a60009054906101000a900473ffffffffffffffffffffffffffffffffffffffff1673ffffffffffffffffffffffffffffffffffffffff166370a08231306040518263ffffffff1660e01b815260040162000c999190620026d0565b602060405180830381865afa15801562000cb7573d6000803e3d6000fd5b505050506040513d601f19601f8201168201806040525081019062000cdd9190620028c7565b601681905550600060165411156200101657600062000d01601654600f5462002052565b90506000805b82811462000f6b57600060198054905090506000810362000d29575062000f6b565b8082111562000d3757600092505b60006019848154811062000d505762000d4f62002aae565b5b9060005260206000200154905060006017600083815260200190815260200160002060009054906101000a900473ffffffffffffffffffffffffffffffffffffffff1690506000601454600260008581526020019081526020016000205462000dba919062002add565b90508060186000858152602001908152602001600020540362000e02576019868154811062000dee5762000ded62002aae565b5b906000526020600020016000905562000f41565b601a60009054906101000a900473ffffffffffffffffffffffffffffffffffffffff1673ffffffffffffffffffffffffffffffffffffffff1663a9059cbb8360016040518363ffffffff1660e01b815260040162000e6292919062002b75565b6020604051808303816000875af115801562000e82573d6000803e3d6000fd5b505050506040513d601f19601f8201168201806040525081019062000ea8919062002bd3565b5060198390806001815401808255809150506001900390600052602060002001600090919091909150556019868154811062000ee95762000ee862002aae565b5b90600052602060002001600090556001600f600082825462000f0c919062002c05565b92505081905550600160106000858152602001908152602001600020600082825462000f39919062002c05565b925050819055505b858062000f4e9062002c40565b96505050505050808062000f629062002c40565b91505062000d07565b50601a60009054906101000a900473ffffffffffffffffffffffffffffffffffffffff1673ffffffffffffffffffffffffffffffffffffffff166370a08231306040518263ffffffff1660e01b815260040162000fc99190620026d0565b602060405180830381865afa15801562000fe7573d6000803e3d6000fd5b505050506040513d601f19601f820116820180604052508101906200100d9190620028c7565b60168190555050505b6000601260009054906101000a900473ffffffffffffffffffffffffffffffffffffffff163087600954888888604051620010519062002429565b62001063979695949392919062002c9e565b604051809103906000f08015801562001080573d6000803e3d6000fd5b509050601a60009054906101000a900473ffffffffffffffffffffffffffffffffffffffff1673ffffffffffffffffffffffffffffffffffffffff1663a9059cbb82876040518363ffffffff1660e01b8152600401620010e292919062002d1b565b6020604051808303816000875af115801562001102573d6000803e3d6000fd5b505050506040513d601f19601f8201168201806040525081019062001128919062002bd3565b50620011398660095483886200206d565b505050505050565b60066020528060005260406000206000915054906101000a900460ff1681565b600d6020528060005260406000206000915090505481565b6014546016541015620011c3576040517f08c379a0000000000000000000000000000000000000000000000000000000008152600401620011ba9062002d98565b60405180910390fd5b601a60009054906101000a900473ffffffffffffffffffffffffffffffffffffffff1673ffffffffffffffffffffffffffffffffffffffff1663a9059cbb836014546040518363ffffffff1660e01b81526004016200122492919062002d1b565b6020604051808303816000875af115801562001244573d6000803e3d6000fd5b505050506040513d601f19601f820116820180604052508101906200126a919062002bd3565b506014546018600083815260200190815260200160002081905550601454601660008282546200129b919062002c05565b925050819055505050565b600a6020528160005260406000208181548110620012c357600080fd5b90600052602060002001600091509150505481565b60056020528060005260406000206000915054906101000a900473ffffffffffffffffffffffffffffffffffffffff1681565b60095481565b6000600a6000838152602001908152602001600020805490509050919050565b60145481565b60016020528060005260406000206000915090505481565b600c6020528060005260406000206000915090505481565b60176020528060005260406000206000915054906101000a900473ffffffffffffffffffffffffffffffffffffffff1681565b60155481565b600e6020528060005260406000206000915090505481565b60085481565b60106020528060005260406000206000915090505481565b60046020528160005260406000206020528060005260406000206000915091509054906101000a900460ff1681565b601260009054906101000a900473ffffffffffffffffffffffffffffffffffffffff1681565b80601a60009054906101000a900473ffffffffffffffffffffffffffffffffffffffff1673ffffffffffffffffffffffffffffffffffffffff166370a08231336040518263ffffffff1660e01b8152600401620014899190620026d0565b602060405180830381865afa158015620014a7573d6000803e3d6000fd5b505050506040513d601f19601f82011682018060405250810190620014cd9190620028c7565b101562001511576040517f08c379a0000000000000000000000000000000000000000000000000000000008152600401620015089062002d98565b60405180910390fd5b60006005600084815260200190815260200160002060009054906101000a900473ffffffffffffffffffffffffffffffffffffffff16905060008190506000601760008373ffffffffffffffffffffffffffffffffffffffff16632c5553c96040518163ffffffff1660e01b8152600401602060405180830381865afa158015620015a0573d6000803e3d6000fd5b505050506040513d601f19601f82011682018060405250810190620015c69190620028c7565b815260200190815260200160002060009054906101000a900473ffffffffffffffffffffffffffffffffffffffff169050601a60009054906101000a900473ffffffffffffffffffffffffffffffffffffffff1673ffffffffffffffffffffffffffffffffffffffff1663a9059cbb82866040518363ffffffff1660e01b81526004016200165692919062002d1b565b6020604051808303816000875af115801562001676573d6000803e3d6000fd5b505050506040513d601f19601f820116820180604052508101906200169c919062002bd3565b50601a60009054906101000a900473ffffffffffffffffffffffffffffffffffffffff1673ffffffffffffffffffffffffffffffffffffffff16634bbc1bcd3060016040518363ffffffff1660e01b8152600401620016fd92919062002b75565b600060405180830381600087803b1580156200171857600080fd5b505af11580156200172d573d6000803e3d6000fd5b505050508173ffffffffffffffffffffffffffffffffffffffff166326b2c77c826040518263ffffffff1660e01b81526004016200176c9190620026d0565b600060405180830381600087803b1580156200178757600080fd5b505af11580156200179c573d6000803e3d6000fd5b50505050601a60009054906101000a900473ffffffffffffffffffffffffffffffffffffffff1673ffffffffffffffffffffffffffffffffffffffff166318160ddd6040518163ffffffff1660e01b8152600401602060405180830381865afa1580156200180e573d6000803e3d6000fd5b505050506040513d601f19601f82011682018060405250810190620018349190620028c7565b601581905550601a60009054906101000a900473ffffffffffffffffffffffffffffffffffffffff1673ffffffffffffffffffffffffffffffffffffffff166370a08231306040518263ffffffff1660e01b8152600401620018979190620026d0565b602060405180830381865afa158015620018b5573d6000803e3d6000fd5b505050506040513d601f19601f82011682018060405250810190620018db9190620028c7565b601681905550620018ec85620021a6565b5050505050565b601981815481106200190457600080fd5b906000526020600020016000915090505481565b601a60009054906101000a900473ffffffffffffffffffffffffffffffffffffffff1673ffffffffffffffffffffffffffffffffffffffff1663a9059cbb85846040518363ffffffff1660e01b81526004016200197792919062002d1b565b6020604051808303816000875af115801562001997573d6000803e3d6000fd5b505050506040513d601f19601f82011682018060405250810190620019bd919062002bd3565b50601a60009054906101000a900473ffffffffffffffffffffffffffffffffffffffff1673ffffffffffffffffffffffffffffffffffffffff16634bbc1bcd30846040518363ffffffff1660e01b815260040162001a1d92919062002d1b565b600060405180830381600087803b15801562001a3857600080fd5b505af115801562001a4d573d6000803e3d6000fd5b5050505062001a5e83838362002247565b601a60009054906101000a900473ffffffffffffffffffffffffffffffffffffffff1673ffffffffffffffffffffffffffffffffffffffff166318160ddd6040518163ffffffff1660e01b8152600401602060405180830381865afa15801562001acc573d6000803e3d6000fd5b505050506040513d601f19601f8201168201806040525081019062001af29190620028c7565b601581905550601a60009054906101000a900473ffffffffffffffffffffffffffffffffffffffff1673ffffffffffffffffffffffffffffffffffffffff166370a08231306040518263ffffffff1660e01b815260040162001b559190620026d0565b602060405180830381865afa15801562001b73573d6000803e3d6000fd5b505050506040513d601f19601f8201168201806040525081019062001b999190620028c7565b60168190555050505050565b60165481565b600b6020528060005260406000206000915054906101000a900473ffffffffffffffffffffffffffffffffffffffff1681565b60006001600260008681526020019081526020016000205462001c02919062002a73565b6013541890508034101562001c4e576040517f08c379a000000000000000000000000000000000000000000000000000000000815260040162001c459062002e0a565b60405180910390fd5b600060018060008781526020019081526020016000205462001c71919062002a73565b6014541890506000601a60009054906101000a900473ffffffffffffffffffffffffffffffffffffffff1673ffffffffffffffffffffffffffffffffffffffff166370a082316017600089815260200190815260200160002060009054906101000a900473ffffffffffffffffffffffffffffffffffffffff166040518263ffffffff1660e01b815260040162001d099190620026d0565b602060405180830381865afa15801562001d27573d6000803e3d6000fd5b505050506040513d601f19601f8201168201806040525081019062001d4d9190620028c7565b90508181101562001d95576040517f08c379a000000000000000000000000000000000000000000000000000000000815260040162001d8c9062002e7c565b60405180910390fd5b8184101562001ddb576040517f08c379a000000000000000000000000000000000000000000000000000000000815260040162001dd29062002eee565b60405180910390fd5b6000601260009054906101000a900473ffffffffffffffffffffffffffffffffffffffff1687600054883060135460405162001e179062002437565b62001e289695949392919062002f10565b604051809103906000f08015801562001e45573d6000803e3d6000fd5b50905062001e5787600054836200230a565b6000838662001e67919062002c05565b9050601a60009054906101000a900473ffffffffffffffffffffffffffffffffffffffff1673ffffffffffffffffffffffffffffffffffffffff166342966c68856040518263ffffffff1660e01b815260040162001ec69190620025af565b600060405180830381600087803b15801562001ee157600080fd5b505af115801562001ef6573d6000803e3d6000fd5b50505050601a60009054906101000a900473ffffffffffffffffffffffffffffffffffffffff1673ffffffffffffffffffffffffffffffffffffffff1663a9059cbb83836040518363ffffffff1660e01b815260040162001f5992919062002d1b565b6020604051808303816000875af115801562001f79573d6000803e3d6000fd5b505050506040513d601f19601f8201168201806040525081019062001f9f919062002bd3565b508173ffffffffffffffffffffffffffffffffffffffff166108fc349081150290604051600060405180830381858888f1935050505015801562001fe7573d6000803e3d6000fd5b505050505050505050565b60135481565b60036020528060005260406000206000915090505481565b600f5481565b60026020528060005260406000206000915090505481565b60005481565b60186020528060005260406000206000915090505481565b60075481565b600081831062002063578162002065565b825b905092915050565b60016009600082825462002082919062002a73565b9250508190555080600760008282546200209d919062002a73565b92505081905550600a600085815260200190815260200160002083908060018154018082558091505060019003906000526020600020016000909190919091505580600d6000868152602001908152602001600020600082825462002103919062002a73565b9250508190555081600b600086815260200190815260200160002060006101000a81548173ffffffffffffffffffffffffffffffffffffffff021916908373ffffffffffffffffffffffffffffffffffffffff16021790555060016011600086815260200190815260200160002060006101000a81548160ff02191690831515021790555083600e60008581526020019081526020016000208190555050505050565b60006003600083815260200190815260200160002054905060018060008381526020019081526020016000206000828254620021e3919062002c05565b92505081905550600160026000838152602001908152602001600020600082825462002210919062002a73565b9250508190555060006006600083815260200190815260200160002060006101000a81548160ff0219169083151502179055505050565b81600760008282546200225b919062002c05565b92505081905550816008600082825462002276919062002a73565b925050819055506000600e600085815260200190815260200160002054905082600c60008381526020019081526020016000206000828254620022ba919062002a73565b9250508190555060008383620022d1919062002c05565b03620023045760006011600086815260200190815260200160002060006101000a81548160ff0219169083151502179055505b50505050565b8260036000848152602001908152602001600020819055506001806000858152602001908152602001600020600082825462002347919062002a73565b92505081905550600160046000848152602001908152602001600020600085815260200190815260200160002060006101000a81548160ff021916908315150217905550806005600084815260200190815260200160002060006101000a81548173ffffffffffffffffffffffffffffffffffffffff021916908373ffffffffffffffffffffffffffffffffffffffff1602179055506001600080828254620023f1919062002a73565b9250508190555060016006600085815260200190815260200160002060006101000a81548160ff021916908315150217905550505050565b610da38062002f7e83390190565b610d008062003d2183390190565b600080fd5b6000819050919050565b6200245f816200244a565b81146200246b57600080fd5b50565b6000813590506200247f8162002454565b92915050565b6000602082840312156200249e576200249d62002445565b5b6000620024ae848285016200246e565b91505092915050565b60008115159050919050565b620024ce81620024b7565b82525050565b6000602082019050620024eb6000830184620024c3565b92915050565b6000819050919050565b6200250681620024f1565b81146200251257600080fd5b50565b6000813590506200252681620024fb565b92915050565b6000806000806080858703121562002549576200254862002445565b5b600062002559878288016200246e565b94505060206200256c878288016200246e565b93505060406200257f878288016200246e565b9250506060620025928782880162002515565b91505092959194509250565b620025a9816200244a565b82525050565b6000602082019050620025c660008301846200259e565b92915050565b600073ffffffffffffffffffffffffffffffffffffffff82169050919050565b6000620025f982620025cc565b9050919050565b6200260b81620025ec565b81146200261757600080fd5b50565b6000813590506200262b8162002600565b92915050565b600080604083850312156200264b576200264a62002445565b5b60006200265b858286016200261a565b92505060206200266e858286016200246e565b9150509250929050565b6000806040838503121562002692576200269162002445565b5b6000620026a2858286016200246e565b9250506020620026b5858286016200246e565b9150509250929050565b620026ca81620025ec565b82525050565b6000602082019050620026e76000830184620026bf565b92915050565b600080600080608085870312156200270a576200270962002445565b5b60006200271a878288016200261a565b94505060206200272d878288016200246e565b935050604062002740878288016200246e565b925050606062002753878288016200246e565b91505092959194509250565b6000806000606084860312156200277b576200277a62002445565b5b60006200278b868287016200246e565b93505060206200279e8682870162002515565b9250506040620027b1868287016200246e565b9150509250925092565b600082825260208201905092915050565b7f43616c6c6572206973206e6f7420746865206f776e6572000000000000000000600082015250565b600062002804601783620027bb565b91506200281182620027cc565b602082019050919050565b600060208201905081810360008301526200283781620027f5565b9050919050565b7f4e6f74206861766520656e6f756768206d617474657200000000000000000000600082015250565b600062002876601683620027bb565b915062002883826200283e565b602082019050919050565b60006020820190508181036000830152620028a98162002867565b9050919050565b600081519050620028c18162002454565b92915050565b600060208284031215620028e057620028df62002445565b5b6000620028f084828501620028b0565b91505092915050565b7f4e6f74206869676820656e6f7567680000000000000000000000000000000000600082015250565b600062002931600f83620027bb565b91506200293e82620028f9565b602082019050919050565b60006020820190508181036000830152620029648162002922565b9050919050565b7f4e487b7100000000000000000000000000000000000000000000000000000000600052601260045260246000fd5b6000620029a7826200244a565b9150620029b4836200244a565b925082620029c757620029c66200296b565b5b828206905092915050565b7f447261772072617465206e6f7420646976697369626c65000000000000000000600082015250565b600062002a0a601783620027bb565b915062002a1782620029d2565b602082019050919050565b6000602082019050818103600083015262002a3d81620029fb565b9050919050565b7f4e487b7100000000000000000000000000000000000000000000000000000000600052601160045260246000fd5b600062002a80826200244a565b915062002a8d836200244a565b925082820190508082111562002aa85762002aa762002a44565b5b92915050565b7f4e487b7100000000000000000000000000000000000000000000000000000000600052603260045260246000fd5b600062002aea826200244a565b915062002af7836200244a565b925082820262002b07816200244a565b9150828204841483151762002b215762002b2062002a44565b5b5092915050565b6000819050919050565b6000819050919050565b600062002b5d62002b5762002b518462002b28565b62002b32565b6200244a565b9050919050565b62002b6f8162002b3c565b82525050565b600060408201905062002b8c6000830185620026bf565b62002b9b602083018462002b64565b9392505050565b62002bad81620024b7565b811462002bb957600080fd5b50565b60008151905062002bcd8162002ba2565b92915050565b60006020828403121562002bec5762002beb62002445565b5b600062002bfc8482850162002bbc565b91505092915050565b600062002c12826200244a565b915062002c1f836200244a565b925082820390508181111562002c3a5762002c3962002a44565b5b92915050565b600062002c4d826200244a565b91507fffffffffffffffffffffffffffffffffffffffffffffffffffffffffffffffff820362002c825762002c8162002a44565b5b600182019050919050565b62002c9881620024f1565b82525050565b600060e08201905062002cb5600083018a620026bf565b62002cc46020830189620026bf565b62002cd360408301886200259e565b62002ce260608301876200259e565b62002cf160808301866200259e565b62002d0060a08301856200259e565b62002d0f60c083018462002c8d565b98975050505050505050565b600060408201905062002d326000830185620026bf565b62002d4160208301846200259e565b9392505050565b7f4e6f7420656e6f756768206d6174746572000000000000000000000000000000600082015250565b600062002d80601183620027bb565b915062002d8d8262002d48565b602082019050919050565b6000602082019050818103600083015262002db38162002d71565b9050919050565b7f45746865722076616c7565206973206e6f7420656e6f75676800000000000000600082015250565b600062002df2601983620027bb565b915062002dff8262002dba565b602082019050919050565b6000602082019050818103600083015262002e258162002de3565b9050919050565b7f4d61747465722062616c616e6365206973206e6f7420656e6f75676800000000600082015250565b600062002e64601c83620027bb565b915062002e718262002e2c565b602082019050919050565b6000602082019050818103600083015262002e978162002e55565b9050919050565b7f4e6f7420656e6f756768206d617474657220676976656e000000000000000000600082015250565b600062002ed6601783620027bb565b915062002ee38262002e9e565b602082019050919050565b6000602082019050818103600083015262002f098162002ec7565b9050919050565b600060c08201905062002f276000830189620026bf565b62002f3660208301886200259e565b62002f4560408301876200259e565b62002f54606083018662002c8d565b62002f636080830185620026bf565b62002f7260a08301846200259e565b97965050505050505056fe60806040523480156200001157600080fd5b5060405162000da338038062000da38339818101604052810190620000379190620001c9565b86600760006101000a81548173ffffffffffffffffffffffffffffffffffffffff021916908373ffffffffffffffffffffffffffffffffffffffff16021790555085600860006101000a81548173ffffffffffffffffffffffffffffffffffffffff021916908373ffffffffffffffffffffffffffffffffffffffff1602179055508460008190555080600181905550826005819055508160028190555083600381905550505050505050506200027c565b600080fd5b600073ffffffffffffffffffffffffffffffffffffffff82169050919050565b60006200011b82620000ee565b9050919050565b6200012d816200010e565b81146200013957600080fd5b50565b6000815190506200014d8162000122565b92915050565b6000819050919050565b620001688162000153565b81146200017457600080fd5b50565b60008151905062000188816200015d565b92915050565b6000819050919050565b620001a3816200018e565b8114620001af57600080fd5b50565b600081519050620001c38162000198565b92915050565b600080600080600080600060e0888a031215620001eb57620001ea620000e9565b5b6000620001fb8a828b016200013c565b97505060206200020e8a828b016200013c565b9650506040620002218a828b0162000177565b9550506060620002348a828b0162000177565b9450506080620002478a828b0162000177565b93505060a06200025a8a828b0162000177565b92505060c06200026d8a828b01620001b2565b91505092959891949750929550565b610b17806200028c6000396000f3fe608060405234801561001057600080fd5b50600436106100625760003560e01c806307604b1a1461006757806327ac1b651461008557806335f1db8d146100a157806358833c37146100bf57806389a89002146100dd578063bbb8ae35146100fb575b600080fd5b61006f610119565b60405161007c9190610498565b60405180910390f35b61009f600480360381019061009a91906106ae565b61013f565b005b6100a96103c5565b6040516100b6919061076e565b60405180910390f35b6100c76103cb565b6040516100d4919061076e565b60405180910390f35b6100e56103d1565b6040516100f2919061076e565b60405180910390f35b6101036103d7565b604051610110919061076e565b60405180910390f35b600460009054906101000a900473ffffffffffffffffffffffffffffffffffffffff1681565b60011515600660003373ffffffffffffffffffffffffffffffffffffffff1673ffffffffffffffffffffffffffffffffffffffff16815260200190815260200160002060009054906101000a900460ff161515036101d2576040517f08c379a00000000000000000000000000000000000000000000000000000000081526004016101c9906107e6565b60405180910390fd5b600060055411610217576040517f08c379a000000000000000000000000000000000000000000000000000000000815260040161020e90610852565b60405180910390fd5b610220836103dd565b50600860009054906101000a900473ffffffffffffffffffffffffffffffffffffffff1673ffffffffffffffffffffffffffffffffffffffff16639cee22b1336003546002546005546040518563ffffffff1660e01b81526004016102889493929190610872565b600060405180830381600087803b1580156102a257600080fd5b505af11580156102b6573d6000803e3d6000fd5b50505050600254600560008282546102ce91906108e6565b925050819055506001600660003373ffffffffffffffffffffffffffffffffffffffff1673ffffffffffffffffffffffffffffffffffffffff16815260200190815260200160002060006101000a81548160ff021916908315150217905550600760009054906101000a900473ffffffffffffffffffffffffffffffffffffffff1673ffffffffffffffffffffffffffffffffffffffff16639202c1ec60005484846040518463ffffffff1660e01b815260040161038e939291906109dd565b600060405180830381600087803b1580156103a857600080fd5b505af11580156103bc573d6000803e3d6000fd5b50505050505050565b60055481565b60025481565b60005481565b60035481565b600080826040516020016103f19190610a5e565b604051602081830303815290604052805190602001209050600154811461044d576040517f08c379a000000000000000000000000000000000000000000000000000000000815260040161044490610ac1565b60405180910390fd5b6001915050919050565b600073ffffffffffffffffffffffffffffffffffffffff82169050919050565b600061048282610457565b9050919050565b61049281610477565b82525050565b60006020820190506104ad6000830184610489565b92915050565b6000604051905090565b600080fd5b600080fd5b600080fd5b600080fd5b6000601f19601f8301169050919050565b7f4e487b7100000000000000000000000000000000000000000000000000000000600052604160045260246000fd5b61051a826104d1565b810181811067ffffffffffffffff82111715610539576105386104e2565b5b80604052505050565b600061054c6104b3565b90506105588282610511565b919050565b600067ffffffffffffffff821115610578576105776104e2565b5b610581826104d1565b9050602081019050919050565b82818337600083830152505050565b60006105b06105ab8461055d565b610542565b9050828152602081018484840111156105cc576105cb6104cc565b5b6105d784828561058e565b509392505050565b600082601f8301126105f4576105f36104c7565b5b813561060484826020860161059d565b91505092915050565b600067ffffffffffffffff821115610628576106276104e2565b5b610631826104d1565b9050602081019050919050565b600061065161064c8461060d565b610542565b90508281526020810184848401111561066d5761066c6104cc565b5b61067884828561058e565b509392505050565b600082601f830112610695576106946104c7565b5b81356106a584826020860161063e565b91505092915050565b6000806000606084860312156106c7576106c66104bd565b5b600084013567ffffffffffffffff8111156106e5576106e46104c2565b5b6106f1868287016105df565b935050602084013567ffffffffffffffff811115610712576107116104c2565b5b61071e868287016105df565b925050604084013567ffffffffffffffff81111561073f5761073e6104c2565b5b61074b86828701610680565b9150509250925092565b6000819050919050565b61076881610755565b82525050565b6000602082019050610783600083018461075f565b92915050565b600082825260208201905092915050565b7f43616e206f6e6c792064726177206f6e63650000000000000000000000000000600082015250565b60006107d0601283610789565b91506107db8261079a565b602082019050919050565b600060208201905081810360008301526107ff816107c3565b9050919050565b7f4e6f2062757474657220746f2064726177000000000000000000000000000000600082015250565b600061083c601183610789565b915061084782610806565b602082019050919050565b6000602082019050818103600083015261086b8161082f565b9050919050565b60006080820190506108876000830187610489565b610894602083018661075f565b6108a1604083018561075f565b6108ae606083018461075f565b95945050505050565b7f4e487b7100000000000000000000000000000000000000000000000000000000600052601160045260246000fd5b60006108f182610755565b91506108fc83610755565b9250828203905081811115610914576109136108b7565b5b92915050565b600081519050919050565b60005b83811015610943578082015181840152602081019050610928565b60008484015250505050565b600061095a8261091a565b6109648185610789565b9350610974818560208601610925565b61097d816104d1565b840191505092915050565b600081519050919050565b600082825260208201905092915050565b60006109af82610988565b6109b98185610993565b93506109c9818560208601610925565b6109d2816104d1565b840191505092915050565b60006060820190506109f2600083018661075f565b8181036020830152610a04818561094f565b90508181036040830152610a1881846109a4565b9050949350505050565b600081905092915050565b6000610a388261091a565b610a428185610a22565b9350610a52818560208601610925565b80840191505092915050565b6000610a6a8284610a2d565b915081905092915050565b7f496e70757420646f6573206e6f74206d61746368207365637265740000000000600082015250565b6000610aab601b83610789565b9150610ab682610a75565b602082019050919050565b60006020820190508181036000830152610ada81610a9e565b905091905056fea2646970667358221220617a1aa16fdbffd90cd16898ddfae49c4d347dd2b472595c06149b4c9b1602b364736f6c63430008110033608060405260405162000d0038038062000d008339818101604052810190620000299190620001fb565b85600760006101000a81548173ffffffffffffffffffffffffffffffffffffffff021916908373ffffffffffffffffffffffffffffffffffffffff16021790555081600860006101000a81548173ffffffffffffffffffffffffffffffffffffffff021916908373ffffffffffffffffffffffffffffffffffffffff16021790555084600081905550836001819055508260028190555081600360006101000a81548173ffffffffffffffffffffffffffffffffffffffff021916908373ffffffffffffffffffffffffffffffffffffffff160217905550346005819055508060048190555050505050505062000297565b600080fd5b600073ffffffffffffffffffffffffffffffffffffffff82169050919050565b60006200014d8262000120565b9050919050565b6200015f8162000140565b81146200016b57600080fd5b50565b6000815190506200017f8162000154565b92915050565b6000819050919050565b6200019a8162000185565b8114620001a657600080fd5b50565b600081519050620001ba816200018f565b92915050565b6000819050919050565b620001d581620001c0565b8114620001e157600080fd5b50565b600081519050620001f581620001ca565b92915050565b60008060008060008060c087890312156200021b576200021a6200011b565b5b60006200022b89828a016200016e565b96505060206200023e89828a01620001a9565b95505060406200025189828a01620001a9565b94505060606200026489828a01620001e4565b93505060806200027789828a016200016e565b92505060a06200028a89828a01620001a9565b9150509295509295509295565b610a5980620002a76000396000f3fe6080604052600436106100705760003560e01c80637fdca4821161004e5780637fdca482146100e75780638ad23aea14610112578063956c2dc31461013d578063c5d12c971461016657610070565b806307604b1a1461007557806326b2c77c146100a05780632c5553c9146100bc575b600080fd5b34801561008157600080fd5b5061008a610191565b6040516100979190610483565b60405180910390f35b6100ba60048036038101906100b591906104de565b6101b7565b005b3480156100c857600080fd5b506100d161027f565b6040516100de9190610524565b60405180910390f35b3480156100f357600080fd5b506100fc610285565b6040516101099190610524565b60405180910390f35b34801561011e57600080fd5b5061012761028b565b6040516101349190610524565b60405180910390f35b34801561014957600080fd5b50610164600480360381019061015f9190610726565b610291565b005b34801561017257600080fd5b5061017b6103c2565b6040516101889190610524565b60405180910390f35b600360009054906101000a900473ffffffffffffffffffffffffffffffffffffffff1681565b6000600454346101c791906107fc565b9050600360009054906101000a900473ffffffffffffffffffffffffffffffffffffffff1673ffffffffffffffffffffffffffffffffffffffff166108fc6004549081150290604051600060405180830381858888f19350505050158015610233573d6000803e3d6000fd5b508173ffffffffffffffffffffffffffffffffffffffff166108fc829081150290604051600060405180830381858888f1935050505015801561027a573d6000803e3d6000fd5b505050565b60005481565b60015481565b60055481565b61029a836103c8565b50600860009054906101000a900473ffffffffffffffffffffffffffffffffffffffff1673ffffffffffffffffffffffffffffffffffffffff1663733b0bca6001546006546040518363ffffffff1660e01b81526004016102fc929190610830565b600060405180830381600087803b15801561031657600080fd5b505af115801561032a573d6000803e3d6000fd5b50505050600760009054906101000a900473ffffffffffffffffffffffffffffffffffffffff1673ffffffffffffffffffffffffffffffffffffffff1663a0e12efe83836040518363ffffffff1660e01b815260040161038b92919061092d565b600060405180830381600087803b1580156103a557600080fd5b505af11580156103b9573d6000803e3d6000fd5b50505050505050565b60065481565b600080826040516020016103dc91906109a0565b6040516020818303038152906040528051906020012090506002548114610438576040517f08c379a000000000000000000000000000000000000000000000000000000000815260040161042f90610a03565b60405180910390fd5b6001915050919050565b600073ffffffffffffffffffffffffffffffffffffffff82169050919050565b600061046d82610442565b9050919050565b61047d81610462565b82525050565b60006020820190506104986000830184610474565b92915050565b6000604051905090565b600080fd5b600080fd5b6104bb81610462565b81146104c657600080fd5b50565b6000813590506104d8816104b2565b92915050565b6000602082840312156104f4576104f36104a8565b5b6000610502848285016104c9565b91505092915050565b6000819050919050565b61051e8161050b565b82525050565b60006020820190506105396000830184610515565b92915050565b600080fd5b600080fd5b6000601f19601f8301169050919050565b7f4e487b7100000000000000000000000000000000000000000000000000000000600052604160045260246000fd5b61059282610549565b810181811067ffffffffffffffff821117156105b1576105b061055a565b5b80604052505050565b60006105c461049e565b90506105d08282610589565b919050565b600067ffffffffffffffff8211156105f0576105ef61055a565b5b6105f982610549565b9050602081019050919050565b82818337600083830152505050565b6000610628610623846105d5565b6105ba565b90508281526020810184848401111561064457610643610544565b5b61064f848285610606565b509392505050565b600082601f83011261066c5761066b61053f565b5b813561067c848260208601610615565b91505092915050565b600067ffffffffffffffff8211156106a05761069f61055a565b5b6106a982610549565b9050602081019050919050565b60006106c96106c484610685565b6105ba565b9050828152602081018484840111156106e5576106e4610544565b5b6106f0848285610606565b509392505050565b600082601f83011261070d5761070c61053f565b5b813561071d8482602086016106b6565b91505092915050565b60008060006060848603121561073f5761073e6104a8565b5b600084013567ffffffffffffffff81111561075d5761075c6104ad565b5b61076986828701610657565b935050602084013567ffffffffffffffff81111561078a576107896104ad565b5b61079686828701610657565b925050604084013567ffffffffffffffff8111156107b7576107b66104ad565b5b6107c3868287016106f8565b9150509250925092565b7f4e487b7100000000000000000000000000000000000000000000000000000000600052601160045260246000fd5b60006108078261050b565b91506108128361050b565b925082820390508181111561082a576108296107cd565b5b92915050565b60006040820190506108456000830185610515565b6108526020830184610515565b9392505050565b600081519050919050565b600082825260208201905092915050565b60005b83811015610893578082015181840152602081019050610878565b60008484015250505050565b60006108aa82610859565b6108b48185610864565b93506108c4818560208601610875565b6108cd81610549565b840191505092915050565b600081519050919050565b600082825260208201905092915050565b60006108ff826108d8565b61090981856108e3565b9350610919818560208601610875565b61092281610549565b840191505092915050565b60006040820190508181036000830152610947818561089f565b9050818103602083015261095b81846108f4565b90509392505050565b600081905092915050565b600061097a82610859565b6109848185610964565b9350610994818560208601610875565b80840191505092915050565b60006109ac828461096f565b915081905092915050565b7f496e70757420646f6573206e6f74206d61746368207365637265740000000000600082015250565b60006109ed601b83610864565b91506109f8826109b7565b602082019050919050565b60006020820190508181036000830152610a1c816109e0565b905091905056fea26469706673582212205f4f2c3e7e2f6c1e4e9e25a815b0e99c00f2dbcef1bdffcdf92524b8e07a83a464736f6c63430008110033a26469706673582212202feee1f37310f64a37ea70645ce283fa69a4d0a68aa9b54653676078b8369a7464736f6c63430008110033",
  "immutableReferences": {},
  "source": "// SPDX-License-Identifier: MIT\npragma solidity ^0.8.7;\n\nimport \"openzeppelin-solidity/contracts/utils/math/Math.sol\";\nimport \"./CosmoMatter.sol\";\nimport \"./CosmoSeed.sol\";\nimport \"./CosmoButter.sol\";\n\nimport \"./SeedAccounts.sol\";\nimport \"./ButterAccounts.sol\";\n\n/**\n * @dev Manages the matter balance of the CosmoNuts collection and handles interaction with the\n * ERC20 Token to mint, burn, and allocate balances\n * Acts as storage for the ERC 721 tokens on their created Seed and Butter contracts.\n */\n contract CosmoTreasury is SeedAccounts, ButterAccounts {\n\n    /**\n     * @dev Saved addresses include the contract which created the Treasury: UNIVERSE_ADDRESS, and\n     * the address of the CosmoNuts contract (NFTs) which is created after the Treasury and then updated: matter_ADDRESS.\n     */\n    //address public UNIVERSE_ADDRESS;\n    address public MATTER_ADDRESS;\n    uint256 public NUT_PRICE;\n    uint256 public MATTER_RATE;\n\n    /**\n     * @dev matterInUniverse is the Treasury's own account of the current ERC20 token supply available in Universe.\n     * matterInTreasury is the balanceOf ERC20 tokens that are assigned to the Treasury address and controlled by this contract.\n     * MATTER_RATE is the amount of matter it takes to create one NFT (used in calculating pricing) - set to 100\n     */\n    uint256 public matterInUniverse;\n    uint256 public matterInTreasury;\n\n    mapping(uint256 => address) public currentOwnerOfNut; // Record of current nut owners by address\n    mapping(uint256 => uint256) public matterBalanceOfNut; // Matter balance of each Nut recorded by the Treasury\n\n    uint256[] public nutsPayeeList; // List of nuts to be provided a balance\n\n    CosmoMatter matter;\n    //CosmoSeed seed;\n    //CosmoButter butter;\n\n    /**\n     *\n     */\n    constructor(address _matterAddress, uint256 _matterRate) {\n        MATTER_ADDRESS = _matterAddress;\n        MATTER_RATE = _matterRate;\n        matter = CosmoMatter(MATTER_ADDRESS);\n        matterInUniverse = matter.totalSupply();\n        matterInTreasury = matter.balanceOf(address(this));\n    }\n\n    /*\n    modifier onlyUniverse {\n        require(address(msg.sender) == UNIVERSE_ADDRESS, \"Caller is not Universe\");\n        _;\n    }\n    */\n\n    /*\n    function updateCosmosAddress(address _matterAddressNew) external onlyUniverse {\n        MATTER_ADDRESS = _matterAddressNew;\n    }\n    */\n\n    //function updateNutPrice(uint256 _setNutPrice) external onlyUniverse {\n    //    NUT_PRICE = _setNutPrice;\n    //}\n\n    function spawnSeed(uint256 _nutId, bytes32 _secretHash, uint256 _matterContributed) external payable {\n        uint256 ethToHold = NUT_PRICE ^ (seedsGrownOfNut[_nutId] + 1);\n        require(msg.value >= ethToHold, \"Ether value is not enough\");\n        //matter = CosmoMatter(MATTER_ADDRESS);\n\n        uint256 matterToBurn = MATTER_RATE ^ (seedsOfNut[_nutId] + 1);\n        uint256 matterOfOwner = matter.balanceOf((currentOwnerOfNut[_nutId]));\n\n        require(matterOfOwner >= matterToBurn, \"Matter balance is not enough\");\n        require(_matterContributed >= matterToBurn, \"Not enough matter given\");\n\n        CosmoSeed seed = new CosmoSeed(\n            MATTER_ADDRESS, _nutId, seedsCreated, _secretHash, address(this), NUT_PRICE\n        );\n        integrateSeed(_nutId, seedsCreated, address(seed));\n\n        uint256 excessMatter = _matterContributed - matterToBurn;\n\n        matter.burn(matterToBurn);\n        matter.transfer(address(seed), excessMatter);\n        payable(address(seed)).transfer(msg.value);\n    }\n\n    function growSeedFromNut(uint256 _seedId, uint256 _matterNeeded) external {\n        //matter = CosmoMatter(MATTER_ADDRESS);\n        require(matter.balanceOf(address(msg.sender)) >= _matterNeeded, \"Not enough matter\");\n\n        address seedAddress = seedLocations[_seedId];\n        CosmoSeed seed = CosmoSeed(seedAddress);\n\n        address nutOwner = currentOwnerOfNut[seed.NUT_ID()];\n        matter.transfer(nutOwner, _matterNeeded);\n        matter.mintMatter(address(this), 1);\n\n        seed.degradeSeed(nutOwner);\n\n        matterInUniverse = matter.totalSupply();\n        matterInTreasury = matter.balanceOf(address(this));\n\n        growSeed(_seedId);\n\n    }\n\n    /**\n     * Creating new butter means the creation of a contract where other users can withdraw matter from.\n     * Need to contribute butter (which can only be done if you have a Nut with the desired level of matter to give away.\n     * A secret message is provided in hash form and checked for verification to withdraw funds.\n     */\n    function newButter(uint256 _nutId, uint256 _matterContributed, uint256 _matterDrawRate, bytes32 _secretHash) external {\n        address nutOwner = currentOwnerOfNut[_nutId];\n        // Do we need to be doing these checks twice? Or really new check that caller is from contract (? or person who clicked?)\n        require(nutOwner == address(msg.sender), \"Caller is not the owner\");\n        require(matterBalanceOfNut[_nutId] >= _matterContributed, \"Not have enough matter\");\n        //matter = CosmoMatter(MATTER_ADDRESS);\n        require(_matterContributed <= matter.balanceOf(nutOwner), \"Not high enough\");\n        require(_matterContributed % _matterDrawRate == 0, \"Draw rate not divisible\");\n\n        /**\n         * A nut must have already grown a seed to start being counted as part of the deficiency list.\n         */\n        if (seedsGrownOfNut[_nutId] > 0) {\n            butterDeficiencyInUniverse += _matterContributed;\n            butterDeficiencyOfNut[_nutId] += _matterContributed;\n            nutsPayeeList.push(_nutId);\n        }\n\n        /**\n         * The Treasury wants to distribute its available balance to the nutsPayeeList.\n         * It will distribute the minimum of either its available balance or the deficiency in the Universe.\n         * All payees are awarded one matter and moved to the end of the list.\n         * When their maximum available balance is reached, they are removed from the payee list.\n         */\n        matterInTreasury = matter.balanceOf(address(this));\n        if (matterInTreasury > 0) {\n            uint256 toDistribute = Math.min(matterInTreasury, butterDeficiencyInUniverse);\n\n            uint256 index = 0;\n            for (uint j = 0; j != toDistribute; j++) {\n                uint256 allPayees = nutsPayeeList.length;\n                if (allPayees == 0) {\n                    break;\n                }\n\n                if (j > allPayees) {\n                    index = 0;\n                }\n\n                uint256 nutPayeeId = nutsPayeeList[index];\n                address nutOwnerPayee = currentOwnerOfNut[nutPayeeId];\n                uint256 maxMatter = seedsGrownOfNut[nutPayeeId] * MATTER_RATE;\n                if (matterBalanceOfNut[nutPayeeId] == maxMatter) {\n                    delete nutsPayeeList[index];\n                } else {\n                    matter.transfer(nutOwnerPayee, 1);\n                    nutsPayeeList.push(nutPayeeId);\n                    delete nutsPayeeList[index];\n\n                    butterDeficiencyInUniverse -= 1;\n                    butterDeficiencyOfNut[nutPayeeId] -= 1;\n                }\n\n                index++;\n           }\n           matterInTreasury = matter.balanceOf(address(this));\n        }\n\n        CosmoButter butter = new CosmoButter(\n            MATTER_ADDRESS, address(this), _nutId, butterJars, _matterContributed, _matterDrawRate, _secretHash\n        );\n        matter.transfer(address(butter), _matterContributed);\n        churnButter(_nutId, butterJars, address(butter), _matterContributed);\n\n    }\n\n    /**\n     * Runs from CosmoButter contract when someone requests to draw matter.\n     */\n    function butterDrawn(address _drawer, uint256 _butterId, uint256 _balance, uint256 _currentBalance) external {\n        //matter = CosmoMatter(MATTER_ADDRESS);\n        matter.transfer(_drawer, _balance);\n        matter.mintMatter(address(this), _balance);\n        distributeButter(_butterId, _balance, _currentBalance);\n\n        matterInUniverse = matter.totalSupply();\n        matterInTreasury = matter.balanceOf(address(this));\n    }\n\n    function assignMintBalance(address _tokenOwner, uint256 _tokenId) external {\n        require(matterInTreasury >= MATTER_RATE, \"Not enough matter\");\n        //matter = CosmoMatter(MATTER_ADDRESS);\n        matter.transfer(_tokenOwner, MATTER_RATE);\n        matterBalanceOfNut[_tokenId] = MATTER_RATE;\n        matterInTreasury -= MATTER_RATE;\n    }\n\n}\n",
  "sourcePath": "/home/redlentils/Seafile/Websites/avatarnft/contracts/CosmoTreasury.sol",
  "compiler": {
    "name": "solc",
    "version": "0.8.17+commit.8df45f5f.Emscripten.clang"
  },
  "schemaVersion": "3.4.10",
  "updatedAt": "2022-10-03T21:57:54.814Z",
  "devdoc": {
    "details": "Manages the matter balance of the CosmoNuts collection and handles interaction with the ERC20 Token to mint, burn, and allocate balances Acts as storage for the ERC 721 tokens on their created Seed and Butter contracts.",
    "kind": "dev",
    "methods": {},
    "stateVariables": {
      "MATTER_ADDRESS": {
        "details": "Saved addresses include the contract which created the Treasury: UNIVERSE_ADDRESS, and the address of the CosmoNuts contract (NFTs) which is created after the Treasury and then updated: matter_ADDRESS."
      },
      "matterInUniverse": {
        "details": "matterInUniverse is the Treasury's own account of the current ERC20 token supply available in Universe. matterInTreasury is the balanceOf ERC20 tokens that are assigned to the Treasury address and controlled by this contract. MATTER_RATE is the amount of matter it takes to create one NFT (used in calculating pricing) - set to 100"
      }
    },
    "version": 1
  },
  "userdoc": {
    "kind": "user",
    "methods": {
      "butterDrawn(address,uint256,uint256,uint256)": {
        "notice": "Runs from CosmoButter contract when someone requests to draw matter."
      },
      "butterWeight()": {
        "notice": "butterWeight is the amount of matter in the universe thta is currently outstanding. butterSpread is the amount of matter that has been distributed from butterWeight, thus reducing its value. butterJams represent the total number of matter contracts created in the Universe."
      },
      "buttersOfNut(uint256,uint256)": {
        "notice": "buttersOfNut represents a list of all butter contracts created byt that nut. butterLocations represents the address of contract identifed by butterId."
      },
      "newButter(uint256,uint256,uint256,bytes32)": {
        "notice": "Creating new butter means the creation of a contract where other users can withdraw matter from. Need to contribute butter (which can only be done if you have a Nut with the desired level of matter to give away. A secret message is provided in hash form and checked for verification to withdraw funds."
      }
    },
    "version": 1
  }
}