{
  "contractName": "CosmoTreasury",
  "abi": [
    {
      "inputs": [],
      "name": "addressOf",
      "outputs": [
        {
          "internalType": "address",
          "name": "system",
          "type": "address"
        },
        {
          "internalType": "address",
          "name": "matter",
          "type": "address"
        },
        {
          "internalType": "address",
          "name": "treasury",
          "type": "address"
        },
        {
          "internalType": "address",
          "name": "cosmos",
          "type": "address"
        },
        {
          "internalType": "address",
          "name": "seedImplementation",
          "type": "address"
        },
        {
          "internalType": "address",
          "name": "butterImplementation",
          "type": "address"
        }
      ],
      "stateMutability": "view",
      "type": "function"
    },
    {
      "inputs": [
        {
          "internalType": "uint256",
          "name": "",
          "type": "uint256"
        }
      ],
      "name": "butterChurnedByNut",
      "outputs": [
        {
          "internalType": "uint256",
          "name": "",
          "type": "uint256"
        }
      ],
      "stateMutability": "view",
      "type": "function"
    },
    {
      "inputs": [],
      "name": "butterDeficiencyInUniverse",
      "outputs": [
        {
          "internalType": "uint256",
          "name": "",
          "type": "uint256"
        }
      ],
      "stateMutability": "view",
      "type": "function"
    },
    {
      "inputs": [
        {
          "internalType": "uint256",
          "name": "",
          "type": "uint256"
        }
      ],
      "name": "butterDeficiencyOfNut",
      "outputs": [
        {
          "internalType": "uint256",
          "name": "",
          "type": "uint256"
        }
      ],
      "stateMutability": "view",
      "type": "function"
    },
    {
      "inputs": [],
      "name": "butterJars",
      "outputs": [
        {
          "internalType": "uint256",
          "name": "",
          "type": "uint256"
        }
      ],
      "stateMutability": "view",
      "type": "function"
    },
    {
      "inputs": [
        {
          "internalType": "uint256",
          "name": "",
          "type": "uint256"
        }
      ],
      "name": "butterLocations",
      "outputs": [
        {
          "internalType": "address",
          "name": "",
          "type": "address"
        }
      ],
      "stateMutability": "view",
      "type": "function"
    },
    {
      "inputs": [],
      "name": "butterSpread",
      "outputs": [
        {
          "internalType": "uint256",
          "name": "",
          "type": "uint256"
        }
      ],
      "stateMutability": "view",
      "type": "function"
    },
    {
      "inputs": [],
      "name": "butterWeight",
      "outputs": [
        {
          "internalType": "uint256",
          "name": "",
          "type": "uint256"
        }
      ],
      "stateMutability": "view",
      "type": "function"
    },
    {
      "inputs": [
        {
          "internalType": "uint256",
          "name": "",
          "type": "uint256"
        },
        {
          "internalType": "uint256",
          "name": "",
          "type": "uint256"
        }
      ],
      "name": "buttersOfNut",
      "outputs": [
        {
          "internalType": "uint256",
          "name": "",
          "type": "uint256"
        }
      ],
      "stateMutability": "view",
      "type": "function"
    },
    {
      "inputs": [
        {
          "internalType": "uint256",
          "name": "",
          "type": "uint256"
        }
      ],
      "name": "isButterActive",
      "outputs": [
        {
          "internalType": "bool",
          "name": "",
          "type": "bool"
        }
      ],
      "stateMutability": "view",
      "type": "function"
    },
    {
      "inputs": [
        {
          "internalType": "uint256",
          "name": "",
          "type": "uint256"
        }
      ],
      "name": "isSeedActive",
      "outputs": [
        {
          "internalType": "bool",
          "name": "",
          "type": "bool"
        }
      ],
      "stateMutability": "view",
      "type": "function"
    },
    {
      "inputs": [
        {
          "internalType": "uint256",
          "name": "",
          "type": "uint256"
        },
        {
          "internalType": "uint256",
          "name": "",
          "type": "uint256"
        }
      ],
      "name": "isSeedOfNut",
      "outputs": [
        {
          "internalType": "bool",
          "name": "",
          "type": "bool"
        }
      ],
      "stateMutability": "view",
      "type": "function"
    },
    {
      "inputs": [
        {
          "internalType": "uint256",
          "name": "",
          "type": "uint256"
        }
      ],
      "name": "matterBalanceOfNut",
      "outputs": [
        {
          "internalType": "uint256",
          "name": "",
          "type": "uint256"
        }
      ],
      "stateMutability": "view",
      "type": "function"
    },
    {
      "inputs": [
        {
          "internalType": "uint256",
          "name": "",
          "type": "uint256"
        }
      ],
      "name": "matterMintedByNut",
      "outputs": [
        {
          "internalType": "uint256",
          "name": "",
          "type": "uint256"
        }
      ],
      "stateMutability": "view",
      "type": "function"
    },
    {
      "inputs": [
        {
          "internalType": "uint256",
          "name": "_nutId",
          "type": "uint256"
        }
      ],
      "name": "numOfSeedsGrownOf",
      "outputs": [
        {
          "internalType": "uint256",
          "name": "",
          "type": "uint256"
        }
      ],
      "stateMutability": "view",
      "type": "function"
    },
    {
      "inputs": [
        {
          "internalType": "uint256",
          "name": "_nutId",
          "type": "uint256"
        }
      ],
      "name": "numOfSeedsOf",
      "outputs": [
        {
          "internalType": "uint256",
          "name": "",
          "type": "uint256"
        }
      ],
      "stateMutability": "view",
      "type": "function"
    },
    {
      "inputs": [
        {
          "internalType": "uint256",
          "name": "_nutId",
          "type": "uint256"
        }
      ],
      "name": "numberOfButterJars",
      "outputs": [
        {
          "internalType": "uint256",
          "name": "",
          "type": "uint256"
        }
      ],
      "stateMutability": "view",
      "type": "function"
    },
    {
      "inputs": [],
      "name": "nut",
      "outputs": [
        {
          "internalType": "uint256",
          "name": "price",
          "type": "uint256"
        },
        {
          "internalType": "uint256",
          "name": "rate",
          "type": "uint256"
        }
      ],
      "stateMutability": "view",
      "type": "function"
    },
    {
      "inputs": [
        {
          "internalType": "uint256",
          "name": "",
          "type": "uint256"
        }
      ],
      "name": "nutOfButter",
      "outputs": [
        {
          "internalType": "uint256",
          "name": "",
          "type": "uint256"
        }
      ],
      "stateMutability": "view",
      "type": "function"
    },
    {
      "inputs": [
        {
          "internalType": "uint256",
          "name": "",
          "type": "uint256"
        }
      ],
      "name": "nutOfSeed",
      "outputs": [
        {
          "internalType": "uint256",
          "name": "",
          "type": "uint256"
        }
      ],
      "stateMutability": "view",
      "type": "function"
    },
    {
      "inputs": [
        {
          "internalType": "uint256",
          "name": "",
          "type": "uint256"
        }
      ],
      "name": "nutsPayeeList",
      "outputs": [
        {
          "internalType": "uint256",
          "name": "",
          "type": "uint256"
        }
      ],
      "stateMutability": "view",
      "type": "function"
    },
    {
      "inputs": [],
      "name": "paymentTicket",
      "outputs": [
        {
          "internalType": "uint256",
          "name": "",
          "type": "uint256"
        }
      ],
      "stateMutability": "view",
      "type": "function"
    },
    {
      "inputs": [
        {
          "internalType": "uint256",
          "name": "",
          "type": "uint256"
        }
      ],
      "name": "seedLocations",
      "outputs": [
        {
          "internalType": "address",
          "name": "",
          "type": "address"
        }
      ],
      "stateMutability": "view",
      "type": "function"
    },
    {
      "inputs": [],
      "name": "seedsCreated",
      "outputs": [
        {
          "internalType": "uint256",
          "name": "",
          "type": "uint256"
        }
      ],
      "stateMutability": "view",
      "type": "function"
    },
    {
      "inputs": [
        {
          "internalType": "uint256",
          "name": "",
          "type": "uint256"
        },
        {
          "internalType": "uint256",
          "name": "",
          "type": "uint256"
        }
      ],
      "name": "seedsGrownOfNut",
      "outputs": [
        {
          "internalType": "uint256",
          "name": "",
          "type": "uint256"
        }
      ],
      "stateMutability": "view",
      "type": "function"
    },
    {
      "inputs": [
        {
          "internalType": "uint256",
          "name": "",
          "type": "uint256"
        },
        {
          "internalType": "uint256",
          "name": "",
          "type": "uint256"
        }
      ],
      "name": "seedsOfNut",
      "outputs": [
        {
          "internalType": "uint256",
          "name": "",
          "type": "uint256"
        }
      ],
      "stateMutability": "view",
      "type": "function"
    },
    {
      "inputs": [
        {
          "internalType": "address",
          "name": "_systemAddress",
          "type": "address"
        },
        {
          "internalType": "address",
          "name": "_matterAddress",
          "type": "address"
        },
        {
          "internalType": "address",
          "name": "_seedImplementation",
          "type": "address"
        },
        {
          "internalType": "address",
          "name": "_butterImplementation",
          "type": "address"
        },
        {
          "internalType": "uint256",
          "name": "_price",
          "type": "uint256"
        },
        {
          "internalType": "uint256",
          "name": "_rate",
          "type": "uint256"
        }
      ],
      "name": "initialize",
      "outputs": [],
      "stateMutability": "nonpayable",
      "type": "function"
    },
    {
      "inputs": [],
      "name": "viewCosmos",
      "outputs": [
        {
          "internalType": "address",
          "name": "",
          "type": "address"
        }
      ],
      "stateMutability": "view",
      "type": "function"
    },
    {
      "inputs": [
        {
          "internalType": "address",
          "name": "_account",
          "type": "address"
        }
      ],
      "name": "matterOf",
      "outputs": [
        {
          "internalType": "uint256",
          "name": "matterOfOwner",
          "type": "uint256"
        }
      ],
      "stateMutability": "view",
      "type": "function"
    },
    {
      "inputs": [
        {
          "internalType": "address",
          "name": "_cosmoAddress",
          "type": "address"
        }
      ],
      "name": "linkCosmo",
      "outputs": [],
      "stateMutability": "nonpayable",
      "type": "function"
    },
    {
      "inputs": [],
      "name": "getVaultLocation",
      "outputs": [
        {
          "internalType": "address",
          "name": "",
          "type": "address"
        }
      ],
      "stateMutability": "nonpayable",
      "type": "function"
    },
    {
      "inputs": [],
      "name": "getPrice",
      "outputs": [
        {
          "internalType": "uint256",
          "name": "",
          "type": "uint256"
        }
      ],
      "stateMutability": "view",
      "type": "function"
    },
    {
      "inputs": [
        {
          "internalType": "address",
          "name": "_owner",
          "type": "address"
        },
        {
          "internalType": "address",
          "name": "_spender",
          "type": "address"
        },
        {
          "internalType": "uint256",
          "name": "_allowance",
          "type": "uint256"
        }
      ],
      "name": "grantApproval",
      "outputs": [
        {
          "internalType": "bool",
          "name": "",
          "type": "bool"
        }
      ],
      "stateMutability": "nonpayable",
      "type": "function"
    },
    {
      "inputs": [
        {
          "internalType": "address",
          "name": "_to",
          "type": "address"
        },
        {
          "internalType": "uint256",
          "name": "_toTransfer",
          "type": "uint256"
        }
      ],
      "name": "transferMatter",
      "outputs": [
        {
          "internalType": "bool",
          "name": "",
          "type": "bool"
        }
      ],
      "stateMutability": "nonpayable",
      "type": "function"
    },
    {
      "inputs": [
        {
          "internalType": "address",
          "name": "_from",
          "type": "address"
        },
        {
          "internalType": "address",
          "name": "_to",
          "type": "address"
        },
        {
          "internalType": "uint256",
          "name": "_toTransfer",
          "type": "uint256"
        }
      ],
      "name": "transferMatterFrom",
      "outputs": [
        {
          "internalType": "bool",
          "name": "",
          "type": "bool"
        }
      ],
      "stateMutability": "nonpayable",
      "type": "function"
    },
    {
      "inputs": [
        {
          "internalType": "address",
          "name": "_from",
          "type": "address"
        },
        {
          "internalType": "uint256",
          "name": "_toBurn",
          "type": "uint256"
        }
      ],
      "name": "burnMatterFrom",
      "outputs": [
        {
          "internalType": "uint256",
          "name": "newMatterSupply",
          "type": "uint256"
        }
      ],
      "stateMutability": "nonpayable",
      "type": "function"
    },
    {
      "inputs": [
        {
          "internalType": "uint256",
          "name": "_nutId",
          "type": "uint256"
        }
      ],
      "name": "matterNeeded",
      "outputs": [
        {
          "internalType": "uint256",
          "name": "",
          "type": "uint256"
        }
      ],
      "stateMutability": "view",
      "type": "function"
    },
    {
      "inputs": [
        {
          "internalType": "uint256",
          "name": "_nutId",
          "type": "uint256"
        }
      ],
      "name": "ethToHold",
      "outputs": [
        {
          "internalType": "uint256",
          "name": "",
          "type": "uint256"
        }
      ],
      "stateMutability": "view",
      "type": "function"
    },
    {
      "inputs": [
        {
          "internalType": "uint256",
          "name": "_nutId",
          "type": "uint256"
        },
        {
          "internalType": "bytes32",
          "name": "_secretHash",
          "type": "bytes32"
        }
      ],
      "name": "spawnSeed",
      "outputs": [
        {
          "internalType": "address",
          "name": "seedLocation",
          "type": "address"
        }
      ],
      "stateMutability": "nonpayable",
      "type": "function"
    },
    {
      "inputs": [
        {
          "internalType": "uint256",
          "name": "_seedId",
          "type": "uint256"
        },
        {
          "internalType": "uint256",
          "name": "_matterNeeded",
          "type": "uint256"
        }
      ],
      "name": "seedFromNut",
      "outputs": [
        {
          "internalType": "bool",
          "name": "",
          "type": "bool"
        }
      ],
      "stateMutability": "nonpayable",
      "type": "function"
    },
    {
      "inputs": [
        {
          "internalType": "uint256",
          "name": "_nutId",
          "type": "uint256"
        },
        {
          "internalType": "uint256",
          "name": "_matterContributed",
          "type": "uint256"
        },
        {
          "internalType": "uint256",
          "name": "_matterDrawRate",
          "type": "uint256"
        },
        {
          "internalType": "bytes32",
          "name": "_secretHash",
          "type": "bytes32"
        }
      ],
      "name": "newButter",
      "outputs": [
        {
          "internalType": "address",
          "name": "butterLocation",
          "type": "address"
        }
      ],
      "stateMutability": "nonpayable",
      "type": "function"
    },
    {
      "inputs": [
        {
          "internalType": "address",
          "name": "_drawer",
          "type": "address"
        },
        {
          "internalType": "uint256",
          "name": "_butterId",
          "type": "uint256"
        },
        {
          "internalType": "uint256",
          "name": "_balance",
          "type": "uint256"
        },
        {
          "internalType": "uint256",
          "name": "_currentBalance",
          "type": "uint256"
        }
      ],
      "name": "butterDrawn",
      "outputs": [
        {
          "internalType": "bool",
          "name": "",
          "type": "bool"
        }
      ],
      "stateMutability": "nonpayable",
      "type": "function"
    },
    {
      "inputs": [
        {
          "internalType": "address",
          "name": "_tokenOwner",
          "type": "address"
        },
        {
          "internalType": "uint256",
          "name": "_tokenId",
          "type": "uint256"
        }
      ],
      "name": "assignMintBalance",
      "outputs": [
        {
          "internalType": "bool",
          "name": "",
          "type": "bool"
        }
      ],
      "stateMutability": "nonpayable",
      "type": "function"
    }
  ],
  "bytecode": "0x6080604052600080556000600755600060085560006009556000600f5534801561002857600080fd5b50612f3f806100386000396000f3fe608060405234801561001057600080fd5b50600436106102695760003560e01c806375b689aa11610151578063d4d81032116100c3578063ecd8981511610087578063ecd8981514610888578063f3d8c7a7146108b8578063f50d4349146108e8578063f6317f8d14610918578063fe774f9d14610936578063ff2cb3471461096657610269565b8063d4d81032146107d0578063d798b46214610800578063d7c41c7914610830578063df4f5ccc1461084c578063ea988be81461086a57610269565b80639cee22b1116101155780639cee22b1146106d1578063a06fc90b14610701578063a56c5a7814610731578063a83851b91461074d578063aef054ce14610770578063bb5833af146107a057610269565b806375b689aa146106055780638ed3df0f146106235780639578d3df1461065357806398d5fdca146106835780639975a8a2146106a157610269565b806326342ea4116101ea5780633c8023ad116101ae5780633c8023ad146104f757806347634e1c1461052757806349a6b51f146105575780634ffe5a6f1461057557806353f97bc8146105a55780636b651a2c146105d557610269565b806326342ea41461042b578063282adc8c1461044957806328c59aef1461047957806331bd534d146104a95780633279bd4f146104c757610269565b8063171e844111610231578063171e84411461033b5780631821907a1461036b5780631c85949c1461039b5780631e0b3964146103cb57806323f526c0146103fb57610269565b806302760a481461026e57806303f5de9d1461029e57806304360286146102ce5780631298896e146102ec57806315d3b7a01461031c575b600080fd5b6102886004803603810190610283919061257c565b610996565b60405161029591906125c4565b60405180910390f35b6102b860048036038101906102b39190612615565b6109b6565b6040516102c591906126bd565b60405180910390f35b6102d6610f69565b6040516102e391906126bd565b60405180910390f35b610306600480360381019061030191906126d8565b610f96565b6040516103139190612727565b60405180910390f35b610324610fc7565b604051610332929190612742565b60405180910390f35b6103556004803603810190610350919061257c565b610fd9565b60405161036291906125c4565b60405180910390f35b6103856004803603810190610380919061257c565b610ff9565b6040516103929190612727565b60405180910390f35b6103b560048036038101906103b09190612797565b611011565b6040516103c291906125c4565b60405180910390f35b6103e560048036038101906103e091906126d8565b6111bc565b6040516103f29190612727565b60405180910390f35b6104156004803603810190610410919061257c565b6111ed565b60405161042291906126bd565b60405180910390f35b610433611220565b6040516104409190612727565b60405180910390f35b610463600480360381019061045e919061257c565b611226565b6040516104709190612727565b60405180910390f35b610493600480360381019061048e91906127d7565b611246565b6040516104a091906125c4565b60405180910390f35b6104b16112e7565b6040516104be9190612727565b60405180910390f35b6104e160048036038101906104dc919061257c565b6112ed565b6040516104ee9190612727565b60405180910390f35b610511600480360381019061050c91906126d8565b611305565b60405161051e9190612727565b60405180910390f35b610541600480360381019061053c919061257c565b611336565b60405161054e9190612727565b60405180910390f35b61055f61134e565b60405161056c9190612727565b60405180910390f35b61058f600480360381019061058a919061257c565b611354565b60405161059c9190612727565b60405180910390f35b6105bf60048036038101906105ba91906126d8565b61136c565b6040516105cc91906125c4565b60405180910390f35b6105ef60048036038101906105ea919061257c565b61139b565b6040516105fc9190612727565b60405180910390f35b61060d6113bb565b60405161061a91906126bd565b60405180910390f35b61063d6004803603810190610638919061257c565b611458565b60405161064a9190612727565b60405180910390f35b61066d6004803603810190610668919061257c565b611471565b60405161067a9190612727565b60405180910390f35b61068b611495565b6040516106989190612727565b60405180910390f35b6106bb60048036038101906106b6919061257c565b6114a2565b6040516106c89190612727565b60405180910390f35b6106eb60048036038101906106e6919061282a565b6114c2565b6040516106f891906125c4565b60405180910390f35b61071b600480360381019061071691906126d8565b611611565b60405161072891906125c4565b60405180910390f35b61074b60048036038101906107469190612891565b611933565b005b61075561197a565b604051610767969594939291906128be565b60405180910390f35b61078a6004803603810190610785919061257c565b611a64565b60405161079791906126bd565b60405180910390f35b6107ba60048036038101906107b5919061257c565b611a97565b6040516107c79190612727565b60405180910390f35b6107ea60048036038101906107e5919061257c565b611ab0565b6040516107f79190612727565b60405180910390f35b61081a60048036038101906108159190612891565b611ac8565b6040516108279190612727565b60405180910390f35b61084a6004803603810190610845919061291f565b611b70565b005b610854611ce8565b6040516108619190612727565b60405180910390f35b610872611cee565b60405161087f9190612727565b60405180910390f35b6108a2600480360381019061089d9190612797565b611cf4565b6040516108af91906125c4565b60405180910390f35b6108d260048036038101906108cd91906127d7565b611d92565b6040516108df91906125c4565b60405180910390f35b61090260048036038101906108fd919061257c565b611e45565b60405161090f9190612727565b60405180910390f35b610920611e5d565b60405161092d9190612727565b60405180910390f35b610950600480360381019061094b91906129ac565b611e63565b60405161095d91906126bd565b60405180910390f35b610980600480360381019061097b9190612797565b611f47565b60405161098d9190612727565b60405180910390f35b60116020528060005260406000206000915054906101000a900460ff1681565b600080601260010160009054906101000a900473ffffffffffffffffffffffffffffffffffffffff1673ffffffffffffffffffffffffffffffffffffffff1663d798b462601260020160009054906101000a900473ffffffffffffffffffffffffffffffffffffffff166040518263ffffffff1660e01b8152600401610a3c91906126bd565b602060405180830381865afa158015610a59573d6000803e3d6000fd5b505050506040513d601f19601f82011682018060405250810190610a7d9190612a01565b90506000811115610d1f576000610a9682600f54612077565b90506000601b54905060005b828114610d1b576000600f540315610d1b576000601c8381548110610aca57610ac9612a2e565b5b906000526020600020015490506000601060008381526020019081526020016000205403610b1957601c8381548110610b0657610b05612a2e565b5b9060005260206000200160009055610ce1565b6000601260030160009054906101000a900473ffffffffffffffffffffffffffffffffffffffff1673ffffffffffffffffffffffffffffffffffffffff166383638710836040518263ffffffff1660e01b8152600401610b799190612727565b602060405180830381865afa158015610b96573d6000803e3d6000fd5b505050506040513d601f19601f82011682018060405250810190610bba9190612a72565b9050601260010160009054906101000a900473ffffffffffffffffffffffffffffffffffffffff1673ffffffffffffffffffffffffffffffffffffffff1663ecd898158260016040518363ffffffff1660e01b8152600401610c1d929190612ae4565b600060405180830381600087803b158015610c3757600080fd5b505af1158015610c4b573d6000803e3d6000fd5b505050506001600f6000828254610c629190612b3c565b925050819055506001601060008481526020019081526020016000206000828254610c8d9190612b3c565b92505081905550601c829080600181540180825580915050600190039060005260206000200160009091909190915055601c8481548110610cd157610cd0612a2e565b5b9060005260206000200160009055505b8280610cec90612b70565b935050601b6000815480929190610d0290612b70565b9190505550508080610d1390612b70565b915050610aa2565b5050505b6000610d4f601260050160009054906101000a900473ffffffffffffffffffffffffffffffffffffffff16612090565b90508073ffffffffffffffffffffffffffffffffffffffff1663f8257f87600954898989601260020160009054906101000a900473ffffffffffffffffffffffffffffffffffffffff168a6040518763ffffffff1660e01b8152600401610dbb96959493929190612bc7565b600060405180830381600087803b158015610dd557600080fd5b505af1158015610de9573d6000803e3d6000fd5b505050508092506000601260030160009054906101000a900473ffffffffffffffffffffffffffffffffffffffff1673ffffffffffffffffffffffffffffffffffffffff166383638710896040518263ffffffff1660e01b8152600401610e509190612727565b602060405180830381865afa158015610e6d573d6000803e3d6000fd5b505050506040513d601f19601f82011682018060405250810190610e919190612a72565b9050601260010160009054906101000a900473ffffffffffffffffffffffffffffffffffffffff1673ffffffffffffffffffffffffffffffffffffffff166328c59aef82868a6040518463ffffffff1660e01b8152600401610ef593929190612c28565b600060405180830381600087803b158015610f0f57600080fd5b505af1158015610f23573d6000803e3d6000fd5b50505050601c889080600181540180825580915050600190039060005260206000200160009091909190915055610f5e88600954848a612164565b505050949350505050565b6000601260030160009054906101000a900473ffffffffffffffffffffffffffffffffffffffff16905090565b60026020528160005260406000208181548110610fb257600080fd5b90600052602060002001600091509150505481565b60188060000154908060010154905082565b60066020528060005260406000206000915054906101000a900460ff1681565b600d6020528060005260406000206000915090505481565b600080601260010160009054906101000a900473ffffffffffffffffffffffffffffffffffffffff1673ffffffffffffffffffffffffffffffffffffffff1663d798b462306040518263ffffffff1660e01b815260040161107291906126bd565b602060405180830381865afa15801561108f573d6000803e3d6000fd5b505050506040513d601f19601f820116820180604052508101906110b39190612a01565b90506018600101548110156110fd576040517f08c379a00000000000000000000000000000000000000000000000000000000081526004016110f490612ce2565b60405180910390fd5b601260010160009054906101000a900473ffffffffffffffffffffffffffffffffffffffff1673ffffffffffffffffffffffffffffffffffffffff1663ecd89815856018600101546040518363ffffffff1660e01b8152600401611162929190612d02565b600060405180830381600087803b15801561117c57600080fd5b505af1158015611190573d6000803e3d6000fd5b50505050601860010154601a600085815260200190815260200160002081905550600191505092915050565b600a60205281600052604060002081815481106111d857600080fd5b90600052602060002001600091509150505481565b60056020528060005260406000206000915054906101000a900473ffffffffffffffffffffffffffffffffffffffff1681565b60095481565b6000600a6000838152602001908152602001600020805490509050919050565b6000601260010160009054906101000a900473ffffffffffffffffffffffffffffffffffffffff1673ffffffffffffffffffffffffffffffffffffffff166328c59aef8585856040518463ffffffff1660e01b81526004016112aa93929190612c28565b600060405180830381600087803b1580156112c457600080fd5b505af11580156112d8573d6000803e3d6000fd5b50505050600190509392505050565b601b5481565b600c6020528060005260406000206000915090505481565b6001602052816000526040600020818154811061132157600080fd5b90600052602060002001600091509150505481565b600e6020528060005260406000206000915090505481565b60085481565b60106020528060005260406000206000915090505481565b60046020528160005260406000206020528060005260406000206000915091509054906101000a900460ff1681565b600060026000838152602001908152602001600020805490509050919050565b6000601260030160009054906101000a900473ffffffffffffffffffffffffffffffffffffffff1673ffffffffffffffffffffffffffffffffffffffff16630ef8dd956040518163ffffffff1660e01b81526004016020604051808303816000875af115801561142f573d6000803e3d6000fd5b505050506040513d601f19601f820116820180604052508101906114539190612a72565b905090565b6000611463826114a2565b601860010154189050919050565b601c818154811061148157600080fd5b906000526020600020016000915090505481565b6000601860000154905090565b600060016000838152602001908152602001600020805490509050919050565b6000601260010160009054906101000a900473ffffffffffffffffffffffffffffffffffffffff1673ffffffffffffffffffffffffffffffffffffffff1663ecd8981586856040518363ffffffff1660e01b8152600401611524929190612d02565b600060405180830381600087803b15801561153e57600080fd5b505af1158015611552573d6000803e3d6000fd5b50505050601260010160009054906101000a900473ffffffffffffffffffffffffffffffffffffffff1673ffffffffffffffffffffffffffffffffffffffff16634bbc1bcd30856040518363ffffffff1660e01b81526004016115b6929190612d02565b6020604051808303816000875af11580156115d5573d6000803e3d6000fd5b505050506040513d601f19601f820116820180604052508101906115f99190612a01565b506116058484846122da565b60019050949350505050565b6000806005600085815260200190815260200160002060009054906101000a900473ffffffffffffffffffffffffffffffffffffffff1690508073ffffffffffffffffffffffffffffffffffffffff163373ffffffffffffffffffffffffffffffffffffffff16146116b8576040517f08c379a00000000000000000000000000000000000000000000000000000000081526004016116af90612d9d565b60405180910390fd5b60008190506000601260030160009054906101000a900473ffffffffffffffffffffffffffffffffffffffff1673ffffffffffffffffffffffffffffffffffffffff1663836387108373ffffffffffffffffffffffffffffffffffffffff1663685771f46040518163ffffffff1660e01b8152600401602060405180830381865afa15801561174b573d6000803e3d6000fd5b505050506040513d601f19601f8201168201806040525081019061176f9190612a01565b6040518263ffffffff1660e01b815260040161178b9190612727565b602060405180830381865afa1580156117a8573d6000803e3d6000fd5b505050506040513d601f19601f820116820180604052508101906117cc9190612a72565b90506000601260010160009054906101000a900473ffffffffffffffffffffffffffffffffffffffff1690508073ffffffffffffffffffffffffffffffffffffffff1663a9059cbb83886040518363ffffffff1660e01b8152600401611833929190612d02565b6020604051808303816000875af1158015611852573d6000803e3d6000fd5b505050506040513d601f19601f820116820180604052508101906118769190612de9565b508073ffffffffffffffffffffffffffffffffffffffff16634bbc1bcd601260020160009054906101000a900473ffffffffffffffffffffffffffffffffffffffff1660016040518363ffffffff1660e01b81526004016118d8929190612ae4565b6020604051808303816000875af11580156118f7573d6000803e3d6000fd5b505050506040513d601f19601f8201168201806040525081019061191b9190612a01565b5061192587612394565b600194505050505092915050565b80601260030160006101000a81548173ffffffffffffffffffffffffffffffffffffffff021916908373ffffffffffffffffffffffffffffffffffffffff16021790555050565b60128060000160009054906101000a900473ffffffffffffffffffffffffffffffffffffffff16908060010160009054906101000a900473ffffffffffffffffffffffffffffffffffffffff16908060020160009054906101000a900473ffffffffffffffffffffffffffffffffffffffff16908060030160009054906101000a900473ffffffffffffffffffffffffffffffffffffffff16908060040160009054906101000a900473ffffffffffffffffffffffffffffffffffffffff16908060050160009054906101000a900473ffffffffffffffffffffffffffffffffffffffff16905086565b600b6020528060005260406000206000915054906101000a900473ffffffffffffffffffffffffffffffffffffffff1681565b6000611aa28261139b565b601860000154189050919050565b60036020528060005260406000206000915090505481565b6000601260010160009054906101000a900473ffffffffffffffffffffffffffffffffffffffff1673ffffffffffffffffffffffffffffffffffffffff1663d798b462836040518263ffffffff1660e01b8152600401611b2891906126bd565b602060405180830381865afa158015611b45573d6000803e3d6000fd5b505050506040513d601f19601f82011682018060405250810190611b699190612a01565b9050919050565b85601260000160006101000a81548173ffffffffffffffffffffffffffffffffffffffff021916908373ffffffffffffffffffffffffffffffffffffffff16021790555084601260010160006101000a81548173ffffffffffffffffffffffffffffffffffffffff021916908373ffffffffffffffffffffffffffffffffffffffff16021790555030601260020160006101000a81548173ffffffffffffffffffffffffffffffffffffffff021916908373ffffffffffffffffffffffffffffffffffffffff160217905550816018600001819055508060186001018190555083601260040160006101000a81548173ffffffffffffffffffffffffffffffffffffffff021916908373ffffffffffffffffffffffffffffffffffffffff16021790555082601260050160006101000a81548173ffffffffffffffffffffffffffffffffffffffff021916908373ffffffffffffffffffffffffffffffffffffffff1602179055506000601b81905550505050505050565b600f5481565b60005481565b6000601260010160009054906101000a900473ffffffffffffffffffffffffffffffffffffffff1673ffffffffffffffffffffffffffffffffffffffff1663ecd8981584846040518363ffffffff1660e01b8152600401611d56929190612d02565b600060405180830381600087803b158015611d7057600080fd5b505af1158015611d84573d6000803e3d6000fd5b505050506001905092915050565b6000601260010160009054906101000a900473ffffffffffffffffffffffffffffffffffffffff1673ffffffffffffffffffffffffffffffffffffffff1663f3d8c7a78585856040518463ffffffff1660e01b8152600401611df693929190612c28565b6020604051808303816000875af1158015611e15573d6000803e3d6000fd5b505050506040513d601f19601f82011682018060405250810190611e399190612de9565b50600190509392505050565b601a6020528060005260406000206000915090505481565b60075481565b600080611e94601260040160009054906101000a900473ffffffffffffffffffffffffffffffffffffffff16612090565b90508073ffffffffffffffffffffffffffffffffffffffff166348257aa46000548630601260030160009054906101000a900473ffffffffffffffffffffffffffffffffffffffff16886040518663ffffffff1660e01b8152600401611efe959493929190612e16565b600060405180830381600087803b158015611f1857600080fd5b505af1158015611f2c573d6000803e3d6000fd5b50505050809150611f408460005484612416565b5092915050565b6000601260010160009054906101000a900473ffffffffffffffffffffffffffffffffffffffff1673ffffffffffffffffffffffffffffffffffffffff1663ff2cb34784846040518363ffffffff1660e01b8152600401611fa9929190612d02565b600060405180830381600087803b158015611fc357600080fd5b505af1158015611fd7573d6000803e3d6000fd5b50505050601260010160009054906101000a900473ffffffffffffffffffffffffffffffffffffffff1673ffffffffffffffffffffffffffffffffffffffff1663445f11fc6040518163ffffffff1660e01b8152600401602060405180830381865afa15801561204b573d6000803e3d6000fd5b505050506040513d601f19601f8201168201806040525081019061206f9190612a01565b905092915050565b60008183106120865781612088565b825b905092915050565b60006040517f3d602d80600a3d3981f3363d3d373d3d3d363d7300000000000000000000000081528260601b60148201527f5af43d82803e903d91602b57fd5bf3000000000000000000000000000000000060288201526037816000f0915050600073ffffffffffffffffffffffffffffffffffffffff168173ffffffffffffffffffffffffffffffffffffffff160361215f576040517f08c379a000000000000000000000000000000000000000000000000000000000815260040161215690612eb5565b60405180910390fd5b919050565b6001600960008282546121779190612ed5565b9250508190555080600760008282546121909190612ed5565b92505081905550600a600085815260200190815260200160002083908060018154018082558091505060019003906000526020600020016000909190919091505580600d600086815260200190815260200160002060008282546121f49190612ed5565b9250508190555081600b600085815260200190815260200160002060006101000a81548173ffffffffffffffffffffffffffffffffffffffff021916908373ffffffffffffffffffffffffffffffffffffffff16021790555060016011600085815260200190815260200160002060006101000a81548160ff02191690831515021790555083600e60008581526020019081526020016000208190555080600f60008282546122a39190612ed5565b92505081905550806010600086815260200190815260200160002060008282546122cd9190612ed5565b9250508190555050505050565b81600760008282546122ec9190612b3c565b9250508190555081600860008282546123059190612ed5565b925050819055506000600e600085815260200190815260200160002054905082600c600083815260200190815260200160002060008282546123479190612ed5565b925050819055506000838361235c9190612b3c565b0361238e5760006011600086815260200190815260200160002060006101000a81548160ff0219169083151502179055505b50505050565b6000600360008381526020019081526020016000205490506002600082815260200190815260200160002082908060018154018082558091505060019003906000526020600020016000909190919091505560006006600083815260200190815260200160002060006101000a81548160ff0219169083151502179055505050565b82600360008481526020019081526020016000208190555060016000848152602001908152602001600020829080600181540180825580915050600190039060005260206000200160009091909190915055600160046000848152602001908152602001600020600085815260200190815260200160002060006101000a81548160ff021916908315150217905550806005600084815260200190815260200160002060006101000a81548173ffffffffffffffffffffffffffffffffffffffff021916908373ffffffffffffffffffffffffffffffffffffffff16021790555060016000808282546125099190612ed5565b9250508190555060016006600085815260200190815260200160002060006101000a81548160ff021916908315150217905550505050565b600080fd5b6000819050919050565b61255981612546565b811461256457600080fd5b50565b60008135905061257681612550565b92915050565b60006020828403121561259257612591612541565b5b60006125a084828501612567565b91505092915050565b60008115159050919050565b6125be816125a9565b82525050565b60006020820190506125d960008301846125b5565b92915050565b6000819050919050565b6125f2816125df565b81146125fd57600080fd5b50565b60008135905061260f816125e9565b92915050565b6000806000806080858703121561262f5761262e612541565b5b600061263d87828801612567565b945050602061264e87828801612567565b935050604061265f87828801612567565b925050606061267087828801612600565b91505092959194509250565b600073ffffffffffffffffffffffffffffffffffffffff82169050919050565b60006126a78261267c565b9050919050565b6126b78161269c565b82525050565b60006020820190506126d260008301846126ae565b92915050565b600080604083850312156126ef576126ee612541565b5b60006126fd85828601612567565b925050602061270e85828601612567565b9150509250929050565b61272181612546565b82525050565b600060208201905061273c6000830184612718565b92915050565b60006040820190506127576000830185612718565b6127646020830184612718565b9392505050565b6127748161269c565b811461277f57600080fd5b50565b6000813590506127918161276b565b92915050565b600080604083850312156127ae576127ad612541565b5b60006127bc85828601612782565b92505060206127cd85828601612567565b9150509250929050565b6000806000606084860312156127f0576127ef612541565b5b60006127fe86828701612782565b935050602061280f86828701612782565b925050604061282086828701612567565b9150509250925092565b6000806000806080858703121561284457612843612541565b5b600061285287828801612782565b945050602061286387828801612567565b935050604061287487828801612567565b925050606061288587828801612567565b91505092959194509250565b6000602082840312156128a7576128a6612541565b5b60006128b584828501612782565b91505092915050565b600060c0820190506128d360008301896126ae565b6128e060208301886126ae565b6128ed60408301876126ae565b6128fa60608301866126ae565b61290760808301856126ae565b61291460a08301846126ae565b979650505050505050565b60008060008060008060c0878903121561293c5761293b612541565b5b600061294a89828a01612782565b965050602061295b89828a01612782565b955050604061296c89828a01612782565b945050606061297d89828a01612782565b935050608061298e89828a01612567565b92505060a061299f89828a01612567565b9150509295509295509295565b600080604083850312156129c3576129c2612541565b5b60006129d185828601612567565b92505060206129e285828601612600565b9150509250929050565b6000815190506129fb81612550565b92915050565b600060208284031215612a1757612a16612541565b5b6000612a25848285016129ec565b91505092915050565b7f4e487b7100000000000000000000000000000000000000000000000000000000600052603260045260246000fd5b600081519050612a6c8161276b565b92915050565b600060208284031215612a8857612a87612541565b5b6000612a9684828501612a5d565b91505092915050565b6000819050919050565b6000819050919050565b6000612ace612ac9612ac484612a9f565b612aa9565b612546565b9050919050565b612ade81612ab3565b82525050565b6000604082019050612af960008301856126ae565b612b066020830184612ad5565b9392505050565b7f4e487b7100000000000000000000000000000000000000000000000000000000600052601160045260246000fd5b6000612b4782612546565b9150612b5283612546565b9250828203905081811115612b6a57612b69612b0d565b5b92915050565b6000612b7b82612546565b91507fffffffffffffffffffffffffffffffffffffffffffffffffffffffffffffffff8203612bad57612bac612b0d565b5b600182019050919050565b612bc1816125df565b82525050565b600060c082019050612bdc6000830189612718565b612be96020830188612718565b612bf66040830187612718565b612c036060830186612718565b612c1060808301856126ae565b612c1d60a0830184612bb8565b979650505050505050565b6000606082019050612c3d60008301866126ae565b612c4a60208301856126ae565b612c576040830184612718565b949350505050565b600082825260208201905092915050565b7f4e757420656e6f756768206d617474657220696e20547265617375727920746f60008201527f206d696e74000000000000000000000000000000000000000000000000000000602082015250565b6000612ccc602583612c5f565b9150612cd782612c70565b604082019050919050565b60006020820190508181036000830152612cfb81612cbf565b9050919050565b6000604082019050612d1760008301856126ae565b612d246020830184612718565b9392505050565b7f43616c6c6572206973206e6f742074686520726967687420436f736d6f53656560008201527f6420636f6e747261637400000000000000000000000000000000000000000000602082015250565b6000612d87602a83612c5f565b9150612d9282612d2b565b604082019050919050565b60006020820190508181036000830152612db681612d7a565b9050919050565b612dc6816125a9565b8114612dd157600080fd5b50565b600081519050612de381612dbd565b92915050565b600060208284031215612dff57612dfe612541565b5b6000612e0d84828501612dd4565b91505092915050565b600060a082019050612e2b6000830188612718565b612e386020830187612718565b612e4560408301866126ae565b612e5260608301856126ae565b612e5f6080830184612bb8565b9695505050505050565b7f455243313136373a20637265617465206661696c656400000000000000000000600082015250565b6000612e9f601683612c5f565b9150612eaa82612e69565b602082019050919050565b60006020820190508181036000830152612ece81612e92565b9050919050565b6000612ee082612546565b9150612eeb83612546565b9250828201905080821115612f0357612f02612b0d565b5b9291505056fea26469706673582212209bd0bf52456da315ae73e2c37f833449eb6a93db12f074ac80368f17c149347764736f6c63430008110033",
  "immutableReferences": {},
  "source": "// SPDX-License-Identifier: MIT\npragma solidity ^0.8.7;\n\nimport \"openzeppelin-solidity/contracts/utils/math/Math.sol\";\nimport { Clones } from \"openzeppelin-solidity/contracts/proxy/Clones.sol\";\n\nimport \"./CosmoMatter.sol\";\nimport \"./CosmoSeed.sol\";\nimport \"./CosmoButter.sol\";\nimport \"./ICosmoTreasury.sol\";\nimport \"./ICosmoNuts.sol\";\nimport \"./ICosmoSeed.sol\";\nimport \"./ICosmoMatter.sol\";\n\nimport \"./SeedAccounts.sol\";\nimport \"./ButterAccounts.sol\";\n\n/**\n * @dev Manages the matter balance of the CosmoNuts collection and handles interaction with the\n * ERC20 Token to mint, burn, and allocate balances\n * Acts as storage for the ERC 721 tokens on their created Seed and Butter contracts.\n */\n contract CosmoTreasury is SeedAccounts, ButterAccounts, ICosmoTreasury {\n\n      /**\n       * @dev Saved addresses include the contract which created the Treasury: UNIVERSE_ADDRESS, and\n       * the address of the CosmoNuts contract (NFTs) which is created after the Treasury and then updated: matter_ADDRESS.\n       */\n     struct AddressOf {\n         address system;\n         address matter;\n         address treasury;\n         address cosmos;\n         address seedImplementation;\n         address butterImplementation;\n     }\n     AddressOf public addressOf;\n\n     struct Nut {\n         uint256 price;\n         uint256 rate;\n     }\n     Nut public nut;\n\n     mapping(uint256 => uint256) public matterBalanceOfNut; // Matter balance of each Nut recorded by the Treasury\n\n     uint256 public paymentTicket;\n     uint256[] public nutsPayeeList;\n\n     function initialize(\n         address _systemAddress,\n         address _matterAddress,\n         address _seedImplementation,\n         address _butterImplementation,\n         uint256 _price,\n         uint256 _rate\n     ) external {\n         addressOf.system = _systemAddress;\n         addressOf.matter = _matterAddress;\n         addressOf.treasury = address(this);\n         nut.price = _price;\n         nut.rate = _rate;\n\n         addressOf.seedImplementation = _seedImplementation;\n         addressOf.butterImplementation = _butterImplementation;\n\n         paymentTicket = 0;\n     }\n\n     /*\n     modifier onlyUniverse {\n         require(address(msg.sender) == UNIVERSE_ADDRESS, \"Caller is not Universe\");\n         _;\n     }\n     */\n\n     function viewCosmos() public view virtual override returns (address) {\n         return addressOf.cosmos;\n     }\n\n     // Likely not needed and below is enough\n     /**\n     function matterOfOwnerByNut(uint256 _nutId) public view virtual override returns (uint256 matterOfNutOwner) {\n         address nutOwner = ICosmoNuts(addressOf.cosmos).getOwnerOf(_nutId);\n         matterOfNutOwner = ICosmoMatter(addressOf.matter).matterOf(nutOwner);\n         return matterOfNutOwner;\n     }\n     */\n\n     function matterOf(address _account) public view virtual override returns (uint256 matterOfOwner) {\n         matterOfOwner = ICosmoMatter(addressOf.matter).matterOf(_account);\n         return matterOfOwner;\n     }\n\n     function linkCosmo(address _cosmoAddress) external virtual override {\n         addressOf.cosmos = _cosmoAddress;\n     }\n\n     function getVaultLocation() public virtual override returns (address) {\n        return ICosmoNuts(addressOf.cosmos).vaultLocation();\n     }\n\n     function getPrice() public view virtual override returns (uint256) {\n         return nut.price;\n     }\n\n     function grantApproval(address _owner, address _spender, uint256 _allowance) external virtual override returns (bool) {\n          ICosmoMatter(addressOf.matter).grantApproval(_owner, _spender, _allowance);\n          return true;\n     }\n\n     function transferMatter(address _to, uint256 _toTransfer) public virtual override returns (bool) {\n         ICosmoMatter(addressOf.matter).transferMatter(_to, _toTransfer);\n         return true;\n     }\n\n     function transferMatterFrom(\n         address _from,\n         address _to,\n         uint256 _toTransfer\n     ) public virtual override returns (bool) {\n         ICosmoMatter(addressOf.matter).transferMatterFrom(\n             _from, _to, _toTransfer\n         );\n         return true;\n     }\n\n     function burnMatterFrom(\n         address _from,\n         uint256 _toBurn\n     ) external virtual override returns (uint256 newMatterSupply) {\n         ICosmoMatter(addressOf.matter).burnMatterFrom(_from, _toBurn);\n         newMatterSupply = ICosmoMatter(addressOf.matter).totalMatter();\n         return newMatterSupply;\n     }\n\n     function matterNeeded(uint256 _nutId) public view virtual override returns (uint256) {\n         return nut.rate ^ (numOfSeedsOf(_nutId));\n     }\n\n     function ethToHold(uint256 _nutId) public view virtual override returns (uint256) {\n         return nut.price ^ (numOfSeedsGrownOf(_nutId));\n     }\n\n     /**\n      * Called from CosmoNuts contract.\n      */\n     function spawnSeed(uint256 _nutId, bytes32 _secretHash) external virtual override returns (address seedLocation) {\n         CosmoSeed seed = CosmoSeed(payable(Clones.clone(addressOf.seedImplementation)));\n\n         seed.initialize(\n             seedsCreated, _nutId, address(this), addressOf.cosmos, _secretHash\n         );\n         seedLocation = address(seed);\n\n         integrateSeed(_nutId, seedsCreated, seedLocation);\n\n         return seedLocation;\n     }\n\n     /**\n      * Called from CosmoSeed contract.\n      */\n     function seedFromNut(uint256 _seedId, uint256 _matterNeeded) external virtual override returns (bool) {\n         address seedAddress = seedLocations[_seedId];\n         require(address(msg.sender) == seedAddress, \"Caller is not the right CosmoSeed contract\");\n         //require(matter.balanceOf(address(msg.sender)) >= _matterNeeded, \"Not enough matter\");\n\n         CosmoSeed seed = CosmoSeed(payable(seedAddress));\n\n         address nutOwner = ICosmoNuts(addressOf.cosmos).getOwnerOf(seed.nutId());\n         CosmoMatter matter = CosmoMatter(addressOf.matter);\n         matter.transfer(nutOwner, _matterNeeded);\n         matter.mintMatter(addressOf.treasury, 1);\n\n         growSeed(_seedId);\n\n         return true;\n     }\n\n     function _nutCheck(uint256 _nutId) internal view returns (bool) {\n         uint256 maxMatter = (numOfSeedsGrownOf(_nutId) + 1) * nut.rate;\n         if (matterBalanceOfNut[_nutId] == maxMatter) {\n             return true;\n         } else {\n             return false;\n         }\n     }\n\n     /**\n      * Creating new butter means the creation of a contract where other users can withdraw matter from.\n      * Need to contribute butter (which can only be done if you have a Nut with the desired level of matter to give away.\n      * A secret message is provided in hash form and checked for verification to withdraw funds.\n      */\n     function newButter(\n         uint256 _nutId,\n         uint256 _matterContributed,\n         uint256 _matterDrawRate,\n         bytes32 _secretHash\n     ) external virtual override returns (address butterLocation) {\n         /**\n          * The Treasury wants to distribute its available balance to the nutsPayeeList.\n          * It will distribute the minimum of either its available balance or the deficiency in the Universe.\n          * All payees are awarded one matter and moved to the end of the list.\n          * When their maximum available balance is reached, they are removed from the payee list.\n          */\n         uint256 matterInTreasury = ICosmoMatter(addressOf.matter).matterOf(addressOf.treasury);\n         if (matterInTreasury > 0) {\n             uint256 toDistribute = Math.min(matterInTreasury, butterDeficiencyInUniverse);\n\n             uint256 index = paymentTicket;\n             for (uint j = 0; j != toDistribute; j++) {\n                 if (butterDeficiencyInUniverse == 0) break;\n\n                 uint256 nutPayeeId = nutsPayeeList[index];\n                 if (butterDeficiencyOfNut[nutPayeeId] == 0) {\n                     delete nutsPayeeList[index];\n                 } else {\n                     address nutOwnerPayee = ICosmoNuts(addressOf.cosmos).getOwnerOf(nutPayeeId);\n                     ICosmoMatter(addressOf.matter).transferMatter(nutOwnerPayee, 1);\n\n                     butterDeficiencyInUniverse -= 1;\n                     butterDeficiencyOfNut[nutPayeeId] -= 1;\n\n                     nutsPayeeList.push(nutPayeeId);\n                     delete nutsPayeeList[index];\n                 }\n\n                 index++;\n                 paymentTicket++;\n            }\n         }\n\n         CosmoButter butter = CosmoButter(Clones.clone(addressOf.butterImplementation));\n         butter.initialize(\n             butterJars, _nutId, _matterContributed, _matterDrawRate, addressOf.treasury, _secretHash\n         );\n         butterLocation = address(butter);\n\n         address nutIdOwner = ICosmoNuts(addressOf.cosmos).getOwnerOf(_nutId);\n         ICosmoMatter(addressOf.matter).transferMatterFrom(nutIdOwner, butterLocation, _matterContributed);\n\n         nutsPayeeList.push(_nutId);\n\n         churnButter(_nutId, butterJars, address(butter), _matterContributed);\n\n         return butterLocation;\n     }\n\n     /**\n      * Runs from CosmoButter contract when someone requests to draw matter.\n      */\n     function butterDrawn(\n         address _drawer,\n         uint256 _butterId,\n         uint256 _balance,\n         uint256 _currentBalance\n     ) external virtual override returns (bool) {\n         ICosmoMatter(addressOf.matter).transferMatter(_drawer, _balance);\n         ICosmoMatter(addressOf.matter).mintMatter(address(this), _balance);\n\n         distributeButter(_butterId, _balance, _currentBalance);\n\n         return true;\n     }\n\n     function assignMintBalance(address _tokenOwner, uint256 _tokenId) external virtual override returns (bool) {\n         uint256 matterOfTreasury = ICosmoMatter(addressOf.matter).matterOf(address(this));\n         require(matterOfTreasury >= nut.rate, \"Nut enough matter in Treasury to mint\");\n\n         ICosmoMatter(addressOf.matter).transferMatter(_tokenOwner, nut.rate);\n\n         matterBalanceOfNut[_tokenId] = nut.rate;\n\n         return true;\n     }\n\n }\n",
  "sourcePath": "/home/redlentils/Seafile/Websites/avatarnft/contracts/CosmoTreasury.sol",
  "compiler": {
    "name": "solc",
    "version": "0.8.17+commit.8df45f5f.Emscripten.clang"
  },
  "schemaVersion": "3.4.10",
  "updatedAt": "2022-10-27T06:37:23.566Z",
  "devdoc": {
    "details": "Manages the matter balance of the CosmoNuts collection and handles interaction with the ERC20 Token to mint, burn, and allocate balances Acts as storage for the ERC 721 tokens on their created Seed and Butter contracts.",
    "kind": "dev",
    "methods": {},
    "version": 1
  },
  "userdoc": {
    "kind": "user",
    "methods": {
      "butterDrawn(address,uint256,uint256,uint256)": {
        "notice": "Runs from CosmoButter contract when someone requests to draw matter."
      },
      "butterWeight()": {
        "notice": "butterWeight is the amount of matter in the universe that is currently outstanding. butterSpread is the amount of matter that has been distributed from butterWeight, thus reducing its value. butterJars represent the total number of matter contracts created in the Universe."
      },
      "buttersOfNut(uint256,uint256)": {
        "notice": "buttersOfNut represents a list of all butter contracts created byt that nut. butterLocations represents the address of contract identifed by butterId."
      },
      "matterOf(address)": {
        "notice": "function matterOfOwnerByNut(uint256 _nutId) public view virtual override returns (uint256 matterOfNutOwner) { address nutOwner = ICosmoNuts(addressOf.cosmos).getOwnerOf(_nutId); matterOfNutOwner = ICosmoMatter(addressOf.matter).matterOf(nutOwner); return matterOfNutOwner; }"
      },
      "newButter(uint256,uint256,uint256,bytes32)": {
        "notice": "Creating new butter means the creation of a contract where other users can withdraw matter from. Need to contribute butter (which can only be done if you have a Nut with the desired level of matter to give away. A secret message is provided in hash form and checked for verification to withdraw funds."
      },
      "seedFromNut(uint256,uint256)": {
        "notice": "Called from CosmoSeed contract."
      },
      "spawnSeed(uint256,bytes32)": {
        "notice": "Called from CosmoNuts contract."
      }
    },
    "version": 1
  }
}