{
  "contractName": "CosmoBang",
  "abi": [
    {
      "inputs": [
        {
          "internalType": "address",
          "name": "_systemAddress",
          "type": "address"
        },
        {
          "internalType": "address",
          "name": "_matterAddress",
          "type": "address"
        },
        {
          "internalType": "string",
          "name": "_cosmosName",
          "type": "string"
        },
        {
          "internalType": "string",
          "name": "_cosmosSymbol",
          "type": "string"
        },
        {
          "internalType": "uint256",
          "name": "_desiredEntities",
          "type": "uint256"
        },
        {
          "internalType": "uint256",
          "name": "_matterRate",
          "type": "uint256"
        }
      ],
      "stateMutability": "nonpayable",
      "type": "constructor"
    },
    {
      "inputs": [],
      "name": "COSMO_ADDRESS",
      "outputs": [
        {
          "internalType": "address",
          "name": "",
          "type": "address"
        }
      ],
      "stateMutability": "view",
      "type": "function"
    },
    {
      "inputs": [],
      "name": "TREASURY_ADDRESS",
      "outputs": [
        {
          "internalType": "address",
          "name": "",
          "type": "address"
        }
      ],
      "stateMutability": "view",
      "type": "function"
    }
  ],
  "bytecode": "0x60806040523480156200001157600080fd5b506040516200b2d43803806200b2d4833981810160405281019062000037919062000475565b8481604051620000479062000226565b6200005492919062000571565b604051809103906000f08015801562000071573d6000803e3d6000fd5b50600360006101000a81548173ffffffffffffffffffffffffffffffffffffffff021916908373ffffffffffffffffffffffffffffffffffffffff16021790555083838388600360009054906101000a900473ffffffffffffffffffffffffffffffffffffffff16604051620000e79062000234565b620000f7959493929190620005fb565b604051809103906000f08015801562000114573d6000803e3d6000fd5b50600260006101000a81548173ffffffffffffffffffffffffffffffffffffffff021916908373ffffffffffffffffffffffffffffffffffffffff160217905550600360009054906101000a900473ffffffffffffffffffffffffffffffffffffffff16600160006101000a81548173ffffffffffffffffffffffffffffffffffffffff021916908373ffffffffffffffffffffffffffffffffffffffff160217905550600260009054906101000a900473ffffffffffffffffffffffffffffffffffffffff166000806101000a81548173ffffffffffffffffffffffffffffffffffffffff021916908373ffffffffffffffffffffffffffffffffffffffff16021790555050505050505062000666565b614e5f80620007c983390190565b615cac806200562883390190565b6000604051905090565b600080fd5b600080fd5b600073ffffffffffffffffffffffffffffffffffffffff82169050919050565b6000620002838262000256565b9050919050565b620002958162000276565b8114620002a157600080fd5b50565b600081519050620002b5816200028a565b92915050565b600080fd5b600080fd5b6000601f19601f8301169050919050565b7f4e487b7100000000000000000000000000000000000000000000000000000000600052604160045260246000fd5b6200031082620002c5565b810181811067ffffffffffffffff82111715620003325762000331620002d6565b5b80604052505050565b60006200034762000242565b905062000355828262000305565b919050565b600067ffffffffffffffff821115620003785762000377620002d6565b5b6200038382620002c5565b9050602081019050919050565b60005b83811015620003b057808201518184015260208101905062000393565b60008484015250505050565b6000620003d3620003cd846200035a565b6200033b565b905082815260208101848484011115620003f257620003f1620002c0565b5b620003ff84828562000390565b509392505050565b600082601f8301126200041f576200041e620002bb565b5b815162000431848260208601620003bc565b91505092915050565b6000819050919050565b6200044f816200043a565b81146200045b57600080fd5b50565b6000815190506200046f8162000444565b92915050565b60008060008060008060c087890312156200049557620004946200024c565b5b6000620004a589828a01620002a4565b9650506020620004b889828a01620002a4565b955050604087015167ffffffffffffffff811115620004dc57620004db62000251565b5b620004ea89828a0162000407565b945050606087015167ffffffffffffffff8111156200050e576200050d62000251565b5b6200051c89828a0162000407565b93505060806200052f89828a016200045e565b92505060a06200054289828a016200045e565b9150509295509295509295565b6200055a8162000276565b82525050565b6200056b816200043a565b82525050565b60006040820190506200058860008301856200054f565b62000597602083018462000560565b9392505050565b600081519050919050565b600082825260208201905092915050565b6000620005c7826200059e565b620005d38185620005a9565b9350620005e581856020860162000390565b620005f081620002c5565b840191505092915050565b600060a0820190508181036000830152620006178188620005ba565b905081810360208301526200062d8187620005ba565b90506200063e604083018662000560565b6200064d60608301856200054f565b6200065c60808301846200054f565b9695505050505050565b61015380620006766000396000f3fe608060405234801561001057600080fd5b50600436106100365760003560e01c806307604b1a1461003b578063235d2c8a14610059575b600080fd5b610043610077565b6040516100509190610102565b60405180910390f35b61006161009d565b60405161006e9190610102565b60405180910390f35b600160009054906101000a900473ffffffffffffffffffffffffffffffffffffffff1681565b60008054906101000a900473ffffffffffffffffffffffffffffffffffffffff1681565b600073ffffffffffffffffffffffffffffffffffffffff82169050919050565b60006100ec826100c1565b9050919050565b6100fc816100e1565b82525050565b600060208201905061011760008301846100f3565b9291505056fea26469706673582212208c4666f21db21000cb125bdd6e163014e11ecfabe11fb9d912b4064607d79af364736f6c634300081100336080604052600080556000600755600060085560006009556000600f553480156200002957600080fd5b5060405162004e5f38038062004e5f83398181016040528101906200004f9190620002e8565b81601260006101000a81548173ffffffffffffffffffffffffffffffffffffffff021916908373ffffffffffffffffffffffffffffffffffffffff16021790555080601481905550601260009054906101000a900473ffffffffffffffffffffffffffffffffffffffff16601a60006101000a81548173ffffffffffffffffffffffffffffffffffffffff021916908373ffffffffffffffffffffffffffffffffffffffff160217905550601a60009054906101000a900473ffffffffffffffffffffffffffffffffffffffff1673ffffffffffffffffffffffffffffffffffffffff166318160ddd6040518163ffffffff1660e01b8152600401602060405180830381865afa15801562000168573d6000803e3d6000fd5b505050506040513d601f19601f820116820180604052508101906200018e91906200032f565b601581905550601a60009054906101000a900473ffffffffffffffffffffffffffffffffffffffff1673ffffffffffffffffffffffffffffffffffffffff166370a08231306040518263ffffffff1660e01b8152600401620001f1919062000372565b602060405180830381865afa1580156200020f573d6000803e3d6000fd5b505050506040513d601f19601f820116820180604052508101906200023591906200032f565b60168190555050506200038f565b600080fd5b600073ffffffffffffffffffffffffffffffffffffffff82169050919050565b6000620002758262000248565b9050919050565b620002878162000268565b81146200029357600080fd5b50565b600081519050620002a7816200027c565b92915050565b6000819050919050565b620002c281620002ad565b8114620002ce57600080fd5b50565b600081519050620002e281620002b7565b92915050565b6000806040838503121562000302576200030162000243565b5b6000620003128582860162000296565b92505060206200032585828601620002d1565b9150509250929050565b60006020828403121562000348576200034762000243565b5b60006200035884828501620002d1565b91505092915050565b6200036c8162000268565b82525050565b600060208201905062000389600083018462000361565b92915050565b614ac0806200039f6000396000f3fe6080604052600436106200021e5760003560e01c806349a6b51f1162000127578063aef054ce11620000af578063ea0f13661162000079578063ea0f1366146200089b578063ea988be814620008df578063f50d4349146200090f578063f6317f8d1462000953578063fe774f9d1462000983576200021e565b8063aef054ce14620007b3578063b8a9736d14620007f7578063d4d810321462000827578063df4f5ccc146200086b576200021e565b8063733b0bca11620000f1578063733b0bca14620006e35780639578d3df14620007115780639cee22b11462000755578063a89092c11462000783576200021e565b806349a6b51f14620005fb5780634ffe5a6f146200062b57806353f97bc8146200066f57806364b1b66314620006b3576200021e565b8063282adc8c11620001ab57806334fc1228116200017557806334fc122814620004ff57806339dc84f414620005435780633c89d09f146200058757806347634e1c14620005b7576200021e565b8063282adc8c14620004035780632c533085146200044757806331ad1b4214620004775780633279bd4f14620004bb576200021e565b80631c85949c11620001ed5780631c85949c146200031d5780631e0b3964146200034b57806323f526c0146200038f57806326342ea414620003d3576200021e565b806302760a48146200022357806303f5de9d1462000267578063171e844114620002955780631821907a14620002d9575b600080fd5b3480156200023057600080fd5b506200024f60048036038101906200024991906200232d565b620009a3565b6040516200025e91906200237c565b60405180910390f35b3480156200027457600080fd5b506200029360048036038101906200028d9190620023d4565b620009c3565b005b348015620002a257600080fd5b50620002c16004803603810190620002bb91906200232d565b6200116d565b604051620002d091906200237c565b60405180910390f35b348015620002e657600080fd5b50620003056004803603810190620002ff91906200232d565b6200118d565b60405162000314919062002457565b60405180910390f35b3480156200032a57600080fd5b50620003496004803603810190620003439190620024d9565b620011a5565b005b3480156200035857600080fd5b5062000377600480360381019062000371919062002520565b620012d2565b60405162000386919062002457565b60405180910390f35b3480156200039c57600080fd5b50620003bb6004803603810190620003b591906200232d565b62001304565b604051620003ca919062002578565b60405180910390f35b348015620003e057600080fd5b50620003eb62001337565b604051620003fa919062002457565b60405180910390f35b3480156200041057600080fd5b506200042f60048036038101906200042991906200232d565b6200133d565b6040516200043e919062002457565b60405180910390f35b3480156200045457600080fd5b506200045f6200135d565b6040516200046e919062002457565b60405180910390f35b3480156200048457600080fd5b50620004a360048036038101906200049d91906200232d565b62001363565b604051620004b2919062002457565b60405180910390f35b348015620004c857600080fd5b50620004e76004803603810190620004e191906200232d565b6200137b565b604051620004f6919062002457565b60405180910390f35b3480156200050c57600080fd5b506200052b60048036038101906200052591906200232d565b62001393565b6040516200053a919062002457565b60405180910390f35b3480156200055057600080fd5b506200056f60048036038101906200056991906200232d565b620013c1565b6040516200057e919062002578565b60405180910390f35b3480156200059457600080fd5b506200059f620013f4565b604051620005ae919062002457565b60405180910390f35b348015620005c457600080fd5b50620005e36004803603810190620005dd91906200232d565b620013fa565b604051620005f2919062002457565b60405180910390f35b3480156200060857600080fd5b506200061362001412565b60405162000622919062002457565b60405180910390f35b3480156200063857600080fd5b506200065760048036038101906200065191906200232d565b62001418565b60405162000666919062002457565b60405180910390f35b3480156200067c57600080fd5b506200069b600480360381019062000695919062002520565b62001430565b604051620006aa91906200237c565b60405180910390f35b348015620006c057600080fd5b50620006cb6200145f565b604051620006da919062002578565b60405180910390f35b348015620006f057600080fd5b506200070f600480360381019062000709919062002520565b62001485565b005b3480156200071e57600080fd5b506200073d60048036038101906200073791906200232d565b620018d8565b6040516200074c919062002457565b60405180910390f35b3480156200076257600080fd5b506200078160048036038101906200077b919062002595565b620018fd565b005b3480156200079057600080fd5b506200079b62001b8a565b604051620007aa919062002457565b60405180910390f35b348015620007c057600080fd5b50620007df6004803603810190620007d991906200232d565b62001b90565b604051620007ee919062002578565b60405180910390f35b3480156200080457600080fd5b506200080f62001bc3565b6040516200081e919062002457565b60405180910390f35b3480156200083457600080fd5b506200085360048036038101906200084d91906200232d565b62001bc9565b60405162000862919062002457565b60405180910390f35b3480156200087857600080fd5b506200088362001be1565b60405162000892919062002457565b60405180910390f35b348015620008a857600080fd5b50620008c76004803603810190620008c191906200232d565b62001be7565b604051620008d6919062002457565b60405180910390f35b348015620008ec57600080fd5b50620008f762001bff565b60405162000906919062002457565b60405180910390f35b3480156200091c57600080fd5b506200093b60048036038101906200093591906200232d565b62001c05565b6040516200094a919062002457565b60405180910390f35b3480156200096057600080fd5b506200096b62001c1d565b6040516200097a919062002457565b60405180910390f35b620009a160048036038101906200099b919062002607565b62001c23565b005b60116020528060005260406000206000915054906101000a900460ff1681565b60006017600086815260200190815260200160002060009054906101000a900473ffffffffffffffffffffffffffffffffffffffff1690503373ffffffffffffffffffffffffffffffffffffffff168173ffffffffffffffffffffffffffffffffffffffff161462000a6c576040517f08c379a000000000000000000000000000000000000000000000000000000000815260040162000a6390620026af565b60405180910390fd5b836018600087815260200190815260200160002054101562000ac5576040517f08c379a000000000000000000000000000000000000000000000000000000000815260040162000abc9062002721565b60405180910390fd5b601a60009054906101000a900473ffffffffffffffffffffffffffffffffffffffff1673ffffffffffffffffffffffffffffffffffffffff166370a08231826040518263ffffffff1660e01b815260040162000b22919062002578565b602060405180830381865afa15801562000b40573d6000803e3d6000fd5b505050506040513d601f19601f8201168201806040525081019062000b6691906200275a565b84111562000bab576040517f08c379a000000000000000000000000000000000000000000000000000000000815260040162000ba290620027dc565b60405180910390fd5b6000838562000bbb91906200282d565b1462000bfe576040517f08c379a000000000000000000000000000000000000000000000000000000000815260040162000bf590620028b5565b60405180910390fd5b60006002600087815260200190815260200160002054111562000c8c5783600f600082825462000c2f919062002906565b925050819055508360106000878152602001908152602001600020600082825462000c5b919062002906565b9250508190555060198590806001815401808255809150506001900390600052602060002001600090919091909150555b601a60009054906101000a900473ffffffffffffffffffffffffffffffffffffffff1673ffffffffffffffffffffffffffffffffffffffff166370a08231306040518263ffffffff1660e01b815260040162000ce9919062002578565b602060405180830381865afa15801562000d07573d6000803e3d6000fd5b505050506040513d601f19601f8201168201806040525081019062000d2d91906200275a565b601681905550600060165411156200106657600062000d51601654600f5462001efa565b90506000805b82811462000fbb57600060198054905090506000810362000d79575062000fbb565b8082111562000d8757600092505b60006019848154811062000da05762000d9f62002941565b5b9060005260206000200154905060006017600083815260200190815260200160002060009054906101000a900473ffffffffffffffffffffffffffffffffffffffff1690506000601454600260008581526020019081526020016000205462000e0a919062002970565b90508060186000858152602001908152602001600020540362000e52576019868154811062000e3e5762000e3d62002941565b5b906000526020600020016000905562000f91565b601a60009054906101000a900473ffffffffffffffffffffffffffffffffffffffff1673ffffffffffffffffffffffffffffffffffffffff1663a9059cbb8360016040518363ffffffff1660e01b815260040162000eb292919062002a08565b6020604051808303816000875af115801562000ed2573d6000803e3d6000fd5b505050506040513d601f19601f8201168201806040525081019062000ef8919062002a66565b5060198390806001815401808255809150506001900390600052602060002001600090919091909150556019868154811062000f395762000f3862002941565b5b90600052602060002001600090556001600f600082825462000f5c919062002a98565b92505081905550600160106000858152602001908152602001600020600082825462000f89919062002a98565b925050819055505b858062000f9e9062002ad3565b96505050505050808062000fb29062002ad3565b91505062000d57565b50601a60009054906101000a900473ffffffffffffffffffffffffffffffffffffffff1673ffffffffffffffffffffffffffffffffffffffff166370a08231306040518263ffffffff1660e01b815260040162001019919062002578565b602060405180830381865afa15801562001037573d6000803e3d6000fd5b505050506040513d601f19601f820116820180604052508101906200105d91906200275a565b60168190555050505b600060095486868630876040516200107e90620022d1565b6200108f9695949392919062002b31565b604051809103906000f080158015620010ac573d6000803e3d6000fd5b509050601a60009054906101000a900473ffffffffffffffffffffffffffffffffffffffff1673ffffffffffffffffffffffffffffffffffffffff1663a9059cbb82876040518363ffffffff1660e01b81526004016200110e92919062002b9e565b6020604051808303816000875af11580156200112e573d6000803e3d6000fd5b505050506040513d601f19601f8201168201806040525081019062001154919062002a66565b506200116586600954838862001f15565b505050505050565b60066020528060005260406000206000915054906101000a900460ff1681565b600d6020528060005260406000206000915090505481565b6014546016541015620011ef576040517f08c379a0000000000000000000000000000000000000000000000000000000008152600401620011e69062002c1b565b60405180910390fd5b601a60009054906101000a900473ffffffffffffffffffffffffffffffffffffffff1673ffffffffffffffffffffffffffffffffffffffff1663a9059cbb836014546040518363ffffffff1660e01b81526004016200125092919062002b9e565b6020604051808303816000875af115801562001270573d6000803e3d6000fd5b505050506040513d601f19601f8201168201806040525081019062001296919062002a66565b50601454601860008381526020019081526020016000208190555060145460166000828254620012c7919062002a98565b925050819055505050565b600a6020528160005260406000208181548110620012ef57600080fd5b90600052602060002001600091509150505481565b60056020528060005260406000206000915054906101000a900473ffffffffffffffffffffffffffffffffffffffff1681565b60095481565b6000600a6000838152602001908152602001600020805490509050919050565b60145481565b60016020528060005260406000206000915090505481565b600c6020528060005260406000206000915090505481565b6000600180600084815260200190815260200160002054620013b6919062002906565b601454189050919050565b60176020528060005260406000206000915054906101000a900473ffffffffffffffffffffffffffffffffffffffff1681565b60155481565b600e6020528060005260406000206000915090505481565b60085481565b60106020528060005260406000206000915090505481565b60046020528160005260406000206020528060005260406000206000915091509054906101000a900460ff1681565b601260009054906101000a900473ffffffffffffffffffffffffffffffffffffffff1681565b60006005600084815260200190815260200160002060009054906101000a900473ffffffffffffffffffffffffffffffffffffffff1690508073ffffffffffffffffffffffffffffffffffffffff163373ffffffffffffffffffffffffffffffffffffffff16146200152e576040517f08c379a0000000000000000000000000000000000000000000000000000000008152600401620015259062002cb3565b60405180910390fd5b60008190506000601760008373ffffffffffffffffffffffffffffffffffffffff1663685771f46040518163ffffffff1660e01b8152600401602060405180830381865afa15801562001585573d6000803e3d6000fd5b505050506040513d601f19601f82011682018060405250810190620015ab91906200275a565b815260200190815260200160002060009054906101000a900473ffffffffffffffffffffffffffffffffffffffff169050601a60009054906101000a900473ffffffffffffffffffffffffffffffffffffffff1673ffffffffffffffffffffffffffffffffffffffff1663a9059cbb82866040518363ffffffff1660e01b81526004016200163b92919062002b9e565b6020604051808303816000875af11580156200165b573d6000803e3d6000fd5b505050506040513d601f19601f8201168201806040525081019062001681919062002a66565b50601a60009054906101000a900473ffffffffffffffffffffffffffffffffffffffff1673ffffffffffffffffffffffffffffffffffffffff16634bbc1bcd3060016040518363ffffffff1660e01b8152600401620016e292919062002a08565b600060405180830381600087803b158015620016fd57600080fd5b505af115801562001712573d6000803e3d6000fd5b505050508173ffffffffffffffffffffffffffffffffffffffff166326b2c77c826040518263ffffffff1660e01b815260040162001751919062002578565b600060405180830381600087803b1580156200176c57600080fd5b505af115801562001781573d6000803e3d6000fd5b50505050601a60009054906101000a900473ffffffffffffffffffffffffffffffffffffffff1673ffffffffffffffffffffffffffffffffffffffff166318160ddd6040518163ffffffff1660e01b8152600401602060405180830381865afa158015620017f3573d6000803e3d6000fd5b505050506040513d601f19601f820116820180604052508101906200181991906200275a565b601581905550601a60009054906101000a900473ffffffffffffffffffffffffffffffffffffffff1673ffffffffffffffffffffffffffffffffffffffff166370a08231306040518263ffffffff1660e01b81526004016200187c919062002578565b602060405180830381865afa1580156200189a573d6000803e3d6000fd5b505050506040513d601f19601f82011682018060405250810190620018c091906200275a565b601681905550620018d1856200204e565b5050505050565b60198181548110620018e957600080fd5b906000526020600020016000915090505481565b601a60009054906101000a900473ffffffffffffffffffffffffffffffffffffffff1673ffffffffffffffffffffffffffffffffffffffff1663a9059cbb85846040518363ffffffff1660e01b81526004016200195c92919062002b9e565b6020604051808303816000875af11580156200197c573d6000803e3d6000fd5b505050506040513d601f19601f82011682018060405250810190620019a2919062002a66565b50601a60009054906101000a900473ffffffffffffffffffffffffffffffffffffffff1673ffffffffffffffffffffffffffffffffffffffff16634bbc1bcd30846040518363ffffffff1660e01b815260040162001a0292919062002b9e565b600060405180830381600087803b15801562001a1d57600080fd5b505af115801562001a32573d6000803e3d6000fd5b5050505062001a43838383620020ef565b601a60009054906101000a900473ffffffffffffffffffffffffffffffffffffffff1673ffffffffffffffffffffffffffffffffffffffff166318160ddd6040518163ffffffff1660e01b8152600401602060405180830381865afa15801562001ab1573d6000803e3d6000fd5b505050506040513d601f19601f8201168201806040525081019062001ad791906200275a565b601581905550601a60009054906101000a900473ffffffffffffffffffffffffffffffffffffffff1673ffffffffffffffffffffffffffffffffffffffff166370a08231306040518263ffffffff1660e01b815260040162001b3a919062002578565b602060405180830381865afa15801562001b58573d6000803e3d6000fd5b505050506040513d601f19601f8201168201806040525081019062001b7e91906200275a565b60168190555050505050565b60165481565b600b6020528060005260406000206000915054906101000a900473ffffffffffffffffffffffffffffffffffffffff1681565b60135481565b60036020528060005260406000206000915090505481565b600f5481565b60026020528060005260406000206000915090505481565b60005481565b60186020528060005260406000206000915090505481565b60075481565b60006001600260008581526020019081526020016000205462001c47919062002906565b6013541890508034101562001c93576040517f08c379a000000000000000000000000000000000000000000000000000000000815260040162001c8a9062002d25565b60405180910390fd5b600062001ca08462001393565b90506000601a60009054906101000a900473ffffffffffffffffffffffffffffffffffffffff1673ffffffffffffffffffffffffffffffffffffffff166370a082316017600088815260200190815260200160002060009054906101000a900473ffffffffffffffffffffffffffffffffffffffff166040518263ffffffff1660e01b815260040162001d34919062002578565b602060405180830381865afa15801562001d52573d6000803e3d6000fd5b505050506040513d601f19601f8201168201806040525081019062001d7891906200275a565b90508181101562001dc0576040517f08c379a000000000000000000000000000000000000000000000000000000000815260040162001db79062002d97565b60405180910390fd5b6000805486308760405162001dd590620022df565b62001de4949392919062002db9565b604051809103906000f08015801562001e01573d6000803e3d6000fd5b509050600081905062001e188760005483620021b2565b601a60009054906101000a900473ffffffffffffffffffffffffffffffffffffffff1673ffffffffffffffffffffffffffffffffffffffff166342966c68856040518263ffffffff1660e01b815260040162001e75919062002457565b600060405180830381600087803b15801562001e9057600080fd5b505af115801562001ea5573d6000803e3d6000fd5b505050508073ffffffffffffffffffffffffffffffffffffffff166108fc349081150290604051600060405180830381858888f1935050505015801562001ef0573d6000803e3d6000fd5b5050505050505050565b600081831062001f0b578162001f0d565b825b905092915050565b60016009600082825462001f2a919062002906565b92505081905550806007600082825462001f45919062002906565b92505081905550600a600085815260200190815260200160002083908060018154018082558091505060019003906000526020600020016000909190919091505580600d6000868152602001908152602001600020600082825462001fab919062002906565b9250508190555081600b600086815260200190815260200160002060006101000a81548173ffffffffffffffffffffffffffffffffffffffff021916908373ffffffffffffffffffffffffffffffffffffffff16021790555060016011600086815260200190815260200160002060006101000a81548160ff02191690831515021790555083600e60008581526020019081526020016000208190555050505050565b600060036000838152602001908152602001600020549050600180600083815260200190815260200160002060008282546200208b919062002a98565b925050819055506001600260008381526020019081526020016000206000828254620020b8919062002906565b9250508190555060006006600083815260200190815260200160002060006101000a81548160ff0219169083151502179055505050565b816007600082825462002103919062002a98565b9250508190555081600860008282546200211e919062002906565b925050819055506000600e600085815260200190815260200160002054905082600c6000838152602001908152602001600020600082825462002162919062002906565b925050819055506000838362002179919062002a98565b03620021ac5760006011600086815260200190815260200160002060006101000a81548160ff0219169083151502179055505b50505050565b82600360008481526020019081526020016000208190555060018060008581526020019081526020016000206000828254620021ef919062002906565b92505081905550600160046000848152602001908152602001600020600085815260200190815260200160002060006101000a81548160ff021916908315150217905550806005600084815260200190815260200160002060006101000a81548173ffffffffffffffffffffffffffffffffffffffff021916908373ffffffffffffffffffffffffffffffffffffffff160217905550600160008082825462002299919062002906565b9250508190555060016006600085815260200190815260200160002060006101000a81548160ff021916908315150217905550505050565b610d218062002e0783390190565b610f638062003b2883390190565b600080fd5b6000819050919050565b6200230781620022f2565b81146200231357600080fd5b50565b6000813590506200232781620022fc565b92915050565b600060208284031215620023465762002345620022ed565b5b6000620023568482850162002316565b91505092915050565b60008115159050919050565b62002376816200235f565b82525050565b60006020820190506200239360008301846200236b565b92915050565b6000819050919050565b620023ae8162002399565b8114620023ba57600080fd5b50565b600081359050620023ce81620023a3565b92915050565b60008060008060808587031215620023f157620023f0620022ed565b5b6000620024018782880162002316565b9450506020620024148782880162002316565b9350506040620024278782880162002316565b92505060606200243a87828801620023bd565b91505092959194509250565b6200245181620022f2565b82525050565b60006020820190506200246e600083018462002446565b92915050565b600073ffffffffffffffffffffffffffffffffffffffff82169050919050565b6000620024a18262002474565b9050919050565b620024b38162002494565b8114620024bf57600080fd5b50565b600081359050620024d381620024a8565b92915050565b60008060408385031215620024f357620024f2620022ed565b5b60006200250385828601620024c2565b9250506020620025168582860162002316565b9150509250929050565b600080604083850312156200253a5762002539620022ed565b5b60006200254a8582860162002316565b92505060206200255d8582860162002316565b9150509250929050565b620025728162002494565b82525050565b60006020820190506200258f600083018462002567565b92915050565b60008060008060808587031215620025b257620025b1620022ed565b5b6000620025c287828801620024c2565b9450506020620025d58782880162002316565b9350506040620025e88782880162002316565b9250506060620025fb8782880162002316565b91505092959194509250565b60008060408385031215620026215762002620620022ed565b5b6000620026318582860162002316565b92505060206200264485828601620023bd565b9150509250929050565b600082825260208201905092915050565b7f43616c6c6572206973206e6f7420746865206f776e6572000000000000000000600082015250565b6000620026976017836200264e565b9150620026a4826200265f565b602082019050919050565b60006020820190508181036000830152620026ca8162002688565b9050919050565b7f4e6f74206861766520656e6f756768206d617474657200000000000000000000600082015250565b6000620027096016836200264e565b91506200271682620026d1565b602082019050919050565b600060208201905081810360008301526200273c81620026fa565b9050919050565b6000815190506200275481620022fc565b92915050565b600060208284031215620027735762002772620022ed565b5b6000620027838482850162002743565b91505092915050565b7f4e6f74206869676820656e6f7567680000000000000000000000000000000000600082015250565b6000620027c4600f836200264e565b9150620027d1826200278c565b602082019050919050565b60006020820190508181036000830152620027f781620027b5565b9050919050565b7f4e487b7100000000000000000000000000000000000000000000000000000000600052601260045260246000fd5b60006200283a82620022f2565b91506200284783620022f2565b9250826200285a5762002859620027fe565b5b828206905092915050565b7f447261772072617465206e6f7420646976697369626c65000000000000000000600082015250565b60006200289d6017836200264e565b9150620028aa8262002865565b602082019050919050565b60006020820190508181036000830152620028d0816200288e565b9050919050565b7f4e487b7100000000000000000000000000000000000000000000000000000000600052601160045260246000fd5b60006200291382620022f2565b91506200292083620022f2565b92508282019050808211156200293b576200293a620028d7565b5b92915050565b7f4e487b7100000000000000000000000000000000000000000000000000000000600052603260045260246000fd5b60006200297d82620022f2565b91506200298a83620022f2565b92508282026200299a81620022f2565b91508282048414831517620029b457620029b3620028d7565b5b5092915050565b6000819050919050565b6000819050919050565b6000620029f0620029ea620029e484620029bb565b620029c5565b620022f2565b9050919050565b62002a0281620029cf565b82525050565b600060408201905062002a1f600083018562002567565b62002a2e6020830184620029f7565b9392505050565b62002a40816200235f565b811462002a4c57600080fd5b50565b60008151905062002a608162002a35565b92915050565b60006020828403121562002a7f5762002a7e620022ed565b5b600062002a8f8482850162002a4f565b91505092915050565b600062002aa582620022f2565b915062002ab283620022f2565b925082820390508181111562002acd5762002acc620028d7565b5b92915050565b600062002ae082620022f2565b91507fffffffffffffffffffffffffffffffffffffffffffffffffffffffffffffffff820362002b155762002b14620028d7565b5b600182019050919050565b62002b2b8162002399565b82525050565b600060c08201905062002b48600083018962002446565b62002b57602083018862002446565b62002b66604083018762002446565b62002b75606083018662002446565b62002b84608083018562002567565b62002b9360a083018462002b20565b979650505050505050565b600060408201905062002bb5600083018562002567565b62002bc4602083018462002446565b9392505050565b7f4e6f7420656e6f756768206d6174746572000000000000000000000000000000600082015250565b600062002c036011836200264e565b915062002c108262002bcb565b602082019050919050565b6000602082019050818103600083015262002c368162002bf4565b9050919050565b7f43616c6c6572206973206e6f742074686520726967687420436f736d6f53656560008201527f6420636f6e747261637400000000000000000000000000000000000000000000602082015250565b600062002c9b602a836200264e565b915062002ca88262002c3d565b604082019050919050565b6000602082019050818103600083015262002cce8162002c8c565b9050919050565b7f45746865722076616c7565206973206e6f7420656e6f75676800000000000000600082015250565b600062002d0d6019836200264e565b915062002d1a8262002cd5565b602082019050919050565b6000602082019050818103600083015262002d408162002cfe565b9050919050565b7f4d61747465722062616c616e6365206973206e6f7420656e6f75676800000000600082015250565b600062002d7f601c836200264e565b915062002d8c8262002d47565b602082019050919050565b6000602082019050818103600083015262002db28162002d70565b9050919050565b600060808201905062002dd0600083018762002446565b62002ddf602083018662002446565b62002dee604083018562002567565b62002dfd606083018462002b20565b9594505050505056fe60806040523480156200001157600080fd5b5060405162000d2138038062000d21833981810160405281019062000037919062000283565b85600080018190555084600060010181905550836000600201819055508260006003018190555030600060040160006101000a81548173ffffffffffffffffffffffffffffffffffffffff021916908373ffffffffffffffffffffffffffffffffffffffff16021790555033600060050160006101000a81548173ffffffffffffffffffffffffffffffffffffffff021916908373ffffffffffffffffffffffffffffffffffffffff16021790555080600060060181905550600060050160009054906101000a900473ffffffffffffffffffffffffffffffffffffffff16600860006101000a81548173ffffffffffffffffffffffffffffffffffffffff021916908373ffffffffffffffffffffffffffffffffffffffff16021790555081600960006101000a81548173ffffffffffffffffffffffffffffffffffffffff021916908373ffffffffffffffffffffffffffffffffffffffff1602179055505050505050506200031f565b600080fd5b6000819050919050565b620001bd81620001a8565b8114620001c957600080fd5b50565b600081519050620001dd81620001b2565b92915050565b600073ffffffffffffffffffffffffffffffffffffffff82169050919050565b60006200021082620001e3565b9050919050565b620002228162000203565b81146200022e57600080fd5b50565b600081519050620002428162000217565b92915050565b6000819050919050565b6200025d8162000248565b81146200026957600080fd5b50565b6000815190506200027d8162000252565b92915050565b60008060008060008060c08789031215620002a357620002a2620001a3565b5b6000620002b389828a01620001cc565b9650506020620002c689828a01620001cc565b9550506040620002d989828a01620001cc565b9450506060620002ec89828a01620001cc565b9350506080620002ff89828a0162000231565b92505060a06200031289828a016200026c565b9150509295509295509295565b6109f2806200032f6000396000f3fe608060405234801561001057600080fd5b506004361061002b5760003560e01c806327ac1b6514610030575b600080fd5b61004a60048036038101906100459190610563565b61004c565b005b60011515600060070160003373ffffffffffffffffffffffffffffffffffffffff1673ffffffffffffffffffffffffffffffffffffffff16815260200190815260200160002060009054906101000a900460ff161515036100e2576040517f08c379a00000000000000000000000000000000000000000000000000000000081526004016100d990610667565b60405180910390fd5b6000806002015411610129576040517f08c379a0000000000000000000000000000000000000000000000000000000008152600401610120906106d3565b60405180910390fd5b610132836102eb565b50600960009054906101000a900473ffffffffffffffffffffffffffffffffffffffff1673ffffffffffffffffffffffffffffffffffffffff16639cee22b13360008001546000600301546000600201546040518563ffffffff1660e01b81526004016101a2949392919061074d565b600060405180830381600087803b1580156101bc57600080fd5b505af11580156101d0573d6000803e3d6000fd5b50505050600060030154600060020160008282546101ee91906107c1565b925050819055506001600060070160003373ffffffffffffffffffffffffffffffffffffffff1673ffffffffffffffffffffffffffffffffffffffff16815260200190815260200160002060006101000a81548160ff021916908315150217905550600860009054906101000a900473ffffffffffffffffffffffffffffffffffffffff1673ffffffffffffffffffffffffffffffffffffffff16639202c1ec60006001015484846040518463ffffffff1660e01b81526004016102b4939291906108b8565b600060405180830381600087803b1580156102ce57600080fd5b505af11580156102e2573d6000803e3d6000fd5b50505050505050565b600080826040516020016102ff9190610939565b604051602081830303815290604052805190602001209050600060060154811461035e576040517f08c379a00000000000000000000000000000000000000000000000000000000081526004016103559061099c565b60405180910390fd5b6001915050919050565b6000604051905090565b600080fd5b600080fd5b600080fd5b600080fd5b6000601f19601f8301169050919050565b7f4e487b7100000000000000000000000000000000000000000000000000000000600052604160045260246000fd5b6103cf82610386565b810181811067ffffffffffffffff821117156103ee576103ed610397565b5b80604052505050565b6000610401610368565b905061040d82826103c6565b919050565b600067ffffffffffffffff82111561042d5761042c610397565b5b61043682610386565b9050602081019050919050565b82818337600083830152505050565b600061046561046084610412565b6103f7565b90508281526020810184848401111561048157610480610381565b5b61048c848285610443565b509392505050565b600082601f8301126104a9576104a861037c565b5b81356104b9848260208601610452565b91505092915050565b600067ffffffffffffffff8211156104dd576104dc610397565b5b6104e682610386565b9050602081019050919050565b6000610506610501846104c2565b6103f7565b90508281526020810184848401111561052257610521610381565b5b61052d848285610443565b509392505050565b600082601f83011261054a5761054961037c565b5b813561055a8482602086016104f3565b91505092915050565b60008060006060848603121561057c5761057b610372565b5b600084013567ffffffffffffffff81111561059a57610599610377565b5b6105a686828701610494565b935050602084013567ffffffffffffffff8111156105c7576105c6610377565b5b6105d386828701610494565b925050604084013567ffffffffffffffff8111156105f4576105f3610377565b5b61060086828701610535565b9150509250925092565b600082825260208201905092915050565b7f43616e206f6e6c792064726177206f6e63650000000000000000000000000000600082015250565b600061065160128361060a565b915061065c8261061b565b602082019050919050565b6000602082019050818103600083015261068081610644565b9050919050565b7f4e6f2062757474657220746f2064726177000000000000000000000000000000600082015250565b60006106bd60118361060a565b91506106c882610687565b602082019050919050565b600060208201905081810360008301526106ec816106b0565b9050919050565b600073ffffffffffffffffffffffffffffffffffffffff82169050919050565b600061071e826106f3565b9050919050565b61072e81610713565b82525050565b6000819050919050565b61074781610734565b82525050565b60006080820190506107626000830187610725565b61076f602083018661073e565b61077c604083018561073e565b610789606083018461073e565b95945050505050565b7f4e487b7100000000000000000000000000000000000000000000000000000000600052601160045260246000fd5b60006107cc82610734565b91506107d783610734565b92508282039050818111156107ef576107ee610792565b5b92915050565b600081519050919050565b60005b8381101561081e578082015181840152602081019050610803565b60008484015250505050565b6000610835826107f5565b61083f818561060a565b935061084f818560208601610800565b61085881610386565b840191505092915050565b600081519050919050565b600082825260208201905092915050565b600061088a82610863565b610894818561086e565b93506108a4818560208601610800565b6108ad81610386565b840191505092915050565b60006060820190506108cd600083018661073e565b81810360208301526108df818561082a565b905081810360408301526108f3818461087f565b9050949350505050565b600081905092915050565b6000610913826107f5565b61091d81856108fd565b935061092d818560208601610800565b80840191505092915050565b60006109458284610908565b915081905092915050565b7f496e70757420646f6573206e6f74206d61746368207365637265740000000000600082015250565b6000610986601b8361060a565b915061099182610950565b602082019050919050565b600060208201905081810360008301526109b581610979565b905091905056fea26469706673582212202d8ef1b1c1ed5a9115a5d07401f3f0972b05fef41a34ce751049708cf13f959c64736f6c63430008110033608060405260405162000f6338038062000f638339818101604052810190620000299190620002f4565b600033905080600760006101000a81548173ffffffffffffffffffffffffffffffffffffffff021916908373ffffffffffffffffffffffffffffffffffffffff16021790555082600860006101000a81548173ffffffffffffffffffffffffffffffffffffffff021916908373ffffffffffffffffffffffffffffffffffffffff1602179055508460008001819055508360006001018190555034600060020181905550600860009054906101000a900473ffffffffffffffffffffffffffffffffffffffff1673ffffffffffffffffffffffffffffffffffffffff166334fc1228856040518263ffffffff1660e01b81526004016200012a919062000377565b602060405180830381865afa15801562000148573d6000803e3d6000fd5b505050506040513d601f19601f820116820180604052508101906200016e919062000394565b60006003018190555030600060040160006101000a81548173ffffffffffffffffffffffffffffffffffffffff021916908373ffffffffffffffffffffffffffffffffffffffff16021790555080600060050160006101000a81548173ffffffffffffffffffffffffffffffffffffffff021916908373ffffffffffffffffffffffffffffffffffffffff160217905550816000600601819055505050505050620003c6565b600080fd5b6000819050919050565b6200022e8162000219565b81146200023a57600080fd5b50565b6000815190506200024e8162000223565b92915050565b600073ffffffffffffffffffffffffffffffffffffffff82169050919050565b6000620002818262000254565b9050919050565b620002938162000274565b81146200029f57600080fd5b50565b600081519050620002b38162000288565b92915050565b6000819050919050565b620002ce81620002b9565b8114620002da57600080fd5b50565b600081519050620002ee81620002c3565b92915050565b6000806000806080858703121562000311576200031062000214565b5b600062000321878288016200023d565b945050602062000334878288016200023d565b93505060406200034787828801620002a2565b92505060606200035a87828801620002dd565b91505092959194509250565b620003718162000219565b82525050565b60006020820190506200038e600083018462000366565b92915050565b600060208284031215620003ad57620003ac62000214565b5b6000620003bd848285016200023d565b91505092915050565b610b8d80620003d66000396000f3fe60806040526004361061004a5760003560e01c806326b2c77c1461004f578063685771f41461006b5780637d94792a14610096578063956c2dc3146100c7578063c5d12c97146100f0575b600080fd5b61006960048036038101906100649190610522565b61011b565b005b34801561007757600080fd5b50610080610275565b60405161008d9190610568565b60405180910390f35b3480156100a257600080fd5b506100ab610281565b6040516100be97969594939291906105ab565b60405180910390f35b3480156100d357600080fd5b506100ee60048036038101906100e99190610801565b6102f1565b005b3480156100fc57600080fd5b50610105610427565b6040516101129190610568565b60405180910390f35b6000600860009054906101000a900473ffffffffffffffffffffffffffffffffffffffff1673ffffffffffffffffffffffffffffffffffffffff1663b8a9736d6040518163ffffffff1660e01b8152600401602060405180830381865afa15801561018a573d6000803e3d6000fd5b505050506040513d601f19601f820116820180604052508101906101ae91906108d4565b9050600081346101be9190610930565b9050600860009054906101000a900473ffffffffffffffffffffffffffffffffffffffff1673ffffffffffffffffffffffffffffffffffffffff166108fc839081150290604051600060405180830381858888f19350505050158015610228573d6000803e3d6000fd5b508273ffffffffffffffffffffffffffffffffffffffff166108fc829081150290604051600060405180830381858888f1935050505015801561026f573d6000803e3d6000fd5b50505050565b60008060010154905090565b60008060000154908060010154908060020154908060030154908060040160009054906101000a900473ffffffffffffffffffffffffffffffffffffffff16908060050160009054906101000a900473ffffffffffffffffffffffffffffffffffffffff16908060060154905087565b6102fa83610433565b50600860009054906101000a900473ffffffffffffffffffffffffffffffffffffffff1673ffffffffffffffffffffffffffffffffffffffff1663733b0bca60008001546000600301546040518363ffffffff1660e01b8152600401610361929190610964565b600060405180830381600087803b15801561037b57600080fd5b505af115801561038f573d6000803e3d6000fd5b50505050600760009054906101000a900473ffffffffffffffffffffffffffffffffffffffff1673ffffffffffffffffffffffffffffffffffffffff1663a0e12efe83836040518363ffffffff1660e01b81526004016103f0929190610a61565b600060405180830381600087803b15801561040a57600080fd5b505af115801561041e573d6000803e3d6000fd5b50505050505050565b60008060030154905090565b600080826040516020016104479190610ad4565b60405160208183030381529060405280519060200120905060006006015481146104a6576040517f08c379a000000000000000000000000000000000000000000000000000000000815260040161049d90610b37565b60405180910390fd5b6001915050919050565b6000604051905090565b600080fd5b600080fd5b600073ffffffffffffffffffffffffffffffffffffffff82169050919050565b60006104ef826104c4565b9050919050565b6104ff816104e4565b811461050a57600080fd5b50565b60008135905061051c816104f6565b92915050565b600060208284031215610538576105376104ba565b5b60006105468482850161050d565b91505092915050565b6000819050919050565b6105628161054f565b82525050565b600060208201905061057d6000830184610559565b92915050565b61058c816104e4565b82525050565b6000819050919050565b6105a581610592565b82525050565b600060e0820190506105c0600083018a610559565b6105cd6020830189610559565b6105da6040830188610559565b6105e76060830187610559565b6105f46080830186610583565b61060160a0830185610583565b61060e60c083018461059c565b98975050505050505050565b600080fd5b600080fd5b6000601f19601f8301169050919050565b7f4e487b7100000000000000000000000000000000000000000000000000000000600052604160045260246000fd5b61066d82610624565b810181811067ffffffffffffffff8211171561068c5761068b610635565b5b80604052505050565b600061069f6104b0565b90506106ab8282610664565b919050565b600067ffffffffffffffff8211156106cb576106ca610635565b5b6106d482610624565b9050602081019050919050565b82818337600083830152505050565b60006107036106fe846106b0565b610695565b90508281526020810184848401111561071f5761071e61061f565b5b61072a8482856106e1565b509392505050565b600082601f8301126107475761074661061a565b5b81356107578482602086016106f0565b91505092915050565b600067ffffffffffffffff82111561077b5761077a610635565b5b61078482610624565b9050602081019050919050565b60006107a461079f84610760565b610695565b9050828152602081018484840111156107c0576107bf61061f565b5b6107cb8482856106e1565b509392505050565b600082601f8301126107e8576107e761061a565b5b81356107f8848260208601610791565b91505092915050565b60008060006060848603121561081a576108196104ba565b5b600084013567ffffffffffffffff811115610838576108376104bf565b5b61084486828701610732565b935050602084013567ffffffffffffffff811115610865576108646104bf565b5b61087186828701610732565b925050604084013567ffffffffffffffff811115610892576108916104bf565b5b61089e868287016107d3565b9150509250925092565b6108b18161054f565b81146108bc57600080fd5b50565b6000815190506108ce816108a8565b92915050565b6000602082840312156108ea576108e96104ba565b5b60006108f8848285016108bf565b91505092915050565b7f4e487b7100000000000000000000000000000000000000000000000000000000600052601160045260246000fd5b600061093b8261054f565b91506109468361054f565b925082820390508181111561095e5761095d610901565b5b92915050565b60006040820190506109796000830185610559565b6109866020830184610559565b9392505050565b600081519050919050565b600082825260208201905092915050565b60005b838110156109c75780820151818401526020810190506109ac565b60008484015250505050565b60006109de8261098d565b6109e88185610998565b93506109f88185602086016109a9565b610a0181610624565b840191505092915050565b600081519050919050565b600082825260208201905092915050565b6000610a3382610a0c565b610a3d8185610a17565b9350610a4d8185602086016109a9565b610a5681610624565b840191505092915050565b60006040820190508181036000830152610a7b81856109d3565b90508181036020830152610a8f8184610a28565b90509392505050565b600081905092915050565b6000610aae8261098d565b610ab88185610a98565b9350610ac88185602086016109a9565b80840191505092915050565b6000610ae08284610aa3565b915081905092915050565b7f496e70757420646f6573206e6f74206d61746368207365637265740000000000600082015250565b6000610b21601b83610998565b9150610b2c82610aeb565b602082019050919050565b60006020820190508181036000830152610b5081610b14565b905091905056fea264697066735822122096c3ae346d28c1282bf94a44b1d1af4a4e4f9884bd3156d953eb788331e04cb564736f6c63430008110033a26469706673582212200dac245e272b5f90537a366edaf7ae59220ca0d92d536c701bad811da76a9ef964736f6c6343000811003360806040526305f5e1006002556000601260006101000a81548160ff0219169083151502179055503480156200003457600080fd5b5060405162005cac38038062005cac83398181016040528101906200005a9190620004e9565b848484848484848383816000806101000a81548173ffffffffffffffffffffffffffffffffffffffff021916908373ffffffffffffffffffffffffffffffffffffffff16021790555080600160006101000a81548173ffffffffffffffffffffffffffffffffffffffff021916908373ffffffffffffffffffffffffffffffffffffffff16021790555080600360006101000a81548173ffffffffffffffffffffffffffffffffffffffff021916908373ffffffffffffffffffffffffffffffffffffffff16021790555050508160049081620001389190620007f0565b5080600590816200014a9190620007f0565b5050506200016d62000161620001db60201b60201c565b620001e360201b60201c565b6200017d620002a960201b60201c565b6011819055508260108190555080600160006101000a81548173ffffffffffffffffffffffffffffffffffffffff021916908373ffffffffffffffffffffffffffffffffffffffff16021790555050505050505050505050620008d7565b600033905090565b6000600f60009054906101000a900473ffffffffffffffffffffffffffffffffffffffff16905081600f60006101000a81548173ffffffffffffffffffffffffffffffffffffffff021916908373ffffffffffffffffffffffffffffffffffffffff1602179055508173ffffffffffffffffffffffffffffffffffffffff168173ffffffffffffffffffffffffffffffffffffffff167f8be0079c531659141344cd1fd0a4f28419497f9722a3daafe3b4186f6b6457e060405160405180910390a35050565b6000600c80549050905090565b6000604051905090565b600080fd5b600080fd5b600080fd5b600080fd5b6000601f19601f8301169050919050565b7f4e487b7100000000000000000000000000000000000000000000000000000000600052604160045260246000fd5b6200031f82620002d4565b810181811067ffffffffffffffff82111715620003415762000340620002e5565b5b80604052505050565b600062000356620002b6565b905062000364828262000314565b919050565b600067ffffffffffffffff821115620003875762000386620002e5565b5b6200039282620002d4565b9050602081019050919050565b60005b83811015620003bf578082015181840152602081019050620003a2565b60008484015250505050565b6000620003e2620003dc8462000369565b6200034a565b905082815260208101848484011115620004015762000400620002cf565b5b6200040e8482856200039f565b509392505050565b600082601f8301126200042e576200042d620002ca565b5b815162000440848260208601620003cb565b91505092915050565b6000819050919050565b6200045e8162000449565b81146200046a57600080fd5b50565b6000815190506200047e8162000453565b92915050565b600073ffffffffffffffffffffffffffffffffffffffff82169050919050565b6000620004b18262000484565b9050919050565b620004c381620004a4565b8114620004cf57600080fd5b50565b600081519050620004e381620004b8565b92915050565b600080600080600060a08688031215620005085762000507620002c0565b5b600086015167ffffffffffffffff811115620005295762000528620002c5565b5b620005378882890162000416565b955050602086015167ffffffffffffffff8111156200055b576200055a620002c5565b5b620005698882890162000416565b94505060406200057c888289016200046d565b93505060606200058f88828901620004d2565b9250506080620005a288828901620004d2565b9150509295509295909350565b600081519050919050565b7f4e487b7100000000000000000000000000000000000000000000000000000000600052602260045260246000fd5b600060028204905060018216806200060257607f821691505b602082108103620006185762000617620005ba565b5b50919050565b60008190508160005260206000209050919050565b60006020601f8301049050919050565b600082821b905092915050565b600060088302620006827fffffffffffffffffffffffffffffffffffffffffffffffffffffffffffffffff8262000643565b6200068e868362000643565b95508019841693508086168417925050509392505050565b6000819050919050565b6000620006d1620006cb620006c58462000449565b620006a6565b62000449565b9050919050565b6000819050919050565b620006ed83620006b0565b62000705620006fc82620006d8565b84845462000650565b825550505050565b600090565b6200071c6200070d565b62000729818484620006e2565b505050565b5b8181101562000751576200074560008262000712565b6001810190506200072f565b5050565b601f821115620007a0576200076a816200061e565b620007758462000633565b8101602085101562000785578190505b6200079d620007948562000633565b8301826200072e565b50505b505050565b600082821c905092915050565b6000620007c560001984600802620007a5565b1980831691505092915050565b6000620007e08383620007b2565b9150826002028217905092915050565b620007fb82620005af565b67ffffffffffffffff811115620008175762000816620002e5565b5b620008238254620005e9565b6200083082828562000755565b600060209050601f83116001811462000868576000841562000853578287015190505b6200085f8582620007d2565b865550620008cf565b601f19841662000878866200061e565b60005b82811015620008a2578489015182556001820191506020850194506020810190506200087b565b86831015620008c25784890151620008be601f891682620007b2565b8355505b6001600288020188555050505b505050505050565b6153c580620008e76000396000f3fe6080604052600436106101ee5760003560e01c806371ebbef41161010d578063a22cb465116100a0578063e3501cb11161006f578063e3501cb1146106c8578063e985e9c5146106f1578063eb8d24441461072e578063f23c958314610759578063f2fde38b14610775576101ee565b8063a22cb4651461060e578063b88d4fde14610637578063b8a9736d14610660578063c87b56dd1461068b576101ee565b80639202c1ec116100dc5780639202c1ec1461057557806395d89b411461059e57806395f04d05146105c9578063a0e12efe146105e5576101ee565b806371ebbef4146104cb5780637a3a4a61146104f6578063841e4561146105215780638da5cb5b1461054a576101ee565b80632f745c59116101855780634f6ccce7116101545780634f6ccce7146103fd5780636352211e1461043a57806370a0823114610477578063715018a6146104b4576101ee565b80632f745c591461036957806334918dfd146103a65780633ccfd60b146103bd57806342842e0e146103d4576101ee565b8063095ea7b3116101c1578063095ea7b3146102c357806318160ddd146102ec5780632017c7c11461031757806323b872dd14610340576101ee565b806301ffc9a7146101f357806306fdde031461023057806307604b1a1461025b578063081812fc14610286575b600080fd5b3480156101ff57600080fd5b5061021a600480360381019061021591906132e6565b61079e565b604051610227919061332e565b60405180910390f35b34801561023c57600080fd5b506102456107b0565b60405161025291906133d9565b60405180910390f35b34801561026757600080fd5b50610270610842565b60405161027d919061343c565b60405180910390f35b34801561029257600080fd5b506102ad60048036038101906102a8919061348d565b610868565b6040516102ba919061343c565b60405180910390f35b3480156102cf57600080fd5b506102ea60048036038101906102e591906134e6565b6108ed565b005b3480156102f857600080fd5b50610301610a04565b60405161030e9190613535565b60405180910390f35b34801561032357600080fd5b5061033e6004803603810190610339919061375c565b610a11565b005b34801561034c57600080fd5b5061036760048036038101906103629190613821565b610b2d565b005b34801561037557600080fd5b50610390600480360381019061038b91906134e6565b610b8d565b60405161039d9190613535565b60405180910390f35b3480156103b257600080fd5b506103bb610c32565b005b3480156103c957600080fd5b506103d2610cda565b005b3480156103e057600080fd5b506103fb60048036038101906103f69190613821565b610de8565b005b34801561040957600080fd5b50610424600480360381019061041f919061348d565b610e08565b6040516104319190613535565b60405180910390f35b34801561044657600080fd5b50610461600480360381019061045c919061348d565b610e79565b60405161046e919061343c565b60405180910390f35b34801561048357600080fd5b5061049e60048036038101906104999190613874565b610f2a565b6040516104ab9190613535565b60405180910390f35b3480156104c057600080fd5b506104c9610fe1565b005b3480156104d757600080fd5b506104e0611069565b6040516104ed9190613535565b60405180910390f35b34801561050257600080fd5b5061050b61106f565b6040516105189190613535565b60405180910390f35b34801561052d57600080fd5b5061054860048036038101906105439190613874565b611075565b005b34801561055657600080fd5b5061055f611147565b60405161056c919061343c565b60405180910390f35b34801561058157600080fd5b5061059c600480360381019061059791906138a1565b611171565b005b3480156105aa57600080fd5b506105b3611181565b6040516105c091906133d9565b60405180910390f35b6105e360048036038101906105de919061392c565b611213565b005b3480156105f157600080fd5b5061060c60048036038101906106079190613975565b61138a565b005b34801561061a57600080fd5b5061063560048036038101906106309190613a19565b6113b0565b005b34801561064357600080fd5b5061065e60048036038101906106599190613a59565b6113c6565b005b34801561066c57600080fd5b50610675611428565b6040516106829190613535565b60405180910390f35b34801561069757600080fd5b506106b260048036038101906106ad919061348d565b61142e565b6040516106bf91906133d9565b60405180910390f35b3480156106d457600080fd5b506106ef60048036038101906106ea9190613874565b611440565b005b3480156106fd57600080fd5b5061071860048036038101906107139190613adc565b611511565b604051610725919061332e565b60405180910390f35b34801561073a57600080fd5b506107436115a5565b604051610750919061332e565b60405180910390f35b610773600480360381019061076e9190613b1c565b6115b8565b005b34801561078157600080fd5b5061079c60048036038101906107979190613874565b61171a565b005b60006107a982611811565b9050919050565b6060600480546107bf90613bea565b80601f01602080910402602001604051908101604052809291908181526020018280546107eb90613bea565b80156108385780601f1061080d57610100808354040283529160200191610838565b820191906000526020600020905b81548152906001019060200180831161081b57829003601f168201915b5050505050905090565b600160009054906101000a900473ffffffffffffffffffffffffffffffffffffffff1681565b60006108738261188b565b6108b2576040517f08c379a00000000000000000000000000000000000000000000000000000000081526004016108a990613c8d565b60405180910390fd5b6008600083815260200190815260200160002060009054906101000a900473ffffffffffffffffffffffffffffffffffffffff169050919050565b60006108f882610e79565b90508073ffffffffffffffffffffffffffffffffffffffff168373ffffffffffffffffffffffffffffffffffffffff1603610968576040517f08c379a000000000000000000000000000000000000000000000000000000000815260040161095f90613d1f565b60405180910390fd5b8073ffffffffffffffffffffffffffffffffffffffff166109876118f7565b73ffffffffffffffffffffffffffffffffffffffff1614806109b657506109b5816109b06118f7565b611511565b5b6109f5576040517f08c379a00000000000000000000000000000000000000000000000000000000081526004016109ec90613db1565b60405180910390fd5b6109ff83836118ff565b505050565b6000600c80549050905090565b610a1a86610e79565b73ffffffffffffffffffffffffffffffffffffffff163373ffffffffffffffffffffffffffffffffffffffff1614610a87576040517f08c379a0000000000000000000000000000000000000000000000000000000008152600401610a7e90613e1d565b60405180910390fd5b600360009054906101000a900473ffffffffffffffffffffffffffffffffffffffff1673ffffffffffffffffffffffffffffffffffffffff166303f5de9d878684896040518563ffffffff1660e01b8152600401610ae89493929190613e4c565b600060405180830381600087803b158015610b0257600080fd5b505af1158015610b16573d6000803e3d6000fd5b50505050610b258684846119b8565b505050505050565b610b3e610b386118f7565b82611a8c565b610b7d576040517f08c379a0000000000000000000000000000000000000000000000000000000008152600401610b7490613f03565b60405180910390fd5b610b88838383611b6a565b505050565b6000610b9883610f2a565b8210610bd9576040517f08c379a0000000000000000000000000000000000000000000000000000000008152600401610bd090613f95565b60405180910390fd5b600a60008473ffffffffffffffffffffffffffffffffffffffff1673ffffffffffffffffffffffffffffffffffffffff168152602001908152602001600020600083815260200190815260200160002054905092915050565b610c3a6118f7565b73ffffffffffffffffffffffffffffffffffffffff16610c58611147565b73ffffffffffffffffffffffffffffffffffffffff1614610cae576040517f08c379a0000000000000000000000000000000000000000000000000000000008152600401610ca590614001565b60405180910390fd5b601260009054906101000a900460ff1615601260006101000a81548160ff021916908315150217905550565b610ce26118f7565b73ffffffffffffffffffffffffffffffffffffffff16610d00611147565b73ffffffffffffffffffffffffffffffffffffffff1614610d56576040517f08c379a0000000000000000000000000000000000000000000000000000000008152600401610d4d90614001565b60405180910390fd5b600047905060004711610d9e576040517f08c379a0000000000000000000000000000000000000000000000000000000008152600401610d959061406d565b60405180910390fd5b3373ffffffffffffffffffffffffffffffffffffffff166108fc829081150290604051600060405180830381858888f19350505050158015610de4573d6000803e3d6000fd5b5050565b610e03838383604051806020016040528060008152506113c6565b505050565b6000610e12610a04565b8210610e53576040517f08c379a0000000000000000000000000000000000000000000000000000000008152600401610e4a906140ff565b60405180910390fd5b600c8281548110610e6757610e6661411f565b5b90600052602060002001549050919050565b6000806006600084815260200190815260200160002060009054906101000a900473ffffffffffffffffffffffffffffffffffffffff169050600073ffffffffffffffffffffffffffffffffffffffff168173ffffffffffffffffffffffffffffffffffffffff1603610f21576040517f08c379a0000000000000000000000000000000000000000000000000000000008152600401610f18906141c0565b60405180910390fd5b80915050919050565b60008073ffffffffffffffffffffffffffffffffffffffff168273ffffffffffffffffffffffffffffffffffffffff1603610f9a576040517f08c379a0000000000000000000000000000000000000000000000000000000008152600401610f9190614252565b60405180910390fd5b600760008373ffffffffffffffffffffffffffffffffffffffff1673ffffffffffffffffffffffffffffffffffffffff168152602001908152602001600020549050919050565b610fe96118f7565b73ffffffffffffffffffffffffffffffffffffffff16611007611147565b73ffffffffffffffffffffffffffffffffffffffff161461105d576040517f08c379a000000000000000000000000000000000000000000000000000000000815260040161105490614001565b60405180910390fd5b6110676000611dd0565b565b60105481565b60115481565b60008054906101000a900473ffffffffffffffffffffffffffffffffffffffff1673ffffffffffffffffffffffffffffffffffffffff163373ffffffffffffffffffffffffffffffffffffffff1614611103576040517f08c379a00000000000000000000000000000000000000000000000000000000081526004016110fa906142be565b60405180910390fd5b80600160006101000a81548173ffffffffffffffffffffffffffffffffffffffff021916908373ffffffffffffffffffffffffffffffffffffffff16021790555050565b6000600f60009054906101000a900473ffffffffffffffffffffffffffffffffffffffff16905090565b61117c8383836119b8565b505050565b60606005805461119090613bea565b80601f01602080910402602001604051908101604052809291908181526020018280546111bc90613bea565b80156112095780601f106111de57610100808354040283529160200191611209565b820191906000526020600020905b8154815290600101906020018083116111ec57829003601f168201915b5050505050905090565b601260009054906101000a900460ff16611262576040517f08c379a00000000000000000000000000000000000000000000000000000000081526004016112599061432a565b60405180910390fd5b60105461126d610a04565b106112ad576040517f08c379a00000000000000000000000000000000000000000000000000000000081526004016112a490614396565b60405180910390fd5b6112e0600160009054906101000a900473ffffffffffffffffffffffffffffffffffffffff166112db610a04565b611e96565b6112f16112eb610a04565b82611eb4565b600360009054906101000a900473ffffffffffffffffffffffffffffffffffffffff1673ffffffffffffffffffffffffffffffffffffffff16631c85949c33611338610a04565b6040518363ffffffff1660e01b81526004016113559291906143b6565b600060405180830381600087803b15801561136f57600080fd5b505af1158015611383573d6000803e3d6000fd5b5050505050565b6000611394610a04565b90506113a03382611e96565b6113ab8184846119b8565b505050565b6113c26113bb6118f7565b8383611f21565b5050565b6113d76113d16118f7565b83611a8c565b611416576040517f08c379a000000000000000000000000000000000000000000000000000000000815260040161140d90613f03565b60405180910390fd5b6114228484848461208d565b50505050565b60025481565b6060611439826120e9565b9050919050565b60008054906101000a900473ffffffffffffffffffffffffffffffffffffffff1673ffffffffffffffffffffffffffffffffffffffff163373ffffffffffffffffffffffffffffffffffffffff16146114ce576040517f08c379a00000000000000000000000000000000000000000000000000000000081526004016114c5906142be565b60405180910390fd5b806000806101000a81548173ffffffffffffffffffffffffffffffffffffffff021916908373ffffffffffffffffffffffffffffffffffffffff16021790555050565b6000600960008473ffffffffffffffffffffffffffffffffffffffff1673ffffffffffffffffffffffffffffffffffffffff16815260200190815260200160002060008373ffffffffffffffffffffffffffffffffffffffff1673ffffffffffffffffffffffffffffffffffffffff16815260200190815260200160002060009054906101000a900460ff16905092915050565b601260009054906101000a900460ff1681565b6115c184610e79565b73ffffffffffffffffffffffffffffffffffffffff163373ffffffffffffffffffffffffffffffffffffffff161461162e576040517f08c379a000000000000000000000000000000000000000000000000000000000815260040161162590613e1d565b60405180910390fd5b601054611639610a04565b101561167a576040517f08c379a00000000000000000000000000000000000000000000000000000000081526004016116719061442b565b60405180910390fd5b600360009054906101000a900473ffffffffffffffffffffffffffffffffffffffff1673ffffffffffffffffffffffffffffffffffffffff1663fe774f9d85856040518363ffffffff1660e01b81526004016116d792919061444b565b600060405180830381600087803b1580156116f157600080fd5b505af1158015611705573d6000803e3d6000fd5b505050506117148483836119b8565b50505050565b6117226118f7565b73ffffffffffffffffffffffffffffffffffffffff16611740611147565b73ffffffffffffffffffffffffffffffffffffffff1614611796576040517f08c379a000000000000000000000000000000000000000000000000000000000815260040161178d90614001565b60405180910390fd5b600073ffffffffffffffffffffffffffffffffffffffff168173ffffffffffffffffffffffffffffffffffffffff1603611805576040517f08c379a00000000000000000000000000000000000000000000000000000000081526004016117fc906144e6565b60405180910390fd5b61180e81611dd0565b50565b60007f780e9d63000000000000000000000000000000000000000000000000000000007bffffffffffffffffffffffffffffffffffffffffffffffffffffffff1916827bffffffffffffffffffffffffffffffffffffffffffffffffffffffff1916148061188457506118838261223a565b5b9050919050565b60008073ffffffffffffffffffffffffffffffffffffffff166006600084815260200190815260200160002060009054906101000a900473ffffffffffffffffffffffffffffffffffffffff1673ffffffffffffffffffffffffffffffffffffffff1614159050919050565b600033905090565b816008600083815260200190815260200160002060006101000a81548173ffffffffffffffffffffffffffffffffffffffff021916908373ffffffffffffffffffffffffffffffffffffffff160217905550808273ffffffffffffffffffffffffffffffffffffffff1661197283610e79565b73ffffffffffffffffffffffffffffffffffffffff167f8c5be1e5ebec7d5bd14f71427d1e84f3dd0314c0f7b2291e5b200ac8c7c3b92560405160405180910390a45050565b6119c96119c36118f7565b84611a8c565b611a08576040517f08c379a00000000000000000000000000000000000000000000000000000000081526004016119ff90614552565b60405180910390fd5b600082604051602001611a1b91906145ae565b604051602081830303815290604052805190602001209050611a3d818361231c565b611a7c576040517f08c379a0000000000000000000000000000000000000000000000000000000008152600401611a7390614611565b60405180910390fd5b611a868484611eb4565b50505050565b6000611a978261188b565b611ad6576040517f08c379a0000000000000000000000000000000000000000000000000000000008152600401611acd906146a3565b60405180910390fd5b6000611ae183610e79565b90508073ffffffffffffffffffffffffffffffffffffffff168473ffffffffffffffffffffffffffffffffffffffff161480611b235750611b228185611511565b5b80611b6157508373ffffffffffffffffffffffffffffffffffffffff16611b4984610868565b73ffffffffffffffffffffffffffffffffffffffff16145b91505092915050565b8273ffffffffffffffffffffffffffffffffffffffff16611b8a82610e79565b73ffffffffffffffffffffffffffffffffffffffff1614611be0576040517f08c379a0000000000000000000000000000000000000000000000000000000008152600401611bd790614735565b60405180910390fd5b600073ffffffffffffffffffffffffffffffffffffffff168273ffffffffffffffffffffffffffffffffffffffff1603611c4f576040517f08c379a0000000000000000000000000000000000000000000000000000000008152600401611c46906147c7565b60405180910390fd5b611c5a8383836123c0565b611c656000826118ff565b6001600760008573ffffffffffffffffffffffffffffffffffffffff1673ffffffffffffffffffffffffffffffffffffffff1681526020019081526020016000206000828254611cb59190614816565b925050819055506001600760008473ffffffffffffffffffffffffffffffffffffffff1673ffffffffffffffffffffffffffffffffffffffff1681526020019081526020016000206000828254611d0c919061484a565b92505081905550816006600083815260200190815260200160002060006101000a81548173ffffffffffffffffffffffffffffffffffffffff021916908373ffffffffffffffffffffffffffffffffffffffff160217905550808273ffffffffffffffffffffffffffffffffffffffff168473ffffffffffffffffffffffffffffffffffffffff167fddf252ad1be2c89b69c2b068fc378daa952ba7f163c4a11628f55a4df523b3ef60405160405180910390a4611dcb8383836123d0565b505050565b6000600f60009054906101000a900473ffffffffffffffffffffffffffffffffffffffff16905081600f60006101000a81548173ffffffffffffffffffffffffffffffffffffffff021916908373ffffffffffffffffffffffffffffffffffffffff1602179055508173ffffffffffffffffffffffffffffffffffffffff168173ffffffffffffffffffffffffffffffffffffffff167f8be0079c531659141344cd1fd0a4f28419497f9722a3daafe3b4186f6b6457e060405160405180910390a35050565b611eb08282604051806020016040528060008152506123d5565b5050565b611ebd8261188b565b611efc576040517f08c379a0000000000000000000000000000000000000000000000000000000008152600401611ef3906148f0565b60405180910390fd5b80600e60008481526020019081526020016000209081611f1c9190614abc565b505050565b8173ffffffffffffffffffffffffffffffffffffffff168373ffffffffffffffffffffffffffffffffffffffff1603611f8f576040517f08c379a0000000000000000000000000000000000000000000000000000000008152600401611f8690614bda565b60405180910390fd5b80600960008573ffffffffffffffffffffffffffffffffffffffff1673ffffffffffffffffffffffffffffffffffffffff16815260200190815260200160002060008473ffffffffffffffffffffffffffffffffffffffff1673ffffffffffffffffffffffffffffffffffffffff16815260200190815260200160002060006101000a81548160ff0219169083151502179055508173ffffffffffffffffffffffffffffffffffffffff168373ffffffffffffffffffffffffffffffffffffffff167f17307eab39ab6107e8899845ad3d59bd9653f200f220920489ca2b5937696c3183604051612080919061332e565b60405180910390a3505050565b612098848484611b6a565b6120a484848484612430565b6120e3576040517f08c379a00000000000000000000000000000000000000000000000000000000081526004016120da90614c6c565b60405180910390fd5b50505050565b60606120f48261188b565b612133576040517f08c379a000000000000000000000000000000000000000000000000000000000815260040161212a90614cfe565b60405180910390fd5b6000600e6000848152602001908152602001600020805461215390613bea565b80601f016020809104026020016040519081016040528092919081815260200182805461217f90613bea565b80156121cc5780601f106121a1576101008083540402835291602001916121cc565b820191906000526020600020905b8154815290600101906020018083116121af57829003601f168201915b5050505050905060006121dd6125b7565b905060008151036121f2578192505050612235565b60008251111561222757808260405160200161220f929190614d1e565b60405160208183030381529060405292505050612235565b612230846125f4565b925050505b919050565b60007f80ac58cd000000000000000000000000000000000000000000000000000000007bffffffffffffffffffffffffffffffffffffffffffffffffffffffff1916827bffffffffffffffffffffffffffffffffffffffffffffffffffffffff1916148061230557507f5b5e139f000000000000000000000000000000000000000000000000000000007bffffffffffffffffffffffffffffffffffffffffffffffffffffffff1916827bffffffffffffffffffffffffffffffffffffffffffffffffffffffff1916145b8061231557506123148261269b565b5b9050919050565b60008060009054906101000a900473ffffffffffffffffffffffffffffffffffffffff1673ffffffffffffffffffffffffffffffffffffffff166123608484612705565b73ffffffffffffffffffffffffffffffffffffffff16146123b6576040517f08c379a00000000000000000000000000000000000000000000000000000000081526004016123ad90614d8e565b60405180910390fd5b6001905092915050565b6123cb838383612722565b505050565b505050565b6123df8383612834565b6123ec6000848484612430565b61242b576040517f08c379a000000000000000000000000000000000000000000000000000000000815260040161242290614c6c565b60405180910390fd5b505050565b60006124518473ffffffffffffffffffffffffffffffffffffffff16612a0d565b156125aa578373ffffffffffffffffffffffffffffffffffffffff1663150b7a0261247a6118f7565b8786866040518563ffffffff1660e01b815260040161249c9493929190614e03565b6020604051808303816000875af19250505080156124d857506040513d601f19601f820116820180604052508101906124d59190614e64565b60015b61255a573d8060008114612508576040519150601f19603f3d011682016040523d82523d6000602084013e61250d565b606091505b506000815103612552576040517f08c379a000000000000000000000000000000000000000000000000000000000815260040161254990614c6c565b60405180910390fd5b805181602001fd5b63150b7a0260e01b7bffffffffffffffffffffffffffffffffffffffffffffffffffffffff1916817bffffffffffffffffffffffffffffffffffffffffffffffffffffffff1916149150506125af565b600190505b949350505050565b60606040518060400160405280601581526020017f68747470733a2f2f697066732e696f2f697066732f0000000000000000000000815250905090565b60606125ff8261188b565b61263e576040517f08c379a000000000000000000000000000000000000000000000000000000000815260040161263590614f03565b60405180910390fd5b60006126486125b7565b905060008151116126685760405180602001604052806000815250612693565b8061267284612a30565b604051602001612683929190614d1e565b6040516020818303038152906040525b915050919050565b60007f01ffc9a7000000000000000000000000000000000000000000000000000000007bffffffffffffffffffffffffffffffffffffffffffffffffffffffff1916827bffffffffffffffffffffffffffffffffffffffffffffffffffffffff1916149050919050565b600061271a8284612b9090919063ffffffff16565b905092915050565b61272d838383612bb7565b600073ffffffffffffffffffffffffffffffffffffffff168373ffffffffffffffffffffffffffffffffffffffff160361276f5761276a81612bbc565b6127ae565b8173ffffffffffffffffffffffffffffffffffffffff168373ffffffffffffffffffffffffffffffffffffffff16146127ad576127ac8382612c05565b5b5b600073ffffffffffffffffffffffffffffffffffffffff168273ffffffffffffffffffffffffffffffffffffffff16036127f0576127eb81612d72565b61282f565b8273ffffffffffffffffffffffffffffffffffffffff168273ffffffffffffffffffffffffffffffffffffffff161461282e5761282d8282612e43565b5b5b505050565b600073ffffffffffffffffffffffffffffffffffffffff168273ffffffffffffffffffffffffffffffffffffffff16036128a3576040517f08c379a000000000000000000000000000000000000000000000000000000000815260040161289a90614f6f565b60405180910390fd5b6128ac8161188b565b156128ec576040517f08c379a00000000000000000000000000000000000000000000000000000000081526004016128e390614fdb565b60405180910390fd5b6128f8600083836123c0565b6001600760008473ffffffffffffffffffffffffffffffffffffffff1673ffffffffffffffffffffffffffffffffffffffff1681526020019081526020016000206000828254612948919061484a565b92505081905550816006600083815260200190815260200160002060006101000a81548173ffffffffffffffffffffffffffffffffffffffff021916908373ffffffffffffffffffffffffffffffffffffffff160217905550808273ffffffffffffffffffffffffffffffffffffffff16600073ffffffffffffffffffffffffffffffffffffffff167fddf252ad1be2c89b69c2b068fc378daa952ba7f163c4a11628f55a4df523b3ef60405160405180910390a4612a09600083836123d0565b5050565b6000808273ffffffffffffffffffffffffffffffffffffffff163b119050919050565b606060008203612a77576040518060400160405280600181526020017f30000000000000000000000000000000000000000000000000000000000000008152509050612b8b565b600082905060005b60008214612aa9578080612a9290614ffb565b915050600a82612aa29190615072565b9150612a7f565b60008167ffffffffffffffff811115612ac557612ac4613590565b5b6040519080825280601f01601f191660200182016040528015612af75781602001600182028036833780820191505090505b5090505b60008514612b8457600182612b109190614816565b9150600a85612b1f91906150a3565b6030612b2b919061484a565b60f81b818381518110612b4157612b4061411f565b5b60200101907effffffffffffffffffffffffffffffffffffffffffffffffffffffffffffff1916908160001a905350600a85612b7d9190615072565b9450612afb565b8093505050505b919050565b6000806000612b9f8585612ec2565b91509150612bac81612f43565b819250505092915050565b505050565b600c80549050600d600083815260200190815260200160002081905550600c81908060018154018082558091505060019003906000526020600020016000909190919091505550565b60006001612c1284610f2a565b612c1c9190614816565b90506000600b6000848152602001908152602001600020549050818114612d01576000600a60008673ffffffffffffffffffffffffffffffffffffffff1673ffffffffffffffffffffffffffffffffffffffff168152602001908152602001600020600084815260200190815260200160002054905080600a60008773ffffffffffffffffffffffffffffffffffffffff1673ffffffffffffffffffffffffffffffffffffffff16815260200190815260200160002060008481526020019081526020016000208190555081600b600083815260200190815260200160002081905550505b600b600084815260200190815260200160002060009055600a60008573ffffffffffffffffffffffffffffffffffffffff1673ffffffffffffffffffffffffffffffffffffffff16815260200190815260200160002060008381526020019081526020016000206000905550505050565b60006001600c80549050612d869190614816565b90506000600d60008481526020019081526020016000205490506000600c8381548110612db657612db561411f565b5b9060005260206000200154905080600c8381548110612dd857612dd761411f565b5b906000526020600020018190555081600d600083815260200190815260200160002081905550600d600085815260200190815260200160002060009055600c805480612e2757612e266150d4565b5b6001900381819060005260206000200160009055905550505050565b6000612e4e83610f2a565b905081600a60008573ffffffffffffffffffffffffffffffffffffffff1673ffffffffffffffffffffffffffffffffffffffff16815260200190815260200160002060008381526020019081526020016000208190555080600b600084815260200190815260200160002081905550505050565b6000806041835103612f035760008060006020860151925060408601519150606086015160001a9050612ef78782858561310f565b94509450505050612f3c565b6040835103612f33576000806020850151915060408501519050612f2886838361321b565b935093505050612f3c565b60006002915091505b9250929050565b60006004811115612f5757612f56615103565b5b816004811115612f6a57612f69615103565b5b031561310c5760016004811115612f8457612f83615103565b5b816004811115612f9757612f96615103565b5b03612fd7576040517f08c379a0000000000000000000000000000000000000000000000000000000008152600401612fce9061517e565b60405180910390fd5b60026004811115612feb57612fea615103565b5b816004811115612ffe57612ffd615103565b5b0361303e576040517f08c379a0000000000000000000000000000000000000000000000000000000008152600401613035906151ea565b60405180910390fd5b6003600481111561305257613051615103565b5b81600481111561306557613064615103565b5b036130a5576040517f08c379a000000000000000000000000000000000000000000000000000000000815260040161309c9061527c565b60405180910390fd5b6004808111156130b8576130b7615103565b5b8160048111156130cb576130ca615103565b5b0361310b576040517f08c379a00000000000000000000000000000000000000000000000000000000081526004016131029061530e565b60405180910390fd5b5b50565b6000807f7fffffffffffffffffffffffffffffff5d576e7357a4501ddfe92f46681b20a08360001c111561314a576000600391509150613212565b601b8560ff16141580156131625750601c8560ff1614155b15613174576000600491509150613212565b600060018787878760405160008152602001604052604051613199949392919061534a565b6020604051602081039080840390855afa1580156131bb573d6000803e3d6000fd5b505050602060405103519050600073ffffffffffffffffffffffffffffffffffffffff168173ffffffffffffffffffffffffffffffffffffffff160361320957600060019250925050613212565b80600092509250505b94509492505050565b60008060007f7fffffffffffffffffffffffffffffffffffffffffffffffffffffffffffffff60001b841690506000601b60ff8660001c901c61325e919061484a565b905061326c8782888561310f565b935093505050935093915050565b6000604051905090565b600080fd5b600080fd5b60007fffffffff0000000000000000000000000000000000000000000000000000000082169050919050565b6132c38161328e565b81146132ce57600080fd5b50565b6000813590506132e0816132ba565b92915050565b6000602082840312156132fc576132fb613284565b5b600061330a848285016132d1565b91505092915050565b60008115159050919050565b61332881613313565b82525050565b6000602082019050613343600083018461331f565b92915050565b600081519050919050565b600082825260208201905092915050565b60005b83811015613383578082015181840152602081019050613368565b60008484015250505050565b6000601f19601f8301169050919050565b60006133ab82613349565b6133b58185613354565b93506133c5818560208601613365565b6133ce8161338f565b840191505092915050565b600060208201905081810360008301526133f381846133a0565b905092915050565b600073ffffffffffffffffffffffffffffffffffffffff82169050919050565b6000613426826133fb565b9050919050565b6134368161341b565b82525050565b6000602082019050613451600083018461342d565b92915050565b6000819050919050565b61346a81613457565b811461347557600080fd5b50565b60008135905061348781613461565b92915050565b6000602082840312156134a3576134a2613284565b5b60006134b184828501613478565b91505092915050565b6134c38161341b565b81146134ce57600080fd5b50565b6000813590506134e0816134ba565b92915050565b600080604083850312156134fd576134fc613284565b5b600061350b858286016134d1565b925050602061351c85828601613478565b9150509250929050565b61352f81613457565b82525050565b600060208201905061354a6000830184613526565b92915050565b6000819050919050565b61356381613550565b811461356e57600080fd5b50565b6000813590506135808161355a565b92915050565b600080fd5b600080fd5b7f4e487b7100000000000000000000000000000000000000000000000000000000600052604160045260246000fd5b6135c88261338f565b810181811067ffffffffffffffff821117156135e7576135e6613590565b5b80604052505050565b60006135fa61327a565b905061360682826135bf565b919050565b600067ffffffffffffffff82111561362657613625613590565b5b61362f8261338f565b9050602081019050919050565b82818337600083830152505050565b600061365e6136598461360b565b6135f0565b90508281526020810184848401111561367a5761367961358b565b5b61368584828561363c565b509392505050565b600082601f8301126136a2576136a1613586565b5b81356136b284826020860161364b565b91505092915050565b600067ffffffffffffffff8211156136d6576136d5613590565b5b6136df8261338f565b9050602081019050919050565b60006136ff6136fa846136bb565b6135f0565b90508281526020810184848401111561371b5761371a61358b565b5b61372684828561363c565b509392505050565b600082601f83011261374357613742613586565b5b81356137538482602086016136ec565b91505092915050565b60008060008060008060c0878903121561377957613778613284565b5b600061378789828a01613478565b965050602061379889828a01613571565b95505060406137a989828a01613478565b945050606087013567ffffffffffffffff8111156137ca576137c9613289565b5b6137d689828a0161368d565b935050608087013567ffffffffffffffff8111156137f7576137f6613289565b5b61380389828a0161372e565b92505060a061381489828a01613478565b9150509295509295509295565b60008060006060848603121561383a57613839613284565b5b6000613848868287016134d1565b9350506020613859868287016134d1565b925050604061386a86828701613478565b9150509250925092565b60006020828403121561388a57613889613284565b5b6000613898848285016134d1565b91505092915050565b6000806000606084860312156138ba576138b9613284565b5b60006138c886828701613478565b935050602084013567ffffffffffffffff8111156138e9576138e8613289565b5b6138f58682870161368d565b925050604084013567ffffffffffffffff81111561391657613915613289565b5b6139228682870161372e565b9150509250925092565b60006020828403121561394257613941613284565b5b600082013567ffffffffffffffff8111156139605761395f613289565b5b61396c8482850161368d565b91505092915050565b6000806040838503121561398c5761398b613284565b5b600083013567ffffffffffffffff8111156139aa576139a9613289565b5b6139b68582860161368d565b925050602083013567ffffffffffffffff8111156139d7576139d6613289565b5b6139e38582860161372e565b9150509250929050565b6139f681613313565b8114613a0157600080fd5b50565b600081359050613a13816139ed565b92915050565b60008060408385031215613a3057613a2f613284565b5b6000613a3e858286016134d1565b9250506020613a4f85828601613a04565b9150509250929050565b60008060008060808587031215613a7357613a72613284565b5b6000613a81878288016134d1565b9450506020613a92878288016134d1565b9350506040613aa387828801613478565b925050606085013567ffffffffffffffff811115613ac457613ac3613289565b5b613ad08782880161372e565b91505092959194509250565b60008060408385031215613af357613af2613284565b5b6000613b01858286016134d1565b9250506020613b12858286016134d1565b9150509250929050565b60008060008060808587031215613b3657613b35613284565b5b6000613b4487828801613478565b9450506020613b5587828801613571565b935050604085013567ffffffffffffffff811115613b7657613b75613289565b5b613b828782880161368d565b925050606085013567ffffffffffffffff811115613ba357613ba2613289565b5b613baf8782880161372e565b91505092959194509250565b7f4e487b7100000000000000000000000000000000000000000000000000000000600052602260045260246000fd5b60006002820490506001821680613c0257607f821691505b602082108103613c1557613c14613bbb565b5b50919050565b7f4552433732313a20617070726f76656420717565727920666f72206e6f6e657860008201527f697374656e7420746f6b656e0000000000000000000000000000000000000000602082015250565b6000613c77602c83613354565b9150613c8282613c1b565b604082019050919050565b60006020820190508181036000830152613ca681613c6a565b9050919050565b7f4552433732313a20617070726f76616c20746f2063757272656e74206f776e6560008201527f7200000000000000000000000000000000000000000000000000000000000000602082015250565b6000613d09602183613354565b9150613d1482613cad565b604082019050919050565b60006020820190508181036000830152613d3881613cfc565b9050919050565b7f4552433732313a20617070726f76652063616c6c6572206973206e6f74206f7760008201527f6e6572206e6f7220617070726f76656420666f7220616c6c0000000000000000602082015250565b6000613d9b603883613354565b9150613da682613d3f565b604082019050919050565b60006020820190508181036000830152613dca81613d8e565b9050919050565b7f43616c6c6572206973206e6f74206f776e6572206f66206e7574000000000000600082015250565b6000613e07601a83613354565b9150613e1282613dd1565b602082019050919050565b60006020820190508181036000830152613e3681613dfa565b9050919050565b613e4681613550565b82525050565b6000608082019050613e616000830187613526565b613e6e6020830186613526565b613e7b6040830185613526565b613e886060830184613e3d565b95945050505050565b7f4552433732313a207472616e736665722063616c6c6572206973206e6f74206f60008201527f776e6572206e6f7220617070726f766564000000000000000000000000000000602082015250565b6000613eed603183613354565b9150613ef882613e91565b604082019050919050565b60006020820190508181036000830152613f1c81613ee0565b9050919050565b7f455243373231456e756d657261626c653a206f776e657220696e646578206f7560008201527f74206f6620626f756e6473000000000000000000000000000000000000000000602082015250565b6000613f7f602b83613354565b9150613f8a82613f23565b604082019050919050565b60006020820190508181036000830152613fae81613f72565b9050919050565b7f4f776e61626c653a2063616c6c6572206973206e6f7420746865206f776e6572600082015250565b6000613feb602083613354565b9150613ff682613fb5565b602082019050919050565b6000602082019050818103600083015261401a81613fde565b9050919050565b7f4e6f2062616c616e636520746f20776974686472617700000000000000000000600082015250565b6000614057601683613354565b915061406282614021565b602082019050919050565b600060208201905081810360008301526140868161404a565b9050919050565b7f455243373231456e756d657261626c653a20676c6f62616c20696e646578206f60008201527f7574206f6620626f756e64730000000000000000000000000000000000000000602082015250565b60006140e9602c83613354565b91506140f48261408d565b604082019050919050565b60006020820190508181036000830152614118816140dc565b9050919050565b7f4e487b7100000000000000000000000000000000000000000000000000000000600052603260045260246000fd5b7f4552433732313a206f776e657220717565727920666f72206e6f6e657869737460008201527f656e7420746f6b656e0000000000000000000000000000000000000000000000602082015250565b60006141aa602983613354565b91506141b58261414e565b604082019050919050565b600060208201905081810360008301526141d98161419d565b9050919050565b7f4552433732313a2062616c616e636520717565727920666f7220746865207a6560008201527f726f206164647265737300000000000000000000000000000000000000000000602082015250565b600061423c602a83613354565b9150614247826141e0565b604082019050919050565b6000602082019050818103600083015261426b8161422f565b9050919050565b7f43616c6c6572206973206e6f742073797374656d000000000000000000000000600082015250565b60006142a8601483613354565b91506142b382614272565b602082019050919050565b600060208201905081810360008301526142d78161429b565b9050919050565b7f53616c65206d7573742062652061637469766500000000000000000000000000600082015250565b6000614314601383613354565b915061431f826142de565b602082019050919050565b6000602082019050818103600083015261434381614307565b9050919050565b7f45786365656420696e697469616c20737570706c79206f66206e757473000000600082015250565b6000614380601d83613354565b915061438b8261434a565b602082019050919050565b600060208201905081810360008301526143af81614373565b9050919050565b60006040820190506143cb600083018561342d565b6143d86020830184613526565b9392505050565b7f4e757473207374696c6c2065786973742066726f6d206372656174696f6e0000600082015250565b6000614415601e83613354565b9150614420826143df565b602082019050919050565b6000602082019050818103600083015261444481614408565b9050919050565b60006040820190506144606000830185613526565b61446d6020830184613e3d565b9392505050565b7f4f776e61626c653a206e6577206f776e657220697320746865207a65726f206160008201527f6464726573730000000000000000000000000000000000000000000000000000602082015250565b60006144d0602683613354565b91506144db82614474565b604082019050919050565b600060208201905081810360008301526144ff816144c3565b9050919050565b7f43616c6c6572206973206e6f74206f776e6572206e6f7220617070726f766564600082015250565b600061453c602083613354565b915061454782614506565b602082019050919050565b6000602082019050818103600083015261456b8161452f565b9050919050565b600081905092915050565b600061458882613349565b6145928185614572565b93506145a2818560208601613365565b80840191505092915050565b60006145ba828461457d565b915081905092915050565b7f4461746120646f6573206e6f74206d61746368207369676e6174757265000000600082015250565b60006145fb601d83613354565b9150614606826145c5565b602082019050919050565b6000602082019050818103600083015261462a816145ee565b9050919050565b7f4552433732313a206f70657261746f7220717565727920666f72206e6f6e657860008201527f697374656e7420746f6b656e0000000000000000000000000000000000000000602082015250565b600061468d602c83613354565b915061469882614631565b604082019050919050565b600060208201905081810360008301526146bc81614680565b9050919050565b7f4552433732313a207472616e736665722066726f6d20696e636f72726563742060008201527f6f776e6572000000000000000000000000000000000000000000000000000000602082015250565b600061471f602583613354565b915061472a826146c3565b604082019050919050565b6000602082019050818103600083015261474e81614712565b9050919050565b7f4552433732313a207472616e7366657220746f20746865207a65726f2061646460008201527f7265737300000000000000000000000000000000000000000000000000000000602082015250565b60006147b1602483613354565b91506147bc82614755565b604082019050919050565b600060208201905081810360008301526147e0816147a4565b9050919050565b7f4e487b7100000000000000000000000000000000000000000000000000000000600052601160045260246000fd5b600061482182613457565b915061482c83613457565b9250828203905081811115614844576148436147e7565b5b92915050565b600061485582613457565b915061486083613457565b9250828201905080821115614878576148776147e7565b5b92915050565b7f45524337323155524953746f726167653a2055524920736574206f66206e6f6e60008201527f6578697374656e7420746f6b656e000000000000000000000000000000000000602082015250565b60006148da602e83613354565b91506148e58261487e565b604082019050919050565b60006020820190508181036000830152614909816148cd565b9050919050565b60008190508160005260206000209050919050565b60006020601f8301049050919050565b600082821b905092915050565b6000600883026149727fffffffffffffffffffffffffffffffffffffffffffffffffffffffffffffffff82614935565b61497c8683614935565b95508019841693508086168417925050509392505050565b6000819050919050565b60006149b96149b46149af84613457565b614994565b613457565b9050919050565b6000819050919050565b6149d38361499e565b6149e76149df826149c0565b848454614942565b825550505050565b600090565b6149fc6149ef565b614a078184846149ca565b505050565b5b81811015614a2b57614a206000826149f4565b600181019050614a0d565b5050565b601f821115614a7057614a4181614910565b614a4a84614925565b81016020851015614a59578190505b614a6d614a6585614925565b830182614a0c565b50505b505050565b600082821c905092915050565b6000614a9360001984600802614a75565b1980831691505092915050565b6000614aac8383614a82565b9150826002028217905092915050565b614ac582613349565b67ffffffffffffffff811115614ade57614add613590565b5b614ae88254613bea565b614af3828285614a2f565b600060209050601f831160018114614b265760008415614b14578287015190505b614b1e8582614aa0565b865550614b86565b601f198416614b3486614910565b60005b82811015614b5c57848901518255600182019150602085019450602081019050614b37565b86831015614b795784890151614b75601f891682614a82565b8355505b6001600288020188555050505b505050505050565b7f4552433732313a20617070726f766520746f2063616c6c657200000000000000600082015250565b6000614bc4601983613354565b9150614bcf82614b8e565b602082019050919050565b60006020820190508181036000830152614bf381614bb7565b9050919050565b7f4552433732313a207472616e7366657220746f206e6f6e20455243373231526560008201527f63656976657220696d706c656d656e7465720000000000000000000000000000602082015250565b6000614c56603283613354565b9150614c6182614bfa565b604082019050919050565b60006020820190508181036000830152614c8581614c49565b9050919050565b7f45524337323155524953746f726167653a2055524920717565727920666f722060008201527f6e6f6e6578697374656e7420746f6b656e000000000000000000000000000000602082015250565b6000614ce8603183613354565b9150614cf382614c8c565b604082019050919050565b60006020820190508181036000830152614d1781614cdb565b9050919050565b6000614d2a828561457d565b9150614d36828461457d565b91508190509392505050565b7f496e76616c6964207369676e6174757265000000000000000000000000000000600082015250565b6000614d78601183613354565b9150614d8382614d42565b602082019050919050565b60006020820190508181036000830152614da781614d6b565b9050919050565b600081519050919050565b600082825260208201905092915050565b6000614dd582614dae565b614ddf8185614db9565b9350614def818560208601613365565b614df88161338f565b840191505092915050565b6000608082019050614e18600083018761342d565b614e25602083018661342d565b614e326040830185613526565b8181036060830152614e448184614dca565b905095945050505050565b600081519050614e5e816132ba565b92915050565b600060208284031215614e7a57614e79613284565b5b6000614e8884828501614e4f565b91505092915050565b7f4552433732314d657461646174613a2055524920717565727920666f72206e6f60008201527f6e6578697374656e7420746f6b656e0000000000000000000000000000000000602082015250565b6000614eed602f83613354565b9150614ef882614e91565b604082019050919050565b60006020820190508181036000830152614f1c81614ee0565b9050919050565b7f4552433732313a206d696e7420746f20746865207a65726f2061646472657373600082015250565b6000614f59602083613354565b9150614f6482614f23565b602082019050919050565b60006020820190508181036000830152614f8881614f4c565b9050919050565b7f4552433732313a20746f6b656e20616c7265616479206d696e74656400000000600082015250565b6000614fc5601c83613354565b9150614fd082614f8f565b602082019050919050565b60006020820190508181036000830152614ff481614fb8565b9050919050565b600061500682613457565b91507fffffffffffffffffffffffffffffffffffffffffffffffffffffffffffffffff8203615038576150376147e7565b5b600182019050919050565b7f4e487b7100000000000000000000000000000000000000000000000000000000600052601260045260246000fd5b600061507d82613457565b915061508883613457565b92508261509857615097615043565b5b828204905092915050565b60006150ae82613457565b91506150b983613457565b9250826150c9576150c8615043565b5b828206905092915050565b7f4e487b7100000000000000000000000000000000000000000000000000000000600052603160045260246000fd5b7f4e487b7100000000000000000000000000000000000000000000000000000000600052602160045260246000fd5b7f45434453413a20696e76616c6964207369676e61747572650000000000000000600082015250565b6000615168601883613354565b915061517382615132565b602082019050919050565b600060208201905081810360008301526151978161515b565b9050919050565b7f45434453413a20696e76616c6964207369676e6174757265206c656e67746800600082015250565b60006151d4601f83613354565b91506151df8261519e565b602082019050919050565b60006020820190508181036000830152615203816151c7565b9050919050565b7f45434453413a20696e76616c6964207369676e6174757265202773272076616c60008201527f7565000000000000000000000000000000000000000000000000000000000000602082015250565b6000615266602283613354565b91506152718261520a565b604082019050919050565b6000602082019050818103600083015261529581615259565b9050919050565b7f45434453413a20696e76616c6964207369676e6174757265202776272076616c60008201527f7565000000000000000000000000000000000000000000000000000000000000602082015250565b60006152f8602283613354565b91506153038261529c565b604082019050919050565b60006020820190508181036000830152615327816152eb565b9050919050565b600060ff82169050919050565b6153448161532e565b82525050565b600060808201905061535f6000830187613e3d565b61536c602083018661533b565b6153796040830185613e3d565b6153866060830184613e3d565b9594505050505056fea264697066735822122042ed545887dcc0541742475f3608510bf99ac5f56fdcbf71cb6c64a88a0199c764736f6c63430008110033",
  "immutableReferences": {},
  "source": "// SPDX-License-Identifier: MIT\npragma solidity ^0.8.7;\n\nimport \"./CosmoNuts.sol\";\nimport \"./CosmoTreasury.sol\";\n\ncontract CosmoBang {\n\n    address public COSMO_ADDRESS;\n    address public TREASURY_ADDRESS;\n\n    CosmoNuts cosmonuts;\n    CosmoTreasury treasury;\n\n    constructor(\n        address _systemAddress,\n        address _matterAddress,\n        string memory _cosmosName,\n        string memory _cosmosSymbol,\n        uint256 _desiredEntities,\n        uint256 _matterRate\n    ) {\n        treasury = new CosmoTreasury(_matterAddress, _matterRate);\n        cosmonuts = new CosmoNuts(_cosmosName, _cosmosSymbol, _desiredEntities, _systemAddress, address(treasury));\n        TREASURY_ADDRESS = address(treasury);\n        COSMO_ADDRESS = address(cosmonuts);\n    }\n\n}\n",
  "sourcePath": "/home/redlentils/Seafile/Websites/avatarnft/contracts/CosmoBang.sol",
  "compiler": {
    "name": "solc",
    "version": "0.8.17+commit.8df45f5f.Emscripten.clang"
  },
  "schemaVersion": "3.4.10",
  "updatedAt": "2022-10-04T18:24:40.564Z",
  "devdoc": {
    "kind": "dev",
    "methods": {},
    "version": 1
  },
  "userdoc": {
    "kind": "user",
    "methods": {},
    "version": 1
  }
}