{
  "contractName": "CosmoTreasury",
  "abi": [
    {
      "inputs": [],
      "name": "addressOf",
      "outputs": [
        {
          "internalType": "address",
          "name": "system",
          "type": "address"
        },
        {
          "internalType": "address",
          "name": "matter",
          "type": "address"
        },
        {
          "internalType": "address",
          "name": "treasury",
          "type": "address"
        },
        {
          "internalType": "address",
          "name": "cosmos",
          "type": "address"
        },
        {
          "internalType": "address",
          "name": "seedImplementation",
          "type": "address"
        },
        {
          "internalType": "address",
          "name": "butterImplementation",
          "type": "address"
        }
      ],
      "stateMutability": "view",
      "type": "function"
    },
    {
      "inputs": [
        {
          "internalType": "uint256",
          "name": "",
          "type": "uint256"
        }
      ],
      "name": "butterChurnedByNut",
      "outputs": [
        {
          "internalType": "uint256",
          "name": "",
          "type": "uint256"
        }
      ],
      "stateMutability": "view",
      "type": "function"
    },
    {
      "inputs": [],
      "name": "butterDeficiencyInUniverse",
      "outputs": [
        {
          "internalType": "uint256",
          "name": "",
          "type": "uint256"
        }
      ],
      "stateMutability": "view",
      "type": "function"
    },
    {
      "inputs": [
        {
          "internalType": "uint256",
          "name": "",
          "type": "uint256"
        }
      ],
      "name": "butterDeficiencyOfNut",
      "outputs": [
        {
          "internalType": "uint256",
          "name": "",
          "type": "uint256"
        }
      ],
      "stateMutability": "view",
      "type": "function"
    },
    {
      "inputs": [],
      "name": "butterJars",
      "outputs": [
        {
          "internalType": "uint256",
          "name": "",
          "type": "uint256"
        }
      ],
      "stateMutability": "view",
      "type": "function"
    },
    {
      "inputs": [
        {
          "internalType": "uint256",
          "name": "",
          "type": "uint256"
        }
      ],
      "name": "butterLocations",
      "outputs": [
        {
          "internalType": "address",
          "name": "",
          "type": "address"
        }
      ],
      "stateMutability": "view",
      "type": "function"
    },
    {
      "inputs": [],
      "name": "butterSpread",
      "outputs": [
        {
          "internalType": "uint256",
          "name": "",
          "type": "uint256"
        }
      ],
      "stateMutability": "view",
      "type": "function"
    },
    {
      "inputs": [],
      "name": "butterWeight",
      "outputs": [
        {
          "internalType": "uint256",
          "name": "",
          "type": "uint256"
        }
      ],
      "stateMutability": "view",
      "type": "function"
    },
    {
      "inputs": [
        {
          "internalType": "uint256",
          "name": "",
          "type": "uint256"
        },
        {
          "internalType": "uint256",
          "name": "",
          "type": "uint256"
        }
      ],
      "name": "buttersOfNut",
      "outputs": [
        {
          "internalType": "uint256",
          "name": "",
          "type": "uint256"
        }
      ],
      "stateMutability": "view",
      "type": "function"
    },
    {
      "inputs": [
        {
          "internalType": "uint256",
          "name": "",
          "type": "uint256"
        }
      ],
      "name": "isButterActive",
      "outputs": [
        {
          "internalType": "bool",
          "name": "",
          "type": "bool"
        }
      ],
      "stateMutability": "view",
      "type": "function"
    },
    {
      "inputs": [
        {
          "internalType": "uint256",
          "name": "",
          "type": "uint256"
        }
      ],
      "name": "isSeedActive",
      "outputs": [
        {
          "internalType": "bool",
          "name": "",
          "type": "bool"
        }
      ],
      "stateMutability": "view",
      "type": "function"
    },
    {
      "inputs": [
        {
          "internalType": "uint256",
          "name": "",
          "type": "uint256"
        },
        {
          "internalType": "uint256",
          "name": "",
          "type": "uint256"
        }
      ],
      "name": "isSeedOfNut",
      "outputs": [
        {
          "internalType": "bool",
          "name": "",
          "type": "bool"
        }
      ],
      "stateMutability": "view",
      "type": "function"
    },
    {
      "inputs": [
        {
          "internalType": "uint256",
          "name": "",
          "type": "uint256"
        }
      ],
      "name": "matterMintedByNut",
      "outputs": [
        {
          "internalType": "uint256",
          "name": "",
          "type": "uint256"
        }
      ],
      "stateMutability": "view",
      "type": "function"
    },
    {
      "inputs": [
        {
          "internalType": "uint256",
          "name": "_nutId",
          "type": "uint256"
        }
      ],
      "name": "numOfSeedsGrownOf",
      "outputs": [
        {
          "internalType": "uint256",
          "name": "",
          "type": "uint256"
        }
      ],
      "stateMutability": "view",
      "type": "function"
    },
    {
      "inputs": [
        {
          "internalType": "uint256",
          "name": "_nutId",
          "type": "uint256"
        }
      ],
      "name": "numOfSeedsOf",
      "outputs": [
        {
          "internalType": "uint256",
          "name": "",
          "type": "uint256"
        }
      ],
      "stateMutability": "view",
      "type": "function"
    },
    {
      "inputs": [
        {
          "internalType": "uint256",
          "name": "_nutId",
          "type": "uint256"
        }
      ],
      "name": "numberOfButterJars",
      "outputs": [
        {
          "internalType": "uint256",
          "name": "",
          "type": "uint256"
        }
      ],
      "stateMutability": "view",
      "type": "function"
    },
    {
      "inputs": [],
      "name": "nut",
      "outputs": [
        {
          "internalType": "uint256",
          "name": "price",
          "type": "uint256"
        },
        {
          "internalType": "uint256",
          "name": "rate",
          "type": "uint256"
        }
      ],
      "stateMutability": "view",
      "type": "function"
    },
    {
      "inputs": [
        {
          "internalType": "uint256",
          "name": "",
          "type": "uint256"
        }
      ],
      "name": "nutOfButter",
      "outputs": [
        {
          "internalType": "uint256",
          "name": "",
          "type": "uint256"
        }
      ],
      "stateMutability": "view",
      "type": "function"
    },
    {
      "inputs": [
        {
          "internalType": "uint256",
          "name": "",
          "type": "uint256"
        }
      ],
      "name": "nutOfSeed",
      "outputs": [
        {
          "internalType": "uint256",
          "name": "",
          "type": "uint256"
        }
      ],
      "stateMutability": "view",
      "type": "function"
    },
    {
      "inputs": [
        {
          "internalType": "uint256",
          "name": "",
          "type": "uint256"
        }
      ],
      "name": "nutsPayeeList",
      "outputs": [
        {
          "internalType": "uint256",
          "name": "",
          "type": "uint256"
        }
      ],
      "stateMutability": "view",
      "type": "function"
    },
    {
      "inputs": [],
      "name": "paymentTicket",
      "outputs": [
        {
          "internalType": "uint256",
          "name": "",
          "type": "uint256"
        }
      ],
      "stateMutability": "view",
      "type": "function"
    },
    {
      "inputs": [
        {
          "internalType": "uint256",
          "name": "",
          "type": "uint256"
        }
      ],
      "name": "seedLocations",
      "outputs": [
        {
          "internalType": "address",
          "name": "",
          "type": "address"
        }
      ],
      "stateMutability": "view",
      "type": "function"
    },
    {
      "inputs": [],
      "name": "seedsCreated",
      "outputs": [
        {
          "internalType": "uint256",
          "name": "",
          "type": "uint256"
        }
      ],
      "stateMutability": "view",
      "type": "function"
    },
    {
      "inputs": [
        {
          "internalType": "uint256",
          "name": "",
          "type": "uint256"
        },
        {
          "internalType": "uint256",
          "name": "",
          "type": "uint256"
        }
      ],
      "name": "seedsGrownOfNut",
      "outputs": [
        {
          "internalType": "uint256",
          "name": "",
          "type": "uint256"
        }
      ],
      "stateMutability": "view",
      "type": "function"
    },
    {
      "inputs": [
        {
          "internalType": "uint256",
          "name": "",
          "type": "uint256"
        },
        {
          "internalType": "uint256",
          "name": "",
          "type": "uint256"
        }
      ],
      "name": "seedsOfNut",
      "outputs": [
        {
          "internalType": "uint256",
          "name": "",
          "type": "uint256"
        }
      ],
      "stateMutability": "view",
      "type": "function"
    },
    {
      "inputs": [
        {
          "internalType": "address",
          "name": "_systemAddress",
          "type": "address"
        },
        {
          "internalType": "address",
          "name": "_matterAddress",
          "type": "address"
        },
        {
          "internalType": "address",
          "name": "_seedImplementation",
          "type": "address"
        },
        {
          "internalType": "address",
          "name": "_butterImplementation",
          "type": "address"
        },
        {
          "internalType": "uint256",
          "name": "_price",
          "type": "uint256"
        },
        {
          "internalType": "uint256",
          "name": "_rate",
          "type": "uint256"
        }
      ],
      "name": "initialize",
      "outputs": [],
      "stateMutability": "nonpayable",
      "type": "function"
    },
    {
      "inputs": [],
      "name": "viewCosmos",
      "outputs": [
        {
          "internalType": "address",
          "name": "",
          "type": "address"
        }
      ],
      "stateMutability": "view",
      "type": "function"
    },
    {
      "inputs": [
        {
          "internalType": "address",
          "name": "_account",
          "type": "address"
        }
      ],
      "name": "matterOf",
      "outputs": [
        {
          "internalType": "uint256",
          "name": "matterOfOwner",
          "type": "uint256"
        }
      ],
      "stateMutability": "view",
      "type": "function"
    },
    {
      "inputs": [
        {
          "internalType": "address",
          "name": "_cosmoAddress",
          "type": "address"
        }
      ],
      "name": "linkCosmo",
      "outputs": [],
      "stateMutability": "nonpayable",
      "type": "function"
    },
    {
      "inputs": [],
      "name": "getVaultLocation",
      "outputs": [
        {
          "internalType": "address",
          "name": "",
          "type": "address"
        }
      ],
      "stateMutability": "nonpayable",
      "type": "function"
    },
    {
      "inputs": [],
      "name": "getSystem",
      "outputs": [
        {
          "internalType": "address",
          "name": "",
          "type": "address"
        }
      ],
      "stateMutability": "view",
      "type": "function"
    },
    {
      "inputs": [],
      "name": "getPrice",
      "outputs": [
        {
          "internalType": "uint256",
          "name": "",
          "type": "uint256"
        }
      ],
      "stateMutability": "view",
      "type": "function"
    },
    {
      "inputs": [
        {
          "internalType": "address",
          "name": "_owner",
          "type": "address"
        },
        {
          "internalType": "address",
          "name": "_spender",
          "type": "address"
        },
        {
          "internalType": "uint256",
          "name": "_allowance",
          "type": "uint256"
        }
      ],
      "name": "grantApproval",
      "outputs": [
        {
          "internalType": "bool",
          "name": "",
          "type": "bool"
        }
      ],
      "stateMutability": "nonpayable",
      "type": "function"
    },
    {
      "inputs": [
        {
          "internalType": "address",
          "name": "_to",
          "type": "address"
        },
        {
          "internalType": "uint256",
          "name": "_toTransfer",
          "type": "uint256"
        }
      ],
      "name": "transferMatter",
      "outputs": [
        {
          "internalType": "bool",
          "name": "",
          "type": "bool"
        }
      ],
      "stateMutability": "nonpayable",
      "type": "function"
    },
    {
      "inputs": [
        {
          "internalType": "address",
          "name": "_from",
          "type": "address"
        },
        {
          "internalType": "address",
          "name": "_to",
          "type": "address"
        },
        {
          "internalType": "uint256",
          "name": "_toTransfer",
          "type": "uint256"
        }
      ],
      "name": "transferMatterFrom",
      "outputs": [
        {
          "internalType": "bool",
          "name": "",
          "type": "bool"
        }
      ],
      "stateMutability": "nonpayable",
      "type": "function"
    },
    {
      "inputs": [
        {
          "internalType": "address",
          "name": "_from",
          "type": "address"
        },
        {
          "internalType": "uint256",
          "name": "_toBurn",
          "type": "uint256"
        }
      ],
      "name": "burnMatterFrom",
      "outputs": [
        {
          "internalType": "uint256",
          "name": "newMatterSupply",
          "type": "uint256"
        }
      ],
      "stateMutability": "nonpayable",
      "type": "function"
    },
    {
      "inputs": [
        {
          "internalType": "uint256",
          "name": "_nutId",
          "type": "uint256"
        }
      ],
      "name": "matterNeeded",
      "outputs": [
        {
          "internalType": "uint256",
          "name": "",
          "type": "uint256"
        }
      ],
      "stateMutability": "view",
      "type": "function"
    },
    {
      "inputs": [
        {
          "internalType": "uint256",
          "name": "_nutId",
          "type": "uint256"
        }
      ],
      "name": "ethToHold",
      "outputs": [
        {
          "internalType": "uint256",
          "name": "",
          "type": "uint256"
        }
      ],
      "stateMutability": "view",
      "type": "function"
    },
    {
      "inputs": [
        {
          "internalType": "uint256",
          "name": "_seedId",
          "type": "uint256"
        }
      ],
      "name": "growSeed",
      "outputs": [
        {
          "internalType": "bool",
          "name": "",
          "type": "bool"
        }
      ],
      "stateMutability": "nonpayable",
      "type": "function"
    },
    {
      "inputs": [
        {
          "internalType": "uint256",
          "name": "_nutId",
          "type": "uint256"
        },
        {
          "internalType": "bytes32",
          "name": "_secretHash",
          "type": "bytes32"
        }
      ],
      "name": "spawnSeed",
      "outputs": [
        {
          "internalType": "address",
          "name": "seedLocation",
          "type": "address"
        }
      ],
      "stateMutability": "nonpayable",
      "type": "function"
    },
    {
      "inputs": [
        {
          "internalType": "uint256",
          "name": "_nutId",
          "type": "uint256"
        },
        {
          "internalType": "uint256",
          "name": "_matterContributed",
          "type": "uint256"
        },
        {
          "internalType": "uint256",
          "name": "_matterDrawRate",
          "type": "uint256"
        },
        {
          "internalType": "bytes32",
          "name": "_secretHash",
          "type": "bytes32"
        }
      ],
      "name": "newButter",
      "outputs": [
        {
          "internalType": "address",
          "name": "butterLocation",
          "type": "address"
        }
      ],
      "stateMutability": "nonpayable",
      "type": "function"
    },
    {
      "inputs": [
        {
          "internalType": "address",
          "name": "_drawer",
          "type": "address"
        },
        {
          "internalType": "uint256",
          "name": "_butterId",
          "type": "uint256"
        },
        {
          "internalType": "uint256",
          "name": "_balance",
          "type": "uint256"
        },
        {
          "internalType": "uint256",
          "name": "_currentBalance",
          "type": "uint256"
        }
      ],
      "name": "butterDrawn",
      "outputs": [
        {
          "internalType": "bool",
          "name": "",
          "type": "bool"
        }
      ],
      "stateMutability": "nonpayable",
      "type": "function"
    },
    {
      "inputs": [
        {
          "internalType": "address",
          "name": "_nutOwner",
          "type": "address"
        }
      ],
      "name": "assignMintBalance",
      "outputs": [
        {
          "internalType": "bool",
          "name": "",
          "type": "bool"
        }
      ],
      "stateMutability": "nonpayable",
      "type": "function"
    }
  ],
  "bytecode": "0x6080604052600080556000600755600060085560006009556000600f5534801561002857600080fd5b50612bac806100386000396000f3fe608060405234801561001057600080fd5b50600436106102695760003560e01c806375b689aa11610151578063c0bad4db116100c3578063ea988be811610087578063ea988be814610888578063ecd89815146108a6578063f3d8c7a7146108d6578063f6317f8d14610906578063fe774f9d14610924578063ff2cb3471461095457610269565b8063c0bad4db146107be578063d4d81032146107ee578063d798b4621461081e578063d7c41c791461084e578063df4f5ccc1461086a57610269565b80639cee22b1116101155780639cee22b1146106d1578063a56c5a7814610701578063a83851b91461071d578063ad0ca90614610740578063aef054ce1461075e578063bb5833af1461078e57610269565b806375b689aa146106055780638ed3df0f146106235780639578d3df1461065357806398d5fdca146106835780639975a8a2146106a157610269565b806326342ea4116101ea5780633c8023ad116101ae5780633c8023ad146104f757806347634e1c1461052757806349a6b51f146105575780634ffe5a6f1461057557806353f97bc8146105a55780636b651a2c146105d557610269565b806326342ea41461042b578063282adc8c1461044957806328c59aef1461047957806331bd534d146104a95780633279bd4f146104c757610269565b806315d3b7a01161023157806315d3b7a01461034c578063171e84411461036b5780631821907a1461039b5780631e0b3964146103cb57806323f526c0146103fb57610269565b806302760a481461026e57806303f5de9d1461029e57806304360286146102ce5780630a4d2f0c146102ec5780631298896e1461031c575b600080fd5b6102886004803603810190610283919061226d565b610984565b60405161029591906122b5565b60405180910390f35b6102b860048036038101906102b39190612306565b6109a4565b6040516102c591906123ae565b60405180910390f35b6102d6610ffb565b6040516102e391906123ae565b60405180910390f35b6103066004803603810190610301919061226d565b611028565b60405161031391906122b5565b60405180910390f35b610336600480360381019061033191906123c9565b6110b1565b6040516103439190612418565b60405180910390f35b6103546110e2565b604051610362929190612433565b60405180910390f35b6103856004803603810190610380919061226d565b6110f4565b60405161039291906122b5565b60405180910390f35b6103b560048036038101906103b0919061226d565b611114565b6040516103c29190612418565b60405180910390f35b6103e560048036038101906103e091906123c9565b61112c565b6040516103f29190612418565b60405180910390f35b6104156004803603810190610410919061226d565b61115d565b60405161042291906123ae565b60405180910390f35b610433611190565b6040516104409190612418565b60405180910390f35b610463600480360381019061045e919061226d565b611196565b6040516104709190612418565b60405180910390f35b610493600480360381019061048e9190612488565b6111b6565b6040516104a091906122b5565b60405180910390f35b6104b1611257565b6040516104be9190612418565b60405180910390f35b6104e160048036038101906104dc919061226d565b61125d565b6040516104ee9190612418565b60405180910390f35b610511600480360381019061050c91906123c9565b611275565b60405161051e9190612418565b60405180910390f35b610541600480360381019061053c919061226d565b6112a6565b60405161054e9190612418565b60405180910390f35b61055f6112be565b60405161056c9190612418565b60405180910390f35b61058f600480360381019061058a919061226d565b6112c4565b60405161059c9190612418565b60405180910390f35b6105bf60048036038101906105ba91906123c9565b6112dc565b6040516105cc91906122b5565b60405180910390f35b6105ef60048036038101906105ea919061226d565b61130b565b6040516105fc9190612418565b60405180910390f35b61060d61132b565b60405161061a91906123ae565b60405180910390f35b61063d6004803603810190610638919061226d565b6113c8565b60405161064a9190612418565b60405180910390f35b61066d6004803603810190610668919061226d565b6113e1565b60405161067a9190612418565b60405180910390f35b61068b611405565b6040516106989190612418565b60405180910390f35b6106bb60048036038101906106b6919061226d565b611412565b6040516106c89190612418565b60405180910390f35b6106eb60048036038101906106e691906124db565b611432565b6040516106f891906122b5565b60405180910390f35b61071b60048036038101906107169190612542565b6114dd565b005b610725611524565b6040516107379695949392919061256f565b60405180910390f35b61074861160e565b60405161075591906123ae565b60405180910390f35b6107786004803603810190610773919061226d565b61163b565b60405161078591906123ae565b60405180910390f35b6107a860048036038101906107a3919061226d565b61166e565b6040516107b59190612418565b60405180910390f35b6107d860048036038101906107d39190612542565b611687565b6040516107e591906122b5565b60405180910390f35b6108086004803603810190610803919061226d565b611814565b6040516108159190612418565b60405180910390f35b61083860048036038101906108339190612542565b61182c565b6040516108459190612418565b60405180910390f35b610868600480360381019061086391906125d0565b6118d4565b005b610872611a4c565b60405161087f9190612418565b60405180910390f35b610890611a52565b60405161089d9190612418565b60405180910390f35b6108c060048036038101906108bb919061265d565b611a58565b6040516108cd91906122b5565b60405180910390f35b6108f060048036038101906108eb9190612488565b611af6565b6040516108fd91906122b5565b60405180910390f35b61090e611ba9565b60405161091b9190612418565b60405180910390f35b61093e6004803603810190610939919061269d565b611baf565b60405161094b91906123ae565b60405180910390f35b61096e6004803603810190610969919061265d565b611cba565b60405161097b9190612418565b60405180910390f35b60116020528060005260406000206000915054906101000a900460ff1681565b600080601260010160009054906101000a900473ffffffffffffffffffffffffffffffffffffffff1673ffffffffffffffffffffffffffffffffffffffff1663d798b462601260020160009054906101000a900473ffffffffffffffffffffffffffffffffffffffff166040518263ffffffff1660e01b8152600401610a2a91906123ae565b602060405180830381865afa158015610a47573d6000803e3d6000fd5b505050506040513d601f19601f82011682018060405250810190610a6b91906126f2565b90506000811115610d0d576000610a8482600f54611dea565b90506000601a54905060005b828114610d09576000600f540315610d09576000601b8381548110610ab857610ab761271f565b5b906000526020600020015490506000601060008381526020019081526020016000205403610b0757601b8381548110610af457610af361271f565b5b9060005260206000200160009055610ccf565b6000601260030160009054906101000a900473ffffffffffffffffffffffffffffffffffffffff1673ffffffffffffffffffffffffffffffffffffffff166383638710836040518263ffffffff1660e01b8152600401610b679190612418565b602060405180830381865afa158015610b84573d6000803e3d6000fd5b505050506040513d601f19601f82011682018060405250810190610ba89190612763565b9050601260010160009054906101000a900473ffffffffffffffffffffffffffffffffffffffff1673ffffffffffffffffffffffffffffffffffffffff1663ecd898158260016040518363ffffffff1660e01b8152600401610c0b9291906127d5565b600060405180830381600087803b158015610c2557600080fd5b505af1158015610c39573d6000803e3d6000fd5b505050506001600f6000828254610c50919061282d565b925050819055506001601060008481526020019081526020016000206000828254610c7b919061282d565b92505081905550601b829080600181540180825580915050600190039060005260206000200160009091909190915055601b8481548110610cbf57610cbe61271f565b5b9060005260206000200160009055505b8280610cda90612861565b935050601a6000815480929190610cf090612861565b9190505550508080610d0190612861565b915050610a90565b5050505b6000610d3d601260050160009054906101000a900473ffffffffffffffffffffffffffffffffffffffff16611e03565b90508073ffffffffffffffffffffffffffffffffffffffff1663f8257f87600954898989601260020160009054906101000a900473ffffffffffffffffffffffffffffffffffffffff168a6040518763ffffffff1660e01b8152600401610da9969594939291906128b8565b600060405180830381600087803b158015610dc357600080fd5b505af1158015610dd7573d6000803e3d6000fd5b505050508092506000601260030160009054906101000a900473ffffffffffffffffffffffffffffffffffffffff1673ffffffffffffffffffffffffffffffffffffffff166383638710896040518263ffffffff1660e01b8152600401610e3e9190612418565b602060405180830381865afa158015610e5b573d6000803e3d6000fd5b505050506040513d601f19601f82011682018060405250810190610e7f9190612763565b9050601260010160009054906101000a900473ffffffffffffffffffffffffffffffffffffffff1673ffffffffffffffffffffffffffffffffffffffff166328c59aef82868a6040518463ffffffff1660e01b8152600401610ee393929190612919565b600060405180830381600087803b158015610efd57600080fd5b505af1158015610f11573d6000803e3d6000fd5b50505050601b889080600181540180825580915050600190039060005260206000200160009091909190915055601260010160009054906101000a900473ffffffffffffffffffffffffffffffffffffffff1673ffffffffffffffffffffffffffffffffffffffff16634bbc1bcd30896040518363ffffffff1660e01b8152600401610f9e929190612950565b6020604051808303816000875af1158015610fbd573d6000803e3d6000fd5b505050506040513d601f19601f82011682018060405250810190610fe191906126f2565b50610ff088600954848a611ed7565b505050949350505050565b6000601260030160009054906101000a900473ffffffffffffffffffffffffffffffffffffffff16905090565b600080600360008481526020019081526020016000205490506002600082815260200190815260200160002083908060018154018082558091505060019003906000526020600020016000909190919091505560006006600083815260200190815260200160002060006101000a81548160ff0219169083151502179055506001915050919050565b600260205281600052604060002081815481106110cd57600080fd5b90600052602060002001600091509150505481565b60188060000154908060010154905082565b60066020528060005260406000206000915054906101000a900460ff1681565b600d6020528060005260406000206000915090505481565b600a602052816000526040600020818154811061114857600080fd5b90600052602060002001600091509150505481565b60056020528060005260406000206000915054906101000a900473ffffffffffffffffffffffffffffffffffffffff1681565b60095481565b6000600a6000838152602001908152602001600020805490509050919050565b6000601260010160009054906101000a900473ffffffffffffffffffffffffffffffffffffffff1673ffffffffffffffffffffffffffffffffffffffff166328c59aef8585856040518463ffffffff1660e01b815260040161121a93929190612919565b600060405180830381600087803b15801561123457600080fd5b505af1158015611248573d6000803e3d6000fd5b50505050600190509392505050565b601a5481565b600c6020528060005260406000206000915090505481565b6001602052816000526040600020818154811061129157600080fd5b90600052602060002001600091509150505481565b600e6020528060005260406000206000915090505481565b60085481565b60106020528060005260406000206000915090505481565b60046020528160005260406000206020528060005260406000206000915091509054906101000a900460ff1681565b600060026000838152602001908152602001600020805490509050919050565b6000601260030160009054906101000a900473ffffffffffffffffffffffffffffffffffffffff1673ffffffffffffffffffffffffffffffffffffffff16630ef8dd956040518163ffffffff1660e01b81526004016020604051808303816000875af115801561139f573d6000803e3d6000fd5b505050506040513d601f19601f820116820180604052508101906113c39190612763565b905090565b60006113d382611412565b601860010154189050919050565b601b81815481106113f157600080fd5b906000526020600020016000915090505481565b6000601860000154905090565b600060016000838152602001908152602001600020805490509050919050565b6000601260010160009054906101000a900473ffffffffffffffffffffffffffffffffffffffff1673ffffffffffffffffffffffffffffffffffffffff1663ecd8981586856040518363ffffffff1660e01b8152600401611494929190612950565b600060405180830381600087803b1580156114ae57600080fd5b505af11580156114c2573d6000803e3d6000fd5b505050506114d184848461204d565b60019050949350505050565b80601260030160006101000a81548173ffffffffffffffffffffffffffffffffffffffff021916908373ffffffffffffffffffffffffffffffffffffffff16021790555050565b60128060000160009054906101000a900473ffffffffffffffffffffffffffffffffffffffff16908060010160009054906101000a900473ffffffffffffffffffffffffffffffffffffffff16908060020160009054906101000a900473ffffffffffffffffffffffffffffffffffffffff16908060030160009054906101000a900473ffffffffffffffffffffffffffffffffffffffff16908060040160009054906101000a900473ffffffffffffffffffffffffffffffffffffffff16908060050160009054906101000a900473ffffffffffffffffffffffffffffffffffffffff16905086565b6000601260000160009054906101000a900473ffffffffffffffffffffffffffffffffffffffff16905090565b600b6020528060005260406000206000915054906101000a900473ffffffffffffffffffffffffffffffffffffffff1681565b60006116798261130b565b601860000154189050919050565b600080601260010160009054906101000a900473ffffffffffffffffffffffffffffffffffffffff1673ffffffffffffffffffffffffffffffffffffffff1663d798b462306040518263ffffffff1660e01b81526004016116e891906123ae565b602060405180830381865afa158015611705573d6000803e3d6000fd5b505050506040513d601f19601f8201168201806040525081019061172991906126f2565b9050601860010154811015611773576040517f08c379a000000000000000000000000000000000000000000000000000000000815260040161176a906129fc565b60405180910390fd5b601260010160009054906101000a900473ffffffffffffffffffffffffffffffffffffffff1673ffffffffffffffffffffffffffffffffffffffff1663ecd89815846018600101546040518363ffffffff1660e01b81526004016117d8929190612950565b600060405180830381600087803b1580156117f257600080fd5b505af1158015611806573d6000803e3d6000fd5b505050506001915050919050565b60036020528060005260406000206000915090505481565b6000601260010160009054906101000a900473ffffffffffffffffffffffffffffffffffffffff1673ffffffffffffffffffffffffffffffffffffffff1663d798b462836040518263ffffffff1660e01b815260040161188c91906123ae565b602060405180830381865afa1580156118a9573d6000803e3d6000fd5b505050506040513d601f19601f820116820180604052508101906118cd91906126f2565b9050919050565b85601260000160006101000a81548173ffffffffffffffffffffffffffffffffffffffff021916908373ffffffffffffffffffffffffffffffffffffffff16021790555084601260010160006101000a81548173ffffffffffffffffffffffffffffffffffffffff021916908373ffffffffffffffffffffffffffffffffffffffff16021790555030601260020160006101000a81548173ffffffffffffffffffffffffffffffffffffffff021916908373ffffffffffffffffffffffffffffffffffffffff160217905550816018600001819055508060186001018190555083601260040160006101000a81548173ffffffffffffffffffffffffffffffffffffffff021916908373ffffffffffffffffffffffffffffffffffffffff16021790555082601260050160006101000a81548173ffffffffffffffffffffffffffffffffffffffff021916908373ffffffffffffffffffffffffffffffffffffffff1602179055506000601a81905550505050505050565b600f5481565b60005481565b6000601260010160009054906101000a900473ffffffffffffffffffffffffffffffffffffffff1673ffffffffffffffffffffffffffffffffffffffff1663ecd8981584846040518363ffffffff1660e01b8152600401611aba929190612950565b600060405180830381600087803b158015611ad457600080fd5b505af1158015611ae8573d6000803e3d6000fd5b505050506001905092915050565b6000601260010160009054906101000a900473ffffffffffffffffffffffffffffffffffffffff1673ffffffffffffffffffffffffffffffffffffffff1663f3d8c7a78585856040518463ffffffff1660e01b8152600401611b5a93929190612919565b6020604051808303816000875af1158015611b79573d6000803e3d6000fd5b505050506040513d601f19601f82011682018060405250810190611b9d9190612a48565b50600190509392505050565b60075481565b600080611be0601260040160009054906101000a900473ffffffffffffffffffffffffffffffffffffffff16611e03565b90508073ffffffffffffffffffffffffffffffffffffffff16634cf30bf960005486601260010160009054906101000a900473ffffffffffffffffffffffffffffffffffffffff1630601260030160009054906101000a900473ffffffffffffffffffffffffffffffffffffffff16896040518763ffffffff1660e01b8152600401611c7196959493929190612a75565b600060405180830381600087803b158015611c8b57600080fd5b505af1158015611c9f573d6000803e3d6000fd5b50505050809150611cb38460005484612107565b5092915050565b6000601260010160009054906101000a900473ffffffffffffffffffffffffffffffffffffffff1673ffffffffffffffffffffffffffffffffffffffff1663ff2cb34784846040518363ffffffff1660e01b8152600401611d1c929190612950565b600060405180830381600087803b158015611d3657600080fd5b505af1158015611d4a573d6000803e3d6000fd5b50505050601260010160009054906101000a900473ffffffffffffffffffffffffffffffffffffffff1673ffffffffffffffffffffffffffffffffffffffff1663445f11fc6040518163ffffffff1660e01b8152600401602060405180830381865afa158015611dbe573d6000803e3d6000fd5b505050506040513d601f19601f82011682018060405250810190611de291906126f2565b905092915050565b6000818310611df95781611dfb565b825b905092915050565b60006040517f3d602d80600a3d3981f3363d3d373d3d3d363d7300000000000000000000000081528260601b60148201527f5af43d82803e903d91602b57fd5bf3000000000000000000000000000000000060288201526037816000f0915050600073ffffffffffffffffffffffffffffffffffffffff168173ffffffffffffffffffffffffffffffffffffffff1603611ed2576040517f08c379a0000000000000000000000000000000000000000000000000000000008152600401611ec990612b22565b60405180910390fd5b919050565b600160096000828254611eea9190612b42565b925050819055508060076000828254611f039190612b42565b92505081905550600a600085815260200190815260200160002083908060018154018082558091505060019003906000526020600020016000909190919091505580600d60008681526020019081526020016000206000828254611f679190612b42565b9250508190555081600b600085815260200190815260200160002060006101000a81548173ffffffffffffffffffffffffffffffffffffffff021916908373ffffffffffffffffffffffffffffffffffffffff16021790555060016011600085815260200190815260200160002060006101000a81548160ff02191690831515021790555083600e60008581526020019081526020016000208190555080600f60008282546120169190612b42565b92505081905550806010600086815260200190815260200160002060008282546120409190612b42565b9250508190555050505050565b816007600082825461205f919061282d565b9250508190555081600860008282546120789190612b42565b925050819055506000600e600085815260200190815260200160002054905082600c600083815260200190815260200160002060008282546120ba9190612b42565b92505081905550600083836120cf919061282d565b036121015760006011600086815260200190815260200160002060006101000a81548160ff0219169083151502179055505b50505050565b82600360008481526020019081526020016000208190555060016000848152602001908152602001600020829080600181540180825580915050600190039060005260206000200160009091909190915055600160046000848152602001908152602001600020600085815260200190815260200160002060006101000a81548160ff021916908315150217905550806005600084815260200190815260200160002060006101000a81548173ffffffffffffffffffffffffffffffffffffffff021916908373ffffffffffffffffffffffffffffffffffffffff16021790555060016000808282546121fa9190612b42565b9250508190555060016006600085815260200190815260200160002060006101000a81548160ff021916908315150217905550505050565b600080fd5b6000819050919050565b61224a81612237565b811461225557600080fd5b50565b60008135905061226781612241565b92915050565b60006020828403121561228357612282612232565b5b600061229184828501612258565b91505092915050565b60008115159050919050565b6122af8161229a565b82525050565b60006020820190506122ca60008301846122a6565b92915050565b6000819050919050565b6122e3816122d0565b81146122ee57600080fd5b50565b600081359050612300816122da565b92915050565b600080600080608085870312156123205761231f612232565b5b600061232e87828801612258565b945050602061233f87828801612258565b935050604061235087828801612258565b9250506060612361878288016122f1565b91505092959194509250565b600073ffffffffffffffffffffffffffffffffffffffff82169050919050565b60006123988261236d565b9050919050565b6123a88161238d565b82525050565b60006020820190506123c3600083018461239f565b92915050565b600080604083850312156123e0576123df612232565b5b60006123ee85828601612258565b92505060206123ff85828601612258565b9150509250929050565b61241281612237565b82525050565b600060208201905061242d6000830184612409565b92915050565b60006040820190506124486000830185612409565b6124556020830184612409565b9392505050565b6124658161238d565b811461247057600080fd5b50565b6000813590506124828161245c565b92915050565b6000806000606084860312156124a1576124a0612232565b5b60006124af86828701612473565b93505060206124c086828701612473565b92505060406124d186828701612258565b9150509250925092565b600080600080608085870312156124f5576124f4612232565b5b600061250387828801612473565b945050602061251487828801612258565b935050604061252587828801612258565b925050606061253687828801612258565b91505092959194509250565b60006020828403121561255857612557612232565b5b600061256684828501612473565b91505092915050565b600060c082019050612584600083018961239f565b612591602083018861239f565b61259e604083018761239f565b6125ab606083018661239f565b6125b8608083018561239f565b6125c560a083018461239f565b979650505050505050565b60008060008060008060c087890312156125ed576125ec612232565b5b60006125fb89828a01612473565b965050602061260c89828a01612473565b955050604061261d89828a01612473565b945050606061262e89828a01612473565b935050608061263f89828a01612258565b92505060a061265089828a01612258565b9150509295509295509295565b6000806040838503121561267457612673612232565b5b600061268285828601612473565b925050602061269385828601612258565b9150509250929050565b600080604083850312156126b4576126b3612232565b5b60006126c285828601612258565b92505060206126d3858286016122f1565b9150509250929050565b6000815190506126ec81612241565b92915050565b60006020828403121561270857612707612232565b5b6000612716848285016126dd565b91505092915050565b7f4e487b7100000000000000000000000000000000000000000000000000000000600052603260045260246000fd5b60008151905061275d8161245c565b92915050565b60006020828403121561277957612778612232565b5b60006127878482850161274e565b91505092915050565b6000819050919050565b6000819050919050565b60006127bf6127ba6127b584612790565b61279a565b612237565b9050919050565b6127cf816127a4565b82525050565b60006040820190506127ea600083018561239f565b6127f760208301846127c6565b9392505050565b7f4e487b7100000000000000000000000000000000000000000000000000000000600052601160045260246000fd5b600061283882612237565b915061284383612237565b925082820390508181111561285b5761285a6127fe565b5b92915050565b600061286c82612237565b91507fffffffffffffffffffffffffffffffffffffffffffffffffffffffffffffffff820361289e5761289d6127fe565b5b600182019050919050565b6128b2816122d0565b82525050565b600060c0820190506128cd6000830189612409565b6128da6020830188612409565b6128e76040830187612409565b6128f46060830186612409565b612901608083018561239f565b61290e60a08301846128a9565b979650505050505050565b600060608201905061292e600083018661239f565b61293b602083018561239f565b6129486040830184612409565b949350505050565b6000604082019050612965600083018561239f565b6129726020830184612409565b9392505050565b600082825260208201905092915050565b7f4e757420656e6f756768206d617474657220696e20547265617375727920746f60008201527f206d696e74000000000000000000000000000000000000000000000000000000602082015250565b60006129e6602583612979565b91506129f18261298a565b604082019050919050565b60006020820190508181036000830152612a15816129d9565b9050919050565b612a258161229a565b8114612a3057600080fd5b50565b600081519050612a4281612a1c565b92915050565b600060208284031215612a5e57612a5d612232565b5b6000612a6c84828501612a33565b91505092915050565b600060c082019050612a8a6000830189612409565b612a976020830188612409565b612aa4604083018761239f565b612ab1606083018661239f565b612abe608083018561239f565b612acb60a08301846128a9565b979650505050505050565b7f455243313136373a20637265617465206661696c656400000000000000000000600082015250565b6000612b0c601683612979565b9150612b1782612ad6565b602082019050919050565b60006020820190508181036000830152612b3b81612aff565b9050919050565b6000612b4d82612237565b9150612b5883612237565b9250828201905080821115612b7057612b6f6127fe565b5b9291505056fea2646970667358221220fa70db95539138eeeaf573a22cc84d50c60401deb4c347a1e40351bd5ce64ec364736f6c63430008110033",
  "immutableReferences": {},
  "source": "// SPDX-License-Identifier: MIT\npragma solidity ^0.8.7;\n\nimport \"openzeppelin-solidity/contracts/utils/math/Math.sol\";\nimport { Clones } from \"openzeppelin-solidity/contracts/proxy/Clones.sol\";\n\nimport \"./CosmoMatter.sol\";\nimport \"./CosmoSeed.sol\";\nimport \"./CosmoButter.sol\";\nimport \"./ICosmoTreasury.sol\";\nimport \"./ICosmoNuts.sol\";\nimport \"./ICosmoSeed.sol\";\nimport \"./ICosmoMatter.sol\";\n\nimport \"./SeedAccounts.sol\";\nimport \"./ButterAccounts.sol\";\n\n/**\n * @dev Manages the matter balance of the CosmoNuts collection and handles interaction with the\n * ERC20 Token to mint, burn, and allocate balances\n * Acts as storage for the ERC 721 tokens on their created Seed and Butter contracts.\n */\n contract CosmoTreasury is SeedAccounts, ButterAccounts, ICosmoTreasury {\n\n      /**\n       * @dev Saved addresses include the contract which created the Treasury: UNIVERSE_ADDRESS, and\n       * the address of the CosmoNuts contract (NFTs) which is created after the Treasury and then updated: matter_ADDRESS.\n       */\n     struct AddressOf {\n         address system;\n         address matter;\n         address treasury;\n         address cosmos;\n         address seedImplementation;\n         address butterImplementation;\n     }\n     AddressOf public addressOf;\n\n     struct Nut {\n         uint256 price;\n         uint256 rate;\n     }\n     Nut public nut;\n\n     uint256 public paymentTicket;\n     uint256[] public nutsPayeeList;\n\n     function initialize(\n         address _systemAddress,\n         address _matterAddress,\n         address _seedImplementation,\n         address _butterImplementation,\n         uint256 _price,\n         uint256 _rate\n     ) external {\n         addressOf.system = _systemAddress;\n         addressOf.matter = _matterAddress;\n         addressOf.treasury = address(this);\n         nut.price = _price;\n         nut.rate = _rate;\n\n         addressOf.seedImplementation = _seedImplementation;\n         addressOf.butterImplementation = _butterImplementation;\n\n         paymentTicket = 0;\n     }\n\n     /*\n     modifier onlyUniverse {\n         require(address(msg.sender) == UNIVERSE_ADDRESS, \"Caller is not Universe\");\n         _;\n     }\n     */\n\n     function viewCosmos() public view virtual override returns (address) {\n         return addressOf.cosmos;\n     }\n\n     function matterOf(address _account) public view virtual override returns (uint256 matterOfOwner) {\n         matterOfOwner = ICosmoMatter(addressOf.matter).matterOf(_account);\n         return matterOfOwner;\n     }\n\n     function linkCosmo(address _cosmoAddress) external virtual override {\n         addressOf.cosmos = _cosmoAddress;\n     }\n\n     function getVaultLocation() public virtual override returns (address) {\n        return ICosmoNuts(addressOf.cosmos).vaultLocation();\n     }\n\n     function getSystem() public view virtual override returns (address) {\n         return addressOf.system;\n     }\n\n     function getPrice() public view virtual override returns (uint256) {\n         return nut.price;\n     }\n\n     function grantApproval(address _owner, address _spender, uint256 _allowance) external virtual override returns (bool) {\n          ICosmoMatter(addressOf.matter).grantApproval(_owner, _spender, _allowance);\n          return true;\n     }\n\n     function transferMatter(address _to, uint256 _toTransfer) public virtual override returns (bool) {\n         ICosmoMatter(addressOf.matter).transferMatter(_to, _toTransfer);\n         return true;\n     }\n\n     function transferMatterFrom(\n         address _from,\n         address _to,\n         uint256 _toTransfer\n     ) public virtual override returns (bool) {\n         ICosmoMatter(addressOf.matter).transferMatterFrom(\n             _from, _to, _toTransfer\n         );\n         return true;\n     }\n\n     function burnMatterFrom(\n         address _from,\n         uint256 _toBurn\n     ) external virtual override returns (uint256 newMatterSupply) {\n         ICosmoMatter(addressOf.matter).burnMatterFrom(_from, _toBurn);\n         newMatterSupply = ICosmoMatter(addressOf.matter).totalMatter();\n         return newMatterSupply;\n     }\n\n     function matterNeeded(uint256 _nutId) public view virtual override returns (uint256) {\n         return nut.rate ^ (numOfSeedsOf(_nutId));\n     }\n\n     function ethToHold(uint256 _nutId) public view virtual override returns (uint256) {\n         return nut.price ^ (numOfSeedsGrownOf(_nutId));\n     }\n\n     function growSeed(uint256 _seedId) external virtual override returns (bool) {\n         uint256 nutId = nutOfSeed[_seedId];\n         seedsGrownOfNut[nutId].push(_seedId);\n         isSeedActive[nutId] = false;\n\n         return true;\n     }\n\n     /**\n      * Called from CosmoNuts contract.\n      */\n     function spawnSeed(uint256 _nutId, bytes32 _secretHash) external virtual override returns (address seedLocation) {\n         CosmoSeed seed = CosmoSeed(payable(Clones.clone(addressOf.seedImplementation)));\n\n         seed.initialize(\n             seedsCreated,\n             _nutId,\n             //nut.price,\n             addressOf.matter,\n             address(this),\n             //addressOf.system,\n             addressOf.cosmos,\n             _secretHash\n         );\n         seedLocation = address(seed);\n\n         integrateSeed(_nutId, seedsCreated, seedLocation);\n\n         return seedLocation;\n     }\n\n     /**\n      * Called from CosmoSeed contract.\n      */\n      /*\n     function seedFromNut(\n         //address _caller,\n         uint256 _seedId\n         //uint256 _matterNeeded\n     ) external virtual override returns (bool) {\n         address seedAddress = seedLocations[_seedId];\n         require(msg.sender == seedAddress, \"Caller is not the right CosmoSeed contract\");\n\n         //CosmoMatter matter = CosmoMatter(addressOf.matter);\n         //matter.transfer(nutOwner, _matterNeeded);\n         //matter.mintMatter(addressOf.treasury, 1);\n\n         growSeed(_seedId);\n\n         return true;\n     }\n     */\n\n     /**\n      * Creating new butter means the creation of a contract where other users can withdraw matter from.\n      * Need to contribute butter (which can only be done if you have a Nut with the desired level of matter to give away.\n      * A secret message is provided in hash form and checked for verification to withdraw funds.\n      */\n     function newButter(\n         uint256 _nutId,\n         uint256 _matterContributed,\n         uint256 _matterDrawRate,\n         bytes32 _secretHash\n     ) external virtual override returns (address butterLocation) {\n         /**\n          * The Treasury wants to distribute its available balance to the nutsPayeeList.\n          * It will distribute the minimum of either its available balance or the deficiency in the Universe.\n          * All payees are awarded one matter and moved to the end of the list.\n          * When their maximum available balance is reached, they are removed from the payee list.\n          */\n         uint256 matterInTreasury = ICosmoMatter(addressOf.matter).matterOf(addressOf.treasury);\n         if (matterInTreasury > 0) {\n             uint256 toDistribute = Math.min(matterInTreasury, butterDeficiencyInUniverse);\n\n             uint256 index = paymentTicket;\n             for (uint j = 0; j != toDistribute; j++) {\n                 if (butterDeficiencyInUniverse == 0) break;\n\n                 uint256 nutPayeeId = nutsPayeeList[index];\n                 if (butterDeficiencyOfNut[nutPayeeId] == 0) {\n                     delete nutsPayeeList[index];\n                 } else {\n                     address nutOwnerPayee = ICosmoNuts(addressOf.cosmos).getOwnerOf(nutPayeeId);\n                     ICosmoMatter(addressOf.matter).transferMatter(nutOwnerPayee, 1);\n\n                     butterDeficiencyInUniverse -= 1;\n                     butterDeficiencyOfNut[nutPayeeId] -= 1;\n\n                     nutsPayeeList.push(nutPayeeId);\n                     delete nutsPayeeList[index];\n                 }\n\n                 index++;\n                 paymentTicket++;\n            }\n         }\n\n         CosmoButter butter = CosmoButter(Clones.clone(addressOf.butterImplementation));\n         butter.initialize(\n             butterJars, _nutId, _matterContributed, _matterDrawRate, addressOf.treasury, _secretHash\n         );\n         butterLocation = address(butter);\n\n         address nutIdOwner = ICosmoNuts(addressOf.cosmos).getOwnerOf(_nutId);\n         ICosmoMatter(addressOf.matter).transferMatterFrom(nutIdOwner, butterLocation, _matterContributed);\n\n         nutsPayeeList.push(_nutId);\n\n         ICosmoMatter(addressOf.matter).mintMatter(address(this), _matterContributed);\n\n         churnButter(_nutId, butterJars, address(butter), _matterContributed);\n\n         return butterLocation;\n     }\n\n     /**\n      * Runs from CosmoButter contract when someone requests to draw matter.\n      */\n     function butterDrawn(\n         address _drawer,\n         uint256 _butterId,\n         uint256 _balance,\n         uint256 _currentBalance\n     ) external virtual override returns (bool) {\n         ICosmoMatter(addressOf.matter).transferMatter(_drawer, _balance);\n         distributeButter(_butterId, _balance, _currentBalance);\n         return true;\n     }\n\n     function assignMintBalance(address _nutOwner) external virtual override returns (bool) {\n         uint256 matterOfTreasury = ICosmoMatter(addressOf.matter).matterOf(address(this));\n         require(matterOfTreasury >= nut.rate, \"Nut enough matter in Treasury to mint\");\n\n         ICosmoMatter(addressOf.matter).transferMatter(_nutOwner, nut.rate);\n         return true;\n     }\n\n }\n",
  "sourcePath": "/home/redlentils/Seafile/Websites/avatarnft/contracts/CosmoTreasury.sol",
  "compiler": {
    "name": "solc",
    "version": "0.8.17+commit.8df45f5f.Emscripten.clang"
  },
  "schemaVersion": "3.4.10",
  "updatedAt": "2022-10-28T14:21:30.770Z",
  "devdoc": {
    "details": "Manages the matter balance of the CosmoNuts collection and handles interaction with the ERC20 Token to mint, burn, and allocate balances Acts as storage for the ERC 721 tokens on their created Seed and Butter contracts.",
    "kind": "dev",
    "methods": {},
    "version": 1
  },
  "userdoc": {
    "kind": "user",
    "methods": {
      "butterDrawn(address,uint256,uint256,uint256)": {
        "notice": "Runs from CosmoButter contract when someone requests to draw matter."
      },
      "butterWeight()": {
        "notice": "butterWeight is the amount of matter in the universe that is currently outstanding. butterSpread is the amount of matter that has been distributed from butterWeight, thus reducing its value. butterJars represent the total number of matter contracts created in the Universe."
      },
      "buttersOfNut(uint256,uint256)": {
        "notice": "buttersOfNut represents a list of all butter contracts created byt that nut. butterLocations represents the address of contract identifed by butterId. "
      },
      "newButter(uint256,uint256,uint256,bytes32)": {
        "notice": "Creating new butter means the creation of a contract where other users can withdraw matter from. Need to contribute butter (which can only be done if you have a Nut with the desired level of matter to give away. A secret message is provided in hash form and checked for verification to withdraw funds."
      },
      "spawnSeed(uint256,bytes32)": {
        "notice": "Called from CosmoNuts contract."
      }
    },
    "version": 1
  }
}