{
  "contractName": "CosmoBang",
  "abi": [
    {
      "inputs": [
        {
          "internalType": "address",
          "name": "_systemAddress",
          "type": "address"
        },
        {
          "internalType": "address",
          "name": "_matterAddress",
          "type": "address"
        }
      ],
      "name": "initialize",
      "outputs": [],
      "stateMutability": "nonpayable",
      "type": "function"
    },
    {
      "inputs": [
        {
          "internalType": "string",
          "name": "_name",
          "type": "string"
        },
        {
          "internalType": "string",
          "name": "_symbol",
          "type": "string"
        },
        {
          "internalType": "uint256",
          "name": "_supply",
          "type": "uint256"
        }
      ],
      "name": "createCosmo",
      "outputs": [
        {
          "internalType": "address",
          "name": "",
          "type": "address"
        }
      ],
      "stateMutability": "nonpayable",
      "type": "function"
    }
  ],
  "bytecode": "0x608060405234801561001057600080fd5b5061ae81806100206000396000f3fe60806040523480156200001157600080fd5b50600436106200003a5760003560e01c8063485cc955146200003f578063679d1149146200005f575b600080fd5b6200005d6004803603810190620000579190620002e2565b62000095565b005b6200007d6004803603810190620000779190620004c6565b62000120565b6040516200008c919062000571565b60405180910390f35b816000800160006101000a81548173ffffffffffffffffffffffffffffffffffffffff021916908373ffffffffffffffffffffffffffffffffffffffff16021790555080600060010160006101000a81548173ffffffffffffffffffffffffffffffffffffffff021916908373ffffffffffffffffffffffffffffffffffffffff1602179055505050565b6000806200012d62000147565b90506200013d85858584620001d7565b9150509392505050565b6000806000800160009054906101000a900473ffffffffffffffffffffffffffffffffffffffff16600060010160009054906101000a900473ffffffffffffffffffffffffffffffffffffffff16604051620001a3906200024d565b620001b09291906200058e565b604051809103906000f080158015620001cd573d6000803e3d6000fd5b5090508091505090565b6000808585856000800160009054906101000a900473ffffffffffffffffffffffffffffffffffffffff168660405162000211906200025b565b6200022195949392919062000655565b604051809103906000f0801580156200023e573d6000803e3d6000fd5b50905080915050949350505050565b614f6d80620006c183390190565b61581e806200562e83390190565b6000604051905090565b600080fd5b600080fd5b600073ffffffffffffffffffffffffffffffffffffffff82169050919050565b6000620002aa826200027d565b9050919050565b620002bc816200029d565b8114620002c857600080fd5b50565b600081359050620002dc81620002b1565b92915050565b60008060408385031215620002fc57620002fb62000273565b5b60006200030c85828601620002cb565b92505060206200031f85828601620002cb565b9150509250929050565b600080fd5b600080fd5b6000601f19601f8301169050919050565b7f4e487b7100000000000000000000000000000000000000000000000000000000600052604160045260246000fd5b6200037e8262000333565b810181811067ffffffffffffffff82111715620003a0576200039f62000344565b5b80604052505050565b6000620003b562000269565b9050620003c3828262000373565b919050565b600067ffffffffffffffff821115620003e657620003e562000344565b5b620003f18262000333565b9050602081019050919050565b82818337600083830152505050565b6000620004246200041e84620003c8565b620003a9565b9050828152602081018484840111156200044357620004426200032e565b5b62000450848285620003fe565b509392505050565b600082601f83011262000470576200046f62000329565b5b8135620004828482602086016200040d565b91505092915050565b6000819050919050565b620004a0816200048b565b8114620004ac57600080fd5b50565b600081359050620004c08162000495565b92915050565b600080600060608486031215620004e257620004e162000273565b5b600084013567ffffffffffffffff81111562000503576200050262000278565b5b620005118682870162000458565b935050602084013567ffffffffffffffff81111562000535576200053462000278565b5b620005438682870162000458565b92505060406200055686828701620004af565b9150509250925092565b6200056b816200029d565b82525050565b600060208201905062000588600083018462000560565b92915050565b6000604082019050620005a5600083018562000560565b620005b4602083018462000560565b9392505050565b600081519050919050565b600082825260208201905092915050565b60005b83811015620005f7578082015181840152602081019050620005da565b60008484015250505050565b60006200061082620005bb565b6200061c8185620005c6565b93506200062e818560208601620005d7565b620006398162000333565b840191505092915050565b6200064f816200048b565b82525050565b600060a082019050818103600083015262000671818862000603565b9050818103602083015262000687818762000603565b905062000698604083018662000644565b620006a7606083018562000560565b620006b6608083018462000560565b969550505050505056fe6080604052600080556000600755600060085560006009556000600f553480156200002957600080fd5b5060405162004f6d38038062004f6d83398181016040528101906200004f91906200018d565b81601260000160006101000a81548173ffffffffffffffffffffffffffffffffffffffff021916908373ffffffffffffffffffffffffffffffffffffffff16021790555080601260010160006101000a81548173ffffffffffffffffffffffffffffffffffffffff021916908373ffffffffffffffffffffffffffffffffffffffff16021790555030601260020160006101000a81548173ffffffffffffffffffffffffffffffffffffffff021916908373ffffffffffffffffffffffffffffffffffffffff1602179055505050620001d4565b600080fd5b600073ffffffffffffffffffffffffffffffffffffffff82169050919050565b6000620001558262000128565b9050919050565b620001678162000148565b81146200017357600080fd5b50565b60008151905062000187816200015c565b92915050565b60008060408385031215620001a757620001a662000123565b5b6000620001b78582860162000176565b9250506020620001ca8582860162000176565b9150509250929050565b614d8980620001e46000396000f3fe6080604052600436106200021e5760003560e01c80634ffe5a6f1162000127578063a06fc90b11620000af578063df4f5ccc1162000079578063df4f5ccc1462000933578063ea988be81462000963578063f50d43491462000993578063f6317f8d14620009d7578063fe774f9d1462000a07576200021e565b8063a06fc90b1462000834578063a83851b91462000878578063aef054ce14620008ab578063d4d8103214620008ef576200021e565b80639578d3df11620000f15780639578d3df146200073857806398d5fdca146200077c5780639975a8a214620007ac5780639cee22b114620007f0576200021e565b80634ffe5a6f146200062857806353f97bc8146200066c5780636b651a2c14620006b05780638ed3df0f14620006f4576200021e565b806323f526c011620001ab57806339dc84f4116200017557806339dc84f4146200052c5780633c8023ad146200057057806347634e1c14620005b457806349a6b51f14620005f8576200021e565b806323f526c0146200043057806326342ea41462000474578063282adc8c14620004a45780633279bd4f14620004e8576200021e565b8063171e844111620001ed578063171e844114620003205780631821907a14620003645780631c85949c14620003a85780631e0b396414620003ec576200021e565b806302760a48146200022357806303f5de9d14620002675780631298896e14620002ab57806315d3b7a014620002ef575b600080fd5b3480156200023057600080fd5b506200024f600480360381019062000249919062002223565b62000a3d565b6040516200025e919062002272565b60405180910390f35b3480156200027457600080fd5b506200029360048036038101906200028d9190620022ca565b62000a5d565b604051620002a2919062002272565b60405180910390f35b348015620002b857600080fd5b50620002d76004803603810190620002d191906200233c565b620011e6565b604051620002e6919062002394565b60405180910390f35b348015620002fc57600080fd5b506200030762001218565b60405162000317929190620023b1565b60405180910390f35b3480156200032d57600080fd5b506200034c600480360381019062000346919062002223565b6200122a565b6040516200035b919062002272565b60405180910390f35b3480156200037157600080fd5b506200039060048036038101906200038a919062002223565b6200124a565b6040516200039f919062002394565b60405180910390f35b348015620003b557600080fd5b50620003d46004803603810190620003ce919062002443565b62001262565b604051620003e3919062002272565b60405180910390f35b348015620003f957600080fd5b506200041860048036038101906200041291906200233c565b6200142c565b60405162000427919062002394565b60405180910390f35b3480156200043d57600080fd5b506200045c600480360381019062000456919062002223565b6200145e565b6040516200046b91906200249b565b60405180910390f35b3480156200048157600080fd5b506200048c62001491565b6040516200049b919062002394565b60405180910390f35b348015620004b157600080fd5b50620004d06004803603810190620004ca919062002223565b62001497565b604051620004df919062002394565b60405180910390f35b348015620004f557600080fd5b506200051460048036038101906200050e919062002223565b620014b7565b60405162000523919062002394565b60405180910390f35b3480156200053957600080fd5b5062000558600480360381019062000552919062002223565b620014cf565b6040516200056791906200249b565b60405180910390f35b3480156200057d57600080fd5b506200059c60048036038101906200059691906200233c565b62001502565b604051620005ab919062002394565b60405180910390f35b348015620005c157600080fd5b50620005e06004803603810190620005da919062002223565b62001534565b604051620005ef919062002394565b60405180910390f35b3480156200060557600080fd5b50620006106200154c565b6040516200061f919062002394565b60405180910390f35b3480156200063557600080fd5b506200065460048036038101906200064e919062002223565b62001552565b60405162000663919062002394565b60405180910390f35b3480156200067957600080fd5b506200069860048036038101906200069291906200233c565b6200156a565b604051620006a7919062002272565b60405180910390f35b348015620006bd57600080fd5b50620006dc6004803603810190620006d6919062002223565b62001599565b604051620006eb919062002394565b60405180910390f35b3480156200070157600080fd5b506200072060048036038101906200071a919062002223565b620015b9565b6040516200072f919062002394565b60405180910390f35b3480156200074557600080fd5b506200076460048036038101906200075e919062002223565b620015d4565b60405162000773919062002394565b60405180910390f35b3480156200078957600080fd5b5062000794620015f9565b604051620007a3919062002394565b60405180910390f35b348015620007b957600080fd5b50620007d86004803603810190620007d2919062002223565b62001606565b604051620007e7919062002394565b60405180910390f35b348015620007fd57600080fd5b506200081c6004803603810190620008169190620024b8565b62001626565b6040516200082b919062002272565b60405180910390f35b3480156200084157600080fd5b506200086060048036038101906200085a91906200233c565b62001760565b6040516200086f919062002272565b60405180910390f35b3480156200088557600080fd5b506200089062001a16565b604051620008a294939291906200252a565b60405180910390f35b348015620008b857600080fd5b50620008d76004803603810190620008d1919062002223565b62001ab4565b604051620008e691906200249b565b60405180910390f35b348015620008fc57600080fd5b506200091b600480360381019062000915919062002223565b62001ae7565b6040516200092a919062002394565b60405180910390f35b3480156200094057600080fd5b506200094b62001aff565b6040516200095a919062002394565b60405180910390f35b3480156200097057600080fd5b506200097b62001b05565b6040516200098a919062002394565b60405180910390f35b348015620009a057600080fd5b50620009bf6004803603810190620009b9919062002223565b62001b0b565b604051620009ce919062002394565b60405180910390f35b348015620009e457600080fd5b50620009ef62001b23565b604051620009fe919062002394565b60405180910390f35b62000a25600480360381019062000a1f919062002577565b62001b29565b60405162000a34919062002272565b60405180910390f35b60116020528060005260406000206000915054906101000a900460ff1681565b6000806018600087815260200190815260200160002060009054906101000a900473ffffffffffffffffffffffffffffffffffffffff1690503373ffffffffffffffffffffffffffffffffffffffff168173ffffffffffffffffffffffffffffffffffffffff161462000b07576040517f08c379a000000000000000000000000000000000000000000000000000000000815260040162000afe906200261f565b60405180910390fd5b846019600088815260200190815260200160002054101562000b60576040517f08c379a000000000000000000000000000000000000000000000000000000000815260040162000b579062002691565b60405180910390fd5b6000601260010160009054906101000a900473ffffffffffffffffffffffffffffffffffffffff1690508073ffffffffffffffffffffffffffffffffffffffff166370a08231836040518263ffffffff1660e01b815260040162000bc591906200249b565b602060405180830381865afa15801562000be3573d6000803e3d6000fd5b505050506040513d601f19601f8201168201806040525081019062000c099190620026ca565b86111562000c4e576040517f08c379a000000000000000000000000000000000000000000000000000000000815260040162000c45906200274c565b60405180910390fd5b6000858762000c5e91906200279d565b1462000ca1576040517f08c379a000000000000000000000000000000000000000000000000000000000815260040162000c989062002825565b60405180910390fd5b600062000cae8862001599565b111562000d265785600f600082825462000cc9919062002876565b925050819055508560106000898152602001908152602001600020600082825462000cf5919062002876565b92505081905550601a8790806001815401808255809150506001900390600052602060002001600090919091909150555b60008173ffffffffffffffffffffffffffffffffffffffff166370a08231601260020160009054906101000a900473ffffffffffffffffffffffffffffffffffffffff166040518263ffffffff1660e01b815260040162000d8891906200249b565b602060405180830381865afa15801562000da6573d6000803e3d6000fd5b505050506040513d601f19601f8201168201806040525081019062000dcc9190620026ca565b90506000811115620010d457600062000de882600f5462001e01565b90506000805b8281146200102a576000601a8054905090506000810362000e1057506200102a565b8082111562000e1e57600092505b6000601a848154811062000e375762000e36620028b1565b5b9060005260206000200154905060006018600083815260200190815260200160002060009054906101000a900473ffffffffffffffffffffffffffffffffffffffff169050600060166001015462000e8f8462001599565b62000e9b9190620028e0565b90508060196000858152602001908152602001600020540362000ee357601a868154811062000ecf5762000ece620028b1565b5b906000526020600020016000905562001000565b8873ffffffffffffffffffffffffffffffffffffffff1663a9059cbb8360016040518363ffffffff1660e01b815260040162000f2192919062002978565b6020604051808303816000875af115801562000f41573d6000803e3d6000fd5b505050506040513d601f19601f8201168201806040525081019062000f679190620029d6565b50601a839080600181540180825580915050600190039060005260206000200160009091909190915055601a868154811062000fa85762000fa7620028b1565b5b90600052602060002001600090556001600f600082825462000fcb919062002a08565b92505081905550600160106000858152602001908152602001600020600082825462000ff8919062002a08565b925050819055505b85806200100d9062002a43565b965050505050508080620010219062002a43565b91505062000dee565b508373ffffffffffffffffffffffffffffffffffffffff166370a08231601260020160009054906101000a900473ffffffffffffffffffffffffffffffffffffffff166040518263ffffffff1660e01b81526004016200108b91906200249b565b602060405180830381865afa158015620010a9573d6000803e3d6000fd5b505050506040513d601f19601f82011682018060405250810190620010cf9190620026ca565b925050505b6000600954898989601260020160009054906101000a900473ffffffffffffffffffffffffffffffffffffffff168a6040516200111190620021c7565b620011229695949392919062002aa1565b604051809103906000f0801580156200113f573d6000803e3d6000fd5b5090508273ffffffffffffffffffffffffffffffffffffffff1663a9059cbb828a6040518363ffffffff1660e01b81526004016200117f92919062002b0e565b6020604051808303816000875af11580156200119f573d6000803e3d6000fd5b505050506040513d601f19601f82011682018060405250810190620011c59190620029d6565b50620011d689600954838b62001e1c565b6001945050505050949350505050565b600260205281600052604060002081815481106200120357600080fd5b90600052602060002001600091509150505481565b60168060000154908060010154905082565b60066020528060005260406000206000915054906101000a900460ff1681565b600d6020528060005260406000206000915090505481565b600080601260010160009054906101000a900473ffffffffffffffffffffffffffffffffffffffff1690506016600101548173ffffffffffffffffffffffffffffffffffffffff166370a08231601260020160009054906101000a900473ffffffffffffffffffffffffffffffffffffffff166040518263ffffffff1660e01b8152600401620012f391906200249b565b602060405180830381865afa15801562001311573d6000803e3d6000fd5b505050506040513d601f19601f82011682018060405250810190620013379190620026ca565b10156200137b576040517f08c379a0000000000000000000000000000000000000000000000000000000008152600401620013729062002b8b565b60405180910390fd5b8073ffffffffffffffffffffffffffffffffffffffff1663a9059cbb856016600101546040518363ffffffff1660e01b8152600401620013bd92919062002b0e565b6020604051808303816000875af1158015620013dd573d6000803e3d6000fd5b505050506040513d601f19601f82011682018060405250810190620014039190620029d6565b506016600101546019600085815260200190815260200160002081905550600191505092915050565b600a60205281600052604060002081815481106200144957600080fd5b90600052602060002001600091509150505481565b60056020528060005260406000206000915054906101000a900473ffffffffffffffffffffffffffffffffffffffff1681565b60095481565b6000600a6000838152602001908152602001600020805490509050919050565b600c6020528060005260406000206000915090505481565b60186020528060005260406000206000915054906101000a900473ffffffffffffffffffffffffffffffffffffffff1681565b600160205281600052604060002081815481106200151f57600080fd5b90600052602060002001600091509150505481565b600e6020528060005260406000206000915090505481565b60085481565b60106020528060005260406000206000915090505481565b60046020528160005260406000206020528060005260406000206000915091509054906101000a900460ff1681565b600060026000838152602001908152602001600020805490509050919050565b6000620015c68262001606565b601660010154189050919050565b601a8181548110620015e557600080fd5b906000526020600020016000915090505481565b6000601660000154905090565b600060016000838152602001908152602001600020805490509050919050565b600080601260010160009054906101000a900473ffffffffffffffffffffffffffffffffffffffff1690508073ffffffffffffffffffffffffffffffffffffffff1663a9059cbb87866040518363ffffffff1660e01b81526004016200168e92919062002b0e565b6020604051808303816000875af1158015620016ae573d6000803e3d6000fd5b505050506040513d601f19601f82011682018060405250810190620016d49190620029d6565b508073ffffffffffffffffffffffffffffffffffffffff16634bbc1bcd30866040518363ffffffff1660e01b81526004016200171292919062002b0e565b600060405180830381600087803b1580156200172d57600080fd5b505af115801562001742573d6000803e3d6000fd5b505050506200175385858562001f55565b6001915050949350505050565b6000806005600085815260200190815260200160002060009054906101000a900473ffffffffffffffffffffffffffffffffffffffff1690508073ffffffffffffffffffffffffffffffffffffffff163373ffffffffffffffffffffffffffffffffffffffff16146200180a576040517f08c379a0000000000000000000000000000000000000000000000000000000008152600401620018019062002c23565b60405180910390fd5b60008190506000601860008373ffffffffffffffffffffffffffffffffffffffff1663685771f46040518163ffffffff1660e01b8152600401602060405180830381865afa15801562001861573d6000803e3d6000fd5b505050506040513d601f19601f82011682018060405250810190620018879190620026ca565b815260200190815260200160002060009054906101000a900473ffffffffffffffffffffffffffffffffffffffff1690506000601260010160009054906101000a900473ffffffffffffffffffffffffffffffffffffffff1690508073ffffffffffffffffffffffffffffffffffffffff1663a9059cbb83886040518363ffffffff1660e01b81526004016200191f92919062002b0e565b6020604051808303816000875af11580156200193f573d6000803e3d6000fd5b505050506040513d601f19601f82011682018060405250810190620019659190620029d6565b508073ffffffffffffffffffffffffffffffffffffffff16634bbc1bcd601260020160009054906101000a900473ffffffffffffffffffffffffffffffffffffffff1660016040518363ffffffff1660e01b8152600401620019c992919062002978565b600060405180830381600087803b158015620019e457600080fd5b505af1158015620019f9573d6000803e3d6000fd5b5050505062001a088762002018565b600194505050505092915050565b60128060000160009054906101000a900473ffffffffffffffffffffffffffffffffffffffff16908060010160009054906101000a900473ffffffffffffffffffffffffffffffffffffffff16908060020160009054906101000a900473ffffffffffffffffffffffffffffffffffffffff16908060030160009054906101000a900473ffffffffffffffffffffffffffffffffffffffff16905084565b600b6020528060005260406000206000915054906101000a900473ffffffffffffffffffffffffffffffffffffffff1681565b60036020528060005260406000206000915090505481565b600f5481565b60005481565b60196020528060005260406000206000915090505481565b60075481565b60008062001b378462001599565b6016600001541890508034101562001b86576040517f08c379a000000000000000000000000000000000000000000000000000000000815260040162001b7d9062002c95565b60405180910390fd5b6000601260010160009054906101000a900473ffffffffffffffffffffffffffffffffffffffff169050600062001bbd86620015b9565b905060008273ffffffffffffffffffffffffffffffffffffffff166370a08231601860008a815260200190815260200160002060009054906101000a900473ffffffffffffffffffffffffffffffffffffffff166040518263ffffffff1660e01b815260040162001c2f91906200249b565b602060405180830381865afa15801562001c4d573d6000803e3d6000fd5b505050506040513d601f19601f8201168201806040525081019062001c739190620026ca565b90508181101562001cbb576040517f08c379a000000000000000000000000000000000000000000000000000000000815260040162001cb29062002d07565b60405180910390fd5b600080548830601260030160009054906101000a900473ffffffffffffffffffffffffffffffffffffffff168a60405162001cf690620021d5565b62001d0695949392919062002d29565b604051809103906000f08015801562001d23573d6000803e3d6000fd5b509050600081905062001d3a89600054836200209a565b8473ffffffffffffffffffffffffffffffffffffffff166342966c68856040518263ffffffff1660e01b815260040162001d75919062002394565b600060405180830381600087803b15801562001d9057600080fd5b505af115801562001da5573d6000803e3d6000fd5b505050508073ffffffffffffffffffffffffffffffffffffffff166108fc349081150290604051600060405180830381858888f1935050505015801562001df0573d6000803e3d6000fd5b506001965050505050505092915050565b600081831062001e12578162001e14565b825b905092915050565b60016009600082825462001e31919062002876565b92505081905550806007600082825462001e4c919062002876565b92505081905550600a600085815260200190815260200160002083908060018154018082558091505060019003906000526020600020016000909190919091505580600d6000868152602001908152602001600020600082825462001eb2919062002876565b9250508190555081600b600086815260200190815260200160002060006101000a81548173ffffffffffffffffffffffffffffffffffffffff021916908373ffffffffffffffffffffffffffffffffffffffff16021790555060016011600086815260200190815260200160002060006101000a81548160ff02191690831515021790555083600e60008581526020019081526020016000208190555050505050565b816007600082825462001f69919062002a08565b92505081905550816008600082825462001f84919062002876565b925050819055506000600e600085815260200190815260200160002054905082600c6000838152602001908152602001600020600082825462001fc8919062002876565b925050819055506000838362001fdf919062002a08565b03620020125760006011600086815260200190815260200160002060006101000a81548160ff0219169083151502179055505b50505050565b6000600360008381526020019081526020016000205490506002600082815260200190815260200160002082908060018154018082558091505060019003906000526020600020016000909190919091505560006006600083815260200190815260200160002060006101000a81548160ff0219169083151502179055505050565b82600360008481526020019081526020016000208190555060016000848152602001908152602001600020829080600181540180825580915050600190039060005260206000200160009091909190915055600160046000848152602001908152602001600020600085815260200190815260200160002060006101000a81548160ff021916908315150217905550806005600084815260200190815260200160002060006101000a81548173ffffffffffffffffffffffffffffffffffffffff021916908373ffffffffffffffffffffffffffffffffffffffff16021790555060016000808282546200218f919062002876565b9250508190555060016006600085815260200190815260200160002060006101000a81548160ff021916908315150217905550505050565b610daa8062002d8783390190565b6112238062003b3183390190565b600080fd5b6000819050919050565b620021fd81620021e8565b81146200220957600080fd5b50565b6000813590506200221d81620021f2565b92915050565b6000602082840312156200223c576200223b620021e3565b5b60006200224c848285016200220c565b91505092915050565b60008115159050919050565b6200226c8162002255565b82525050565b600060208201905062002289600083018462002261565b92915050565b6000819050919050565b620022a4816200228f565b8114620022b057600080fd5b50565b600081359050620022c48162002299565b92915050565b60008060008060808587031215620022e757620022e6620021e3565b5b6000620022f7878288016200220c565b94505060206200230a878288016200220c565b93505060406200231d878288016200220c565b92505060606200233087828801620022b3565b91505092959194509250565b60008060408385031215620023565762002355620021e3565b5b600062002366858286016200220c565b925050602062002379858286016200220c565b9150509250929050565b6200238e81620021e8565b82525050565b6000602082019050620023ab600083018462002383565b92915050565b6000604082019050620023c8600083018562002383565b620023d7602083018462002383565b9392505050565b600073ffffffffffffffffffffffffffffffffffffffff82169050919050565b60006200240b82620023de565b9050919050565b6200241d81620023fe565b81146200242957600080fd5b50565b6000813590506200243d8162002412565b92915050565b600080604083850312156200245d576200245c620021e3565b5b60006200246d858286016200242c565b925050602062002480858286016200220c565b9150509250929050565b6200249581620023fe565b82525050565b6000602082019050620024b260008301846200248a565b92915050565b60008060008060808587031215620024d557620024d4620021e3565b5b6000620024e5878288016200242c565b9450506020620024f8878288016200220c565b93505060406200250b878288016200220c565b92505060606200251e878288016200220c565b91505092959194509250565b60006080820190506200254160008301876200248a565b6200255060208301866200248a565b6200255f60408301856200248a565b6200256e60608301846200248a565b95945050505050565b60008060408385031215620025915762002590620021e3565b5b6000620025a1858286016200220c565b9250506020620025b485828601620022b3565b9150509250929050565b600082825260208201905092915050565b7f43616c6c6572206973206e6f7420746865206f776e6572000000000000000000600082015250565b600062002607601783620025be565b91506200261482620025cf565b602082019050919050565b600060208201905081810360008301526200263a81620025f8565b9050919050565b7f4e6f74206861766520656e6f756768206d617474657200000000000000000000600082015250565b600062002679601683620025be565b9150620026868262002641565b602082019050919050565b60006020820190508181036000830152620026ac816200266a565b9050919050565b600081519050620026c481620021f2565b92915050565b600060208284031215620026e357620026e2620021e3565b5b6000620026f384828501620026b3565b91505092915050565b7f4e6f74206869676820656e6f7567680000000000000000000000000000000000600082015250565b600062002734600f83620025be565b91506200274182620026fc565b602082019050919050565b60006020820190508181036000830152620027678162002725565b9050919050565b7f4e487b7100000000000000000000000000000000000000000000000000000000600052601260045260246000fd5b6000620027aa82620021e8565b9150620027b783620021e8565b925082620027ca57620027c96200276e565b5b828206905092915050565b7f447261772072617465206e6f7420646976697369626c65000000000000000000600082015250565b60006200280d601783620025be565b91506200281a82620027d5565b602082019050919050565b600060208201905081810360008301526200284081620027fe565b9050919050565b7f4e487b7100000000000000000000000000000000000000000000000000000000600052601160045260246000fd5b60006200288382620021e8565b91506200289083620021e8565b9250828201905080821115620028ab57620028aa62002847565b5b92915050565b7f4e487b7100000000000000000000000000000000000000000000000000000000600052603260045260246000fd5b6000620028ed82620021e8565b9150620028fa83620021e8565b92508282026200290a81620021e8565b9150828204841483151762002924576200292362002847565b5b5092915050565b6000819050919050565b6000819050919050565b6000620029606200295a62002954846200292b565b62002935565b620021e8565b9050919050565b62002972816200293f565b82525050565b60006040820190506200298f60008301856200248a565b6200299e602083018462002967565b9392505050565b620029b08162002255565b8114620029bc57600080fd5b50565b600081519050620029d081620029a5565b92915050565b600060208284031215620029ef57620029ee620021e3565b5b6000620029ff84828501620029bf565b91505092915050565b600062002a1582620021e8565b915062002a2283620021e8565b925082820390508181111562002a3d5762002a3c62002847565b5b92915050565b600062002a5082620021e8565b91507fffffffffffffffffffffffffffffffffffffffffffffffffffffffffffffffff820362002a855762002a8462002847565b5b600182019050919050565b62002a9b816200228f565b82525050565b600060c08201905062002ab8600083018962002383565b62002ac7602083018862002383565b62002ad6604083018762002383565b62002ae5606083018662002383565b62002af460808301856200248a565b62002b0360a083018462002a90565b979650505050505050565b600060408201905062002b2560008301856200248a565b62002b34602083018462002383565b9392505050565b7f4e6f7420656e6f756768206d6174746572000000000000000000000000000000600082015250565b600062002b73601183620025be565b915062002b808262002b3b565b602082019050919050565b6000602082019050818103600083015262002ba68162002b64565b9050919050565b7f43616c6c6572206973206e6f742074686520726967687420436f736d6f53656560008201527f6420636f6e747261637400000000000000000000000000000000000000000000602082015250565b600062002c0b602a83620025be565b915062002c188262002bad565b604082019050919050565b6000602082019050818103600083015262002c3e8162002bfc565b9050919050565b7f45746865722076616c7565206973206e6f7420656e6f75676800000000000000600082015250565b600062002c7d601983620025be565b915062002c8a8262002c45565b602082019050919050565b6000602082019050818103600083015262002cb08162002c6e565b9050919050565b7f4d61747465722062616c616e6365206973206e6f7420656e6f75676800000000600082015250565b600062002cef601c83620025be565b915062002cfc8262002cb7565b602082019050919050565b6000602082019050818103600083015262002d228162002ce0565b9050919050565b600060a08201905062002d40600083018862002383565b62002d4f602083018762002383565b62002d5e60408301866200248a565b62002d6d60608301856200248a565b62002d7c608083018462002a90565b969550505050505056fe60806040523480156200001157600080fd5b5060405162000daa38038062000daa833981810160405281019062000037919062000283565b85600080018190555084600060010181905550836000600201819055508260006003018190555030600060040160006101000a81548173ffffffffffffffffffffffffffffffffffffffff021916908373ffffffffffffffffffffffffffffffffffffffff16021790555033600060050160006101000a81548173ffffffffffffffffffffffffffffffffffffffff021916908373ffffffffffffffffffffffffffffffffffffffff16021790555080600060060181905550600060050160009054906101000a900473ffffffffffffffffffffffffffffffffffffffff16600860006101000a81548173ffffffffffffffffffffffffffffffffffffffff021916908373ffffffffffffffffffffffffffffffffffffffff16021790555081600960006101000a81548173ffffffffffffffffffffffffffffffffffffffff021916908373ffffffffffffffffffffffffffffffffffffffff1602179055505050505050506200031f565b600080fd5b6000819050919050565b620001bd81620001a8565b8114620001c957600080fd5b50565b600081519050620001dd81620001b2565b92915050565b600073ffffffffffffffffffffffffffffffffffffffff82169050919050565b60006200021082620001e3565b9050919050565b620002228162000203565b81146200022e57600080fd5b50565b600081519050620002428162000217565b92915050565b6000819050919050565b6200025d8162000248565b81146200026957600080fd5b50565b6000815190506200027d8162000252565b92915050565b60008060008060008060c08789031215620002a357620002a2620001a3565b5b6000620002b389828a01620001cc565b9650506020620002c689828a01620001cc565b9550506040620002d989828a01620001cc565b9450506060620002ec89828a01620001cc565b9350506080620002ff89828a0162000231565b92505060a06200031289828a016200026c565b9150509295509295509295565b610a7b806200032f6000396000f3fe608060405234801561001057600080fd5b506004361061002b5760003560e01c806327ac1b6514610030575b600080fd5b61004a60048036038101906100459190610587565b61004c565b005b60011515600060070160003373ffffffffffffffffffffffffffffffffffffffff1673ffffffffffffffffffffffffffffffffffffffff16815260200190815260200160002060009054906101000a900460ff161515036100e2576040517f08c379a00000000000000000000000000000000000000000000000000000000081526004016100d99061068b565b60405180910390fd5b6000806002015411610129576040517f08c379a0000000000000000000000000000000000000000000000000000000008152600401610120906106f7565b60405180910390fd5b6101328361030f565b50600960009054906101000a900473ffffffffffffffffffffffffffffffffffffffff1673ffffffffffffffffffffffffffffffffffffffff16639cee22b13360008001546000600301546000600201546040518563ffffffff1660e01b81526004016101a29493929190610771565b6020604051808303816000875af11580156101c1573d6000803e3d6000fd5b505050506040513d601f19601f820116820180604052508101906101e591906107ee565b5060006003015460006002016000828254610200919061084a565b925050819055506001600060070160003373ffffffffffffffffffffffffffffffffffffffff1673ffffffffffffffffffffffffffffffffffffffff16815260200190815260200160002060006101000a81548160ff021916908315150217905550600860009054906101000a900473ffffffffffffffffffffffffffffffffffffffff1673ffffffffffffffffffffffffffffffffffffffff16639202c1ec60006001015484846040518463ffffffff1660e01b81526004016102c693929190610941565b6020604051808303816000875af11580156102e5573d6000803e3d6000fd5b505050506040513d601f19601f8201168201806040525081019061030991906107ee565b50505050565b6000808260405160200161032391906109c2565b6040516020818303038152906040528051906020012090506000600601548114610382576040517f08c379a000000000000000000000000000000000000000000000000000000000815260040161037990610a25565b60405180910390fd5b6001915050919050565b6000604051905090565b600080fd5b600080fd5b600080fd5b600080fd5b6000601f19601f8301169050919050565b7f4e487b7100000000000000000000000000000000000000000000000000000000600052604160045260246000fd5b6103f3826103aa565b810181811067ffffffffffffffff82111715610412576104116103bb565b5b80604052505050565b600061042561038c565b905061043182826103ea565b919050565b600067ffffffffffffffff821115610451576104506103bb565b5b61045a826103aa565b9050602081019050919050565b82818337600083830152505050565b600061048961048484610436565b61041b565b9050828152602081018484840111156104a5576104a46103a5565b5b6104b0848285610467565b509392505050565b600082601f8301126104cd576104cc6103a0565b5b81356104dd848260208601610476565b91505092915050565b600067ffffffffffffffff821115610501576105006103bb565b5b61050a826103aa565b9050602081019050919050565b600061052a610525846104e6565b61041b565b905082815260208101848484011115610546576105456103a5565b5b610551848285610467565b509392505050565b600082601f83011261056e5761056d6103a0565b5b813561057e848260208601610517565b91505092915050565b6000806000606084860312156105a05761059f610396565b5b600084013567ffffffffffffffff8111156105be576105bd61039b565b5b6105ca868287016104b8565b935050602084013567ffffffffffffffff8111156105eb576105ea61039b565b5b6105f7868287016104b8565b925050604084013567ffffffffffffffff8111156106185761061761039b565b5b61062486828701610559565b9150509250925092565b600082825260208201905092915050565b7f43616e206f6e6c792064726177206f6e63650000000000000000000000000000600082015250565b600061067560128361062e565b91506106808261063f565b602082019050919050565b600060208201905081810360008301526106a481610668565b9050919050565b7f4e6f2062757474657220746f2064726177000000000000000000000000000000600082015250565b60006106e160118361062e565b91506106ec826106ab565b602082019050919050565b60006020820190508181036000830152610710816106d4565b9050919050565b600073ffffffffffffffffffffffffffffffffffffffff82169050919050565b600061074282610717565b9050919050565b61075281610737565b82525050565b6000819050919050565b61076b81610758565b82525050565b60006080820190506107866000830187610749565b6107936020830186610762565b6107a06040830185610762565b6107ad6060830184610762565b95945050505050565b60008115159050919050565b6107cb816107b6565b81146107d657600080fd5b50565b6000815190506107e8816107c2565b92915050565b60006020828403121561080457610803610396565b5b6000610812848285016107d9565b91505092915050565b7f4e487b7100000000000000000000000000000000000000000000000000000000600052601160045260246000fd5b600061085582610758565b915061086083610758565b92508282039050818111156108785761087761081b565b5b92915050565b600081519050919050565b60005b838110156108a757808201518184015260208101905061088c565b60008484015250505050565b60006108be8261087e565b6108c8818561062e565b93506108d8818560208601610889565b6108e1816103aa565b840191505092915050565b600081519050919050565b600082825260208201905092915050565b6000610913826108ec565b61091d81856108f7565b935061092d818560208601610889565b610936816103aa565b840191505092915050565b60006060820190506109566000830186610762565b818103602083015261096881856108b3565b9050818103604083015261097c8184610908565b9050949350505050565b600081905092915050565b600061099c8261087e565b6109a68185610986565b93506109b6818560208601610889565b80840191505092915050565b60006109ce8284610991565b915081905092915050565b7f496e70757420646f6573206e6f74206d61746368207365637265740000000000600082015250565b6000610a0f601b8361062e565b9150610a1a826109d9565b602082019050919050565b60006020820190508181036000830152610a3e81610a02565b905091905056fea2646970667358221220cea9116840c015711fcda7ef4fb50300af411142463ab8de13b8018e404ed0e064736f6c634300081100336080604052604051620012233803806200122383398181016040528101906200002991906200028f565b84600080018190555083600060010181905550346000600201819055508273ffffffffffffffffffffffffffffffffffffffff16638ed3df0f856040518263ffffffff1660e01b815260040162000081919062000328565b602060405180830381865afa1580156200009f573d6000803e3d6000fd5b505050506040513d601f19601f82011682018060405250810190620000c5919062000345565b60006003018190555030600060040160006101000a81548173ffffffffffffffffffffffffffffffffffffffff021916908373ffffffffffffffffffffffffffffffffffffffff16021790555082600060050160006101000a81548173ffffffffffffffffffffffffffffffffffffffff021916908373ffffffffffffffffffffffffffffffffffffffff16021790555081600060060160006101000a81548173ffffffffffffffffffffffffffffffffffffffff021916908373ffffffffffffffffffffffffffffffffffffffff16021790555080600060070181905550505050505062000377565b600080fd5b6000819050919050565b620001c981620001b4565b8114620001d557600080fd5b50565b600081519050620001e981620001be565b92915050565b600073ffffffffffffffffffffffffffffffffffffffff82169050919050565b60006200021c82620001ef565b9050919050565b6200022e816200020f565b81146200023a57600080fd5b50565b6000815190506200024e8162000223565b92915050565b6000819050919050565b620002698162000254565b81146200027557600080fd5b50565b60008151905062000289816200025e565b92915050565b600080600080600060a08688031215620002ae57620002ad620001af565b5b6000620002be88828901620001d8565b9550506020620002d188828901620001d8565b9450506040620002e4888289016200023d565b9350506060620002f7888289016200023d565b92505060806200030a8882890162000278565b9150509295509295909350565b6200032281620001b4565b82525050565b60006020820190506200033f600083018462000317565b92915050565b6000602082840312156200035e576200035d620001af565b5b60006200036e84828501620001d8565b91505092915050565b610e9c80620003876000396000f3fe608060405234801561001057600080fd5b506004361061004c5760003560e01c8063685771f4146100515780637d94792a1461006f578063956c2dc314610094578063c5d12c97146100b0575b600080fd5b6100596100ce565b6040516100669190610646565b60405180910390f35b6100776100da565b60405161008b9897969594939291906106bb565b60405180910390f35b6100ae60048036038101906100a99190610934565b610170565b005b6100b86105a4565b6040516100c59190610646565b60405180910390f35b60008060010154905090565b60008060000154908060010154908060020154908060030154908060040160009054906101000a900473ffffffffffffffffffffffffffffffffffffffff16908060050160009054906101000a900473ffffffffffffffffffffffffffffffffffffffff16908060060160009054906101000a900473ffffffffffffffffffffffffffffffffffffffff16908060070154905088565b610179836105b0565b50600060050160009054906101000a900473ffffffffffffffffffffffffffffffffffffffff1673ffffffffffffffffffffffffffffffffffffffff1663a06fc90b60008001546000600301546040518363ffffffff1660e01b81526004016101e39291906109db565b6020604051808303816000875af1158015610202573d6000803e3d6000fd5b505050506040513d601f19601f820116820180604052508101906102269190610a3c565b50600060060160009054906101000a900473ffffffffffffffffffffffffffffffffffffffff1673ffffffffffffffffffffffffffffffffffffffff1663a0e12efe83836040518363ffffffff1660e01b8152600401610287929190610b3d565b6020604051808303816000875af11580156102a6573d6000803e3d6000fd5b505050506040513d601f19601f820116820180604052508101906102ca9190610a3c565b5060008060050160009054906101000a900473ffffffffffffffffffffffffffffffffffffffff1673ffffffffffffffffffffffffffffffffffffffff166398d5fdca6040518163ffffffff1660e01b8152600401602060405180830381865afa15801561033c573d6000803e3d6000fd5b505050506040513d601f19601f820116820180604052508101906103609190610ba0565b905060008060050160009054906101000a900473ffffffffffffffffffffffffffffffffffffffff1673ffffffffffffffffffffffffffffffffffffffff16826040516103ac90610bfe565b60006040518083038185875af1925050503d80600081146103e9576040519150601f19603f3d011682016040523d82523d6000602084013e6103ee565b606091505b5050905080610432576040517f08c379a000000000000000000000000000000000000000000000000000000000815260040161042990610c5f565b60405180910390fd5b6000826000600201546104459190610cae565b905060008060060160009054906101000a900473ffffffffffffffffffffffffffffffffffffffff1673ffffffffffffffffffffffffffffffffffffffff1663836387106000600101546040518263ffffffff1660e01b81526004016104ab9190610646565b602060405180830381865afa1580156104c8573d6000803e3d6000fd5b505050506040513d601f19601f820116820180604052508101906104ec9190610d0e565b905060008173ffffffffffffffffffffffffffffffffffffffff168360405161051490610bfe565b60006040518083038185875af1925050503d8060008114610551576040519150601f19603f3d011682016040523d82523d6000602084013e610556565b606091505b505090508061059a576040517f08c379a000000000000000000000000000000000000000000000000000000000815260040161059190610d87565b60405180910390fd5b5050505050505050565b60008060030154905090565b600080826040516020016105c49190610de3565b6040516020818303038152906040528051906020012090506000600701548114610623576040517f08c379a000000000000000000000000000000000000000000000000000000000815260040161061a90610e46565b60405180910390fd5b6001915050919050565b6000819050919050565b6106408161062d565b82525050565b600060208201905061065b6000830184610637565b92915050565b600073ffffffffffffffffffffffffffffffffffffffff82169050919050565b600061068c82610661565b9050919050565b61069c81610681565b82525050565b6000819050919050565b6106b5816106a2565b82525050565b6000610100820190506106d1600083018b610637565b6106de602083018a610637565b6106eb6040830189610637565b6106f86060830188610637565b6107056080830187610693565b61071260a0830186610693565b61071f60c0830185610693565b61072c60e08301846106ac565b9998505050505050505050565b6000604051905090565b600080fd5b600080fd5b600080fd5b600080fd5b6000601f19601f8301169050919050565b7f4e487b7100000000000000000000000000000000000000000000000000000000600052604160045260246000fd5b6107a082610757565b810181811067ffffffffffffffff821117156107bf576107be610768565b5b80604052505050565b60006107d2610739565b90506107de8282610797565b919050565b600067ffffffffffffffff8211156107fe576107fd610768565b5b61080782610757565b9050602081019050919050565b82818337600083830152505050565b6000610836610831846107e3565b6107c8565b90508281526020810184848401111561085257610851610752565b5b61085d848285610814565b509392505050565b600082601f83011261087a5761087961074d565b5b813561088a848260208601610823565b91505092915050565b600067ffffffffffffffff8211156108ae576108ad610768565b5b6108b782610757565b9050602081019050919050565b60006108d76108d284610893565b6107c8565b9050828152602081018484840111156108f3576108f2610752565b5b6108fe848285610814565b509392505050565b600082601f83011261091b5761091a61074d565b5b813561092b8482602086016108c4565b91505092915050565b60008060006060848603121561094d5761094c610743565b5b600084013567ffffffffffffffff81111561096b5761096a610748565b5b61097786828701610865565b935050602084013567ffffffffffffffff81111561099857610997610748565b5b6109a486828701610865565b925050604084013567ffffffffffffffff8111156109c5576109c4610748565b5b6109d186828701610906565b9150509250925092565b60006040820190506109f06000830185610637565b6109fd6020830184610637565b9392505050565b60008115159050919050565b610a1981610a04565b8114610a2457600080fd5b50565b600081519050610a3681610a10565b92915050565b600060208284031215610a5257610a51610743565b5b6000610a6084828501610a27565b91505092915050565b600081519050919050565b600082825260208201905092915050565b60005b83811015610aa3578082015181840152602081019050610a88565b60008484015250505050565b6000610aba82610a69565b610ac48185610a74565b9350610ad4818560208601610a85565b610add81610757565b840191505092915050565b600081519050919050565b600082825260208201905092915050565b6000610b0f82610ae8565b610b198185610af3565b9350610b29818560208601610a85565b610b3281610757565b840191505092915050565b60006040820190508181036000830152610b578185610aaf565b90508181036020830152610b6b8184610b04565b90509392505050565b610b7d8161062d565b8114610b8857600080fd5b50565b600081519050610b9a81610b74565b92915050565b600060208284031215610bb657610bb5610743565b5b6000610bc484828501610b8b565b91505092915050565b600081905092915050565b50565b6000610be8600083610bcd565b9150610bf382610bd8565b600082019050919050565b6000610c0982610bdb565b9150819050919050565b7f4574686572206e6f742073656e7420746f205472656173757279000000000000600082015250565b6000610c49601a83610a74565b9150610c5482610c13565b602082019050919050565b60006020820190508181036000830152610c7881610c3c565b9050919050565b7f4e487b7100000000000000000000000000000000000000000000000000000000600052601160045260246000fd5b6000610cb98261062d565b9150610cc48361062d565b9250828203905081811115610cdc57610cdb610c7f565b5b92915050565b610ceb81610681565b8114610cf657600080fd5b50565b600081519050610d0881610ce2565b92915050565b600060208284031215610d2457610d23610743565b5b6000610d3284828501610cf9565b91505092915050565b7f4574686572206e6f742073656e7420746f20706172656e74206e757400000000600082015250565b6000610d71601c83610a74565b9150610d7c82610d3b565b602082019050919050565b60006020820190508181036000830152610da081610d64565b9050919050565b600081905092915050565b6000610dbd82610a69565b610dc78185610da7565b9350610dd7818560208601610a85565b80840191505092915050565b6000610def8284610db2565b915081905092915050565b7f496e70757420646f6573206e6f74206d61746368207365637265740000000000600082015250565b6000610e30601b83610a74565b9150610e3b82610dfa565b602082019050919050565b60006020820190508181036000830152610e5f81610e23565b905091905056fea26469706673582212205774424951426386b9611a1e5b0aa93e47c4fd30a6dbc09bfaf69009c93a401964736f6c63430008110033a264697066735822122090f8a68d87d6a74a16d303e6bdb1479777a136387aaae20f69516bf2d656402664736f6c6343000811003360806040523480156200001157600080fd5b506040516200581e3803806200581e83398181016040528101906200003791906200041e565b8484848484848481600090816200004f919062000725565b50806001908162000061919062000725565b50505062000084620000786200011d60201b60201c565b6200012560201b60201c565b82600c8190555081600d60006101000a81548173ffffffffffffffffffffffffffffffffffffffff021916908373ffffffffffffffffffffffffffffffffffffffff16021790555080600e60006101000a81548173ffffffffffffffffffffffffffffffffffffffff021916908373ffffffffffffffffffffffffffffffffffffffff160217905550505050505050505050506200080c565b600033905090565b6000600b60009054906101000a900473ffffffffffffffffffffffffffffffffffffffff16905081600b60006101000a81548173ffffffffffffffffffffffffffffffffffffffff021916908373ffffffffffffffffffffffffffffffffffffffff1602179055508173ffffffffffffffffffffffffffffffffffffffff168173ffffffffffffffffffffffffffffffffffffffff167f8be0079c531659141344cd1fd0a4f28419497f9722a3daafe3b4186f6b6457e060405160405180910390a35050565b6000604051905090565b600080fd5b600080fd5b600080fd5b600080fd5b6000601f19601f8301169050919050565b7f4e487b7100000000000000000000000000000000000000000000000000000000600052604160045260246000fd5b620002548262000209565b810181811067ffffffffffffffff821117156200027657620002756200021a565b5b80604052505050565b60006200028b620001eb565b905062000299828262000249565b919050565b600067ffffffffffffffff821115620002bc57620002bb6200021a565b5b620002c78262000209565b9050602081019050919050565b60005b83811015620002f4578082015181840152602081019050620002d7565b60008484015250505050565b60006200031762000311846200029e565b6200027f565b90508281526020810184848401111562000336576200033562000204565b5b62000343848285620002d4565b509392505050565b600082601f830112620003635762000362620001ff565b5b81516200037584826020860162000300565b91505092915050565b6000819050919050565b62000393816200037e565b81146200039f57600080fd5b50565b600081519050620003b38162000388565b92915050565b600073ffffffffffffffffffffffffffffffffffffffff82169050919050565b6000620003e682620003b9565b9050919050565b620003f881620003d9565b81146200040457600080fd5b50565b6000815190506200041881620003ed565b92915050565b600080600080600060a086880312156200043d576200043c620001f5565b5b600086015167ffffffffffffffff8111156200045e576200045d620001fa565b5b6200046c888289016200034b565b955050602086015167ffffffffffffffff81111562000490576200048f620001fa565b5b6200049e888289016200034b565b9450506040620004b188828901620003a2565b9350506060620004c48882890162000407565b9250506080620004d78882890162000407565b9150509295509295909350565b600081519050919050565b7f4e487b7100000000000000000000000000000000000000000000000000000000600052602260045260246000fd5b600060028204905060018216806200053757607f821691505b6020821081036200054d576200054c620004ef565b5b50919050565b60008190508160005260206000209050919050565b60006020601f8301049050919050565b600082821b905092915050565b600060088302620005b77fffffffffffffffffffffffffffffffffffffffffffffffffffffffffffffffff8262000578565b620005c3868362000578565b95508019841693508086168417925050509392505050565b6000819050919050565b60006200060662000600620005fa846200037e565b620005db565b6200037e565b9050919050565b6000819050919050565b6200062283620005e5565b6200063a62000631826200060d565b84845462000585565b825550505050565b600090565b6200065162000642565b6200065e81848462000617565b505050565b5b8181101562000686576200067a60008262000647565b60018101905062000664565b5050565b601f821115620006d5576200069f8162000553565b620006aa8462000568565b81016020851015620006ba578190505b620006d2620006c98562000568565b83018262000663565b50505b505050565b600082821c905092915050565b6000620006fa60001984600802620006da565b1980831691505092915050565b6000620007158383620006e7565b9150826002028217905092915050565b6200073082620004e4565b67ffffffffffffffff8111156200074c576200074b6200021a565b5b6200075882546200051e565b620007658282856200068a565b600060209050601f8311600181146200079d576000841562000788578287015190505b62000794858262000707565b86555062000804565b601f198416620007ad8662000553565b60005b82811015620007d757848901518255600182019150602085019450602081019050620007b0565b86831015620007f75784890151620007f3601f891682620006e7565b8355505b6001600288020188555050505b505050505050565b615002806200081c6000396000f3fe6080604052600436106101c25760003560e01c80636352211e116100f7578063a0e12efe11610095578063e985e9c511610064578063e985e9c51461066b578063f23c9583146106a8578063f2b97ee2146106d8578063f2fde38b14610703576101c2565b8063a0e12efe1461059f578063a22cb465146105dc578063b88d4fde14610605578063c87b56dd1461062e576101c2565b806383638710116100d157806383638710146104cf5780638da5cb5b1461050c5780639202c1ec1461053757806395d89b4114610574576101c2565b80636352211e1461043e57806370a082311461047b578063715018a6146104b8576101c2565b80632f745c591161016457806342842e0e1161013e57806342842e0e146103935780634f6ccce7146103bc57806355951ab0146103f95780635f9ff4a114610415576101c2565b80632f745c59146103145780633434735f146103515780633ccfd60b1461037c576101c2565b8063081812fc116101a0578063081812fc1461025a578063095ea7b31461029757806318160ddd146102c057806323b872dd146102eb576101c2565b806301ffc9a7146101c757806306fdde031461020457806307604b1a1461022f575b600080fd5b3480156101d357600080fd5b506101ee60048036038101906101e99190613012565b61072c565b6040516101fb919061305a565b60405180910390f35b34801561021057600080fd5b5061021961073e565b6040516102269190613105565b60405180910390f35b34801561023b57600080fd5b506102446107d0565b6040516102519190613168565b60405180910390f35b34801561026657600080fd5b50610281600480360381019061027c91906131b9565b6107f6565b60405161028e9190613168565b60405180910390f35b3480156102a357600080fd5b506102be60048036038101906102b99190613212565b61087b565b005b3480156102cc57600080fd5b506102d5610992565b6040516102e29190613261565b60405180910390f35b3480156102f757600080fd5b50610312600480360381019061030d919061327c565b61099f565b005b34801561032057600080fd5b5061033b60048036038101906103369190613212565b6109ff565b6040516103489190613261565b60405180910390f35b34801561035d57600080fd5b50610366610aa4565b6040516103739190613168565b60405180910390f35b34801561038857600080fd5b50610391610aca565b005b34801561039f57600080fd5b506103ba60048036038101906103b5919061327c565b610bd8565b005b3480156103c857600080fd5b506103e360048036038101906103de91906131b9565b610bf8565b6040516103f09190613261565b60405180910390f35b610413600480360381019061040e9190613404565b610c69565b005b34801561042157600080fd5b5061043c60048036038101906104379190613537565b610d74565b005b34801561044a57600080fd5b50610465600480360381019061046091906131b9565b610ea2565b6040516104729190613168565b60405180910390f35b34801561048757600080fd5b506104a2600480360381019061049d91906135fc565b610f53565b6040516104af9190613261565b60405180910390f35b3480156104c457600080fd5b506104cd61100a565b005b3480156104db57600080fd5b506104f660048036038101906104f191906131b9565b611092565b6040516105039190613168565b60405180910390f35b34801561051857600080fd5b506105216110a4565b60405161052e9190613168565b60405180910390f35b34801561054357600080fd5b5061055e60048036038101906105599190613629565b6110ce565b60405161056b919061305a565b60405180910390f35b34801561058057600080fd5b506105896110e6565b6040516105969190613105565b60405180910390f35b3480156105ab57600080fd5b506105c660048036038101906105c191906136b4565b611178565b6040516105d3919061305a565b60405180910390f35b3480156105e857600080fd5b5061060360048036038101906105fe9190613758565b6111a5565b005b34801561061157600080fd5b5061062c60048036038101906106279190613798565b6111bb565b005b34801561063a57600080fd5b50610655600480360381019061065091906131b9565b61121d565b6040516106629190613105565b60405180910390f35b34801561067757600080fd5b50610692600480360381019061068d919061381b565b61122f565b60405161069f919061305a565b60405180910390f35b6106c260048036038101906106bd919061385b565b6112c3565b6040516106cf919061305a565b60405180910390f35b3480156106e457600080fd5b506106ed61143f565b6040516106fa9190613261565b60405180910390f35b34801561070f57600080fd5b5061072a600480360381019061072591906135fc565b611445565b005b60006107378261153c565b9050919050565b60606000805461074d90613929565b80601f016020809104026020016040519081016040528092919081815260200182805461077990613929565b80156107c65780601f1061079b576101008083540402835291602001916107c6565b820191906000526020600020905b8154815290600101906020018083116107a957829003601f168201915b5050505050905090565b600e60009054906101000a900473ffffffffffffffffffffffffffffffffffffffff1681565b6000610801826115b6565b610840576040517f08c379a0000000000000000000000000000000000000000000000000000000008152600401610837906139cc565b60405180910390fd5b6004600083815260200190815260200160002060009054906101000a900473ffffffffffffffffffffffffffffffffffffffff169050919050565b600061088682610ea2565b90508073ffffffffffffffffffffffffffffffffffffffff168373ffffffffffffffffffffffffffffffffffffffff16036108f6576040517f08c379a00000000000000000000000000000000000000000000000000000000081526004016108ed90613a5e565b60405180910390fd5b8073ffffffffffffffffffffffffffffffffffffffff16610915611622565b73ffffffffffffffffffffffffffffffffffffffff16148061094457506109438161093e611622565b61122f565b5b610983576040517f08c379a000000000000000000000000000000000000000000000000000000000815260040161097a90613af0565b60405180910390fd5b61098d838361162a565b505050565b6000600880549050905090565b6109b06109aa611622565b826116e3565b6109ef576040517f08c379a00000000000000000000000000000000000000000000000000000000081526004016109e690613b82565b60405180910390fd5b6109fa8383836117c1565b505050565b6000610a0a83610f53565b8210610a4b576040517f08c379a0000000000000000000000000000000000000000000000000000000008152600401610a4290613c14565b60405180910390fd5b600660008473ffffffffffffffffffffffffffffffffffffffff1673ffffffffffffffffffffffffffffffffffffffff168152602001908152602001600020600083815260200190815260200160002054905092915050565b600d60009054906101000a900473ffffffffffffffffffffffffffffffffffffffff1681565b610ad2611622565b73ffffffffffffffffffffffffffffffffffffffff16610af06110a4565b73ffffffffffffffffffffffffffffffffffffffff1614610b46576040517f08c379a0000000000000000000000000000000000000000000000000000000008152600401610b3d90613c80565b60405180910390fd5b600047905060004711610b8e576040517f08c379a0000000000000000000000000000000000000000000000000000000008152600401610b8590613cec565b60405180910390fd5b3373ffffffffffffffffffffffffffffffffffffffff166108fc829081150290604051600060405180830381858888f19350505050158015610bd4573d6000803e3d6000fd5b5050565b610bf3838383604051806020016040528060008152506111bb565b505050565b6000610c02610992565b8210610c43576040517f08c379a0000000000000000000000000000000000000000000000000000000008152600401610c3a90613d7e565b60405180910390fd5b60088281548110610c5757610c56613d9e565b5b90600052602060002001549050919050565b610c9c600e60009054906101000a900473ffffffffffffffffffffffffffffffffffffffff16610c97610992565b611a27565b610cad610ca7610992565b82611a45565b600e60009054906101000a900473ffffffffffffffffffffffffffffffffffffffff1673ffffffffffffffffffffffffffffffffffffffff16631c85949c600e60009054906101000a900473ffffffffffffffffffffffffffffffffffffffff16846040518363ffffffff1660e01b8152600401610d2c929190613dcd565b6020604051808303816000875af1158015610d4b573d6000803e3d6000fd5b505050506040513d601f19601f82011682018060405250810190610d6f9190613e0b565b505050565b610d7d86610ea2565b73ffffffffffffffffffffffffffffffffffffffff163373ffffffffffffffffffffffffffffffffffffffff1614610dea576040517f08c379a0000000000000000000000000000000000000000000000000000000008152600401610de190613e84565b60405180910390fd5b600e60009054906101000a900473ffffffffffffffffffffffffffffffffffffffff1673ffffffffffffffffffffffffffffffffffffffff166303f5de9d878686896040518563ffffffff1660e01b8152600401610e4b9493929190613eb3565b6020604051808303816000875af1158015610e6a573d6000803e3d6000fd5b505050506040513d601f19601f82011682018060405250810190610e8e9190613e0b565b50610e9a868383611ab2565b505050505050565b6000806002600084815260200190815260200160002060009054906101000a900473ffffffffffffffffffffffffffffffffffffffff169050600073ffffffffffffffffffffffffffffffffffffffff168173ffffffffffffffffffffffffffffffffffffffff1603610f4a576040517f08c379a0000000000000000000000000000000000000000000000000000000008152600401610f4190613f6a565b60405180910390fd5b80915050919050565b60008073ffffffffffffffffffffffffffffffffffffffff168273ffffffffffffffffffffffffffffffffffffffff1603610fc3576040517f08c379a0000000000000000000000000000000000000000000000000000000008152600401610fba90613ffc565b60405180910390fd5b600360008373ffffffffffffffffffffffffffffffffffffffff1673ffffffffffffffffffffffffffffffffffffffff168152602001908152602001600020549050919050565b611012611622565b73ffffffffffffffffffffffffffffffffffffffff166110306110a4565b73ffffffffffffffffffffffffffffffffffffffff1614611086576040517f08c379a000000000000000000000000000000000000000000000000000000000815260040161107d90613c80565b60405180910390fd5b6110906000611b86565b565b600061109d82610ea2565b9050919050565b6000600b60009054906101000a900473ffffffffffffffffffffffffffffffffffffffff16905090565b60006110db848484611ab2565b600190509392505050565b6060600180546110f590613929565b80601f016020809104026020016040519081016040528092919081815260200182805461112190613929565b801561116e5780601f106111435761010080835404028352916020019161116e565b820191906000526020600020905b81548152906001019060200180831161115157829003601f168201915b5050505050905090565b600080611183610992565b905061118f3382611a27565b61119a818585611ab2565b600191505092915050565b6111b76111b0611622565b8383611c4c565b5050565b6111cc6111c6611622565b836116e3565b61120b576040517f08c379a000000000000000000000000000000000000000000000000000000000815260040161120290613b82565b60405180910390fd5b61121784848484611db8565b50505050565b606061122882611e14565b9050919050565b6000600560008473ffffffffffffffffffffffffffffffffffffffff1673ffffffffffffffffffffffffffffffffffffffff16815260200190815260200160002060008373ffffffffffffffffffffffffffffffffffffffff1673ffffffffffffffffffffffffffffffffffffffff16815260200190815260200160002060009054906101000a900460ff16905092915050565b60006112ce85610ea2565b73ffffffffffffffffffffffffffffffffffffffff163373ffffffffffffffffffffffffffffffffffffffff161461133b576040517f08c379a000000000000000000000000000000000000000000000000000000000815260040161133290613e84565b60405180910390fd5b600c54611346610992565b1015611387576040517f08c379a000000000000000000000000000000000000000000000000000000000815260040161137e90614068565b60405180910390fd5b600e60009054906101000a900473ffffffffffffffffffffffffffffffffffffffff1673ffffffffffffffffffffffffffffffffffffffff1663fe774f9d86866040518363ffffffff1660e01b81526004016113e4929190614088565b6020604051808303816000875af1158015611403573d6000803e3d6000fd5b505050506040513d601f19601f820116820180604052508101906114279190613e0b565b50611433858484611ab2565b60019050949350505050565b600c5481565b61144d611622565b73ffffffffffffffffffffffffffffffffffffffff1661146b6110a4565b73ffffffffffffffffffffffffffffffffffffffff16146114c1576040517f08c379a00000000000000000000000000000000000000000000000000000000081526004016114b890613c80565b60405180910390fd5b600073ffffffffffffffffffffffffffffffffffffffff168173ffffffffffffffffffffffffffffffffffffffff1603611530576040517f08c379a000000000000000000000000000000000000000000000000000000000815260040161152790614123565b60405180910390fd5b61153981611b86565b50565b60007f780e9d63000000000000000000000000000000000000000000000000000000007bffffffffffffffffffffffffffffffffffffffffffffffffffffffff1916827bffffffffffffffffffffffffffffffffffffffffffffffffffffffff191614806115af57506115ae82611f65565b5b9050919050565b60008073ffffffffffffffffffffffffffffffffffffffff166002600084815260200190815260200160002060009054906101000a900473ffffffffffffffffffffffffffffffffffffffff1673ffffffffffffffffffffffffffffffffffffffff1614159050919050565b600033905090565b816004600083815260200190815260200160002060006101000a81548173ffffffffffffffffffffffffffffffffffffffff021916908373ffffffffffffffffffffffffffffffffffffffff160217905550808273ffffffffffffffffffffffffffffffffffffffff1661169d83610ea2565b73ffffffffffffffffffffffffffffffffffffffff167f8c5be1e5ebec7d5bd14f71427d1e84f3dd0314c0f7b2291e5b200ac8c7c3b92560405160405180910390a45050565b60006116ee826115b6565b61172d576040517f08c379a0000000000000000000000000000000000000000000000000000000008152600401611724906141b5565b60405180910390fd5b600061173883610ea2565b90508073ffffffffffffffffffffffffffffffffffffffff168473ffffffffffffffffffffffffffffffffffffffff16148061177a5750611779818561122f565b5b806117b857508373ffffffffffffffffffffffffffffffffffffffff166117a0846107f6565b73ffffffffffffffffffffffffffffffffffffffff16145b91505092915050565b8273ffffffffffffffffffffffffffffffffffffffff166117e182610ea2565b73ffffffffffffffffffffffffffffffffffffffff1614611837576040517f08c379a000000000000000000000000000000000000000000000000000000000815260040161182e90614247565b60405180910390fd5b600073ffffffffffffffffffffffffffffffffffffffff168273ffffffffffffffffffffffffffffffffffffffff16036118a6576040517f08c379a000000000000000000000000000000000000000000000000000000000815260040161189d906142d9565b60405180910390fd5b6118b1838383612047565b6118bc60008261162a565b6001600360008573ffffffffffffffffffffffffffffffffffffffff1673ffffffffffffffffffffffffffffffffffffffff168152602001908152602001600020600082825461190c9190614328565b925050819055506001600360008473ffffffffffffffffffffffffffffffffffffffff1673ffffffffffffffffffffffffffffffffffffffff1681526020019081526020016000206000828254611963919061435c565b92505081905550816002600083815260200190815260200160002060006101000a81548173ffffffffffffffffffffffffffffffffffffffff021916908373ffffffffffffffffffffffffffffffffffffffff160217905550808273ffffffffffffffffffffffffffffffffffffffff168473ffffffffffffffffffffffffffffffffffffffff167fddf252ad1be2c89b69c2b068fc378daa952ba7f163c4a11628f55a4df523b3ef60405160405180910390a4611a22838383612057565b505050565b611a4182826040518060200160405280600081525061205c565b5050565b611a4e826115b6565b611a8d576040517f08c379a0000000000000000000000000000000000000000000000000000000008152600401611a8490614402565b60405180910390fd5b80600a60008481526020019081526020016000209081611aad91906145ce565b505050565b611ac3611abd611622565b846116e3565b611b02576040517f08c379a0000000000000000000000000000000000000000000000000000000008152600401611af9906146ec565b60405180910390fd5b600082604051602001611b159190614748565b604051602081830303815290604052805190602001209050611b3781836120b7565b611b76576040517f08c379a0000000000000000000000000000000000000000000000000000000008152600401611b6d906147ab565b60405180910390fd5b611b808484611a45565b50505050565b6000600b60009054906101000a900473ffffffffffffffffffffffffffffffffffffffff16905081600b60006101000a81548173ffffffffffffffffffffffffffffffffffffffff021916908373ffffffffffffffffffffffffffffffffffffffff1602179055508173ffffffffffffffffffffffffffffffffffffffff168173ffffffffffffffffffffffffffffffffffffffff167f8be0079c531659141344cd1fd0a4f28419497f9722a3daafe3b4186f6b6457e060405160405180910390a35050565b8173ffffffffffffffffffffffffffffffffffffffff168373ffffffffffffffffffffffffffffffffffffffff1603611cba576040517f08c379a0000000000000000000000000000000000000000000000000000000008152600401611cb190614817565b60405180910390fd5b80600560008573ffffffffffffffffffffffffffffffffffffffff1673ffffffffffffffffffffffffffffffffffffffff16815260200190815260200160002060008473ffffffffffffffffffffffffffffffffffffffff1673ffffffffffffffffffffffffffffffffffffffff16815260200190815260200160002060006101000a81548160ff0219169083151502179055508173ffffffffffffffffffffffffffffffffffffffff168373ffffffffffffffffffffffffffffffffffffffff167f17307eab39ab6107e8899845ad3d59bd9653f200f220920489ca2b5937696c3183604051611dab919061305a565b60405180910390a3505050565b611dc38484846117c1565b611dcf8484848461215c565b611e0e576040517f08c379a0000000000000000000000000000000000000000000000000000000008152600401611e05906148a9565b60405180910390fd5b50505050565b6060611e1f826115b6565b611e5e576040517f08c379a0000000000000000000000000000000000000000000000000000000008152600401611e559061493b565b60405180910390fd5b6000600a60008481526020019081526020016000208054611e7e90613929565b80601f0160208091040260200160405190810160405280929190818152602001828054611eaa90613929565b8015611ef75780601f10611ecc57610100808354040283529160200191611ef7565b820191906000526020600020905b815481529060010190602001808311611eda57829003601f168201915b505050505090506000611f086122e3565b90506000815103611f1d578192505050611f60565b600082511115611f52578082604051602001611f3a92919061495b565b60405160208183030381529060405292505050611f60565b611f5b84612320565b925050505b919050565b60007f80ac58cd000000000000000000000000000000000000000000000000000000007bffffffffffffffffffffffffffffffffffffffffffffffffffffffff1916827bffffffffffffffffffffffffffffffffffffffffffffffffffffffff1916148061203057507f5b5e139f000000000000000000000000000000000000000000000000000000007bffffffffffffffffffffffffffffffffffffffffffffffffffffffff1916827bffffffffffffffffffffffffffffffffffffffffffffffffffffffff1916145b80612040575061203f826123c7565b5b9050919050565b612052838383612431565b505050565b505050565b6120668383612543565b612073600084848461215c565b6120b2576040517f08c379a00000000000000000000000000000000000000000000000000000000081526004016120a9906148a9565b60405180910390fd5b505050565b6000600d60009054906101000a900473ffffffffffffffffffffffffffffffffffffffff1673ffffffffffffffffffffffffffffffffffffffff166120fc848461271c565b73ffffffffffffffffffffffffffffffffffffffff1614612152576040517f08c379a0000000000000000000000000000000000000000000000000000000008152600401612149906149cb565b60405180910390fd5b6001905092915050565b600061217d8473ffffffffffffffffffffffffffffffffffffffff16612739565b156122d6578373ffffffffffffffffffffffffffffffffffffffff1663150b7a026121a6611622565b8786866040518563ffffffff1660e01b81526004016121c89493929190614a40565b6020604051808303816000875af192505050801561220457506040513d601f19601f820116820180604052508101906122019190614aa1565b60015b612286573d8060008114612234576040519150601f19603f3d011682016040523d82523d6000602084013e612239565b606091505b50600081510361227e576040517f08c379a0000000000000000000000000000000000000000000000000000000008152600401612275906148a9565b60405180910390fd5b805181602001fd5b63150b7a0260e01b7bffffffffffffffffffffffffffffffffffffffffffffffffffffffff1916817bffffffffffffffffffffffffffffffffffffffffffffffffffffffff1916149150506122db565b600190505b949350505050565b60606040518060400160405280601581526020017f68747470733a2f2f697066732e696f2f697066732f0000000000000000000000815250905090565b606061232b826115b6565b61236a576040517f08c379a000000000000000000000000000000000000000000000000000000000815260040161236190614b40565b60405180910390fd5b60006123746122e3565b9050600081511161239457604051806020016040528060008152506123bf565b8061239e8461275c565b6040516020016123af92919061495b565b6040516020818303038152906040525b915050919050565b60007f01ffc9a7000000000000000000000000000000000000000000000000000000007bffffffffffffffffffffffffffffffffffffffffffffffffffffffff1916827bffffffffffffffffffffffffffffffffffffffffffffffffffffffff1916149050919050565b61243c8383836128bc565b600073ffffffffffffffffffffffffffffffffffffffff168373ffffffffffffffffffffffffffffffffffffffff160361247e57612479816128c1565b6124bd565b8173ffffffffffffffffffffffffffffffffffffffff168373ffffffffffffffffffffffffffffffffffffffff16146124bc576124bb838261290a565b5b5b600073ffffffffffffffffffffffffffffffffffffffff168273ffffffffffffffffffffffffffffffffffffffff16036124ff576124fa81612a77565b61253e565b8273ffffffffffffffffffffffffffffffffffffffff168273ffffffffffffffffffffffffffffffffffffffff161461253d5761253c8282612b48565b5b5b505050565b600073ffffffffffffffffffffffffffffffffffffffff168273ffffffffffffffffffffffffffffffffffffffff16036125b2576040517f08c379a00000000000000000000000000000000000000000000000000000000081526004016125a990614bac565b60405180910390fd5b6125bb816115b6565b156125fb576040517f08c379a00000000000000000000000000000000000000000000000000000000081526004016125f290614c18565b60405180910390fd5b61260760008383612047565b6001600360008473ffffffffffffffffffffffffffffffffffffffff1673ffffffffffffffffffffffffffffffffffffffff1681526020019081526020016000206000828254612657919061435c565b92505081905550816002600083815260200190815260200160002060006101000a81548173ffffffffffffffffffffffffffffffffffffffff021916908373ffffffffffffffffffffffffffffffffffffffff160217905550808273ffffffffffffffffffffffffffffffffffffffff16600073ffffffffffffffffffffffffffffffffffffffff167fddf252ad1be2c89b69c2b068fc378daa952ba7f163c4a11628f55a4df523b3ef60405160405180910390a461271860008383612057565b5050565b60006127318284612bc790919063ffffffff16565b905092915050565b6000808273ffffffffffffffffffffffffffffffffffffffff163b119050919050565b6060600082036127a3576040518060400160405280600181526020017f300000000000000000000000000000000000000000000000000000000000000081525090506128b7565b600082905060005b600082146127d55780806127be90614c38565b915050600a826127ce9190614caf565b91506127ab565b60008167ffffffffffffffff8111156127f1576127f06132d9565b5b6040519080825280601f01601f1916602001820160405280156128235781602001600182028036833780820191505090505b5090505b600085146128b05760018261283c9190614328565b9150600a8561284b9190614ce0565b6030612857919061435c565b60f81b81838151811061286d5761286c613d9e565b5b60200101907effffffffffffffffffffffffffffffffffffffffffffffffffffffffffffff1916908160001a905350600a856128a99190614caf565b9450612827565b8093505050505b919050565b505050565b6008805490506009600083815260200190815260200160002081905550600881908060018154018082558091505060019003906000526020600020016000909190919091505550565b6000600161291784610f53565b6129219190614328565b9050600060076000848152602001908152602001600020549050818114612a06576000600660008673ffffffffffffffffffffffffffffffffffffffff1673ffffffffffffffffffffffffffffffffffffffff168152602001908152602001600020600084815260200190815260200160002054905080600660008773ffffffffffffffffffffffffffffffffffffffff1673ffffffffffffffffffffffffffffffffffffffff168152602001908152602001600020600084815260200190815260200160002081905550816007600083815260200190815260200160002081905550505b6007600084815260200190815260200160002060009055600660008573ffffffffffffffffffffffffffffffffffffffff1673ffffffffffffffffffffffffffffffffffffffff16815260200190815260200160002060008381526020019081526020016000206000905550505050565b60006001600880549050612a8b9190614328565b9050600060096000848152602001908152602001600020549050600060088381548110612abb57612aba613d9e565b5b906000526020600020015490508060088381548110612add57612adc613d9e565b5b906000526020600020018190555081600960008381526020019081526020016000208190555060096000858152602001908152602001600020600090556008805480612b2c57612b2b614d11565b5b6001900381819060005260206000200160009055905550505050565b6000612b5383610f53565b905081600660008573ffffffffffffffffffffffffffffffffffffffff1673ffffffffffffffffffffffffffffffffffffffff168152602001908152602001600020600083815260200190815260200160002081905550806007600084815260200190815260200160002081905550505050565b6000806000612bd68585612bee565b91509150612be381612c6f565b819250505092915050565b6000806041835103612c2f5760008060006020860151925060408601519150606086015160001a9050612c2387828585612e3b565b94509450505050612c68565b6040835103612c5f576000806020850151915060408501519050612c54868383612f47565b935093505050612c68565b60006002915091505b9250929050565b60006004811115612c8357612c82614d40565b5b816004811115612c9657612c95614d40565b5b0315612e385760016004811115612cb057612caf614d40565b5b816004811115612cc357612cc2614d40565b5b03612d03576040517f08c379a0000000000000000000000000000000000000000000000000000000008152600401612cfa90614dbb565b60405180910390fd5b60026004811115612d1757612d16614d40565b5b816004811115612d2a57612d29614d40565b5b03612d6a576040517f08c379a0000000000000000000000000000000000000000000000000000000008152600401612d6190614e27565b60405180910390fd5b60036004811115612d7e57612d7d614d40565b5b816004811115612d9157612d90614d40565b5b03612dd1576040517f08c379a0000000000000000000000000000000000000000000000000000000008152600401612dc890614eb9565b60405180910390fd5b600480811115612de457612de3614d40565b5b816004811115612df757612df6614d40565b5b03612e37576040517f08c379a0000000000000000000000000000000000000000000000000000000008152600401612e2e90614f4b565b60405180910390fd5b5b50565b6000807f7fffffffffffffffffffffffffffffff5d576e7357a4501ddfe92f46681b20a08360001c1115612e76576000600391509150612f3e565b601b8560ff1614158015612e8e5750601c8560ff1614155b15612ea0576000600491509150612f3e565b600060018787878760405160008152602001604052604051612ec59493929190614f87565b6020604051602081039080840390855afa158015612ee7573d6000803e3d6000fd5b505050602060405103519050600073ffffffffffffffffffffffffffffffffffffffff168173ffffffffffffffffffffffffffffffffffffffff1603612f3557600060019250925050612f3e565b80600092509250505b94509492505050565b60008060007f7fffffffffffffffffffffffffffffffffffffffffffffffffffffffffffffff60001b841690506000601b60ff8660001c901c612f8a919061435c565b9050612f9887828885612e3b565b935093505050935093915050565b6000604051905090565b600080fd5b600080fd5b60007fffffffff0000000000000000000000000000000000000000000000000000000082169050919050565b612fef81612fba565b8114612ffa57600080fd5b50565b60008135905061300c81612fe6565b92915050565b60006020828403121561302857613027612fb0565b5b600061303684828501612ffd565b91505092915050565b60008115159050919050565b6130548161303f565b82525050565b600060208201905061306f600083018461304b565b92915050565b600081519050919050565b600082825260208201905092915050565b60005b838110156130af578082015181840152602081019050613094565b60008484015250505050565b6000601f19601f8301169050919050565b60006130d782613075565b6130e18185613080565b93506130f1818560208601613091565b6130fa816130bb565b840191505092915050565b6000602082019050818103600083015261311f81846130cc565b905092915050565b600073ffffffffffffffffffffffffffffffffffffffff82169050919050565b600061315282613127565b9050919050565b61316281613147565b82525050565b600060208201905061317d6000830184613159565b92915050565b6000819050919050565b61319681613183565b81146131a157600080fd5b50565b6000813590506131b38161318d565b92915050565b6000602082840312156131cf576131ce612fb0565b5b60006131dd848285016131a4565b91505092915050565b6131ef81613147565b81146131fa57600080fd5b50565b60008135905061320c816131e6565b92915050565b6000806040838503121561322957613228612fb0565b5b6000613237858286016131fd565b9250506020613248858286016131a4565b9150509250929050565b61325b81613183565b82525050565b60006020820190506132766000830184613252565b92915050565b60008060006060848603121561329557613294612fb0565b5b60006132a3868287016131fd565b93505060206132b4868287016131fd565b92505060406132c5868287016131a4565b9150509250925092565b600080fd5b600080fd5b7f4e487b7100000000000000000000000000000000000000000000000000000000600052604160045260246000fd5b613311826130bb565b810181811067ffffffffffffffff821117156133305761332f6132d9565b5b80604052505050565b6000613343612fa6565b905061334f8282613308565b919050565b600067ffffffffffffffff82111561336f5761336e6132d9565b5b613378826130bb565b9050602081019050919050565b82818337600083830152505050565b60006133a76133a284613354565b613339565b9050828152602081018484840111156133c3576133c26132d4565b5b6133ce848285613385565b509392505050565b600082601f8301126133eb576133ea6132cf565b5b81356133fb848260208601613394565b91505092915050565b6000806040838503121561341b5761341a612fb0565b5b6000613429858286016131a4565b925050602083013567ffffffffffffffff81111561344a57613449612fb5565b5b613456858286016133d6565b9150509250929050565b6000819050919050565b61347381613460565b811461347e57600080fd5b50565b6000813590506134908161346a565b92915050565b600067ffffffffffffffff8211156134b1576134b06132d9565b5b6134ba826130bb565b9050602081019050919050565b60006134da6134d584613496565b613339565b9050828152602081018484840111156134f6576134f56132d4565b5b613501848285613385565b509392505050565b600082601f83011261351e5761351d6132cf565b5b813561352e8482602086016134c7565b91505092915050565b60008060008060008060c0878903121561355457613553612fb0565b5b600061356289828a016131a4565b965050602061357389828a01613481565b955050604061358489828a016131a4565b945050606061359589828a016131a4565b935050608087013567ffffffffffffffff8111156135b6576135b5612fb5565b5b6135c289828a016133d6565b92505060a087013567ffffffffffffffff8111156135e3576135e2612fb5565b5b6135ef89828a01613509565b9150509295509295509295565b60006020828403121561361257613611612fb0565b5b6000613620848285016131fd565b91505092915050565b60008060006060848603121561364257613641612fb0565b5b6000613650868287016131a4565b935050602084013567ffffffffffffffff81111561367157613670612fb5565b5b61367d868287016133d6565b925050604084013567ffffffffffffffff81111561369e5761369d612fb5565b5b6136aa86828701613509565b9150509250925092565b600080604083850312156136cb576136ca612fb0565b5b600083013567ffffffffffffffff8111156136e9576136e8612fb5565b5b6136f5858286016133d6565b925050602083013567ffffffffffffffff81111561371657613715612fb5565b5b61372285828601613509565b9150509250929050565b6137358161303f565b811461374057600080fd5b50565b6000813590506137528161372c565b92915050565b6000806040838503121561376f5761376e612fb0565b5b600061377d858286016131fd565b925050602061378e85828601613743565b9150509250929050565b600080600080608085870312156137b2576137b1612fb0565b5b60006137c0878288016131fd565b94505060206137d1878288016131fd565b93505060406137e2878288016131a4565b925050606085013567ffffffffffffffff81111561380357613802612fb5565b5b61380f87828801613509565b91505092959194509250565b6000806040838503121561383257613831612fb0565b5b6000613840858286016131fd565b9250506020613851858286016131fd565b9150509250929050565b6000806000806080858703121561387557613874612fb0565b5b6000613883878288016131a4565b945050602061389487828801613481565b935050604085013567ffffffffffffffff8111156138b5576138b4612fb5565b5b6138c1878288016133d6565b925050606085013567ffffffffffffffff8111156138e2576138e1612fb5565b5b6138ee87828801613509565b91505092959194509250565b7f4e487b7100000000000000000000000000000000000000000000000000000000600052602260045260246000fd5b6000600282049050600182168061394157607f821691505b602082108103613954576139536138fa565b5b50919050565b7f4552433732313a20617070726f76656420717565727920666f72206e6f6e657860008201527f697374656e7420746f6b656e0000000000000000000000000000000000000000602082015250565b60006139b6602c83613080565b91506139c18261395a565b604082019050919050565b600060208201905081810360008301526139e5816139a9565b9050919050565b7f4552433732313a20617070726f76616c20746f2063757272656e74206f776e6560008201527f7200000000000000000000000000000000000000000000000000000000000000602082015250565b6000613a48602183613080565b9150613a53826139ec565b604082019050919050565b60006020820190508181036000830152613a7781613a3b565b9050919050565b7f4552433732313a20617070726f76652063616c6c6572206973206e6f74206f7760008201527f6e6572206e6f7220617070726f76656420666f7220616c6c0000000000000000602082015250565b6000613ada603883613080565b9150613ae582613a7e565b604082019050919050565b60006020820190508181036000830152613b0981613acd565b9050919050565b7f4552433732313a207472616e736665722063616c6c6572206973206e6f74206f60008201527f776e6572206e6f7220617070726f766564000000000000000000000000000000602082015250565b6000613b6c603183613080565b9150613b7782613b10565b604082019050919050565b60006020820190508181036000830152613b9b81613b5f565b9050919050565b7f455243373231456e756d657261626c653a206f776e657220696e646578206f7560008201527f74206f6620626f756e6473000000000000000000000000000000000000000000602082015250565b6000613bfe602b83613080565b9150613c0982613ba2565b604082019050919050565b60006020820190508181036000830152613c2d81613bf1565b9050919050565b7f4f776e61626c653a2063616c6c6572206973206e6f7420746865206f776e6572600082015250565b6000613c6a602083613080565b9150613c7582613c34565b602082019050919050565b60006020820190508181036000830152613c9981613c5d565b9050919050565b7f4e6f2062616c616e636520746f20776974686472617700000000000000000000600082015250565b6000613cd6601683613080565b9150613ce182613ca0565b602082019050919050565b60006020820190508181036000830152613d0581613cc9565b9050919050565b7f455243373231456e756d657261626c653a20676c6f62616c20696e646578206f60008201527f7574206f6620626f756e64730000000000000000000000000000000000000000602082015250565b6000613d68602c83613080565b9150613d7382613d0c565b604082019050919050565b60006020820190508181036000830152613d9781613d5b565b9050919050565b7f4e487b7100000000000000000000000000000000000000000000000000000000600052603260045260246000fd5b6000604082019050613de26000830185613159565b613def6020830184613252565b9392505050565b600081519050613e058161372c565b92915050565b600060208284031215613e2157613e20612fb0565b5b6000613e2f84828501613df6565b91505092915050565b7f43616c6c6572206973206e6f74206f776e6572206f66206e7574000000000000600082015250565b6000613e6e601a83613080565b9150613e7982613e38565b602082019050919050565b60006020820190508181036000830152613e9d81613e61565b9050919050565b613ead81613460565b82525050565b6000608082019050613ec86000830187613252565b613ed56020830186613252565b613ee26040830185613252565b613eef6060830184613ea4565b95945050505050565b7f4552433732313a206f776e657220717565727920666f72206e6f6e657869737460008201527f656e7420746f6b656e0000000000000000000000000000000000000000000000602082015250565b6000613f54602983613080565b9150613f5f82613ef8565b604082019050919050565b60006020820190508181036000830152613f8381613f47565b9050919050565b7f4552433732313a2062616c616e636520717565727920666f7220746865207a6560008201527f726f206164647265737300000000000000000000000000000000000000000000602082015250565b6000613fe6602a83613080565b9150613ff182613f8a565b604082019050919050565b6000602082019050818103600083015261401581613fd9565b9050919050565b7f4e757473207374696c6c2065786973742066726f6d206372656174696f6e0000600082015250565b6000614052601e83613080565b915061405d8261401c565b602082019050919050565b6000602082019050818103600083015261408181614045565b9050919050565b600060408201905061409d6000830185613252565b6140aa6020830184613ea4565b9392505050565b7f4f776e61626c653a206e6577206f776e657220697320746865207a65726f206160008201527f6464726573730000000000000000000000000000000000000000000000000000602082015250565b600061410d602683613080565b9150614118826140b1565b604082019050919050565b6000602082019050818103600083015261413c81614100565b9050919050565b7f4552433732313a206f70657261746f7220717565727920666f72206e6f6e657860008201527f697374656e7420746f6b656e0000000000000000000000000000000000000000602082015250565b600061419f602c83613080565b91506141aa82614143565b604082019050919050565b600060208201905081810360008301526141ce81614192565b9050919050565b7f4552433732313a207472616e736665722066726f6d20696e636f72726563742060008201527f6f776e6572000000000000000000000000000000000000000000000000000000602082015250565b6000614231602583613080565b915061423c826141d5565b604082019050919050565b6000602082019050818103600083015261426081614224565b9050919050565b7f4552433732313a207472616e7366657220746f20746865207a65726f2061646460008201527f7265737300000000000000000000000000000000000000000000000000000000602082015250565b60006142c3602483613080565b91506142ce82614267565b604082019050919050565b600060208201905081810360008301526142f2816142b6565b9050919050565b7f4e487b7100000000000000000000000000000000000000000000000000000000600052601160045260246000fd5b600061433382613183565b915061433e83613183565b9250828203905081811115614356576143556142f9565b5b92915050565b600061436782613183565b915061437283613183565b925082820190508082111561438a576143896142f9565b5b92915050565b7f45524337323155524953746f726167653a2055524920736574206f66206e6f6e60008201527f6578697374656e7420746f6b656e000000000000000000000000000000000000602082015250565b60006143ec602e83613080565b91506143f782614390565b604082019050919050565b6000602082019050818103600083015261441b816143df565b9050919050565b60008190508160005260206000209050919050565b60006020601f8301049050919050565b600082821b905092915050565b6000600883026144847fffffffffffffffffffffffffffffffffffffffffffffffffffffffffffffffff82614447565b61448e8683614447565b95508019841693508086168417925050509392505050565b6000819050919050565b60006144cb6144c66144c184613183565b6144a6565b613183565b9050919050565b6000819050919050565b6144e5836144b0565b6144f96144f1826144d2565b848454614454565b825550505050565b600090565b61450e614501565b6145198184846144dc565b505050565b5b8181101561453d57614532600082614506565b60018101905061451f565b5050565b601f8211156145825761455381614422565b61455c84614437565b8101602085101561456b578190505b61457f61457785614437565b83018261451e565b50505b505050565b600082821c905092915050565b60006145a560001984600802614587565b1980831691505092915050565b60006145be8383614594565b9150826002028217905092915050565b6145d782613075565b67ffffffffffffffff8111156145f0576145ef6132d9565b5b6145fa8254613929565b614605828285614541565b600060209050601f8311600181146146385760008415614626578287015190505b61463085826145b2565b865550614698565b601f19841661464686614422565b60005b8281101561466e57848901518255600182019150602085019450602081019050614649565b8683101561468b5784890151614687601f891682614594565b8355505b6001600288020188555050505b505050505050565b7f43616c6c6572206973206e6f74206f776e6572206e6f7220617070726f766564600082015250565b60006146d6602083613080565b91506146e1826146a0565b602082019050919050565b60006020820190508181036000830152614705816146c9565b9050919050565b600081905092915050565b600061472282613075565b61472c818561470c565b935061473c818560208601613091565b80840191505092915050565b60006147548284614717565b915081905092915050565b7f4461746120646f6573206e6f74206d61746368207369676e6174757265000000600082015250565b6000614795601d83613080565b91506147a08261475f565b602082019050919050565b600060208201905081810360008301526147c481614788565b9050919050565b7f4552433732313a20617070726f766520746f2063616c6c657200000000000000600082015250565b6000614801601983613080565b915061480c826147cb565b602082019050919050565b60006020820190508181036000830152614830816147f4565b9050919050565b7f4552433732313a207472616e7366657220746f206e6f6e20455243373231526560008201527f63656976657220696d706c656d656e7465720000000000000000000000000000602082015250565b6000614893603283613080565b915061489e82614837565b604082019050919050565b600060208201905081810360008301526148c281614886565b9050919050565b7f45524337323155524953746f726167653a2055524920717565727920666f722060008201527f6e6f6e6578697374656e7420746f6b656e000000000000000000000000000000602082015250565b6000614925603183613080565b9150614930826148c9565b604082019050919050565b6000602082019050818103600083015261495481614918565b9050919050565b60006149678285614717565b91506149738284614717565b91508190509392505050565b7f496e76616c6964207369676e6174757265000000000000000000000000000000600082015250565b60006149b5601183613080565b91506149c08261497f565b602082019050919050565b600060208201905081810360008301526149e4816149a8565b9050919050565b600081519050919050565b600082825260208201905092915050565b6000614a12826149eb565b614a1c81856149f6565b9350614a2c818560208601613091565b614a35816130bb565b840191505092915050565b6000608082019050614a556000830187613159565b614a626020830186613159565b614a6f6040830185613252565b8181036060830152614a818184614a07565b905095945050505050565b600081519050614a9b81612fe6565b92915050565b600060208284031215614ab757614ab6612fb0565b5b6000614ac584828501614a8c565b91505092915050565b7f4552433732314d657461646174613a2055524920717565727920666f72206e6f60008201527f6e6578697374656e7420746f6b656e0000000000000000000000000000000000602082015250565b6000614b2a602f83613080565b9150614b3582614ace565b604082019050919050565b60006020820190508181036000830152614b5981614b1d565b9050919050565b7f4552433732313a206d696e7420746f20746865207a65726f2061646472657373600082015250565b6000614b96602083613080565b9150614ba182614b60565b602082019050919050565b60006020820190508181036000830152614bc581614b89565b9050919050565b7f4552433732313a20746f6b656e20616c7265616479206d696e74656400000000600082015250565b6000614c02601c83613080565b9150614c0d82614bcc565b602082019050919050565b60006020820190508181036000830152614c3181614bf5565b9050919050565b6000614c4382613183565b91507fffffffffffffffffffffffffffffffffffffffffffffffffffffffffffffffff8203614c7557614c746142f9565b5b600182019050919050565b7f4e487b7100000000000000000000000000000000000000000000000000000000600052601260045260246000fd5b6000614cba82613183565b9150614cc583613183565b925082614cd557614cd4614c80565b5b828204905092915050565b6000614ceb82613183565b9150614cf683613183565b925082614d0657614d05614c80565b5b828206905092915050565b7f4e487b7100000000000000000000000000000000000000000000000000000000600052603160045260246000fd5b7f4e487b7100000000000000000000000000000000000000000000000000000000600052602160045260246000fd5b7f45434453413a20696e76616c6964207369676e61747572650000000000000000600082015250565b6000614da5601883613080565b9150614db082614d6f565b602082019050919050565b60006020820190508181036000830152614dd481614d98565b9050919050565b7f45434453413a20696e76616c6964207369676e6174757265206c656e67746800600082015250565b6000614e11601f83613080565b9150614e1c82614ddb565b602082019050919050565b60006020820190508181036000830152614e4081614e04565b9050919050565b7f45434453413a20696e76616c6964207369676e6174757265202773272076616c60008201527f7565000000000000000000000000000000000000000000000000000000000000602082015250565b6000614ea3602283613080565b9150614eae82614e47565b604082019050919050565b60006020820190508181036000830152614ed281614e96565b9050919050565b7f45434453413a20696e76616c6964207369676e6174757265202776272076616c60008201527f7565000000000000000000000000000000000000000000000000000000000000602082015250565b6000614f35602283613080565b9150614f4082614ed9565b604082019050919050565b60006020820190508181036000830152614f6481614f28565b9050919050565b600060ff82169050919050565b614f8181614f6b565b82525050565b6000608082019050614f9c6000830187613ea4565b614fa96020830186614f78565b614fb66040830185613ea4565b614fc36060830184613ea4565b9594505050505056fea2646970667358221220c378243b8a2ed75a6b5d0454e3a63bfa35faef0bd64de734c391f68cc94b1a2064736f6c63430008110033a26469706673582212206f015947ca671a0b66ddfa469a7a4cabe9a3e75fda35cedff6d6fdffce01c1c564736f6c63430008110033",
  "immutableReferences": {},
  "source": "// SPDX-License-Identifier: MIT\npragma solidity ^0.8.7;\n\nimport \"./CosmoNuts.sol\";\n//import \"./CosmoVault.sol\";\n//import \"./ICosmoTreasury.sol\";\nimport \"./CosmoTreasury.sol\";\nimport \"./ICosmoBang.sol\";\n\ncontract CosmoBang is ICosmoBang {\n\n    struct Cosmo {\n        //string name;\n        //string symbol;\n        //uint256 supply;\n        address systemAddress;\n        address matterAddress;\n    }\n    Cosmo cosmo;\n\n    //address public override COSMO_ADDRESS;\n\n    //CosmoVault vault;\n    //CosmoTreasury treasury;\n    //CosmoTreasury treasury;\n    //CosmoNuts cosmonuts;\n\n    function initialize(\n        address _systemAddress,\n        address _matterAddress\n    ) public {\n        cosmo.systemAddress = _systemAddress;\n        cosmo.matterAddress = _matterAddress;\n    }\n\n    /*\n    constructor(\n        //string memory _name,\n        //string memory _symbol,\n        //uint256 _supply,\n        address _systemAddress,\n        address _matterAddress\n    )\n    {\n        //treasury = new CosmoTreasury(_systemAddress, _matterAddress);\n\n        //cosmo.name = _name;\n        //cosmo.symbol = _symbol;\n        //cosmo.supply = _supply;\n        cosmo.systemAddress = _systemAddress;\n        cosmo.matterAddress = _matterAddress;\n\n        /*\n        cosmonuts = new CosmoNuts(\n            cosmo.name,\n            cosmo.symbol,\n            cosmo.supply,\n            cosmo.systemAddress,\n            address(treasury)\n        );\n\n        COSMO_ADDRESS = address(cosmonuts);\n\n    }\n    */\n\n    function createTreasury() internal returns (address) {\n        CosmoTreasury treasury = new CosmoTreasury(cosmo.systemAddress, cosmo.matterAddress);\n        return address(treasury);\n    }\n\n    function createNuts(\n        string memory _name,\n        string memory _symbol,\n        uint256 _supply,\n        address _treasuryLocation\n    ) internal returns (address) {\n        CosmoNuts nuts = new CosmoNuts(\n           _name,\n            _symbol,\n            _supply,\n            cosmo.systemAddress,\n            _treasuryLocation\n        );\n\n        return address(nuts);\n    }\n\n    function createCosmo(\n        string memory _name,\n        string memory _symbol,\n        uint256 _supply\n    ) external virtual override returns (address) {\n        address treasuryAddress = createTreasury();\n        return createNuts(_name, _symbol, _supply, treasuryAddress);\n    }\n\n    /*\n    function nutBang() external {\n        CosmoNuts cosmonuts = new CosmoNuts(\n            cosmo.name,\n            cosmo.symbol,\n            cosmo.supply,\n            cosmo.systemAddress,\n            cosmo.vaultAddress\n        );\n        COSMO_ADDRESS = address(cosmonuts);\n    }\n    */\n\n    /*\n    function nutBang(\n        string memory _cosmosName,\n        string memory _cosmosSymbol,\n        uint256 _nutPrice,\n        uint256 _nutRate,\n        uint256 _desiredEntities\n    ) external returns (address[] memory cosmoAddresses) {\n        vault.entityCreation(_nutPrice, _nutRate, _desiredEntities);\n        CosmoNuts cosmonuts = new CosmoNuts(\n            _cosmosName,\n            _cosmosSymbol,\n            _desiredEntities,\n            vault.SYSTEM_ADDRESS(),\n            vault.TREASURY_ADDRESS()\n        );\n        cosmoAddresses[0] = address(vault);\n        cosmoAddresses[1] = address(cosmonuts);\n        return cosmoAddresses;\n    }\n    */\n\n}\n",
  "sourcePath": "/home/redlentils/Seafile/Websites/avatarnft/contracts/CosmoBang.sol",
  "compiler": {
    "name": "solc",
    "version": "0.8.17+commit.8df45f5f.Emscripten.clang"
  },
  "schemaVersion": "3.4.10",
  "updatedAt": "2022-10-18T06:08:11.321Z",
  "devdoc": {
    "kind": "dev",
    "methods": {},
    "version": 1
  },
  "userdoc": {
    "kind": "user",
    "methods": {},
    "version": 1
  }
}