{
  "contractName": "CosmoVault",
  "abi": [
    {
      "inputs": [
        {
          "internalType": "address",
          "name": "_systemAddress",
          "type": "address"
        },
        {
          "internalType": "address",
          "name": "_matterAddress",
          "type": "address"
        },
        {
          "internalType": "uint256",
          "name": "_nutPrice",
          "type": "uint256"
        },
        {
          "internalType": "uint256",
          "name": "_matterRate",
          "type": "uint256"
        }
      ],
      "stateMutability": "nonpayable",
      "type": "constructor"
    },
    {
      "inputs": [],
      "name": "MATTER_RATE",
      "outputs": [
        {
          "internalType": "uint256",
          "name": "",
          "type": "uint256"
        }
      ],
      "stateMutability": "view",
      "type": "function"
    },
    {
      "inputs": [],
      "name": "NUT_PRICE",
      "outputs": [
        {
          "internalType": "uint256",
          "name": "",
          "type": "uint256"
        }
      ],
      "stateMutability": "view",
      "type": "function"
    },
    {
      "inputs": [],
      "name": "SYSTEM_ADDRESS",
      "outputs": [
        {
          "internalType": "address",
          "name": "",
          "type": "address"
        }
      ],
      "stateMutability": "view",
      "type": "function"
    },
    {
      "inputs": [],
      "name": "TREASURY_ADDRESS",
      "outputs": [
        {
          "internalType": "address",
          "name": "",
          "type": "address"
        }
      ],
      "stateMutability": "view",
      "type": "function"
    },
    {
      "inputs": [
        {
          "internalType": "uint256",
          "name": "_nutId",
          "type": "uint256"
        }
      ],
      "name": "calcMatterNeeded",
      "outputs": [
        {
          "internalType": "uint256",
          "name": "",
          "type": "uint256"
        }
      ],
      "stateMutability": "view",
      "type": "function"
    },
    {
      "inputs": [
        {
          "internalType": "uint256",
          "name": "_nutIndex",
          "type": "uint256"
        }
      ],
      "name": "giveMintBalance",
      "outputs": [],
      "stateMutability": "nonpayable",
      "type": "function"
    },
    {
      "inputs": [
        {
          "internalType": "uint256",
          "name": "_seedId",
          "type": "uint256"
        }
      ],
      "name": "growSeedFromNut",
      "outputs": [],
      "stateMutability": "nonpayable",
      "type": "function"
    },
    {
      "inputs": [
        {
          "internalType": "uint256",
          "name": "_nutId",
          "type": "uint256"
        },
        {
          "internalType": "bytes32",
          "name": "_secretHash",
          "type": "bytes32"
        }
      ],
      "name": "newSeed",
      "outputs": [],
      "stateMutability": "nonpayable",
      "type": "function"
    },
    {
      "inputs": [
        {
          "internalType": "uint256",
          "name": "_nutId",
          "type": "uint256"
        },
        {
          "internalType": "uint256",
          "name": "_matterContributed",
          "type": "uint256"
        },
        {
          "internalType": "bytes32",
          "name": "_secretHash",
          "type": "bytes32"
        }
      ],
      "name": "newButterJar",
      "outputs": [],
      "stateMutability": "nonpayable",
      "type": "function"
    },
    {
      "inputs": [
        {
          "internalType": "bytes32",
          "name": "_pathHash",
          "type": "bytes32"
        },
        {
          "internalType": "bytes",
          "name": "_signature",
          "type": "bytes"
        }
      ],
      "name": "isVerified",
      "outputs": [
        {
          "internalType": "bool",
          "name": "",
          "type": "bool"
        }
      ],
      "stateMutability": "view",
      "type": "function"
    }
  ],
  "bytecode": "0x60806040523480156200001157600080fd5b506040516200631b3803806200631b8339818101604052810190620000379190620001e4565b83838284604051620000499062000131565b62000058949392919062000278565b604051809103906000f08015801562000075573d6000803e3d6000fd5b50600460006101000a81548173ffffffffffffffffffffffffffffffffffffffff021916908373ffffffffffffffffffffffffffffffffffffffff160217905550600460009054906101000a900473ffffffffffffffffffffffffffffffffffffffff16600160006101000a81548173ffffffffffffffffffffffffffffffffffffffff021916908373ffffffffffffffffffffffffffffffffffffffff160217905550816002819055508060038190555050505050620002c5565b614d4d80620015ce83390190565b600080fd5b600073ffffffffffffffffffffffffffffffffffffffff82169050919050565b6000620001718262000144565b9050919050565b620001838162000164565b81146200018f57600080fd5b50565b600081519050620001a38162000178565b92915050565b6000819050919050565b620001be81620001a9565b8114620001ca57600080fd5b50565b600081519050620001de81620001b3565b92915050565b600080600080608085870312156200020157620002006200013f565b5b6000620002118782880162000192565b9450506020620002248782880162000192565b93505060406200023787828801620001cd565b92505060606200024a87828801620001cd565b91505092959194509250565b620002618162000164565b82525050565b6200027281620001a9565b82525050565b60006080820190506200028f600083018762000256565b6200029e602083018662000256565b620002ad604083018562000267565b620002bc606083018462000267565b95945050505050565b6112f980620002d56000396000f3fe608060405234801561001057600080fd5b506004361061009e5760003560e01c80637fcacc0e116100665780637fcacc0e1461014957806386d3d87114610179578063911da06214610195578063b8a9736d146101b1578063f27890f2146101cf5761009e565b806307604b1a146100a35780632c533085146100c15780633434735f146100df578063347518a8146100fd57806334fc122814610119575b600080fd5b6100ab6101eb565b6040516100b89190610ae9565b60405180910390f35b6100c9610211565b6040516100d69190610b1d565b60405180910390f35b6100e7610217565b6040516100f49190610ae9565b60405180910390f35b61011760048036038101906101129190610b78565b61023b565b005b610133600480360381019061012e9190610b78565b6102ef565b6040516101409190610b1d565b60405180910390f35b610163600480360381019061015e9190610d21565b610394565b6040516101709190610d98565b60405180910390f35b610193600480360381019061018e9190610db3565b610438565b005b6101af60048036038101906101aa9190610df3565b6104cb565b005b6101b9610565565b6040516101c69190610b1d565b60405180910390f35b6101e960048036038101906101e49190610b78565b61056b565b005b600160009054906101000a900473ffffffffffffffffffffffffffffffffffffffff1681565b60035481565b60008054906101000a900473ffffffffffffffffffffffffffffffffffffffff1681565b600460009054906101000a900473ffffffffffffffffffffffffffffffffffffffff1673ffffffffffffffffffffffffffffffffffffffff16631c85949c600160009054906101000a900473ffffffffffffffffffffffffffffffffffffffff16836040518363ffffffff1660e01b81526004016102ba929190610e46565b600060405180830381600087803b1580156102d457600080fd5b505af11580156102e8573d6000803e3d6000fd5b5050505050565b6000600460009054906101000a900473ffffffffffffffffffffffffffffffffffffffff1673ffffffffffffffffffffffffffffffffffffffff16638ed3df0f836040518263ffffffff1660e01b815260040161034c9190610b1d565b602060405180830381865afa158015610369573d6000803e3d6000fd5b505050506040513d601f19601f8201168201806040525081019061038d9190610e84565b9050919050565b60008060009054906101000a900473ffffffffffffffffffffffffffffffffffffffff1673ffffffffffffffffffffffffffffffffffffffff166103d884846106ac565b73ffffffffffffffffffffffffffffffffffffffff161461042e576040517f08c379a000000000000000000000000000000000000000000000000000000000815260040161042590610f0e565b60405180910390fd5b6001905092915050565b600460009054906101000a900473ffffffffffffffffffffffffffffffffffffffff1673ffffffffffffffffffffffffffffffffffffffff1663fe774f9d83836040518363ffffffff1660e01b8152600401610495929190610f3d565b600060405180830381600087803b1580156104af57600080fd5b505af11580156104c3573d6000803e3d6000fd5b505050505050565b600460009054906101000a900473ffffffffffffffffffffffffffffffffffffffff1673ffffffffffffffffffffffffffffffffffffffff166303f5de9d8484600354856040518563ffffffff1660e01b815260040161052e9493929190610f66565b600060405180830381600087803b15801561054857600080fd5b505af115801561055c573d6000803e3d6000fd5b50505050505050565b60025481565b6000600460009054906101000a900473ffffffffffffffffffffffffffffffffffffffff1673ffffffffffffffffffffffffffffffffffffffff1663d4d81032836040518263ffffffff1660e01b81526004016105c89190610b1d565b602060405180830381865afa1580156105e5573d6000803e3d6000fd5b505050506040513d601f19601f820116820180604052508101906106099190610e84565b90506000610616826102ef565b9050600460009054906101000a900473ffffffffffffffffffffffffffffffffffffffff1673ffffffffffffffffffffffffffffffffffffffff1663a06fc90b84836040518363ffffffff1660e01b8152600401610675929190610fab565b600060405180830381600087803b15801561068f57600080fd5b505af11580156106a3573d6000803e3d6000fd5b50505050505050565b60006106c182846106c990919063ffffffff16565b905092915050565b60008060006106d885856106f0565b915091506106e581610771565b819250505092915050565b60008060418351036107315760008060006020860151925060408601519150606086015160001a90506107258782858561093d565b9450945050505061076a565b6040835103610761576000806020850151915060408501519050610756868383610a49565b93509350505061076a565b60006002915091505b9250929050565b6000600481111561078557610784610fd4565b5b81600481111561079857610797610fd4565b5b031561093a57600160048111156107b2576107b1610fd4565b5b8160048111156107c5576107c4610fd4565b5b03610805576040517f08c379a00000000000000000000000000000000000000000000000000000000081526004016107fc9061104f565b60405180910390fd5b6002600481111561081957610818610fd4565b5b81600481111561082c5761082b610fd4565b5b0361086c576040517f08c379a0000000000000000000000000000000000000000000000000000000008152600401610863906110bb565b60405180910390fd5b600360048111156108805761087f610fd4565b5b81600481111561089357610892610fd4565b5b036108d3576040517f08c379a00000000000000000000000000000000000000000000000000000000081526004016108ca9061114d565b60405180910390fd5b6004808111156108e6576108e5610fd4565b5b8160048111156108f9576108f8610fd4565b5b03610939576040517f08c379a0000000000000000000000000000000000000000000000000000000008152600401610930906111df565b60405180910390fd5b5b50565b6000807f7fffffffffffffffffffffffffffffff5d576e7357a4501ddfe92f46681b20a08360001c1115610978576000600391509150610a40565b601b8560ff16141580156109905750601c8560ff1614155b156109a2576000600491509150610a40565b6000600187878787604051600081526020016040526040516109c7949392919061121b565b6020604051602081039080840390855afa1580156109e9573d6000803e3d6000fd5b505050602060405103519050600073ffffffffffffffffffffffffffffffffffffffff168173ffffffffffffffffffffffffffffffffffffffff1603610a3757600060019250925050610a40565b80600092509250505b94509492505050565b60008060007f7fffffffffffffffffffffffffffffffffffffffffffffffffffffffffffffff60001b841690506000601b60ff8660001c901c610a8c919061128f565b9050610a9a8782888561093d565b935093505050935093915050565b600073ffffffffffffffffffffffffffffffffffffffff82169050919050565b6000610ad382610aa8565b9050919050565b610ae381610ac8565b82525050565b6000602082019050610afe6000830184610ada565b92915050565b6000819050919050565b610b1781610b04565b82525050565b6000602082019050610b326000830184610b0e565b92915050565b6000604051905090565b600080fd5b600080fd5b610b5581610b04565b8114610b6057600080fd5b50565b600081359050610b7281610b4c565b92915050565b600060208284031215610b8e57610b8d610b42565b5b6000610b9c84828501610b63565b91505092915050565b6000819050919050565b610bb881610ba5565b8114610bc357600080fd5b50565b600081359050610bd581610baf565b92915050565b600080fd5b600080fd5b6000601f19601f8301169050919050565b7f4e487b7100000000000000000000000000000000000000000000000000000000600052604160045260246000fd5b610c2e82610be5565b810181811067ffffffffffffffff82111715610c4d57610c4c610bf6565b5b80604052505050565b6000610c60610b38565b9050610c6c8282610c25565b919050565b600067ffffffffffffffff821115610c8c57610c8b610bf6565b5b610c9582610be5565b9050602081019050919050565b82818337600083830152505050565b6000610cc4610cbf84610c71565b610c56565b905082815260208101848484011115610ce057610cdf610be0565b5b610ceb848285610ca2565b509392505050565b600082601f830112610d0857610d07610bdb565b5b8135610d18848260208601610cb1565b91505092915050565b60008060408385031215610d3857610d37610b42565b5b6000610d4685828601610bc6565b925050602083013567ffffffffffffffff811115610d6757610d66610b47565b5b610d7385828601610cf3565b9150509250929050565b60008115159050919050565b610d9281610d7d565b82525050565b6000602082019050610dad6000830184610d89565b92915050565b60008060408385031215610dca57610dc9610b42565b5b6000610dd885828601610b63565b9250506020610de985828601610bc6565b9150509250929050565b600080600060608486031215610e0c57610e0b610b42565b5b6000610e1a86828701610b63565b9350506020610e2b86828701610b63565b9250506040610e3c86828701610bc6565b9150509250925092565b6000604082019050610e5b6000830185610ada565b610e686020830184610b0e565b9392505050565b600081519050610e7e81610b4c565b92915050565b600060208284031215610e9a57610e99610b42565b5b6000610ea884828501610e6f565b91505092915050565b600082825260208201905092915050565b7f496e76616c6964207369676e6174757265000000000000000000000000000000600082015250565b6000610ef8601183610eb1565b9150610f0382610ec2565b602082019050919050565b60006020820190508181036000830152610f2781610eeb565b9050919050565b610f3781610ba5565b82525050565b6000604082019050610f526000830185610b0e565b610f5f6020830184610f2e565b9392505050565b6000608082019050610f7b6000830187610b0e565b610f886020830186610b0e565b610f956040830185610b0e565b610fa26060830184610f2e565b95945050505050565b6000604082019050610fc06000830185610b0e565b610fcd6020830184610b0e565b9392505050565b7f4e487b7100000000000000000000000000000000000000000000000000000000600052602160045260246000fd5b7f45434453413a20696e76616c6964207369676e61747572650000000000000000600082015250565b6000611039601883610eb1565b915061104482611003565b602082019050919050565b600060208201905081810360008301526110688161102c565b9050919050565b7f45434453413a20696e76616c6964207369676e6174757265206c656e67746800600082015250565b60006110a5601f83610eb1565b91506110b08261106f565b602082019050919050565b600060208201905081810360008301526110d481611098565b9050919050565b7f45434453413a20696e76616c6964207369676e6174757265202773272076616c60008201527f7565000000000000000000000000000000000000000000000000000000000000602082015250565b6000611137602283610eb1565b9150611142826110db565b604082019050919050565b600060208201905081810360008301526111668161112a565b9050919050565b7f45434453413a20696e76616c6964207369676e6174757265202776272076616c60008201527f7565000000000000000000000000000000000000000000000000000000000000602082015250565b60006111c9602283610eb1565b91506111d48261116d565b604082019050919050565b600060208201905081810360008301526111f8816111bc565b9050919050565b600060ff82169050919050565b611215816111ff565b82525050565b60006080820190506112306000830187610f2e565b61123d602083018661120c565b61124a6040830185610f2e565b6112576060830184610f2e565b95945050505050565b7f4e487b7100000000000000000000000000000000000000000000000000000000600052601160045260246000fd5b600061129a82610b04565b91506112a583610b04565b92508282019050808211156112bd576112bc611260565b5b9291505056fea264697066735822122041083950dbbfcb4684e4c9560783fd334b641e9c675c319444ce4ddd29dfce9264736f6c634300081100336080604052600080556000600755600060085560006009556000600f553480156200002957600080fd5b5060405162004d4d38038062004d4d83398181016040528101906200004f9190620001de565b83601260000160006101000a81548173ffffffffffffffffffffffffffffffffffffffff021916908373ffffffffffffffffffffffffffffffffffffffff16021790555082601260010160006101000a81548173ffffffffffffffffffffffffffffffffffffffff021916908373ffffffffffffffffffffffffffffffffffffffff16021790555030601260020160006101000a81548173ffffffffffffffffffffffffffffffffffffffff021916908373ffffffffffffffffffffffffffffffffffffffff16021790555080601660000181905550816016600101819055505050505062000250565b600080fd5b600073ffffffffffffffffffffffffffffffffffffffff82169050919050565b60006200016b826200013e565b9050919050565b6200017d816200015e565b81146200018957600080fd5b50565b6000815190506200019d8162000172565b92915050565b6000819050919050565b620001b881620001a3565b8114620001c457600080fd5b50565b600081519050620001d881620001ad565b92915050565b60008060008060808587031215620001fb57620001fa62000139565b5b60006200020b878288016200018c565b94505060206200021e878288016200018c565b93505060406200023187828801620001c7565b92505060606200024487828801620001c7565b91505092959194509250565b614aed80620002606000396000f3fe608060405260043610620001fa5760003560e01c80634ffe5a6f116200010f578063aef054ce11620000a3578063ea988be8116200006d578063ea988be8146200082f578063f50d4349146200085f578063f6317f8d14620008a3578063fe774f9d14620008d357620001fa565b8063aef054ce1462000733578063d4d810321462000777578063df4f5ccc14620007bb578063ea0f136614620007eb57620001fa565b80639578d3df11620000e55780639578d3df14620006605780639cee22b114620006a4578063a06fc90b14620006d2578063a83851b9146200070057620001fa565b80634ffe5a6f146200059457806353f97bc814620005d85780638ed3df0f146200061c57620001fa565b806323f526c011620001935780633279bd4f116200015d5780633279bd4f146200049857806339dc84f414620004dc57806347634e1c146200052057806349a6b51f146200056457620001fa565b806323f526c0146200039c57806326342ea414620003e0578063282adc8c146200041057806331ad1b42146200045457620001fa565b8063171e844111620001d5578063171e844114620002a25780631821907a14620002e65780631c85949c146200032a5780631e0b3964146200035857620001fa565b806302760a4814620001ff57806303f5de9d146200024357806315d3b7a01462000271575b600080fd5b3480156200020c57600080fd5b506200022b60048036038101906200022591906200205e565b620008f3565b6040516200023a9190620020ad565b60405180910390f35b3480156200025057600080fd5b506200026f600480360381019062000269919062002105565b62000913565b005b3480156200027e57600080fd5b5062000289620010a7565b6040516200029992919062002188565b60405180910390f35b348015620002af57600080fd5b50620002ce6004803603810190620002c891906200205e565b620010b9565b604051620002dd9190620020ad565b60405180910390f35b348015620002f357600080fd5b506200031260048036038101906200030c91906200205e565b620010d9565b604051620003219190620021b5565b60405180910390f35b3480156200033757600080fd5b5062000356600480360381019062000350919062002237565b620010f1565b005b3480156200036557600080fd5b506200038460048036038101906200037e91906200227e565b620012b4565b604051620003939190620021b5565b60405180910390f35b348015620003a957600080fd5b50620003c86004803603810190620003c291906200205e565b620012e6565b604051620003d79190620022d6565b60405180910390f35b348015620003ed57600080fd5b50620003f862001319565b604051620004079190620021b5565b60405180910390f35b3480156200041d57600080fd5b506200043c60048036038101906200043691906200205e565b6200131f565b6040516200044b9190620021b5565b60405180910390f35b3480156200046157600080fd5b506200048060048036038101906200047a91906200205e565b6200133f565b6040516200048f9190620021b5565b60405180910390f35b348015620004a557600080fd5b50620004c46004803603810190620004be91906200205e565b62001357565b604051620004d39190620021b5565b60405180910390f35b348015620004e957600080fd5b506200050860048036038101906200050291906200205e565b6200136f565b604051620005179190620022d6565b60405180910390f35b3480156200052d57600080fd5b506200054c60048036038101906200054691906200205e565b620013a2565b6040516200055b9190620021b5565b60405180910390f35b3480156200057157600080fd5b506200057c620013ba565b6040516200058b9190620021b5565b60405180910390f35b348015620005a157600080fd5b50620005c06004803603810190620005ba91906200205e565b620013c0565b604051620005cf9190620021b5565b60405180910390f35b348015620005e557600080fd5b50620006046004803603810190620005fe91906200227e565b620013d8565b604051620006139190620020ad565b60405180910390f35b3480156200062957600080fd5b506200064860048036038101906200064291906200205e565b62001407565b604051620006579190620021b5565b60405180910390f35b3480156200066d57600080fd5b506200068c60048036038101906200068691906200205e565b62001438565b6040516200069b9190620021b5565b60405180910390f35b348015620006b157600080fd5b50620006d06004803603810190620006ca9190620022f3565b6200145d565b005b348015620006df57600080fd5b50620006fe6004803603810190620006f891906200227e565b62001590565b005b3480156200070d57600080fd5b50620007186200183f565b6040516200072a949392919062002365565b60405180910390f35b3480156200074057600080fd5b506200075f60048036038101906200075991906200205e565b620018dd565b6040516200076e9190620022d6565b60405180910390f35b3480156200078457600080fd5b50620007a360048036038101906200079d91906200205e565b62001910565b604051620007b29190620021b5565b60405180910390f35b348015620007c857600080fd5b50620007d362001928565b604051620007e29190620021b5565b60405180910390f35b348015620007f857600080fd5b506200081760048036038101906200081191906200205e565b6200192e565b604051620008269190620021b5565b60405180910390f35b3480156200083c57600080fd5b506200084762001946565b604051620008569190620021b5565b60405180910390f35b3480156200086c57600080fd5b506200088b60048036038101906200088591906200205e565b6200194c565b6040516200089a9190620021b5565b60405180910390f35b348015620008b057600080fd5b50620008bb62001964565b604051620008ca9190620021b5565b60405180910390f35b620008f16004803603810190620008eb9190620023b2565b6200196a565b005b60116020528060005260406000206000915054906101000a900460ff1681565b60006018600086815260200190815260200160002060009054906101000a900473ffffffffffffffffffffffffffffffffffffffff1690503373ffffffffffffffffffffffffffffffffffffffff168173ffffffffffffffffffffffffffffffffffffffff1614620009bc576040517f08c379a0000000000000000000000000000000000000000000000000000000008152600401620009b3906200245a565b60405180910390fd5b836019600087815260200190815260200160002054101562000a15576040517f08c379a000000000000000000000000000000000000000000000000000000000815260040162000a0c90620024cc565b60405180910390fd5b6000601260010160009054906101000a900473ffffffffffffffffffffffffffffffffffffffff1690508073ffffffffffffffffffffffffffffffffffffffff166370a08231836040518263ffffffff1660e01b815260040162000a7a9190620022d6565b602060405180830381865afa15801562000a98573d6000803e3d6000fd5b505050506040513d601f19601f8201168201806040525081019062000abe919062002505565b85111562000b03576040517f08c379a000000000000000000000000000000000000000000000000000000000815260040162000afa9062002587565b60405180910390fd5b6000848662000b139190620025d8565b1462000b56576040517f08c379a000000000000000000000000000000000000000000000000000000000815260040162000b4d9062002660565b60405180910390fd5b60006002600088815260200190815260200160002054111562000be45784600f600082825462000b879190620026b1565b925050819055508460106000888152602001908152602001600020600082825462000bb39190620026b1565b92505081905550601a8690806001815401808255809150506001900390600052602060002001600090919091909150555b60008173ffffffffffffffffffffffffffffffffffffffff166370a08231601260020160009054906101000a900473ffffffffffffffffffffffffffffffffffffffff166040518263ffffffff1660e01b815260040162000c469190620022d6565b602060405180830381865afa15801562000c64573d6000803e3d6000fd5b505050506040513d601f19601f8201168201806040525081019062000c8a919062002505565b9050600081111562000f9b57600062000ca682600f5462001c2b565b90506000805b82811462000ef1576000601a8054905090506000810362000cce575062000ef1565b8082111562000cdc57600092505b6000601a848154811062000cf55762000cf4620026ec565b5b9060005260206000200154905060006018600083815260200190815260200160002060009054906101000a900473ffffffffffffffffffffffffffffffffffffffff1690506000601660010154600260008581526020019081526020016000205462000d6291906200271b565b90508060196000858152602001908152602001600020540362000daa57601a868154811062000d965762000d95620026ec565b5b906000526020600020016000905562000ec7565b8873ffffffffffffffffffffffffffffffffffffffff1663a9059cbb8360016040518363ffffffff1660e01b815260040162000de8929190620027b3565b6020604051808303816000875af115801562000e08573d6000803e3d6000fd5b505050506040513d601f19601f8201168201806040525081019062000e2e919062002811565b50601a839080600181540180825580915050600190039060005260206000200160009091909190915055601a868154811062000e6f5762000e6e620026ec565b5b90600052602060002001600090556001600f600082825462000e92919062002843565b92505081905550600160106000858152602001908152602001600020600082825462000ebf919062002843565b925050819055505b858062000ed4906200287e565b96505050505050808062000ee8906200287e565b91505062000cac565b508373ffffffffffffffffffffffffffffffffffffffff166370a08231601260020160009054906101000a900473ffffffffffffffffffffffffffffffffffffffff166040518263ffffffff1660e01b815260040162000f529190620022d6565b602060405180830381865afa15801562000f70573d6000803e3d6000fd5b505050506040513d601f19601f8201168201806040525081019062000f96919062002505565b925050505b6000600954888888601260020160009054906101000a900473ffffffffffffffffffffffffffffffffffffffff168960405162000fd89062002002565b62000fe996959493929190620028dc565b604051809103906000f08015801562001006573d6000803e3d6000fd5b5090508273ffffffffffffffffffffffffffffffffffffffff1663a9059cbb82896040518363ffffffff1660e01b81526004016200104692919062002949565b6020604051808303816000875af115801562001066573d6000803e3d6000fd5b505050506040513d601f19601f820116820180604052508101906200108c919062002811565b506200109d88600954838a62001c46565b5050505050505050565b60168060000154908060010154905082565b60066020528060005260406000206000915054906101000a900460ff1681565b600d6020528060005260406000206000915090505481565b6000601260010160009054906101000a900473ffffffffffffffffffffffffffffffffffffffff1690506016600101548173ffffffffffffffffffffffffffffffffffffffff166370a08231601260020160009054906101000a900473ffffffffffffffffffffffffffffffffffffffff166040518263ffffffff1660e01b8152600401620011819190620022d6565b602060405180830381865afa1580156200119f573d6000803e3d6000fd5b505050506040513d601f19601f82011682018060405250810190620011c5919062002505565b101562001209576040517f08c379a00000000000000000000000000000000000000000000000000000000081526004016200120090620029c6565b60405180910390fd5b8073ffffffffffffffffffffffffffffffffffffffff1663a9059cbb846016600101546040518363ffffffff1660e01b81526004016200124b92919062002949565b6020604051808303816000875af11580156200126b573d6000803e3d6000fd5b505050506040513d601f19601f8201168201806040525081019062001291919062002811565b506016600101546019600084815260200190815260200160002081905550505050565b600a6020528160005260406000208181548110620012d157600080fd5b90600052602060002001600091509150505481565b60056020528060005260406000206000915054906101000a900473ffffffffffffffffffffffffffffffffffffffff1681565b60095481565b6000600a6000838152602001908152602001600020805490509050919050565b60016020528060005260406000206000915090505481565b600c6020528060005260406000206000915090505481565b60186020528060005260406000206000915054906101000a900473ffffffffffffffffffffffffffffffffffffffff1681565b600e6020528060005260406000206000915090505481565b60085481565b60106020528060005260406000206000915090505481565b60046020528160005260406000206020528060005260406000206000915091509054906101000a900460ff1681565b60006001806000848152602001908152602001600020546200142a9190620026b1565b601660010154189050919050565b601a81815481106200144957600080fd5b906000526020600020016000915090505481565b6000601260010160009054906101000a900473ffffffffffffffffffffffffffffffffffffffff1690508073ffffffffffffffffffffffffffffffffffffffff1663a9059cbb86856040518363ffffffff1660e01b8152600401620014c492919062002949565b6020604051808303816000875af1158015620014e4573d6000803e3d6000fd5b505050506040513d601f19601f820116820180604052508101906200150a919062002811565b508073ffffffffffffffffffffffffffffffffffffffff16634bbc1bcd30856040518363ffffffff1660e01b81526004016200154892919062002949565b600060405180830381600087803b1580156200156357600080fd5b505af115801562001578573d6000803e3d6000fd5b505050506200158984848462001d7f565b5050505050565b60006005600084815260200190815260200160002060009054906101000a900473ffffffffffffffffffffffffffffffffffffffff1690508073ffffffffffffffffffffffffffffffffffffffff163373ffffffffffffffffffffffffffffffffffffffff161462001639576040517f08c379a0000000000000000000000000000000000000000000000000000000008152600401620016309062002a5e565b60405180910390fd5b60008190506000601860008373ffffffffffffffffffffffffffffffffffffffff1663685771f46040518163ffffffff1660e01b8152600401602060405180830381865afa15801562001690573d6000803e3d6000fd5b505050506040513d601f19601f82011682018060405250810190620016b6919062002505565b815260200190815260200160002060009054906101000a900473ffffffffffffffffffffffffffffffffffffffff1690506000601260010160009054906101000a900473ffffffffffffffffffffffffffffffffffffffff1690508073ffffffffffffffffffffffffffffffffffffffff1663a9059cbb83876040518363ffffffff1660e01b81526004016200174e92919062002949565b6020604051808303816000875af11580156200176e573d6000803e3d6000fd5b505050506040513d601f19601f8201168201806040525081019062001794919062002811565b508073ffffffffffffffffffffffffffffffffffffffff16634bbc1bcd601260020160009054906101000a900473ffffffffffffffffffffffffffffffffffffffff1660016040518363ffffffff1660e01b8152600401620017f8929190620027b3565b600060405180830381600087803b1580156200181357600080fd5b505af115801562001828573d6000803e3d6000fd5b50505050620018378662001e42565b505050505050565b60128060000160009054906101000a900473ffffffffffffffffffffffffffffffffffffffff16908060010160009054906101000a900473ffffffffffffffffffffffffffffffffffffffff16908060020160009054906101000a900473ffffffffffffffffffffffffffffffffffffffff16908060030160009054906101000a900473ffffffffffffffffffffffffffffffffffffffff16905084565b600b6020528060005260406000206000915054906101000a900473ffffffffffffffffffffffffffffffffffffffff1681565b60036020528060005260406000206000915090505481565b600f5481565b60026020528060005260406000206000915090505481565b60005481565b60196020528060005260406000206000915090505481565b60075481565b6000600160026000858152602001908152602001600020546200198e9190620026b1565b60166000015418905080341015620019dd576040517f08c379a0000000000000000000000000000000000000000000000000000000008152600401620019d49062002ad0565b60405180910390fd5b6000601260010160009054906101000a900473ffffffffffffffffffffffffffffffffffffffff169050600062001a148562001407565b905060008273ffffffffffffffffffffffffffffffffffffffff166370a082316018600089815260200190815260200160002060009054906101000a900473ffffffffffffffffffffffffffffffffffffffff166040518263ffffffff1660e01b815260040162001a869190620022d6565b602060405180830381865afa15801562001aa4573d6000803e3d6000fd5b505050506040513d601f19601f8201168201806040525081019062001aca919062002505565b90508181101562001b12576040517f08c379a000000000000000000000000000000000000000000000000000000000815260040162001b099062002b42565b60405180910390fd5b6000805487308860405162001b279062002010565b62001b36949392919062002b64565b604051809103906000f08015801562001b53573d6000803e3d6000fd5b509050600081905062001b6a886000548362001ee3565b8473ffffffffffffffffffffffffffffffffffffffff166342966c68856040518263ffffffff1660e01b815260040162001ba59190620021b5565b600060405180830381600087803b15801562001bc057600080fd5b505af115801562001bd5573d6000803e3d6000fd5b505050508073ffffffffffffffffffffffffffffffffffffffff166108fc349081150290604051600060405180830381858888f1935050505015801562001c20573d6000803e3d6000fd5b505050505050505050565b600081831062001c3c578162001c3e565b825b905092915050565b60016009600082825462001c5b9190620026b1565b92505081905550806007600082825462001c769190620026b1565b92505081905550600a600085815260200190815260200160002083908060018154018082558091505060019003906000526020600020016000909190919091505580600d6000868152602001908152602001600020600082825462001cdc9190620026b1565b9250508190555081600b600086815260200190815260200160002060006101000a81548173ffffffffffffffffffffffffffffffffffffffff021916908373ffffffffffffffffffffffffffffffffffffffff16021790555060016011600086815260200190815260200160002060006101000a81548160ff02191690831515021790555083600e60008581526020019081526020016000208190555050505050565b816007600082825462001d93919062002843565b92505081905550816008600082825462001dae9190620026b1565b925050819055506000600e600085815260200190815260200160002054905082600c6000838152602001908152602001600020600082825462001df29190620026b1565b925050819055506000838362001e09919062002843565b0362001e3c5760006011600086815260200190815260200160002060006101000a81548160ff0219169083151502179055505b50505050565b6000600360008381526020019081526020016000205490506001806000838152602001908152602001600020600082825462001e7f919062002843565b92505081905550600160026000838152602001908152602001600020600082825462001eac9190620026b1565b9250508190555060006006600083815260200190815260200160002060006101000a81548160ff0219169083151502179055505050565b8260036000848152602001908152602001600020819055506001806000858152602001908152602001600020600082825462001f209190620026b1565b92505081905550600160046000848152602001908152602001600020600085815260200190815260200160002060006101000a81548160ff021916908315150217905550806005600084815260200190815260200160002060006101000a81548173ffffffffffffffffffffffffffffffffffffffff021916908373ffffffffffffffffffffffffffffffffffffffff160217905550600160008082825462001fca9190620026b1565b9250508190555060016006600085815260200190815260200160002060006101000a81548160ff021916908315150217905550505050565b610d218062002bb283390190565b6111e580620038d383390190565b600080fd5b6000819050919050565b620020388162002023565b81146200204457600080fd5b50565b60008135905062002058816200202d565b92915050565b6000602082840312156200207757620020766200201e565b5b6000620020878482850162002047565b91505092915050565b60008115159050919050565b620020a78162002090565b82525050565b6000602082019050620020c460008301846200209c565b92915050565b6000819050919050565b620020df81620020ca565b8114620020eb57600080fd5b50565b600081359050620020ff81620020d4565b92915050565b600080600080608085870312156200212257620021216200201e565b5b6000620021328782880162002047565b9450506020620021458782880162002047565b9350506040620021588782880162002047565b92505060606200216b87828801620020ee565b91505092959194509250565b620021828162002023565b82525050565b60006040820190506200219f600083018562002177565b620021ae602083018462002177565b9392505050565b6000602082019050620021cc600083018462002177565b92915050565b600073ffffffffffffffffffffffffffffffffffffffff82169050919050565b6000620021ff82620021d2565b9050919050565b6200221181620021f2565b81146200221d57600080fd5b50565b600081359050620022318162002206565b92915050565b600080604083850312156200225157620022506200201e565b5b6000620022618582860162002220565b9250506020620022748582860162002047565b9150509250929050565b600080604083850312156200229857620022976200201e565b5b6000620022a88582860162002047565b9250506020620022bb8582860162002047565b9150509250929050565b620022d081620021f2565b82525050565b6000602082019050620022ed6000830184620022c5565b92915050565b6000806000806080858703121562002310576200230f6200201e565b5b6000620023208782880162002220565b9450506020620023338782880162002047565b9350506040620023468782880162002047565b9250506060620023598782880162002047565b91505092959194509250565b60006080820190506200237c6000830187620022c5565b6200238b6020830186620022c5565b6200239a6040830185620022c5565b620023a96060830184620022c5565b95945050505050565b60008060408385031215620023cc57620023cb6200201e565b5b6000620023dc8582860162002047565b9250506020620023ef85828601620020ee565b9150509250929050565b600082825260208201905092915050565b7f43616c6c6572206973206e6f7420746865206f776e6572000000000000000000600082015250565b600062002442601783620023f9565b91506200244f826200240a565b602082019050919050565b60006020820190508181036000830152620024758162002433565b9050919050565b7f4e6f74206861766520656e6f756768206d617474657200000000000000000000600082015250565b6000620024b4601683620023f9565b9150620024c1826200247c565b602082019050919050565b60006020820190508181036000830152620024e781620024a5565b9050919050565b600081519050620024ff816200202d565b92915050565b6000602082840312156200251e576200251d6200201e565b5b60006200252e84828501620024ee565b91505092915050565b7f4e6f74206869676820656e6f7567680000000000000000000000000000000000600082015250565b60006200256f600f83620023f9565b91506200257c8262002537565b602082019050919050565b60006020820190508181036000830152620025a28162002560565b9050919050565b7f4e487b7100000000000000000000000000000000000000000000000000000000600052601260045260246000fd5b6000620025e58262002023565b9150620025f28362002023565b925082620026055762002604620025a9565b5b828206905092915050565b7f447261772072617465206e6f7420646976697369626c65000000000000000000600082015250565b600062002648601783620023f9565b9150620026558262002610565b602082019050919050565b600060208201905081810360008301526200267b8162002639565b9050919050565b7f4e487b7100000000000000000000000000000000000000000000000000000000600052601160045260246000fd5b6000620026be8262002023565b9150620026cb8362002023565b9250828201905080821115620026e657620026e562002682565b5b92915050565b7f4e487b7100000000000000000000000000000000000000000000000000000000600052603260045260246000fd5b6000620027288262002023565b9150620027358362002023565b9250828202620027458162002023565b915082820484148315176200275f576200275e62002682565b5b5092915050565b6000819050919050565b6000819050919050565b60006200279b620027956200278f8462002766565b62002770565b62002023565b9050919050565b620027ad816200277a565b82525050565b6000604082019050620027ca6000830185620022c5565b620027d96020830184620027a2565b9392505050565b620027eb8162002090565b8114620027f757600080fd5b50565b6000815190506200280b81620027e0565b92915050565b6000602082840312156200282a57620028296200201e565b5b60006200283a84828501620027fa565b91505092915050565b6000620028508262002023565b91506200285d8362002023565b925082820390508181111562002878576200287762002682565b5b92915050565b60006200288b8262002023565b91507fffffffffffffffffffffffffffffffffffffffffffffffffffffffffffffffff8203620028c057620028bf62002682565b5b600182019050919050565b620028d681620020ca565b82525050565b600060c082019050620028f3600083018962002177565b62002902602083018862002177565b62002911604083018762002177565b62002920606083018662002177565b6200292f6080830185620022c5565b6200293e60a0830184620028cb565b979650505050505050565b6000604082019050620029606000830185620022c5565b6200296f602083018462002177565b9392505050565b7f4e6f7420656e6f756768206d6174746572000000000000000000000000000000600082015250565b6000620029ae601183620023f9565b9150620029bb8262002976565b602082019050919050565b60006020820190508181036000830152620029e1816200299f565b9050919050565b7f43616c6c6572206973206e6f742074686520726967687420436f736d6f53656560008201527f6420636f6e747261637400000000000000000000000000000000000000000000602082015250565b600062002a46602a83620023f9565b915062002a5382620029e8565b604082019050919050565b6000602082019050818103600083015262002a798162002a37565b9050919050565b7f45746865722076616c7565206973206e6f7420656e6f75676800000000000000600082015250565b600062002ab8601983620023f9565b915062002ac58262002a80565b602082019050919050565b6000602082019050818103600083015262002aeb8162002aa9565b9050919050565b7f4d61747465722062616c616e6365206973206e6f7420656e6f75676800000000600082015250565b600062002b2a601c83620023f9565b915062002b378262002af2565b602082019050919050565b6000602082019050818103600083015262002b5d8162002b1b565b9050919050565b600060808201905062002b7b600083018762002177565b62002b8a602083018662002177565b62002b996040830185620022c5565b62002ba86060830184620028cb565b9594505050505056fe60806040523480156200001157600080fd5b5060405162000d2138038062000d21833981810160405281019062000037919062000283565b85600080018190555084600060010181905550836000600201819055508260006003018190555030600060040160006101000a81548173ffffffffffffffffffffffffffffffffffffffff021916908373ffffffffffffffffffffffffffffffffffffffff16021790555033600060050160006101000a81548173ffffffffffffffffffffffffffffffffffffffff021916908373ffffffffffffffffffffffffffffffffffffffff16021790555080600060060181905550600060050160009054906101000a900473ffffffffffffffffffffffffffffffffffffffff16600860006101000a81548173ffffffffffffffffffffffffffffffffffffffff021916908373ffffffffffffffffffffffffffffffffffffffff16021790555081600960006101000a81548173ffffffffffffffffffffffffffffffffffffffff021916908373ffffffffffffffffffffffffffffffffffffffff1602179055505050505050506200031f565b600080fd5b6000819050919050565b620001bd81620001a8565b8114620001c957600080fd5b50565b600081519050620001dd81620001b2565b92915050565b600073ffffffffffffffffffffffffffffffffffffffff82169050919050565b60006200021082620001e3565b9050919050565b620002228162000203565b81146200022e57600080fd5b50565b600081519050620002428162000217565b92915050565b6000819050919050565b6200025d8162000248565b81146200026957600080fd5b50565b6000815190506200027d8162000252565b92915050565b60008060008060008060c08789031215620002a357620002a2620001a3565b5b6000620002b389828a01620001cc565b9650506020620002c689828a01620001cc565b9550506040620002d989828a01620001cc565b9450506060620002ec89828a01620001cc565b9350506080620002ff89828a0162000231565b92505060a06200031289828a016200026c565b9150509295509295509295565b6109f2806200032f6000396000f3fe608060405234801561001057600080fd5b506004361061002b5760003560e01c806327ac1b6514610030575b600080fd5b61004a60048036038101906100459190610563565b61004c565b005b60011515600060070160003373ffffffffffffffffffffffffffffffffffffffff1673ffffffffffffffffffffffffffffffffffffffff16815260200190815260200160002060009054906101000a900460ff161515036100e2576040517f08c379a00000000000000000000000000000000000000000000000000000000081526004016100d990610667565b60405180910390fd5b6000806002015411610129576040517f08c379a0000000000000000000000000000000000000000000000000000000008152600401610120906106d3565b60405180910390fd5b610132836102eb565b50600960009054906101000a900473ffffffffffffffffffffffffffffffffffffffff1673ffffffffffffffffffffffffffffffffffffffff16639cee22b13360008001546000600301546000600201546040518563ffffffff1660e01b81526004016101a2949392919061074d565b600060405180830381600087803b1580156101bc57600080fd5b505af11580156101d0573d6000803e3d6000fd5b50505050600060030154600060020160008282546101ee91906107c1565b925050819055506001600060070160003373ffffffffffffffffffffffffffffffffffffffff1673ffffffffffffffffffffffffffffffffffffffff16815260200190815260200160002060006101000a81548160ff021916908315150217905550600860009054906101000a900473ffffffffffffffffffffffffffffffffffffffff1673ffffffffffffffffffffffffffffffffffffffff16639202c1ec60006001015484846040518463ffffffff1660e01b81526004016102b4939291906108b8565b600060405180830381600087803b1580156102ce57600080fd5b505af11580156102e2573d6000803e3d6000fd5b50505050505050565b600080826040516020016102ff9190610939565b604051602081830303815290604052805190602001209050600060060154811461035e576040517f08c379a00000000000000000000000000000000000000000000000000000000081526004016103559061099c565b60405180910390fd5b6001915050919050565b6000604051905090565b600080fd5b600080fd5b600080fd5b600080fd5b6000601f19601f8301169050919050565b7f4e487b7100000000000000000000000000000000000000000000000000000000600052604160045260246000fd5b6103cf82610386565b810181811067ffffffffffffffff821117156103ee576103ed610397565b5b80604052505050565b6000610401610368565b905061040d82826103c6565b919050565b600067ffffffffffffffff82111561042d5761042c610397565b5b61043682610386565b9050602081019050919050565b82818337600083830152505050565b600061046561046084610412565b6103f7565b90508281526020810184848401111561048157610480610381565b5b61048c848285610443565b509392505050565b600082601f8301126104a9576104a861037c565b5b81356104b9848260208601610452565b91505092915050565b600067ffffffffffffffff8211156104dd576104dc610397565b5b6104e682610386565b9050602081019050919050565b6000610506610501846104c2565b6103f7565b90508281526020810184848401111561052257610521610381565b5b61052d848285610443565b509392505050565b600082601f83011261054a5761054961037c565b5b813561055a8482602086016104f3565b91505092915050565b60008060006060848603121561057c5761057b610372565b5b600084013567ffffffffffffffff81111561059a57610599610377565b5b6105a686828701610494565b935050602084013567ffffffffffffffff8111156105c7576105c6610377565b5b6105d386828701610494565b925050604084013567ffffffffffffffff8111156105f4576105f3610377565b5b61060086828701610535565b9150509250925092565b600082825260208201905092915050565b7f43616e206f6e6c792064726177206f6e63650000000000000000000000000000600082015250565b600061065160128361060a565b915061065c8261061b565b602082019050919050565b6000602082019050818103600083015261068081610644565b9050919050565b7f4e6f2062757474657220746f2064726177000000000000000000000000000000600082015250565b60006106bd60118361060a565b91506106c882610687565b602082019050919050565b600060208201905081810360008301526106ec816106b0565b9050919050565b600073ffffffffffffffffffffffffffffffffffffffff82169050919050565b600061071e826106f3565b9050919050565b61072e81610713565b82525050565b6000819050919050565b61074781610734565b82525050565b60006080820190506107626000830187610725565b61076f602083018661073e565b61077c604083018561073e565b610789606083018461073e565b95945050505050565b7f4e487b7100000000000000000000000000000000000000000000000000000000600052601160045260246000fd5b60006107cc82610734565b91506107d783610734565b92508282039050818111156107ef576107ee610792565b5b92915050565b600081519050919050565b60005b8381101561081e578082015181840152602081019050610803565b60008484015250505050565b6000610835826107f5565b61083f818561060a565b935061084f818560208601610800565b61085881610386565b840191505092915050565b600081519050919050565b600082825260208201905092915050565b600061088a82610863565b610894818561086e565b93506108a4818560208601610800565b6108ad81610386565b840191505092915050565b60006060820190506108cd600083018661073e565b81810360208301526108df818561082a565b905081810360408301526108f3818461087f565b9050949350505050565b600081905092915050565b6000610913826107f5565b61091d81856108fd565b935061092d818560208601610800565b80840191505092915050565b60006109458284610908565b915081905092915050565b7f496e70757420646f6573206e6f74206d61746368207365637265740000000000600082015250565b6000610986601b8361060a565b915061099182610950565b602082019050919050565b600060208201905081810360008301526109b581610979565b905091905056fea2646970667358221220d7ee046c7445c292521445817048f0efb2e8354c57eae6fafebb3ff2f549bfc064736f6c634300081100336080604052604051620011e5380380620011e58339818101604052810190620000299190620002f4565b600033905080600760006101000a81548173ffffffffffffffffffffffffffffffffffffffff021916908373ffffffffffffffffffffffffffffffffffffffff16021790555082600860006101000a81548173ffffffffffffffffffffffffffffffffffffffff021916908373ffffffffffffffffffffffffffffffffffffffff1602179055508460008001819055508360006001018190555034600060020181905550600860009054906101000a900473ffffffffffffffffffffffffffffffffffffffff1673ffffffffffffffffffffffffffffffffffffffff166334fc1228856040518263ffffffff1660e01b81526004016200012a919062000377565b602060405180830381865afa15801562000148573d6000803e3d6000fd5b505050506040513d601f19601f820116820180604052508101906200016e919062000394565b60006003018190555030600060040160006101000a81548173ffffffffffffffffffffffffffffffffffffffff021916908373ffffffffffffffffffffffffffffffffffffffff16021790555080600060050160006101000a81548173ffffffffffffffffffffffffffffffffffffffff021916908373ffffffffffffffffffffffffffffffffffffffff160217905550816000600601819055505050505050620003c6565b600080fd5b6000819050919050565b6200022e8162000219565b81146200023a57600080fd5b50565b6000815190506200024e8162000223565b92915050565b600073ffffffffffffffffffffffffffffffffffffffff82169050919050565b6000620002818262000254565b9050919050565b620002938162000274565b81146200029f57600080fd5b50565b600081519050620002b38162000288565b92915050565b6000819050919050565b620002ce81620002b9565b8114620002da57600080fd5b50565b600081519050620002ee81620002c3565b92915050565b6000806000806080858703121562000311576200031062000214565b5b600062000321878288016200023d565b945050602062000334878288016200023d565b93505060406200034787828801620002a2565b92505060606200035a87828801620002dd565b91505092959194509250565b620003718162000219565b82525050565b60006020820190506200038e600083018462000366565b92915050565b600060208284031215620003ad57620003ac62000214565b5b6000620003bd848285016200023d565b91505092915050565b610e0f80620003d66000396000f3fe608060405234801561001057600080fd5b506004361061004c5760003560e01c8063685771f4146100515780637d94792a1461006f578063956c2dc314610093578063c5d12c97146100af575b600080fd5b6100596100cd565b6040516100669190610656565b60405180910390f35b6100776100d9565b60405161008a97969594939291906106cb565b60405180910390f35b6100ad60048036038101906100a89190610935565b610149565b005b6100b76105b4565b6040516100c49190610656565b60405180910390f35b60008060010154905090565b60008060000154908060010154908060020154908060030154908060040160009054906101000a900473ffffffffffffffffffffffffffffffffffffffff16908060050160009054906101000a900473ffffffffffffffffffffffffffffffffffffffff16908060060154905087565b610152836105c0565b50600860009054906101000a900473ffffffffffffffffffffffffffffffffffffffff1673ffffffffffffffffffffffffffffffffffffffff1663f27890f260008001546040518263ffffffff1660e01b81526004016101b29190610656565b600060405180830381600087803b1580156101cc57600080fd5b505af11580156101e0573d6000803e3d6000fd5b50505050600760009054906101000a900473ffffffffffffffffffffffffffffffffffffffff1673ffffffffffffffffffffffffffffffffffffffff1663a0e12efe83836040518363ffffffff1660e01b8152600401610241929190610ab0565b600060405180830381600087803b15801561025b57600080fd5b505af115801561026f573d6000803e3d6000fd5b505050506000600860009054906101000a900473ffffffffffffffffffffffffffffffffffffffff1673ffffffffffffffffffffffffffffffffffffffff1663b8a9736d6040518163ffffffff1660e01b8152600401602060405180830381865afa1580156102e2573d6000803e3d6000fd5b505050506040513d601f19601f820116820180604052508101906103069190610b13565b90506000600860009054906101000a900473ffffffffffffffffffffffffffffffffffffffff1673ffffffffffffffffffffffffffffffffffffffff166307604b1a6040518163ffffffff1660e01b8152600401602060405180830381865afa158015610377573d6000803e3d6000fd5b505050506040513d601f19601f8201168201806040525081019061039b9190610b6c565b73ffffffffffffffffffffffffffffffffffffffff16826040516103be90610bca565b60006040518083038185875af1925050503d80600081146103fb576040519150601f19603f3d011682016040523d82523d6000602084013e610400565b606091505b5050905080610444576040517f08c379a000000000000000000000000000000000000000000000000000000000815260040161043b90610c2b565b60405180910390fd5b6000826000600201546104579190610c7a565b90506000600760009054906101000a900473ffffffffffffffffffffffffffffffffffffffff1673ffffffffffffffffffffffffffffffffffffffff16636352211e6000600101546040518263ffffffff1660e01b81526004016104bb9190610656565b602060405180830381865afa1580156104d8573d6000803e3d6000fd5b505050506040513d601f19601f820116820180604052508101906104fc9190610b6c565b905060008173ffffffffffffffffffffffffffffffffffffffff168360405161052490610bca565b60006040518083038185875af1925050503d8060008114610561576040519150601f19603f3d011682016040523d82523d6000602084013e610566565b606091505b50509050806105aa576040517f08c379a00000000000000000000000000000000000000000000000000000000081526004016105a190610cfa565b60405180910390fd5b5050505050505050565b60008060030154905090565b600080826040516020016105d49190610d56565b6040516020818303038152906040528051906020012090506000600601548114610633576040517f08c379a000000000000000000000000000000000000000000000000000000000815260040161062a90610db9565b60405180910390fd5b6001915050919050565b6000819050919050565b6106508161063d565b82525050565b600060208201905061066b6000830184610647565b92915050565b600073ffffffffffffffffffffffffffffffffffffffff82169050919050565b600061069c82610671565b9050919050565b6106ac81610691565b82525050565b6000819050919050565b6106c5816106b2565b82525050565b600060e0820190506106e0600083018a610647565b6106ed6020830189610647565b6106fa6040830188610647565b6107076060830187610647565b61071460808301866106a3565b61072160a08301856106a3565b61072e60c08301846106bc565b98975050505050505050565b6000604051905090565b600080fd5b600080fd5b600080fd5b600080fd5b6000601f19601f8301169050919050565b7f4e487b7100000000000000000000000000000000000000000000000000000000600052604160045260246000fd5b6107a182610758565b810181811067ffffffffffffffff821117156107c0576107bf610769565b5b80604052505050565b60006107d361073a565b90506107df8282610798565b919050565b600067ffffffffffffffff8211156107ff576107fe610769565b5b61080882610758565b9050602081019050919050565b82818337600083830152505050565b6000610837610832846107e4565b6107c9565b90508281526020810184848401111561085357610852610753565b5b61085e848285610815565b509392505050565b600082601f83011261087b5761087a61074e565b5b813561088b848260208601610824565b91505092915050565b600067ffffffffffffffff8211156108af576108ae610769565b5b6108b882610758565b9050602081019050919050565b60006108d86108d384610894565b6107c9565b9050828152602081018484840111156108f4576108f3610753565b5b6108ff848285610815565b509392505050565b600082601f83011261091c5761091b61074e565b5b813561092c8482602086016108c5565b91505092915050565b60008060006060848603121561094e5761094d610744565b5b600084013567ffffffffffffffff81111561096c5761096b610749565b5b61097886828701610866565b935050602084013567ffffffffffffffff81111561099957610998610749565b5b6109a586828701610866565b925050604084013567ffffffffffffffff8111156109c6576109c5610749565b5b6109d286828701610907565b9150509250925092565b600081519050919050565b600082825260208201905092915050565b60005b83811015610a165780820151818401526020810190506109fb565b60008484015250505050565b6000610a2d826109dc565b610a3781856109e7565b9350610a478185602086016109f8565b610a5081610758565b840191505092915050565b600081519050919050565b600082825260208201905092915050565b6000610a8282610a5b565b610a8c8185610a66565b9350610a9c8185602086016109f8565b610aa581610758565b840191505092915050565b60006040820190508181036000830152610aca8185610a22565b90508181036020830152610ade8184610a77565b90509392505050565b610af08161063d565b8114610afb57600080fd5b50565b600081519050610b0d81610ae7565b92915050565b600060208284031215610b2957610b28610744565b5b6000610b3784828501610afe565b91505092915050565b610b4981610691565b8114610b5457600080fd5b50565b600081519050610b6681610b40565b92915050565b600060208284031215610b8257610b81610744565b5b6000610b9084828501610b57565b91505092915050565b600081905092915050565b50565b6000610bb4600083610b99565b9150610bbf82610ba4565b600082019050919050565b6000610bd582610ba7565b9150819050919050565b7f4574686572206e6f742073656e7420746f205472656173757279000000000000600082015250565b6000610c15601a836109e7565b9150610c2082610bdf565b602082019050919050565b60006020820190508181036000830152610c4481610c08565b9050919050565b7f4e487b7100000000000000000000000000000000000000000000000000000000600052601160045260246000fd5b6000610c858261063d565b9150610c908361063d565b9250828203905081811115610ca857610ca7610c4b565b5b92915050565b7f4574686572206e6f742073656e7420746f20706172656e74206e757400000000600082015250565b6000610ce4601c836109e7565b9150610cef82610cae565b602082019050919050565b60006020820190508181036000830152610d1381610cd7565b9050919050565b600081905092915050565b6000610d30826109dc565b610d3a8185610d1a565b9350610d4a8185602086016109f8565b80840191505092915050565b6000610d628284610d25565b915081905092915050565b7f496e70757420646f6573206e6f74206d61746368207365637265740000000000600082015250565b6000610da3601b836109e7565b9150610dae82610d6d565b602082019050919050565b60006020820190508181036000830152610dd281610d96565b905091905056fea264697066735822122080c5dd1adf997f9ea04fac5b9e8fa12658ab76bd5e827d481408d316438d55a964736f6c63430008110033a26469706673582212201fd334f89d8fbbc5d6920c4f5219128279e5b09efd56d3359a1670ed9753151764736f6c63430008110033",
  "immutableReferences": {},
  "source": "// SPDX-License-Identifier: MIT\npragma solidity ^0.8.7;\n\nimport \"openzeppelin-solidity/contracts/utils/cryptography/ECDSA.sol\";\nimport \"./CosmoTreasury.sol\";\n\ncontract CosmoVault {\n\n    address public SYSTEM_ADDRESS;\n    address public TREASURY_ADDRESS;\n    uint256 public NUT_PRICE;\n    uint256 public MATTER_RATE;\n\n    CosmoTreasury treasury;\n\n    using ECDSA for bytes32;\n\n    constructor(\n        address _systemAddress,\n        address _matterAddress,\n        uint256 _nutPrice,\n        uint256 _matterRate\n    )\n    {\n        treasury = new CosmoTreasury(_systemAddress, _matterAddress, _matterRate, _nutPrice);\n        TREASURY_ADDRESS = address(treasury);\n        NUT_PRICE = _nutPrice;\n        MATTER_RATE = _matterRate;\n    }\n\n    function calcMatterNeeded(uint256 _nutId) public view returns (uint256) {\n        return treasury.matterNeeded(_nutId);\n    }\n\n    function giveMintBalance(uint256 _nutIndex) external {\n        treasury.assignMintBalance(TREASURY_ADDRESS, _nutIndex);\n    }\n\n    function growSeedFromNut(uint256 _seedId) public {\n        uint256 nutId = treasury.nutOfSeed(_seedId);\n        uint256 matterNeeded = calcMatterNeeded(nutId);\n        treasury.seedFromNut(_seedId, matterNeeded);\n    }\n\n    function newSeed(uint256 _nutId, bytes32 _secretHash) external {\n        treasury.spawnSeed(_nutId, _secretHash);\n    }\n\n    function newButterJar(uint256 _nutId, uint256 _matterContributed, bytes32 _secretHash) external {\n        treasury.newButter(_nutId, _matterContributed, MATTER_RATE, _secretHash);\n    }\n\n    //modifier onlySystem {\n    //    require(address(msg.sender) == SYSTEM_ADDRESS, \"Caller is not system\");\n    //    _;\n    //}\n\n    //function updateSystemAddress(address _newSystemAddress) public onlySystem {\n    //    SYSTEM_ADDRESS = _newSystemAddress;\n    //}\n\n    //function updateTreasuryAddress(address _newTreasuryAddress) public onlySystem {\n    //    TREASURY_ADDRESS = _newTreasuryAddress;\n    //}\n\n    function signerAddress(bytes32 _hash, bytes memory _signature) internal pure returns (address) {\n        return _hash.recover(_signature);\n    }\n\n\n    function isVerified(bytes32 _pathHash, bytes memory _signature) external view returns (bool) {\n        // *Research* - Should you include the following \"\\x19Ethereum Signed Message:\\n32\"\n        require(signerAddress(_pathHash, _signature) == SYSTEM_ADDRESS, \"Invalid signature\");\n        return true;\n    }\n\n\n}\n",
  "sourcePath": "/home/redlentils/Seafile/Websites/avatarnft/contracts/CosmoVault.sol",
  "compiler": {
    "name": "solc",
    "version": "0.8.17+commit.8df45f5f.Emscripten.clang"
  },
  "schemaVersion": "3.4.10",
  "updatedAt": "2022-10-06T18:37:19.531Z",
  "devdoc": {
    "kind": "dev",
    "methods": {},
    "version": 1
  },
  "userdoc": {
    "kind": "user",
    "methods": {},
    "version": 1
  }
}