{
  "contractName": "CosmoSeed",
  "abi": [
    {
      "inputs": [],
      "name": "seed",
      "outputs": [
        {
          "internalType": "uint256",
          "name": "id",
          "type": "uint256"
        },
        {
          "internalType": "uint256",
          "name": "nutId",
          "type": "uint256"
        },
        {
          "internalType": "uint256",
          "name": "heldEther",
          "type": "uint256"
        },
        {
          "internalType": "uint256",
          "name": "matterNeeded",
          "type": "uint256"
        },
        {
          "internalType": "address",
          "name": "location",
          "type": "address"
        },
        {
          "internalType": "address",
          "name": "matter",
          "type": "address"
        },
        {
          "internalType": "address",
          "name": "treasury",
          "type": "address"
        },
        {
          "internalType": "address",
          "name": "cosmos",
          "type": "address"
        },
        {
          "internalType": "bytes32",
          "name": "secretHash",
          "type": "bytes32"
        }
      ],
      "stateMutability": "view",
      "type": "function"
    },
    {
      "stateMutability": "payable",
      "type": "receive"
    },
    {
      "inputs": [
        {
          "internalType": "uint256",
          "name": "_seedId",
          "type": "uint256"
        },
        {
          "internalType": "uint256",
          "name": "_nutId",
          "type": "uint256"
        },
        {
          "internalType": "address",
          "name": "_matter",
          "type": "address"
        },
        {
          "internalType": "address",
          "name": "_treasury",
          "type": "address"
        },
        {
          "internalType": "address",
          "name": "_cosmos",
          "type": "address"
        },
        {
          "internalType": "bytes32",
          "name": "_secretHash",
          "type": "bytes32"
        }
      ],
      "name": "initialize",
      "outputs": [],
      "stateMutability": "nonpayable",
      "type": "function"
    },
    {
      "inputs": [],
      "name": "matterNeeded",
      "outputs": [
        {
          "internalType": "uint256",
          "name": "",
          "type": "uint256"
        }
      ],
      "stateMutability": "view",
      "type": "function"
    },
    {
      "inputs": [],
      "name": "nutId",
      "outputs": [
        {
          "internalType": "uint256",
          "name": "",
          "type": "uint256"
        }
      ],
      "stateMutability": "view",
      "type": "function"
    },
    {
      "inputs": [
        {
          "internalType": "string",
          "name": "_secret",
          "type": "string"
        },
        {
          "internalType": "string",
          "name": "_cidPath",
          "type": "string"
        },
        {
          "internalType": "bytes",
          "name": "_signature",
          "type": "bytes"
        }
      ],
      "name": "spawnNut",
      "outputs": [
        {
          "internalType": "bool",
          "name": "",
          "type": "bool"
        }
      ],
      "stateMutability": "nonpayable",
      "type": "function"
    },
    {
      "inputs": [],
      "name": "getBalance",
      "outputs": [
        {
          "internalType": "uint256",
          "name": "",
          "type": "uint256"
        }
      ],
      "stateMutability": "view",
      "type": "function"
    }
  ],
  "bytecode": "0x608060405234801561001057600080fd5b506118bd806100206000396000f3fe6080604052600436106100595760003560e01c806312065fe01461006e5780634cf30bf914610099578063685771f4146100c25780637d94792a146100ed578063956c2dc314610120578063c5d12c971461015d57610069565b3661006957346000600201819055005b600080fd5b34801561007a57600080fd5b50610083610188565b6040516100909190610e11565b60405180910390f35b3480156100a557600080fd5b506100c060048036038101906100bb9190610f00565b610190565b005b3480156100ce57600080fd5b506100d7610352565b6040516100e49190610e11565b60405180910390f35b3480156100f957600080fd5b5061010261035e565b60405161011799989796959493929190610fab565b60405180910390f35b34801561012c57600080fd5b506101476004803603810190610142919061121f565b61041a565b60405161015491906112e1565b60405180910390f35b34801561016957600080fd5b50610172610d6f565b60405161017f9190610e11565b60405180910390f35b600047905090565b85600080018190555084600060010181905550600080600201819055508273ffffffffffffffffffffffffffffffffffffffff16638ed3df0f866040518263ffffffff1660e01b81526004016101e69190610e11565b602060405180830381865afa158015610203573d6000803e3d6000fd5b505050506040513d601f19601f820116820180604052508101906102279190611311565b60006003018190555030600060040160006101000a81548173ffffffffffffffffffffffffffffffffffffffff021916908373ffffffffffffffffffffffffffffffffffffffff16021790555083600060050160006101000a81548173ffffffffffffffffffffffffffffffffffffffff021916908373ffffffffffffffffffffffffffffffffffffffff16021790555082600060060160006101000a81548173ffffffffffffffffffffffffffffffffffffffff021916908373ffffffffffffffffffffffffffffffffffffffff16021790555081600060070160006101000a81548173ffffffffffffffffffffffffffffffffffffffff021916908373ffffffffffffffffffffffffffffffffffffffff16021790555080600060080181905550505050505050565b60008060010154905090565b60008060000154908060010154908060020154908060030154908060040160009054906101000a900473ffffffffffffffffffffffffffffffffffffffff16908060050160009054906101000a900473ffffffffffffffffffffffffffffffffffffffff16908060060160009054906101000a900473ffffffffffffffffffffffffffffffffffffffff16908060070160009054906101000a900473ffffffffffffffffffffffffffffffffffffffff16908060080154905089565b600061042584610d7b565b5060008060060160009054906101000a900473ffffffffffffffffffffffffffffffffffffffff1673ffffffffffffffffffffffffffffffffffffffff1663d798b462336040518263ffffffff1660e01b8152600401610485919061133e565b602060405180830381865afa1580156104a2573d6000803e3d6000fd5b505050506040513d601f19601f820116820180604052508101906104c69190611311565b9050600060030154811015610510576040517f08c379a0000000000000000000000000000000000000000000000000000000008152600401610507906113b6565b60405180910390fd5b600060050160009054906101000a900473ffffffffffffffffffffffffffffffffffffffff1673ffffffffffffffffffffffffffffffffffffffff1663f3d8c7a733306000600301546040518463ffffffff1660e01b8152600401610577939291906113d6565b6020604051808303816000875af1158015610596573d6000803e3d6000fd5b505050506040513d601f19601f820116820180604052508101906105ba9190611439565b5060008060070160009054906101000a900473ffffffffffffffffffffffffffffffffffffffff1673ffffffffffffffffffffffffffffffffffffffff1663836387106000600101546040518263ffffffff1660e01b815260040161061f9190610e11565b602060405180830381865afa15801561063c573d6000803e3d6000fd5b505050506040513d601f19601f82011682018060405250810190610660919061147b565b9050600060050160009054906101000a900473ffffffffffffffffffffffffffffffffffffffff1673ffffffffffffffffffffffffffffffffffffffff166328c59aef33836000600301546040518463ffffffff1660e01b81526004016106c9939291906113d6565b600060405180830381600087803b1580156106e357600080fd5b505af11580156106f7573d6000803e3d6000fd5b5050505060008060070160009054906101000a900473ffffffffffffffffffffffffffffffffffffffff1673ffffffffffffffffffffffffffffffffffffffff166334eff41a336040518263ffffffff1660e01b815260040161075a919061133e565b6020604051808303816000875af1158015610779573d6000803e3d6000fd5b505050506040513d601f19601f8201168201806040525081019061079d9190611311565b905060008060060160009054906101000a900473ffffffffffffffffffffffffffffffffffffffff1673ffffffffffffffffffffffffffffffffffffffff166375b689aa6040518163ffffffff1660e01b81526004016020604051808303816000875af1158015610812573d6000803e3d6000fd5b505050506040513d601f19601f82011682018060405250810190610836919061147b565b90508073ffffffffffffffffffffffffffffffffffffffff1663bd6af0098389896040518463ffffffff1660e01b81526004016108759392919061156b565b600060405180830381600087803b15801561088f57600080fd5b505af11580156108a3573d6000803e3d6000fd5b50505050600060050160009054906101000a900473ffffffffffffffffffffffffffffffffffffffff1673ffffffffffffffffffffffffffffffffffffffff16634bbc1bcd336000600301546040518363ffffffff1660e01b815260040161090c9291906115b0565b6020604051808303816000875af115801561092b573d6000803e3d6000fd5b505050506040513d601f19601f8201168201806040525081019061094f9190611311565b50600060050160009054906101000a900473ffffffffffffffffffffffffffffffffffffffff1673ffffffffffffffffffffffffffffffffffffffff16634bbc1bcd600060060160009054906101000a900473ffffffffffffffffffffffffffffffffffffffff1660016040518363ffffffff1660e01b81526004016109d692919061161e565b6020604051808303816000875af11580156109f5573d6000803e3d6000fd5b505050506040513d601f19601f82011682018060405250810190610a199190611311565b50600060060160009054906101000a900473ffffffffffffffffffffffffffffffffffffffff1673ffffffffffffffffffffffffffffffffffffffff16630a4d2f0c60008001546040518263ffffffff1660e01b8152600401610a7c9190610e11565b6020604051808303816000875af1158015610a9b573d6000803e3d6000fd5b505050506040513d601f19601f82011682018060405250810190610abf9190611439565b5060008060060160009054906101000a900473ffffffffffffffffffffffffffffffffffffffff1673ffffffffffffffffffffffffffffffffffffffff166398d5fdca6040518163ffffffff1660e01b8152600401602060405180830381865afa158015610b31573d6000803e3d6000fd5b505050506040513d601f19601f82011682018060405250810190610b559190611311565b905060008060060160009054906101000a900473ffffffffffffffffffffffffffffffffffffffff1673ffffffffffffffffffffffffffffffffffffffff1663ad0ca9066040518163ffffffff1660e01b8152600401602060405180830381865afa158015610bc8573d6000803e3d6000fd5b505050506040513d601f19601f82011682018060405250810190610bec919061147b565b905060008173ffffffffffffffffffffffffffffffffffffffff1683604051610c1490611678565b60006040518083038185875af1925050503d8060008114610c51576040519150601f19603f3d011682016040523d82523d6000602084013e610c56565b606091505b5050905080610c9a576040517f08c379a0000000000000000000000000000000000000000000000000000000008152600401610c91906116d9565b60405180910390fd5b600083600060020154610cad9190611728565b905060008773ffffffffffffffffffffffffffffffffffffffff1682604051610cd590611678565b60006040518083038185875af1925050503d8060008114610d12576040519150601f19603f3d011682016040523d82523d6000602084013e610d17565b606091505b5050905080610d5b576040517f08c379a0000000000000000000000000000000000000000000000000000000008152600401610d52906117a8565b60405180910390fd5b600199505050505050505050509392505050565b60008060030154905090565b60008082604051602001610d8f9190611804565b6040516020818303038152906040528051906020012090506000600801548114610dee576040517f08c379a0000000000000000000000000000000000000000000000000000000008152600401610de590611867565b60405180910390fd5b6001915050919050565b6000819050919050565b610e0b81610df8565b82525050565b6000602082019050610e266000830184610e02565b92915050565b6000604051905090565b600080fd5b600080fd5b610e4981610df8565b8114610e5457600080fd5b50565b600081359050610e6681610e40565b92915050565b600073ffffffffffffffffffffffffffffffffffffffff82169050919050565b6000610e9782610e6c565b9050919050565b610ea781610e8c565b8114610eb257600080fd5b50565b600081359050610ec481610e9e565b92915050565b6000819050919050565b610edd81610eca565b8114610ee857600080fd5b50565b600081359050610efa81610ed4565b92915050565b60008060008060008060c08789031215610f1d57610f1c610e36565b5b6000610f2b89828a01610e57565b9650506020610f3c89828a01610e57565b9550506040610f4d89828a01610eb5565b9450506060610f5e89828a01610eb5565b9350506080610f6f89828a01610eb5565b92505060a0610f8089828a01610eeb565b9150509295509295509295565b610f9681610e8c565b82525050565b610fa581610eca565b82525050565b600061012082019050610fc1600083018c610e02565b610fce602083018b610e02565b610fdb604083018a610e02565b610fe86060830189610e02565b610ff56080830188610f8d565b61100260a0830187610f8d565b61100f60c0830186610f8d565b61101c60e0830185610f8d565b61102a610100830184610f9c565b9a9950505050505050505050565b600080fd5b600080fd5b6000601f19601f8301169050919050565b7f4e487b7100000000000000000000000000000000000000000000000000000000600052604160045260246000fd5b61108b82611042565b810181811067ffffffffffffffff821117156110aa576110a9611053565b5b80604052505050565b60006110bd610e2c565b90506110c98282611082565b919050565b600067ffffffffffffffff8211156110e9576110e8611053565b5b6110f282611042565b9050602081019050919050565b82818337600083830152505050565b600061112161111c846110ce565b6110b3565b90508281526020810184848401111561113d5761113c61103d565b5b6111488482856110ff565b509392505050565b600082601f83011261116557611164611038565b5b813561117584826020860161110e565b91505092915050565b600067ffffffffffffffff82111561119957611198611053565b5b6111a282611042565b9050602081019050919050565b60006111c26111bd8461117e565b6110b3565b9050828152602081018484840111156111de576111dd61103d565b5b6111e98482856110ff565b509392505050565b600082601f83011261120657611205611038565b5b81356112168482602086016111af565b91505092915050565b60008060006060848603121561123857611237610e36565b5b600084013567ffffffffffffffff81111561125657611255610e3b565b5b61126286828701611150565b935050602084013567ffffffffffffffff81111561128357611282610e3b565b5b61128f86828701611150565b925050604084013567ffffffffffffffff8111156112b0576112af610e3b565b5b6112bc868287016111f1565b9150509250925092565b60008115159050919050565b6112db816112c6565b82525050565b60006020820190506112f660008301846112d2565b92915050565b60008151905061130b81610e40565b92915050565b60006020828403121561132757611326610e36565b5b6000611335848285016112fc565b91505092915050565b60006020820190506113536000830184610f8d565b92915050565b600082825260208201905092915050565b7f4e6f7420656e6f756768206d617474657220746f20737061776e2061206e7574600082015250565b60006113a0602083611359565b91506113ab8261136a565b602082019050919050565b600060208201905081810360008301526113cf81611393565b9050919050565b60006060820190506113eb6000830186610f8d565b6113f86020830185610f8d565b6114056040830184610e02565b949350505050565b611416816112c6565b811461142157600080fd5b50565b6000815190506114338161140d565b92915050565b60006020828403121561144f5761144e610e36565b5b600061145d84828501611424565b91505092915050565b60008151905061147581610e9e565b92915050565b60006020828403121561149157611490610e36565b5b600061149f84828501611466565b91505092915050565b600081519050919050565b60005b838110156114d15780820151818401526020810190506114b6565b60008484015250505050565b60006114e8826114a8565b6114f28185611359565b93506115028185602086016114b3565b61150b81611042565b840191505092915050565b600081519050919050565b600082825260208201905092915050565b600061153d82611516565b6115478185611521565b93506115578185602086016114b3565b61156081611042565b840191505092915050565b60006060820190506115806000830186610e02565b818103602083015261159281856114dd565b905081810360408301526115a68184611532565b9050949350505050565b60006040820190506115c56000830185610f8d565b6115d26020830184610e02565b9392505050565b6000819050919050565b6000819050919050565b60006116086116036115fe846115d9565b6115e3565b610df8565b9050919050565b611618816115ed565b82525050565b60006040820190506116336000830185610f8d565b611640602083018461160f565b9392505050565b600081905092915050565b50565b6000611662600083611647565b915061166d82611652565b600082019050919050565b600061168382611655565b9150819050919050565b7f4574686572206e6f742073656e7420746f2053797374656d0000000000000000600082015250565b60006116c3601883611359565b91506116ce8261168d565b602082019050919050565b600060208201905081810360008301526116f2816116b6565b9050919050565b7f4e487b7100000000000000000000000000000000000000000000000000000000600052601160045260246000fd5b600061173382610df8565b915061173e83610df8565b9250828203905081811115611756576117556116f9565b5b92915050565b7f4574686572206e6f742073656e7420746f20706172656e74206e757400000000600082015250565b6000611792601c83611359565b915061179d8261175c565b602082019050919050565b600060208201905081810360008301526117c181611785565b9050919050565b600081905092915050565b60006117de826114a8565b6117e881856117c8565b93506117f88185602086016114b3565b80840191505092915050565b600061181082846117d3565b915081905092915050565b7f496e70757420646f6573206e6f74206d61746368207365637265740000000000600082015250565b6000611851601b83611359565b915061185c8261181b565b602082019050919050565b6000602082019050818103600083015261188081611844565b905091905056fea2646970667358221220144f234dd77ae9181c3dce65b3ab51c6dbc96bc1b713f8b48a58b58bf78b44d964736f6c63430008110033",
  "immutableReferences": {},
  "source": "// SPDX-License-Identifier: MIT\npragma solidity ^0.8.7;\n\nimport \"./ICosmoTreasury.sol\";\nimport \"./ICosmoNuts.sol\";\nimport \"./ICosmoSeed.sol\";\nimport \"./ICosmoMatter.sol\";\nimport \"./ICosmoVault.sol\";\n\n/**\n * Contract created from a CosmoNut.  This contract holds a set amount of ether.\n * Ether is unlocked when the predetermined amount of matter is transferred to nut owner.\n */\n contract CosmoSeed is ICosmoSeed {\n\n     struct Seed {\n         uint256 id;\n         uint256 nutId;\n         uint256 heldEther;\n         uint256 matterNeeded;\n         address location;\n         address matter;\n         address treasury;\n         address cosmos;\n         bytes32 secretHash;\n     }\n     Seed public seed;\n\n     function initialize(\n         uint256 _seedId,\n         uint256 _nutId,\n         address _matter,\n         address _treasury,\n         address _cosmos,\n         bytes32 _secretHash\n     ) external virtual override {\n         seed.id = _seedId;\n         seed.nutId = _nutId;\n         seed.heldEther = 0;\n         seed.matterNeeded = ICosmoTreasury(_treasury).matterNeeded(_nutId);\n         seed.location = address(this);\n         seed.matter = _matter;\n         seed.treasury = _treasury;\n         seed.cosmos = _cosmos;\n         seed.secretHash = _secretHash;\n     }\n\n     function matterNeeded() public view returns (uint256) {\n         return seed.matterNeeded;\n     }\n\n     function nutId() public view returns (uint256) {\n         return seed.nutId;\n     }\n\n     /**\n      * Takes a string input and hashes it; compares to the SECRET_HASH in the contract\n      * If it matches, returns true\n      */\n     function verifySecret(string memory _input) private view returns(bool) {\n         bytes32 inputHash = keccak256(abi.encodePacked(_input));\n         require(inputHash == seed.secretHash, \"Input does not match secret\");\n         return true;\n     }\n\n     /**\n      * Can be called from anyone who comes across, asks for secret from user\n      * The application fills out the path and signature\n      * If provided secret is correct, a new CosmoNut is minted and assigned to caller\n      */\n     function spawnNut(string memory _secret, string memory _cidPath, bytes memory _signature) public returns (bool) {\n         verifySecret(_secret); // Check whether provided secret is correct\n\n         uint256 matterOfCaller = ICosmoTreasury(seed.treasury).matterOf(msg.sender);\n         require(matterOfCaller >= seed.matterNeeded, \"Not enough matter to spawn a nut\");\n\n         ICosmoMatter(seed.matter).grantApproval(\n             msg.sender,\n             address(this),\n             seed.matterNeeded\n         );\n\n         address parentNutOwner = ICosmoNuts(seed.cosmos).getOwnerOf(seed.nutId);\n         ICosmoMatter(seed.matter).transferMatterFrom(msg.sender, parentNutOwner, seed.matterNeeded);\n\n         uint256 newNutId = ICosmoNuts(seed.cosmos).newNutMint(msg.sender);\n\n         address vault = ICosmoTreasury(seed.treasury).getVaultLocation();\n         ICosmoVault(vault).changeTokenURI(\n             newNutId, _cidPath, _signature\n         );\n\n         ICosmoMatter(seed.matter).mintMatter(\n             msg.sender,\n             seed.matterNeeded\n         );\n\n         ICosmoMatter(seed.matter).mintMatter(\n             seed.treasury,\n             1\n         );\n\n         ICosmoTreasury(seed.treasury).growSeed(seed.id);\n\n         /**\n          * Sending the original set price to Treasury.  This is payment for a new NFT (nut).\n          * Consider implication - tax - and decision to keep?\n          */\n         uint256 nutPrice = ICosmoTreasury(seed.treasury).getPrice();\n         address system = ICosmoTreasury(seed.treasury).getSystem();\n         (bool sentToSystem,/*memory data*/) = system.call{\n             value: nutPrice\n         }(\"\");\n         require(sentToSystem, \"Ether not sent to System\");\n\n         /**\n          * Sending remaining amount back to current nut owner who created the seed.\n          */\n         uint256 returnAmount = seed.heldEther - nutPrice;\n\n         (bool sentToParent,/*memory data*/) = parentNutOwner.call{\n             value: returnAmount\n         }(\"\");\n         require(sentToParent, \"Ether not sent to parent nut\");\n\n         return true;\n     }\n\n     /**\n      * Functions below relate to receiving ether.  This contract holds ether.\n      */\n      // Function to receive Ether, msg.data must be empty\n     receive() external payable {\n         seed.heldEther = msg.value;\n     }\n\n     // Fallback function is called when msg.data is not empty\n     //fallback() external payable {}\n\n     function getBalance() public view virtual override returns (uint256) {\n         return address(this).balance;\n     }\n\n }\n",
  "sourcePath": "/home/redlentils/Seafile/Websites/avatarnft/contracts/CosmoSeed.sol",
  "compiler": {
    "name": "solc",
    "version": "0.8.17+commit.8df45f5f.Emscripten.clang"
  },
  "schemaVersion": "3.4.10",
  "updatedAt": "2022-10-28T15:21:01.302Z",
  "devdoc": {
    "kind": "dev",
    "methods": {},
    "version": 1
  },
  "userdoc": {
    "kind": "user",
    "methods": {
      "spawnNut(string,string,bytes)": {
        "notice": "Can be called from anyone who comes across, asks for secret from user The application fills out the path and signature If provided secret is correct, a new CosmoNut is minted and assigned to caller"
      }
    },
    "notice": "Contract created from a CosmoNut.  This contract holds a set amount of ether. Ether is unlocked when the predetermined amount of matter is transferred to nut owner.",
    "version": 1
  }
}