{
  "contractName": "CosmoBang",
  "abi": [
    {
      "inputs": [
        {
          "internalType": "address",
          "name": "_systemAddress",
          "type": "address"
        },
        {
          "internalType": "address",
          "name": "_matterAddress",
          "type": "address"
        },
        {
          "internalType": "address",
          "name": "_treasuryImplementation",
          "type": "address"
        },
        {
          "internalType": "address",
          "name": "_seedImplementation",
          "type": "address"
        },
        {
          "internalType": "address",
          "name": "_butterImplementation",
          "type": "address"
        },
        {
          "internalType": "uint256",
          "name": "_price",
          "type": "uint256"
        },
        {
          "internalType": "uint256",
          "name": "_rate",
          "type": "uint256"
        }
      ],
      "name": "initialize",
      "outputs": [
        {
          "internalType": "address",
          "name": "",
          "type": "address"
        }
      ],
      "stateMutability": "nonpayable",
      "type": "function"
    },
    {
      "inputs": [
        {
          "internalType": "string",
          "name": "_name",
          "type": "string"
        },
        {
          "internalType": "string",
          "name": "_symbol",
          "type": "string"
        },
        {
          "internalType": "uint256",
          "name": "_supply",
          "type": "uint256"
        },
        {
          "internalType": "address",
          "name": "_treasuryLocation",
          "type": "address"
        },
        {
          "internalType": "address",
          "name": "_vaultImplementation",
          "type": "address"
        }
      ],
      "name": "createCosmo",
      "outputs": [
        {
          "internalType": "address",
          "name": "",
          "type": "address"
        }
      ],
      "stateMutability": "nonpayable",
      "type": "function"
    }
  ],
  "bytecode": "0x608060405234801561001057600080fd5b50616b63806100206000396000f3fe60806040523480156200001157600080fd5b50600436106200003a5760003560e01c8063a4bb5404146200003f578063b33f95271462000075575b600080fd5b6200005d600480360381019062000057919062000666565b620000ab565b6040516200006c91906200073d565b60405180910390f35b6200009360048036038101906200008d91906200075a565b62000199565b604051620000a291906200073d565b60405180910390f35b6000808686866000800160009054906101000a900473ffffffffffffffffffffffffffffffffffffffff168787604051620000e69062000442565b620000f796959493929190620008a7565b604051809103906000f08015801562000114573d6000803e3d6000fd5b5090508073ffffffffffffffffffffffffffffffffffffffff16635d12928b6040518163ffffffff1660e01b81526004016020604051808303816000875af115801562000165573d6000803e3d6000fd5b505050506040513d601f19601f820116820180604052508101906200018b919062000939565b508091505095945050505050565b6000876000800160006101000a81548173ffffffffffffffffffffffffffffffffffffffff021916908373ffffffffffffffffffffffffffffffffffffffff16021790555086600060010160006101000a81548173ffffffffffffffffffffffffffffffffffffffff021916908373ffffffffffffffffffffffffffffffffffffffff16021790555085600060020160006101000a81548173ffffffffffffffffffffffffffffffffffffffff021916908373ffffffffffffffffffffffffffffffffffffffff160217905550600062000298600060020160009054906101000a900473ffffffffffffffffffffffffffffffffffffffff166200036b565b90508073ffffffffffffffffffffffffffffffffffffffff1663d7c41c796000800160009054906101000a900473ffffffffffffffffffffffffffffffffffffffff16600060010160009054906101000a900473ffffffffffffffffffffffffffffffffffffffff16898989896040518763ffffffff1660e01b815260040162000328969594939291906200096b565b600060405180830381600087803b1580156200034357600080fd5b505af115801562000358573d6000803e3d6000fd5b5050505080915050979650505050505050565b60006040517f3d602d80600a3d3981f3363d3d373d3d3d363d7300000000000000000000000081528260601b60148201527f5af43d82803e903d91602b57fd5bf3000000000000000000000000000000000060288201526037816000f0915050600073ffffffffffffffffffffffffffffffffffffffff168173ffffffffffffffffffffffffffffffffffffffff16036200043d576040517f08c379a0000000000000000000000000000000000000000000000000000000008152600401620004349062000a28565b60405180910390fd5b919050565b6160e38062000a4b83390190565b6000604051905090565b600080fd5b600080fd5b600080fd5b600080fd5b6000601f19601f8301169050919050565b7f4e487b7100000000000000000000000000000000000000000000000000000000600052604160045260246000fd5b620004b9826200046e565b810181811067ffffffffffffffff82111715620004db57620004da6200047f565b5b80604052505050565b6000620004f062000450565b9050620004fe8282620004ae565b919050565b600067ffffffffffffffff8211156200052157620005206200047f565b5b6200052c826200046e565b9050602081019050919050565b82818337600083830152505050565b60006200055f620005598462000503565b620004e4565b9050828152602081018484840111156200057e576200057d62000469565b5b6200058b84828562000539565b509392505050565b600082601f830112620005ab57620005aa62000464565b5b8135620005bd84826020860162000548565b91505092915050565b6000819050919050565b620005db81620005c6565b8114620005e757600080fd5b50565b600081359050620005fb81620005d0565b92915050565b600073ffffffffffffffffffffffffffffffffffffffff82169050919050565b60006200062e8262000601565b9050919050565b620006408162000621565b81146200064c57600080fd5b50565b600081359050620006608162000635565b92915050565b600080600080600060a086880312156200068557620006846200045a565b5b600086013567ffffffffffffffff811115620006a657620006a56200045f565b5b620006b48882890162000593565b955050602086013567ffffffffffffffff811115620006d857620006d76200045f565b5b620006e68882890162000593565b9450506040620006f988828901620005ea565b93505060606200070c888289016200064f565b92505060806200071f888289016200064f565b9150509295509295909350565b620007378162000621565b82525050565b60006020820190506200075460008301846200072c565b92915050565b600080600080600080600060e0888a0312156200077c576200077b6200045a565b5b60006200078c8a828b016200064f565b97505060206200079f8a828b016200064f565b9650506040620007b28a828b016200064f565b9550506060620007c58a828b016200064f565b9450506080620007d88a828b016200064f565b93505060a0620007eb8a828b01620005ea565b92505060c0620007fe8a828b01620005ea565b91505092959891949750929550565b600081519050919050565b600082825260208201905092915050565b60005b83811015620008495780820151818401526020810190506200082c565b60008484015250505050565b600062000862826200080d565b6200086e818562000818565b93506200088081856020860162000829565b6200088b816200046e565b840191505092915050565b620008a181620005c6565b82525050565b600060c0820190508181036000830152620008c3818962000855565b90508181036020830152620008d9818862000855565b9050620008ea604083018762000896565b620008f960608301866200072c565b6200090860808301856200072c565b6200091760a08301846200072c565b979650505050505050565b600081519050620009338162000635565b92915050565b6000602082840312156200095257620009516200045a565b5b6000620009628482850162000922565b91505092915050565b600060c0820190506200098260008301896200072c565b6200099160208301886200072c565b620009a060408301876200072c565b620009af60608301866200072c565b620009be608083018562000896565b620009cd60a083018462000896565b979650505050505050565b7f455243313136373a20637265617465206661696c656400000000000000000000600082015250565b600062000a1060168362000818565b915062000a1d82620009d8565b602082019050919050565b6000602082019050818103600083015262000a438162000a01565b905091905056fe60806040523480156200001157600080fd5b50604051620060e3380380620060e38339818101604052810190620000379190620004dd565b85858585858585858160009081620000509190620007f8565b508060019081620000629190620007f8565b5050506200008562000079620001dc60201b60201c565b620001e460201b60201c565b83600c6000018190555082600c60010160006101000a81548173ffffffffffffffffffffffffffffffffffffffff021916908373ffffffffffffffffffffffffffffffffffffffff16021790555081600c60020160006101000a81548173ffffffffffffffffffffffffffffffffffffffff021916908373ffffffffffffffffffffffffffffffffffffffff16021790555080600c60040160006101000a81548173ffffffffffffffffffffffffffffffffffffffff021916908373ffffffffffffffffffffffffffffffffffffffff1602179055505050505050508173ffffffffffffffffffffffffffffffffffffffff1663a56c5a78306040518263ffffffff1660e01b81526004016200019c9190620008f0565b600060405180830381600087803b158015620001b757600080fd5b505af1158015620001cc573d6000803e3d6000fd5b505050505050505050506200090d565b600033905090565b6000600b60009054906101000a900473ffffffffffffffffffffffffffffffffffffffff16905081600b60006101000a81548173ffffffffffffffffffffffffffffffffffffffff021916908373ffffffffffffffffffffffffffffffffffffffff1602179055508173ffffffffffffffffffffffffffffffffffffffff168173ffffffffffffffffffffffffffffffffffffffff167f8be0079c531659141344cd1fd0a4f28419497f9722a3daafe3b4186f6b6457e060405160405180910390a35050565b6000604051905090565b600080fd5b600080fd5b600080fd5b600080fd5b6000601f19601f8301169050919050565b7f4e487b7100000000000000000000000000000000000000000000000000000000600052604160045260246000fd5b6200031382620002c8565b810181811067ffffffffffffffff82111715620003355762000334620002d9565b5b80604052505050565b60006200034a620002aa565b905062000358828262000308565b919050565b600067ffffffffffffffff8211156200037b576200037a620002d9565b5b6200038682620002c8565b9050602081019050919050565b60005b83811015620003b357808201518184015260208101905062000396565b60008484015250505050565b6000620003d6620003d0846200035d565b6200033e565b905082815260208101848484011115620003f557620003f4620002c3565b5b6200040284828562000393565b509392505050565b600082601f830112620004225762000421620002be565b5b815162000434848260208601620003bf565b91505092915050565b6000819050919050565b62000452816200043d565b81146200045e57600080fd5b50565b600081519050620004728162000447565b92915050565b600073ffffffffffffffffffffffffffffffffffffffff82169050919050565b6000620004a58262000478565b9050919050565b620004b78162000498565b8114620004c357600080fd5b50565b600081519050620004d781620004ac565b92915050565b60008060008060008060c08789031215620004fd57620004fc620002b4565b5b600087015167ffffffffffffffff8111156200051e576200051d620002b9565b5b6200052c89828a016200040a565b965050602087015167ffffffffffffffff81111562000550576200054f620002b9565b5b6200055e89828a016200040a565b95505060406200057189828a0162000461565b94505060606200058489828a01620004c6565b93505060806200059789828a01620004c6565b92505060a0620005aa89828a01620004c6565b9150509295509295509295565b600081519050919050565b7f4e487b7100000000000000000000000000000000000000000000000000000000600052602260045260246000fd5b600060028204905060018216806200060a57607f821691505b60208210810362000620576200061f620005c2565b5b50919050565b60008190508160005260206000209050919050565b60006020601f8301049050919050565b600082821b905092915050565b6000600883026200068a7fffffffffffffffffffffffffffffffffffffffffffffffffffffffffffffffff826200064b565b6200069686836200064b565b95508019841693508086168417925050509392505050565b6000819050919050565b6000620006d9620006d3620006cd846200043d565b620006ae565b6200043d565b9050919050565b6000819050919050565b620006f583620006b8565b6200070d6200070482620006e0565b84845462000658565b825550505050565b600090565b6200072462000715565b62000731818484620006ea565b505050565b5b8181101562000759576200074d6000826200071a565b60018101905062000737565b5050565b601f821115620007a857620007728162000626565b6200077d846200063b565b810160208510156200078d578190505b620007a56200079c856200063b565b83018262000736565b50505b505050565b600082821c905092915050565b6000620007cd60001984600802620007ad565b1980831691505092915050565b6000620007e88383620007ba565b9150826002028217905092915050565b6200080382620005b7565b67ffffffffffffffff8111156200081f576200081e620002d9565b5b6200082b8254620005f1565b620008388282856200075d565b600060209050601f8311600181146200087057600084156200085b578287015190505b620008678582620007da565b865550620008d7565b601f198416620008808662000626565b60005b82811015620008aa5784890151825560018201915060208501945060208101905062000883565b86831015620008ca5784890151620008c6601f891682620007ba565b8355505b6001600288020188555050505b505050505050565b620008ea8162000498565b82525050565b6000602082019050620009076000830184620008df565b92915050565b6157c6806200091d6000396000f3fe6080604052600436106101c25760003560e01c80635f9ff4a1116100f757806395f04d0511610095578063c87b56dd11610064578063c87b56dd1461065d578063e985e9c51461069a578063f23c9583146106d7578063f2fde38b14610707576101c2565b806395f04d05146105b2578063a0e12efe146105ce578063a22cb4651461060b578063b88d4fde14610634576101c2565b8063715018a6116100d1578063715018a614610508578063836387101461051f5780638da5cb5b1461055c57806395d89b4114610587576101c2565b80635f9ff4a1146104515780636352211e1461048e57806370a08231146104cb576101c2565b806318160ddd116101645780633ccfd60b1161013e5780633ccfd60b146103a957806342842e0e146103c05780634f6ccce7146103e95780635d12928b14610426576101c2565b806318160ddd1461031857806323b872dd146103435780632f745c591461036c576101c2565b8063095ea7b3116101a0578063095ea7b31461026c5780630ef8dd951461029557806313845d2f146102c0578063162094c4146102ef576101c2565b806301ffc9a7146101c757806306fdde0314610204578063081812fc1461022f575b600080fd5b3480156101d357600080fd5b506101ee60048036038101906101e99190613645565b610730565b6040516101fb919061368d565b60405180910390f35b34801561021057600080fd5b50610219610742565b6040516102269190613738565b60405180910390f35b34801561023b57600080fd5b5061025660048036038101906102519190613790565b6107d4565b60405161026391906137fe565b60405180910390f35b34801561027857600080fd5b50610293600480360381019061028e9190613845565b610859565b005b3480156102a157600080fd5b506102aa610970565b6040516102b791906137fe565b60405180910390f35b3480156102cc57600080fd5b506102d561099d565b6040516102e6959493929190613894565b60405180910390f35b3480156102fb57600080fd5b5061031660048036038101906103119190613a1c565b610a41565b005b34801561032457600080fd5b5061032d610a4f565b60405161033a9190613a78565b60405180910390f35b34801561034f57600080fd5b5061036a60048036038101906103659190613a93565b610a5c565b005b34801561037857600080fd5b50610393600480360381019061038e9190613845565b610abc565b6040516103a09190613a78565b60405180910390f35b3480156103b557600080fd5b506103be610b61565b005b3480156103cc57600080fd5b506103e760048036038101906103e29190613a93565b610c6f565b005b3480156103f557600080fd5b50610410600480360381019061040b9190613790565b610c8f565b60405161041d9190613a78565b60405180910390f35b34801561043257600080fd5b5061043b610d00565b60405161044891906137fe565b60405180910390f35b34801561045d57600080fd5b5061047860048036038101906104739190613bbd565b610d10565b60405161048591906137fe565b60405180910390f35b34801561049a57600080fd5b506104b560048036038101906104b09190613790565b6110cf565b6040516104c291906137fe565b60405180910390f35b3480156104d757600080fd5b506104f260048036038101906104ed9190613c82565b611180565b6040516104ff9190613a78565b60405180910390f35b34801561051457600080fd5b5061051d611237565b005b34801561052b57600080fd5b5061054660048036038101906105419190613790565b6112bf565b60405161055391906137fe565b60405180910390f35b34801561056857600080fd5b506105716112d1565b60405161057e91906137fe565b60405180910390f35b34801561059357600080fd5b5061059c6112fb565b6040516105a99190613738565b60405180910390f35b6105cc60048036038101906105c79190613caf565b61138d565b005b3480156105da57600080fd5b506105f560048036038101906105f09190613cf8565b611578565b604051610602919061368d565b60405180910390f35b34801561061757600080fd5b50610632600480360381019061062d9190613d9c565b61162e565b005b34801561064057600080fd5b5061065b60048036038101906106569190613ddc565b611644565b005b34801561066957600080fd5b50610684600480360381019061067f9190613790565b6116a6565b6040516106919190613738565b60405180910390f35b3480156106a657600080fd5b506106c160048036038101906106bc9190613e5f565b6116b8565b6040516106ce919061368d565b60405180910390f35b6106f160048036038101906106ec9190613e9f565b61174c565b6040516106fe91906137fe565b60405180910390f35b34801561071357600080fd5b5061072e60048036038101906107299190613c82565b611de2565b005b600061073b82611ed9565b9050919050565b60606000805461075190613f6d565b80601f016020809104026020016040519081016040528092919081815260200182805461077d90613f6d565b80156107ca5780601f1061079f576101008083540402835291602001916107ca565b820191906000526020600020905b8154815290600101906020018083116107ad57829003601f168201915b5050505050905090565b60006107df82611f53565b61081e576040517f08c379a000000000000000000000000000000000000000000000000000000000815260040161081590614010565b60405180910390fd5b6004600083815260200190815260200160002060009054906101000a900473ffffffffffffffffffffffffffffffffffffffff169050919050565b6000610864826110cf565b90508073ffffffffffffffffffffffffffffffffffffffff168373ffffffffffffffffffffffffffffffffffffffff16036108d4576040517f08c379a00000000000000000000000000000000000000000000000000000000081526004016108cb906140a2565b60405180910390fd5b8073ffffffffffffffffffffffffffffffffffffffff166108f3611fbf565b73ffffffffffffffffffffffffffffffffffffffff16148061092257506109218161091c611fbf565b6116b8565b5b610961576040517f08c379a000000000000000000000000000000000000000000000000000000000815260040161095890614134565b60405180910390fd5b61096b8383611fc7565b505050565b6000600c60030160009054906101000a900473ffffffffffffffffffffffffffffffffffffffff16905090565b600c8060000154908060010160009054906101000a900473ffffffffffffffffffffffffffffffffffffffff16908060020160009054906101000a900473ffffffffffffffffffffffffffffffffffffffff16908060030160009054906101000a900473ffffffffffffffffffffffffffffffffffffffff16908060040160009054906101000a900473ffffffffffffffffffffffffffffffffffffffff16905085565b610a4b8282612080565b5050565b6000600880549050905090565b610a6d610a67611fbf565b826120ed565b610aac576040517f08c379a0000000000000000000000000000000000000000000000000000000008152600401610aa3906141c6565b60405180910390fd5b610ab78383836121cb565b505050565b6000610ac783611180565b8210610b08576040517f08c379a0000000000000000000000000000000000000000000000000000000008152600401610aff90614258565b60405180910390fd5b600660008473ffffffffffffffffffffffffffffffffffffffff1673ffffffffffffffffffffffffffffffffffffffff168152602001908152602001600020600083815260200190815260200160002054905092915050565b610b69611fbf565b73ffffffffffffffffffffffffffffffffffffffff16610b876112d1565b73ffffffffffffffffffffffffffffffffffffffff1614610bdd576040517f08c379a0000000000000000000000000000000000000000000000000000000008152600401610bd4906142c4565b60405180910390fd5b600047905060004711610c25576040517f08c379a0000000000000000000000000000000000000000000000000000000008152600401610c1c90614330565b60405180910390fd5b3373ffffffffffffffffffffffffffffffffffffffff166108fc829081150290604051600060405180830381858888f19350505050158015610c6b573d6000803e3d6000fd5b5050565b610c8a83838360405180602001604052806000815250611644565b505050565b6000610c99610a4f565b8210610cda576040517f08c379a0000000000000000000000000000000000000000000000000000000008152600401610cd1906143c2565b60405180910390fd5b60088281548110610cee57610ced6143e2565b5b90600052602060002001549050919050565b6000610d0b30612431565b905090565b6000610d1b876110cf565b73ffffffffffffffffffffffffffffffffffffffff163373ffffffffffffffffffffffffffffffffffffffff1614610d88576040517f08c379a0000000000000000000000000000000000000000000000000000000008152600401610d7f9061445d565b60405180910390fd5b60008486610d9691906144ac565b14610dd6576040517f08c379a0000000000000000000000000000000000000000000000000000000008152600401610dcd9061454f565b60405180910390fd5b6000600c60020160009054906101000a900473ffffffffffffffffffffffffffffffffffffffff1673ffffffffffffffffffffffffffffffffffffffff1663d798b462336040518263ffffffff1660e01b8152600401610e3691906137fe565b602060405180830381865afa158015610e53573d6000803e3d6000fd5b505050506040513d601f19601f82011682018060405250810190610e779190614584565b905085811015610ebc576040517f08c379a0000000000000000000000000000000000000000000000000000000008152600401610eb390614623565b60405180910390fd5b600c60020160009054906101000a900473ffffffffffffffffffffffffffffffffffffffff1673ffffffffffffffffffffffffffffffffffffffff1663f3d8c7a733600c60020160009054906101000a900473ffffffffffffffffffffffffffffffffffffffff16896040518463ffffffff1660e01b8152600401610f4393929190614643565b6020604051808303816000875af1158015610f62573d6000803e3d6000fd5b505050506040513d601f19601f82011682018060405250810190610f86919061468f565b50600c60020160009054906101000a900473ffffffffffffffffffffffffffffffffffffffff1673ffffffffffffffffffffffffffffffffffffffff166303f5de9d8988888b6040518563ffffffff1660e01b8152600401610feb94939291906146cb565b6020604051808303816000875af115801561100a573d6000803e3d6000fd5b505050506040513d601f19601f8201168201806040525081019061102e9190614725565b9150600c60030160009054906101000a900473ffffffffffffffffffffffffffffffffffffffff1673ffffffffffffffffffffffffffffffffffffffff1663bd6af0098986866040518463ffffffff1660e01b8152600401611092939291906147a7565b600060405180830381600087803b1580156110ac57600080fd5b505af11580156110c0573d6000803e3d6000fd5b50505050509695505050505050565b6000806002600084815260200190815260200160002060009054906101000a900473ffffffffffffffffffffffffffffffffffffffff169050600073ffffffffffffffffffffffffffffffffffffffff168173ffffffffffffffffffffffffffffffffffffffff1603611177576040517f08c379a000000000000000000000000000000000000000000000000000000000815260040161116e9061485e565b60405180910390fd5b80915050919050565b60008073ffffffffffffffffffffffffffffffffffffffff168273ffffffffffffffffffffffffffffffffffffffff16036111f0576040517f08c379a00000000000000000000000000000000000000000000000000000000081526004016111e7906148f0565b60405180910390fd5b600360008373ffffffffffffffffffffffffffffffffffffffff1673ffffffffffffffffffffffffffffffffffffffff168152602001908152602001600020549050919050565b61123f611fbf565b73ffffffffffffffffffffffffffffffffffffffff1661125d6112d1565b73ffffffffffffffffffffffffffffffffffffffff16146112b3576040517f08c379a00000000000000000000000000000000000000000000000000000000081526004016112aa906142c4565b60405180910390fd5b6112bd6000612568565b565b60006112ca826110cf565b9050919050565b6000600b60009054906101000a900473ffffffffffffffffffffffffffffffffffffffff16905090565b60606001805461130a90613f6d565b80601f016020809104026020016040519081016040528092919081815260200182805461133690613f6d565b80156113835780601f1061135857610100808354040283529160200191611383565b820191906000526020600020905b81548152906001019060200180831161136657829003601f168201915b5050505050905090565b6000611397610a4f565b9050600c6000015481106113e0576040517f08c379a00000000000000000000000000000000000000000000000000000000081526004016113d790614982565b60405180910390fd5b6000600c60020160009054906101000a900473ffffffffffffffffffffffffffffffffffffffff1673ffffffffffffffffffffffffffffffffffffffff166398d5fdca6040518163ffffffff1660e01b8152600401602060405180830381865afa158015611452573d6000803e3d6000fd5b505050506040513d601f19601f820116820180604052508101906114769190614584565b9050803410156114bb576040517f08c379a00000000000000000000000000000000000000000000000000000000081526004016114b290614a14565b60405180910390fd5b6114c5338361262e565b6114cf8284612080565b600c60020160009054906101000a900473ffffffffffffffffffffffffffffffffffffffff1673ffffffffffffffffffffffffffffffffffffffff16631c85949c33846040518363ffffffff1660e01b815260040161152f929190614a34565b6020604051808303816000875af115801561154e573d6000803e3d6000fd5b505050506040513d601f19601f82011682018060405250810190611572919061468f565b50505050565b600080611583610a4f565b905061158f338261262e565b600c60030160009054906101000a900473ffffffffffffffffffffffffffffffffffffffff1673ffffffffffffffffffffffffffffffffffffffff1663bd6af0098286866040518463ffffffff1660e01b81526004016115f1939291906147a7565b600060405180830381600087803b15801561160b57600080fd5b505af115801561161f573d6000803e3d6000fd5b50505050600191505092915050565b611640611639611fbf565b838361264c565b5050565b61165561164f611fbf565b836120ed565b611694576040517f08c379a000000000000000000000000000000000000000000000000000000000815260040161168b906141c6565b60405180910390fd5b6116a0848484846127b8565b50505050565b60606116b182612814565b9050919050565b6000600560008473ffffffffffffffffffffffffffffffffffffffff1673ffffffffffffffffffffffffffffffffffffffff16815260200190815260200160002060008373ffffffffffffffffffffffffffffffffffffffff1673ffffffffffffffffffffffffffffffffffffffff16815260200190815260200160002060009054906101000a900460ff16905092915050565b6000611757856110cf565b73ffffffffffffffffffffffffffffffffffffffff163373ffffffffffffffffffffffffffffffffffffffff16146117c4576040517f08c379a00000000000000000000000000000000000000000000000000000000081526004016117bb9061445d565b60405180910390fd5b600c600001546117d2610a4f565b1015611813576040517f08c379a000000000000000000000000000000000000000000000000000000000815260040161180a90614aa9565b60405180910390fd5b6000600c60020160009054906101000a900473ffffffffffffffffffffffffffffffffffffffff1673ffffffffffffffffffffffffffffffffffffffff1663bb5833af876040518263ffffffff1660e01b81526004016118739190613a78565b602060405180830381865afa158015611890573d6000803e3d6000fd5b505050506040513d601f19601f820116820180604052508101906118b49190614584565b9050803410156118f9576040517f08c379a00000000000000000000000000000000000000000000000000000000081526004016118f090614b15565b60405180910390fd5b6000600c60020160009054906101000a900473ffffffffffffffffffffffffffffffffffffffff1673ffffffffffffffffffffffffffffffffffffffff16638ed3df0f886040518263ffffffff1660e01b81526004016119599190613a78565b602060405180830381865afa158015611976573d6000803e3d6000fd5b505050506040513d601f19601f8201168201806040525081019061199a9190614584565b90506000600c60020160009054906101000a900473ffffffffffffffffffffffffffffffffffffffff1673ffffffffffffffffffffffffffffffffffffffff1663d798b462336040518263ffffffff1660e01b81526004016119fc91906137fe565b602060405180830381865afa158015611a19573d6000803e3d6000fd5b505050506040513d601f19601f82011682018060405250810190611a3d9190614584565b905081811015611a82576040517f08c379a0000000000000000000000000000000000000000000000000000000008152600401611a7990614b81565b60405180910390fd5b600c60020160009054906101000a900473ffffffffffffffffffffffffffffffffffffffff1673ffffffffffffffffffffffffffffffffffffffff1663f3d8c7a733600c60020160009054906101000a900473ffffffffffffffffffffffffffffffffffffffff16856040518463ffffffff1660e01b8152600401611b0993929190614643565b6020604051808303816000875af1158015611b28573d6000803e3d6000fd5b505050506040513d601f19601f82011682018060405250810190611b4c919061468f565b50600c60020160009054906101000a900473ffffffffffffffffffffffffffffffffffffffff1673ffffffffffffffffffffffffffffffffffffffff1663ff2cb34733846040518363ffffffff1660e01b8152600401611bad929190614a34565b6020604051808303816000875af1158015611bcc573d6000803e3d6000fd5b505050506040513d601f19601f82011682018060405250810190611bf09190614584565b50600c60020160009054906101000a900473ffffffffffffffffffffffffffffffffffffffff1673ffffffffffffffffffffffffffffffffffffffff1663fe774f9d89896040518363ffffffff1660e01b8152600401611c51929190614ba1565b6020604051808303816000875af1158015611c70573d6000803e3d6000fd5b505050506040513d601f19601f82011682018060405250810190611c949190614725565b935060008473ffffffffffffffffffffffffffffffffffffffff1634604051611cbc90614bfb565b60006040518083038185875af1925050503d8060008114611cf9576040519150601f19603f3d011682016040523d82523d6000602084013e611cfe565b606091505b5050905080611d42576040517f08c379a0000000000000000000000000000000000000000000000000000000008152600401611d3990614c5c565b60405180910390fd5b600c60030160009054906101000a900473ffffffffffffffffffffffffffffffffffffffff1673ffffffffffffffffffffffffffffffffffffffff1663bd6af0098a89896040518463ffffffff1660e01b8152600401611da4939291906147a7565b600060405180830381600087803b158015611dbe57600080fd5b505af1158015611dd2573d6000803e3d6000fd5b5050505050505050949350505050565b611dea611fbf565b73ffffffffffffffffffffffffffffffffffffffff16611e086112d1565b73ffffffffffffffffffffffffffffffffffffffff1614611e5e576040517f08c379a0000000000000000000000000000000000000000000000000000000008152600401611e55906142c4565b60405180910390fd5b600073ffffffffffffffffffffffffffffffffffffffff168173ffffffffffffffffffffffffffffffffffffffff1603611ecd576040517f08c379a0000000000000000000000000000000000000000000000000000000008152600401611ec490614cee565b60405180910390fd5b611ed681612568565b50565b60007f780e9d63000000000000000000000000000000000000000000000000000000007bffffffffffffffffffffffffffffffffffffffffffffffffffffffff1916827bffffffffffffffffffffffffffffffffffffffffffffffffffffffff19161480611f4c5750611f4b82612965565b5b9050919050565b60008073ffffffffffffffffffffffffffffffffffffffff166002600084815260200190815260200160002060009054906101000a900473ffffffffffffffffffffffffffffffffffffffff1673ffffffffffffffffffffffffffffffffffffffff1614159050919050565b600033905090565b816004600083815260200190815260200160002060006101000a81548173ffffffffffffffffffffffffffffffffffffffff021916908373ffffffffffffffffffffffffffffffffffffffff160217905550808273ffffffffffffffffffffffffffffffffffffffff1661203a836110cf565b73ffffffffffffffffffffffffffffffffffffffff167f8c5be1e5ebec7d5bd14f71427d1e84f3dd0314c0f7b2291e5b200ac8c7c3b92560405160405180910390a45050565b61208982611f53565b6120c8576040517f08c379a00000000000000000000000000000000000000000000000000000000081526004016120bf90614d80565b60405180910390fd5b80600a600084815260200190815260200160002090816120e89190614f4c565b505050565b60006120f882611f53565b612137576040517f08c379a000000000000000000000000000000000000000000000000000000000815260040161212e90615090565b60405180910390fd5b6000612142836110cf565b90508073ffffffffffffffffffffffffffffffffffffffff168473ffffffffffffffffffffffffffffffffffffffff161480612184575061218381856116b8565b5b806121c257508373ffffffffffffffffffffffffffffffffffffffff166121aa846107d4565b73ffffffffffffffffffffffffffffffffffffffff16145b91505092915050565b8273ffffffffffffffffffffffffffffffffffffffff166121eb826110cf565b73ffffffffffffffffffffffffffffffffffffffff1614612241576040517f08c379a000000000000000000000000000000000000000000000000000000000815260040161223890615122565b60405180910390fd5b600073ffffffffffffffffffffffffffffffffffffffff168273ffffffffffffffffffffffffffffffffffffffff16036122b0576040517f08c379a00000000000000000000000000000000000000000000000000000000081526004016122a7906151b4565b60405180910390fd5b6122bb838383612a47565b6122c6600082611fc7565b6001600360008573ffffffffffffffffffffffffffffffffffffffff1673ffffffffffffffffffffffffffffffffffffffff16815260200190815260200160002060008282546123169190615203565b925050819055506001600360008473ffffffffffffffffffffffffffffffffffffffff1673ffffffffffffffffffffffffffffffffffffffff168152602001908152602001600020600082825461236d9190615237565b92505081905550816002600083815260200190815260200160002060006101000a81548173ffffffffffffffffffffffffffffffffffffffff021916908373ffffffffffffffffffffffffffffffffffffffff160217905550808273ffffffffffffffffffffffffffffffffffffffff168473ffffffffffffffffffffffffffffffffffffffff167fddf252ad1be2c89b69c2b068fc378daa952ba7f163c4a11628f55a4df523b3ef60405160405180910390a461242c838383612a57565b505050565b600080612462600c60040160009054906101000a900473ffffffffffffffffffffffffffffffffffffffff16612a5c565b90508073ffffffffffffffffffffffffffffffffffffffff1663485cc955600c60010160009054906101000a900473ffffffffffffffffffffffffffffffffffffffff16856040518363ffffffff1660e01b81526004016124c492919061526b565b600060405180830381600087803b1580156124de57600080fd5b505af11580156124f2573d6000803e3d6000fd5b5050505080600c60030160006101000a81548173ffffffffffffffffffffffffffffffffffffffff021916908373ffffffffffffffffffffffffffffffffffffffff160217905550600c60030160009054906101000a900473ffffffffffffffffffffffffffffffffffffffff16915050919050565b6000600b60009054906101000a900473ffffffffffffffffffffffffffffffffffffffff16905081600b60006101000a81548173ffffffffffffffffffffffffffffffffffffffff021916908373ffffffffffffffffffffffffffffffffffffffff1602179055508173ffffffffffffffffffffffffffffffffffffffff168173ffffffffffffffffffffffffffffffffffffffff167f8be0079c531659141344cd1fd0a4f28419497f9722a3daafe3b4186f6b6457e060405160405180910390a35050565b612648828260405180602001604052806000815250612b30565b5050565b8173ffffffffffffffffffffffffffffffffffffffff168373ffffffffffffffffffffffffffffffffffffffff16036126ba576040517f08c379a00000000000000000000000000000000000000000000000000000000081526004016126b1906152e0565b60405180910390fd5b80600560008573ffffffffffffffffffffffffffffffffffffffff1673ffffffffffffffffffffffffffffffffffffffff16815260200190815260200160002060008473ffffffffffffffffffffffffffffffffffffffff1673ffffffffffffffffffffffffffffffffffffffff16815260200190815260200160002060006101000a81548160ff0219169083151502179055508173ffffffffffffffffffffffffffffffffffffffff168373ffffffffffffffffffffffffffffffffffffffff167f17307eab39ab6107e8899845ad3d59bd9653f200f220920489ca2b5937696c31836040516127ab919061368d565b60405180910390a3505050565b6127c38484846121cb565b6127cf84848484612b8b565b61280e576040517f08c379a000000000000000000000000000000000000000000000000000000000815260040161280590615372565b60405180910390fd5b50505050565b606061281f82611f53565b61285e576040517f08c379a000000000000000000000000000000000000000000000000000000000815260040161285590615404565b60405180910390fd5b6000600a6000848152602001908152602001600020805461287e90613f6d565b80601f01602080910402602001604051908101604052809291908181526020018280546128aa90613f6d565b80156128f75780601f106128cc576101008083540402835291602001916128f7565b820191906000526020600020905b8154815290600101906020018083116128da57829003601f168201915b505050505090506000612908612d12565b9050600081510361291d578192505050612960565b60008251111561295257808260405160200161293a929190615460565b60405160208183030381529060405292505050612960565b61295b84612d4f565b925050505b919050565b60007f80ac58cd000000000000000000000000000000000000000000000000000000007bffffffffffffffffffffffffffffffffffffffffffffffffffffffff1916827bffffffffffffffffffffffffffffffffffffffffffffffffffffffff19161480612a3057507f5b5e139f000000000000000000000000000000000000000000000000000000007bffffffffffffffffffffffffffffffffffffffffffffffffffffffff1916827bffffffffffffffffffffffffffffffffffffffffffffffffffffffff1916145b80612a405750612a3f82612df6565b5b9050919050565b612a52838383612e60565b505050565b505050565b60006040517f3d602d80600a3d3981f3363d3d373d3d3d363d7300000000000000000000000081528260601b60148201527f5af43d82803e903d91602b57fd5bf3000000000000000000000000000000000060288201526037816000f0915050600073ffffffffffffffffffffffffffffffffffffffff168173ffffffffffffffffffffffffffffffffffffffff1603612b2b576040517f08c379a0000000000000000000000000000000000000000000000000000000008152600401612b22906154d0565b60405180910390fd5b919050565b612b3a8383612f72565b612b476000848484612b8b565b612b86576040517f08c379a0000000000000000000000000000000000000000000000000000000008152600401612b7d90615372565b60405180910390fd5b505050565b6000612bac8473ffffffffffffffffffffffffffffffffffffffff1661314b565b15612d05578373ffffffffffffffffffffffffffffffffffffffff1663150b7a02612bd5611fbf565b8786866040518563ffffffff1660e01b8152600401612bf794939291906154f0565b6020604051808303816000875af1925050508015612c3357506040513d601f19601f82011682018060405250810190612c309190615551565b60015b612cb5573d8060008114612c63576040519150601f19603f3d011682016040523d82523d6000602084013e612c68565b606091505b506000815103612cad576040517f08c379a0000000000000000000000000000000000000000000000000000000008152600401612ca490615372565b60405180910390fd5b805181602001fd5b63150b7a0260e01b7bffffffffffffffffffffffffffffffffffffffffffffffffffffffff1916817bffffffffffffffffffffffffffffffffffffffffffffffffffffffff191614915050612d0a565b600190505b949350505050565b60606040518060400160405280601581526020017f68747470733a2f2f697066732e696f2f697066732f0000000000000000000000815250905090565b6060612d5a82611f53565b612d99576040517f08c379a0000000000000000000000000000000000000000000000000000000008152600401612d90906155f0565b60405180910390fd5b6000612da3612d12565b90506000815111612dc35760405180602001604052806000815250612dee565b80612dcd8461316e565b604051602001612dde929190615460565b6040516020818303038152906040525b915050919050565b60007f01ffc9a7000000000000000000000000000000000000000000000000000000007bffffffffffffffffffffffffffffffffffffffffffffffffffffffff1916827bffffffffffffffffffffffffffffffffffffffffffffffffffffffff1916149050919050565b612e6b8383836132ce565b600073ffffffffffffffffffffffffffffffffffffffff168373ffffffffffffffffffffffffffffffffffffffff1603612ead57612ea8816132d3565b612eec565b8173ffffffffffffffffffffffffffffffffffffffff168373ffffffffffffffffffffffffffffffffffffffff1614612eeb57612eea838261331c565b5b5b600073ffffffffffffffffffffffffffffffffffffffff168273ffffffffffffffffffffffffffffffffffffffff1603612f2e57612f2981613489565b612f6d565b8273ffffffffffffffffffffffffffffffffffffffff168273ffffffffffffffffffffffffffffffffffffffff1614612f6c57612f6b828261355a565b5b5b505050565b600073ffffffffffffffffffffffffffffffffffffffff168273ffffffffffffffffffffffffffffffffffffffff1603612fe1576040517f08c379a0000000000000000000000000000000000000000000000000000000008152600401612fd89061565c565b60405180910390fd5b612fea81611f53565b1561302a576040517f08c379a0000000000000000000000000000000000000000000000000000000008152600401613021906156c8565b60405180910390fd5b61303660008383612a47565b6001600360008473ffffffffffffffffffffffffffffffffffffffff1673ffffffffffffffffffffffffffffffffffffffff16815260200190815260200160002060008282546130869190615237565b92505081905550816002600083815260200190815260200160002060006101000a81548173ffffffffffffffffffffffffffffffffffffffff021916908373ffffffffffffffffffffffffffffffffffffffff160217905550808273ffffffffffffffffffffffffffffffffffffffff16600073ffffffffffffffffffffffffffffffffffffffff167fddf252ad1be2c89b69c2b068fc378daa952ba7f163c4a11628f55a4df523b3ef60405160405180910390a461314760008383612a57565b5050565b6000808273ffffffffffffffffffffffffffffffffffffffff163b119050919050565b6060600082036131b5576040518060400160405280600181526020017f300000000000000000000000000000000000000000000000000000000000000081525090506132c9565b600082905060005b600082146131e75780806131d0906156e8565b915050600a826131e09190615730565b91506131bd565b60008167ffffffffffffffff811115613203576132026138f1565b5b6040519080825280601f01601f1916602001820160405280156132355781602001600182028036833780820191505090505b5090505b600085146132c25760018261324e9190615203565b9150600a8561325d91906144ac565b60306132699190615237565b60f81b81838151811061327f5761327e6143e2565b5b60200101907effffffffffffffffffffffffffffffffffffffffffffffffffffffffffffff1916908160001a905350600a856132bb9190615730565b9450613239565b8093505050505b919050565b505050565b6008805490506009600083815260200190815260200160002081905550600881908060018154018082558091505060019003906000526020600020016000909190919091505550565b6000600161332984611180565b6133339190615203565b9050600060076000848152602001908152602001600020549050818114613418576000600660008673ffffffffffffffffffffffffffffffffffffffff1673ffffffffffffffffffffffffffffffffffffffff168152602001908152602001600020600084815260200190815260200160002054905080600660008773ffffffffffffffffffffffffffffffffffffffff1673ffffffffffffffffffffffffffffffffffffffff168152602001908152602001600020600084815260200190815260200160002081905550816007600083815260200190815260200160002081905550505b6007600084815260200190815260200160002060009055600660008573ffffffffffffffffffffffffffffffffffffffff1673ffffffffffffffffffffffffffffffffffffffff16815260200190815260200160002060008381526020019081526020016000206000905550505050565b6000600160088054905061349d9190615203565b90506000600960008481526020019081526020016000205490506000600883815481106134cd576134cc6143e2565b5b9060005260206000200154905080600883815481106134ef576134ee6143e2565b5b90600052602060002001819055508160096000838152602001908152602001600020819055506009600085815260200190815260200160002060009055600880548061353e5761353d615761565b5b6001900381819060005260206000200160009055905550505050565b600061356583611180565b905081600660008573ffffffffffffffffffffffffffffffffffffffff1673ffffffffffffffffffffffffffffffffffffffff168152602001908152602001600020600083815260200190815260200160002081905550806007600084815260200190815260200160002081905550505050565b6000604051905090565b600080fd5b600080fd5b60007fffffffff0000000000000000000000000000000000000000000000000000000082169050919050565b613622816135ed565b811461362d57600080fd5b50565b60008135905061363f81613619565b92915050565b60006020828403121561365b5761365a6135e3565b5b600061366984828501613630565b91505092915050565b60008115159050919050565b61368781613672565b82525050565b60006020820190506136a2600083018461367e565b92915050565b600081519050919050565b600082825260208201905092915050565b60005b838110156136e25780820151818401526020810190506136c7565b60008484015250505050565b6000601f19601f8301169050919050565b600061370a826136a8565b61371481856136b3565b93506137248185602086016136c4565b61372d816136ee565b840191505092915050565b6000602082019050818103600083015261375281846136ff565b905092915050565b6000819050919050565b61376d8161375a565b811461377857600080fd5b50565b60008135905061378a81613764565b92915050565b6000602082840312156137a6576137a56135e3565b5b60006137b48482850161377b565b91505092915050565b600073ffffffffffffffffffffffffffffffffffffffff82169050919050565b60006137e8826137bd565b9050919050565b6137f8816137dd565b82525050565b600060208201905061381360008301846137ef565b92915050565b613822816137dd565b811461382d57600080fd5b50565b60008135905061383f81613819565b92915050565b6000806040838503121561385c5761385b6135e3565b5b600061386a85828601613830565b925050602061387b8582860161377b565b9150509250929050565b61388e8161375a565b82525050565b600060a0820190506138a96000830188613885565b6138b660208301876137ef565b6138c360408301866137ef565b6138d060608301856137ef565b6138dd60808301846137ef565b9695505050505050565b600080fd5b600080fd5b7f4e487b7100000000000000000000000000000000000000000000000000000000600052604160045260246000fd5b613929826136ee565b810181811067ffffffffffffffff82111715613948576139476138f1565b5b80604052505050565b600061395b6135d9565b90506139678282613920565b919050565b600067ffffffffffffffff821115613987576139866138f1565b5b613990826136ee565b9050602081019050919050565b82818337600083830152505050565b60006139bf6139ba8461396c565b613951565b9050828152602081018484840111156139db576139da6138ec565b5b6139e684828561399d565b509392505050565b600082601f830112613a0357613a026138e7565b5b8135613a138482602086016139ac565b91505092915050565b60008060408385031215613a3357613a326135e3565b5b6000613a418582860161377b565b925050602083013567ffffffffffffffff811115613a6257613a616135e8565b5b613a6e858286016139ee565b9150509250929050565b6000602082019050613a8d6000830184613885565b92915050565b600080600060608486031215613aac57613aab6135e3565b5b6000613aba86828701613830565b9350506020613acb86828701613830565b9250506040613adc8682870161377b565b9150509250925092565b6000819050919050565b613af981613ae6565b8114613b0457600080fd5b50565b600081359050613b1681613af0565b92915050565b600067ffffffffffffffff821115613b3757613b366138f1565b5b613b40826136ee565b9050602081019050919050565b6000613b60613b5b84613b1c565b613951565b905082815260208101848484011115613b7c57613b7b6138ec565b5b613b8784828561399d565b509392505050565b600082601f830112613ba457613ba36138e7565b5b8135613bb4848260208601613b4d565b91505092915050565b60008060008060008060c08789031215613bda57613bd96135e3565b5b6000613be889828a0161377b565b9650506020613bf989828a01613b07565b9550506040613c0a89828a0161377b565b9450506060613c1b89828a0161377b565b935050608087013567ffffffffffffffff811115613c3c57613c3b6135e8565b5b613c4889828a016139ee565b92505060a087013567ffffffffffffffff811115613c6957613c686135e8565b5b613c7589828a01613b8f565b9150509295509295509295565b600060208284031215613c9857613c976135e3565b5b6000613ca684828501613830565b91505092915050565b600060208284031215613cc557613cc46135e3565b5b600082013567ffffffffffffffff811115613ce357613ce26135e8565b5b613cef848285016139ee565b91505092915050565b60008060408385031215613d0f57613d0e6135e3565b5b600083013567ffffffffffffffff811115613d2d57613d2c6135e8565b5b613d39858286016139ee565b925050602083013567ffffffffffffffff811115613d5a57613d596135e8565b5b613d6685828601613b8f565b9150509250929050565b613d7981613672565b8114613d8457600080fd5b50565b600081359050613d9681613d70565b92915050565b60008060408385031215613db357613db26135e3565b5b6000613dc185828601613830565b9250506020613dd285828601613d87565b9150509250929050565b60008060008060808587031215613df657613df56135e3565b5b6000613e0487828801613830565b9450506020613e1587828801613830565b9350506040613e268782880161377b565b925050606085013567ffffffffffffffff811115613e4757613e466135e8565b5b613e5387828801613b8f565b91505092959194509250565b60008060408385031215613e7657613e756135e3565b5b6000613e8485828601613830565b9250506020613e9585828601613830565b9150509250929050565b60008060008060808587031215613eb957613eb86135e3565b5b6000613ec78782880161377b565b9450506020613ed887828801613b07565b935050604085013567ffffffffffffffff811115613ef957613ef86135e8565b5b613f05878288016139ee565b925050606085013567ffffffffffffffff811115613f2657613f256135e8565b5b613f3287828801613b8f565b91505092959194509250565b7f4e487b7100000000000000000000000000000000000000000000000000000000600052602260045260246000fd5b60006002820490506001821680613f8557607f821691505b602082108103613f9857613f97613f3e565b5b50919050565b7f4552433732313a20617070726f76656420717565727920666f72206e6f6e657860008201527f697374656e7420746f6b656e0000000000000000000000000000000000000000602082015250565b6000613ffa602c836136b3565b915061400582613f9e565b604082019050919050565b6000602082019050818103600083015261402981613fed565b9050919050565b7f4552433732313a20617070726f76616c20746f2063757272656e74206f776e6560008201527f7200000000000000000000000000000000000000000000000000000000000000602082015250565b600061408c6021836136b3565b915061409782614030565b604082019050919050565b600060208201905081810360008301526140bb8161407f565b9050919050565b7f4552433732313a20617070726f76652063616c6c6572206973206e6f74206f7760008201527f6e6572206e6f7220617070726f76656420666f7220616c6c0000000000000000602082015250565b600061411e6038836136b3565b9150614129826140c2565b604082019050919050565b6000602082019050818103600083015261414d81614111565b9050919050565b7f4552433732313a207472616e736665722063616c6c6572206973206e6f74206f60008201527f776e6572206e6f7220617070726f766564000000000000000000000000000000602082015250565b60006141b06031836136b3565b91506141bb82614154565b604082019050919050565b600060208201905081810360008301526141df816141a3565b9050919050565b7f455243373231456e756d657261626c653a206f776e657220696e646578206f7560008201527f74206f6620626f756e6473000000000000000000000000000000000000000000602082015250565b6000614242602b836136b3565b915061424d826141e6565b604082019050919050565b6000602082019050818103600083015261427181614235565b9050919050565b7f4f776e61626c653a2063616c6c6572206973206e6f7420746865206f776e6572600082015250565b60006142ae6020836136b3565b91506142b982614278565b602082019050919050565b600060208201905081810360008301526142dd816142a1565b9050919050565b7f4e6f2062616c616e636520746f20776974686472617700000000000000000000600082015250565b600061431a6016836136b3565b9150614325826142e4565b602082019050919050565b600060208201905081810360008301526143498161430d565b9050919050565b7f455243373231456e756d657261626c653a20676c6f62616c20696e646578206f60008201527f7574206f6620626f756e64730000000000000000000000000000000000000000602082015250565b60006143ac602c836136b3565b91506143b782614350565b604082019050919050565b600060208201905081810360008301526143db8161439f565b9050919050565b7f4e487b7100000000000000000000000000000000000000000000000000000000600052603260045260246000fd5b7f43616c6c6572206973206e6f74206f776e6572206f66206e7574000000000000600082015250565b6000614447601a836136b3565b915061445282614411565b602082019050919050565b600060208201905081810360008301526144768161443a565b9050919050565b7f4e487b7100000000000000000000000000000000000000000000000000000000600052601260045260246000fd5b60006144b78261375a565b91506144c28361375a565b9250826144d2576144d161447d565b5b828206905092915050565b7f447261772072617465206e6f7420706572666563746c7920646976697369626c60008201527f6520627920636f6e747269627574696f6e000000000000000000000000000000602082015250565b60006145396031836136b3565b9150614544826144dd565b604082019050919050565b600060208201905081810360008301526145688161452c565b9050919050565b60008151905061457e81613764565b92915050565b60006020828403121561459a576145996135e3565b5b60006145a88482850161456f565b91505092915050565b7f4d6174746572206f776e6564206973206c657373207468616e2064657369726560008201527f6420636f6e747269627574696f6e000000000000000000000000000000000000602082015250565b600061460d602e836136b3565b9150614618826145b1565b604082019050919050565b6000602082019050818103600083015261463c81614600565b9050919050565b600060608201905061465860008301866137ef565b61466560208301856137ef565b6146726040830184613885565b949350505050565b60008151905061468981613d70565b92915050565b6000602082840312156146a5576146a46135e3565b5b60006146b38482850161467a565b91505092915050565b6146c581613ae6565b82525050565b60006080820190506146e06000830187613885565b6146ed6020830186613885565b6146fa6040830185613885565b61470760608301846146bc565b95945050505050565b60008151905061471f81613819565b92915050565b60006020828403121561473b5761473a6135e3565b5b600061474984828501614710565b91505092915050565b600081519050919050565b600082825260208201905092915050565b600061477982614752565b614783818561475d565b93506147938185602086016136c4565b61479c816136ee565b840191505092915050565b60006060820190506147bc6000830186613885565b81810360208301526147ce81856136ff565b905081810360408301526147e2818461476e565b9050949350505050565b7f4552433732313a206f776e657220717565727920666f72206e6f6e657869737460008201527f656e7420746f6b656e0000000000000000000000000000000000000000000000602082015250565b60006148486029836136b3565b9150614853826147ec565b604082019050919050565b600060208201905081810360008301526148778161483b565b9050919050565b7f4552433732313a2062616c616e636520717565727920666f7220746865207a6560008201527f726f206164647265737300000000000000000000000000000000000000000000602082015250565b60006148da602a836136b3565b91506148e58261487e565b604082019050919050565b60006020820190508181036000830152614909816148cd565b9050919050565b7f496e697469616c20737570706c79206f66206e757473206973206465706c657460008201527f6564000000000000000000000000000000000000000000000000000000000000602082015250565b600061496c6022836136b3565b915061497782614910565b604082019050919050565b6000602082019050818103600083015261499b8161495f565b9050919050565b7f45746865722076616c75652070726f7669646564206973206e6f7420656e6f7560008201527f6768000000000000000000000000000000000000000000000000000000000000602082015250565b60006149fe6022836136b3565b9150614a09826149a2565b604082019050919050565b60006020820190508181036000830152614a2d816149f1565b9050919050565b6000604082019050614a4960008301856137ef565b614a566020830184613885565b9392505050565b7f4e757473207374696c6c2065786973742066726f6d206372656174696f6e0000600082015250565b6000614a93601e836136b3565b9150614a9e82614a5d565b602082019050919050565b60006020820190508181036000830152614ac281614a86565b9050919050565b7f45746865722076616c7565206973206e6f7420656e6f75676800000000000000600082015250565b6000614aff6019836136b3565b9150614b0a82614ac9565b602082019050919050565b60006020820190508181036000830152614b2e81614af2565b9050919050565b7f4d61747465722062616c616e6365206973206e6f7420656e6f75676800000000600082015250565b6000614b6b601c836136b3565b9150614b7682614b35565b602082019050919050565b60006020820190508181036000830152614b9a81614b5e565b9050919050565b6000604082019050614bb66000830185613885565b614bc360208301846146bc565b9392505050565b600081905092915050565b50565b6000614be5600083614bca565b9150614bf082614bd5565b600082019050919050565b6000614c0682614bd8565b9150819050919050565b7f4574686572206e6f742073656e7420746f207365656400000000000000000000600082015250565b6000614c466016836136b3565b9150614c5182614c10565b602082019050919050565b60006020820190508181036000830152614c7581614c39565b9050919050565b7f4f776e61626c653a206e6577206f776e657220697320746865207a65726f206160008201527f6464726573730000000000000000000000000000000000000000000000000000602082015250565b6000614cd86026836136b3565b9150614ce382614c7c565b604082019050919050565b60006020820190508181036000830152614d0781614ccb565b9050919050565b7f45524337323155524953746f726167653a2055524920736574206f66206e6f6e60008201527f6578697374656e7420746f6b656e000000000000000000000000000000000000602082015250565b6000614d6a602e836136b3565b9150614d7582614d0e565b604082019050919050565b60006020820190508181036000830152614d9981614d5d565b9050919050565b60008190508160005260206000209050919050565b60006020601f8301049050919050565b600082821b905092915050565b600060088302614e027fffffffffffffffffffffffffffffffffffffffffffffffffffffffffffffffff82614dc5565b614e0c8683614dc5565b95508019841693508086168417925050509392505050565b6000819050919050565b6000614e49614e44614e3f8461375a565b614e24565b61375a565b9050919050565b6000819050919050565b614e6383614e2e565b614e77614e6f82614e50565b848454614dd2565b825550505050565b600090565b614e8c614e7f565b614e97818484614e5a565b505050565b5b81811015614ebb57614eb0600082614e84565b600181019050614e9d565b5050565b601f821115614f0057614ed181614da0565b614eda84614db5565b81016020851015614ee9578190505b614efd614ef585614db5565b830182614e9c565b50505b505050565b600082821c905092915050565b6000614f2360001984600802614f05565b1980831691505092915050565b6000614f3c8383614f12565b9150826002028217905092915050565b614f55826136a8565b67ffffffffffffffff811115614f6e57614f6d6138f1565b5b614f788254613f6d565b614f83828285614ebf565b600060209050601f831160018114614fb65760008415614fa4578287015190505b614fae8582614f30565b865550615016565b601f198416614fc486614da0565b60005b82811015614fec57848901518255600182019150602085019450602081019050614fc7565b868310156150095784890151615005601f891682614f12565b8355505b6001600288020188555050505b505050505050565b7f4552433732313a206f70657261746f7220717565727920666f72206e6f6e657860008201527f697374656e7420746f6b656e0000000000000000000000000000000000000000602082015250565b600061507a602c836136b3565b91506150858261501e565b604082019050919050565b600060208201905081810360008301526150a98161506d565b9050919050565b7f4552433732313a207472616e736665722066726f6d20696e636f72726563742060008201527f6f776e6572000000000000000000000000000000000000000000000000000000602082015250565b600061510c6025836136b3565b9150615117826150b0565b604082019050919050565b6000602082019050818103600083015261513b816150ff565b9050919050565b7f4552433732313a207472616e7366657220746f20746865207a65726f2061646460008201527f7265737300000000000000000000000000000000000000000000000000000000602082015250565b600061519e6024836136b3565b91506151a982615142565b604082019050919050565b600060208201905081810360008301526151cd81615191565b9050919050565b7f4e487b7100000000000000000000000000000000000000000000000000000000600052601160045260246000fd5b600061520e8261375a565b91506152198361375a565b9250828203905081811115615231576152306151d4565b5b92915050565b60006152428261375a565b915061524d8361375a565b9250828201905080821115615265576152646151d4565b5b92915050565b600060408201905061528060008301856137ef565b61528d60208301846137ef565b9392505050565b7f4552433732313a20617070726f766520746f2063616c6c657200000000000000600082015250565b60006152ca6019836136b3565b91506152d582615294565b602082019050919050565b600060208201905081810360008301526152f9816152bd565b9050919050565b7f4552433732313a207472616e7366657220746f206e6f6e20455243373231526560008201527f63656976657220696d706c656d656e7465720000000000000000000000000000602082015250565b600061535c6032836136b3565b915061536782615300565b604082019050919050565b6000602082019050818103600083015261538b8161534f565b9050919050565b7f45524337323155524953746f726167653a2055524920717565727920666f722060008201527f6e6f6e6578697374656e7420746f6b656e000000000000000000000000000000602082015250565b60006153ee6031836136b3565b91506153f982615392565b604082019050919050565b6000602082019050818103600083015261541d816153e1565b9050919050565b600081905092915050565b600061543a826136a8565b6154448185615424565b93506154548185602086016136c4565b80840191505092915050565b600061546c828561542f565b9150615478828461542f565b91508190509392505050565b7f455243313136373a20637265617465206661696c656400000000000000000000600082015250565b60006154ba6016836136b3565b91506154c582615484565b602082019050919050565b600060208201905081810360008301526154e9816154ad565b9050919050565b600060808201905061550560008301876137ef565b61551260208301866137ef565b61551f6040830185613885565b8181036060830152615531818461476e565b905095945050505050565b60008151905061554b81613619565b92915050565b600060208284031215615567576155666135e3565b5b60006155758482850161553c565b91505092915050565b7f4552433732314d657461646174613a2055524920717565727920666f72206e6f60008201527f6e6578697374656e7420746f6b656e0000000000000000000000000000000000602082015250565b60006155da602f836136b3565b91506155e58261557e565b604082019050919050565b60006020820190508181036000830152615609816155cd565b9050919050565b7f4552433732313a206d696e7420746f20746865207a65726f2061646472657373600082015250565b60006156466020836136b3565b915061565182615610565b602082019050919050565b6000602082019050818103600083015261567581615639565b9050919050565b7f4552433732313a20746f6b656e20616c7265616479206d696e74656400000000600082015250565b60006156b2601c836136b3565b91506156bd8261567c565b602082019050919050565b600060208201905081810360008301526156e1816156a5565b9050919050565b60006156f38261375a565b91507fffffffffffffffffffffffffffffffffffffffffffffffffffffffffffffffff8203615725576157246151d4565b5b600182019050919050565b600061573b8261375a565b91506157468361375a565b9250826157565761575561447d565b5b828204905092915050565b7f4e487b7100000000000000000000000000000000000000000000000000000000600052603160045260246000fdfea2646970667358221220c7833633ddbdbc06ff01f07dd4e967f0d3f0cf51796c81061f9d7c1dc6a1531864736f6c63430008110033a2646970667358221220be1c969ef51302d13ea90d533e9e089e0c82368e184786c81435928d4382d3b164736f6c63430008110033",
  "immutableReferences": {},
  "source": "// SPDX-License-Identifier: MIT\npragma solidity ^0.8.7;\n\nimport { Clones } from \"openzeppelin-solidity/contracts/proxy/Clones.sol\";\n\nimport \"./CosmoNuts.sol\";\nimport \"./ICosmoNuts.sol\";\nimport \"./CosmoTreasury.sol\";\n\ncontract CosmoBang {\n\n    struct Cosmo {\n        address systemAddress;\n        address matterAddress;\n        address treasuryImplementation;\n    }\n    Cosmo cosmo;\n\n    function initialize(\n        address _systemAddress,\n        address _matterAddress,\n        address _treasuryImplementation,\n        address _seedImplementation,\n        address _butterImplementation,\n        uint256 _price,\n        uint256 _rate\n    ) external returns (address) {\n        cosmo.systemAddress = _systemAddress;\n        cosmo.matterAddress = _matterAddress;\n        cosmo.treasuryImplementation = _treasuryImplementation;\n\n        CosmoTreasury treasury = CosmoTreasury(Clones.clone(cosmo.treasuryImplementation));\n        treasury.initialize(\n            cosmo.systemAddress,\n            cosmo.matterAddress,\n            _seedImplementation,\n            _butterImplementation,\n            _price,\n            _rate\n        );\n\n        return address(treasury);\n    }\n\n    function createCosmo(\n        string memory _name,\n        string memory _symbol,\n        uint256 _supply,\n        address _treasuryLocation,\n        address _vaultImplementation\n    ) external returns (address) {\n        CosmoNuts nuts = new CosmoNuts(\n            _name,\n            _symbol,\n            _supply,\n            cosmo.systemAddress,\n            _treasuryLocation,\n            _vaultImplementation\n        );\n        ICosmoNuts(address(nuts)).createVault();\n\n        return address(nuts);\n    }\n\n}\n",
  "sourcePath": "/home/redlentils/Seafile/Websites/avatarnft/contracts/CosmoBang.sol",
  "compiler": {
    "name": "solc",
    "version": "0.8.17+commit.8df45f5f.Emscripten.clang"
  },
  "schemaVersion": "3.4.10",
  "updatedAt": "2022-10-27T06:37:23.490Z",
  "devdoc": {
    "kind": "dev",
    "methods": {},
    "version": 1
  },
  "userdoc": {
    "kind": "user",
    "methods": {},
    "version": 1
  }
}