{
  "contractName": "CosmoSeed",
  "abi": [
    {
      "inputs": [],
      "name": "seed",
      "outputs": [
        {
          "internalType": "uint256",
          "name": "id",
          "type": "uint256"
        },
        {
          "internalType": "uint256",
          "name": "nutId",
          "type": "uint256"
        },
        {
          "internalType": "uint256",
          "name": "heldEther",
          "type": "uint256"
        },
        {
          "internalType": "uint256",
          "name": "matterNeeded",
          "type": "uint256"
        },
        {
          "internalType": "address",
          "name": "location",
          "type": "address"
        },
        {
          "internalType": "address",
          "name": "treasuryLocation",
          "type": "address"
        },
        {
          "internalType": "address",
          "name": "cosmosLocation",
          "type": "address"
        },
        {
          "internalType": "bytes32",
          "name": "secretHash",
          "type": "bytes32"
        }
      ],
      "stateMutability": "view",
      "type": "function"
    },
    {
      "inputs": [
        {
          "internalType": "uint256",
          "name": "_seedId",
          "type": "uint256"
        },
        {
          "internalType": "uint256",
          "name": "_nutId",
          "type": "uint256"
        },
        {
          "internalType": "address",
          "name": "_treasuryLocation",
          "type": "address"
        },
        {
          "internalType": "address",
          "name": "_cosmosLocation",
          "type": "address"
        },
        {
          "internalType": "bytes32",
          "name": "_secretHash",
          "type": "bytes32"
        }
      ],
      "name": "initialize",
      "outputs": [],
      "stateMutability": "payable",
      "type": "function"
    },
    {
      "inputs": [],
      "name": "matterNeeded",
      "outputs": [
        {
          "internalType": "uint256",
          "name": "",
          "type": "uint256"
        }
      ],
      "stateMutability": "view",
      "type": "function"
    },
    {
      "inputs": [],
      "name": "nutId",
      "outputs": [
        {
          "internalType": "uint256",
          "name": "",
          "type": "uint256"
        }
      ],
      "stateMutability": "view",
      "type": "function"
    },
    {
      "inputs": [
        {
          "internalType": "string",
          "name": "_secret",
          "type": "string"
        },
        {
          "internalType": "string",
          "name": "_cidPath",
          "type": "string"
        },
        {
          "internalType": "bytes",
          "name": "_signature",
          "type": "bytes"
        }
      ],
      "name": "spawnNut",
      "outputs": [],
      "stateMutability": "nonpayable",
      "type": "function"
    }
  ],
  "bytecode": "0x608060405234801561001057600080fd5b50611138806100206000396000f3fe60806040526004361061004a5760003560e01c806348257aa41461004f578063685771f41461006b5780637d94792a14610096578063956c2dc3146100c8578063c5d12c97146100f1575b600080fd5b610069600480360381019061006491906108d6565b61011c565b005b34801561007757600080fd5b50610080610299565b60405161008d9190610960565b60405180910390f35b3480156100a257600080fd5b506100ab6102a5565b6040516100bf989796959493929190610999565b60405180910390f35b3480156100d457600080fd5b506100ef60048036038101906100ea9190610bfe565b61033b565b005b3480156100fd57600080fd5b5061010661076f565b6040516101139190610960565b60405180910390f35b84600080018190555083600060010181905550346000600201819055508273ffffffffffffffffffffffffffffffffffffffff16638ed3df0f856040518263ffffffff1660e01b81526004016101729190610960565b602060405180830381865afa15801561018f573d6000803e3d6000fd5b505050506040513d601f19601f820116820180604052508101906101b39190610cba565b60006003018190555030600060040160006101000a81548173ffffffffffffffffffffffffffffffffffffffff021916908373ffffffffffffffffffffffffffffffffffffffff16021790555082600060050160006101000a81548173ffffffffffffffffffffffffffffffffffffffff021916908373ffffffffffffffffffffffffffffffffffffffff16021790555081600060060160006101000a81548173ffffffffffffffffffffffffffffffffffffffff021916908373ffffffffffffffffffffffffffffffffffffffff160217905550806000600701819055505050505050565b60008060010154905090565b60008060000154908060010154908060020154908060030154908060040160009054906101000a900473ffffffffffffffffffffffffffffffffffffffff16908060050160009054906101000a900473ffffffffffffffffffffffffffffffffffffffff16908060060160009054906101000a900473ffffffffffffffffffffffffffffffffffffffff16908060070154905088565b6103448361077b565b50600060050160009054906101000a900473ffffffffffffffffffffffffffffffffffffffff1673ffffffffffffffffffffffffffffffffffffffff1663a06fc90b60008001546000600301546040518363ffffffff1660e01b81526004016103ae929190610ce7565b6020604051808303816000875af11580156103cd573d6000803e3d6000fd5b505050506040513d601f19601f820116820180604052508101906103f19190610d48565b50600060060160009054906101000a900473ffffffffffffffffffffffffffffffffffffffff1673ffffffffffffffffffffffffffffffffffffffff1663a0e12efe83836040518363ffffffff1660e01b8152600401610452929190610e49565b6020604051808303816000875af1158015610471573d6000803e3d6000fd5b505050506040513d601f19601f820116820180604052508101906104959190610d48565b5060008060050160009054906101000a900473ffffffffffffffffffffffffffffffffffffffff1673ffffffffffffffffffffffffffffffffffffffff166398d5fdca6040518163ffffffff1660e01b8152600401602060405180830381865afa158015610507573d6000803e3d6000fd5b505050506040513d601f19601f8201168201806040525081019061052b9190610cba565b905060008060050160009054906101000a900473ffffffffffffffffffffffffffffffffffffffff1673ffffffffffffffffffffffffffffffffffffffff168260405161057790610eb1565b60006040518083038185875af1925050503d80600081146105b4576040519150601f19603f3d011682016040523d82523d6000602084013e6105b9565b606091505b50509050806105fd576040517f08c379a00000000000000000000000000000000000000000000000000000000081526004016105f490610f12565b60405180910390fd5b6000826000600201546106109190610f61565b905060008060060160009054906101000a900473ffffffffffffffffffffffffffffffffffffffff1673ffffffffffffffffffffffffffffffffffffffff1663836387106000600101546040518263ffffffff1660e01b81526004016106769190610960565b602060405180830381865afa158015610693573d6000803e3d6000fd5b505050506040513d601f19601f820116820180604052508101906106b79190610faa565b905060008173ffffffffffffffffffffffffffffffffffffffff16836040516106df90610eb1565b60006040518083038185875af1925050503d806000811461071c576040519150601f19603f3d011682016040523d82523d6000602084013e610721565b606091505b5050905080610765576040517f08c379a000000000000000000000000000000000000000000000000000000000815260040161075c90611023565b60405180910390fd5b5050505050505050565b60008060030154905090565b6000808260405160200161078f919061107f565b60405160208183030381529060405280519060200120905060006007015481146107ee576040517f08c379a00000000000000000000000000000000000000000000000000000000081526004016107e5906110e2565b60405180910390fd5b6001915050919050565b6000604051905090565b600080fd5b600080fd5b6000819050919050565b61081f8161080c565b811461082a57600080fd5b50565b60008135905061083c81610816565b92915050565b600073ffffffffffffffffffffffffffffffffffffffff82169050919050565b600061086d82610842565b9050919050565b61087d81610862565b811461088857600080fd5b50565b60008135905061089a81610874565b92915050565b6000819050919050565b6108b3816108a0565b81146108be57600080fd5b50565b6000813590506108d0816108aa565b92915050565b600080600080600060a086880312156108f2576108f1610802565b5b60006109008882890161082d565b95505060206109118882890161082d565b94505060406109228882890161088b565b93505060606109338882890161088b565b9250506080610944888289016108c1565b9150509295509295909350565b61095a8161080c565b82525050565b60006020820190506109756000830184610951565b92915050565b61098481610862565b82525050565b610993816108a0565b82525050565b6000610100820190506109af600083018b610951565b6109bc602083018a610951565b6109c96040830189610951565b6109d66060830188610951565b6109e3608083018761097b565b6109f060a083018661097b565b6109fd60c083018561097b565b610a0a60e083018461098a565b9998505050505050505050565b600080fd5b600080fd5b6000601f19601f8301169050919050565b7f4e487b7100000000000000000000000000000000000000000000000000000000600052604160045260246000fd5b610a6a82610a21565b810181811067ffffffffffffffff82111715610a8957610a88610a32565b5b80604052505050565b6000610a9c6107f8565b9050610aa88282610a61565b919050565b600067ffffffffffffffff821115610ac857610ac7610a32565b5b610ad182610a21565b9050602081019050919050565b82818337600083830152505050565b6000610b00610afb84610aad565b610a92565b905082815260208101848484011115610b1c57610b1b610a1c565b5b610b27848285610ade565b509392505050565b600082601f830112610b4457610b43610a17565b5b8135610b54848260208601610aed565b91505092915050565b600067ffffffffffffffff821115610b7857610b77610a32565b5b610b8182610a21565b9050602081019050919050565b6000610ba1610b9c84610b5d565b610a92565b905082815260208101848484011115610bbd57610bbc610a1c565b5b610bc8848285610ade565b509392505050565b600082601f830112610be557610be4610a17565b5b8135610bf5848260208601610b8e565b91505092915050565b600080600060608486031215610c1757610c16610802565b5b600084013567ffffffffffffffff811115610c3557610c34610807565b5b610c4186828701610b2f565b935050602084013567ffffffffffffffff811115610c6257610c61610807565b5b610c6e86828701610b2f565b925050604084013567ffffffffffffffff811115610c8f57610c8e610807565b5b610c9b86828701610bd0565b9150509250925092565b600081519050610cb481610816565b92915050565b600060208284031215610cd057610ccf610802565b5b6000610cde84828501610ca5565b91505092915050565b6000604082019050610cfc6000830185610951565b610d096020830184610951565b9392505050565b60008115159050919050565b610d2581610d10565b8114610d3057600080fd5b50565b600081519050610d4281610d1c565b92915050565b600060208284031215610d5e57610d5d610802565b5b6000610d6c84828501610d33565b91505092915050565b600081519050919050565b600082825260208201905092915050565b60005b83811015610daf578082015181840152602081019050610d94565b60008484015250505050565b6000610dc682610d75565b610dd08185610d80565b9350610de0818560208601610d91565b610de981610a21565b840191505092915050565b600081519050919050565b600082825260208201905092915050565b6000610e1b82610df4565b610e258185610dff565b9350610e35818560208601610d91565b610e3e81610a21565b840191505092915050565b60006040820190508181036000830152610e638185610dbb565b90508181036020830152610e778184610e10565b90509392505050565b600081905092915050565b50565b6000610e9b600083610e80565b9150610ea682610e8b565b600082019050919050565b6000610ebc82610e8e565b9150819050919050565b7f4574686572206e6f742073656e7420746f205472656173757279000000000000600082015250565b6000610efc601a83610d80565b9150610f0782610ec6565b602082019050919050565b60006020820190508181036000830152610f2b81610eef565b9050919050565b7f4e487b7100000000000000000000000000000000000000000000000000000000600052601160045260246000fd5b6000610f6c8261080c565b9150610f778361080c565b9250828203905081811115610f8f57610f8e610f32565b5b92915050565b600081519050610fa481610874565b92915050565b600060208284031215610fc057610fbf610802565b5b6000610fce84828501610f95565b91505092915050565b7f4574686572206e6f742073656e7420746f20706172656e74206e757400000000600082015250565b600061100d601c83610d80565b915061101882610fd7565b602082019050919050565b6000602082019050818103600083015261103c81611000565b9050919050565b600081905092915050565b600061105982610d75565b6110638185611043565b9350611073818560208601610d91565b80840191505092915050565b600061108b828461104e565b915081905092915050565b7f496e70757420646f6573206e6f74206d61746368207365637265740000000000600082015250565b60006110cc601b83610d80565b91506110d782611096565b602082019050919050565b600060208201905081810360008301526110fb816110bf565b905091905056fea26469706673582212209e931934c5ca4d7658bd04b8b569ad33c480ab513c2c7f4eaa1e4c74792ba61564736f6c63430008110033",
  "immutableReferences": {},
  "source": "// SPDX-License-Identifier: MIT\npragma solidity ^0.8.7;\n\nimport \"./ICosmoTreasury.sol\";\nimport \"./ICosmoNuts.sol\";\n\n/**\n * Contract created from a CosmoNut.  This contract holds a set amount of ether.\n * Ether is unlocked when the predetermined amount of matter is transferred to nut owner.\n */\n contract CosmoSeed {\n\n     struct Seed {\n         uint256 id;\n         uint256 nutId;\n         uint256 heldEther;\n         uint256 matterNeeded;\n         address location;\n         address treasuryLocation;\n         address cosmosLocation;\n         bytes32 secretHash;\n     }\n     Seed public seed;\n\n     function initialize(\n         uint256 _seedId,\n         uint256 _nutId,\n         address _treasuryLocation,\n         address _cosmosLocation,\n         bytes32 _secretHash\n     ) public payable {\n         seed.id = _seedId;\n         seed.nutId = _nutId;\n         seed.heldEther = msg.value;\n         seed.matterNeeded = ICosmoTreasury(_treasuryLocation).matterNeeded(_nutId);\n         seed.location = address(this);\n         seed.treasuryLocation = _treasuryLocation;\n         seed.cosmosLocation = _cosmosLocation;\n         seed.secretHash = _secretHash;\n     }\n\n     function matterNeeded() public view returns (uint256) {\n         return seed.matterNeeded;\n     }\n\n     function nutId() public view returns (uint256) {\n         return seed.nutId;\n     }\n\n     /**\n      * Takes a string input and hashes it; compares to the SECRET_HASH in the contract\n      * If it matches, returns true\n      */\n     function verifySecret(string memory _input) private view returns(bool) {\n         bytes32 inputHash = keccak256(abi.encodePacked(_input));\n         require(inputHash == seed.secretHash, \"Input does not match secret\");\n         return true;\n     }\n\n     /**\n      * Can be called from anyone who comes across, asks for secret from user\n      * The application fills out the path and signature\n      * If provided secret is correct, a new CosmoNut is minted and assigned to caller\n      */\n     function spawnNut(string memory _secret, string memory _cidPath, bytes memory _signature) public {\n         verifySecret(_secret); // Check whether provided secret is correct\n         ICosmoTreasury(seed.treasuryLocation).seedFromNut(seed.id, seed.matterNeeded);\n         ICosmoNuts(seed.cosmosLocation).createNut(_cidPath, _signature);\n\n         /**\n          * Sending the original set price to Treasury.  This is payment for a new NFT (nut).\n          * Consider implication - tax - and decision to keep?\n          */\n         uint256 nutPrice = ICosmoTreasury(seed.treasuryLocation).getPrice();\n         (bool sentToTreasury,/*memory data*/) = seed.treasuryLocation.call{\n             value: nutPrice\n         }(\"\");\n         require(sentToTreasury, \"Ether not sent to Treasury\");\n\n         /**\n          * Sending remaining amount back to current nut owner who created the seed.\n          */\n         uint256 returnAmount = seed.heldEther - nutPrice;\n         address nutOwner = ICosmoNuts(seed.cosmosLocation).getOwnerOf(seed.nutId);\n         (bool sentToParent,/*memory data*/) = nutOwner.call{\n             value: returnAmount\n         }(\"\");\n         require(sentToParent, \"Ether not sent to parent nut\");\n     }\n\n     /**\n      * Functions below relate to receiving ether.  This contract holds ether.\n      * Do we need? - researching\n      */\n\n }\n",
  "sourcePath": "/home/redlentils/Seafile/Websites/avatarnft/contracts/CosmoSeed.sol",
  "compiler": {
    "name": "solc",
    "version": "0.8.17+commit.8df45f5f.Emscripten.clang"
  },
  "schemaVersion": "3.4.10",
  "updatedAt": "2022-10-20T06:28:07.694Z",
  "devdoc": {
    "kind": "dev",
    "methods": {},
    "version": 1
  },
  "userdoc": {
    "kind": "user",
    "methods": {
      "spawnNut(string,string,bytes)": {
        "notice": "Can be called from anyone who comes across, asks for secret from user The application fills out the path and signature If provided secret is correct, a new CosmoNut is minted and assigned to caller"
      }
    },
    "notice": "Contract created from a CosmoNut.  This contract holds a set amount of ether. Ether is unlocked when the predetermined amount of matter is transferred to nut owner.",
    "version": 1
  }
}