{
  "contractName": "CosmoCreation",
  "abi": [
    {
      "inputs": [
        {
          "internalType": "string",
          "name": "_name",
          "type": "string"
        },
        {
          "internalType": "string",
          "name": "_symbol",
          "type": "string"
        },
        {
          "internalType": "uint256",
          "name": "_supply",
          "type": "uint256"
        },
        {
          "internalType": "address",
          "name": "_systemAddress",
          "type": "address"
        },
        {
          "internalType": "address",
          "name": "_treasuryAddress",
          "type": "address"
        }
      ],
      "stateMutability": "nonpayable",
      "type": "constructor"
    },
    {
      "anonymous": false,
      "inputs": [
        {
          "indexed": true,
          "internalType": "address",
          "name": "owner",
          "type": "address"
        },
        {
          "indexed": true,
          "internalType": "address",
          "name": "approved",
          "type": "address"
        },
        {
          "indexed": true,
          "internalType": "uint256",
          "name": "tokenId",
          "type": "uint256"
        }
      ],
      "name": "Approval",
      "type": "event"
    },
    {
      "anonymous": false,
      "inputs": [
        {
          "indexed": true,
          "internalType": "address",
          "name": "owner",
          "type": "address"
        },
        {
          "indexed": true,
          "internalType": "address",
          "name": "operator",
          "type": "address"
        },
        {
          "indexed": false,
          "internalType": "bool",
          "name": "approved",
          "type": "bool"
        }
      ],
      "name": "ApprovalForAll",
      "type": "event"
    },
    {
      "anonymous": false,
      "inputs": [
        {
          "indexed": true,
          "internalType": "address",
          "name": "previousOwner",
          "type": "address"
        },
        {
          "indexed": true,
          "internalType": "address",
          "name": "newOwner",
          "type": "address"
        }
      ],
      "name": "OwnershipTransferred",
      "type": "event"
    },
    {
      "anonymous": false,
      "inputs": [
        {
          "indexed": true,
          "internalType": "address",
          "name": "from",
          "type": "address"
        },
        {
          "indexed": true,
          "internalType": "address",
          "name": "to",
          "type": "address"
        },
        {
          "indexed": true,
          "internalType": "uint256",
          "name": "tokenId",
          "type": "uint256"
        }
      ],
      "name": "Transfer",
      "type": "event"
    },
    {
      "inputs": [],
      "name": "NUTS_INITIAL",
      "outputs": [
        {
          "internalType": "uint256",
          "name": "",
          "type": "uint256"
        }
      ],
      "stateMutability": "view",
      "type": "function"
    },
    {
      "inputs": [],
      "name": "SYSTEM_ADDRESS",
      "outputs": [
        {
          "internalType": "address",
          "name": "",
          "type": "address"
        }
      ],
      "stateMutability": "view",
      "type": "function"
    },
    {
      "inputs": [],
      "name": "TREASURY_ADDRESS",
      "outputs": [
        {
          "internalType": "address",
          "name": "",
          "type": "address"
        }
      ],
      "stateMutability": "view",
      "type": "function"
    },
    {
      "inputs": [],
      "name": "VAULT_ADDRESS",
      "outputs": [
        {
          "internalType": "address",
          "name": "",
          "type": "address"
        }
      ],
      "stateMutability": "view",
      "type": "function"
    },
    {
      "inputs": [
        {
          "internalType": "address",
          "name": "to",
          "type": "address"
        },
        {
          "internalType": "uint256",
          "name": "tokenId",
          "type": "uint256"
        }
      ],
      "name": "approve",
      "outputs": [],
      "stateMutability": "nonpayable",
      "type": "function"
    },
    {
      "inputs": [
        {
          "internalType": "address",
          "name": "owner",
          "type": "address"
        }
      ],
      "name": "balanceOf",
      "outputs": [
        {
          "internalType": "uint256",
          "name": "",
          "type": "uint256"
        }
      ],
      "stateMutability": "view",
      "type": "function"
    },
    {
      "inputs": [
        {
          "internalType": "uint256",
          "name": "tokenId",
          "type": "uint256"
        }
      ],
      "name": "getApproved",
      "outputs": [
        {
          "internalType": "address",
          "name": "",
          "type": "address"
        }
      ],
      "stateMutability": "view",
      "type": "function"
    },
    {
      "inputs": [
        {
          "internalType": "address",
          "name": "owner",
          "type": "address"
        },
        {
          "internalType": "address",
          "name": "operator",
          "type": "address"
        }
      ],
      "name": "isApprovedForAll",
      "outputs": [
        {
          "internalType": "bool",
          "name": "",
          "type": "bool"
        }
      ],
      "stateMutability": "view",
      "type": "function"
    },
    {
      "inputs": [],
      "name": "name",
      "outputs": [
        {
          "internalType": "string",
          "name": "",
          "type": "string"
        }
      ],
      "stateMutability": "view",
      "type": "function"
    },
    {
      "inputs": [],
      "name": "owner",
      "outputs": [
        {
          "internalType": "address",
          "name": "",
          "type": "address"
        }
      ],
      "stateMutability": "view",
      "type": "function"
    },
    {
      "inputs": [
        {
          "internalType": "uint256",
          "name": "tokenId",
          "type": "uint256"
        }
      ],
      "name": "ownerOf",
      "outputs": [
        {
          "internalType": "address",
          "name": "",
          "type": "address"
        }
      ],
      "stateMutability": "view",
      "type": "function"
    },
    {
      "inputs": [],
      "name": "renounceOwnership",
      "outputs": [],
      "stateMutability": "nonpayable",
      "type": "function"
    },
    {
      "inputs": [
        {
          "internalType": "address",
          "name": "from",
          "type": "address"
        },
        {
          "internalType": "address",
          "name": "to",
          "type": "address"
        },
        {
          "internalType": "uint256",
          "name": "tokenId",
          "type": "uint256"
        }
      ],
      "name": "safeTransferFrom",
      "outputs": [],
      "stateMutability": "nonpayable",
      "type": "function"
    },
    {
      "inputs": [
        {
          "internalType": "address",
          "name": "from",
          "type": "address"
        },
        {
          "internalType": "address",
          "name": "to",
          "type": "address"
        },
        {
          "internalType": "uint256",
          "name": "tokenId",
          "type": "uint256"
        },
        {
          "internalType": "bytes",
          "name": "_data",
          "type": "bytes"
        }
      ],
      "name": "safeTransferFrom",
      "outputs": [],
      "stateMutability": "nonpayable",
      "type": "function"
    },
    {
      "inputs": [
        {
          "internalType": "address",
          "name": "operator",
          "type": "address"
        },
        {
          "internalType": "bool",
          "name": "approved",
          "type": "bool"
        }
      ],
      "name": "setApprovalForAll",
      "outputs": [],
      "stateMutability": "nonpayable",
      "type": "function"
    },
    {
      "inputs": [],
      "name": "symbol",
      "outputs": [
        {
          "internalType": "string",
          "name": "",
          "type": "string"
        }
      ],
      "stateMutability": "view",
      "type": "function"
    },
    {
      "inputs": [
        {
          "internalType": "uint256",
          "name": "index",
          "type": "uint256"
        }
      ],
      "name": "tokenByIndex",
      "outputs": [
        {
          "internalType": "uint256",
          "name": "",
          "type": "uint256"
        }
      ],
      "stateMutability": "view",
      "type": "function"
    },
    {
      "inputs": [
        {
          "internalType": "address",
          "name": "owner",
          "type": "address"
        },
        {
          "internalType": "uint256",
          "name": "index",
          "type": "uint256"
        }
      ],
      "name": "tokenOfOwnerByIndex",
      "outputs": [
        {
          "internalType": "uint256",
          "name": "",
          "type": "uint256"
        }
      ],
      "stateMutability": "view",
      "type": "function"
    },
    {
      "inputs": [],
      "name": "totalSupply",
      "outputs": [
        {
          "internalType": "uint256",
          "name": "",
          "type": "uint256"
        }
      ],
      "stateMutability": "view",
      "type": "function"
    },
    {
      "inputs": [
        {
          "internalType": "address",
          "name": "from",
          "type": "address"
        },
        {
          "internalType": "address",
          "name": "to",
          "type": "address"
        },
        {
          "internalType": "uint256",
          "name": "tokenId",
          "type": "uint256"
        }
      ],
      "name": "transferFrom",
      "outputs": [],
      "stateMutability": "nonpayable",
      "type": "function"
    },
    {
      "inputs": [
        {
          "internalType": "address",
          "name": "newOwner",
          "type": "address"
        }
      ],
      "name": "transferOwnership",
      "outputs": [],
      "stateMutability": "nonpayable",
      "type": "function"
    },
    {
      "inputs": [],
      "name": "vaultImplementation",
      "outputs": [
        {
          "internalType": "address",
          "name": "",
          "type": "address"
        }
      ],
      "stateMutability": "view",
      "type": "function"
    },
    {
      "inputs": [
        {
          "internalType": "uint256",
          "name": "_nutId",
          "type": "uint256"
        },
        {
          "internalType": "string",
          "name": "_nutCID",
          "type": "string"
        }
      ],
      "name": "mintNut",
      "outputs": [],
      "stateMutability": "payable",
      "type": "function"
    },
    {
      "inputs": [
        {
          "internalType": "uint256",
          "name": "tokenId",
          "type": "uint256"
        }
      ],
      "name": "tokenURI",
      "outputs": [
        {
          "internalType": "string",
          "name": "",
          "type": "string"
        }
      ],
      "stateMutability": "view",
      "type": "function"
    },
    {
      "inputs": [
        {
          "internalType": "bytes4",
          "name": "interfaceId",
          "type": "bytes4"
        }
      ],
      "name": "supportsInterface",
      "outputs": [
        {
          "internalType": "bool",
          "name": "",
          "type": "bool"
        }
      ],
      "stateMutability": "view",
      "type": "function"
    }
  ],
  "bytecode": "0x60806040523480156200001157600080fd5b506040516200456a3803806200456a833981810160405281019062000037919062000414565b848481600090816200004a91906200071b565b5080600190816200005c91906200071b565b5050506200007f620000736200011360201b60201c565b6200011b60201b60201c565b82600c8190555081600d60006101000a81548173ffffffffffffffffffffffffffffffffffffffff021916908373ffffffffffffffffffffffffffffffffffffffff16021790555080600e60006101000a81548173ffffffffffffffffffffffffffffffffffffffff021916908373ffffffffffffffffffffffffffffffffffffffff160217905550505050505062000802565b600033905090565b6000600b60009054906101000a900473ffffffffffffffffffffffffffffffffffffffff16905081600b60006101000a81548173ffffffffffffffffffffffffffffffffffffffff021916908373ffffffffffffffffffffffffffffffffffffffff1602179055508173ffffffffffffffffffffffffffffffffffffffff168173ffffffffffffffffffffffffffffffffffffffff167f8be0079c531659141344cd1fd0a4f28419497f9722a3daafe3b4186f6b6457e060405160405180910390a35050565b6000604051905090565b600080fd5b600080fd5b600080fd5b600080fd5b6000601f19601f8301169050919050565b7f4e487b7100000000000000000000000000000000000000000000000000000000600052604160045260246000fd5b6200024a82620001ff565b810181811067ffffffffffffffff821117156200026c576200026b62000210565b5b80604052505050565b600062000281620001e1565b90506200028f82826200023f565b919050565b600067ffffffffffffffff821115620002b257620002b162000210565b5b620002bd82620001ff565b9050602081019050919050565b60005b83811015620002ea578082015181840152602081019050620002cd565b60008484015250505050565b60006200030d620003078462000294565b62000275565b9050828152602081018484840111156200032c576200032b620001fa565b5b62000339848285620002ca565b509392505050565b600082601f830112620003595762000358620001f5565b5b81516200036b848260208601620002f6565b91505092915050565b6000819050919050565b620003898162000374565b81146200039557600080fd5b50565b600081519050620003a9816200037e565b92915050565b600073ffffffffffffffffffffffffffffffffffffffff82169050919050565b6000620003dc82620003af565b9050919050565b620003ee81620003cf565b8114620003fa57600080fd5b50565b6000815190506200040e81620003e3565b92915050565b600080600080600060a08688031215620004335762000432620001eb565b5b600086015167ffffffffffffffff811115620004545762000453620001f0565b5b620004628882890162000341565b955050602086015167ffffffffffffffff811115620004865762000485620001f0565b5b620004948882890162000341565b9450506040620004a78882890162000398565b9350506060620004ba88828901620003fd565b9250506080620004cd88828901620003fd565b9150509295509295909350565b600081519050919050565b7f4e487b7100000000000000000000000000000000000000000000000000000000600052602260045260246000fd5b600060028204905060018216806200052d57607f821691505b602082108103620005435762000542620004e5565b5b50919050565b60008190508160005260206000209050919050565b60006020601f8301049050919050565b600082821b905092915050565b600060088302620005ad7fffffffffffffffffffffffffffffffffffffffffffffffffffffffffffffffff826200056e565b620005b986836200056e565b95508019841693508086168417925050509392505050565b6000819050919050565b6000620005fc620005f6620005f08462000374565b620005d1565b62000374565b9050919050565b6000819050919050565b6200061883620005db565b62000630620006278262000603565b8484546200057b565b825550505050565b600090565b6200064762000638565b620006548184846200060d565b505050565b5b818110156200067c57620006706000826200063d565b6001810190506200065a565b5050565b601f821115620006cb57620006958162000549565b620006a0846200055e565b81016020851015620006b0578190505b620006c8620006bf856200055e565b83018262000659565b50505b505050565b600082821c905092915050565b6000620006f060001984600802620006d0565b1980831691505092915050565b60006200070b8383620006dd565b9150826002028217905092915050565b6200072682620004da565b67ffffffffffffffff81111562000742576200074162000210565b5b6200074e825462000514565b6200075b82828562000680565b600060209050601f8311600181146200079357600084156200077e578287015190505b6200078a8582620006fd565b865550620007fa565b601f198416620007a38662000549565b60005b82811015620007cd57848901518255600182019150602085019450602081019050620007a6565b86831015620007ed5784890151620007e9601f891682620006dd565b8355505b6001600288020188555050505b505050505050565b613d5880620008126000396000f3fe6080604052600436106101665760003560e01c80636352211e116100d1578063a22cb4651161008a578063c87b56dd11610064578063c87b56dd14610531578063e985e9c51461056e578063f2b97ee2146105ab578063f2fde38b146105d657610166565b8063a22cb465146104b4578063b88d4fde146104dd578063bba48a901461050657610166565b80636352211e146103a257806370a08231146103df578063715018a61461041c5780638da5cb5b146104335780639092c31c1461045e57806395d89b411461048957610166565b806323b872dd1161012357806323b872dd1461028f5780632f745c59146102b85780633434735f146102f557806342842e0e146103205780634f6ccce71461034957806355951ab01461038657610166565b806301ffc9a71461016b57806306fdde03146101a857806307604b1a146101d3578063081812fc146101fe578063095ea7b31461023b57806318160ddd14610264575b600080fd5b34801561017757600080fd5b50610192600480360381019061018d91906125ad565b6105ff565b60405161019f91906125f5565b60405180910390f35b3480156101b457600080fd5b506101bd610611565b6040516101ca91906126a0565b60405180910390f35b3480156101df57600080fd5b506101e86106a3565b6040516101f59190612703565b60405180910390f35b34801561020a57600080fd5b5061022560048036038101906102209190612754565b6106c9565b6040516102329190612703565b60405180910390f35b34801561024757600080fd5b50610262600480360381019061025d91906127ad565b61074e565b005b34801561027057600080fd5b50610279610865565b60405161028691906127fc565b60405180910390f35b34801561029b57600080fd5b506102b660048036038101906102b19190612817565b610872565b005b3480156102c457600080fd5b506102df60048036038101906102da91906127ad565b6108d2565b6040516102ec91906127fc565b60405180910390f35b34801561030157600080fd5b5061030a610977565b6040516103179190612703565b60405180910390f35b34801561032c57600080fd5b5061034760048036038101906103429190612817565b61099d565b005b34801561035557600080fd5b50610370600480360381019061036b9190612754565b6109bd565b60405161037d91906127fc565b60405180910390f35b6103a0600480360381019061039b919061299f565b610a2e565b005b3480156103ae57600080fd5b506103c960048036038101906103c49190612754565b610b39565b6040516103d69190612703565b60405180910390f35b3480156103eb57600080fd5b50610406600480360381019061040191906129fb565b610bea565b60405161041391906127fc565b60405180910390f35b34801561042857600080fd5b50610431610ca1565b005b34801561043f57600080fd5b50610448610d29565b6040516104559190612703565b60405180910390f35b34801561046a57600080fd5b50610473610d53565b6040516104809190612703565b60405180910390f35b34801561049557600080fd5b5061049e610d79565b6040516104ab91906126a0565b60405180910390f35b3480156104c057600080fd5b506104db60048036038101906104d69190612a54565b610e0b565b005b3480156104e957600080fd5b5061050460048036038101906104ff9190612b35565b610e21565b005b34801561051257600080fd5b5061051b610e83565b6040516105289190612703565b60405180910390f35b34801561053d57600080fd5b5061055860048036038101906105539190612754565b610ea9565b60405161056591906126a0565b60405180910390f35b34801561057a57600080fd5b5061059560048036038101906105909190612bb8565b610ebb565b6040516105a291906125f5565b60405180910390f35b3480156105b757600080fd5b506105c0610f4f565b6040516105cd91906127fc565b60405180910390f35b3480156105e257600080fd5b506105fd60048036038101906105f891906129fb565b610f55565b005b600061060a8261104c565b9050919050565b60606000805461062090612c27565b80601f016020809104026020016040519081016040528092919081815260200182805461064c90612c27565b80156106995780601f1061066e57610100808354040283529160200191610699565b820191906000526020600020905b81548152906001019060200180831161067c57829003601f168201915b5050505050905090565b600e60009054906101000a900473ffffffffffffffffffffffffffffffffffffffff1681565b60006106d4826110c6565b610713576040517f08c379a000000000000000000000000000000000000000000000000000000000815260040161070a90612cca565b60405180910390fd5b6004600083815260200190815260200160002060009054906101000a900473ffffffffffffffffffffffffffffffffffffffff169050919050565b600061075982610b39565b90508073ffffffffffffffffffffffffffffffffffffffff168373ffffffffffffffffffffffffffffffffffffffff16036107c9576040517f08c379a00000000000000000000000000000000000000000000000000000000081526004016107c090612d5c565b60405180910390fd5b8073ffffffffffffffffffffffffffffffffffffffff166107e8611132565b73ffffffffffffffffffffffffffffffffffffffff161480610817575061081681610811611132565b610ebb565b5b610856576040517f08c379a000000000000000000000000000000000000000000000000000000000815260040161084d90612dee565b60405180910390fd5b610860838361113a565b505050565b6000600880549050905090565b61088361087d611132565b826111f3565b6108c2576040517f08c379a00000000000000000000000000000000000000000000000000000000081526004016108b990612e80565b60405180910390fd5b6108cd8383836112d1565b505050565b60006108dd83610bea565b821061091e576040517f08c379a000000000000000000000000000000000000000000000000000000000815260040161091590612f12565b60405180910390fd5b600660008473ffffffffffffffffffffffffffffffffffffffff1673ffffffffffffffffffffffffffffffffffffffff168152602001908152602001600020600083815260200190815260200160002054905092915050565b600d60009054906101000a900473ffffffffffffffffffffffffffffffffffffffff1681565b6109b883838360405180602001604052806000815250610e21565b505050565b60006109c7610865565b8210610a08576040517f08c379a00000000000000000000000000000000000000000000000000000000081526004016109ff90612fa4565b60405180910390fd5b60088281548110610a1c57610a1b612fc4565b5b90600052602060002001549050919050565b610a61600e60009054906101000a900473ffffffffffffffffffffffffffffffffffffffff16610a5c610865565b611537565b610a72610a6c610865565b82611555565b600e60009054906101000a900473ffffffffffffffffffffffffffffffffffffffff1673ffffffffffffffffffffffffffffffffffffffff16631c85949c600e60009054906101000a900473ffffffffffffffffffffffffffffffffffffffff16846040518363ffffffff1660e01b8152600401610af1929190612ff3565b6020604051808303816000875af1158015610b10573d6000803e3d6000fd5b505050506040513d601f19601f82011682018060405250810190610b349190613031565b505050565b6000806002600084815260200190815260200160002060009054906101000a900473ffffffffffffffffffffffffffffffffffffffff169050600073ffffffffffffffffffffffffffffffffffffffff168173ffffffffffffffffffffffffffffffffffffffff1603610be1576040517f08c379a0000000000000000000000000000000000000000000000000000000008152600401610bd8906130d0565b60405180910390fd5b80915050919050565b60008073ffffffffffffffffffffffffffffffffffffffff168273ffffffffffffffffffffffffffffffffffffffff1603610c5a576040517f08c379a0000000000000000000000000000000000000000000000000000000008152600401610c5190613162565b60405180910390fd5b600360008373ffffffffffffffffffffffffffffffffffffffff1673ffffffffffffffffffffffffffffffffffffffff168152602001908152602001600020549050919050565b610ca9611132565b73ffffffffffffffffffffffffffffffffffffffff16610cc7610d29565b73ffffffffffffffffffffffffffffffffffffffff1614610d1d576040517f08c379a0000000000000000000000000000000000000000000000000000000008152600401610d14906131ce565b60405180910390fd5b610d2760006115c2565b565b6000600b60009054906101000a900473ffffffffffffffffffffffffffffffffffffffff16905090565b600f60009054906101000a900473ffffffffffffffffffffffffffffffffffffffff1681565b606060018054610d8890612c27565b80601f0160208091040260200160405190810160405280929190818152602001828054610db490612c27565b8015610e015780601f10610dd657610100808354040283529160200191610e01565b820191906000526020600020905b815481529060010190602001808311610de457829003601f168201915b5050505050905090565b610e1d610e16611132565b8383611688565b5050565b610e32610e2c611132565b836111f3565b610e71576040517f08c379a0000000000000000000000000000000000000000000000000000000008152600401610e6890612e80565b60405180910390fd5b610e7d848484846117f4565b50505050565b601060009054906101000a900473ffffffffffffffffffffffffffffffffffffffff1681565b6060610eb482611850565b9050919050565b6000600560008473ffffffffffffffffffffffffffffffffffffffff1673ffffffffffffffffffffffffffffffffffffffff16815260200190815260200160002060008373ffffffffffffffffffffffffffffffffffffffff1673ffffffffffffffffffffffffffffffffffffffff16815260200190815260200160002060009054906101000a900460ff16905092915050565b600c5481565b610f5d611132565b73ffffffffffffffffffffffffffffffffffffffff16610f7b610d29565b73ffffffffffffffffffffffffffffffffffffffff1614610fd1576040517f08c379a0000000000000000000000000000000000000000000000000000000008152600401610fc8906131ce565b60405180910390fd5b600073ffffffffffffffffffffffffffffffffffffffff168173ffffffffffffffffffffffffffffffffffffffff1603611040576040517f08c379a000000000000000000000000000000000000000000000000000000000815260040161103790613260565b60405180910390fd5b611049816115c2565b50565b60007f780e9d63000000000000000000000000000000000000000000000000000000007bffffffffffffffffffffffffffffffffffffffffffffffffffffffff1916827bffffffffffffffffffffffffffffffffffffffffffffffffffffffff191614806110bf57506110be826119a1565b5b9050919050565b60008073ffffffffffffffffffffffffffffffffffffffff166002600084815260200190815260200160002060009054906101000a900473ffffffffffffffffffffffffffffffffffffffff1673ffffffffffffffffffffffffffffffffffffffff1614159050919050565b600033905090565b816004600083815260200190815260200160002060006101000a81548173ffffffffffffffffffffffffffffffffffffffff021916908373ffffffffffffffffffffffffffffffffffffffff160217905550808273ffffffffffffffffffffffffffffffffffffffff166111ad83610b39565b73ffffffffffffffffffffffffffffffffffffffff167f8c5be1e5ebec7d5bd14f71427d1e84f3dd0314c0f7b2291e5b200ac8c7c3b92560405160405180910390a45050565b60006111fe826110c6565b61123d576040517f08c379a0000000000000000000000000000000000000000000000000000000008152600401611234906132f2565b60405180910390fd5b600061124883610b39565b90508073ffffffffffffffffffffffffffffffffffffffff168473ffffffffffffffffffffffffffffffffffffffff16148061128a57506112898185610ebb565b5b806112c857508373ffffffffffffffffffffffffffffffffffffffff166112b0846106c9565b73ffffffffffffffffffffffffffffffffffffffff16145b91505092915050565b8273ffffffffffffffffffffffffffffffffffffffff166112f182610b39565b73ffffffffffffffffffffffffffffffffffffffff1614611347576040517f08c379a000000000000000000000000000000000000000000000000000000000815260040161133e90613384565b60405180910390fd5b600073ffffffffffffffffffffffffffffffffffffffff168273ffffffffffffffffffffffffffffffffffffffff16036113b6576040517f08c379a00000000000000000000000000000000000000000000000000000000081526004016113ad90613416565b60405180910390fd5b6113c1838383611a83565b6113cc60008261113a565b6001600360008573ffffffffffffffffffffffffffffffffffffffff1673ffffffffffffffffffffffffffffffffffffffff168152602001908152602001600020600082825461141c9190613465565b925050819055506001600360008473ffffffffffffffffffffffffffffffffffffffff1673ffffffffffffffffffffffffffffffffffffffff16815260200190815260200160002060008282546114739190613499565b92505081905550816002600083815260200190815260200160002060006101000a81548173ffffffffffffffffffffffffffffffffffffffff021916908373ffffffffffffffffffffffffffffffffffffffff160217905550808273ffffffffffffffffffffffffffffffffffffffff168473ffffffffffffffffffffffffffffffffffffffff167fddf252ad1be2c89b69c2b068fc378daa952ba7f163c4a11628f55a4df523b3ef60405160405180910390a4611532838383611a93565b505050565b611551828260405180602001604052806000815250611a98565b5050565b61155e826110c6565b61159d576040517f08c379a00000000000000000000000000000000000000000000000000000000081526004016115949061353f565b60405180910390fd5b80600a600084815260200190815260200160002090816115bd919061370b565b505050565b6000600b60009054906101000a900473ffffffffffffffffffffffffffffffffffffffff16905081600b60006101000a81548173ffffffffffffffffffffffffffffffffffffffff021916908373ffffffffffffffffffffffffffffffffffffffff1602179055508173ffffffffffffffffffffffffffffffffffffffff168173ffffffffffffffffffffffffffffffffffffffff167f8be0079c531659141344cd1fd0a4f28419497f9722a3daafe3b4186f6b6457e060405160405180910390a35050565b8173ffffffffffffffffffffffffffffffffffffffff168373ffffffffffffffffffffffffffffffffffffffff16036116f6576040517f08c379a00000000000000000000000000000000000000000000000000000000081526004016116ed90613829565b60405180910390fd5b80600560008573ffffffffffffffffffffffffffffffffffffffff1673ffffffffffffffffffffffffffffffffffffffff16815260200190815260200160002060008473ffffffffffffffffffffffffffffffffffffffff1673ffffffffffffffffffffffffffffffffffffffff16815260200190815260200160002060006101000a81548160ff0219169083151502179055508173ffffffffffffffffffffffffffffffffffffffff168373ffffffffffffffffffffffffffffffffffffffff167f17307eab39ab6107e8899845ad3d59bd9653f200f220920489ca2b5937696c31836040516117e791906125f5565b60405180910390a3505050565b6117ff8484846112d1565b61180b84848484611af3565b61184a576040517f08c379a0000000000000000000000000000000000000000000000000000000008152600401611841906138bb565b60405180910390fd5b50505050565b606061185b826110c6565b61189a576040517f08c379a00000000000000000000000000000000000000000000000000000000081526004016118919061394d565b60405180910390fd5b6000600a600084815260200190815260200160002080546118ba90612c27565b80601f01602080910402602001604051908101604052809291908181526020018280546118e690612c27565b80156119335780601f1061190857610100808354040283529160200191611933565b820191906000526020600020905b81548152906001019060200180831161191657829003601f168201915b505050505090506000611944611c7a565b9050600081510361195957819250505061199c565b60008251111561198e5780826040516020016119769291906139a9565b6040516020818303038152906040529250505061199c565b61199784611cb7565b925050505b919050565b60007f80ac58cd000000000000000000000000000000000000000000000000000000007bffffffffffffffffffffffffffffffffffffffffffffffffffffffff1916827bffffffffffffffffffffffffffffffffffffffffffffffffffffffff19161480611a6c57507f5b5e139f000000000000000000000000000000000000000000000000000000007bffffffffffffffffffffffffffffffffffffffffffffffffffffffff1916827bffffffffffffffffffffffffffffffffffffffffffffffffffffffff1916145b80611a7c5750611a7b82611d5e565b5b9050919050565b611a8e838383611dc8565b505050565b505050565b611aa28383611eda565b611aaf6000848484611af3565b611aee576040517f08c379a0000000000000000000000000000000000000000000000000000000008152600401611ae5906138bb565b60405180910390fd5b505050565b6000611b148473ffffffffffffffffffffffffffffffffffffffff166120b3565b15611c6d578373ffffffffffffffffffffffffffffffffffffffff1663150b7a02611b3d611132565b8786866040518563ffffffff1660e01b8152600401611b5f9493929190613a22565b6020604051808303816000875af1925050508015611b9b57506040513d601f19601f82011682018060405250810190611b989190613a83565b60015b611c1d573d8060008114611bcb576040519150601f19603f3d011682016040523d82523d6000602084013e611bd0565b606091505b506000815103611c15576040517f08c379a0000000000000000000000000000000000000000000000000000000008152600401611c0c906138bb565b60405180910390fd5b805181602001fd5b63150b7a0260e01b7bffffffffffffffffffffffffffffffffffffffffffffffffffffffff1916817bffffffffffffffffffffffffffffffffffffffffffffffffffffffff191614915050611c72565b600190505b949350505050565b60606040518060400160405280601581526020017f68747470733a2f2f697066732e696f2f697066732f0000000000000000000000815250905090565b6060611cc2826110c6565b611d01576040517f08c379a0000000000000000000000000000000000000000000000000000000008152600401611cf890613b22565b60405180910390fd5b6000611d0b611c7a565b90506000815111611d2b5760405180602001604052806000815250611d56565b80611d35846120d6565b604051602001611d469291906139a9565b6040516020818303038152906040525b915050919050565b60007f01ffc9a7000000000000000000000000000000000000000000000000000000007bffffffffffffffffffffffffffffffffffffffffffffffffffffffff1916827bffffffffffffffffffffffffffffffffffffffffffffffffffffffff1916149050919050565b611dd3838383612236565b600073ffffffffffffffffffffffffffffffffffffffff168373ffffffffffffffffffffffffffffffffffffffff1603611e1557611e108161223b565b611e54565b8173ffffffffffffffffffffffffffffffffffffffff168373ffffffffffffffffffffffffffffffffffffffff1614611e5357611e528382612284565b5b5b600073ffffffffffffffffffffffffffffffffffffffff168273ffffffffffffffffffffffffffffffffffffffff1603611e9657611e91816123f1565b611ed5565b8273ffffffffffffffffffffffffffffffffffffffff168273ffffffffffffffffffffffffffffffffffffffff1614611ed457611ed382826124c2565b5b5b505050565b600073ffffffffffffffffffffffffffffffffffffffff168273ffffffffffffffffffffffffffffffffffffffff1603611f49576040517f08c379a0000000000000000000000000000000000000000000000000000000008152600401611f4090613b8e565b60405180910390fd5b611f52816110c6565b15611f92576040517f08c379a0000000000000000000000000000000000000000000000000000000008152600401611f8990613bfa565b60405180910390fd5b611f9e60008383611a83565b6001600360008473ffffffffffffffffffffffffffffffffffffffff1673ffffffffffffffffffffffffffffffffffffffff1681526020019081526020016000206000828254611fee9190613499565b92505081905550816002600083815260200190815260200160002060006101000a81548173ffffffffffffffffffffffffffffffffffffffff021916908373ffffffffffffffffffffffffffffffffffffffff160217905550808273ffffffffffffffffffffffffffffffffffffffff16600073ffffffffffffffffffffffffffffffffffffffff167fddf252ad1be2c89b69c2b068fc378daa952ba7f163c4a11628f55a4df523b3ef60405160405180910390a46120af60008383611a93565b5050565b6000808273ffffffffffffffffffffffffffffffffffffffff163b119050919050565b60606000820361211d576040518060400160405280600181526020017f30000000000000000000000000000000000000000000000000000000000000008152509050612231565b600082905060005b6000821461214f57808061213890613c1a565b915050600a826121489190613c91565b9150612125565b60008167ffffffffffffffff81111561216b5761216a612874565b5b6040519080825280601f01601f19166020018201604052801561219d5781602001600182028036833780820191505090505b5090505b6000851461222a576001826121b69190613465565b9150600a856121c59190613cc2565b60306121d19190613499565b60f81b8183815181106121e7576121e6612fc4565b5b60200101907effffffffffffffffffffffffffffffffffffffffffffffffffffffffffffff1916908160001a905350600a856122239190613c91565b94506121a1565b8093505050505b919050565b505050565b6008805490506009600083815260200190815260200160002081905550600881908060018154018082558091505060019003906000526020600020016000909190919091505550565b6000600161229184610bea565b61229b9190613465565b9050600060076000848152602001908152602001600020549050818114612380576000600660008673ffffffffffffffffffffffffffffffffffffffff1673ffffffffffffffffffffffffffffffffffffffff168152602001908152602001600020600084815260200190815260200160002054905080600660008773ffffffffffffffffffffffffffffffffffffffff1673ffffffffffffffffffffffffffffffffffffffff168152602001908152602001600020600084815260200190815260200160002081905550816007600083815260200190815260200160002081905550505b6007600084815260200190815260200160002060009055600660008573ffffffffffffffffffffffffffffffffffffffff1673ffffffffffffffffffffffffffffffffffffffff16815260200190815260200160002060008381526020019081526020016000206000905550505050565b600060016008805490506124059190613465565b905060006009600084815260200190815260200160002054905060006008838154811061243557612434612fc4565b5b90600052602060002001549050806008838154811061245757612456612fc4565b5b9060005260206000200181905550816009600083815260200190815260200160002081905550600960008581526020019081526020016000206000905560088054806124a6576124a5613cf3565b5b6001900381819060005260206000200160009055905550505050565b60006124cd83610bea565b905081600660008573ffffffffffffffffffffffffffffffffffffffff1673ffffffffffffffffffffffffffffffffffffffff168152602001908152602001600020600083815260200190815260200160002081905550806007600084815260200190815260200160002081905550505050565b6000604051905090565b600080fd5b600080fd5b60007fffffffff0000000000000000000000000000000000000000000000000000000082169050919050565b61258a81612555565b811461259557600080fd5b50565b6000813590506125a781612581565b92915050565b6000602082840312156125c3576125c261254b565b5b60006125d184828501612598565b91505092915050565b60008115159050919050565b6125ef816125da565b82525050565b600060208201905061260a60008301846125e6565b92915050565b600081519050919050565b600082825260208201905092915050565b60005b8381101561264a57808201518184015260208101905061262f565b60008484015250505050565b6000601f19601f8301169050919050565b600061267282612610565b61267c818561261b565b935061268c81856020860161262c565b61269581612656565b840191505092915050565b600060208201905081810360008301526126ba8184612667565b905092915050565b600073ffffffffffffffffffffffffffffffffffffffff82169050919050565b60006126ed826126c2565b9050919050565b6126fd816126e2565b82525050565b600060208201905061271860008301846126f4565b92915050565b6000819050919050565b6127318161271e565b811461273c57600080fd5b50565b60008135905061274e81612728565b92915050565b60006020828403121561276a5761276961254b565b5b60006127788482850161273f565b91505092915050565b61278a816126e2565b811461279557600080fd5b50565b6000813590506127a781612781565b92915050565b600080604083850312156127c4576127c361254b565b5b60006127d285828601612798565b92505060206127e38582860161273f565b9150509250929050565b6127f68161271e565b82525050565b600060208201905061281160008301846127ed565b92915050565b6000806000606084860312156128305761282f61254b565b5b600061283e86828701612798565b935050602061284f86828701612798565b92505060406128608682870161273f565b9150509250925092565b600080fd5b600080fd5b7f4e487b7100000000000000000000000000000000000000000000000000000000600052604160045260246000fd5b6128ac82612656565b810181811067ffffffffffffffff821117156128cb576128ca612874565b5b80604052505050565b60006128de612541565b90506128ea82826128a3565b919050565b600067ffffffffffffffff82111561290a57612909612874565b5b61291382612656565b9050602081019050919050565b82818337600083830152505050565b600061294261293d846128ef565b6128d4565b90508281526020810184848401111561295e5761295d61286f565b5b612969848285612920565b509392505050565b600082601f8301126129865761298561286a565b5b813561299684826020860161292f565b91505092915050565b600080604083850312156129b6576129b561254b565b5b60006129c48582860161273f565b925050602083013567ffffffffffffffff8111156129e5576129e4612550565b5b6129f185828601612971565b9150509250929050565b600060208284031215612a1157612a1061254b565b5b6000612a1f84828501612798565b91505092915050565b612a31816125da565b8114612a3c57600080fd5b50565b600081359050612a4e81612a28565b92915050565b60008060408385031215612a6b57612a6a61254b565b5b6000612a7985828601612798565b9250506020612a8a85828601612a3f565b9150509250929050565b600067ffffffffffffffff821115612aaf57612aae612874565b5b612ab882612656565b9050602081019050919050565b6000612ad8612ad384612a94565b6128d4565b905082815260208101848484011115612af457612af361286f565b5b612aff848285612920565b509392505050565b600082601f830112612b1c57612b1b61286a565b5b8135612b2c848260208601612ac5565b91505092915050565b60008060008060808587031215612b4f57612b4e61254b565b5b6000612b5d87828801612798565b9450506020612b6e87828801612798565b9350506040612b7f8782880161273f565b925050606085013567ffffffffffffffff811115612ba057612b9f612550565b5b612bac87828801612b07565b91505092959194509250565b60008060408385031215612bcf57612bce61254b565b5b6000612bdd85828601612798565b9250506020612bee85828601612798565b9150509250929050565b7f4e487b7100000000000000000000000000000000000000000000000000000000600052602260045260246000fd5b60006002820490506001821680612c3f57607f821691505b602082108103612c5257612c51612bf8565b5b50919050565b7f4552433732313a20617070726f76656420717565727920666f72206e6f6e657860008201527f697374656e7420746f6b656e0000000000000000000000000000000000000000602082015250565b6000612cb4602c8361261b565b9150612cbf82612c58565b604082019050919050565b60006020820190508181036000830152612ce381612ca7565b9050919050565b7f4552433732313a20617070726f76616c20746f2063757272656e74206f776e6560008201527f7200000000000000000000000000000000000000000000000000000000000000602082015250565b6000612d4660218361261b565b9150612d5182612cea565b604082019050919050565b60006020820190508181036000830152612d7581612d39565b9050919050565b7f4552433732313a20617070726f76652063616c6c6572206973206e6f74206f7760008201527f6e6572206e6f7220617070726f76656420666f7220616c6c0000000000000000602082015250565b6000612dd860388361261b565b9150612de382612d7c565b604082019050919050565b60006020820190508181036000830152612e0781612dcb565b9050919050565b7f4552433732313a207472616e736665722063616c6c6572206973206e6f74206f60008201527f776e6572206e6f7220617070726f766564000000000000000000000000000000602082015250565b6000612e6a60318361261b565b9150612e7582612e0e565b604082019050919050565b60006020820190508181036000830152612e9981612e5d565b9050919050565b7f455243373231456e756d657261626c653a206f776e657220696e646578206f7560008201527f74206f6620626f756e6473000000000000000000000000000000000000000000602082015250565b6000612efc602b8361261b565b9150612f0782612ea0565b604082019050919050565b60006020820190508181036000830152612f2b81612eef565b9050919050565b7f455243373231456e756d657261626c653a20676c6f62616c20696e646578206f60008201527f7574206f6620626f756e64730000000000000000000000000000000000000000602082015250565b6000612f8e602c8361261b565b9150612f9982612f32565b604082019050919050565b60006020820190508181036000830152612fbd81612f81565b9050919050565b7f4e487b7100000000000000000000000000000000000000000000000000000000600052603260045260246000fd5b600060408201905061300860008301856126f4565b61301560208301846127ed565b9392505050565b60008151905061302b81612a28565b92915050565b6000602082840312156130475761304661254b565b5b60006130558482850161301c565b91505092915050565b7f4552433732313a206f776e657220717565727920666f72206e6f6e657869737460008201527f656e7420746f6b656e0000000000000000000000000000000000000000000000602082015250565b60006130ba60298361261b565b91506130c58261305e565b604082019050919050565b600060208201905081810360008301526130e9816130ad565b9050919050565b7f4552433732313a2062616c616e636520717565727920666f7220746865207a6560008201527f726f206164647265737300000000000000000000000000000000000000000000602082015250565b600061314c602a8361261b565b9150613157826130f0565b604082019050919050565b6000602082019050818103600083015261317b8161313f565b9050919050565b7f4f776e61626c653a2063616c6c6572206973206e6f7420746865206f776e6572600082015250565b60006131b860208361261b565b91506131c382613182565b602082019050919050565b600060208201905081810360008301526131e7816131ab565b9050919050565b7f4f776e61626c653a206e6577206f776e657220697320746865207a65726f206160008201527f6464726573730000000000000000000000000000000000000000000000000000602082015250565b600061324a60268361261b565b9150613255826131ee565b604082019050919050565b600060208201905081810360008301526132798161323d565b9050919050565b7f4552433732313a206f70657261746f7220717565727920666f72206e6f6e657860008201527f697374656e7420746f6b656e0000000000000000000000000000000000000000602082015250565b60006132dc602c8361261b565b91506132e782613280565b604082019050919050565b6000602082019050818103600083015261330b816132cf565b9050919050565b7f4552433732313a207472616e736665722066726f6d20696e636f72726563742060008201527f6f776e6572000000000000000000000000000000000000000000000000000000602082015250565b600061336e60258361261b565b915061337982613312565b604082019050919050565b6000602082019050818103600083015261339d81613361565b9050919050565b7f4552433732313a207472616e7366657220746f20746865207a65726f2061646460008201527f7265737300000000000000000000000000000000000000000000000000000000602082015250565b600061340060248361261b565b915061340b826133a4565b604082019050919050565b6000602082019050818103600083015261342f816133f3565b9050919050565b7f4e487b7100000000000000000000000000000000000000000000000000000000600052601160045260246000fd5b60006134708261271e565b915061347b8361271e565b925082820390508181111561349357613492613436565b5b92915050565b60006134a48261271e565b91506134af8361271e565b92508282019050808211156134c7576134c6613436565b5b92915050565b7f45524337323155524953746f726167653a2055524920736574206f66206e6f6e60008201527f6578697374656e7420746f6b656e000000000000000000000000000000000000602082015250565b6000613529602e8361261b565b9150613534826134cd565b604082019050919050565b600060208201905081810360008301526135588161351c565b9050919050565b60008190508160005260206000209050919050565b60006020601f8301049050919050565b600082821b905092915050565b6000600883026135c17fffffffffffffffffffffffffffffffffffffffffffffffffffffffffffffffff82613584565b6135cb8683613584565b95508019841693508086168417925050509392505050565b6000819050919050565b60006136086136036135fe8461271e565b6135e3565b61271e565b9050919050565b6000819050919050565b613622836135ed565b61363661362e8261360f565b848454613591565b825550505050565b600090565b61364b61363e565b613656818484613619565b505050565b5b8181101561367a5761366f600082613643565b60018101905061365c565b5050565b601f8211156136bf576136908161355f565b61369984613574565b810160208510156136a8578190505b6136bc6136b485613574565b83018261365b565b50505b505050565b600082821c905092915050565b60006136e2600019846008026136c4565b1980831691505092915050565b60006136fb83836136d1565b9150826002028217905092915050565b61371482612610565b67ffffffffffffffff81111561372d5761372c612874565b5b6137378254612c27565b61374282828561367e565b600060209050601f8311600181146137755760008415613763578287015190505b61376d85826136ef565b8655506137d5565b601f1984166137838661355f565b60005b828110156137ab57848901518255600182019150602085019450602081019050613786565b868310156137c857848901516137c4601f8916826136d1565b8355505b6001600288020188555050505b505050505050565b7f4552433732313a20617070726f766520746f2063616c6c657200000000000000600082015250565b600061381360198361261b565b915061381e826137dd565b602082019050919050565b6000602082019050818103600083015261384281613806565b9050919050565b7f4552433732313a207472616e7366657220746f206e6f6e20455243373231526560008201527f63656976657220696d706c656d656e7465720000000000000000000000000000602082015250565b60006138a560328361261b565b91506138b082613849565b604082019050919050565b600060208201905081810360008301526138d481613898565b9050919050565b7f45524337323155524953746f726167653a2055524920717565727920666f722060008201527f6e6f6e6578697374656e7420746f6b656e000000000000000000000000000000602082015250565b600061393760318361261b565b9150613942826138db565b604082019050919050565b600060208201905081810360008301526139668161392a565b9050919050565b600081905092915050565b600061398382612610565b61398d818561396d565b935061399d81856020860161262c565b80840191505092915050565b60006139b58285613978565b91506139c18284613978565b91508190509392505050565b600081519050919050565b600082825260208201905092915050565b60006139f4826139cd565b6139fe81856139d8565b9350613a0e81856020860161262c565b613a1781612656565b840191505092915050565b6000608082019050613a3760008301876126f4565b613a4460208301866126f4565b613a5160408301856127ed565b8181036060830152613a6381846139e9565b905095945050505050565b600081519050613a7d81612581565b92915050565b600060208284031215613a9957613a9861254b565b5b6000613aa784828501613a6e565b91505092915050565b7f4552433732314d657461646174613a2055524920717565727920666f72206e6f60008201527f6e6578697374656e7420746f6b656e0000000000000000000000000000000000602082015250565b6000613b0c602f8361261b565b9150613b1782613ab0565b604082019050919050565b60006020820190508181036000830152613b3b81613aff565b9050919050565b7f4552433732313a206d696e7420746f20746865207a65726f2061646472657373600082015250565b6000613b7860208361261b565b9150613b8382613b42565b602082019050919050565b60006020820190508181036000830152613ba781613b6b565b9050919050565b7f4552433732313a20746f6b656e20616c7265616479206d696e74656400000000600082015250565b6000613be4601c8361261b565b9150613bef82613bae565b602082019050919050565b60006020820190508181036000830152613c1381613bd7565b9050919050565b6000613c258261271e565b91507fffffffffffffffffffffffffffffffffffffffffffffffffffffffffffffffff8203613c5757613c56613436565b5b600182019050919050565b7f4e487b7100000000000000000000000000000000000000000000000000000000600052601260045260246000fd5b6000613c9c8261271e565b9150613ca78361271e565b925082613cb757613cb6613c62565b5b828204905092915050565b6000613ccd8261271e565b9150613cd88361271e565b925082613ce857613ce7613c62565b5b828206905092915050565b7f4e487b7100000000000000000000000000000000000000000000000000000000600052603160045260246000fdfea2646970667358221220083aeae1ebced6a46efaa60ea6e7a4c290ca720e767b581b9f26b1936e49d2e564736f6c63430008110033",
  "immutableReferences": {},
  "source": "// SPDX-License-Identifier: MIT\npragma solidity ^0.8.7;\n\nimport \"openzeppelin-solidity/contracts/token/ERC721/ERC721.sol\";\nimport \"openzeppelin-solidity/contracts/token/ERC721/extensions/ERC721Enumerable.sol\";\nimport \"openzeppelin-solidity/contracts/token/ERC721/extensions/ERC721URIStorage.sol\";\nimport \"openzeppelin-solidity/contracts/access/Ownable.sol\";\nimport \"openzeppelin-solidity/contracts/utils/cryptography/ECDSA.sol\";\nimport { Clones } from \"openzeppelin-solidity/contracts/proxy/Clones.sol\";\n\nimport \"./ICosmoTreasury.sol\";\nimport \"./CosmoVault.sol\";\n\ncontract CosmoCreation is ERC721, ERC721Enumerable, ERC721URIStorage, Ownable {\n\n    uint256 public NUTS_INITIAL;\n\n    address public SYSTEM_ADDRESS;\n    address public TREASURY_ADDRESS;\n    address public VAULT_ADDRESS;\n\n    address public vaultImplementation;\n\n    using ECDSA for bytes32;\n\n    constructor(\n        string memory _name,\n        string memory _symbol,\n        uint256 _supply,\n        address _systemAddress,\n        address _treasuryAddress\n    )\n    ERC721(_name, _symbol)\n    {\n        NUTS_INITIAL = _supply;\n        SYSTEM_ADDRESS = _systemAddress;\n        TREASURY_ADDRESS = _treasuryAddress;\n    }\n\n    function _baseURI() internal pure override returns (string memory) {\n        return \"https://ipfs.io/ipfs/\";\n    }\n\n    function openVault(\n        address _systemAddress,\n        address _matterAddress\n    ) internal returns (address) {\n        CosmoVault vault = CosmoVault(Clones.clone(vaultImplementation));\n        vault.initialize(_systemAddress, _matterAddress);\n        VAULT_ADDRESS = address(vault);\n        return VAULT_ADDRESS;\n    }\n\n    function mintNut(uint256 _nutId, string memory _nutCID) public payable {\n        //require(vault.SALE_STATUS(), \"Sale must be active\");\n        //require(totalSupply() < vault.NUTS_INITIAL(), \"Exceed initial supply of nuts\");\n        //require(NUT_PRICE * _numberOfNuts <= msg.value, \"Ether value is not correct\");\n\n        _safeMint(TREASURY_ADDRESS, totalSupply());\n        _setTokenURI(totalSupply(), _nutCID);\n        ICosmoTreasury(TREASURY_ADDRESS).assignMintBalance(TREASURY_ADDRESS, _nutId);\n    }\n\n    // ----- The following functions are overrides required by Solidity -----\n    function _beforeTokenTransfer(address from, address to, uint256 tokenId) internal override(ERC721, ERC721Enumerable) {\n        super._beforeTokenTransfer(from, to, tokenId);\n    }\n\n    function _burn(uint256 tokenId) internal override(ERC721, ERC721URIStorage) {\n        super._burn(tokenId);\n    }\n\n    function tokenURI(uint256 tokenId) public view override(ERC721, ERC721URIStorage) returns (string memory) {\n        return super.tokenURI(tokenId);\n    }\n\n    function supportsInterface(bytes4 interfaceId) public view override(ERC721, ERC721Enumerable) returns (bool) {\n        return super.supportsInterface(interfaceId);\n    }\n    // -----      -----     -----     -----     -----\n}\n",
  "sourcePath": "/home/redlentils/Seafile/Websites/avatarnft/contracts/CosmoCreation.sol",
  "compiler": {
    "name": "solc",
    "version": "0.8.17+commit.8df45f5f.Emscripten.clang"
  },
  "schemaVersion": "3.4.10",
  "updatedAt": "2022-10-18T16:21:35.881Z",
  "devdoc": {
    "kind": "dev",
    "methods": {
      "approve(address,uint256)": {
        "details": "See {IERC721-approve}."
      },
      "balanceOf(address)": {
        "details": "See {IERC721-balanceOf}."
      },
      "getApproved(uint256)": {
        "details": "See {IERC721-getApproved}."
      },
      "isApprovedForAll(address,address)": {
        "details": "See {IERC721-isApprovedForAll}."
      },
      "name()": {
        "details": "See {IERC721Metadata-name}."
      },
      "owner()": {
        "details": "Returns the address of the current owner."
      },
      "ownerOf(uint256)": {
        "details": "See {IERC721-ownerOf}."
      },
      "renounceOwnership()": {
        "details": "Leaves the contract without owner. It will not be possible to call `onlyOwner` functions anymore. Can only be called by the current owner. NOTE: Renouncing ownership will leave the contract without an owner, thereby removing any functionality that is only available to the owner."
      },
      "safeTransferFrom(address,address,uint256)": {
        "details": "See {IERC721-safeTransferFrom}."
      },
      "safeTransferFrom(address,address,uint256,bytes)": {
        "details": "See {IERC721-safeTransferFrom}."
      },
      "setApprovalForAll(address,bool)": {
        "details": "See {IERC721-setApprovalForAll}."
      },
      "symbol()": {
        "details": "See {IERC721Metadata-symbol}."
      },
      "tokenByIndex(uint256)": {
        "details": "See {IERC721Enumerable-tokenByIndex}."
      },
      "tokenOfOwnerByIndex(address,uint256)": {
        "details": "See {IERC721Enumerable-tokenOfOwnerByIndex}."
      },
      "totalSupply()": {
        "details": "See {IERC721Enumerable-totalSupply}."
      },
      "transferFrom(address,address,uint256)": {
        "details": "See {IERC721-transferFrom}."
      },
      "transferOwnership(address)": {
        "details": "Transfers ownership of the contract to a new account (`newOwner`). Can only be called by the current owner."
      }
    },
    "version": 1
  },
  "userdoc": {
    "kind": "user",
    "methods": {},
    "version": 1
  }
}