{
  "contractName": "CosmoVault",
  "abi": [
    {
      "inputs": [
        {
          "internalType": "address",
          "name": "_systemAddress",
          "type": "address"
        },
        {
          "internalType": "address",
          "name": "_matterAddress",
          "type": "address"
        }
      ],
      "stateMutability": "nonpayable",
      "type": "constructor"
    },
    {
      "inputs": [],
      "name": "NUTS_INITIAL",
      "outputs": [
        {
          "internalType": "uint256",
          "name": "",
          "type": "uint256"
        }
      ],
      "stateMutability": "view",
      "type": "function"
    },
    {
      "inputs": [],
      "name": "NUT_PRICE",
      "outputs": [
        {
          "internalType": "uint256",
          "name": "",
          "type": "uint256"
        }
      ],
      "stateMutability": "view",
      "type": "function"
    },
    {
      "inputs": [],
      "name": "NUT_RATE",
      "outputs": [
        {
          "internalType": "uint256",
          "name": "",
          "type": "uint256"
        }
      ],
      "stateMutability": "view",
      "type": "function"
    },
    {
      "inputs": [],
      "name": "SALE_STATUS",
      "outputs": [
        {
          "internalType": "bool",
          "name": "",
          "type": "bool"
        }
      ],
      "stateMutability": "view",
      "type": "function"
    },
    {
      "inputs": [],
      "name": "SYSTEM_ADDRESS",
      "outputs": [
        {
          "internalType": "address",
          "name": "",
          "type": "address"
        }
      ],
      "stateMutability": "view",
      "type": "function"
    },
    {
      "inputs": [],
      "name": "TREASURY_ADDRESS",
      "outputs": [
        {
          "internalType": "address",
          "name": "",
          "type": "address"
        }
      ],
      "stateMutability": "view",
      "type": "function"
    },
    {
      "inputs": [],
      "name": "lightsOn",
      "outputs": [],
      "stateMutability": "nonpayable",
      "type": "function"
    },
    {
      "inputs": [
        {
          "internalType": "uint256",
          "name": "_nutPrice",
          "type": "uint256"
        },
        {
          "internalType": "uint256",
          "name": "_nutRate",
          "type": "uint256"
        },
        {
          "internalType": "uint256",
          "name": "_numNuts",
          "type": "uint256"
        }
      ],
      "name": "entityCreation",
      "outputs": [],
      "stateMutability": "nonpayable",
      "type": "function"
    },
    {
      "inputs": [
        {
          "internalType": "uint256",
          "name": "_nutId",
          "type": "uint256"
        }
      ],
      "name": "calcMatterNeeded",
      "outputs": [
        {
          "internalType": "uint256",
          "name": "",
          "type": "uint256"
        }
      ],
      "stateMutability": "view",
      "type": "function"
    },
    {
      "inputs": [
        {
          "internalType": "uint256",
          "name": "_nutIndex",
          "type": "uint256"
        }
      ],
      "name": "giveMintBalance",
      "outputs": [],
      "stateMutability": "nonpayable",
      "type": "function"
    },
    {
      "inputs": [
        {
          "internalType": "uint256",
          "name": "_seedId",
          "type": "uint256"
        }
      ],
      "name": "growSeedFromNut",
      "outputs": [],
      "stateMutability": "nonpayable",
      "type": "function"
    },
    {
      "inputs": [
        {
          "internalType": "uint256",
          "name": "_nutId",
          "type": "uint256"
        },
        {
          "internalType": "bytes32",
          "name": "_secretHash",
          "type": "bytes32"
        }
      ],
      "name": "newSeed",
      "outputs": [],
      "stateMutability": "nonpayable",
      "type": "function"
    },
    {
      "inputs": [
        {
          "internalType": "uint256",
          "name": "_nutId",
          "type": "uint256"
        },
        {
          "internalType": "uint256",
          "name": "_matterContributed",
          "type": "uint256"
        },
        {
          "internalType": "bytes32",
          "name": "_secretHash",
          "type": "bytes32"
        }
      ],
      "name": "newButterJar",
      "outputs": [],
      "stateMutability": "nonpayable",
      "type": "function"
    },
    {
      "inputs": [
        {
          "internalType": "bytes32",
          "name": "_pathHash",
          "type": "bytes32"
        },
        {
          "internalType": "bytes",
          "name": "_signature",
          "type": "bytes"
        }
      ],
      "name": "isVerified",
      "outputs": [
        {
          "internalType": "bool",
          "name": "",
          "type": "bool"
        }
      ],
      "stateMutability": "view",
      "type": "function"
    }
  ],
  "bytecode": "0x60806040523480156200001157600080fd5b506040516200669d3803806200669d8339818101604052810190620000379190620001b0565b6000600560006101000a81548160ff0219169083151502179055508181604051620000629062000138565b6200006f92919062000208565b604051809103906000f0801580156200008c573d6000803e3d6000fd5b50600560016101000a81548173ffffffffffffffffffffffffffffffffffffffff021916908373ffffffffffffffffffffffffffffffffffffffff160217905550600560019054906101000a900473ffffffffffffffffffffffffffffffffffffffff16600160006101000a81548173ffffffffffffffffffffffffffffffffffffffff021916908373ffffffffffffffffffffffffffffffffffffffff160217905550505062000235565b614f6d806200173083390190565b600080fd5b600073ffffffffffffffffffffffffffffffffffffffff82169050919050565b600062000178826200014b565b9050919050565b6200018a816200016b565b81146200019657600080fd5b50565b600081519050620001aa816200017f565b92915050565b60008060408385031215620001ca57620001c962000146565b5b6000620001da8582860162000199565b9250506020620001ed8582860162000199565b9150509250929050565b62000202816200016b565b82525050565b60006040820190506200021f6000830185620001f7565b6200022e6020830184620001f7565b9392505050565b6114eb80620002456000396000f3fe608060405234801561001057600080fd5b50600436106100ea5760003560e01c806386d3d8711161008c578063b8a9736d11610066578063b8a9736d14610223578063efcdb23d14610241578063f27890f21461025f578063f2b97ee21461027b576100ea565b806386d3d871146101e1578063911da062146101fd578063a8a9380014610219576100ea565b8063347518a8116100c8578063347518a81461014957806334fc1228146101655780635e14a478146101955780637fcacc0e146101b1576100ea565b806307604b1a146100ef5780630a82f53b1461010d5780633434735f1461012b575b600080fd5b6100f7610299565b6040516101049190610c2f565b60405180910390f35b6101156102bf565b6040516101229190610c65565b60405180910390f35b6101336102d2565b6040516101409190610c2f565b60405180910390f35b610163600480360381019061015e9190610cca565b6102f6565b005b61017f600480360381019061017a9190610cca565b6103bc565b60405161018c9190610d06565b60405180910390f35b6101af60048036038101906101aa9190610d21565b610461565b005b6101cb60048036038101906101c69190610ef0565b61047b565b6040516101d89190610c65565b60405180910390f35b6101fb60048036038101906101f69190610f4c565b61051f565b005b61021760048036038101906102129190610f8c565b6105c4565b005b610221610670565b005b61022b61068d565b6040516102389190610d06565b60405180910390f35b610249610693565b6040516102569190610d06565b60405180910390f35b61027960048036038101906102749190610cca565b610699565b005b6102836107ec565b6040516102909190610d06565b60405180910390f35b600160009054906101000a900473ffffffffffffffffffffffffffffffffffffffff1681565b600560009054906101000a900460ff1681565b60008054906101000a900473ffffffffffffffffffffffffffffffffffffffff1681565b600560019054906101000a900473ffffffffffffffffffffffffffffffffffffffff1673ffffffffffffffffffffffffffffffffffffffff16631c85949c600160009054906101000a900473ffffffffffffffffffffffffffffffffffffffff16836040518363ffffffff1660e01b8152600401610375929190610fdf565b6020604051808303816000875af1158015610394573d6000803e3d6000fd5b505050506040513d601f19601f820116820180604052508101906103b89190611034565b5050565b6000600560019054906101000a900473ffffffffffffffffffffffffffffffffffffffff1673ffffffffffffffffffffffffffffffffffffffff16638ed3df0f836040518263ffffffff1660e01b81526004016104199190610d06565b602060405180830381865afa158015610436573d6000803e3d6000fd5b505050506040513d601f19601f8201168201806040525081019061045a9190611076565b9050919050565b826002819055508160038190555080600481905550505050565b60008060009054906101000a900473ffffffffffffffffffffffffffffffffffffffff1673ffffffffffffffffffffffffffffffffffffffff166104bf84846107f2565b73ffffffffffffffffffffffffffffffffffffffff1614610515576040517f08c379a000000000000000000000000000000000000000000000000000000000815260040161050c90611100565b60405180910390fd5b6001905092915050565b600560019054906101000a900473ffffffffffffffffffffffffffffffffffffffff1673ffffffffffffffffffffffffffffffffffffffff1663fe774f9d83836040518363ffffffff1660e01b815260040161057c92919061112f565b6020604051808303816000875af115801561059b573d6000803e3d6000fd5b505050506040513d601f19601f820116820180604052508101906105bf9190611034565b505050565b600560019054906101000a900473ffffffffffffffffffffffffffffffffffffffff1673ffffffffffffffffffffffffffffffffffffffff166303f5de9d8484600354856040518563ffffffff1660e01b81526004016106279493929190611158565b6020604051808303816000875af1158015610646573d6000803e3d6000fd5b505050506040513d601f19601f8201168201806040525081019061066a9190611034565b50505050565b6001600560006101000a81548160ff021916908315150217905550565b60025481565b60035481565b6000600560019054906101000a900473ffffffffffffffffffffffffffffffffffffffff1673ffffffffffffffffffffffffffffffffffffffff1663d4d81032836040518263ffffffff1660e01b81526004016106f69190610d06565b602060405180830381865afa158015610713573d6000803e3d6000fd5b505050506040513d601f19601f820116820180604052508101906107379190611076565b90506000610744826103bc565b9050600560019054906101000a900473ffffffffffffffffffffffffffffffffffffffff1673ffffffffffffffffffffffffffffffffffffffff1663a06fc90b84836040518363ffffffff1660e01b81526004016107a392919061119d565b6020604051808303816000875af11580156107c2573d6000803e3d6000fd5b505050506040513d601f19601f820116820180604052508101906107e69190611034565b50505050565b60045481565b6000610807828461080f90919063ffffffff16565b905092915050565b600080600061081e8585610836565b9150915061082b816108b7565b819250505092915050565b60008060418351036108775760008060006020860151925060408601519150606086015160001a905061086b87828585610a83565b945094505050506108b0565b60408351036108a757600080602085015191506040850151905061089c868383610b8f565b9350935050506108b0565b60006002915091505b9250929050565b600060048111156108cb576108ca6111c6565b5b8160048111156108de576108dd6111c6565b5b0315610a8057600160048111156108f8576108f76111c6565b5b81600481111561090b5761090a6111c6565b5b0361094b576040517f08c379a000000000000000000000000000000000000000000000000000000000815260040161094290611241565b60405180910390fd5b6002600481111561095f5761095e6111c6565b5b816004811115610972576109716111c6565b5b036109b2576040517f08c379a00000000000000000000000000000000000000000000000000000000081526004016109a9906112ad565b60405180910390fd5b600360048111156109c6576109c56111c6565b5b8160048111156109d9576109d86111c6565b5b03610a19576040517f08c379a0000000000000000000000000000000000000000000000000000000008152600401610a109061133f565b60405180910390fd5b600480811115610a2c57610a2b6111c6565b5b816004811115610a3f57610a3e6111c6565b5b03610a7f576040517f08c379a0000000000000000000000000000000000000000000000000000000008152600401610a76906113d1565b60405180910390fd5b5b50565b6000807f7fffffffffffffffffffffffffffffff5d576e7357a4501ddfe92f46681b20a08360001c1115610abe576000600391509150610b86565b601b8560ff1614158015610ad65750601c8560ff1614155b15610ae8576000600491509150610b86565b600060018787878760405160008152602001604052604051610b0d949392919061140d565b6020604051602081039080840390855afa158015610b2f573d6000803e3d6000fd5b505050602060405103519050600073ffffffffffffffffffffffffffffffffffffffff168173ffffffffffffffffffffffffffffffffffffffff1603610b7d57600060019250925050610b86565b80600092509250505b94509492505050565b60008060007f7fffffffffffffffffffffffffffffffffffffffffffffffffffffffffffffff60001b841690506000601b60ff8660001c901c610bd29190611481565b9050610be087828885610a83565b935093505050935093915050565b600073ffffffffffffffffffffffffffffffffffffffff82169050919050565b6000610c1982610bee565b9050919050565b610c2981610c0e565b82525050565b6000602082019050610c446000830184610c20565b92915050565b60008115159050919050565b610c5f81610c4a565b82525050565b6000602082019050610c7a6000830184610c56565b92915050565b6000604051905090565b600080fd5b600080fd5b6000819050919050565b610ca781610c94565b8114610cb257600080fd5b50565b600081359050610cc481610c9e565b92915050565b600060208284031215610ce057610cdf610c8a565b5b6000610cee84828501610cb5565b91505092915050565b610d0081610c94565b82525050565b6000602082019050610d1b6000830184610cf7565b92915050565b600080600060608486031215610d3a57610d39610c8a565b5b6000610d4886828701610cb5565b9350506020610d5986828701610cb5565b9250506040610d6a86828701610cb5565b9150509250925092565b6000819050919050565b610d8781610d74565b8114610d9257600080fd5b50565b600081359050610da481610d7e565b92915050565b600080fd5b600080fd5b6000601f19601f8301169050919050565b7f4e487b7100000000000000000000000000000000000000000000000000000000600052604160045260246000fd5b610dfd82610db4565b810181811067ffffffffffffffff82111715610e1c57610e1b610dc5565b5b80604052505050565b6000610e2f610c80565b9050610e3b8282610df4565b919050565b600067ffffffffffffffff821115610e5b57610e5a610dc5565b5b610e6482610db4565b9050602081019050919050565b82818337600083830152505050565b6000610e93610e8e84610e40565b610e25565b905082815260208101848484011115610eaf57610eae610daf565b5b610eba848285610e71565b509392505050565b600082601f830112610ed757610ed6610daa565b5b8135610ee7848260208601610e80565b91505092915050565b60008060408385031215610f0757610f06610c8a565b5b6000610f1585828601610d95565b925050602083013567ffffffffffffffff811115610f3657610f35610c8f565b5b610f4285828601610ec2565b9150509250929050565b60008060408385031215610f6357610f62610c8a565b5b6000610f7185828601610cb5565b9250506020610f8285828601610d95565b9150509250929050565b600080600060608486031215610fa557610fa4610c8a565b5b6000610fb386828701610cb5565b9350506020610fc486828701610cb5565b9250506040610fd586828701610d95565b9150509250925092565b6000604082019050610ff46000830185610c20565b6110016020830184610cf7565b9392505050565b61101181610c4a565b811461101c57600080fd5b50565b60008151905061102e81611008565b92915050565b60006020828403121561104a57611049610c8a565b5b60006110588482850161101f565b91505092915050565b60008151905061107081610c9e565b92915050565b60006020828403121561108c5761108b610c8a565b5b600061109a84828501611061565b91505092915050565b600082825260208201905092915050565b7f496e76616c6964207369676e6174757265000000000000000000000000000000600082015250565b60006110ea6011836110a3565b91506110f5826110b4565b602082019050919050565b60006020820190508181036000830152611119816110dd565b9050919050565b61112981610d74565b82525050565b60006040820190506111446000830185610cf7565b6111516020830184611120565b9392505050565b600060808201905061116d6000830187610cf7565b61117a6020830186610cf7565b6111876040830185610cf7565b6111946060830184611120565b95945050505050565b60006040820190506111b26000830185610cf7565b6111bf6020830184610cf7565b9392505050565b7f4e487b7100000000000000000000000000000000000000000000000000000000600052602160045260246000fd5b7f45434453413a20696e76616c6964207369676e61747572650000000000000000600082015250565b600061122b6018836110a3565b9150611236826111f5565b602082019050919050565b6000602082019050818103600083015261125a8161121e565b9050919050565b7f45434453413a20696e76616c6964207369676e6174757265206c656e67746800600082015250565b6000611297601f836110a3565b91506112a282611261565b602082019050919050565b600060208201905081810360008301526112c68161128a565b9050919050565b7f45434453413a20696e76616c6964207369676e6174757265202773272076616c60008201527f7565000000000000000000000000000000000000000000000000000000000000602082015250565b60006113296022836110a3565b9150611334826112cd565b604082019050919050565b600060208201905081810360008301526113588161131c565b9050919050565b7f45434453413a20696e76616c6964207369676e6174757265202776272076616c60008201527f7565000000000000000000000000000000000000000000000000000000000000602082015250565b60006113bb6022836110a3565b91506113c68261135f565b604082019050919050565b600060208201905081810360008301526113ea816113ae565b9050919050565b600060ff82169050919050565b611407816113f1565b82525050565b60006080820190506114226000830187611120565b61142f60208301866113fe565b61143c6040830185611120565b6114496060830184611120565b95945050505050565b7f4e487b7100000000000000000000000000000000000000000000000000000000600052601160045260246000fd5b600061148c82610c94565b915061149783610c94565b92508282019050808211156114af576114ae611452565b5b9291505056fea2646970667358221220fca5ba22fead4d9fdee7d4a56f8dcd6b8637d41499eb3dde6c9257f7eae745de64736f6c634300081100336080604052600080556000600755600060085560006009556000600f553480156200002957600080fd5b5060405162004f6d38038062004f6d83398181016040528101906200004f91906200018d565b81601260000160006101000a81548173ffffffffffffffffffffffffffffffffffffffff021916908373ffffffffffffffffffffffffffffffffffffffff16021790555080601260010160006101000a81548173ffffffffffffffffffffffffffffffffffffffff021916908373ffffffffffffffffffffffffffffffffffffffff16021790555030601260020160006101000a81548173ffffffffffffffffffffffffffffffffffffffff021916908373ffffffffffffffffffffffffffffffffffffffff1602179055505050620001d4565b600080fd5b600073ffffffffffffffffffffffffffffffffffffffff82169050919050565b6000620001558262000128565b9050919050565b620001678162000148565b81146200017357600080fd5b50565b60008151905062000187816200015c565b92915050565b60008060408385031215620001a757620001a662000123565b5b6000620001b78582860162000176565b9250506020620001ca8582860162000176565b9150509250929050565b614d8980620001e46000396000f3fe6080604052600436106200021e5760003560e01c80634ffe5a6f1162000127578063a06fc90b11620000af578063df4f5ccc1162000079578063df4f5ccc1462000933578063ea988be81462000963578063f50d43491462000993578063f6317f8d14620009d7578063fe774f9d1462000a07576200021e565b8063a06fc90b1462000834578063a83851b91462000878578063aef054ce14620008ab578063d4d8103214620008ef576200021e565b80639578d3df11620000f15780639578d3df146200073857806398d5fdca146200077c5780639975a8a214620007ac5780639cee22b114620007f0576200021e565b80634ffe5a6f146200062857806353f97bc8146200066c5780636b651a2c14620006b05780638ed3df0f14620006f4576200021e565b806323f526c011620001ab57806339dc84f4116200017557806339dc84f4146200052c5780633c8023ad146200057057806347634e1c14620005b457806349a6b51f14620005f8576200021e565b806323f526c0146200043057806326342ea41462000474578063282adc8c14620004a45780633279bd4f14620004e8576200021e565b8063171e844111620001ed578063171e844114620003205780631821907a14620003645780631c85949c14620003a85780631e0b396414620003ec576200021e565b806302760a48146200022357806303f5de9d14620002675780631298896e14620002ab57806315d3b7a014620002ef575b600080fd5b3480156200023057600080fd5b506200024f600480360381019062000249919062002223565b62000a3d565b6040516200025e919062002272565b60405180910390f35b3480156200027457600080fd5b506200029360048036038101906200028d9190620022ca565b62000a5d565b604051620002a2919062002272565b60405180910390f35b348015620002b857600080fd5b50620002d76004803603810190620002d191906200233c565b620011e6565b604051620002e6919062002394565b60405180910390f35b348015620002fc57600080fd5b506200030762001218565b60405162000317929190620023b1565b60405180910390f35b3480156200032d57600080fd5b506200034c600480360381019062000346919062002223565b6200122a565b6040516200035b919062002272565b60405180910390f35b3480156200037157600080fd5b506200039060048036038101906200038a919062002223565b6200124a565b6040516200039f919062002394565b60405180910390f35b348015620003b557600080fd5b50620003d46004803603810190620003ce919062002443565b62001262565b604051620003e3919062002272565b60405180910390f35b348015620003f957600080fd5b506200041860048036038101906200041291906200233c565b6200142c565b60405162000427919062002394565b60405180910390f35b3480156200043d57600080fd5b506200045c600480360381019062000456919062002223565b6200145e565b6040516200046b91906200249b565b60405180910390f35b3480156200048157600080fd5b506200048c62001491565b6040516200049b919062002394565b60405180910390f35b348015620004b157600080fd5b50620004d06004803603810190620004ca919062002223565b62001497565b604051620004df919062002394565b60405180910390f35b348015620004f557600080fd5b506200051460048036038101906200050e919062002223565b620014b7565b60405162000523919062002394565b60405180910390f35b3480156200053957600080fd5b5062000558600480360381019062000552919062002223565b620014cf565b6040516200056791906200249b565b60405180910390f35b3480156200057d57600080fd5b506200059c60048036038101906200059691906200233c565b62001502565b604051620005ab919062002394565b60405180910390f35b348015620005c157600080fd5b50620005e06004803603810190620005da919062002223565b62001534565b604051620005ef919062002394565b60405180910390f35b3480156200060557600080fd5b50620006106200154c565b6040516200061f919062002394565b60405180910390f35b3480156200063557600080fd5b506200065460048036038101906200064e919062002223565b62001552565b60405162000663919062002394565b60405180910390f35b3480156200067957600080fd5b506200069860048036038101906200069291906200233c565b6200156a565b604051620006a7919062002272565b60405180910390f35b348015620006bd57600080fd5b50620006dc6004803603810190620006d6919062002223565b62001599565b604051620006eb919062002394565b60405180910390f35b3480156200070157600080fd5b506200072060048036038101906200071a919062002223565b620015b9565b6040516200072f919062002394565b60405180910390f35b3480156200074557600080fd5b506200076460048036038101906200075e919062002223565b620015d4565b60405162000773919062002394565b60405180910390f35b3480156200078957600080fd5b5062000794620015f9565b604051620007a3919062002394565b60405180910390f35b348015620007b957600080fd5b50620007d86004803603810190620007d2919062002223565b62001606565b604051620007e7919062002394565b60405180910390f35b348015620007fd57600080fd5b506200081c6004803603810190620008169190620024b8565b62001626565b6040516200082b919062002272565b60405180910390f35b3480156200084157600080fd5b506200086060048036038101906200085a91906200233c565b62001760565b6040516200086f919062002272565b60405180910390f35b3480156200088557600080fd5b506200089062001a16565b604051620008a294939291906200252a565b60405180910390f35b348015620008b857600080fd5b50620008d76004803603810190620008d1919062002223565b62001ab4565b604051620008e691906200249b565b60405180910390f35b348015620008fc57600080fd5b506200091b600480360381019062000915919062002223565b62001ae7565b6040516200092a919062002394565b60405180910390f35b3480156200094057600080fd5b506200094b62001aff565b6040516200095a919062002394565b60405180910390f35b3480156200097057600080fd5b506200097b62001b05565b6040516200098a919062002394565b60405180910390f35b348015620009a057600080fd5b50620009bf6004803603810190620009b9919062002223565b62001b0b565b604051620009ce919062002394565b60405180910390f35b348015620009e457600080fd5b50620009ef62001b23565b604051620009fe919062002394565b60405180910390f35b62000a25600480360381019062000a1f919062002577565b62001b29565b60405162000a34919062002272565b60405180910390f35b60116020528060005260406000206000915054906101000a900460ff1681565b6000806018600087815260200190815260200160002060009054906101000a900473ffffffffffffffffffffffffffffffffffffffff1690503373ffffffffffffffffffffffffffffffffffffffff168173ffffffffffffffffffffffffffffffffffffffff161462000b07576040517f08c379a000000000000000000000000000000000000000000000000000000000815260040162000afe906200261f565b60405180910390fd5b846019600088815260200190815260200160002054101562000b60576040517f08c379a000000000000000000000000000000000000000000000000000000000815260040162000b579062002691565b60405180910390fd5b6000601260010160009054906101000a900473ffffffffffffffffffffffffffffffffffffffff1690508073ffffffffffffffffffffffffffffffffffffffff166370a08231836040518263ffffffff1660e01b815260040162000bc591906200249b565b602060405180830381865afa15801562000be3573d6000803e3d6000fd5b505050506040513d601f19601f8201168201806040525081019062000c099190620026ca565b86111562000c4e576040517f08c379a000000000000000000000000000000000000000000000000000000000815260040162000c45906200274c565b60405180910390fd5b6000858762000c5e91906200279d565b1462000ca1576040517f08c379a000000000000000000000000000000000000000000000000000000000815260040162000c989062002825565b60405180910390fd5b600062000cae8862001599565b111562000d265785600f600082825462000cc9919062002876565b925050819055508560106000898152602001908152602001600020600082825462000cf5919062002876565b92505081905550601a8790806001815401808255809150506001900390600052602060002001600090919091909150555b60008173ffffffffffffffffffffffffffffffffffffffff166370a08231601260020160009054906101000a900473ffffffffffffffffffffffffffffffffffffffff166040518263ffffffff1660e01b815260040162000d8891906200249b565b602060405180830381865afa15801562000da6573d6000803e3d6000fd5b505050506040513d601f19601f8201168201806040525081019062000dcc9190620026ca565b90506000811115620010d457600062000de882600f5462001e01565b90506000805b8281146200102a576000601a8054905090506000810362000e1057506200102a565b8082111562000e1e57600092505b6000601a848154811062000e375762000e36620028b1565b5b9060005260206000200154905060006018600083815260200190815260200160002060009054906101000a900473ffffffffffffffffffffffffffffffffffffffff169050600060166001015462000e8f8462001599565b62000e9b9190620028e0565b90508060196000858152602001908152602001600020540362000ee357601a868154811062000ecf5762000ece620028b1565b5b906000526020600020016000905562001000565b8873ffffffffffffffffffffffffffffffffffffffff1663a9059cbb8360016040518363ffffffff1660e01b815260040162000f2192919062002978565b6020604051808303816000875af115801562000f41573d6000803e3d6000fd5b505050506040513d601f19601f8201168201806040525081019062000f679190620029d6565b50601a839080600181540180825580915050600190039060005260206000200160009091909190915055601a868154811062000fa85762000fa7620028b1565b5b90600052602060002001600090556001600f600082825462000fcb919062002a08565b92505081905550600160106000858152602001908152602001600020600082825462000ff8919062002a08565b925050819055505b85806200100d9062002a43565b965050505050508080620010219062002a43565b91505062000dee565b508373ffffffffffffffffffffffffffffffffffffffff166370a08231601260020160009054906101000a900473ffffffffffffffffffffffffffffffffffffffff166040518263ffffffff1660e01b81526004016200108b91906200249b565b602060405180830381865afa158015620010a9573d6000803e3d6000fd5b505050506040513d601f19601f82011682018060405250810190620010cf9190620026ca565b925050505b6000600954898989601260020160009054906101000a900473ffffffffffffffffffffffffffffffffffffffff168a6040516200111190620021c7565b620011229695949392919062002aa1565b604051809103906000f0801580156200113f573d6000803e3d6000fd5b5090508273ffffffffffffffffffffffffffffffffffffffff1663a9059cbb828a6040518363ffffffff1660e01b81526004016200117f92919062002b0e565b6020604051808303816000875af11580156200119f573d6000803e3d6000fd5b505050506040513d601f19601f82011682018060405250810190620011c59190620029d6565b50620011d689600954838b62001e1c565b6001945050505050949350505050565b600260205281600052604060002081815481106200120357600080fd5b90600052602060002001600091509150505481565b60168060000154908060010154905082565b60066020528060005260406000206000915054906101000a900460ff1681565b600d6020528060005260406000206000915090505481565b600080601260010160009054906101000a900473ffffffffffffffffffffffffffffffffffffffff1690506016600101548173ffffffffffffffffffffffffffffffffffffffff166370a08231601260020160009054906101000a900473ffffffffffffffffffffffffffffffffffffffff166040518263ffffffff1660e01b8152600401620012f391906200249b565b602060405180830381865afa15801562001311573d6000803e3d6000fd5b505050506040513d601f19601f82011682018060405250810190620013379190620026ca565b10156200137b576040517f08c379a0000000000000000000000000000000000000000000000000000000008152600401620013729062002b8b565b60405180910390fd5b8073ffffffffffffffffffffffffffffffffffffffff1663a9059cbb856016600101546040518363ffffffff1660e01b8152600401620013bd92919062002b0e565b6020604051808303816000875af1158015620013dd573d6000803e3d6000fd5b505050506040513d601f19601f82011682018060405250810190620014039190620029d6565b506016600101546019600085815260200190815260200160002081905550600191505092915050565b600a60205281600052604060002081815481106200144957600080fd5b90600052602060002001600091509150505481565b60056020528060005260406000206000915054906101000a900473ffffffffffffffffffffffffffffffffffffffff1681565b60095481565b6000600a6000838152602001908152602001600020805490509050919050565b600c6020528060005260406000206000915090505481565b60186020528060005260406000206000915054906101000a900473ffffffffffffffffffffffffffffffffffffffff1681565b600160205281600052604060002081815481106200151f57600080fd5b90600052602060002001600091509150505481565b600e6020528060005260406000206000915090505481565b60085481565b60106020528060005260406000206000915090505481565b60046020528160005260406000206020528060005260406000206000915091509054906101000a900460ff1681565b600060026000838152602001908152602001600020805490509050919050565b6000620015c68262001606565b601660010154189050919050565b601a8181548110620015e557600080fd5b906000526020600020016000915090505481565b6000601660000154905090565b600060016000838152602001908152602001600020805490509050919050565b600080601260010160009054906101000a900473ffffffffffffffffffffffffffffffffffffffff1690508073ffffffffffffffffffffffffffffffffffffffff1663a9059cbb87866040518363ffffffff1660e01b81526004016200168e92919062002b0e565b6020604051808303816000875af1158015620016ae573d6000803e3d6000fd5b505050506040513d601f19601f82011682018060405250810190620016d49190620029d6565b508073ffffffffffffffffffffffffffffffffffffffff16634bbc1bcd30866040518363ffffffff1660e01b81526004016200171292919062002b0e565b600060405180830381600087803b1580156200172d57600080fd5b505af115801562001742573d6000803e3d6000fd5b505050506200175385858562001f55565b6001915050949350505050565b6000806005600085815260200190815260200160002060009054906101000a900473ffffffffffffffffffffffffffffffffffffffff1690508073ffffffffffffffffffffffffffffffffffffffff163373ffffffffffffffffffffffffffffffffffffffff16146200180a576040517f08c379a0000000000000000000000000000000000000000000000000000000008152600401620018019062002c23565b60405180910390fd5b60008190506000601860008373ffffffffffffffffffffffffffffffffffffffff1663685771f46040518163ffffffff1660e01b8152600401602060405180830381865afa15801562001861573d6000803e3d6000fd5b505050506040513d601f19601f82011682018060405250810190620018879190620026ca565b815260200190815260200160002060009054906101000a900473ffffffffffffffffffffffffffffffffffffffff1690506000601260010160009054906101000a900473ffffffffffffffffffffffffffffffffffffffff1690508073ffffffffffffffffffffffffffffffffffffffff1663a9059cbb83886040518363ffffffff1660e01b81526004016200191f92919062002b0e565b6020604051808303816000875af11580156200193f573d6000803e3d6000fd5b505050506040513d601f19601f82011682018060405250810190620019659190620029d6565b508073ffffffffffffffffffffffffffffffffffffffff16634bbc1bcd601260020160009054906101000a900473ffffffffffffffffffffffffffffffffffffffff1660016040518363ffffffff1660e01b8152600401620019c992919062002978565b600060405180830381600087803b158015620019e457600080fd5b505af1158015620019f9573d6000803e3d6000fd5b5050505062001a088762002018565b600194505050505092915050565b60128060000160009054906101000a900473ffffffffffffffffffffffffffffffffffffffff16908060010160009054906101000a900473ffffffffffffffffffffffffffffffffffffffff16908060020160009054906101000a900473ffffffffffffffffffffffffffffffffffffffff16908060030160009054906101000a900473ffffffffffffffffffffffffffffffffffffffff16905084565b600b6020528060005260406000206000915054906101000a900473ffffffffffffffffffffffffffffffffffffffff1681565b60036020528060005260406000206000915090505481565b600f5481565b60005481565b60196020528060005260406000206000915090505481565b60075481565b60008062001b378462001599565b6016600001541890508034101562001b86576040517f08c379a000000000000000000000000000000000000000000000000000000000815260040162001b7d9062002c95565b60405180910390fd5b6000601260010160009054906101000a900473ffffffffffffffffffffffffffffffffffffffff169050600062001bbd86620015b9565b905060008273ffffffffffffffffffffffffffffffffffffffff166370a08231601860008a815260200190815260200160002060009054906101000a900473ffffffffffffffffffffffffffffffffffffffff166040518263ffffffff1660e01b815260040162001c2f91906200249b565b602060405180830381865afa15801562001c4d573d6000803e3d6000fd5b505050506040513d601f19601f8201168201806040525081019062001c739190620026ca565b90508181101562001cbb576040517f08c379a000000000000000000000000000000000000000000000000000000000815260040162001cb29062002d07565b60405180910390fd5b600080548830601260030160009054906101000a900473ffffffffffffffffffffffffffffffffffffffff168a60405162001cf690620021d5565b62001d0695949392919062002d29565b604051809103906000f08015801562001d23573d6000803e3d6000fd5b509050600081905062001d3a89600054836200209a565b8473ffffffffffffffffffffffffffffffffffffffff166342966c68856040518263ffffffff1660e01b815260040162001d75919062002394565b600060405180830381600087803b15801562001d9057600080fd5b505af115801562001da5573d6000803e3d6000fd5b505050508073ffffffffffffffffffffffffffffffffffffffff166108fc349081150290604051600060405180830381858888f1935050505015801562001df0573d6000803e3d6000fd5b506001965050505050505092915050565b600081831062001e12578162001e14565b825b905092915050565b60016009600082825462001e31919062002876565b92505081905550806007600082825462001e4c919062002876565b92505081905550600a600085815260200190815260200160002083908060018154018082558091505060019003906000526020600020016000909190919091505580600d6000868152602001908152602001600020600082825462001eb2919062002876565b9250508190555081600b600086815260200190815260200160002060006101000a81548173ffffffffffffffffffffffffffffffffffffffff021916908373ffffffffffffffffffffffffffffffffffffffff16021790555060016011600086815260200190815260200160002060006101000a81548160ff02191690831515021790555083600e60008581526020019081526020016000208190555050505050565b816007600082825462001f69919062002a08565b92505081905550816008600082825462001f84919062002876565b925050819055506000600e600085815260200190815260200160002054905082600c6000838152602001908152602001600020600082825462001fc8919062002876565b925050819055506000838362001fdf919062002a08565b03620020125760006011600086815260200190815260200160002060006101000a81548160ff0219169083151502179055505b50505050565b6000600360008381526020019081526020016000205490506002600082815260200190815260200160002082908060018154018082558091505060019003906000526020600020016000909190919091505560006006600083815260200190815260200160002060006101000a81548160ff0219169083151502179055505050565b82600360008481526020019081526020016000208190555060016000848152602001908152602001600020829080600181540180825580915050600190039060005260206000200160009091909190915055600160046000848152602001908152602001600020600085815260200190815260200160002060006101000a81548160ff021916908315150217905550806005600084815260200190815260200160002060006101000a81548173ffffffffffffffffffffffffffffffffffffffff021916908373ffffffffffffffffffffffffffffffffffffffff16021790555060016000808282546200218f919062002876565b9250508190555060016006600085815260200190815260200160002060006101000a81548160ff021916908315150217905550505050565b610daa8062002d8783390190565b6112238062003b3183390190565b600080fd5b6000819050919050565b620021fd81620021e8565b81146200220957600080fd5b50565b6000813590506200221d81620021f2565b92915050565b6000602082840312156200223c576200223b620021e3565b5b60006200224c848285016200220c565b91505092915050565b60008115159050919050565b6200226c8162002255565b82525050565b600060208201905062002289600083018462002261565b92915050565b6000819050919050565b620022a4816200228f565b8114620022b057600080fd5b50565b600081359050620022c48162002299565b92915050565b60008060008060808587031215620022e757620022e6620021e3565b5b6000620022f7878288016200220c565b94505060206200230a878288016200220c565b93505060406200231d878288016200220c565b92505060606200233087828801620022b3565b91505092959194509250565b60008060408385031215620023565762002355620021e3565b5b600062002366858286016200220c565b925050602062002379858286016200220c565b9150509250929050565b6200238e81620021e8565b82525050565b6000602082019050620023ab600083018462002383565b92915050565b6000604082019050620023c8600083018562002383565b620023d7602083018462002383565b9392505050565b600073ffffffffffffffffffffffffffffffffffffffff82169050919050565b60006200240b82620023de565b9050919050565b6200241d81620023fe565b81146200242957600080fd5b50565b6000813590506200243d8162002412565b92915050565b600080604083850312156200245d576200245c620021e3565b5b60006200246d858286016200242c565b925050602062002480858286016200220c565b9150509250929050565b6200249581620023fe565b82525050565b6000602082019050620024b260008301846200248a565b92915050565b60008060008060808587031215620024d557620024d4620021e3565b5b6000620024e5878288016200242c565b9450506020620024f8878288016200220c565b93505060406200250b878288016200220c565b92505060606200251e878288016200220c565b91505092959194509250565b60006080820190506200254160008301876200248a565b6200255060208301866200248a565b6200255f60408301856200248a565b6200256e60608301846200248a565b95945050505050565b60008060408385031215620025915762002590620021e3565b5b6000620025a1858286016200220c565b9250506020620025b485828601620022b3565b9150509250929050565b600082825260208201905092915050565b7f43616c6c6572206973206e6f7420746865206f776e6572000000000000000000600082015250565b600062002607601783620025be565b91506200261482620025cf565b602082019050919050565b600060208201905081810360008301526200263a81620025f8565b9050919050565b7f4e6f74206861766520656e6f756768206d617474657200000000000000000000600082015250565b600062002679601683620025be565b9150620026868262002641565b602082019050919050565b60006020820190508181036000830152620026ac816200266a565b9050919050565b600081519050620026c481620021f2565b92915050565b600060208284031215620026e357620026e2620021e3565b5b6000620026f384828501620026b3565b91505092915050565b7f4e6f74206869676820656e6f7567680000000000000000000000000000000000600082015250565b600062002734600f83620025be565b91506200274182620026fc565b602082019050919050565b60006020820190508181036000830152620027678162002725565b9050919050565b7f4e487b7100000000000000000000000000000000000000000000000000000000600052601260045260246000fd5b6000620027aa82620021e8565b9150620027b783620021e8565b925082620027ca57620027c96200276e565b5b828206905092915050565b7f447261772072617465206e6f7420646976697369626c65000000000000000000600082015250565b60006200280d601783620025be565b91506200281a82620027d5565b602082019050919050565b600060208201905081810360008301526200284081620027fe565b9050919050565b7f4e487b7100000000000000000000000000000000000000000000000000000000600052601160045260246000fd5b60006200288382620021e8565b91506200289083620021e8565b9250828201905080821115620028ab57620028aa62002847565b5b92915050565b7f4e487b7100000000000000000000000000000000000000000000000000000000600052603260045260246000fd5b6000620028ed82620021e8565b9150620028fa83620021e8565b92508282026200290a81620021e8565b9150828204841483151762002924576200292362002847565b5b5092915050565b6000819050919050565b6000819050919050565b6000620029606200295a62002954846200292b565b62002935565b620021e8565b9050919050565b62002972816200293f565b82525050565b60006040820190506200298f60008301856200248a565b6200299e602083018462002967565b9392505050565b620029b08162002255565b8114620029bc57600080fd5b50565b600081519050620029d081620029a5565b92915050565b600060208284031215620029ef57620029ee620021e3565b5b6000620029ff84828501620029bf565b91505092915050565b600062002a1582620021e8565b915062002a2283620021e8565b925082820390508181111562002a3d5762002a3c62002847565b5b92915050565b600062002a5082620021e8565b91507fffffffffffffffffffffffffffffffffffffffffffffffffffffffffffffffff820362002a855762002a8462002847565b5b600182019050919050565b62002a9b816200228f565b82525050565b600060c08201905062002ab8600083018962002383565b62002ac7602083018862002383565b62002ad6604083018762002383565b62002ae5606083018662002383565b62002af460808301856200248a565b62002b0360a083018462002a90565b979650505050505050565b600060408201905062002b2560008301856200248a565b62002b34602083018462002383565b9392505050565b7f4e6f7420656e6f756768206d6174746572000000000000000000000000000000600082015250565b600062002b73601183620025be565b915062002b808262002b3b565b602082019050919050565b6000602082019050818103600083015262002ba68162002b64565b9050919050565b7f43616c6c6572206973206e6f742074686520726967687420436f736d6f53656560008201527f6420636f6e747261637400000000000000000000000000000000000000000000602082015250565b600062002c0b602a83620025be565b915062002c188262002bad565b604082019050919050565b6000602082019050818103600083015262002c3e8162002bfc565b9050919050565b7f45746865722076616c7565206973206e6f7420656e6f75676800000000000000600082015250565b600062002c7d601983620025be565b915062002c8a8262002c45565b602082019050919050565b6000602082019050818103600083015262002cb08162002c6e565b9050919050565b7f4d61747465722062616c616e6365206973206e6f7420656e6f75676800000000600082015250565b600062002cef601c83620025be565b915062002cfc8262002cb7565b602082019050919050565b6000602082019050818103600083015262002d228162002ce0565b9050919050565b600060a08201905062002d40600083018862002383565b62002d4f602083018762002383565b62002d5e60408301866200248a565b62002d6d60608301856200248a565b62002d7c608083018462002a90565b969550505050505056fe60806040523480156200001157600080fd5b5060405162000daa38038062000daa833981810160405281019062000037919062000283565b85600080018190555084600060010181905550836000600201819055508260006003018190555030600060040160006101000a81548173ffffffffffffffffffffffffffffffffffffffff021916908373ffffffffffffffffffffffffffffffffffffffff16021790555033600060050160006101000a81548173ffffffffffffffffffffffffffffffffffffffff021916908373ffffffffffffffffffffffffffffffffffffffff16021790555080600060060181905550600060050160009054906101000a900473ffffffffffffffffffffffffffffffffffffffff16600860006101000a81548173ffffffffffffffffffffffffffffffffffffffff021916908373ffffffffffffffffffffffffffffffffffffffff16021790555081600960006101000a81548173ffffffffffffffffffffffffffffffffffffffff021916908373ffffffffffffffffffffffffffffffffffffffff1602179055505050505050506200031f565b600080fd5b6000819050919050565b620001bd81620001a8565b8114620001c957600080fd5b50565b600081519050620001dd81620001b2565b92915050565b600073ffffffffffffffffffffffffffffffffffffffff82169050919050565b60006200021082620001e3565b9050919050565b620002228162000203565b81146200022e57600080fd5b50565b600081519050620002428162000217565b92915050565b6000819050919050565b6200025d8162000248565b81146200026957600080fd5b50565b6000815190506200027d8162000252565b92915050565b60008060008060008060c08789031215620002a357620002a2620001a3565b5b6000620002b389828a01620001cc565b9650506020620002c689828a01620001cc565b9550506040620002d989828a01620001cc565b9450506060620002ec89828a01620001cc565b9350506080620002ff89828a0162000231565b92505060a06200031289828a016200026c565b9150509295509295509295565b610a7b806200032f6000396000f3fe608060405234801561001057600080fd5b506004361061002b5760003560e01c806327ac1b6514610030575b600080fd5b61004a60048036038101906100459190610587565b61004c565b005b60011515600060070160003373ffffffffffffffffffffffffffffffffffffffff1673ffffffffffffffffffffffffffffffffffffffff16815260200190815260200160002060009054906101000a900460ff161515036100e2576040517f08c379a00000000000000000000000000000000000000000000000000000000081526004016100d99061068b565b60405180910390fd5b6000806002015411610129576040517f08c379a0000000000000000000000000000000000000000000000000000000008152600401610120906106f7565b60405180910390fd5b6101328361030f565b50600960009054906101000a900473ffffffffffffffffffffffffffffffffffffffff1673ffffffffffffffffffffffffffffffffffffffff16639cee22b13360008001546000600301546000600201546040518563ffffffff1660e01b81526004016101a29493929190610771565b6020604051808303816000875af11580156101c1573d6000803e3d6000fd5b505050506040513d601f19601f820116820180604052508101906101e591906107ee565b5060006003015460006002016000828254610200919061084a565b925050819055506001600060070160003373ffffffffffffffffffffffffffffffffffffffff1673ffffffffffffffffffffffffffffffffffffffff16815260200190815260200160002060006101000a81548160ff021916908315150217905550600860009054906101000a900473ffffffffffffffffffffffffffffffffffffffff1673ffffffffffffffffffffffffffffffffffffffff16639202c1ec60006001015484846040518463ffffffff1660e01b81526004016102c693929190610941565b6020604051808303816000875af11580156102e5573d6000803e3d6000fd5b505050506040513d601f19601f8201168201806040525081019061030991906107ee565b50505050565b6000808260405160200161032391906109c2565b6040516020818303038152906040528051906020012090506000600601548114610382576040517f08c379a000000000000000000000000000000000000000000000000000000000815260040161037990610a25565b60405180910390fd5b6001915050919050565b6000604051905090565b600080fd5b600080fd5b600080fd5b600080fd5b6000601f19601f8301169050919050565b7f4e487b7100000000000000000000000000000000000000000000000000000000600052604160045260246000fd5b6103f3826103aa565b810181811067ffffffffffffffff82111715610412576104116103bb565b5b80604052505050565b600061042561038c565b905061043182826103ea565b919050565b600067ffffffffffffffff821115610451576104506103bb565b5b61045a826103aa565b9050602081019050919050565b82818337600083830152505050565b600061048961048484610436565b61041b565b9050828152602081018484840111156104a5576104a46103a5565b5b6104b0848285610467565b509392505050565b600082601f8301126104cd576104cc6103a0565b5b81356104dd848260208601610476565b91505092915050565b600067ffffffffffffffff821115610501576105006103bb565b5b61050a826103aa565b9050602081019050919050565b600061052a610525846104e6565b61041b565b905082815260208101848484011115610546576105456103a5565b5b610551848285610467565b509392505050565b600082601f83011261056e5761056d6103a0565b5b813561057e848260208601610517565b91505092915050565b6000806000606084860312156105a05761059f610396565b5b600084013567ffffffffffffffff8111156105be576105bd61039b565b5b6105ca868287016104b8565b935050602084013567ffffffffffffffff8111156105eb576105ea61039b565b5b6105f7868287016104b8565b925050604084013567ffffffffffffffff8111156106185761061761039b565b5b61062486828701610559565b9150509250925092565b600082825260208201905092915050565b7f43616e206f6e6c792064726177206f6e63650000000000000000000000000000600082015250565b600061067560128361062e565b91506106808261063f565b602082019050919050565b600060208201905081810360008301526106a481610668565b9050919050565b7f4e6f2062757474657220746f2064726177000000000000000000000000000000600082015250565b60006106e160118361062e565b91506106ec826106ab565b602082019050919050565b60006020820190508181036000830152610710816106d4565b9050919050565b600073ffffffffffffffffffffffffffffffffffffffff82169050919050565b600061074282610717565b9050919050565b61075281610737565b82525050565b6000819050919050565b61076b81610758565b82525050565b60006080820190506107866000830187610749565b6107936020830186610762565b6107a06040830185610762565b6107ad6060830184610762565b95945050505050565b60008115159050919050565b6107cb816107b6565b81146107d657600080fd5b50565b6000815190506107e8816107c2565b92915050565b60006020828403121561080457610803610396565b5b6000610812848285016107d9565b91505092915050565b7f4e487b7100000000000000000000000000000000000000000000000000000000600052601160045260246000fd5b600061085582610758565b915061086083610758565b92508282039050818111156108785761087761081b565b5b92915050565b600081519050919050565b60005b838110156108a757808201518184015260208101905061088c565b60008484015250505050565b60006108be8261087e565b6108c8818561062e565b93506108d8818560208601610889565b6108e1816103aa565b840191505092915050565b600081519050919050565b600082825260208201905092915050565b6000610913826108ec565b61091d81856108f7565b935061092d818560208601610889565b610936816103aa565b840191505092915050565b60006060820190506109566000830186610762565b818103602083015261096881856108b3565b9050818103604083015261097c8184610908565b9050949350505050565b600081905092915050565b600061099c8261087e565b6109a68185610986565b93506109b6818560208601610889565b80840191505092915050565b60006109ce8284610991565b915081905092915050565b7f496e70757420646f6573206e6f74206d61746368207365637265740000000000600082015250565b6000610a0f601b8361062e565b9150610a1a826109d9565b602082019050919050565b60006020820190508181036000830152610a3e81610a02565b905091905056fea2646970667358221220cea9116840c015711fcda7ef4fb50300af411142463ab8de13b8018e404ed0e064736f6c634300081100336080604052604051620012233803806200122383398181016040528101906200002991906200028f565b84600080018190555083600060010181905550346000600201819055508273ffffffffffffffffffffffffffffffffffffffff16638ed3df0f856040518263ffffffff1660e01b815260040162000081919062000328565b602060405180830381865afa1580156200009f573d6000803e3d6000fd5b505050506040513d601f19601f82011682018060405250810190620000c5919062000345565b60006003018190555030600060040160006101000a81548173ffffffffffffffffffffffffffffffffffffffff021916908373ffffffffffffffffffffffffffffffffffffffff16021790555082600060050160006101000a81548173ffffffffffffffffffffffffffffffffffffffff021916908373ffffffffffffffffffffffffffffffffffffffff16021790555081600060060160006101000a81548173ffffffffffffffffffffffffffffffffffffffff021916908373ffffffffffffffffffffffffffffffffffffffff16021790555080600060070181905550505050505062000377565b600080fd5b6000819050919050565b620001c981620001b4565b8114620001d557600080fd5b50565b600081519050620001e981620001be565b92915050565b600073ffffffffffffffffffffffffffffffffffffffff82169050919050565b60006200021c82620001ef565b9050919050565b6200022e816200020f565b81146200023a57600080fd5b50565b6000815190506200024e8162000223565b92915050565b6000819050919050565b620002698162000254565b81146200027557600080fd5b50565b60008151905062000289816200025e565b92915050565b600080600080600060a08688031215620002ae57620002ad620001af565b5b6000620002be88828901620001d8565b9550506020620002d188828901620001d8565b9450506040620002e4888289016200023d565b9350506060620002f7888289016200023d565b92505060806200030a8882890162000278565b9150509295509295909350565b6200032281620001b4565b82525050565b60006020820190506200033f600083018462000317565b92915050565b6000602082840312156200035e576200035d620001af565b5b60006200036e84828501620001d8565b91505092915050565b610e9c80620003876000396000f3fe608060405234801561001057600080fd5b506004361061004c5760003560e01c8063685771f4146100515780637d94792a1461006f578063956c2dc314610094578063c5d12c97146100b0575b600080fd5b6100596100ce565b6040516100669190610646565b60405180910390f35b6100776100da565b60405161008b9897969594939291906106bb565b60405180910390f35b6100ae60048036038101906100a99190610934565b610170565b005b6100b86105a4565b6040516100c59190610646565b60405180910390f35b60008060010154905090565b60008060000154908060010154908060020154908060030154908060040160009054906101000a900473ffffffffffffffffffffffffffffffffffffffff16908060050160009054906101000a900473ffffffffffffffffffffffffffffffffffffffff16908060060160009054906101000a900473ffffffffffffffffffffffffffffffffffffffff16908060070154905088565b610179836105b0565b50600060050160009054906101000a900473ffffffffffffffffffffffffffffffffffffffff1673ffffffffffffffffffffffffffffffffffffffff1663a06fc90b60008001546000600301546040518363ffffffff1660e01b81526004016101e39291906109db565b6020604051808303816000875af1158015610202573d6000803e3d6000fd5b505050506040513d601f19601f820116820180604052508101906102269190610a3c565b50600060060160009054906101000a900473ffffffffffffffffffffffffffffffffffffffff1673ffffffffffffffffffffffffffffffffffffffff1663a0e12efe83836040518363ffffffff1660e01b8152600401610287929190610b3d565b6020604051808303816000875af11580156102a6573d6000803e3d6000fd5b505050506040513d601f19601f820116820180604052508101906102ca9190610a3c565b5060008060050160009054906101000a900473ffffffffffffffffffffffffffffffffffffffff1673ffffffffffffffffffffffffffffffffffffffff166398d5fdca6040518163ffffffff1660e01b8152600401602060405180830381865afa15801561033c573d6000803e3d6000fd5b505050506040513d601f19601f820116820180604052508101906103609190610ba0565b905060008060050160009054906101000a900473ffffffffffffffffffffffffffffffffffffffff1673ffffffffffffffffffffffffffffffffffffffff16826040516103ac90610bfe565b60006040518083038185875af1925050503d80600081146103e9576040519150601f19603f3d011682016040523d82523d6000602084013e6103ee565b606091505b5050905080610432576040517f08c379a000000000000000000000000000000000000000000000000000000000815260040161042990610c5f565b60405180910390fd5b6000826000600201546104459190610cae565b905060008060060160009054906101000a900473ffffffffffffffffffffffffffffffffffffffff1673ffffffffffffffffffffffffffffffffffffffff1663836387106000600101546040518263ffffffff1660e01b81526004016104ab9190610646565b602060405180830381865afa1580156104c8573d6000803e3d6000fd5b505050506040513d601f19601f820116820180604052508101906104ec9190610d0e565b905060008173ffffffffffffffffffffffffffffffffffffffff168360405161051490610bfe565b60006040518083038185875af1925050503d8060008114610551576040519150601f19603f3d011682016040523d82523d6000602084013e610556565b606091505b505090508061059a576040517f08c379a000000000000000000000000000000000000000000000000000000000815260040161059190610d87565b60405180910390fd5b5050505050505050565b60008060030154905090565b600080826040516020016105c49190610de3565b6040516020818303038152906040528051906020012090506000600701548114610623576040517f08c379a000000000000000000000000000000000000000000000000000000000815260040161061a90610e46565b60405180910390fd5b6001915050919050565b6000819050919050565b6106408161062d565b82525050565b600060208201905061065b6000830184610637565b92915050565b600073ffffffffffffffffffffffffffffffffffffffff82169050919050565b600061068c82610661565b9050919050565b61069c81610681565b82525050565b6000819050919050565b6106b5816106a2565b82525050565b6000610100820190506106d1600083018b610637565b6106de602083018a610637565b6106eb6040830189610637565b6106f86060830188610637565b6107056080830187610693565b61071260a0830186610693565b61071f60c0830185610693565b61072c60e08301846106ac565b9998505050505050505050565b6000604051905090565b600080fd5b600080fd5b600080fd5b600080fd5b6000601f19601f8301169050919050565b7f4e487b7100000000000000000000000000000000000000000000000000000000600052604160045260246000fd5b6107a082610757565b810181811067ffffffffffffffff821117156107bf576107be610768565b5b80604052505050565b60006107d2610739565b90506107de8282610797565b919050565b600067ffffffffffffffff8211156107fe576107fd610768565b5b61080782610757565b9050602081019050919050565b82818337600083830152505050565b6000610836610831846107e3565b6107c8565b90508281526020810184848401111561085257610851610752565b5b61085d848285610814565b509392505050565b600082601f83011261087a5761087961074d565b5b813561088a848260208601610823565b91505092915050565b600067ffffffffffffffff8211156108ae576108ad610768565b5b6108b782610757565b9050602081019050919050565b60006108d76108d284610893565b6107c8565b9050828152602081018484840111156108f3576108f2610752565b5b6108fe848285610814565b509392505050565b600082601f83011261091b5761091a61074d565b5b813561092b8482602086016108c4565b91505092915050565b60008060006060848603121561094d5761094c610743565b5b600084013567ffffffffffffffff81111561096b5761096a610748565b5b61097786828701610865565b935050602084013567ffffffffffffffff81111561099857610997610748565b5b6109a486828701610865565b925050604084013567ffffffffffffffff8111156109c5576109c4610748565b5b6109d186828701610906565b9150509250925092565b60006040820190506109f06000830185610637565b6109fd6020830184610637565b9392505050565b60008115159050919050565b610a1981610a04565b8114610a2457600080fd5b50565b600081519050610a3681610a10565b92915050565b600060208284031215610a5257610a51610743565b5b6000610a6084828501610a27565b91505092915050565b600081519050919050565b600082825260208201905092915050565b60005b83811015610aa3578082015181840152602081019050610a88565b60008484015250505050565b6000610aba82610a69565b610ac48185610a74565b9350610ad4818560208601610a85565b610add81610757565b840191505092915050565b600081519050919050565b600082825260208201905092915050565b6000610b0f82610ae8565b610b198185610af3565b9350610b29818560208601610a85565b610b3281610757565b840191505092915050565b60006040820190508181036000830152610b578185610aaf565b90508181036020830152610b6b8184610b04565b90509392505050565b610b7d8161062d565b8114610b8857600080fd5b50565b600081519050610b9a81610b74565b92915050565b600060208284031215610bb657610bb5610743565b5b6000610bc484828501610b8b565b91505092915050565b600081905092915050565b50565b6000610be8600083610bcd565b9150610bf382610bd8565b600082019050919050565b6000610c0982610bdb565b9150819050919050565b7f4574686572206e6f742073656e7420746f205472656173757279000000000000600082015250565b6000610c49601a83610a74565b9150610c5482610c13565b602082019050919050565b60006020820190508181036000830152610c7881610c3c565b9050919050565b7f4e487b7100000000000000000000000000000000000000000000000000000000600052601160045260246000fd5b6000610cb98261062d565b9150610cc48361062d565b9250828203905081811115610cdc57610cdb610c7f565b5b92915050565b610ceb81610681565b8114610cf657600080fd5b50565b600081519050610d0881610ce2565b92915050565b600060208284031215610d2457610d23610743565b5b6000610d3284828501610cf9565b91505092915050565b7f4574686572206e6f742073656e7420746f20706172656e74206e757400000000600082015250565b6000610d71601c83610a74565b9150610d7c82610d3b565b602082019050919050565b60006020820190508181036000830152610da081610d64565b9050919050565b600081905092915050565b6000610dbd82610a69565b610dc78185610da7565b9350610dd7818560208601610a85565b80840191505092915050565b6000610def8284610db2565b915081905092915050565b7f496e70757420646f6573206e6f74206d61746368207365637265740000000000600082015250565b6000610e30601b83610a74565b9150610e3b82610dfa565b602082019050919050565b60006020820190508181036000830152610e5f81610e23565b905091905056fea26469706673582212205774424951426386b9611a1e5b0aa93e47c4fd30a6dbc09bfaf69009c93a401964736f6c63430008110033a264697066735822122090f8a68d87d6a74a16d303e6bdb1479777a136387aaae20f69516bf2d656402664736f6c63430008110033",
  "immutableReferences": {},
  "source": "// SPDX-License-Identifier: MIT\npragma solidity ^0.8.7;\n\nimport \"openzeppelin-solidity/contracts/utils/cryptography/ECDSA.sol\";\nimport \"./CosmoTreasury.sol\";\n\ncontract CosmoVault {\n\n    address public SYSTEM_ADDRESS;\n    address public TREASURY_ADDRESS;\n    uint256 public NUT_PRICE;\n    uint256 public NUT_RATE;\n    uint256 public NUTS_INITIAL;\n    bool public SALE_STATUS;\n\n    CosmoTreasury treasury;\n\n    using ECDSA for bytes32;\n\n    constructor(\n        address _systemAddress,\n        address _matterAddress\n    )\n    {\n        SALE_STATUS = false;\n        treasury = new CosmoTreasury(_systemAddress, _matterAddress);\n        TREASURY_ADDRESS = address(treasury);\n    }\n\n    function lightsOn() external {\n        SALE_STATUS = true;\n    }\n\n    function entityCreation(uint256 _nutPrice, uint256 _nutRate, uint256 _numNuts) external {\n        NUT_PRICE = _nutPrice;\n        NUT_RATE = _nutRate;\n        NUTS_INITIAL = _numNuts;\n    }\n\n    function calcMatterNeeded(uint256 _nutId) public view returns (uint256) {\n        return treasury.matterNeeded(_nutId);\n        //return matterNeeded(_nutId);\n    }\n\n    function giveMintBalance(uint256 _nutIndex) external {\n        treasury.assignMintBalance(TREASURY_ADDRESS, _nutIndex);\n    }\n\n    function growSeedFromNut(uint256 _seedId) public {\n        uint256 nutId = treasury.nutOfSeed(_seedId);\n        uint256 matterNeeded = calcMatterNeeded(nutId);\n        treasury.seedFromNut(_seedId, matterNeeded);\n    }\n\n    function newSeed(uint256 _nutId, bytes32 _secretHash) external {\n        treasury.spawnSeed(_nutId, _secretHash);\n    }\n\n    function newButterJar(uint256 _nutId, uint256 _matterContributed, bytes32 _secretHash) external {\n        treasury.newButter(_nutId, _matterContributed, NUT_RATE, _secretHash);\n    }\n\n    //modifier onlySystem {\n    //    require(address(msg.sender) == SYSTEM_ADDRESS, \"Caller is not system\");\n    //    _;\n    //}\n\n    //function updateSystemAddress(address _newSystemAddress) public onlySystem {\n    //    SYSTEM_ADDRESS = _newSystemAddress;\n    //}\n\n    //function updateTreasuryAddress(address _newTreasuryAddress) public onlySystem {\n    //    TREASURY_ADDRESS = _newTreasuryAddress;\n    //}\n\n    function signerAddress(bytes32 _hash, bytes memory _signature) internal pure returns (address) {\n        return _hash.recover(_signature);\n    }\n\n\n    function isVerified(bytes32 _pathHash, bytes memory _signature) external view returns (bool) {\n        // *Research* - Should you include the following \"\\x19Ethereum Signed Message:\\n32\"\n        require(signerAddress(_pathHash, _signature) == SYSTEM_ADDRESS, \"Invalid signature\");\n        return true;\n    }\n\n\n}\n",
  "sourcePath": "/home/redlentils/Seafile/Websites/avatarnft/contracts/CosmoVault.sol",
  "compiler": {
    "name": "solc",
    "version": "0.8.17+commit.8df45f5f.Emscripten.clang"
  },
  "schemaVersion": "3.4.10",
  "updatedAt": "2022-10-18T05:13:26.835Z",
  "devdoc": {
    "kind": "dev",
    "methods": {},
    "version": 1
  },
  "userdoc": {
    "kind": "user",
    "methods": {},
    "version": 1
  }
}