{
  "contractName": "CosmoBuilder",
  "abi": [
    {
      "inputs": [
        {
          "internalType": "address",
          "name": "_systemAddress",
          "type": "address"
        }
      ],
      "stateMutability": "nonpayable",
      "type": "constructor"
    },
    {
      "inputs": [],
      "name": "SYSTEM_ADDRESS",
      "outputs": [
        {
          "internalType": "address",
          "name": "",
          "type": "address"
        }
      ],
      "stateMutability": "view",
      "type": "function"
    },
    {
      "inputs": [
        {
          "internalType": "uint256",
          "name": "_id",
          "type": "uint256"
        },
        {
          "internalType": "uint256",
          "name": "_price",
          "type": "uint256"
        },
        {
          "internalType": "uint256",
          "name": "_rate",
          "type": "uint256"
        },
        {
          "internalType": "uint256",
          "name": "_amount",
          "type": "uint256"
        },
        {
          "internalType": "string",
          "name": "_name",
          "type": "string"
        },
        {
          "internalType": "string",
          "name": "_symbol",
          "type": "string"
        }
      ],
      "name": "insertSystemInfo",
      "outputs": [],
      "stateMutability": "nonpayable",
      "type": "function"
    }
  ],
  "bytecode": "0x608060405234801561001057600080fd5b506040516107f33803806107f3833981810160405281019061003291906100db565b806000806101000a81548173ffffffffffffffffffffffffffffffffffffffff021916908373ffffffffffffffffffffffffffffffffffffffff16021790555050610108565b600080fd5b600073ffffffffffffffffffffffffffffffffffffffff82169050919050565b60006100a88261007d565b9050919050565b6100b88161009d565b81146100c357600080fd5b50565b6000815190506100d5816100af565b92915050565b6000602082840312156100f1576100f0610078565b5b60006100ff848285016100c6565b91505092915050565b6106dc806101176000396000f3fe608060405234801561001057600080fd5b50600436106100365760003560e01c8063109e8c5b1461003b5780633434735f14610057575b600080fd5b6100556004803603810190610050919061029c565b610075565b005b61005f6100e8565b60405161006c91906103a2565b60405180910390f35b6000600360000160006101000a81548160ff02191690831515021790555085600360010181905550846003600201819055508360038001819055508260036004018190555081600360050190816100cc91906105d4565b5080600360060190816100df91906105d4565b50505050505050565b60008054906101000a900473ffffffffffffffffffffffffffffffffffffffff1681565b6000604051905090565b600080fd5b600080fd5b6000819050919050565b61013381610120565b811461013e57600080fd5b50565b6000813590506101508161012a565b92915050565b600080fd5b600080fd5b6000601f19601f8301169050919050565b7f4e487b7100000000000000000000000000000000000000000000000000000000600052604160045260246000fd5b6101a982610160565b810181811067ffffffffffffffff821117156101c8576101c7610171565b5b80604052505050565b60006101db61010c565b90506101e782826101a0565b919050565b600067ffffffffffffffff82111561020757610206610171565b5b61021082610160565b9050602081019050919050565b82818337600083830152505050565b600061023f61023a846101ec565b6101d1565b90508281526020810184848401111561025b5761025a61015b565b5b61026684828561021d565b509392505050565b600082601f83011261028357610282610156565b5b813561029384826020860161022c565b91505092915050565b60008060008060008060c087890312156102b9576102b8610116565b5b60006102c789828a01610141565b96505060206102d889828a01610141565b95505060406102e989828a01610141565b94505060606102fa89828a01610141565b935050608087013567ffffffffffffffff81111561031b5761031a61011b565b5b61032789828a0161026e565b92505060a087013567ffffffffffffffff8111156103485761034761011b565b5b61035489828a0161026e565b9150509295509295509295565b600073ffffffffffffffffffffffffffffffffffffffff82169050919050565b600061038c82610361565b9050919050565b61039c81610381565b82525050565b60006020820190506103b76000830184610393565b92915050565b600081519050919050565b7f4e487b7100000000000000000000000000000000000000000000000000000000600052602260045260246000fd5b6000600282049050600182168061040f57607f821691505b602082108103610422576104216103c8565b5b50919050565b60008190508160005260206000209050919050565b60006020601f8301049050919050565b600082821b905092915050565b60006008830261048a7fffffffffffffffffffffffffffffffffffffffffffffffffffffffffffffffff8261044d565b610494868361044d565b95508019841693508086168417925050509392505050565b6000819050919050565b60006104d16104cc6104c784610120565b6104ac565b610120565b9050919050565b6000819050919050565b6104eb836104b6565b6104ff6104f7826104d8565b84845461045a565b825550505050565b600090565b610514610507565b61051f8184846104e2565b505050565b5b818110156105435761053860008261050c565b600181019050610525565b5050565b601f8211156105885761055981610428565b6105628461043d565b81016020851015610571578190505b61058561057d8561043d565b830182610524565b50505b505050565b600082821c905092915050565b60006105ab6000198460080261058d565b1980831691505092915050565b60006105c4838361059a565b9150826002028217905092915050565b6105dd826103bd565b67ffffffffffffffff8111156105f6576105f5610171565b5b61060082546103f7565b61060b828285610547565b600060209050601f83116001811461063e576000841561062c578287015190505b61063685826105b8565b86555061069e565b601f19841661064c86610428565b60005b828110156106745784890151825560018201915060208501945060208101905061064f565b86831015610691578489015161068d601f89168261059a565b8355505b6001600288020188555050505b50505050505056fea264697066735822122041f5cd50c9bf02caf80cdfed7f5583f1833319b2179f09de1d3813548e56215464736f6c63430008110033",
  "immutableReferences": {},
  "source": "// SPDX-License-Identifier: MIT\npragma solidity ^0.8.7;\n\nimport \"./CosmoVault.sol\";\nimport \"./CosmoBang.sol\";\n\ncontract CosmoBuilder {\n\n    address public SYSTEM_ADDRESS;\n\n    address private vaultAddress;\n    address private cosmosAddress;\n\n    struct Cosmo {\n        bool status;\n        uint256 id;\n        uint256 price;\n        uint256 rate;\n        uint256 amount;\n        string name;\n        string symbol;\n        address location;\n        address vaultLocation;\n    }\n    Cosmo cosmo;\n    //mapping(uint256 => Cosmo) public cosmos;\n\n    //mapping(uint256 => address) bangAddressOfCosmo;\n\n    constructor(address _systemAddress) {\n        SYSTEM_ADDRESS = _systemAddress;\n    }\n\n    function insertSystemInfo(\n        uint256 _id,\n        uint256 _price,\n        uint256 _rate,\n        uint256 _amount,\n        string memory _name,\n        string memory _symbol\n    ) external {\n        cosmo.status = false;\n        cosmo.id = _id;\n        cosmo.price = _price;\n        cosmo.rate =  _rate;\n        cosmo.amount = _amount;\n        cosmo.name = _name;\n        cosmo.symbol = _symbol;\n    }\n\n    function createVault(address _matterAddress) internal returns (address) {\n        CosmoVault vault = new CosmoVault(SYSTEM_ADDRESS, _matterAddress);\n        return address(vault);\n    }\n\n\n    // This needs to utilize CosmoBang contract to move away CosmoNuts\n    /*\n    function createCosmo(\n        //uint256 _id,\n        //string memory _name,\n        //string memory _symbol,\n        //uint256 _amount,\n        address _matterAddress\n    ) external returns (address) {\n        //CosmoVault vault = new CosmoVault(SYSTEM_ADDRESS, _matterAddress);\n        vaultAddress = createVault(_matterAddress);\n\n        //CosmoBang bang = new CosmoBang(\n        //    _name, _symbol, _amount, SYSTEM_ADDRESS, vaultAddress\n        //);\n\n        //bangAddressOfCosmo[_id] = address(bang);\n\n        //bang.nutBang();\n\n        return address(bang);\n    }\n    */\n\n\n}\n",
  "sourcePath": "/home/redlentils/Seafile/Websites/avatarnft/contracts/CosmoBuilder.sol",
  "compiler": {
    "name": "solc",
    "version": "0.8.17+commit.8df45f5f.Emscripten.clang"
  },
  "schemaVersion": "3.4.10",
  "updatedAt": "2022-10-18T06:08:11.326Z",
  "devdoc": {
    "kind": "dev",
    "methods": {},
    "version": 1
  },
  "userdoc": {
    "kind": "user",
    "methods": {},
    "version": 1
  }
}