{
  "contractName": "CosmoVault",
  "abi": [
    {
      "inputs": [
        {
          "internalType": "address",
          "name": "_systemAddress",
          "type": "address"
        },
        {
          "internalType": "address",
          "name": "_matterAddress",
          "type": "address"
        }
      ],
      "stateMutability": "nonpayable",
      "type": "constructor"
    },
    {
      "inputs": [],
      "name": "NUTS_INITIAL",
      "outputs": [
        {
          "internalType": "uint256",
          "name": "",
          "type": "uint256"
        }
      ],
      "stateMutability": "view",
      "type": "function"
    },
    {
      "inputs": [],
      "name": "NUT_PRICE",
      "outputs": [
        {
          "internalType": "uint256",
          "name": "",
          "type": "uint256"
        }
      ],
      "stateMutability": "view",
      "type": "function"
    },
    {
      "inputs": [],
      "name": "NUT_RATE",
      "outputs": [
        {
          "internalType": "uint256",
          "name": "",
          "type": "uint256"
        }
      ],
      "stateMutability": "view",
      "type": "function"
    },
    {
      "inputs": [],
      "name": "SALE_STATUS",
      "outputs": [
        {
          "internalType": "bool",
          "name": "",
          "type": "bool"
        }
      ],
      "stateMutability": "view",
      "type": "function"
    },
    {
      "inputs": [],
      "name": "SYSTEM_ADDRESS",
      "outputs": [
        {
          "internalType": "address",
          "name": "",
          "type": "address"
        }
      ],
      "stateMutability": "view",
      "type": "function"
    },
    {
      "inputs": [],
      "name": "TREASURY_ADDRESS",
      "outputs": [
        {
          "internalType": "address",
          "name": "",
          "type": "address"
        }
      ],
      "stateMutability": "view",
      "type": "function"
    },
    {
      "inputs": [],
      "name": "addressOf",
      "outputs": [
        {
          "internalType": "address",
          "name": "system",
          "type": "address"
        },
        {
          "internalType": "address",
          "name": "matter",
          "type": "address"
        },
        {
          "internalType": "address",
          "name": "treasury",
          "type": "address"
        },
        {
          "internalType": "address",
          "name": "cosmos",
          "type": "address"
        }
      ],
      "stateMutability": "view",
      "type": "function"
    },
    {
      "inputs": [
        {
          "internalType": "address",
          "name": "_tokenOwner",
          "type": "address"
        },
        {
          "internalType": "uint256",
          "name": "_tokenId",
          "type": "uint256"
        }
      ],
      "name": "assignMintBalance",
      "outputs": [],
      "stateMutability": "nonpayable",
      "type": "function"
    },
    {
      "inputs": [
        {
          "internalType": "uint256",
          "name": "",
          "type": "uint256"
        }
      ],
      "name": "butterChurnedByNut",
      "outputs": [
        {
          "internalType": "uint256",
          "name": "",
          "type": "uint256"
        }
      ],
      "stateMutability": "view",
      "type": "function"
    },
    {
      "inputs": [],
      "name": "butterDeficiencyInUniverse",
      "outputs": [
        {
          "internalType": "uint256",
          "name": "",
          "type": "uint256"
        }
      ],
      "stateMutability": "view",
      "type": "function"
    },
    {
      "inputs": [
        {
          "internalType": "uint256",
          "name": "",
          "type": "uint256"
        }
      ],
      "name": "butterDeficiencyOfNut",
      "outputs": [
        {
          "internalType": "uint256",
          "name": "",
          "type": "uint256"
        }
      ],
      "stateMutability": "view",
      "type": "function"
    },
    {
      "inputs": [
        {
          "internalType": "address",
          "name": "_drawer",
          "type": "address"
        },
        {
          "internalType": "uint256",
          "name": "_butterId",
          "type": "uint256"
        },
        {
          "internalType": "uint256",
          "name": "_balance",
          "type": "uint256"
        },
        {
          "internalType": "uint256",
          "name": "_currentBalance",
          "type": "uint256"
        }
      ],
      "name": "butterDrawn",
      "outputs": [],
      "stateMutability": "nonpayable",
      "type": "function"
    },
    {
      "inputs": [],
      "name": "butterJars",
      "outputs": [
        {
          "internalType": "uint256",
          "name": "",
          "type": "uint256"
        }
      ],
      "stateMutability": "view",
      "type": "function"
    },
    {
      "inputs": [
        {
          "internalType": "uint256",
          "name": "",
          "type": "uint256"
        }
      ],
      "name": "butterLocations",
      "outputs": [
        {
          "internalType": "address",
          "name": "",
          "type": "address"
        }
      ],
      "stateMutability": "view",
      "type": "function"
    },
    {
      "inputs": [],
      "name": "butterSpread",
      "outputs": [
        {
          "internalType": "uint256",
          "name": "",
          "type": "uint256"
        }
      ],
      "stateMutability": "view",
      "type": "function"
    },
    {
      "inputs": [],
      "name": "butterWeight",
      "outputs": [
        {
          "internalType": "uint256",
          "name": "",
          "type": "uint256"
        }
      ],
      "stateMutability": "view",
      "type": "function"
    },
    {
      "inputs": [
        {
          "internalType": "uint256",
          "name": "",
          "type": "uint256"
        },
        {
          "internalType": "uint256",
          "name": "",
          "type": "uint256"
        }
      ],
      "name": "buttersOfNut",
      "outputs": [
        {
          "internalType": "uint256",
          "name": "",
          "type": "uint256"
        }
      ],
      "stateMutability": "view",
      "type": "function"
    },
    {
      "inputs": [
        {
          "internalType": "uint256",
          "name": "",
          "type": "uint256"
        }
      ],
      "name": "currentOwnerOfNut",
      "outputs": [
        {
          "internalType": "address",
          "name": "",
          "type": "address"
        }
      ],
      "stateMutability": "view",
      "type": "function"
    },
    {
      "inputs": [
        {
          "internalType": "uint256",
          "name": "",
          "type": "uint256"
        }
      ],
      "name": "isButterActive",
      "outputs": [
        {
          "internalType": "bool",
          "name": "",
          "type": "bool"
        }
      ],
      "stateMutability": "view",
      "type": "function"
    },
    {
      "inputs": [
        {
          "internalType": "uint256",
          "name": "",
          "type": "uint256"
        }
      ],
      "name": "isSeedActive",
      "outputs": [
        {
          "internalType": "bool",
          "name": "",
          "type": "bool"
        }
      ],
      "stateMutability": "view",
      "type": "function"
    },
    {
      "inputs": [
        {
          "internalType": "uint256",
          "name": "",
          "type": "uint256"
        },
        {
          "internalType": "uint256",
          "name": "",
          "type": "uint256"
        }
      ],
      "name": "isSeedOfNut",
      "outputs": [
        {
          "internalType": "bool",
          "name": "",
          "type": "bool"
        }
      ],
      "stateMutability": "view",
      "type": "function"
    },
    {
      "inputs": [
        {
          "internalType": "uint256",
          "name": "",
          "type": "uint256"
        }
      ],
      "name": "matterBalanceOfNut",
      "outputs": [
        {
          "internalType": "uint256",
          "name": "",
          "type": "uint256"
        }
      ],
      "stateMutability": "view",
      "type": "function"
    },
    {
      "inputs": [
        {
          "internalType": "uint256",
          "name": "",
          "type": "uint256"
        }
      ],
      "name": "matterMintedByNut",
      "outputs": [
        {
          "internalType": "uint256",
          "name": "",
          "type": "uint256"
        }
      ],
      "stateMutability": "view",
      "type": "function"
    },
    {
      "inputs": [
        {
          "internalType": "uint256",
          "name": "_nutId",
          "type": "uint256"
        }
      ],
      "name": "matterNeeded",
      "outputs": [
        {
          "internalType": "uint256",
          "name": "",
          "type": "uint256"
        }
      ],
      "stateMutability": "view",
      "type": "function"
    },
    {
      "inputs": [
        {
          "internalType": "uint256",
          "name": "_nutId",
          "type": "uint256"
        },
        {
          "internalType": "uint256",
          "name": "_matterContributed",
          "type": "uint256"
        },
        {
          "internalType": "uint256",
          "name": "_matterDrawRate",
          "type": "uint256"
        },
        {
          "internalType": "bytes32",
          "name": "_secretHash",
          "type": "bytes32"
        }
      ],
      "name": "newButter",
      "outputs": [],
      "stateMutability": "nonpayable",
      "type": "function"
    },
    {
      "inputs": [
        {
          "internalType": "uint256",
          "name": "_nutId",
          "type": "uint256"
        }
      ],
      "name": "numOfSeedsGrownOf",
      "outputs": [
        {
          "internalType": "uint256",
          "name": "",
          "type": "uint256"
        }
      ],
      "stateMutability": "view",
      "type": "function"
    },
    {
      "inputs": [
        {
          "internalType": "uint256",
          "name": "_nutId",
          "type": "uint256"
        }
      ],
      "name": "numOfSeedsOf",
      "outputs": [
        {
          "internalType": "uint256",
          "name": "",
          "type": "uint256"
        }
      ],
      "stateMutability": "view",
      "type": "function"
    },
    {
      "inputs": [
        {
          "internalType": "uint256",
          "name": "_nutId",
          "type": "uint256"
        }
      ],
      "name": "numberOfButterJars",
      "outputs": [
        {
          "internalType": "uint256",
          "name": "",
          "type": "uint256"
        }
      ],
      "stateMutability": "view",
      "type": "function"
    },
    {
      "inputs": [],
      "name": "nut",
      "outputs": [
        {
          "internalType": "uint256",
          "name": "price",
          "type": "uint256"
        },
        {
          "internalType": "uint256",
          "name": "rate",
          "type": "uint256"
        }
      ],
      "stateMutability": "view",
      "type": "function"
    },
    {
      "inputs": [
        {
          "internalType": "uint256",
          "name": "",
          "type": "uint256"
        }
      ],
      "name": "nutOfButter",
      "outputs": [
        {
          "internalType": "uint256",
          "name": "",
          "type": "uint256"
        }
      ],
      "stateMutability": "view",
      "type": "function"
    },
    {
      "inputs": [
        {
          "internalType": "uint256",
          "name": "",
          "type": "uint256"
        }
      ],
      "name": "nutOfSeed",
      "outputs": [
        {
          "internalType": "uint256",
          "name": "",
          "type": "uint256"
        }
      ],
      "stateMutability": "view",
      "type": "function"
    },
    {
      "inputs": [
        {
          "internalType": "uint256",
          "name": "",
          "type": "uint256"
        }
      ],
      "name": "nutsPayeeList",
      "outputs": [
        {
          "internalType": "uint256",
          "name": "",
          "type": "uint256"
        }
      ],
      "stateMutability": "view",
      "type": "function"
    },
    {
      "inputs": [
        {
          "internalType": "uint256",
          "name": "_seedId",
          "type": "uint256"
        },
        {
          "internalType": "uint256",
          "name": "_matterNeeded",
          "type": "uint256"
        }
      ],
      "name": "seedFromNut",
      "outputs": [],
      "stateMutability": "nonpayable",
      "type": "function"
    },
    {
      "inputs": [
        {
          "internalType": "uint256",
          "name": "",
          "type": "uint256"
        }
      ],
      "name": "seedLocations",
      "outputs": [
        {
          "internalType": "address",
          "name": "",
          "type": "address"
        }
      ],
      "stateMutability": "view",
      "type": "function"
    },
    {
      "inputs": [],
      "name": "seedsCreated",
      "outputs": [
        {
          "internalType": "uint256",
          "name": "",
          "type": "uint256"
        }
      ],
      "stateMutability": "view",
      "type": "function"
    },
    {
      "inputs": [
        {
          "internalType": "uint256",
          "name": "",
          "type": "uint256"
        },
        {
          "internalType": "uint256",
          "name": "",
          "type": "uint256"
        }
      ],
      "name": "seedsGrownOfNut",
      "outputs": [
        {
          "internalType": "uint256",
          "name": "",
          "type": "uint256"
        }
      ],
      "stateMutability": "view",
      "type": "function"
    },
    {
      "inputs": [
        {
          "internalType": "uint256",
          "name": "",
          "type": "uint256"
        },
        {
          "internalType": "uint256",
          "name": "",
          "type": "uint256"
        }
      ],
      "name": "seedsOfNut",
      "outputs": [
        {
          "internalType": "uint256",
          "name": "",
          "type": "uint256"
        }
      ],
      "stateMutability": "view",
      "type": "function"
    },
    {
      "inputs": [
        {
          "internalType": "uint256",
          "name": "_nutId",
          "type": "uint256"
        },
        {
          "internalType": "bytes32",
          "name": "_secretHash",
          "type": "bytes32"
        }
      ],
      "name": "spawnSeed",
      "outputs": [],
      "stateMutability": "payable",
      "type": "function"
    },
    {
      "inputs": [],
      "name": "lightsOn",
      "outputs": [],
      "stateMutability": "nonpayable",
      "type": "function"
    },
    {
      "inputs": [
        {
          "internalType": "uint256",
          "name": "_nutPrice",
          "type": "uint256"
        },
        {
          "internalType": "uint256",
          "name": "_nutRate",
          "type": "uint256"
        },
        {
          "internalType": "uint256",
          "name": "_numNuts",
          "type": "uint256"
        }
      ],
      "name": "entityCreation",
      "outputs": [],
      "stateMutability": "nonpayable",
      "type": "function"
    },
    {
      "inputs": [
        {
          "internalType": "uint256",
          "name": "_nutId",
          "type": "uint256"
        }
      ],
      "name": "calcMatterNeeded",
      "outputs": [
        {
          "internalType": "uint256",
          "name": "",
          "type": "uint256"
        }
      ],
      "stateMutability": "view",
      "type": "function"
    },
    {
      "inputs": [
        {
          "internalType": "uint256",
          "name": "_nutIndex",
          "type": "uint256"
        }
      ],
      "name": "giveMintBalance",
      "outputs": [],
      "stateMutability": "nonpayable",
      "type": "function"
    },
    {
      "inputs": [
        {
          "internalType": "uint256",
          "name": "_seedId",
          "type": "uint256"
        }
      ],
      "name": "growSeedFromNut",
      "outputs": [],
      "stateMutability": "nonpayable",
      "type": "function"
    },
    {
      "inputs": [
        {
          "internalType": "uint256",
          "name": "_nutId",
          "type": "uint256"
        },
        {
          "internalType": "bytes32",
          "name": "_secretHash",
          "type": "bytes32"
        }
      ],
      "name": "newSeed",
      "outputs": [],
      "stateMutability": "nonpayable",
      "type": "function"
    },
    {
      "inputs": [
        {
          "internalType": "uint256",
          "name": "_nutId",
          "type": "uint256"
        },
        {
          "internalType": "uint256",
          "name": "_matterContributed",
          "type": "uint256"
        },
        {
          "internalType": "bytes32",
          "name": "_secretHash",
          "type": "bytes32"
        }
      ],
      "name": "newButterJar",
      "outputs": [],
      "stateMutability": "nonpayable",
      "type": "function"
    },
    {
      "inputs": [
        {
          "internalType": "bytes32",
          "name": "_pathHash",
          "type": "bytes32"
        },
        {
          "internalType": "bytes",
          "name": "_signature",
          "type": "bytes"
        }
      ],
      "name": "isVerified",
      "outputs": [
        {
          "internalType": "bool",
          "name": "",
          "type": "bool"
        }
      ],
      "stateMutability": "view",
      "type": "function"
    }
  ],
  "bytecode": "0x6080604052600080556000600755600060085560006009556000600f553480156200002957600080fd5b506040516200600f3803806200600f83398181016040528101906200004f9190620001ac565b818181601260000160006101000a81548173ffffffffffffffffffffffffffffffffffffffff021916908373ffffffffffffffffffffffffffffffffffffffff16021790555080601260010160006101000a81548173ffffffffffffffffffffffffffffffffffffffff021916908373ffffffffffffffffffffffffffffffffffffffff16021790555030601260020160006101000a81548173ffffffffffffffffffffffffffffffffffffffff021916908373ffffffffffffffffffffffffffffffffffffffff16021790555050506000602060006101000a81548160ff0219169083151502179055505050620001f3565b600080fd5b600073ffffffffffffffffffffffffffffffffffffffff82169050919050565b6000620001748262000147565b9050919050565b620001868162000167565b81146200019257600080fd5b50565b600081519050620001a6816200017b565b92915050565b60008060408385031215620001c657620001c562000142565b5b6000620001d68582860162000195565b9250506020620001e98582860162000195565b9150509250929050565b615e0c80620002036000396000f3fe608060405260043610620002ba5760003560e01c80635e14a478116200016f578063a8a9380011620000d3578063efcdb23d1162000085578063efcdb23d1462000bc1578063f27890f21462000bf1578063f2b97ee21462000c1f578063f50d43491462000c4f578063f6317f8d1462000c93578063fe774f9d1462000cc357620002ba565b8063a8a938001462000a8f578063aef054ce1462000aa9578063b8a9736d1462000aed578063d4d810321462000b1d578063df4f5ccc1462000b61578063ea988be81462000b9157620002ba565b8063911da062116200012d578063911da062146200094a5780639578d3df14620009785780639975a8a214620009bc5780639cee22b11462000a00578063a06fc90b1462000a2e578063a83851b91462000a5c57620002ba565b80635e14a47814620008225780636b651a2c14620008505780637fcacc0e146200089457806386d3d87114620008d85780638ed3df0f146200090657620002ba565b806326342ea4116200022357806339dc84f411620001d557806339dc84f4146200069e5780633c8023ad14620006e257806347634e1c146200072657806349a6b51f146200076a5780634ffe5a6f146200079a57806353f97bc814620007de57620002ba565b806326342ea41462000544578063282adc8c14620005745780633279bd4f14620005b85780633434735f14620005fc578063347518a8146200062c57806334fc1228146200065a57620002ba565b806315d3b7a0116200027d57806315d3b7a014620003d5578063171e844114620004065780631821907a146200044a5780631c85949c146200048e5780631e0b396414620004bc57806323f526c0146200050057620002ba565b806302760a4814620002bf57806303f5de9d146200030357806307604b1a14620003315780630a82f53b14620003615780631298896e1462000391575b600080fd5b348015620002cc57600080fd5b50620002eb6004803603810190620002e5919062002d63565b62000ce3565b604051620002fa919062002db2565b60405180910390f35b3480156200031057600080fd5b506200032f600480360381019062000329919062002e0a565b62000d03565b005b3480156200033e57600080fd5b506200034962001485565b60405162000358919062002ec1565b60405180910390f35b3480156200036e57600080fd5b5062000379620014ab565b60405162000388919062002db2565b60405180910390f35b3480156200039e57600080fd5b50620003bd6004803603810190620003b7919062002ede565b620014be565b604051620003cc919062002f36565b60405180910390f35b348015620003e257600080fd5b50620003ed620014f0565b604051620003fd92919062002f53565b60405180910390f35b3480156200041357600080fd5b506200043260048036038101906200042c919062002d63565b62001502565b60405162000441919062002db2565b60405180910390f35b3480156200045757600080fd5b5062000476600480360381019062000470919062002d63565b62001522565b60405162000485919062002f36565b60405180910390f35b3480156200049b57600080fd5b50620004ba6004803603810190620004b4919062002fb1565b6200153a565b005b348015620004c957600080fd5b50620004e86004803603810190620004e2919062002ede565b620016fd565b604051620004f7919062002f36565b60405180910390f35b3480156200050d57600080fd5b506200052c600480360381019062000526919062002d63565b6200172f565b6040516200053b919062002ec1565b60405180910390f35b3480156200055157600080fd5b506200055c62001762565b6040516200056b919062002f36565b60405180910390f35b3480156200058157600080fd5b50620005a060048036038101906200059a919062002d63565b62001768565b604051620005af919062002f36565b60405180910390f35b348015620005c557600080fd5b50620005e46004803603810190620005de919062002d63565b62001788565b604051620005f3919062002f36565b60405180910390f35b3480156200060957600080fd5b5062000614620017a0565b60405162000623919062002ec1565b60405180910390f35b3480156200063957600080fd5b5062000658600480360381019062000652919062002d63565b620017c6565b005b3480156200066757600080fd5b5062000686600480360381019062000680919062002d63565b6200187e565b60405162000695919062002f36565b60405180910390f35b348015620006ab57600080fd5b50620006ca6004803603810190620006c4919062002d63565b62001892565b604051620006d9919062002ec1565b60405180910390f35b348015620006ef57600080fd5b506200070e600480360381019062000708919062002ede565b620018c5565b6040516200071d919062002f36565b60405180910390f35b3480156200073357600080fd5b506200075260048036038101906200074c919062002d63565b620018f7565b60405162000761919062002f36565b60405180910390f35b3480156200077757600080fd5b50620007826200190f565b60405162000791919062002f36565b60405180910390f35b348015620007a757600080fd5b50620007c66004803603810190620007c0919062002d63565b62001915565b604051620007d5919062002f36565b60405180910390f35b348015620007eb57600080fd5b506200080a600480360381019062000804919062002ede565b6200192d565b60405162000819919062002db2565b60405180910390f35b3480156200082f57600080fd5b506200084e600480360381019062000848919062002ff8565b6200195c565b005b3480156200085d57600080fd5b506200087c600480360381019062000876919062002d63565b62001976565b6040516200088b919062002f36565b60405180910390f35b348015620008a157600080fd5b50620008c06004803603810190620008ba9190620031b6565b62001996565b604051620008cf919062002db2565b60405180910390f35b348015620008e557600080fd5b50620009046004803603810190620008fe91906200321c565b62001a40565b005b3480156200091357600080fd5b506200093260048036038101906200092c919062002d63565b62001ad7565b60405162000941919062002f36565b60405180910390f35b3480156200095757600080fd5b5062000976600480360381019062000970919062003263565b62001af2565b005b3480156200098557600080fd5b50620009a460048036038101906200099e919062002d63565b62001b90565b604051620009b3919062002f36565b60405180910390f35b348015620009c957600080fd5b50620009e86004803603810190620009e2919062002d63565b62001bb5565b604051620009f7919062002f36565b60405180910390f35b34801562000a0d57600080fd5b5062000a2c600480360381019062000a269190620032bf565b62001bd5565b005b34801562000a3b57600080fd5b5062000a5a600480360381019062000a54919062002ede565b62001d08565b005b34801562000a6957600080fd5b5062000a7462001fb7565b60405162000a86949392919062003331565b60405180910390f35b34801562000a9c57600080fd5b5062000aa762002055565b005b34801562000ab657600080fd5b5062000ad5600480360381019062000acf919062002d63565b62002072565b60405162000ae4919062002ec1565b60405180910390f35b34801562000afa57600080fd5b5062000b05620020a5565b60405162000b14919062002f36565b60405180910390f35b34801562000b2a57600080fd5b5062000b49600480360381019062000b43919062002d63565b620020ab565b60405162000b58919062002f36565b60405180910390f35b34801562000b6e57600080fd5b5062000b79620020c3565b60405162000b88919062002f36565b60405180910390f35b34801562000b9e57600080fd5b5062000ba9620020c9565b60405162000bb8919062002f36565b60405180910390f35b34801562000bce57600080fd5b5062000bd9620020cf565b60405162000be8919062002f36565b60405180910390f35b34801562000bfe57600080fd5b5062000c1d600480360381019062000c17919062002d63565b620020d5565b005b34801562000c2c57600080fd5b5062000c3762002221565b60405162000c46919062002f36565b60405180910390f35b34801562000c5c57600080fd5b5062000c7b600480360381019062000c75919062002d63565b62002227565b60405162000c8a919062002f36565b60405180910390f35b34801562000ca057600080fd5b5062000cab6200223f565b60405162000cba919062002f36565b60405180910390f35b62000ce1600480360381019062000cdb91906200321c565b62002245565b005b60116020528060005260406000206000915054906101000a900460ff1681565b60006018600086815260200190815260200160002060009054906101000a900473ffffffffffffffffffffffffffffffffffffffff1690503373ffffffffffffffffffffffffffffffffffffffff168173ffffffffffffffffffffffffffffffffffffffff161462000dac576040517f08c379a000000000000000000000000000000000000000000000000000000000815260040162000da390620033df565b60405180910390fd5b836019600087815260200190815260200160002054101562000e05576040517f08c379a000000000000000000000000000000000000000000000000000000000815260040162000dfc9062003451565b60405180910390fd5b6000601260010160009054906101000a900473ffffffffffffffffffffffffffffffffffffffff1690508073ffffffffffffffffffffffffffffffffffffffff166370a08231836040518263ffffffff1660e01b815260040162000e6a919062002ec1565b602060405180830381865afa15801562000e88573d6000803e3d6000fd5b505050506040513d601f19601f8201168201806040525081019062000eae91906200348a565b85111562000ef3576040517f08c379a000000000000000000000000000000000000000000000000000000000815260040162000eea906200350c565b60405180910390fd5b6000848662000f0391906200355d565b1462000f46576040517f08c379a000000000000000000000000000000000000000000000000000000000815260040162000f3d90620035e5565b60405180910390fd5b600062000f538762001976565b111562000fcb5784600f600082825462000f6e919062003636565b925050819055508460106000888152602001908152602001600020600082825462000f9a919062003636565b92505081905550601a8690806001815401808255809150506001900390600052602060002001600090919091909150555b60008173ffffffffffffffffffffffffffffffffffffffff166370a08231601260020160009054906101000a900473ffffffffffffffffffffffffffffffffffffffff166040518263ffffffff1660e01b81526004016200102d919062002ec1565b602060405180830381865afa1580156200104b573d6000803e3d6000fd5b505050506040513d601f19601f820116820180604052508101906200107191906200348a565b90506000811115620013795760006200108d82600f54620024ef565b90506000805b828114620012cf576000601a80549050905060008103620010b55750620012cf565b80821115620010c357600092505b6000601a8481548110620010dc57620010db62003671565b5b9060005260206000200154905060006018600083815260200190815260200160002060009054906101000a900473ffffffffffffffffffffffffffffffffffffffff1690506000601660010154620011348462001976565b620011409190620036a0565b9050806019600085815260200190815260200160002054036200118857601a868154811062001174576200117362003671565b5b9060005260206000200160009055620012a5565b8873ffffffffffffffffffffffffffffffffffffffff1663a9059cbb8360016040518363ffffffff1660e01b8152600401620011c692919062003738565b6020604051808303816000875af1158015620011e6573d6000803e3d6000fd5b505050506040513d601f19601f820116820180604052508101906200120c919062003796565b50601a839080600181540180825580915050600190039060005260206000200160009091909190915055601a86815481106200124d576200124c62003671565b5b90600052602060002001600090556001600f6000828254620012709190620037c8565b9250508190555060016010600085815260200190815260200160002060008282546200129d9190620037c8565b925050819055505b8580620012b29062003803565b965050505050508080620012c69062003803565b91505062001093565b508373ffffffffffffffffffffffffffffffffffffffff166370a08231601260020160009054906101000a900473ffffffffffffffffffffffffffffffffffffffff166040518263ffffffff1660e01b815260040162001330919062002ec1565b602060405180830381865afa1580156200134e573d6000803e3d6000fd5b505050506040513d601f19601f820116820180604052508101906200137491906200348a565b925050505b6000600954888888601260020160009054906101000a900473ffffffffffffffffffffffffffffffffffffffff1689604051620013b69062002cf8565b620013c79695949392919062003861565b604051809103906000f080158015620013e4573d6000803e3d6000fd5b5090508273ffffffffffffffffffffffffffffffffffffffff1663a9059cbb82896040518363ffffffff1660e01b815260040162001424929190620038ce565b6020604051808303816000875af115801562001444573d6000803e3d6000fd5b505050506040513d601f19601f820116820180604052508101906200146a919062003796565b506200147b88600954838a6200250a565b5050505050505050565b601c60009054906101000a900473ffffffffffffffffffffffffffffffffffffffff1681565b602060009054906101000a900460ff1681565b60026020528160005260406000208181548110620014db57600080fd5b90600052602060002001600091509150505481565b60168060000154908060010154905082565b60066020528060005260406000206000915054906101000a900460ff1681565b600d6020528060005260406000206000915090505481565b6000601260010160009054906101000a900473ffffffffffffffffffffffffffffffffffffffff1690506016600101548173ffffffffffffffffffffffffffffffffffffffff166370a08231601260020160009054906101000a900473ffffffffffffffffffffffffffffffffffffffff166040518263ffffffff1660e01b8152600401620015ca919062002ec1565b602060405180830381865afa158015620015e8573d6000803e3d6000fd5b505050506040513d601f19601f820116820180604052508101906200160e91906200348a565b101562001652576040517f08c379a000000000000000000000000000000000000000000000000000000000815260040162001649906200394b565b60405180910390fd5b8073ffffffffffffffffffffffffffffffffffffffff1663a9059cbb846016600101546040518363ffffffff1660e01b815260040162001694929190620038ce565b6020604051808303816000875af1158015620016b4573d6000803e3d6000fd5b505050506040513d601f19601f82011682018060405250810190620016da919062003796565b506016600101546019600084815260200190815260200160002081905550505050565b600a60205281600052604060002081815481106200171a57600080fd5b90600052602060002001600091509150505481565b60056020528060005260406000206000915054906101000a900473ffffffffffffffffffffffffffffffffffffffff1681565b60095481565b6000600a6000838152602001908152602001600020805490509050919050565b600c6020528060005260406000206000915090505481565b601b60009054906101000a900473ffffffffffffffffffffffffffffffffffffffff1681565b602060019054906101000a900473ffffffffffffffffffffffffffffffffffffffff1673ffffffffffffffffffffffffffffffffffffffff16631c85949c601c60009054906101000a900473ffffffffffffffffffffffffffffffffffffffff16836040518363ffffffff1660e01b815260040162001847929190620038ce565b600060405180830381600087803b1580156200186257600080fd5b505af115801562001877573d6000803e3d6000fd5b5050505050565b60006200188b8262001ad7565b9050919050565b60186020528060005260406000206000915054906101000a900473ffffffffffffffffffffffffffffffffffffffff1681565b60016020528160005260406000208181548110620018e257600080fd5b90600052602060002001600091509150505481565b600e6020528060005260406000206000915090505481565b60085481565b60106020528060005260406000206000915090505481565b60046020528160005260406000206020528060005260406000206000915091509054906101000a900460ff1681565b82601d8190555081601e8190555080601f81905550505050565b600060026000838152602001908152602001600020805490509050919050565b6000601b60009054906101000a900473ffffffffffffffffffffffffffffffffffffffff1673ffffffffffffffffffffffffffffffffffffffff16620019dd848462002643565b73ffffffffffffffffffffffffffffffffffffffff161462001a36576040517f08c379a000000000000000000000000000000000000000000000000000000000815260040162001a2d90620039bd565b60405180910390fd5b6001905092915050565b602060019054906101000a900473ffffffffffffffffffffffffffffffffffffffff1673ffffffffffffffffffffffffffffffffffffffff1663fe774f9d83836040518363ffffffff1660e01b815260040162001a9f929190620039df565b600060405180830381600087803b15801562001aba57600080fd5b505af115801562001acf573d6000803e3d6000fd5b505050505050565b600062001ae48262001bb5565b601660010154189050919050565b602060019054906101000a900473ffffffffffffffffffffffffffffffffffffffff1673ffffffffffffffffffffffffffffffffffffffff166303f5de9d8484601e54856040518563ffffffff1660e01b815260040162001b57949392919062003a0c565b600060405180830381600087803b15801562001b7257600080fd5b505af115801562001b87573d6000803e3d6000fd5b50505050505050565b601a818154811062001ba157600080fd5b906000526020600020016000915090505481565b600060016000838152602001908152602001600020805490509050919050565b6000601260010160009054906101000a900473ffffffffffffffffffffffffffffffffffffffff1690508073ffffffffffffffffffffffffffffffffffffffff1663a9059cbb86856040518363ffffffff1660e01b815260040162001c3c929190620038ce565b6020604051808303816000875af115801562001c5c573d6000803e3d6000fd5b505050506040513d601f19601f8201168201806040525081019062001c82919062003796565b508073ffffffffffffffffffffffffffffffffffffffff16634bbc1bcd30856040518363ffffffff1660e01b815260040162001cc0929190620038ce565b600060405180830381600087803b15801562001cdb57600080fd5b505af115801562001cf0573d6000803e3d6000fd5b5050505062001d0184848462002662565b5050505050565b60006005600084815260200190815260200160002060009054906101000a900473ffffffffffffffffffffffffffffffffffffffff1690508073ffffffffffffffffffffffffffffffffffffffff163373ffffffffffffffffffffffffffffffffffffffff161462001db1576040517f08c379a000000000000000000000000000000000000000000000000000000000815260040162001da89062003acf565b60405180910390fd5b60008190506000601860008373ffffffffffffffffffffffffffffffffffffffff1663685771f46040518163ffffffff1660e01b8152600401602060405180830381865afa15801562001e08573d6000803e3d6000fd5b505050506040513d601f19601f8201168201806040525081019062001e2e91906200348a565b815260200190815260200160002060009054906101000a900473ffffffffffffffffffffffffffffffffffffffff1690506000601260010160009054906101000a900473ffffffffffffffffffffffffffffffffffffffff1690508073ffffffffffffffffffffffffffffffffffffffff1663a9059cbb83876040518363ffffffff1660e01b815260040162001ec6929190620038ce565b6020604051808303816000875af115801562001ee6573d6000803e3d6000fd5b505050506040513d601f19601f8201168201806040525081019062001f0c919062003796565b508073ffffffffffffffffffffffffffffffffffffffff16634bbc1bcd601260020160009054906101000a900473ffffffffffffffffffffffffffffffffffffffff1660016040518363ffffffff1660e01b815260040162001f7092919062003738565b600060405180830381600087803b15801562001f8b57600080fd5b505af115801562001fa0573d6000803e3d6000fd5b5050505062001faf8662002725565b505050505050565b60128060000160009054906101000a900473ffffffffffffffffffffffffffffffffffffffff16908060010160009054906101000a900473ffffffffffffffffffffffffffffffffffffffff16908060020160009054906101000a900473ffffffffffffffffffffffffffffffffffffffff16908060030160009054906101000a900473ffffffffffffffffffffffffffffffffffffffff16905084565b6001602060006101000a81548160ff021916908315150217905550565b600b6020528060005260406000206000915054906101000a900473ffffffffffffffffffffffffffffffffffffffff1681565b601d5481565b60036020528060005260406000206000915090505481565b600f5481565b60005481565b601e5481565b6000602060019054906101000a900473ffffffffffffffffffffffffffffffffffffffff1673ffffffffffffffffffffffffffffffffffffffff1663d4d81032836040518263ffffffff1660e01b815260040162002134919062002f36565b602060405180830381865afa15801562002152573d6000803e3d6000fd5b505050506040513d601f19601f820116820180604052508101906200217891906200348a565b9050600062002187826200187e565b9050602060019054906101000a900473ffffffffffffffffffffffffffffffffffffffff1673ffffffffffffffffffffffffffffffffffffffff1663a06fc90b84836040518363ffffffff1660e01b8152600401620021e892919062002f53565b600060405180830381600087803b1580156200220357600080fd5b505af115801562002218573d6000803e3d6000fd5b50505050505050565b601f5481565b60196020528060005260406000206000915090505481565b60075481565b6000620022528362001976565b60166000015418905080341015620022a1576040517f08c379a0000000000000000000000000000000000000000000000000000000008152600401620022989062003b41565b60405180910390fd5b6000601260010160009054906101000a900473ffffffffffffffffffffffffffffffffffffffff1690506000620022d88562001ad7565b905060008273ffffffffffffffffffffffffffffffffffffffff166370a082316018600089815260200190815260200160002060009054906101000a900473ffffffffffffffffffffffffffffffffffffffff166040518263ffffffff1660e01b81526004016200234a919062002ec1565b602060405180830381865afa15801562002368573d6000803e3d6000fd5b505050506040513d601f19601f820116820180604052508101906200238e91906200348a565b905081811015620023d6576040517f08c379a0000000000000000000000000000000000000000000000000000000008152600401620023cd9062003bb3565b60405180910390fd5b60008054873088604051620023eb9062002d06565b620023fa949392919062003bd5565b604051809103906000f08015801562002417573d6000803e3d6000fd5b50905060008190506200242e8860005483620027a7565b8473ffffffffffffffffffffffffffffffffffffffff166342966c68856040518263ffffffff1660e01b815260040162002469919062002f36565b600060405180830381600087803b1580156200248457600080fd5b505af115801562002499573d6000803e3d6000fd5b505050508073ffffffffffffffffffffffffffffffffffffffff166108fc349081150290604051600060405180830381858888f19350505050158015620024e4573d6000803e3d6000fd5b505050505050505050565b600081831062002500578162002502565b825b905092915050565b6001600960008282546200251f919062003636565b9250508190555080600760008282546200253a919062003636565b92505081905550600a600085815260200190815260200160002083908060018154018082558091505060019003906000526020600020016000909190919091505580600d60008681526020019081526020016000206000828254620025a0919062003636565b9250508190555081600b600086815260200190815260200160002060006101000a81548173ffffffffffffffffffffffffffffffffffffffff021916908373ffffffffffffffffffffffffffffffffffffffff16021790555060016011600086815260200190815260200160002060006101000a81548160ff02191690831515021790555083600e60008581526020019081526020016000208190555050505050565b60006200265a8284620028d490919063ffffffff16565b905092915050565b8160076000828254620026769190620037c8565b92505081905550816008600082825462002691919062003636565b925050819055506000600e600085815260200190815260200160002054905082600c60008381526020019081526020016000206000828254620026d5919062003636565b9250508190555060008383620026ec9190620037c8565b036200271f5760006011600086815260200190815260200160002060006101000a81548160ff0219169083151502179055505b50505050565b6000600360008381526020019081526020016000205490506002600082815260200190815260200160002082908060018154018082558091505060019003906000526020600020016000909190919091505560006006600083815260200190815260200160002060006101000a81548160ff0219169083151502179055505050565b82600360008481526020019081526020016000208190555060016000848152602001908152602001600020829080600181540180825580915050600190039060005260206000200160009091909190915055600160046000848152602001908152602001600020600085815260200190815260200160002060006101000a81548160ff021916908315150217905550806005600084815260200190815260200160002060006101000a81548173ffffffffffffffffffffffffffffffffffffffff021916908373ffffffffffffffffffffffffffffffffffffffff16021790555060016000808282546200289c919062003636565b9250508190555060016006600085815260200190815260200160002060006101000a81548160ff021916908315150217905550505050565b6000806000620028e58585620028ff565b91509150620028f48162002988565b819250505092915050565b6000806041835103620029445760008060006020860151925060408601519150606086015160001a9050620029378782858562002b7f565b9450945050505062002981565b6040835103620029785760008060208501519150604085015190506200296c86838362002c95565b93509350505062002981565b60006002915091505b9250929050565b600060048111156200299f576200299e62003c22565b5b816004811115620029b557620029b462003c22565b5b031562002b7c5760016004811115620029d357620029d262003c22565b5b816004811115620029e957620029e862003c22565b5b0362002a2c576040517f08c379a000000000000000000000000000000000000000000000000000000000815260040162002a239062003ca1565b60405180910390fd5b6002600481111562002a435762002a4262003c22565b5b81600481111562002a595762002a5862003c22565b5b0362002a9c576040517f08c379a000000000000000000000000000000000000000000000000000000000815260040162002a939062003d13565b60405180910390fd5b6003600481111562002ab35762002ab262003c22565b5b81600481111562002ac95762002ac862003c22565b5b0362002b0c576040517f08c379a000000000000000000000000000000000000000000000000000000000815260040162002b039062003dab565b60405180910390fd5b60048081111562002b225762002b2162003c22565b5b81600481111562002b385762002b3762003c22565b5b0362002b7b576040517f08c379a000000000000000000000000000000000000000000000000000000000815260040162002b729062003e43565b60405180910390fd5b5b50565b6000807f7fffffffffffffffffffffffffffffff5d576e7357a4501ddfe92f46681b20a08360001c111562002bbc57600060039150915062002c8c565b601b8560ff161415801562002bd55750601c8560ff1614155b1562002be957600060049150915062002c8c565b60006001878787876040516000815260200160405260405162002c10949392919062003e83565b6020604051602081039080840390855afa15801562002c33573d6000803e3d6000fd5b505050602060405103519050600073ffffffffffffffffffffffffffffffffffffffff168173ffffffffffffffffffffffffffffffffffffffff160362002c835760006001925092505062002c8c565b80600092509250505b94509492505050565b60008060007f7fffffffffffffffffffffffffffffffffffffffffffffffffffffffffffffff60001b841690506000601b60ff8660001c901c62002cda919062003636565b905062002cea8782888562002b7f565b935093505050935093915050565b610d218062003ed183390190565b6111e58062004bf283390190565b6000604051905090565b600080fd5b600080fd5b6000819050919050565b62002d3d8162002d28565b811462002d4957600080fd5b50565b60008135905062002d5d8162002d32565b92915050565b60006020828403121562002d7c5762002d7b62002d1e565b5b600062002d8c8482850162002d4c565b91505092915050565b60008115159050919050565b62002dac8162002d95565b82525050565b600060208201905062002dc9600083018462002da1565b92915050565b6000819050919050565b62002de48162002dcf565b811462002df057600080fd5b50565b60008135905062002e048162002dd9565b92915050565b6000806000806080858703121562002e275762002e2662002d1e565b5b600062002e378782880162002d4c565b945050602062002e4a8782880162002d4c565b935050604062002e5d8782880162002d4c565b925050606062002e708782880162002df3565b91505092959194509250565b600073ffffffffffffffffffffffffffffffffffffffff82169050919050565b600062002ea98262002e7c565b9050919050565b62002ebb8162002e9c565b82525050565b600060208201905062002ed8600083018462002eb0565b92915050565b6000806040838503121562002ef85762002ef762002d1e565b5b600062002f088582860162002d4c565b925050602062002f1b8582860162002d4c565b9150509250929050565b62002f308162002d28565b82525050565b600060208201905062002f4d600083018462002f25565b92915050565b600060408201905062002f6a600083018562002f25565b62002f79602083018462002f25565b9392505050565b62002f8b8162002e9c565b811462002f9757600080fd5b50565b60008135905062002fab8162002f80565b92915050565b6000806040838503121562002fcb5762002fca62002d1e565b5b600062002fdb8582860162002f9a565b925050602062002fee8582860162002d4c565b9150509250929050565b60008060006060848603121562003014576200301362002d1e565b5b6000620030248682870162002d4c565b9350506020620030378682870162002d4c565b92505060406200304a8682870162002d4c565b9150509250925092565b600080fd5b600080fd5b6000601f19601f8301169050919050565b7f4e487b7100000000000000000000000000000000000000000000000000000000600052604160045260246000fd5b620030a9826200305e565b810181811067ffffffffffffffff82111715620030cb57620030ca6200306f565b5b80604052505050565b6000620030e062002d14565b9050620030ee82826200309e565b919050565b600067ffffffffffffffff8211156200311157620031106200306f565b5b6200311c826200305e565b9050602081019050919050565b82818337600083830152505050565b60006200314f6200314984620030f3565b620030d4565b9050828152602081018484840111156200316e576200316d62003059565b5b6200317b84828562003129565b509392505050565b600082601f8301126200319b576200319a62003054565b5b8135620031ad84826020860162003138565b91505092915050565b60008060408385031215620031d057620031cf62002d1e565b5b6000620031e08582860162002df3565b925050602083013567ffffffffffffffff81111562003204576200320362002d23565b5b620032128582860162003183565b9150509250929050565b6000806040838503121562003236576200323562002d1e565b5b6000620032468582860162002d4c565b9250506020620032598582860162002df3565b9150509250929050565b6000806000606084860312156200327f576200327e62002d1e565b5b60006200328f8682870162002d4c565b9350506020620032a28682870162002d4c565b9250506040620032b58682870162002df3565b9150509250925092565b60008060008060808587031215620032dc57620032db62002d1e565b5b6000620032ec8782880162002f9a565b9450506020620032ff8782880162002d4c565b9350506040620033128782880162002d4c565b9250506060620033258782880162002d4c565b91505092959194509250565b600060808201905062003348600083018762002eb0565b62003357602083018662002eb0565b62003366604083018562002eb0565b62003375606083018462002eb0565b95945050505050565b600082825260208201905092915050565b7f43616c6c6572206973206e6f7420746865206f776e6572000000000000000000600082015250565b6000620033c76017836200337e565b9150620033d4826200338f565b602082019050919050565b60006020820190508181036000830152620033fa81620033b8565b9050919050565b7f4e6f74206861766520656e6f756768206d617474657200000000000000000000600082015250565b6000620034396016836200337e565b9150620034468262003401565b602082019050919050565b600060208201905081810360008301526200346c816200342a565b9050919050565b600081519050620034848162002d32565b92915050565b600060208284031215620034a357620034a262002d1e565b5b6000620034b38482850162003473565b91505092915050565b7f4e6f74206869676820656e6f7567680000000000000000000000000000000000600082015250565b6000620034f4600f836200337e565b91506200350182620034bc565b602082019050919050565b600060208201905081810360008301526200352781620034e5565b9050919050565b7f4e487b7100000000000000000000000000000000000000000000000000000000600052601260045260246000fd5b60006200356a8262002d28565b9150620035778362002d28565b9250826200358a57620035896200352e565b5b828206905092915050565b7f447261772072617465206e6f7420646976697369626c65000000000000000000600082015250565b6000620035cd6017836200337e565b9150620035da8262003595565b602082019050919050565b600060208201905081810360008301526200360081620035be565b9050919050565b7f4e487b7100000000000000000000000000000000000000000000000000000000600052601160045260246000fd5b6000620036438262002d28565b9150620036508362002d28565b92508282019050808211156200366b576200366a62003607565b5b92915050565b7f4e487b7100000000000000000000000000000000000000000000000000000000600052603260045260246000fd5b6000620036ad8262002d28565b9150620036ba8362002d28565b9250828202620036ca8162002d28565b91508282048414831517620036e457620036e362003607565b5b5092915050565b6000819050919050565b6000819050919050565b6000620037206200371a6200371484620036eb565b620036f5565b62002d28565b9050919050565b6200373281620036ff565b82525050565b60006040820190506200374f600083018562002eb0565b6200375e602083018462003727565b9392505050565b620037708162002d95565b81146200377c57600080fd5b50565b600081519050620037908162003765565b92915050565b600060208284031215620037af57620037ae62002d1e565b5b6000620037bf848285016200377f565b91505092915050565b6000620037d58262002d28565b9150620037e28362002d28565b9250828203905081811115620037fd57620037fc62003607565b5b92915050565b6000620038108262002d28565b91507fffffffffffffffffffffffffffffffffffffffffffffffffffffffffffffffff820362003845576200384462003607565b5b600182019050919050565b6200385b8162002dcf565b82525050565b600060c08201905062003878600083018962002f25565b62003887602083018862002f25565b62003896604083018762002f25565b620038a5606083018662002f25565b620038b4608083018562002eb0565b620038c360a083018462003850565b979650505050505050565b6000604082019050620038e5600083018562002eb0565b620038f4602083018462002f25565b9392505050565b7f4e6f7420656e6f756768206d6174746572000000000000000000000000000000600082015250565b6000620039336011836200337e565b91506200394082620038fb565b602082019050919050565b60006020820190508181036000830152620039668162003924565b9050919050565b7f496e76616c6964207369676e6174757265000000000000000000000000000000600082015250565b6000620039a56011836200337e565b9150620039b2826200396d565b602082019050919050565b60006020820190508181036000830152620039d88162003996565b9050919050565b6000604082019050620039f6600083018562002f25565b62003a05602083018462003850565b9392505050565b600060808201905062003a23600083018762002f25565b62003a32602083018662002f25565b62003a41604083018562002f25565b62003a50606083018462003850565b95945050505050565b7f43616c6c6572206973206e6f742074686520726967687420436f736d6f53656560008201527f6420636f6e747261637400000000000000000000000000000000000000000000602082015250565b600062003ab7602a836200337e565b915062003ac48262003a59565b604082019050919050565b6000602082019050818103600083015262003aea8162003aa8565b9050919050565b7f45746865722076616c7565206973206e6f7420656e6f75676800000000000000600082015250565b600062003b296019836200337e565b915062003b368262003af1565b602082019050919050565b6000602082019050818103600083015262003b5c8162003b1a565b9050919050565b7f4d61747465722062616c616e6365206973206e6f7420656e6f75676800000000600082015250565b600062003b9b601c836200337e565b915062003ba88262003b63565b602082019050919050565b6000602082019050818103600083015262003bce8162003b8c565b9050919050565b600060808201905062003bec600083018762002f25565b62003bfb602083018662002f25565b62003c0a604083018562002eb0565b62003c19606083018462003850565b95945050505050565b7f4e487b7100000000000000000000000000000000000000000000000000000000600052602160045260246000fd5b7f45434453413a20696e76616c6964207369676e61747572650000000000000000600082015250565b600062003c896018836200337e565b915062003c968262003c51565b602082019050919050565b6000602082019050818103600083015262003cbc8162003c7a565b9050919050565b7f45434453413a20696e76616c6964207369676e6174757265206c656e67746800600082015250565b600062003cfb601f836200337e565b915062003d088262003cc3565b602082019050919050565b6000602082019050818103600083015262003d2e8162003cec565b9050919050565b7f45434453413a20696e76616c6964207369676e6174757265202773272076616c60008201527f7565000000000000000000000000000000000000000000000000000000000000602082015250565b600062003d936022836200337e565b915062003da08262003d35565b604082019050919050565b6000602082019050818103600083015262003dc68162003d84565b9050919050565b7f45434453413a20696e76616c6964207369676e6174757265202776272076616c60008201527f7565000000000000000000000000000000000000000000000000000000000000602082015250565b600062003e2b6022836200337e565b915062003e388262003dcd565b604082019050919050565b6000602082019050818103600083015262003e5e8162003e1c565b9050919050565b600060ff82169050919050565b62003e7d8162003e65565b82525050565b600060808201905062003e9a600083018762003850565b62003ea9602083018662003e72565b62003eb8604083018562003850565b62003ec7606083018462003850565b9594505050505056fe60806040523480156200001157600080fd5b5060405162000d2138038062000d21833981810160405281019062000037919062000283565b85600080018190555084600060010181905550836000600201819055508260006003018190555030600060040160006101000a81548173ffffffffffffffffffffffffffffffffffffffff021916908373ffffffffffffffffffffffffffffffffffffffff16021790555033600060050160006101000a81548173ffffffffffffffffffffffffffffffffffffffff021916908373ffffffffffffffffffffffffffffffffffffffff16021790555080600060060181905550600060050160009054906101000a900473ffffffffffffffffffffffffffffffffffffffff16600860006101000a81548173ffffffffffffffffffffffffffffffffffffffff021916908373ffffffffffffffffffffffffffffffffffffffff16021790555081600960006101000a81548173ffffffffffffffffffffffffffffffffffffffff021916908373ffffffffffffffffffffffffffffffffffffffff1602179055505050505050506200031f565b600080fd5b6000819050919050565b620001bd81620001a8565b8114620001c957600080fd5b50565b600081519050620001dd81620001b2565b92915050565b600073ffffffffffffffffffffffffffffffffffffffff82169050919050565b60006200021082620001e3565b9050919050565b620002228162000203565b81146200022e57600080fd5b50565b600081519050620002428162000217565b92915050565b6000819050919050565b6200025d8162000248565b81146200026957600080fd5b50565b6000815190506200027d8162000252565b92915050565b60008060008060008060c08789031215620002a357620002a2620001a3565b5b6000620002b389828a01620001cc565b9650506020620002c689828a01620001cc565b9550506040620002d989828a01620001cc565b9450506060620002ec89828a01620001cc565b9350506080620002ff89828a0162000231565b92505060a06200031289828a016200026c565b9150509295509295509295565b6109f2806200032f6000396000f3fe608060405234801561001057600080fd5b506004361061002b5760003560e01c806327ac1b6514610030575b600080fd5b61004a60048036038101906100459190610563565b61004c565b005b60011515600060070160003373ffffffffffffffffffffffffffffffffffffffff1673ffffffffffffffffffffffffffffffffffffffff16815260200190815260200160002060009054906101000a900460ff161515036100e2576040517f08c379a00000000000000000000000000000000000000000000000000000000081526004016100d990610667565b60405180910390fd5b6000806002015411610129576040517f08c379a0000000000000000000000000000000000000000000000000000000008152600401610120906106d3565b60405180910390fd5b610132836102eb565b50600960009054906101000a900473ffffffffffffffffffffffffffffffffffffffff1673ffffffffffffffffffffffffffffffffffffffff16639cee22b13360008001546000600301546000600201546040518563ffffffff1660e01b81526004016101a2949392919061074d565b600060405180830381600087803b1580156101bc57600080fd5b505af11580156101d0573d6000803e3d6000fd5b50505050600060030154600060020160008282546101ee91906107c1565b925050819055506001600060070160003373ffffffffffffffffffffffffffffffffffffffff1673ffffffffffffffffffffffffffffffffffffffff16815260200190815260200160002060006101000a81548160ff021916908315150217905550600860009054906101000a900473ffffffffffffffffffffffffffffffffffffffff1673ffffffffffffffffffffffffffffffffffffffff16639202c1ec60006001015484846040518463ffffffff1660e01b81526004016102b4939291906108b8565b600060405180830381600087803b1580156102ce57600080fd5b505af11580156102e2573d6000803e3d6000fd5b50505050505050565b600080826040516020016102ff9190610939565b604051602081830303815290604052805190602001209050600060060154811461035e576040517f08c379a00000000000000000000000000000000000000000000000000000000081526004016103559061099c565b60405180910390fd5b6001915050919050565b6000604051905090565b600080fd5b600080fd5b600080fd5b600080fd5b6000601f19601f8301169050919050565b7f4e487b7100000000000000000000000000000000000000000000000000000000600052604160045260246000fd5b6103cf82610386565b810181811067ffffffffffffffff821117156103ee576103ed610397565b5b80604052505050565b6000610401610368565b905061040d82826103c6565b919050565b600067ffffffffffffffff82111561042d5761042c610397565b5b61043682610386565b9050602081019050919050565b82818337600083830152505050565b600061046561046084610412565b6103f7565b90508281526020810184848401111561048157610480610381565b5b61048c848285610443565b509392505050565b600082601f8301126104a9576104a861037c565b5b81356104b9848260208601610452565b91505092915050565b600067ffffffffffffffff8211156104dd576104dc610397565b5b6104e682610386565b9050602081019050919050565b6000610506610501846104c2565b6103f7565b90508281526020810184848401111561052257610521610381565b5b61052d848285610443565b509392505050565b600082601f83011261054a5761054961037c565b5b813561055a8482602086016104f3565b91505092915050565b60008060006060848603121561057c5761057b610372565b5b600084013567ffffffffffffffff81111561059a57610599610377565b5b6105a686828701610494565b935050602084013567ffffffffffffffff8111156105c7576105c6610377565b5b6105d386828701610494565b925050604084013567ffffffffffffffff8111156105f4576105f3610377565b5b61060086828701610535565b9150509250925092565b600082825260208201905092915050565b7f43616e206f6e6c792064726177206f6e63650000000000000000000000000000600082015250565b600061065160128361060a565b915061065c8261061b565b602082019050919050565b6000602082019050818103600083015261068081610644565b9050919050565b7f4e6f2062757474657220746f2064726177000000000000000000000000000000600082015250565b60006106bd60118361060a565b91506106c882610687565b602082019050919050565b600060208201905081810360008301526106ec816106b0565b9050919050565b600073ffffffffffffffffffffffffffffffffffffffff82169050919050565b600061071e826106f3565b9050919050565b61072e81610713565b82525050565b6000819050919050565b61074781610734565b82525050565b60006080820190506107626000830187610725565b61076f602083018661073e565b61077c604083018561073e565b610789606083018461073e565b95945050505050565b7f4e487b7100000000000000000000000000000000000000000000000000000000600052601160045260246000fd5b60006107cc82610734565b91506107d783610734565b92508282039050818111156107ef576107ee610792565b5b92915050565b600081519050919050565b60005b8381101561081e578082015181840152602081019050610803565b60008484015250505050565b6000610835826107f5565b61083f818561060a565b935061084f818560208601610800565b61085881610386565b840191505092915050565b600081519050919050565b600082825260208201905092915050565b600061088a82610863565b610894818561086e565b93506108a4818560208601610800565b6108ad81610386565b840191505092915050565b60006060820190506108cd600083018661073e565b81810360208301526108df818561082a565b905081810360408301526108f3818461087f565b9050949350505050565b600081905092915050565b6000610913826107f5565b61091d81856108fd565b935061092d818560208601610800565b80840191505092915050565b60006109458284610908565b915081905092915050565b7f496e70757420646f6573206e6f74206d61746368207365637265740000000000600082015250565b6000610986601b8361060a565b915061099182610950565b602082019050919050565b600060208201905081810360008301526109b581610979565b905091905056fea2646970667358221220b804c9ce23568e39025886838774e8c8a47ef20b57024bbcb525e0012e41037f64736f6c634300081100336080604052604051620011e5380380620011e58339818101604052810190620000299190620002f4565b600033905080600760006101000a81548173ffffffffffffffffffffffffffffffffffffffff021916908373ffffffffffffffffffffffffffffffffffffffff16021790555082600860006101000a81548173ffffffffffffffffffffffffffffffffffffffff021916908373ffffffffffffffffffffffffffffffffffffffff1602179055508460008001819055508360006001018190555034600060020181905550600860009054906101000a900473ffffffffffffffffffffffffffffffffffffffff1673ffffffffffffffffffffffffffffffffffffffff166334fc1228856040518263ffffffff1660e01b81526004016200012a919062000377565b602060405180830381865afa15801562000148573d6000803e3d6000fd5b505050506040513d601f19601f820116820180604052508101906200016e919062000394565b60006003018190555030600060040160006101000a81548173ffffffffffffffffffffffffffffffffffffffff021916908373ffffffffffffffffffffffffffffffffffffffff16021790555080600060050160006101000a81548173ffffffffffffffffffffffffffffffffffffffff021916908373ffffffffffffffffffffffffffffffffffffffff160217905550816000600601819055505050505050620003c6565b600080fd5b6000819050919050565b6200022e8162000219565b81146200023a57600080fd5b50565b6000815190506200024e8162000223565b92915050565b600073ffffffffffffffffffffffffffffffffffffffff82169050919050565b6000620002818262000254565b9050919050565b620002938162000274565b81146200029f57600080fd5b50565b600081519050620002b38162000288565b92915050565b6000819050919050565b620002ce81620002b9565b8114620002da57600080fd5b50565b600081519050620002ee81620002c3565b92915050565b6000806000806080858703121562000311576200031062000214565b5b600062000321878288016200023d565b945050602062000334878288016200023d565b93505060406200034787828801620002a2565b92505060606200035a87828801620002dd565b91505092959194509250565b620003718162000219565b82525050565b60006020820190506200038e600083018462000366565b92915050565b600060208284031215620003ad57620003ac62000214565b5b6000620003bd848285016200023d565b91505092915050565b610e0f80620003d66000396000f3fe608060405234801561001057600080fd5b506004361061004c5760003560e01c8063685771f4146100515780637d94792a1461006f578063956c2dc314610093578063c5d12c97146100af575b600080fd5b6100596100cd565b6040516100669190610656565b60405180910390f35b6100776100d9565b60405161008a97969594939291906106cb565b60405180910390f35b6100ad60048036038101906100a89190610935565b610149565b005b6100b76105b4565b6040516100c49190610656565b60405180910390f35b60008060010154905090565b60008060000154908060010154908060020154908060030154908060040160009054906101000a900473ffffffffffffffffffffffffffffffffffffffff16908060050160009054906101000a900473ffffffffffffffffffffffffffffffffffffffff16908060060154905087565b610152836105c0565b50600860009054906101000a900473ffffffffffffffffffffffffffffffffffffffff1673ffffffffffffffffffffffffffffffffffffffff1663f27890f260008001546040518263ffffffff1660e01b81526004016101b29190610656565b600060405180830381600087803b1580156101cc57600080fd5b505af11580156101e0573d6000803e3d6000fd5b50505050600760009054906101000a900473ffffffffffffffffffffffffffffffffffffffff1673ffffffffffffffffffffffffffffffffffffffff1663a0e12efe83836040518363ffffffff1660e01b8152600401610241929190610ab0565b600060405180830381600087803b15801561025b57600080fd5b505af115801561026f573d6000803e3d6000fd5b505050506000600860009054906101000a900473ffffffffffffffffffffffffffffffffffffffff1673ffffffffffffffffffffffffffffffffffffffff1663b8a9736d6040518163ffffffff1660e01b8152600401602060405180830381865afa1580156102e2573d6000803e3d6000fd5b505050506040513d601f19601f820116820180604052508101906103069190610b13565b90506000600860009054906101000a900473ffffffffffffffffffffffffffffffffffffffff1673ffffffffffffffffffffffffffffffffffffffff166307604b1a6040518163ffffffff1660e01b8152600401602060405180830381865afa158015610377573d6000803e3d6000fd5b505050506040513d601f19601f8201168201806040525081019061039b9190610b6c565b73ffffffffffffffffffffffffffffffffffffffff16826040516103be90610bca565b60006040518083038185875af1925050503d80600081146103fb576040519150601f19603f3d011682016040523d82523d6000602084013e610400565b606091505b5050905080610444576040517f08c379a000000000000000000000000000000000000000000000000000000000815260040161043b90610c2b565b60405180910390fd5b6000826000600201546104579190610c7a565b90506000600760009054906101000a900473ffffffffffffffffffffffffffffffffffffffff1673ffffffffffffffffffffffffffffffffffffffff16636352211e6000600101546040518263ffffffff1660e01b81526004016104bb9190610656565b602060405180830381865afa1580156104d8573d6000803e3d6000fd5b505050506040513d601f19601f820116820180604052508101906104fc9190610b6c565b905060008173ffffffffffffffffffffffffffffffffffffffff168360405161052490610bca565b60006040518083038185875af1925050503d8060008114610561576040519150601f19603f3d011682016040523d82523d6000602084013e610566565b606091505b50509050806105aa576040517f08c379a00000000000000000000000000000000000000000000000000000000081526004016105a190610cfa565b60405180910390fd5b5050505050505050565b60008060030154905090565b600080826040516020016105d49190610d56565b6040516020818303038152906040528051906020012090506000600601548114610633576040517f08c379a000000000000000000000000000000000000000000000000000000000815260040161062a90610db9565b60405180910390fd5b6001915050919050565b6000819050919050565b6106508161063d565b82525050565b600060208201905061066b6000830184610647565b92915050565b600073ffffffffffffffffffffffffffffffffffffffff82169050919050565b600061069c82610671565b9050919050565b6106ac81610691565b82525050565b6000819050919050565b6106c5816106b2565b82525050565b600060e0820190506106e0600083018a610647565b6106ed6020830189610647565b6106fa6040830188610647565b6107076060830187610647565b61071460808301866106a3565b61072160a08301856106a3565b61072e60c08301846106bc565b98975050505050505050565b6000604051905090565b600080fd5b600080fd5b600080fd5b600080fd5b6000601f19601f8301169050919050565b7f4e487b7100000000000000000000000000000000000000000000000000000000600052604160045260246000fd5b6107a182610758565b810181811067ffffffffffffffff821117156107c0576107bf610769565b5b80604052505050565b60006107d361073a565b90506107df8282610798565b919050565b600067ffffffffffffffff8211156107ff576107fe610769565b5b61080882610758565b9050602081019050919050565b82818337600083830152505050565b6000610837610832846107e4565b6107c9565b90508281526020810184848401111561085357610852610753565b5b61085e848285610815565b509392505050565b600082601f83011261087b5761087a61074e565b5b813561088b848260208601610824565b91505092915050565b600067ffffffffffffffff8211156108af576108ae610769565b5b6108b882610758565b9050602081019050919050565b60006108d86108d384610894565b6107c9565b9050828152602081018484840111156108f4576108f3610753565b5b6108ff848285610815565b509392505050565b600082601f83011261091c5761091b61074e565b5b813561092c8482602086016108c5565b91505092915050565b60008060006060848603121561094e5761094d610744565b5b600084013567ffffffffffffffff81111561096c5761096b610749565b5b61097886828701610866565b935050602084013567ffffffffffffffff81111561099957610998610749565b5b6109a586828701610866565b925050604084013567ffffffffffffffff8111156109c6576109c5610749565b5b6109d286828701610907565b9150509250925092565b600081519050919050565b600082825260208201905092915050565b60005b83811015610a165780820151818401526020810190506109fb565b60008484015250505050565b6000610a2d826109dc565b610a3781856109e7565b9350610a478185602086016109f8565b610a5081610758565b840191505092915050565b600081519050919050565b600082825260208201905092915050565b6000610a8282610a5b565b610a8c8185610a66565b9350610a9c8185602086016109f8565b610aa581610758565b840191505092915050565b60006040820190508181036000830152610aca8185610a22565b90508181036020830152610ade8184610a77565b90509392505050565b610af08161063d565b8114610afb57600080fd5b50565b600081519050610b0d81610ae7565b92915050565b600060208284031215610b2957610b28610744565b5b6000610b3784828501610afe565b91505092915050565b610b4981610691565b8114610b5457600080fd5b50565b600081519050610b6681610b40565b92915050565b600060208284031215610b8257610b81610744565b5b6000610b9084828501610b57565b91505092915050565b600081905092915050565b50565b6000610bb4600083610b99565b9150610bbf82610ba4565b600082019050919050565b6000610bd582610ba7565b9150819050919050565b7f4574686572206e6f742073656e7420746f205472656173757279000000000000600082015250565b6000610c15601a836109e7565b9150610c2082610bdf565b602082019050919050565b60006020820190508181036000830152610c4481610c08565b9050919050565b7f4e487b7100000000000000000000000000000000000000000000000000000000600052601160045260246000fd5b6000610c858261063d565b9150610c908361063d565b9250828203905081811115610ca857610ca7610c4b565b5b92915050565b7f4574686572206e6f742073656e7420746f20706172656e74206e757400000000600082015250565b6000610ce4601c836109e7565b9150610cef82610cae565b602082019050919050565b60006020820190508181036000830152610d1381610cd7565b9050919050565b600081905092915050565b6000610d30826109dc565b610d3a8185610d1a565b9350610d4a8185602086016109f8565b80840191505092915050565b6000610d628284610d25565b915081905092915050565b7f496e70757420646f6573206e6f74206d61746368207365637265740000000000600082015250565b6000610da3601b836109e7565b9150610dae82610d6d565b602082019050919050565b60006020820190508181036000830152610dd281610d96565b905091905056fea264697066735822122047221398875ef23bef05aaa7d49b4a396ddd5d77b7bcee4b63c05f04ac86399e64736f6c63430008110033a26469706673582212208bddb3d9483a74bd563dc42efcc154961fad7443044da82a9d38a0ea9d0bcf7264736f6c63430008110033",
  "immutableReferences": {},
  "source": "// SPDX-License-Identifier: MIT\npragma solidity ^0.8.7;\n\nimport \"openzeppelin-solidity/contracts/utils/cryptography/ECDSA.sol\";\nimport \"./CosmoTreasury.sol\";\n\ncontract CosmoVault is CosmoTreasury {\n\n    address public SYSTEM_ADDRESS;\n    address public TREASURY_ADDRESS;\n    uint256 public NUT_PRICE;\n    uint256 public NUT_RATE;\n    uint256 public NUTS_INITIAL;\n    bool public SALE_STATUS;\n\n    CosmoTreasury treasury;\n\n    using ECDSA for bytes32;\n\n    constructor(\n        address _systemAddress,\n        address _matterAddress\n    ) CosmoTreasury(_systemAddress, _matterAddress)\n    {\n        SALE_STATUS = false;\n        //treasury = new CosmoTreasury(_systemAddress, _matterAddress);\n        //TREASURY_ADDRESS = address(treasury);\n    }\n\n    function lightsOn() external {\n        SALE_STATUS = true;\n    }\n\n    function entityCreation(uint256 _nutPrice, uint256 _nutRate, uint256 _numNuts) external {\n        NUT_PRICE = _nutPrice;\n        NUT_RATE = _nutRate;\n        NUTS_INITIAL = _numNuts;\n    }\n\n    function calcMatterNeeded(uint256 _nutId) public view returns (uint256) {\n        //return treasury.matterNeeded(_nutId);\n        return matterNeeded(_nutId);\n    }\n\n    function giveMintBalance(uint256 _nutIndex) external {\n        treasury.assignMintBalance(TREASURY_ADDRESS, _nutIndex);\n    }\n\n    function growSeedFromNut(uint256 _seedId) public {\n        uint256 nutId = treasury.nutOfSeed(_seedId);\n        uint256 matterNeeded = calcMatterNeeded(nutId);\n        treasury.seedFromNut(_seedId, matterNeeded);\n    }\n\n    function newSeed(uint256 _nutId, bytes32 _secretHash) external {\n        treasury.spawnSeed(_nutId, _secretHash);\n    }\n\n    function newButterJar(uint256 _nutId, uint256 _matterContributed, bytes32 _secretHash) external {\n        treasury.newButter(_nutId, _matterContributed, NUT_RATE, _secretHash);\n    }\n\n    //modifier onlySystem {\n    //    require(address(msg.sender) == SYSTEM_ADDRESS, \"Caller is not system\");\n    //    _;\n    //}\n\n    //function updateSystemAddress(address _newSystemAddress) public onlySystem {\n    //    SYSTEM_ADDRESS = _newSystemAddress;\n    //}\n\n    //function updateTreasuryAddress(address _newTreasuryAddress) public onlySystem {\n    //    TREASURY_ADDRESS = _newTreasuryAddress;\n    //}\n\n    function signerAddress(bytes32 _hash, bytes memory _signature) internal pure returns (address) {\n        return _hash.recover(_signature);\n    }\n\n\n    function isVerified(bytes32 _pathHash, bytes memory _signature) external view returns (bool) {\n        // *Research* - Should you include the following \"\\x19Ethereum Signed Message:\\n32\"\n        require(signerAddress(_pathHash, _signature) == SYSTEM_ADDRESS, \"Invalid signature\");\n        return true;\n    }\n\n\n}\n",
  "sourcePath": "/home/redlentils/Seafile/Websites/avatarnft/contracts/CosmoVault.sol",
  "compiler": {
    "name": "solc",
    "version": "0.8.17+commit.8df45f5f.Emscripten.clang"
  },
  "schemaVersion": "3.4.10",
  "updatedAt": "2022-10-08T19:49:48.055Z",
  "devdoc": {
    "kind": "dev",
    "methods": {},
    "version": 1
  },
  "userdoc": {
    "kind": "user",
    "methods": {
      "butterDrawn(address,uint256,uint256,uint256)": {
        "notice": "Runs from CosmoButter contract when someone requests to draw matter."
      },
      "butterWeight()": {
        "notice": "butterWeight is the amount of matter in the universe that is currently outstanding. butterSpread is the amount of matter that has been distributed from butterWeight, thus reducing its value. butterJars represent the total number of matter contracts created in the Universe."
      },
      "buttersOfNut(uint256,uint256)": {
        "notice": "buttersOfNut represents a list of all butter contracts created byt that nut. butterLocations represents the address of contract identifed by butterId."
      },
      "newButter(uint256,uint256,uint256,bytes32)": {
        "notice": "Creating new butter means the creation of a contract where other users can withdraw matter from. Need to contribute butter (which can only be done if you have a Nut with the desired level of matter to give away. A secret message is provided in hash form and checked for verification to withdraw funds."
      },
      "seedFromNut(uint256,uint256)": {
        "notice": "Called from CosmoSeed contract."
      }
    },
    "version": 1
  }
}