{
  "contractName": "CosmoTreasury",
  "abi": [
    {
      "inputs": [],
      "name": "addressOf",
      "outputs": [
        {
          "internalType": "address",
          "name": "system",
          "type": "address"
        },
        {
          "internalType": "address",
          "name": "matter",
          "type": "address"
        },
        {
          "internalType": "address",
          "name": "treasury",
          "type": "address"
        },
        {
          "internalType": "address",
          "name": "cosmos",
          "type": "address"
        },
        {
          "internalType": "address",
          "name": "seedImplementation",
          "type": "address"
        },
        {
          "internalType": "address",
          "name": "butterImplementation",
          "type": "address"
        }
      ],
      "stateMutability": "view",
      "type": "function"
    },
    {
      "inputs": [
        {
          "internalType": "uint256",
          "name": "",
          "type": "uint256"
        }
      ],
      "name": "butterChurnedByNut",
      "outputs": [
        {
          "internalType": "uint256",
          "name": "",
          "type": "uint256"
        }
      ],
      "stateMutability": "view",
      "type": "function"
    },
    {
      "inputs": [],
      "name": "butterDeficiencyInUniverse",
      "outputs": [
        {
          "internalType": "uint256",
          "name": "",
          "type": "uint256"
        }
      ],
      "stateMutability": "view",
      "type": "function"
    },
    {
      "inputs": [
        {
          "internalType": "uint256",
          "name": "",
          "type": "uint256"
        }
      ],
      "name": "butterDeficiencyOfNut",
      "outputs": [
        {
          "internalType": "uint256",
          "name": "",
          "type": "uint256"
        }
      ],
      "stateMutability": "view",
      "type": "function"
    },
    {
      "inputs": [],
      "name": "butterJars",
      "outputs": [
        {
          "internalType": "uint256",
          "name": "",
          "type": "uint256"
        }
      ],
      "stateMutability": "view",
      "type": "function"
    },
    {
      "inputs": [
        {
          "internalType": "uint256",
          "name": "",
          "type": "uint256"
        }
      ],
      "name": "butterLocations",
      "outputs": [
        {
          "internalType": "address",
          "name": "",
          "type": "address"
        }
      ],
      "stateMutability": "view",
      "type": "function"
    },
    {
      "inputs": [],
      "name": "butterSpread",
      "outputs": [
        {
          "internalType": "uint256",
          "name": "",
          "type": "uint256"
        }
      ],
      "stateMutability": "view",
      "type": "function"
    },
    {
      "inputs": [],
      "name": "butterWeight",
      "outputs": [
        {
          "internalType": "uint256",
          "name": "",
          "type": "uint256"
        }
      ],
      "stateMutability": "view",
      "type": "function"
    },
    {
      "inputs": [
        {
          "internalType": "uint256",
          "name": "",
          "type": "uint256"
        },
        {
          "internalType": "uint256",
          "name": "",
          "type": "uint256"
        }
      ],
      "name": "buttersOfNut",
      "outputs": [
        {
          "internalType": "uint256",
          "name": "",
          "type": "uint256"
        }
      ],
      "stateMutability": "view",
      "type": "function"
    },
    {
      "inputs": [
        {
          "internalType": "uint256",
          "name": "",
          "type": "uint256"
        }
      ],
      "name": "currentOwnerOfNut",
      "outputs": [
        {
          "internalType": "address",
          "name": "",
          "type": "address"
        }
      ],
      "stateMutability": "view",
      "type": "function"
    },
    {
      "inputs": [
        {
          "internalType": "uint256",
          "name": "",
          "type": "uint256"
        }
      ],
      "name": "isButterActive",
      "outputs": [
        {
          "internalType": "bool",
          "name": "",
          "type": "bool"
        }
      ],
      "stateMutability": "view",
      "type": "function"
    },
    {
      "inputs": [
        {
          "internalType": "uint256",
          "name": "",
          "type": "uint256"
        }
      ],
      "name": "isSeedActive",
      "outputs": [
        {
          "internalType": "bool",
          "name": "",
          "type": "bool"
        }
      ],
      "stateMutability": "view",
      "type": "function"
    },
    {
      "inputs": [
        {
          "internalType": "uint256",
          "name": "",
          "type": "uint256"
        },
        {
          "internalType": "uint256",
          "name": "",
          "type": "uint256"
        }
      ],
      "name": "isSeedOfNut",
      "outputs": [
        {
          "internalType": "bool",
          "name": "",
          "type": "bool"
        }
      ],
      "stateMutability": "view",
      "type": "function"
    },
    {
      "inputs": [
        {
          "internalType": "uint256",
          "name": "",
          "type": "uint256"
        }
      ],
      "name": "matterBalanceOfNut",
      "outputs": [
        {
          "internalType": "uint256",
          "name": "",
          "type": "uint256"
        }
      ],
      "stateMutability": "view",
      "type": "function"
    },
    {
      "inputs": [
        {
          "internalType": "uint256",
          "name": "",
          "type": "uint256"
        }
      ],
      "name": "matterMintedByNut",
      "outputs": [
        {
          "internalType": "uint256",
          "name": "",
          "type": "uint256"
        }
      ],
      "stateMutability": "view",
      "type": "function"
    },
    {
      "inputs": [
        {
          "internalType": "uint256",
          "name": "_nutId",
          "type": "uint256"
        }
      ],
      "name": "numOfSeedsGrownOf",
      "outputs": [
        {
          "internalType": "uint256",
          "name": "",
          "type": "uint256"
        }
      ],
      "stateMutability": "view",
      "type": "function"
    },
    {
      "inputs": [
        {
          "internalType": "uint256",
          "name": "_nutId",
          "type": "uint256"
        }
      ],
      "name": "numOfSeedsOf",
      "outputs": [
        {
          "internalType": "uint256",
          "name": "",
          "type": "uint256"
        }
      ],
      "stateMutability": "view",
      "type": "function"
    },
    {
      "inputs": [
        {
          "internalType": "uint256",
          "name": "_nutId",
          "type": "uint256"
        }
      ],
      "name": "numberOfButterJars",
      "outputs": [
        {
          "internalType": "uint256",
          "name": "",
          "type": "uint256"
        }
      ],
      "stateMutability": "view",
      "type": "function"
    },
    {
      "inputs": [],
      "name": "nut",
      "outputs": [
        {
          "internalType": "uint256",
          "name": "price",
          "type": "uint256"
        },
        {
          "internalType": "uint256",
          "name": "rate",
          "type": "uint256"
        }
      ],
      "stateMutability": "view",
      "type": "function"
    },
    {
      "inputs": [
        {
          "internalType": "uint256",
          "name": "",
          "type": "uint256"
        }
      ],
      "name": "nutOfButter",
      "outputs": [
        {
          "internalType": "uint256",
          "name": "",
          "type": "uint256"
        }
      ],
      "stateMutability": "view",
      "type": "function"
    },
    {
      "inputs": [
        {
          "internalType": "uint256",
          "name": "",
          "type": "uint256"
        }
      ],
      "name": "nutOfSeed",
      "outputs": [
        {
          "internalType": "uint256",
          "name": "",
          "type": "uint256"
        }
      ],
      "stateMutability": "view",
      "type": "function"
    },
    {
      "inputs": [
        {
          "internalType": "uint256",
          "name": "",
          "type": "uint256"
        }
      ],
      "name": "nutsPayeeList",
      "outputs": [
        {
          "internalType": "uint256",
          "name": "",
          "type": "uint256"
        }
      ],
      "stateMutability": "view",
      "type": "function"
    },
    {
      "inputs": [
        {
          "internalType": "uint256",
          "name": "",
          "type": "uint256"
        }
      ],
      "name": "seedLocations",
      "outputs": [
        {
          "internalType": "address",
          "name": "",
          "type": "address"
        }
      ],
      "stateMutability": "view",
      "type": "function"
    },
    {
      "inputs": [],
      "name": "seedsCreated",
      "outputs": [
        {
          "internalType": "uint256",
          "name": "",
          "type": "uint256"
        }
      ],
      "stateMutability": "view",
      "type": "function"
    },
    {
      "inputs": [
        {
          "internalType": "uint256",
          "name": "",
          "type": "uint256"
        },
        {
          "internalType": "uint256",
          "name": "",
          "type": "uint256"
        }
      ],
      "name": "seedsGrownOfNut",
      "outputs": [
        {
          "internalType": "uint256",
          "name": "",
          "type": "uint256"
        }
      ],
      "stateMutability": "view",
      "type": "function"
    },
    {
      "inputs": [
        {
          "internalType": "uint256",
          "name": "",
          "type": "uint256"
        },
        {
          "internalType": "uint256",
          "name": "",
          "type": "uint256"
        }
      ],
      "name": "seedsOfNut",
      "outputs": [
        {
          "internalType": "uint256",
          "name": "",
          "type": "uint256"
        }
      ],
      "stateMutability": "view",
      "type": "function"
    },
    {
      "inputs": [
        {
          "internalType": "address",
          "name": "_systemAddress",
          "type": "address"
        },
        {
          "internalType": "address",
          "name": "_matterAddress",
          "type": "address"
        },
        {
          "internalType": "uint256",
          "name": "_price",
          "type": "uint256"
        },
        {
          "internalType": "uint256",
          "name": "_rate",
          "type": "uint256"
        }
      ],
      "name": "initialize",
      "outputs": [],
      "stateMutability": "nonpayable",
      "type": "function"
    },
    {
      "inputs": [],
      "name": "getVaultLocation",
      "outputs": [
        {
          "internalType": "address",
          "name": "",
          "type": "address"
        }
      ],
      "stateMutability": "nonpayable",
      "type": "function"
    },
    {
      "inputs": [],
      "name": "getPrice",
      "outputs": [
        {
          "internalType": "uint256",
          "name": "",
          "type": "uint256"
        }
      ],
      "stateMutability": "view",
      "type": "function"
    },
    {
      "inputs": [
        {
          "internalType": "uint256",
          "name": "_nutId",
          "type": "uint256"
        }
      ],
      "name": "matterNeeded",
      "outputs": [
        {
          "internalType": "uint256",
          "name": "",
          "type": "uint256"
        }
      ],
      "stateMutability": "view",
      "type": "function"
    },
    {
      "inputs": [
        {
          "internalType": "uint256",
          "name": "_nutId",
          "type": "uint256"
        },
        {
          "internalType": "bytes32",
          "name": "_secretHash",
          "type": "bytes32"
        }
      ],
      "name": "spawnSeed",
      "outputs": [
        {
          "internalType": "bool",
          "name": "",
          "type": "bool"
        }
      ],
      "stateMutability": "payable",
      "type": "function"
    },
    {
      "inputs": [
        {
          "internalType": "uint256",
          "name": "_seedId",
          "type": "uint256"
        },
        {
          "internalType": "uint256",
          "name": "_matterNeeded",
          "type": "uint256"
        }
      ],
      "name": "seedFromNut",
      "outputs": [
        {
          "internalType": "bool",
          "name": "",
          "type": "bool"
        }
      ],
      "stateMutability": "nonpayable",
      "type": "function"
    },
    {
      "inputs": [
        {
          "internalType": "uint256",
          "name": "_nutId",
          "type": "uint256"
        },
        {
          "internalType": "uint256",
          "name": "_matterContributed",
          "type": "uint256"
        },
        {
          "internalType": "uint256",
          "name": "_matterDrawRate",
          "type": "uint256"
        },
        {
          "internalType": "bytes32",
          "name": "_secretHash",
          "type": "bytes32"
        }
      ],
      "name": "newButter",
      "outputs": [
        {
          "internalType": "bool",
          "name": "",
          "type": "bool"
        }
      ],
      "stateMutability": "nonpayable",
      "type": "function"
    },
    {
      "inputs": [
        {
          "internalType": "address",
          "name": "_drawer",
          "type": "address"
        },
        {
          "internalType": "uint256",
          "name": "_butterId",
          "type": "uint256"
        },
        {
          "internalType": "uint256",
          "name": "_balance",
          "type": "uint256"
        },
        {
          "internalType": "uint256",
          "name": "_currentBalance",
          "type": "uint256"
        }
      ],
      "name": "butterDrawn",
      "outputs": [
        {
          "internalType": "bool",
          "name": "",
          "type": "bool"
        }
      ],
      "stateMutability": "nonpayable",
      "type": "function"
    },
    {
      "inputs": [
        {
          "internalType": "address",
          "name": "_tokenOwner",
          "type": "address"
        },
        {
          "internalType": "uint256",
          "name": "_tokenId",
          "type": "uint256"
        }
      ],
      "name": "assignMintBalance",
      "outputs": [
        {
          "internalType": "bool",
          "name": "",
          "type": "bool"
        }
      ],
      "stateMutability": "nonpayable",
      "type": "function"
    }
  ],
  "bytecode": "0x6080604052600080556000600755600060085560006009556000600f5534801561002857600080fd5b50612f6e806100386000396000f3fe6080604052600436106102045760003560e01c806353f97bc811610118578063a83851b9116100a0578063ea988be81161006f578063ea988be8146108b7578063eb990c59146108e2578063f50d43491461090b578063f6317f8d14610948578063fe774f9d1461097357610204565b8063a83851b9146107e2578063aef054ce14610812578063d4d810321461084f578063df4f5ccc1461088c57610204565b80639578d3df116100e75780639578d3df146106c357806398d5fdca146107005780639975a8a21461072b5780639cee22b114610768578063a06fc90b146107a557610204565b806353f97bc8146105e15780636b651a2c1461061e57806375b689aa1461065b5780638ed3df0f1461068657610204565b806323f526c01161019b57806339dc84f41161016a57806339dc84f4146104c25780633c8023ad146104ff57806347634e1c1461053c57806349a6b51f146105795780634ffe5a6f146105a457610204565b806323f526c0146103e057806326342ea41461041d578063282adc8c146104485780633279bd4f1461048557610204565b8063171e8441116101d7578063171e8441146102ec5780631821907a146103295780631c85949c146103665780631e0b3964146103a357610204565b806302760a481461020957806303f5de9d146102465780631298896e1461028357806315d3b7a0146102c0575b600080fd5b34801561021557600080fd5b50610230600480360381019061022b9190612384565b6109a3565b60405161023d91906123cc565b60405180910390f35b34801561025257600080fd5b5061026d6004803603810190610268919061241d565b6109c3565b60405161027a91906123cc565b60405180910390f35b34801561028f57600080fd5b506102aa60048036038101906102a59190612484565b6110bc565b6040516102b791906124d3565b60405180910390f35b3480156102cc57600080fd5b506102d56110ed565b6040516102e39291906124ee565b60405180910390f35b3480156102f857600080fd5b50610313600480360381019061030e9190612384565b6110ff565b60405161032091906123cc565b60405180910390f35b34801561033557600080fd5b50610350600480360381019061034b9190612384565b61111f565b60405161035d91906124d3565b60405180910390f35b34801561037257600080fd5b5061038d60048036038101906103889190612575565b611137565b60405161039a91906123cc565b60405180910390f35b3480156103af57600080fd5b506103ca60048036038101906103c59190612484565b6112f4565b6040516103d791906124d3565b60405180910390f35b3480156103ec57600080fd5b5061040760048036038101906104029190612384565b611325565b60405161041491906125c4565b60405180910390f35b34801561042957600080fd5b50610432611358565b60405161043f91906124d3565b60405180910390f35b34801561045457600080fd5b5061046f600480360381019061046a9190612384565b61135e565b60405161047c91906124d3565b60405180910390f35b34801561049157600080fd5b506104ac60048036038101906104a79190612384565b61137e565b6040516104b991906124d3565b60405180910390f35b3480156104ce57600080fd5b506104e960048036038101906104e49190612384565b611396565b6040516104f691906125c4565b60405180910390f35b34801561050b57600080fd5b5061052660048036038101906105219190612484565b6113c9565b60405161053391906124d3565b60405180910390f35b34801561054857600080fd5b50610563600480360381019061055e9190612384565b6113fa565b60405161057091906124d3565b60405180910390f35b34801561058557600080fd5b5061058e611412565b60405161059b91906124d3565b60405180910390f35b3480156105b057600080fd5b506105cb60048036038101906105c69190612384565b611418565b6040516105d891906124d3565b60405180910390f35b3480156105ed57600080fd5b5061060860048036038101906106039190612484565b611430565b60405161061591906123cc565b60405180910390f35b34801561062a57600080fd5b5061064560048036038101906106409190612384565b61145f565b60405161065291906124d3565b60405180910390f35b34801561066757600080fd5b5061067061147f565b60405161067d91906125c4565b60405180910390f35b34801561069257600080fd5b506106ad60048036038101906106a89190612384565b61151c565b6040516106ba91906124d3565b60405180910390f35b3480156106cf57600080fd5b506106ea60048036038101906106e59190612384565b611535565b6040516106f791906124d3565b60405180910390f35b34801561070c57600080fd5b50610715611559565b60405161072291906124d3565b60405180910390f35b34801561073757600080fd5b50610752600480360381019061074d9190612384565b611566565b60405161075f91906124d3565b60405180910390f35b34801561077457600080fd5b5061078f600480360381019061078a91906125df565b611586565b60405161079c91906123cc565b60405180910390f35b3480156107b157600080fd5b506107cc60048036038101906107c79190612484565b6116b5565b6040516107d991906123cc565b60405180910390f35b3480156107ee57600080fd5b506107f761195a565b60405161080996959493929190612646565b60405180910390f35b34801561081e57600080fd5b5061083960048036038101906108349190612384565b611a44565b60405161084691906125c4565b60405180910390f35b34801561085b57600080fd5b5061087660048036038101906108719190612384565b611a77565b60405161088391906124d3565b60405180910390f35b34801561089857600080fd5b506108a1611a8f565b6040516108ae91906124d3565b60405180910390f35b3480156108c357600080fd5b506108cc611a95565b6040516108d991906124d3565b60405180910390f35b3480156108ee57600080fd5b50610909600480360381019061090491906126a7565b611a9b565b005b34801561091757600080fd5b50610932600480360381019061092d9190612384565b611b81565b60405161093f91906124d3565b60405180910390f35b34801561095457600080fd5b5061095d611b99565b60405161096a91906124d3565b60405180910390f35b61098d6004803603810190610988919061270e565b611b9f565b60405161099a91906123cc565b60405180910390f35b60116020528060005260406000206000915054906101000a900460ff1681565b600080601a600087815260200190815260200160002060009054906101000a900473ffffffffffffffffffffffffffffffffffffffff1690503373ffffffffffffffffffffffffffffffffffffffff168173ffffffffffffffffffffffffffffffffffffffff1614610a6a576040517f08c379a0000000000000000000000000000000000000000000000000000000008152600401610a61906127ab565b60405180910390fd5b84601b6000888152602001908152602001600020541015610ac0576040517f08c379a0000000000000000000000000000000000000000000000000000000008152600401610ab790612817565b60405180910390fd5b6000601260010160009054906101000a900473ffffffffffffffffffffffffffffffffffffffff1690508073ffffffffffffffffffffffffffffffffffffffff166370a08231836040518263ffffffff1660e01b8152600401610b2391906125c4565b602060405180830381865afa158015610b40573d6000803e3d6000fd5b505050506040513d601f19601f82011682018060405250810190610b64919061284c565b861115610ba6576040517f08c379a0000000000000000000000000000000000000000000000000000000008152600401610b9d906128c5565b60405180910390fd5b60008587610bb49190612914565b14610bf4576040517f08c379a0000000000000000000000000000000000000000000000000000000008152600401610beb90612991565b60405180910390fd5b6000610bff8861145f565b1115610c725785600f6000828254610c1791906129e0565b9250508190555085601060008981526020019081526020016000206000828254610c4191906129e0565b92505081905550601c8790806001815401808255809150506001900390600052602060002001600090919091909150555b60008173ffffffffffffffffffffffffffffffffffffffff166370a08231601260020160009054906101000a900473ffffffffffffffffffffffffffffffffffffffff166040518263ffffffff1660e01b8152600401610cd291906125c4565b602060405180830381865afa158015610cef573d6000803e3d6000fd5b505050506040513d601f19601f82011682018060405250810190610d13919061284c565b90506000811115610f51576000610d2c82600f54611ec2565b90506000805b828114610f4d576000601c80549050905060008103610d515750610f4d565b80821115610d5e57600092505b6000601c8481548110610d7457610d73612a14565b5b906000526020600020015490506000601a600083815260200190815260200160002060009054906101000a900473ffffffffffffffffffffffffffffffffffffffff1690506000601860010154610dca8461145f565b610dd49190612a43565b905080601b60008581526020019081526020016000205403610e1757601c8681548110610e0457610e03612a14565b5b9060005260206000200160009055610f28565b8873ffffffffffffffffffffffffffffffffffffffff1663a9059cbb8360016040518363ffffffff1660e01b8152600401610e53929190612aca565b6020604051808303816000875af1158015610e72573d6000803e3d6000fd5b505050506040513d601f19601f82011682018060405250810190610e969190612b1f565b50601c839080600181540180825580915050600190039060005260206000200160009091909190915055601c8681548110610ed457610ed3612a14565b5b90600052602060002001600090556001600f6000828254610ef59190612b4c565b925050819055506001601060008581526020019081526020016000206000828254610f209190612b4c565b925050819055505b8580610f3390612b80565b965050505050508080610f4590612b80565b915050610d32565b5050505b6000610f81601260050160009054906101000a900473ffffffffffffffffffffffffffffffffffffffff16611edb565b90508073ffffffffffffffffffffffffffffffffffffffff1663f8257f876009548b8b8b601260020160009054906101000a900473ffffffffffffffffffffffffffffffffffffffff168c6040518763ffffffff1660e01b8152600401610fed96959493929190612bd7565b600060405180830381600087803b15801561100757600080fd5b505af115801561101b573d6000803e3d6000fd5b505050508273ffffffffffffffffffffffffffffffffffffffff1663a9059cbb828a6040518363ffffffff1660e01b815260040161105a929190612c38565b6020604051808303816000875af1158015611079573d6000803e3d6000fd5b505050506040513d601f19601f8201168201806040525081019061109d9190612b1f565b506110ac89600954838b611faf565b6001945050505050949350505050565b600260205281600052604060002081815481106110d857600080fd5b90600052602060002001600091509150505481565b60188060000154908060010154905082565b60066020528060005260406000206000915054906101000a900460ff1681565b600d6020528060005260406000206000915090505481565b600080601260010160009054906101000a900473ffffffffffffffffffffffffffffffffffffffff1690506018600101548173ffffffffffffffffffffffffffffffffffffffff166370a08231601260020160009054906101000a900473ffffffffffffffffffffffffffffffffffffffff166040518263ffffffff1660e01b81526004016111c691906125c4565b602060405180830381865afa1580156111e3573d6000803e3d6000fd5b505050506040513d601f19601f82011682018060405250810190611207919061284c565b1015611248576040517f08c379a000000000000000000000000000000000000000000000000000000000815260040161123f90612cad565b60405180910390fd5b8073ffffffffffffffffffffffffffffffffffffffff1663a9059cbb856018600101546040518363ffffffff1660e01b8152600401611288929190612c38565b6020604051808303816000875af11580156112a7573d6000803e3d6000fd5b505050506040513d601f19601f820116820180604052508101906112cb9190612b1f565b50601860010154601b600085815260200190815260200160002081905550600191505092915050565b600a602052816000526040600020818154811061131057600080fd5b90600052602060002001600091509150505481565b60056020528060005260406000206000915054906101000a900473ffffffffffffffffffffffffffffffffffffffff1681565b60095481565b6000600a6000838152602001908152602001600020805490509050919050565b600c6020528060005260406000206000915090505481565b601a6020528060005260406000206000915054906101000a900473ffffffffffffffffffffffffffffffffffffffff1681565b600160205281600052604060002081815481106113e557600080fd5b90600052602060002001600091509150505481565b600e6020528060005260406000206000915090505481565b60085481565b60106020528060005260406000206000915090505481565b60046020528160005260406000206020528060005260406000206000915091509054906101000a900460ff1681565b600060026000838152602001908152602001600020805490509050919050565b6000601260030160009054906101000a900473ffffffffffffffffffffffffffffffffffffffff1673ffffffffffffffffffffffffffffffffffffffff16630ef8dd956040518163ffffffff1660e01b81526004016020604051808303816000875af11580156114f3573d6000803e3d6000fd5b505050506040513d601f19601f820116820180604052508101906115179190612ce2565b905090565b600061152782611566565b601860010154189050919050565b601c818154811061154557600080fd5b906000526020600020016000915090505481565b6000601860000154905090565b600060016000838152602001908152602001600020805490509050919050565b600080601260010160009054906101000a900473ffffffffffffffffffffffffffffffffffffffff1690508073ffffffffffffffffffffffffffffffffffffffff1663a9059cbb87866040518363ffffffff1660e01b81526004016115ec929190612c38565b6020604051808303816000875af115801561160b573d6000803e3d6000fd5b505050506040513d601f19601f8201168201806040525081019061162f9190612b1f565b508073ffffffffffffffffffffffffffffffffffffffff16634bbc1bcd30866040518363ffffffff1660e01b815260040161166b929190612c38565b600060405180830381600087803b15801561168557600080fd5b505af1158015611699573d6000803e3d6000fd5b505050506116a88585856120e2565b6001915050949350505050565b6000806005600085815260200190815260200160002060009054906101000a900473ffffffffffffffffffffffffffffffffffffffff1690508073ffffffffffffffffffffffffffffffffffffffff163373ffffffffffffffffffffffffffffffffffffffff161461175c576040517f08c379a000000000000000000000000000000000000000000000000000000000815260040161175390612d81565b60405180910390fd5b60008190506000601a60008373ffffffffffffffffffffffffffffffffffffffff1663685771f46040518163ffffffff1660e01b8152600401602060405180830381865afa1580156117b2573d6000803e3d6000fd5b505050506040513d601f19601f820116820180604052508101906117d6919061284c565b815260200190815260200160002060009054906101000a900473ffffffffffffffffffffffffffffffffffffffff1690506000601260010160009054906101000a900473ffffffffffffffffffffffffffffffffffffffff1690508073ffffffffffffffffffffffffffffffffffffffff1663a9059cbb83886040518363ffffffff1660e01b815260040161186c929190612c38565b6020604051808303816000875af115801561188b573d6000803e3d6000fd5b505050506040513d601f19601f820116820180604052508101906118af9190612b1f565b508073ffffffffffffffffffffffffffffffffffffffff16634bbc1bcd601260020160009054906101000a900473ffffffffffffffffffffffffffffffffffffffff1660016040518363ffffffff1660e01b8152600401611911929190612aca565b600060405180830381600087803b15801561192b57600080fd5b505af115801561193f573d6000803e3d6000fd5b5050505061194c8761219c565b600194505050505092915050565b60128060000160009054906101000a900473ffffffffffffffffffffffffffffffffffffffff16908060010160009054906101000a900473ffffffffffffffffffffffffffffffffffffffff16908060020160009054906101000a900473ffffffffffffffffffffffffffffffffffffffff16908060030160009054906101000a900473ffffffffffffffffffffffffffffffffffffffff16908060040160009054906101000a900473ffffffffffffffffffffffffffffffffffffffff16908060050160009054906101000a900473ffffffffffffffffffffffffffffffffffffffff16905086565b600b6020528060005260406000206000915054906101000a900473ffffffffffffffffffffffffffffffffffffffff1681565b60036020528060005260406000206000915090505481565b600f5481565b60005481565b83601260000160006101000a81548173ffffffffffffffffffffffffffffffffffffffff021916908373ffffffffffffffffffffffffffffffffffffffff16021790555082601260010160006101000a81548173ffffffffffffffffffffffffffffffffffffffff021916908373ffffffffffffffffffffffffffffffffffffffff16021790555030601260020160006101000a81548173ffffffffffffffffffffffffffffffffffffffff021916908373ffffffffffffffffffffffffffffffffffffffff160217905550816018600001819055508060186001018190555050505050565b601b6020528060005260406000206000915090505481565b60075481565b600080611bab8461145f565b60186000015418905080341015611bf7576040517f08c379a0000000000000000000000000000000000000000000000000000000008152600401611bee90612ded565b60405180910390fd5b6000601260010160009054906101000a900473ffffffffffffffffffffffffffffffffffffffff1690506000611c2c8661151c565b905060008273ffffffffffffffffffffffffffffffffffffffff166370a08231601a60008a815260200190815260200160002060009054906101000a900473ffffffffffffffffffffffffffffffffffffffff166040518263ffffffff1660e01b8152600401611c9c91906125c4565b602060405180830381865afa158015611cb9573d6000803e3d6000fd5b505050506040513d601f19601f82011682018060405250810190611cdd919061284c565b905081811015611d22576040517f08c379a0000000000000000000000000000000000000000000000000000000008152600401611d1990612e59565b60405180910390fd5b6000611d52601260040160009054906101000a900473ffffffffffffffffffffffffffffffffffffffff16611edb565b90508073ffffffffffffffffffffffffffffffffffffffff166348257aa46000548a30601260030160009054906101000a900473ffffffffffffffffffffffffffffffffffffffff168c6040518663ffffffff1660e01b8152600401611dbc959493929190612e79565b600060405180830381600087803b158015611dd657600080fd5b505af1158015611dea573d6000803e3d6000fd5b505050506000819050611e00896000548361221e565b8473ffffffffffffffffffffffffffffffffffffffff166342966c68856040518263ffffffff1660e01b8152600401611e3991906124d3565b600060405180830381600087803b158015611e5357600080fd5b505af1158015611e67573d6000803e3d6000fd5b505050508073ffffffffffffffffffffffffffffffffffffffff166108fc349081150290604051600060405180830381858888f19350505050158015611eb1573d6000803e3d6000fd5b506001965050505050505092915050565b6000818310611ed15781611ed3565b825b905092915050565b60006040517f3d602d80600a3d3981f3363d3d373d3d3d363d7300000000000000000000000081528260601b60148201527f5af43d82803e903d91602b57fd5bf3000000000000000000000000000000000060288201526037816000f0915050600073ffffffffffffffffffffffffffffffffffffffff168173ffffffffffffffffffffffffffffffffffffffff1603611faa576040517f08c379a0000000000000000000000000000000000000000000000000000000008152600401611fa190612f18565b60405180910390fd5b919050565b600160096000828254611fc291906129e0565b925050819055508060076000828254611fdb91906129e0565b92505081905550600a600085815260200190815260200160002083908060018154018082558091505060019003906000526020600020016000909190919091505580600d6000868152602001908152602001600020600082825461203f91906129e0565b9250508190555081600b600086815260200190815260200160002060006101000a81548173ffffffffffffffffffffffffffffffffffffffff021916908373ffffffffffffffffffffffffffffffffffffffff16021790555060016011600086815260200190815260200160002060006101000a81548160ff02191690831515021790555083600e60008581526020019081526020016000208190555050505050565b81600760008282546120f49190612b4c565b92505081905550816008600082825461210d91906129e0565b925050819055506000600e600085815260200190815260200160002054905082600c6000838152602001908152602001600020600082825461214f91906129e0565b92505081905550600083836121649190612b4c565b036121965760006011600086815260200190815260200160002060006101000a81548160ff0219169083151502179055505b50505050565b6000600360008381526020019081526020016000205490506002600082815260200190815260200160002082908060018154018082558091505060019003906000526020600020016000909190919091505560006006600083815260200190815260200160002060006101000a81548160ff0219169083151502179055505050565b82600360008481526020019081526020016000208190555060016000848152602001908152602001600020829080600181540180825580915050600190039060005260206000200160009091909190915055600160046000848152602001908152602001600020600085815260200190815260200160002060006101000a81548160ff021916908315150217905550806005600084815260200190815260200160002060006101000a81548173ffffffffffffffffffffffffffffffffffffffff021916908373ffffffffffffffffffffffffffffffffffffffff160217905550600160008082825461231191906129e0565b9250508190555060016006600085815260200190815260200160002060006101000a81548160ff021916908315150217905550505050565b600080fd5b6000819050919050565b6123618161234e565b811461236c57600080fd5b50565b60008135905061237e81612358565b92915050565b60006020828403121561239a57612399612349565b5b60006123a88482850161236f565b91505092915050565b60008115159050919050565b6123c6816123b1565b82525050565b60006020820190506123e160008301846123bd565b92915050565b6000819050919050565b6123fa816123e7565b811461240557600080fd5b50565b600081359050612417816123f1565b92915050565b6000806000806080858703121561243757612436612349565b5b60006124458782880161236f565b94505060206124568782880161236f565b93505060406124678782880161236f565b925050606061247887828801612408565b91505092959194509250565b6000806040838503121561249b5761249a612349565b5b60006124a98582860161236f565b92505060206124ba8582860161236f565b9150509250929050565b6124cd8161234e565b82525050565b60006020820190506124e860008301846124c4565b92915050565b600060408201905061250360008301856124c4565b61251060208301846124c4565b9392505050565b600073ffffffffffffffffffffffffffffffffffffffff82169050919050565b600061254282612517565b9050919050565b61255281612537565b811461255d57600080fd5b50565b60008135905061256f81612549565b92915050565b6000806040838503121561258c5761258b612349565b5b600061259a85828601612560565b92505060206125ab8582860161236f565b9150509250929050565b6125be81612537565b82525050565b60006020820190506125d960008301846125b5565b92915050565b600080600080608085870312156125f9576125f8612349565b5b600061260787828801612560565b94505060206126188782880161236f565b93505060406126298782880161236f565b925050606061263a8782880161236f565b91505092959194509250565b600060c08201905061265b60008301896125b5565b61266860208301886125b5565b61267560408301876125b5565b61268260608301866125b5565b61268f60808301856125b5565b61269c60a08301846125b5565b979650505050505050565b600080600080608085870312156126c1576126c0612349565b5b60006126cf87828801612560565b94505060206126e087828801612560565b93505060406126f18782880161236f565b92505060606127028782880161236f565b91505092959194509250565b6000806040838503121561272557612724612349565b5b60006127338582860161236f565b925050602061274485828601612408565b9150509250929050565b600082825260208201905092915050565b7f43616c6c6572206973206e6f7420746865206f776e6572000000000000000000600082015250565b600061279560178361274e565b91506127a08261275f565b602082019050919050565b600060208201905081810360008301526127c481612788565b9050919050565b7f4e6f74206861766520656e6f756768206d617474657200000000000000000000600082015250565b600061280160168361274e565b915061280c826127cb565b602082019050919050565b60006020820190508181036000830152612830816127f4565b9050919050565b60008151905061284681612358565b92915050565b60006020828403121561286257612861612349565b5b600061287084828501612837565b91505092915050565b7f4e6f74206869676820656e6f7567680000000000000000000000000000000000600082015250565b60006128af600f8361274e565b91506128ba82612879565b602082019050919050565b600060208201905081810360008301526128de816128a2565b9050919050565b7f4e487b7100000000000000000000000000000000000000000000000000000000600052601260045260246000fd5b600061291f8261234e565b915061292a8361234e565b92508261293a576129396128e5565b5b828206905092915050565b7f447261772072617465206e6f7420646976697369626c65000000000000000000600082015250565b600061297b60178361274e565b915061298682612945565b602082019050919050565b600060208201905081810360008301526129aa8161296e565b9050919050565b7f4e487b7100000000000000000000000000000000000000000000000000000000600052601160045260246000fd5b60006129eb8261234e565b91506129f68361234e565b9250828201905080821115612a0e57612a0d6129b1565b5b92915050565b7f4e487b7100000000000000000000000000000000000000000000000000000000600052603260045260246000fd5b6000612a4e8261234e565b9150612a598361234e565b9250828202612a678161234e565b91508282048414831517612a7e57612a7d6129b1565b5b5092915050565b6000819050919050565b6000819050919050565b6000612ab4612aaf612aaa84612a85565b612a8f565b61234e565b9050919050565b612ac481612a99565b82525050565b6000604082019050612adf60008301856125b5565b612aec6020830184612abb565b9392505050565b612afc816123b1565b8114612b0757600080fd5b50565b600081519050612b1981612af3565b92915050565b600060208284031215612b3557612b34612349565b5b6000612b4384828501612b0a565b91505092915050565b6000612b578261234e565b9150612b628361234e565b9250828203905081811115612b7a57612b796129b1565b5b92915050565b6000612b8b8261234e565b91507fffffffffffffffffffffffffffffffffffffffffffffffffffffffffffffffff8203612bbd57612bbc6129b1565b5b600182019050919050565b612bd1816123e7565b82525050565b600060c082019050612bec60008301896124c4565b612bf960208301886124c4565b612c0660408301876124c4565b612c1360608301866124c4565b612c2060808301856125b5565b612c2d60a0830184612bc8565b979650505050505050565b6000604082019050612c4d60008301856125b5565b612c5a60208301846124c4565b9392505050565b7f4e6f7420656e6f756768206d6174746572000000000000000000000000000000600082015250565b6000612c9760118361274e565b9150612ca282612c61565b602082019050919050565b60006020820190508181036000830152612cc681612c8a565b9050919050565b600081519050612cdc81612549565b92915050565b600060208284031215612cf857612cf7612349565b5b6000612d0684828501612ccd565b91505092915050565b7f43616c6c6572206973206e6f742074686520726967687420436f736d6f53656560008201527f6420636f6e747261637400000000000000000000000000000000000000000000602082015250565b6000612d6b602a8361274e565b9150612d7682612d0f565b604082019050919050565b60006020820190508181036000830152612d9a81612d5e565b9050919050565b7f45746865722076616c7565206973206e6f7420656e6f75676800000000000000600082015250565b6000612dd760198361274e565b9150612de282612da1565b602082019050919050565b60006020820190508181036000830152612e0681612dca565b9050919050565b7f4d61747465722062616c616e6365206973206e6f7420656e6f75676800000000600082015250565b6000612e43601c8361274e565b9150612e4e82612e0d565b602082019050919050565b60006020820190508181036000830152612e7281612e36565b9050919050565b600060a082019050612e8e60008301886124c4565b612e9b60208301876124c4565b612ea860408301866125b5565b612eb560608301856125b5565b612ec26080830184612bc8565b9695505050505050565b7f455243313136373a20637265617465206661696c656400000000000000000000600082015250565b6000612f0260168361274e565b9150612f0d82612ecc565b602082019050919050565b60006020820190508181036000830152612f3181612ef5565b905091905056fea2646970667358221220371fd1d35c558c51b2f9f0705d83dfc2023003d12982d646b2e8cc34b4780c9f64736f6c63430008110033",
  "immutableReferences": {},
  "source": "// SPDX-License-Identifier: MIT\npragma solidity ^0.8.7;\n\nimport \"openzeppelin-solidity/contracts/utils/math/Math.sol\";\nimport { Clones } from \"openzeppelin-solidity/contracts/proxy/Clones.sol\";\n\nimport \"./CosmoMatter.sol\";\nimport \"./CosmoSeed.sol\";\nimport \"./CosmoButter.sol\";\nimport \"./ICosmoTreasury.sol\";\n\nimport \"./SeedAccounts.sol\";\nimport \"./ButterAccounts.sol\";\n\n/**\n * @dev Manages the matter balance of the CosmoNuts collection and handles interaction with the\n * ERC20 Token to mint, burn, and allocate balances\n * Acts as storage for the ERC 721 tokens on their created Seed and Butter contracts.\n */\n contract CosmoTreasury is SeedAccounts, ButterAccounts, ICosmoTreasury {\n\n     /**\n      * @dev Saved addresses include the contract which created the Treasury: UNIVERSE_ADDRESS, and\n      * the address of the CosmoNuts contract (NFTs) which is created after the Treasury and then updated: matter_ADDRESS.\n      */\n    struct AddressOf {\n        address system;\n        address matter;\n        address treasury;\n        address cosmos;\n        address seedImplementation;\n        address butterImplementation;\n    }\n    AddressOf public addressOf;\n\n    struct Nut {\n        uint256 price;\n        uint256 rate;\n    }\n    Nut public nut;\n\n    mapping(uint256 => address) public currentOwnerOfNut; // Record of current nut owners by address\n    mapping(uint256 => uint256) public matterBalanceOfNut; // Matter balance of each Nut recorded by the Treasury\n\n    uint256[] public nutsPayeeList; // List of nuts to be provided a balance\n\n    function initialize(\n        address _systemAddress,\n        address _matterAddress,\n        uint256 _price,\n        uint256 _rate\n    ) external {\n        addressOf.system = _systemAddress;\n        addressOf.matter = _matterAddress;\n        addressOf.treasury = address(this);\n        nut.price = _price;\n        nut.rate = _rate;\n    }\n\n    /*\n    modifier onlyUniverse {\n        require(address(msg.sender) == UNIVERSE_ADDRESS, \"Caller is not Universe\");\n        _;\n    }\n    */\n\n    function getVaultLocation() public virtual override returns (address) {\n       return ICosmoNuts(addressOf.cosmos).vaultLocation();\n    }\n\n    function getPrice() public view virtual override returns (uint256) {\n        return nut.price;\n    }\n\n    function matterNeeded(uint256 _nutId) public view virtual override returns (uint256) {\n        return nut.rate ^ (numOfSeedsOf(_nutId));\n    }\n\n    function spawnSeed(uint256 _nutId, bytes32 _secretHash) external virtual override payable returns (bool) {\n        uint256 ethToHold = nut.price ^ (numOfSeedsGrownOf(_nutId));\n        require(msg.value >= ethToHold, \"Ether value is not enough\");\n\n        CosmoMatter matter = CosmoMatter(addressOf.matter);\n        uint256 matterToBurn = matterNeeded(_nutId);\n        uint256 matterOfOwner = matter.balanceOf(currentOwnerOfNut[_nutId]);\n        require(matterOfOwner >= matterToBurn, \"Matter balance is not enough\");\n\n        CosmoSeed cosmoseed = CosmoSeed(Clones.clone(addressOf.seedImplementation));\n        cosmoseed.initialize(\n            seedsCreated, _nutId, address(this), addressOf.cosmos, _secretHash\n        );\n\n        address seedLocation = address(cosmoseed);\n        integrateSeed(_nutId, seedsCreated, seedLocation);\n\n        matter.burn(matterToBurn);\n        payable(seedLocation).transfer(msg.value);\n\n        return true;\n    }\n\n    /**\n     * Called from CosmoSeed contract.\n     */\n    function seedFromNut(uint256 _seedId, uint256 _matterNeeded) external virtual override returns (bool) {\n        address seedAddress = seedLocations[_seedId];\n        require(address(msg.sender) == seedAddress, \"Caller is not the right CosmoSeed contract\");\n        //require(matter.balanceOf(address(msg.sender)) >= _matterNeeded, \"Not enough matter\");\n\n        CosmoSeed seed = CosmoSeed(seedAddress);\n\n        address nutOwner = currentOwnerOfNut[seed.nutId()];\n        CosmoMatter matter = CosmoMatter(addressOf.matter);\n        matter.transfer(nutOwner, _matterNeeded);\n        matter.mintMatter(addressOf.treasury, 1);\n\n        growSeed(_seedId);\n\n        return true;\n    }\n\n    /**\n     * Creating new butter means the creation of a contract where other users can withdraw matter from.\n     * Need to contribute butter (which can only be done if you have a Nut with the desired level of matter to give away.\n     * A secret message is provided in hash form and checked for verification to withdraw funds.\n     */\n    function newButter(\n        uint256 _nutId,\n        uint256 _matterContributed,\n        uint256 _matterDrawRate,\n        bytes32 _secretHash\n    ) external virtual override returns (bool) {\n        address nutOwner = currentOwnerOfNut[_nutId];\n        // Do we need to be doing these checks twice? Or really new check that caller is from contract (? or person who clicked?)\n        require(nutOwner == address(msg.sender), \"Caller is not the owner\");\n        require(matterBalanceOfNut[_nutId] >= _matterContributed, \"Not have enough matter\");\n        CosmoMatter matter = CosmoMatter(addressOf.matter);\n        require(_matterContributed <= matter.balanceOf(nutOwner), \"Not high enough\");\n        require(_matterContributed % _matterDrawRate == 0, \"Draw rate not divisible\");\n\n        /**\n         * A nut must have already grown a seed to start being counted as part of the deficiency list.\n         */\n        if (numOfSeedsGrownOf(_nutId) > 0) {\n            butterDeficiencyInUniverse += _matterContributed;\n            butterDeficiencyOfNut[_nutId] += _matterContributed;\n            nutsPayeeList.push(_nutId);\n        }\n\n        /**\n         * The Treasury wants to distribute its available balance to the nutsPayeeList.\n         * It will distribute the minimum of either its available balance or the deficiency in the Universe.\n         * All payees are awarded one matter and moved to the end of the list.\n         * When their maximum available balance is reached, they are removed from the payee list.\n         */\n        uint256 matterInTreasury = matter.balanceOf(addressOf.treasury);\n        if (matterInTreasury > 0) {\n            uint256 toDistribute = Math.min(matterInTreasury, butterDeficiencyInUniverse);\n\n            uint256 index = 0;\n            for (uint j = 0; j != toDistribute; j++) {\n                uint256 allPayees = nutsPayeeList.length;\n                if (allPayees == 0) {\n                    break;\n                }\n\n                if (j > allPayees) {\n                    index = 0;\n                }\n\n                uint256 nutPayeeId = nutsPayeeList[index];\n                address nutOwnerPayee = currentOwnerOfNut[nutPayeeId];\n                uint256 maxMatter = numOfSeedsGrownOf(nutPayeeId) * nut.rate;\n                if (matterBalanceOfNut[nutPayeeId] == maxMatter) {\n                    delete nutsPayeeList[index];\n                } else {\n                    matter.transfer(nutOwnerPayee, 1);\n                    nutsPayeeList.push(nutPayeeId);\n                    delete nutsPayeeList[index];\n\n                    butterDeficiencyInUniverse -= 1;\n                    butterDeficiencyOfNut[nutPayeeId] -= 1;\n                }\n\n                index++;\n           }\n        }\n\n        CosmoButter butter = CosmoButter(Clones.clone(addressOf.butterImplementation));\n        butter.initialize(\n            butterJars, _nutId, _matterContributed, _matterDrawRate, addressOf.treasury, _secretHash\n        );\n\n        matter.transfer(address(butter), _matterContributed);\n        churnButter(_nutId, butterJars, address(butter), _matterContributed);\n\n        return true;\n\n    }\n\n    /**\n     * Runs from CosmoButter contract when someone requests to draw matter.\n     */\n    function butterDrawn(\n        address _drawer,\n        uint256 _butterId,\n        uint256 _balance,\n        uint256 _currentBalance\n    ) external virtual override returns (bool) {\n        CosmoMatter matter = CosmoMatter(addressOf.matter);\n        matter.transfer(_drawer, _balance);\n        matter.mintMatter(address(this), _balance);\n        distributeButter(_butterId, _balance, _currentBalance);\n\n        return true;\n    }\n\n    function assignMintBalance(address _tokenOwner, uint256 _tokenId) external virtual override returns (bool) {\n        CosmoMatter matter = CosmoMatter(addressOf.matter);\n        require(matter.balanceOf(addressOf.treasury) >= nut.rate, \"Not enough matter\");\n        matter.transfer(_tokenOwner, nut.rate);\n        matterBalanceOfNut[_tokenId] = nut.rate;\n\n        return true;\n    }\n\n}\n",
  "sourcePath": "/home/redlentils/Seafile/Websites/avatarnft/contracts/CosmoTreasury.sol",
  "compiler": {
    "name": "solc",
    "version": "0.8.17+commit.8df45f5f.Emscripten.clang"
  },
  "schemaVersion": "3.4.10",
  "updatedAt": "2022-10-19T18:53:30.248Z",
  "devdoc": {
    "details": "Manages the matter balance of the CosmoNuts collection and handles interaction with the ERC20 Token to mint, burn, and allocate balances Acts as storage for the ERC 721 tokens on their created Seed and Butter contracts.",
    "kind": "dev",
    "methods": {},
    "version": 1
  },
  "userdoc": {
    "kind": "user",
    "methods": {
      "butterDrawn(address,uint256,uint256,uint256)": {
        "notice": "Runs from CosmoButter contract when someone requests to draw matter."
      },
      "butterWeight()": {
        "notice": "butterWeight is the amount of matter in the universe that is currently outstanding. butterSpread is the amount of matter that has been distributed from butterWeight, thus reducing its value. butterJars represent the total number of matter contracts created in the Universe."
      },
      "buttersOfNut(uint256,uint256)": {
        "notice": "buttersOfNut represents a list of all butter contracts created byt that nut. butterLocations represents the address of contract identifed by butterId."
      },
      "newButter(uint256,uint256,uint256,bytes32)": {
        "notice": "Creating new butter means the creation of a contract where other users can withdraw matter from. Need to contribute butter (which can only be done if you have a Nut with the desired level of matter to give away. A secret message is provided in hash form and checked for verification to withdraw funds."
      },
      "seedFromNut(uint256,uint256)": {
        "notice": "Called from CosmoSeed contract."
      }
    },
    "version": 1
  }
}