{
  "contractName": "CosmoUniverse",
  "abi": [
    {
      "inputs": [
        {
          "internalType": "address",
          "name": "_systemAddress",
          "type": "address"
        },
        {
          "internalType": "string",
          "name": "_matterName",
          "type": "string"
        },
        {
          "internalType": "string",
          "name": "_matterSymbol",
          "type": "string"
        }
      ],
      "stateMutability": "nonpayable",
      "type": "constructor"
    },
    {
      "anonymous": false,
      "inputs": [
        {
          "indexed": true,
          "internalType": "address",
          "name": "previousOwner",
          "type": "address"
        },
        {
          "indexed": true,
          "internalType": "address",
          "name": "newOwner",
          "type": "address"
        }
      ],
      "name": "OwnershipTransferred",
      "type": "event"
    },
    {
      "inputs": [],
      "name": "COSMO_INDEX",
      "outputs": [
        {
          "internalType": "uint256",
          "name": "",
          "type": "uint256"
        }
      ],
      "stateMutability": "view",
      "type": "function"
    },
    {
      "inputs": [],
      "name": "MATTER_ADDRESS",
      "outputs": [
        {
          "internalType": "address",
          "name": "",
          "type": "address"
        }
      ],
      "stateMutability": "view",
      "type": "function"
    },
    {
      "inputs": [],
      "name": "SYSTEM_ADDRESS",
      "outputs": [
        {
          "internalType": "address",
          "name": "",
          "type": "address"
        }
      ],
      "stateMutability": "view",
      "type": "function"
    },
    {
      "inputs": [
        {
          "internalType": "uint256",
          "name": "",
          "type": "uint256"
        }
      ],
      "name": "bangs",
      "outputs": [
        {
          "internalType": "string",
          "name": "name",
          "type": "string"
        },
        {
          "internalType": "uint256",
          "name": "matterCreated",
          "type": "uint256"
        },
        {
          "internalType": "address",
          "name": "implementation",
          "type": "address"
        },
        {
          "internalType": "address",
          "name": "cosmo",
          "type": "address"
        }
      ],
      "stateMutability": "view",
      "type": "function"
    },
    {
      "inputs": [],
      "name": "owner",
      "outputs": [
        {
          "internalType": "address",
          "name": "",
          "type": "address"
        }
      ],
      "stateMutability": "view",
      "type": "function"
    },
    {
      "inputs": [],
      "name": "renounceOwnership",
      "outputs": [],
      "stateMutability": "nonpayable",
      "type": "function"
    },
    {
      "inputs": [
        {
          "internalType": "address",
          "name": "newOwner",
          "type": "address"
        }
      ],
      "name": "transferOwnership",
      "outputs": [],
      "stateMutability": "nonpayable",
      "type": "function"
    },
    {
      "inputs": [],
      "name": "totalMatter",
      "outputs": [
        {
          "internalType": "uint256",
          "name": "totalMatterBalance",
          "type": "uint256"
        }
      ],
      "stateMutability": "view",
      "type": "function"
    },
    {
      "inputs": [
        {
          "internalType": "address",
          "name": "_address",
          "type": "address"
        }
      ],
      "name": "matterBalanceOf",
      "outputs": [
        {
          "internalType": "uint256",
          "name": "matterBalance",
          "type": "uint256"
        }
      ],
      "stateMutability": "view",
      "type": "function"
    },
    {
      "inputs": [
        {
          "internalType": "uint256",
          "name": "_newCosmoIndex",
          "type": "uint256"
        }
      ],
      "name": "changeCosmoIndex",
      "outputs": [],
      "stateMutability": "nonpayable",
      "type": "function"
    },
    {
      "inputs": [
        {
          "internalType": "address",
          "name": "_implementationAddress",
          "type": "address"
        }
      ],
      "name": "setImplementation",
      "outputs": [],
      "stateMutability": "nonpayable",
      "type": "function"
    },
    {
      "inputs": [
        {
          "internalType": "string",
          "name": "_cosmosName",
          "type": "string"
        },
        {
          "internalType": "string",
          "name": "_cosmosSymbol",
          "type": "string"
        },
        {
          "internalType": "uint256",
          "name": "_desiredEntities",
          "type": "uint256"
        },
        {
          "internalType": "uint256",
          "name": "_price",
          "type": "uint256"
        },
        {
          "internalType": "uint256",
          "name": "_rate",
          "type": "uint256"
        },
        {
          "internalType": "address",
          "name": "_treasuryImplementation",
          "type": "address"
        },
        {
          "internalType": "address",
          "name": "_seedImplementation",
          "type": "address"
        },
        {
          "internalType": "address",
          "name": "_butterImplementation",
          "type": "address"
        },
        {
          "internalType": "address",
          "name": "_vaultImplementation",
          "type": "address"
        }
      ],
      "name": "bigBang",
      "outputs": [
        {
          "internalType": "address",
          "name": "cosmoAddress",
          "type": "address"
        }
      ],
      "stateMutability": "nonpayable",
      "type": "function"
    }
  ],
  "bytecode": "0x608060405260006001553480156200001657600080fd5b5060405162003f6938038062003f6983398181016040528101906200003c919062000456565b6200005c620000506200018460201b60201c565b6200018c60201b60201c565b82600260006101000a81548173ffffffffffffffffffffffffffffffffffffffff021916908373ffffffffffffffffffffffffffffffffffffffff1602179055508181604051620000ad9062000250565b620000ba9291906200054d565b604051809103906000f080158015620000d7573d6000803e3d6000fd5b50600960006101000a81548173ffffffffffffffffffffffffffffffffffffffff021916908373ffffffffffffffffffffffffffffffffffffffff160217905550600960009054906101000a900473ffffffffffffffffffffffffffffffffffffffff16600360006101000a81548173ffffffffffffffffffffffffffffffffffffffff021916908373ffffffffffffffffffffffffffffffffffffffff16021790555050505062000588565b600033905090565b60008060009054906101000a900473ffffffffffffffffffffffffffffffffffffffff169050816000806101000a81548173ffffffffffffffffffffffffffffffffffffffff021916908373ffffffffffffffffffffffffffffffffffffffff1602179055508173ffffffffffffffffffffffffffffffffffffffff168173ffffffffffffffffffffffffffffffffffffffff167f8be0079c531659141344cd1fd0a4f28419497f9722a3daafe3b4186f6b6457e060405160405180910390a35050565b611fe28062001f8783390190565b6000604051905090565b600080fd5b600080fd5b600073ffffffffffffffffffffffffffffffffffffffff82169050919050565b60006200029f8262000272565b9050919050565b620002b18162000292565b8114620002bd57600080fd5b50565b600081519050620002d181620002a6565b92915050565b600080fd5b600080fd5b6000601f19601f8301169050919050565b7f4e487b7100000000000000000000000000000000000000000000000000000000600052604160045260246000fd5b6200032c82620002e1565b810181811067ffffffffffffffff821117156200034e576200034d620002f2565b5b80604052505050565b6000620003636200025e565b905062000371828262000321565b919050565b600067ffffffffffffffff821115620003945762000393620002f2565b5b6200039f82620002e1565b9050602081019050919050565b60005b83811015620003cc578082015181840152602081019050620003af565b60008484015250505050565b6000620003ef620003e98462000376565b62000357565b9050828152602081018484840111156200040e576200040d620002dc565b5b6200041b848285620003ac565b509392505050565b600082601f8301126200043b576200043a620002d7565b5b81516200044d848260208601620003d8565b91505092915050565b60008060006060848603121562000472576200047162000268565b5b60006200048286828701620002c0565b935050602084015167ffffffffffffffff811115620004a657620004a56200026d565b5b620004b48682870162000423565b925050604084015167ffffffffffffffff811115620004d857620004d76200026d565b5b620004e68682870162000423565b9150509250925092565b600081519050919050565b600082825260208201905092915050565b60006200051982620004f0565b620005258185620004fb565b935062000537818560208601620003ac565b6200054281620002e1565b840191505092915050565b600060408201905081810360008301526200056981856200050c565b905081810360208301526200057f81846200050c565b90509392505050565b6119ef80620005986000396000f3fe608060405234801561001057600080fd5b50600436106100b45760003560e01c8063787593511161007157806378759351146101695780638da5cb5b1461019c5780639015a502146101ba57806390e25f95146101d8578063d784d42614610208578063f2fde38b14610224576100b4565b80633434735f146100b9578063445f11fc146100d757806357418dd5146100f557806364b1b663146101255780636a090efc14610143578063715018a61461015f575b600080fd5b6100c1610240565b6040516100ce9190610e29565b60405180910390f35b6100df610266565b6040516100ec9190610e5d565b60405180910390f35b61010f600480360381019061010a919061102a565b6102fe565b60405161011c9190610e29565b60405180910390f35b61012d610737565b60405161013a9190610e29565b60405180910390f35b61015d6004803603810190610158919061112c565b61075d565b005b610167610827565b005b610183600480360381019061017e919061112c565b6108af565b60405161019394939291906111d8565b60405180910390f35b6101a46109a7565b6040516101b19190610e29565b60405180910390f35b6101c26109d0565b6040516101cf9190610e5d565b60405180910390f35b6101f260048036038101906101ed9190611224565b6109d6565b6040516101ff9190610e5d565b60405180910390f35b610222600480360381019061021d9190611224565b610a7b565b005b61023e60048036038101906102399190611224565b610b51565b005b600260009054906101000a900473ffffffffffffffffffffffffffffffffffffffff1681565b6000600360009054906101000a900473ffffffffffffffffffffffffffffffffffffffff1673ffffffffffffffffffffffffffffffffffffffff1663445f11fc6040518163ffffffff1660e01b8152600401602060405180830381865afa1580156102d5573d6000803e3d6000fd5b505050506040513d601f19601f820116820180604052508101906102f99190611266565b905090565b6000610308610c48565b73ffffffffffffffffffffffffffffffffffffffff166103266109a7565b73ffffffffffffffffffffffffffffffffffffffff161461037c576040517f08c379a0000000000000000000000000000000000000000000000000000000008152600401610373906112df565b60405180910390fd5b600073ffffffffffffffffffffffffffffffffffffffff1660086000600154815260200190815260200160002060020160009054906101000a900473ffffffffffffffffffffffffffffffffffffffff1673ffffffffffffffffffffffffffffffffffffffff1603610423576040517f08c379a000000000000000000000000000000000000000000000000000000000815260040161041a90611371565b60405180910390fd5b600061046660086000600154815260200190815260200160002060020160009054906101000a900473ffffffffffffffffffffffffffffffffffffffff16610c50565b905060008173ffffffffffffffffffffffffffffffffffffffff1663b33f9527600260009054906101000a900473ffffffffffffffffffffffffffffffffffffffff16600360009054906101000a900473ffffffffffffffffffffffffffffffffffffffff168a8a8a8f8f6040518863ffffffff1660e01b81526004016104f39796959493929190611391565b6020604051808303816000875af1158015610512573d6000803e3d6000fd5b505050506040513d601f19601f820116820180604052508101906105369190611415565b905060018a896105469190611471565b61055091906114b3565b60086000600154815260200190815260200160002060010181905550600360009054906101000a900473ffffffffffffffffffffffffffffffffffffffff1673ffffffffffffffffffffffffffffffffffffffff16634bbc1bcd82600860006001548152602001908152602001600020600101546040518363ffffffff1660e01b81526004016105e19291906114e7565b6020604051808303816000875af1158015610600573d6000803e3d6000fd5b505050506040513d601f19601f820116820180604052508101906106249190611266565b508173ffffffffffffffffffffffffffffffffffffffff1663a4bb54048d8d8d85896040518663ffffffff1660e01b8152600401610666959493929190611510565b6020604051808303816000875af1158015610685573d6000803e3d6000fd5b505050506040513d601f19601f820116820180604052508101906106a99190611415565b92508b60086000600154815260200190815260200160002060000190816106d0919061177d565b508260086000600154815260200190815260200160002060030160006101000a81548173ffffffffffffffffffffffffffffffffffffffff021916908373ffffffffffffffffffffffffffffffffffffffff16021790555050509998505050505050505050565b600360009054906101000a900473ffffffffffffffffffffffffffffffffffffffff1681565b610765610c48565b73ffffffffffffffffffffffffffffffffffffffff166107836109a7565b73ffffffffffffffffffffffffffffffffffffffff16146107d9576040517f08c379a00000000000000000000000000000000000000000000000000000000081526004016107d0906112df565b60405180910390fd5b806001540361081d576040517f08c379a00000000000000000000000000000000000000000000000000000000081526004016108149061189b565b60405180910390fd5b8060018190555050565b61082f610c48565b73ffffffffffffffffffffffffffffffffffffffff1661084d6109a7565b73ffffffffffffffffffffffffffffffffffffffff16146108a3576040517f08c379a000000000000000000000000000000000000000000000000000000000815260040161089a906112df565b60405180910390fd5b6108ad6000610d24565b565b60086020528060005260406000206000915090508060000180546108d2906115a0565b80601f01602080910402602001604051908101604052809291908181526020018280546108fe906115a0565b801561094b5780601f106109205761010080835404028352916020019161094b565b820191906000526020600020905b81548152906001019060200180831161092e57829003601f168201915b5050505050908060010154908060020160009054906101000a900473ffffffffffffffffffffffffffffffffffffffff16908060030160009054906101000a900473ffffffffffffffffffffffffffffffffffffffff16905084565b60008060009054906101000a900473ffffffffffffffffffffffffffffffffffffffff16905090565b60015481565b6000600360009054906101000a900473ffffffffffffffffffffffffffffffffffffffff1673ffffffffffffffffffffffffffffffffffffffff1663d798b462836040518263ffffffff1660e01b8152600401610a339190610e29565b602060405180830381865afa158015610a50573d6000803e3d6000fd5b505050506040513d601f19601f82011682018060405250810190610a749190611266565b9050919050565b610a83610c48565b73ffffffffffffffffffffffffffffffffffffffff16610aa16109a7565b73ffffffffffffffffffffffffffffffffffffffff1614610af7576040517f08c379a0000000000000000000000000000000000000000000000000000000008152600401610aee906112df565b60405180910390fd5b8060086000600154815260200190815260200160002060020160006101000a81548173ffffffffffffffffffffffffffffffffffffffff021916908373ffffffffffffffffffffffffffffffffffffffff16021790555050565b610b59610c48565b73ffffffffffffffffffffffffffffffffffffffff16610b776109a7565b73ffffffffffffffffffffffffffffffffffffffff1614610bcd576040517f08c379a0000000000000000000000000000000000000000000000000000000008152600401610bc4906112df565b60405180910390fd5b600073ffffffffffffffffffffffffffffffffffffffff168173ffffffffffffffffffffffffffffffffffffffff1603610c3c576040517f08c379a0000000000000000000000000000000000000000000000000000000008152600401610c339061192d565b60405180910390fd5b610c4581610d24565b50565b600033905090565b60006040517f3d602d80600a3d3981f3363d3d373d3d3d363d7300000000000000000000000081528260601b60148201527f5af43d82803e903d91602b57fd5bf3000000000000000000000000000000000060288201526037816000f0915050600073ffffffffffffffffffffffffffffffffffffffff168173ffffffffffffffffffffffffffffffffffffffff1603610d1f576040517f08c379a0000000000000000000000000000000000000000000000000000000008152600401610d1690611999565b60405180910390fd5b919050565b60008060009054906101000a900473ffffffffffffffffffffffffffffffffffffffff169050816000806101000a81548173ffffffffffffffffffffffffffffffffffffffff021916908373ffffffffffffffffffffffffffffffffffffffff1602179055508173ffffffffffffffffffffffffffffffffffffffff168173ffffffffffffffffffffffffffffffffffffffff167f8be0079c531659141344cd1fd0a4f28419497f9722a3daafe3b4186f6b6457e060405160405180910390a35050565b600073ffffffffffffffffffffffffffffffffffffffff82169050919050565b6000610e1382610de8565b9050919050565b610e2381610e08565b82525050565b6000602082019050610e3e6000830184610e1a565b92915050565b6000819050919050565b610e5781610e44565b82525050565b6000602082019050610e726000830184610e4e565b92915050565b6000604051905090565b600080fd5b600080fd5b600080fd5b600080fd5b6000601f19601f8301169050919050565b7f4e487b7100000000000000000000000000000000000000000000000000000000600052604160045260246000fd5b610edf82610e96565b810181811067ffffffffffffffff82111715610efe57610efd610ea7565b5b80604052505050565b6000610f11610e78565b9050610f1d8282610ed6565b919050565b600067ffffffffffffffff821115610f3d57610f3c610ea7565b5b610f4682610e96565b9050602081019050919050565b82818337600083830152505050565b6000610f75610f7084610f22565b610f07565b905082815260208101848484011115610f9157610f90610e91565b5b610f9c848285610f53565b509392505050565b600082601f830112610fb957610fb8610e8c565b5b8135610fc9848260208601610f62565b91505092915050565b610fdb81610e44565b8114610fe657600080fd5b50565b600081359050610ff881610fd2565b92915050565b61100781610e08565b811461101257600080fd5b50565b60008135905061102481610ffe565b92915050565b60008060008060008060008060006101208a8c03121561104d5761104c610e82565b5b60008a013567ffffffffffffffff81111561106b5761106a610e87565b5b6110778c828d01610fa4565b99505060208a013567ffffffffffffffff81111561109857611097610e87565b5b6110a48c828d01610fa4565b98505060406110b58c828d01610fe9565b97505060606110c68c828d01610fe9565b96505060806110d78c828d01610fe9565b95505060a06110e88c828d01611015565b94505060c06110f98c828d01611015565b93505060e061110a8c828d01611015565b92505061010061111c8c828d01611015565b9150509295985092959850929598565b60006020828403121561114257611141610e82565b5b600061115084828501610fe9565b91505092915050565b600081519050919050565b600082825260208201905092915050565b60005b83811015611193578082015181840152602081019050611178565b60008484015250505050565b60006111aa82611159565b6111b48185611164565b93506111c4818560208601611175565b6111cd81610e96565b840191505092915050565b600060808201905081810360008301526111f2818761119f565b90506112016020830186610e4e565b61120e6040830185610e1a565b61121b6060830184610e1a565b95945050505050565b60006020828403121561123a57611239610e82565b5b600061124884828501611015565b91505092915050565b60008151905061126081610fd2565b92915050565b60006020828403121561127c5761127b610e82565b5b600061128a84828501611251565b91505092915050565b7f4f776e61626c653a2063616c6c6572206973206e6f7420746865206f776e6572600082015250565b60006112c9602083611164565b91506112d482611293565b602082019050919050565b600060208201905081810360008301526112f8816112bc565b9050919050565b7f4e6f2062616e6720696d706c656d656e746174696f6e206f6e2063757272656e60008201527f7420436f736d6f00000000000000000000000000000000000000000000000000602082015250565b600061135b602783611164565b9150611366826112ff565b604082019050919050565b6000602082019050818103600083015261138a8161134e565b9050919050565b600060e0820190506113a6600083018a610e1a565b6113b36020830189610e1a565b6113c06040830188610e1a565b6113cd6060830187610e1a565b6113da6080830186610e1a565b6113e760a0830185610e4e565b6113f460c0830184610e4e565b98975050505050505050565b60008151905061140f81610ffe565b92915050565b60006020828403121561142b5761142a610e82565b5b600061143984828501611400565b91505092915050565b7f4e487b7100000000000000000000000000000000000000000000000000000000600052601160045260246000fd5b600061147c82610e44565b915061148783610e44565b925082820261149581610e44565b915082820484148315176114ac576114ab611442565b5b5092915050565b60006114be82610e44565b91506114c983610e44565b92508282019050808211156114e1576114e0611442565b5b92915050565b60006040820190506114fc6000830185610e1a565b6115096020830184610e4e565b9392505050565b600060a082019050818103600083015261152a818861119f565b9050818103602083015261153e818761119f565b905061154d6040830186610e4e565b61155a6060830185610e1a565b6115676080830184610e1a565b9695505050505050565b7f4e487b7100000000000000000000000000000000000000000000000000000000600052602260045260246000fd5b600060028204905060018216806115b857607f821691505b6020821081036115cb576115ca611571565b5b50919050565b60008190508160005260206000209050919050565b60006020601f8301049050919050565b600082821b905092915050565b6000600883026116337fffffffffffffffffffffffffffffffffffffffffffffffffffffffffffffffff826115f6565b61163d86836115f6565b95508019841693508086168417925050509392505050565b6000819050919050565b600061167a61167561167084610e44565b611655565b610e44565b9050919050565b6000819050919050565b6116948361165f565b6116a86116a082611681565b848454611603565b825550505050565b600090565b6116bd6116b0565b6116c881848461168b565b505050565b5b818110156116ec576116e16000826116b5565b6001810190506116ce565b5050565b601f82111561173157611702816115d1565b61170b846115e6565b8101602085101561171a578190505b61172e611726856115e6565b8301826116cd565b50505b505050565b600082821c905092915050565b600061175460001984600802611736565b1980831691505092915050565b600061176d8383611743565b9150826002028217905092915050565b61178682611159565b67ffffffffffffffff81111561179f5761179e610ea7565b5b6117a982546115a0565b6117b48282856116f0565b600060209050601f8311600181146117e757600084156117d5578287015190505b6117df8582611761565b865550611847565b601f1984166117f5866115d1565b60005b8281101561181d578489015182556001820191506020850194506020810190506117f8565b8683101561183a5784890151611836601f891682611743565b8355505b6001600288020188555050505b505050505050565b7f53616d6520636f736d6f20696e64657800000000000000000000000000000000600082015250565b6000611885601083611164565b91506118908261184f565b602082019050919050565b600060208201905081810360008301526118b481611878565b9050919050565b7f4f776e61626c653a206e6577206f776e657220697320746865207a65726f206160008201527f6464726573730000000000000000000000000000000000000000000000000000602082015250565b6000611917602683611164565b9150611922826118bb565b604082019050919050565b600060208201905081810360008301526119468161190a565b9050919050565b7f455243313136373a20637265617465206661696c656400000000000000000000600082015250565b6000611983601683611164565b915061198e8261194d565b602082019050919050565b600060208201905081810360008301526119b281611976565b905091905056fea2646970667358221220612dabcd44be14be61643f5b83f9d5a20f0c0398afa06520d3a4cedf497d74fc64736f6c6343000811003360806040523480156200001157600080fd5b5060405162001fe238038062001fe28339818101604052810190620000379190620001fa565b818181600390816200004a9190620004ca565b5080600490816200005c9190620004ca565b5050505050620005b1565b6000604051905090565b600080fd5b600080fd5b600080fd5b600080fd5b6000601f19601f8301169050919050565b7f4e487b7100000000000000000000000000000000000000000000000000000000600052604160045260246000fd5b620000d08262000085565b810181811067ffffffffffffffff82111715620000f257620000f162000096565b5b80604052505050565b60006200010762000067565b9050620001158282620000c5565b919050565b600067ffffffffffffffff82111562000138576200013762000096565b5b620001438262000085565b9050602081019050919050565b60005b838110156200017057808201518184015260208101905062000153565b60008484015250505050565b6000620001936200018d846200011a565b620000fb565b905082815260208101848484011115620001b257620001b162000080565b5b620001bf84828562000150565b509392505050565b600082601f830112620001df57620001de6200007b565b5b8151620001f18482602086016200017c565b91505092915050565b6000806040838503121562000214576200021362000071565b5b600083015167ffffffffffffffff81111562000235576200023462000076565b5b6200024385828601620001c7565b925050602083015167ffffffffffffffff81111562000267576200026662000076565b5b6200027585828601620001c7565b9150509250929050565b600081519050919050565b7f4e487b7100000000000000000000000000000000000000000000000000000000600052602260045260246000fd5b60006002820490506001821680620002d257607f821691505b602082108103620002e857620002e76200028a565b5b50919050565b60008190508160005260206000209050919050565b60006020601f8301049050919050565b600082821b905092915050565b600060088302620003527fffffffffffffffffffffffffffffffffffffffffffffffffffffffffffffffff8262000313565b6200035e868362000313565b95508019841693508086168417925050509392505050565b6000819050919050565b6000819050919050565b6000620003ab620003a56200039f8462000376565b62000380565b62000376565b9050919050565b6000819050919050565b620003c7836200038a565b620003df620003d682620003b2565b84845462000320565b825550505050565b600090565b620003f6620003e7565b62000403818484620003bc565b505050565b5b818110156200042b576200041f600082620003ec565b60018101905062000409565b5050565b601f8211156200047a576200044481620002ee565b6200044f8462000303565b810160208510156200045f578190505b620004776200046e8562000303565b83018262000408565b50505b505050565b600082821c905092915050565b60006200049f600019846008026200047f565b1980831691505092915050565b6000620004ba83836200048c565b9150826002028217905092915050565b620004d5826200027f565b67ffffffffffffffff811115620004f157620004f062000096565b5b620004fd8254620002b9565b6200050a8282856200042f565b600060209050601f8311600181146200054257600084156200052d578287015190505b620005398582620004ac565b865550620005a9565b601f1984166200055286620002ee565b60005b828110156200057c5784890151825560018201915060208501945060208101905062000555565b868310156200059c578489015162000598601f8916826200048c565b8355505b6001600288020188555050505b505050505050565b611a2180620005c16000396000f3fe608060405234801561001057600080fd5b50600436106101375760003560e01c806370a08231116100b8578063c46024b91161007c578063c46024b914610376578063d798b462146103a6578063dd62ed3e146103d6578063ecd8981514610406578063f3d8c7a714610422578063ff2cb3471461045257610137565b806370a08231146102ac57806379cc6790146102dc57806395d89b41146102f8578063a457c2d714610316578063a9059cbb1461034657610137565b8063313ce567116100ff578063313ce567146101f4578063395093511461021257806342966c6814610242578063445f11fc1461025e5780634bbc1bcd1461027c57610137565b806306fdde031461013c578063095ea7b31461015a57806318160ddd1461018a57806323b872dd146101a857806328c59aef146101d8575b600080fd5b61014461046e565b604051610151919061110d565b60405180910390f35b610174600480360381019061016f91906111c8565b610500565b6040516101819190611223565b60405180910390f35b610192610523565b60405161019f919061124d565b60405180910390f35b6101c260048036038101906101bd9190611268565b61052d565b6040516101cf9190611223565b60405180910390f35b6101f260048036038101906101ed9190611268565b61055c565b005b6101fc61056d565b60405161020991906112d7565b60405180910390f35b61022c600480360381019061022791906111c8565b610576565b6040516102399190611223565b60405180910390f35b61025c600480360381019061025791906112f2565b6105ad565b005b6102666105c1565b604051610273919061124d565b60405180910390f35b610296600480360381019061029191906111c8565b6105d0565b6040516102a3919061124d565b60405180910390f35b6102c660048036038101906102c1919061131f565b6105ec565b6040516102d3919061124d565b60405180910390f35b6102f660048036038101906102f191906111c8565b610634565b005b610300610654565b60405161030d919061110d565b60405180910390f35b610330600480360381019061032b91906111c8565b6106e6565b60405161033d9190611223565b60405180910390f35b610360600480360381019061035b91906111c8565b61075d565b60405161036d9190611223565b60405180910390f35b610390600480360381019061038b919061134c565b610780565b60405161039d919061124d565b60405180910390f35b6103c060048036038101906103bb919061131f565b610794565b6040516103cd919061124d565b60405180910390f35b6103f060048036038101906103eb919061134c565b6107a6565b6040516103fd919061124d565b60405180910390f35b610420600480360381019061041b91906111c8565b61082d565b005b61043c60048036038101906104379190611268565b61083c565b6040516104499190611223565b60405180910390f35b61046c600480360381019061046791906111c8565b610854565b005b60606003805461047d906113bb565b80601f01602080910402602001604051908101604052809291908181526020018280546104a9906113bb565b80156104f65780601f106104cb576101008083540402835291602001916104f6565b820191906000526020600020905b8154815290600101906020018083116104d957829003601f168201915b5050505050905090565b60008061050b610862565b905061051881858561086a565b600191505092915050565b6000600254905090565b600080610538610862565b9050610545858285610a33565b610550858585610abf565b60019150509392505050565b61056783838361052d565b50505050565b60006012905090565b600080610581610862565b90506105a281858561059385896107a6565b61059d919061141b565b61086a565b600191505092915050565b6105be6105b8610862565b82610d3e565b50565b60006105cb610523565b905090565b60006105dc8383610f14565b6105e4610523565b905092915050565b60008060008373ffffffffffffffffffffffffffffffffffffffff1673ffffffffffffffffffffffffffffffffffffffff168152602001908152602001600020549050919050565b61064682610640610862565b83610a33565b6106508282610d3e565b5050565b606060048054610663906113bb565b80601f016020809104026020016040519081016040528092919081815260200182805461068f906113bb565b80156106dc5780601f106106b1576101008083540402835291602001916106dc565b820191906000526020600020905b8154815290600101906020018083116106bf57829003601f168201915b5050505050905090565b6000806106f1610862565b905060006106ff82866107a6565b905083811015610744576040517f08c379a000000000000000000000000000000000000000000000000000000000815260040161073b906114c1565b60405180910390fd5b610751828686840361086a565b60019250505092915050565b600080610768610862565b9050610775818585610abf565b600191505092915050565b600061078c83836107a6565b905092915050565b600061079f826105ec565b9050919050565b6000600160008473ffffffffffffffffffffffffffffffffffffffff1673ffffffffffffffffffffffffffffffffffffffff16815260200190815260200160002060008373ffffffffffffffffffffffffffffffffffffffff1673ffffffffffffffffffffffffffffffffffffffff16815260200190815260200160002054905092915050565b610837828261075d565b505050565b600061084984848461086a565b600190509392505050565b61085e8282610634565b5050565b600033905090565b600073ffffffffffffffffffffffffffffffffffffffff168373ffffffffffffffffffffffffffffffffffffffff16036108d9576040517f08c379a00000000000000000000000000000000000000000000000000000000081526004016108d090611553565b60405180910390fd5b600073ffffffffffffffffffffffffffffffffffffffff168273ffffffffffffffffffffffffffffffffffffffff1603610948576040517f08c379a000000000000000000000000000000000000000000000000000000000815260040161093f906115e5565b60405180910390fd5b80600160008573ffffffffffffffffffffffffffffffffffffffff1673ffffffffffffffffffffffffffffffffffffffff16815260200190815260200160002060008473ffffffffffffffffffffffffffffffffffffffff1673ffffffffffffffffffffffffffffffffffffffff168152602001908152602001600020819055508173ffffffffffffffffffffffffffffffffffffffff168373ffffffffffffffffffffffffffffffffffffffff167f8c5be1e5ebec7d5bd14f71427d1e84f3dd0314c0f7b2291e5b200ac8c7c3b92583604051610a26919061124d565b60405180910390a3505050565b6000610a3f84846107a6565b90507fffffffffffffffffffffffffffffffffffffffffffffffffffffffffffffffff8114610ab95781811015610aab576040517f08c379a0000000000000000000000000000000000000000000000000000000008152600401610aa290611651565b60405180910390fd5b610ab8848484840361086a565b5b50505050565b600073ffffffffffffffffffffffffffffffffffffffff168373ffffffffffffffffffffffffffffffffffffffff1603610b2e576040517f08c379a0000000000000000000000000000000000000000000000000000000008152600401610b25906116e3565b60405180910390fd5b600073ffffffffffffffffffffffffffffffffffffffff168273ffffffffffffffffffffffffffffffffffffffff1603610b9d576040517f08c379a0000000000000000000000000000000000000000000000000000000008152600401610b9490611775565b60405180910390fd5b610ba8838383611073565b60008060008573ffffffffffffffffffffffffffffffffffffffff1673ffffffffffffffffffffffffffffffffffffffff16815260200190815260200160002054905081811015610c2e576040517f08c379a0000000000000000000000000000000000000000000000000000000008152600401610c2590611807565b60405180910390fd5b8181036000808673ffffffffffffffffffffffffffffffffffffffff1673ffffffffffffffffffffffffffffffffffffffff16815260200190815260200160002081905550816000808573ffffffffffffffffffffffffffffffffffffffff1673ffffffffffffffffffffffffffffffffffffffff1681526020019081526020016000206000828254610cc1919061141b565b925050819055508273ffffffffffffffffffffffffffffffffffffffff168473ffffffffffffffffffffffffffffffffffffffff167fddf252ad1be2c89b69c2b068fc378daa952ba7f163c4a11628f55a4df523b3ef84604051610d25919061124d565b60405180910390a3610d38848484611078565b50505050565b600073ffffffffffffffffffffffffffffffffffffffff168273ffffffffffffffffffffffffffffffffffffffff1603610dad576040517f08c379a0000000000000000000000000000000000000000000000000000000008152600401610da490611899565b60405180910390fd5b610db982600083611073565b60008060008473ffffffffffffffffffffffffffffffffffffffff1673ffffffffffffffffffffffffffffffffffffffff16815260200190815260200160002054905081811015610e3f576040517f08c379a0000000000000000000000000000000000000000000000000000000008152600401610e369061192b565b60405180910390fd5b8181036000808573ffffffffffffffffffffffffffffffffffffffff1673ffffffffffffffffffffffffffffffffffffffff168152602001908152602001600020819055508160026000828254610e96919061194b565b92505081905550600073ffffffffffffffffffffffffffffffffffffffff168373ffffffffffffffffffffffffffffffffffffffff167fddf252ad1be2c89b69c2b068fc378daa952ba7f163c4a11628f55a4df523b3ef84604051610efb919061124d565b60405180910390a3610f0f83600084611078565b505050565b600073ffffffffffffffffffffffffffffffffffffffff168273ffffffffffffffffffffffffffffffffffffffff1603610f83576040517f08c379a0000000000000000000000000000000000000000000000000000000008152600401610f7a906119cb565b60405180910390fd5b610f8f60008383611073565b8060026000828254610fa1919061141b565b92505081905550806000808473ffffffffffffffffffffffffffffffffffffffff1673ffffffffffffffffffffffffffffffffffffffff1681526020019081526020016000206000828254610ff6919061141b565b925050819055508173ffffffffffffffffffffffffffffffffffffffff16600073ffffffffffffffffffffffffffffffffffffffff167fddf252ad1be2c89b69c2b068fc378daa952ba7f163c4a11628f55a4df523b3ef8360405161105b919061124d565b60405180910390a361106f60008383611078565b5050565b505050565b505050565b600081519050919050565b600082825260208201905092915050565b60005b838110156110b757808201518184015260208101905061109c565b60008484015250505050565b6000601f19601f8301169050919050565b60006110df8261107d565b6110e98185611088565b93506110f9818560208601611099565b611102816110c3565b840191505092915050565b6000602082019050818103600083015261112781846110d4565b905092915050565b600080fd5b600073ffffffffffffffffffffffffffffffffffffffff82169050919050565b600061115f82611134565b9050919050565b61116f81611154565b811461117a57600080fd5b50565b60008135905061118c81611166565b92915050565b6000819050919050565b6111a581611192565b81146111b057600080fd5b50565b6000813590506111c28161119c565b92915050565b600080604083850312156111df576111de61112f565b5b60006111ed8582860161117d565b92505060206111fe858286016111b3565b9150509250929050565b60008115159050919050565b61121d81611208565b82525050565b60006020820190506112386000830184611214565b92915050565b61124781611192565b82525050565b6000602082019050611262600083018461123e565b92915050565b6000806000606084860312156112815761128061112f565b5b600061128f8682870161117d565b93505060206112a08682870161117d565b92505060406112b1868287016111b3565b9150509250925092565b600060ff82169050919050565b6112d1816112bb565b82525050565b60006020820190506112ec60008301846112c8565b92915050565b6000602082840312156113085761130761112f565b5b6000611316848285016111b3565b91505092915050565b6000602082840312156113355761133461112f565b5b60006113438482850161117d565b91505092915050565b600080604083850312156113635761136261112f565b5b60006113718582860161117d565b92505060206113828582860161117d565b9150509250929050565b7f4e487b7100000000000000000000000000000000000000000000000000000000600052602260045260246000fd5b600060028204905060018216806113d357607f821691505b6020821081036113e6576113e561138c565b5b50919050565b7f4e487b7100000000000000000000000000000000000000000000000000000000600052601160045260246000fd5b600061142682611192565b915061143183611192565b9250828201905080821115611449576114486113ec565b5b92915050565b7f45524332303a2064656372656173656420616c6c6f77616e63652062656c6f7760008201527f207a65726f000000000000000000000000000000000000000000000000000000602082015250565b60006114ab602583611088565b91506114b68261144f565b604082019050919050565b600060208201905081810360008301526114da8161149e565b9050919050565b7f45524332303a20617070726f76652066726f6d20746865207a65726f2061646460008201527f7265737300000000000000000000000000000000000000000000000000000000602082015250565b600061153d602483611088565b9150611548826114e1565b604082019050919050565b6000602082019050818103600083015261156c81611530565b9050919050565b7f45524332303a20617070726f766520746f20746865207a65726f20616464726560008201527f7373000000000000000000000000000000000000000000000000000000000000602082015250565b60006115cf602283611088565b91506115da82611573565b604082019050919050565b600060208201905081810360008301526115fe816115c2565b9050919050565b7f45524332303a20696e73756666696369656e7420616c6c6f77616e6365000000600082015250565b600061163b601d83611088565b915061164682611605565b602082019050919050565b6000602082019050818103600083015261166a8161162e565b9050919050565b7f45524332303a207472616e736665722066726f6d20746865207a65726f20616460008201527f6472657373000000000000000000000000000000000000000000000000000000602082015250565b60006116cd602583611088565b91506116d882611671565b604082019050919050565b600060208201905081810360008301526116fc816116c0565b9050919050565b7f45524332303a207472616e7366657220746f20746865207a65726f206164647260008201527f6573730000000000000000000000000000000000000000000000000000000000602082015250565b600061175f602383611088565b915061176a82611703565b604082019050919050565b6000602082019050818103600083015261178e81611752565b9050919050565b7f45524332303a207472616e7366657220616d6f756e742065786365656473206260008201527f616c616e63650000000000000000000000000000000000000000000000000000602082015250565b60006117f1602683611088565b91506117fc82611795565b604082019050919050565b60006020820190508181036000830152611820816117e4565b9050919050565b7f45524332303a206275726e2066726f6d20746865207a65726f2061646472657360008201527f7300000000000000000000000000000000000000000000000000000000000000602082015250565b6000611883602183611088565b915061188e82611827565b604082019050919050565b600060208201905081810360008301526118b281611876565b9050919050565b7f45524332303a206275726e20616d6f756e7420657863656564732062616c616e60008201527f6365000000000000000000000000000000000000000000000000000000000000602082015250565b6000611915602283611088565b9150611920826118b9565b604082019050919050565b6000602082019050818103600083015261194481611908565b9050919050565b600061195682611192565b915061196183611192565b9250828203905081811115611979576119786113ec565b5b92915050565b7f45524332303a206d696e7420746f20746865207a65726f206164647265737300600082015250565b60006119b5601f83611088565b91506119c08261197f565b602082019050919050565b600060208201905081810360008301526119e4816119a8565b905091905056fea264697066735822122060768dd55e14b56c317de6c34ced69096e8b07030b8ba6c28ee1f954dea85d6864736f6c63430008110033",
  "immutableReferences": {},
  "source": "// SPDX-License-Identifier: MIT\npragma solidity ^0.8.7;\n\nimport \"openzeppelin-solidity/contracts/access/Ownable.sol\";\nimport { Clones } from \"openzeppelin-solidity/contracts/proxy/Clones.sol\";\nimport \"./CosmoMatter.sol\";\nimport \"./CosmoBang.sol\";\nimport \"./ICosmoMatter.sol\";\n\n/**\n * CosmoUniverse is the top contract for the developer to create the planned system.\n * The creation of this contract creates an ERC20 coin called CosmoMatter.\n * The owner of this contract has the option to create a big bang starting the CosmoNuts universe.\n * Each universe is comprised of an NFT collection and a Treasury to manage funds of that NFT collection.\n */\n contract CosmoUniverse is Ownable {\n\n     uint256 public COSMO_INDEX = 0;\n     address public SYSTEM_ADDRESS;\n     address public MATTER_ADDRESS;\n\n     struct Bang {\n         string name;\n         uint256 matterCreated;\n         address implementation;\n         address cosmo;\n     }\n     Bang bang;\n     mapping(uint256 => Bang) public bangs;\n\n     CosmoMatter matter;\n\n     constructor(\n         address _systemAddress,\n         string memory _matterName,\n         string memory _matterSymbol\n     )\n     {\n         SYSTEM_ADDRESS = _systemAddress;\n         matter = new CosmoMatter(_matterName, _matterSymbol);\n         MATTER_ADDRESS = address(matter);\n     }\n\n     function totalMatter() public view returns (uint256 totalMatterBalance) {\n         totalMatterBalance = ICosmoMatter(MATTER_ADDRESS).totalMatter();\n         return totalMatterBalance;\n     }\n\n     function matterBalanceOf(address _address) public view returns (uint256 matterBalance) {\n         matterBalance = ICosmoMatter(MATTER_ADDRESS).matterOf(_address);\n         return matterBalance;\n     }\n\n     function changeCosmoIndex(uint256 _newCosmoIndex) public onlyOwner {\n         require(COSMO_INDEX != _newCosmoIndex, \"Same cosmo index\");\n         COSMO_INDEX = _newCosmoIndex;\n     }\n\n     function setImplementation(address _implementationAddress) public onlyOwner {\n         bangs[COSMO_INDEX].implementation = _implementationAddress;\n     }\n\n     function bigBang(\n         string memory _cosmosName,\n         string memory _cosmosSymbol,\n         uint256 _desiredEntities,\n         uint256 _price,\n         uint256 _rate,\n         address _treasuryImplementation,\n         address _seedImplementation,\n         address _butterImplementation,\n         address _vaultImplementation\n     ) public onlyOwner returns (address cosmoAddress) {\n         require(bangs[COSMO_INDEX].implementation != address(0), \"No bang implementation on current Cosmo\");\n         CosmoBang cosmobang = CosmoBang(Clones.clone(bangs[COSMO_INDEX].implementation));\n         address treasuryAddress = cosmobang.initialize(\n             SYSTEM_ADDRESS,\n             MATTER_ADDRESS,\n             _treasuryImplementation,\n             _seedImplementation,\n             _butterImplementation,\n             _price,\n             _rate\n         );\n\n         bangs[COSMO_INDEX].matterCreated = (_rate * _desiredEntities) + 1;\n         CosmoMatter(MATTER_ADDRESS).mintMatter(\n             treasuryAddress,\n             bangs[COSMO_INDEX].matterCreated\n         );\n\n         cosmoAddress = cosmobang.createCosmo(\n             _cosmosName,\n             _cosmosSymbol,\n             _desiredEntities,\n             treasuryAddress,\n             _vaultImplementation\n         );\n\n         bangs[COSMO_INDEX].name = _cosmosName;\n         bangs[COSMO_INDEX].cosmo = cosmoAddress;\n\n         return cosmoAddress;\n     }\n\n }\n",
  "sourcePath": "/home/redlentils/Seafile/Websites/avatarnft/contracts/CosmoUniverse.sol",
  "compiler": {
    "name": "solc",
    "version": "0.8.17+commit.8df45f5f.Emscripten.clang"
  },
  "schemaVersion": "3.4.10",
  "updatedAt": "2022-10-28T15:21:01.322Z",
  "devdoc": {
    "kind": "dev",
    "methods": {
      "owner()": {
        "details": "Returns the address of the current owner."
      },
      "renounceOwnership()": {
        "details": "Leaves the contract without owner. It will not be possible to call `onlyOwner` functions anymore. Can only be called by the current owner. NOTE: Renouncing ownership will leave the contract without an owner, thereby removing any functionality that is only available to the owner."
      },
      "transferOwnership(address)": {
        "details": "Transfers ownership of the contract to a new account (`newOwner`). Can only be called by the current owner."
      }
    },
    "version": 1
  },
  "userdoc": {
    "kind": "user",
    "methods": {},
    "notice": "CosmoUniverse is the top contract for the developer to create the planned system. The creation of this contract creates an ERC20 coin called CosmoMatter. The owner of this contract has the option to create a big bang starting the CosmoNuts universe. Each universe is comprised of an NFT collection and a Treasury to manage funds of that NFT collection.",
    "version": 1
  }
}