{
  "contractName": "CosmoButter",
  "abi": [
    {
      "inputs": [
        {
          "internalType": "address",
          "name": "_nutsAddress",
          "type": "address"
        },
        {
          "internalType": "address",
          "name": "_treasuryAddress",
          "type": "address"
        },
        {
          "internalType": "uint256",
          "name": "_tokenId",
          "type": "uint256"
        },
        {
          "internalType": "uint256",
          "name": "_butterId",
          "type": "uint256"
        },
        {
          "internalType": "uint256",
          "name": "_butterAmount",
          "type": "uint256"
        },
        {
          "internalType": "uint256",
          "name": "_butterLimit",
          "type": "uint256"
        },
        {
          "internalType": "bytes32",
          "name": "_secretHash",
          "type": "bytes32"
        }
      ],
      "stateMutability": "nonpayable",
      "type": "constructor"
    },
    {
      "inputs": [],
      "name": "BUTTER_DRAW_RATE",
      "outputs": [
        {
          "internalType": "uint256",
          "name": "",
          "type": "uint256"
        }
      ],
      "stateMutability": "view",
      "type": "function"
    },
    {
      "inputs": [],
      "name": "BUTTER_ID",
      "outputs": [
        {
          "internalType": "uint256",
          "name": "",
          "type": "uint256"
        }
      ],
      "stateMutability": "view",
      "type": "function"
    },
    {
      "inputs": [],
      "name": "TOKEN_ID",
      "outputs": [
        {
          "internalType": "uint256",
          "name": "",
          "type": "uint256"
        }
      ],
      "stateMutability": "view",
      "type": "function"
    },
    {
      "inputs": [],
      "name": "TREASURY_ADDRESS",
      "outputs": [
        {
          "internalType": "address",
          "name": "",
          "type": "address"
        }
      ],
      "stateMutability": "view",
      "type": "function"
    },
    {
      "inputs": [],
      "name": "butterAmount",
      "outputs": [
        {
          "internalType": "uint256",
          "name": "",
          "type": "uint256"
        }
      ],
      "stateMutability": "view",
      "type": "function"
    },
    {
      "inputs": [
        {
          "internalType": "string",
          "name": "_secret",
          "type": "string"
        },
        {
          "internalType": "string",
          "name": "_cidPath",
          "type": "string"
        },
        {
          "internalType": "bytes",
          "name": "_signature",
          "type": "bytes"
        }
      ],
      "name": "drawButter",
      "outputs": [],
      "stateMutability": "nonpayable",
      "type": "function"
    }
  ],
  "bytecode": "0x60806040523480156200001157600080fd5b5060405162000da338038062000da38339818101604052810190620000379190620001c9565b86600760006101000a81548173ffffffffffffffffffffffffffffffffffffffff021916908373ffffffffffffffffffffffffffffffffffffffff16021790555085600860006101000a81548173ffffffffffffffffffffffffffffffffffffffff021916908373ffffffffffffffffffffffffffffffffffffffff1602179055508460008190555080600181905550826005819055508160028190555083600381905550505050505050506200027c565b600080fd5b600073ffffffffffffffffffffffffffffffffffffffff82169050919050565b60006200011b82620000ee565b9050919050565b6200012d816200010e565b81146200013957600080fd5b50565b6000815190506200014d8162000122565b92915050565b6000819050919050565b620001688162000153565b81146200017457600080fd5b50565b60008151905062000188816200015d565b92915050565b6000819050919050565b620001a3816200018e565b8114620001af57600080fd5b50565b600081519050620001c38162000198565b92915050565b600080600080600080600060e0888a031215620001eb57620001ea620000e9565b5b6000620001fb8a828b016200013c565b97505060206200020e8a828b016200013c565b9650506040620002218a828b0162000177565b9550506060620002348a828b0162000177565b9450506080620002478a828b0162000177565b93505060a06200025a8a828b0162000177565b92505060c06200026d8a828b01620001b2565b91505092959891949750929550565b610b17806200028c6000396000f3fe608060405234801561001057600080fd5b50600436106100625760003560e01c806307604b1a1461006757806327ac1b651461008557806335f1db8d146100a157806358833c37146100bf57806389a89002146100dd578063bbb8ae35146100fb575b600080fd5b61006f610119565b60405161007c9190610498565b60405180910390f35b61009f600480360381019061009a91906106ae565b61013f565b005b6100a96103c5565b6040516100b6919061076e565b60405180910390f35b6100c76103cb565b6040516100d4919061076e565b60405180910390f35b6100e56103d1565b6040516100f2919061076e565b60405180910390f35b6101036103d7565b604051610110919061076e565b60405180910390f35b600460009054906101000a900473ffffffffffffffffffffffffffffffffffffffff1681565b60011515600660003373ffffffffffffffffffffffffffffffffffffffff1673ffffffffffffffffffffffffffffffffffffffff16815260200190815260200160002060009054906101000a900460ff161515036101d2576040517f08c379a00000000000000000000000000000000000000000000000000000000081526004016101c9906107e6565b60405180910390fd5b600060055411610217576040517f08c379a000000000000000000000000000000000000000000000000000000000815260040161020e90610852565b60405180910390fd5b610220836103dd565b50600860009054906101000a900473ffffffffffffffffffffffffffffffffffffffff1673ffffffffffffffffffffffffffffffffffffffff16639cee22b1336003546002546005546040518563ffffffff1660e01b81526004016102889493929190610872565b600060405180830381600087803b1580156102a257600080fd5b505af11580156102b6573d6000803e3d6000fd5b50505050600254600560008282546102ce91906108e6565b925050819055506001600660003373ffffffffffffffffffffffffffffffffffffffff1673ffffffffffffffffffffffffffffffffffffffff16815260200190815260200160002060006101000a81548160ff021916908315150217905550600760009054906101000a900473ffffffffffffffffffffffffffffffffffffffff1673ffffffffffffffffffffffffffffffffffffffff16639202c1ec60005484846040518463ffffffff1660e01b815260040161038e939291906109dd565b600060405180830381600087803b1580156103a857600080fd5b505af11580156103bc573d6000803e3d6000fd5b50505050505050565b60055481565b60025481565b60005481565b60035481565b600080826040516020016103f19190610a5e565b604051602081830303815290604052805190602001209050600154811461044d576040517f08c379a000000000000000000000000000000000000000000000000000000000815260040161044490610ac1565b60405180910390fd5b6001915050919050565b600073ffffffffffffffffffffffffffffffffffffffff82169050919050565b600061048282610457565b9050919050565b61049281610477565b82525050565b60006020820190506104ad6000830184610489565b92915050565b6000604051905090565b600080fd5b600080fd5b600080fd5b600080fd5b6000601f19601f8301169050919050565b7f4e487b7100000000000000000000000000000000000000000000000000000000600052604160045260246000fd5b61051a826104d1565b810181811067ffffffffffffffff82111715610539576105386104e2565b5b80604052505050565b600061054c6104b3565b90506105588282610511565b919050565b600067ffffffffffffffff821115610578576105776104e2565b5b610581826104d1565b9050602081019050919050565b82818337600083830152505050565b60006105b06105ab8461055d565b610542565b9050828152602081018484840111156105cc576105cb6104cc565b5b6105d784828561058e565b509392505050565b600082601f8301126105f4576105f36104c7565b5b813561060484826020860161059d565b91505092915050565b600067ffffffffffffffff821115610628576106276104e2565b5b610631826104d1565b9050602081019050919050565b600061065161064c8461060d565b610542565b90508281526020810184848401111561066d5761066c6104cc565b5b61067884828561058e565b509392505050565b600082601f830112610695576106946104c7565b5b81356106a584826020860161063e565b91505092915050565b6000806000606084860312156106c7576106c66104bd565b5b600084013567ffffffffffffffff8111156106e5576106e46104c2565b5b6106f1868287016105df565b935050602084013567ffffffffffffffff811115610712576107116104c2565b5b61071e868287016105df565b925050604084013567ffffffffffffffff81111561073f5761073e6104c2565b5b61074b86828701610680565b9150509250925092565b6000819050919050565b61076881610755565b82525050565b6000602082019050610783600083018461075f565b92915050565b600082825260208201905092915050565b7f43616e206f6e6c792064726177206f6e63650000000000000000000000000000600082015250565b60006107d0601283610789565b91506107db8261079a565b602082019050919050565b600060208201905081810360008301526107ff816107c3565b9050919050565b7f4e6f2062757474657220746f2064726177000000000000000000000000000000600082015250565b600061083c601183610789565b915061084782610806565b602082019050919050565b6000602082019050818103600083015261086b8161082f565b9050919050565b60006080820190506108876000830187610489565b610894602083018661075f565b6108a1604083018561075f565b6108ae606083018461075f565b95945050505050565b7f4e487b7100000000000000000000000000000000000000000000000000000000600052601160045260246000fd5b60006108f182610755565b91506108fc83610755565b9250828203905081811115610914576109136108b7565b5b92915050565b600081519050919050565b60005b83811015610943578082015181840152602081019050610928565b60008484015250505050565b600061095a8261091a565b6109648185610789565b9350610974818560208601610925565b61097d816104d1565b840191505092915050565b600081519050919050565b600082825260208201905092915050565b60006109af82610988565b6109b98185610993565b93506109c9818560208601610925565b6109d2816104d1565b840191505092915050565b60006060820190506109f2600083018661075f565b8181036020830152610a04818561094f565b90508181036040830152610a1881846109a4565b9050949350505050565b600081905092915050565b6000610a388261091a565b610a428185610a22565b9350610a52818560208601610925565b80840191505092915050565b6000610a6a8284610a2d565b915081905092915050565b7f496e70757420646f6573206e6f74206d61746368207365637265740000000000600082015250565b6000610aab601b83610789565b9150610ab682610a75565b602082019050919050565b60006020820190508181036000830152610ada81610a9e565b905091905056fea2646970667358221220617a1aa16fdbffd90cd16898ddfae49c4d347dd2b472595c06149b4c9b1602b364736f6c63430008110033",
  "immutableReferences": {},
  "source": "// SPDX-License-Identifier: MIT\npragma solidity ^0.8.7;\n\nimport \"./CosmoNuts.sol\";\nimport \"./CosmoTreasury.sol\";\n\n/**\n * A contract created by a CosmoNut which contains a certain amount of matter,\n * and can be drawn by others if the secret is known.\n */\n contract CosmoButter {\n\n     // Turn these into a struct\n     uint256 public TOKEN_ID;\n     bytes32 private SECRET_HASH;\n     uint256 public BUTTER_DRAW_RATE;\n     uint256 public BUTTER_ID;\n     address public TREASURY_ADDRESS;\n\n     uint256 public butterAmount;\n     mapping(address => bool) private drawnBefore;\n\n     CosmoNuts COSMO_NUTS;\n     CosmoTreasury TREASURY;\n\n     constructor(\n         address _nutsAddress,\n         address _treasuryAddress,\n         uint256 _tokenId,\n         uint256 _butterId,\n         uint256 _butterAmount,\n         uint256 _butterLimit,\n         bytes32 _secretHash\n     ) {\n         COSMO_NUTS = CosmoNuts(_nutsAddress);\n         TREASURY = CosmoTreasury(_treasuryAddress);\n         TOKEN_ID = _tokenId;\n         SECRET_HASH = _secretHash;\n         butterAmount = _butterAmount;\n         BUTTER_DRAW_RATE = _butterLimit;\n         BUTTER_ID = _butterId;\n     }\n\n     modifier onlyOnce {\n         require(drawnBefore[msg.sender] != true, \"Can only draw once\");\n         _;\n     }\n\n     /**\n      * Function callable from anyone, but can only be done once per Ethereum address.\n      */\n     function drawButter(string memory _secret, string memory _cidPath, bytes memory _signature) onlyOnce public {\n         require(butterAmount > 0 wei, \"No butter to draw\");\n         verifySecret(_secret);\n\n         TREASURY.butterDrawn(msg.sender, BUTTER_ID, BUTTER_DRAW_RATE, butterAmount);\n         butterAmount -= BUTTER_DRAW_RATE;\n         drawnBefore[msg.sender] = true;\n\n         COSMO_NUTS.spreadButter(TOKEN_ID, _cidPath, _signature);\n     }\n\n     /**\n      * Takes a string input and hashes it; compares to the SECRET_HASH in the contract\n      * If it matches, returns true.\n      */\n     function verifySecret(string memory _input) private view returns(bool) {\n         bytes32 inputHash = keccak256(abi.encodePacked(_input));\n         require(inputHash == SECRET_HASH, \"Input does not match secret\");\n         return true;\n     }\n\n\n }\n",
  "sourcePath": "/home/redlentils/Seafile/Websites/avatarnft/contracts/CosmoButter.sol",
  "compiler": {
    "name": "solc",
    "version": "0.8.17+commit.8df45f5f.Emscripten.clang"
  },
  "schemaVersion": "3.4.10",
  "updatedAt": "2022-10-03T21:57:54.766Z",
  "devdoc": {
    "kind": "dev",
    "methods": {},
    "version": 1
  },
  "userdoc": {
    "kind": "user",
    "methods": {
      "drawButter(string,string,bytes)": {
        "notice": "Function callable from anyone, but can only be done once per Ethereum address."
      }
    },
    "notice": "A contract created by a CosmoNut which contains a certain amount of matter, and can be drawn by others if the secret is known.",
    "version": 1
  }
}