{
  "contractName": "CosmoButter",
  "abi": [
    {
      "inputs": [
        {
          "internalType": "uint256",
          "name": "_butterId",
          "type": "uint256"
        },
        {
          "internalType": "uint256",
          "name": "_nutId",
          "type": "uint256"
        },
        {
          "internalType": "uint256",
          "name": "_butterAmount",
          "type": "uint256"
        },
        {
          "internalType": "uint256",
          "name": "_drawRate",
          "type": "uint256"
        },
        {
          "internalType": "address",
          "name": "_treasuryAddress",
          "type": "address"
        },
        {
          "internalType": "bytes32",
          "name": "_secretHash",
          "type": "bytes32"
        }
      ],
      "name": "initialize",
      "outputs": [],
      "stateMutability": "nonpayable",
      "type": "function"
    },
    {
      "inputs": [
        {
          "internalType": "string",
          "name": "_secret",
          "type": "string"
        },
        {
          "internalType": "string",
          "name": "_cidPath",
          "type": "string"
        },
        {
          "internalType": "bytes",
          "name": "_signature",
          "type": "bytes"
        }
      ],
      "name": "drawButter",
      "outputs": [],
      "stateMutability": "nonpayable",
      "type": "function"
    }
  ],
  "bytecode": "0x608060405234801561001057600080fd5b50610cc8806100206000396000f3fe608060405234801561001057600080fd5b50600436106100365760003560e01c806327ac1b651461003b578063f8257f8714610057575b600080fd5b610055600480360381019061005091906106b9565b610073565b005b610071600480360381019061006c919061082a565b61033c565b005b60011515600060080160003373ffffffffffffffffffffffffffffffffffffffff1673ffffffffffffffffffffffffffffffffffffffff16815260200190815260200160002060009054906101000a900460ff16151503610109576040517f08c379a000000000000000000000000000000000000000000000000000000000815260040161010090610914565b60405180910390fd5b6000806002015411610150576040517f08c379a000000000000000000000000000000000000000000000000000000000815260040161014790610980565b60405180910390fd5b61015983610441565b50600060050160009054906101000a900473ffffffffffffffffffffffffffffffffffffffff1673ffffffffffffffffffffffffffffffffffffffff16639cee22b13360008001546000600301546000600201546040518563ffffffff1660e01b81526004016101cc94939291906109be565b6020604051808303816000875af11580156101eb573d6000803e3d6000fd5b505050506040513d601f19601f8201168201806040525081019061020f9190610a3b565b506000600301546000600201600082825461022a9190610a97565b925050819055506001600060080160003373ffffffffffffffffffffffffffffffffffffffff1673ffffffffffffffffffffffffffffffffffffffff16815260200190815260200160002060006101000a81548160ff021916908315150217905550600060060160009054906101000a900473ffffffffffffffffffffffffffffffffffffffff1673ffffffffffffffffffffffffffffffffffffffff16639202c1ec60006001015484846040518463ffffffff1660e01b81526004016102f393929190610b8e565b6020604051808303816000875af1158015610312573d6000803e3d6000fd5b505050506040513d601f19601f820116820180604052508101906103369190610a3b565b50505050565b85600080018190555084600060010181905550836000600201819055508260006003018190555030600060040160006101000a81548173ffffffffffffffffffffffffffffffffffffffff021916908373ffffffffffffffffffffffffffffffffffffffff16021790555081600060050160006101000a81548173ffffffffffffffffffffffffffffffffffffffff021916908373ffffffffffffffffffffffffffffffffffffffff16021790555033600060060160006101000a81548173ffffffffffffffffffffffffffffffffffffffff021916908373ffffffffffffffffffffffffffffffffffffffff16021790555080600060070181905550505050505050565b600080826040516020016104559190610c0f565b60405160208183030381529060405280519060200120905060006007015481146104b4576040517f08c379a00000000000000000000000000000000000000000000000000000000081526004016104ab90610c72565b60405180910390fd5b6001915050919050565b6000604051905090565b600080fd5b600080fd5b600080fd5b600080fd5b6000601f19601f8301169050919050565b7f4e487b7100000000000000000000000000000000000000000000000000000000600052604160045260246000fd5b610525826104dc565b810181811067ffffffffffffffff82111715610544576105436104ed565b5b80604052505050565b60006105576104be565b9050610563828261051c565b919050565b600067ffffffffffffffff821115610583576105826104ed565b5b61058c826104dc565b9050602081019050919050565b82818337600083830152505050565b60006105bb6105b684610568565b61054d565b9050828152602081018484840111156105d7576105d66104d7565b5b6105e2848285610599565b509392505050565b600082601f8301126105ff576105fe6104d2565b5b813561060f8482602086016105a8565b91505092915050565b600067ffffffffffffffff821115610633576106326104ed565b5b61063c826104dc565b9050602081019050919050565b600061065c61065784610618565b61054d565b905082815260208101848484011115610678576106776104d7565b5b610683848285610599565b509392505050565b600082601f8301126106a05761069f6104d2565b5b81356106b0848260208601610649565b91505092915050565b6000806000606084860312156106d2576106d16104c8565b5b600084013567ffffffffffffffff8111156106f0576106ef6104cd565b5b6106fc868287016105ea565b935050602084013567ffffffffffffffff81111561071d5761071c6104cd565b5b610729868287016105ea565b925050604084013567ffffffffffffffff81111561074a576107496104cd565b5b6107568682870161068b565b9150509250925092565b6000819050919050565b61077381610760565b811461077e57600080fd5b50565b6000813590506107908161076a565b92915050565b600073ffffffffffffffffffffffffffffffffffffffff82169050919050565b60006107c182610796565b9050919050565b6107d1816107b6565b81146107dc57600080fd5b50565b6000813590506107ee816107c8565b92915050565b6000819050919050565b610807816107f4565b811461081257600080fd5b50565b600081359050610824816107fe565b92915050565b60008060008060008060c08789031215610847576108466104c8565b5b600061085589828a01610781565b965050602061086689828a01610781565b955050604061087789828a01610781565b945050606061088889828a01610781565b935050608061089989828a016107df565b92505060a06108aa89828a01610815565b9150509295509295509295565b600082825260208201905092915050565b7f43616e206f6e6c792064726177206f6e63650000000000000000000000000000600082015250565b60006108fe6012836108b7565b9150610909826108c8565b602082019050919050565b6000602082019050818103600083015261092d816108f1565b9050919050565b7f4e6f2062757474657220746f2064726177000000000000000000000000000000600082015250565b600061096a6011836108b7565b915061097582610934565b602082019050919050565b600060208201905081810360008301526109998161095d565b9050919050565b6109a9816107b6565b82525050565b6109b881610760565b82525050565b60006080820190506109d360008301876109a0565b6109e060208301866109af565b6109ed60408301856109af565b6109fa60608301846109af565b95945050505050565b60008115159050919050565b610a1881610a03565b8114610a2357600080fd5b50565b600081519050610a3581610a0f565b92915050565b600060208284031215610a5157610a506104c8565b5b6000610a5f84828501610a26565b91505092915050565b7f4e487b7100000000000000000000000000000000000000000000000000000000600052601160045260246000fd5b6000610aa282610760565b9150610aad83610760565b9250828203905081811115610ac557610ac4610a68565b5b92915050565b600081519050919050565b60005b83811015610af4578082015181840152602081019050610ad9565b60008484015250505050565b6000610b0b82610acb565b610b1581856108b7565b9350610b25818560208601610ad6565b610b2e816104dc565b840191505092915050565b600081519050919050565b600082825260208201905092915050565b6000610b6082610b39565b610b6a8185610b44565b9350610b7a818560208601610ad6565b610b83816104dc565b840191505092915050565b6000606082019050610ba360008301866109af565b8181036020830152610bb58185610b00565b90508181036040830152610bc98184610b55565b9050949350505050565b600081905092915050565b6000610be982610acb565b610bf38185610bd3565b9350610c03818560208601610ad6565b80840191505092915050565b6000610c1b8284610bde565b915081905092915050565b7f496e70757420646f6573206e6f74206d61746368207365637265740000000000600082015250565b6000610c5c601b836108b7565b9150610c6782610c26565b602082019050919050565b60006020820190508181036000830152610c8b81610c4f565b905091905056fea26469706673582212209b9375083ffb45846339adda27d376f32945fe9f9a2156286bb16e5b51a8ff9564736f6c63430008110033",
  "immutableReferences": {},
  "source": "// SPDX-License-Identifier: MIT\npragma solidity ^0.8.7;\n\nimport \"./ICosmoNuts.sol\";\nimport \"./ICosmoTreasury.sol\";\n\n/**\n * A contract created by a CosmoNut which contains a certain amount of matter,\n * and can be drawn by others if the secret is known.\n */\n contract CosmoButter {\n\n     struct Butter {\n         uint256 id;\n         uint256 nutId;\n         uint256 amount;\n         uint256 drawRate;\n         address location;\n         address treasury;\n         address nutLocation;\n         bytes32 secretHash;\n         mapping(address => bool) drawnBefore;\n     }\n     Butter butter;\n\n     /*\n     constructor(\n         uint256 _butterId,\n         uint256 _nutId,\n         uint256 _butterAmount,\n         uint256 _drawRate,\n         address _treasuryAddress,\n         bytes32 _secretHash\n     ) {\n         butter.id = _butterId;\n         butter.nutId = _nutId;\n         butter.amount = _butterAmount;\n         butter.drawRate = _drawRate;\n         butter.location = address(this);\n         butter.treasury = _treasuryAddress;\n         butter.nutLocation = address(msg.sender);\n         butter.secretHash = _secretHash;\n     }\n     */\n     function initialize(\n         uint256 _butterId,\n         uint256 _nutId,\n         uint256 _butterAmount,\n         uint256 _drawRate,\n         address _treasuryAddress,\n         bytes32 _secretHash\n     ) public {\n         butter.id = _butterId;\n         butter.nutId = _nutId;\n         butter.amount = _butterAmount;\n         butter.drawRate = _drawRate;\n         butter.location = address(this);\n         butter.treasury = _treasuryAddress;\n         butter.nutLocation = address(msg.sender);\n         butter.secretHash = _secretHash;\n     }\n\n     modifier onlyOnce {\n         require(butter.drawnBefore[msg.sender] != true, \"Can only draw once\");\n         _;\n     }\n\n     /**\n      * Function callable from anyone, but can only be done once per Ethereum address.\n      */\n     function drawButter(string memory _secret, string memory _cidPath, bytes memory _signature) onlyOnce public {\n         require(butter.amount > 0 wei, \"No butter to draw\");\n         verifySecret(_secret);\n\n         ICosmoTreasury(butter.treasury).butterDrawn(msg.sender, butter.id, butter.drawRate, butter.amount);\n         butter.amount -= butter.drawRate;\n         butter.drawnBefore[msg.sender] = true;\n\n         ICosmoNuts(butter.nutLocation).spreadButter(butter.nutId, _cidPath, _signature);\n     }\n\n     /**\n      * Takes a string input and hashes it; compares to the SECRET_HASH in the contract\n      * If it matches, returns true.\n      */\n     function verifySecret(string memory _input) private view returns(bool) {\n         bytes32 inputHash = keccak256(abi.encodePacked(_input));\n         require(inputHash == butter.secretHash, \"Input does not match secret\");\n         return true;\n     }\n\n\n }\n",
  "sourcePath": "/home/redlentils/Seafile/Websites/avatarnft/contracts/CosmoButter.sol",
  "compiler": {
    "name": "solc",
    "version": "0.8.17+commit.8df45f5f.Emscripten.clang"
  },
  "schemaVersion": "3.4.10",
  "updatedAt": "2022-10-18T07:44:26.632Z",
  "devdoc": {
    "kind": "dev",
    "methods": {},
    "version": 1
  },
  "userdoc": {
    "kind": "user",
    "methods": {
      "drawButter(string,string,bytes)": {
        "notice": "Function callable from anyone, but can only be done once per Ethereum address."
      }
    },
    "notice": "A contract created by a CosmoNut which contains a certain amount of matter, and can be drawn by others if the secret is known.",
    "version": 1
  }
}