{
  "contractName": "CosmoUniverse",
  "abi": [
    {
      "inputs": [
        {
          "internalType": "address",
          "name": "_systemAddress",
          "type": "address"
        }
      ],
      "stateMutability": "nonpayable",
      "type": "constructor"
    },
    {
      "anonymous": false,
      "inputs": [
        {
          "indexed": true,
          "internalType": "address",
          "name": "previousOwner",
          "type": "address"
        },
        {
          "indexed": true,
          "internalType": "address",
          "name": "newOwner",
          "type": "address"
        }
      ],
      "name": "OwnershipTransferred",
      "type": "event"
    },
    {
      "inputs": [],
      "name": "MATTER_ADDRESS",
      "outputs": [
        {
          "internalType": "address",
          "name": "",
          "type": "address"
        }
      ],
      "stateMutability": "view",
      "type": "function"
    },
    {
      "inputs": [],
      "name": "SYSTEM_ADDRESS",
      "outputs": [
        {
          "internalType": "address",
          "name": "",
          "type": "address"
        }
      ],
      "stateMutability": "view",
      "type": "function"
    },
    {
      "inputs": [
        {
          "internalType": "uint256",
          "name": "",
          "type": "uint256"
        }
      ],
      "name": "cosmos",
      "outputs": [
        {
          "internalType": "bool",
          "name": "status",
          "type": "bool"
        },
        {
          "internalType": "uint256",
          "name": "id",
          "type": "uint256"
        },
        {
          "internalType": "uint256",
          "name": "price",
          "type": "uint256"
        },
        {
          "internalType": "uint256",
          "name": "rate",
          "type": "uint256"
        },
        {
          "internalType": "uint256",
          "name": "amount",
          "type": "uint256"
        },
        {
          "internalType": "string",
          "name": "name",
          "type": "string"
        },
        {
          "internalType": "string",
          "name": "symbol",
          "type": "string"
        },
        {
          "internalType": "address",
          "name": "location",
          "type": "address"
        },
        {
          "internalType": "address",
          "name": "vaultLocation",
          "type": "address"
        }
      ],
      "stateMutability": "view",
      "type": "function"
    },
    {
      "inputs": [],
      "name": "owner",
      "outputs": [
        {
          "internalType": "address",
          "name": "",
          "type": "address"
        }
      ],
      "stateMutability": "view",
      "type": "function"
    },
    {
      "inputs": [],
      "name": "renounceOwnership",
      "outputs": [],
      "stateMutability": "nonpayable",
      "type": "function"
    },
    {
      "inputs": [
        {
          "internalType": "address",
          "name": "newOwner",
          "type": "address"
        }
      ],
      "name": "transferOwnership",
      "outputs": [],
      "stateMutability": "nonpayable",
      "type": "function"
    },
    {
      "inputs": [
        {
          "internalType": "uint256",
          "name": "_id",
          "type": "uint256"
        },
        {
          "internalType": "uint256",
          "name": "_price",
          "type": "uint256"
        },
        {
          "internalType": "uint256",
          "name": "_rate",
          "type": "uint256"
        },
        {
          "internalType": "uint256",
          "name": "_amount",
          "type": "uint256"
        },
        {
          "internalType": "string",
          "name": "_name",
          "type": "string"
        },
        {
          "internalType": "string",
          "name": "_symbol",
          "type": "string"
        }
      ],
      "name": "deployCosmo",
      "outputs": [],
      "stateMutability": "nonpayable",
      "type": "function"
    },
    {
      "inputs": [
        {
          "internalType": "string",
          "name": "_matterName",
          "type": "string"
        },
        {
          "internalType": "string",
          "name": "_matterSymbol",
          "type": "string"
        }
      ],
      "name": "makeMatter",
      "outputs": [],
      "stateMutability": "nonpayable",
      "type": "function"
    },
    {
      "inputs": [],
      "name": "bigBang",
      "outputs": [],
      "stateMutability": "nonpayable",
      "type": "function"
    }
  ],
  "bytecode": "0x60806040523480156200001157600080fd5b506040516200f47f3803806200f47f833981810160405281019062000037919062000221565b8080600160006101000a81548173ffffffffffffffffffffffffffffffffffffffff021916908373ffffffffffffffffffffffffffffffffffffffff1602179055506000808190555050620000a162000095620000e960201b60201c565b620000f160201b60201c565b80600160006101000a81548173ffffffffffffffffffffffffffffffffffffffff021916908373ffffffffffffffffffffffffffffffffffffffff1602179055505062000253565b600033905090565b6000600d60009054906101000a900473ffffffffffffffffffffffffffffffffffffffff16905081600d60006101000a81548173ffffffffffffffffffffffffffffffffffffffff021916908373ffffffffffffffffffffffffffffffffffffffff1602179055508173ffffffffffffffffffffffffffffffffffffffff168173ffffffffffffffffffffffffffffffffffffffff167f8be0079c531659141344cd1fd0a4f28419497f9722a3daafe3b4186f6b6457e060405160405180910390a35050565b600080fd5b600073ffffffffffffffffffffffffffffffffffffffff82169050919050565b6000620001e982620001bc565b9050919050565b620001fb81620001dc565b81146200020757600080fd5b50565b6000815190506200021b81620001f0565b92915050565b6000602082840312156200023a5762000239620001b7565b5b60006200024a848285016200020a565b91505092915050565b61f21c80620002636000396000f3fe60806040523480156200001157600080fd5b5060043610620000a05760003560e01c8063715018a6116200006f578063715018a614620001155780638da5cb5b1462000121578063bbd051581462000143578063d8712a621462000163578063f2fde38b14620001a157620000a0565b806303cf067814620000a55780633434735f14620000b157806351d5f1a814620000d357806364b1b66314620000f3575b600080fd5b620000af620001c1565b005b620000bb6200033b565b604051620000ca919062000ca6565b60405180910390f35b620000f16004803603810190620000eb919062000e74565b62000361565b005b620000fd62000431565b6040516200010c919062000ca6565b60405180910390f35b6200011f62000457565b005b6200012b620004e8565b6040516200013a919062000ca6565b60405180910390f35b6200016160048036038101906200015b919062000f4e565b62000512565b005b6200018160048036038101906200017b919062000fd3565b620005f4565b6040516200019899989796959493929190620010bc565b60405180910390f35b620001bf6004803603810190620001b991906200119a565b620007af565b005b6000600c60008054815260200190815260200160002060040154600c60008054815260200190815260200160002060030154620001ff9190620011fb565b9050600260009054906101000a900473ffffffffffffffffffffffffffffffffffffffff16600e60006101000a81548173ffffffffffffffffffffffffffffffffffffffff021916908373ffffffffffffffffffffffffffffffffffffffff160217905550600e60009054906101000a900473ffffffffffffffffffffffffffffffffffffffff1673ffffffffffffffffffffffffffffffffffffffff16634bbc1bcd600c60008054815260200190815260200160002060080160009054906101000a900473ffffffffffffffffffffffffffffffffffffffff16836040518363ffffffff1660e01b8152600401620002fa92919062001246565b600060405180830381600087803b1580156200031557600080fd5b505af11580156200032a573d6000803e3d6000fd5b5050505062000338620008b2565b50565b600160009054906101000a900473ffffffffffffffffffffffffffffffffffffffff1681565b85600c6000805481526020019081526020016000206001018190555084600c6000805481526020019081526020016000206002018190555083600c6000805481526020019081526020016000206003018190555082600c6000805481526020019081526020016000206004018190555081600c6000805481526020019081526020016000206005019081620003f79190620014a9565b5080600c60008054815260200190815260200160002060060190816200041e9190620014a9565b506200042962000a8d565b505050505050565b600260009054906101000a900473ffffffffffffffffffffffffffffffffffffffff1681565b6200046162000b69565b73ffffffffffffffffffffffffffffffffffffffff1662000481620004e8565b73ffffffffffffffffffffffffffffffffffffffff1614620004da576040517f08c379a0000000000000000000000000000000000000000000000000000000008152600401620004d190620015e0565b60405180910390fd5b620004e6600062000b71565b565b6000600d60009054906101000a900473ffffffffffffffffffffffffffffffffffffffff16905090565b8181604051620005229062000c37565b6200052f92919062001602565b604051809103906000f0801580156200054c573d6000803e3d6000fd5b50600e60006101000a81548173ffffffffffffffffffffffffffffffffffffffff021916908373ffffffffffffffffffffffffffffffffffffffff160217905550600e60009054906101000a900473ffffffffffffffffffffffffffffffffffffffff16600260006101000a81548173ffffffffffffffffffffffffffffffffffffffff021916908373ffffffffffffffffffffffffffffffffffffffff1602179055505050565b600c6020528060005260406000206000915090508060000160009054906101000a900460ff16908060010154908060020154908060030154908060040154908060050180546200064490620012a2565b80601f01602080910402602001604051908101604052809291908181526020018280546200067290620012a2565b8015620006c35780601f106200069757610100808354040283529160200191620006c3565b820191906000526020600020905b815481529060010190602001808311620006a557829003601f168201915b505050505090806006018054620006da90620012a2565b80601f01602080910402602001604051908101604052809291908181526020018280546200070890620012a2565b8015620007595780601f106200072d5761010080835404028352916020019162000759565b820191906000526020600020905b8154815290600101906020018083116200073b57829003601f168201915b5050505050908060070160009054906101000a900473ffffffffffffffffffffffffffffffffffffffff16908060080160009054906101000a900473ffffffffffffffffffffffffffffffffffffffff16905089565b620007b962000b69565b73ffffffffffffffffffffffffffffffffffffffff16620007d9620004e8565b73ffffffffffffffffffffffffffffffffffffffff161462000832576040517f08c379a00000000000000000000000000000000000000000000000000000000081526004016200082990620015e0565b60405180910390fd5b600073ffffffffffffffffffffffffffffffffffffffff168173ffffffffffffffffffffffffffffffffffffffff1603620008a4576040517f08c379a00000000000000000000000000000000000000000000000000000000081526004016200089b90620016b3565b60405180910390fd5b620008af8162000b71565b50565b6000600c600080548152602001908152602001600020600501600c600080548152602001908152602001600020600601600c60008054815260200190815260200160002060040154600160009054906101000a900473ffffffffffffffffffffffffffffffffffffffff16600c60008054815260200190815260200160002060080160009054906101000a900473ffffffffffffffffffffffffffffffffffffffff16604051620009639062000c45565b6200097395949392919062001765565b604051809103906000f08015801562000990573d6000803e3d6000fd5b5090508073ffffffffffffffffffffffffffffffffffffffff1663235d2c8a6040518163ffffffff1660e01b8152600401602060405180830381865afa158015620009df573d6000803e3d6000fd5b505050506040513d601f19601f8201168201806040525081019062000a059190620017e7565b600c60008054815260200190815260200160002060070160006101000a81548173ffffffffffffffffffffffffffffffffffffffff021916908373ffffffffffffffffffffffffffffffffffffffff1602179055506001600c60008054815260200190815260200160002060000160006101000a81548160ff02191690831515021790555050565b6000600160009054906101000a900473ffffffffffffffffffffffffffffffffffffffff16600260009054906101000a900473ffffffffffffffffffffffffffffffffffffffff1660405162000ae39062000c53565b62000af092919062001819565b604051809103906000f08015801562000b0d573d6000803e3d6000fd5b50905080600c60008054815260200190815260200160002060080160006101000a81548173ffffffffffffffffffffffffffffffffffffffff021916908373ffffffffffffffffffffffffffffffffffffffff16021790555050565b600033905090565b6000600d60009054906101000a900473ffffffffffffffffffffffffffffffffffffffff16905081600d60006101000a81548173ffffffffffffffffffffffffffffffffffffffff021916908373ffffffffffffffffffffffffffffffffffffffff1602179055508173ffffffffffffffffffffffffffffffffffffffff168173ffffffffffffffffffffffffffffffffffffffff167f8be0079c531659141344cd1fd0a4f28419497f9722a3daafe3b4186f6b6457e060405160405180910390a35050565b611f88806200184783390190565b615a0980620037cf83390190565b61600f80620091d883390190565b600073ffffffffffffffffffffffffffffffffffffffff82169050919050565b600062000c8e8262000c61565b9050919050565b62000ca08162000c81565b82525050565b600060208201905062000cbd600083018462000c95565b92915050565b6000604051905090565b600080fd5b600080fd5b6000819050919050565b62000cec8162000cd7565b811462000cf857600080fd5b50565b60008135905062000d0c8162000ce1565b92915050565b600080fd5b600080fd5b6000601f19601f8301169050919050565b7f4e487b7100000000000000000000000000000000000000000000000000000000600052604160045260246000fd5b62000d678262000d1c565b810181811067ffffffffffffffff8211171562000d895762000d8862000d2d565b5b80604052505050565b600062000d9e62000cc3565b905062000dac828262000d5c565b919050565b600067ffffffffffffffff82111562000dcf5762000dce62000d2d565b5b62000dda8262000d1c565b9050602081019050919050565b82818337600083830152505050565b600062000e0d62000e078462000db1565b62000d92565b90508281526020810184848401111562000e2c5762000e2b62000d17565b5b62000e3984828562000de7565b509392505050565b600082601f83011262000e595762000e5862000d12565b5b813562000e6b84826020860162000df6565b91505092915050565b60008060008060008060c0878903121562000e945762000e9362000ccd565b5b600062000ea489828a0162000cfb565b965050602062000eb789828a0162000cfb565b955050604062000eca89828a0162000cfb565b945050606062000edd89828a0162000cfb565b935050608087013567ffffffffffffffff81111562000f015762000f0062000cd2565b5b62000f0f89828a0162000e41565b92505060a087013567ffffffffffffffff81111562000f335762000f3262000cd2565b5b62000f4189828a0162000e41565b9150509295509295509295565b6000806040838503121562000f685762000f6762000ccd565b5b600083013567ffffffffffffffff81111562000f895762000f8862000cd2565b5b62000f978582860162000e41565b925050602083013567ffffffffffffffff81111562000fbb5762000fba62000cd2565b5b62000fc98582860162000e41565b9150509250929050565b60006020828403121562000fec5762000feb62000ccd565b5b600062000ffc8482850162000cfb565b91505092915050565b60008115159050919050565b6200101c8162001005565b82525050565b6200102d8162000cd7565b82525050565b600081519050919050565b600082825260208201905092915050565b60005b838110156200106f57808201518184015260208101905062001052565b60008484015250505050565b6000620010888262001033565b6200109481856200103e565b9350620010a68185602086016200104f565b620010b18162000d1c565b840191505092915050565b600061012082019050620010d4600083018c62001011565b620010e3602083018b62001022565b620010f2604083018a62001022565b62001101606083018962001022565b62001110608083018862001022565b81810360a08301526200112481876200107b565b905081810360c08301526200113a81866200107b565b90506200114b60e083018562000c95565b6200115b61010083018462000c95565b9a9950505050505050505050565b620011748162000c81565b81146200118057600080fd5b50565b600081359050620011948162001169565b92915050565b600060208284031215620011b357620011b262000ccd565b5b6000620011c38482850162001183565b91505092915050565b7f4e487b7100000000000000000000000000000000000000000000000000000000600052601160045260246000fd5b6000620012088262000cd7565b9150620012158362000cd7565b9250828202620012258162000cd7565b915082820484148315176200123f576200123e620011cc565b5b5092915050565b60006040820190506200125d600083018562000c95565b6200126c602083018462001022565b9392505050565b7f4e487b7100000000000000000000000000000000000000000000000000000000600052602260045260246000fd5b60006002820490506001821680620012bb57607f821691505b602082108103620012d157620012d062001273565b5b50919050565b60008190508160005260206000209050919050565b60006020601f8301049050919050565b600082821b905092915050565b6000600883026200133b7fffffffffffffffffffffffffffffffffffffffffffffffffffffffffffffffff82620012fc565b620013478683620012fc565b95508019841693508086168417925050509392505050565b6000819050919050565b60006200138a620013846200137e8462000cd7565b6200135f565b62000cd7565b9050919050565b6000819050919050565b620013a68362001369565b620013be620013b58262001391565b84845462001309565b825550505050565b600090565b620013d5620013c6565b620013e28184846200139b565b505050565b5b818110156200140a57620013fe600082620013cb565b600181019050620013e8565b5050565b601f82111562001459576200142381620012d7565b6200142e84620012ec565b810160208510156200143e578190505b620014566200144d85620012ec565b830182620013e7565b50505b505050565b600082821c905092915050565b60006200147e600019846008026200145e565b1980831691505092915050565b60006200149983836200146b565b9150826002028217905092915050565b620014b48262001033565b67ffffffffffffffff811115620014d057620014cf62000d2d565b5b620014dc8254620012a2565b620014e98282856200140e565b600060209050601f8311600181146200152157600084156200150c578287015190505b6200151885826200148b565b86555062001588565b601f1984166200153186620012d7565b60005b828110156200155b5784890151825560018201915060208501945060208101905062001534565b868310156200157b578489015162001577601f8916826200146b565b8355505b6001600288020188555050505b505050505050565b7f4f776e61626c653a2063616c6c6572206973206e6f7420746865206f776e6572600082015250565b6000620015c86020836200103e565b9150620015d58262001590565b602082019050919050565b60006020820190508181036000830152620015fb81620015b9565b9050919050565b600060408201905081810360008301526200161e81856200107b565b905081810360208301526200163481846200107b565b90509392505050565b7f4f776e61626c653a206e6577206f776e657220697320746865207a65726f206160008201527f6464726573730000000000000000000000000000000000000000000000000000602082015250565b60006200169b6026836200103e565b9150620016a8826200163d565b604082019050919050565b60006020820190508181036000830152620016ce816200168c565b9050919050565b60008154620016e481620012a2565b620016f081866200103e565b945060018216600081146200170e576001811462001725576200175c565b60ff1983168652811515602002860193506200175c565b6200173085620012d7565b60005b83811015620017545781548189015260018201915060208101905062001733565b808801955050505b50505092915050565b600060a0820190508181036000830152620017818188620016d5565b90508181036020830152620017978187620016d5565b9050620017a8604083018662001022565b620017b7606083018562000c95565b620017c6608083018462000c95565b9695505050505050565b600081519050620017e18162001169565b92915050565b6000602082840312156200180057620017ff62000ccd565b5b60006200181084828501620017d0565b91505092915050565b600060408201905062001830600083018562000c95565b6200183f602083018462000c95565b939250505056fe60806040523480156200001157600080fd5b5060405162001f8838038062001f8883398181016040528101906200003791906200021e565b818181600390816200004a9190620004ee565b5080600490816200005c9190620004ee565b5050508160059081620000709190620004ee565b508060069081620000829190620004ee565b505050620005d5565b6000604051905090565b600080fd5b600080fd5b600080fd5b600080fd5b6000601f19601f8301169050919050565b7f4e487b7100000000000000000000000000000000000000000000000000000000600052604160045260246000fd5b620000f482620000a9565b810181811067ffffffffffffffff82111715620001165762000115620000ba565b5b80604052505050565b60006200012b6200008b565b9050620001398282620000e9565b919050565b600067ffffffffffffffff8211156200015c576200015b620000ba565b5b6200016782620000a9565b9050602081019050919050565b60005b838110156200019457808201518184015260208101905062000177565b60008484015250505050565b6000620001b7620001b1846200013e565b6200011f565b905082815260208101848484011115620001d657620001d5620000a4565b5b620001e384828562000174565b509392505050565b600082601f8301126200020357620002026200009f565b5b815162000215848260208601620001a0565b91505092915050565b6000806040838503121562000238576200023762000095565b5b600083015167ffffffffffffffff8111156200025957620002586200009a565b5b6200026785828601620001eb565b925050602083015167ffffffffffffffff8111156200028b576200028a6200009a565b5b6200029985828601620001eb565b9150509250929050565b600081519050919050565b7f4e487b7100000000000000000000000000000000000000000000000000000000600052602260045260246000fd5b60006002820490506001821680620002f657607f821691505b6020821081036200030c576200030b620002ae565b5b50919050565b60008190508160005260206000209050919050565b60006020601f8301049050919050565b600082821b905092915050565b600060088302620003767fffffffffffffffffffffffffffffffffffffffffffffffffffffffffffffffff8262000337565b62000382868362000337565b95508019841693508086168417925050509392505050565b6000819050919050565b6000819050919050565b6000620003cf620003c9620003c3846200039a565b620003a4565b6200039a565b9050919050565b6000819050919050565b620003eb83620003ae565b62000403620003fa82620003d6565b84845462000344565b825550505050565b600090565b6200041a6200040b565b62000427818484620003e0565b505050565b5b818110156200044f576200044360008262000410565b6001810190506200042d565b5050565b601f8211156200049e57620004688162000312565b620004738462000327565b8101602085101562000483578190505b6200049b620004928562000327565b8301826200042c565b50505b505050565b600082821c905092915050565b6000620004c360001984600802620004a3565b1980831691505092915050565b6000620004de8383620004b0565b9150826002028217905092915050565b620004f982620002a3565b67ffffffffffffffff811115620005155762000514620000ba565b5b620005218254620002dd565b6200052e82828562000453565b600060209050601f83116001811462000566576000841562000551578287015190505b6200055d8582620004d0565b865550620005cd565b601f198416620005768662000312565b60005b82811015620005a05784890151825560018201915060208501945060208101905062000579565b86831015620005c05784890151620005bc601f891682620004b0565b8355505b6001600288020188555050505b505050505050565b6119a380620005e56000396000f3fe608060405234801561001057600080fd5b50600436106101005760003560e01c8063699aa4791161009757806395d89b411161006657806395d89b41146102af578063a457c2d7146102cd578063a9059cbb146102fd578063dd62ed3e1461032d57610100565b8063699aa4791461022757806370a082311461024557806379cc679014610275578063916965651461029157610100565b8063313ce567116100d3578063313ce567146101a157806339509351146101bf57806342966c68146101ef5780634bbc1bcd1461020b57610100565b806306fdde0314610105578063095ea7b31461012357806318160ddd1461015357806323b872dd14610171575b600080fd5b61010d61035d565b60405161011a919061108f565b60405180910390f35b61013d6004803603810190610138919061114a565b6103ef565b60405161014a91906111a5565b60405180910390f35b61015b610412565b60405161016891906111cf565b60405180910390f35b61018b600480360381019061018691906111ea565b61041c565b60405161019891906111a5565b60405180910390f35b6101a961044b565b6040516101b69190611259565b60405180910390f35b6101d960048036038101906101d4919061114a565b610454565b6040516101e691906111a5565b60405180910390f35b61020960048036038101906102049190611274565b61048b565b005b6102256004803603810190610220919061114a565b61049f565b005b61022f6104ad565b60405161023c919061108f565b60405180910390f35b61025f600480360381019061025a91906112a1565b61053b565b60405161026c91906111cf565b60405180910390f35b61028f600480360381019061028a919061114a565b610583565b005b6102996105a3565b6040516102a6919061108f565b60405180910390f35b6102b7610631565b6040516102c4919061108f565b60405180910390f35b6102e760048036038101906102e2919061114a565b6106c3565b6040516102f491906111a5565b60405180910390f35b6103176004803603810190610312919061114a565b61073a565b60405161032491906111a5565b60405180910390f35b610347600480360381019061034291906112ce565b61075d565b60405161035491906111cf565b60405180910390f35b60606003805461036c9061133d565b80601f01602080910402602001604051908101604052809291908181526020018280546103989061133d565b80156103e55780601f106103ba576101008083540402835291602001916103e5565b820191906000526020600020905b8154815290600101906020018083116103c857829003601f168201915b5050505050905090565b6000806103fa6107e4565b90506104078185856107ec565b600191505092915050565b6000600254905090565b6000806104276107e4565b90506104348582856109b5565b61043f858585610a41565b60019150509392505050565b60006012905090565b60008061045f6107e4565b9050610480818585610471858961075d565b61047b919061139d565b6107ec565b600191505092915050565b61049c6104966107e4565b82610cc0565b50565b6104a98282610e96565b5050565b600580546104ba9061133d565b80601f01602080910402602001604051908101604052809291908181526020018280546104e69061133d565b80156105335780601f1061050857610100808354040283529160200191610533565b820191906000526020600020905b81548152906001019060200180831161051657829003601f168201915b505050505081565b60008060008373ffffffffffffffffffffffffffffffffffffffff1673ffffffffffffffffffffffffffffffffffffffff168152602001908152602001600020549050919050565b6105958261058f6107e4565b836109b5565b61059f8282610cc0565b5050565b600680546105b09061133d565b80601f01602080910402602001604051908101604052809291908181526020018280546105dc9061133d565b80156106295780601f106105fe57610100808354040283529160200191610629565b820191906000526020600020905b81548152906001019060200180831161060c57829003601f168201915b505050505081565b6060600480546106409061133d565b80601f016020809104026020016040519081016040528092919081815260200182805461066c9061133d565b80156106b95780601f1061068e576101008083540402835291602001916106b9565b820191906000526020600020905b81548152906001019060200180831161069c57829003601f168201915b5050505050905090565b6000806106ce6107e4565b905060006106dc828661075d565b905083811015610721576040517f08c379a000000000000000000000000000000000000000000000000000000000815260040161071890611443565b60405180910390fd5b61072e82868684036107ec565b60019250505092915050565b6000806107456107e4565b9050610752818585610a41565b600191505092915050565b6000600160008473ffffffffffffffffffffffffffffffffffffffff1673ffffffffffffffffffffffffffffffffffffffff16815260200190815260200160002060008373ffffffffffffffffffffffffffffffffffffffff1673ffffffffffffffffffffffffffffffffffffffff16815260200190815260200160002054905092915050565b600033905090565b600073ffffffffffffffffffffffffffffffffffffffff168373ffffffffffffffffffffffffffffffffffffffff160361085b576040517f08c379a0000000000000000000000000000000000000000000000000000000008152600401610852906114d5565b60405180910390fd5b600073ffffffffffffffffffffffffffffffffffffffff168273ffffffffffffffffffffffffffffffffffffffff16036108ca576040517f08c379a00000000000000000000000000000000000000000000000000000000081526004016108c190611567565b60405180910390fd5b80600160008573ffffffffffffffffffffffffffffffffffffffff1673ffffffffffffffffffffffffffffffffffffffff16815260200190815260200160002060008473ffffffffffffffffffffffffffffffffffffffff1673ffffffffffffffffffffffffffffffffffffffff168152602001908152602001600020819055508173ffffffffffffffffffffffffffffffffffffffff168373ffffffffffffffffffffffffffffffffffffffff167f8c5be1e5ebec7d5bd14f71427d1e84f3dd0314c0f7b2291e5b200ac8c7c3b925836040516109a891906111cf565b60405180910390a3505050565b60006109c1848461075d565b90507fffffffffffffffffffffffffffffffffffffffffffffffffffffffffffffffff8114610a3b5781811015610a2d576040517f08c379a0000000000000000000000000000000000000000000000000000000008152600401610a24906115d3565b60405180910390fd5b610a3a84848484036107ec565b5b50505050565b600073ffffffffffffffffffffffffffffffffffffffff168373ffffffffffffffffffffffffffffffffffffffff1603610ab0576040517f08c379a0000000000000000000000000000000000000000000000000000000008152600401610aa790611665565b60405180910390fd5b600073ffffffffffffffffffffffffffffffffffffffff168273ffffffffffffffffffffffffffffffffffffffff1603610b1f576040517f08c379a0000000000000000000000000000000000000000000000000000000008152600401610b16906116f7565b60405180910390fd5b610b2a838383610ff5565b60008060008573ffffffffffffffffffffffffffffffffffffffff1673ffffffffffffffffffffffffffffffffffffffff16815260200190815260200160002054905081811015610bb0576040517f08c379a0000000000000000000000000000000000000000000000000000000008152600401610ba790611789565b60405180910390fd5b8181036000808673ffffffffffffffffffffffffffffffffffffffff1673ffffffffffffffffffffffffffffffffffffffff16815260200190815260200160002081905550816000808573ffffffffffffffffffffffffffffffffffffffff1673ffffffffffffffffffffffffffffffffffffffff1681526020019081526020016000206000828254610c43919061139d565b925050819055508273ffffffffffffffffffffffffffffffffffffffff168473ffffffffffffffffffffffffffffffffffffffff167fddf252ad1be2c89b69c2b068fc378daa952ba7f163c4a11628f55a4df523b3ef84604051610ca791906111cf565b60405180910390a3610cba848484610ffa565b50505050565b600073ffffffffffffffffffffffffffffffffffffffff168273ffffffffffffffffffffffffffffffffffffffff1603610d2f576040517f08c379a0000000000000000000000000000000000000000000000000000000008152600401610d269061181b565b60405180910390fd5b610d3b82600083610ff5565b60008060008473ffffffffffffffffffffffffffffffffffffffff1673ffffffffffffffffffffffffffffffffffffffff16815260200190815260200160002054905081811015610dc1576040517f08c379a0000000000000000000000000000000000000000000000000000000008152600401610db8906118ad565b60405180910390fd5b8181036000808573ffffffffffffffffffffffffffffffffffffffff1673ffffffffffffffffffffffffffffffffffffffff168152602001908152602001600020819055508160026000828254610e1891906118cd565b92505081905550600073ffffffffffffffffffffffffffffffffffffffff168373ffffffffffffffffffffffffffffffffffffffff167fddf252ad1be2c89b69c2b068fc378daa952ba7f163c4a11628f55a4df523b3ef84604051610e7d91906111cf565b60405180910390a3610e9183600084610ffa565b505050565b600073ffffffffffffffffffffffffffffffffffffffff168273ffffffffffffffffffffffffffffffffffffffff1603610f05576040517f08c379a0000000000000000000000000000000000000000000000000000000008152600401610efc9061194d565b60405180910390fd5b610f1160008383610ff5565b8060026000828254610f23919061139d565b92505081905550806000808473ffffffffffffffffffffffffffffffffffffffff1673ffffffffffffffffffffffffffffffffffffffff1681526020019081526020016000206000828254610f78919061139d565b925050819055508173ffffffffffffffffffffffffffffffffffffffff16600073ffffffffffffffffffffffffffffffffffffffff167fddf252ad1be2c89b69c2b068fc378daa952ba7f163c4a11628f55a4df523b3ef83604051610fdd91906111cf565b60405180910390a3610ff160008383610ffa565b5050565b505050565b505050565b600081519050919050565b600082825260208201905092915050565b60005b8381101561103957808201518184015260208101905061101e565b60008484015250505050565b6000601f19601f8301169050919050565b600061106182610fff565b61106b818561100a565b935061107b81856020860161101b565b61108481611045565b840191505092915050565b600060208201905081810360008301526110a98184611056565b905092915050565b600080fd5b600073ffffffffffffffffffffffffffffffffffffffff82169050919050565b60006110e1826110b6565b9050919050565b6110f1816110d6565b81146110fc57600080fd5b50565b60008135905061110e816110e8565b92915050565b6000819050919050565b61112781611114565b811461113257600080fd5b50565b6000813590506111448161111e565b92915050565b60008060408385031215611161576111606110b1565b5b600061116f858286016110ff565b925050602061118085828601611135565b9150509250929050565b60008115159050919050565b61119f8161118a565b82525050565b60006020820190506111ba6000830184611196565b92915050565b6111c981611114565b82525050565b60006020820190506111e460008301846111c0565b92915050565b600080600060608486031215611203576112026110b1565b5b6000611211868287016110ff565b9350506020611222868287016110ff565b925050604061123386828701611135565b9150509250925092565b600060ff82169050919050565b6112538161123d565b82525050565b600060208201905061126e600083018461124a565b92915050565b60006020828403121561128a576112896110b1565b5b600061129884828501611135565b91505092915050565b6000602082840312156112b7576112b66110b1565b5b60006112c5848285016110ff565b91505092915050565b600080604083850312156112e5576112e46110b1565b5b60006112f3858286016110ff565b9250506020611304858286016110ff565b9150509250929050565b7f4e487b7100000000000000000000000000000000000000000000000000000000600052602260045260246000fd5b6000600282049050600182168061135557607f821691505b6020821081036113685761136761130e565b5b50919050565b7f4e487b7100000000000000000000000000000000000000000000000000000000600052601160045260246000fd5b60006113a882611114565b91506113b383611114565b92508282019050808211156113cb576113ca61136e565b5b92915050565b7f45524332303a2064656372656173656420616c6c6f77616e63652062656c6f7760008201527f207a65726f000000000000000000000000000000000000000000000000000000602082015250565b600061142d60258361100a565b9150611438826113d1565b604082019050919050565b6000602082019050818103600083015261145c81611420565b9050919050565b7f45524332303a20617070726f76652066726f6d20746865207a65726f2061646460008201527f7265737300000000000000000000000000000000000000000000000000000000602082015250565b60006114bf60248361100a565b91506114ca82611463565b604082019050919050565b600060208201905081810360008301526114ee816114b2565b9050919050565b7f45524332303a20617070726f766520746f20746865207a65726f20616464726560008201527f7373000000000000000000000000000000000000000000000000000000000000602082015250565b600061155160228361100a565b915061155c826114f5565b604082019050919050565b6000602082019050818103600083015261158081611544565b9050919050565b7f45524332303a20696e73756666696369656e7420616c6c6f77616e6365000000600082015250565b60006115bd601d8361100a565b91506115c882611587565b602082019050919050565b600060208201905081810360008301526115ec816115b0565b9050919050565b7f45524332303a207472616e736665722066726f6d20746865207a65726f20616460008201527f6472657373000000000000000000000000000000000000000000000000000000602082015250565b600061164f60258361100a565b915061165a826115f3565b604082019050919050565b6000602082019050818103600083015261167e81611642565b9050919050565b7f45524332303a207472616e7366657220746f20746865207a65726f206164647260008201527f6573730000000000000000000000000000000000000000000000000000000000602082015250565b60006116e160238361100a565b91506116ec82611685565b604082019050919050565b60006020820190508181036000830152611710816116d4565b9050919050565b7f45524332303a207472616e7366657220616d6f756e742065786365656473206260008201527f616c616e63650000000000000000000000000000000000000000000000000000602082015250565b600061177360268361100a565b915061177e82611717565b604082019050919050565b600060208201905081810360008301526117a281611766565b9050919050565b7f45524332303a206275726e2066726f6d20746865207a65726f2061646472657360008201527f7300000000000000000000000000000000000000000000000000000000000000602082015250565b600061180560218361100a565b9150611810826117a9565b604082019050919050565b60006020820190508181036000830152611834816117f8565b9050919050565b7f45524332303a206275726e20616d6f756e7420657863656564732062616c616e60008201527f6365000000000000000000000000000000000000000000000000000000000000602082015250565b600061189760228361100a565b91506118a28261183b565b604082019050919050565b600060208201905081810360008301526118c68161188a565b9050919050565b60006118d882611114565b91506118e383611114565b92508282039050818111156118fb576118fa61136e565b5b92915050565b7f45524332303a206d696e7420746f20746865207a65726f206164647265737300600082015250565b6000611937601f8361100a565b915061194282611901565b602082019050919050565b600060208201905081810360008301526119668161192a565b905091905056fea26469706673582212207bee98e8aa06d137da54189fb79d050dead096b062edf8eedb348d3247d178f164736f6c6343000811003360806040523480156200001157600080fd5b5060405162005a0938038062005a098339818101604052810190620000379190620003a7565b80600160006101000a81548173ffffffffffffffffffffffffffffffffffffffff021916908373ffffffffffffffffffffffffffffffffffffffff16021790555084848484846040516200008b9062000166565b6200009b959493929190620004ec565b604051809103906000f080158015620000b8573d6000803e3d6000fd5b50600260006101000a81548173ffffffffffffffffffffffffffffffffffffffff021916908373ffffffffffffffffffffffffffffffffffffffff160217905550600260009054906101000a900473ffffffffffffffffffffffffffffffffffffffff166000806101000a81548173ffffffffffffffffffffffffffffffffffffffff021916908373ffffffffffffffffffffffffffffffffffffffff160217905550505050505062000557565b6153ac806200065d83390190565b6000604051905090565b600080fd5b600080fd5b600080fd5b600080fd5b6000601f19601f8301169050919050565b7f4e487b7100000000000000000000000000000000000000000000000000000000600052604160045260246000fd5b620001dd8262000192565b810181811067ffffffffffffffff82111715620001ff57620001fe620001a3565b5b80604052505050565b60006200021462000174565b9050620002228282620001d2565b919050565b600067ffffffffffffffff821115620002455762000244620001a3565b5b620002508262000192565b9050602081019050919050565b60005b838110156200027d57808201518184015260208101905062000260565b60008484015250505050565b6000620002a06200029a8462000227565b62000208565b905082815260208101848484011115620002bf57620002be6200018d565b5b620002cc8482856200025d565b509392505050565b600082601f830112620002ec57620002eb62000188565b5b8151620002fe84826020860162000289565b91505092915050565b6000819050919050565b6200031c8162000307565b81146200032857600080fd5b50565b6000815190506200033c8162000311565b92915050565b600073ffffffffffffffffffffffffffffffffffffffff82169050919050565b60006200036f8262000342565b9050919050565b620003818162000362565b81146200038d57600080fd5b50565b600081519050620003a18162000376565b92915050565b600080600080600060a08688031215620003c657620003c56200017e565b5b600086015167ffffffffffffffff811115620003e757620003e662000183565b5b620003f588828901620002d4565b955050602086015167ffffffffffffffff81111562000419576200041862000183565b5b6200042788828901620002d4565b94505060406200043a888289016200032b565b93505060606200044d8882890162000390565b9250506080620004608882890162000390565b9150509295509295909350565b600081519050919050565b600082825260208201905092915050565b600062000496826200046d565b620004a2818562000478565b9350620004b48185602086016200025d565b620004bf8162000192565b840191505092915050565b620004d58162000307565b82525050565b620004e68162000362565b82525050565b600060a082019050818103600083015262000508818862000489565b905081810360208301526200051e818762000489565b90506200052f6040830186620004ca565b6200053e6060830185620004db565b6200054d6080830184620004db565b9695505050505050565b60f780620005666000396000f3fe6080604052348015600f57600080fd5b506004361060285760003560e01c8063235d2c8a14602d575b600080fd5b60336047565b604051603e919060a8565b60405180910390f35b60008054906101000a900473ffffffffffffffffffffffffffffffffffffffff1681565b600073ffffffffffffffffffffffffffffffffffffffff82169050919050565b6000609482606b565b9050919050565b60a281608b565b82525050565b600060208201905060bb6000830184609b565b9291505056fea26469706673582212207844d392708c8dc40d065d80ba297970566d1109b478c94347c2d999018f5cf564736f6c6343000811003360806040523480156200001157600080fd5b50604051620053ac380380620053ac8339818101604052810190620000379190620003d2565b848482828281600090816200004d9190620006d9565b5080600190816200005f9190620006d9565b5050506200008262000076620000d160201b60201c565b620000d960201b60201c565b80600c60006101000a81548173ffffffffffffffffffffffffffffffffffffffff021916908373ffffffffffffffffffffffffffffffffffffffff1602179055505050505050505050620007c0565b600033905090565b6000600b60009054906101000a900473ffffffffffffffffffffffffffffffffffffffff16905081600b60006101000a81548173ffffffffffffffffffffffffffffffffffffffff021916908373ffffffffffffffffffffffffffffffffffffffff1602179055508173ffffffffffffffffffffffffffffffffffffffff168173ffffffffffffffffffffffffffffffffffffffff167f8be0079c531659141344cd1fd0a4f28419497f9722a3daafe3b4186f6b6457e060405160405180910390a35050565b6000604051905090565b600080fd5b600080fd5b600080fd5b600080fd5b6000601f19601f8301169050919050565b7f4e487b7100000000000000000000000000000000000000000000000000000000600052604160045260246000fd5b6200020882620001bd565b810181811067ffffffffffffffff821117156200022a5762000229620001ce565b5b80604052505050565b60006200023f6200019f565b90506200024d8282620001fd565b919050565b600067ffffffffffffffff82111562000270576200026f620001ce565b5b6200027b82620001bd565b9050602081019050919050565b60005b83811015620002a85780820151818401526020810190506200028b565b60008484015250505050565b6000620002cb620002c58462000252565b62000233565b905082815260208101848484011115620002ea57620002e9620001b8565b5b620002f784828562000288565b509392505050565b600082601f830112620003175762000316620001b3565b5b815162000329848260208601620002b4565b91505092915050565b6000819050919050565b620003478162000332565b81146200035357600080fd5b50565b60008151905062000367816200033c565b92915050565b600073ffffffffffffffffffffffffffffffffffffffff82169050919050565b60006200039a826200036d565b9050919050565b620003ac816200038d565b8114620003b857600080fd5b50565b600081519050620003cc81620003a1565b92915050565b600080600080600060a08688031215620003f157620003f0620001a9565b5b600086015167ffffffffffffffff811115620004125762000411620001ae565b5b6200042088828901620002ff565b955050602086015167ffffffffffffffff811115620004445762000443620001ae565b5b6200045288828901620002ff565b9450506040620004658882890162000356565b93505060606200047888828901620003bb565b92505060806200048b88828901620003bb565b9150509295509295909350565b600081519050919050565b7f4e487b7100000000000000000000000000000000000000000000000000000000600052602260045260246000fd5b60006002820490506001821680620004eb57607f821691505b602082108103620005015762000500620004a3565b5b50919050565b60008190508160005260206000209050919050565b60006020601f8301049050919050565b600082821b905092915050565b6000600883026200056b7fffffffffffffffffffffffffffffffffffffffffffffffffffffffffffffffff826200052c565b6200057786836200052c565b95508019841693508086168417925050509392505050565b6000819050919050565b6000620005ba620005b4620005ae8462000332565b6200058f565b62000332565b9050919050565b6000819050919050565b620005d68362000599565b620005ee620005e582620005c1565b84845462000539565b825550505050565b600090565b62000605620005f6565b62000612818484620005cb565b505050565b5b818110156200063a576200062e600082620005fb565b60018101905062000618565b5050565b601f8211156200068957620006538162000507565b6200065e846200051c565b810160208510156200066e578190505b620006866200067d856200051c565b83018262000617565b50505b505050565b600082821c905092915050565b6000620006ae600019846008026200068e565b1980831691505092915050565b6000620006c983836200069b565b9150826002028217905092915050565b620006e48262000498565b67ffffffffffffffff8111156200070057620006ff620001ce565b5b6200070c8254620004d2565b620007198282856200063e565b600060209050601f8311600181146200075157600084156200073c578287015190505b620007488582620006bb565b865550620007b8565b601f198416620007618662000507565b60005b828110156200078b5784890151825560018201915060208501945060208101905062000764565b86831015620007ab5784890151620007a7601f8916826200069b565b8355505b6001600288020188555050505b505050505050565b614bdc80620007d06000396000f3fe6080604052600436106101815760003560e01c80638da5cb5b116100d1578063b88d4fde1161008a578063eedc765411610064578063eedc765414610583578063f23c9583146105ac578063f2fde38b146105c8578063ff3aea27146105f157610181565b8063b88d4fde146104e0578063c87b56dd14610509578063e985e9c51461054657610181565b80638da5cb5b146103f35780639202c1ec1461041e57806395d89b411461044757806395f04d0514610472578063a0e12efe1461048e578063a22cb465146104b757610181565b80632f745c591161013e5780634f6ccce7116101185780634f6ccce7146103255780636352211e1461036257806370a082311461039f578063715018a6146103dc57610181565b80632f745c59146102a85780633ccfd60b146102e557806342842e0e146102fc57610181565b806301ffc9a71461018657806306fdde03146101c3578063081812fc146101ee578063095ea7b31461022b57806318160ddd1461025457806323b872dd1461027f575b600080fd5b34801561019257600080fd5b506101ad60048036038101906101a89190612db4565b610608565b6040516101ba9190612dfc565b60405180910390f35b3480156101cf57600080fd5b506101d861061a565b6040516101e59190612ea7565b60405180910390f35b3480156101fa57600080fd5b5061021560048036038101906102109190612eff565b6106ac565b6040516102229190612f6d565b60405180910390f35b34801561023757600080fd5b50610252600480360381019061024d9190612fb4565b610731565b005b34801561026057600080fd5b50610269610848565b6040516102769190613003565b60405180910390f35b34801561028b57600080fd5b506102a660048036038101906102a1919061301e565b610855565b005b3480156102b457600080fd5b506102cf60048036038101906102ca9190612fb4565b6108b5565b6040516102dc9190613003565b60405180910390f35b3480156102f157600080fd5b506102fa61095a565b005b34801561030857600080fd5b50610323600480360381019061031e919061301e565b610a68565b005b34801561033157600080fd5b5061034c60048036038101906103479190612eff565b610a88565b6040516103599190613003565b60405180910390f35b34801561036e57600080fd5b5061038960048036038101906103849190612eff565b610af9565b6040516103969190612f6d565b60405180910390f35b3480156103ab57600080fd5b506103c660048036038101906103c19190613071565b610baa565b6040516103d39190613003565b60405180910390f35b3480156103e857600080fd5b506103f1610c61565b005b3480156103ff57600080fd5b50610408610ce9565b6040516104159190612f6d565b60405180910390f35b34801561042a57600080fd5b5061044560048036038101906104409190613274565b610d13565b005b34801561045357600080fd5b5061045c610d23565b6040516104699190612ea7565b60405180910390f35b61048c600480360381019061048791906132ff565b610db5565b005b34801561049a57600080fd5b506104b560048036038101906104b09190613348565b6110a7565b005b3480156104c357600080fd5b506104de60048036038101906104d991906133ec565b6110cd565b005b3480156104ec57600080fd5b506105076004803603810190610502919061342c565b6110e3565b005b34801561051557600080fd5b50610530600480360381019061052b9190612eff565b611145565b60405161053d9190612ea7565b60405180910390f35b34801561055257600080fd5b5061056d600480360381019061056891906134af565b611157565b60405161057a9190612dfc565b60405180910390f35b34801561058f57600080fd5b506105aa60048036038101906105a59190613525565b6111eb565b005b6105c660048036038101906105c191906135d8565b611304565b005b3480156105d457600080fd5b506105ef60048036038101906105ea9190613071565b6114f4565b005b3480156105fd57600080fd5b506106066115eb565b005b6000610613826116eb565b9050919050565b606060008054610629906136a6565b80601f0160208091040260200160405190810160405280929190818152602001828054610655906136a6565b80156106a25780601f10610677576101008083540402835291602001916106a2565b820191906000526020600020905b81548152906001019060200180831161068557829003601f168201915b5050505050905090565b60006106b782611765565b6106f6576040517f08c379a00000000000000000000000000000000000000000000000000000000081526004016106ed90613749565b60405180910390fd5b6004600083815260200190815260200160002060009054906101000a900473ffffffffffffffffffffffffffffffffffffffff169050919050565b600061073c82610af9565b90508073ffffffffffffffffffffffffffffffffffffffff168373ffffffffffffffffffffffffffffffffffffffff16036107ac576040517f08c379a00000000000000000000000000000000000000000000000000000000081526004016107a3906137db565b60405180910390fd5b8073ffffffffffffffffffffffffffffffffffffffff166107cb6117d1565b73ffffffffffffffffffffffffffffffffffffffff1614806107fa57506107f9816107f46117d1565b611157565b5b610839576040517f08c379a00000000000000000000000000000000000000000000000000000000081526004016108309061386d565b60405180910390fd5b61084383836117d9565b505050565b6000600880549050905090565b6108666108606117d1565b82611892565b6108a5576040517f08c379a000000000000000000000000000000000000000000000000000000000815260040161089c906138ff565b60405180910390fd5b6108b0838383611970565b505050565b60006108c083610baa565b8210610901576040517f08c379a00000000000000000000000000000000000000000000000000000000081526004016108f890613991565b60405180910390fd5b600660008473ffffffffffffffffffffffffffffffffffffffff1673ffffffffffffffffffffffffffffffffffffffff168152602001908152602001600020600083815260200190815260200160002054905092915050565b6109626117d1565b73ffffffffffffffffffffffffffffffffffffffff16610980610ce9565b73ffffffffffffffffffffffffffffffffffffffff16146109d6576040517f08c379a00000000000000000000000000000000000000000000000000000000081526004016109cd906139fd565b60405180910390fd5b600047905060004711610a1e576040517f08c379a0000000000000000000000000000000000000000000000000000000008152600401610a1590613a69565b60405180910390fd5b3373ffffffffffffffffffffffffffffffffffffffff166108fc829081150290604051600060405180830381858888f19350505050158015610a64573d6000803e3d6000fd5b5050565b610a83838383604051806020016040528060008152506110e3565b505050565b6000610a92610848565b8210610ad3576040517f08c379a0000000000000000000000000000000000000000000000000000000008152600401610aca90613afb565b60405180910390fd5b60088281548110610ae757610ae6613b1b565b5b90600052602060002001549050919050565b6000806002600084815260200190815260200160002060009054906101000a900473ffffffffffffffffffffffffffffffffffffffff169050600073ffffffffffffffffffffffffffffffffffffffff168173ffffffffffffffffffffffffffffffffffffffff1603610ba1576040517f08c379a0000000000000000000000000000000000000000000000000000000008152600401610b9890613bbc565b60405180910390fd5b80915050919050565b60008073ffffffffffffffffffffffffffffffffffffffff168273ffffffffffffffffffffffffffffffffffffffff1603610c1a576040517f08c379a0000000000000000000000000000000000000000000000000000000008152600401610c1190613c4e565b60405180910390fd5b600360008373ffffffffffffffffffffffffffffffffffffffff1673ffffffffffffffffffffffffffffffffffffffff168152602001908152602001600020549050919050565b610c696117d1565b73ffffffffffffffffffffffffffffffffffffffff16610c87610ce9565b73ffffffffffffffffffffffffffffffffffffffff1614610cdd576040517f08c379a0000000000000000000000000000000000000000000000000000000008152600401610cd4906139fd565b60405180910390fd5b610ce76000611bd6565b565b6000600b60009054906101000a900473ffffffffffffffffffffffffffffffffffffffff16905090565b610d1e838383611c9c565b505050565b606060018054610d32906136a6565b80601f0160208091040260200160405190810160405280929190818152602001828054610d5e906136a6565b8015610dab5780601f10610d8057610100808354040283529160200191610dab565b820191906000526020600020905b815481529060010190602001808311610d8e57829003601f168201915b5050505050905090565b600c60009054906101000a900473ffffffffffffffffffffffffffffffffffffffff1673ffffffffffffffffffffffffffffffffffffffff16630a82f53b6040518163ffffffff1660e01b8152600401602060405180830381865afa158015610e22573d6000803e3d6000fd5b505050506040513d601f19601f82011682018060405250810190610e469190613c83565b610e85576040517f08c379a0000000000000000000000000000000000000000000000000000000008152600401610e7c90613cfc565b60405180910390fd5b600c60009054906101000a900473ffffffffffffffffffffffffffffffffffffffff1673ffffffffffffffffffffffffffffffffffffffff1663f2b97ee26040518163ffffffff1660e01b8152600401602060405180830381865afa158015610ef2573d6000803e3d6000fd5b505050506040513d601f19601f82011682018060405250810190610f169190613d31565b610f1e610848565b10610f5e576040517f08c379a0000000000000000000000000000000000000000000000000000000008152600401610f5590613daa565b60405180910390fd5b610fff600c60009054906101000a900473ffffffffffffffffffffffffffffffffffffffff1673ffffffffffffffffffffffffffffffffffffffff166307604b1a6040518163ffffffff1660e01b8152600401602060405180830381865afa158015610fce573d6000803e3d6000fd5b505050506040513d601f19601f82011682018060405250810190610ff29190613ddf565b610ffa610848565b611e04565b61101061100a610848565b82611e22565b600c60009054906101000a900473ffffffffffffffffffffffffffffffffffffffff1673ffffffffffffffffffffffffffffffffffffffff1663347518a8611056610848565b6040518263ffffffff1660e01b81526004016110729190613003565b600060405180830381600087803b15801561108c57600080fd5b505af11580156110a0573d6000803e3d6000fd5b5050505050565b60006110b1610848565b90506110bd3382611e04565b6110c8818484611c9c565b505050565b6110df6110d86117d1565b8383611e8f565b5050565b6110f46110ee6117d1565b83611892565b611133576040517f08c379a000000000000000000000000000000000000000000000000000000000815260040161112a906138ff565b60405180910390fd5b61113f84848484611ffb565b50505050565b606061115082612057565b9050919050565b6000600560008473ffffffffffffffffffffffffffffffffffffffff1673ffffffffffffffffffffffffffffffffffffffff16815260200190815260200160002060008373ffffffffffffffffffffffffffffffffffffffff1673ffffffffffffffffffffffffffffffffffffffff16815260200190815260200160002060009054906101000a900460ff16905092915050565b6111f485610af9565b73ffffffffffffffffffffffffffffffffffffffff163373ffffffffffffffffffffffffffffffffffffffff1614611261576040517f08c379a000000000000000000000000000000000000000000000000000000000815260040161125890613e58565b60405180910390fd5b600c60009054906101000a900473ffffffffffffffffffffffffffffffffffffffff1673ffffffffffffffffffffffffffffffffffffffff1663911da0628685876040518463ffffffff1660e01b81526004016112c093929190613e87565b600060405180830381600087803b1580156112da57600080fd5b505af11580156112ee573d6000803e3d6000fd5b505050506112fd858383611c9c565b5050505050565b61130d84610af9565b73ffffffffffffffffffffffffffffffffffffffff163373ffffffffffffffffffffffffffffffffffffffff161461137a576040517f08c379a000000000000000000000000000000000000000000000000000000000815260040161137190613e58565b60405180910390fd5b600c60009054906101000a900473ffffffffffffffffffffffffffffffffffffffff1673ffffffffffffffffffffffffffffffffffffffff1663f2b97ee26040518163ffffffff1660e01b8152600401602060405180830381865afa1580156113e7573d6000803e3d6000fd5b505050506040513d601f19601f8201168201806040525081019061140b9190613d31565b611413610848565b1015611454576040517f08c379a000000000000000000000000000000000000000000000000000000000815260040161144b90613f0a565b60405180910390fd5b600c60009054906101000a900473ffffffffffffffffffffffffffffffffffffffff1673ffffffffffffffffffffffffffffffffffffffff166386d3d87185856040518363ffffffff1660e01b81526004016114b1929190613f2a565b600060405180830381600087803b1580156114cb57600080fd5b505af11580156114df573d6000803e3d6000fd5b505050506114ee848383611c9c565b50505050565b6114fc6117d1565b73ffffffffffffffffffffffffffffffffffffffff1661151a610ce9565b73ffffffffffffffffffffffffffffffffffffffff1614611570576040517f08c379a0000000000000000000000000000000000000000000000000000000008152600401611567906139fd565b60405180910390fd5b600073ffffffffffffffffffffffffffffffffffffffff168173ffffffffffffffffffffffffffffffffffffffff16036115df576040517f08c379a00000000000000000000000000000000000000000000000000000000081526004016115d690613fc5565b60405180910390fd5b6115e881611bd6565b50565b6115f36117d1565b73ffffffffffffffffffffffffffffffffffffffff16611611610ce9565b73ffffffffffffffffffffffffffffffffffffffff1614611667576040517f08c379a000000000000000000000000000000000000000000000000000000000815260040161165e906139fd565b60405180910390fd5b600c60009054906101000a900473ffffffffffffffffffffffffffffffffffffffff1673ffffffffffffffffffffffffffffffffffffffff1663a8a938006040518163ffffffff1660e01b8152600401600060405180830381600087803b1580156116d157600080fd5b505af11580156116e5573d6000803e3d6000fd5b50505050565b60007f780e9d63000000000000000000000000000000000000000000000000000000007bffffffffffffffffffffffffffffffffffffffffffffffffffffffff1916827bffffffffffffffffffffffffffffffffffffffffffffffffffffffff1916148061175e575061175d826121a8565b5b9050919050565b60008073ffffffffffffffffffffffffffffffffffffffff166002600084815260200190815260200160002060009054906101000a900473ffffffffffffffffffffffffffffffffffffffff1673ffffffffffffffffffffffffffffffffffffffff1614159050919050565b600033905090565b816004600083815260200190815260200160002060006101000a81548173ffffffffffffffffffffffffffffffffffffffff021916908373ffffffffffffffffffffffffffffffffffffffff160217905550808273ffffffffffffffffffffffffffffffffffffffff1661184c83610af9565b73ffffffffffffffffffffffffffffffffffffffff167f8c5be1e5ebec7d5bd14f71427d1e84f3dd0314c0f7b2291e5b200ac8c7c3b92560405160405180910390a45050565b600061189d82611765565b6118dc576040517f08c379a00000000000000000000000000000000000000000000000000000000081526004016118d390614057565b60405180910390fd5b60006118e783610af9565b90508073ffffffffffffffffffffffffffffffffffffffff168473ffffffffffffffffffffffffffffffffffffffff16148061192957506119288185611157565b5b8061196757508373ffffffffffffffffffffffffffffffffffffffff1661194f846106ac565b73ffffffffffffffffffffffffffffffffffffffff16145b91505092915050565b8273ffffffffffffffffffffffffffffffffffffffff1661199082610af9565b73ffffffffffffffffffffffffffffffffffffffff16146119e6576040517f08c379a00000000000000000000000000000000000000000000000000000000081526004016119dd906140e9565b60405180910390fd5b600073ffffffffffffffffffffffffffffffffffffffff168273ffffffffffffffffffffffffffffffffffffffff1603611a55576040517f08c379a0000000000000000000000000000000000000000000000000000000008152600401611a4c9061417b565b60405180910390fd5b611a6083838361228a565b611a6b6000826117d9565b6001600360008573ffffffffffffffffffffffffffffffffffffffff1673ffffffffffffffffffffffffffffffffffffffff1681526020019081526020016000206000828254611abb91906141ca565b925050819055506001600360008473ffffffffffffffffffffffffffffffffffffffff1673ffffffffffffffffffffffffffffffffffffffff1681526020019081526020016000206000828254611b1291906141fe565b92505081905550816002600083815260200190815260200160002060006101000a81548173ffffffffffffffffffffffffffffffffffffffff021916908373ffffffffffffffffffffffffffffffffffffffff160217905550808273ffffffffffffffffffffffffffffffffffffffff168473ffffffffffffffffffffffffffffffffffffffff167fddf252ad1be2c89b69c2b068fc378daa952ba7f163c4a11628f55a4df523b3ef60405160405180910390a4611bd183838361229a565b505050565b6000600b60009054906101000a900473ffffffffffffffffffffffffffffffffffffffff16905081600b60006101000a81548173ffffffffffffffffffffffffffffffffffffffff021916908373ffffffffffffffffffffffffffffffffffffffff1602179055508173ffffffffffffffffffffffffffffffffffffffff168173ffffffffffffffffffffffffffffffffffffffff167f8be0079c531659141344cd1fd0a4f28419497f9722a3daafe3b4186f6b6457e060405160405180910390a35050565b611cad611ca76117d1565b84611892565b611cec576040517f08c379a0000000000000000000000000000000000000000000000000000000008152600401611ce39061427e565b60405180910390fd5b600082604051602001611cff91906142da565b604051602081830303815290604052805190602001209050600c60009054906101000a900473ffffffffffffffffffffffffffffffffffffffff1673ffffffffffffffffffffffffffffffffffffffff16637fcacc0e82846040518363ffffffff1660e01b8152600401611d74929190614346565b602060405180830381865afa158015611d91573d6000803e3d6000fd5b505050506040513d601f19601f82011682018060405250810190611db59190613c83565b611df4576040517f08c379a0000000000000000000000000000000000000000000000000000000008152600401611deb906143c2565b60405180910390fd5b611dfe8484611e22565b50505050565b611e1e82826040518060200160405280600081525061229f565b5050565b611e2b82611765565b611e6a576040517f08c379a0000000000000000000000000000000000000000000000000000000008152600401611e6190614454565b60405180910390fd5b80600a60008481526020019081526020016000209081611e8a9190614620565b505050565b8173ffffffffffffffffffffffffffffffffffffffff168373ffffffffffffffffffffffffffffffffffffffff1603611efd576040517f08c379a0000000000000000000000000000000000000000000000000000000008152600401611ef49061473e565b60405180910390fd5b80600560008573ffffffffffffffffffffffffffffffffffffffff1673ffffffffffffffffffffffffffffffffffffffff16815260200190815260200160002060008473ffffffffffffffffffffffffffffffffffffffff1673ffffffffffffffffffffffffffffffffffffffff16815260200190815260200160002060006101000a81548160ff0219169083151502179055508173ffffffffffffffffffffffffffffffffffffffff168373ffffffffffffffffffffffffffffffffffffffff167f17307eab39ab6107e8899845ad3d59bd9653f200f220920489ca2b5937696c3183604051611fee9190612dfc565b60405180910390a3505050565b612006848484611970565b612012848484846122fa565b612051576040517f08c379a0000000000000000000000000000000000000000000000000000000008152600401612048906147d0565b60405180910390fd5b50505050565b606061206282611765565b6120a1576040517f08c379a000000000000000000000000000000000000000000000000000000000815260040161209890614862565b60405180910390fd5b6000600a600084815260200190815260200160002080546120c1906136a6565b80601f01602080910402602001604051908101604052809291908181526020018280546120ed906136a6565b801561213a5780601f1061210f5761010080835404028352916020019161213a565b820191906000526020600020905b81548152906001019060200180831161211d57829003601f168201915b50505050509050600061214b612481565b905060008151036121605781925050506121a3565b60008251111561219557808260405160200161217d929190614882565b604051602081830303815290604052925050506121a3565b61219e846124be565b925050505b919050565b60007f80ac58cd000000000000000000000000000000000000000000000000000000007bffffffffffffffffffffffffffffffffffffffffffffffffffffffff1916827bffffffffffffffffffffffffffffffffffffffffffffffffffffffff1916148061227357507f5b5e139f000000000000000000000000000000000000000000000000000000007bffffffffffffffffffffffffffffffffffffffffffffffffffffffff1916827bffffffffffffffffffffffffffffffffffffffffffffffffffffffff1916145b80612283575061228282612565565b5b9050919050565b6122958383836125cf565b505050565b505050565b6122a983836126e1565b6122b660008484846122fa565b6122f5576040517f08c379a00000000000000000000000000000000000000000000000000000000081526004016122ec906147d0565b60405180910390fd5b505050565b600061231b8473ffffffffffffffffffffffffffffffffffffffff166128ba565b15612474578373ffffffffffffffffffffffffffffffffffffffff1663150b7a026123446117d1565b8786866040518563ffffffff1660e01b815260040161236694939291906148a6565b6020604051808303816000875af19250505080156123a257506040513d601f19601f8201168201806040525081019061239f9190614907565b60015b612424573d80600081146123d2576040519150601f19603f3d011682016040523d82523d6000602084013e6123d7565b606091505b50600081510361241c576040517f08c379a0000000000000000000000000000000000000000000000000000000008152600401612413906147d0565b60405180910390fd5b805181602001fd5b63150b7a0260e01b7bffffffffffffffffffffffffffffffffffffffffffffffffffffffff1916817bffffffffffffffffffffffffffffffffffffffffffffffffffffffff191614915050612479565b600190505b949350505050565b60606040518060400160405280601581526020017f68747470733a2f2f697066732e696f2f697066732f0000000000000000000000815250905090565b60606124c982611765565b612508576040517f08c379a00000000000000000000000000000000000000000000000000000000081526004016124ff906149a6565b60405180910390fd5b6000612512612481565b90506000815111612532576040518060200160405280600081525061255d565b8061253c846128dd565b60405160200161254d929190614882565b6040516020818303038152906040525b915050919050565b60007f01ffc9a7000000000000000000000000000000000000000000000000000000007bffffffffffffffffffffffffffffffffffffffffffffffffffffffff1916827bffffffffffffffffffffffffffffffffffffffffffffffffffffffff1916149050919050565b6125da838383612a3d565b600073ffffffffffffffffffffffffffffffffffffffff168373ffffffffffffffffffffffffffffffffffffffff160361261c5761261781612a42565b61265b565b8173ffffffffffffffffffffffffffffffffffffffff168373ffffffffffffffffffffffffffffffffffffffff161461265a576126598382612a8b565b5b5b600073ffffffffffffffffffffffffffffffffffffffff168273ffffffffffffffffffffffffffffffffffffffff160361269d5761269881612bf8565b6126dc565b8273ffffffffffffffffffffffffffffffffffffffff168273ffffffffffffffffffffffffffffffffffffffff16146126db576126da8282612cc9565b5b5b505050565b600073ffffffffffffffffffffffffffffffffffffffff168273ffffffffffffffffffffffffffffffffffffffff1603612750576040517f08c379a000000000000000000000000000000000000000000000000000000000815260040161274790614a12565b60405180910390fd5b61275981611765565b15612799576040517f08c379a000000000000000000000000000000000000000000000000000000000815260040161279090614a7e565b60405180910390fd5b6127a56000838361228a565b6001600360008473ffffffffffffffffffffffffffffffffffffffff1673ffffffffffffffffffffffffffffffffffffffff16815260200190815260200160002060008282546127f591906141fe565b92505081905550816002600083815260200190815260200160002060006101000a81548173ffffffffffffffffffffffffffffffffffffffff021916908373ffffffffffffffffffffffffffffffffffffffff160217905550808273ffffffffffffffffffffffffffffffffffffffff16600073ffffffffffffffffffffffffffffffffffffffff167fddf252ad1be2c89b69c2b068fc378daa952ba7f163c4a11628f55a4df523b3ef60405160405180910390a46128b66000838361229a565b5050565b6000808273ffffffffffffffffffffffffffffffffffffffff163b119050919050565b606060008203612924576040518060400160405280600181526020017f30000000000000000000000000000000000000000000000000000000000000008152509050612a38565b600082905060005b6000821461295657808061293f90614a9e565b915050600a8261294f9190614b15565b915061292c565b60008167ffffffffffffffff811115612972576129716130a8565b5b6040519080825280601f01601f1916602001820160405280156129a45781602001600182028036833780820191505090505b5090505b60008514612a31576001826129bd91906141ca565b9150600a856129cc9190614b46565b60306129d891906141fe565b60f81b8183815181106129ee576129ed613b1b565b5b60200101907effffffffffffffffffffffffffffffffffffffffffffffffffffffffffffff1916908160001a905350600a85612a2a9190614b15565b94506129a8565b8093505050505b919050565b505050565b6008805490506009600083815260200190815260200160002081905550600881908060018154018082558091505060019003906000526020600020016000909190919091505550565b60006001612a9884610baa565b612aa291906141ca565b9050600060076000848152602001908152602001600020549050818114612b87576000600660008673ffffffffffffffffffffffffffffffffffffffff1673ffffffffffffffffffffffffffffffffffffffff168152602001908152602001600020600084815260200190815260200160002054905080600660008773ffffffffffffffffffffffffffffffffffffffff1673ffffffffffffffffffffffffffffffffffffffff168152602001908152602001600020600084815260200190815260200160002081905550816007600083815260200190815260200160002081905550505b6007600084815260200190815260200160002060009055600660008573ffffffffffffffffffffffffffffffffffffffff1673ffffffffffffffffffffffffffffffffffffffff16815260200190815260200160002060008381526020019081526020016000206000905550505050565b60006001600880549050612c0c91906141ca565b9050600060096000848152602001908152602001600020549050600060088381548110612c3c57612c3b613b1b565b5b906000526020600020015490508060088381548110612c5e57612c5d613b1b565b5b906000526020600020018190555081600960008381526020019081526020016000208190555060096000858152602001908152602001600020600090556008805480612cad57612cac614b77565b5b6001900381819060005260206000200160009055905550505050565b6000612cd483610baa565b905081600660008573ffffffffffffffffffffffffffffffffffffffff1673ffffffffffffffffffffffffffffffffffffffff168152602001908152602001600020600083815260200190815260200160002081905550806007600084815260200190815260200160002081905550505050565b6000604051905090565b600080fd5b600080fd5b60007fffffffff0000000000000000000000000000000000000000000000000000000082169050919050565b612d9181612d5c565b8114612d9c57600080fd5b50565b600081359050612dae81612d88565b92915050565b600060208284031215612dca57612dc9612d52565b5b6000612dd884828501612d9f565b91505092915050565b60008115159050919050565b612df681612de1565b82525050565b6000602082019050612e116000830184612ded565b92915050565b600081519050919050565b600082825260208201905092915050565b60005b83811015612e51578082015181840152602081019050612e36565b60008484015250505050565b6000601f19601f8301169050919050565b6000612e7982612e17565b612e838185612e22565b9350612e93818560208601612e33565b612e9c81612e5d565b840191505092915050565b60006020820190508181036000830152612ec18184612e6e565b905092915050565b6000819050919050565b612edc81612ec9565b8114612ee757600080fd5b50565b600081359050612ef981612ed3565b92915050565b600060208284031215612f1557612f14612d52565b5b6000612f2384828501612eea565b91505092915050565b600073ffffffffffffffffffffffffffffffffffffffff82169050919050565b6000612f5782612f2c565b9050919050565b612f6781612f4c565b82525050565b6000602082019050612f826000830184612f5e565b92915050565b612f9181612f4c565b8114612f9c57600080fd5b50565b600081359050612fae81612f88565b92915050565b60008060408385031215612fcb57612fca612d52565b5b6000612fd985828601612f9f565b9250506020612fea85828601612eea565b9150509250929050565b612ffd81612ec9565b82525050565b60006020820190506130186000830184612ff4565b92915050565b60008060006060848603121561303757613036612d52565b5b600061304586828701612f9f565b935050602061305686828701612f9f565b925050604061306786828701612eea565b9150509250925092565b60006020828403121561308757613086612d52565b5b600061309584828501612f9f565b91505092915050565b600080fd5b600080fd5b7f4e487b7100000000000000000000000000000000000000000000000000000000600052604160045260246000fd5b6130e082612e5d565b810181811067ffffffffffffffff821117156130ff576130fe6130a8565b5b80604052505050565b6000613112612d48565b905061311e82826130d7565b919050565b600067ffffffffffffffff82111561313e5761313d6130a8565b5b61314782612e5d565b9050602081019050919050565b82818337600083830152505050565b600061317661317184613123565b613108565b905082815260208101848484011115613192576131916130a3565b5b61319d848285613154565b509392505050565b600082601f8301126131ba576131b961309e565b5b81356131ca848260208601613163565b91505092915050565b600067ffffffffffffffff8211156131ee576131ed6130a8565b5b6131f782612e5d565b9050602081019050919050565b6000613217613212846131d3565b613108565b905082815260208101848484011115613233576132326130a3565b5b61323e848285613154565b509392505050565b600082601f83011261325b5761325a61309e565b5b813561326b848260208601613204565b91505092915050565b60008060006060848603121561328d5761328c612d52565b5b600061329b86828701612eea565b935050602084013567ffffffffffffffff8111156132bc576132bb612d57565b5b6132c8868287016131a5565b925050604084013567ffffffffffffffff8111156132e9576132e8612d57565b5b6132f586828701613246565b9150509250925092565b60006020828403121561331557613314612d52565b5b600082013567ffffffffffffffff81111561333357613332612d57565b5b61333f848285016131a5565b91505092915050565b6000806040838503121561335f5761335e612d52565b5b600083013567ffffffffffffffff81111561337d5761337c612d57565b5b613389858286016131a5565b925050602083013567ffffffffffffffff8111156133aa576133a9612d57565b5b6133b685828601613246565b9150509250929050565b6133c981612de1565b81146133d457600080fd5b50565b6000813590506133e6816133c0565b92915050565b6000806040838503121561340357613402612d52565b5b600061341185828601612f9f565b9250506020613422858286016133d7565b9150509250929050565b6000806000806080858703121561344657613445612d52565b5b600061345487828801612f9f565b945050602061346587828801612f9f565b935050604061347687828801612eea565b925050606085013567ffffffffffffffff81111561349757613496612d57565b5b6134a387828801613246565b91505092959194509250565b600080604083850312156134c6576134c5612d52565b5b60006134d485828601612f9f565b92505060206134e585828601612f9f565b9150509250929050565b6000819050919050565b613502816134ef565b811461350d57600080fd5b50565b60008135905061351f816134f9565b92915050565b600080600080600060a0868803121561354157613540612d52565b5b600061354f88828901612eea565b955050602061356088828901613510565b945050604061357188828901612eea565b935050606086013567ffffffffffffffff81111561359257613591612d57565b5b61359e888289016131a5565b925050608086013567ffffffffffffffff8111156135bf576135be612d57565b5b6135cb88828901613246565b9150509295509295909350565b600080600080608085870312156135f2576135f1612d52565b5b600061360087828801612eea565b945050602061361187828801613510565b935050604085013567ffffffffffffffff81111561363257613631612d57565b5b61363e878288016131a5565b925050606085013567ffffffffffffffff81111561365f5761365e612d57565b5b61366b87828801613246565b91505092959194509250565b7f4e487b7100000000000000000000000000000000000000000000000000000000600052602260045260246000fd5b600060028204905060018216806136be57607f821691505b6020821081036136d1576136d0613677565b5b50919050565b7f4552433732313a20617070726f76656420717565727920666f72206e6f6e657860008201527f697374656e7420746f6b656e0000000000000000000000000000000000000000602082015250565b6000613733602c83612e22565b915061373e826136d7565b604082019050919050565b6000602082019050818103600083015261376281613726565b9050919050565b7f4552433732313a20617070726f76616c20746f2063757272656e74206f776e6560008201527f7200000000000000000000000000000000000000000000000000000000000000602082015250565b60006137c5602183612e22565b91506137d082613769565b604082019050919050565b600060208201905081810360008301526137f4816137b8565b9050919050565b7f4552433732313a20617070726f76652063616c6c6572206973206e6f74206f7760008201527f6e6572206e6f7220617070726f76656420666f7220616c6c0000000000000000602082015250565b6000613857603883612e22565b9150613862826137fb565b604082019050919050565b600060208201905081810360008301526138868161384a565b9050919050565b7f4552433732313a207472616e736665722063616c6c6572206973206e6f74206f60008201527f776e6572206e6f7220617070726f766564000000000000000000000000000000602082015250565b60006138e9603183612e22565b91506138f48261388d565b604082019050919050565b60006020820190508181036000830152613918816138dc565b9050919050565b7f455243373231456e756d657261626c653a206f776e657220696e646578206f7560008201527f74206f6620626f756e6473000000000000000000000000000000000000000000602082015250565b600061397b602b83612e22565b91506139868261391f565b604082019050919050565b600060208201905081810360008301526139aa8161396e565b9050919050565b7f4f776e61626c653a2063616c6c6572206973206e6f7420746865206f776e6572600082015250565b60006139e7602083612e22565b91506139f2826139b1565b602082019050919050565b60006020820190508181036000830152613a16816139da565b9050919050565b7f4e6f2062616c616e636520746f20776974686472617700000000000000000000600082015250565b6000613a53601683612e22565b9150613a5e82613a1d565b602082019050919050565b60006020820190508181036000830152613a8281613a46565b9050919050565b7f455243373231456e756d657261626c653a20676c6f62616c20696e646578206f60008201527f7574206f6620626f756e64730000000000000000000000000000000000000000602082015250565b6000613ae5602c83612e22565b9150613af082613a89565b604082019050919050565b60006020820190508181036000830152613b1481613ad8565b9050919050565b7f4e487b7100000000000000000000000000000000000000000000000000000000600052603260045260246000fd5b7f4552433732313a206f776e657220717565727920666f72206e6f6e657869737460008201527f656e7420746f6b656e0000000000000000000000000000000000000000000000602082015250565b6000613ba6602983612e22565b9150613bb182613b4a565b604082019050919050565b60006020820190508181036000830152613bd581613b99565b9050919050565b7f4552433732313a2062616c616e636520717565727920666f7220746865207a6560008201527f726f206164647265737300000000000000000000000000000000000000000000602082015250565b6000613c38602a83612e22565b9150613c4382613bdc565b604082019050919050565b60006020820190508181036000830152613c6781613c2b565b9050919050565b600081519050613c7d816133c0565b92915050565b600060208284031215613c9957613c98612d52565b5b6000613ca784828501613c6e565b91505092915050565b7f53616c65206d7573742062652061637469766500000000000000000000000000600082015250565b6000613ce6601383612e22565b9150613cf182613cb0565b602082019050919050565b60006020820190508181036000830152613d1581613cd9565b9050919050565b600081519050613d2b81612ed3565b92915050565b600060208284031215613d4757613d46612d52565b5b6000613d5584828501613d1c565b91505092915050565b7f45786365656420696e697469616c20737570706c79206f66206e757473000000600082015250565b6000613d94601d83612e22565b9150613d9f82613d5e565b602082019050919050565b60006020820190508181036000830152613dc381613d87565b9050919050565b600081519050613dd981612f88565b92915050565b600060208284031215613df557613df4612d52565b5b6000613e0384828501613dca565b91505092915050565b7f43616c6c6572206973206e6f74206f776e6572206f66206e7574000000000000600082015250565b6000613e42601a83612e22565b9150613e4d82613e0c565b602082019050919050565b60006020820190508181036000830152613e7181613e35565b9050919050565b613e81816134ef565b82525050565b6000606082019050613e9c6000830186612ff4565b613ea96020830185612ff4565b613eb66040830184613e78565b949350505050565b7f4e757473207374696c6c2065786973742066726f6d206372656174696f6e0000600082015250565b6000613ef4601e83612e22565b9150613eff82613ebe565b602082019050919050565b60006020820190508181036000830152613f2381613ee7565b9050919050565b6000604082019050613f3f6000830185612ff4565b613f4c6020830184613e78565b9392505050565b7f4f776e61626c653a206e6577206f776e657220697320746865207a65726f206160008201527f6464726573730000000000000000000000000000000000000000000000000000602082015250565b6000613faf602683612e22565b9150613fba82613f53565b604082019050919050565b60006020820190508181036000830152613fde81613fa2565b9050919050565b7f4552433732313a206f70657261746f7220717565727920666f72206e6f6e657860008201527f697374656e7420746f6b656e0000000000000000000000000000000000000000602082015250565b6000614041602c83612e22565b915061404c82613fe5565b604082019050919050565b6000602082019050818103600083015261407081614034565b9050919050565b7f4552433732313a207472616e736665722066726f6d20696e636f72726563742060008201527f6f776e6572000000000000000000000000000000000000000000000000000000602082015250565b60006140d3602583612e22565b91506140de82614077565b604082019050919050565b60006020820190508181036000830152614102816140c6565b9050919050565b7f4552433732313a207472616e7366657220746f20746865207a65726f2061646460008201527f7265737300000000000000000000000000000000000000000000000000000000602082015250565b6000614165602483612e22565b915061417082614109565b604082019050919050565b6000602082019050818103600083015261419481614158565b9050919050565b7f4e487b7100000000000000000000000000000000000000000000000000000000600052601160045260246000fd5b60006141d582612ec9565b91506141e083612ec9565b92508282039050818111156141f8576141f761419b565b5b92915050565b600061420982612ec9565b915061421483612ec9565b925082820190508082111561422c5761422b61419b565b5b92915050565b7f43616c6c6572206973206e6f74206f776e6572206e6f7220617070726f766564600082015250565b6000614268602083612e22565b915061427382614232565b602082019050919050565b600060208201905081810360008301526142978161425b565b9050919050565b600081905092915050565b60006142b482612e17565b6142be818561429e565b93506142ce818560208601612e33565b80840191505092915050565b60006142e682846142a9565b915081905092915050565b600081519050919050565b600082825260208201905092915050565b6000614318826142f1565b61432281856142fc565b9350614332818560208601612e33565b61433b81612e5d565b840191505092915050565b600060408201905061435b6000830185613e78565b818103602083015261436d818461430d565b90509392505050565b7f4461746120646f6573206e6f74206d61746368207369676e6174757265000000600082015250565b60006143ac601d83612e22565b91506143b782614376565b602082019050919050565b600060208201905081810360008301526143db8161439f565b9050919050565b7f45524337323155524953746f726167653a2055524920736574206f66206e6f6e60008201527f6578697374656e7420746f6b656e000000000000000000000000000000000000602082015250565b600061443e602e83612e22565b9150614449826143e2565b604082019050919050565b6000602082019050818103600083015261446d81614431565b9050919050565b60008190508160005260206000209050919050565b60006020601f8301049050919050565b600082821b905092915050565b6000600883026144d67fffffffffffffffffffffffffffffffffffffffffffffffffffffffffffffffff82614499565b6144e08683614499565b95508019841693508086168417925050509392505050565b6000819050919050565b600061451d61451861451384612ec9565b6144f8565b612ec9565b9050919050565b6000819050919050565b61453783614502565b61454b61454382614524565b8484546144a6565b825550505050565b600090565b614560614553565b61456b81848461452e565b505050565b5b8181101561458f57614584600082614558565b600181019050614571565b5050565b601f8211156145d4576145a581614474565b6145ae84614489565b810160208510156145bd578190505b6145d16145c985614489565b830182614570565b50505b505050565b600082821c905092915050565b60006145f7600019846008026145d9565b1980831691505092915050565b600061461083836145e6565b9150826002028217905092915050565b61462982612e17565b67ffffffffffffffff811115614642576146416130a8565b5b61464c82546136a6565b614657828285614593565b600060209050601f83116001811461468a5760008415614678578287015190505b6146828582614604565b8655506146ea565b601f19841661469886614474565b60005b828110156146c05784890151825560018201915060208501945060208101905061469b565b868310156146dd57848901516146d9601f8916826145e6565b8355505b6001600288020188555050505b505050505050565b7f4552433732313a20617070726f766520746f2063616c6c657200000000000000600082015250565b6000614728601983612e22565b9150614733826146f2565b602082019050919050565b600060208201905081810360008301526147578161471b565b9050919050565b7f4552433732313a207472616e7366657220746f206e6f6e20455243373231526560008201527f63656976657220696d706c656d656e7465720000000000000000000000000000602082015250565b60006147ba603283612e22565b91506147c58261475e565b604082019050919050565b600060208201905081810360008301526147e9816147ad565b9050919050565b7f45524337323155524953746f726167653a2055524920717565727920666f722060008201527f6e6f6e6578697374656e7420746f6b656e000000000000000000000000000000602082015250565b600061484c603183612e22565b9150614857826147f0565b604082019050919050565b6000602082019050818103600083015261487b8161483f565b9050919050565b600061488e82856142a9565b915061489a82846142a9565b91508190509392505050565b60006080820190506148bb6000830187612f5e565b6148c86020830186612f5e565b6148d56040830185612ff4565b81810360608301526148e7818461430d565b905095945050505050565b60008151905061490181612d88565b92915050565b60006020828403121561491d5761491c612d52565b5b600061492b848285016148f2565b91505092915050565b7f4552433732314d657461646174613a2055524920717565727920666f72206e6f60008201527f6e6578697374656e7420746f6b656e0000000000000000000000000000000000602082015250565b6000614990602f83612e22565b915061499b82614934565b604082019050919050565b600060208201905081810360008301526149bf81614983565b9050919050565b7f4552433732313a206d696e7420746f20746865207a65726f2061646472657373600082015250565b60006149fc602083612e22565b9150614a07826149c6565b602082019050919050565b60006020820190508181036000830152614a2b816149ef565b9050919050565b7f4552433732313a20746f6b656e20616c7265616479206d696e74656400000000600082015250565b6000614a68601c83612e22565b9150614a7382614a32565b602082019050919050565b60006020820190508181036000830152614a9781614a5b565b9050919050565b6000614aa982612ec9565b91507fffffffffffffffffffffffffffffffffffffffffffffffffffffffffffffffff8203614adb57614ada61419b565b5b600182019050919050565b7f4e487b7100000000000000000000000000000000000000000000000000000000600052601260045260246000fd5b6000614b2082612ec9565b9150614b2b83612ec9565b925082614b3b57614b3a614ae6565b5b828204905092915050565b6000614b5182612ec9565b9150614b5c83612ec9565b925082614b6c57614b6b614ae6565b5b828206905092915050565b7f4e487b7100000000000000000000000000000000000000000000000000000000600052603160045260246000fdfea26469706673582212204dc64d7216b70a4a08a4dfcb09ca7643176db62f8f61f589f9d79d6fdba8d68a64736f6c634300081100336080604052600080556000600755600060085560006009556000600f553480156200002957600080fd5b506040516200600f3803806200600f83398181016040528101906200004f9190620001ac565b818181601260000160006101000a81548173ffffffffffffffffffffffffffffffffffffffff021916908373ffffffffffffffffffffffffffffffffffffffff16021790555080601260010160006101000a81548173ffffffffffffffffffffffffffffffffffffffff021916908373ffffffffffffffffffffffffffffffffffffffff16021790555030601260020160006101000a81548173ffffffffffffffffffffffffffffffffffffffff021916908373ffffffffffffffffffffffffffffffffffffffff16021790555050506000602060006101000a81548160ff0219169083151502179055505050620001f3565b600080fd5b600073ffffffffffffffffffffffffffffffffffffffff82169050919050565b6000620001748262000147565b9050919050565b620001868162000167565b81146200019257600080fd5b50565b600081519050620001a6816200017b565b92915050565b60008060408385031215620001c657620001c562000142565b5b6000620001d68582860162000195565b9250506020620001e98582860162000195565b9150509250929050565b615e0c80620002036000396000f3fe608060405260043610620002ba5760003560e01c80635e14a478116200016f578063a8a9380011620000d3578063efcdb23d1162000085578063efcdb23d1462000bc1578063f27890f21462000bf1578063f2b97ee21462000c1f578063f50d43491462000c4f578063f6317f8d1462000c93578063fe774f9d1462000cc357620002ba565b8063a8a938001462000a8f578063aef054ce1462000aa9578063b8a9736d1462000aed578063d4d810321462000b1d578063df4f5ccc1462000b61578063ea988be81462000b9157620002ba565b8063911da062116200012d578063911da062146200094a5780639578d3df14620009785780639975a8a214620009bc5780639cee22b11462000a00578063a06fc90b1462000a2e578063a83851b91462000a5c57620002ba565b80635e14a47814620008225780636b651a2c14620008505780637fcacc0e146200089457806386d3d87114620008d85780638ed3df0f146200090657620002ba565b806326342ea4116200022357806339dc84f411620001d557806339dc84f4146200069e5780633c8023ad14620006e257806347634e1c146200072657806349a6b51f146200076a5780634ffe5a6f146200079a57806353f97bc814620007de57620002ba565b806326342ea41462000544578063282adc8c14620005745780633279bd4f14620005b85780633434735f14620005fc578063347518a8146200062c57806334fc1228146200065a57620002ba565b806315d3b7a0116200027d57806315d3b7a014620003d5578063171e844114620004065780631821907a146200044a5780631c85949c146200048e5780631e0b396414620004bc57806323f526c0146200050057620002ba565b806302760a4814620002bf57806303f5de9d146200030357806307604b1a14620003315780630a82f53b14620003615780631298896e1462000391575b600080fd5b348015620002cc57600080fd5b50620002eb6004803603810190620002e5919062002d63565b62000ce3565b604051620002fa919062002db2565b60405180910390f35b3480156200031057600080fd5b506200032f600480360381019062000329919062002e0a565b62000d03565b005b3480156200033e57600080fd5b506200034962001485565b60405162000358919062002ec1565b60405180910390f35b3480156200036e57600080fd5b5062000379620014ab565b60405162000388919062002db2565b60405180910390f35b3480156200039e57600080fd5b50620003bd6004803603810190620003b7919062002ede565b620014be565b604051620003cc919062002f36565b60405180910390f35b348015620003e257600080fd5b50620003ed620014f0565b604051620003fd92919062002f53565b60405180910390f35b3480156200041357600080fd5b506200043260048036038101906200042c919062002d63565b62001502565b60405162000441919062002db2565b60405180910390f35b3480156200045757600080fd5b5062000476600480360381019062000470919062002d63565b62001522565b60405162000485919062002f36565b60405180910390f35b3480156200049b57600080fd5b50620004ba6004803603810190620004b4919062002fb1565b6200153a565b005b348015620004c957600080fd5b50620004e86004803603810190620004e2919062002ede565b620016fd565b604051620004f7919062002f36565b60405180910390f35b3480156200050d57600080fd5b506200052c600480360381019062000526919062002d63565b6200172f565b6040516200053b919062002ec1565b60405180910390f35b3480156200055157600080fd5b506200055c62001762565b6040516200056b919062002f36565b60405180910390f35b3480156200058157600080fd5b50620005a060048036038101906200059a919062002d63565b62001768565b604051620005af919062002f36565b60405180910390f35b348015620005c557600080fd5b50620005e46004803603810190620005de919062002d63565b62001788565b604051620005f3919062002f36565b60405180910390f35b3480156200060957600080fd5b5062000614620017a0565b60405162000623919062002ec1565b60405180910390f35b3480156200063957600080fd5b5062000658600480360381019062000652919062002d63565b620017c6565b005b3480156200066757600080fd5b5062000686600480360381019062000680919062002d63565b6200187e565b60405162000695919062002f36565b60405180910390f35b348015620006ab57600080fd5b50620006ca6004803603810190620006c4919062002d63565b62001892565b604051620006d9919062002ec1565b60405180910390f35b348015620006ef57600080fd5b506200070e600480360381019062000708919062002ede565b620018c5565b6040516200071d919062002f36565b60405180910390f35b3480156200073357600080fd5b506200075260048036038101906200074c919062002d63565b620018f7565b60405162000761919062002f36565b60405180910390f35b3480156200077757600080fd5b50620007826200190f565b60405162000791919062002f36565b60405180910390f35b348015620007a757600080fd5b50620007c66004803603810190620007c0919062002d63565b62001915565b604051620007d5919062002f36565b60405180910390f35b348015620007eb57600080fd5b506200080a600480360381019062000804919062002ede565b6200192d565b60405162000819919062002db2565b60405180910390f35b3480156200082f57600080fd5b506200084e600480360381019062000848919062002ff8565b6200195c565b005b3480156200085d57600080fd5b506200087c600480360381019062000876919062002d63565b62001976565b6040516200088b919062002f36565b60405180910390f35b348015620008a157600080fd5b50620008c06004803603810190620008ba9190620031b6565b62001996565b604051620008cf919062002db2565b60405180910390f35b348015620008e557600080fd5b50620009046004803603810190620008fe91906200321c565b62001a40565b005b3480156200091357600080fd5b506200093260048036038101906200092c919062002d63565b62001ad7565b60405162000941919062002f36565b60405180910390f35b3480156200095757600080fd5b5062000976600480360381019062000970919062003263565b62001af2565b005b3480156200098557600080fd5b50620009a460048036038101906200099e919062002d63565b62001b90565b604051620009b3919062002f36565b60405180910390f35b348015620009c957600080fd5b50620009e86004803603810190620009e2919062002d63565b62001bb5565b604051620009f7919062002f36565b60405180910390f35b34801562000a0d57600080fd5b5062000a2c600480360381019062000a269190620032bf565b62001bd5565b005b34801562000a3b57600080fd5b5062000a5a600480360381019062000a54919062002ede565b62001d08565b005b34801562000a6957600080fd5b5062000a7462001fb7565b60405162000a86949392919062003331565b60405180910390f35b34801562000a9c57600080fd5b5062000aa762002055565b005b34801562000ab657600080fd5b5062000ad5600480360381019062000acf919062002d63565b62002072565b60405162000ae4919062002ec1565b60405180910390f35b34801562000afa57600080fd5b5062000b05620020a5565b60405162000b14919062002f36565b60405180910390f35b34801562000b2a57600080fd5b5062000b49600480360381019062000b43919062002d63565b620020ab565b60405162000b58919062002f36565b60405180910390f35b34801562000b6e57600080fd5b5062000b79620020c3565b60405162000b88919062002f36565b60405180910390f35b34801562000b9e57600080fd5b5062000ba9620020c9565b60405162000bb8919062002f36565b60405180910390f35b34801562000bce57600080fd5b5062000bd9620020cf565b60405162000be8919062002f36565b60405180910390f35b34801562000bfe57600080fd5b5062000c1d600480360381019062000c17919062002d63565b620020d5565b005b34801562000c2c57600080fd5b5062000c3762002221565b60405162000c46919062002f36565b60405180910390f35b34801562000c5c57600080fd5b5062000c7b600480360381019062000c75919062002d63565b62002227565b60405162000c8a919062002f36565b60405180910390f35b34801562000ca057600080fd5b5062000cab6200223f565b60405162000cba919062002f36565b60405180910390f35b62000ce1600480360381019062000cdb91906200321c565b62002245565b005b60116020528060005260406000206000915054906101000a900460ff1681565b60006018600086815260200190815260200160002060009054906101000a900473ffffffffffffffffffffffffffffffffffffffff1690503373ffffffffffffffffffffffffffffffffffffffff168173ffffffffffffffffffffffffffffffffffffffff161462000dac576040517f08c379a000000000000000000000000000000000000000000000000000000000815260040162000da390620033df565b60405180910390fd5b836019600087815260200190815260200160002054101562000e05576040517f08c379a000000000000000000000000000000000000000000000000000000000815260040162000dfc9062003451565b60405180910390fd5b6000601260010160009054906101000a900473ffffffffffffffffffffffffffffffffffffffff1690508073ffffffffffffffffffffffffffffffffffffffff166370a08231836040518263ffffffff1660e01b815260040162000e6a919062002ec1565b602060405180830381865afa15801562000e88573d6000803e3d6000fd5b505050506040513d601f19601f8201168201806040525081019062000eae91906200348a565b85111562000ef3576040517f08c379a000000000000000000000000000000000000000000000000000000000815260040162000eea906200350c565b60405180910390fd5b6000848662000f0391906200355d565b1462000f46576040517f08c379a000000000000000000000000000000000000000000000000000000000815260040162000f3d90620035e5565b60405180910390fd5b600062000f538762001976565b111562000fcb5784600f600082825462000f6e919062003636565b925050819055508460106000888152602001908152602001600020600082825462000f9a919062003636565b92505081905550601a8690806001815401808255809150506001900390600052602060002001600090919091909150555b60008173ffffffffffffffffffffffffffffffffffffffff166370a08231601260020160009054906101000a900473ffffffffffffffffffffffffffffffffffffffff166040518263ffffffff1660e01b81526004016200102d919062002ec1565b602060405180830381865afa1580156200104b573d6000803e3d6000fd5b505050506040513d601f19601f820116820180604052508101906200107191906200348a565b90506000811115620013795760006200108d82600f54620024ef565b90506000805b828114620012cf576000601a80549050905060008103620010b55750620012cf565b80821115620010c357600092505b6000601a8481548110620010dc57620010db62003671565b5b9060005260206000200154905060006018600083815260200190815260200160002060009054906101000a900473ffffffffffffffffffffffffffffffffffffffff1690506000601660010154620011348462001976565b620011409190620036a0565b9050806019600085815260200190815260200160002054036200118857601a868154811062001174576200117362003671565b5b9060005260206000200160009055620012a5565b8873ffffffffffffffffffffffffffffffffffffffff1663a9059cbb8360016040518363ffffffff1660e01b8152600401620011c692919062003738565b6020604051808303816000875af1158015620011e6573d6000803e3d6000fd5b505050506040513d601f19601f820116820180604052508101906200120c919062003796565b50601a839080600181540180825580915050600190039060005260206000200160009091909190915055601a86815481106200124d576200124c62003671565b5b90600052602060002001600090556001600f6000828254620012709190620037c8565b9250508190555060016010600085815260200190815260200160002060008282546200129d9190620037c8565b925050819055505b8580620012b29062003803565b965050505050508080620012c69062003803565b91505062001093565b508373ffffffffffffffffffffffffffffffffffffffff166370a08231601260020160009054906101000a900473ffffffffffffffffffffffffffffffffffffffff166040518263ffffffff1660e01b815260040162001330919062002ec1565b602060405180830381865afa1580156200134e573d6000803e3d6000fd5b505050506040513d601f19601f820116820180604052508101906200137491906200348a565b925050505b6000600954888888601260020160009054906101000a900473ffffffffffffffffffffffffffffffffffffffff1689604051620013b69062002cf8565b620013c79695949392919062003861565b604051809103906000f080158015620013e4573d6000803e3d6000fd5b5090508273ffffffffffffffffffffffffffffffffffffffff1663a9059cbb82896040518363ffffffff1660e01b815260040162001424929190620038ce565b6020604051808303816000875af115801562001444573d6000803e3d6000fd5b505050506040513d601f19601f820116820180604052508101906200146a919062003796565b506200147b88600954838a6200250a565b5050505050505050565b601c60009054906101000a900473ffffffffffffffffffffffffffffffffffffffff1681565b602060009054906101000a900460ff1681565b60026020528160005260406000208181548110620014db57600080fd5b90600052602060002001600091509150505481565b60168060000154908060010154905082565b60066020528060005260406000206000915054906101000a900460ff1681565b600d6020528060005260406000206000915090505481565b6000601260010160009054906101000a900473ffffffffffffffffffffffffffffffffffffffff1690506016600101548173ffffffffffffffffffffffffffffffffffffffff166370a08231601260020160009054906101000a900473ffffffffffffffffffffffffffffffffffffffff166040518263ffffffff1660e01b8152600401620015ca919062002ec1565b602060405180830381865afa158015620015e8573d6000803e3d6000fd5b505050506040513d601f19601f820116820180604052508101906200160e91906200348a565b101562001652576040517f08c379a000000000000000000000000000000000000000000000000000000000815260040162001649906200394b565b60405180910390fd5b8073ffffffffffffffffffffffffffffffffffffffff1663a9059cbb846016600101546040518363ffffffff1660e01b815260040162001694929190620038ce565b6020604051808303816000875af1158015620016b4573d6000803e3d6000fd5b505050506040513d601f19601f82011682018060405250810190620016da919062003796565b506016600101546019600084815260200190815260200160002081905550505050565b600a60205281600052604060002081815481106200171a57600080fd5b90600052602060002001600091509150505481565b60056020528060005260406000206000915054906101000a900473ffffffffffffffffffffffffffffffffffffffff1681565b60095481565b6000600a6000838152602001908152602001600020805490509050919050565b600c6020528060005260406000206000915090505481565b601b60009054906101000a900473ffffffffffffffffffffffffffffffffffffffff1681565b602060019054906101000a900473ffffffffffffffffffffffffffffffffffffffff1673ffffffffffffffffffffffffffffffffffffffff16631c85949c601c60009054906101000a900473ffffffffffffffffffffffffffffffffffffffff16836040518363ffffffff1660e01b815260040162001847929190620038ce565b600060405180830381600087803b1580156200186257600080fd5b505af115801562001877573d6000803e3d6000fd5b5050505050565b60006200188b8262001ad7565b9050919050565b60186020528060005260406000206000915054906101000a900473ffffffffffffffffffffffffffffffffffffffff1681565b60016020528160005260406000208181548110620018e257600080fd5b90600052602060002001600091509150505481565b600e6020528060005260406000206000915090505481565b60085481565b60106020528060005260406000206000915090505481565b60046020528160005260406000206020528060005260406000206000915091509054906101000a900460ff1681565b82601d8190555081601e8190555080601f81905550505050565b600060026000838152602001908152602001600020805490509050919050565b6000601b60009054906101000a900473ffffffffffffffffffffffffffffffffffffffff1673ffffffffffffffffffffffffffffffffffffffff16620019dd848462002643565b73ffffffffffffffffffffffffffffffffffffffff161462001a36576040517f08c379a000000000000000000000000000000000000000000000000000000000815260040162001a2d90620039bd565b60405180910390fd5b6001905092915050565b602060019054906101000a900473ffffffffffffffffffffffffffffffffffffffff1673ffffffffffffffffffffffffffffffffffffffff1663fe774f9d83836040518363ffffffff1660e01b815260040162001a9f929190620039df565b600060405180830381600087803b15801562001aba57600080fd5b505af115801562001acf573d6000803e3d6000fd5b505050505050565b600062001ae48262001bb5565b601660010154189050919050565b602060019054906101000a900473ffffffffffffffffffffffffffffffffffffffff1673ffffffffffffffffffffffffffffffffffffffff166303f5de9d8484601e54856040518563ffffffff1660e01b815260040162001b57949392919062003a0c565b600060405180830381600087803b15801562001b7257600080fd5b505af115801562001b87573d6000803e3d6000fd5b50505050505050565b601a818154811062001ba157600080fd5b906000526020600020016000915090505481565b600060016000838152602001908152602001600020805490509050919050565b6000601260010160009054906101000a900473ffffffffffffffffffffffffffffffffffffffff1690508073ffffffffffffffffffffffffffffffffffffffff1663a9059cbb86856040518363ffffffff1660e01b815260040162001c3c929190620038ce565b6020604051808303816000875af115801562001c5c573d6000803e3d6000fd5b505050506040513d601f19601f8201168201806040525081019062001c82919062003796565b508073ffffffffffffffffffffffffffffffffffffffff16634bbc1bcd30856040518363ffffffff1660e01b815260040162001cc0929190620038ce565b600060405180830381600087803b15801562001cdb57600080fd5b505af115801562001cf0573d6000803e3d6000fd5b5050505062001d0184848462002662565b5050505050565b60006005600084815260200190815260200160002060009054906101000a900473ffffffffffffffffffffffffffffffffffffffff1690508073ffffffffffffffffffffffffffffffffffffffff163373ffffffffffffffffffffffffffffffffffffffff161462001db1576040517f08c379a000000000000000000000000000000000000000000000000000000000815260040162001da89062003acf565b60405180910390fd5b60008190506000601860008373ffffffffffffffffffffffffffffffffffffffff1663685771f46040518163ffffffff1660e01b8152600401602060405180830381865afa15801562001e08573d6000803e3d6000fd5b505050506040513d601f19601f8201168201806040525081019062001e2e91906200348a565b815260200190815260200160002060009054906101000a900473ffffffffffffffffffffffffffffffffffffffff1690506000601260010160009054906101000a900473ffffffffffffffffffffffffffffffffffffffff1690508073ffffffffffffffffffffffffffffffffffffffff1663a9059cbb83876040518363ffffffff1660e01b815260040162001ec6929190620038ce565b6020604051808303816000875af115801562001ee6573d6000803e3d6000fd5b505050506040513d601f19601f8201168201806040525081019062001f0c919062003796565b508073ffffffffffffffffffffffffffffffffffffffff16634bbc1bcd601260020160009054906101000a900473ffffffffffffffffffffffffffffffffffffffff1660016040518363ffffffff1660e01b815260040162001f7092919062003738565b600060405180830381600087803b15801562001f8b57600080fd5b505af115801562001fa0573d6000803e3d6000fd5b5050505062001faf8662002725565b505050505050565b60128060000160009054906101000a900473ffffffffffffffffffffffffffffffffffffffff16908060010160009054906101000a900473ffffffffffffffffffffffffffffffffffffffff16908060020160009054906101000a900473ffffffffffffffffffffffffffffffffffffffff16908060030160009054906101000a900473ffffffffffffffffffffffffffffffffffffffff16905084565b6001602060006101000a81548160ff021916908315150217905550565b600b6020528060005260406000206000915054906101000a900473ffffffffffffffffffffffffffffffffffffffff1681565b601d5481565b60036020528060005260406000206000915090505481565b600f5481565b60005481565b601e5481565b6000602060019054906101000a900473ffffffffffffffffffffffffffffffffffffffff1673ffffffffffffffffffffffffffffffffffffffff1663d4d81032836040518263ffffffff1660e01b815260040162002134919062002f36565b602060405180830381865afa15801562002152573d6000803e3d6000fd5b505050506040513d601f19601f820116820180604052508101906200217891906200348a565b9050600062002187826200187e565b9050602060019054906101000a900473ffffffffffffffffffffffffffffffffffffffff1673ffffffffffffffffffffffffffffffffffffffff1663a06fc90b84836040518363ffffffff1660e01b8152600401620021e892919062002f53565b600060405180830381600087803b1580156200220357600080fd5b505af115801562002218573d6000803e3d6000fd5b50505050505050565b601f5481565b60196020528060005260406000206000915090505481565b60075481565b6000620022528362001976565b60166000015418905080341015620022a1576040517f08c379a0000000000000000000000000000000000000000000000000000000008152600401620022989062003b41565b60405180910390fd5b6000601260010160009054906101000a900473ffffffffffffffffffffffffffffffffffffffff1690506000620022d88562001ad7565b905060008273ffffffffffffffffffffffffffffffffffffffff166370a082316018600089815260200190815260200160002060009054906101000a900473ffffffffffffffffffffffffffffffffffffffff166040518263ffffffff1660e01b81526004016200234a919062002ec1565b602060405180830381865afa15801562002368573d6000803e3d6000fd5b505050506040513d601f19601f820116820180604052508101906200238e91906200348a565b905081811015620023d6576040517f08c379a0000000000000000000000000000000000000000000000000000000008152600401620023cd9062003bb3565b60405180910390fd5b60008054873088604051620023eb9062002d06565b620023fa949392919062003bd5565b604051809103906000f08015801562002417573d6000803e3d6000fd5b50905060008190506200242e8860005483620027a7565b8473ffffffffffffffffffffffffffffffffffffffff166342966c68856040518263ffffffff1660e01b815260040162002469919062002f36565b600060405180830381600087803b1580156200248457600080fd5b505af115801562002499573d6000803e3d6000fd5b505050508073ffffffffffffffffffffffffffffffffffffffff166108fc349081150290604051600060405180830381858888f19350505050158015620024e4573d6000803e3d6000fd5b505050505050505050565b600081831062002500578162002502565b825b905092915050565b6001600960008282546200251f919062003636565b9250508190555080600760008282546200253a919062003636565b92505081905550600a600085815260200190815260200160002083908060018154018082558091505060019003906000526020600020016000909190919091505580600d60008681526020019081526020016000206000828254620025a0919062003636565b9250508190555081600b600086815260200190815260200160002060006101000a81548173ffffffffffffffffffffffffffffffffffffffff021916908373ffffffffffffffffffffffffffffffffffffffff16021790555060016011600086815260200190815260200160002060006101000a81548160ff02191690831515021790555083600e60008581526020019081526020016000208190555050505050565b60006200265a8284620028d490919063ffffffff16565b905092915050565b8160076000828254620026769190620037c8565b92505081905550816008600082825462002691919062003636565b925050819055506000600e600085815260200190815260200160002054905082600c60008381526020019081526020016000206000828254620026d5919062003636565b9250508190555060008383620026ec9190620037c8565b036200271f5760006011600086815260200190815260200160002060006101000a81548160ff0219169083151502179055505b50505050565b6000600360008381526020019081526020016000205490506002600082815260200190815260200160002082908060018154018082558091505060019003906000526020600020016000909190919091505560006006600083815260200190815260200160002060006101000a81548160ff0219169083151502179055505050565b82600360008481526020019081526020016000208190555060016000848152602001908152602001600020829080600181540180825580915050600190039060005260206000200160009091909190915055600160046000848152602001908152602001600020600085815260200190815260200160002060006101000a81548160ff021916908315150217905550806005600084815260200190815260200160002060006101000a81548173ffffffffffffffffffffffffffffffffffffffff021916908373ffffffffffffffffffffffffffffffffffffffff16021790555060016000808282546200289c919062003636565b9250508190555060016006600085815260200190815260200160002060006101000a81548160ff021916908315150217905550505050565b6000806000620028e58585620028ff565b91509150620028f48162002988565b819250505092915050565b6000806041835103620029445760008060006020860151925060408601519150606086015160001a9050620029378782858562002b7f565b9450945050505062002981565b6040835103620029785760008060208501519150604085015190506200296c86838362002c95565b93509350505062002981565b60006002915091505b9250929050565b600060048111156200299f576200299e62003c22565b5b816004811115620029b557620029b462003c22565b5b031562002b7c5760016004811115620029d357620029d262003c22565b5b816004811115620029e957620029e862003c22565b5b0362002a2c576040517f08c379a000000000000000000000000000000000000000000000000000000000815260040162002a239062003ca1565b60405180910390fd5b6002600481111562002a435762002a4262003c22565b5b81600481111562002a595762002a5862003c22565b5b0362002a9c576040517f08c379a000000000000000000000000000000000000000000000000000000000815260040162002a939062003d13565b60405180910390fd5b6003600481111562002ab35762002ab262003c22565b5b81600481111562002ac95762002ac862003c22565b5b0362002b0c576040517f08c379a000000000000000000000000000000000000000000000000000000000815260040162002b039062003dab565b60405180910390fd5b60048081111562002b225762002b2162003c22565b5b81600481111562002b385762002b3762003c22565b5b0362002b7b576040517f08c379a000000000000000000000000000000000000000000000000000000000815260040162002b729062003e43565b60405180910390fd5b5b50565b6000807f7fffffffffffffffffffffffffffffff5d576e7357a4501ddfe92f46681b20a08360001c111562002bbc57600060039150915062002c8c565b601b8560ff161415801562002bd55750601c8560ff1614155b1562002be957600060049150915062002c8c565b60006001878787876040516000815260200160405260405162002c10949392919062003e83565b6020604051602081039080840390855afa15801562002c33573d6000803e3d6000fd5b505050602060405103519050600073ffffffffffffffffffffffffffffffffffffffff168173ffffffffffffffffffffffffffffffffffffffff160362002c835760006001925092505062002c8c565b80600092509250505b94509492505050565b60008060007f7fffffffffffffffffffffffffffffffffffffffffffffffffffffffffffffff60001b841690506000601b60ff8660001c901c62002cda919062003636565b905062002cea8782888562002b7f565b935093505050935093915050565b610d218062003ed183390190565b6111e58062004bf283390190565b6000604051905090565b600080fd5b600080fd5b6000819050919050565b62002d3d8162002d28565b811462002d4957600080fd5b50565b60008135905062002d5d8162002d32565b92915050565b60006020828403121562002d7c5762002d7b62002d1e565b5b600062002d8c8482850162002d4c565b91505092915050565b60008115159050919050565b62002dac8162002d95565b82525050565b600060208201905062002dc9600083018462002da1565b92915050565b6000819050919050565b62002de48162002dcf565b811462002df057600080fd5b50565b60008135905062002e048162002dd9565b92915050565b6000806000806080858703121562002e275762002e2662002d1e565b5b600062002e378782880162002d4c565b945050602062002e4a8782880162002d4c565b935050604062002e5d8782880162002d4c565b925050606062002e708782880162002df3565b91505092959194509250565b600073ffffffffffffffffffffffffffffffffffffffff82169050919050565b600062002ea98262002e7c565b9050919050565b62002ebb8162002e9c565b82525050565b600060208201905062002ed8600083018462002eb0565b92915050565b6000806040838503121562002ef85762002ef762002d1e565b5b600062002f088582860162002d4c565b925050602062002f1b8582860162002d4c565b9150509250929050565b62002f308162002d28565b82525050565b600060208201905062002f4d600083018462002f25565b92915050565b600060408201905062002f6a600083018562002f25565b62002f79602083018462002f25565b9392505050565b62002f8b8162002e9c565b811462002f9757600080fd5b50565b60008135905062002fab8162002f80565b92915050565b6000806040838503121562002fcb5762002fca62002d1e565b5b600062002fdb8582860162002f9a565b925050602062002fee8582860162002d4c565b9150509250929050565b60008060006060848603121562003014576200301362002d1e565b5b6000620030248682870162002d4c565b9350506020620030378682870162002d4c565b92505060406200304a8682870162002d4c565b9150509250925092565b600080fd5b600080fd5b6000601f19601f8301169050919050565b7f4e487b7100000000000000000000000000000000000000000000000000000000600052604160045260246000fd5b620030a9826200305e565b810181811067ffffffffffffffff82111715620030cb57620030ca6200306f565b5b80604052505050565b6000620030e062002d14565b9050620030ee82826200309e565b919050565b600067ffffffffffffffff8211156200311157620031106200306f565b5b6200311c826200305e565b9050602081019050919050565b82818337600083830152505050565b60006200314f6200314984620030f3565b620030d4565b9050828152602081018484840111156200316e576200316d62003059565b5b6200317b84828562003129565b509392505050565b600082601f8301126200319b576200319a62003054565b5b8135620031ad84826020860162003138565b91505092915050565b60008060408385031215620031d057620031cf62002d1e565b5b6000620031e08582860162002df3565b925050602083013567ffffffffffffffff81111562003204576200320362002d23565b5b620032128582860162003183565b9150509250929050565b6000806040838503121562003236576200323562002d1e565b5b6000620032468582860162002d4c565b9250506020620032598582860162002df3565b9150509250929050565b6000806000606084860312156200327f576200327e62002d1e565b5b60006200328f8682870162002d4c565b9350506020620032a28682870162002d4c565b9250506040620032b58682870162002df3565b9150509250925092565b60008060008060808587031215620032dc57620032db62002d1e565b5b6000620032ec8782880162002f9a565b9450506020620032ff8782880162002d4c565b9350506040620033128782880162002d4c565b9250506060620033258782880162002d4c565b91505092959194509250565b600060808201905062003348600083018762002eb0565b62003357602083018662002eb0565b62003366604083018562002eb0565b62003375606083018462002eb0565b95945050505050565b600082825260208201905092915050565b7f43616c6c6572206973206e6f7420746865206f776e6572000000000000000000600082015250565b6000620033c76017836200337e565b9150620033d4826200338f565b602082019050919050565b60006020820190508181036000830152620033fa81620033b8565b9050919050565b7f4e6f74206861766520656e6f756768206d617474657200000000000000000000600082015250565b6000620034396016836200337e565b9150620034468262003401565b602082019050919050565b600060208201905081810360008301526200346c816200342a565b9050919050565b600081519050620034848162002d32565b92915050565b600060208284031215620034a357620034a262002d1e565b5b6000620034b38482850162003473565b91505092915050565b7f4e6f74206869676820656e6f7567680000000000000000000000000000000000600082015250565b6000620034f4600f836200337e565b91506200350182620034bc565b602082019050919050565b600060208201905081810360008301526200352781620034e5565b9050919050565b7f4e487b7100000000000000000000000000000000000000000000000000000000600052601260045260246000fd5b60006200356a8262002d28565b9150620035778362002d28565b9250826200358a57620035896200352e565b5b828206905092915050565b7f447261772072617465206e6f7420646976697369626c65000000000000000000600082015250565b6000620035cd6017836200337e565b9150620035da8262003595565b602082019050919050565b600060208201905081810360008301526200360081620035be565b9050919050565b7f4e487b7100000000000000000000000000000000000000000000000000000000600052601160045260246000fd5b6000620036438262002d28565b9150620036508362002d28565b92508282019050808211156200366b576200366a62003607565b5b92915050565b7f4e487b7100000000000000000000000000000000000000000000000000000000600052603260045260246000fd5b6000620036ad8262002d28565b9150620036ba8362002d28565b9250828202620036ca8162002d28565b91508282048414831517620036e457620036e362003607565b5b5092915050565b6000819050919050565b6000819050919050565b6000620037206200371a6200371484620036eb565b620036f5565b62002d28565b9050919050565b6200373281620036ff565b82525050565b60006040820190506200374f600083018562002eb0565b6200375e602083018462003727565b9392505050565b620037708162002d95565b81146200377c57600080fd5b50565b600081519050620037908162003765565b92915050565b600060208284031215620037af57620037ae62002d1e565b5b6000620037bf848285016200377f565b91505092915050565b6000620037d58262002d28565b9150620037e28362002d28565b9250828203905081811115620037fd57620037fc62003607565b5b92915050565b6000620038108262002d28565b91507fffffffffffffffffffffffffffffffffffffffffffffffffffffffffffffffff820362003845576200384462003607565b5b600182019050919050565b6200385b8162002dcf565b82525050565b600060c08201905062003878600083018962002f25565b62003887602083018862002f25565b62003896604083018762002f25565b620038a5606083018662002f25565b620038b4608083018562002eb0565b620038c360a083018462003850565b979650505050505050565b6000604082019050620038e5600083018562002eb0565b620038f4602083018462002f25565b9392505050565b7f4e6f7420656e6f756768206d6174746572000000000000000000000000000000600082015250565b6000620039336011836200337e565b91506200394082620038fb565b602082019050919050565b60006020820190508181036000830152620039668162003924565b9050919050565b7f496e76616c6964207369676e6174757265000000000000000000000000000000600082015250565b6000620039a56011836200337e565b9150620039b2826200396d565b602082019050919050565b60006020820190508181036000830152620039d88162003996565b9050919050565b6000604082019050620039f6600083018562002f25565b62003a05602083018462003850565b9392505050565b600060808201905062003a23600083018762002f25565b62003a32602083018662002f25565b62003a41604083018562002f25565b62003a50606083018462003850565b95945050505050565b7f43616c6c6572206973206e6f742074686520726967687420436f736d6f53656560008201527f6420636f6e747261637400000000000000000000000000000000000000000000602082015250565b600062003ab7602a836200337e565b915062003ac48262003a59565b604082019050919050565b6000602082019050818103600083015262003aea8162003aa8565b9050919050565b7f45746865722076616c7565206973206e6f7420656e6f75676800000000000000600082015250565b600062003b296019836200337e565b915062003b368262003af1565b602082019050919050565b6000602082019050818103600083015262003b5c8162003b1a565b9050919050565b7f4d61747465722062616c616e6365206973206e6f7420656e6f75676800000000600082015250565b600062003b9b601c836200337e565b915062003ba88262003b63565b602082019050919050565b6000602082019050818103600083015262003bce8162003b8c565b9050919050565b600060808201905062003bec600083018762002f25565b62003bfb602083018662002f25565b62003c0a604083018562002eb0565b62003c19606083018462003850565b95945050505050565b7f4e487b7100000000000000000000000000000000000000000000000000000000600052602160045260246000fd5b7f45434453413a20696e76616c6964207369676e61747572650000000000000000600082015250565b600062003c896018836200337e565b915062003c968262003c51565b602082019050919050565b6000602082019050818103600083015262003cbc8162003c7a565b9050919050565b7f45434453413a20696e76616c6964207369676e6174757265206c656e67746800600082015250565b600062003cfb601f836200337e565b915062003d088262003cc3565b602082019050919050565b6000602082019050818103600083015262003d2e8162003cec565b9050919050565b7f45434453413a20696e76616c6964207369676e6174757265202773272076616c60008201527f7565000000000000000000000000000000000000000000000000000000000000602082015250565b600062003d936022836200337e565b915062003da08262003d35565b604082019050919050565b6000602082019050818103600083015262003dc68162003d84565b9050919050565b7f45434453413a20696e76616c6964207369676e6174757265202776272076616c60008201527f7565000000000000000000000000000000000000000000000000000000000000602082015250565b600062003e2b6022836200337e565b915062003e388262003dcd565b604082019050919050565b6000602082019050818103600083015262003e5e8162003e1c565b9050919050565b600060ff82169050919050565b62003e7d8162003e65565b82525050565b600060808201905062003e9a600083018762003850565b62003ea9602083018662003e72565b62003eb8604083018562003850565b62003ec7606083018462003850565b9594505050505056fe60806040523480156200001157600080fd5b5060405162000d2138038062000d21833981810160405281019062000037919062000283565b85600080018190555084600060010181905550836000600201819055508260006003018190555030600060040160006101000a81548173ffffffffffffffffffffffffffffffffffffffff021916908373ffffffffffffffffffffffffffffffffffffffff16021790555033600060050160006101000a81548173ffffffffffffffffffffffffffffffffffffffff021916908373ffffffffffffffffffffffffffffffffffffffff16021790555080600060060181905550600060050160009054906101000a900473ffffffffffffffffffffffffffffffffffffffff16600860006101000a81548173ffffffffffffffffffffffffffffffffffffffff021916908373ffffffffffffffffffffffffffffffffffffffff16021790555081600960006101000a81548173ffffffffffffffffffffffffffffffffffffffff021916908373ffffffffffffffffffffffffffffffffffffffff1602179055505050505050506200031f565b600080fd5b6000819050919050565b620001bd81620001a8565b8114620001c957600080fd5b50565b600081519050620001dd81620001b2565b92915050565b600073ffffffffffffffffffffffffffffffffffffffff82169050919050565b60006200021082620001e3565b9050919050565b620002228162000203565b81146200022e57600080fd5b50565b600081519050620002428162000217565b92915050565b6000819050919050565b6200025d8162000248565b81146200026957600080fd5b50565b6000815190506200027d8162000252565b92915050565b60008060008060008060c08789031215620002a357620002a2620001a3565b5b6000620002b389828a01620001cc565b9650506020620002c689828a01620001cc565b9550506040620002d989828a01620001cc565b9450506060620002ec89828a01620001cc565b9350506080620002ff89828a0162000231565b92505060a06200031289828a016200026c565b9150509295509295509295565b6109f2806200032f6000396000f3fe608060405234801561001057600080fd5b506004361061002b5760003560e01c806327ac1b6514610030575b600080fd5b61004a60048036038101906100459190610563565b61004c565b005b60011515600060070160003373ffffffffffffffffffffffffffffffffffffffff1673ffffffffffffffffffffffffffffffffffffffff16815260200190815260200160002060009054906101000a900460ff161515036100e2576040517f08c379a00000000000000000000000000000000000000000000000000000000081526004016100d990610667565b60405180910390fd5b6000806002015411610129576040517f08c379a0000000000000000000000000000000000000000000000000000000008152600401610120906106d3565b60405180910390fd5b610132836102eb565b50600960009054906101000a900473ffffffffffffffffffffffffffffffffffffffff1673ffffffffffffffffffffffffffffffffffffffff16639cee22b13360008001546000600301546000600201546040518563ffffffff1660e01b81526004016101a2949392919061074d565b600060405180830381600087803b1580156101bc57600080fd5b505af11580156101d0573d6000803e3d6000fd5b50505050600060030154600060020160008282546101ee91906107c1565b925050819055506001600060070160003373ffffffffffffffffffffffffffffffffffffffff1673ffffffffffffffffffffffffffffffffffffffff16815260200190815260200160002060006101000a81548160ff021916908315150217905550600860009054906101000a900473ffffffffffffffffffffffffffffffffffffffff1673ffffffffffffffffffffffffffffffffffffffff16639202c1ec60006001015484846040518463ffffffff1660e01b81526004016102b4939291906108b8565b600060405180830381600087803b1580156102ce57600080fd5b505af11580156102e2573d6000803e3d6000fd5b50505050505050565b600080826040516020016102ff9190610939565b604051602081830303815290604052805190602001209050600060060154811461035e576040517f08c379a00000000000000000000000000000000000000000000000000000000081526004016103559061099c565b60405180910390fd5b6001915050919050565b6000604051905090565b600080fd5b600080fd5b600080fd5b600080fd5b6000601f19601f8301169050919050565b7f4e487b7100000000000000000000000000000000000000000000000000000000600052604160045260246000fd5b6103cf82610386565b810181811067ffffffffffffffff821117156103ee576103ed610397565b5b80604052505050565b6000610401610368565b905061040d82826103c6565b919050565b600067ffffffffffffffff82111561042d5761042c610397565b5b61043682610386565b9050602081019050919050565b82818337600083830152505050565b600061046561046084610412565b6103f7565b90508281526020810184848401111561048157610480610381565b5b61048c848285610443565b509392505050565b600082601f8301126104a9576104a861037c565b5b81356104b9848260208601610452565b91505092915050565b600067ffffffffffffffff8211156104dd576104dc610397565b5b6104e682610386565b9050602081019050919050565b6000610506610501846104c2565b6103f7565b90508281526020810184848401111561052257610521610381565b5b61052d848285610443565b509392505050565b600082601f83011261054a5761054961037c565b5b813561055a8482602086016104f3565b91505092915050565b60008060006060848603121561057c5761057b610372565b5b600084013567ffffffffffffffff81111561059a57610599610377565b5b6105a686828701610494565b935050602084013567ffffffffffffffff8111156105c7576105c6610377565b5b6105d386828701610494565b925050604084013567ffffffffffffffff8111156105f4576105f3610377565b5b61060086828701610535565b9150509250925092565b600082825260208201905092915050565b7f43616e206f6e6c792064726177206f6e63650000000000000000000000000000600082015250565b600061065160128361060a565b915061065c8261061b565b602082019050919050565b6000602082019050818103600083015261068081610644565b9050919050565b7f4e6f2062757474657220746f2064726177000000000000000000000000000000600082015250565b60006106bd60118361060a565b91506106c882610687565b602082019050919050565b600060208201905081810360008301526106ec816106b0565b9050919050565b600073ffffffffffffffffffffffffffffffffffffffff82169050919050565b600061071e826106f3565b9050919050565b61072e81610713565b82525050565b6000819050919050565b61074781610734565b82525050565b60006080820190506107626000830187610725565b61076f602083018661073e565b61077c604083018561073e565b610789606083018461073e565b95945050505050565b7f4e487b7100000000000000000000000000000000000000000000000000000000600052601160045260246000fd5b60006107cc82610734565b91506107d783610734565b92508282039050818111156107ef576107ee610792565b5b92915050565b600081519050919050565b60005b8381101561081e578082015181840152602081019050610803565b60008484015250505050565b6000610835826107f5565b61083f818561060a565b935061084f818560208601610800565b61085881610386565b840191505092915050565b600081519050919050565b600082825260208201905092915050565b600061088a82610863565b610894818561086e565b93506108a4818560208601610800565b6108ad81610386565b840191505092915050565b60006060820190506108cd600083018661073e565b81810360208301526108df818561082a565b905081810360408301526108f3818461087f565b9050949350505050565b600081905092915050565b6000610913826107f5565b61091d81856108fd565b935061092d818560208601610800565b80840191505092915050565b60006109458284610908565b915081905092915050565b7f496e70757420646f6573206e6f74206d61746368207365637265740000000000600082015250565b6000610986601b8361060a565b915061099182610950565b602082019050919050565b600060208201905081810360008301526109b581610979565b905091905056fea2646970667358221220b804c9ce23568e39025886838774e8c8a47ef20b57024bbcb525e0012e41037f64736f6c634300081100336080604052604051620011e5380380620011e58339818101604052810190620000299190620002f4565b600033905080600760006101000a81548173ffffffffffffffffffffffffffffffffffffffff021916908373ffffffffffffffffffffffffffffffffffffffff16021790555082600860006101000a81548173ffffffffffffffffffffffffffffffffffffffff021916908373ffffffffffffffffffffffffffffffffffffffff1602179055508460008001819055508360006001018190555034600060020181905550600860009054906101000a900473ffffffffffffffffffffffffffffffffffffffff1673ffffffffffffffffffffffffffffffffffffffff166334fc1228856040518263ffffffff1660e01b81526004016200012a919062000377565b602060405180830381865afa15801562000148573d6000803e3d6000fd5b505050506040513d601f19601f820116820180604052508101906200016e919062000394565b60006003018190555030600060040160006101000a81548173ffffffffffffffffffffffffffffffffffffffff021916908373ffffffffffffffffffffffffffffffffffffffff16021790555080600060050160006101000a81548173ffffffffffffffffffffffffffffffffffffffff021916908373ffffffffffffffffffffffffffffffffffffffff160217905550816000600601819055505050505050620003c6565b600080fd5b6000819050919050565b6200022e8162000219565b81146200023a57600080fd5b50565b6000815190506200024e8162000223565b92915050565b600073ffffffffffffffffffffffffffffffffffffffff82169050919050565b6000620002818262000254565b9050919050565b620002938162000274565b81146200029f57600080fd5b50565b600081519050620002b38162000288565b92915050565b6000819050919050565b620002ce81620002b9565b8114620002da57600080fd5b50565b600081519050620002ee81620002c3565b92915050565b6000806000806080858703121562000311576200031062000214565b5b600062000321878288016200023d565b945050602062000334878288016200023d565b93505060406200034787828801620002a2565b92505060606200035a87828801620002dd565b91505092959194509250565b620003718162000219565b82525050565b60006020820190506200038e600083018462000366565b92915050565b600060208284031215620003ad57620003ac62000214565b5b6000620003bd848285016200023d565b91505092915050565b610e0f80620003d66000396000f3fe608060405234801561001057600080fd5b506004361061004c5760003560e01c8063685771f4146100515780637d94792a1461006f578063956c2dc314610093578063c5d12c97146100af575b600080fd5b6100596100cd565b6040516100669190610656565b60405180910390f35b6100776100d9565b60405161008a97969594939291906106cb565b60405180910390f35b6100ad60048036038101906100a89190610935565b610149565b005b6100b76105b4565b6040516100c49190610656565b60405180910390f35b60008060010154905090565b60008060000154908060010154908060020154908060030154908060040160009054906101000a900473ffffffffffffffffffffffffffffffffffffffff16908060050160009054906101000a900473ffffffffffffffffffffffffffffffffffffffff16908060060154905087565b610152836105c0565b50600860009054906101000a900473ffffffffffffffffffffffffffffffffffffffff1673ffffffffffffffffffffffffffffffffffffffff1663f27890f260008001546040518263ffffffff1660e01b81526004016101b29190610656565b600060405180830381600087803b1580156101cc57600080fd5b505af11580156101e0573d6000803e3d6000fd5b50505050600760009054906101000a900473ffffffffffffffffffffffffffffffffffffffff1673ffffffffffffffffffffffffffffffffffffffff1663a0e12efe83836040518363ffffffff1660e01b8152600401610241929190610ab0565b600060405180830381600087803b15801561025b57600080fd5b505af115801561026f573d6000803e3d6000fd5b505050506000600860009054906101000a900473ffffffffffffffffffffffffffffffffffffffff1673ffffffffffffffffffffffffffffffffffffffff1663b8a9736d6040518163ffffffff1660e01b8152600401602060405180830381865afa1580156102e2573d6000803e3d6000fd5b505050506040513d601f19601f820116820180604052508101906103069190610b13565b90506000600860009054906101000a900473ffffffffffffffffffffffffffffffffffffffff1673ffffffffffffffffffffffffffffffffffffffff166307604b1a6040518163ffffffff1660e01b8152600401602060405180830381865afa158015610377573d6000803e3d6000fd5b505050506040513d601f19601f8201168201806040525081019061039b9190610b6c565b73ffffffffffffffffffffffffffffffffffffffff16826040516103be90610bca565b60006040518083038185875af1925050503d80600081146103fb576040519150601f19603f3d011682016040523d82523d6000602084013e610400565b606091505b5050905080610444576040517f08c379a000000000000000000000000000000000000000000000000000000000815260040161043b90610c2b565b60405180910390fd5b6000826000600201546104579190610c7a565b90506000600760009054906101000a900473ffffffffffffffffffffffffffffffffffffffff1673ffffffffffffffffffffffffffffffffffffffff16636352211e6000600101546040518263ffffffff1660e01b81526004016104bb9190610656565b602060405180830381865afa1580156104d8573d6000803e3d6000fd5b505050506040513d601f19601f820116820180604052508101906104fc9190610b6c565b905060008173ffffffffffffffffffffffffffffffffffffffff168360405161052490610bca565b60006040518083038185875af1925050503d8060008114610561576040519150601f19603f3d011682016040523d82523d6000602084013e610566565b606091505b50509050806105aa576040517f08c379a00000000000000000000000000000000000000000000000000000000081526004016105a190610cfa565b60405180910390fd5b5050505050505050565b60008060030154905090565b600080826040516020016105d49190610d56565b6040516020818303038152906040528051906020012090506000600601548114610633576040517f08c379a000000000000000000000000000000000000000000000000000000000815260040161062a90610db9565b60405180910390fd5b6001915050919050565b6000819050919050565b6106508161063d565b82525050565b600060208201905061066b6000830184610647565b92915050565b600073ffffffffffffffffffffffffffffffffffffffff82169050919050565b600061069c82610671565b9050919050565b6106ac81610691565b82525050565b6000819050919050565b6106c5816106b2565b82525050565b600060e0820190506106e0600083018a610647565b6106ed6020830189610647565b6106fa6040830188610647565b6107076060830187610647565b61071460808301866106a3565b61072160a08301856106a3565b61072e60c08301846106bc565b98975050505050505050565b6000604051905090565b600080fd5b600080fd5b600080fd5b600080fd5b6000601f19601f8301169050919050565b7f4e487b7100000000000000000000000000000000000000000000000000000000600052604160045260246000fd5b6107a182610758565b810181811067ffffffffffffffff821117156107c0576107bf610769565b5b80604052505050565b60006107d361073a565b90506107df8282610798565b919050565b600067ffffffffffffffff8211156107ff576107fe610769565b5b61080882610758565b9050602081019050919050565b82818337600083830152505050565b6000610837610832846107e4565b6107c9565b90508281526020810184848401111561085357610852610753565b5b61085e848285610815565b509392505050565b600082601f83011261087b5761087a61074e565b5b813561088b848260208601610824565b91505092915050565b600067ffffffffffffffff8211156108af576108ae610769565b5b6108b882610758565b9050602081019050919050565b60006108d86108d384610894565b6107c9565b9050828152602081018484840111156108f4576108f3610753565b5b6108ff848285610815565b509392505050565b600082601f83011261091c5761091b61074e565b5b813561092c8482602086016108c5565b91505092915050565b60008060006060848603121561094e5761094d610744565b5b600084013567ffffffffffffffff81111561096c5761096b610749565b5b61097886828701610866565b935050602084013567ffffffffffffffff81111561099957610998610749565b5b6109a586828701610866565b925050604084013567ffffffffffffffff8111156109c6576109c5610749565b5b6109d286828701610907565b9150509250925092565b600081519050919050565b600082825260208201905092915050565b60005b83811015610a165780820151818401526020810190506109fb565b60008484015250505050565b6000610a2d826109dc565b610a3781856109e7565b9350610a478185602086016109f8565b610a5081610758565b840191505092915050565b600081519050919050565b600082825260208201905092915050565b6000610a8282610a5b565b610a8c8185610a66565b9350610a9c8185602086016109f8565b610aa581610758565b840191505092915050565b60006040820190508181036000830152610aca8185610a22565b90508181036020830152610ade8184610a77565b90509392505050565b610af08161063d565b8114610afb57600080fd5b50565b600081519050610b0d81610ae7565b92915050565b600060208284031215610b2957610b28610744565b5b6000610b3784828501610afe565b91505092915050565b610b4981610691565b8114610b5457600080fd5b50565b600081519050610b6681610b40565b92915050565b600060208284031215610b8257610b81610744565b5b6000610b9084828501610b57565b91505092915050565b600081905092915050565b50565b6000610bb4600083610b99565b9150610bbf82610ba4565b600082019050919050565b6000610bd582610ba7565b9150819050919050565b7f4574686572206e6f742073656e7420746f205472656173757279000000000000600082015250565b6000610c15601a836109e7565b9150610c2082610bdf565b602082019050919050565b60006020820190508181036000830152610c4481610c08565b9050919050565b7f4e487b7100000000000000000000000000000000000000000000000000000000600052601160045260246000fd5b6000610c858261063d565b9150610c908361063d565b9250828203905081811115610ca857610ca7610c4b565b5b92915050565b7f4574686572206e6f742073656e7420746f20706172656e74206e757400000000600082015250565b6000610ce4601c836109e7565b9150610cef82610cae565b602082019050919050565b60006020820190508181036000830152610d1381610cd7565b9050919050565b600081905092915050565b6000610d30826109dc565b610d3a8185610d1a565b9350610d4a8185602086016109f8565b80840191505092915050565b6000610d628284610d25565b915081905092915050565b7f496e70757420646f6573206e6f74206d61746368207365637265740000000000600082015250565b6000610da3601b836109e7565b9150610dae82610d6d565b602082019050919050565b60006020820190508181036000830152610dd281610d96565b905091905056fea264697066735822122047221398875ef23bef05aaa7d49b4a396ddd5d77b7bcee4b63c05f04ac86399e64736f6c63430008110033a26469706673582212208bddb3d9483a74bd563dc42efcc154961fad7443044da82a9d38a0ea9d0bcf7264736f6c63430008110033a2646970667358221220df8a3affe74ef9afac46983197cccd82e57cac7b84e31e74b4ee5eabf78efeab64736f6c63430008110033",
  "immutableReferences": {},
  "source": "// SPDX-License-Identifier: MIT\npragma solidity ^0.8.7;\n\nimport \"openzeppelin-solidity/contracts/access/Ownable.sol\";\nimport \"./CosmoMatter.sol\";\n//import \"./CosmoBang.sol\";\nimport \"./CosmoSystems.sol\";\n\n/**\n * CosmoUniverse is the top contract for the developer to create the planned system.\n *\n */\n // *** HERE ** DECIDED TO REMOVE CosmoSystems (make it an outside contract to build and then just return needed addresses)\ncontract CosmoUniverse is CosmoSystems, Ownable {\n\n    CosmoMatter matter;\n\n    constructor(\n        address _systemAddress\n    ) CosmoSystems(_systemAddress)\n    {\n        SYSTEM_ADDRESS = _systemAddress;\n        //matter = new CosmoMatter(_matterName, _matterSymbol);\n        //MATTER_ADDRESS = address(matter);\n        //bang = new CosmoBang(\n        //    SYSTEM_ADDRESS,\n        //    MATTER_ADDRESS\n        //);\n        //bangAddress = address(bang);\n    }\n\n    //function deployCosmo(string memory _cosmoName, string memory _cosmoSymbol) public {\n        //cosmos[cosmosIndex].name = _matterName;\n        //cosmos[cosmosIndex].symbol = _matterSymbol;\n        //CosmoBuilding cosmobuild = new CosmoBuilding(_cosmoName, _cosmoSymbol);\n        //buildLocation = address(cosmobuild);\n    //}\n\n    function deployCosmo(\n        uint256 _id,\n        uint256 _price,\n        uint256 _rate,\n        uint256 _amount,\n        string memory _name,\n        string memory _symbol\n    ) public {\n        cosmos[COSMOS_INDEX].id = _id;\n        cosmos[COSMOS_INDEX].price = _price;\n        cosmos[COSMOS_INDEX].rate =  _rate;\n        cosmos[COSMOS_INDEX].amount = _amount;\n        cosmos[COSMOS_INDEX].name = _name;\n        cosmos[COSMOS_INDEX].symbol = _symbol;\n\n        createVault();\n    }\n\n    function makeMatter(string memory _matterName, string memory _matterSymbol) public {\n        matter = new CosmoMatter(_matterName, _matterSymbol);\n        MATTER_ADDRESS = address(matter);\n    }\n\n    function bigBang() public {\n        // seperate out mattertocreate later as a function that can be viewed before bigBang;\n        uint256 matterToCreate = cosmos[COSMOS_INDEX].rate * cosmos[COSMOS_INDEX].amount;\n        matter = CosmoMatter(MATTER_ADDRESS);\n        matter.mintMatter(cosmos[COSMOS_INDEX].vaultLocation, matterToCreate);\n        createCosmo();\n    }\n\n    /**\n     * The function starts the CosmoNuts universe.\n     * The amount of matter created is dependent on the desired number of NFT tokens needed and their rate.\n     * Total matter created is ultimately equal to number of NFT tokens times the selected rate.\n     */\n     /*\n    function bigBang(\n        string memory _cosmosName,\n        string memory _cosmosSymbol,\n        uint256 _nutPrice,\n        uint256 _nutRate,\n        uint256 _desiredEntities\n    ) public onlyOwner {\n        //CosmoBang bang = CosmoBang(bangAddress);\n        uint256 matterToCreate = _nutRate * _desiredEntities;\n        matter.mintMatter(address(this), matterToCreate);\n        address[] memory cosmoAddresses = bang.nutBang(\n            _cosmosName,\n            _cosmosSymbol,\n            _nutPrice,\n            _nutRate,\n            _desiredEntities\n        );\n\n        cosmo.id = COSMOS_INDEX;\n        cosmo.status = true;\n        cosmo.name = _cosmosName;\n        cosmo.symbol = _cosmosSymbol;\n        cosmo.location = cosmoAddresses[0];\n        cosmo.vaultLocation = cosmoAddresses[1];\n\n        cosmos[COSMOS_INDEX] = cosmo;\n    }\n    */\n\n}\n",
  "sourcePath": "/home/redlentils/Seafile/Websites/avatarnft/contracts/CosmoUniverse.sol",
  "compiler": {
    "name": "solc",
    "version": "0.8.17+commit.8df45f5f.Emscripten.clang"
  },
  "schemaVersion": "3.4.10",
  "updatedAt": "2022-10-08T19:49:48.043Z",
  "devdoc": {
    "kind": "dev",
    "methods": {
      "owner()": {
        "details": "Returns the address of the current owner."
      },
      "renounceOwnership()": {
        "details": "Leaves the contract without owner. It will not be possible to call `onlyOwner` functions anymore. Can only be called by the current owner. NOTE: Renouncing ownership will leave the contract without an owner, thereby removing any functionality that is only available to the owner."
      },
      "transferOwnership(address)": {
        "details": "Transfers ownership of the contract to a new account (`newOwner`). Can only be called by the current owner."
      }
    },
    "version": 1
  },
  "userdoc": {
    "kind": "user",
    "methods": {},
    "notice": "CosmoUniverse is the top contract for the developer to create the planned system.",
    "version": 1
  }
}