{
  "contractName": "CosmoNuts",
  "abi": [
    {
      "inputs": [
        {
          "internalType": "string",
          "name": "_name",
          "type": "string"
        },
        {
          "internalType": "string",
          "name": "_symbol",
          "type": "string"
        },
        {
          "internalType": "uint256",
          "name": "_initialNFTSupply",
          "type": "uint256"
        },
        {
          "internalType": "address",
          "name": "_systemAddress",
          "type": "address"
        },
        {
          "internalType": "address",
          "name": "_treasuryAddress",
          "type": "address"
        },
        {
          "internalType": "address",
          "name": "_vaultImplementation",
          "type": "address"
        }
      ],
      "stateMutability": "nonpayable",
      "type": "constructor"
    },
    {
      "anonymous": false,
      "inputs": [
        {
          "indexed": true,
          "internalType": "address",
          "name": "owner",
          "type": "address"
        },
        {
          "indexed": true,
          "internalType": "address",
          "name": "approved",
          "type": "address"
        },
        {
          "indexed": true,
          "internalType": "uint256",
          "name": "tokenId",
          "type": "uint256"
        }
      ],
      "name": "Approval",
      "type": "event"
    },
    {
      "anonymous": false,
      "inputs": [
        {
          "indexed": true,
          "internalType": "address",
          "name": "owner",
          "type": "address"
        },
        {
          "indexed": true,
          "internalType": "address",
          "name": "operator",
          "type": "address"
        },
        {
          "indexed": false,
          "internalType": "bool",
          "name": "approved",
          "type": "bool"
        }
      ],
      "name": "ApprovalForAll",
      "type": "event"
    },
    {
      "anonymous": false,
      "inputs": [
        {
          "indexed": true,
          "internalType": "address",
          "name": "previousOwner",
          "type": "address"
        },
        {
          "indexed": true,
          "internalType": "address",
          "name": "newOwner",
          "type": "address"
        }
      ],
      "name": "OwnershipTransferred",
      "type": "event"
    },
    {
      "anonymous": false,
      "inputs": [
        {
          "indexed": true,
          "internalType": "address",
          "name": "from",
          "type": "address"
        },
        {
          "indexed": true,
          "internalType": "address",
          "name": "to",
          "type": "address"
        },
        {
          "indexed": true,
          "internalType": "uint256",
          "name": "tokenId",
          "type": "uint256"
        }
      ],
      "name": "Transfer",
      "type": "event"
    },
    {
      "inputs": [
        {
          "internalType": "address",
          "name": "to",
          "type": "address"
        },
        {
          "internalType": "uint256",
          "name": "tokenId",
          "type": "uint256"
        }
      ],
      "name": "approve",
      "outputs": [],
      "stateMutability": "nonpayable",
      "type": "function"
    },
    {
      "inputs": [
        {
          "internalType": "address",
          "name": "owner",
          "type": "address"
        }
      ],
      "name": "balanceOf",
      "outputs": [
        {
          "internalType": "uint256",
          "name": "",
          "type": "uint256"
        }
      ],
      "stateMutability": "view",
      "type": "function"
    },
    {
      "inputs": [],
      "name": "creation",
      "outputs": [
        {
          "internalType": "uint256",
          "name": "initialSupply",
          "type": "uint256"
        },
        {
          "internalType": "address",
          "name": "system",
          "type": "address"
        },
        {
          "internalType": "address",
          "name": "treasury",
          "type": "address"
        },
        {
          "internalType": "address",
          "name": "vault",
          "type": "address"
        },
        {
          "internalType": "address",
          "name": "vaultImplementation",
          "type": "address"
        }
      ],
      "stateMutability": "view",
      "type": "function"
    },
    {
      "inputs": [
        {
          "internalType": "uint256",
          "name": "tokenId",
          "type": "uint256"
        }
      ],
      "name": "getApproved",
      "outputs": [
        {
          "internalType": "address",
          "name": "",
          "type": "address"
        }
      ],
      "stateMutability": "view",
      "type": "function"
    },
    {
      "inputs": [
        {
          "internalType": "address",
          "name": "owner",
          "type": "address"
        },
        {
          "internalType": "address",
          "name": "operator",
          "type": "address"
        }
      ],
      "name": "isApprovedForAll",
      "outputs": [
        {
          "internalType": "bool",
          "name": "",
          "type": "bool"
        }
      ],
      "stateMutability": "view",
      "type": "function"
    },
    {
      "inputs": [
        {
          "internalType": "string",
          "name": "_nutCID",
          "type": "string"
        }
      ],
      "name": "mintNut",
      "outputs": [],
      "stateMutability": "payable",
      "type": "function"
    },
    {
      "inputs": [],
      "name": "name",
      "outputs": [
        {
          "internalType": "string",
          "name": "",
          "type": "string"
        }
      ],
      "stateMutability": "view",
      "type": "function"
    },
    {
      "inputs": [],
      "name": "owner",
      "outputs": [
        {
          "internalType": "address",
          "name": "",
          "type": "address"
        }
      ],
      "stateMutability": "view",
      "type": "function"
    },
    {
      "inputs": [
        {
          "internalType": "uint256",
          "name": "tokenId",
          "type": "uint256"
        }
      ],
      "name": "ownerOf",
      "outputs": [
        {
          "internalType": "address",
          "name": "",
          "type": "address"
        }
      ],
      "stateMutability": "view",
      "type": "function"
    },
    {
      "inputs": [],
      "name": "renounceOwnership",
      "outputs": [],
      "stateMutability": "nonpayable",
      "type": "function"
    },
    {
      "inputs": [
        {
          "internalType": "address",
          "name": "from",
          "type": "address"
        },
        {
          "internalType": "address",
          "name": "to",
          "type": "address"
        },
        {
          "internalType": "uint256",
          "name": "tokenId",
          "type": "uint256"
        }
      ],
      "name": "safeTransferFrom",
      "outputs": [],
      "stateMutability": "nonpayable",
      "type": "function"
    },
    {
      "inputs": [
        {
          "internalType": "address",
          "name": "from",
          "type": "address"
        },
        {
          "internalType": "address",
          "name": "to",
          "type": "address"
        },
        {
          "internalType": "uint256",
          "name": "tokenId",
          "type": "uint256"
        },
        {
          "internalType": "bytes",
          "name": "_data",
          "type": "bytes"
        }
      ],
      "name": "safeTransferFrom",
      "outputs": [],
      "stateMutability": "nonpayable",
      "type": "function"
    },
    {
      "inputs": [
        {
          "internalType": "address",
          "name": "operator",
          "type": "address"
        },
        {
          "internalType": "bool",
          "name": "approved",
          "type": "bool"
        }
      ],
      "name": "setApprovalForAll",
      "outputs": [],
      "stateMutability": "nonpayable",
      "type": "function"
    },
    {
      "inputs": [
        {
          "internalType": "bytes4",
          "name": "interfaceId",
          "type": "bytes4"
        }
      ],
      "name": "supportsInterface",
      "outputs": [
        {
          "internalType": "bool",
          "name": "",
          "type": "bool"
        }
      ],
      "stateMutability": "view",
      "type": "function"
    },
    {
      "inputs": [],
      "name": "symbol",
      "outputs": [
        {
          "internalType": "string",
          "name": "",
          "type": "string"
        }
      ],
      "stateMutability": "view",
      "type": "function"
    },
    {
      "inputs": [
        {
          "internalType": "uint256",
          "name": "index",
          "type": "uint256"
        }
      ],
      "name": "tokenByIndex",
      "outputs": [
        {
          "internalType": "uint256",
          "name": "",
          "type": "uint256"
        }
      ],
      "stateMutability": "view",
      "type": "function"
    },
    {
      "inputs": [
        {
          "internalType": "address",
          "name": "owner",
          "type": "address"
        },
        {
          "internalType": "uint256",
          "name": "index",
          "type": "uint256"
        }
      ],
      "name": "tokenOfOwnerByIndex",
      "outputs": [
        {
          "internalType": "uint256",
          "name": "",
          "type": "uint256"
        }
      ],
      "stateMutability": "view",
      "type": "function"
    },
    {
      "inputs": [
        {
          "internalType": "uint256",
          "name": "tokenId",
          "type": "uint256"
        }
      ],
      "name": "tokenURI",
      "outputs": [
        {
          "internalType": "string",
          "name": "",
          "type": "string"
        }
      ],
      "stateMutability": "view",
      "type": "function"
    },
    {
      "inputs": [],
      "name": "totalSupply",
      "outputs": [
        {
          "internalType": "uint256",
          "name": "",
          "type": "uint256"
        }
      ],
      "stateMutability": "view",
      "type": "function"
    },
    {
      "inputs": [
        {
          "internalType": "address",
          "name": "from",
          "type": "address"
        },
        {
          "internalType": "address",
          "name": "to",
          "type": "address"
        },
        {
          "internalType": "uint256",
          "name": "tokenId",
          "type": "uint256"
        }
      ],
      "name": "transferFrom",
      "outputs": [],
      "stateMutability": "nonpayable",
      "type": "function"
    },
    {
      "inputs": [
        {
          "internalType": "address",
          "name": "newOwner",
          "type": "address"
        }
      ],
      "name": "transferOwnership",
      "outputs": [],
      "stateMutability": "nonpayable",
      "type": "function"
    },
    {
      "inputs": [],
      "name": "vaultLocation",
      "outputs": [
        {
          "internalType": "address",
          "name": "",
          "type": "address"
        }
      ],
      "stateMutability": "view",
      "type": "function"
    },
    {
      "inputs": [
        {
          "internalType": "uint256",
          "name": "_nutId",
          "type": "uint256"
        },
        {
          "internalType": "string",
          "name": "_nutCID",
          "type": "string"
        }
      ],
      "name": "setTokenURI",
      "outputs": [],
      "stateMutability": "nonpayable",
      "type": "function"
    },
    {
      "inputs": [
        {
          "internalType": "uint256",
          "name": "_nutId",
          "type": "uint256"
        }
      ],
      "name": "getOwnerOf",
      "outputs": [
        {
          "internalType": "address",
          "name": "",
          "type": "address"
        }
      ],
      "stateMutability": "view",
      "type": "function"
    },
    {
      "inputs": [],
      "name": "createVault",
      "outputs": [
        {
          "internalType": "address",
          "name": "",
          "type": "address"
        }
      ],
      "stateMutability": "nonpayable",
      "type": "function"
    },
    {
      "inputs": [],
      "name": "withdraw",
      "outputs": [],
      "stateMutability": "nonpayable",
      "type": "function"
    },
    {
      "inputs": [
        {
          "internalType": "string",
          "name": "_cidPath",
          "type": "string"
        },
        {
          "internalType": "bytes",
          "name": "_signature",
          "type": "bytes"
        }
      ],
      "name": "createNut",
      "outputs": [
        {
          "internalType": "bool",
          "name": "",
          "type": "bool"
        }
      ],
      "stateMutability": "nonpayable",
      "type": "function"
    },
    {
      "inputs": [
        {
          "internalType": "uint256",
          "name": "_nutId",
          "type": "uint256"
        },
        {
          "internalType": "bytes32",
          "name": "_secretHash",
          "type": "bytes32"
        },
        {
          "internalType": "string",
          "name": "_cidPath",
          "type": "string"
        },
        {
          "internalType": "bytes",
          "name": "_signature",
          "type": "bytes"
        }
      ],
      "name": "createSeed",
      "outputs": [
        {
          "internalType": "bool",
          "name": "",
          "type": "bool"
        }
      ],
      "stateMutability": "payable",
      "type": "function"
    },
    {
      "inputs": [
        {
          "internalType": "uint256",
          "name": "_nutId",
          "type": "uint256"
        },
        {
          "internalType": "bytes32",
          "name": "_secretHash",
          "type": "bytes32"
        },
        {
          "internalType": "uint256",
          "name": "_matterContributed",
          "type": "uint256"
        },
        {
          "internalType": "uint256",
          "name": "_matterDrawRate",
          "type": "uint256"
        },
        {
          "internalType": "string",
          "name": "_cidPath",
          "type": "string"
        },
        {
          "internalType": "bytes",
          "name": "_signature",
          "type": "bytes"
        }
      ],
      "name": "createButter",
      "outputs": [],
      "stateMutability": "nonpayable",
      "type": "function"
    }
  ],
  "bytecode": "0x60806040523480156200001157600080fd5b50604051620056f2380380620056f28339818101604052810190620000379190620004dd565b85858585858585858160009081620000509190620007f8565b508060019081620000629190620007f8565b5050506200008562000079620001dc60201b60201c565b620001e460201b60201c565b83600c6000018190555082600c60010160006101000a81548173ffffffffffffffffffffffffffffffffffffffff021916908373ffffffffffffffffffffffffffffffffffffffff16021790555081600c60020160006101000a81548173ffffffffffffffffffffffffffffffffffffffff021916908373ffffffffffffffffffffffffffffffffffffffff16021790555080600c60040160006101000a81548173ffffffffffffffffffffffffffffffffffffffff021916908373ffffffffffffffffffffffffffffffffffffffff1602179055505050505050508173ffffffffffffffffffffffffffffffffffffffff1663a56c5a78306040518263ffffffff1660e01b81526004016200019c9190620008f0565b600060405180830381600087803b158015620001b757600080fd5b505af1158015620001cc573d6000803e3d6000fd5b505050505050505050506200090d565b600033905090565b6000600b60009054906101000a900473ffffffffffffffffffffffffffffffffffffffff16905081600b60006101000a81548173ffffffffffffffffffffffffffffffffffffffff021916908373ffffffffffffffffffffffffffffffffffffffff1602179055508173ffffffffffffffffffffffffffffffffffffffff168173ffffffffffffffffffffffffffffffffffffffff167f8be0079c531659141344cd1fd0a4f28419497f9722a3daafe3b4186f6b6457e060405160405180910390a35050565b6000604051905090565b600080fd5b600080fd5b600080fd5b600080fd5b6000601f19601f8301169050919050565b7f4e487b7100000000000000000000000000000000000000000000000000000000600052604160045260246000fd5b6200031382620002c8565b810181811067ffffffffffffffff82111715620003355762000334620002d9565b5b80604052505050565b60006200034a620002aa565b905062000358828262000308565b919050565b600067ffffffffffffffff8211156200037b576200037a620002d9565b5b6200038682620002c8565b9050602081019050919050565b60005b83811015620003b357808201518184015260208101905062000396565b60008484015250505050565b6000620003d6620003d0846200035d565b6200033e565b905082815260208101848484011115620003f557620003f4620002c3565b5b6200040284828562000393565b509392505050565b600082601f830112620004225762000421620002be565b5b815162000434848260208601620003bf565b91505092915050565b6000819050919050565b62000452816200043d565b81146200045e57600080fd5b50565b600081519050620004728162000447565b92915050565b600073ffffffffffffffffffffffffffffffffffffffff82169050919050565b6000620004a58262000478565b9050919050565b620004b78162000498565b8114620004c357600080fd5b50565b600081519050620004d781620004ac565b92915050565b60008060008060008060c08789031215620004fd57620004fc620002b4565b5b600087015167ffffffffffffffff8111156200051e576200051d620002b9565b5b6200052c89828a016200040a565b965050602087015167ffffffffffffffff81111562000550576200054f620002b9565b5b6200055e89828a016200040a565b95505060406200057189828a0162000461565b94505060606200058489828a01620004c6565b93505060806200059789828a01620004c6565b92505060a0620005aa89828a01620004c6565b9150509295509295509295565b600081519050919050565b7f4e487b7100000000000000000000000000000000000000000000000000000000600052602260045260246000fd5b600060028204905060018216806200060a57607f821691505b60208210810362000620576200061f620005c2565b5b50919050565b60008190508160005260206000209050919050565b60006020601f8301049050919050565b600082821b905092915050565b6000600883026200068a7fffffffffffffffffffffffffffffffffffffffffffffffffffffffffffffffff826200064b565b6200069686836200064b565b95508019841693508086168417925050509392505050565b6000819050919050565b6000620006d9620006d3620006cd846200043d565b620006ae565b6200043d565b9050919050565b6000819050919050565b620006f583620006b8565b6200070d6200070482620006e0565b84845462000658565b825550505050565b600090565b6200072462000715565b62000731818484620006ea565b505050565b5b8181101562000759576200074d6000826200071a565b60018101905062000737565b5050565b601f821115620007a857620007728162000626565b6200077d846200063b565b810160208510156200078d578190505b620007a56200079c856200063b565b83018262000736565b50505b505050565b600082821c905092915050565b6000620007cd60001984600802620007ad565b1980831691505092915050565b6000620007e88383620007ba565b9150826002028217905092915050565b6200080382620005b7565b67ffffffffffffffff8111156200081f576200081e620002d9565b5b6200082b8254620005f1565b620008388282856200075d565b600060209050601f8311600181146200087057600084156200085b578287015190505b620008678582620007da565b865550620008d7565b601f198416620008808662000626565b60005b82811015620008aa5784890151825560018201915060208501945060208101905062000883565b86831015620008ca5784890151620008c6601f891682620007ba565b8355505b6001600288020188555050505b505050505050565b620008ea8162000498565b82525050565b6000602082019050620009076000830184620008df565b92915050565b614dd5806200091d6000396000f3fe6080604052600436106101c25760003560e01c80635f9ff4a1116100f757806395f04d0511610095578063c87b56dd11610064578063c87b56dd14610649578063e985e9c514610686578063f23c9583146106c3578063f2fde38b146106f3576101c2565b806395f04d051461059e578063a0e12efe146105ba578063a22cb465146105f7578063b88d4fde14610620576101c2565b8063715018a6116100d1578063715018a6146104f4578063836387101461050b5780638da5cb5b1461054857806395d89b4114610573576101c2565b80635f9ff4a1146104515780636352211e1461047a57806370a08231146104b7576101c2565b806318160ddd116101645780633ccfd60b1161013e5780633ccfd60b146103a957806342842e0e146103c05780634f6ccce7146103e95780635d12928b14610426576101c2565b806318160ddd1461031857806323b872dd146103435780632f745c591461036c576101c2565b8063095ea7b3116101a0578063095ea7b31461026c5780630ef8dd951461029557806313845d2f146102c0578063162094c4146102ef576101c2565b806301ffc9a7146101c757806306fdde0314610204578063081812fc1461022f575b600080fd5b3480156101d357600080fd5b506101ee60048036038101906101e99190612fa1565b61071c565b6040516101fb9190612fe9565b60405180910390f35b34801561021057600080fd5b5061021961072e565b6040516102269190613094565b60405180910390f35b34801561023b57600080fd5b50610256600480360381019061025191906130ec565b6107c0565b604051610263919061315a565b60405180910390f35b34801561027857600080fd5b50610293600480360381019061028e91906131a1565b610845565b005b3480156102a157600080fd5b506102aa61095c565b6040516102b7919061315a565b60405180910390f35b3480156102cc57600080fd5b506102d5610989565b6040516102e69594939291906131f0565b60405180910390f35b3480156102fb57600080fd5b5061031660048036038101906103119190613378565b610a2d565b005b34801561032457600080fd5b5061032d610a3b565b60405161033a91906133d4565b60405180910390f35b34801561034f57600080fd5b5061036a600480360381019061036591906133ef565b610a48565b005b34801561037857600080fd5b50610393600480360381019061038e91906131a1565b610aa8565b6040516103a091906133d4565b60405180910390f35b3480156103b557600080fd5b506103be610b4d565b005b3480156103cc57600080fd5b506103e760048036038101906103e291906133ef565b610c5b565b005b3480156103f557600080fd5b50610410600480360381019061040b91906130ec565b610c7b565b60405161041d91906133d4565b60405180910390f35b34801561043257600080fd5b5061043b610cec565b604051610448919061315a565b60405180910390f35b34801561045d57600080fd5b5061047860048036038101906104739190613519565b610cfc565b005b34801561048657600080fd5b506104a1600480360381019061049c91906130ec565b610eb6565b6040516104ae919061315a565b60405180910390f35b3480156104c357600080fd5b506104de60048036038101906104d991906135de565b610f67565b6040516104eb91906133d4565b60405180910390f35b34801561050057600080fd5b5061050961101e565b005b34801561051757600080fd5b50610532600480360381019061052d91906130ec565b6110a6565b60405161053f919061315a565b60405180910390f35b34801561055457600080fd5b5061055d6110b8565b60405161056a919061315a565b60405180910390f35b34801561057f57600080fd5b506105886110e2565b6040516105959190613094565b60405180910390f35b6105b860048036038101906105b3919061360b565b611174565b005b3480156105c657600080fd5b506105e160048036038101906105dc9190613654565b61135f565b6040516105ee9190612fe9565b60405180910390f35b34801561060357600080fd5b5061061e600480360381019061061991906136f8565b611415565b005b34801561062c57600080fd5b5061064760048036038101906106429190613738565b61142b565b005b34801561065557600080fd5b50610670600480360381019061066b91906130ec565b61148d565b60405161067d9190613094565b60405180910390f35b34801561069257600080fd5b506106ad60048036038101906106a891906137bb565b61149f565b6040516106ba9190612fe9565b60405180910390f35b6106dd60048036038101906106d891906137fb565b611533565b6040516106ea9190612fe9565b60405180910390f35b3480156106ff57600080fd5b5061071a600480360381019061071591906135de565b61173e565b005b600061072782611835565b9050919050565b60606000805461073d906138c9565b80601f0160208091040260200160405190810160405280929190818152602001828054610769906138c9565b80156107b65780601f1061078b576101008083540402835291602001916107b6565b820191906000526020600020905b81548152906001019060200180831161079957829003601f168201915b5050505050905090565b60006107cb826118af565b61080a576040517f08c379a00000000000000000000000000000000000000000000000000000000081526004016108019061396c565b60405180910390fd5b6004600083815260200190815260200160002060009054906101000a900473ffffffffffffffffffffffffffffffffffffffff169050919050565b600061085082610eb6565b90508073ffffffffffffffffffffffffffffffffffffffff168373ffffffffffffffffffffffffffffffffffffffff16036108c0576040517f08c379a00000000000000000000000000000000000000000000000000000000081526004016108b7906139fe565b60405180910390fd5b8073ffffffffffffffffffffffffffffffffffffffff166108df61191b565b73ffffffffffffffffffffffffffffffffffffffff16148061090e575061090d8161090861191b565b61149f565b5b61094d576040517f08c379a000000000000000000000000000000000000000000000000000000000815260040161094490613a90565b60405180910390fd5b6109578383611923565b505050565b6000600c60030160009054906101000a900473ffffffffffffffffffffffffffffffffffffffff16905090565b600c8060000154908060010160009054906101000a900473ffffffffffffffffffffffffffffffffffffffff16908060020160009054906101000a900473ffffffffffffffffffffffffffffffffffffffff16908060030160009054906101000a900473ffffffffffffffffffffffffffffffffffffffff16908060040160009054906101000a900473ffffffffffffffffffffffffffffffffffffffff16905085565b610a3782826119dc565b5050565b6000600880549050905090565b610a59610a5361191b565b82611a49565b610a98576040517f08c379a0000000000000000000000000000000000000000000000000000000008152600401610a8f90613b22565b60405180910390fd5b610aa3838383611b27565b505050565b6000610ab383610f67565b8210610af4576040517f08c379a0000000000000000000000000000000000000000000000000000000008152600401610aeb90613bb4565b60405180910390fd5b600660008473ffffffffffffffffffffffffffffffffffffffff1673ffffffffffffffffffffffffffffffffffffffff168152602001908152602001600020600083815260200190815260200160002054905092915050565b610b5561191b565b73ffffffffffffffffffffffffffffffffffffffff16610b736110b8565b73ffffffffffffffffffffffffffffffffffffffff1614610bc9576040517f08c379a0000000000000000000000000000000000000000000000000000000008152600401610bc090613c20565b60405180910390fd5b600047905060004711610c11576040517f08c379a0000000000000000000000000000000000000000000000000000000008152600401610c0890613c8c565b60405180910390fd5b3373ffffffffffffffffffffffffffffffffffffffff166108fc829081150290604051600060405180830381858888f19350505050158015610c57573d6000803e3d6000fd5b5050565b610c768383836040518060200160405280600081525061142b565b505050565b6000610c85610a3b565b8210610cc6576040517f08c379a0000000000000000000000000000000000000000000000000000000008152600401610cbd90613d1e565b60405180910390fd5b60088281548110610cda57610cd9613d3e565b5b90600052602060002001549050919050565b6000610cf730611d8d565b905090565b610d0586610eb6565b73ffffffffffffffffffffffffffffffffffffffff163373ffffffffffffffffffffffffffffffffffffffff1614610d72576040517f08c379a0000000000000000000000000000000000000000000000000000000008152600401610d6990613db9565b60405180910390fd5b600c60020160009054906101000a900473ffffffffffffffffffffffffffffffffffffffff1673ffffffffffffffffffffffffffffffffffffffff166303f5de9d878686896040518563ffffffff1660e01b8152600401610dd69493929190613de8565b6020604051808303816000875af1158015610df5573d6000803e3d6000fd5b505050506040513d601f19601f82011682018060405250810190610e199190613e42565b50600c60030160009054906101000a900473ffffffffffffffffffffffffffffffffffffffff1673ffffffffffffffffffffffffffffffffffffffff1663bd6af0098784846040518463ffffffff1660e01b8152600401610e7c93929190613ec4565b600060405180830381600087803b158015610e9657600080fd5b505af1158015610eaa573d6000803e3d6000fd5b50505050505050505050565b6000806002600084815260200190815260200160002060009054906101000a900473ffffffffffffffffffffffffffffffffffffffff169050600073ffffffffffffffffffffffffffffffffffffffff168173ffffffffffffffffffffffffffffffffffffffff1603610f5e576040517f08c379a0000000000000000000000000000000000000000000000000000000008152600401610f5590613f7b565b60405180910390fd5b80915050919050565b60008073ffffffffffffffffffffffffffffffffffffffff168273ffffffffffffffffffffffffffffffffffffffff1603610fd7576040517f08c379a0000000000000000000000000000000000000000000000000000000008152600401610fce9061400d565b60405180910390fd5b600360008373ffffffffffffffffffffffffffffffffffffffff1673ffffffffffffffffffffffffffffffffffffffff168152602001908152602001600020549050919050565b61102661191b565b73ffffffffffffffffffffffffffffffffffffffff166110446110b8565b73ffffffffffffffffffffffffffffffffffffffff161461109a576040517f08c379a000000000000000000000000000000000000000000000000000000000815260040161109190613c20565b60405180910390fd5b6110a46000611ec4565b565b60006110b182610eb6565b9050919050565b6000600b60009054906101000a900473ffffffffffffffffffffffffffffffffffffffff16905090565b6060600180546110f1906138c9565b80601f016020809104026020016040519081016040528092919081815260200182805461111d906138c9565b801561116a5780601f1061113f5761010080835404028352916020019161116a565b820191906000526020600020905b81548152906001019060200180831161114d57829003601f168201915b5050505050905090565b600061117e610a3b565b9050600c6000015481106111c7576040517f08c379a00000000000000000000000000000000000000000000000000000000081526004016111be9061409f565b60405180910390fd5b6000600c60020160009054906101000a900473ffffffffffffffffffffffffffffffffffffffff1673ffffffffffffffffffffffffffffffffffffffff166398d5fdca6040518163ffffffff1660e01b8152600401602060405180830381865afa158015611239573d6000803e3d6000fd5b505050506040513d601f19601f8201168201806040525081019061125d91906140d4565b9050803410156112a2576040517f08c379a00000000000000000000000000000000000000000000000000000000081526004016112999061414d565b60405180910390fd5b6112ac3383611f8a565b6112b682846119dc565b600c60020160009054906101000a900473ffffffffffffffffffffffffffffffffffffffff1673ffffffffffffffffffffffffffffffffffffffff16631c85949c33846040518363ffffffff1660e01b815260040161131692919061416d565b6020604051808303816000875af1158015611335573d6000803e3d6000fd5b505050506040513d601f19601f820116820180604052508101906113599190613e42565b50505050565b60008061136a610a3b565b90506113763382611f8a565b600c60030160009054906101000a900473ffffffffffffffffffffffffffffffffffffffff1673ffffffffffffffffffffffffffffffffffffffff1663bd6af0098286866040518463ffffffff1660e01b81526004016113d893929190613ec4565b600060405180830381600087803b1580156113f257600080fd5b505af1158015611406573d6000803e3d6000fd5b50505050600191505092915050565b61142761142061191b565b8383611fa8565b5050565b61143c61143661191b565b83611a49565b61147b576040517f08c379a000000000000000000000000000000000000000000000000000000000815260040161147290613b22565b60405180910390fd5b61148784848484612114565b50505050565b606061149882612170565b9050919050565b6000600560008473ffffffffffffffffffffffffffffffffffffffff1673ffffffffffffffffffffffffffffffffffffffff16815260200190815260200160002060008373ffffffffffffffffffffffffffffffffffffffff1673ffffffffffffffffffffffffffffffffffffffff16815260200190815260200160002060009054906101000a900460ff16905092915050565b600061153e85610eb6565b73ffffffffffffffffffffffffffffffffffffffff163373ffffffffffffffffffffffffffffffffffffffff16146115ab576040517f08c379a00000000000000000000000000000000000000000000000000000000081526004016115a290613db9565b60405180910390fd5b600c600001546115b9610a3b565b10156115fa576040517f08c379a00000000000000000000000000000000000000000000000000000000081526004016115f1906141e2565b60405180910390fd5b600c60020160009054906101000a900473ffffffffffffffffffffffffffffffffffffffff1673ffffffffffffffffffffffffffffffffffffffff1663fe774f9d86866040518363ffffffff1660e01b815260040161165a929190614202565b6020604051808303816000875af1158015611679573d6000803e3d6000fd5b505050506040513d601f19601f8201168201806040525081019061169d9190613e42565b50600c60030160009054906101000a900473ffffffffffffffffffffffffffffffffffffffff1673ffffffffffffffffffffffffffffffffffffffff1663bd6af0098685856040518463ffffffff1660e01b815260040161170093929190613ec4565b600060405180830381600087803b15801561171a57600080fd5b505af115801561172e573d6000803e3d6000fd5b5050505060019050949350505050565b61174661191b565b73ffffffffffffffffffffffffffffffffffffffff166117646110b8565b73ffffffffffffffffffffffffffffffffffffffff16146117ba576040517f08c379a00000000000000000000000000000000000000000000000000000000081526004016117b190613c20565b60405180910390fd5b600073ffffffffffffffffffffffffffffffffffffffff168173ffffffffffffffffffffffffffffffffffffffff1603611829576040517f08c379a00000000000000000000000000000000000000000000000000000000081526004016118209061429d565b60405180910390fd5b61183281611ec4565b50565b60007f780e9d63000000000000000000000000000000000000000000000000000000007bffffffffffffffffffffffffffffffffffffffffffffffffffffffff1916827bffffffffffffffffffffffffffffffffffffffffffffffffffffffff191614806118a857506118a7826122c1565b5b9050919050565b60008073ffffffffffffffffffffffffffffffffffffffff166002600084815260200190815260200160002060009054906101000a900473ffffffffffffffffffffffffffffffffffffffff1673ffffffffffffffffffffffffffffffffffffffff1614159050919050565b600033905090565b816004600083815260200190815260200160002060006101000a81548173ffffffffffffffffffffffffffffffffffffffff021916908373ffffffffffffffffffffffffffffffffffffffff160217905550808273ffffffffffffffffffffffffffffffffffffffff1661199683610eb6565b73ffffffffffffffffffffffffffffffffffffffff167f8c5be1e5ebec7d5bd14f71427d1e84f3dd0314c0f7b2291e5b200ac8c7c3b92560405160405180910390a45050565b6119e5826118af565b611a24576040517f08c379a0000000000000000000000000000000000000000000000000000000008152600401611a1b9061432f565b60405180910390fd5b80600a60008481526020019081526020016000209081611a4491906144fb565b505050565b6000611a54826118af565b611a93576040517f08c379a0000000000000000000000000000000000000000000000000000000008152600401611a8a9061463f565b60405180910390fd5b6000611a9e83610eb6565b90508073ffffffffffffffffffffffffffffffffffffffff168473ffffffffffffffffffffffffffffffffffffffff161480611ae05750611adf818561149f565b5b80611b1e57508373ffffffffffffffffffffffffffffffffffffffff16611b06846107c0565b73ffffffffffffffffffffffffffffffffffffffff16145b91505092915050565b8273ffffffffffffffffffffffffffffffffffffffff16611b4782610eb6565b73ffffffffffffffffffffffffffffffffffffffff1614611b9d576040517f08c379a0000000000000000000000000000000000000000000000000000000008152600401611b94906146d1565b60405180910390fd5b600073ffffffffffffffffffffffffffffffffffffffff168273ffffffffffffffffffffffffffffffffffffffff1603611c0c576040517f08c379a0000000000000000000000000000000000000000000000000000000008152600401611c0390614763565b60405180910390fd5b611c178383836123a3565b611c22600082611923565b6001600360008573ffffffffffffffffffffffffffffffffffffffff1673ffffffffffffffffffffffffffffffffffffffff1681526020019081526020016000206000828254611c7291906147b2565b925050819055506001600360008473ffffffffffffffffffffffffffffffffffffffff1673ffffffffffffffffffffffffffffffffffffffff1681526020019081526020016000206000828254611cc991906147e6565b92505081905550816002600083815260200190815260200160002060006101000a81548173ffffffffffffffffffffffffffffffffffffffff021916908373ffffffffffffffffffffffffffffffffffffffff160217905550808273ffffffffffffffffffffffffffffffffffffffff168473ffffffffffffffffffffffffffffffffffffffff167fddf252ad1be2c89b69c2b068fc378daa952ba7f163c4a11628f55a4df523b3ef60405160405180910390a4611d888383836123b3565b505050565b600080611dbe600c60040160009054906101000a900473ffffffffffffffffffffffffffffffffffffffff166123b8565b90508073ffffffffffffffffffffffffffffffffffffffff1663485cc955600c60010160009054906101000a900473ffffffffffffffffffffffffffffffffffffffff16856040518363ffffffff1660e01b8152600401611e2092919061481a565b600060405180830381600087803b158015611e3a57600080fd5b505af1158015611e4e573d6000803e3d6000fd5b5050505080600c60030160006101000a81548173ffffffffffffffffffffffffffffffffffffffff021916908373ffffffffffffffffffffffffffffffffffffffff160217905550600c60030160009054906101000a900473ffffffffffffffffffffffffffffffffffffffff16915050919050565b6000600b60009054906101000a900473ffffffffffffffffffffffffffffffffffffffff16905081600b60006101000a81548173ffffffffffffffffffffffffffffffffffffffff021916908373ffffffffffffffffffffffffffffffffffffffff1602179055508173ffffffffffffffffffffffffffffffffffffffff168173ffffffffffffffffffffffffffffffffffffffff167f8be0079c531659141344cd1fd0a4f28419497f9722a3daafe3b4186f6b6457e060405160405180910390a35050565b611fa482826040518060200160405280600081525061248c565b5050565b8173ffffffffffffffffffffffffffffffffffffffff168373ffffffffffffffffffffffffffffffffffffffff1603612016576040517f08c379a000000000000000000000000000000000000000000000000000000000815260040161200d9061488f565b60405180910390fd5b80600560008573ffffffffffffffffffffffffffffffffffffffff1673ffffffffffffffffffffffffffffffffffffffff16815260200190815260200160002060008473ffffffffffffffffffffffffffffffffffffffff1673ffffffffffffffffffffffffffffffffffffffff16815260200190815260200160002060006101000a81548160ff0219169083151502179055508173ffffffffffffffffffffffffffffffffffffffff168373ffffffffffffffffffffffffffffffffffffffff167f17307eab39ab6107e8899845ad3d59bd9653f200f220920489ca2b5937696c31836040516121079190612fe9565b60405180910390a3505050565b61211f848484611b27565b61212b848484846124e7565b61216a576040517f08c379a000000000000000000000000000000000000000000000000000000000815260040161216190614921565b60405180910390fd5b50505050565b606061217b826118af565b6121ba576040517f08c379a00000000000000000000000000000000000000000000000000000000081526004016121b1906149b3565b60405180910390fd5b6000600a600084815260200190815260200160002080546121da906138c9565b80601f0160208091040260200160405190810160405280929190818152602001828054612206906138c9565b80156122535780601f1061222857610100808354040283529160200191612253565b820191906000526020600020905b81548152906001019060200180831161223657829003601f168201915b50505050509050600061226461266e565b905060008151036122795781925050506122bc565b6000825111156122ae578082604051602001612296929190614a0f565b604051602081830303815290604052925050506122bc565b6122b7846126ab565b925050505b919050565b60007f80ac58cd000000000000000000000000000000000000000000000000000000007bffffffffffffffffffffffffffffffffffffffffffffffffffffffff1916827bffffffffffffffffffffffffffffffffffffffffffffffffffffffff1916148061238c57507f5b5e139f000000000000000000000000000000000000000000000000000000007bffffffffffffffffffffffffffffffffffffffffffffffffffffffff1916827bffffffffffffffffffffffffffffffffffffffffffffffffffffffff1916145b8061239c575061239b82612752565b5b9050919050565b6123ae8383836127bc565b505050565b505050565b60006040517f3d602d80600a3d3981f3363d3d373d3d3d363d7300000000000000000000000081528260601b60148201527f5af43d82803e903d91602b57fd5bf3000000000000000000000000000000000060288201526037816000f0915050600073ffffffffffffffffffffffffffffffffffffffff168173ffffffffffffffffffffffffffffffffffffffff1603612487576040517f08c379a000000000000000000000000000000000000000000000000000000000815260040161247e90614a7f565b60405180910390fd5b919050565b61249683836128ce565b6124a360008484846124e7565b6124e2576040517f08c379a00000000000000000000000000000000000000000000000000000000081526004016124d990614921565b60405180910390fd5b505050565b60006125088473ffffffffffffffffffffffffffffffffffffffff16612aa7565b15612661578373ffffffffffffffffffffffffffffffffffffffff1663150b7a0261253161191b565b8786866040518563ffffffff1660e01b81526004016125539493929190614a9f565b6020604051808303816000875af192505050801561258f57506040513d601f19601f8201168201806040525081019061258c9190614b00565b60015b612611573d80600081146125bf576040519150601f19603f3d011682016040523d82523d6000602084013e6125c4565b606091505b506000815103612609576040517f08c379a000000000000000000000000000000000000000000000000000000000815260040161260090614921565b60405180910390fd5b805181602001fd5b63150b7a0260e01b7bffffffffffffffffffffffffffffffffffffffffffffffffffffffff1916817bffffffffffffffffffffffffffffffffffffffffffffffffffffffff191614915050612666565b600190505b949350505050565b60606040518060400160405280601581526020017f68747470733a2f2f697066732e696f2f697066732f0000000000000000000000815250905090565b60606126b6826118af565b6126f5576040517f08c379a00000000000000000000000000000000000000000000000000000000081526004016126ec90614b9f565b60405180910390fd5b60006126ff61266e565b9050600081511161271f576040518060200160405280600081525061274a565b8061272984612aca565b60405160200161273a929190614a0f565b6040516020818303038152906040525b915050919050565b60007f01ffc9a7000000000000000000000000000000000000000000000000000000007bffffffffffffffffffffffffffffffffffffffffffffffffffffffff1916827bffffffffffffffffffffffffffffffffffffffffffffffffffffffff1916149050919050565b6127c7838383612c2a565b600073ffffffffffffffffffffffffffffffffffffffff168373ffffffffffffffffffffffffffffffffffffffff16036128095761280481612c2f565b612848565b8173ffffffffffffffffffffffffffffffffffffffff168373ffffffffffffffffffffffffffffffffffffffff1614612847576128468382612c78565b5b5b600073ffffffffffffffffffffffffffffffffffffffff168273ffffffffffffffffffffffffffffffffffffffff160361288a5761288581612de5565b6128c9565b8273ffffffffffffffffffffffffffffffffffffffff168273ffffffffffffffffffffffffffffffffffffffff16146128c8576128c78282612eb6565b5b5b505050565b600073ffffffffffffffffffffffffffffffffffffffff168273ffffffffffffffffffffffffffffffffffffffff160361293d576040517f08c379a000000000000000000000000000000000000000000000000000000000815260040161293490614c0b565b60405180910390fd5b612946816118af565b15612986576040517f08c379a000000000000000000000000000000000000000000000000000000000815260040161297d90614c77565b60405180910390fd5b612992600083836123a3565b6001600360008473ffffffffffffffffffffffffffffffffffffffff1673ffffffffffffffffffffffffffffffffffffffff16815260200190815260200160002060008282546129e291906147e6565b92505081905550816002600083815260200190815260200160002060006101000a81548173ffffffffffffffffffffffffffffffffffffffff021916908373ffffffffffffffffffffffffffffffffffffffff160217905550808273ffffffffffffffffffffffffffffffffffffffff16600073ffffffffffffffffffffffffffffffffffffffff167fddf252ad1be2c89b69c2b068fc378daa952ba7f163c4a11628f55a4df523b3ef60405160405180910390a4612aa3600083836123b3565b5050565b6000808273ffffffffffffffffffffffffffffffffffffffff163b119050919050565b606060008203612b11576040518060400160405280600181526020017f30000000000000000000000000000000000000000000000000000000000000008152509050612c25565b600082905060005b60008214612b43578080612b2c90614c97565b915050600a82612b3c9190614d0e565b9150612b19565b60008167ffffffffffffffff811115612b5f57612b5e61324d565b5b6040519080825280601f01601f191660200182016040528015612b915781602001600182028036833780820191505090505b5090505b60008514612c1e57600182612baa91906147b2565b9150600a85612bb99190614d3f565b6030612bc591906147e6565b60f81b818381518110612bdb57612bda613d3e565b5b60200101907effffffffffffffffffffffffffffffffffffffffffffffffffffffffffffff1916908160001a905350600a85612c179190614d0e565b9450612b95565b8093505050505b919050565b505050565b6008805490506009600083815260200190815260200160002081905550600881908060018154018082558091505060019003906000526020600020016000909190919091505550565b60006001612c8584610f67565b612c8f91906147b2565b9050600060076000848152602001908152602001600020549050818114612d74576000600660008673ffffffffffffffffffffffffffffffffffffffff1673ffffffffffffffffffffffffffffffffffffffff168152602001908152602001600020600084815260200190815260200160002054905080600660008773ffffffffffffffffffffffffffffffffffffffff1673ffffffffffffffffffffffffffffffffffffffff168152602001908152602001600020600084815260200190815260200160002081905550816007600083815260200190815260200160002081905550505b6007600084815260200190815260200160002060009055600660008573ffffffffffffffffffffffffffffffffffffffff1673ffffffffffffffffffffffffffffffffffffffff16815260200190815260200160002060008381526020019081526020016000206000905550505050565b60006001600880549050612df991906147b2565b9050600060096000848152602001908152602001600020549050600060088381548110612e2957612e28613d3e565b5b906000526020600020015490508060088381548110612e4b57612e4a613d3e565b5b906000526020600020018190555081600960008381526020019081526020016000208190555060096000858152602001908152602001600020600090556008805480612e9a57612e99614d70565b5b6001900381819060005260206000200160009055905550505050565b6000612ec183610f67565b905081600660008573ffffffffffffffffffffffffffffffffffffffff1673ffffffffffffffffffffffffffffffffffffffff168152602001908152602001600020600083815260200190815260200160002081905550806007600084815260200190815260200160002081905550505050565b6000604051905090565b600080fd5b600080fd5b60007fffffffff0000000000000000000000000000000000000000000000000000000082169050919050565b612f7e81612f49565b8114612f8957600080fd5b50565b600081359050612f9b81612f75565b92915050565b600060208284031215612fb757612fb6612f3f565b5b6000612fc584828501612f8c565b91505092915050565b60008115159050919050565b612fe381612fce565b82525050565b6000602082019050612ffe6000830184612fda565b92915050565b600081519050919050565b600082825260208201905092915050565b60005b8381101561303e578082015181840152602081019050613023565b60008484015250505050565b6000601f19601f8301169050919050565b600061306682613004565b613070818561300f565b9350613080818560208601613020565b6130898161304a565b840191505092915050565b600060208201905081810360008301526130ae818461305b565b905092915050565b6000819050919050565b6130c9816130b6565b81146130d457600080fd5b50565b6000813590506130e6816130c0565b92915050565b60006020828403121561310257613101612f3f565b5b6000613110848285016130d7565b91505092915050565b600073ffffffffffffffffffffffffffffffffffffffff82169050919050565b600061314482613119565b9050919050565b61315481613139565b82525050565b600060208201905061316f600083018461314b565b92915050565b61317e81613139565b811461318957600080fd5b50565b60008135905061319b81613175565b92915050565b600080604083850312156131b8576131b7612f3f565b5b60006131c68582860161318c565b92505060206131d7858286016130d7565b9150509250929050565b6131ea816130b6565b82525050565b600060a08201905061320560008301886131e1565b613212602083018761314b565b61321f604083018661314b565b61322c606083018561314b565b613239608083018461314b565b9695505050505050565b600080fd5b600080fd5b7f4e487b7100000000000000000000000000000000000000000000000000000000600052604160045260246000fd5b6132858261304a565b810181811067ffffffffffffffff821117156132a4576132a361324d565b5b80604052505050565b60006132b7612f35565b90506132c3828261327c565b919050565b600067ffffffffffffffff8211156132e3576132e261324d565b5b6132ec8261304a565b9050602081019050919050565b82818337600083830152505050565b600061331b613316846132c8565b6132ad565b90508281526020810184848401111561333757613336613248565b5b6133428482856132f9565b509392505050565b600082601f83011261335f5761335e613243565b5b813561336f848260208601613308565b91505092915050565b6000806040838503121561338f5761338e612f3f565b5b600061339d858286016130d7565b925050602083013567ffffffffffffffff8111156133be576133bd612f44565b5b6133ca8582860161334a565b9150509250929050565b60006020820190506133e960008301846131e1565b92915050565b60008060006060848603121561340857613407612f3f565b5b60006134168682870161318c565b93505060206134278682870161318c565b9250506040613438868287016130d7565b9150509250925092565b6000819050919050565b61345581613442565b811461346057600080fd5b50565b6000813590506134728161344c565b92915050565b600067ffffffffffffffff8211156134935761349261324d565b5b61349c8261304a565b9050602081019050919050565b60006134bc6134b784613478565b6132ad565b9050828152602081018484840111156134d8576134d7613248565b5b6134e38482856132f9565b509392505050565b600082601f830112613500576134ff613243565b5b81356135108482602086016134a9565b91505092915050565b60008060008060008060c0878903121561353657613535612f3f565b5b600061354489828a016130d7565b965050602061355589828a01613463565b955050604061356689828a016130d7565b945050606061357789828a016130d7565b935050608087013567ffffffffffffffff81111561359857613597612f44565b5b6135a489828a0161334a565b92505060a087013567ffffffffffffffff8111156135c5576135c4612f44565b5b6135d189828a016134eb565b9150509295509295509295565b6000602082840312156135f4576135f3612f3f565b5b60006136028482850161318c565b91505092915050565b60006020828403121561362157613620612f3f565b5b600082013567ffffffffffffffff81111561363f5761363e612f44565b5b61364b8482850161334a565b91505092915050565b6000806040838503121561366b5761366a612f3f565b5b600083013567ffffffffffffffff81111561368957613688612f44565b5b6136958582860161334a565b925050602083013567ffffffffffffffff8111156136b6576136b5612f44565b5b6136c2858286016134eb565b9150509250929050565b6136d581612fce565b81146136e057600080fd5b50565b6000813590506136f2816136cc565b92915050565b6000806040838503121561370f5761370e612f3f565b5b600061371d8582860161318c565b925050602061372e858286016136e3565b9150509250929050565b6000806000806080858703121561375257613751612f3f565b5b60006137608782880161318c565b94505060206137718782880161318c565b9350506040613782878288016130d7565b925050606085013567ffffffffffffffff8111156137a3576137a2612f44565b5b6137af878288016134eb565b91505092959194509250565b600080604083850312156137d2576137d1612f3f565b5b60006137e08582860161318c565b92505060206137f18582860161318c565b9150509250929050565b6000806000806080858703121561381557613814612f3f565b5b6000613823878288016130d7565b945050602061383487828801613463565b935050604085013567ffffffffffffffff81111561385557613854612f44565b5b6138618782880161334a565b925050606085013567ffffffffffffffff81111561388257613881612f44565b5b61388e878288016134eb565b91505092959194509250565b7f4e487b7100000000000000000000000000000000000000000000000000000000600052602260045260246000fd5b600060028204905060018216806138e157607f821691505b6020821081036138f4576138f361389a565b5b50919050565b7f4552433732313a20617070726f76656420717565727920666f72206e6f6e657860008201527f697374656e7420746f6b656e0000000000000000000000000000000000000000602082015250565b6000613956602c8361300f565b9150613961826138fa565b604082019050919050565b6000602082019050818103600083015261398581613949565b9050919050565b7f4552433732313a20617070726f76616c20746f2063757272656e74206f776e6560008201527f7200000000000000000000000000000000000000000000000000000000000000602082015250565b60006139e860218361300f565b91506139f38261398c565b604082019050919050565b60006020820190508181036000830152613a17816139db565b9050919050565b7f4552433732313a20617070726f76652063616c6c6572206973206e6f74206f7760008201527f6e6572206e6f7220617070726f76656420666f7220616c6c0000000000000000602082015250565b6000613a7a60388361300f565b9150613a8582613a1e565b604082019050919050565b60006020820190508181036000830152613aa981613a6d565b9050919050565b7f4552433732313a207472616e736665722063616c6c6572206973206e6f74206f60008201527f776e6572206e6f7220617070726f766564000000000000000000000000000000602082015250565b6000613b0c60318361300f565b9150613b1782613ab0565b604082019050919050565b60006020820190508181036000830152613b3b81613aff565b9050919050565b7f455243373231456e756d657261626c653a206f776e657220696e646578206f7560008201527f74206f6620626f756e6473000000000000000000000000000000000000000000602082015250565b6000613b9e602b8361300f565b9150613ba982613b42565b604082019050919050565b60006020820190508181036000830152613bcd81613b91565b9050919050565b7f4f776e61626c653a2063616c6c6572206973206e6f7420746865206f776e6572600082015250565b6000613c0a60208361300f565b9150613c1582613bd4565b602082019050919050565b60006020820190508181036000830152613c3981613bfd565b9050919050565b7f4e6f2062616c616e636520746f20776974686472617700000000000000000000600082015250565b6000613c7660168361300f565b9150613c8182613c40565b602082019050919050565b60006020820190508181036000830152613ca581613c69565b9050919050565b7f455243373231456e756d657261626c653a20676c6f62616c20696e646578206f60008201527f7574206f6620626f756e64730000000000000000000000000000000000000000602082015250565b6000613d08602c8361300f565b9150613d1382613cac565b604082019050919050565b60006020820190508181036000830152613d3781613cfb565b9050919050565b7f4e487b7100000000000000000000000000000000000000000000000000000000600052603260045260246000fd5b7f43616c6c6572206973206e6f74206f776e6572206f66206e7574000000000000600082015250565b6000613da3601a8361300f565b9150613dae82613d6d565b602082019050919050565b60006020820190508181036000830152613dd281613d96565b9050919050565b613de281613442565b82525050565b6000608082019050613dfd60008301876131e1565b613e0a60208301866131e1565b613e1760408301856131e1565b613e246060830184613dd9565b95945050505050565b600081519050613e3c816136cc565b92915050565b600060208284031215613e5857613e57612f3f565b5b6000613e6684828501613e2d565b91505092915050565b600081519050919050565b600082825260208201905092915050565b6000613e9682613e6f565b613ea08185613e7a565b9350613eb0818560208601613020565b613eb98161304a565b840191505092915050565b6000606082019050613ed960008301866131e1565b8181036020830152613eeb818561305b565b90508181036040830152613eff8184613e8b565b9050949350505050565b7f4552433732313a206f776e657220717565727920666f72206e6f6e657869737460008201527f656e7420746f6b656e0000000000000000000000000000000000000000000000602082015250565b6000613f6560298361300f565b9150613f7082613f09565b604082019050919050565b60006020820190508181036000830152613f9481613f58565b9050919050565b7f4552433732313a2062616c616e636520717565727920666f7220746865207a6560008201527f726f206164647265737300000000000000000000000000000000000000000000602082015250565b6000613ff7602a8361300f565b915061400282613f9b565b604082019050919050565b6000602082019050818103600083015261402681613fea565b9050919050565b7f496e697469616c20737570706c79206f66206e757473206973206465706c657460008201527f6564000000000000000000000000000000000000000000000000000000000000602082015250565b600061408960228361300f565b91506140948261402d565b604082019050919050565b600060208201905081810360008301526140b88161407c565b9050919050565b6000815190506140ce816130c0565b92915050565b6000602082840312156140ea576140e9612f3f565b5b60006140f8848285016140bf565b91505092915050565b7f45746865722076616c7565206973206e6f7420656e6f75676800000000000000600082015250565b600061413760198361300f565b915061414282614101565b602082019050919050565b600060208201905081810360008301526141668161412a565b9050919050565b6000604082019050614182600083018561314b565b61418f60208301846131e1565b9392505050565b7f4e757473207374696c6c2065786973742066726f6d206372656174696f6e0000600082015250565b60006141cc601e8361300f565b91506141d782614196565b602082019050919050565b600060208201905081810360008301526141fb816141bf565b9050919050565b600060408201905061421760008301856131e1565b6142246020830184613dd9565b9392505050565b7f4f776e61626c653a206e6577206f776e657220697320746865207a65726f206160008201527f6464726573730000000000000000000000000000000000000000000000000000602082015250565b600061428760268361300f565b91506142928261422b565b604082019050919050565b600060208201905081810360008301526142b68161427a565b9050919050565b7f45524337323155524953746f726167653a2055524920736574206f66206e6f6e60008201527f6578697374656e7420746f6b656e000000000000000000000000000000000000602082015250565b6000614319602e8361300f565b9150614324826142bd565b604082019050919050565b600060208201905081810360008301526143488161430c565b9050919050565b60008190508160005260206000209050919050565b60006020601f8301049050919050565b600082821b905092915050565b6000600883026143b17fffffffffffffffffffffffffffffffffffffffffffffffffffffffffffffffff82614374565b6143bb8683614374565b95508019841693508086168417925050509392505050565b6000819050919050565b60006143f86143f36143ee846130b6565b6143d3565b6130b6565b9050919050565b6000819050919050565b614412836143dd565b61442661441e826143ff565b848454614381565b825550505050565b600090565b61443b61442e565b614446818484614409565b505050565b5b8181101561446a5761445f600082614433565b60018101905061444c565b5050565b601f8211156144af576144808161434f565b61448984614364565b81016020851015614498578190505b6144ac6144a485614364565b83018261444b565b50505b505050565b600082821c905092915050565b60006144d2600019846008026144b4565b1980831691505092915050565b60006144eb83836144c1565b9150826002028217905092915050565b61450482613004565b67ffffffffffffffff81111561451d5761451c61324d565b5b61452782546138c9565b61453282828561446e565b600060209050601f8311600181146145655760008415614553578287015190505b61455d85826144df565b8655506145c5565b601f1984166145738661434f565b60005b8281101561459b57848901518255600182019150602085019450602081019050614576565b868310156145b857848901516145b4601f8916826144c1565b8355505b6001600288020188555050505b505050505050565b7f4552433732313a206f70657261746f7220717565727920666f72206e6f6e657860008201527f697374656e7420746f6b656e0000000000000000000000000000000000000000602082015250565b6000614629602c8361300f565b9150614634826145cd565b604082019050919050565b600060208201905081810360008301526146588161461c565b9050919050565b7f4552433732313a207472616e736665722066726f6d20696e636f72726563742060008201527f6f776e6572000000000000000000000000000000000000000000000000000000602082015250565b60006146bb60258361300f565b91506146c68261465f565b604082019050919050565b600060208201905081810360008301526146ea816146ae565b9050919050565b7f4552433732313a207472616e7366657220746f20746865207a65726f2061646460008201527f7265737300000000000000000000000000000000000000000000000000000000602082015250565b600061474d60248361300f565b9150614758826146f1565b604082019050919050565b6000602082019050818103600083015261477c81614740565b9050919050565b7f4e487b7100000000000000000000000000000000000000000000000000000000600052601160045260246000fd5b60006147bd826130b6565b91506147c8836130b6565b92508282039050818111156147e0576147df614783565b5b92915050565b60006147f1826130b6565b91506147fc836130b6565b925082820190508082111561481457614813614783565b5b92915050565b600060408201905061482f600083018561314b565b61483c602083018461314b565b9392505050565b7f4552433732313a20617070726f766520746f2063616c6c657200000000000000600082015250565b600061487960198361300f565b915061488482614843565b602082019050919050565b600060208201905081810360008301526148a88161486c565b9050919050565b7f4552433732313a207472616e7366657220746f206e6f6e20455243373231526560008201527f63656976657220696d706c656d656e7465720000000000000000000000000000602082015250565b600061490b60328361300f565b9150614916826148af565b604082019050919050565b6000602082019050818103600083015261493a816148fe565b9050919050565b7f45524337323155524953746f726167653a2055524920717565727920666f722060008201527f6e6f6e6578697374656e7420746f6b656e000000000000000000000000000000602082015250565b600061499d60318361300f565b91506149a882614941565b604082019050919050565b600060208201905081810360008301526149cc81614990565b9050919050565b600081905092915050565b60006149e982613004565b6149f381856149d3565b9350614a03818560208601613020565b80840191505092915050565b6000614a1b82856149de565b9150614a2782846149de565b91508190509392505050565b7f455243313136373a20637265617465206661696c656400000000000000000000600082015250565b6000614a6960168361300f565b9150614a7482614a33565b602082019050919050565b60006020820190508181036000830152614a9881614a5c565b9050919050565b6000608082019050614ab4600083018761314b565b614ac1602083018661314b565b614ace60408301856131e1565b8181036060830152614ae08184613e8b565b905095945050505050565b600081519050614afa81612f75565b92915050565b600060208284031215614b1657614b15612f3f565b5b6000614b2484828501614aeb565b91505092915050565b7f4552433732314d657461646174613a2055524920717565727920666f72206e6f60008201527f6e6578697374656e7420746f6b656e0000000000000000000000000000000000602082015250565b6000614b89602f8361300f565b9150614b9482614b2d565b604082019050919050565b60006020820190508181036000830152614bb881614b7c565b9050919050565b7f4552433732313a206d696e7420746f20746865207a65726f2061646472657373600082015250565b6000614bf560208361300f565b9150614c0082614bbf565b602082019050919050565b60006020820190508181036000830152614c2481614be8565b9050919050565b7f4552433732313a20746f6b656e20616c7265616479206d696e74656400000000600082015250565b6000614c61601c8361300f565b9150614c6c82614c2b565b602082019050919050565b60006020820190508181036000830152614c9081614c54565b9050919050565b6000614ca2826130b6565b91507fffffffffffffffffffffffffffffffffffffffffffffffffffffffffffffffff8203614cd457614cd3614783565b5b600182019050919050565b7f4e487b7100000000000000000000000000000000000000000000000000000000600052601260045260246000fd5b6000614d19826130b6565b9150614d24836130b6565b925082614d3457614d33614cdf565b5b828204905092915050565b6000614d4a826130b6565b9150614d55836130b6565b925082614d6557614d64614cdf565b5b828206905092915050565b7f4e487b7100000000000000000000000000000000000000000000000000000000600052603160045260246000fdfea26469706673582212202d33f7c432b24940a1d00639b22d2c0db93b02170247602049fb64680bbc105364736f6c63430008110033",
  "immutableReferences": {},
  "source": "// SPDX-License-Identifier: MIT\npragma solidity ^0.8.7;\n\nimport \"./CosmoCreation.sol\";\nimport \"./ICosmoNuts.sol\";\nimport \"./ICosmoVault.sol\";\n\n/**\n * Main Contract for the NFT tokens.\n * System address resembles the public address of the software application.\n */\n contract CosmoNuts is CosmoCreation, ICosmoNuts {\n\n    using ECDSA for bytes32;\n\n    constructor(\n        string memory _name,\n        string memory _symbol,\n        uint256 _initialNFTSupply,\n        address _systemAddress,\n        address _treasuryAddress,\n        address _vaultImplementation\n    )\n        CosmoCreation(\n            _name,\n            _symbol,\n            _initialNFTSupply,\n            _systemAddress,\n            _treasuryAddress,\n            _vaultImplementation\n        )\n    {\n        ICosmoTreasury(_treasuryAddress).linkCosmo(address(this));\n    }\n\n    function vaultLocation() public view override returns (address) {\n        return creation.vault;\n    }\n\n    function setTokenURI(uint256 _nutId, string memory _nutCID) external virtual override {\n        _setTokenURI(_nutId, _nutCID);\n    }\n\n    function getOwnerOf(uint256 _nutId) public view virtual override returns (address) {\n        return ownerOf(_nutId);\n    }\n\n    function createVault() external virtual override returns (address) {\n        return openVault(address(this));\n    }\n\n    // only system address?\n    function withdraw() public onlyOwner {\n        uint256 balance = address(this).balance;\n        require(address(this).balance > 0 wei, \"No balance to withdraw\");\n        payable(msg.sender).transfer(balance);\n    }\n\n    /*\n     * Called from CosmoSeed to mint a new Nut\n     */\n    function createNut(\n        string memory _cidPath,\n        bytes memory _signature\n    ) external virtual override returns (bool) {\n        uint256 mintIndex = totalSupply();\n        _safeMint(msg.sender, mintIndex);\n        ICosmoVault(creation.vault).changeTokenURI(\n            mintIndex, _cidPath, _signature\n        );\n        return true;\n    }\n\n    /**\n     * Function callable by Nut owner to create a seed which has the potential to turn into a new Nut.\n     * Requires the input of a secretHash and a specified amount of Ether to create.\n     * A required level of matter must be burned which is equal to the amount of seeds you have in Universe\n     * multiplied by the matterRate.\n     */\n    function createSeed(\n        uint256 _nutId,\n        bytes32 _secretHash,\n        string memory _cidPath,\n        bytes memory _signature\n        )\n        public payable returns (bool) {\n            require(address(msg.sender) == ownerOf(_nutId), \"Caller is not owner of nut\");\n            require(totalSupply() >= creation.initialSupply, \"Nuts still exist from creation\");\n\n            ICosmoTreasury(creation.treasury).spawnSeed(_nutId, _secretHash);\n            ICosmoVault(creation.vault).changeTokenURI(\n                _nutId, _cidPath, _signature\n            );\n\n            return true;\n    }\n\n    /**\n     * Function callable by Nut owner to create a matter faucet which allows other users to draw matter\n     * Creation requires a secret hash that must be known to suppy matter\n     * Creation requires input of total number of matter in contract and the amount each user can draw at a single time\n     * Drawing any amount of matter results in the creation of new supply of matter\n     * In creating the faucet, the creator replenishes the accounts of other nut holders (tax on system to create message)\n     * Caller will also receive matter if others call on this function\n     */\n    function createButter(\n        uint256 _nutId,\n        bytes32 _secretHash,\n        uint256 _matterContributed,\n        uint256 _matterDrawRate,\n        string memory _cidPath,\n        bytes memory _signature\n    ) public {\n        require(address(msg.sender) == ownerOf(_nutId), \"Caller is not owner of nut\");\n        ICosmoTreasury(creation.treasury).newButter(_nutId, _matterContributed, _matterDrawRate, _secretHash);\n        ICosmoVault(creation.vault).changeTokenURI(\n            _nutId, _cidPath, _signature\n        );\n    }\n\n}\n",
  "sourcePath": "/home/redlentils/Seafile/Websites/avatarnft/contracts/CosmoNuts.sol",
  "compiler": {
    "name": "solc",
    "version": "0.8.17+commit.8df45f5f.Emscripten.clang"
  },
  "schemaVersion": "3.4.10",
  "updatedAt": "2022-10-20T08:15:40.589Z",
  "devdoc": {
    "kind": "dev",
    "methods": {
      "approve(address,uint256)": {
        "details": "See {IERC721-approve}."
      },
      "balanceOf(address)": {
        "details": "See {IERC721-balanceOf}."
      },
      "getApproved(uint256)": {
        "details": "See {IERC721-getApproved}."
      },
      "isApprovedForAll(address,address)": {
        "details": "See {IERC721-isApprovedForAll}."
      },
      "name()": {
        "details": "See {IERC721Metadata-name}."
      },
      "owner()": {
        "details": "Returns the address of the current owner."
      },
      "ownerOf(uint256)": {
        "details": "See {IERC721-ownerOf}."
      },
      "renounceOwnership()": {
        "details": "Leaves the contract without owner. It will not be possible to call `onlyOwner` functions anymore. Can only be called by the current owner. NOTE: Renouncing ownership will leave the contract without an owner, thereby removing any functionality that is only available to the owner."
      },
      "safeTransferFrom(address,address,uint256)": {
        "details": "See {IERC721-safeTransferFrom}."
      },
      "safeTransferFrom(address,address,uint256,bytes)": {
        "details": "See {IERC721-safeTransferFrom}."
      },
      "setApprovalForAll(address,bool)": {
        "details": "See {IERC721-setApprovalForAll}."
      },
      "symbol()": {
        "details": "See {IERC721Metadata-symbol}."
      },
      "tokenByIndex(uint256)": {
        "details": "See {IERC721Enumerable-tokenByIndex}."
      },
      "tokenOfOwnerByIndex(address,uint256)": {
        "details": "See {IERC721Enumerable-tokenOfOwnerByIndex}."
      },
      "totalSupply()": {
        "details": "See {IERC721Enumerable-totalSupply}."
      },
      "transferFrom(address,address,uint256)": {
        "details": "See {IERC721-transferFrom}."
      },
      "transferOwnership(address)": {
        "details": "Transfers ownership of the contract to a new account (`newOwner`). Can only be called by the current owner."
      }
    },
    "version": 1
  },
  "userdoc": {
    "kind": "user",
    "methods": {
      "createButter(uint256,bytes32,uint256,uint256,string,bytes)": {
        "notice": "Function callable by Nut owner to create a matter faucet which allows other users to draw matter Creation requires a secret hash that must be known to suppy matter Creation requires input of total number of matter in contract and the amount each user can draw at a single time Drawing any amount of matter results in the creation of new supply of matter In creating the faucet, the creator replenishes the accounts of other nut holders (tax on system to create message) Caller will also receive matter if others call on this function"
      },
      "createSeed(uint256,bytes32,string,bytes)": {
        "notice": "Function callable by Nut owner to create a seed which has the potential to turn into a new Nut. Requires the input of a secretHash and a specified amount of Ether to create. A required level of matter must be burned which is equal to the amount of seeds you have in Universe multiplied by the matterRate."
      }
    },
    "notice": "Main Contract for the NFT tokens. System address resembles the public address of the software application.",
    "version": 1
  }
}