{
  "contractName": "CosmoSeed",
  "abi": [
    {
      "inputs": [],
      "name": "seed",
      "outputs": [
        {
          "internalType": "uint256",
          "name": "id",
          "type": "uint256"
        },
        {
          "internalType": "uint256",
          "name": "nutId",
          "type": "uint256"
        },
        {
          "internalType": "uint256",
          "name": "heldEther",
          "type": "uint256"
        },
        {
          "internalType": "uint256",
          "name": "matterNeeded",
          "type": "uint256"
        },
        {
          "internalType": "address",
          "name": "location",
          "type": "address"
        },
        {
          "internalType": "address",
          "name": "treasuryLocation",
          "type": "address"
        },
        {
          "internalType": "address",
          "name": "cosmosLocation",
          "type": "address"
        },
        {
          "internalType": "bytes32",
          "name": "secretHash",
          "type": "bytes32"
        }
      ],
      "stateMutability": "view",
      "type": "function"
    },
    {
      "stateMutability": "payable",
      "type": "receive"
    },
    {
      "inputs": [
        {
          "internalType": "uint256",
          "name": "_seedId",
          "type": "uint256"
        },
        {
          "internalType": "uint256",
          "name": "_nutId",
          "type": "uint256"
        },
        {
          "internalType": "address",
          "name": "_treasuryLocation",
          "type": "address"
        },
        {
          "internalType": "address",
          "name": "_cosmosLocation",
          "type": "address"
        },
        {
          "internalType": "bytes32",
          "name": "_secretHash",
          "type": "bytes32"
        }
      ],
      "name": "initialize",
      "outputs": [],
      "stateMutability": "nonpayable",
      "type": "function"
    },
    {
      "inputs": [],
      "name": "matterNeeded",
      "outputs": [
        {
          "internalType": "uint256",
          "name": "",
          "type": "uint256"
        }
      ],
      "stateMutability": "view",
      "type": "function"
    },
    {
      "inputs": [],
      "name": "nutId",
      "outputs": [
        {
          "internalType": "uint256",
          "name": "",
          "type": "uint256"
        }
      ],
      "stateMutability": "view",
      "type": "function"
    },
    {
      "inputs": [
        {
          "internalType": "string",
          "name": "_secret",
          "type": "string"
        },
        {
          "internalType": "string",
          "name": "_cidPath",
          "type": "string"
        },
        {
          "internalType": "bytes",
          "name": "_signature",
          "type": "bytes"
        }
      ],
      "name": "spawnNut",
      "outputs": [],
      "stateMutability": "nonpayable",
      "type": "function"
    },
    {
      "inputs": [],
      "name": "getBalance",
      "outputs": [
        {
          "internalType": "uint256",
          "name": "",
          "type": "uint256"
        }
      ],
      "stateMutability": "view",
      "type": "function"
    }
  ],
  "bytecode": "0x608060405234801561001057600080fd5b50611197806100206000396000f3fe6080604052600436106100595760003560e01c806312065fe01461006e57806348257aa414610099578063685771f4146100c25780637d94792a146100ed578063956c2dc31461011f578063c5d12c971461014857610069565b3661006957346000600201819055005b600080fd5b34801561007a57600080fd5b50610083610173565b6040516100909190610870565b60405180910390f35b3480156100a557600080fd5b506100c060048036038101906100bb919061095f565b61017b565b005b3480156100ce57600080fd5b506100d76102f8565b6040516100e49190610870565b60405180910390f35b3480156100f957600080fd5b50610102610304565b6040516101169897969594939291906109f8565b60405180910390f35b34801561012b57600080fd5b5061014660048036038101906101419190610c5d565b61039a565b005b34801561015457600080fd5b5061015d6107ce565b60405161016a9190610870565b60405180910390f35b600047905090565b84600080018190555083600060010181905550600080600201819055508273ffffffffffffffffffffffffffffffffffffffff16638ed3df0f856040518263ffffffff1660e01b81526004016101d19190610870565b602060405180830381865afa1580156101ee573d6000803e3d6000fd5b505050506040513d601f19601f820116820180604052508101906102129190610d19565b60006003018190555030600060040160006101000a81548173ffffffffffffffffffffffffffffffffffffffff021916908373ffffffffffffffffffffffffffffffffffffffff16021790555082600060050160006101000a81548173ffffffffffffffffffffffffffffffffffffffff021916908373ffffffffffffffffffffffffffffffffffffffff16021790555081600060060160006101000a81548173ffffffffffffffffffffffffffffffffffffffff021916908373ffffffffffffffffffffffffffffffffffffffff160217905550806000600701819055505050505050565b60008060010154905090565b60008060000154908060010154908060020154908060030154908060040160009054906101000a900473ffffffffffffffffffffffffffffffffffffffff16908060050160009054906101000a900473ffffffffffffffffffffffffffffffffffffffff16908060060160009054906101000a900473ffffffffffffffffffffffffffffffffffffffff16908060070154905088565b6103a3836107da565b50600060050160009054906101000a900473ffffffffffffffffffffffffffffffffffffffff1673ffffffffffffffffffffffffffffffffffffffff1663a06fc90b60008001546000600301546040518363ffffffff1660e01b815260040161040d929190610d46565b6020604051808303816000875af115801561042c573d6000803e3d6000fd5b505050506040513d601f19601f820116820180604052508101906104509190610da7565b50600060060160009054906101000a900473ffffffffffffffffffffffffffffffffffffffff1673ffffffffffffffffffffffffffffffffffffffff1663a0e12efe83836040518363ffffffff1660e01b81526004016104b1929190610ea8565b6020604051808303816000875af11580156104d0573d6000803e3d6000fd5b505050506040513d601f19601f820116820180604052508101906104f49190610da7565b5060008060050160009054906101000a900473ffffffffffffffffffffffffffffffffffffffff1673ffffffffffffffffffffffffffffffffffffffff166398d5fdca6040518163ffffffff1660e01b8152600401602060405180830381865afa158015610566573d6000803e3d6000fd5b505050506040513d601f19601f8201168201806040525081019061058a9190610d19565b905060008060050160009054906101000a900473ffffffffffffffffffffffffffffffffffffffff1673ffffffffffffffffffffffffffffffffffffffff16826040516105d690610f10565b60006040518083038185875af1925050503d8060008114610613576040519150601f19603f3d011682016040523d82523d6000602084013e610618565b606091505b505090508061065c576040517f08c379a000000000000000000000000000000000000000000000000000000000815260040161065390610f71565b60405180910390fd5b60008260006002015461066f9190610fc0565b905060008060060160009054906101000a900473ffffffffffffffffffffffffffffffffffffffff1673ffffffffffffffffffffffffffffffffffffffff1663836387106000600101546040518263ffffffff1660e01b81526004016106d59190610870565b602060405180830381865afa1580156106f2573d6000803e3d6000fd5b505050506040513d601f19601f820116820180604052508101906107169190611009565b905060008173ffffffffffffffffffffffffffffffffffffffff168360405161073e90610f10565b60006040518083038185875af1925050503d806000811461077b576040519150601f19603f3d011682016040523d82523d6000602084013e610780565b606091505b50509050806107c4576040517f08c379a00000000000000000000000000000000000000000000000000000000081526004016107bb90611082565b60405180910390fd5b5050505050505050565b60008060030154905090565b600080826040516020016107ee91906110de565b604051602081830303815290604052805190602001209050600060070154811461084d576040517f08c379a000000000000000000000000000000000000000000000000000000000815260040161084490611141565b60405180910390fd5b6001915050919050565b6000819050919050565b61086a81610857565b82525050565b60006020820190506108856000830184610861565b92915050565b6000604051905090565b600080fd5b600080fd5b6108a881610857565b81146108b357600080fd5b50565b6000813590506108c58161089f565b92915050565b600073ffffffffffffffffffffffffffffffffffffffff82169050919050565b60006108f6826108cb565b9050919050565b610906816108eb565b811461091157600080fd5b50565b600081359050610923816108fd565b92915050565b6000819050919050565b61093c81610929565b811461094757600080fd5b50565b60008135905061095981610933565b92915050565b600080600080600060a0868803121561097b5761097a610895565b5b6000610989888289016108b6565b955050602061099a888289016108b6565b94505060406109ab88828901610914565b93505060606109bc88828901610914565b92505060806109cd8882890161094a565b9150509295509295909350565b6109e3816108eb565b82525050565b6109f281610929565b82525050565b600061010082019050610a0e600083018b610861565b610a1b602083018a610861565b610a286040830189610861565b610a356060830188610861565b610a4260808301876109da565b610a4f60a08301866109da565b610a5c60c08301856109da565b610a6960e08301846109e9565b9998505050505050505050565b600080fd5b600080fd5b6000601f19601f8301169050919050565b7f4e487b7100000000000000000000000000000000000000000000000000000000600052604160045260246000fd5b610ac982610a80565b810181811067ffffffffffffffff82111715610ae857610ae7610a91565b5b80604052505050565b6000610afb61088b565b9050610b078282610ac0565b919050565b600067ffffffffffffffff821115610b2757610b26610a91565b5b610b3082610a80565b9050602081019050919050565b82818337600083830152505050565b6000610b5f610b5a84610b0c565b610af1565b905082815260208101848484011115610b7b57610b7a610a7b565b5b610b86848285610b3d565b509392505050565b600082601f830112610ba357610ba2610a76565b5b8135610bb3848260208601610b4c565b91505092915050565b600067ffffffffffffffff821115610bd757610bd6610a91565b5b610be082610a80565b9050602081019050919050565b6000610c00610bfb84610bbc565b610af1565b905082815260208101848484011115610c1c57610c1b610a7b565b5b610c27848285610b3d565b509392505050565b600082601f830112610c4457610c43610a76565b5b8135610c54848260208601610bed565b91505092915050565b600080600060608486031215610c7657610c75610895565b5b600084013567ffffffffffffffff811115610c9457610c9361089a565b5b610ca086828701610b8e565b935050602084013567ffffffffffffffff811115610cc157610cc061089a565b5b610ccd86828701610b8e565b925050604084013567ffffffffffffffff811115610cee57610ced61089a565b5b610cfa86828701610c2f565b9150509250925092565b600081519050610d138161089f565b92915050565b600060208284031215610d2f57610d2e610895565b5b6000610d3d84828501610d04565b91505092915050565b6000604082019050610d5b6000830185610861565b610d686020830184610861565b9392505050565b60008115159050919050565b610d8481610d6f565b8114610d8f57600080fd5b50565b600081519050610da181610d7b565b92915050565b600060208284031215610dbd57610dbc610895565b5b6000610dcb84828501610d92565b91505092915050565b600081519050919050565b600082825260208201905092915050565b60005b83811015610e0e578082015181840152602081019050610df3565b60008484015250505050565b6000610e2582610dd4565b610e2f8185610ddf565b9350610e3f818560208601610df0565b610e4881610a80565b840191505092915050565b600081519050919050565b600082825260208201905092915050565b6000610e7a82610e53565b610e848185610e5e565b9350610e94818560208601610df0565b610e9d81610a80565b840191505092915050565b60006040820190508181036000830152610ec28185610e1a565b90508181036020830152610ed68184610e6f565b90509392505050565b600081905092915050565b50565b6000610efa600083610edf565b9150610f0582610eea565b600082019050919050565b6000610f1b82610eed565b9150819050919050565b7f4574686572206e6f742073656e7420746f205472656173757279000000000000600082015250565b6000610f5b601a83610ddf565b9150610f6682610f25565b602082019050919050565b60006020820190508181036000830152610f8a81610f4e565b9050919050565b7f4e487b7100000000000000000000000000000000000000000000000000000000600052601160045260246000fd5b6000610fcb82610857565b9150610fd683610857565b9250828203905081811115610fee57610fed610f91565b5b92915050565b600081519050611003816108fd565b92915050565b60006020828403121561101f5761101e610895565b5b600061102d84828501610ff4565b91505092915050565b7f4574686572206e6f742073656e7420746f20706172656e74206e757400000000600082015250565b600061106c601c83610ddf565b915061107782611036565b602082019050919050565b6000602082019050818103600083015261109b8161105f565b9050919050565b600081905092915050565b60006110b882610dd4565b6110c281856110a2565b93506110d2818560208601610df0565b80840191505092915050565b60006110ea82846110ad565b915081905092915050565b7f496e70757420646f6573206e6f74206d61746368207365637265740000000000600082015250565b600061112b601b83610ddf565b9150611136826110f5565b602082019050919050565b6000602082019050818103600083015261115a8161111e565b905091905056fea26469706673582212208bc0bf42780660d2784242e46361452cd63ef4615b9f135ffb8d9a900e9c1aa564736f6c63430008110033",
  "immutableReferences": {},
  "source": "// SPDX-License-Identifier: MIT\npragma solidity ^0.8.7;\n\nimport \"./ICosmoTreasury.sol\";\nimport \"./ICosmoNuts.sol\";\nimport \"./ICosmoSeed.sol\";\n\n/**\n * Contract created from a CosmoNut.  This contract holds a set amount of ether.\n * Ether is unlocked when the predetermined amount of matter is transferred to nut owner.\n */\n contract CosmoSeed is ICosmoSeed {\n\n     struct Seed {\n         uint256 id;\n         uint256 nutId;\n         uint256 heldEther;\n         uint256 matterNeeded;\n         address location;\n         address treasuryLocation;\n         address cosmosLocation;\n         bytes32 secretHash;\n     }\n     Seed public seed;\n\n     function initialize(\n         uint256 _seedId,\n         uint256 _nutId,\n         address _treasuryLocation,\n         address _cosmosLocation,\n         bytes32 _secretHash\n     //) public payable {\n     ) external virtual override {\n         seed.id = _seedId;\n         seed.nutId = _nutId;\n         //seed.heldEther = msg.value;\n         seed.heldEther = 0;\n         seed.matterNeeded = ICosmoTreasury(_treasuryLocation).matterNeeded(_nutId);\n         //seed.location = payable(address(this));\n         seed.location = address(this);\n         seed.treasuryLocation = _treasuryLocation;\n         seed.cosmosLocation = _cosmosLocation;\n         seed.secretHash = _secretHash;\n\n         //seedLocation = payable(address(this));\n         //seedLocation = payable(address(this));\n         //return true;\n     }\n\n     function matterNeeded() public view returns (uint256) {\n         return seed.matterNeeded;\n     }\n\n     function nutId() public view returns (uint256) {\n         return seed.nutId;\n     }\n\n     /**\n      * Takes a string input and hashes it; compares to the SECRET_HASH in the contract\n      * If it matches, returns true\n      */\n     function verifySecret(string memory _input) private view returns(bool) {\n         bytes32 inputHash = keccak256(abi.encodePacked(_input));\n         require(inputHash == seed.secretHash, \"Input does not match secret\");\n         return true;\n     }\n\n     /**\n      * Can be called from anyone who comes across, asks for secret from user\n      * The application fills out the path and signature\n      * If provided secret is correct, a new CosmoNut is minted and assigned to caller\n      */\n     function spawnNut(string memory _secret, string memory _cidPath, bytes memory _signature) public {\n         verifySecret(_secret); // Check whether provided secret is correct\n         ICosmoTreasury(seed.treasuryLocation).seedFromNut(seed.id, seed.matterNeeded);\n         ICosmoNuts(seed.cosmosLocation).createNut(_cidPath, _signature);\n\n         /**\n          * Sending the original set price to Treasury.  This is payment for a new NFT (nut).\n          * Consider implication - tax - and decision to keep?\n          */\n         uint256 nutPrice = ICosmoTreasury(seed.treasuryLocation).getPrice();\n         (bool sentToTreasury,/*memory data*/) = seed.treasuryLocation.call{\n             value: nutPrice\n         }(\"\");\n         require(sentToTreasury, \"Ether not sent to Treasury\");\n\n         /**\n          * Sending remaining amount back to current nut owner who created the seed.\n          */\n         uint256 returnAmount = seed.heldEther - nutPrice;\n         address nutOwner = ICosmoNuts(seed.cosmosLocation).getOwnerOf(seed.nutId);\n         (bool sentToParent,/*memory data*/) = nutOwner.call{\n             value: returnAmount\n         }(\"\");\n         require(sentToParent, \"Ether not sent to parent nut\");\n     }\n\n     /**\n      * Functions below relate to receiving ether.  This contract holds ether.\n      * Do we need? - researching\n      */\n      // Function to receive Ether, msg.data must be empty\n     receive() external payable {\n         seed.heldEther = msg.value;\n     }\n\n     // Fallback function is called when msg.data is not empty\n     //fallback() external payable {}\n\n     function getBalance() public view virtual override returns (uint256) {\n         return address(this).balance;\n     }\n\n }\n",
  "sourcePath": "/home/redlentils/Seafile/Websites/avatarnft/contracts/CosmoSeed.sol",
  "compiler": {
    "name": "solc",
    "version": "0.8.17+commit.8df45f5f.Emscripten.clang"
  },
  "schemaVersion": "3.4.10",
  "updatedAt": "2022-10-27T06:37:23.553Z",
  "devdoc": {
    "kind": "dev",
    "methods": {},
    "version": 1
  },
  "userdoc": {
    "kind": "user",
    "methods": {
      "spawnNut(string,string,bytes)": {
        "notice": "Can be called from anyone who comes across, asks for secret from user The application fills out the path and signature If provided secret is correct, a new CosmoNut is minted and assigned to caller"
      }
    },
    "notice": "Contract created from a CosmoNut.  This contract holds a set amount of ether. Ether is unlocked when the predetermined amount of matter is transferred to nut owner.",
    "version": 1
  }
}