{
  "contractName": "CosmoSeed",
  "abi": [
    {
      "inputs": [
        {
          "internalType": "uint256",
          "name": "_seedId",
          "type": "uint256"
        },
        {
          "internalType": "uint256",
          "name": "_nutId",
          "type": "uint256"
        },
        {
          "internalType": "address",
          "name": "_vaultAddress",
          "type": "address"
        },
        {
          "internalType": "bytes32",
          "name": "_secretHash",
          "type": "bytes32"
        }
      ],
      "stateMutability": "payable",
      "type": "constructor"
    },
    {
      "inputs": [],
      "name": "seed",
      "outputs": [
        {
          "internalType": "uint256",
          "name": "id",
          "type": "uint256"
        },
        {
          "internalType": "uint256",
          "name": "nutId",
          "type": "uint256"
        },
        {
          "internalType": "uint256",
          "name": "heldEther",
          "type": "uint256"
        },
        {
          "internalType": "uint256",
          "name": "matterNeeded",
          "type": "uint256"
        },
        {
          "internalType": "address",
          "name": "location",
          "type": "address"
        },
        {
          "internalType": "address",
          "name": "nutLocation",
          "type": "address"
        },
        {
          "internalType": "bytes32",
          "name": "secretHash",
          "type": "bytes32"
        }
      ],
      "stateMutability": "view",
      "type": "function"
    },
    {
      "inputs": [],
      "name": "matterNeeded",
      "outputs": [
        {
          "internalType": "uint256",
          "name": "",
          "type": "uint256"
        }
      ],
      "stateMutability": "view",
      "type": "function"
    },
    {
      "inputs": [],
      "name": "nutId",
      "outputs": [
        {
          "internalType": "uint256",
          "name": "",
          "type": "uint256"
        }
      ],
      "stateMutability": "view",
      "type": "function"
    },
    {
      "inputs": [
        {
          "internalType": "string",
          "name": "_secret",
          "type": "string"
        },
        {
          "internalType": "string",
          "name": "_cidPath",
          "type": "string"
        },
        {
          "internalType": "bytes",
          "name": "_signature",
          "type": "bytes"
        }
      ],
      "name": "spawnNut",
      "outputs": [],
      "stateMutability": "nonpayable",
      "type": "function"
    }
  ],
  "bytecode": "0x6080604052604051620011e5380380620011e58339818101604052810190620000299190620002f4565b600033905080600760006101000a81548173ffffffffffffffffffffffffffffffffffffffff021916908373ffffffffffffffffffffffffffffffffffffffff16021790555082600860006101000a81548173ffffffffffffffffffffffffffffffffffffffff021916908373ffffffffffffffffffffffffffffffffffffffff1602179055508460008001819055508360006001018190555034600060020181905550600860009054906101000a900473ffffffffffffffffffffffffffffffffffffffff1673ffffffffffffffffffffffffffffffffffffffff166334fc1228856040518263ffffffff1660e01b81526004016200012a919062000377565b602060405180830381865afa15801562000148573d6000803e3d6000fd5b505050506040513d601f19601f820116820180604052508101906200016e919062000394565b60006003018190555030600060040160006101000a81548173ffffffffffffffffffffffffffffffffffffffff021916908373ffffffffffffffffffffffffffffffffffffffff16021790555080600060050160006101000a81548173ffffffffffffffffffffffffffffffffffffffff021916908373ffffffffffffffffffffffffffffffffffffffff160217905550816000600601819055505050505050620003c6565b600080fd5b6000819050919050565b6200022e8162000219565b81146200023a57600080fd5b50565b6000815190506200024e8162000223565b92915050565b600073ffffffffffffffffffffffffffffffffffffffff82169050919050565b6000620002818262000254565b9050919050565b620002938162000274565b81146200029f57600080fd5b50565b600081519050620002b38162000288565b92915050565b6000819050919050565b620002ce81620002b9565b8114620002da57600080fd5b50565b600081519050620002ee81620002c3565b92915050565b6000806000806080858703121562000311576200031062000214565b5b600062000321878288016200023d565b945050602062000334878288016200023d565b93505060406200034787828801620002a2565b92505060606200035a87828801620002dd565b91505092959194509250565b620003718162000219565b82525050565b60006020820190506200038e600083018462000366565b92915050565b600060208284031215620003ad57620003ac62000214565b5b6000620003bd848285016200023d565b91505092915050565b610e0f80620003d66000396000f3fe608060405234801561001057600080fd5b506004361061004c5760003560e01c8063685771f4146100515780637d94792a1461006f578063956c2dc314610093578063c5d12c97146100af575b600080fd5b6100596100cd565b6040516100669190610656565b60405180910390f35b6100776100d9565b60405161008a97969594939291906106cb565b60405180910390f35b6100ad60048036038101906100a89190610935565b610149565b005b6100b76105b4565b6040516100c49190610656565b60405180910390f35b60008060010154905090565b60008060000154908060010154908060020154908060030154908060040160009054906101000a900473ffffffffffffffffffffffffffffffffffffffff16908060050160009054906101000a900473ffffffffffffffffffffffffffffffffffffffff16908060060154905087565b610152836105c0565b50600860009054906101000a900473ffffffffffffffffffffffffffffffffffffffff1673ffffffffffffffffffffffffffffffffffffffff1663f27890f260008001546040518263ffffffff1660e01b81526004016101b29190610656565b600060405180830381600087803b1580156101cc57600080fd5b505af11580156101e0573d6000803e3d6000fd5b50505050600760009054906101000a900473ffffffffffffffffffffffffffffffffffffffff1673ffffffffffffffffffffffffffffffffffffffff1663a0e12efe83836040518363ffffffff1660e01b8152600401610241929190610ab0565b600060405180830381600087803b15801561025b57600080fd5b505af115801561026f573d6000803e3d6000fd5b505050506000600860009054906101000a900473ffffffffffffffffffffffffffffffffffffffff1673ffffffffffffffffffffffffffffffffffffffff1663b8a9736d6040518163ffffffff1660e01b8152600401602060405180830381865afa1580156102e2573d6000803e3d6000fd5b505050506040513d601f19601f820116820180604052508101906103069190610b13565b90506000600860009054906101000a900473ffffffffffffffffffffffffffffffffffffffff1673ffffffffffffffffffffffffffffffffffffffff166307604b1a6040518163ffffffff1660e01b8152600401602060405180830381865afa158015610377573d6000803e3d6000fd5b505050506040513d601f19601f8201168201806040525081019061039b9190610b6c565b73ffffffffffffffffffffffffffffffffffffffff16826040516103be90610bca565b60006040518083038185875af1925050503d80600081146103fb576040519150601f19603f3d011682016040523d82523d6000602084013e610400565b606091505b5050905080610444576040517f08c379a000000000000000000000000000000000000000000000000000000000815260040161043b90610c2b565b60405180910390fd5b6000826000600201546104579190610c7a565b90506000600760009054906101000a900473ffffffffffffffffffffffffffffffffffffffff1673ffffffffffffffffffffffffffffffffffffffff16636352211e6000600101546040518263ffffffff1660e01b81526004016104bb9190610656565b602060405180830381865afa1580156104d8573d6000803e3d6000fd5b505050506040513d601f19601f820116820180604052508101906104fc9190610b6c565b905060008173ffffffffffffffffffffffffffffffffffffffff168360405161052490610bca565b60006040518083038185875af1925050503d8060008114610561576040519150601f19603f3d011682016040523d82523d6000602084013e610566565b606091505b50509050806105aa576040517f08c379a00000000000000000000000000000000000000000000000000000000081526004016105a190610cfa565b60405180910390fd5b5050505050505050565b60008060030154905090565b600080826040516020016105d49190610d56565b6040516020818303038152906040528051906020012090506000600601548114610633576040517f08c379a000000000000000000000000000000000000000000000000000000000815260040161062a90610db9565b60405180910390fd5b6001915050919050565b6000819050919050565b6106508161063d565b82525050565b600060208201905061066b6000830184610647565b92915050565b600073ffffffffffffffffffffffffffffffffffffffff82169050919050565b600061069c82610671565b9050919050565b6106ac81610691565b82525050565b6000819050919050565b6106c5816106b2565b82525050565b600060e0820190506106e0600083018a610647565b6106ed6020830189610647565b6106fa6040830188610647565b6107076060830187610647565b61071460808301866106a3565b61072160a08301856106a3565b61072e60c08301846106bc565b98975050505050505050565b6000604051905090565b600080fd5b600080fd5b600080fd5b600080fd5b6000601f19601f8301169050919050565b7f4e487b7100000000000000000000000000000000000000000000000000000000600052604160045260246000fd5b6107a182610758565b810181811067ffffffffffffffff821117156107c0576107bf610769565b5b80604052505050565b60006107d361073a565b90506107df8282610798565b919050565b600067ffffffffffffffff8211156107ff576107fe610769565b5b61080882610758565b9050602081019050919050565b82818337600083830152505050565b6000610837610832846107e4565b6107c9565b90508281526020810184848401111561085357610852610753565b5b61085e848285610815565b509392505050565b600082601f83011261087b5761087a61074e565b5b813561088b848260208601610824565b91505092915050565b600067ffffffffffffffff8211156108af576108ae610769565b5b6108b882610758565b9050602081019050919050565b60006108d86108d384610894565b6107c9565b9050828152602081018484840111156108f4576108f3610753565b5b6108ff848285610815565b509392505050565b600082601f83011261091c5761091b61074e565b5b813561092c8482602086016108c5565b91505092915050565b60008060006060848603121561094e5761094d610744565b5b600084013567ffffffffffffffff81111561096c5761096b610749565b5b61097886828701610866565b935050602084013567ffffffffffffffff81111561099957610998610749565b5b6109a586828701610866565b925050604084013567ffffffffffffffff8111156109c6576109c5610749565b5b6109d286828701610907565b9150509250925092565b600081519050919050565b600082825260208201905092915050565b60005b83811015610a165780820151818401526020810190506109fb565b60008484015250505050565b6000610a2d826109dc565b610a3781856109e7565b9350610a478185602086016109f8565b610a5081610758565b840191505092915050565b600081519050919050565b600082825260208201905092915050565b6000610a8282610a5b565b610a8c8185610a66565b9350610a9c8185602086016109f8565b610aa581610758565b840191505092915050565b60006040820190508181036000830152610aca8185610a22565b90508181036020830152610ade8184610a77565b90509392505050565b610af08161063d565b8114610afb57600080fd5b50565b600081519050610b0d81610ae7565b92915050565b600060208284031215610b2957610b28610744565b5b6000610b3784828501610afe565b91505092915050565b610b4981610691565b8114610b5457600080fd5b50565b600081519050610b6681610b40565b92915050565b600060208284031215610b8257610b81610744565b5b6000610b9084828501610b57565b91505092915050565b600081905092915050565b50565b6000610bb4600083610b99565b9150610bbf82610ba4565b600082019050919050565b6000610bd582610ba7565b9150819050919050565b7f4574686572206e6f742073656e7420746f205472656173757279000000000000600082015250565b6000610c15601a836109e7565b9150610c2082610bdf565b602082019050919050565b60006020820190508181036000830152610c4481610c08565b9050919050565b7f4e487b7100000000000000000000000000000000000000000000000000000000600052601160045260246000fd5b6000610c858261063d565b9150610c908361063d565b9250828203905081811115610ca857610ca7610c4b565b5b92915050565b7f4574686572206e6f742073656e7420746f20706172656e74206e757400000000600082015250565b6000610ce4601c836109e7565b9150610cef82610cae565b602082019050919050565b60006020820190508181036000830152610d1381610cd7565b9050919050565b600081905092915050565b6000610d30826109dc565b610d3a8185610d1a565b9350610d4a8185602086016109f8565b80840191505092915050565b6000610d628284610d25565b915081905092915050565b7f496e70757420646f6573206e6f74206d61746368207365637265740000000000600082015250565b6000610da3601b836109e7565b9150610dae82610d6d565b602082019050919050565b60006020820190508181036000830152610dd281610d96565b905091905056fea2646970667358221220deff7fc22e0ca5460308d13aebcadacf776821eb2aa3e40421ae2ecc7148f8ca64736f6c63430008110033",
  "immutableReferences": {},
  "source": "// SPDX-License-Identifier: MIT\npragma solidity ^0.8.7;\n\nimport \"./CosmoVault.sol\";\nimport \"./CosmoNuts.sol\";\n\ncontract CosmoSeed {\n\n    struct Seed {\n        uint256 id;\n        uint256 nutId;\n        uint256 heldEther;\n        uint256 matterNeeded;\n        address location;\n        address nutLocation;\n        bytes32 secretHash;\n    }\n    Seed public seed;\n\n    CosmoNuts nuts;\n    CosmoVault vault;\n\n    constructor(\n        uint256 _seedId,\n        uint256 _nutId,\n        address _vaultAddress,\n        bytes32 _secretHash\n    ) payable {\n        address nutLocation = address(msg.sender);\n        nuts = CosmoNuts(nutLocation);\n        vault = CosmoVault(_vaultAddress);\n\n        seed.id = _seedId;\n        seed.nutId = _nutId;\n        seed.heldEther = msg.value;\n        seed.matterNeeded = vault.calcMatterNeeded(_nutId);\n        seed.location = address(this);\n        seed.nutLocation = nutLocation;\n        seed.secretHash = _secretHash;\n    }\n\n    function matterNeeded() public view returns (uint256) {\n        return seed.matterNeeded;\n    }\n\n    function nutId() public view returns (uint256) {\n        return seed.nutId;\n    }\n\n    /**\n     * Takes a string input and hashes it; compares to the SECRET_HASH in the contract\n     * If it matches, returns true\n     */\n    function verifySecret(string memory _input) private view returns(bool) {\n        bytes32 inputHash = keccak256(abi.encodePacked(_input));\n        require(inputHash == seed.secretHash, \"Input does not match secret\");\n        return true;\n    }\n\n    /**\n     * Can be called from anyone who comes across, asks for secret from user\n     * The application fills out the path and signature\n     * If provided secret is correct, a new CosmoNut is minted and assigned to caller\n     */\n    function spawnNut(string memory _secret, string memory _cidPath, bytes memory _signature) public {\n        verifySecret(_secret); // Check whether provided secret is correct\n        vault.growSeedFromNut(seed.id);\n        nuts.createNut(_cidPath, _signature); // Mints the new NFT and assigns to caller\n\n        /**\n         * Sending the original set price to Treasury.  This is payment for a new NFT (nut).\n         * Consider implication - tax - and decision to keep?\n         */\n        uint256 nutPrice = vault.NUT_PRICE();\n        (bool sentToTreasury,/*memory data*/) = vault.TREASURY_ADDRESS().call{\n            value: nutPrice\n        }(\"\");\n        require(sentToTreasury, \"Ether not sent to Treasury\");\n\n        /**\n         * Sending remaining amount back to current nut owner who created the seed.\n         */\n        uint256 returnAmount = seed.heldEther - nutPrice;\n        address nutOwner = nuts.ownerOf(seed.nutId);\n        (bool sentToParent,/*memory data*/) = nutOwner.call{\n            value: returnAmount\n        }(\"\");\n        require(sentToParent, \"Ether not sent to parent nut\");\n    }\n\n    /**\n     * Functions below relate to receiving ether.  This contract holds ether.\n     * Do we need? - researching\n     */\n\n}\n",
  "sourcePath": "/home/redlentils/Seafile/Websites/avatarnft/contracts/CosmoSeed.sol",
  "compiler": {
    "name": "solc",
    "version": "0.8.17+commit.8df45f5f.Emscripten.clang"
  },
  "schemaVersion": "3.4.10",
  "updatedAt": "2022-10-07T17:57:54.096Z",
  "devdoc": {
    "kind": "dev",
    "methods": {},
    "version": 1
  },
  "userdoc": {
    "kind": "user",
    "methods": {
      "spawnNut(string,string,bytes)": {
        "notice": "Can be called from anyone who comes across, asks for secret from user The application fills out the path and signature If provided secret is correct, a new CosmoNut is minted and assigned to caller"
      }
    },
    "version": 1
  }
}