{
  "contractName": "CosmoUniverse",
  "abi": [
    {
      "inputs": [
        {
          "internalType": "address",
          "name": "_systemAddress",
          "type": "address"
        },
        {
          "internalType": "string",
          "name": "_matterName",
          "type": "string"
        },
        {
          "internalType": "string",
          "name": "_matterSymbol",
          "type": "string"
        }
      ],
      "stateMutability": "nonpayable",
      "type": "constructor"
    },
    {
      "anonymous": false,
      "inputs": [
        {
          "indexed": true,
          "internalType": "address",
          "name": "previousOwner",
          "type": "address"
        },
        {
          "indexed": true,
          "internalType": "address",
          "name": "newOwner",
          "type": "address"
        }
      ],
      "name": "OwnershipTransferred",
      "type": "event"
    },
    {
      "inputs": [],
      "name": "COSMO_INDEX",
      "outputs": [
        {
          "internalType": "uint256",
          "name": "",
          "type": "uint256"
        }
      ],
      "stateMutability": "view",
      "type": "function"
    },
    {
      "inputs": [],
      "name": "MATTER_ADDRESS",
      "outputs": [
        {
          "internalType": "address",
          "name": "",
          "type": "address"
        }
      ],
      "stateMutability": "view",
      "type": "function"
    },
    {
      "inputs": [],
      "name": "SYSTEM_ADDRESS",
      "outputs": [
        {
          "internalType": "address",
          "name": "",
          "type": "address"
        }
      ],
      "stateMutability": "view",
      "type": "function"
    },
    {
      "inputs": [
        {
          "internalType": "uint256",
          "name": "",
          "type": "uint256"
        }
      ],
      "name": "bangs",
      "outputs": [
        {
          "internalType": "string",
          "name": "name",
          "type": "string"
        },
        {
          "internalType": "uint256",
          "name": "matterNeeded",
          "type": "uint256"
        },
        {
          "internalType": "address",
          "name": "implementation",
          "type": "address"
        },
        {
          "internalType": "address",
          "name": "cosmo",
          "type": "address"
        }
      ],
      "stateMutability": "view",
      "type": "function"
    },
    {
      "inputs": [],
      "name": "owner",
      "outputs": [
        {
          "internalType": "address",
          "name": "",
          "type": "address"
        }
      ],
      "stateMutability": "view",
      "type": "function"
    },
    {
      "inputs": [],
      "name": "renounceOwnership",
      "outputs": [],
      "stateMutability": "nonpayable",
      "type": "function"
    },
    {
      "inputs": [
        {
          "internalType": "address",
          "name": "newOwner",
          "type": "address"
        }
      ],
      "name": "transferOwnership",
      "outputs": [],
      "stateMutability": "nonpayable",
      "type": "function"
    },
    {
      "inputs": [
        {
          "internalType": "uint256",
          "name": "_newCosmoIndex",
          "type": "uint256"
        }
      ],
      "name": "changeCosmoIndex",
      "outputs": [],
      "stateMutability": "nonpayable",
      "type": "function"
    },
    {
      "inputs": [
        {
          "internalType": "address",
          "name": "_implementationAddress",
          "type": "address"
        }
      ],
      "name": "setImplementation",
      "outputs": [],
      "stateMutability": "nonpayable",
      "type": "function"
    },
    {
      "inputs": [
        {
          "internalType": "string",
          "name": "_cosmosName",
          "type": "string"
        },
        {
          "internalType": "string",
          "name": "_cosmosSymbol",
          "type": "string"
        },
        {
          "internalType": "uint256",
          "name": "_desiredEntities",
          "type": "uint256"
        },
        {
          "internalType": "uint256",
          "name": "_price",
          "type": "uint256"
        },
        {
          "internalType": "uint256",
          "name": "_rate",
          "type": "uint256"
        },
        {
          "internalType": "address",
          "name": "_treasuryImplementation",
          "type": "address"
        },
        {
          "internalType": "address",
          "name": "_seedImplementation",
          "type": "address"
        },
        {
          "internalType": "address",
          "name": "_butterImplementation",
          "type": "address"
        },
        {
          "internalType": "address",
          "name": "_vaultImplementation",
          "type": "address"
        }
      ],
      "name": "bigBang",
      "outputs": [
        {
          "internalType": "address",
          "name": "cosmoAddress",
          "type": "address"
        }
      ],
      "stateMutability": "nonpayable",
      "type": "function"
    }
  ],
  "bytecode": "0x608060405260006001553480156200001657600080fd5b5060405162003b8838038062003b8883398181016040528101906200003c919062000456565b6200005c620000506200018460201b60201c565b6200018c60201b60201c565b82600260006101000a81548173ffffffffffffffffffffffffffffffffffffffff021916908373ffffffffffffffffffffffffffffffffffffffff1602179055508181604051620000ad9062000250565b620000ba9291906200054d565b604051809103906000f080158015620000d7573d6000803e3d6000fd5b50600960006101000a81548173ffffffffffffffffffffffffffffffffffffffff021916908373ffffffffffffffffffffffffffffffffffffffff160217905550600960009054906101000a900473ffffffffffffffffffffffffffffffffffffffff16600360006101000a81548173ffffffffffffffffffffffffffffffffffffffff021916908373ffffffffffffffffffffffffffffffffffffffff16021790555050505062000588565b600033905090565b60008060009054906101000a900473ffffffffffffffffffffffffffffffffffffffff169050816000806101000a81548173ffffffffffffffffffffffffffffffffffffffff021916908373ffffffffffffffffffffffffffffffffffffffff1602179055508173ffffffffffffffffffffffffffffffffffffffff168173ffffffffffffffffffffffffffffffffffffffff167f8be0079c531659141344cd1fd0a4f28419497f9722a3daafe3b4186f6b6457e060405160405180910390a35050565b611df68062001d9283390190565b6000604051905090565b600080fd5b600080fd5b600073ffffffffffffffffffffffffffffffffffffffff82169050919050565b60006200029f8262000272565b9050919050565b620002b18162000292565b8114620002bd57600080fd5b50565b600081519050620002d181620002a6565b92915050565b600080fd5b600080fd5b6000601f19601f8301169050919050565b7f4e487b7100000000000000000000000000000000000000000000000000000000600052604160045260246000fd5b6200032c82620002e1565b810181811067ffffffffffffffff821117156200034e576200034d620002f2565b5b80604052505050565b6000620003636200025e565b905062000371828262000321565b919050565b600067ffffffffffffffff821115620003945762000393620002f2565b5b6200039f82620002e1565b9050602081019050919050565b60005b83811015620003cc578082015181840152602081019050620003af565b60008484015250505050565b6000620003ef620003e98462000376565b62000357565b9050828152602081018484840111156200040e576200040d620002dc565b5b6200041b848285620003ac565b509392505050565b600082601f8301126200043b576200043a620002d7565b5b81516200044d848260208601620003d8565b91505092915050565b60008060006060848603121562000472576200047162000268565b5b60006200048286828701620002c0565b935050602084015167ffffffffffffffff811115620004a657620004a56200026d565b5b620004b48682870162000423565b925050604084015167ffffffffffffffff811115620004d857620004d76200026d565b5b620004e68682870162000423565b9150509250925092565b600081519050919050565b600082825260208201905092915050565b60006200051982620004f0565b620005258185620004fb565b935062000537818560208601620003ac565b6200054281620002e1565b840191505092915050565b600060408201905081810360008301526200056981856200050c565b905081810360208301526200057f81846200050c565b90509392505050565b6117fa80620005986000396000f3fe608060405234801561001057600080fd5b506004361061009e5760003560e01c8063787593511161006657806378759351146101355780638da5cb5b146101685780639015a50214610186578063d784d426146101a4578063f2fde38b146101c05761009e565b80633434735f146100a357806357418dd5146100c157806364b1b663146100f15780636a090efc1461010f578063715018a61461012b575b600080fd5b6100ab6101dc565b6040516100b89190610c76565b60405180910390f35b6100db60048036038101906100d69190610e4d565b610202565b6040516100e89190610c76565b60405180910390f35b6100f9610629565b6040516101069190610c76565b60405180910390f35b61012960048036038101906101249190610f4f565b61064f565b005b610133610719565b005b61014f600480360381019061014a9190610f4f565b6107a1565b60405161015f949392919061100a565b60405180910390f35b610170610899565b60405161017d9190610c76565b60405180910390f35b61018e6108c2565b60405161019b9190611056565b60405180910390f35b6101be60048036038101906101b99190611071565b6108c8565b005b6101da60048036038101906101d59190611071565b61099e565b005b600260009054906101000a900473ffffffffffffffffffffffffffffffffffffffff1681565b600061020c610a95565b73ffffffffffffffffffffffffffffffffffffffff1661022a610899565b73ffffffffffffffffffffffffffffffffffffffff1614610280576040517f08c379a0000000000000000000000000000000000000000000000000000000008152600401610277906110ea565b60405180910390fd5b600073ffffffffffffffffffffffffffffffffffffffff1660086000600154815260200190815260200160002060020160009054906101000a900473ffffffffffffffffffffffffffffffffffffffff1673ffffffffffffffffffffffffffffffffffffffff1603610327576040517f08c379a000000000000000000000000000000000000000000000000000000000815260040161031e9061117c565b60405180910390fd5b600061036a60086000600154815260200190815260200160002060020160009054906101000a900473ffffffffffffffffffffffffffffffffffffffff16610a9d565b905060008173ffffffffffffffffffffffffffffffffffffffff1663b33f9527600260009054906101000a900473ffffffffffffffffffffffffffffffffffffffff16600360009054906101000a900473ffffffffffffffffffffffffffffffffffffffff168a8a8a8f8f6040518863ffffffff1660e01b81526004016103f7979695949392919061119c565b6020604051808303816000875af1158015610416573d6000803e3d6000fd5b505050506040513d601f19601f8201168201806040525081019061043a9190611220565b90506001888a61044a919061127c565b61045491906112be565b60086000600154815260200190815260200160002060010181905550600360009054906101000a900473ffffffffffffffffffffffffffffffffffffffff1673ffffffffffffffffffffffffffffffffffffffff16634bbc1bcd82600860006001548152602001908152602001600020600101546040518363ffffffff1660e01b81526004016104e59291906112f2565b600060405180830381600087803b1580156104ff57600080fd5b505af1158015610513573d6000803e3d6000fd5b505050508173ffffffffffffffffffffffffffffffffffffffff1663a4bb54048d8d8d85896040518663ffffffff1660e01b815260040161055895949392919061131b565b6020604051808303816000875af1158015610577573d6000803e3d6000fd5b505050506040513d601f19601f8201168201806040525081019061059b9190611220565b92508b60086000600154815260200190815260200160002060000190816105c29190611588565b508260086000600154815260200190815260200160002060030160006101000a81548173ffffffffffffffffffffffffffffffffffffffff021916908373ffffffffffffffffffffffffffffffffffffffff16021790555050509998505050505050505050565b600360009054906101000a900473ffffffffffffffffffffffffffffffffffffffff1681565b610657610a95565b73ffffffffffffffffffffffffffffffffffffffff16610675610899565b73ffffffffffffffffffffffffffffffffffffffff16146106cb576040517f08c379a00000000000000000000000000000000000000000000000000000000081526004016106c2906110ea565b60405180910390fd5b806001540361070f576040517f08c379a0000000000000000000000000000000000000000000000000000000008152600401610706906116a6565b60405180910390fd5b8060018190555050565b610721610a95565b73ffffffffffffffffffffffffffffffffffffffff1661073f610899565b73ffffffffffffffffffffffffffffffffffffffff1614610795576040517f08c379a000000000000000000000000000000000000000000000000000000000815260040161078c906110ea565b60405180910390fd5b61079f6000610b71565b565b60086020528060005260406000206000915090508060000180546107c4906113ab565b80601f01602080910402602001604051908101604052809291908181526020018280546107f0906113ab565b801561083d5780601f106108125761010080835404028352916020019161083d565b820191906000526020600020905b81548152906001019060200180831161082057829003601f168201915b5050505050908060010154908060020160009054906101000a900473ffffffffffffffffffffffffffffffffffffffff16908060030160009054906101000a900473ffffffffffffffffffffffffffffffffffffffff16905084565b60008060009054906101000a900473ffffffffffffffffffffffffffffffffffffffff16905090565b60015481565b6108d0610a95565b73ffffffffffffffffffffffffffffffffffffffff166108ee610899565b73ffffffffffffffffffffffffffffffffffffffff1614610944576040517f08c379a000000000000000000000000000000000000000000000000000000000815260040161093b906110ea565b60405180910390fd5b8060086000600154815260200190815260200160002060020160006101000a81548173ffffffffffffffffffffffffffffffffffffffff021916908373ffffffffffffffffffffffffffffffffffffffff16021790555050565b6109a6610a95565b73ffffffffffffffffffffffffffffffffffffffff166109c4610899565b73ffffffffffffffffffffffffffffffffffffffff1614610a1a576040517f08c379a0000000000000000000000000000000000000000000000000000000008152600401610a11906110ea565b60405180910390fd5b600073ffffffffffffffffffffffffffffffffffffffff168173ffffffffffffffffffffffffffffffffffffffff1603610a89576040517f08c379a0000000000000000000000000000000000000000000000000000000008152600401610a8090611738565b60405180910390fd5b610a9281610b71565b50565b600033905090565b60006040517f3d602d80600a3d3981f3363d3d373d3d3d363d7300000000000000000000000081528260601b60148201527f5af43d82803e903d91602b57fd5bf3000000000000000000000000000000000060288201526037816000f0915050600073ffffffffffffffffffffffffffffffffffffffff168173ffffffffffffffffffffffffffffffffffffffff1603610b6c576040517f08c379a0000000000000000000000000000000000000000000000000000000008152600401610b63906117a4565b60405180910390fd5b919050565b60008060009054906101000a900473ffffffffffffffffffffffffffffffffffffffff169050816000806101000a81548173ffffffffffffffffffffffffffffffffffffffff021916908373ffffffffffffffffffffffffffffffffffffffff1602179055508173ffffffffffffffffffffffffffffffffffffffff168173ffffffffffffffffffffffffffffffffffffffff167f8be0079c531659141344cd1fd0a4f28419497f9722a3daafe3b4186f6b6457e060405160405180910390a35050565b600073ffffffffffffffffffffffffffffffffffffffff82169050919050565b6000610c6082610c35565b9050919050565b610c7081610c55565b82525050565b6000602082019050610c8b6000830184610c67565b92915050565b6000604051905090565b600080fd5b600080fd5b600080fd5b600080fd5b6000601f19601f8301169050919050565b7f4e487b7100000000000000000000000000000000000000000000000000000000600052604160045260246000fd5b610cf882610caf565b810181811067ffffffffffffffff82111715610d1757610d16610cc0565b5b80604052505050565b6000610d2a610c91565b9050610d368282610cef565b919050565b600067ffffffffffffffff821115610d5657610d55610cc0565b5b610d5f82610caf565b9050602081019050919050565b82818337600083830152505050565b6000610d8e610d8984610d3b565b610d20565b905082815260208101848484011115610daa57610da9610caa565b5b610db5848285610d6c565b509392505050565b600082601f830112610dd257610dd1610ca5565b5b8135610de2848260208601610d7b565b91505092915050565b6000819050919050565b610dfe81610deb565b8114610e0957600080fd5b50565b600081359050610e1b81610df5565b92915050565b610e2a81610c55565b8114610e3557600080fd5b50565b600081359050610e4781610e21565b92915050565b60008060008060008060008060006101208a8c031215610e7057610e6f610c9b565b5b60008a013567ffffffffffffffff811115610e8e57610e8d610ca0565b5b610e9a8c828d01610dbd565b99505060208a013567ffffffffffffffff811115610ebb57610eba610ca0565b5b610ec78c828d01610dbd565b9850506040610ed88c828d01610e0c565b9750506060610ee98c828d01610e0c565b9650506080610efa8c828d01610e0c565b95505060a0610f0b8c828d01610e38565b94505060c0610f1c8c828d01610e38565b93505060e0610f2d8c828d01610e38565b925050610100610f3f8c828d01610e38565b9150509295985092959850929598565b600060208284031215610f6557610f64610c9b565b5b6000610f7384828501610e0c565b91505092915050565b600081519050919050565b600082825260208201905092915050565b60005b83811015610fb6578082015181840152602081019050610f9b565b60008484015250505050565b6000610fcd82610f7c565b610fd78185610f87565b9350610fe7818560208601610f98565b610ff081610caf565b840191505092915050565b61100481610deb565b82525050565b600060808201905081810360008301526110248187610fc2565b90506110336020830186610ffb565b6110406040830185610c67565b61104d6060830184610c67565b95945050505050565b600060208201905061106b6000830184610ffb565b92915050565b60006020828403121561108757611086610c9b565b5b600061109584828501610e38565b91505092915050565b7f4f776e61626c653a2063616c6c6572206973206e6f7420746865206f776e6572600082015250565b60006110d4602083610f87565b91506110df8261109e565b602082019050919050565b60006020820190508181036000830152611103816110c7565b9050919050565b7f4e6f2062616e6720696d706c656d656e746174696f6e206f6e2063757272656e60008201527f7420436f736d6f00000000000000000000000000000000000000000000000000602082015250565b6000611166602783610f87565b91506111718261110a565b604082019050919050565b6000602082019050818103600083015261119581611159565b9050919050565b600060e0820190506111b1600083018a610c67565b6111be6020830189610c67565b6111cb6040830188610c67565b6111d86060830187610c67565b6111e56080830186610c67565b6111f260a0830185610ffb565b6111ff60c0830184610ffb565b98975050505050505050565b60008151905061121a81610e21565b92915050565b60006020828403121561123657611235610c9b565b5b60006112448482850161120b565b91505092915050565b7f4e487b7100000000000000000000000000000000000000000000000000000000600052601160045260246000fd5b600061128782610deb565b915061129283610deb565b92508282026112a081610deb565b915082820484148315176112b7576112b661124d565b5b5092915050565b60006112c982610deb565b91506112d483610deb565b92508282019050808211156112ec576112eb61124d565b5b92915050565b60006040820190506113076000830185610c67565b6113146020830184610ffb565b9392505050565b600060a08201905081810360008301526113358188610fc2565b905081810360208301526113498187610fc2565b90506113586040830186610ffb565b6113656060830185610c67565b6113726080830184610c67565b9695505050505050565b7f4e487b7100000000000000000000000000000000000000000000000000000000600052602260045260246000fd5b600060028204905060018216806113c357607f821691505b6020821081036113d6576113d561137c565b5b50919050565b60008190508160005260206000209050919050565b60006020601f8301049050919050565b600082821b905092915050565b60006008830261143e7fffffffffffffffffffffffffffffffffffffffffffffffffffffffffffffffff82611401565b6114488683611401565b95508019841693508086168417925050509392505050565b6000819050919050565b600061148561148061147b84610deb565b611460565b610deb565b9050919050565b6000819050919050565b61149f8361146a565b6114b36114ab8261148c565b84845461140e565b825550505050565b600090565b6114c86114bb565b6114d3818484611496565b505050565b5b818110156114f7576114ec6000826114c0565b6001810190506114d9565b5050565b601f82111561153c5761150d816113dc565b611516846113f1565b81016020851015611525578190505b611539611531856113f1565b8301826114d8565b50505b505050565b600082821c905092915050565b600061155f60001984600802611541565b1980831691505092915050565b6000611578838361154e565b9150826002028217905092915050565b61159182610f7c565b67ffffffffffffffff8111156115aa576115a9610cc0565b5b6115b482546113ab565b6115bf8282856114fb565b600060209050601f8311600181146115f257600084156115e0578287015190505b6115ea858261156c565b865550611652565b601f198416611600866113dc565b60005b8281101561162857848901518255600182019150602085019450602081019050611603565b868310156116455784890151611641601f89168261154e565b8355505b6001600288020188555050505b505050505050565b7f53616d6520636f736d6f20696e64657800000000000000000000000000000000600082015250565b6000611690601083610f87565b915061169b8261165a565b602082019050919050565b600060208201905081810360008301526116bf81611683565b9050919050565b7f4f776e61626c653a206e6577206f776e657220697320746865207a65726f206160008201527f6464726573730000000000000000000000000000000000000000000000000000602082015250565b6000611722602683610f87565b915061172d826116c6565b604082019050919050565b6000602082019050818103600083015261175181611715565b9050919050565b7f455243313136373a20637265617465206661696c656400000000000000000000600082015250565b600061178e601683610f87565b915061179982611758565b602082019050919050565b600060208201905081810360008301526117bd81611781565b905091905056fea2646970667358221220126674e7625016b7938874825758a0b5c50f5d3af9175d402b096a55d4f35fae64736f6c6343000811003360806040523480156200001157600080fd5b5060405162001df638038062001df68339818101604052810190620000379190620001fa565b818181600390816200004a9190620004ca565b5080600490816200005c9190620004ca565b5050505050620005b1565b6000604051905090565b600080fd5b600080fd5b600080fd5b600080fd5b6000601f19601f8301169050919050565b7f4e487b7100000000000000000000000000000000000000000000000000000000600052604160045260246000fd5b620000d08262000085565b810181811067ffffffffffffffff82111715620000f257620000f162000096565b5b80604052505050565b60006200010762000067565b9050620001158282620000c5565b919050565b600067ffffffffffffffff82111562000138576200013762000096565b5b620001438262000085565b9050602081019050919050565b60005b838110156200017057808201518184015260208101905062000153565b60008484015250505050565b6000620001936200018d846200011a565b620000fb565b905082815260208101848484011115620001b257620001b162000080565b5b620001bf84828562000150565b509392505050565b600082601f830112620001df57620001de6200007b565b5b8151620001f18482602086016200017c565b91505092915050565b6000806040838503121562000214576200021362000071565b5b600083015167ffffffffffffffff81111562000235576200023462000076565b5b6200024385828601620001c7565b925050602083015167ffffffffffffffff81111562000267576200026662000076565b5b6200027585828601620001c7565b9150509250929050565b600081519050919050565b7f4e487b7100000000000000000000000000000000000000000000000000000000600052602260045260246000fd5b60006002820490506001821680620002d257607f821691505b602082108103620002e857620002e76200028a565b5b50919050565b60008190508160005260206000209050919050565b60006020601f8301049050919050565b600082821b905092915050565b600060088302620003527fffffffffffffffffffffffffffffffffffffffffffffffffffffffffffffffff8262000313565b6200035e868362000313565b95508019841693508086168417925050509392505050565b6000819050919050565b6000819050919050565b6000620003ab620003a56200039f8462000376565b62000380565b62000376565b9050919050565b6000819050919050565b620003c7836200038a565b620003df620003d682620003b2565b84845462000320565b825550505050565b600090565b620003f6620003e7565b62000403818484620003bc565b505050565b5b818110156200042b576200041f600082620003ec565b60018101905062000409565b5050565b601f8211156200047a576200044481620002ee565b6200044f8462000303565b810160208510156200045f578190505b620004776200046e8562000303565b83018262000408565b50505b505050565b600082821c905092915050565b60006200049f600019846008026200047f565b1980831691505092915050565b6000620004ba83836200048c565b9150826002028217905092915050565b620004d5826200027f565b67ffffffffffffffff811115620004f157620004f062000096565b5b620004fd8254620002b9565b6200050a8282856200042f565b600060209050601f8311600181146200054257600084156200052d578287015190505b620005398582620004ac565b865550620005a9565b601f1984166200055286620002ee565b60005b828110156200057c5784890151825560018201915060208501945060208101905062000555565b868310156200059c578489015162000598601f8916826200048c565b8355505b6001600288020188555050505b505050505050565b61183580620005c16000396000f3fe608060405234801561001057600080fd5b50600436106100ea5760003560e01c80634bbc1bcd1161008c57806395d89b411161006657806395d89b411461025d578063a457c2d71461027b578063a9059cbb146102ab578063dd62ed3e146102db576100ea565b80634bbc1bcd146101f557806370a082311461021157806379cc679014610241576100ea565b806323b872dd116100c857806323b872dd1461015b578063313ce5671461018b57806339509351146101a957806342966c68146101d9576100ea565b806306fdde03146100ef578063095ea7b31461010d57806318160ddd1461013d575b600080fd5b6100f761030b565b6040516101049190610f21565b60405180910390f35b61012760048036038101906101229190610fdc565b61039d565b6040516101349190611037565b60405180910390f35b6101456103c0565b6040516101529190611061565b60405180910390f35b6101756004803603810190610170919061107c565b6103ca565b6040516101829190611037565b60405180910390f35b6101936103f9565b6040516101a091906110eb565b60405180910390f35b6101c360048036038101906101be9190610fdc565b610402565b6040516101d09190611037565b60405180910390f35b6101f360048036038101906101ee9190611106565b610439565b005b61020f600480360381019061020a9190610fdc565b61044d565b005b61022b60048036038101906102269190611133565b61045b565b6040516102389190611061565b60405180910390f35b61025b60048036038101906102569190610fdc565b6104a3565b005b6102656104c3565b6040516102729190610f21565b60405180910390f35b61029560048036038101906102909190610fdc565b610555565b6040516102a29190611037565b60405180910390f35b6102c560048036038101906102c09190610fdc565b6105cc565b6040516102d29190611037565b60405180910390f35b6102f560048036038101906102f09190611160565b6105ef565b6040516103029190611061565b60405180910390f35b60606003805461031a906111cf565b80601f0160208091040260200160405190810160405280929190818152602001828054610346906111cf565b80156103935780601f1061036857610100808354040283529160200191610393565b820191906000526020600020905b81548152906001019060200180831161037657829003601f168201915b5050505050905090565b6000806103a8610676565b90506103b581858561067e565b600191505092915050565b6000600254905090565b6000806103d5610676565b90506103e2858285610847565b6103ed8585856108d3565b60019150509392505050565b60006012905090565b60008061040d610676565b905061042e81858561041f85896105ef565b610429919061122f565b61067e565b600191505092915050565b61044a610444610676565b82610b52565b50565b6104578282610d28565b5050565b60008060008373ffffffffffffffffffffffffffffffffffffffff1673ffffffffffffffffffffffffffffffffffffffff168152602001908152602001600020549050919050565b6104b5826104af610676565b83610847565b6104bf8282610b52565b5050565b6060600480546104d2906111cf565b80601f01602080910402602001604051908101604052809291908181526020018280546104fe906111cf565b801561054b5780601f106105205761010080835404028352916020019161054b565b820191906000526020600020905b81548152906001019060200180831161052e57829003601f168201915b5050505050905090565b600080610560610676565b9050600061056e82866105ef565b9050838110156105b3576040517f08c379a00000000000000000000000000000000000000000000000000000000081526004016105aa906112d5565b60405180910390fd5b6105c0828686840361067e565b60019250505092915050565b6000806105d7610676565b90506105e48185856108d3565b600191505092915050565b6000600160008473ffffffffffffffffffffffffffffffffffffffff1673ffffffffffffffffffffffffffffffffffffffff16815260200190815260200160002060008373ffffffffffffffffffffffffffffffffffffffff1673ffffffffffffffffffffffffffffffffffffffff16815260200190815260200160002054905092915050565b600033905090565b600073ffffffffffffffffffffffffffffffffffffffff168373ffffffffffffffffffffffffffffffffffffffff16036106ed576040517f08c379a00000000000000000000000000000000000000000000000000000000081526004016106e490611367565b60405180910390fd5b600073ffffffffffffffffffffffffffffffffffffffff168273ffffffffffffffffffffffffffffffffffffffff160361075c576040517f08c379a0000000000000000000000000000000000000000000000000000000008152600401610753906113f9565b60405180910390fd5b80600160008573ffffffffffffffffffffffffffffffffffffffff1673ffffffffffffffffffffffffffffffffffffffff16815260200190815260200160002060008473ffffffffffffffffffffffffffffffffffffffff1673ffffffffffffffffffffffffffffffffffffffff168152602001908152602001600020819055508173ffffffffffffffffffffffffffffffffffffffff168373ffffffffffffffffffffffffffffffffffffffff167f8c5be1e5ebec7d5bd14f71427d1e84f3dd0314c0f7b2291e5b200ac8c7c3b9258360405161083a9190611061565b60405180910390a3505050565b600061085384846105ef565b90507fffffffffffffffffffffffffffffffffffffffffffffffffffffffffffffffff81146108cd57818110156108bf576040517f08c379a00000000000000000000000000000000000000000000000000000000081526004016108b690611465565b60405180910390fd5b6108cc848484840361067e565b5b50505050565b600073ffffffffffffffffffffffffffffffffffffffff168373ffffffffffffffffffffffffffffffffffffffff1603610942576040517f08c379a0000000000000000000000000000000000000000000000000000000008152600401610939906114f7565b60405180910390fd5b600073ffffffffffffffffffffffffffffffffffffffff168273ffffffffffffffffffffffffffffffffffffffff16036109b1576040517f08c379a00000000000000000000000000000000000000000000000000000000081526004016109a890611589565b60405180910390fd5b6109bc838383610e87565b60008060008573ffffffffffffffffffffffffffffffffffffffff1673ffffffffffffffffffffffffffffffffffffffff16815260200190815260200160002054905081811015610a42576040517f08c379a0000000000000000000000000000000000000000000000000000000008152600401610a399061161b565b60405180910390fd5b8181036000808673ffffffffffffffffffffffffffffffffffffffff1673ffffffffffffffffffffffffffffffffffffffff16815260200190815260200160002081905550816000808573ffffffffffffffffffffffffffffffffffffffff1673ffffffffffffffffffffffffffffffffffffffff1681526020019081526020016000206000828254610ad5919061122f565b925050819055508273ffffffffffffffffffffffffffffffffffffffff168473ffffffffffffffffffffffffffffffffffffffff167fddf252ad1be2c89b69c2b068fc378daa952ba7f163c4a11628f55a4df523b3ef84604051610b399190611061565b60405180910390a3610b4c848484610e8c565b50505050565b600073ffffffffffffffffffffffffffffffffffffffff168273ffffffffffffffffffffffffffffffffffffffff1603610bc1576040517f08c379a0000000000000000000000000000000000000000000000000000000008152600401610bb8906116ad565b60405180910390fd5b610bcd82600083610e87565b60008060008473ffffffffffffffffffffffffffffffffffffffff1673ffffffffffffffffffffffffffffffffffffffff16815260200190815260200160002054905081811015610c53576040517f08c379a0000000000000000000000000000000000000000000000000000000008152600401610c4a9061173f565b60405180910390fd5b8181036000808573ffffffffffffffffffffffffffffffffffffffff1673ffffffffffffffffffffffffffffffffffffffff168152602001908152602001600020819055508160026000828254610caa919061175f565b92505081905550600073ffffffffffffffffffffffffffffffffffffffff168373ffffffffffffffffffffffffffffffffffffffff167fddf252ad1be2c89b69c2b068fc378daa952ba7f163c4a11628f55a4df523b3ef84604051610d0f9190611061565b60405180910390a3610d2383600084610e8c565b505050565b600073ffffffffffffffffffffffffffffffffffffffff168273ffffffffffffffffffffffffffffffffffffffff1603610d97576040517f08c379a0000000000000000000000000000000000000000000000000000000008152600401610d8e906117df565b60405180910390fd5b610da360008383610e87565b8060026000828254610db5919061122f565b92505081905550806000808473ffffffffffffffffffffffffffffffffffffffff1673ffffffffffffffffffffffffffffffffffffffff1681526020019081526020016000206000828254610e0a919061122f565b925050819055508173ffffffffffffffffffffffffffffffffffffffff16600073ffffffffffffffffffffffffffffffffffffffff167fddf252ad1be2c89b69c2b068fc378daa952ba7f163c4a11628f55a4df523b3ef83604051610e6f9190611061565b60405180910390a3610e8360008383610e8c565b5050565b505050565b505050565b600081519050919050565b600082825260208201905092915050565b60005b83811015610ecb578082015181840152602081019050610eb0565b60008484015250505050565b6000601f19601f8301169050919050565b6000610ef382610e91565b610efd8185610e9c565b9350610f0d818560208601610ead565b610f1681610ed7565b840191505092915050565b60006020820190508181036000830152610f3b8184610ee8565b905092915050565b600080fd5b600073ffffffffffffffffffffffffffffffffffffffff82169050919050565b6000610f7382610f48565b9050919050565b610f8381610f68565b8114610f8e57600080fd5b50565b600081359050610fa081610f7a565b92915050565b6000819050919050565b610fb981610fa6565b8114610fc457600080fd5b50565b600081359050610fd681610fb0565b92915050565b60008060408385031215610ff357610ff2610f43565b5b600061100185828601610f91565b925050602061101285828601610fc7565b9150509250929050565b60008115159050919050565b6110318161101c565b82525050565b600060208201905061104c6000830184611028565b92915050565b61105b81610fa6565b82525050565b60006020820190506110766000830184611052565b92915050565b60008060006060848603121561109557611094610f43565b5b60006110a386828701610f91565b93505060206110b486828701610f91565b92505060406110c586828701610fc7565b9150509250925092565b600060ff82169050919050565b6110e5816110cf565b82525050565b600060208201905061110060008301846110dc565b92915050565b60006020828403121561111c5761111b610f43565b5b600061112a84828501610fc7565b91505092915050565b60006020828403121561114957611148610f43565b5b600061115784828501610f91565b91505092915050565b6000806040838503121561117757611176610f43565b5b600061118585828601610f91565b925050602061119685828601610f91565b9150509250929050565b7f4e487b7100000000000000000000000000000000000000000000000000000000600052602260045260246000fd5b600060028204905060018216806111e757607f821691505b6020821081036111fa576111f96111a0565b5b50919050565b7f4e487b7100000000000000000000000000000000000000000000000000000000600052601160045260246000fd5b600061123a82610fa6565b915061124583610fa6565b925082820190508082111561125d5761125c611200565b5b92915050565b7f45524332303a2064656372656173656420616c6c6f77616e63652062656c6f7760008201527f207a65726f000000000000000000000000000000000000000000000000000000602082015250565b60006112bf602583610e9c565b91506112ca82611263565b604082019050919050565b600060208201905081810360008301526112ee816112b2565b9050919050565b7f45524332303a20617070726f76652066726f6d20746865207a65726f2061646460008201527f7265737300000000000000000000000000000000000000000000000000000000602082015250565b6000611351602483610e9c565b915061135c826112f5565b604082019050919050565b6000602082019050818103600083015261138081611344565b9050919050565b7f45524332303a20617070726f766520746f20746865207a65726f20616464726560008201527f7373000000000000000000000000000000000000000000000000000000000000602082015250565b60006113e3602283610e9c565b91506113ee82611387565b604082019050919050565b60006020820190508181036000830152611412816113d6565b9050919050565b7f45524332303a20696e73756666696369656e7420616c6c6f77616e6365000000600082015250565b600061144f601d83610e9c565b915061145a82611419565b602082019050919050565b6000602082019050818103600083015261147e81611442565b9050919050565b7f45524332303a207472616e736665722066726f6d20746865207a65726f20616460008201527f6472657373000000000000000000000000000000000000000000000000000000602082015250565b60006114e1602583610e9c565b91506114ec82611485565b604082019050919050565b60006020820190508181036000830152611510816114d4565b9050919050565b7f45524332303a207472616e7366657220746f20746865207a65726f206164647260008201527f6573730000000000000000000000000000000000000000000000000000000000602082015250565b6000611573602383610e9c565b915061157e82611517565b604082019050919050565b600060208201905081810360008301526115a281611566565b9050919050565b7f45524332303a207472616e7366657220616d6f756e742065786365656473206260008201527f616c616e63650000000000000000000000000000000000000000000000000000602082015250565b6000611605602683610e9c565b9150611610826115a9565b604082019050919050565b60006020820190508181036000830152611634816115f8565b9050919050565b7f45524332303a206275726e2066726f6d20746865207a65726f2061646472657360008201527f7300000000000000000000000000000000000000000000000000000000000000602082015250565b6000611697602183610e9c565b91506116a28261163b565b604082019050919050565b600060208201905081810360008301526116c68161168a565b9050919050565b7f45524332303a206275726e20616d6f756e7420657863656564732062616c616e60008201527f6365000000000000000000000000000000000000000000000000000000000000602082015250565b6000611729602283610e9c565b9150611734826116cd565b604082019050919050565b600060208201905081810360008301526117588161171c565b9050919050565b600061176a82610fa6565b915061177583610fa6565b925082820390508181111561178d5761178c611200565b5b92915050565b7f45524332303a206d696e7420746f20746865207a65726f206164647265737300600082015250565b60006117c9601f83610e9c565b91506117d482611793565b602082019050919050565b600060208201905081810360008301526117f8816117bc565b905091905056fea2646970667358221220651af7018f891595fa313c1ee4d501140df4ba53bebe4bafe45b5d16a2faa6ee64736f6c63430008110033",
  "immutableReferences": {},
  "source": "// SPDX-License-Identifier: MIT\npragma solidity ^0.8.7;\n\nimport \"openzeppelin-solidity/contracts/access/Ownable.sol\";\nimport { Clones } from \"openzeppelin-solidity/contracts/proxy/Clones.sol\";\nimport \"./CosmoMatter.sol\";\nimport \"./CosmoBang.sol\";\n\n/**\n * CosmoUniverse is the top contract for the developer to create the planned system.\n * The creation of this contract creates an ERC20 coin called CosmoMatter.\n * The owner of this contract has the option to create a big bang starting the CosmoNuts universe.\n * Each universe is comprised of an NFT collection and a Treasury to manage funds of that NFT collection.\n */\n contract CosmoUniverse is Ownable {\n\n     uint256 public COSMO_INDEX = 0;\n     address public SYSTEM_ADDRESS;\n     address public MATTER_ADDRESS;\n\n     struct Bang {\n         string name;\n         uint256 matterNeeded;\n         address implementation;\n         address cosmo;\n     }\n     Bang bang;\n     mapping(uint256 => Bang) public bangs;\n\n     CosmoMatter matter;\n\n     constructor(\n         address _systemAddress,\n         string memory _matterName,\n         string memory _matterSymbol\n     )\n     {\n         SYSTEM_ADDRESS = _systemAddress;\n         matter = new CosmoMatter(_matterName, _matterSymbol);\n         MATTER_ADDRESS = address(matter);\n     }\n\n     function changeCosmoIndex(uint256 _newCosmoIndex) public onlyOwner {\n         require(COSMO_INDEX != _newCosmoIndex, \"Same cosmo index\");\n         COSMO_INDEX = _newCosmoIndex;\n     }\n\n     function setImplementation(address _implementationAddress) public onlyOwner {\n         bangs[COSMO_INDEX].implementation = _implementationAddress;\n     }\n\n     function bigBang(\n         string memory _cosmosName,\n         string memory _cosmosSymbol,\n         uint256 _desiredEntities,\n         uint256 _price,\n         uint256 _rate,\n         address _treasuryImplementation,\n         address _seedImplementation,\n         address _butterImplementation,\n         address _vaultImplementation\n     ) public onlyOwner returns (address cosmoAddress) {\n         require(bangs[COSMO_INDEX].implementation != address(0), \"No bang implementation on current Cosmo\");\n         CosmoBang cosmobang = CosmoBang(Clones.clone(bangs[COSMO_INDEX].implementation));\n         address treasuryAddress = cosmobang.initialize(\n             SYSTEM_ADDRESS,\n             MATTER_ADDRESS,\n             _treasuryImplementation,\n             _seedImplementation,\n             _butterImplementation,\n             _price,\n             _rate\n         );\n\n         bangs[COSMO_INDEX].matterNeeded = (_price * _rate) + 1;\n         CosmoMatter(MATTER_ADDRESS).mintMatter(\n             treasuryAddress,\n             bangs[COSMO_INDEX].matterNeeded\n         );\n\n         cosmoAddress = cosmobang.createCosmo(\n             _cosmosName,\n             _cosmosSymbol,\n             _desiredEntities,\n             treasuryAddress,\n             _vaultImplementation\n         );\n\n         bangs[COSMO_INDEX].name = _cosmosName;\n         bangs[COSMO_INDEX].cosmo = cosmoAddress;\n\n         return cosmoAddress;\n     }\n\n }\n",
  "sourcePath": "/home/redlentils/Seafile/Websites/avatarnft/contracts/CosmoUniverse.sol",
  "compiler": {
    "name": "solc",
    "version": "0.8.17+commit.8df45f5f.Emscripten.clang"
  },
  "schemaVersion": "3.4.10",
  "updatedAt": "2022-10-20T06:43:59.097Z",
  "devdoc": {
    "kind": "dev",
    "methods": {
      "owner()": {
        "details": "Returns the address of the current owner."
      },
      "renounceOwnership()": {
        "details": "Leaves the contract without owner. It will not be possible to call `onlyOwner` functions anymore. Can only be called by the current owner. NOTE: Renouncing ownership will leave the contract without an owner, thereby removing any functionality that is only available to the owner."
      },
      "transferOwnership(address)": {
        "details": "Transfers ownership of the contract to a new account (`newOwner`). Can only be called by the current owner."
      }
    },
    "version": 1
  },
  "userdoc": {
    "kind": "user",
    "methods": {},
    "notice": "CosmoUniverse is the top contract for the developer to create the planned system. The creation of this contract creates an ERC20 coin called CosmoMatter. The owner of this contract has the option to create a big bang starting the CosmoNuts universe. Each universe is comprised of an NFT collection and a Treasury to manage funds of that NFT collection.",
    "version": 1
  }
}