{
  "contractName": "CosmoBang",
  "abi": [
    {
      "inputs": [
        {
          "internalType": "address",
          "name": "_systemAddress",
          "type": "address"
        },
        {
          "internalType": "address",
          "name": "_matterAddress",
          "type": "address"
        }
      ],
      "stateMutability": "nonpayable",
      "type": "constructor"
    },
    {
      "inputs": [
        {
          "internalType": "string",
          "name": "_cosmosName",
          "type": "string"
        },
        {
          "internalType": "string",
          "name": "_cosmosSymbol",
          "type": "string"
        },
        {
          "internalType": "uint256",
          "name": "_nutPrice",
          "type": "uint256"
        },
        {
          "internalType": "uint256",
          "name": "_nutRate",
          "type": "uint256"
        },
        {
          "internalType": "uint256",
          "name": "_desiredEntities",
          "type": "uint256"
        }
      ],
      "name": "nutBang",
      "outputs": [
        {
          "internalType": "address",
          "name": "",
          "type": "address"
        }
      ],
      "stateMutability": "nonpayable",
      "type": "function"
    }
  ],
  "bytecode": "0x608060405234801561001057600080fd5b506040516200beed3803806200beed83398181016040528101906100349190610121565b8181604051610042906100b0565b61004d929190610170565b604051809103906000f080158015610069573d6000803e3d6000fd5b506000806101000a81548173ffffffffffffffffffffffffffffffffffffffff021916908373ffffffffffffffffffffffffffffffffffffffff1602179055505050610199565b61637b8062005b7283390190565b600080fd5b600073ffffffffffffffffffffffffffffffffffffffff82169050919050565b60006100ee826100c3565b9050919050565b6100fe816100e3565b811461010957600080fd5b50565b60008151905061011b816100f5565b92915050565b60008060408385031215610138576101376100be565b5b60006101468582860161010c565b92505060206101578582860161010c565b9150509250929050565b61016a816100e3565b82525050565b60006040820190506101856000830185610161565b6101926020830184610161565b9392505050565b6159c980620001a96000396000f3fe60806040523480156200001157600080fd5b50600436106200002e5760003560e01c8063436d40e51462000033575b600080fd5b6200005160048036038101906200004b919062000432565b62000069565b6040516200006091906200053d565b60405180910390f35b60008060009054906101000a900473ffffffffffffffffffffffffffffffffffffffff1673ffffffffffffffffffffffffffffffffffffffff16635e14a4788585856040518463ffffffff1660e01b8152600401620000cb939291906200056b565b600060405180830381600087803b158015620000e657600080fd5b505af1158015620000fb573d6000803e3d6000fd5b50505050600086868460008054906101000a900473ffffffffffffffffffffffffffffffffffffffff1673ffffffffffffffffffffffffffffffffffffffff16633434735f6040518163ffffffff1660e01b8152600401602060405180830381865afa15801562000170573d6000803e3d6000fd5b505050506040513d601f19601f82011682018060405250810190620001969190620005d9565b60008054906101000a900473ffffffffffffffffffffffffffffffffffffffff1673ffffffffffffffffffffffffffffffffffffffff166307604b1a6040518163ffffffff1660e01b8152600401602060405180830381865afa15801562000202573d6000803e3d6000fd5b505050506040513d601f19601f82011682018060405250810190620002289190620005d9565b604051620002369062000273565b6200024695949392919062000694565b604051809103906000f08015801562000263573d6000803e3d6000fd5b5090508091505095945050505050565b615294806200070083390190565b6000604051905090565b600080fd5b600080fd5b600080fd5b600080fd5b6000601f19601f8301169050919050565b7f4e487b7100000000000000000000000000000000000000000000000000000000600052604160045260246000fd5b620002ea826200029f565b810181811067ffffffffffffffff821117156200030c576200030b620002b0565b5b80604052505050565b60006200032162000281565b90506200032f8282620002df565b919050565b600067ffffffffffffffff821115620003525762000351620002b0565b5b6200035d826200029f565b9050602081019050919050565b82818337600083830152505050565b6000620003906200038a8462000334565b62000315565b905082815260208101848484011115620003af57620003ae6200029a565b5b620003bc8482856200036a565b509392505050565b600082601f830112620003dc57620003db62000295565b5b8135620003ee84826020860162000379565b91505092915050565b6000819050919050565b6200040c81620003f7565b81146200041857600080fd5b50565b6000813590506200042c8162000401565b92915050565b600080600080600060a086880312156200045157620004506200028b565b5b600086013567ffffffffffffffff81111562000472576200047162000290565b5b6200048088828901620003c4565b955050602086013567ffffffffffffffff811115620004a457620004a362000290565b5b620004b288828901620003c4565b9450506040620004c5888289016200041b565b9350506060620004d8888289016200041b565b9250506080620004eb888289016200041b565b9150509295509295909350565b600073ffffffffffffffffffffffffffffffffffffffff82169050919050565b60006200052582620004f8565b9050919050565b620005378162000518565b82525050565b60006020820190506200055460008301846200052c565b92915050565b6200056581620003f7565b82525050565b60006060820190506200058260008301866200055a565b6200059160208301856200055a565b620005a060408301846200055a565b949350505050565b620005b38162000518565b8114620005bf57600080fd5b50565b600081519050620005d381620005a8565b92915050565b600060208284031215620005f257620005f16200028b565b5b60006200060284828501620005c2565b91505092915050565b600081519050919050565b600082825260208201905092915050565b60005b83811015620006475780820151818401526020810190506200062a565b60008484015250505050565b600062000660826200060b565b6200066c818562000616565b93506200067e81856020860162000627565b62000689816200029f565b840191505092915050565b600060a0820190508181036000830152620006b0818862000653565b90508181036020830152620006c6818762000653565b9050620006d760408301866200055a565b620006e660608301856200052c565b620006f560808301846200052c565b969550505050505056fe60806040526000600d60146101000a81548160ff0219169083151502179055503480156200002c57600080fd5b5060405162005294380380620052948339818101604052810190620000529190620004ca565b8484848383838160009081620000699190620007d1565b5080600190816200007b9190620007d1565b5050506200009e62000092620001c960201b60201c565b620001d160201b60201c565b81600c8190555080600e60006101000a81548173ffffffffffffffffffffffffffffffffffffffff021916908373ffffffffffffffffffffffffffffffffffffffff160217905550600e60009054906101000a900473ffffffffffffffffffffffffffffffffffffffff1673ffffffffffffffffffffffffffffffffffffffff166307604b1a6040518163ffffffff1660e01b8152600401602060405180830381865afa15801562000154573d6000803e3d6000fd5b505050506040513d601f19601f820116820180604052508101906200017a9190620008b8565b600d60006101000a81548173ffffffffffffffffffffffffffffffffffffffff021916908373ffffffffffffffffffffffffffffffffffffffff160217905550505050505050505050620008ea565b600033905090565b6000600b60009054906101000a900473ffffffffffffffffffffffffffffffffffffffff16905081600b60006101000a81548173ffffffffffffffffffffffffffffffffffffffff021916908373ffffffffffffffffffffffffffffffffffffffff1602179055508173ffffffffffffffffffffffffffffffffffffffff168173ffffffffffffffffffffffffffffffffffffffff167f8be0079c531659141344cd1fd0a4f28419497f9722a3daafe3b4186f6b6457e060405160405180910390a35050565b6000604051905090565b600080fd5b600080fd5b600080fd5b600080fd5b6000601f19601f8301169050919050565b7f4e487b7100000000000000000000000000000000000000000000000000000000600052604160045260246000fd5b6200030082620002b5565b810181811067ffffffffffffffff82111715620003225762000321620002c6565b5b80604052505050565b60006200033762000297565b9050620003458282620002f5565b919050565b600067ffffffffffffffff821115620003685762000367620002c6565b5b6200037382620002b5565b9050602081019050919050565b60005b83811015620003a057808201518184015260208101905062000383565b60008484015250505050565b6000620003c3620003bd846200034a565b6200032b565b905082815260208101848484011115620003e257620003e1620002b0565b5b620003ef84828562000380565b509392505050565b600082601f8301126200040f576200040e620002ab565b5b815162000421848260208601620003ac565b91505092915050565b6000819050919050565b6200043f816200042a565b81146200044b57600080fd5b50565b6000815190506200045f8162000434565b92915050565b600073ffffffffffffffffffffffffffffffffffffffff82169050919050565b6000620004928262000465565b9050919050565b620004a48162000485565b8114620004b057600080fd5b50565b600081519050620004c48162000499565b92915050565b600080600080600060a08688031215620004e957620004e8620002a1565b5b600086015167ffffffffffffffff8111156200050a5762000509620002a6565b5b6200051888828901620003f7565b955050602086015167ffffffffffffffff8111156200053c576200053b620002a6565b5b6200054a88828901620003f7565b94505060406200055d888289016200044e565b93505060606200057088828901620004b3565b92505060806200058388828901620004b3565b9150509295509295909350565b600081519050919050565b7f4e487b7100000000000000000000000000000000000000000000000000000000600052602260045260246000fd5b60006002820490506001821680620005e357607f821691505b602082108103620005f957620005f86200059b565b5b50919050565b60008190508160005260206000209050919050565b60006020601f8301049050919050565b600082821b905092915050565b600060088302620006637fffffffffffffffffffffffffffffffffffffffffffffffffffffffffffffffff8262000624565b6200066f868362000624565b95508019841693508086168417925050509392505050565b6000819050919050565b6000620006b2620006ac620006a6846200042a565b62000687565b6200042a565b9050919050565b6000819050919050565b620006ce8362000691565b620006e6620006dd82620006b9565b84845462000631565b825550505050565b600090565b620006fd620006ee565b6200070a818484620006c3565b505050565b5b81811015620007325762000726600082620006f3565b60018101905062000710565b5050565b601f82111562000781576200074b81620005ff565b620007568462000614565b8101602085101562000766578190505b6200077e620007758562000614565b8301826200070f565b50505b505050565b600082821c905092915050565b6000620007a66000198460080262000786565b1980831691505092915050565b6000620007c1838362000793565b9150826002028217905092915050565b620007dc8262000590565b67ffffffffffffffff811115620007f857620007f7620002c6565b5b620008048254620005ca565b6200081182828562000736565b600060209050601f83116001811462000849576000841562000834578287015190505b620008408582620007b3565b865550620008b0565b601f1984166200085986620005ff565b60005b8281101562000883578489015182556001820191506020850194506020810190506200085c565b86831015620008a357848901516200089f601f89168262000793565b8355505b6001600288020188555050505b505050505050565b600060208284031215620008d157620008d0620002a1565b5b6000620008e184828501620004b3565b91505092915050565b61499a80620008fa6000396000f3fe6080604052600436106101b75760003560e01c806371ebbef4116100ec578063b88d4fde1161008a578063eb8d244411610064578063eb8d2444146105fb578063eedc765414610626578063f23c95831461064f578063f2fde38b1461066b576101b7565b8063b88d4fde14610558578063c87b56dd14610581578063e985e9c5146105be576101b7565b806395d89b41116100c657806395d89b41146104bf57806395f04d05146104ea578063a0e12efe14610506578063a22cb4651461052f576101b7565b806371ebbef4146104405780638da5cb5b1461046b5780639202c1ec14610496576101b7565b806334918dfd116101595780634f6ccce7116101335780634f6ccce7146103725780636352211e146103af57806370a08231146103ec578063715018a614610429576101b7565b806334918dfd1461031b5780633ccfd60b1461033257806342842e0e14610349576101b7565b8063095ea7b311610195578063095ea7b31461026157806318160ddd1461028a57806323b872dd146102b55780632f745c59146102de576101b7565b806301ffc9a7146101bc57806306fdde03146101f9578063081812fc14610224575b600080fd5b3480156101c857600080fd5b506101e360048036038101906101de9190612bf6565b610694565b6040516101f09190612c3e565b60405180910390f35b34801561020557600080fd5b5061020e6106a6565b60405161021b9190612ce9565b60405180910390f35b34801561023057600080fd5b5061024b60048036038101906102469190612d41565b610738565b6040516102589190612daf565b60405180910390f35b34801561026d57600080fd5b5061028860048036038101906102839190612df6565b6107bd565b005b34801561029657600080fd5b5061029f6108d4565b6040516102ac9190612e45565b60405180910390f35b3480156102c157600080fd5b506102dc60048036038101906102d79190612e60565b6108e1565b005b3480156102ea57600080fd5b5061030560048036038101906103009190612df6565b610941565b6040516103129190612e45565b60405180910390f35b34801561032757600080fd5b506103306109e6565b005b34801561033e57600080fd5b50610347610a8e565b005b34801561035557600080fd5b50610370600480360381019061036b9190612e60565b610b9c565b005b34801561037e57600080fd5b5061039960048036038101906103949190612d41565b610bbc565b6040516103a69190612e45565b60405180910390f35b3480156103bb57600080fd5b506103d660048036038101906103d19190612d41565b610c2d565b6040516103e39190612daf565b60405180910390f35b3480156103f857600080fd5b50610413600480360381019061040e9190612eb3565b610cde565b6040516104209190612e45565b60405180910390f35b34801561043557600080fd5b5061043e610d95565b005b34801561044c57600080fd5b50610455610e1d565b6040516104629190612e45565b60405180910390f35b34801561047757600080fd5b50610480610e23565b60405161048d9190612daf565b60405180910390f35b3480156104a257600080fd5b506104bd60048036038101906104b891906130b6565b610e4d565b005b3480156104cb57600080fd5b506104d4610e5d565b6040516104e19190612ce9565b60405180910390f35b61050460048036038101906104ff9190613141565b610eef565b005b34801561051257600080fd5b5061052d6004803603810190610528919061318a565b611064565b005b34801561053b57600080fd5b506105566004803603810190610551919061322e565b61108a565b005b34801561056457600080fd5b5061057f600480360381019061057a919061326e565b6110a0565b005b34801561058d57600080fd5b506105a860048036038101906105a39190612d41565b611102565b6040516105b59190612ce9565b60405180910390f35b3480156105ca57600080fd5b506105e560048036038101906105e091906132f1565b611114565b6040516105f29190612c3e565b60405180910390f35b34801561060757600080fd5b506106106111a8565b60405161061d9190612c3e565b60405180910390f35b34801561063257600080fd5b5061064d60048036038101906106489190613367565b6111bb565b005b6106696004803603810190610664919061341a565b6112d4565b005b34801561067757600080fd5b50610692600480360381019061068d9190612eb3565b611436565b005b600061069f8261152d565b9050919050565b6060600080546106b5906134e8565b80601f01602080910402602001604051908101604052809291908181526020018280546106e1906134e8565b801561072e5780601f106107035761010080835404028352916020019161072e565b820191906000526020600020905b81548152906001019060200180831161071157829003601f168201915b5050505050905090565b6000610743826115a7565b610782576040517f08c379a00000000000000000000000000000000000000000000000000000000081526004016107799061358b565b60405180910390fd5b6004600083815260200190815260200160002060009054906101000a900473ffffffffffffffffffffffffffffffffffffffff169050919050565b60006107c882610c2d565b90508073ffffffffffffffffffffffffffffffffffffffff168373ffffffffffffffffffffffffffffffffffffffff1603610838576040517f08c379a000000000000000000000000000000000000000000000000000000000815260040161082f9061361d565b60405180910390fd5b8073ffffffffffffffffffffffffffffffffffffffff16610857611613565b73ffffffffffffffffffffffffffffffffffffffff161480610886575061088581610880611613565b611114565b5b6108c5576040517f08c379a00000000000000000000000000000000000000000000000000000000081526004016108bc906136af565b60405180910390fd5b6108cf838361161b565b505050565b6000600880549050905090565b6108f26108ec611613565b826116d4565b610931576040517f08c379a000000000000000000000000000000000000000000000000000000000815260040161092890613741565b60405180910390fd5b61093c8383836117b2565b505050565b600061094c83610cde565b821061098d576040517f08c379a0000000000000000000000000000000000000000000000000000000008152600401610984906137d3565b60405180910390fd5b600660008473ffffffffffffffffffffffffffffffffffffffff1673ffffffffffffffffffffffffffffffffffffffff168152602001908152602001600020600083815260200190815260200160002054905092915050565b6109ee611613565b73ffffffffffffffffffffffffffffffffffffffff16610a0c610e23565b73ffffffffffffffffffffffffffffffffffffffff1614610a62576040517f08c379a0000000000000000000000000000000000000000000000000000000008152600401610a599061383f565b60405180910390fd5b600d60149054906101000a900460ff1615600d60146101000a81548160ff021916908315150217905550565b610a96611613565b73ffffffffffffffffffffffffffffffffffffffff16610ab4610e23565b73ffffffffffffffffffffffffffffffffffffffff1614610b0a576040517f08c379a0000000000000000000000000000000000000000000000000000000008152600401610b019061383f565b60405180910390fd5b600047905060004711610b52576040517f08c379a0000000000000000000000000000000000000000000000000000000008152600401610b49906138ab565b60405180910390fd5b3373ffffffffffffffffffffffffffffffffffffffff166108fc829081150290604051600060405180830381858888f19350505050158015610b98573d6000803e3d6000fd5b5050565b610bb7838383604051806020016040528060008152506110a0565b505050565b6000610bc66108d4565b8210610c07576040517f08c379a0000000000000000000000000000000000000000000000000000000008152600401610bfe9061393d565b60405180910390fd5b60088281548110610c1b57610c1a61395d565b5b90600052602060002001549050919050565b6000806002600084815260200190815260200160002060009054906101000a900473ffffffffffffffffffffffffffffffffffffffff169050600073ffffffffffffffffffffffffffffffffffffffff168173ffffffffffffffffffffffffffffffffffffffff1603610cd5576040517f08c379a0000000000000000000000000000000000000000000000000000000008152600401610ccc906139fe565b60405180910390fd5b80915050919050565b60008073ffffffffffffffffffffffffffffffffffffffff168273ffffffffffffffffffffffffffffffffffffffff1603610d4e576040517f08c379a0000000000000000000000000000000000000000000000000000000008152600401610d4590613a90565b60405180910390fd5b600360008373ffffffffffffffffffffffffffffffffffffffff1673ffffffffffffffffffffffffffffffffffffffff168152602001908152602001600020549050919050565b610d9d611613565b73ffffffffffffffffffffffffffffffffffffffff16610dbb610e23565b73ffffffffffffffffffffffffffffffffffffffff1614610e11576040517f08c379a0000000000000000000000000000000000000000000000000000000008152600401610e089061383f565b60405180910390fd5b610e1b6000611a18565b565b600c5481565b6000600b60009054906101000a900473ffffffffffffffffffffffffffffffffffffffff16905090565b610e58838383611ade565b505050565b606060018054610e6c906134e8565b80601f0160208091040260200160405190810160405280929190818152602001828054610e98906134e8565b8015610ee55780601f10610eba57610100808354040283529160200191610ee5565b820191906000526020600020905b815481529060010190602001808311610ec857829003601f168201915b5050505050905090565b600d60149054906101000a900460ff16610f3e576040517f08c379a0000000000000000000000000000000000000000000000000000000008152600401610f3590613afc565b60405180910390fd5b600c54610f496108d4565b10610f89576040517f08c379a0000000000000000000000000000000000000000000000000000000008152600401610f8090613b68565b60405180910390fd5b610fbc600d60009054906101000a900473ffffffffffffffffffffffffffffffffffffffff16610fb76108d4565b611c46565b610fcd610fc76108d4565b82611c64565b600e60009054906101000a900473ffffffffffffffffffffffffffffffffffffffff1673ffffffffffffffffffffffffffffffffffffffff1663347518a86110136108d4565b6040518263ffffffff1660e01b815260040161102f9190612e45565b600060405180830381600087803b15801561104957600080fd5b505af115801561105d573d6000803e3d6000fd5b5050505050565b600061106e6108d4565b905061107a3382611c46565b611085818484611ade565b505050565b61109c611095611613565b8383611cd1565b5050565b6110b16110ab611613565b836116d4565b6110f0576040517f08c379a00000000000000000000000000000000000000000000000000000000081526004016110e790613741565b60405180910390fd5b6110fc84848484611e3d565b50505050565b606061110d82611e99565b9050919050565b6000600560008473ffffffffffffffffffffffffffffffffffffffff1673ffffffffffffffffffffffffffffffffffffffff16815260200190815260200160002060008373ffffffffffffffffffffffffffffffffffffffff1673ffffffffffffffffffffffffffffffffffffffff16815260200190815260200160002060009054906101000a900460ff16905092915050565b600d60149054906101000a900460ff1681565b6111c485610c2d565b73ffffffffffffffffffffffffffffffffffffffff163373ffffffffffffffffffffffffffffffffffffffff1614611231576040517f08c379a000000000000000000000000000000000000000000000000000000000815260040161122890613bd4565b60405180910390fd5b600e60009054906101000a900473ffffffffffffffffffffffffffffffffffffffff1673ffffffffffffffffffffffffffffffffffffffff1663911da0628685876040518463ffffffff1660e01b815260040161129093929190613c03565b600060405180830381600087803b1580156112aa57600080fd5b505af11580156112be573d6000803e3d6000fd5b505050506112cd858383611ade565b5050505050565b6112dd84610c2d565b73ffffffffffffffffffffffffffffffffffffffff163373ffffffffffffffffffffffffffffffffffffffff161461134a576040517f08c379a000000000000000000000000000000000000000000000000000000000815260040161134190613bd4565b60405180910390fd5b600c546113556108d4565b1015611396576040517f08c379a000000000000000000000000000000000000000000000000000000000815260040161138d90613c86565b60405180910390fd5b600e60009054906101000a900473ffffffffffffffffffffffffffffffffffffffff1673ffffffffffffffffffffffffffffffffffffffff166386d3d87185856040518363ffffffff1660e01b81526004016113f3929190613ca6565b600060405180830381600087803b15801561140d57600080fd5b505af1158015611421573d6000803e3d6000fd5b50505050611430848383611ade565b50505050565b61143e611613565b73ffffffffffffffffffffffffffffffffffffffff1661145c610e23565b73ffffffffffffffffffffffffffffffffffffffff16146114b2576040517f08c379a00000000000000000000000000000000000000000000000000000000081526004016114a99061383f565b60405180910390fd5b600073ffffffffffffffffffffffffffffffffffffffff168173ffffffffffffffffffffffffffffffffffffffff1603611521576040517f08c379a000000000000000000000000000000000000000000000000000000000815260040161151890613d41565b60405180910390fd5b61152a81611a18565b50565b60007f780e9d63000000000000000000000000000000000000000000000000000000007bffffffffffffffffffffffffffffffffffffffffffffffffffffffff1916827bffffffffffffffffffffffffffffffffffffffffffffffffffffffff191614806115a0575061159f82611fea565b5b9050919050565b60008073ffffffffffffffffffffffffffffffffffffffff166002600084815260200190815260200160002060009054906101000a900473ffffffffffffffffffffffffffffffffffffffff1673ffffffffffffffffffffffffffffffffffffffff1614159050919050565b600033905090565b816004600083815260200190815260200160002060006101000a81548173ffffffffffffffffffffffffffffffffffffffff021916908373ffffffffffffffffffffffffffffffffffffffff160217905550808273ffffffffffffffffffffffffffffffffffffffff1661168e83610c2d565b73ffffffffffffffffffffffffffffffffffffffff167f8c5be1e5ebec7d5bd14f71427d1e84f3dd0314c0f7b2291e5b200ac8c7c3b92560405160405180910390a45050565b60006116df826115a7565b61171e576040517f08c379a000000000000000000000000000000000000000000000000000000000815260040161171590613dd3565b60405180910390fd5b600061172983610c2d565b90508073ffffffffffffffffffffffffffffffffffffffff168473ffffffffffffffffffffffffffffffffffffffff16148061176b575061176a8185611114565b5b806117a957508373ffffffffffffffffffffffffffffffffffffffff1661179184610738565b73ffffffffffffffffffffffffffffffffffffffff16145b91505092915050565b8273ffffffffffffffffffffffffffffffffffffffff166117d282610c2d565b73ffffffffffffffffffffffffffffffffffffffff1614611828576040517f08c379a000000000000000000000000000000000000000000000000000000000815260040161181f90613e65565b60405180910390fd5b600073ffffffffffffffffffffffffffffffffffffffff168273ffffffffffffffffffffffffffffffffffffffff1603611897576040517f08c379a000000000000000000000000000000000000000000000000000000000815260040161188e90613ef7565b60405180910390fd5b6118a28383836120cc565b6118ad60008261161b565b6001600360008573ffffffffffffffffffffffffffffffffffffffff1673ffffffffffffffffffffffffffffffffffffffff16815260200190815260200160002060008282546118fd9190613f46565b925050819055506001600360008473ffffffffffffffffffffffffffffffffffffffff1673ffffffffffffffffffffffffffffffffffffffff16815260200190815260200160002060008282546119549190613f7a565b92505081905550816002600083815260200190815260200160002060006101000a81548173ffffffffffffffffffffffffffffffffffffffff021916908373ffffffffffffffffffffffffffffffffffffffff160217905550808273ffffffffffffffffffffffffffffffffffffffff168473ffffffffffffffffffffffffffffffffffffffff167fddf252ad1be2c89b69c2b068fc378daa952ba7f163c4a11628f55a4df523b3ef60405160405180910390a4611a138383836120dc565b505050565b6000600b60009054906101000a900473ffffffffffffffffffffffffffffffffffffffff16905081600b60006101000a81548173ffffffffffffffffffffffffffffffffffffffff021916908373ffffffffffffffffffffffffffffffffffffffff1602179055508173ffffffffffffffffffffffffffffffffffffffff168173ffffffffffffffffffffffffffffffffffffffff167f8be0079c531659141344cd1fd0a4f28419497f9722a3daafe3b4186f6b6457e060405160405180910390a35050565b611aef611ae9611613565b846116d4565b611b2e576040517f08c379a0000000000000000000000000000000000000000000000000000000008152600401611b2590613ffa565b60405180910390fd5b600082604051602001611b419190614056565b604051602081830303815290604052805190602001209050600e60009054906101000a900473ffffffffffffffffffffffffffffffffffffffff1673ffffffffffffffffffffffffffffffffffffffff16637fcacc0e82846040518363ffffffff1660e01b8152600401611bb69291906140c2565b602060405180830381865afa158015611bd3573d6000803e3d6000fd5b505050506040513d601f19601f82011682018060405250810190611bf79190614107565b611c36576040517f08c379a0000000000000000000000000000000000000000000000000000000008152600401611c2d90614180565b60405180910390fd5b611c408484611c64565b50505050565b611c608282604051806020016040528060008152506120e1565b5050565b611c6d826115a7565b611cac576040517f08c379a0000000000000000000000000000000000000000000000000000000008152600401611ca390614212565b60405180910390fd5b80600a60008481526020019081526020016000209081611ccc91906143de565b505050565b8173ffffffffffffffffffffffffffffffffffffffff168373ffffffffffffffffffffffffffffffffffffffff1603611d3f576040517f08c379a0000000000000000000000000000000000000000000000000000000008152600401611d36906144fc565b60405180910390fd5b80600560008573ffffffffffffffffffffffffffffffffffffffff1673ffffffffffffffffffffffffffffffffffffffff16815260200190815260200160002060008473ffffffffffffffffffffffffffffffffffffffff1673ffffffffffffffffffffffffffffffffffffffff16815260200190815260200160002060006101000a81548160ff0219169083151502179055508173ffffffffffffffffffffffffffffffffffffffff168373ffffffffffffffffffffffffffffffffffffffff167f17307eab39ab6107e8899845ad3d59bd9653f200f220920489ca2b5937696c3183604051611e309190612c3e565b60405180910390a3505050565b611e488484846117b2565b611e548484848461213c565b611e93576040517f08c379a0000000000000000000000000000000000000000000000000000000008152600401611e8a9061458e565b60405180910390fd5b50505050565b6060611ea4826115a7565b611ee3576040517f08c379a0000000000000000000000000000000000000000000000000000000008152600401611eda90614620565b60405180910390fd5b6000600a60008481526020019081526020016000208054611f03906134e8565b80601f0160208091040260200160405190810160405280929190818152602001828054611f2f906134e8565b8015611f7c5780601f10611f5157610100808354040283529160200191611f7c565b820191906000526020600020905b815481529060010190602001808311611f5f57829003601f168201915b505050505090506000611f8d6122c3565b90506000815103611fa2578192505050611fe5565b600082511115611fd7578082604051602001611fbf929190614640565b60405160208183030381529060405292505050611fe5565b611fe084612300565b925050505b919050565b60007f80ac58cd000000000000000000000000000000000000000000000000000000007bffffffffffffffffffffffffffffffffffffffffffffffffffffffff1916827bffffffffffffffffffffffffffffffffffffffffffffffffffffffff191614806120b557507f5b5e139f000000000000000000000000000000000000000000000000000000007bffffffffffffffffffffffffffffffffffffffffffffffffffffffff1916827bffffffffffffffffffffffffffffffffffffffffffffffffffffffff1916145b806120c557506120c4826123a7565b5b9050919050565b6120d7838383612411565b505050565b505050565b6120eb8383612523565b6120f8600084848461213c565b612137576040517f08c379a000000000000000000000000000000000000000000000000000000000815260040161212e9061458e565b60405180910390fd5b505050565b600061215d8473ffffffffffffffffffffffffffffffffffffffff166126fc565b156122b6578373ffffffffffffffffffffffffffffffffffffffff1663150b7a02612186611613565b8786866040518563ffffffff1660e01b81526004016121a89493929190614664565b6020604051808303816000875af19250505080156121e457506040513d601f19601f820116820180604052508101906121e191906146c5565b60015b612266573d8060008114612214576040519150601f19603f3d011682016040523d82523d6000602084013e612219565b606091505b50600081510361225e576040517f08c379a00000000000000000000000000000000000000000000000000000000081526004016122559061458e565b60405180910390fd5b805181602001fd5b63150b7a0260e01b7bffffffffffffffffffffffffffffffffffffffffffffffffffffffff1916817bffffffffffffffffffffffffffffffffffffffffffffffffffffffff1916149150506122bb565b600190505b949350505050565b60606040518060400160405280601581526020017f68747470733a2f2f697066732e696f2f697066732f0000000000000000000000815250905090565b606061230b826115a7565b61234a576040517f08c379a000000000000000000000000000000000000000000000000000000000815260040161234190614764565b60405180910390fd5b60006123546122c3565b90506000815111612374576040518060200160405280600081525061239f565b8061237e8461271f565b60405160200161238f929190614640565b6040516020818303038152906040525b915050919050565b60007f01ffc9a7000000000000000000000000000000000000000000000000000000007bffffffffffffffffffffffffffffffffffffffffffffffffffffffff1916827bffffffffffffffffffffffffffffffffffffffffffffffffffffffff1916149050919050565b61241c83838361287f565b600073ffffffffffffffffffffffffffffffffffffffff168373ffffffffffffffffffffffffffffffffffffffff160361245e5761245981612884565b61249d565b8173ffffffffffffffffffffffffffffffffffffffff168373ffffffffffffffffffffffffffffffffffffffff161461249c5761249b83826128cd565b5b5b600073ffffffffffffffffffffffffffffffffffffffff168273ffffffffffffffffffffffffffffffffffffffff16036124df576124da81612a3a565b61251e565b8273ffffffffffffffffffffffffffffffffffffffff168273ffffffffffffffffffffffffffffffffffffffff161461251d5761251c8282612b0b565b5b5b505050565b600073ffffffffffffffffffffffffffffffffffffffff168273ffffffffffffffffffffffffffffffffffffffff1603612592576040517f08c379a0000000000000000000000000000000000000000000000000000000008152600401612589906147d0565b60405180910390fd5b61259b816115a7565b156125db576040517f08c379a00000000000000000000000000000000000000000000000000000000081526004016125d29061483c565b60405180910390fd5b6125e7600083836120cc565b6001600360008473ffffffffffffffffffffffffffffffffffffffff1673ffffffffffffffffffffffffffffffffffffffff16815260200190815260200160002060008282546126379190613f7a565b92505081905550816002600083815260200190815260200160002060006101000a81548173ffffffffffffffffffffffffffffffffffffffff021916908373ffffffffffffffffffffffffffffffffffffffff160217905550808273ffffffffffffffffffffffffffffffffffffffff16600073ffffffffffffffffffffffffffffffffffffffff167fddf252ad1be2c89b69c2b068fc378daa952ba7f163c4a11628f55a4df523b3ef60405160405180910390a46126f8600083836120dc565b5050565b6000808273ffffffffffffffffffffffffffffffffffffffff163b119050919050565b606060008203612766576040518060400160405280600181526020017f3000000000000000000000000000000000000000000000000000000000000000815250905061287a565b600082905060005b600082146127985780806127819061485c565b915050600a8261279191906148d3565b915061276e565b60008167ffffffffffffffff8111156127b4576127b3612eea565b5b6040519080825280601f01601f1916602001820160405280156127e65781602001600182028036833780820191505090505b5090505b60008514612873576001826127ff9190613f46565b9150600a8561280e9190614904565b603061281a9190613f7a565b60f81b8183815181106128305761282f61395d565b5b60200101907effffffffffffffffffffffffffffffffffffffffffffffffffffffffffffff1916908160001a905350600a8561286c91906148d3565b94506127ea565b8093505050505b919050565b505050565b6008805490506009600083815260200190815260200160002081905550600881908060018154018082558091505060019003906000526020600020016000909190919091505550565b600060016128da84610cde565b6128e49190613f46565b90506000600760008481526020019081526020016000205490508181146129c9576000600660008673ffffffffffffffffffffffffffffffffffffffff1673ffffffffffffffffffffffffffffffffffffffff168152602001908152602001600020600084815260200190815260200160002054905080600660008773ffffffffffffffffffffffffffffffffffffffff1673ffffffffffffffffffffffffffffffffffffffff168152602001908152602001600020600084815260200190815260200160002081905550816007600083815260200190815260200160002081905550505b6007600084815260200190815260200160002060009055600660008573ffffffffffffffffffffffffffffffffffffffff1673ffffffffffffffffffffffffffffffffffffffff16815260200190815260200160002060008381526020019081526020016000206000905550505050565b60006001600880549050612a4e9190613f46565b9050600060096000848152602001908152602001600020549050600060088381548110612a7e57612a7d61395d565b5b906000526020600020015490508060088381548110612aa057612a9f61395d565b5b906000526020600020018190555081600960008381526020019081526020016000208190555060096000858152602001908152602001600020600090556008805480612aef57612aee614935565b5b6001900381819060005260206000200160009055905550505050565b6000612b1683610cde565b905081600660008573ffffffffffffffffffffffffffffffffffffffff1673ffffffffffffffffffffffffffffffffffffffff168152602001908152602001600020600083815260200190815260200160002081905550806007600084815260200190815260200160002081905550505050565b6000604051905090565b600080fd5b600080fd5b60007fffffffff0000000000000000000000000000000000000000000000000000000082169050919050565b612bd381612b9e565b8114612bde57600080fd5b50565b600081359050612bf081612bca565b92915050565b600060208284031215612c0c57612c0b612b94565b5b6000612c1a84828501612be1565b91505092915050565b60008115159050919050565b612c3881612c23565b82525050565b6000602082019050612c536000830184612c2f565b92915050565b600081519050919050565b600082825260208201905092915050565b60005b83811015612c93578082015181840152602081019050612c78565b60008484015250505050565b6000601f19601f8301169050919050565b6000612cbb82612c59565b612cc58185612c64565b9350612cd5818560208601612c75565b612cde81612c9f565b840191505092915050565b60006020820190508181036000830152612d038184612cb0565b905092915050565b6000819050919050565b612d1e81612d0b565b8114612d2957600080fd5b50565b600081359050612d3b81612d15565b92915050565b600060208284031215612d5757612d56612b94565b5b6000612d6584828501612d2c565b91505092915050565b600073ffffffffffffffffffffffffffffffffffffffff82169050919050565b6000612d9982612d6e565b9050919050565b612da981612d8e565b82525050565b6000602082019050612dc46000830184612da0565b92915050565b612dd381612d8e565b8114612dde57600080fd5b50565b600081359050612df081612dca565b92915050565b60008060408385031215612e0d57612e0c612b94565b5b6000612e1b85828601612de1565b9250506020612e2c85828601612d2c565b9150509250929050565b612e3f81612d0b565b82525050565b6000602082019050612e5a6000830184612e36565b92915050565b600080600060608486031215612e7957612e78612b94565b5b6000612e8786828701612de1565b9350506020612e9886828701612de1565b9250506040612ea986828701612d2c565b9150509250925092565b600060208284031215612ec957612ec8612b94565b5b6000612ed784828501612de1565b91505092915050565b600080fd5b600080fd5b7f4e487b7100000000000000000000000000000000000000000000000000000000600052604160045260246000fd5b612f2282612c9f565b810181811067ffffffffffffffff82111715612f4157612f40612eea565b5b80604052505050565b6000612f54612b8a565b9050612f608282612f19565b919050565b600067ffffffffffffffff821115612f8057612f7f612eea565b5b612f8982612c9f565b9050602081019050919050565b82818337600083830152505050565b6000612fb8612fb384612f65565b612f4a565b905082815260208101848484011115612fd457612fd3612ee5565b5b612fdf848285612f96565b509392505050565b600082601f830112612ffc57612ffb612ee0565b5b813561300c848260208601612fa5565b91505092915050565b600067ffffffffffffffff8211156130305761302f612eea565b5b61303982612c9f565b9050602081019050919050565b600061305961305484613015565b612f4a565b90508281526020810184848401111561307557613074612ee5565b5b613080848285612f96565b509392505050565b600082601f83011261309d5761309c612ee0565b5b81356130ad848260208601613046565b91505092915050565b6000806000606084860312156130cf576130ce612b94565b5b60006130dd86828701612d2c565b935050602084013567ffffffffffffffff8111156130fe576130fd612b99565b5b61310a86828701612fe7565b925050604084013567ffffffffffffffff81111561312b5761312a612b99565b5b61313786828701613088565b9150509250925092565b60006020828403121561315757613156612b94565b5b600082013567ffffffffffffffff81111561317557613174612b99565b5b61318184828501612fe7565b91505092915050565b600080604083850312156131a1576131a0612b94565b5b600083013567ffffffffffffffff8111156131bf576131be612b99565b5b6131cb85828601612fe7565b925050602083013567ffffffffffffffff8111156131ec576131eb612b99565b5b6131f885828601613088565b9150509250929050565b61320b81612c23565b811461321657600080fd5b50565b60008135905061322881613202565b92915050565b6000806040838503121561324557613244612b94565b5b600061325385828601612de1565b925050602061326485828601613219565b9150509250929050565b6000806000806080858703121561328857613287612b94565b5b600061329687828801612de1565b94505060206132a787828801612de1565b93505060406132b887828801612d2c565b925050606085013567ffffffffffffffff8111156132d9576132d8612b99565b5b6132e587828801613088565b91505092959194509250565b6000806040838503121561330857613307612b94565b5b600061331685828601612de1565b925050602061332785828601612de1565b9150509250929050565b6000819050919050565b61334481613331565b811461334f57600080fd5b50565b6000813590506133618161333b565b92915050565b600080600080600060a0868803121561338357613382612b94565b5b600061339188828901612d2c565b95505060206133a288828901613352565b94505060406133b388828901612d2c565b935050606086013567ffffffffffffffff8111156133d4576133d3612b99565b5b6133e088828901612fe7565b925050608086013567ffffffffffffffff81111561340157613400612b99565b5b61340d88828901613088565b9150509295509295909350565b6000806000806080858703121561343457613433612b94565b5b600061344287828801612d2c565b945050602061345387828801613352565b935050604085013567ffffffffffffffff81111561347457613473612b99565b5b61348087828801612fe7565b925050606085013567ffffffffffffffff8111156134a1576134a0612b99565b5b6134ad87828801613088565b91505092959194509250565b7f4e487b7100000000000000000000000000000000000000000000000000000000600052602260045260246000fd5b6000600282049050600182168061350057607f821691505b602082108103613513576135126134b9565b5b50919050565b7f4552433732313a20617070726f76656420717565727920666f72206e6f6e657860008201527f697374656e7420746f6b656e0000000000000000000000000000000000000000602082015250565b6000613575602c83612c64565b915061358082613519565b604082019050919050565b600060208201905081810360008301526135a481613568565b9050919050565b7f4552433732313a20617070726f76616c20746f2063757272656e74206f776e6560008201527f7200000000000000000000000000000000000000000000000000000000000000602082015250565b6000613607602183612c64565b9150613612826135ab565b604082019050919050565b60006020820190508181036000830152613636816135fa565b9050919050565b7f4552433732313a20617070726f76652063616c6c6572206973206e6f74206f7760008201527f6e6572206e6f7220617070726f76656420666f7220616c6c0000000000000000602082015250565b6000613699603883612c64565b91506136a48261363d565b604082019050919050565b600060208201905081810360008301526136c88161368c565b9050919050565b7f4552433732313a207472616e736665722063616c6c6572206973206e6f74206f60008201527f776e6572206e6f7220617070726f766564000000000000000000000000000000602082015250565b600061372b603183612c64565b9150613736826136cf565b604082019050919050565b6000602082019050818103600083015261375a8161371e565b9050919050565b7f455243373231456e756d657261626c653a206f776e657220696e646578206f7560008201527f74206f6620626f756e6473000000000000000000000000000000000000000000602082015250565b60006137bd602b83612c64565b91506137c882613761565b604082019050919050565b600060208201905081810360008301526137ec816137b0565b9050919050565b7f4f776e61626c653a2063616c6c6572206973206e6f7420746865206f776e6572600082015250565b6000613829602083612c64565b9150613834826137f3565b602082019050919050565b600060208201905081810360008301526138588161381c565b9050919050565b7f4e6f2062616c616e636520746f20776974686472617700000000000000000000600082015250565b6000613895601683612c64565b91506138a08261385f565b602082019050919050565b600060208201905081810360008301526138c481613888565b9050919050565b7f455243373231456e756d657261626c653a20676c6f62616c20696e646578206f60008201527f7574206f6620626f756e64730000000000000000000000000000000000000000602082015250565b6000613927602c83612c64565b9150613932826138cb565b604082019050919050565b600060208201905081810360008301526139568161391a565b9050919050565b7f4e487b7100000000000000000000000000000000000000000000000000000000600052603260045260246000fd5b7f4552433732313a206f776e657220717565727920666f72206e6f6e657869737460008201527f656e7420746f6b656e0000000000000000000000000000000000000000000000602082015250565b60006139e8602983612c64565b91506139f38261398c565b604082019050919050565b60006020820190508181036000830152613a17816139db565b9050919050565b7f4552433732313a2062616c616e636520717565727920666f7220746865207a6560008201527f726f206164647265737300000000000000000000000000000000000000000000602082015250565b6000613a7a602a83612c64565b9150613a8582613a1e565b604082019050919050565b60006020820190508181036000830152613aa981613a6d565b9050919050565b7f53616c65206d7573742062652061637469766500000000000000000000000000600082015250565b6000613ae6601383612c64565b9150613af182613ab0565b602082019050919050565b60006020820190508181036000830152613b1581613ad9565b9050919050565b7f45786365656420696e697469616c20737570706c79206f66206e757473000000600082015250565b6000613b52601d83612c64565b9150613b5d82613b1c565b602082019050919050565b60006020820190508181036000830152613b8181613b45565b9050919050565b7f43616c6c6572206973206e6f74206f776e6572206f66206e7574000000000000600082015250565b6000613bbe601a83612c64565b9150613bc982613b88565b602082019050919050565b60006020820190508181036000830152613bed81613bb1565b9050919050565b613bfd81613331565b82525050565b6000606082019050613c186000830186612e36565b613c256020830185612e36565b613c326040830184613bf4565b949350505050565b7f4e757473207374696c6c2065786973742066726f6d206372656174696f6e0000600082015250565b6000613c70601e83612c64565b9150613c7b82613c3a565b602082019050919050565b60006020820190508181036000830152613c9f81613c63565b9050919050565b6000604082019050613cbb6000830185612e36565b613cc86020830184613bf4565b9392505050565b7f4f776e61626c653a206e6577206f776e657220697320746865207a65726f206160008201527f6464726573730000000000000000000000000000000000000000000000000000602082015250565b6000613d2b602683612c64565b9150613d3682613ccf565b604082019050919050565b60006020820190508181036000830152613d5a81613d1e565b9050919050565b7f4552433732313a206f70657261746f7220717565727920666f72206e6f6e657860008201527f697374656e7420746f6b656e0000000000000000000000000000000000000000602082015250565b6000613dbd602c83612c64565b9150613dc882613d61565b604082019050919050565b60006020820190508181036000830152613dec81613db0565b9050919050565b7f4552433732313a207472616e736665722066726f6d20696e636f72726563742060008201527f6f776e6572000000000000000000000000000000000000000000000000000000602082015250565b6000613e4f602583612c64565b9150613e5a82613df3565b604082019050919050565b60006020820190508181036000830152613e7e81613e42565b9050919050565b7f4552433732313a207472616e7366657220746f20746865207a65726f2061646460008201527f7265737300000000000000000000000000000000000000000000000000000000602082015250565b6000613ee1602483612c64565b9150613eec82613e85565b604082019050919050565b60006020820190508181036000830152613f1081613ed4565b9050919050565b7f4e487b7100000000000000000000000000000000000000000000000000000000600052601160045260246000fd5b6000613f5182612d0b565b9150613f5c83612d0b565b9250828203905081811115613f7457613f73613f17565b5b92915050565b6000613f8582612d0b565b9150613f9083612d0b565b9250828201905080821115613fa857613fa7613f17565b5b92915050565b7f43616c6c6572206973206e6f74206f776e6572206e6f7220617070726f766564600082015250565b6000613fe4602083612c64565b9150613fef82613fae565b602082019050919050565b6000602082019050818103600083015261401381613fd7565b9050919050565b600081905092915050565b600061403082612c59565b61403a818561401a565b935061404a818560208601612c75565b80840191505092915050565b60006140628284614025565b915081905092915050565b600081519050919050565b600082825260208201905092915050565b60006140948261406d565b61409e8185614078565b93506140ae818560208601612c75565b6140b781612c9f565b840191505092915050565b60006040820190506140d76000830185613bf4565b81810360208301526140e98184614089565b90509392505050565b60008151905061410181613202565b92915050565b60006020828403121561411d5761411c612b94565b5b600061412b848285016140f2565b91505092915050565b7f4461746120646f6573206e6f74206d61746368207369676e6174757265000000600082015250565b600061416a601d83612c64565b915061417582614134565b602082019050919050565b600060208201905081810360008301526141998161415d565b9050919050565b7f45524337323155524953746f726167653a2055524920736574206f66206e6f6e60008201527f6578697374656e7420746f6b656e000000000000000000000000000000000000602082015250565b60006141fc602e83612c64565b9150614207826141a0565b604082019050919050565b6000602082019050818103600083015261422b816141ef565b9050919050565b60008190508160005260206000209050919050565b60006020601f8301049050919050565b600082821b905092915050565b6000600883026142947fffffffffffffffffffffffffffffffffffffffffffffffffffffffffffffffff82614257565b61429e8683614257565b95508019841693508086168417925050509392505050565b6000819050919050565b60006142db6142d66142d184612d0b565b6142b6565b612d0b565b9050919050565b6000819050919050565b6142f5836142c0565b614309614301826142e2565b848454614264565b825550505050565b600090565b61431e614311565b6143298184846142ec565b505050565b5b8181101561434d57614342600082614316565b60018101905061432f565b5050565b601f8211156143925761436381614232565b61436c84614247565b8101602085101561437b578190505b61438f61438785614247565b83018261432e565b50505b505050565b600082821c905092915050565b60006143b560001984600802614397565b1980831691505092915050565b60006143ce83836143a4565b9150826002028217905092915050565b6143e782612c59565b67ffffffffffffffff811115614400576143ff612eea565b5b61440a82546134e8565b614415828285614351565b600060209050601f8311600181146144485760008415614436578287015190505b61444085826143c2565b8655506144a8565b601f19841661445686614232565b60005b8281101561447e57848901518255600182019150602085019450602081019050614459565b8683101561449b5784890151614497601f8916826143a4565b8355505b6001600288020188555050505b505050505050565b7f4552433732313a20617070726f766520746f2063616c6c657200000000000000600082015250565b60006144e6601983612c64565b91506144f1826144b0565b602082019050919050565b60006020820190508181036000830152614515816144d9565b9050919050565b7f4552433732313a207472616e7366657220746f206e6f6e20455243373231526560008201527f63656976657220696d706c656d656e7465720000000000000000000000000000602082015250565b6000614578603283612c64565b91506145838261451c565b604082019050919050565b600060208201905081810360008301526145a78161456b565b9050919050565b7f45524337323155524953746f726167653a2055524920717565727920666f722060008201527f6e6f6e6578697374656e7420746f6b656e000000000000000000000000000000602082015250565b600061460a603183612c64565b9150614615826145ae565b604082019050919050565b60006020820190508181036000830152614639816145fd565b9050919050565b600061464c8285614025565b91506146588284614025565b91508190509392505050565b60006080820190506146796000830187612da0565b6146866020830186612da0565b6146936040830185612e36565b81810360608301526146a58184614089565b905095945050505050565b6000815190506146bf81612bca565b92915050565b6000602082840312156146db576146da612b94565b5b60006146e9848285016146b0565b91505092915050565b7f4552433732314d657461646174613a2055524920717565727920666f72206e6f60008201527f6e6578697374656e7420746f6b656e0000000000000000000000000000000000602082015250565b600061474e602f83612c64565b9150614759826146f2565b604082019050919050565b6000602082019050818103600083015261477d81614741565b9050919050565b7f4552433732313a206d696e7420746f20746865207a65726f2061646472657373600082015250565b60006147ba602083612c64565b91506147c582614784565b602082019050919050565b600060208201905081810360008301526147e9816147ad565b9050919050565b7f4552433732313a20746f6b656e20616c7265616479206d696e74656400000000600082015250565b6000614826601c83612c64565b9150614831826147f0565b602082019050919050565b6000602082019050818103600083015261485581614819565b9050919050565b600061486782612d0b565b91507fffffffffffffffffffffffffffffffffffffffffffffffffffffffffffffffff820361489957614898613f17565b5b600182019050919050565b7f4e487b7100000000000000000000000000000000000000000000000000000000600052601260045260246000fd5b60006148de82612d0b565b91506148e983612d0b565b9250826148f9576148f86148a4565b5b828204905092915050565b600061490f82612d0b565b915061491a83612d0b565b92508261492a576149296148a4565b5b828206905092915050565b7f4e487b7100000000000000000000000000000000000000000000000000000000600052603160045260246000fdfea2646970667358221220d0f369e4f49c747e6dd632159e92769cc6b27e99cef5f75267ea6917c9dc8f0a64736f6c63430008110033a2646970667358221220ed158764b33e0085c6ada4235f91c0cdb2ffa915313a75c88bcb51013f4d5c6064736f6c6343000811003360806040523480156200001157600080fd5b506040516200637b3803806200637b833981810160405281019062000037919062000195565b818160405162000047906200011d565b62000054929190620001ed565b604051809103906000f08015801562000071573d6000803e3d6000fd5b50600560006101000a81548173ffffffffffffffffffffffffffffffffffffffff021916908373ffffffffffffffffffffffffffffffffffffffff160217905550600560009054906101000a900473ffffffffffffffffffffffffffffffffffffffff16600160006101000a81548173ffffffffffffffffffffffffffffffffffffffff021916908373ffffffffffffffffffffffffffffffffffffffff16021790555050506200021a565b614d9580620015e683390190565b600080fd5b600073ffffffffffffffffffffffffffffffffffffffff82169050919050565b60006200015d8262000130565b9050919050565b6200016f8162000150565b81146200017b57600080fd5b50565b6000815190506200018f8162000164565b92915050565b60008060408385031215620001af57620001ae6200012b565b5b6000620001bf858286016200017e565b9250506020620001d2858286016200017e565b9150509250929050565b620001e78162000150565b82525050565b6000604082019050620002046000830185620001dc565b620002136020830184620001dc565b9392505050565b6113bc806200022a6000396000f3fe608060405234801561001057600080fd5b50600436106100b45760003560e01c806386d3d8711161007157806386d3d8711461018d578063911da062146101a9578063b8a9736d146101c5578063efcdb23d146101e3578063f27890f214610201578063f2b97ee21461021d576100b4565b806307604b1a146100b95780633434735f146100d7578063347518a8146100f557806334fc1228146101115780635e14a478146101415780637fcacc0e1461015d575b600080fd5b6100c161023b565b6040516100ce9190610b59565b60405180910390f35b6100df610261565b6040516100ec9190610b59565b60405180910390f35b61010f600480360381019061010a9190610bbe565b610285565b005b61012b60048036038101906101269190610bbe565b610339565b6040516101389190610bfa565b60405180910390f35b61015b60048036038101906101569190610c15565b6103de565b005b61017760048036038101906101729190610de4565b6103f8565b6040516101849190610e5b565b60405180910390f35b6101a760048036038101906101a29190610e76565b61049c565b005b6101c360048036038101906101be9190610eb6565b61052f565b005b6101cd6105c9565b6040516101da9190610bfa565b60405180910390f35b6101eb6105cf565b6040516101f89190610bfa565b60405180910390f35b61021b60048036038101906102169190610bbe565b6105d5565b005b610225610716565b6040516102329190610bfa565b60405180910390f35b600160009054906101000a900473ffffffffffffffffffffffffffffffffffffffff1681565b60008054906101000a900473ffffffffffffffffffffffffffffffffffffffff1681565b600560009054906101000a900473ffffffffffffffffffffffffffffffffffffffff1673ffffffffffffffffffffffffffffffffffffffff16631c85949c600160009054906101000a900473ffffffffffffffffffffffffffffffffffffffff16836040518363ffffffff1660e01b8152600401610304929190610f09565b600060405180830381600087803b15801561031e57600080fd5b505af1158015610332573d6000803e3d6000fd5b5050505050565b6000600560009054906101000a900473ffffffffffffffffffffffffffffffffffffffff1673ffffffffffffffffffffffffffffffffffffffff16638ed3df0f836040518263ffffffff1660e01b81526004016103969190610bfa565b602060405180830381865afa1580156103b3573d6000803e3d6000fd5b505050506040513d601f19601f820116820180604052508101906103d79190610f47565b9050919050565b826002819055508160038190555080600481905550505050565b60008060009054906101000a900473ffffffffffffffffffffffffffffffffffffffff1673ffffffffffffffffffffffffffffffffffffffff1661043c848461071c565b73ffffffffffffffffffffffffffffffffffffffff1614610492576040517f08c379a000000000000000000000000000000000000000000000000000000000815260040161048990610fd1565b60405180910390fd5b6001905092915050565b600560009054906101000a900473ffffffffffffffffffffffffffffffffffffffff1673ffffffffffffffffffffffffffffffffffffffff1663fe774f9d83836040518363ffffffff1660e01b81526004016104f9929190611000565b600060405180830381600087803b15801561051357600080fd5b505af1158015610527573d6000803e3d6000fd5b505050505050565b600560009054906101000a900473ffffffffffffffffffffffffffffffffffffffff1673ffffffffffffffffffffffffffffffffffffffff166303f5de9d8484600354856040518563ffffffff1660e01b81526004016105929493929190611029565b600060405180830381600087803b1580156105ac57600080fd5b505af11580156105c0573d6000803e3d6000fd5b50505050505050565b60025481565b60035481565b6000600560009054906101000a900473ffffffffffffffffffffffffffffffffffffffff1673ffffffffffffffffffffffffffffffffffffffff1663d4d81032836040518263ffffffff1660e01b81526004016106329190610bfa565b602060405180830381865afa15801561064f573d6000803e3d6000fd5b505050506040513d601f19601f820116820180604052508101906106739190610f47565b9050600061068082610339565b9050600560009054906101000a900473ffffffffffffffffffffffffffffffffffffffff1673ffffffffffffffffffffffffffffffffffffffff1663a06fc90b84836040518363ffffffff1660e01b81526004016106df92919061106e565b600060405180830381600087803b1580156106f957600080fd5b505af115801561070d573d6000803e3d6000fd5b50505050505050565b60045481565b6000610731828461073990919063ffffffff16565b905092915050565b60008060006107488585610760565b91509150610755816107e1565b819250505092915050565b60008060418351036107a15760008060006020860151925060408601519150606086015160001a9050610795878285856109ad565b945094505050506107da565b60408351036107d15760008060208501519150604085015190506107c6868383610ab9565b9350935050506107da565b60006002915091505b9250929050565b600060048111156107f5576107f4611097565b5b81600481111561080857610807611097565b5b03156109aa576001600481111561082257610821611097565b5b81600481111561083557610834611097565b5b03610875576040517f08c379a000000000000000000000000000000000000000000000000000000000815260040161086c90611112565b60405180910390fd5b6002600481111561088957610888611097565b5b81600481111561089c5761089b611097565b5b036108dc576040517f08c379a00000000000000000000000000000000000000000000000000000000081526004016108d39061117e565b60405180910390fd5b600360048111156108f0576108ef611097565b5b81600481111561090357610902611097565b5b03610943576040517f08c379a000000000000000000000000000000000000000000000000000000000815260040161093a90611210565b60405180910390fd5b60048081111561095657610955611097565b5b81600481111561096957610968611097565b5b036109a9576040517f08c379a00000000000000000000000000000000000000000000000000000000081526004016109a0906112a2565b60405180910390fd5b5b50565b6000807f7fffffffffffffffffffffffffffffff5d576e7357a4501ddfe92f46681b20a08360001c11156109e8576000600391509150610ab0565b601b8560ff1614158015610a005750601c8560ff1614155b15610a12576000600491509150610ab0565b600060018787878760405160008152602001604052604051610a3794939291906112de565b6020604051602081039080840390855afa158015610a59573d6000803e3d6000fd5b505050602060405103519050600073ffffffffffffffffffffffffffffffffffffffff168173ffffffffffffffffffffffffffffffffffffffff1603610aa757600060019250925050610ab0565b80600092509250505b94509492505050565b60008060007f7fffffffffffffffffffffffffffffffffffffffffffffffffffffffffffffff60001b841690506000601b60ff8660001c901c610afc9190611352565b9050610b0a878288856109ad565b935093505050935093915050565b600073ffffffffffffffffffffffffffffffffffffffff82169050919050565b6000610b4382610b18565b9050919050565b610b5381610b38565b82525050565b6000602082019050610b6e6000830184610b4a565b92915050565b6000604051905090565b600080fd5b600080fd5b6000819050919050565b610b9b81610b88565b8114610ba657600080fd5b50565b600081359050610bb881610b92565b92915050565b600060208284031215610bd457610bd3610b7e565b5b6000610be284828501610ba9565b91505092915050565b610bf481610b88565b82525050565b6000602082019050610c0f6000830184610beb565b92915050565b600080600060608486031215610c2e57610c2d610b7e565b5b6000610c3c86828701610ba9565b9350506020610c4d86828701610ba9565b9250506040610c5e86828701610ba9565b9150509250925092565b6000819050919050565b610c7b81610c68565b8114610c8657600080fd5b50565b600081359050610c9881610c72565b92915050565b600080fd5b600080fd5b6000601f19601f8301169050919050565b7f4e487b7100000000000000000000000000000000000000000000000000000000600052604160045260246000fd5b610cf182610ca8565b810181811067ffffffffffffffff82111715610d1057610d0f610cb9565b5b80604052505050565b6000610d23610b74565b9050610d2f8282610ce8565b919050565b600067ffffffffffffffff821115610d4f57610d4e610cb9565b5b610d5882610ca8565b9050602081019050919050565b82818337600083830152505050565b6000610d87610d8284610d34565b610d19565b905082815260208101848484011115610da357610da2610ca3565b5b610dae848285610d65565b509392505050565b600082601f830112610dcb57610dca610c9e565b5b8135610ddb848260208601610d74565b91505092915050565b60008060408385031215610dfb57610dfa610b7e565b5b6000610e0985828601610c89565b925050602083013567ffffffffffffffff811115610e2a57610e29610b83565b5b610e3685828601610db6565b9150509250929050565b60008115159050919050565b610e5581610e40565b82525050565b6000602082019050610e706000830184610e4c565b92915050565b60008060408385031215610e8d57610e8c610b7e565b5b6000610e9b85828601610ba9565b9250506020610eac85828601610c89565b9150509250929050565b600080600060608486031215610ecf57610ece610b7e565b5b6000610edd86828701610ba9565b9350506020610eee86828701610ba9565b9250506040610eff86828701610c89565b9150509250925092565b6000604082019050610f1e6000830185610b4a565b610f2b6020830184610beb565b9392505050565b600081519050610f4181610b92565b92915050565b600060208284031215610f5d57610f5c610b7e565b5b6000610f6b84828501610f32565b91505092915050565b600082825260208201905092915050565b7f496e76616c6964207369676e6174757265000000000000000000000000000000600082015250565b6000610fbb601183610f74565b9150610fc682610f85565b602082019050919050565b60006020820190508181036000830152610fea81610fae565b9050919050565b610ffa81610c68565b82525050565b60006040820190506110156000830185610beb565b6110226020830184610ff1565b9392505050565b600060808201905061103e6000830187610beb565b61104b6020830186610beb565b6110586040830185610beb565b6110656060830184610ff1565b95945050505050565b60006040820190506110836000830185610beb565b6110906020830184610beb565b9392505050565b7f4e487b7100000000000000000000000000000000000000000000000000000000600052602160045260246000fd5b7f45434453413a20696e76616c6964207369676e61747572650000000000000000600082015250565b60006110fc601883610f74565b9150611107826110c6565b602082019050919050565b6000602082019050818103600083015261112b816110ef565b9050919050565b7f45434453413a20696e76616c6964207369676e6174757265206c656e67746800600082015250565b6000611168601f83610f74565b915061117382611132565b602082019050919050565b600060208201905081810360008301526111978161115b565b9050919050565b7f45434453413a20696e76616c6964207369676e6174757265202773272076616c60008201527f7565000000000000000000000000000000000000000000000000000000000000602082015250565b60006111fa602283610f74565b91506112058261119e565b604082019050919050565b60006020820190508181036000830152611229816111ed565b9050919050565b7f45434453413a20696e76616c6964207369676e6174757265202776272076616c60008201527f7565000000000000000000000000000000000000000000000000000000000000602082015250565b600061128c602283610f74565b915061129782611230565b604082019050919050565b600060208201905081810360008301526112bb8161127f565b9050919050565b600060ff82169050919050565b6112d8816112c2565b82525050565b60006080820190506112f36000830187610ff1565b61130060208301866112cf565b61130d6040830185610ff1565b61131a6060830184610ff1565b95945050505050565b7f4e487b7100000000000000000000000000000000000000000000000000000000600052601160045260246000fd5b600061135d82610b88565b915061136883610b88565b92508282019050808211156113805761137f611323565b5b9291505056fea264697066735822122010480ef991bca1d413a40d2f6b0173466461679a5865fb4cdf92e54dabcf1b1b64736f6c634300081100336080604052600080556000600755600060085560006009556000600f553480156200002957600080fd5b5060405162004d9538038062004d9583398181016040528101906200004f91906200018d565b81601260000160006101000a81548173ffffffffffffffffffffffffffffffffffffffff021916908373ffffffffffffffffffffffffffffffffffffffff16021790555080601260010160006101000a81548173ffffffffffffffffffffffffffffffffffffffff021916908373ffffffffffffffffffffffffffffffffffffffff16021790555030601260020160006101000a81548173ffffffffffffffffffffffffffffffffffffffff021916908373ffffffffffffffffffffffffffffffffffffffff1602179055505050620001d4565b600080fd5b600073ffffffffffffffffffffffffffffffffffffffff82169050919050565b6000620001558262000128565b9050919050565b620001678162000148565b81146200017357600080fd5b50565b60008151905062000187816200015c565b92915050565b60008060408385031215620001a757620001a662000123565b5b6000620001b78582860162000176565b9250506020620001ca8582860162000176565b9150509250929050565b614bb180620001e46000396000f3fe608060405260043610620002125760003560e01c80634ffe5a6f116200011b578063a83851b911620000a3578063ea988be8116200006d578063ea988be814620008cf578063f50d434914620008ff578063f6317f8d1462000943578063fe774f9d14620009735762000212565b8063a83851b914620007e4578063aef054ce1462000817578063d4d81032146200085b578063df4f5ccc146200089f5762000212565b80639578d3df11620000e55780639578d3df14620007005780639975a8a214620007445780639cee22b11462000788578063a06fc90b14620007b65762000212565b80634ffe5a6f14620005f057806353f97bc814620006345780636b651a2c14620006785780638ed3df0f14620006bc5762000212565b806323f526c0116200019f57806339dc84f4116200016957806339dc84f414620004f45780633c8023ad146200053857806347634e1c146200057c57806349a6b51f14620005c05762000212565b806323f526c014620003f857806326342ea4146200043c578063282adc8c146200046c5780633279bd4f14620004b05762000212565b8063171e844111620001e1578063171e844114620002fe5780631821907a14620003425780631c85949c14620003865780631e0b396414620003b45762000212565b806302760a48146200021757806303f5de9d146200025b5780631298896e146200028957806315d3b7a014620002cd575b600080fd5b3480156200022457600080fd5b506200024360048036038101906200023d919062002122565b62000993565b60405162000252919062002171565b60405180910390f35b3480156200026857600080fd5b50620002876004803603810190620002819190620021c9565b620009b3565b005b3480156200029657600080fd5b50620002b56004803603810190620002af91906200223b565b62001135565b604051620002c4919062002293565b60405180910390f35b348015620002da57600080fd5b50620002e562001167565b604051620002f5929190620022b0565b60405180910390f35b3480156200030b57600080fd5b506200032a600480360381019062000324919062002122565b62001179565b60405162000339919062002171565b60405180910390f35b3480156200034f57600080fd5b506200036e600480360381019062000368919062002122565b62001199565b6040516200037d919062002293565b60405180910390f35b3480156200039357600080fd5b50620003b26004803603810190620003ac919062002342565b620011b1565b005b348015620003c157600080fd5b50620003e06004803603810190620003da91906200223b565b62001374565b604051620003ef919062002293565b60405180910390f35b3480156200040557600080fd5b506200042460048036038101906200041e919062002122565b620013a6565b6040516200043391906200239a565b60405180910390f35b3480156200044957600080fd5b5062000454620013d9565b60405162000463919062002293565b60405180910390f35b3480156200047957600080fd5b5062000498600480360381019062000492919062002122565b620013df565b604051620004a7919062002293565b60405180910390f35b348015620004bd57600080fd5b50620004dc6004803603810190620004d6919062002122565b620013ff565b604051620004eb919062002293565b60405180910390f35b3480156200050157600080fd5b506200052060048036038101906200051a919062002122565b62001417565b6040516200052f91906200239a565b60405180910390f35b3480156200054557600080fd5b506200056460048036038101906200055e91906200223b565b6200144a565b60405162000573919062002293565b60405180910390f35b3480156200058957600080fd5b50620005a86004803603810190620005a2919062002122565b6200147c565b604051620005b7919062002293565b60405180910390f35b348015620005cd57600080fd5b50620005d862001494565b604051620005e7919062002293565b60405180910390f35b348015620005fd57600080fd5b506200061c600480360381019062000616919062002122565b6200149a565b6040516200062b919062002293565b60405180910390f35b3480156200064157600080fd5b506200066060048036038101906200065a91906200223b565b620014b2565b6040516200066f919062002171565b60405180910390f35b3480156200068557600080fd5b50620006a460048036038101906200069e919062002122565b620014e1565b604051620006b3919062002293565b60405180910390f35b348015620006c957600080fd5b50620006e86004803603810190620006e2919062002122565b62001501565b604051620006f7919062002293565b60405180910390f35b3480156200070d57600080fd5b506200072c600480360381019062000726919062002122565b6200151c565b6040516200073b919062002293565b60405180910390f35b3480156200075157600080fd5b506200077060048036038101906200076a919062002122565b62001541565b6040516200077f919062002293565b60405180910390f35b3480156200079557600080fd5b50620007b46004803603810190620007ae9190620023b7565b62001561565b005b348015620007c357600080fd5b50620007e26004803603810190620007dc91906200223b565b62001694565b005b348015620007f157600080fd5b50620007fc62001943565b6040516200080e949392919062002429565b60405180910390f35b3480156200082457600080fd5b506200084360048036038101906200083d919062002122565b620019e1565b6040516200085291906200239a565b60405180910390f35b3480156200086857600080fd5b5062000887600480360381019062000881919062002122565b62001a14565b60405162000896919062002293565b60405180910390f35b348015620008ac57600080fd5b50620008b762001a2c565b604051620008c6919062002293565b60405180910390f35b348015620008dc57600080fd5b50620008e762001a32565b604051620008f6919062002293565b60405180910390f35b3480156200090c57600080fd5b506200092b600480360381019062000925919062002122565b62001a38565b6040516200093a919062002293565b60405180910390f35b3480156200095057600080fd5b506200095b62001a50565b6040516200096a919062002293565b60405180910390f35b6200099160048036038101906200098b919062002476565b62001a56565b005b60116020528060005260406000206000915054906101000a900460ff1681565b60006018600086815260200190815260200160002060009054906101000a900473ffffffffffffffffffffffffffffffffffffffff1690503373ffffffffffffffffffffffffffffffffffffffff168173ffffffffffffffffffffffffffffffffffffffff161462000a5c576040517f08c379a000000000000000000000000000000000000000000000000000000000815260040162000a53906200251e565b60405180910390fd5b836019600087815260200190815260200160002054101562000ab5576040517f08c379a000000000000000000000000000000000000000000000000000000000815260040162000aac9062002590565b60405180910390fd5b6000601260010160009054906101000a900473ffffffffffffffffffffffffffffffffffffffff1690508073ffffffffffffffffffffffffffffffffffffffff166370a08231836040518263ffffffff1660e01b815260040162000b1a91906200239a565b602060405180830381865afa15801562000b38573d6000803e3d6000fd5b505050506040513d601f19601f8201168201806040525081019062000b5e9190620025c9565b85111562000ba3576040517f08c379a000000000000000000000000000000000000000000000000000000000815260040162000b9a906200264b565b60405180910390fd5b6000848662000bb391906200269c565b1462000bf6576040517f08c379a000000000000000000000000000000000000000000000000000000000815260040162000bed9062002724565b60405180910390fd5b600062000c0387620014e1565b111562000c7b5784600f600082825462000c1e919062002775565b925050819055508460106000888152602001908152602001600020600082825462000c4a919062002775565b92505081905550601a8690806001815401808255809150506001900390600052602060002001600090919091909150555b60008173ffffffffffffffffffffffffffffffffffffffff166370a08231601260020160009054906101000a900473ffffffffffffffffffffffffffffffffffffffff166040518263ffffffff1660e01b815260040162000cdd91906200239a565b602060405180830381865afa15801562000cfb573d6000803e3d6000fd5b505050506040513d601f19601f8201168201806040525081019062000d219190620025c9565b905060008111156200102957600062000d3d82600f5462001d00565b90506000805b82811462000f7f576000601a8054905090506000810362000d65575062000f7f565b8082111562000d7357600092505b6000601a848154811062000d8c5762000d8b620027b0565b5b9060005260206000200154905060006018600083815260200190815260200160002060009054906101000a900473ffffffffffffffffffffffffffffffffffffffff169050600060166001015462000de484620014e1565b62000df09190620027df565b90508060196000858152602001908152602001600020540362000e3857601a868154811062000e245762000e23620027b0565b5b906000526020600020016000905562000f55565b8873ffffffffffffffffffffffffffffffffffffffff1663a9059cbb8360016040518363ffffffff1660e01b815260040162000e7692919062002877565b6020604051808303816000875af115801562000e96573d6000803e3d6000fd5b505050506040513d601f19601f8201168201806040525081019062000ebc9190620028d5565b50601a839080600181540180825580915050600190039060005260206000200160009091909190915055601a868154811062000efd5762000efc620027b0565b5b90600052602060002001600090556001600f600082825462000f20919062002907565b92505081905550600160106000858152602001908152602001600020600082825462000f4d919062002907565b925050819055505b858062000f629062002942565b96505050505050808062000f769062002942565b91505062000d43565b508373ffffffffffffffffffffffffffffffffffffffff166370a08231601260020160009054906101000a900473ffffffffffffffffffffffffffffffffffffffff166040518263ffffffff1660e01b815260040162000fe091906200239a565b602060405180830381865afa15801562000ffe573d6000803e3d6000fd5b505050506040513d601f19601f82011682018060405250810190620010249190620025c9565b925050505b6000600954888888601260020160009054906101000a900473ffffffffffffffffffffffffffffffffffffffff16896040516200106690620020c6565b6200107796959493929190620029a0565b604051809103906000f08015801562001094573d6000803e3d6000fd5b5090508273ffffffffffffffffffffffffffffffffffffffff1663a9059cbb82896040518363ffffffff1660e01b8152600401620010d492919062002a0d565b6020604051808303816000875af1158015620010f4573d6000803e3d6000fd5b505050506040513d601f19601f820116820180604052508101906200111a9190620028d5565b506200112b88600954838a62001d1b565b5050505050505050565b600260205281600052604060002081815481106200115257600080fd5b90600052602060002001600091509150505481565b60168060000154908060010154905082565b60066020528060005260406000206000915054906101000a900460ff1681565b600d6020528060005260406000206000915090505481565b6000601260010160009054906101000a900473ffffffffffffffffffffffffffffffffffffffff1690506016600101548173ffffffffffffffffffffffffffffffffffffffff166370a08231601260020160009054906101000a900473ffffffffffffffffffffffffffffffffffffffff166040518263ffffffff1660e01b81526004016200124191906200239a565b602060405180830381865afa1580156200125f573d6000803e3d6000fd5b505050506040513d601f19601f82011682018060405250810190620012859190620025c9565b1015620012c9576040517f08c379a0000000000000000000000000000000000000000000000000000000008152600401620012c09062002a8a565b60405180910390fd5b8073ffffffffffffffffffffffffffffffffffffffff1663a9059cbb846016600101546040518363ffffffff1660e01b81526004016200130b92919062002a0d565b6020604051808303816000875af11580156200132b573d6000803e3d6000fd5b505050506040513d601f19601f82011682018060405250810190620013519190620028d5565b506016600101546019600084815260200190815260200160002081905550505050565b600a60205281600052604060002081815481106200139157600080fd5b90600052602060002001600091509150505481565b60056020528060005260406000206000915054906101000a900473ffffffffffffffffffffffffffffffffffffffff1681565b60095481565b6000600a6000838152602001908152602001600020805490509050919050565b600c6020528060005260406000206000915090505481565b60186020528060005260406000206000915054906101000a900473ffffffffffffffffffffffffffffffffffffffff1681565b600160205281600052604060002081815481106200146757600080fd5b90600052602060002001600091509150505481565b600e6020528060005260406000206000915090505481565b60085481565b60106020528060005260406000206000915090505481565b60046020528160005260406000206020528060005260406000206000915091509054906101000a900460ff1681565b600060026000838152602001908152602001600020805490509050919050565b60006200150e8262001541565b601660010154189050919050565b601a81815481106200152d57600080fd5b906000526020600020016000915090505481565b600060016000838152602001908152602001600020805490509050919050565b6000601260010160009054906101000a900473ffffffffffffffffffffffffffffffffffffffff1690508073ffffffffffffffffffffffffffffffffffffffff1663a9059cbb86856040518363ffffffff1660e01b8152600401620015c892919062002a0d565b6020604051808303816000875af1158015620015e8573d6000803e3d6000fd5b505050506040513d601f19601f820116820180604052508101906200160e9190620028d5565b508073ffffffffffffffffffffffffffffffffffffffff16634bbc1bcd30856040518363ffffffff1660e01b81526004016200164c92919062002a0d565b600060405180830381600087803b1580156200166757600080fd5b505af11580156200167c573d6000803e3d6000fd5b505050506200168d84848462001e54565b5050505050565b60006005600084815260200190815260200160002060009054906101000a900473ffffffffffffffffffffffffffffffffffffffff1690508073ffffffffffffffffffffffffffffffffffffffff163373ffffffffffffffffffffffffffffffffffffffff16146200173d576040517f08c379a0000000000000000000000000000000000000000000000000000000008152600401620017349062002b22565b60405180910390fd5b60008190506000601860008373ffffffffffffffffffffffffffffffffffffffff1663685771f46040518163ffffffff1660e01b8152600401602060405180830381865afa15801562001794573d6000803e3d6000fd5b505050506040513d601f19601f82011682018060405250810190620017ba9190620025c9565b815260200190815260200160002060009054906101000a900473ffffffffffffffffffffffffffffffffffffffff1690506000601260010160009054906101000a900473ffffffffffffffffffffffffffffffffffffffff1690508073ffffffffffffffffffffffffffffffffffffffff1663a9059cbb83876040518363ffffffff1660e01b81526004016200185292919062002a0d565b6020604051808303816000875af115801562001872573d6000803e3d6000fd5b505050506040513d601f19601f82011682018060405250810190620018989190620028d5565b508073ffffffffffffffffffffffffffffffffffffffff16634bbc1bcd601260020160009054906101000a900473ffffffffffffffffffffffffffffffffffffffff1660016040518363ffffffff1660e01b8152600401620018fc92919062002877565b600060405180830381600087803b1580156200191757600080fd5b505af11580156200192c573d6000803e3d6000fd5b505050506200193b8662001f17565b505050505050565b60128060000160009054906101000a900473ffffffffffffffffffffffffffffffffffffffff16908060010160009054906101000a900473ffffffffffffffffffffffffffffffffffffffff16908060020160009054906101000a900473ffffffffffffffffffffffffffffffffffffffff16908060030160009054906101000a900473ffffffffffffffffffffffffffffffffffffffff16905084565b600b6020528060005260406000206000915054906101000a900473ffffffffffffffffffffffffffffffffffffffff1681565b60036020528060005260406000206000915090505481565b600f5481565b60005481565b60196020528060005260406000206000915090505481565b60075481565b600062001a6383620014e1565b6016600001541890508034101562001ab2576040517f08c379a000000000000000000000000000000000000000000000000000000000815260040162001aa99062002b94565b60405180910390fd5b6000601260010160009054906101000a900473ffffffffffffffffffffffffffffffffffffffff169050600062001ae98562001501565b905060008273ffffffffffffffffffffffffffffffffffffffff166370a082316018600089815260200190815260200160002060009054906101000a900473ffffffffffffffffffffffffffffffffffffffff166040518263ffffffff1660e01b815260040162001b5b91906200239a565b602060405180830381865afa15801562001b79573d6000803e3d6000fd5b505050506040513d601f19601f8201168201806040525081019062001b9f9190620025c9565b90508181101562001be7576040517f08c379a000000000000000000000000000000000000000000000000000000000815260040162001bde9062002c06565b60405180910390fd5b6000805487308860405162001bfc90620020d4565b62001c0b949392919062002c28565b604051809103906000f08015801562001c28573d6000803e3d6000fd5b509050600081905062001c3f886000548362001f99565b8473ffffffffffffffffffffffffffffffffffffffff166342966c68856040518263ffffffff1660e01b815260040162001c7a919062002293565b600060405180830381600087803b15801562001c9557600080fd5b505af115801562001caa573d6000803e3d6000fd5b505050508073ffffffffffffffffffffffffffffffffffffffff166108fc349081150290604051600060405180830381858888f1935050505015801562001cf5573d6000803e3d6000fd5b505050505050505050565b600081831062001d11578162001d13565b825b905092915050565b60016009600082825462001d30919062002775565b92505081905550806007600082825462001d4b919062002775565b92505081905550600a600085815260200190815260200160002083908060018154018082558091505060019003906000526020600020016000909190919091505580600d6000868152602001908152602001600020600082825462001db1919062002775565b9250508190555081600b600086815260200190815260200160002060006101000a81548173ffffffffffffffffffffffffffffffffffffffff021916908373ffffffffffffffffffffffffffffffffffffffff16021790555060016011600086815260200190815260200160002060006101000a81548160ff02191690831515021790555083600e60008581526020019081526020016000208190555050505050565b816007600082825462001e68919062002907565b92505081905550816008600082825462001e83919062002775565b925050819055506000600e600085815260200190815260200160002054905082600c6000838152602001908152602001600020600082825462001ec7919062002775565b925050819055506000838362001ede919062002907565b0362001f115760006011600086815260200190815260200160002060006101000a81548160ff0219169083151502179055505b50505050565b6000600360008381526020019081526020016000205490506002600082815260200190815260200160002082908060018154018082558091505060019003906000526020600020016000909190919091505560006006600083815260200190815260200160002060006101000a81548160ff0219169083151502179055505050565b82600360008481526020019081526020016000208190555060016000848152602001908152602001600020829080600181540180825580915050600190039060005260206000200160009091909190915055600160046000848152602001908152602001600020600085815260200190815260200160002060006101000a81548160ff021916908315150217905550806005600084815260200190815260200160002060006101000a81548173ffffffffffffffffffffffffffffffffffffffff021916908373ffffffffffffffffffffffffffffffffffffffff16021790555060016000808282546200208e919062002775565b9250508190555060016006600085815260200190815260200160002060006101000a81548160ff021916908315150217905550505050565b610d218062002c7683390190565b6111e5806200399783390190565b600080fd5b6000819050919050565b620020fc81620020e7565b81146200210857600080fd5b50565b6000813590506200211c81620020f1565b92915050565b6000602082840312156200213b576200213a620020e2565b5b60006200214b848285016200210b565b91505092915050565b60008115159050919050565b6200216b8162002154565b82525050565b600060208201905062002188600083018462002160565b92915050565b6000819050919050565b620021a3816200218e565b8114620021af57600080fd5b50565b600081359050620021c38162002198565b92915050565b60008060008060808587031215620021e657620021e5620020e2565b5b6000620021f6878288016200210b565b945050602062002209878288016200210b565b93505060406200221c878288016200210b565b92505060606200222f87828801620021b2565b91505092959194509250565b60008060408385031215620022555762002254620020e2565b5b600062002265858286016200210b565b925050602062002278858286016200210b565b9150509250929050565b6200228d81620020e7565b82525050565b6000602082019050620022aa600083018462002282565b92915050565b6000604082019050620022c7600083018562002282565b620022d6602083018462002282565b9392505050565b600073ffffffffffffffffffffffffffffffffffffffff82169050919050565b60006200230a82620022dd565b9050919050565b6200231c81620022fd565b81146200232857600080fd5b50565b6000813590506200233c8162002311565b92915050565b600080604083850312156200235c576200235b620020e2565b5b60006200236c858286016200232b565b92505060206200237f858286016200210b565b9150509250929050565b6200239481620022fd565b82525050565b6000602082019050620023b1600083018462002389565b92915050565b60008060008060808587031215620023d457620023d3620020e2565b5b6000620023e4878288016200232b565b9450506020620023f7878288016200210b565b93505060406200240a878288016200210b565b92505060606200241d878288016200210b565b91505092959194509250565b600060808201905062002440600083018762002389565b6200244f602083018662002389565b6200245e604083018562002389565b6200246d606083018462002389565b95945050505050565b6000806040838503121562002490576200248f620020e2565b5b6000620024a0858286016200210b565b9250506020620024b385828601620021b2565b9150509250929050565b600082825260208201905092915050565b7f43616c6c6572206973206e6f7420746865206f776e6572000000000000000000600082015250565b600062002506601783620024bd565b91506200251382620024ce565b602082019050919050565b600060208201905081810360008301526200253981620024f7565b9050919050565b7f4e6f74206861766520656e6f756768206d617474657200000000000000000000600082015250565b600062002578601683620024bd565b9150620025858262002540565b602082019050919050565b60006020820190508181036000830152620025ab8162002569565b9050919050565b600081519050620025c381620020f1565b92915050565b600060208284031215620025e257620025e1620020e2565b5b6000620025f284828501620025b2565b91505092915050565b7f4e6f74206869676820656e6f7567680000000000000000000000000000000000600082015250565b600062002633600f83620024bd565b91506200264082620025fb565b602082019050919050565b60006020820190508181036000830152620026668162002624565b9050919050565b7f4e487b7100000000000000000000000000000000000000000000000000000000600052601260045260246000fd5b6000620026a982620020e7565b9150620026b683620020e7565b925082620026c957620026c86200266d565b5b828206905092915050565b7f447261772072617465206e6f7420646976697369626c65000000000000000000600082015250565b60006200270c601783620024bd565b91506200271982620026d4565b602082019050919050565b600060208201905081810360008301526200273f81620026fd565b9050919050565b7f4e487b7100000000000000000000000000000000000000000000000000000000600052601160045260246000fd5b60006200278282620020e7565b91506200278f83620020e7565b9250828201905080821115620027aa57620027a962002746565b5b92915050565b7f4e487b7100000000000000000000000000000000000000000000000000000000600052603260045260246000fd5b6000620027ec82620020e7565b9150620027f983620020e7565b92508282026200280981620020e7565b9150828204841483151762002823576200282262002746565b5b5092915050565b6000819050919050565b6000819050919050565b60006200285f6200285962002853846200282a565b62002834565b620020e7565b9050919050565b62002871816200283e565b82525050565b60006040820190506200288e600083018562002389565b6200289d602083018462002866565b9392505050565b620028af8162002154565b8114620028bb57600080fd5b50565b600081519050620028cf81620028a4565b92915050565b600060208284031215620028ee57620028ed620020e2565b5b6000620028fe84828501620028be565b91505092915050565b60006200291482620020e7565b91506200292183620020e7565b92508282039050818111156200293c576200293b62002746565b5b92915050565b60006200294f82620020e7565b91507fffffffffffffffffffffffffffffffffffffffffffffffffffffffffffffffff820362002984576200298362002746565b5b600182019050919050565b6200299a816200218e565b82525050565b600060c082019050620029b7600083018962002282565b620029c6602083018862002282565b620029d5604083018762002282565b620029e4606083018662002282565b620029f3608083018562002389565b62002a0260a08301846200298f565b979650505050505050565b600060408201905062002a24600083018562002389565b62002a33602083018462002282565b9392505050565b7f4e6f7420656e6f756768206d6174746572000000000000000000000000000000600082015250565b600062002a72601183620024bd565b915062002a7f8262002a3a565b602082019050919050565b6000602082019050818103600083015262002aa58162002a63565b9050919050565b7f43616c6c6572206973206e6f742074686520726967687420436f736d6f53656560008201527f6420636f6e747261637400000000000000000000000000000000000000000000602082015250565b600062002b0a602a83620024bd565b915062002b178262002aac565b604082019050919050565b6000602082019050818103600083015262002b3d8162002afb565b9050919050565b7f45746865722076616c7565206973206e6f7420656e6f75676800000000000000600082015250565b600062002b7c601983620024bd565b915062002b898262002b44565b602082019050919050565b6000602082019050818103600083015262002baf8162002b6d565b9050919050565b7f4d61747465722062616c616e6365206973206e6f7420656e6f75676800000000600082015250565b600062002bee601c83620024bd565b915062002bfb8262002bb6565b602082019050919050565b6000602082019050818103600083015262002c218162002bdf565b9050919050565b600060808201905062002c3f600083018762002282565b62002c4e602083018662002282565b62002c5d604083018562002389565b62002c6c60608301846200298f565b9594505050505056fe60806040523480156200001157600080fd5b5060405162000d2138038062000d21833981810160405281019062000037919062000283565b85600080018190555084600060010181905550836000600201819055508260006003018190555030600060040160006101000a81548173ffffffffffffffffffffffffffffffffffffffff021916908373ffffffffffffffffffffffffffffffffffffffff16021790555033600060050160006101000a81548173ffffffffffffffffffffffffffffffffffffffff021916908373ffffffffffffffffffffffffffffffffffffffff16021790555080600060060181905550600060050160009054906101000a900473ffffffffffffffffffffffffffffffffffffffff16600860006101000a81548173ffffffffffffffffffffffffffffffffffffffff021916908373ffffffffffffffffffffffffffffffffffffffff16021790555081600960006101000a81548173ffffffffffffffffffffffffffffffffffffffff021916908373ffffffffffffffffffffffffffffffffffffffff1602179055505050505050506200031f565b600080fd5b6000819050919050565b620001bd81620001a8565b8114620001c957600080fd5b50565b600081519050620001dd81620001b2565b92915050565b600073ffffffffffffffffffffffffffffffffffffffff82169050919050565b60006200021082620001e3565b9050919050565b620002228162000203565b81146200022e57600080fd5b50565b600081519050620002428162000217565b92915050565b6000819050919050565b6200025d8162000248565b81146200026957600080fd5b50565b6000815190506200027d8162000252565b92915050565b60008060008060008060c08789031215620002a357620002a2620001a3565b5b6000620002b389828a01620001cc565b9650506020620002c689828a01620001cc565b9550506040620002d989828a01620001cc565b9450506060620002ec89828a01620001cc565b9350506080620002ff89828a0162000231565b92505060a06200031289828a016200026c565b9150509295509295509295565b6109f2806200032f6000396000f3fe608060405234801561001057600080fd5b506004361061002b5760003560e01c806327ac1b6514610030575b600080fd5b61004a60048036038101906100459190610563565b61004c565b005b60011515600060070160003373ffffffffffffffffffffffffffffffffffffffff1673ffffffffffffffffffffffffffffffffffffffff16815260200190815260200160002060009054906101000a900460ff161515036100e2576040517f08c379a00000000000000000000000000000000000000000000000000000000081526004016100d990610667565b60405180910390fd5b6000806002015411610129576040517f08c379a0000000000000000000000000000000000000000000000000000000008152600401610120906106d3565b60405180910390fd5b610132836102eb565b50600960009054906101000a900473ffffffffffffffffffffffffffffffffffffffff1673ffffffffffffffffffffffffffffffffffffffff16639cee22b13360008001546000600301546000600201546040518563ffffffff1660e01b81526004016101a2949392919061074d565b600060405180830381600087803b1580156101bc57600080fd5b505af11580156101d0573d6000803e3d6000fd5b50505050600060030154600060020160008282546101ee91906107c1565b925050819055506001600060070160003373ffffffffffffffffffffffffffffffffffffffff1673ffffffffffffffffffffffffffffffffffffffff16815260200190815260200160002060006101000a81548160ff021916908315150217905550600860009054906101000a900473ffffffffffffffffffffffffffffffffffffffff1673ffffffffffffffffffffffffffffffffffffffff16639202c1ec60006001015484846040518463ffffffff1660e01b81526004016102b4939291906108b8565b600060405180830381600087803b1580156102ce57600080fd5b505af11580156102e2573d6000803e3d6000fd5b50505050505050565b600080826040516020016102ff9190610939565b604051602081830303815290604052805190602001209050600060060154811461035e576040517f08c379a00000000000000000000000000000000000000000000000000000000081526004016103559061099c565b60405180910390fd5b6001915050919050565b6000604051905090565b600080fd5b600080fd5b600080fd5b600080fd5b6000601f19601f8301169050919050565b7f4e487b7100000000000000000000000000000000000000000000000000000000600052604160045260246000fd5b6103cf82610386565b810181811067ffffffffffffffff821117156103ee576103ed610397565b5b80604052505050565b6000610401610368565b905061040d82826103c6565b919050565b600067ffffffffffffffff82111561042d5761042c610397565b5b61043682610386565b9050602081019050919050565b82818337600083830152505050565b600061046561046084610412565b6103f7565b90508281526020810184848401111561048157610480610381565b5b61048c848285610443565b509392505050565b600082601f8301126104a9576104a861037c565b5b81356104b9848260208601610452565b91505092915050565b600067ffffffffffffffff8211156104dd576104dc610397565b5b6104e682610386565b9050602081019050919050565b6000610506610501846104c2565b6103f7565b90508281526020810184848401111561052257610521610381565b5b61052d848285610443565b509392505050565b600082601f83011261054a5761054961037c565b5b813561055a8482602086016104f3565b91505092915050565b60008060006060848603121561057c5761057b610372565b5b600084013567ffffffffffffffff81111561059a57610599610377565b5b6105a686828701610494565b935050602084013567ffffffffffffffff8111156105c7576105c6610377565b5b6105d386828701610494565b925050604084013567ffffffffffffffff8111156105f4576105f3610377565b5b61060086828701610535565b9150509250925092565b600082825260208201905092915050565b7f43616e206f6e6c792064726177206f6e63650000000000000000000000000000600082015250565b600061065160128361060a565b915061065c8261061b565b602082019050919050565b6000602082019050818103600083015261068081610644565b9050919050565b7f4e6f2062757474657220746f2064726177000000000000000000000000000000600082015250565b60006106bd60118361060a565b91506106c882610687565b602082019050919050565b600060208201905081810360008301526106ec816106b0565b9050919050565b600073ffffffffffffffffffffffffffffffffffffffff82169050919050565b600061071e826106f3565b9050919050565b61072e81610713565b82525050565b6000819050919050565b61074781610734565b82525050565b60006080820190506107626000830187610725565b61076f602083018661073e565b61077c604083018561073e565b610789606083018461073e565b95945050505050565b7f4e487b7100000000000000000000000000000000000000000000000000000000600052601160045260246000fd5b60006107cc82610734565b91506107d783610734565b92508282039050818111156107ef576107ee610792565b5b92915050565b600081519050919050565b60005b8381101561081e578082015181840152602081019050610803565b60008484015250505050565b6000610835826107f5565b61083f818561060a565b935061084f818560208601610800565b61085881610386565b840191505092915050565b600081519050919050565b600082825260208201905092915050565b600061088a82610863565b610894818561086e565b93506108a4818560208601610800565b6108ad81610386565b840191505092915050565b60006060820190506108cd600083018661073e565b81810360208301526108df818561082a565b905081810360408301526108f3818461087f565b9050949350505050565b600081905092915050565b6000610913826107f5565b61091d81856108fd565b935061092d818560208601610800565b80840191505092915050565b60006109458284610908565b915081905092915050565b7f496e70757420646f6573206e6f74206d61746368207365637265740000000000600082015250565b6000610986601b8361060a565b915061099182610950565b602082019050919050565b600060208201905081810360008301526109b581610979565b905091905056fea26469706673582212203d880ee6ed1535080a772fdb1fb665ad97bea9443e3109aa796f00520793e1ce64736f6c634300081100336080604052604051620011e5380380620011e58339818101604052810190620000299190620002f4565b600033905080600760006101000a81548173ffffffffffffffffffffffffffffffffffffffff021916908373ffffffffffffffffffffffffffffffffffffffff16021790555082600860006101000a81548173ffffffffffffffffffffffffffffffffffffffff021916908373ffffffffffffffffffffffffffffffffffffffff1602179055508460008001819055508360006001018190555034600060020181905550600860009054906101000a900473ffffffffffffffffffffffffffffffffffffffff1673ffffffffffffffffffffffffffffffffffffffff166334fc1228856040518263ffffffff1660e01b81526004016200012a919062000377565b602060405180830381865afa15801562000148573d6000803e3d6000fd5b505050506040513d601f19601f820116820180604052508101906200016e919062000394565b60006003018190555030600060040160006101000a81548173ffffffffffffffffffffffffffffffffffffffff021916908373ffffffffffffffffffffffffffffffffffffffff16021790555080600060050160006101000a81548173ffffffffffffffffffffffffffffffffffffffff021916908373ffffffffffffffffffffffffffffffffffffffff160217905550816000600601819055505050505050620003c6565b600080fd5b6000819050919050565b6200022e8162000219565b81146200023a57600080fd5b50565b6000815190506200024e8162000223565b92915050565b600073ffffffffffffffffffffffffffffffffffffffff82169050919050565b6000620002818262000254565b9050919050565b620002938162000274565b81146200029f57600080fd5b50565b600081519050620002b38162000288565b92915050565b6000819050919050565b620002ce81620002b9565b8114620002da57600080fd5b50565b600081519050620002ee81620002c3565b92915050565b6000806000806080858703121562000311576200031062000214565b5b600062000321878288016200023d565b945050602062000334878288016200023d565b93505060406200034787828801620002a2565b92505060606200035a87828801620002dd565b91505092959194509250565b620003718162000219565b82525050565b60006020820190506200038e600083018462000366565b92915050565b600060208284031215620003ad57620003ac62000214565b5b6000620003bd848285016200023d565b91505092915050565b610e0f80620003d66000396000f3fe608060405234801561001057600080fd5b506004361061004c5760003560e01c8063685771f4146100515780637d94792a1461006f578063956c2dc314610093578063c5d12c97146100af575b600080fd5b6100596100cd565b6040516100669190610656565b60405180910390f35b6100776100d9565b60405161008a97969594939291906106cb565b60405180910390f35b6100ad60048036038101906100a89190610935565b610149565b005b6100b76105b4565b6040516100c49190610656565b60405180910390f35b60008060010154905090565b60008060000154908060010154908060020154908060030154908060040160009054906101000a900473ffffffffffffffffffffffffffffffffffffffff16908060050160009054906101000a900473ffffffffffffffffffffffffffffffffffffffff16908060060154905087565b610152836105c0565b50600860009054906101000a900473ffffffffffffffffffffffffffffffffffffffff1673ffffffffffffffffffffffffffffffffffffffff1663f27890f260008001546040518263ffffffff1660e01b81526004016101b29190610656565b600060405180830381600087803b1580156101cc57600080fd5b505af11580156101e0573d6000803e3d6000fd5b50505050600760009054906101000a900473ffffffffffffffffffffffffffffffffffffffff1673ffffffffffffffffffffffffffffffffffffffff1663a0e12efe83836040518363ffffffff1660e01b8152600401610241929190610ab0565b600060405180830381600087803b15801561025b57600080fd5b505af115801561026f573d6000803e3d6000fd5b505050506000600860009054906101000a900473ffffffffffffffffffffffffffffffffffffffff1673ffffffffffffffffffffffffffffffffffffffff1663b8a9736d6040518163ffffffff1660e01b8152600401602060405180830381865afa1580156102e2573d6000803e3d6000fd5b505050506040513d601f19601f820116820180604052508101906103069190610b13565b90506000600860009054906101000a900473ffffffffffffffffffffffffffffffffffffffff1673ffffffffffffffffffffffffffffffffffffffff166307604b1a6040518163ffffffff1660e01b8152600401602060405180830381865afa158015610377573d6000803e3d6000fd5b505050506040513d601f19601f8201168201806040525081019061039b9190610b6c565b73ffffffffffffffffffffffffffffffffffffffff16826040516103be90610bca565b60006040518083038185875af1925050503d80600081146103fb576040519150601f19603f3d011682016040523d82523d6000602084013e610400565b606091505b5050905080610444576040517f08c379a000000000000000000000000000000000000000000000000000000000815260040161043b90610c2b565b60405180910390fd5b6000826000600201546104579190610c7a565b90506000600760009054906101000a900473ffffffffffffffffffffffffffffffffffffffff1673ffffffffffffffffffffffffffffffffffffffff16636352211e6000600101546040518263ffffffff1660e01b81526004016104bb9190610656565b602060405180830381865afa1580156104d8573d6000803e3d6000fd5b505050506040513d601f19601f820116820180604052508101906104fc9190610b6c565b905060008173ffffffffffffffffffffffffffffffffffffffff168360405161052490610bca565b60006040518083038185875af1925050503d8060008114610561576040519150601f19603f3d011682016040523d82523d6000602084013e610566565b606091505b50509050806105aa576040517f08c379a00000000000000000000000000000000000000000000000000000000081526004016105a190610cfa565b60405180910390fd5b5050505050505050565b60008060030154905090565b600080826040516020016105d49190610d56565b6040516020818303038152906040528051906020012090506000600601548114610633576040517f08c379a000000000000000000000000000000000000000000000000000000000815260040161062a90610db9565b60405180910390fd5b6001915050919050565b6000819050919050565b6106508161063d565b82525050565b600060208201905061066b6000830184610647565b92915050565b600073ffffffffffffffffffffffffffffffffffffffff82169050919050565b600061069c82610671565b9050919050565b6106ac81610691565b82525050565b6000819050919050565b6106c5816106b2565b82525050565b600060e0820190506106e0600083018a610647565b6106ed6020830189610647565b6106fa6040830188610647565b6107076060830187610647565b61071460808301866106a3565b61072160a08301856106a3565b61072e60c08301846106bc565b98975050505050505050565b6000604051905090565b600080fd5b600080fd5b600080fd5b600080fd5b6000601f19601f8301169050919050565b7f4e487b7100000000000000000000000000000000000000000000000000000000600052604160045260246000fd5b6107a182610758565b810181811067ffffffffffffffff821117156107c0576107bf610769565b5b80604052505050565b60006107d361073a565b90506107df8282610798565b919050565b600067ffffffffffffffff8211156107ff576107fe610769565b5b61080882610758565b9050602081019050919050565b82818337600083830152505050565b6000610837610832846107e4565b6107c9565b90508281526020810184848401111561085357610852610753565b5b61085e848285610815565b509392505050565b600082601f83011261087b5761087a61074e565b5b813561088b848260208601610824565b91505092915050565b600067ffffffffffffffff8211156108af576108ae610769565b5b6108b882610758565b9050602081019050919050565b60006108d86108d384610894565b6107c9565b9050828152602081018484840111156108f4576108f3610753565b5b6108ff848285610815565b509392505050565b600082601f83011261091c5761091b61074e565b5b813561092c8482602086016108c5565b91505092915050565b60008060006060848603121561094e5761094d610744565b5b600084013567ffffffffffffffff81111561096c5761096b610749565b5b61097886828701610866565b935050602084013567ffffffffffffffff81111561099957610998610749565b5b6109a586828701610866565b925050604084013567ffffffffffffffff8111156109c6576109c5610749565b5b6109d286828701610907565b9150509250925092565b600081519050919050565b600082825260208201905092915050565b60005b83811015610a165780820151818401526020810190506109fb565b60008484015250505050565b6000610a2d826109dc565b610a3781856109e7565b9350610a478185602086016109f8565b610a5081610758565b840191505092915050565b600081519050919050565b600082825260208201905092915050565b6000610a8282610a5b565b610a8c8185610a66565b9350610a9c8185602086016109f8565b610aa581610758565b840191505092915050565b60006040820190508181036000830152610aca8185610a22565b90508181036020830152610ade8184610a77565b90509392505050565b610af08161063d565b8114610afb57600080fd5b50565b600081519050610b0d81610ae7565b92915050565b600060208284031215610b2957610b28610744565b5b6000610b3784828501610afe565b91505092915050565b610b4981610691565b8114610b5457600080fd5b50565b600081519050610b6681610b40565b92915050565b600060208284031215610b8257610b81610744565b5b6000610b9084828501610b57565b91505092915050565b600081905092915050565b50565b6000610bb4600083610b99565b9150610bbf82610ba4565b600082019050919050565b6000610bd582610ba7565b9150819050919050565b7f4574686572206e6f742073656e7420746f205472656173757279000000000000600082015250565b6000610c15601a836109e7565b9150610c2082610bdf565b602082019050919050565b60006020820190508181036000830152610c4481610c08565b9050919050565b7f4e487b7100000000000000000000000000000000000000000000000000000000600052601160045260246000fd5b6000610c858261063d565b9150610c908361063d565b9250828203905081811115610ca857610ca7610c4b565b5b92915050565b7f4574686572206e6f742073656e7420746f20706172656e74206e757400000000600082015250565b6000610ce4601c836109e7565b9150610cef82610cae565b602082019050919050565b60006020820190508181036000830152610d1381610cd7565b9050919050565b600081905092915050565b6000610d30826109dc565b610d3a8185610d1a565b9350610d4a8185602086016109f8565b80840191505092915050565b6000610d628284610d25565b915081905092915050565b7f496e70757420646f6573206e6f74206d61746368207365637265740000000000600082015250565b6000610da3601b836109e7565b9150610dae82610d6d565b602082019050919050565b60006020820190508181036000830152610dd281610d96565b905091905056fea26469706673582212208e8ea42eb05fdb7ea0a9631a86c3fe2fc9fc18aca4df1ed6836fe4bd88915b3f64736f6c63430008110033a2646970667358221220a5bb18f331ec99e4b594c447ed4be0ff4e63c2bbc9fe0497cf1745821aa7bc2864736f6c63430008110033",
  "immutableReferences": {},
  "source": "// SPDX-License-Identifier: MIT\npragma solidity ^0.8.7;\n\nimport \"./CosmoNuts.sol\";\nimport \"./CosmoVault.sol\";\n\ncontract CosmoBang {\n\n    CosmoVault vault;\n\n    constructor(\n        address _systemAddress,\n        address _matterAddress\n        //uint256 _nutPrice,\n        //uint256 _matterRate\n    )\n    {\n        vault = new CosmoVault(_systemAddress, _matterAddress);\n    }\n\n    function nutBang(\n        string memory _cosmosName,\n        string memory _cosmosSymbol,\n        uint256 _nutPrice,\n        uint256 _nutRate,\n        uint256 _desiredEntities\n    ) external returns (address) {\n        vault.entityCreation(_nutPrice, _nutRate, _desiredEntities);\n        CosmoNuts nuts = new CosmoNuts(\n            _cosmosName,\n            _cosmosSymbol,\n            _desiredEntities,\n            vault.SYSTEM_ADDRESS(),\n            vault.TREASURY_ADDRESS()\n        );\n        return address(nuts);\n    }\n\n}\n",
  "sourcePath": "/home/redlentils/Seafile/Websites/avatarnft/contracts/CosmoBang.sol",
  "compiler": {
    "name": "solc",
    "version": "0.8.17+commit.8df45f5f.Emscripten.clang"
  },
  "schemaVersion": "3.4.10",
  "updatedAt": "2022-10-07T08:00:39.281Z",
  "devdoc": {
    "kind": "dev",
    "methods": {},
    "version": 1
  },
  "userdoc": {
    "kind": "user",
    "methods": {},
    "version": 1
  }
}