{
  "contractName": "CosmoUniverse",
  "abi": [
    {
      "inputs": [
        {
          "internalType": "address",
          "name": "_systemAddress",
          "type": "address"
        }
      ],
      "stateMutability": "nonpayable",
      "type": "constructor"
    },
    {
      "anonymous": false,
      "inputs": [
        {
          "indexed": true,
          "internalType": "address",
          "name": "previousOwner",
          "type": "address"
        },
        {
          "indexed": true,
          "internalType": "address",
          "name": "newOwner",
          "type": "address"
        }
      ],
      "name": "OwnershipTransferred",
      "type": "event"
    },
    {
      "inputs": [],
      "name": "MATTER_ADDRESS",
      "outputs": [
        {
          "internalType": "address",
          "name": "",
          "type": "address"
        }
      ],
      "stateMutability": "view",
      "type": "function"
    },
    {
      "inputs": [],
      "name": "SYSTEM_ADDRESS",
      "outputs": [
        {
          "internalType": "address",
          "name": "",
          "type": "address"
        }
      ],
      "stateMutability": "view",
      "type": "function"
    },
    {
      "inputs": [
        {
          "internalType": "uint256",
          "name": "",
          "type": "uint256"
        }
      ],
      "name": "cosmos",
      "outputs": [
        {
          "internalType": "bool",
          "name": "status",
          "type": "bool"
        },
        {
          "internalType": "uint256",
          "name": "id",
          "type": "uint256"
        },
        {
          "internalType": "uint256",
          "name": "price",
          "type": "uint256"
        },
        {
          "internalType": "uint256",
          "name": "rate",
          "type": "uint256"
        },
        {
          "internalType": "uint256",
          "name": "amount",
          "type": "uint256"
        },
        {
          "internalType": "string",
          "name": "name",
          "type": "string"
        },
        {
          "internalType": "string",
          "name": "symbol",
          "type": "string"
        },
        {
          "internalType": "address",
          "name": "location",
          "type": "address"
        },
        {
          "internalType": "address",
          "name": "vaultLocation",
          "type": "address"
        }
      ],
      "stateMutability": "view",
      "type": "function"
    },
    {
      "inputs": [],
      "name": "owner",
      "outputs": [
        {
          "internalType": "address",
          "name": "",
          "type": "address"
        }
      ],
      "stateMutability": "view",
      "type": "function"
    },
    {
      "inputs": [],
      "name": "renounceOwnership",
      "outputs": [],
      "stateMutability": "nonpayable",
      "type": "function"
    },
    {
      "inputs": [
        {
          "internalType": "address",
          "name": "newOwner",
          "type": "address"
        }
      ],
      "name": "transferOwnership",
      "outputs": [],
      "stateMutability": "nonpayable",
      "type": "function"
    },
    {
      "inputs": [
        {
          "internalType": "uint256",
          "name": "_id",
          "type": "uint256"
        },
        {
          "internalType": "uint256",
          "name": "_price",
          "type": "uint256"
        },
        {
          "internalType": "uint256",
          "name": "_rate",
          "type": "uint256"
        },
        {
          "internalType": "uint256",
          "name": "_amount",
          "type": "uint256"
        },
        {
          "internalType": "string",
          "name": "_name",
          "type": "string"
        },
        {
          "internalType": "string",
          "name": "_symbol",
          "type": "string"
        }
      ],
      "name": "buildASystem",
      "outputs": [],
      "stateMutability": "nonpayable",
      "type": "function"
    },
    {
      "inputs": [
        {
          "internalType": "string",
          "name": "_matterName",
          "type": "string"
        },
        {
          "internalType": "string",
          "name": "_matterSymbol",
          "type": "string"
        }
      ],
      "name": "makeMatter",
      "outputs": [],
      "stateMutability": "nonpayable",
      "type": "function"
    },
    {
      "inputs": [],
      "name": "bigBang",
      "outputs": [],
      "stateMutability": "nonpayable",
      "type": "function"
    }
  ],
  "bytecode": "0x60806040526000600c553480156200001657600080fd5b506040516200fcc03803806200fcc083398181016040528101906200003c9190620001db565b6200005c62000050620000a360201b60201c565b620000ab60201b60201c565b806000806101000a81548173ffffffffffffffffffffffffffffffffffffffff021916908373ffffffffffffffffffffffffffffffffffffffff160217905550506200020d565b600033905090565b6000600b60009054906101000a900473ffffffffffffffffffffffffffffffffffffffff16905081600b60006101000a81548173ffffffffffffffffffffffffffffffffffffffff021916908373ffffffffffffffffffffffffffffffffffffffff1602179055508173ffffffffffffffffffffffffffffffffffffffff168173ffffffffffffffffffffffffffffffffffffffff167f8be0079c531659141344cd1fd0a4f28419497f9722a3daafe3b4186f6b6457e060405160405180910390a35050565b600080fd5b600073ffffffffffffffffffffffffffffffffffffffff82169050919050565b6000620001a38262000176565b9050919050565b620001b58162000196565b8114620001c157600080fd5b50565b600081519050620001d581620001aa565b92915050565b600060208284031215620001f457620001f362000171565b5b60006200020484828501620001c4565b91505092915050565b61faa3806200021d6000396000f3fe60806040523480156200001157600080fd5b50600436106200009f5760003560e01c8063715018a6116200006f578063715018a614620001145780638da5cb5b1462000120578063bbd051581462000142578063d8712a621462000162578063f2fde38b14620001a0576200009f565b8062e0c5fb14620000a457806303cf067814620000c45780633434735f14620000d057806364b1b66314620000f2575b600080fd5b620000c26004803603810190620000bc919062000e8b565b620001c0565b005b620000ce6200028c565b005b620000da62000598565b604051620000e9919062000faa565b60405180910390f35b620000fc620005bc565b6040516200010b919062000faa565b60405180910390f35b6200011e620005e2565b005b6200012a62000673565b60405162000139919062000faa565b60405180910390f35b6200016060048036038101906200015a919062000fc7565b6200069d565b005b6200018060048036038101906200017a91906200104c565b6200077f565b604051620001979998979695949392919062001135565b60405180910390f35b620001be6004803603810190620001b8919062001213565b6200093a565b005b85600a6000600c5481526020019081526020016000206001018190555084600a6000600c5481526020019081526020016000206002018190555083600a6000600c5481526020019081526020016000206003018190555082600a6000600c5481526020019081526020016000206004018190555081600a6000600c54815260200190815260200160002060050190816200025b91906200147b565b5080600a6000600c54815260200190815260200160002060060190816200028391906200147b565b50505050505050565b6000600a6000600c54815260200190815260200160002060040154600a6000600c54815260200190815260200160002060030154620002cc919062001591565b9050600d60009054906101000a900473ffffffffffffffffffffffffffffffffffffffff16600f60006101000a81548173ffffffffffffffffffffffffffffffffffffffff021916908373ffffffffffffffffffffffffffffffffffffffff160217905550600f60009054906101000a900473ffffffffffffffffffffffffffffffffffffffff1673ffffffffffffffffffffffffffffffffffffffff16634bbc1bcd600a6000600c54815260200190815260200160002060080160009054906101000a900473ffffffffffffffffffffffffffffffffffffffff16836040518363ffffffff1660e01b8152600401620003c8929190620015dc565b600060405180830381600087803b158015620003e357600080fd5b505af1158015620003f8573d6000803e3d6000fd5b5050505062000594600a6000600c5481526020019081526020016000206005018054620004259062001274565b80601f0160208091040260200160405190810160405280929190818152602001828054620004539062001274565b8015620004a45780601f106200047857610100808354040283529160200191620004a4565b820191906000526020600020905b8154815290600101906020018083116200048657829003601f168201915b5050505050600a6000600c5481526020019081526020016000206006018054620004ce9062001274565b80601f0160208091040260200160405190810160405280929190818152602001828054620004fc9062001274565b80156200054d5780601f1062000521576101008083540402835291602001916200054d565b820191906000526020600020905b8154815290600101906020018083116200052f57829003601f168201915b5050505050600a6000600c54815260200190815260200160002060040154600d60009054906101000a900473ffffffffffffffffffffffffffffffffffffffff1662000a3d565b5050565b60008054906101000a900473ffffffffffffffffffffffffffffffffffffffff1681565b600d60009054906101000a900473ffffffffffffffffffffffffffffffffffffffff1681565b620005ec62000be2565b73ffffffffffffffffffffffffffffffffffffffff166200060c62000673565b73ffffffffffffffffffffffffffffffffffffffff161462000665576040517f08c379a00000000000000000000000000000000000000000000000000000000081526004016200065c9062001659565b60405180910390fd5b62000671600062000bea565b565b6000600b60009054906101000a900473ffffffffffffffffffffffffffffffffffffffff16905090565b8181604051620006ad9062000cb0565b620006ba9291906200167b565b604051809103906000f080158015620006d7573d6000803e3d6000fd5b50600f60006101000a81548173ffffffffffffffffffffffffffffffffffffffff021916908373ffffffffffffffffffffffffffffffffffffffff160217905550600f60009054906101000a900473ffffffffffffffffffffffffffffffffffffffff16600d60006101000a81548173ffffffffffffffffffffffffffffffffffffffff021916908373ffffffffffffffffffffffffffffffffffffffff1602179055505050565b600a6020528060005260406000206000915090508060000160009054906101000a900460ff1690806001015490806002015490806003015490806004015490806005018054620007cf9062001274565b80601f0160208091040260200160405190810160405280929190818152602001828054620007fd9062001274565b80156200084e5780601f1062000822576101008083540402835291602001916200084e565b820191906000526020600020905b8154815290600101906020018083116200083057829003601f168201915b505050505090806006018054620008659062001274565b80601f0160208091040260200160405190810160405280929190818152602001828054620008939062001274565b8015620008e45780601f10620008b857610100808354040283529160200191620008e4565b820191906000526020600020905b815481529060010190602001808311620008c657829003601f168201915b5050505050908060070160009054906101000a900473ffffffffffffffffffffffffffffffffffffffff16908060080160009054906101000a900473ffffffffffffffffffffffffffffffffffffffff16905089565b6200094462000be2565b73ffffffffffffffffffffffffffffffffffffffff166200096462000673565b73ffffffffffffffffffffffffffffffffffffffff1614620009bd576040517f08c379a0000000000000000000000000000000000000000000000000000000008152600401620009b49062001659565b60405180910390fd5b600073ffffffffffffffffffffffffffffffffffffffff168173ffffffffffffffffffffffffffffffffffffffff160362000a2f576040517f08c379a000000000000000000000000000000000000000000000000000000000815260040162000a26906200172c565b60405180910390fd5b62000a3a8162000bea565b50565b60008060008054906101000a900473ffffffffffffffffffffffffffffffffffffffff168360405162000a709062000cbe565b62000a7d9291906200174e565b604051809103906000f08015801562000a9a573d6000803e3d6000fd5b509050600086868660008054906101000a900473ffffffffffffffffffffffffffffffffffffffff168560405162000ad29062000ccc565b62000ae29594939291906200177b565b604051809103906000f08015801562000aff573d6000803e3d6000fd5b5090508073ffffffffffffffffffffffffffffffffffffffff1663f6cb600e6040518163ffffffff1660e01b8152600401600060405180830381600087803b15801562000b4b57600080fd5b505af115801562000b60573d6000803e3d6000fd5b505050508073ffffffffffffffffffffffffffffffffffffffff1663235d2c8a6040518163ffffffff1660e01b8152600401602060405180830381865afa15801562000bb0573d6000803e3d6000fd5b505050506040513d601f19601f8201168201806040525081019062000bd69190620017fd565b92505050949350505050565b600033905090565b6000600b60009054906101000a900473ffffffffffffffffffffffffffffffffffffffff16905081600b60006101000a81548173ffffffffffffffffffffffffffffffffffffffff021916908373ffffffffffffffffffffffffffffffffffffffff1602179055508173ffffffffffffffffffffffffffffffffffffffff168173ffffffffffffffffffffffffffffffffffffffff167f8be0079c531659141344cd1fd0a4f28419497f9722a3daafe3b4186f6b6457e060405160405180910390a35050565b611f88806200183083390190565b61642480620037b883390190565b615e928062009bdc83390190565b6000604051905090565b600080fd5b600080fd5b6000819050919050565b62000d038162000cee565b811462000d0f57600080fd5b50565b60008135905062000d238162000cf8565b92915050565b600080fd5b600080fd5b6000601f19601f8301169050919050565b7f4e487b7100000000000000000000000000000000000000000000000000000000600052604160045260246000fd5b62000d7e8262000d33565b810181811067ffffffffffffffff8211171562000da05762000d9f62000d44565b5b80604052505050565b600062000db562000cda565b905062000dc3828262000d73565b919050565b600067ffffffffffffffff82111562000de65762000de562000d44565b5b62000df18262000d33565b9050602081019050919050565b82818337600083830152505050565b600062000e2462000e1e8462000dc8565b62000da9565b90508281526020810184848401111562000e435762000e4262000d2e565b5b62000e5084828562000dfe565b509392505050565b600082601f83011262000e705762000e6f62000d29565b5b813562000e8284826020860162000e0d565b91505092915050565b60008060008060008060c0878903121562000eab5762000eaa62000ce4565b5b600062000ebb89828a0162000d12565b965050602062000ece89828a0162000d12565b955050604062000ee189828a0162000d12565b945050606062000ef489828a0162000d12565b935050608087013567ffffffffffffffff81111562000f185762000f1762000ce9565b5b62000f2689828a0162000e58565b92505060a087013567ffffffffffffffff81111562000f4a5762000f4962000ce9565b5b62000f5889828a0162000e58565b9150509295509295509295565b600073ffffffffffffffffffffffffffffffffffffffff82169050919050565b600062000f928262000f65565b9050919050565b62000fa48162000f85565b82525050565b600060208201905062000fc1600083018462000f99565b92915050565b6000806040838503121562000fe15762000fe062000ce4565b5b600083013567ffffffffffffffff81111562001002576200100162000ce9565b5b620010108582860162000e58565b925050602083013567ffffffffffffffff81111562001034576200103362000ce9565b5b620010428582860162000e58565b9150509250929050565b60006020828403121562001065576200106462000ce4565b5b6000620010758482850162000d12565b91505092915050565b60008115159050919050565b62001095816200107e565b82525050565b620010a68162000cee565b82525050565b600081519050919050565b600082825260208201905092915050565b60005b83811015620010e8578082015181840152602081019050620010cb565b60008484015250505050565b60006200110182620010ac565b6200110d8185620010b7565b93506200111f818560208601620010c8565b6200112a8162000d33565b840191505092915050565b6000610120820190506200114d600083018c6200108a565b6200115c602083018b6200109b565b6200116b604083018a6200109b565b6200117a60608301896200109b565b6200118960808301886200109b565b81810360a08301526200119d8187620010f4565b905081810360c0830152620011b38186620010f4565b9050620011c460e083018562000f99565b620011d461010083018462000f99565b9a9950505050505050505050565b620011ed8162000f85565b8114620011f957600080fd5b50565b6000813590506200120d81620011e2565b92915050565b6000602082840312156200122c576200122b62000ce4565b5b60006200123c84828501620011fc565b91505092915050565b7f4e487b7100000000000000000000000000000000000000000000000000000000600052602260045260246000fd5b600060028204905060018216806200128d57607f821691505b602082108103620012a357620012a262001245565b5b50919050565b60008190508160005260206000209050919050565b60006020601f8301049050919050565b600082821b905092915050565b6000600883026200130d7fffffffffffffffffffffffffffffffffffffffffffffffffffffffffffffffff82620012ce565b620013198683620012ce565b95508019841693508086168417925050509392505050565b6000819050919050565b60006200135c62001356620013508462000cee565b62001331565b62000cee565b9050919050565b6000819050919050565b62001378836200133b565b62001390620013878262001363565b848454620012db565b825550505050565b600090565b620013a762001398565b620013b48184846200136d565b505050565b5b81811015620013dc57620013d06000826200139d565b600181019050620013ba565b5050565b601f8211156200142b57620013f581620012a9565b6200140084620012be565b8101602085101562001410578190505b620014286200141f85620012be565b830182620013b9565b50505b505050565b600082821c905092915050565b6000620014506000198460080262001430565b1980831691505092915050565b60006200146b83836200143d565b9150826002028217905092915050565b6200148682620010ac565b67ffffffffffffffff811115620014a257620014a162000d44565b5b620014ae825462001274565b620014bb828285620013e0565b600060209050601f831160018114620014f35760008415620014de578287015190505b620014ea85826200145d565b8655506200155a565b601f1984166200150386620012a9565b60005b828110156200152d5784890151825560018201915060208501945060208101905062001506565b868310156200154d578489015162001549601f8916826200143d565b8355505b6001600288020188555050505b505050505050565b7f4e487b7100000000000000000000000000000000000000000000000000000000600052601160045260246000fd5b60006200159e8262000cee565b9150620015ab8362000cee565b9250828202620015bb8162000cee565b91508282048414831517620015d557620015d462001562565b5b5092915050565b6000604082019050620015f3600083018562000f99565b6200160260208301846200109b565b9392505050565b7f4f776e61626c653a2063616c6c6572206973206e6f7420746865206f776e6572600082015250565b600062001641602083620010b7565b91506200164e8262001609565b602082019050919050565b60006020820190508181036000830152620016748162001632565b9050919050565b60006040820190508181036000830152620016978185620010f4565b90508181036020830152620016ad8184620010f4565b90509392505050565b7f4f776e61626c653a206e6577206f776e657220697320746865207a65726f206160008201527f6464726573730000000000000000000000000000000000000000000000000000602082015250565b600062001714602683620010b7565b91506200172182620016b6565b604082019050919050565b60006020820190508181036000830152620017478162001705565b9050919050565b600060408201905062001765600083018562000f99565b62001774602083018462000f99565b9392505050565b600060a0820190508181036000830152620017978188620010f4565b90508181036020830152620017ad8187620010f4565b9050620017be60408301866200109b565b620017cd606083018562000f99565b620017dc608083018462000f99565b9695505050505050565b600081519050620017f781620011e2565b92915050565b60006020828403121562001816576200181562000ce4565b5b60006200182684828501620017e6565b9150509291505056fe60806040523480156200001157600080fd5b5060405162001f8838038062001f8883398181016040528101906200003791906200021e565b818181600390816200004a9190620004ee565b5080600490816200005c9190620004ee565b5050508160059081620000709190620004ee565b508060069081620000829190620004ee565b505050620005d5565b6000604051905090565b600080fd5b600080fd5b600080fd5b600080fd5b6000601f19601f8301169050919050565b7f4e487b7100000000000000000000000000000000000000000000000000000000600052604160045260246000fd5b620000f482620000a9565b810181811067ffffffffffffffff82111715620001165762000115620000ba565b5b80604052505050565b60006200012b6200008b565b9050620001398282620000e9565b919050565b600067ffffffffffffffff8211156200015c576200015b620000ba565b5b6200016782620000a9565b9050602081019050919050565b60005b838110156200019457808201518184015260208101905062000177565b60008484015250505050565b6000620001b7620001b1846200013e565b6200011f565b905082815260208101848484011115620001d657620001d5620000a4565b5b620001e384828562000174565b509392505050565b600082601f8301126200020357620002026200009f565b5b815162000215848260208601620001a0565b91505092915050565b6000806040838503121562000238576200023762000095565b5b600083015167ffffffffffffffff8111156200025957620002586200009a565b5b6200026785828601620001eb565b925050602083015167ffffffffffffffff8111156200028b576200028a6200009a565b5b6200029985828601620001eb565b9150509250929050565b600081519050919050565b7f4e487b7100000000000000000000000000000000000000000000000000000000600052602260045260246000fd5b60006002820490506001821680620002f657607f821691505b6020821081036200030c576200030b620002ae565b5b50919050565b60008190508160005260206000209050919050565b60006020601f8301049050919050565b600082821b905092915050565b600060088302620003767fffffffffffffffffffffffffffffffffffffffffffffffffffffffffffffffff8262000337565b62000382868362000337565b95508019841693508086168417925050509392505050565b6000819050919050565b6000819050919050565b6000620003cf620003c9620003c3846200039a565b620003a4565b6200039a565b9050919050565b6000819050919050565b620003eb83620003ae565b62000403620003fa82620003d6565b84845462000344565b825550505050565b600090565b6200041a6200040b565b62000427818484620003e0565b505050565b5b818110156200044f576200044360008262000410565b6001810190506200042d565b5050565b601f8211156200049e57620004688162000312565b620004738462000327565b8101602085101562000483578190505b6200049b620004928562000327565b8301826200042c565b50505b505050565b600082821c905092915050565b6000620004c360001984600802620004a3565b1980831691505092915050565b6000620004de8383620004b0565b9150826002028217905092915050565b620004f982620002a3565b67ffffffffffffffff811115620005155762000514620000ba565b5b620005218254620002dd565b6200052e82828562000453565b600060209050601f83116001811462000566576000841562000551578287015190505b6200055d8582620004d0565b865550620005cd565b601f198416620005768662000312565b60005b82811015620005a05784890151825560018201915060208501945060208101905062000579565b86831015620005c05784890151620005bc601f891682620004b0565b8355505b6001600288020188555050505b505050505050565b6119a380620005e56000396000f3fe608060405234801561001057600080fd5b50600436106101005760003560e01c8063699aa4791161009757806395d89b411161006657806395d89b41146102af578063a457c2d7146102cd578063a9059cbb146102fd578063dd62ed3e1461032d57610100565b8063699aa4791461022757806370a082311461024557806379cc679014610275578063916965651461029157610100565b8063313ce567116100d3578063313ce567146101a157806339509351146101bf57806342966c68146101ef5780634bbc1bcd1461020b57610100565b806306fdde0314610105578063095ea7b31461012357806318160ddd1461015357806323b872dd14610171575b600080fd5b61010d61035d565b60405161011a919061108f565b60405180910390f35b61013d6004803603810190610138919061114a565b6103ef565b60405161014a91906111a5565b60405180910390f35b61015b610412565b60405161016891906111cf565b60405180910390f35b61018b600480360381019061018691906111ea565b61041c565b60405161019891906111a5565b60405180910390f35b6101a961044b565b6040516101b69190611259565b60405180910390f35b6101d960048036038101906101d4919061114a565b610454565b6040516101e691906111a5565b60405180910390f35b61020960048036038101906102049190611274565b61048b565b005b6102256004803603810190610220919061114a565b61049f565b005b61022f6104ad565b60405161023c919061108f565b60405180910390f35b61025f600480360381019061025a91906112a1565b61053b565b60405161026c91906111cf565b60405180910390f35b61028f600480360381019061028a919061114a565b610583565b005b6102996105a3565b6040516102a6919061108f565b60405180910390f35b6102b7610631565b6040516102c4919061108f565b60405180910390f35b6102e760048036038101906102e2919061114a565b6106c3565b6040516102f491906111a5565b60405180910390f35b6103176004803603810190610312919061114a565b61073a565b60405161032491906111a5565b60405180910390f35b610347600480360381019061034291906112ce565b61075d565b60405161035491906111cf565b60405180910390f35b60606003805461036c9061133d565b80601f01602080910402602001604051908101604052809291908181526020018280546103989061133d565b80156103e55780601f106103ba576101008083540402835291602001916103e5565b820191906000526020600020905b8154815290600101906020018083116103c857829003601f168201915b5050505050905090565b6000806103fa6107e4565b90506104078185856107ec565b600191505092915050565b6000600254905090565b6000806104276107e4565b90506104348582856109b5565b61043f858585610a41565b60019150509392505050565b60006012905090565b60008061045f6107e4565b9050610480818585610471858961075d565b61047b919061139d565b6107ec565b600191505092915050565b61049c6104966107e4565b82610cc0565b50565b6104a98282610e96565b5050565b600580546104ba9061133d565b80601f01602080910402602001604051908101604052809291908181526020018280546104e69061133d565b80156105335780601f1061050857610100808354040283529160200191610533565b820191906000526020600020905b81548152906001019060200180831161051657829003601f168201915b505050505081565b60008060008373ffffffffffffffffffffffffffffffffffffffff1673ffffffffffffffffffffffffffffffffffffffff168152602001908152602001600020549050919050565b6105958261058f6107e4565b836109b5565b61059f8282610cc0565b5050565b600680546105b09061133d565b80601f01602080910402602001604051908101604052809291908181526020018280546105dc9061133d565b80156106295780601f106105fe57610100808354040283529160200191610629565b820191906000526020600020905b81548152906001019060200180831161060c57829003601f168201915b505050505081565b6060600480546106409061133d565b80601f016020809104026020016040519081016040528092919081815260200182805461066c9061133d565b80156106b95780601f1061068e576101008083540402835291602001916106b9565b820191906000526020600020905b81548152906001019060200180831161069c57829003601f168201915b5050505050905090565b6000806106ce6107e4565b905060006106dc828661075d565b905083811015610721576040517f08c379a000000000000000000000000000000000000000000000000000000000815260040161071890611443565b60405180910390fd5b61072e82868684036107ec565b60019250505092915050565b6000806107456107e4565b9050610752818585610a41565b600191505092915050565b6000600160008473ffffffffffffffffffffffffffffffffffffffff1673ffffffffffffffffffffffffffffffffffffffff16815260200190815260200160002060008373ffffffffffffffffffffffffffffffffffffffff1673ffffffffffffffffffffffffffffffffffffffff16815260200190815260200160002054905092915050565b600033905090565b600073ffffffffffffffffffffffffffffffffffffffff168373ffffffffffffffffffffffffffffffffffffffff160361085b576040517f08c379a0000000000000000000000000000000000000000000000000000000008152600401610852906114d5565b60405180910390fd5b600073ffffffffffffffffffffffffffffffffffffffff168273ffffffffffffffffffffffffffffffffffffffff16036108ca576040517f08c379a00000000000000000000000000000000000000000000000000000000081526004016108c190611567565b60405180910390fd5b80600160008573ffffffffffffffffffffffffffffffffffffffff1673ffffffffffffffffffffffffffffffffffffffff16815260200190815260200160002060008473ffffffffffffffffffffffffffffffffffffffff1673ffffffffffffffffffffffffffffffffffffffff168152602001908152602001600020819055508173ffffffffffffffffffffffffffffffffffffffff168373ffffffffffffffffffffffffffffffffffffffff167f8c5be1e5ebec7d5bd14f71427d1e84f3dd0314c0f7b2291e5b200ac8c7c3b925836040516109a891906111cf565b60405180910390a3505050565b60006109c1848461075d565b90507fffffffffffffffffffffffffffffffffffffffffffffffffffffffffffffffff8114610a3b5781811015610a2d576040517f08c379a0000000000000000000000000000000000000000000000000000000008152600401610a24906115d3565b60405180910390fd5b610a3a84848484036107ec565b5b50505050565b600073ffffffffffffffffffffffffffffffffffffffff168373ffffffffffffffffffffffffffffffffffffffff1603610ab0576040517f08c379a0000000000000000000000000000000000000000000000000000000008152600401610aa790611665565b60405180910390fd5b600073ffffffffffffffffffffffffffffffffffffffff168273ffffffffffffffffffffffffffffffffffffffff1603610b1f576040517f08c379a0000000000000000000000000000000000000000000000000000000008152600401610b16906116f7565b60405180910390fd5b610b2a838383610ff5565b60008060008573ffffffffffffffffffffffffffffffffffffffff1673ffffffffffffffffffffffffffffffffffffffff16815260200190815260200160002054905081811015610bb0576040517f08c379a0000000000000000000000000000000000000000000000000000000008152600401610ba790611789565b60405180910390fd5b8181036000808673ffffffffffffffffffffffffffffffffffffffff1673ffffffffffffffffffffffffffffffffffffffff16815260200190815260200160002081905550816000808573ffffffffffffffffffffffffffffffffffffffff1673ffffffffffffffffffffffffffffffffffffffff1681526020019081526020016000206000828254610c43919061139d565b925050819055508273ffffffffffffffffffffffffffffffffffffffff168473ffffffffffffffffffffffffffffffffffffffff167fddf252ad1be2c89b69c2b068fc378daa952ba7f163c4a11628f55a4df523b3ef84604051610ca791906111cf565b60405180910390a3610cba848484610ffa565b50505050565b600073ffffffffffffffffffffffffffffffffffffffff168273ffffffffffffffffffffffffffffffffffffffff1603610d2f576040517f08c379a0000000000000000000000000000000000000000000000000000000008152600401610d269061181b565b60405180910390fd5b610d3b82600083610ff5565b60008060008473ffffffffffffffffffffffffffffffffffffffff1673ffffffffffffffffffffffffffffffffffffffff16815260200190815260200160002054905081811015610dc1576040517f08c379a0000000000000000000000000000000000000000000000000000000008152600401610db8906118ad565b60405180910390fd5b8181036000808573ffffffffffffffffffffffffffffffffffffffff1673ffffffffffffffffffffffffffffffffffffffff168152602001908152602001600020819055508160026000828254610e1891906118cd565b92505081905550600073ffffffffffffffffffffffffffffffffffffffff168373ffffffffffffffffffffffffffffffffffffffff167fddf252ad1be2c89b69c2b068fc378daa952ba7f163c4a11628f55a4df523b3ef84604051610e7d91906111cf565b60405180910390a3610e9183600084610ffa565b505050565b600073ffffffffffffffffffffffffffffffffffffffff168273ffffffffffffffffffffffffffffffffffffffff1603610f05576040517f08c379a0000000000000000000000000000000000000000000000000000000008152600401610efc9061194d565b60405180910390fd5b610f1160008383610ff5565b8060026000828254610f23919061139d565b92505081905550806000808473ffffffffffffffffffffffffffffffffffffffff1673ffffffffffffffffffffffffffffffffffffffff1681526020019081526020016000206000828254610f78919061139d565b925050819055508173ffffffffffffffffffffffffffffffffffffffff16600073ffffffffffffffffffffffffffffffffffffffff167fddf252ad1be2c89b69c2b068fc378daa952ba7f163c4a11628f55a4df523b3ef83604051610fdd91906111cf565b60405180910390a3610ff160008383610ffa565b5050565b505050565b505050565b600081519050919050565b600082825260208201905092915050565b60005b8381101561103957808201518184015260208101905061101e565b60008484015250505050565b6000601f19601f8301169050919050565b600061106182610fff565b61106b818561100a565b935061107b81856020860161101b565b61108481611045565b840191505092915050565b600060208201905081810360008301526110a98184611056565b905092915050565b600080fd5b600073ffffffffffffffffffffffffffffffffffffffff82169050919050565b60006110e1826110b6565b9050919050565b6110f1816110d6565b81146110fc57600080fd5b50565b60008135905061110e816110e8565b92915050565b6000819050919050565b61112781611114565b811461113257600080fd5b50565b6000813590506111448161111e565b92915050565b60008060408385031215611161576111606110b1565b5b600061116f858286016110ff565b925050602061118085828601611135565b9150509250929050565b60008115159050919050565b61119f8161118a565b82525050565b60006020820190506111ba6000830184611196565b92915050565b6111c981611114565b82525050565b60006020820190506111e460008301846111c0565b92915050565b600080600060608486031215611203576112026110b1565b5b6000611211868287016110ff565b9350506020611222868287016110ff565b925050604061123386828701611135565b9150509250925092565b600060ff82169050919050565b6112538161123d565b82525050565b600060208201905061126e600083018461124a565b92915050565b60006020828403121561128a576112896110b1565b5b600061129884828501611135565b91505092915050565b6000602082840312156112b7576112b66110b1565b5b60006112c5848285016110ff565b91505092915050565b600080604083850312156112e5576112e46110b1565b5b60006112f3858286016110ff565b9250506020611304858286016110ff565b9150509250929050565b7f4e487b7100000000000000000000000000000000000000000000000000000000600052602260045260246000fd5b6000600282049050600182168061135557607f821691505b6020821081036113685761136761130e565b5b50919050565b7f4e487b7100000000000000000000000000000000000000000000000000000000600052601160045260246000fd5b60006113a882611114565b91506113b383611114565b92508282019050808211156113cb576113ca61136e565b5b92915050565b7f45524332303a2064656372656173656420616c6c6f77616e63652062656c6f7760008201527f207a65726f000000000000000000000000000000000000000000000000000000602082015250565b600061142d60258361100a565b9150611438826113d1565b604082019050919050565b6000602082019050818103600083015261145c81611420565b9050919050565b7f45524332303a20617070726f76652066726f6d20746865207a65726f2061646460008201527f7265737300000000000000000000000000000000000000000000000000000000602082015250565b60006114bf60248361100a565b91506114ca82611463565b604082019050919050565b600060208201905081810360008301526114ee816114b2565b9050919050565b7f45524332303a20617070726f766520746f20746865207a65726f20616464726560008201527f7373000000000000000000000000000000000000000000000000000000000000602082015250565b600061155160228361100a565b915061155c826114f5565b604082019050919050565b6000602082019050818103600083015261158081611544565b9050919050565b7f45524332303a20696e73756666696369656e7420616c6c6f77616e6365000000600082015250565b60006115bd601d8361100a565b91506115c882611587565b602082019050919050565b600060208201905081810360008301526115ec816115b0565b9050919050565b7f45524332303a207472616e736665722066726f6d20746865207a65726f20616460008201527f6472657373000000000000000000000000000000000000000000000000000000602082015250565b600061164f60258361100a565b915061165a826115f3565b604082019050919050565b6000602082019050818103600083015261167e81611642565b9050919050565b7f45524332303a207472616e7366657220746f20746865207a65726f206164647260008201527f6573730000000000000000000000000000000000000000000000000000000000602082015250565b60006116e160238361100a565b91506116ec82611685565b604082019050919050565b60006020820190508181036000830152611710816116d4565b9050919050565b7f45524332303a207472616e7366657220616d6f756e742065786365656473206260008201527f616c616e63650000000000000000000000000000000000000000000000000000602082015250565b600061177360268361100a565b915061177e82611717565b604082019050919050565b600060208201905081810360008301526117a281611766565b9050919050565b7f45524332303a206275726e2066726f6d20746865207a65726f2061646472657360008201527f7300000000000000000000000000000000000000000000000000000000000000602082015250565b600061180560218361100a565b9150611810826117a9565b604082019050919050565b60006020820190508181036000830152611834816117f8565b9050919050565b7f45524332303a206275726e20616d6f756e7420657863656564732062616c616e60008201527f6365000000000000000000000000000000000000000000000000000000000000602082015250565b600061189760228361100a565b91506118a28261183b565b604082019050919050565b600060208201905081810360008301526118c68161188a565b9050919050565b60006118d882611114565b91506118e383611114565b92508282039050818111156118fb576118fa61136e565b5b92915050565b7f45524332303a206d696e7420746f20746865207a65726f206164647265737300600082015250565b6000611937601f8361100a565b915061194282611901565b602082019050919050565b600060208201905081810360008301526119668161192a565b905091905056fea26469706673582212207bee98e8aa06d137da54189fb79d050dead096b062edf8eedb348d3247d178f164736f6c6343000811003360806040523480156200001157600080fd5b5060405162006424380380620064248339818101604052810190620000379190620001b0565b6000600560006101000a81548160ff0219169083151502179055508181604051620000629062000138565b6200006f92919062000208565b604051809103906000f0801580156200008c573d6000803e3d6000fd5b50600560016101000a81548173ffffffffffffffffffffffffffffffffffffffff021916908373ffffffffffffffffffffffffffffffffffffffff160217905550600560019054906101000a900473ffffffffffffffffffffffffffffffffffffffff16600160006101000a81548173ffffffffffffffffffffffffffffffffffffffff021916908373ffffffffffffffffffffffffffffffffffffffff160217905550505062000235565b614d95806200168f83390190565b600080fd5b600073ffffffffffffffffffffffffffffffffffffffff82169050919050565b600062000178826200014b565b9050919050565b6200018a816200016b565b81146200019657600080fd5b50565b600081519050620001aa816200017f565b92915050565b60008060408385031215620001ca57620001c962000146565b5b6000620001da8582860162000199565b9250506020620001ed8582860162000199565b9150509250929050565b62000202816200016b565b82525050565b60006040820190506200021f6000830185620001f7565b6200022e6020830184620001f7565b9392505050565b61144a80620002456000396000f3fe608060405234801561001057600080fd5b50600436106100ea5760003560e01c806386d3d8711161008c578063b8a9736d11610066578063b8a9736d14610223578063efcdb23d14610241578063f27890f21461025f578063f2b97ee21461027b576100ea565b806386d3d871146101e1578063911da062146101fd578063a8a9380014610219576100ea565b8063347518a8116100c8578063347518a81461014957806334fc1228146101655780635e14a478146101955780637fcacc0e146101b1576100ea565b806307604b1a146100ef5780630a82f53b1461010d5780633434735f1461012b575b600080fd5b6100f7610299565b6040516101049190610be7565b60405180910390f35b6101156102bf565b6040516101229190610c1d565b60405180910390f35b6101336102d2565b6040516101409190610be7565b60405180910390f35b610163600480360381019061015e9190610c82565b6102f6565b005b61017f600480360381019061017a9190610c82565b6103aa565b60405161018c9190610cbe565b60405180910390f35b6101af60048036038101906101aa9190610cd9565b61044f565b005b6101cb60048036038101906101c69190610ea8565b610469565b6040516101d89190610c1d565b60405180910390f35b6101fb60048036038101906101f69190610f04565b61050d565b005b61021760048036038101906102129190610f44565b6105a0565b005b61022161063a565b005b61022b610657565b6040516102389190610cbe565b60405180910390f35b61024961065d565b6040516102569190610cbe565b60405180910390f35b61027960048036038101906102749190610c82565b610663565b005b6102836107a4565b6040516102909190610cbe565b60405180910390f35b600160009054906101000a900473ffffffffffffffffffffffffffffffffffffffff1681565b600560009054906101000a900460ff1681565b60008054906101000a900473ffffffffffffffffffffffffffffffffffffffff1681565b600560019054906101000a900473ffffffffffffffffffffffffffffffffffffffff1673ffffffffffffffffffffffffffffffffffffffff16631c85949c600160009054906101000a900473ffffffffffffffffffffffffffffffffffffffff16836040518363ffffffff1660e01b8152600401610375929190610f97565b600060405180830381600087803b15801561038f57600080fd5b505af11580156103a3573d6000803e3d6000fd5b5050505050565b6000600560019054906101000a900473ffffffffffffffffffffffffffffffffffffffff1673ffffffffffffffffffffffffffffffffffffffff16638ed3df0f836040518263ffffffff1660e01b81526004016104079190610cbe565b602060405180830381865afa158015610424573d6000803e3d6000fd5b505050506040513d601f19601f820116820180604052508101906104489190610fd5565b9050919050565b826002819055508160038190555080600481905550505050565b60008060009054906101000a900473ffffffffffffffffffffffffffffffffffffffff1673ffffffffffffffffffffffffffffffffffffffff166104ad84846107aa565b73ffffffffffffffffffffffffffffffffffffffff1614610503576040517f08c379a00000000000000000000000000000000000000000000000000000000081526004016104fa9061105f565b60405180910390fd5b6001905092915050565b600560019054906101000a900473ffffffffffffffffffffffffffffffffffffffff1673ffffffffffffffffffffffffffffffffffffffff1663fe774f9d83836040518363ffffffff1660e01b815260040161056a92919061108e565b600060405180830381600087803b15801561058457600080fd5b505af1158015610598573d6000803e3d6000fd5b505050505050565b600560019054906101000a900473ffffffffffffffffffffffffffffffffffffffff1673ffffffffffffffffffffffffffffffffffffffff166303f5de9d8484600354856040518563ffffffff1660e01b815260040161060394939291906110b7565b600060405180830381600087803b15801561061d57600080fd5b505af1158015610631573d6000803e3d6000fd5b50505050505050565b6001600560006101000a81548160ff021916908315150217905550565b60025481565b60035481565b6000600560019054906101000a900473ffffffffffffffffffffffffffffffffffffffff1673ffffffffffffffffffffffffffffffffffffffff1663d4d81032836040518263ffffffff1660e01b81526004016106c09190610cbe565b602060405180830381865afa1580156106dd573d6000803e3d6000fd5b505050506040513d601f19601f820116820180604052508101906107019190610fd5565b9050600061070e826103aa565b9050600560019054906101000a900473ffffffffffffffffffffffffffffffffffffffff1673ffffffffffffffffffffffffffffffffffffffff1663a06fc90b84836040518363ffffffff1660e01b815260040161076d9291906110fc565b600060405180830381600087803b15801561078757600080fd5b505af115801561079b573d6000803e3d6000fd5b50505050505050565b60045481565b60006107bf82846107c790919063ffffffff16565b905092915050565b60008060006107d685856107ee565b915091506107e38161086f565b819250505092915050565b600080604183510361082f5760008060006020860151925060408601519150606086015160001a905061082387828585610a3b565b94509450505050610868565b604083510361085f576000806020850151915060408501519050610854868383610b47565b935093505050610868565b60006002915091505b9250929050565b6000600481111561088357610882611125565b5b81600481111561089657610895611125565b5b0315610a3857600160048111156108b0576108af611125565b5b8160048111156108c3576108c2611125565b5b03610903576040517f08c379a00000000000000000000000000000000000000000000000000000000081526004016108fa906111a0565b60405180910390fd5b6002600481111561091757610916611125565b5b81600481111561092a57610929611125565b5b0361096a576040517f08c379a00000000000000000000000000000000000000000000000000000000081526004016109619061120c565b60405180910390fd5b6003600481111561097e5761097d611125565b5b81600481111561099157610990611125565b5b036109d1576040517f08c379a00000000000000000000000000000000000000000000000000000000081526004016109c89061129e565b60405180910390fd5b6004808111156109e4576109e3611125565b5b8160048111156109f7576109f6611125565b5b03610a37576040517f08c379a0000000000000000000000000000000000000000000000000000000008152600401610a2e90611330565b60405180910390fd5b5b50565b6000807f7fffffffffffffffffffffffffffffff5d576e7357a4501ddfe92f46681b20a08360001c1115610a76576000600391509150610b3e565b601b8560ff1614158015610a8e5750601c8560ff1614155b15610aa0576000600491509150610b3e565b600060018787878760405160008152602001604052604051610ac5949392919061136c565b6020604051602081039080840390855afa158015610ae7573d6000803e3d6000fd5b505050602060405103519050600073ffffffffffffffffffffffffffffffffffffffff168173ffffffffffffffffffffffffffffffffffffffff1603610b3557600060019250925050610b3e565b80600092509250505b94509492505050565b60008060007f7fffffffffffffffffffffffffffffffffffffffffffffffffffffffffffffff60001b841690506000601b60ff8660001c901c610b8a91906113e0565b9050610b9887828885610a3b565b935093505050935093915050565b600073ffffffffffffffffffffffffffffffffffffffff82169050919050565b6000610bd182610ba6565b9050919050565b610be181610bc6565b82525050565b6000602082019050610bfc6000830184610bd8565b92915050565b60008115159050919050565b610c1781610c02565b82525050565b6000602082019050610c326000830184610c0e565b92915050565b6000604051905090565b600080fd5b600080fd5b6000819050919050565b610c5f81610c4c565b8114610c6a57600080fd5b50565b600081359050610c7c81610c56565b92915050565b600060208284031215610c9857610c97610c42565b5b6000610ca684828501610c6d565b91505092915050565b610cb881610c4c565b82525050565b6000602082019050610cd36000830184610caf565b92915050565b600080600060608486031215610cf257610cf1610c42565b5b6000610d0086828701610c6d565b9350506020610d1186828701610c6d565b9250506040610d2286828701610c6d565b9150509250925092565b6000819050919050565b610d3f81610d2c565b8114610d4a57600080fd5b50565b600081359050610d5c81610d36565b92915050565b600080fd5b600080fd5b6000601f19601f8301169050919050565b7f4e487b7100000000000000000000000000000000000000000000000000000000600052604160045260246000fd5b610db582610d6c565b810181811067ffffffffffffffff82111715610dd457610dd3610d7d565b5b80604052505050565b6000610de7610c38565b9050610df38282610dac565b919050565b600067ffffffffffffffff821115610e1357610e12610d7d565b5b610e1c82610d6c565b9050602081019050919050565b82818337600083830152505050565b6000610e4b610e4684610df8565b610ddd565b905082815260208101848484011115610e6757610e66610d67565b5b610e72848285610e29565b509392505050565b600082601f830112610e8f57610e8e610d62565b5b8135610e9f848260208601610e38565b91505092915050565b60008060408385031215610ebf57610ebe610c42565b5b6000610ecd85828601610d4d565b925050602083013567ffffffffffffffff811115610eee57610eed610c47565b5b610efa85828601610e7a565b9150509250929050565b60008060408385031215610f1b57610f1a610c42565b5b6000610f2985828601610c6d565b9250506020610f3a85828601610d4d565b9150509250929050565b600080600060608486031215610f5d57610f5c610c42565b5b6000610f6b86828701610c6d565b9350506020610f7c86828701610c6d565b9250506040610f8d86828701610d4d565b9150509250925092565b6000604082019050610fac6000830185610bd8565b610fb96020830184610caf565b9392505050565b600081519050610fcf81610c56565b92915050565b600060208284031215610feb57610fea610c42565b5b6000610ff984828501610fc0565b91505092915050565b600082825260208201905092915050565b7f496e76616c6964207369676e6174757265000000000000000000000000000000600082015250565b6000611049601183611002565b915061105482611013565b602082019050919050565b600060208201905081810360008301526110788161103c565b9050919050565b61108881610d2c565b82525050565b60006040820190506110a36000830185610caf565b6110b0602083018461107f565b9392505050565b60006080820190506110cc6000830187610caf565b6110d96020830186610caf565b6110e66040830185610caf565b6110f3606083018461107f565b95945050505050565b60006040820190506111116000830185610caf565b61111e6020830184610caf565b9392505050565b7f4e487b7100000000000000000000000000000000000000000000000000000000600052602160045260246000fd5b7f45434453413a20696e76616c6964207369676e61747572650000000000000000600082015250565b600061118a601883611002565b915061119582611154565b602082019050919050565b600060208201905081810360008301526111b98161117d565b9050919050565b7f45434453413a20696e76616c6964207369676e6174757265206c656e67746800600082015250565b60006111f6601f83611002565b9150611201826111c0565b602082019050919050565b60006020820190508181036000830152611225816111e9565b9050919050565b7f45434453413a20696e76616c6964207369676e6174757265202773272076616c60008201527f7565000000000000000000000000000000000000000000000000000000000000602082015250565b6000611288602283611002565b91506112938261122c565b604082019050919050565b600060208201905081810360008301526112b78161127b565b9050919050565b7f45434453413a20696e76616c6964207369676e6174757265202776272076616c60008201527f7565000000000000000000000000000000000000000000000000000000000000602082015250565b600061131a602283611002565b9150611325826112be565b604082019050919050565b600060208201905081810360008301526113498161130d565b9050919050565b600060ff82169050919050565b61136681611350565b82525050565b6000608082019050611381600083018761107f565b61138e602083018661135d565b61139b604083018561107f565b6113a8606083018461107f565b95945050505050565b7f4e487b7100000000000000000000000000000000000000000000000000000000600052601160045260246000fd5b60006113eb82610c4c565b91506113f683610c4c565b925082820190508082111561140e5761140d6113b1565b5b9291505056fea26469706673582212202b1cc579b0b852e5c06eb36fba27b4f23f7d356955315d99bb46938fb643c83364736f6c634300081100336080604052600080556000600755600060085560006009556000600f553480156200002957600080fd5b5060405162004d9538038062004d9583398181016040528101906200004f91906200018d565b81601260000160006101000a81548173ffffffffffffffffffffffffffffffffffffffff021916908373ffffffffffffffffffffffffffffffffffffffff16021790555080601260010160006101000a81548173ffffffffffffffffffffffffffffffffffffffff021916908373ffffffffffffffffffffffffffffffffffffffff16021790555030601260020160006101000a81548173ffffffffffffffffffffffffffffffffffffffff021916908373ffffffffffffffffffffffffffffffffffffffff1602179055505050620001d4565b600080fd5b600073ffffffffffffffffffffffffffffffffffffffff82169050919050565b6000620001558262000128565b9050919050565b620001678162000148565b81146200017357600080fd5b50565b60008151905062000187816200015c565b92915050565b60008060408385031215620001a757620001a662000123565b5b6000620001b78582860162000176565b9250506020620001ca8582860162000176565b9150509250929050565b614bb180620001e46000396000f3fe608060405260043610620002125760003560e01c80634ffe5a6f116200011b578063a83851b911620000a3578063ea988be8116200006d578063ea988be814620008cf578063f50d434914620008ff578063f6317f8d1462000943578063fe774f9d14620009735762000212565b8063a83851b914620007e4578063aef054ce1462000817578063d4d81032146200085b578063df4f5ccc146200089f5762000212565b80639578d3df11620000e55780639578d3df14620007005780639975a8a214620007445780639cee22b11462000788578063a06fc90b14620007b65762000212565b80634ffe5a6f14620005f057806353f97bc814620006345780636b651a2c14620006785780638ed3df0f14620006bc5762000212565b806323f526c0116200019f57806339dc84f4116200016957806339dc84f414620004f45780633c8023ad146200053857806347634e1c146200057c57806349a6b51f14620005c05762000212565b806323f526c014620003f857806326342ea4146200043c578063282adc8c146200046c5780633279bd4f14620004b05762000212565b8063171e844111620001e1578063171e844114620002fe5780631821907a14620003425780631c85949c14620003865780631e0b396414620003b45762000212565b806302760a48146200021757806303f5de9d146200025b5780631298896e146200028957806315d3b7a014620002cd575b600080fd5b3480156200022457600080fd5b506200024360048036038101906200023d919062002122565b62000993565b60405162000252919062002171565b60405180910390f35b3480156200026857600080fd5b50620002876004803603810190620002819190620021c9565b620009b3565b005b3480156200029657600080fd5b50620002b56004803603810190620002af91906200223b565b62001135565b604051620002c4919062002293565b60405180910390f35b348015620002da57600080fd5b50620002e562001167565b604051620002f5929190620022b0565b60405180910390f35b3480156200030b57600080fd5b506200032a600480360381019062000324919062002122565b62001179565b60405162000339919062002171565b60405180910390f35b3480156200034f57600080fd5b506200036e600480360381019062000368919062002122565b62001199565b6040516200037d919062002293565b60405180910390f35b3480156200039357600080fd5b50620003b26004803603810190620003ac919062002342565b620011b1565b005b348015620003c157600080fd5b50620003e06004803603810190620003da91906200223b565b62001374565b604051620003ef919062002293565b60405180910390f35b3480156200040557600080fd5b506200042460048036038101906200041e919062002122565b620013a6565b6040516200043391906200239a565b60405180910390f35b3480156200044957600080fd5b5062000454620013d9565b60405162000463919062002293565b60405180910390f35b3480156200047957600080fd5b5062000498600480360381019062000492919062002122565b620013df565b604051620004a7919062002293565b60405180910390f35b348015620004bd57600080fd5b50620004dc6004803603810190620004d6919062002122565b620013ff565b604051620004eb919062002293565b60405180910390f35b3480156200050157600080fd5b506200052060048036038101906200051a919062002122565b62001417565b6040516200052f91906200239a565b60405180910390f35b3480156200054557600080fd5b506200056460048036038101906200055e91906200223b565b6200144a565b60405162000573919062002293565b60405180910390f35b3480156200058957600080fd5b50620005a86004803603810190620005a2919062002122565b6200147c565b604051620005b7919062002293565b60405180910390f35b348015620005cd57600080fd5b50620005d862001494565b604051620005e7919062002293565b60405180910390f35b348015620005fd57600080fd5b506200061c600480360381019062000616919062002122565b6200149a565b6040516200062b919062002293565b60405180910390f35b3480156200064157600080fd5b506200066060048036038101906200065a91906200223b565b620014b2565b6040516200066f919062002171565b60405180910390f35b3480156200068557600080fd5b50620006a460048036038101906200069e919062002122565b620014e1565b604051620006b3919062002293565b60405180910390f35b348015620006c957600080fd5b50620006e86004803603810190620006e2919062002122565b62001501565b604051620006f7919062002293565b60405180910390f35b3480156200070d57600080fd5b506200072c600480360381019062000726919062002122565b6200151c565b6040516200073b919062002293565b60405180910390f35b3480156200075157600080fd5b506200077060048036038101906200076a919062002122565b62001541565b6040516200077f919062002293565b60405180910390f35b3480156200079557600080fd5b50620007b46004803603810190620007ae9190620023b7565b62001561565b005b348015620007c357600080fd5b50620007e26004803603810190620007dc91906200223b565b62001694565b005b348015620007f157600080fd5b50620007fc62001943565b6040516200080e949392919062002429565b60405180910390f35b3480156200082457600080fd5b506200084360048036038101906200083d919062002122565b620019e1565b6040516200085291906200239a565b60405180910390f35b3480156200086857600080fd5b5062000887600480360381019062000881919062002122565b62001a14565b60405162000896919062002293565b60405180910390f35b348015620008ac57600080fd5b50620008b762001a2c565b604051620008c6919062002293565b60405180910390f35b348015620008dc57600080fd5b50620008e762001a32565b604051620008f6919062002293565b60405180910390f35b3480156200090c57600080fd5b506200092b600480360381019062000925919062002122565b62001a38565b6040516200093a919062002293565b60405180910390f35b3480156200095057600080fd5b506200095b62001a50565b6040516200096a919062002293565b60405180910390f35b6200099160048036038101906200098b919062002476565b62001a56565b005b60116020528060005260406000206000915054906101000a900460ff1681565b60006018600086815260200190815260200160002060009054906101000a900473ffffffffffffffffffffffffffffffffffffffff1690503373ffffffffffffffffffffffffffffffffffffffff168173ffffffffffffffffffffffffffffffffffffffff161462000a5c576040517f08c379a000000000000000000000000000000000000000000000000000000000815260040162000a53906200251e565b60405180910390fd5b836019600087815260200190815260200160002054101562000ab5576040517f08c379a000000000000000000000000000000000000000000000000000000000815260040162000aac9062002590565b60405180910390fd5b6000601260010160009054906101000a900473ffffffffffffffffffffffffffffffffffffffff1690508073ffffffffffffffffffffffffffffffffffffffff166370a08231836040518263ffffffff1660e01b815260040162000b1a91906200239a565b602060405180830381865afa15801562000b38573d6000803e3d6000fd5b505050506040513d601f19601f8201168201806040525081019062000b5e9190620025c9565b85111562000ba3576040517f08c379a000000000000000000000000000000000000000000000000000000000815260040162000b9a906200264b565b60405180910390fd5b6000848662000bb391906200269c565b1462000bf6576040517f08c379a000000000000000000000000000000000000000000000000000000000815260040162000bed9062002724565b60405180910390fd5b600062000c0387620014e1565b111562000c7b5784600f600082825462000c1e919062002775565b925050819055508460106000888152602001908152602001600020600082825462000c4a919062002775565b92505081905550601a8690806001815401808255809150506001900390600052602060002001600090919091909150555b60008173ffffffffffffffffffffffffffffffffffffffff166370a08231601260020160009054906101000a900473ffffffffffffffffffffffffffffffffffffffff166040518263ffffffff1660e01b815260040162000cdd91906200239a565b602060405180830381865afa15801562000cfb573d6000803e3d6000fd5b505050506040513d601f19601f8201168201806040525081019062000d219190620025c9565b905060008111156200102957600062000d3d82600f5462001d00565b90506000805b82811462000f7f576000601a8054905090506000810362000d65575062000f7f565b8082111562000d7357600092505b6000601a848154811062000d8c5762000d8b620027b0565b5b9060005260206000200154905060006018600083815260200190815260200160002060009054906101000a900473ffffffffffffffffffffffffffffffffffffffff169050600060166001015462000de484620014e1565b62000df09190620027df565b90508060196000858152602001908152602001600020540362000e3857601a868154811062000e245762000e23620027b0565b5b906000526020600020016000905562000f55565b8873ffffffffffffffffffffffffffffffffffffffff1663a9059cbb8360016040518363ffffffff1660e01b815260040162000e7692919062002877565b6020604051808303816000875af115801562000e96573d6000803e3d6000fd5b505050506040513d601f19601f8201168201806040525081019062000ebc9190620028d5565b50601a839080600181540180825580915050600190039060005260206000200160009091909190915055601a868154811062000efd5762000efc620027b0565b5b90600052602060002001600090556001600f600082825462000f20919062002907565b92505081905550600160106000858152602001908152602001600020600082825462000f4d919062002907565b925050819055505b858062000f629062002942565b96505050505050808062000f769062002942565b91505062000d43565b508373ffffffffffffffffffffffffffffffffffffffff166370a08231601260020160009054906101000a900473ffffffffffffffffffffffffffffffffffffffff166040518263ffffffff1660e01b815260040162000fe091906200239a565b602060405180830381865afa15801562000ffe573d6000803e3d6000fd5b505050506040513d601f19601f82011682018060405250810190620010249190620025c9565b925050505b6000600954888888601260020160009054906101000a900473ffffffffffffffffffffffffffffffffffffffff16896040516200106690620020c6565b6200107796959493929190620029a0565b604051809103906000f08015801562001094573d6000803e3d6000fd5b5090508273ffffffffffffffffffffffffffffffffffffffff1663a9059cbb82896040518363ffffffff1660e01b8152600401620010d492919062002a0d565b6020604051808303816000875af1158015620010f4573d6000803e3d6000fd5b505050506040513d601f19601f820116820180604052508101906200111a9190620028d5565b506200112b88600954838a62001d1b565b5050505050505050565b600260205281600052604060002081815481106200115257600080fd5b90600052602060002001600091509150505481565b60168060000154908060010154905082565b60066020528060005260406000206000915054906101000a900460ff1681565b600d6020528060005260406000206000915090505481565b6000601260010160009054906101000a900473ffffffffffffffffffffffffffffffffffffffff1690506016600101548173ffffffffffffffffffffffffffffffffffffffff166370a08231601260020160009054906101000a900473ffffffffffffffffffffffffffffffffffffffff166040518263ffffffff1660e01b81526004016200124191906200239a565b602060405180830381865afa1580156200125f573d6000803e3d6000fd5b505050506040513d601f19601f82011682018060405250810190620012859190620025c9565b1015620012c9576040517f08c379a0000000000000000000000000000000000000000000000000000000008152600401620012c09062002a8a565b60405180910390fd5b8073ffffffffffffffffffffffffffffffffffffffff1663a9059cbb846016600101546040518363ffffffff1660e01b81526004016200130b92919062002a0d565b6020604051808303816000875af11580156200132b573d6000803e3d6000fd5b505050506040513d601f19601f82011682018060405250810190620013519190620028d5565b506016600101546019600084815260200190815260200160002081905550505050565b600a60205281600052604060002081815481106200139157600080fd5b90600052602060002001600091509150505481565b60056020528060005260406000206000915054906101000a900473ffffffffffffffffffffffffffffffffffffffff1681565b60095481565b6000600a6000838152602001908152602001600020805490509050919050565b600c6020528060005260406000206000915090505481565b60186020528060005260406000206000915054906101000a900473ffffffffffffffffffffffffffffffffffffffff1681565b600160205281600052604060002081815481106200146757600080fd5b90600052602060002001600091509150505481565b600e6020528060005260406000206000915090505481565b60085481565b60106020528060005260406000206000915090505481565b60046020528160005260406000206020528060005260406000206000915091509054906101000a900460ff1681565b600060026000838152602001908152602001600020805490509050919050565b60006200150e8262001541565b601660010154189050919050565b601a81815481106200152d57600080fd5b906000526020600020016000915090505481565b600060016000838152602001908152602001600020805490509050919050565b6000601260010160009054906101000a900473ffffffffffffffffffffffffffffffffffffffff1690508073ffffffffffffffffffffffffffffffffffffffff1663a9059cbb86856040518363ffffffff1660e01b8152600401620015c892919062002a0d565b6020604051808303816000875af1158015620015e8573d6000803e3d6000fd5b505050506040513d601f19601f820116820180604052508101906200160e9190620028d5565b508073ffffffffffffffffffffffffffffffffffffffff16634bbc1bcd30856040518363ffffffff1660e01b81526004016200164c92919062002a0d565b600060405180830381600087803b1580156200166757600080fd5b505af11580156200167c573d6000803e3d6000fd5b505050506200168d84848462001e54565b5050505050565b60006005600084815260200190815260200160002060009054906101000a900473ffffffffffffffffffffffffffffffffffffffff1690508073ffffffffffffffffffffffffffffffffffffffff163373ffffffffffffffffffffffffffffffffffffffff16146200173d576040517f08c379a0000000000000000000000000000000000000000000000000000000008152600401620017349062002b22565b60405180910390fd5b60008190506000601860008373ffffffffffffffffffffffffffffffffffffffff1663685771f46040518163ffffffff1660e01b8152600401602060405180830381865afa15801562001794573d6000803e3d6000fd5b505050506040513d601f19601f82011682018060405250810190620017ba9190620025c9565b815260200190815260200160002060009054906101000a900473ffffffffffffffffffffffffffffffffffffffff1690506000601260010160009054906101000a900473ffffffffffffffffffffffffffffffffffffffff1690508073ffffffffffffffffffffffffffffffffffffffff1663a9059cbb83876040518363ffffffff1660e01b81526004016200185292919062002a0d565b6020604051808303816000875af115801562001872573d6000803e3d6000fd5b505050506040513d601f19601f82011682018060405250810190620018989190620028d5565b508073ffffffffffffffffffffffffffffffffffffffff16634bbc1bcd601260020160009054906101000a900473ffffffffffffffffffffffffffffffffffffffff1660016040518363ffffffff1660e01b8152600401620018fc92919062002877565b600060405180830381600087803b1580156200191757600080fd5b505af11580156200192c573d6000803e3d6000fd5b505050506200193b8662001f17565b505050505050565b60128060000160009054906101000a900473ffffffffffffffffffffffffffffffffffffffff16908060010160009054906101000a900473ffffffffffffffffffffffffffffffffffffffff16908060020160009054906101000a900473ffffffffffffffffffffffffffffffffffffffff16908060030160009054906101000a900473ffffffffffffffffffffffffffffffffffffffff16905084565b600b6020528060005260406000206000915054906101000a900473ffffffffffffffffffffffffffffffffffffffff1681565b60036020528060005260406000206000915090505481565b600f5481565b60005481565b60196020528060005260406000206000915090505481565b60075481565b600062001a6383620014e1565b6016600001541890508034101562001ab2576040517f08c379a000000000000000000000000000000000000000000000000000000000815260040162001aa99062002b94565b60405180910390fd5b6000601260010160009054906101000a900473ffffffffffffffffffffffffffffffffffffffff169050600062001ae98562001501565b905060008273ffffffffffffffffffffffffffffffffffffffff166370a082316018600089815260200190815260200160002060009054906101000a900473ffffffffffffffffffffffffffffffffffffffff166040518263ffffffff1660e01b815260040162001b5b91906200239a565b602060405180830381865afa15801562001b79573d6000803e3d6000fd5b505050506040513d601f19601f8201168201806040525081019062001b9f9190620025c9565b90508181101562001be7576040517f08c379a000000000000000000000000000000000000000000000000000000000815260040162001bde9062002c06565b60405180910390fd5b6000805487308860405162001bfc90620020d4565b62001c0b949392919062002c28565b604051809103906000f08015801562001c28573d6000803e3d6000fd5b509050600081905062001c3f886000548362001f99565b8473ffffffffffffffffffffffffffffffffffffffff166342966c68856040518263ffffffff1660e01b815260040162001c7a919062002293565b600060405180830381600087803b15801562001c9557600080fd5b505af115801562001caa573d6000803e3d6000fd5b505050508073ffffffffffffffffffffffffffffffffffffffff166108fc349081150290604051600060405180830381858888f1935050505015801562001cf5573d6000803e3d6000fd5b505050505050505050565b600081831062001d11578162001d13565b825b905092915050565b60016009600082825462001d30919062002775565b92505081905550806007600082825462001d4b919062002775565b92505081905550600a600085815260200190815260200160002083908060018154018082558091505060019003906000526020600020016000909190919091505580600d6000868152602001908152602001600020600082825462001db1919062002775565b9250508190555081600b600086815260200190815260200160002060006101000a81548173ffffffffffffffffffffffffffffffffffffffff021916908373ffffffffffffffffffffffffffffffffffffffff16021790555060016011600086815260200190815260200160002060006101000a81548160ff02191690831515021790555083600e60008581526020019081526020016000208190555050505050565b816007600082825462001e68919062002907565b92505081905550816008600082825462001e83919062002775565b925050819055506000600e600085815260200190815260200160002054905082600c6000838152602001908152602001600020600082825462001ec7919062002775565b925050819055506000838362001ede919062002907565b0362001f115760006011600086815260200190815260200160002060006101000a81548160ff0219169083151502179055505b50505050565b6000600360008381526020019081526020016000205490506002600082815260200190815260200160002082908060018154018082558091505060019003906000526020600020016000909190919091505560006006600083815260200190815260200160002060006101000a81548160ff0219169083151502179055505050565b82600360008481526020019081526020016000208190555060016000848152602001908152602001600020829080600181540180825580915050600190039060005260206000200160009091909190915055600160046000848152602001908152602001600020600085815260200190815260200160002060006101000a81548160ff021916908315150217905550806005600084815260200190815260200160002060006101000a81548173ffffffffffffffffffffffffffffffffffffffff021916908373ffffffffffffffffffffffffffffffffffffffff16021790555060016000808282546200208e919062002775565b9250508190555060016006600085815260200190815260200160002060006101000a81548160ff021916908315150217905550505050565b610d218062002c7683390190565b6111e5806200399783390190565b600080fd5b6000819050919050565b620020fc81620020e7565b81146200210857600080fd5b50565b6000813590506200211c81620020f1565b92915050565b6000602082840312156200213b576200213a620020e2565b5b60006200214b848285016200210b565b91505092915050565b60008115159050919050565b6200216b8162002154565b82525050565b600060208201905062002188600083018462002160565b92915050565b6000819050919050565b620021a3816200218e565b8114620021af57600080fd5b50565b600081359050620021c38162002198565b92915050565b60008060008060808587031215620021e657620021e5620020e2565b5b6000620021f6878288016200210b565b945050602062002209878288016200210b565b93505060406200221c878288016200210b565b92505060606200222f87828801620021b2565b91505092959194509250565b60008060408385031215620022555762002254620020e2565b5b600062002265858286016200210b565b925050602062002278858286016200210b565b9150509250929050565b6200228d81620020e7565b82525050565b6000602082019050620022aa600083018462002282565b92915050565b6000604082019050620022c7600083018562002282565b620022d6602083018462002282565b9392505050565b600073ffffffffffffffffffffffffffffffffffffffff82169050919050565b60006200230a82620022dd565b9050919050565b6200231c81620022fd565b81146200232857600080fd5b50565b6000813590506200233c8162002311565b92915050565b600080604083850312156200235c576200235b620020e2565b5b60006200236c858286016200232b565b92505060206200237f858286016200210b565b9150509250929050565b6200239481620022fd565b82525050565b6000602082019050620023b1600083018462002389565b92915050565b60008060008060808587031215620023d457620023d3620020e2565b5b6000620023e4878288016200232b565b9450506020620023f7878288016200210b565b93505060406200240a878288016200210b565b92505060606200241d878288016200210b565b91505092959194509250565b600060808201905062002440600083018762002389565b6200244f602083018662002389565b6200245e604083018562002389565b6200246d606083018462002389565b95945050505050565b6000806040838503121562002490576200248f620020e2565b5b6000620024a0858286016200210b565b9250506020620024b385828601620021b2565b9150509250929050565b600082825260208201905092915050565b7f43616c6c6572206973206e6f7420746865206f776e6572000000000000000000600082015250565b600062002506601783620024bd565b91506200251382620024ce565b602082019050919050565b600060208201905081810360008301526200253981620024f7565b9050919050565b7f4e6f74206861766520656e6f756768206d617474657200000000000000000000600082015250565b600062002578601683620024bd565b9150620025858262002540565b602082019050919050565b60006020820190508181036000830152620025ab8162002569565b9050919050565b600081519050620025c381620020f1565b92915050565b600060208284031215620025e257620025e1620020e2565b5b6000620025f284828501620025b2565b91505092915050565b7f4e6f74206869676820656e6f7567680000000000000000000000000000000000600082015250565b600062002633600f83620024bd565b91506200264082620025fb565b602082019050919050565b60006020820190508181036000830152620026668162002624565b9050919050565b7f4e487b7100000000000000000000000000000000000000000000000000000000600052601260045260246000fd5b6000620026a982620020e7565b9150620026b683620020e7565b925082620026c957620026c86200266d565b5b828206905092915050565b7f447261772072617465206e6f7420646976697369626c65000000000000000000600082015250565b60006200270c601783620024bd565b91506200271982620026d4565b602082019050919050565b600060208201905081810360008301526200273f81620026fd565b9050919050565b7f4e487b7100000000000000000000000000000000000000000000000000000000600052601160045260246000fd5b60006200278282620020e7565b91506200278f83620020e7565b9250828201905080821115620027aa57620027a962002746565b5b92915050565b7f4e487b7100000000000000000000000000000000000000000000000000000000600052603260045260246000fd5b6000620027ec82620020e7565b9150620027f983620020e7565b92508282026200280981620020e7565b9150828204841483151762002823576200282262002746565b5b5092915050565b6000819050919050565b6000819050919050565b60006200285f6200285962002853846200282a565b62002834565b620020e7565b9050919050565b62002871816200283e565b82525050565b60006040820190506200288e600083018562002389565b6200289d602083018462002866565b9392505050565b620028af8162002154565b8114620028bb57600080fd5b50565b600081519050620028cf81620028a4565b92915050565b600060208284031215620028ee57620028ed620020e2565b5b6000620028fe84828501620028be565b91505092915050565b60006200291482620020e7565b91506200292183620020e7565b92508282039050818111156200293c576200293b62002746565b5b92915050565b60006200294f82620020e7565b91507fffffffffffffffffffffffffffffffffffffffffffffffffffffffffffffffff820362002984576200298362002746565b5b600182019050919050565b6200299a816200218e565b82525050565b600060c082019050620029b7600083018962002282565b620029c6602083018862002282565b620029d5604083018762002282565b620029e4606083018662002282565b620029f3608083018562002389565b62002a0260a08301846200298f565b979650505050505050565b600060408201905062002a24600083018562002389565b62002a33602083018462002282565b9392505050565b7f4e6f7420656e6f756768206d6174746572000000000000000000000000000000600082015250565b600062002a72601183620024bd565b915062002a7f8262002a3a565b602082019050919050565b6000602082019050818103600083015262002aa58162002a63565b9050919050565b7f43616c6c6572206973206e6f742074686520726967687420436f736d6f53656560008201527f6420636f6e747261637400000000000000000000000000000000000000000000602082015250565b600062002b0a602a83620024bd565b915062002b178262002aac565b604082019050919050565b6000602082019050818103600083015262002b3d8162002afb565b9050919050565b7f45746865722076616c7565206973206e6f7420656e6f75676800000000000000600082015250565b600062002b7c601983620024bd565b915062002b898262002b44565b602082019050919050565b6000602082019050818103600083015262002baf8162002b6d565b9050919050565b7f4d61747465722062616c616e6365206973206e6f7420656e6f75676800000000600082015250565b600062002bee601c83620024bd565b915062002bfb8262002bb6565b602082019050919050565b6000602082019050818103600083015262002c218162002bdf565b9050919050565b600060808201905062002c3f600083018762002282565b62002c4e602083018662002282565b62002c5d604083018562002389565b62002c6c60608301846200298f565b9594505050505056fe60806040523480156200001157600080fd5b5060405162000d2138038062000d21833981810160405281019062000037919062000283565b85600080018190555084600060010181905550836000600201819055508260006003018190555030600060040160006101000a81548173ffffffffffffffffffffffffffffffffffffffff021916908373ffffffffffffffffffffffffffffffffffffffff16021790555033600060050160006101000a81548173ffffffffffffffffffffffffffffffffffffffff021916908373ffffffffffffffffffffffffffffffffffffffff16021790555080600060060181905550600060050160009054906101000a900473ffffffffffffffffffffffffffffffffffffffff16600860006101000a81548173ffffffffffffffffffffffffffffffffffffffff021916908373ffffffffffffffffffffffffffffffffffffffff16021790555081600960006101000a81548173ffffffffffffffffffffffffffffffffffffffff021916908373ffffffffffffffffffffffffffffffffffffffff1602179055505050505050506200031f565b600080fd5b6000819050919050565b620001bd81620001a8565b8114620001c957600080fd5b50565b600081519050620001dd81620001b2565b92915050565b600073ffffffffffffffffffffffffffffffffffffffff82169050919050565b60006200021082620001e3565b9050919050565b620002228162000203565b81146200022e57600080fd5b50565b600081519050620002428162000217565b92915050565b6000819050919050565b6200025d8162000248565b81146200026957600080fd5b50565b6000815190506200027d8162000252565b92915050565b60008060008060008060c08789031215620002a357620002a2620001a3565b5b6000620002b389828a01620001cc565b9650506020620002c689828a01620001cc565b9550506040620002d989828a01620001cc565b9450506060620002ec89828a01620001cc565b9350506080620002ff89828a0162000231565b92505060a06200031289828a016200026c565b9150509295509295509295565b6109f2806200032f6000396000f3fe608060405234801561001057600080fd5b506004361061002b5760003560e01c806327ac1b6514610030575b600080fd5b61004a60048036038101906100459190610563565b61004c565b005b60011515600060070160003373ffffffffffffffffffffffffffffffffffffffff1673ffffffffffffffffffffffffffffffffffffffff16815260200190815260200160002060009054906101000a900460ff161515036100e2576040517f08c379a00000000000000000000000000000000000000000000000000000000081526004016100d990610667565b60405180910390fd5b6000806002015411610129576040517f08c379a0000000000000000000000000000000000000000000000000000000008152600401610120906106d3565b60405180910390fd5b610132836102eb565b50600960009054906101000a900473ffffffffffffffffffffffffffffffffffffffff1673ffffffffffffffffffffffffffffffffffffffff16639cee22b13360008001546000600301546000600201546040518563ffffffff1660e01b81526004016101a2949392919061074d565b600060405180830381600087803b1580156101bc57600080fd5b505af11580156101d0573d6000803e3d6000fd5b50505050600060030154600060020160008282546101ee91906107c1565b925050819055506001600060070160003373ffffffffffffffffffffffffffffffffffffffff1673ffffffffffffffffffffffffffffffffffffffff16815260200190815260200160002060006101000a81548160ff021916908315150217905550600860009054906101000a900473ffffffffffffffffffffffffffffffffffffffff1673ffffffffffffffffffffffffffffffffffffffff16639202c1ec60006001015484846040518463ffffffff1660e01b81526004016102b4939291906108b8565b600060405180830381600087803b1580156102ce57600080fd5b505af11580156102e2573d6000803e3d6000fd5b50505050505050565b600080826040516020016102ff9190610939565b604051602081830303815290604052805190602001209050600060060154811461035e576040517f08c379a00000000000000000000000000000000000000000000000000000000081526004016103559061099c565b60405180910390fd5b6001915050919050565b6000604051905090565b600080fd5b600080fd5b600080fd5b600080fd5b6000601f19601f8301169050919050565b7f4e487b7100000000000000000000000000000000000000000000000000000000600052604160045260246000fd5b6103cf82610386565b810181811067ffffffffffffffff821117156103ee576103ed610397565b5b80604052505050565b6000610401610368565b905061040d82826103c6565b919050565b600067ffffffffffffffff82111561042d5761042c610397565b5b61043682610386565b9050602081019050919050565b82818337600083830152505050565b600061046561046084610412565b6103f7565b90508281526020810184848401111561048157610480610381565b5b61048c848285610443565b509392505050565b600082601f8301126104a9576104a861037c565b5b81356104b9848260208601610452565b91505092915050565b600067ffffffffffffffff8211156104dd576104dc610397565b5b6104e682610386565b9050602081019050919050565b6000610506610501846104c2565b6103f7565b90508281526020810184848401111561052257610521610381565b5b61052d848285610443565b509392505050565b600082601f83011261054a5761054961037c565b5b813561055a8482602086016104f3565b91505092915050565b60008060006060848603121561057c5761057b610372565b5b600084013567ffffffffffffffff81111561059a57610599610377565b5b6105a686828701610494565b935050602084013567ffffffffffffffff8111156105c7576105c6610377565b5b6105d386828701610494565b925050604084013567ffffffffffffffff8111156105f4576105f3610377565b5b61060086828701610535565b9150509250925092565b600082825260208201905092915050565b7f43616e206f6e6c792064726177206f6e63650000000000000000000000000000600082015250565b600061065160128361060a565b915061065c8261061b565b602082019050919050565b6000602082019050818103600083015261068081610644565b9050919050565b7f4e6f2062757474657220746f2064726177000000000000000000000000000000600082015250565b60006106bd60118361060a565b91506106c882610687565b602082019050919050565b600060208201905081810360008301526106ec816106b0565b9050919050565b600073ffffffffffffffffffffffffffffffffffffffff82169050919050565b600061071e826106f3565b9050919050565b61072e81610713565b82525050565b6000819050919050565b61074781610734565b82525050565b60006080820190506107626000830187610725565b61076f602083018661073e565b61077c604083018561073e565b610789606083018461073e565b95945050505050565b7f4e487b7100000000000000000000000000000000000000000000000000000000600052601160045260246000fd5b60006107cc82610734565b91506107d783610734565b92508282039050818111156107ef576107ee610792565b5b92915050565b600081519050919050565b60005b8381101561081e578082015181840152602081019050610803565b60008484015250505050565b6000610835826107f5565b61083f818561060a565b935061084f818560208601610800565b61085881610386565b840191505092915050565b600081519050919050565b600082825260208201905092915050565b600061088a82610863565b610894818561086e565b93506108a4818560208601610800565b6108ad81610386565b840191505092915050565b60006060820190506108cd600083018661073e565b81810360208301526108df818561082a565b905081810360408301526108f3818461087f565b9050949350505050565b600081905092915050565b6000610913826107f5565b61091d81856108fd565b935061092d818560208601610800565b80840191505092915050565b60006109458284610908565b915081905092915050565b7f496e70757420646f6573206e6f74206d61746368207365637265740000000000600082015250565b6000610986601b8361060a565b915061099182610950565b602082019050919050565b600060208201905081810360008301526109b581610979565b905091905056fea26469706673582212205ff0d3d8661c41103c62e7bc0f2036a632b8401da65c5dabfee66852f356f29564736f6c634300081100336080604052604051620011e5380380620011e58339818101604052810190620000299190620002f4565b600033905080600760006101000a81548173ffffffffffffffffffffffffffffffffffffffff021916908373ffffffffffffffffffffffffffffffffffffffff16021790555082600860006101000a81548173ffffffffffffffffffffffffffffffffffffffff021916908373ffffffffffffffffffffffffffffffffffffffff1602179055508460008001819055508360006001018190555034600060020181905550600860009054906101000a900473ffffffffffffffffffffffffffffffffffffffff1673ffffffffffffffffffffffffffffffffffffffff166334fc1228856040518263ffffffff1660e01b81526004016200012a919062000377565b602060405180830381865afa15801562000148573d6000803e3d6000fd5b505050506040513d601f19601f820116820180604052508101906200016e919062000394565b60006003018190555030600060040160006101000a81548173ffffffffffffffffffffffffffffffffffffffff021916908373ffffffffffffffffffffffffffffffffffffffff16021790555080600060050160006101000a81548173ffffffffffffffffffffffffffffffffffffffff021916908373ffffffffffffffffffffffffffffffffffffffff160217905550816000600601819055505050505050620003c6565b600080fd5b6000819050919050565b6200022e8162000219565b81146200023a57600080fd5b50565b6000815190506200024e8162000223565b92915050565b600073ffffffffffffffffffffffffffffffffffffffff82169050919050565b6000620002818262000254565b9050919050565b620002938162000274565b81146200029f57600080fd5b50565b600081519050620002b38162000288565b92915050565b6000819050919050565b620002ce81620002b9565b8114620002da57600080fd5b50565b600081519050620002ee81620002c3565b92915050565b6000806000806080858703121562000311576200031062000214565b5b600062000321878288016200023d565b945050602062000334878288016200023d565b93505060406200034787828801620002a2565b92505060606200035a87828801620002dd565b91505092959194509250565b620003718162000219565b82525050565b60006020820190506200038e600083018462000366565b92915050565b600060208284031215620003ad57620003ac62000214565b5b6000620003bd848285016200023d565b91505092915050565b610e0f80620003d66000396000f3fe608060405234801561001057600080fd5b506004361061004c5760003560e01c8063685771f4146100515780637d94792a1461006f578063956c2dc314610093578063c5d12c97146100af575b600080fd5b6100596100cd565b6040516100669190610656565b60405180910390f35b6100776100d9565b60405161008a97969594939291906106cb565b60405180910390f35b6100ad60048036038101906100a89190610935565b610149565b005b6100b76105b4565b6040516100c49190610656565b60405180910390f35b60008060010154905090565b60008060000154908060010154908060020154908060030154908060040160009054906101000a900473ffffffffffffffffffffffffffffffffffffffff16908060050160009054906101000a900473ffffffffffffffffffffffffffffffffffffffff16908060060154905087565b610152836105c0565b50600860009054906101000a900473ffffffffffffffffffffffffffffffffffffffff1673ffffffffffffffffffffffffffffffffffffffff1663f27890f260008001546040518263ffffffff1660e01b81526004016101b29190610656565b600060405180830381600087803b1580156101cc57600080fd5b505af11580156101e0573d6000803e3d6000fd5b50505050600760009054906101000a900473ffffffffffffffffffffffffffffffffffffffff1673ffffffffffffffffffffffffffffffffffffffff1663a0e12efe83836040518363ffffffff1660e01b8152600401610241929190610ab0565b600060405180830381600087803b15801561025b57600080fd5b505af115801561026f573d6000803e3d6000fd5b505050506000600860009054906101000a900473ffffffffffffffffffffffffffffffffffffffff1673ffffffffffffffffffffffffffffffffffffffff1663b8a9736d6040518163ffffffff1660e01b8152600401602060405180830381865afa1580156102e2573d6000803e3d6000fd5b505050506040513d601f19601f820116820180604052508101906103069190610b13565b90506000600860009054906101000a900473ffffffffffffffffffffffffffffffffffffffff1673ffffffffffffffffffffffffffffffffffffffff166307604b1a6040518163ffffffff1660e01b8152600401602060405180830381865afa158015610377573d6000803e3d6000fd5b505050506040513d601f19601f8201168201806040525081019061039b9190610b6c565b73ffffffffffffffffffffffffffffffffffffffff16826040516103be90610bca565b60006040518083038185875af1925050503d80600081146103fb576040519150601f19603f3d011682016040523d82523d6000602084013e610400565b606091505b5050905080610444576040517f08c379a000000000000000000000000000000000000000000000000000000000815260040161043b90610c2b565b60405180910390fd5b6000826000600201546104579190610c7a565b90506000600760009054906101000a900473ffffffffffffffffffffffffffffffffffffffff1673ffffffffffffffffffffffffffffffffffffffff16636352211e6000600101546040518263ffffffff1660e01b81526004016104bb9190610656565b602060405180830381865afa1580156104d8573d6000803e3d6000fd5b505050506040513d601f19601f820116820180604052508101906104fc9190610b6c565b905060008173ffffffffffffffffffffffffffffffffffffffff168360405161052490610bca565b60006040518083038185875af1925050503d8060008114610561576040519150601f19603f3d011682016040523d82523d6000602084013e610566565b606091505b50509050806105aa576040517f08c379a00000000000000000000000000000000000000000000000000000000081526004016105a190610cfa565b60405180910390fd5b5050505050505050565b60008060030154905090565b600080826040516020016105d49190610d56565b6040516020818303038152906040528051906020012090506000600601548114610633576040517f08c379a000000000000000000000000000000000000000000000000000000000815260040161062a90610db9565b60405180910390fd5b6001915050919050565b6000819050919050565b6106508161063d565b82525050565b600060208201905061066b6000830184610647565b92915050565b600073ffffffffffffffffffffffffffffffffffffffff82169050919050565b600061069c82610671565b9050919050565b6106ac81610691565b82525050565b6000819050919050565b6106c5816106b2565b82525050565b600060e0820190506106e0600083018a610647565b6106ed6020830189610647565b6106fa6040830188610647565b6107076060830187610647565b61071460808301866106a3565b61072160a08301856106a3565b61072e60c08301846106bc565b98975050505050505050565b6000604051905090565b600080fd5b600080fd5b600080fd5b600080fd5b6000601f19601f8301169050919050565b7f4e487b7100000000000000000000000000000000000000000000000000000000600052604160045260246000fd5b6107a182610758565b810181811067ffffffffffffffff821117156107c0576107bf610769565b5b80604052505050565b60006107d361073a565b90506107df8282610798565b919050565b600067ffffffffffffffff8211156107ff576107fe610769565b5b61080882610758565b9050602081019050919050565b82818337600083830152505050565b6000610837610832846107e4565b6107c9565b90508281526020810184848401111561085357610852610753565b5b61085e848285610815565b509392505050565b600082601f83011261087b5761087a61074e565b5b813561088b848260208601610824565b91505092915050565b600067ffffffffffffffff8211156108af576108ae610769565b5b6108b882610758565b9050602081019050919050565b60006108d86108d384610894565b6107c9565b9050828152602081018484840111156108f4576108f3610753565b5b6108ff848285610815565b509392505050565b600082601f83011261091c5761091b61074e565b5b813561092c8482602086016108c5565b91505092915050565b60008060006060848603121561094e5761094d610744565b5b600084013567ffffffffffffffff81111561096c5761096b610749565b5b61097886828701610866565b935050602084013567ffffffffffffffff81111561099957610998610749565b5b6109a586828701610866565b925050604084013567ffffffffffffffff8111156109c6576109c5610749565b5b6109d286828701610907565b9150509250925092565b600081519050919050565b600082825260208201905092915050565b60005b83811015610a165780820151818401526020810190506109fb565b60008484015250505050565b6000610a2d826109dc565b610a3781856109e7565b9350610a478185602086016109f8565b610a5081610758565b840191505092915050565b600081519050919050565b600082825260208201905092915050565b6000610a8282610a5b565b610a8c8185610a66565b9350610a9c8185602086016109f8565b610aa581610758565b840191505092915050565b60006040820190508181036000830152610aca8185610a22565b90508181036020830152610ade8184610a77565b90509392505050565b610af08161063d565b8114610afb57600080fd5b50565b600081519050610b0d81610ae7565b92915050565b600060208284031215610b2957610b28610744565b5b6000610b3784828501610afe565b91505092915050565b610b4981610691565b8114610b5457600080fd5b50565b600081519050610b6681610b40565b92915050565b600060208284031215610b8257610b81610744565b5b6000610b9084828501610b57565b91505092915050565b600081905092915050565b50565b6000610bb4600083610b99565b9150610bbf82610ba4565b600082019050919050565b6000610bd582610ba7565b9150819050919050565b7f4574686572206e6f742073656e7420746f205472656173757279000000000000600082015250565b6000610c15601a836109e7565b9150610c2082610bdf565b602082019050919050565b60006020820190508181036000830152610c4481610c08565b9050919050565b7f4e487b7100000000000000000000000000000000000000000000000000000000600052601160045260246000fd5b6000610c858261063d565b9150610c908361063d565b9250828203905081811115610ca857610ca7610c4b565b5b92915050565b7f4574686572206e6f742073656e7420746f20706172656e74206e757400000000600082015250565b6000610ce4601c836109e7565b9150610cef82610cae565b602082019050919050565b60006020820190508181036000830152610d1381610cd7565b9050919050565b600081905092915050565b6000610d30826109dc565b610d3a8185610d1a565b9350610d4a8185602086016109f8565b80840191505092915050565b6000610d628284610d25565b915081905092915050565b7f496e70757420646f6573206e6f74206d61746368207365637265740000000000600082015250565b6000610da3601b836109e7565b9150610dae82610d6d565b602082019050919050565b60006020820190508181036000830152610dd281610d96565b905091905056fea2646970667358221220ee38410972df4e35ed04e1eb4ae57b1567a769b1fed9f1c494bcab367da9374764736f6c63430008110033a264697066735822122017c061b33c593b4dec0076f11bd6e2fb8032f3c9eb3fd09f1ca2c556daefbcbf64736f6c6343000811003360806040523480156200001157600080fd5b5060405162005e9238038062005e92833981810160405281019062000037919062000330565b846000800190816200004a919062000637565b5083600060010190816200005f919062000637565b508260006002018190555081600060030160006101000a81548173ffffffffffffffffffffffffffffffffffffffff021916908373ffffffffffffffffffffffffffffffffffffffff16021790555080600060040160006101000a81548173ffffffffffffffffffffffffffffffffffffffff021916908373ffffffffffffffffffffffffffffffffffffffff16021790555050505050506200071e565b6000604051905090565b600080fd5b600080fd5b600080fd5b600080fd5b6000601f19601f8301169050919050565b7f4e487b7100000000000000000000000000000000000000000000000000000000600052604160045260246000fd5b62000166826200011b565b810181811067ffffffffffffffff821117156200018857620001876200012c565b5b80604052505050565b60006200019d620000fd565b9050620001ab82826200015b565b919050565b600067ffffffffffffffff821115620001ce57620001cd6200012c565b5b620001d9826200011b565b9050602081019050919050565b60005b8381101562000206578082015181840152602081019050620001e9565b60008484015250505050565b6000620002296200022384620001b0565b62000191565b90508281526020810184848401111562000248576200024762000116565b5b62000255848285620001e6565b509392505050565b600082601f83011262000275576200027462000111565b5b81516200028784826020860162000212565b91505092915050565b6000819050919050565b620002a58162000290565b8114620002b157600080fd5b50565b600081519050620002c5816200029a565b92915050565b600073ffffffffffffffffffffffffffffffffffffffff82169050919050565b6000620002f882620002cb565b9050919050565b6200030a81620002eb565b81146200031657600080fd5b50565b6000815190506200032a81620002ff565b92915050565b600080600080600060a086880312156200034f576200034e62000107565b5b600086015167ffffffffffffffff81111562000370576200036f6200010c565b5b6200037e888289016200025d565b955050602086015167ffffffffffffffff811115620003a257620003a16200010c565b5b620003b0888289016200025d565b9450506040620003c388828901620002b4565b9350506060620003d68882890162000319565b9250506080620003e98882890162000319565b9150509295509295909350565b600081519050919050565b7f4e487b7100000000000000000000000000000000000000000000000000000000600052602260045260246000fd5b600060028204905060018216806200044957607f821691505b6020821081036200045f576200045e62000401565b5b50919050565b60008190508160005260206000209050919050565b60006020601f8301049050919050565b600082821b905092915050565b600060088302620004c97fffffffffffffffffffffffffffffffffffffffffffffffffffffffffffffffff826200048a565b620004d586836200048a565b95508019841693508086168417925050509392505050565b6000819050919050565b600062000518620005126200050c8462000290565b620004ed565b62000290565b9050919050565b6000819050919050565b6200053483620004f7565b6200054c62000543826200051f565b84845462000497565b825550505050565b600090565b6200056362000554565b6200057081848462000529565b505050565b5b8181101562000598576200058c60008262000559565b60018101905062000576565b5050565b601f821115620005e757620005b18162000465565b620005bc846200047a565b81016020851015620005cc578190505b620005e4620005db856200047a565b83018262000575565b50505b505050565b600082821c905092915050565b60006200060c60001984600802620005ec565b1980831691505092915050565b6000620006278383620005f9565b9150826002028217905092915050565b6200064282620003f6565b67ffffffffffffffff8111156200065e576200065d6200012c565b5b6200066a825462000430565b620006778282856200059c565b600060209050601f831160018114620006af57600084156200069a578287015190505b620006a6858262000619565b86555062000716565b601f198416620006bf8662000465565b60005b82811015620006e957848901518255600182019150602085019450602081019050620006c2565b8683101562000709578489015162000705601f891682620005f9565b8355505b6001600288020188555050505b505050505050565b615764806200072e6000396000f3fe60806040523480156200001157600080fd5b50600436106200003a5760003560e01c8063235d2c8a146200003f578063f6cb600e1462000061575b600080fd5b620000496200006d565b604051620000589190620001c5565b60405180910390f35b6200006b62000093565b005b600560009054906101000a900473ffffffffffffffffffffffffffffffffffffffff1681565b6000806000016000600101600060020154600060030160009054906101000a900473ffffffffffffffffffffffffffffffffffffffff16600060040160009054906101000a900473ffffffffffffffffffffffffffffffffffffffff16604051620000fe9062000172565b6200010e95949392919062000317565b604051809103906000f0801580156200012b573d6000803e3d6000fd5b50905080600560006101000a81548173ffffffffffffffffffffffffffffffffffffffff021916908373ffffffffffffffffffffffffffffffffffffffff16021790555050565b6153ac806200038383390190565b600073ffffffffffffffffffffffffffffffffffffffff82169050919050565b6000620001ad8262000180565b9050919050565b620001bf81620001a0565b82525050565b6000602082019050620001dc6000830184620001b4565b92915050565b7f4e487b7100000000000000000000000000000000000000000000000000000000600052602260045260246000fd5b600060028204905060018216806200022a57607f821691505b60208210810362000240576200023f620001e2565b5b50919050565b600082825260208201905092915050565b60008190508160005260206000209050919050565b600081546200027b8162000211565b62000287818662000246565b94506001821660008114620002a55760018114620002bc57620002f3565b60ff198316865281151560200286019350620002f3565b620002c78562000257565b60005b83811015620002eb57815481890152600182019150602081019050620002ca565b808801955050505b50505092915050565b6000819050919050565b6200031181620002fc565b82525050565b600060a08201905081810360008301526200033381886200026c565b905081810360208301526200034981876200026c565b90506200035a604083018662000306565b620003696060830185620001b4565b620003786080830184620001b4565b969550505050505056fe60806040523480156200001157600080fd5b50604051620053ac380380620053ac8339818101604052810190620000379190620003d2565b848482828281600090816200004d9190620006d9565b5080600190816200005f9190620006d9565b5050506200008262000076620000d160201b60201c565b620000d960201b60201c565b80600c60006101000a81548173ffffffffffffffffffffffffffffffffffffffff021916908373ffffffffffffffffffffffffffffffffffffffff1602179055505050505050505050620007c0565b600033905090565b6000600b60009054906101000a900473ffffffffffffffffffffffffffffffffffffffff16905081600b60006101000a81548173ffffffffffffffffffffffffffffffffffffffff021916908373ffffffffffffffffffffffffffffffffffffffff1602179055508173ffffffffffffffffffffffffffffffffffffffff168173ffffffffffffffffffffffffffffffffffffffff167f8be0079c531659141344cd1fd0a4f28419497f9722a3daafe3b4186f6b6457e060405160405180910390a35050565b6000604051905090565b600080fd5b600080fd5b600080fd5b600080fd5b6000601f19601f8301169050919050565b7f4e487b7100000000000000000000000000000000000000000000000000000000600052604160045260246000fd5b6200020882620001bd565b810181811067ffffffffffffffff821117156200022a5762000229620001ce565b5b80604052505050565b60006200023f6200019f565b90506200024d8282620001fd565b919050565b600067ffffffffffffffff82111562000270576200026f620001ce565b5b6200027b82620001bd565b9050602081019050919050565b60005b83811015620002a85780820151818401526020810190506200028b565b60008484015250505050565b6000620002cb620002c58462000252565b62000233565b905082815260208101848484011115620002ea57620002e9620001b8565b5b620002f784828562000288565b509392505050565b600082601f830112620003175762000316620001b3565b5b815162000329848260208601620002b4565b91505092915050565b6000819050919050565b620003478162000332565b81146200035357600080fd5b50565b60008151905062000367816200033c565b92915050565b600073ffffffffffffffffffffffffffffffffffffffff82169050919050565b60006200039a826200036d565b9050919050565b620003ac816200038d565b8114620003b857600080fd5b50565b600081519050620003cc81620003a1565b92915050565b600080600080600060a08688031215620003f157620003f0620001a9565b5b600086015167ffffffffffffffff811115620004125762000411620001ae565b5b6200042088828901620002ff565b955050602086015167ffffffffffffffff811115620004445762000443620001ae565b5b6200045288828901620002ff565b9450506040620004658882890162000356565b93505060606200047888828901620003bb565b92505060806200048b88828901620003bb565b9150509295509295909350565b600081519050919050565b7f4e487b7100000000000000000000000000000000000000000000000000000000600052602260045260246000fd5b60006002820490506001821680620004eb57607f821691505b602082108103620005015762000500620004a3565b5b50919050565b60008190508160005260206000209050919050565b60006020601f8301049050919050565b600082821b905092915050565b6000600883026200056b7fffffffffffffffffffffffffffffffffffffffffffffffffffffffffffffffff826200052c565b6200057786836200052c565b95508019841693508086168417925050509392505050565b6000819050919050565b6000620005ba620005b4620005ae8462000332565b6200058f565b62000332565b9050919050565b6000819050919050565b620005d68362000599565b620005ee620005e582620005c1565b84845462000539565b825550505050565b600090565b62000605620005f6565b62000612818484620005cb565b505050565b5b818110156200063a576200062e600082620005fb565b60018101905062000618565b5050565b601f8211156200068957620006538162000507565b6200065e846200051c565b810160208510156200066e578190505b620006866200067d856200051c565b83018262000617565b50505b505050565b600082821c905092915050565b6000620006ae600019846008026200068e565b1980831691505092915050565b6000620006c983836200069b565b9150826002028217905092915050565b620006e48262000498565b67ffffffffffffffff8111156200070057620006ff620001ce565b5b6200070c8254620004d2565b620007198282856200063e565b600060209050601f8311600181146200075157600084156200073c578287015190505b620007488582620006bb565b865550620007b8565b601f198416620007618662000507565b60005b828110156200078b5784890151825560018201915060208501945060208101905062000764565b86831015620007ab5784890151620007a7601f8916826200069b565b8355505b6001600288020188555050505b505050505050565b614bdc80620007d06000396000f3fe6080604052600436106101815760003560e01c80638da5cb5b116100d1578063b88d4fde1161008a578063eedc765411610064578063eedc765414610583578063f23c9583146105ac578063f2fde38b146105c8578063ff3aea27146105f157610181565b8063b88d4fde146104e0578063c87b56dd14610509578063e985e9c51461054657610181565b80638da5cb5b146103f35780639202c1ec1461041e57806395d89b411461044757806395f04d0514610472578063a0e12efe1461048e578063a22cb465146104b757610181565b80632f745c591161013e5780634f6ccce7116101185780634f6ccce7146103255780636352211e1461036257806370a082311461039f578063715018a6146103dc57610181565b80632f745c59146102a85780633ccfd60b146102e557806342842e0e146102fc57610181565b806301ffc9a71461018657806306fdde03146101c3578063081812fc146101ee578063095ea7b31461022b57806318160ddd1461025457806323b872dd1461027f575b600080fd5b34801561019257600080fd5b506101ad60048036038101906101a89190612db4565b610608565b6040516101ba9190612dfc565b60405180910390f35b3480156101cf57600080fd5b506101d861061a565b6040516101e59190612ea7565b60405180910390f35b3480156101fa57600080fd5b5061021560048036038101906102109190612eff565b6106ac565b6040516102229190612f6d565b60405180910390f35b34801561023757600080fd5b50610252600480360381019061024d9190612fb4565b610731565b005b34801561026057600080fd5b50610269610848565b6040516102769190613003565b60405180910390f35b34801561028b57600080fd5b506102a660048036038101906102a1919061301e565b610855565b005b3480156102b457600080fd5b506102cf60048036038101906102ca9190612fb4565b6108b5565b6040516102dc9190613003565b60405180910390f35b3480156102f157600080fd5b506102fa61095a565b005b34801561030857600080fd5b50610323600480360381019061031e919061301e565b610a68565b005b34801561033157600080fd5b5061034c60048036038101906103479190612eff565b610a88565b6040516103599190613003565b60405180910390f35b34801561036e57600080fd5b5061038960048036038101906103849190612eff565b610af9565b6040516103969190612f6d565b60405180910390f35b3480156103ab57600080fd5b506103c660048036038101906103c19190613071565b610baa565b6040516103d39190613003565b60405180910390f35b3480156103e857600080fd5b506103f1610c61565b005b3480156103ff57600080fd5b50610408610ce9565b6040516104159190612f6d565b60405180910390f35b34801561042a57600080fd5b5061044560048036038101906104409190613274565b610d13565b005b34801561045357600080fd5b5061045c610d23565b6040516104699190612ea7565b60405180910390f35b61048c600480360381019061048791906132ff565b610db5565b005b34801561049a57600080fd5b506104b560048036038101906104b09190613348565b6110a7565b005b3480156104c357600080fd5b506104de60048036038101906104d991906133ec565b6110cd565b005b3480156104ec57600080fd5b506105076004803603810190610502919061342c565b6110e3565b005b34801561051557600080fd5b50610530600480360381019061052b9190612eff565b611145565b60405161053d9190612ea7565b60405180910390f35b34801561055257600080fd5b5061056d600480360381019061056891906134af565b611157565b60405161057a9190612dfc565b60405180910390f35b34801561058f57600080fd5b506105aa60048036038101906105a59190613525565b6111eb565b005b6105c660048036038101906105c191906135d8565b611304565b005b3480156105d457600080fd5b506105ef60048036038101906105ea9190613071565b6114f4565b005b3480156105fd57600080fd5b506106066115eb565b005b6000610613826116eb565b9050919050565b606060008054610629906136a6565b80601f0160208091040260200160405190810160405280929190818152602001828054610655906136a6565b80156106a25780601f10610677576101008083540402835291602001916106a2565b820191906000526020600020905b81548152906001019060200180831161068557829003601f168201915b5050505050905090565b60006106b782611765565b6106f6576040517f08c379a00000000000000000000000000000000000000000000000000000000081526004016106ed90613749565b60405180910390fd5b6004600083815260200190815260200160002060009054906101000a900473ffffffffffffffffffffffffffffffffffffffff169050919050565b600061073c82610af9565b90508073ffffffffffffffffffffffffffffffffffffffff168373ffffffffffffffffffffffffffffffffffffffff16036107ac576040517f08c379a00000000000000000000000000000000000000000000000000000000081526004016107a3906137db565b60405180910390fd5b8073ffffffffffffffffffffffffffffffffffffffff166107cb6117d1565b73ffffffffffffffffffffffffffffffffffffffff1614806107fa57506107f9816107f46117d1565b611157565b5b610839576040517f08c379a00000000000000000000000000000000000000000000000000000000081526004016108309061386d565b60405180910390fd5b61084383836117d9565b505050565b6000600880549050905090565b6108666108606117d1565b82611892565b6108a5576040517f08c379a000000000000000000000000000000000000000000000000000000000815260040161089c906138ff565b60405180910390fd5b6108b0838383611970565b505050565b60006108c083610baa565b8210610901576040517f08c379a00000000000000000000000000000000000000000000000000000000081526004016108f890613991565b60405180910390fd5b600660008473ffffffffffffffffffffffffffffffffffffffff1673ffffffffffffffffffffffffffffffffffffffff168152602001908152602001600020600083815260200190815260200160002054905092915050565b6109626117d1565b73ffffffffffffffffffffffffffffffffffffffff16610980610ce9565b73ffffffffffffffffffffffffffffffffffffffff16146109d6576040517f08c379a00000000000000000000000000000000000000000000000000000000081526004016109cd906139fd565b60405180910390fd5b600047905060004711610a1e576040517f08c379a0000000000000000000000000000000000000000000000000000000008152600401610a1590613a69565b60405180910390fd5b3373ffffffffffffffffffffffffffffffffffffffff166108fc829081150290604051600060405180830381858888f19350505050158015610a64573d6000803e3d6000fd5b5050565b610a83838383604051806020016040528060008152506110e3565b505050565b6000610a92610848565b8210610ad3576040517f08c379a0000000000000000000000000000000000000000000000000000000008152600401610aca90613afb565b60405180910390fd5b60088281548110610ae757610ae6613b1b565b5b90600052602060002001549050919050565b6000806002600084815260200190815260200160002060009054906101000a900473ffffffffffffffffffffffffffffffffffffffff169050600073ffffffffffffffffffffffffffffffffffffffff168173ffffffffffffffffffffffffffffffffffffffff1603610ba1576040517f08c379a0000000000000000000000000000000000000000000000000000000008152600401610b9890613bbc565b60405180910390fd5b80915050919050565b60008073ffffffffffffffffffffffffffffffffffffffff168273ffffffffffffffffffffffffffffffffffffffff1603610c1a576040517f08c379a0000000000000000000000000000000000000000000000000000000008152600401610c1190613c4e565b60405180910390fd5b600360008373ffffffffffffffffffffffffffffffffffffffff1673ffffffffffffffffffffffffffffffffffffffff168152602001908152602001600020549050919050565b610c696117d1565b73ffffffffffffffffffffffffffffffffffffffff16610c87610ce9565b73ffffffffffffffffffffffffffffffffffffffff1614610cdd576040517f08c379a0000000000000000000000000000000000000000000000000000000008152600401610cd4906139fd565b60405180910390fd5b610ce76000611bd6565b565b6000600b60009054906101000a900473ffffffffffffffffffffffffffffffffffffffff16905090565b610d1e838383611c9c565b505050565b606060018054610d32906136a6565b80601f0160208091040260200160405190810160405280929190818152602001828054610d5e906136a6565b8015610dab5780601f10610d8057610100808354040283529160200191610dab565b820191906000526020600020905b815481529060010190602001808311610d8e57829003601f168201915b5050505050905090565b600c60009054906101000a900473ffffffffffffffffffffffffffffffffffffffff1673ffffffffffffffffffffffffffffffffffffffff16630a82f53b6040518163ffffffff1660e01b8152600401602060405180830381865afa158015610e22573d6000803e3d6000fd5b505050506040513d601f19601f82011682018060405250810190610e469190613c83565b610e85576040517f08c379a0000000000000000000000000000000000000000000000000000000008152600401610e7c90613cfc565b60405180910390fd5b600c60009054906101000a900473ffffffffffffffffffffffffffffffffffffffff1673ffffffffffffffffffffffffffffffffffffffff1663f2b97ee26040518163ffffffff1660e01b8152600401602060405180830381865afa158015610ef2573d6000803e3d6000fd5b505050506040513d601f19601f82011682018060405250810190610f169190613d31565b610f1e610848565b10610f5e576040517f08c379a0000000000000000000000000000000000000000000000000000000008152600401610f5590613daa565b60405180910390fd5b610fff600c60009054906101000a900473ffffffffffffffffffffffffffffffffffffffff1673ffffffffffffffffffffffffffffffffffffffff166307604b1a6040518163ffffffff1660e01b8152600401602060405180830381865afa158015610fce573d6000803e3d6000fd5b505050506040513d601f19601f82011682018060405250810190610ff29190613ddf565b610ffa610848565b611e04565b61101061100a610848565b82611e22565b600c60009054906101000a900473ffffffffffffffffffffffffffffffffffffffff1673ffffffffffffffffffffffffffffffffffffffff1663347518a8611056610848565b6040518263ffffffff1660e01b81526004016110729190613003565b600060405180830381600087803b15801561108c57600080fd5b505af11580156110a0573d6000803e3d6000fd5b5050505050565b60006110b1610848565b90506110bd3382611e04565b6110c8818484611c9c565b505050565b6110df6110d86117d1565b8383611e8f565b5050565b6110f46110ee6117d1565b83611892565b611133576040517f08c379a000000000000000000000000000000000000000000000000000000000815260040161112a906138ff565b60405180910390fd5b61113f84848484611ffb565b50505050565b606061115082612057565b9050919050565b6000600560008473ffffffffffffffffffffffffffffffffffffffff1673ffffffffffffffffffffffffffffffffffffffff16815260200190815260200160002060008373ffffffffffffffffffffffffffffffffffffffff1673ffffffffffffffffffffffffffffffffffffffff16815260200190815260200160002060009054906101000a900460ff16905092915050565b6111f485610af9565b73ffffffffffffffffffffffffffffffffffffffff163373ffffffffffffffffffffffffffffffffffffffff1614611261576040517f08c379a000000000000000000000000000000000000000000000000000000000815260040161125890613e58565b60405180910390fd5b600c60009054906101000a900473ffffffffffffffffffffffffffffffffffffffff1673ffffffffffffffffffffffffffffffffffffffff1663911da0628685876040518463ffffffff1660e01b81526004016112c093929190613e87565b600060405180830381600087803b1580156112da57600080fd5b505af11580156112ee573d6000803e3d6000fd5b505050506112fd858383611c9c565b5050505050565b61130d84610af9565b73ffffffffffffffffffffffffffffffffffffffff163373ffffffffffffffffffffffffffffffffffffffff161461137a576040517f08c379a000000000000000000000000000000000000000000000000000000000815260040161137190613e58565b60405180910390fd5b600c60009054906101000a900473ffffffffffffffffffffffffffffffffffffffff1673ffffffffffffffffffffffffffffffffffffffff1663f2b97ee26040518163ffffffff1660e01b8152600401602060405180830381865afa1580156113e7573d6000803e3d6000fd5b505050506040513d601f19601f8201168201806040525081019061140b9190613d31565b611413610848565b1015611454576040517f08c379a000000000000000000000000000000000000000000000000000000000815260040161144b90613f0a565b60405180910390fd5b600c60009054906101000a900473ffffffffffffffffffffffffffffffffffffffff1673ffffffffffffffffffffffffffffffffffffffff166386d3d87185856040518363ffffffff1660e01b81526004016114b1929190613f2a565b600060405180830381600087803b1580156114cb57600080fd5b505af11580156114df573d6000803e3d6000fd5b505050506114ee848383611c9c565b50505050565b6114fc6117d1565b73ffffffffffffffffffffffffffffffffffffffff1661151a610ce9565b73ffffffffffffffffffffffffffffffffffffffff1614611570576040517f08c379a0000000000000000000000000000000000000000000000000000000008152600401611567906139fd565b60405180910390fd5b600073ffffffffffffffffffffffffffffffffffffffff168173ffffffffffffffffffffffffffffffffffffffff16036115df576040517f08c379a00000000000000000000000000000000000000000000000000000000081526004016115d690613fc5565b60405180910390fd5b6115e881611bd6565b50565b6115f36117d1565b73ffffffffffffffffffffffffffffffffffffffff16611611610ce9565b73ffffffffffffffffffffffffffffffffffffffff1614611667576040517f08c379a000000000000000000000000000000000000000000000000000000000815260040161165e906139fd565b60405180910390fd5b600c60009054906101000a900473ffffffffffffffffffffffffffffffffffffffff1673ffffffffffffffffffffffffffffffffffffffff1663a8a938006040518163ffffffff1660e01b8152600401600060405180830381600087803b1580156116d157600080fd5b505af11580156116e5573d6000803e3d6000fd5b50505050565b60007f780e9d63000000000000000000000000000000000000000000000000000000007bffffffffffffffffffffffffffffffffffffffffffffffffffffffff1916827bffffffffffffffffffffffffffffffffffffffffffffffffffffffff1916148061175e575061175d826121a8565b5b9050919050565b60008073ffffffffffffffffffffffffffffffffffffffff166002600084815260200190815260200160002060009054906101000a900473ffffffffffffffffffffffffffffffffffffffff1673ffffffffffffffffffffffffffffffffffffffff1614159050919050565b600033905090565b816004600083815260200190815260200160002060006101000a81548173ffffffffffffffffffffffffffffffffffffffff021916908373ffffffffffffffffffffffffffffffffffffffff160217905550808273ffffffffffffffffffffffffffffffffffffffff1661184c83610af9565b73ffffffffffffffffffffffffffffffffffffffff167f8c5be1e5ebec7d5bd14f71427d1e84f3dd0314c0f7b2291e5b200ac8c7c3b92560405160405180910390a45050565b600061189d82611765565b6118dc576040517f08c379a00000000000000000000000000000000000000000000000000000000081526004016118d390614057565b60405180910390fd5b60006118e783610af9565b90508073ffffffffffffffffffffffffffffffffffffffff168473ffffffffffffffffffffffffffffffffffffffff16148061192957506119288185611157565b5b8061196757508373ffffffffffffffffffffffffffffffffffffffff1661194f846106ac565b73ffffffffffffffffffffffffffffffffffffffff16145b91505092915050565b8273ffffffffffffffffffffffffffffffffffffffff1661199082610af9565b73ffffffffffffffffffffffffffffffffffffffff16146119e6576040517f08c379a00000000000000000000000000000000000000000000000000000000081526004016119dd906140e9565b60405180910390fd5b600073ffffffffffffffffffffffffffffffffffffffff168273ffffffffffffffffffffffffffffffffffffffff1603611a55576040517f08c379a0000000000000000000000000000000000000000000000000000000008152600401611a4c9061417b565b60405180910390fd5b611a6083838361228a565b611a6b6000826117d9565b6001600360008573ffffffffffffffffffffffffffffffffffffffff1673ffffffffffffffffffffffffffffffffffffffff1681526020019081526020016000206000828254611abb91906141ca565b925050819055506001600360008473ffffffffffffffffffffffffffffffffffffffff1673ffffffffffffffffffffffffffffffffffffffff1681526020019081526020016000206000828254611b1291906141fe565b92505081905550816002600083815260200190815260200160002060006101000a81548173ffffffffffffffffffffffffffffffffffffffff021916908373ffffffffffffffffffffffffffffffffffffffff160217905550808273ffffffffffffffffffffffffffffffffffffffff168473ffffffffffffffffffffffffffffffffffffffff167fddf252ad1be2c89b69c2b068fc378daa952ba7f163c4a11628f55a4df523b3ef60405160405180910390a4611bd183838361229a565b505050565b6000600b60009054906101000a900473ffffffffffffffffffffffffffffffffffffffff16905081600b60006101000a81548173ffffffffffffffffffffffffffffffffffffffff021916908373ffffffffffffffffffffffffffffffffffffffff1602179055508173ffffffffffffffffffffffffffffffffffffffff168173ffffffffffffffffffffffffffffffffffffffff167f8be0079c531659141344cd1fd0a4f28419497f9722a3daafe3b4186f6b6457e060405160405180910390a35050565b611cad611ca76117d1565b84611892565b611cec576040517f08c379a0000000000000000000000000000000000000000000000000000000008152600401611ce39061427e565b60405180910390fd5b600082604051602001611cff91906142da565b604051602081830303815290604052805190602001209050600c60009054906101000a900473ffffffffffffffffffffffffffffffffffffffff1673ffffffffffffffffffffffffffffffffffffffff16637fcacc0e82846040518363ffffffff1660e01b8152600401611d74929190614346565b602060405180830381865afa158015611d91573d6000803e3d6000fd5b505050506040513d601f19601f82011682018060405250810190611db59190613c83565b611df4576040517f08c379a0000000000000000000000000000000000000000000000000000000008152600401611deb906143c2565b60405180910390fd5b611dfe8484611e22565b50505050565b611e1e82826040518060200160405280600081525061229f565b5050565b611e2b82611765565b611e6a576040517f08c379a0000000000000000000000000000000000000000000000000000000008152600401611e6190614454565b60405180910390fd5b80600a60008481526020019081526020016000209081611e8a9190614620565b505050565b8173ffffffffffffffffffffffffffffffffffffffff168373ffffffffffffffffffffffffffffffffffffffff1603611efd576040517f08c379a0000000000000000000000000000000000000000000000000000000008152600401611ef49061473e565b60405180910390fd5b80600560008573ffffffffffffffffffffffffffffffffffffffff1673ffffffffffffffffffffffffffffffffffffffff16815260200190815260200160002060008473ffffffffffffffffffffffffffffffffffffffff1673ffffffffffffffffffffffffffffffffffffffff16815260200190815260200160002060006101000a81548160ff0219169083151502179055508173ffffffffffffffffffffffffffffffffffffffff168373ffffffffffffffffffffffffffffffffffffffff167f17307eab39ab6107e8899845ad3d59bd9653f200f220920489ca2b5937696c3183604051611fee9190612dfc565b60405180910390a3505050565b612006848484611970565b612012848484846122fa565b612051576040517f08c379a0000000000000000000000000000000000000000000000000000000008152600401612048906147d0565b60405180910390fd5b50505050565b606061206282611765565b6120a1576040517f08c379a000000000000000000000000000000000000000000000000000000000815260040161209890614862565b60405180910390fd5b6000600a600084815260200190815260200160002080546120c1906136a6565b80601f01602080910402602001604051908101604052809291908181526020018280546120ed906136a6565b801561213a5780601f1061210f5761010080835404028352916020019161213a565b820191906000526020600020905b81548152906001019060200180831161211d57829003601f168201915b50505050509050600061214b612481565b905060008151036121605781925050506121a3565b60008251111561219557808260405160200161217d929190614882565b604051602081830303815290604052925050506121a3565b61219e846124be565b925050505b919050565b60007f80ac58cd000000000000000000000000000000000000000000000000000000007bffffffffffffffffffffffffffffffffffffffffffffffffffffffff1916827bffffffffffffffffffffffffffffffffffffffffffffffffffffffff1916148061227357507f5b5e139f000000000000000000000000000000000000000000000000000000007bffffffffffffffffffffffffffffffffffffffffffffffffffffffff1916827bffffffffffffffffffffffffffffffffffffffffffffffffffffffff1916145b80612283575061228282612565565b5b9050919050565b6122958383836125cf565b505050565b505050565b6122a983836126e1565b6122b660008484846122fa565b6122f5576040517f08c379a00000000000000000000000000000000000000000000000000000000081526004016122ec906147d0565b60405180910390fd5b505050565b600061231b8473ffffffffffffffffffffffffffffffffffffffff166128ba565b15612474578373ffffffffffffffffffffffffffffffffffffffff1663150b7a026123446117d1565b8786866040518563ffffffff1660e01b815260040161236694939291906148a6565b6020604051808303816000875af19250505080156123a257506040513d601f19601f8201168201806040525081019061239f9190614907565b60015b612424573d80600081146123d2576040519150601f19603f3d011682016040523d82523d6000602084013e6123d7565b606091505b50600081510361241c576040517f08c379a0000000000000000000000000000000000000000000000000000000008152600401612413906147d0565b60405180910390fd5b805181602001fd5b63150b7a0260e01b7bffffffffffffffffffffffffffffffffffffffffffffffffffffffff1916817bffffffffffffffffffffffffffffffffffffffffffffffffffffffff191614915050612479565b600190505b949350505050565b60606040518060400160405280601581526020017f68747470733a2f2f697066732e696f2f697066732f0000000000000000000000815250905090565b60606124c982611765565b612508576040517f08c379a00000000000000000000000000000000000000000000000000000000081526004016124ff906149a6565b60405180910390fd5b6000612512612481565b90506000815111612532576040518060200160405280600081525061255d565b8061253c846128dd565b60405160200161254d929190614882565b6040516020818303038152906040525b915050919050565b60007f01ffc9a7000000000000000000000000000000000000000000000000000000007bffffffffffffffffffffffffffffffffffffffffffffffffffffffff1916827bffffffffffffffffffffffffffffffffffffffffffffffffffffffff1916149050919050565b6125da838383612a3d565b600073ffffffffffffffffffffffffffffffffffffffff168373ffffffffffffffffffffffffffffffffffffffff160361261c5761261781612a42565b61265b565b8173ffffffffffffffffffffffffffffffffffffffff168373ffffffffffffffffffffffffffffffffffffffff161461265a576126598382612a8b565b5b5b600073ffffffffffffffffffffffffffffffffffffffff168273ffffffffffffffffffffffffffffffffffffffff160361269d5761269881612bf8565b6126dc565b8273ffffffffffffffffffffffffffffffffffffffff168273ffffffffffffffffffffffffffffffffffffffff16146126db576126da8282612cc9565b5b5b505050565b600073ffffffffffffffffffffffffffffffffffffffff168273ffffffffffffffffffffffffffffffffffffffff1603612750576040517f08c379a000000000000000000000000000000000000000000000000000000000815260040161274790614a12565b60405180910390fd5b61275981611765565b15612799576040517f08c379a000000000000000000000000000000000000000000000000000000000815260040161279090614a7e565b60405180910390fd5b6127a56000838361228a565b6001600360008473ffffffffffffffffffffffffffffffffffffffff1673ffffffffffffffffffffffffffffffffffffffff16815260200190815260200160002060008282546127f591906141fe565b92505081905550816002600083815260200190815260200160002060006101000a81548173ffffffffffffffffffffffffffffffffffffffff021916908373ffffffffffffffffffffffffffffffffffffffff160217905550808273ffffffffffffffffffffffffffffffffffffffff16600073ffffffffffffffffffffffffffffffffffffffff167fddf252ad1be2c89b69c2b068fc378daa952ba7f163c4a11628f55a4df523b3ef60405160405180910390a46128b66000838361229a565b5050565b6000808273ffffffffffffffffffffffffffffffffffffffff163b119050919050565b606060008203612924576040518060400160405280600181526020017f30000000000000000000000000000000000000000000000000000000000000008152509050612a38565b600082905060005b6000821461295657808061293f90614a9e565b915050600a8261294f9190614b15565b915061292c565b60008167ffffffffffffffff811115612972576129716130a8565b5b6040519080825280601f01601f1916602001820160405280156129a45781602001600182028036833780820191505090505b5090505b60008514612a31576001826129bd91906141ca565b9150600a856129cc9190614b46565b60306129d891906141fe565b60f81b8183815181106129ee576129ed613b1b565b5b60200101907effffffffffffffffffffffffffffffffffffffffffffffffffffffffffffff1916908160001a905350600a85612a2a9190614b15565b94506129a8565b8093505050505b919050565b505050565b6008805490506009600083815260200190815260200160002081905550600881908060018154018082558091505060019003906000526020600020016000909190919091505550565b60006001612a9884610baa565b612aa291906141ca565b9050600060076000848152602001908152602001600020549050818114612b87576000600660008673ffffffffffffffffffffffffffffffffffffffff1673ffffffffffffffffffffffffffffffffffffffff168152602001908152602001600020600084815260200190815260200160002054905080600660008773ffffffffffffffffffffffffffffffffffffffff1673ffffffffffffffffffffffffffffffffffffffff168152602001908152602001600020600084815260200190815260200160002081905550816007600083815260200190815260200160002081905550505b6007600084815260200190815260200160002060009055600660008573ffffffffffffffffffffffffffffffffffffffff1673ffffffffffffffffffffffffffffffffffffffff16815260200190815260200160002060008381526020019081526020016000206000905550505050565b60006001600880549050612c0c91906141ca565b9050600060096000848152602001908152602001600020549050600060088381548110612c3c57612c3b613b1b565b5b906000526020600020015490508060088381548110612c5e57612c5d613b1b565b5b906000526020600020018190555081600960008381526020019081526020016000208190555060096000858152602001908152602001600020600090556008805480612cad57612cac614b77565b5b6001900381819060005260206000200160009055905550505050565b6000612cd483610baa565b905081600660008573ffffffffffffffffffffffffffffffffffffffff1673ffffffffffffffffffffffffffffffffffffffff168152602001908152602001600020600083815260200190815260200160002081905550806007600084815260200190815260200160002081905550505050565b6000604051905090565b600080fd5b600080fd5b60007fffffffff0000000000000000000000000000000000000000000000000000000082169050919050565b612d9181612d5c565b8114612d9c57600080fd5b50565b600081359050612dae81612d88565b92915050565b600060208284031215612dca57612dc9612d52565b5b6000612dd884828501612d9f565b91505092915050565b60008115159050919050565b612df681612de1565b82525050565b6000602082019050612e116000830184612ded565b92915050565b600081519050919050565b600082825260208201905092915050565b60005b83811015612e51578082015181840152602081019050612e36565b60008484015250505050565b6000601f19601f8301169050919050565b6000612e7982612e17565b612e838185612e22565b9350612e93818560208601612e33565b612e9c81612e5d565b840191505092915050565b60006020820190508181036000830152612ec18184612e6e565b905092915050565b6000819050919050565b612edc81612ec9565b8114612ee757600080fd5b50565b600081359050612ef981612ed3565b92915050565b600060208284031215612f1557612f14612d52565b5b6000612f2384828501612eea565b91505092915050565b600073ffffffffffffffffffffffffffffffffffffffff82169050919050565b6000612f5782612f2c565b9050919050565b612f6781612f4c565b82525050565b6000602082019050612f826000830184612f5e565b92915050565b612f9181612f4c565b8114612f9c57600080fd5b50565b600081359050612fae81612f88565b92915050565b60008060408385031215612fcb57612fca612d52565b5b6000612fd985828601612f9f565b9250506020612fea85828601612eea565b9150509250929050565b612ffd81612ec9565b82525050565b60006020820190506130186000830184612ff4565b92915050565b60008060006060848603121561303757613036612d52565b5b600061304586828701612f9f565b935050602061305686828701612f9f565b925050604061306786828701612eea565b9150509250925092565b60006020828403121561308757613086612d52565b5b600061309584828501612f9f565b91505092915050565b600080fd5b600080fd5b7f4e487b7100000000000000000000000000000000000000000000000000000000600052604160045260246000fd5b6130e082612e5d565b810181811067ffffffffffffffff821117156130ff576130fe6130a8565b5b80604052505050565b6000613112612d48565b905061311e82826130d7565b919050565b600067ffffffffffffffff82111561313e5761313d6130a8565b5b61314782612e5d565b9050602081019050919050565b82818337600083830152505050565b600061317661317184613123565b613108565b905082815260208101848484011115613192576131916130a3565b5b61319d848285613154565b509392505050565b600082601f8301126131ba576131b961309e565b5b81356131ca848260208601613163565b91505092915050565b600067ffffffffffffffff8211156131ee576131ed6130a8565b5b6131f782612e5d565b9050602081019050919050565b6000613217613212846131d3565b613108565b905082815260208101848484011115613233576132326130a3565b5b61323e848285613154565b509392505050565b600082601f83011261325b5761325a61309e565b5b813561326b848260208601613204565b91505092915050565b60008060006060848603121561328d5761328c612d52565b5b600061329b86828701612eea565b935050602084013567ffffffffffffffff8111156132bc576132bb612d57565b5b6132c8868287016131a5565b925050604084013567ffffffffffffffff8111156132e9576132e8612d57565b5b6132f586828701613246565b9150509250925092565b60006020828403121561331557613314612d52565b5b600082013567ffffffffffffffff81111561333357613332612d57565b5b61333f848285016131a5565b91505092915050565b6000806040838503121561335f5761335e612d52565b5b600083013567ffffffffffffffff81111561337d5761337c612d57565b5b613389858286016131a5565b925050602083013567ffffffffffffffff8111156133aa576133a9612d57565b5b6133b685828601613246565b9150509250929050565b6133c981612de1565b81146133d457600080fd5b50565b6000813590506133e6816133c0565b92915050565b6000806040838503121561340357613402612d52565b5b600061341185828601612f9f565b9250506020613422858286016133d7565b9150509250929050565b6000806000806080858703121561344657613445612d52565b5b600061345487828801612f9f565b945050602061346587828801612f9f565b935050604061347687828801612eea565b925050606085013567ffffffffffffffff81111561349757613496612d57565b5b6134a387828801613246565b91505092959194509250565b600080604083850312156134c6576134c5612d52565b5b60006134d485828601612f9f565b92505060206134e585828601612f9f565b9150509250929050565b6000819050919050565b613502816134ef565b811461350d57600080fd5b50565b60008135905061351f816134f9565b92915050565b600080600080600060a0868803121561354157613540612d52565b5b600061354f88828901612eea565b955050602061356088828901613510565b945050604061357188828901612eea565b935050606086013567ffffffffffffffff81111561359257613591612d57565b5b61359e888289016131a5565b925050608086013567ffffffffffffffff8111156135bf576135be612d57565b5b6135cb88828901613246565b9150509295509295909350565b600080600080608085870312156135f2576135f1612d52565b5b600061360087828801612eea565b945050602061361187828801613510565b935050604085013567ffffffffffffffff81111561363257613631612d57565b5b61363e878288016131a5565b925050606085013567ffffffffffffffff81111561365f5761365e612d57565b5b61366b87828801613246565b91505092959194509250565b7f4e487b7100000000000000000000000000000000000000000000000000000000600052602260045260246000fd5b600060028204905060018216806136be57607f821691505b6020821081036136d1576136d0613677565b5b50919050565b7f4552433732313a20617070726f76656420717565727920666f72206e6f6e657860008201527f697374656e7420746f6b656e0000000000000000000000000000000000000000602082015250565b6000613733602c83612e22565b915061373e826136d7565b604082019050919050565b6000602082019050818103600083015261376281613726565b9050919050565b7f4552433732313a20617070726f76616c20746f2063757272656e74206f776e6560008201527f7200000000000000000000000000000000000000000000000000000000000000602082015250565b60006137c5602183612e22565b91506137d082613769565b604082019050919050565b600060208201905081810360008301526137f4816137b8565b9050919050565b7f4552433732313a20617070726f76652063616c6c6572206973206e6f74206f7760008201527f6e6572206e6f7220617070726f76656420666f7220616c6c0000000000000000602082015250565b6000613857603883612e22565b9150613862826137fb565b604082019050919050565b600060208201905081810360008301526138868161384a565b9050919050565b7f4552433732313a207472616e736665722063616c6c6572206973206e6f74206f60008201527f776e6572206e6f7220617070726f766564000000000000000000000000000000602082015250565b60006138e9603183612e22565b91506138f48261388d565b604082019050919050565b60006020820190508181036000830152613918816138dc565b9050919050565b7f455243373231456e756d657261626c653a206f776e657220696e646578206f7560008201527f74206f6620626f756e6473000000000000000000000000000000000000000000602082015250565b600061397b602b83612e22565b91506139868261391f565b604082019050919050565b600060208201905081810360008301526139aa8161396e565b9050919050565b7f4f776e61626c653a2063616c6c6572206973206e6f7420746865206f776e6572600082015250565b60006139e7602083612e22565b91506139f2826139b1565b602082019050919050565b60006020820190508181036000830152613a16816139da565b9050919050565b7f4e6f2062616c616e636520746f20776974686472617700000000000000000000600082015250565b6000613a53601683612e22565b9150613a5e82613a1d565b602082019050919050565b60006020820190508181036000830152613a8281613a46565b9050919050565b7f455243373231456e756d657261626c653a20676c6f62616c20696e646578206f60008201527f7574206f6620626f756e64730000000000000000000000000000000000000000602082015250565b6000613ae5602c83612e22565b9150613af082613a89565b604082019050919050565b60006020820190508181036000830152613b1481613ad8565b9050919050565b7f4e487b7100000000000000000000000000000000000000000000000000000000600052603260045260246000fd5b7f4552433732313a206f776e657220717565727920666f72206e6f6e657869737460008201527f656e7420746f6b656e0000000000000000000000000000000000000000000000602082015250565b6000613ba6602983612e22565b9150613bb182613b4a565b604082019050919050565b60006020820190508181036000830152613bd581613b99565b9050919050565b7f4552433732313a2062616c616e636520717565727920666f7220746865207a6560008201527f726f206164647265737300000000000000000000000000000000000000000000602082015250565b6000613c38602a83612e22565b9150613c4382613bdc565b604082019050919050565b60006020820190508181036000830152613c6781613c2b565b9050919050565b600081519050613c7d816133c0565b92915050565b600060208284031215613c9957613c98612d52565b5b6000613ca784828501613c6e565b91505092915050565b7f53616c65206d7573742062652061637469766500000000000000000000000000600082015250565b6000613ce6601383612e22565b9150613cf182613cb0565b602082019050919050565b60006020820190508181036000830152613d1581613cd9565b9050919050565b600081519050613d2b81612ed3565b92915050565b600060208284031215613d4757613d46612d52565b5b6000613d5584828501613d1c565b91505092915050565b7f45786365656420696e697469616c20737570706c79206f66206e757473000000600082015250565b6000613d94601d83612e22565b9150613d9f82613d5e565b602082019050919050565b60006020820190508181036000830152613dc381613d87565b9050919050565b600081519050613dd981612f88565b92915050565b600060208284031215613df557613df4612d52565b5b6000613e0384828501613dca565b91505092915050565b7f43616c6c6572206973206e6f74206f776e6572206f66206e7574000000000000600082015250565b6000613e42601a83612e22565b9150613e4d82613e0c565b602082019050919050565b60006020820190508181036000830152613e7181613e35565b9050919050565b613e81816134ef565b82525050565b6000606082019050613e9c6000830186612ff4565b613ea96020830185612ff4565b613eb66040830184613e78565b949350505050565b7f4e757473207374696c6c2065786973742066726f6d206372656174696f6e0000600082015250565b6000613ef4601e83612e22565b9150613eff82613ebe565b602082019050919050565b60006020820190508181036000830152613f2381613ee7565b9050919050565b6000604082019050613f3f6000830185612ff4565b613f4c6020830184613e78565b9392505050565b7f4f776e61626c653a206e6577206f776e657220697320746865207a65726f206160008201527f6464726573730000000000000000000000000000000000000000000000000000602082015250565b6000613faf602683612e22565b9150613fba82613f53565b604082019050919050565b60006020820190508181036000830152613fde81613fa2565b9050919050565b7f4552433732313a206f70657261746f7220717565727920666f72206e6f6e657860008201527f697374656e7420746f6b656e0000000000000000000000000000000000000000602082015250565b6000614041602c83612e22565b915061404c82613fe5565b604082019050919050565b6000602082019050818103600083015261407081614034565b9050919050565b7f4552433732313a207472616e736665722066726f6d20696e636f72726563742060008201527f6f776e6572000000000000000000000000000000000000000000000000000000602082015250565b60006140d3602583612e22565b91506140de82614077565b604082019050919050565b60006020820190508181036000830152614102816140c6565b9050919050565b7f4552433732313a207472616e7366657220746f20746865207a65726f2061646460008201527f7265737300000000000000000000000000000000000000000000000000000000602082015250565b6000614165602483612e22565b915061417082614109565b604082019050919050565b6000602082019050818103600083015261419481614158565b9050919050565b7f4e487b7100000000000000000000000000000000000000000000000000000000600052601160045260246000fd5b60006141d582612ec9565b91506141e083612ec9565b92508282039050818111156141f8576141f761419b565b5b92915050565b600061420982612ec9565b915061421483612ec9565b925082820190508082111561422c5761422b61419b565b5b92915050565b7f43616c6c6572206973206e6f74206f776e6572206e6f7220617070726f766564600082015250565b6000614268602083612e22565b915061427382614232565b602082019050919050565b600060208201905081810360008301526142978161425b565b9050919050565b600081905092915050565b60006142b482612e17565b6142be818561429e565b93506142ce818560208601612e33565b80840191505092915050565b60006142e682846142a9565b915081905092915050565b600081519050919050565b600082825260208201905092915050565b6000614318826142f1565b61432281856142fc565b9350614332818560208601612e33565b61433b81612e5d565b840191505092915050565b600060408201905061435b6000830185613e78565b818103602083015261436d818461430d565b90509392505050565b7f4461746120646f6573206e6f74206d61746368207369676e6174757265000000600082015250565b60006143ac601d83612e22565b91506143b782614376565b602082019050919050565b600060208201905081810360008301526143db8161439f565b9050919050565b7f45524337323155524953746f726167653a2055524920736574206f66206e6f6e60008201527f6578697374656e7420746f6b656e000000000000000000000000000000000000602082015250565b600061443e602e83612e22565b9150614449826143e2565b604082019050919050565b6000602082019050818103600083015261446d81614431565b9050919050565b60008190508160005260206000209050919050565b60006020601f8301049050919050565b600082821b905092915050565b6000600883026144d67fffffffffffffffffffffffffffffffffffffffffffffffffffffffffffffffff82614499565b6144e08683614499565b95508019841693508086168417925050509392505050565b6000819050919050565b600061451d61451861451384612ec9565b6144f8565b612ec9565b9050919050565b6000819050919050565b61453783614502565b61454b61454382614524565b8484546144a6565b825550505050565b600090565b614560614553565b61456b81848461452e565b505050565b5b8181101561458f57614584600082614558565b600181019050614571565b5050565b601f8211156145d4576145a581614474565b6145ae84614489565b810160208510156145bd578190505b6145d16145c985614489565b830182614570565b50505b505050565b600082821c905092915050565b60006145f7600019846008026145d9565b1980831691505092915050565b600061461083836145e6565b9150826002028217905092915050565b61462982612e17565b67ffffffffffffffff811115614642576146416130a8565b5b61464c82546136a6565b614657828285614593565b600060209050601f83116001811461468a5760008415614678578287015190505b6146828582614604565b8655506146ea565b601f19841661469886614474565b60005b828110156146c05784890151825560018201915060208501945060208101905061469b565b868310156146dd57848901516146d9601f8916826145e6565b8355505b6001600288020188555050505b505050505050565b7f4552433732313a20617070726f766520746f2063616c6c657200000000000000600082015250565b6000614728601983612e22565b9150614733826146f2565b602082019050919050565b600060208201905081810360008301526147578161471b565b9050919050565b7f4552433732313a207472616e7366657220746f206e6f6e20455243373231526560008201527f63656976657220696d706c656d656e7465720000000000000000000000000000602082015250565b60006147ba603283612e22565b91506147c58261475e565b604082019050919050565b600060208201905081810360008301526147e9816147ad565b9050919050565b7f45524337323155524953746f726167653a2055524920717565727920666f722060008201527f6e6f6e6578697374656e7420746f6b656e000000000000000000000000000000602082015250565b600061484c603183612e22565b9150614857826147f0565b604082019050919050565b6000602082019050818103600083015261487b8161483f565b9050919050565b600061488e82856142a9565b915061489a82846142a9565b91508190509392505050565b60006080820190506148bb6000830187612f5e565b6148c86020830186612f5e565b6148d56040830185612ff4565b81810360608301526148e7818461430d565b905095945050505050565b60008151905061490181612d88565b92915050565b60006020828403121561491d5761491c612d52565b5b600061492b848285016148f2565b91505092915050565b7f4552433732314d657461646174613a2055524920717565727920666f72206e6f60008201527f6e6578697374656e7420746f6b656e0000000000000000000000000000000000602082015250565b6000614990602f83612e22565b915061499b82614934565b604082019050919050565b600060208201905081810360008301526149bf81614983565b9050919050565b7f4552433732313a206d696e7420746f20746865207a65726f2061646472657373600082015250565b60006149fc602083612e22565b9150614a07826149c6565b602082019050919050565b60006020820190508181036000830152614a2b816149ef565b9050919050565b7f4552433732313a20746f6b656e20616c7265616479206d696e74656400000000600082015250565b6000614a68601c83612e22565b9150614a7382614a32565b602082019050919050565b60006020820190508181036000830152614a9781614a5b565b9050919050565b6000614aa982612ec9565b91507fffffffffffffffffffffffffffffffffffffffffffffffffffffffffffffffff8203614adb57614ada61419b565b5b600182019050919050565b7f4e487b7100000000000000000000000000000000000000000000000000000000600052601260045260246000fd5b6000614b2082612ec9565b9150614b2b83612ec9565b925082614b3b57614b3a614ae6565b5b828204905092915050565b6000614b5182612ec9565b9150614b5c83612ec9565b925082614b6c57614b6b614ae6565b5b828206905092915050565b7f4e487b7100000000000000000000000000000000000000000000000000000000600052603160045260246000fdfea2646970667358221220790ad43abbedabd0cfc9b44b42e1cce28b9748e9f1ef2dcaddc35bd63632b66364736f6c63430008110033a2646970667358221220cea23de418472c9af70472409c71a5a8718bafb6ff77ad1e1cd053225444939164736f6c63430008110033a2646970667358221220a472de1303d25fd7f0ffe39bd28c53bf346e1859527911be3d25bcf88c5dd7f064736f6c63430008110033",
  "immutableReferences": {},
  "source": "// SPDX-License-Identifier: MIT\npragma solidity ^0.8.7;\n\nimport \"openzeppelin-solidity/contracts/access/Ownable.sol\";\nimport \"./CosmoMatter.sol\";\n//import \"./CosmoBang.sol\";\nimport \"./CosmoBuilder.sol\";\n\n/**\n * CosmoUniverse is the top contract for the developer to create the planned system.\n *\n */\n contract CosmoUniverse is CosmoBuilder, Ownable {\n\n     uint256 COSMOS_INDEX = 0;\n\n     address public MATTER_ADDRESS;\n     address private BUILDER_ADDRESS;\n\n     /*\n     struct Cosmo {\n         bool status;\n         uint256 id;\n         uint256 price;\n         uint256 rate;\n         uint256 amount;\n         string name;\n         string symbol;\n         address location;\n         address vaultLocation;\n     }\n     Cosmo cosmo;\n     mapping(uint256 => Cosmo) public cosmos;\n     */\n\n     CosmoMatter matter;\n\n     constructor(\n         address _systemAddress\n     )\n     {\n         SYSTEM_ADDRESS = _systemAddress;\n     }\n\n     function buildASystem(\n         uint256 _id,\n         uint256 _price,\n         uint256 _rate,\n         uint256 _amount,\n         string memory _name,\n         string memory _symbol\n     ) public {\n         //CosmoSystems builder = new CosmoSystems(\n         //    _id, _price, _rate, _amount, _name, _symbol\n         //);\n         //CosmoSystems builder = new CosmoSystems(SYSTEM_ADDRESS);\n         //BUILDER_ADDRESS = address(builder);\n\n         cosmos[COSMOS_INDEX].id = _id;\n         cosmos[COSMOS_INDEX].price = _price;\n         cosmos[COSMOS_INDEX].rate =  _rate;\n         cosmos[COSMOS_INDEX].amount = _amount;\n         cosmos[COSMOS_INDEX].name = _name;\n         cosmos[COSMOS_INDEX].symbol = _symbol;\n\n         //cosmos[COSMOS_INDEX].vaultLocation = builder.createVault(MATTER_ADDRESS);\n     }\n\n     /*\n     function deployCosmo(\n         uint256 _id,\n         uint256 _price,\n         uint256 _rate,\n         uint256 _amount,\n         string memory _name,\n         string memory _symbol\n     ) public {\n         cosmos[COSMOS_INDEX].id = _id;\n         cosmos[COSMOS_INDEX].price = _price;\n         cosmos[COSMOS_INDEX].rate =  _rate;\n         cosmos[COSMOS_INDEX].amount = _amount;\n         cosmos[COSMOS_INDEX].name = _name;\n         cosmos[COSMOS_INDEX].symbol = _symbol;\n\n         createVault();\n     }\n     */\n\n     function makeMatter(string memory _matterName, string memory _matterSymbol) public {\n         matter = new CosmoMatter(_matterName, _matterSymbol);\n         MATTER_ADDRESS = address(matter);\n     }\n\n     function bigBang() public {\n         // seperate out mattertocreate later as a function that can be viewed before bigBang;\n         uint256 matterToCreate = cosmos[COSMOS_INDEX].rate * cosmos[COSMOS_INDEX].amount;\n         matter = CosmoMatter(MATTER_ADDRESS);\n         matter.mintMatter(cosmos[COSMOS_INDEX].vaultLocation, matterToCreate);\n         //CosmoSystems builder = CosmoSystems(BUILDER_ADDRESS);\n         createCosmo(\n             cosmos[COSMOS_INDEX].name,\n             cosmos[COSMOS_INDEX].symbol,\n             cosmos[COSMOS_INDEX].amount,\n             MATTER_ADDRESS\n         );\n     }\n\n     /**\n      * The function starts the CosmoNuts universe.\n      * The amount of matter created is dependent on the desired number of NFT tokens needed and their rate.\n      * Total matter created is ultimately equal to number of NFT tokens times the selected rate.\n      */\n      /*\n     function bigBang(\n         string memory _cosmosName,\n         string memory _cosmosSymbol,\n         uint256 _nutPrice,\n         uint256 _nutRate,\n         uint256 _desiredEntities\n     ) public onlyOwner {\n         //CosmoBang bang = CosmoBang(bangAddress);\n         uint256 matterToCreate = _nutRate * _desiredEntities;\n         matter.mintMatter(address(this), matterToCreate);\n         address[] memory cosmoAddresses = bang.nutBang(\n             _cosmosName,\n             _cosmosSymbol,\n             _nutPrice,\n             _nutRate,\n             _desiredEntities\n         );\n\n         cosmo.id = COSMOS_INDEX;\n         cosmo.status = true;\n         cosmo.name = _cosmosName;\n         cosmo.symbol = _cosmosSymbol;\n         cosmo.location = cosmoAddresses[0];\n         cosmo.vaultLocation = cosmoAddresses[1];\n\n         cosmos[COSMOS_INDEX] = cosmo;\n     }\n     */\n\n }\n",
  "sourcePath": "/home/redlentils/Seafile/Websites/avatarnft/contracts/CosmoUniverse.sol",
  "compiler": {
    "name": "solc",
    "version": "0.8.17+commit.8df45f5f.Emscripten.clang"
  },
  "schemaVersion": "3.4.10",
  "updatedAt": "2022-10-09T10:59:22.862Z",
  "devdoc": {
    "kind": "dev",
    "methods": {
      "owner()": {
        "details": "Returns the address of the current owner."
      },
      "renounceOwnership()": {
        "details": "Leaves the contract without owner. It will not be possible to call `onlyOwner` functions anymore. Can only be called by the current owner. NOTE: Renouncing ownership will leave the contract without an owner, thereby removing any functionality that is only available to the owner."
      },
      "transferOwnership(address)": {
        "details": "Transfers ownership of the contract to a new account (`newOwner`). Can only be called by the current owner."
      }
    },
    "version": 1
  },
  "userdoc": {
    "kind": "user",
    "methods": {},
    "notice": "CosmoUniverse is the top contract for the developer to create the planned system.",
    "version": 1
  }
}