{
  "contractName": "CosmoBuilder",
  "abi": [
    {
      "inputs": [],
      "name": "SYSTEM_ADDRESS",
      "outputs": [
        {
          "internalType": "address",
          "name": "",
          "type": "address"
        }
      ],
      "stateMutability": "view",
      "type": "function"
    },
    {
      "inputs": [
        {
          "internalType": "uint256",
          "name": "",
          "type": "uint256"
        }
      ],
      "name": "cosmos",
      "outputs": [
        {
          "internalType": "bool",
          "name": "status",
          "type": "bool"
        },
        {
          "internalType": "uint256",
          "name": "id",
          "type": "uint256"
        },
        {
          "internalType": "uint256",
          "name": "price",
          "type": "uint256"
        },
        {
          "internalType": "uint256",
          "name": "rate",
          "type": "uint256"
        },
        {
          "internalType": "uint256",
          "name": "amount",
          "type": "uint256"
        },
        {
          "internalType": "string",
          "name": "name",
          "type": "string"
        },
        {
          "internalType": "string",
          "name": "symbol",
          "type": "string"
        },
        {
          "internalType": "address",
          "name": "location",
          "type": "address"
        },
        {
          "internalType": "address",
          "name": "vaultLocation",
          "type": "address"
        }
      ],
      "stateMutability": "view",
      "type": "function"
    }
  ],
  "bytecode": "0x608060405234801561001057600080fd5b5061050f806100206000396000f3fe608060405234801561001057600080fd5b50600436106100365760003560e01c80633434735f1461003b578063d8712a6214610059575b600080fd5b610043610091565b60405161005091906102a1565b60405180910390f35b610073600480360381019061006e91906102f7565b6100b5565b604051610088999897969594939291906103de565b60405180910390f35b60008054906101000a900473ffffffffffffffffffffffffffffffffffffffff1681565b600a6020528060005260406000206000915090508060000160009054906101000a900460ff1690806001015490806002015490806003015490806004015490806005018054610103906104a8565b80601f016020809104026020016040519081016040528092919081815260200182805461012f906104a8565b801561017c5780601f106101515761010080835404028352916020019161017c565b820191906000526020600020905b81548152906001019060200180831161015f57829003601f168201915b505050505090806006018054610191906104a8565b80601f01602080910402602001604051908101604052809291908181526020018280546101bd906104a8565b801561020a5780601f106101df5761010080835404028352916020019161020a565b820191906000526020600020905b8154815290600101906020018083116101ed57829003601f168201915b5050505050908060070160009054906101000a900473ffffffffffffffffffffffffffffffffffffffff16908060080160009054906101000a900473ffffffffffffffffffffffffffffffffffffffff16905089565b600073ffffffffffffffffffffffffffffffffffffffff82169050919050565b600061028b82610260565b9050919050565b61029b81610280565b82525050565b60006020820190506102b66000830184610292565b92915050565b600080fd5b6000819050919050565b6102d4816102c1565b81146102df57600080fd5b50565b6000813590506102f1816102cb565b92915050565b60006020828403121561030d5761030c6102bc565b5b600061031b848285016102e2565b91505092915050565b60008115159050919050565b61033981610324565b82525050565b610348816102c1565b82525050565b600081519050919050565b600082825260208201905092915050565b60005b8381101561038857808201518184015260208101905061036d565b60008484015250505050565b6000601f19601f8301169050919050565b60006103b08261034e565b6103ba8185610359565b93506103ca81856020860161036a565b6103d381610394565b840191505092915050565b6000610120820190506103f4600083018c610330565b610401602083018b61033f565b61040e604083018a61033f565b61041b606083018961033f565b610428608083018861033f565b81810360a083015261043a81876103a5565b905081810360c083015261044e81866103a5565b905061045d60e0830185610292565b61046b610100830184610292565b9a9950505050505050505050565b7f4e487b7100000000000000000000000000000000000000000000000000000000600052602260045260246000fd5b600060028204905060018216806104c057607f821691505b6020821081036104d3576104d2610479565b5b5091905056fea2646970667358221220437246e1f0ef469bfcefc5d68b40e79cba84383cb2b7282ad32ee756f92cce2264736f6c63430008110033",
  "immutableReferences": {},
  "source": "// SPDX-License-Identifier: MIT\npragma solidity ^0.8.7;\n\nimport \"./CosmoVault.sol\";\nimport \"./CosmoBang.sol\";\n\ncontract CosmoBuilder {\n\n    address public SYSTEM_ADDRESS;\n\n    struct Cosmo {\n        bool status;\n        uint256 id;\n        uint256 price;\n        uint256 rate;\n        uint256 amount;\n        string name;\n        string symbol;\n        address location;\n        address vaultLocation;\n    }\n    Cosmo cosmo;\n    mapping(uint256 => Cosmo) public cosmos;\n\n    //mapping(uint256 => address) bangAddressOfCosmo;\n\n    /*\n    constructor(address _systemAddress) {\n        SYSTEM_ADDRESS = _systemAddress;\n    }\n    */\n\n    //function createVault(address _matterAddress) internal returns (address) {\n    //    CosmoVault vault = new CosmoVault(SYSTEM_ADDRESS, _matterAddress);\n    //    return address(vault);\n    //}\n\n    // This needs to utilize CosmoBang contract to move away CosmoNuts\n    function createCosmo(\n        //uint256 _id,\n        string memory _name,\n        string memory _symbol,\n        uint256 _amount,\n        address _matterAddress\n    ) internal returns (address) {\n        CosmoVault vault = new CosmoVault(SYSTEM_ADDRESS, _matterAddress);\n\n        CosmoBang bang = new CosmoBang(\n            _name, _symbol, _amount, SYSTEM_ADDRESS, address(vault)\n        );\n\n        //bangAddressOfCosmo[_id] = address(bang);\n\n        bang.nutBang();\n\n        return bang.COSMO_ADDRESS();\n    }\n\n\n}\n",
  "sourcePath": "/home/redlentils/Seafile/Websites/avatarnft/contracts/CosmoBuilder.sol",
  "compiler": {
    "name": "solc",
    "version": "0.8.17+commit.8df45f5f.Emscripten.clang"
  },
  "schemaVersion": "3.4.10",
  "updatedAt": "2022-10-09T10:59:22.848Z",
  "devdoc": {
    "kind": "dev",
    "methods": {},
    "version": 1
  },
  "userdoc": {
    "kind": "user",
    "methods": {},
    "version": 1
  }
}