{
  "contractName": "CosmoBang",
  "abi": [
    {
      "inputs": [
        {
          "internalType": "string",
          "name": "_name",
          "type": "string"
        },
        {
          "internalType": "string",
          "name": "_symbol",
          "type": "string"
        },
        {
          "internalType": "uint256",
          "name": "_supply",
          "type": "uint256"
        },
        {
          "internalType": "address",
          "name": "_systemAddress",
          "type": "address"
        },
        {
          "internalType": "address",
          "name": "_vaultAddress",
          "type": "address"
        }
      ],
      "stateMutability": "nonpayable",
      "type": "constructor"
    },
    {
      "inputs": [],
      "name": "COSMO_ADDRESS",
      "outputs": [
        {
          "internalType": "address",
          "name": "",
          "type": "address"
        }
      ],
      "stateMutability": "view",
      "type": "function"
    }
  ],
  "bytecode": "0x60806040523480156200001157600080fd5b5060405162005a0938038062005a098339818101604052810190620000379190620003a7565b80600160006101000a81548173ffffffffffffffffffffffffffffffffffffffff021916908373ffffffffffffffffffffffffffffffffffffffff16021790555084848484846040516200008b9062000166565b6200009b959493929190620004ec565b604051809103906000f080158015620000b8573d6000803e3d6000fd5b50600260006101000a81548173ffffffffffffffffffffffffffffffffffffffff021916908373ffffffffffffffffffffffffffffffffffffffff160217905550600260009054906101000a900473ffffffffffffffffffffffffffffffffffffffff166000806101000a81548173ffffffffffffffffffffffffffffffffffffffff021916908373ffffffffffffffffffffffffffffffffffffffff160217905550505050505062000557565b6153ac806200065d83390190565b6000604051905090565b600080fd5b600080fd5b600080fd5b600080fd5b6000601f19601f8301169050919050565b7f4e487b7100000000000000000000000000000000000000000000000000000000600052604160045260246000fd5b620001dd8262000192565b810181811067ffffffffffffffff82111715620001ff57620001fe620001a3565b5b80604052505050565b60006200021462000174565b9050620002228282620001d2565b919050565b600067ffffffffffffffff821115620002455762000244620001a3565b5b620002508262000192565b9050602081019050919050565b60005b838110156200027d57808201518184015260208101905062000260565b60008484015250505050565b6000620002a06200029a8462000227565b62000208565b905082815260208101848484011115620002bf57620002be6200018d565b5b620002cc8482856200025d565b509392505050565b600082601f830112620002ec57620002eb62000188565b5b8151620002fe84826020860162000289565b91505092915050565b6000819050919050565b6200031c8162000307565b81146200032857600080fd5b50565b6000815190506200033c8162000311565b92915050565b600073ffffffffffffffffffffffffffffffffffffffff82169050919050565b60006200036f8262000342565b9050919050565b620003818162000362565b81146200038d57600080fd5b50565b600081519050620003a18162000376565b92915050565b600080600080600060a08688031215620003c657620003c56200017e565b5b600086015167ffffffffffffffff811115620003e757620003e662000183565b5b620003f588828901620002d4565b955050602086015167ffffffffffffffff81111562000419576200041862000183565b5b6200042788828901620002d4565b94505060406200043a888289016200032b565b93505060606200044d8882890162000390565b9250506080620004608882890162000390565b9150509295509295909350565b600081519050919050565b600082825260208201905092915050565b600062000496826200046d565b620004a2818562000478565b9350620004b48185602086016200025d565b620004bf8162000192565b840191505092915050565b620004d58162000307565b82525050565b620004e68162000362565b82525050565b600060a082019050818103600083015262000508818862000489565b905081810360208301526200051e818762000489565b90506200052f6040830186620004ca565b6200053e6060830185620004db565b6200054d6080830184620004db565b9695505050505050565b60f780620005666000396000f3fe6080604052348015600f57600080fd5b506004361060285760003560e01c8063235d2c8a14602d575b600080fd5b60336047565b604051603e919060a8565b60405180910390f35b60008054906101000a900473ffffffffffffffffffffffffffffffffffffffff1681565b600073ffffffffffffffffffffffffffffffffffffffff82169050919050565b6000609482606b565b9050919050565b60a281608b565b82525050565b600060208201905060bb6000830184609b565b9291505056fea26469706673582212207844d392708c8dc40d065d80ba297970566d1109b478c94347c2d999018f5cf564736f6c6343000811003360806040523480156200001157600080fd5b50604051620053ac380380620053ac8339818101604052810190620000379190620003d2565b848482828281600090816200004d9190620006d9565b5080600190816200005f9190620006d9565b5050506200008262000076620000d160201b60201c565b620000d960201b60201c565b80600c60006101000a81548173ffffffffffffffffffffffffffffffffffffffff021916908373ffffffffffffffffffffffffffffffffffffffff1602179055505050505050505050620007c0565b600033905090565b6000600b60009054906101000a900473ffffffffffffffffffffffffffffffffffffffff16905081600b60006101000a81548173ffffffffffffffffffffffffffffffffffffffff021916908373ffffffffffffffffffffffffffffffffffffffff1602179055508173ffffffffffffffffffffffffffffffffffffffff168173ffffffffffffffffffffffffffffffffffffffff167f8be0079c531659141344cd1fd0a4f28419497f9722a3daafe3b4186f6b6457e060405160405180910390a35050565b6000604051905090565b600080fd5b600080fd5b600080fd5b600080fd5b6000601f19601f8301169050919050565b7f4e487b7100000000000000000000000000000000000000000000000000000000600052604160045260246000fd5b6200020882620001bd565b810181811067ffffffffffffffff821117156200022a5762000229620001ce565b5b80604052505050565b60006200023f6200019f565b90506200024d8282620001fd565b919050565b600067ffffffffffffffff82111562000270576200026f620001ce565b5b6200027b82620001bd565b9050602081019050919050565b60005b83811015620002a85780820151818401526020810190506200028b565b60008484015250505050565b6000620002cb620002c58462000252565b62000233565b905082815260208101848484011115620002ea57620002e9620001b8565b5b620002f784828562000288565b509392505050565b600082601f830112620003175762000316620001b3565b5b815162000329848260208601620002b4565b91505092915050565b6000819050919050565b620003478162000332565b81146200035357600080fd5b50565b60008151905062000367816200033c565b92915050565b600073ffffffffffffffffffffffffffffffffffffffff82169050919050565b60006200039a826200036d565b9050919050565b620003ac816200038d565b8114620003b857600080fd5b50565b600081519050620003cc81620003a1565b92915050565b600080600080600060a08688031215620003f157620003f0620001a9565b5b600086015167ffffffffffffffff811115620004125762000411620001ae565b5b6200042088828901620002ff565b955050602086015167ffffffffffffffff811115620004445762000443620001ae565b5b6200045288828901620002ff565b9450506040620004658882890162000356565b93505060606200047888828901620003bb565b92505060806200048b88828901620003bb565b9150509295509295909350565b600081519050919050565b7f4e487b7100000000000000000000000000000000000000000000000000000000600052602260045260246000fd5b60006002820490506001821680620004eb57607f821691505b602082108103620005015762000500620004a3565b5b50919050565b60008190508160005260206000209050919050565b60006020601f8301049050919050565b600082821b905092915050565b6000600883026200056b7fffffffffffffffffffffffffffffffffffffffffffffffffffffffffffffffff826200052c565b6200057786836200052c565b95508019841693508086168417925050509392505050565b6000819050919050565b6000620005ba620005b4620005ae8462000332565b6200058f565b62000332565b9050919050565b6000819050919050565b620005d68362000599565b620005ee620005e582620005c1565b84845462000539565b825550505050565b600090565b62000605620005f6565b62000612818484620005cb565b505050565b5b818110156200063a576200062e600082620005fb565b60018101905062000618565b5050565b601f8211156200068957620006538162000507565b6200065e846200051c565b810160208510156200066e578190505b620006866200067d856200051c565b83018262000617565b50505b505050565b600082821c905092915050565b6000620006ae600019846008026200068e565b1980831691505092915050565b6000620006c983836200069b565b9150826002028217905092915050565b620006e48262000498565b67ffffffffffffffff8111156200070057620006ff620001ce565b5b6200070c8254620004d2565b620007198282856200063e565b600060209050601f8311600181146200075157600084156200073c578287015190505b620007488582620006bb565b865550620007b8565b601f198416620007618662000507565b60005b828110156200078b5784890151825560018201915060208501945060208101905062000764565b86831015620007ab5784890151620007a7601f8916826200069b565b8355505b6001600288020188555050505b505050505050565b614bdc80620007d06000396000f3fe6080604052600436106101815760003560e01c80638da5cb5b116100d1578063b88d4fde1161008a578063eedc765411610064578063eedc765414610583578063f23c9583146105ac578063f2fde38b146105c8578063ff3aea27146105f157610181565b8063b88d4fde146104e0578063c87b56dd14610509578063e985e9c51461054657610181565b80638da5cb5b146103f35780639202c1ec1461041e57806395d89b411461044757806395f04d0514610472578063a0e12efe1461048e578063a22cb465146104b757610181565b80632f745c591161013e5780634f6ccce7116101185780634f6ccce7146103255780636352211e1461036257806370a082311461039f578063715018a6146103dc57610181565b80632f745c59146102a85780633ccfd60b146102e557806342842e0e146102fc57610181565b806301ffc9a71461018657806306fdde03146101c3578063081812fc146101ee578063095ea7b31461022b57806318160ddd1461025457806323b872dd1461027f575b600080fd5b34801561019257600080fd5b506101ad60048036038101906101a89190612db4565b610608565b6040516101ba9190612dfc565b60405180910390f35b3480156101cf57600080fd5b506101d861061a565b6040516101e59190612ea7565b60405180910390f35b3480156101fa57600080fd5b5061021560048036038101906102109190612eff565b6106ac565b6040516102229190612f6d565b60405180910390f35b34801561023757600080fd5b50610252600480360381019061024d9190612fb4565b610731565b005b34801561026057600080fd5b50610269610848565b6040516102769190613003565b60405180910390f35b34801561028b57600080fd5b506102a660048036038101906102a1919061301e565b610855565b005b3480156102b457600080fd5b506102cf60048036038101906102ca9190612fb4565b6108b5565b6040516102dc9190613003565b60405180910390f35b3480156102f157600080fd5b506102fa61095a565b005b34801561030857600080fd5b50610323600480360381019061031e919061301e565b610a68565b005b34801561033157600080fd5b5061034c60048036038101906103479190612eff565b610a88565b6040516103599190613003565b60405180910390f35b34801561036e57600080fd5b5061038960048036038101906103849190612eff565b610af9565b6040516103969190612f6d565b60405180910390f35b3480156103ab57600080fd5b506103c660048036038101906103c19190613071565b610baa565b6040516103d39190613003565b60405180910390f35b3480156103e857600080fd5b506103f1610c61565b005b3480156103ff57600080fd5b50610408610ce9565b6040516104159190612f6d565b60405180910390f35b34801561042a57600080fd5b5061044560048036038101906104409190613274565b610d13565b005b34801561045357600080fd5b5061045c610d23565b6040516104699190612ea7565b60405180910390f35b61048c600480360381019061048791906132ff565b610db5565b005b34801561049a57600080fd5b506104b560048036038101906104b09190613348565b6110a7565b005b3480156104c357600080fd5b506104de60048036038101906104d991906133ec565b6110cd565b005b3480156104ec57600080fd5b506105076004803603810190610502919061342c565b6110e3565b005b34801561051557600080fd5b50610530600480360381019061052b9190612eff565b611145565b60405161053d9190612ea7565b60405180910390f35b34801561055257600080fd5b5061056d600480360381019061056891906134af565b611157565b60405161057a9190612dfc565b60405180910390f35b34801561058f57600080fd5b506105aa60048036038101906105a59190613525565b6111eb565b005b6105c660048036038101906105c191906135d8565b611304565b005b3480156105d457600080fd5b506105ef60048036038101906105ea9190613071565b6114f4565b005b3480156105fd57600080fd5b506106066115eb565b005b6000610613826116eb565b9050919050565b606060008054610629906136a6565b80601f0160208091040260200160405190810160405280929190818152602001828054610655906136a6565b80156106a25780601f10610677576101008083540402835291602001916106a2565b820191906000526020600020905b81548152906001019060200180831161068557829003601f168201915b5050505050905090565b60006106b782611765565b6106f6576040517f08c379a00000000000000000000000000000000000000000000000000000000081526004016106ed90613749565b60405180910390fd5b6004600083815260200190815260200160002060009054906101000a900473ffffffffffffffffffffffffffffffffffffffff169050919050565b600061073c82610af9565b90508073ffffffffffffffffffffffffffffffffffffffff168373ffffffffffffffffffffffffffffffffffffffff16036107ac576040517f08c379a00000000000000000000000000000000000000000000000000000000081526004016107a3906137db565b60405180910390fd5b8073ffffffffffffffffffffffffffffffffffffffff166107cb6117d1565b73ffffffffffffffffffffffffffffffffffffffff1614806107fa57506107f9816107f46117d1565b611157565b5b610839576040517f08c379a00000000000000000000000000000000000000000000000000000000081526004016108309061386d565b60405180910390fd5b61084383836117d9565b505050565b6000600880549050905090565b6108666108606117d1565b82611892565b6108a5576040517f08c379a000000000000000000000000000000000000000000000000000000000815260040161089c906138ff565b60405180910390fd5b6108b0838383611970565b505050565b60006108c083610baa565b8210610901576040517f08c379a00000000000000000000000000000000000000000000000000000000081526004016108f890613991565b60405180910390fd5b600660008473ffffffffffffffffffffffffffffffffffffffff1673ffffffffffffffffffffffffffffffffffffffff168152602001908152602001600020600083815260200190815260200160002054905092915050565b6109626117d1565b73ffffffffffffffffffffffffffffffffffffffff16610980610ce9565b73ffffffffffffffffffffffffffffffffffffffff16146109d6576040517f08c379a00000000000000000000000000000000000000000000000000000000081526004016109cd906139fd565b60405180910390fd5b600047905060004711610a1e576040517f08c379a0000000000000000000000000000000000000000000000000000000008152600401610a1590613a69565b60405180910390fd5b3373ffffffffffffffffffffffffffffffffffffffff166108fc829081150290604051600060405180830381858888f19350505050158015610a64573d6000803e3d6000fd5b5050565b610a83838383604051806020016040528060008152506110e3565b505050565b6000610a92610848565b8210610ad3576040517f08c379a0000000000000000000000000000000000000000000000000000000008152600401610aca90613afb565b60405180910390fd5b60088281548110610ae757610ae6613b1b565b5b90600052602060002001549050919050565b6000806002600084815260200190815260200160002060009054906101000a900473ffffffffffffffffffffffffffffffffffffffff169050600073ffffffffffffffffffffffffffffffffffffffff168173ffffffffffffffffffffffffffffffffffffffff1603610ba1576040517f08c379a0000000000000000000000000000000000000000000000000000000008152600401610b9890613bbc565b60405180910390fd5b80915050919050565b60008073ffffffffffffffffffffffffffffffffffffffff168273ffffffffffffffffffffffffffffffffffffffff1603610c1a576040517f08c379a0000000000000000000000000000000000000000000000000000000008152600401610c1190613c4e565b60405180910390fd5b600360008373ffffffffffffffffffffffffffffffffffffffff1673ffffffffffffffffffffffffffffffffffffffff168152602001908152602001600020549050919050565b610c696117d1565b73ffffffffffffffffffffffffffffffffffffffff16610c87610ce9565b73ffffffffffffffffffffffffffffffffffffffff1614610cdd576040517f08c379a0000000000000000000000000000000000000000000000000000000008152600401610cd4906139fd565b60405180910390fd5b610ce76000611bd6565b565b6000600b60009054906101000a900473ffffffffffffffffffffffffffffffffffffffff16905090565b610d1e838383611c9c565b505050565b606060018054610d32906136a6565b80601f0160208091040260200160405190810160405280929190818152602001828054610d5e906136a6565b8015610dab5780601f10610d8057610100808354040283529160200191610dab565b820191906000526020600020905b815481529060010190602001808311610d8e57829003601f168201915b5050505050905090565b600c60009054906101000a900473ffffffffffffffffffffffffffffffffffffffff1673ffffffffffffffffffffffffffffffffffffffff16630a82f53b6040518163ffffffff1660e01b8152600401602060405180830381865afa158015610e22573d6000803e3d6000fd5b505050506040513d601f19601f82011682018060405250810190610e469190613c83565b610e85576040517f08c379a0000000000000000000000000000000000000000000000000000000008152600401610e7c90613cfc565b60405180910390fd5b600c60009054906101000a900473ffffffffffffffffffffffffffffffffffffffff1673ffffffffffffffffffffffffffffffffffffffff1663f2b97ee26040518163ffffffff1660e01b8152600401602060405180830381865afa158015610ef2573d6000803e3d6000fd5b505050506040513d601f19601f82011682018060405250810190610f169190613d31565b610f1e610848565b10610f5e576040517f08c379a0000000000000000000000000000000000000000000000000000000008152600401610f5590613daa565b60405180910390fd5b610fff600c60009054906101000a900473ffffffffffffffffffffffffffffffffffffffff1673ffffffffffffffffffffffffffffffffffffffff166307604b1a6040518163ffffffff1660e01b8152600401602060405180830381865afa158015610fce573d6000803e3d6000fd5b505050506040513d601f19601f82011682018060405250810190610ff29190613ddf565b610ffa610848565b611e04565b61101061100a610848565b82611e22565b600c60009054906101000a900473ffffffffffffffffffffffffffffffffffffffff1673ffffffffffffffffffffffffffffffffffffffff1663347518a8611056610848565b6040518263ffffffff1660e01b81526004016110729190613003565b600060405180830381600087803b15801561108c57600080fd5b505af11580156110a0573d6000803e3d6000fd5b5050505050565b60006110b1610848565b90506110bd3382611e04565b6110c8818484611c9c565b505050565b6110df6110d86117d1565b8383611e8f565b5050565b6110f46110ee6117d1565b83611892565b611133576040517f08c379a000000000000000000000000000000000000000000000000000000000815260040161112a906138ff565b60405180910390fd5b61113f84848484611ffb565b50505050565b606061115082612057565b9050919050565b6000600560008473ffffffffffffffffffffffffffffffffffffffff1673ffffffffffffffffffffffffffffffffffffffff16815260200190815260200160002060008373ffffffffffffffffffffffffffffffffffffffff1673ffffffffffffffffffffffffffffffffffffffff16815260200190815260200160002060009054906101000a900460ff16905092915050565b6111f485610af9565b73ffffffffffffffffffffffffffffffffffffffff163373ffffffffffffffffffffffffffffffffffffffff1614611261576040517f08c379a000000000000000000000000000000000000000000000000000000000815260040161125890613e58565b60405180910390fd5b600c60009054906101000a900473ffffffffffffffffffffffffffffffffffffffff1673ffffffffffffffffffffffffffffffffffffffff1663911da0628685876040518463ffffffff1660e01b81526004016112c093929190613e87565b600060405180830381600087803b1580156112da57600080fd5b505af11580156112ee573d6000803e3d6000fd5b505050506112fd858383611c9c565b5050505050565b61130d84610af9565b73ffffffffffffffffffffffffffffffffffffffff163373ffffffffffffffffffffffffffffffffffffffff161461137a576040517f08c379a000000000000000000000000000000000000000000000000000000000815260040161137190613e58565b60405180910390fd5b600c60009054906101000a900473ffffffffffffffffffffffffffffffffffffffff1673ffffffffffffffffffffffffffffffffffffffff1663f2b97ee26040518163ffffffff1660e01b8152600401602060405180830381865afa1580156113e7573d6000803e3d6000fd5b505050506040513d601f19601f8201168201806040525081019061140b9190613d31565b611413610848565b1015611454576040517f08c379a000000000000000000000000000000000000000000000000000000000815260040161144b90613f0a565b60405180910390fd5b600c60009054906101000a900473ffffffffffffffffffffffffffffffffffffffff1673ffffffffffffffffffffffffffffffffffffffff166386d3d87185856040518363ffffffff1660e01b81526004016114b1929190613f2a565b600060405180830381600087803b1580156114cb57600080fd5b505af11580156114df573d6000803e3d6000fd5b505050506114ee848383611c9c565b50505050565b6114fc6117d1565b73ffffffffffffffffffffffffffffffffffffffff1661151a610ce9565b73ffffffffffffffffffffffffffffffffffffffff1614611570576040517f08c379a0000000000000000000000000000000000000000000000000000000008152600401611567906139fd565b60405180910390fd5b600073ffffffffffffffffffffffffffffffffffffffff168173ffffffffffffffffffffffffffffffffffffffff16036115df576040517f08c379a00000000000000000000000000000000000000000000000000000000081526004016115d690613fc5565b60405180910390fd5b6115e881611bd6565b50565b6115f36117d1565b73ffffffffffffffffffffffffffffffffffffffff16611611610ce9565b73ffffffffffffffffffffffffffffffffffffffff1614611667576040517f08c379a000000000000000000000000000000000000000000000000000000000815260040161165e906139fd565b60405180910390fd5b600c60009054906101000a900473ffffffffffffffffffffffffffffffffffffffff1673ffffffffffffffffffffffffffffffffffffffff1663a8a938006040518163ffffffff1660e01b8152600401600060405180830381600087803b1580156116d157600080fd5b505af11580156116e5573d6000803e3d6000fd5b50505050565b60007f780e9d63000000000000000000000000000000000000000000000000000000007bffffffffffffffffffffffffffffffffffffffffffffffffffffffff1916827bffffffffffffffffffffffffffffffffffffffffffffffffffffffff1916148061175e575061175d826121a8565b5b9050919050565b60008073ffffffffffffffffffffffffffffffffffffffff166002600084815260200190815260200160002060009054906101000a900473ffffffffffffffffffffffffffffffffffffffff1673ffffffffffffffffffffffffffffffffffffffff1614159050919050565b600033905090565b816004600083815260200190815260200160002060006101000a81548173ffffffffffffffffffffffffffffffffffffffff021916908373ffffffffffffffffffffffffffffffffffffffff160217905550808273ffffffffffffffffffffffffffffffffffffffff1661184c83610af9565b73ffffffffffffffffffffffffffffffffffffffff167f8c5be1e5ebec7d5bd14f71427d1e84f3dd0314c0f7b2291e5b200ac8c7c3b92560405160405180910390a45050565b600061189d82611765565b6118dc576040517f08c379a00000000000000000000000000000000000000000000000000000000081526004016118d390614057565b60405180910390fd5b60006118e783610af9565b90508073ffffffffffffffffffffffffffffffffffffffff168473ffffffffffffffffffffffffffffffffffffffff16148061192957506119288185611157565b5b8061196757508373ffffffffffffffffffffffffffffffffffffffff1661194f846106ac565b73ffffffffffffffffffffffffffffffffffffffff16145b91505092915050565b8273ffffffffffffffffffffffffffffffffffffffff1661199082610af9565b73ffffffffffffffffffffffffffffffffffffffff16146119e6576040517f08c379a00000000000000000000000000000000000000000000000000000000081526004016119dd906140e9565b60405180910390fd5b600073ffffffffffffffffffffffffffffffffffffffff168273ffffffffffffffffffffffffffffffffffffffff1603611a55576040517f08c379a0000000000000000000000000000000000000000000000000000000008152600401611a4c9061417b565b60405180910390fd5b611a6083838361228a565b611a6b6000826117d9565b6001600360008573ffffffffffffffffffffffffffffffffffffffff1673ffffffffffffffffffffffffffffffffffffffff1681526020019081526020016000206000828254611abb91906141ca565b925050819055506001600360008473ffffffffffffffffffffffffffffffffffffffff1673ffffffffffffffffffffffffffffffffffffffff1681526020019081526020016000206000828254611b1291906141fe565b92505081905550816002600083815260200190815260200160002060006101000a81548173ffffffffffffffffffffffffffffffffffffffff021916908373ffffffffffffffffffffffffffffffffffffffff160217905550808273ffffffffffffffffffffffffffffffffffffffff168473ffffffffffffffffffffffffffffffffffffffff167fddf252ad1be2c89b69c2b068fc378daa952ba7f163c4a11628f55a4df523b3ef60405160405180910390a4611bd183838361229a565b505050565b6000600b60009054906101000a900473ffffffffffffffffffffffffffffffffffffffff16905081600b60006101000a81548173ffffffffffffffffffffffffffffffffffffffff021916908373ffffffffffffffffffffffffffffffffffffffff1602179055508173ffffffffffffffffffffffffffffffffffffffff168173ffffffffffffffffffffffffffffffffffffffff167f8be0079c531659141344cd1fd0a4f28419497f9722a3daafe3b4186f6b6457e060405160405180910390a35050565b611cad611ca76117d1565b84611892565b611cec576040517f08c379a0000000000000000000000000000000000000000000000000000000008152600401611ce39061427e565b60405180910390fd5b600082604051602001611cff91906142da565b604051602081830303815290604052805190602001209050600c60009054906101000a900473ffffffffffffffffffffffffffffffffffffffff1673ffffffffffffffffffffffffffffffffffffffff16637fcacc0e82846040518363ffffffff1660e01b8152600401611d74929190614346565b602060405180830381865afa158015611d91573d6000803e3d6000fd5b505050506040513d601f19601f82011682018060405250810190611db59190613c83565b611df4576040517f08c379a0000000000000000000000000000000000000000000000000000000008152600401611deb906143c2565b60405180910390fd5b611dfe8484611e22565b50505050565b611e1e82826040518060200160405280600081525061229f565b5050565b611e2b82611765565b611e6a576040517f08c379a0000000000000000000000000000000000000000000000000000000008152600401611e6190614454565b60405180910390fd5b80600a60008481526020019081526020016000209081611e8a9190614620565b505050565b8173ffffffffffffffffffffffffffffffffffffffff168373ffffffffffffffffffffffffffffffffffffffff1603611efd576040517f08c379a0000000000000000000000000000000000000000000000000000000008152600401611ef49061473e565b60405180910390fd5b80600560008573ffffffffffffffffffffffffffffffffffffffff1673ffffffffffffffffffffffffffffffffffffffff16815260200190815260200160002060008473ffffffffffffffffffffffffffffffffffffffff1673ffffffffffffffffffffffffffffffffffffffff16815260200190815260200160002060006101000a81548160ff0219169083151502179055508173ffffffffffffffffffffffffffffffffffffffff168373ffffffffffffffffffffffffffffffffffffffff167f17307eab39ab6107e8899845ad3d59bd9653f200f220920489ca2b5937696c3183604051611fee9190612dfc565b60405180910390a3505050565b612006848484611970565b612012848484846122fa565b612051576040517f08c379a0000000000000000000000000000000000000000000000000000000008152600401612048906147d0565b60405180910390fd5b50505050565b606061206282611765565b6120a1576040517f08c379a000000000000000000000000000000000000000000000000000000000815260040161209890614862565b60405180910390fd5b6000600a600084815260200190815260200160002080546120c1906136a6565b80601f01602080910402602001604051908101604052809291908181526020018280546120ed906136a6565b801561213a5780601f1061210f5761010080835404028352916020019161213a565b820191906000526020600020905b81548152906001019060200180831161211d57829003601f168201915b50505050509050600061214b612481565b905060008151036121605781925050506121a3565b60008251111561219557808260405160200161217d929190614882565b604051602081830303815290604052925050506121a3565b61219e846124be565b925050505b919050565b60007f80ac58cd000000000000000000000000000000000000000000000000000000007bffffffffffffffffffffffffffffffffffffffffffffffffffffffff1916827bffffffffffffffffffffffffffffffffffffffffffffffffffffffff1916148061227357507f5b5e139f000000000000000000000000000000000000000000000000000000007bffffffffffffffffffffffffffffffffffffffffffffffffffffffff1916827bffffffffffffffffffffffffffffffffffffffffffffffffffffffff1916145b80612283575061228282612565565b5b9050919050565b6122958383836125cf565b505050565b505050565b6122a983836126e1565b6122b660008484846122fa565b6122f5576040517f08c379a00000000000000000000000000000000000000000000000000000000081526004016122ec906147d0565b60405180910390fd5b505050565b600061231b8473ffffffffffffffffffffffffffffffffffffffff166128ba565b15612474578373ffffffffffffffffffffffffffffffffffffffff1663150b7a026123446117d1565b8786866040518563ffffffff1660e01b815260040161236694939291906148a6565b6020604051808303816000875af19250505080156123a257506040513d601f19601f8201168201806040525081019061239f9190614907565b60015b612424573d80600081146123d2576040519150601f19603f3d011682016040523d82523d6000602084013e6123d7565b606091505b50600081510361241c576040517f08c379a0000000000000000000000000000000000000000000000000000000008152600401612413906147d0565b60405180910390fd5b805181602001fd5b63150b7a0260e01b7bffffffffffffffffffffffffffffffffffffffffffffffffffffffff1916817bffffffffffffffffffffffffffffffffffffffffffffffffffffffff191614915050612479565b600190505b949350505050565b60606040518060400160405280601581526020017f68747470733a2f2f697066732e696f2f697066732f0000000000000000000000815250905090565b60606124c982611765565b612508576040517f08c379a00000000000000000000000000000000000000000000000000000000081526004016124ff906149a6565b60405180910390fd5b6000612512612481565b90506000815111612532576040518060200160405280600081525061255d565b8061253c846128dd565b60405160200161254d929190614882565b6040516020818303038152906040525b915050919050565b60007f01ffc9a7000000000000000000000000000000000000000000000000000000007bffffffffffffffffffffffffffffffffffffffffffffffffffffffff1916827bffffffffffffffffffffffffffffffffffffffffffffffffffffffff1916149050919050565b6125da838383612a3d565b600073ffffffffffffffffffffffffffffffffffffffff168373ffffffffffffffffffffffffffffffffffffffff160361261c5761261781612a42565b61265b565b8173ffffffffffffffffffffffffffffffffffffffff168373ffffffffffffffffffffffffffffffffffffffff161461265a576126598382612a8b565b5b5b600073ffffffffffffffffffffffffffffffffffffffff168273ffffffffffffffffffffffffffffffffffffffff160361269d5761269881612bf8565b6126dc565b8273ffffffffffffffffffffffffffffffffffffffff168273ffffffffffffffffffffffffffffffffffffffff16146126db576126da8282612cc9565b5b5b505050565b600073ffffffffffffffffffffffffffffffffffffffff168273ffffffffffffffffffffffffffffffffffffffff1603612750576040517f08c379a000000000000000000000000000000000000000000000000000000000815260040161274790614a12565b60405180910390fd5b61275981611765565b15612799576040517f08c379a000000000000000000000000000000000000000000000000000000000815260040161279090614a7e565b60405180910390fd5b6127a56000838361228a565b6001600360008473ffffffffffffffffffffffffffffffffffffffff1673ffffffffffffffffffffffffffffffffffffffff16815260200190815260200160002060008282546127f591906141fe565b92505081905550816002600083815260200190815260200160002060006101000a81548173ffffffffffffffffffffffffffffffffffffffff021916908373ffffffffffffffffffffffffffffffffffffffff160217905550808273ffffffffffffffffffffffffffffffffffffffff16600073ffffffffffffffffffffffffffffffffffffffff167fddf252ad1be2c89b69c2b068fc378daa952ba7f163c4a11628f55a4df523b3ef60405160405180910390a46128b66000838361229a565b5050565b6000808273ffffffffffffffffffffffffffffffffffffffff163b119050919050565b606060008203612924576040518060400160405280600181526020017f30000000000000000000000000000000000000000000000000000000000000008152509050612a38565b600082905060005b6000821461295657808061293f90614a9e565b915050600a8261294f9190614b15565b915061292c565b60008167ffffffffffffffff811115612972576129716130a8565b5b6040519080825280601f01601f1916602001820160405280156129a45781602001600182028036833780820191505090505b5090505b60008514612a31576001826129bd91906141ca565b9150600a856129cc9190614b46565b60306129d891906141fe565b60f81b8183815181106129ee576129ed613b1b565b5b60200101907effffffffffffffffffffffffffffffffffffffffffffffffffffffffffffff1916908160001a905350600a85612a2a9190614b15565b94506129a8565b8093505050505b919050565b505050565b6008805490506009600083815260200190815260200160002081905550600881908060018154018082558091505060019003906000526020600020016000909190919091505550565b60006001612a9884610baa565b612aa291906141ca565b9050600060076000848152602001908152602001600020549050818114612b87576000600660008673ffffffffffffffffffffffffffffffffffffffff1673ffffffffffffffffffffffffffffffffffffffff168152602001908152602001600020600084815260200190815260200160002054905080600660008773ffffffffffffffffffffffffffffffffffffffff1673ffffffffffffffffffffffffffffffffffffffff168152602001908152602001600020600084815260200190815260200160002081905550816007600083815260200190815260200160002081905550505b6007600084815260200190815260200160002060009055600660008573ffffffffffffffffffffffffffffffffffffffff1673ffffffffffffffffffffffffffffffffffffffff16815260200190815260200160002060008381526020019081526020016000206000905550505050565b60006001600880549050612c0c91906141ca565b9050600060096000848152602001908152602001600020549050600060088381548110612c3c57612c3b613b1b565b5b906000526020600020015490508060088381548110612c5e57612c5d613b1b565b5b906000526020600020018190555081600960008381526020019081526020016000208190555060096000858152602001908152602001600020600090556008805480612cad57612cac614b77565b5b6001900381819060005260206000200160009055905550505050565b6000612cd483610baa565b905081600660008573ffffffffffffffffffffffffffffffffffffffff1673ffffffffffffffffffffffffffffffffffffffff168152602001908152602001600020600083815260200190815260200160002081905550806007600084815260200190815260200160002081905550505050565b6000604051905090565b600080fd5b600080fd5b60007fffffffff0000000000000000000000000000000000000000000000000000000082169050919050565b612d9181612d5c565b8114612d9c57600080fd5b50565b600081359050612dae81612d88565b92915050565b600060208284031215612dca57612dc9612d52565b5b6000612dd884828501612d9f565b91505092915050565b60008115159050919050565b612df681612de1565b82525050565b6000602082019050612e116000830184612ded565b92915050565b600081519050919050565b600082825260208201905092915050565b60005b83811015612e51578082015181840152602081019050612e36565b60008484015250505050565b6000601f19601f8301169050919050565b6000612e7982612e17565b612e838185612e22565b9350612e93818560208601612e33565b612e9c81612e5d565b840191505092915050565b60006020820190508181036000830152612ec18184612e6e565b905092915050565b6000819050919050565b612edc81612ec9565b8114612ee757600080fd5b50565b600081359050612ef981612ed3565b92915050565b600060208284031215612f1557612f14612d52565b5b6000612f2384828501612eea565b91505092915050565b600073ffffffffffffffffffffffffffffffffffffffff82169050919050565b6000612f5782612f2c565b9050919050565b612f6781612f4c565b82525050565b6000602082019050612f826000830184612f5e565b92915050565b612f9181612f4c565b8114612f9c57600080fd5b50565b600081359050612fae81612f88565b92915050565b60008060408385031215612fcb57612fca612d52565b5b6000612fd985828601612f9f565b9250506020612fea85828601612eea565b9150509250929050565b612ffd81612ec9565b82525050565b60006020820190506130186000830184612ff4565b92915050565b60008060006060848603121561303757613036612d52565b5b600061304586828701612f9f565b935050602061305686828701612f9f565b925050604061306786828701612eea565b9150509250925092565b60006020828403121561308757613086612d52565b5b600061309584828501612f9f565b91505092915050565b600080fd5b600080fd5b7f4e487b7100000000000000000000000000000000000000000000000000000000600052604160045260246000fd5b6130e082612e5d565b810181811067ffffffffffffffff821117156130ff576130fe6130a8565b5b80604052505050565b6000613112612d48565b905061311e82826130d7565b919050565b600067ffffffffffffffff82111561313e5761313d6130a8565b5b61314782612e5d565b9050602081019050919050565b82818337600083830152505050565b600061317661317184613123565b613108565b905082815260208101848484011115613192576131916130a3565b5b61319d848285613154565b509392505050565b600082601f8301126131ba576131b961309e565b5b81356131ca848260208601613163565b91505092915050565b600067ffffffffffffffff8211156131ee576131ed6130a8565b5b6131f782612e5d565b9050602081019050919050565b6000613217613212846131d3565b613108565b905082815260208101848484011115613233576132326130a3565b5b61323e848285613154565b509392505050565b600082601f83011261325b5761325a61309e565b5b813561326b848260208601613204565b91505092915050565b60008060006060848603121561328d5761328c612d52565b5b600061329b86828701612eea565b935050602084013567ffffffffffffffff8111156132bc576132bb612d57565b5b6132c8868287016131a5565b925050604084013567ffffffffffffffff8111156132e9576132e8612d57565b5b6132f586828701613246565b9150509250925092565b60006020828403121561331557613314612d52565b5b600082013567ffffffffffffffff81111561333357613332612d57565b5b61333f848285016131a5565b91505092915050565b6000806040838503121561335f5761335e612d52565b5b600083013567ffffffffffffffff81111561337d5761337c612d57565b5b613389858286016131a5565b925050602083013567ffffffffffffffff8111156133aa576133a9612d57565b5b6133b685828601613246565b9150509250929050565b6133c981612de1565b81146133d457600080fd5b50565b6000813590506133e6816133c0565b92915050565b6000806040838503121561340357613402612d52565b5b600061341185828601612f9f565b9250506020613422858286016133d7565b9150509250929050565b6000806000806080858703121561344657613445612d52565b5b600061345487828801612f9f565b945050602061346587828801612f9f565b935050604061347687828801612eea565b925050606085013567ffffffffffffffff81111561349757613496612d57565b5b6134a387828801613246565b91505092959194509250565b600080604083850312156134c6576134c5612d52565b5b60006134d485828601612f9f565b92505060206134e585828601612f9f565b9150509250929050565b6000819050919050565b613502816134ef565b811461350d57600080fd5b50565b60008135905061351f816134f9565b92915050565b600080600080600060a0868803121561354157613540612d52565b5b600061354f88828901612eea565b955050602061356088828901613510565b945050604061357188828901612eea565b935050606086013567ffffffffffffffff81111561359257613591612d57565b5b61359e888289016131a5565b925050608086013567ffffffffffffffff8111156135bf576135be612d57565b5b6135cb88828901613246565b9150509295509295909350565b600080600080608085870312156135f2576135f1612d52565b5b600061360087828801612eea565b945050602061361187828801613510565b935050604085013567ffffffffffffffff81111561363257613631612d57565b5b61363e878288016131a5565b925050606085013567ffffffffffffffff81111561365f5761365e612d57565b5b61366b87828801613246565b91505092959194509250565b7f4e487b7100000000000000000000000000000000000000000000000000000000600052602260045260246000fd5b600060028204905060018216806136be57607f821691505b6020821081036136d1576136d0613677565b5b50919050565b7f4552433732313a20617070726f76656420717565727920666f72206e6f6e657860008201527f697374656e7420746f6b656e0000000000000000000000000000000000000000602082015250565b6000613733602c83612e22565b915061373e826136d7565b604082019050919050565b6000602082019050818103600083015261376281613726565b9050919050565b7f4552433732313a20617070726f76616c20746f2063757272656e74206f776e6560008201527f7200000000000000000000000000000000000000000000000000000000000000602082015250565b60006137c5602183612e22565b91506137d082613769565b604082019050919050565b600060208201905081810360008301526137f4816137b8565b9050919050565b7f4552433732313a20617070726f76652063616c6c6572206973206e6f74206f7760008201527f6e6572206e6f7220617070726f76656420666f7220616c6c0000000000000000602082015250565b6000613857603883612e22565b9150613862826137fb565b604082019050919050565b600060208201905081810360008301526138868161384a565b9050919050565b7f4552433732313a207472616e736665722063616c6c6572206973206e6f74206f60008201527f776e6572206e6f7220617070726f766564000000000000000000000000000000602082015250565b60006138e9603183612e22565b91506138f48261388d565b604082019050919050565b60006020820190508181036000830152613918816138dc565b9050919050565b7f455243373231456e756d657261626c653a206f776e657220696e646578206f7560008201527f74206f6620626f756e6473000000000000000000000000000000000000000000602082015250565b600061397b602b83612e22565b91506139868261391f565b604082019050919050565b600060208201905081810360008301526139aa8161396e565b9050919050565b7f4f776e61626c653a2063616c6c6572206973206e6f7420746865206f776e6572600082015250565b60006139e7602083612e22565b91506139f2826139b1565b602082019050919050565b60006020820190508181036000830152613a16816139da565b9050919050565b7f4e6f2062616c616e636520746f20776974686472617700000000000000000000600082015250565b6000613a53601683612e22565b9150613a5e82613a1d565b602082019050919050565b60006020820190508181036000830152613a8281613a46565b9050919050565b7f455243373231456e756d657261626c653a20676c6f62616c20696e646578206f60008201527f7574206f6620626f756e64730000000000000000000000000000000000000000602082015250565b6000613ae5602c83612e22565b9150613af082613a89565b604082019050919050565b60006020820190508181036000830152613b1481613ad8565b9050919050565b7f4e487b7100000000000000000000000000000000000000000000000000000000600052603260045260246000fd5b7f4552433732313a206f776e657220717565727920666f72206e6f6e657869737460008201527f656e7420746f6b656e0000000000000000000000000000000000000000000000602082015250565b6000613ba6602983612e22565b9150613bb182613b4a565b604082019050919050565b60006020820190508181036000830152613bd581613b99565b9050919050565b7f4552433732313a2062616c616e636520717565727920666f7220746865207a6560008201527f726f206164647265737300000000000000000000000000000000000000000000602082015250565b6000613c38602a83612e22565b9150613c4382613bdc565b604082019050919050565b60006020820190508181036000830152613c6781613c2b565b9050919050565b600081519050613c7d816133c0565b92915050565b600060208284031215613c9957613c98612d52565b5b6000613ca784828501613c6e565b91505092915050565b7f53616c65206d7573742062652061637469766500000000000000000000000000600082015250565b6000613ce6601383612e22565b9150613cf182613cb0565b602082019050919050565b60006020820190508181036000830152613d1581613cd9565b9050919050565b600081519050613d2b81612ed3565b92915050565b600060208284031215613d4757613d46612d52565b5b6000613d5584828501613d1c565b91505092915050565b7f45786365656420696e697469616c20737570706c79206f66206e757473000000600082015250565b6000613d94601d83612e22565b9150613d9f82613d5e565b602082019050919050565b60006020820190508181036000830152613dc381613d87565b9050919050565b600081519050613dd981612f88565b92915050565b600060208284031215613df557613df4612d52565b5b6000613e0384828501613dca565b91505092915050565b7f43616c6c6572206973206e6f74206f776e6572206f66206e7574000000000000600082015250565b6000613e42601a83612e22565b9150613e4d82613e0c565b602082019050919050565b60006020820190508181036000830152613e7181613e35565b9050919050565b613e81816134ef565b82525050565b6000606082019050613e9c6000830186612ff4565b613ea96020830185612ff4565b613eb66040830184613e78565b949350505050565b7f4e757473207374696c6c2065786973742066726f6d206372656174696f6e0000600082015250565b6000613ef4601e83612e22565b9150613eff82613ebe565b602082019050919050565b60006020820190508181036000830152613f2381613ee7565b9050919050565b6000604082019050613f3f6000830185612ff4565b613f4c6020830184613e78565b9392505050565b7f4f776e61626c653a206e6577206f776e657220697320746865207a65726f206160008201527f6464726573730000000000000000000000000000000000000000000000000000602082015250565b6000613faf602683612e22565b9150613fba82613f53565b604082019050919050565b60006020820190508181036000830152613fde81613fa2565b9050919050565b7f4552433732313a206f70657261746f7220717565727920666f72206e6f6e657860008201527f697374656e7420746f6b656e0000000000000000000000000000000000000000602082015250565b6000614041602c83612e22565b915061404c82613fe5565b604082019050919050565b6000602082019050818103600083015261407081614034565b9050919050565b7f4552433732313a207472616e736665722066726f6d20696e636f72726563742060008201527f6f776e6572000000000000000000000000000000000000000000000000000000602082015250565b60006140d3602583612e22565b91506140de82614077565b604082019050919050565b60006020820190508181036000830152614102816140c6565b9050919050565b7f4552433732313a207472616e7366657220746f20746865207a65726f2061646460008201527f7265737300000000000000000000000000000000000000000000000000000000602082015250565b6000614165602483612e22565b915061417082614109565b604082019050919050565b6000602082019050818103600083015261419481614158565b9050919050565b7f4e487b7100000000000000000000000000000000000000000000000000000000600052601160045260246000fd5b60006141d582612ec9565b91506141e083612ec9565b92508282039050818111156141f8576141f761419b565b5b92915050565b600061420982612ec9565b915061421483612ec9565b925082820190508082111561422c5761422b61419b565b5b92915050565b7f43616c6c6572206973206e6f74206f776e6572206e6f7220617070726f766564600082015250565b6000614268602083612e22565b915061427382614232565b602082019050919050565b600060208201905081810360008301526142978161425b565b9050919050565b600081905092915050565b60006142b482612e17565b6142be818561429e565b93506142ce818560208601612e33565b80840191505092915050565b60006142e682846142a9565b915081905092915050565b600081519050919050565b600082825260208201905092915050565b6000614318826142f1565b61432281856142fc565b9350614332818560208601612e33565b61433b81612e5d565b840191505092915050565b600060408201905061435b6000830185613e78565b818103602083015261436d818461430d565b90509392505050565b7f4461746120646f6573206e6f74206d61746368207369676e6174757265000000600082015250565b60006143ac601d83612e22565b91506143b782614376565b602082019050919050565b600060208201905081810360008301526143db8161439f565b9050919050565b7f45524337323155524953746f726167653a2055524920736574206f66206e6f6e60008201527f6578697374656e7420746f6b656e000000000000000000000000000000000000602082015250565b600061443e602e83612e22565b9150614449826143e2565b604082019050919050565b6000602082019050818103600083015261446d81614431565b9050919050565b60008190508160005260206000209050919050565b60006020601f8301049050919050565b600082821b905092915050565b6000600883026144d67fffffffffffffffffffffffffffffffffffffffffffffffffffffffffffffffff82614499565b6144e08683614499565b95508019841693508086168417925050509392505050565b6000819050919050565b600061451d61451861451384612ec9565b6144f8565b612ec9565b9050919050565b6000819050919050565b61453783614502565b61454b61454382614524565b8484546144a6565b825550505050565b600090565b614560614553565b61456b81848461452e565b505050565b5b8181101561458f57614584600082614558565b600181019050614571565b5050565b601f8211156145d4576145a581614474565b6145ae84614489565b810160208510156145bd578190505b6145d16145c985614489565b830182614570565b50505b505050565b600082821c905092915050565b60006145f7600019846008026145d9565b1980831691505092915050565b600061461083836145e6565b9150826002028217905092915050565b61462982612e17565b67ffffffffffffffff811115614642576146416130a8565b5b61464c82546136a6565b614657828285614593565b600060209050601f83116001811461468a5760008415614678578287015190505b6146828582614604565b8655506146ea565b601f19841661469886614474565b60005b828110156146c05784890151825560018201915060208501945060208101905061469b565b868310156146dd57848901516146d9601f8916826145e6565b8355505b6001600288020188555050505b505050505050565b7f4552433732313a20617070726f766520746f2063616c6c657200000000000000600082015250565b6000614728601983612e22565b9150614733826146f2565b602082019050919050565b600060208201905081810360008301526147578161471b565b9050919050565b7f4552433732313a207472616e7366657220746f206e6f6e20455243373231526560008201527f63656976657220696d706c656d656e7465720000000000000000000000000000602082015250565b60006147ba603283612e22565b91506147c58261475e565b604082019050919050565b600060208201905081810360008301526147e9816147ad565b9050919050565b7f45524337323155524953746f726167653a2055524920717565727920666f722060008201527f6e6f6e6578697374656e7420746f6b656e000000000000000000000000000000602082015250565b600061484c603183612e22565b9150614857826147f0565b604082019050919050565b6000602082019050818103600083015261487b8161483f565b9050919050565b600061488e82856142a9565b915061489a82846142a9565b91508190509392505050565b60006080820190506148bb6000830187612f5e565b6148c86020830186612f5e565b6148d56040830185612ff4565b81810360608301526148e7818461430d565b905095945050505050565b60008151905061490181612d88565b92915050565b60006020828403121561491d5761491c612d52565b5b600061492b848285016148f2565b91505092915050565b7f4552433732314d657461646174613a2055524920717565727920666f72206e6f60008201527f6e6578697374656e7420746f6b656e0000000000000000000000000000000000602082015250565b6000614990602f83612e22565b915061499b82614934565b604082019050919050565b600060208201905081810360008301526149bf81614983565b9050919050565b7f4552433732313a206d696e7420746f20746865207a65726f2061646472657373600082015250565b60006149fc602083612e22565b9150614a07826149c6565b602082019050919050565b60006020820190508181036000830152614a2b816149ef565b9050919050565b7f4552433732313a20746f6b656e20616c7265616479206d696e74656400000000600082015250565b6000614a68601c83612e22565b9150614a7382614a32565b602082019050919050565b60006020820190508181036000830152614a9781614a5b565b9050919050565b6000614aa982612ec9565b91507fffffffffffffffffffffffffffffffffffffffffffffffffffffffffffffffff8203614adb57614ada61419b565b5b600182019050919050565b7f4e487b7100000000000000000000000000000000000000000000000000000000600052601260045260246000fd5b6000614b2082612ec9565b9150614b2b83612ec9565b925082614b3b57614b3a614ae6565b5b828204905092915050565b6000614b5182612ec9565b9150614b5c83612ec9565b925082614b6c57614b6b614ae6565b5b828206905092915050565b7f4e487b7100000000000000000000000000000000000000000000000000000000600052603160045260246000fdfea26469706673582212204dc64d7216b70a4a08a4dfcb09ca7643176db62f8f61f589f9d79d6fdba8d68a64736f6c63430008110033",
  "immutableReferences": {},
  "source": "// SPDX-License-Identifier: MIT\npragma solidity ^0.8.7;\n\nimport \"./CosmoNuts.sol\";\nimport \"./CosmoVault.sol\";\n\ncontract CosmoBang {\n\n    address public COSMO_ADDRESS;\n\n    CosmoVault vault;\n    CosmoNuts cosmo;\n\n    constructor(\n        string memory _name,\n        string memory _symbol,\n        uint256 _supply,\n        address _systemAddress,\n        address _vaultAddress\n    )\n    {\n        //vault = new CosmoVault(_systemAddress, _matterAddress);\n        vault = CosmoVault(_vaultAddress);\n        cosmo = new CosmoNuts(_name, _symbol, _supply, _systemAddress, _vaultAddress);\n        COSMO_ADDRESS = address(cosmo);\n    }\n\n    /*\n    function nutBang(\n        string memory _cosmosName,\n        string memory _cosmosSymbol,\n        uint256 _nutPrice,\n        uint256 _nutRate,\n        uint256 _desiredEntities\n    ) external returns (address[] memory cosmoAddresses) {\n        vault.entityCreation(_nutPrice, _nutRate, _desiredEntities);\n        CosmoNuts cosmonuts = new CosmoNuts(\n            _cosmosName,\n            _cosmosSymbol,\n            _desiredEntities,\n            vault.SYSTEM_ADDRESS(),\n            vault.TREASURY_ADDRESS()\n        );\n        cosmoAddresses[0] = address(vault);\n        cosmoAddresses[1] = address(cosmonuts);\n        return cosmoAddresses;\n    }\n    */\n\n}\n",
  "sourcePath": "/home/redlentils/Seafile/Websites/avatarnft/contracts/CosmoBang.sol",
  "compiler": {
    "name": "solc",
    "version": "0.8.17+commit.8df45f5f.Emscripten.clang"
  },
  "schemaVersion": "3.4.10",
  "updatedAt": "2022-10-08T19:49:47.977Z",
  "devdoc": {
    "kind": "dev",
    "methods": {},
    "version": 1
  },
  "userdoc": {
    "kind": "user",
    "methods": {},
    "version": 1
  }
}