{
  "contractName": "CosmoTreasury",
  "abi": [
    {
      "inputs": [],
      "name": "addressOf",
      "outputs": [
        {
          "internalType": "address",
          "name": "system",
          "type": "address"
        },
        {
          "internalType": "address",
          "name": "matter",
          "type": "address"
        },
        {
          "internalType": "address",
          "name": "treasury",
          "type": "address"
        },
        {
          "internalType": "address",
          "name": "cosmos",
          "type": "address"
        },
        {
          "internalType": "address",
          "name": "seedImplementation",
          "type": "address"
        },
        {
          "internalType": "address",
          "name": "butterImplementation",
          "type": "address"
        }
      ],
      "stateMutability": "view",
      "type": "function"
    },
    {
      "inputs": [
        {
          "internalType": "uint256",
          "name": "",
          "type": "uint256"
        }
      ],
      "name": "butterChurnedByNut",
      "outputs": [
        {
          "internalType": "uint256",
          "name": "",
          "type": "uint256"
        }
      ],
      "stateMutability": "view",
      "type": "function"
    },
    {
      "inputs": [],
      "name": "butterDeficiencyInUniverse",
      "outputs": [
        {
          "internalType": "uint256",
          "name": "",
          "type": "uint256"
        }
      ],
      "stateMutability": "view",
      "type": "function"
    },
    {
      "inputs": [
        {
          "internalType": "uint256",
          "name": "",
          "type": "uint256"
        }
      ],
      "name": "butterDeficiencyOfNut",
      "outputs": [
        {
          "internalType": "uint256",
          "name": "",
          "type": "uint256"
        }
      ],
      "stateMutability": "view",
      "type": "function"
    },
    {
      "inputs": [],
      "name": "butterJars",
      "outputs": [
        {
          "internalType": "uint256",
          "name": "",
          "type": "uint256"
        }
      ],
      "stateMutability": "view",
      "type": "function"
    },
    {
      "inputs": [
        {
          "internalType": "uint256",
          "name": "",
          "type": "uint256"
        }
      ],
      "name": "butterLocations",
      "outputs": [
        {
          "internalType": "address",
          "name": "",
          "type": "address"
        }
      ],
      "stateMutability": "view",
      "type": "function"
    },
    {
      "inputs": [],
      "name": "butterSpread",
      "outputs": [
        {
          "internalType": "uint256",
          "name": "",
          "type": "uint256"
        }
      ],
      "stateMutability": "view",
      "type": "function"
    },
    {
      "inputs": [],
      "name": "butterWeight",
      "outputs": [
        {
          "internalType": "uint256",
          "name": "",
          "type": "uint256"
        }
      ],
      "stateMutability": "view",
      "type": "function"
    },
    {
      "inputs": [
        {
          "internalType": "uint256",
          "name": "",
          "type": "uint256"
        },
        {
          "internalType": "uint256",
          "name": "",
          "type": "uint256"
        }
      ],
      "name": "buttersOfNut",
      "outputs": [
        {
          "internalType": "uint256",
          "name": "",
          "type": "uint256"
        }
      ],
      "stateMutability": "view",
      "type": "function"
    },
    {
      "inputs": [
        {
          "internalType": "uint256",
          "name": "",
          "type": "uint256"
        }
      ],
      "name": "currentOwnerOfNut",
      "outputs": [
        {
          "internalType": "address",
          "name": "",
          "type": "address"
        }
      ],
      "stateMutability": "view",
      "type": "function"
    },
    {
      "inputs": [
        {
          "internalType": "uint256",
          "name": "",
          "type": "uint256"
        }
      ],
      "name": "isButterActive",
      "outputs": [
        {
          "internalType": "bool",
          "name": "",
          "type": "bool"
        }
      ],
      "stateMutability": "view",
      "type": "function"
    },
    {
      "inputs": [
        {
          "internalType": "uint256",
          "name": "",
          "type": "uint256"
        }
      ],
      "name": "isSeedActive",
      "outputs": [
        {
          "internalType": "bool",
          "name": "",
          "type": "bool"
        }
      ],
      "stateMutability": "view",
      "type": "function"
    },
    {
      "inputs": [
        {
          "internalType": "uint256",
          "name": "",
          "type": "uint256"
        },
        {
          "internalType": "uint256",
          "name": "",
          "type": "uint256"
        }
      ],
      "name": "isSeedOfNut",
      "outputs": [
        {
          "internalType": "bool",
          "name": "",
          "type": "bool"
        }
      ],
      "stateMutability": "view",
      "type": "function"
    },
    {
      "inputs": [
        {
          "internalType": "uint256",
          "name": "",
          "type": "uint256"
        }
      ],
      "name": "matterBalanceOfNut",
      "outputs": [
        {
          "internalType": "uint256",
          "name": "",
          "type": "uint256"
        }
      ],
      "stateMutability": "view",
      "type": "function"
    },
    {
      "inputs": [
        {
          "internalType": "uint256",
          "name": "",
          "type": "uint256"
        }
      ],
      "name": "matterMintedByNut",
      "outputs": [
        {
          "internalType": "uint256",
          "name": "",
          "type": "uint256"
        }
      ],
      "stateMutability": "view",
      "type": "function"
    },
    {
      "inputs": [
        {
          "internalType": "uint256",
          "name": "_nutId",
          "type": "uint256"
        }
      ],
      "name": "numOfSeedsGrownOf",
      "outputs": [
        {
          "internalType": "uint256",
          "name": "",
          "type": "uint256"
        }
      ],
      "stateMutability": "view",
      "type": "function"
    },
    {
      "inputs": [
        {
          "internalType": "uint256",
          "name": "_nutId",
          "type": "uint256"
        }
      ],
      "name": "numOfSeedsOf",
      "outputs": [
        {
          "internalType": "uint256",
          "name": "",
          "type": "uint256"
        }
      ],
      "stateMutability": "view",
      "type": "function"
    },
    {
      "inputs": [
        {
          "internalType": "uint256",
          "name": "_nutId",
          "type": "uint256"
        }
      ],
      "name": "numberOfButterJars",
      "outputs": [
        {
          "internalType": "uint256",
          "name": "",
          "type": "uint256"
        }
      ],
      "stateMutability": "view",
      "type": "function"
    },
    {
      "inputs": [],
      "name": "nut",
      "outputs": [
        {
          "internalType": "uint256",
          "name": "price",
          "type": "uint256"
        },
        {
          "internalType": "uint256",
          "name": "rate",
          "type": "uint256"
        }
      ],
      "stateMutability": "view",
      "type": "function"
    },
    {
      "inputs": [
        {
          "internalType": "uint256",
          "name": "",
          "type": "uint256"
        }
      ],
      "name": "nutOfButter",
      "outputs": [
        {
          "internalType": "uint256",
          "name": "",
          "type": "uint256"
        }
      ],
      "stateMutability": "view",
      "type": "function"
    },
    {
      "inputs": [
        {
          "internalType": "uint256",
          "name": "",
          "type": "uint256"
        }
      ],
      "name": "nutOfSeed",
      "outputs": [
        {
          "internalType": "uint256",
          "name": "",
          "type": "uint256"
        }
      ],
      "stateMutability": "view",
      "type": "function"
    },
    {
      "inputs": [
        {
          "internalType": "uint256",
          "name": "",
          "type": "uint256"
        }
      ],
      "name": "nutsPayeeList",
      "outputs": [
        {
          "internalType": "uint256",
          "name": "",
          "type": "uint256"
        }
      ],
      "stateMutability": "view",
      "type": "function"
    },
    {
      "inputs": [
        {
          "internalType": "uint256",
          "name": "",
          "type": "uint256"
        }
      ],
      "name": "seedLocations",
      "outputs": [
        {
          "internalType": "address",
          "name": "",
          "type": "address"
        }
      ],
      "stateMutability": "view",
      "type": "function"
    },
    {
      "inputs": [],
      "name": "seedsCreated",
      "outputs": [
        {
          "internalType": "uint256",
          "name": "",
          "type": "uint256"
        }
      ],
      "stateMutability": "view",
      "type": "function"
    },
    {
      "inputs": [
        {
          "internalType": "uint256",
          "name": "",
          "type": "uint256"
        },
        {
          "internalType": "uint256",
          "name": "",
          "type": "uint256"
        }
      ],
      "name": "seedsGrownOfNut",
      "outputs": [
        {
          "internalType": "uint256",
          "name": "",
          "type": "uint256"
        }
      ],
      "stateMutability": "view",
      "type": "function"
    },
    {
      "inputs": [
        {
          "internalType": "uint256",
          "name": "",
          "type": "uint256"
        },
        {
          "internalType": "uint256",
          "name": "",
          "type": "uint256"
        }
      ],
      "name": "seedsOfNut",
      "outputs": [
        {
          "internalType": "uint256",
          "name": "",
          "type": "uint256"
        }
      ],
      "stateMutability": "view",
      "type": "function"
    },
    {
      "inputs": [
        {
          "internalType": "address",
          "name": "_systemAddress",
          "type": "address"
        },
        {
          "internalType": "address",
          "name": "_matterAddress",
          "type": "address"
        }
      ],
      "name": "initialize",
      "outputs": [],
      "stateMutability": "nonpayable",
      "type": "function"
    },
    {
      "inputs": [],
      "name": "getVaultLocation",
      "outputs": [
        {
          "internalType": "address",
          "name": "",
          "type": "address"
        }
      ],
      "stateMutability": "nonpayable",
      "type": "function"
    },
    {
      "inputs": [],
      "name": "getPrice",
      "outputs": [
        {
          "internalType": "uint256",
          "name": "",
          "type": "uint256"
        }
      ],
      "stateMutability": "view",
      "type": "function"
    },
    {
      "inputs": [
        {
          "internalType": "uint256",
          "name": "_nutId",
          "type": "uint256"
        }
      ],
      "name": "matterNeeded",
      "outputs": [
        {
          "internalType": "uint256",
          "name": "",
          "type": "uint256"
        }
      ],
      "stateMutability": "view",
      "type": "function"
    },
    {
      "inputs": [
        {
          "internalType": "uint256",
          "name": "_nutId",
          "type": "uint256"
        },
        {
          "internalType": "bytes32",
          "name": "_secretHash",
          "type": "bytes32"
        }
      ],
      "name": "spawnSeed",
      "outputs": [
        {
          "internalType": "bool",
          "name": "",
          "type": "bool"
        }
      ],
      "stateMutability": "payable",
      "type": "function"
    },
    {
      "inputs": [
        {
          "internalType": "uint256",
          "name": "_seedId",
          "type": "uint256"
        },
        {
          "internalType": "uint256",
          "name": "_matterNeeded",
          "type": "uint256"
        }
      ],
      "name": "seedFromNut",
      "outputs": [
        {
          "internalType": "bool",
          "name": "",
          "type": "bool"
        }
      ],
      "stateMutability": "nonpayable",
      "type": "function"
    },
    {
      "inputs": [
        {
          "internalType": "uint256",
          "name": "_nutId",
          "type": "uint256"
        },
        {
          "internalType": "uint256",
          "name": "_matterContributed",
          "type": "uint256"
        },
        {
          "internalType": "uint256",
          "name": "_matterDrawRate",
          "type": "uint256"
        },
        {
          "internalType": "bytes32",
          "name": "_secretHash",
          "type": "bytes32"
        }
      ],
      "name": "newButter",
      "outputs": [
        {
          "internalType": "bool",
          "name": "",
          "type": "bool"
        }
      ],
      "stateMutability": "nonpayable",
      "type": "function"
    },
    {
      "inputs": [
        {
          "internalType": "address",
          "name": "_drawer",
          "type": "address"
        },
        {
          "internalType": "uint256",
          "name": "_butterId",
          "type": "uint256"
        },
        {
          "internalType": "uint256",
          "name": "_balance",
          "type": "uint256"
        },
        {
          "internalType": "uint256",
          "name": "_currentBalance",
          "type": "uint256"
        }
      ],
      "name": "butterDrawn",
      "outputs": [
        {
          "internalType": "bool",
          "name": "",
          "type": "bool"
        }
      ],
      "stateMutability": "nonpayable",
      "type": "function"
    },
    {
      "inputs": [
        {
          "internalType": "address",
          "name": "_tokenOwner",
          "type": "address"
        },
        {
          "internalType": "uint256",
          "name": "_tokenId",
          "type": "uint256"
        }
      ],
      "name": "assignMintBalance",
      "outputs": [
        {
          "internalType": "bool",
          "name": "",
          "type": "bool"
        }
      ],
      "stateMutability": "nonpayable",
      "type": "function"
    }
  ],
  "bytecode": "0x6080604052600080556000600755600060085560006009556000600f5534801561002857600080fd5b50612f31806100386000396000f3fe6080604052600436106102045760003560e01c80634ffe5a6f11610118578063a06fc90b116100a0578063df4f5ccc1161006f578063df4f5ccc146108b5578063ea988be8146108e0578063f50d43491461090b578063f6317f8d14610948578063fe774f9d1461097357610204565b8063a06fc90b146107ce578063a83851b91461080b578063aef054ce1461083b578063d4d810321461087857610204565b80638ed3df0f116100e75780638ed3df0f146106af5780639578d3df146106ec57806398d5fdca146107295780639975a8a2146107545780639cee22b11461079157610204565b80634ffe5a6f146105cd57806353f97bc81461060a5780636b651a2c1461064757806375b689aa1461068457610204565b806323f526c01161019b57806339dc84f41161016a57806339dc84f4146104c25780633c8023ad146104ff57806347634e1c1461053c578063485cc9551461057957806349a6b51f146105a257610204565b806323f526c0146103e057806326342ea41461041d578063282adc8c146104485780633279bd4f1461048557610204565b8063171e8441116101d7578063171e8441146102ec5780631821907a146103295780631c85949c146103665780631e0b3964146103a357610204565b806302760a481461020957806303f5de9d146102465780631298896e1461028357806315d3b7a0146102c0575b600080fd5b34801561021557600080fd5b50610230600480360381019061022b919061236e565b6109a3565b60405161023d91906123b6565b60405180910390f35b34801561025257600080fd5b5061026d60048036038101906102689190612407565b6109c3565b60405161027a91906123b6565b60405180910390f35b34801561028f57600080fd5b506102aa60048036038101906102a5919061246e565b6110bc565b6040516102b791906124bd565b60405180910390f35b3480156102cc57600080fd5b506102d56110ed565b6040516102e39291906124d8565b60405180910390f35b3480156102f857600080fd5b50610313600480360381019061030e919061236e565b6110ff565b60405161032091906123b6565b60405180910390f35b34801561033557600080fd5b50610350600480360381019061034b919061236e565b61111f565b60405161035d91906124bd565b60405180910390f35b34801561037257600080fd5b5061038d6004803603810190610388919061255f565b611137565b60405161039a91906123b6565b60405180910390f35b3480156103af57600080fd5b506103ca60048036038101906103c5919061246e565b6112f4565b6040516103d791906124bd565b60405180910390f35b3480156103ec57600080fd5b506104076004803603810190610402919061236e565b611325565b60405161041491906125ae565b60405180910390f35b34801561042957600080fd5b50610432611358565b60405161043f91906124bd565b60405180910390f35b34801561045457600080fd5b5061046f600480360381019061046a919061236e565b61135e565b60405161047c91906124bd565b60405180910390f35b34801561049157600080fd5b506104ac60048036038101906104a7919061236e565b61137e565b6040516104b991906124bd565b60405180910390f35b3480156104ce57600080fd5b506104e960048036038101906104e4919061236e565b611396565b6040516104f691906125ae565b60405180910390f35b34801561050b57600080fd5b506105266004803603810190610521919061246e565b6113c9565b60405161053391906124bd565b60405180910390f35b34801561054857600080fd5b50610563600480360381019061055e919061236e565b6113fa565b60405161057091906124bd565b60405180910390f35b34801561058557600080fd5b506105a0600480360381019061059b91906125c9565b611412565b005b3480156105ae57600080fd5b506105b76114e2565b6040516105c491906124bd565b60405180910390f35b3480156105d957600080fd5b506105f460048036038101906105ef919061236e565b6114e8565b60405161060191906124bd565b60405180910390f35b34801561061657600080fd5b50610631600480360381019061062c919061246e565b611500565b60405161063e91906123b6565b60405180910390f35b34801561065357600080fd5b5061066e6004803603810190610669919061236e565b61152f565b60405161067b91906124bd565b60405180910390f35b34801561069057600080fd5b5061069961154f565b6040516106a691906125ae565b60405180910390f35b3480156106bb57600080fd5b506106d660048036038101906106d1919061236e565b6115ec565b6040516106e391906124bd565b60405180910390f35b3480156106f857600080fd5b50610713600480360381019061070e919061236e565b611605565b60405161072091906124bd565b60405180910390f35b34801561073557600080fd5b5061073e611629565b60405161074b91906124bd565b60405180910390f35b34801561076057600080fd5b5061077b6004803603810190610776919061236e565b611636565b60405161078891906124bd565b60405180910390f35b34801561079d57600080fd5b506107b860048036038101906107b39190612609565b611656565b6040516107c591906123b6565b60405180910390f35b3480156107da57600080fd5b506107f560048036038101906107f0919061246e565b611785565b60405161080291906123b6565b60405180910390f35b34801561081757600080fd5b50610820611a2a565b60405161083296959493929190612670565b60405180910390f35b34801561084757600080fd5b50610862600480360381019061085d919061236e565b611b14565b60405161086f91906125ae565b60405180910390f35b34801561088457600080fd5b5061089f600480360381019061089a919061236e565b611b47565b6040516108ac91906124bd565b60405180910390f35b3480156108c157600080fd5b506108ca611b5f565b6040516108d791906124bd565b60405180910390f35b3480156108ec57600080fd5b506108f5611b65565b60405161090291906124bd565b60405180910390f35b34801561091757600080fd5b50610932600480360381019061092d919061236e565b611b6b565b60405161093f91906124bd565b60405180910390f35b34801561095457600080fd5b5061095d611b83565b60405161096a91906124bd565b60405180910390f35b61098d600480360381019061098891906126d1565b611b89565b60405161099a91906123b6565b60405180910390f35b60116020528060005260406000206000915054906101000a900460ff1681565b600080601a600087815260200190815260200160002060009054906101000a900473ffffffffffffffffffffffffffffffffffffffff1690503373ffffffffffffffffffffffffffffffffffffffff168173ffffffffffffffffffffffffffffffffffffffff1614610a6a576040517f08c379a0000000000000000000000000000000000000000000000000000000008152600401610a619061276e565b60405180910390fd5b84601b6000888152602001908152602001600020541015610ac0576040517f08c379a0000000000000000000000000000000000000000000000000000000008152600401610ab7906127da565b60405180910390fd5b6000601260010160009054906101000a900473ffffffffffffffffffffffffffffffffffffffff1690508073ffffffffffffffffffffffffffffffffffffffff166370a08231836040518263ffffffff1660e01b8152600401610b2391906125ae565b602060405180830381865afa158015610b40573d6000803e3d6000fd5b505050506040513d601f19601f82011682018060405250810190610b64919061280f565b861115610ba6576040517f08c379a0000000000000000000000000000000000000000000000000000000008152600401610b9d90612888565b60405180910390fd5b60008587610bb491906128d7565b14610bf4576040517f08c379a0000000000000000000000000000000000000000000000000000000008152600401610beb90612954565b60405180910390fd5b6000610bff8861152f565b1115610c725785600f6000828254610c1791906129a3565b9250508190555085601060008981526020019081526020016000206000828254610c4191906129a3565b92505081905550601c8790806001815401808255809150506001900390600052602060002001600090919091909150555b60008173ffffffffffffffffffffffffffffffffffffffff166370a08231601260020160009054906101000a900473ffffffffffffffffffffffffffffffffffffffff166040518263ffffffff1660e01b8152600401610cd291906125ae565b602060405180830381865afa158015610cef573d6000803e3d6000fd5b505050506040513d601f19601f82011682018060405250810190610d13919061280f565b90506000811115610f51576000610d2c82600f54611eac565b90506000805b828114610f4d576000601c80549050905060008103610d515750610f4d565b80821115610d5e57600092505b6000601c8481548110610d7457610d736129d7565b5b906000526020600020015490506000601a600083815260200190815260200160002060009054906101000a900473ffffffffffffffffffffffffffffffffffffffff1690506000601860010154610dca8461152f565b610dd49190612a06565b905080601b60008581526020019081526020016000205403610e1757601c8681548110610e0457610e036129d7565b5b9060005260206000200160009055610f28565b8873ffffffffffffffffffffffffffffffffffffffff1663a9059cbb8360016040518363ffffffff1660e01b8152600401610e53929190612a8d565b6020604051808303816000875af1158015610e72573d6000803e3d6000fd5b505050506040513d601f19601f82011682018060405250810190610e969190612ae2565b50601c839080600181540180825580915050600190039060005260206000200160009091909190915055601c8681548110610ed457610ed36129d7565b5b90600052602060002001600090556001600f6000828254610ef59190612b0f565b925050819055506001601060008581526020019081526020016000206000828254610f209190612b0f565b925050819055505b8580610f3390612b43565b965050505050508080610f4590612b43565b915050610d32565b5050505b6000610f81601260050160009054906101000a900473ffffffffffffffffffffffffffffffffffffffff16611ec5565b90508073ffffffffffffffffffffffffffffffffffffffff1663f8257f876009548b8b8b601260020160009054906101000a900473ffffffffffffffffffffffffffffffffffffffff168c6040518763ffffffff1660e01b8152600401610fed96959493929190612b9a565b600060405180830381600087803b15801561100757600080fd5b505af115801561101b573d6000803e3d6000fd5b505050508273ffffffffffffffffffffffffffffffffffffffff1663a9059cbb828a6040518363ffffffff1660e01b815260040161105a929190612bfb565b6020604051808303816000875af1158015611079573d6000803e3d6000fd5b505050506040513d601f19601f8201168201806040525081019061109d9190612ae2565b506110ac89600954838b611f99565b6001945050505050949350505050565b600260205281600052604060002081815481106110d857600080fd5b90600052602060002001600091509150505481565b60188060000154908060010154905082565b60066020528060005260406000206000915054906101000a900460ff1681565b600d6020528060005260406000206000915090505481565b600080601260010160009054906101000a900473ffffffffffffffffffffffffffffffffffffffff1690506018600101548173ffffffffffffffffffffffffffffffffffffffff166370a08231601260020160009054906101000a900473ffffffffffffffffffffffffffffffffffffffff166040518263ffffffff1660e01b81526004016111c691906125ae565b602060405180830381865afa1580156111e3573d6000803e3d6000fd5b505050506040513d601f19601f82011682018060405250810190611207919061280f565b1015611248576040517f08c379a000000000000000000000000000000000000000000000000000000000815260040161123f90612c70565b60405180910390fd5b8073ffffffffffffffffffffffffffffffffffffffff1663a9059cbb856018600101546040518363ffffffff1660e01b8152600401611288929190612bfb565b6020604051808303816000875af11580156112a7573d6000803e3d6000fd5b505050506040513d601f19601f820116820180604052508101906112cb9190612ae2565b50601860010154601b600085815260200190815260200160002081905550600191505092915050565b600a602052816000526040600020818154811061131057600080fd5b90600052602060002001600091509150505481565b60056020528060005260406000206000915054906101000a900473ffffffffffffffffffffffffffffffffffffffff1681565b60095481565b6000600a6000838152602001908152602001600020805490509050919050565b600c6020528060005260406000206000915090505481565b601a6020528060005260406000206000915054906101000a900473ffffffffffffffffffffffffffffffffffffffff1681565b600160205281600052604060002081815481106113e557600080fd5b90600052602060002001600091509150505481565b600e6020528060005260406000206000915090505481565b81601260000160006101000a81548173ffffffffffffffffffffffffffffffffffffffff021916908373ffffffffffffffffffffffffffffffffffffffff16021790555080601260010160006101000a81548173ffffffffffffffffffffffffffffffffffffffff021916908373ffffffffffffffffffffffffffffffffffffffff16021790555030601260020160006101000a81548173ffffffffffffffffffffffffffffffffffffffff021916908373ffffffffffffffffffffffffffffffffffffffff1602179055505050565b60085481565b60106020528060005260406000206000915090505481565b60046020528160005260406000206020528060005260406000206000915091509054906101000a900460ff1681565b600060026000838152602001908152602001600020805490509050919050565b6000601260030160009054906101000a900473ffffffffffffffffffffffffffffffffffffffff1673ffffffffffffffffffffffffffffffffffffffff16630ef8dd956040518163ffffffff1660e01b81526004016020604051808303816000875af11580156115c3573d6000803e3d6000fd5b505050506040513d601f19601f820116820180604052508101906115e79190612ca5565b905090565b60006115f782611636565b601860010154189050919050565b601c818154811061161557600080fd5b906000526020600020016000915090505481565b6000601860000154905090565b600060016000838152602001908152602001600020805490509050919050565b600080601260010160009054906101000a900473ffffffffffffffffffffffffffffffffffffffff1690508073ffffffffffffffffffffffffffffffffffffffff1663a9059cbb87866040518363ffffffff1660e01b81526004016116bc929190612bfb565b6020604051808303816000875af11580156116db573d6000803e3d6000fd5b505050506040513d601f19601f820116820180604052508101906116ff9190612ae2565b508073ffffffffffffffffffffffffffffffffffffffff16634bbc1bcd30866040518363ffffffff1660e01b815260040161173b929190612bfb565b600060405180830381600087803b15801561175557600080fd5b505af1158015611769573d6000803e3d6000fd5b505050506117788585856120cc565b6001915050949350505050565b6000806005600085815260200190815260200160002060009054906101000a900473ffffffffffffffffffffffffffffffffffffffff1690508073ffffffffffffffffffffffffffffffffffffffff163373ffffffffffffffffffffffffffffffffffffffff161461182c576040517f08c379a000000000000000000000000000000000000000000000000000000000815260040161182390612d44565b60405180910390fd5b60008190506000601a60008373ffffffffffffffffffffffffffffffffffffffff1663685771f46040518163ffffffff1660e01b8152600401602060405180830381865afa158015611882573d6000803e3d6000fd5b505050506040513d601f19601f820116820180604052508101906118a6919061280f565b815260200190815260200160002060009054906101000a900473ffffffffffffffffffffffffffffffffffffffff1690506000601260010160009054906101000a900473ffffffffffffffffffffffffffffffffffffffff1690508073ffffffffffffffffffffffffffffffffffffffff1663a9059cbb83886040518363ffffffff1660e01b815260040161193c929190612bfb565b6020604051808303816000875af115801561195b573d6000803e3d6000fd5b505050506040513d601f19601f8201168201806040525081019061197f9190612ae2565b508073ffffffffffffffffffffffffffffffffffffffff16634bbc1bcd601260020160009054906101000a900473ffffffffffffffffffffffffffffffffffffffff1660016040518363ffffffff1660e01b81526004016119e1929190612a8d565b600060405180830381600087803b1580156119fb57600080fd5b505af1158015611a0f573d6000803e3d6000fd5b50505050611a1c87612186565b600194505050505092915050565b60128060000160009054906101000a900473ffffffffffffffffffffffffffffffffffffffff16908060010160009054906101000a900473ffffffffffffffffffffffffffffffffffffffff16908060020160009054906101000a900473ffffffffffffffffffffffffffffffffffffffff16908060030160009054906101000a900473ffffffffffffffffffffffffffffffffffffffff16908060040160009054906101000a900473ffffffffffffffffffffffffffffffffffffffff16908060050160009054906101000a900473ffffffffffffffffffffffffffffffffffffffff16905086565b600b6020528060005260406000206000915054906101000a900473ffffffffffffffffffffffffffffffffffffffff1681565b60036020528060005260406000206000915090505481565b600f5481565b60005481565b601b6020528060005260406000206000915090505481565b60075481565b600080611b958461152f565b60186000015418905080341015611be1576040517f08c379a0000000000000000000000000000000000000000000000000000000008152600401611bd890612db0565b60405180910390fd5b6000601260010160009054906101000a900473ffffffffffffffffffffffffffffffffffffffff1690506000611c16866115ec565b905060008273ffffffffffffffffffffffffffffffffffffffff166370a08231601a60008a815260200190815260200160002060009054906101000a900473ffffffffffffffffffffffffffffffffffffffff166040518263ffffffff1660e01b8152600401611c8691906125ae565b602060405180830381865afa158015611ca3573d6000803e3d6000fd5b505050506040513d601f19601f82011682018060405250810190611cc7919061280f565b905081811015611d0c576040517f08c379a0000000000000000000000000000000000000000000000000000000008152600401611d0390612e1c565b60405180910390fd5b6000611d3c601260040160009054906101000a900473ffffffffffffffffffffffffffffffffffffffff16611ec5565b90508073ffffffffffffffffffffffffffffffffffffffff166348257aa46000548a30601260030160009054906101000a900473ffffffffffffffffffffffffffffffffffffffff168c6040518663ffffffff1660e01b8152600401611da6959493929190612e3c565b600060405180830381600087803b158015611dc057600080fd5b505af1158015611dd4573d6000803e3d6000fd5b505050506000819050611dea8960005483612208565b8473ffffffffffffffffffffffffffffffffffffffff166342966c68856040518263ffffffff1660e01b8152600401611e2391906124bd565b600060405180830381600087803b158015611e3d57600080fd5b505af1158015611e51573d6000803e3d6000fd5b505050508073ffffffffffffffffffffffffffffffffffffffff166108fc349081150290604051600060405180830381858888f19350505050158015611e9b573d6000803e3d6000fd5b506001965050505050505092915050565b6000818310611ebb5781611ebd565b825b905092915050565b60006040517f3d602d80600a3d3981f3363d3d373d3d3d363d7300000000000000000000000081528260601b60148201527f5af43d82803e903d91602b57fd5bf3000000000000000000000000000000000060288201526037816000f0915050600073ffffffffffffffffffffffffffffffffffffffff168173ffffffffffffffffffffffffffffffffffffffff1603611f94576040517f08c379a0000000000000000000000000000000000000000000000000000000008152600401611f8b90612edb565b60405180910390fd5b919050565b600160096000828254611fac91906129a3565b925050819055508060076000828254611fc591906129a3565b92505081905550600a600085815260200190815260200160002083908060018154018082558091505060019003906000526020600020016000909190919091505580600d6000868152602001908152602001600020600082825461202991906129a3565b9250508190555081600b600086815260200190815260200160002060006101000a81548173ffffffffffffffffffffffffffffffffffffffff021916908373ffffffffffffffffffffffffffffffffffffffff16021790555060016011600086815260200190815260200160002060006101000a81548160ff02191690831515021790555083600e60008581526020019081526020016000208190555050505050565b81600760008282546120de9190612b0f565b9250508190555081600860008282546120f791906129a3565b925050819055506000600e600085815260200190815260200160002054905082600c6000838152602001908152602001600020600082825461213991906129a3565b925050819055506000838361214e9190612b0f565b036121805760006011600086815260200190815260200160002060006101000a81548160ff0219169083151502179055505b50505050565b6000600360008381526020019081526020016000205490506002600082815260200190815260200160002082908060018154018082558091505060019003906000526020600020016000909190919091505560006006600083815260200190815260200160002060006101000a81548160ff0219169083151502179055505050565b82600360008481526020019081526020016000208190555060016000848152602001908152602001600020829080600181540180825580915050600190039060005260206000200160009091909190915055600160046000848152602001908152602001600020600085815260200190815260200160002060006101000a81548160ff021916908315150217905550806005600084815260200190815260200160002060006101000a81548173ffffffffffffffffffffffffffffffffffffffff021916908373ffffffffffffffffffffffffffffffffffffffff16021790555060016000808282546122fb91906129a3565b9250508190555060016006600085815260200190815260200160002060006101000a81548160ff021916908315150217905550505050565b600080fd5b6000819050919050565b61234b81612338565b811461235657600080fd5b50565b60008135905061236881612342565b92915050565b60006020828403121561238457612383612333565b5b600061239284828501612359565b91505092915050565b60008115159050919050565b6123b08161239b565b82525050565b60006020820190506123cb60008301846123a7565b92915050565b6000819050919050565b6123e4816123d1565b81146123ef57600080fd5b50565b600081359050612401816123db565b92915050565b6000806000806080858703121561242157612420612333565b5b600061242f87828801612359565b945050602061244087828801612359565b935050604061245187828801612359565b9250506060612462878288016123f2565b91505092959194509250565b6000806040838503121561248557612484612333565b5b600061249385828601612359565b92505060206124a485828601612359565b9150509250929050565b6124b781612338565b82525050565b60006020820190506124d260008301846124ae565b92915050565b60006040820190506124ed60008301856124ae565b6124fa60208301846124ae565b9392505050565b600073ffffffffffffffffffffffffffffffffffffffff82169050919050565b600061252c82612501565b9050919050565b61253c81612521565b811461254757600080fd5b50565b60008135905061255981612533565b92915050565b6000806040838503121561257657612575612333565b5b60006125848582860161254a565b925050602061259585828601612359565b9150509250929050565b6125a881612521565b82525050565b60006020820190506125c3600083018461259f565b92915050565b600080604083850312156125e0576125df612333565b5b60006125ee8582860161254a565b92505060206125ff8582860161254a565b9150509250929050565b6000806000806080858703121561262357612622612333565b5b60006126318782880161254a565b945050602061264287828801612359565b935050604061265387828801612359565b925050606061266487828801612359565b91505092959194509250565b600060c082019050612685600083018961259f565b612692602083018861259f565b61269f604083018761259f565b6126ac606083018661259f565b6126b9608083018561259f565b6126c660a083018461259f565b979650505050505050565b600080604083850312156126e8576126e7612333565b5b60006126f685828601612359565b9250506020612707858286016123f2565b9150509250929050565b600082825260208201905092915050565b7f43616c6c6572206973206e6f7420746865206f776e6572000000000000000000600082015250565b6000612758601783612711565b915061276382612722565b602082019050919050565b600060208201905081810360008301526127878161274b565b9050919050565b7f4e6f74206861766520656e6f756768206d617474657200000000000000000000600082015250565b60006127c4601683612711565b91506127cf8261278e565b602082019050919050565b600060208201905081810360008301526127f3816127b7565b9050919050565b60008151905061280981612342565b92915050565b60006020828403121561282557612824612333565b5b6000612833848285016127fa565b91505092915050565b7f4e6f74206869676820656e6f7567680000000000000000000000000000000000600082015250565b6000612872600f83612711565b915061287d8261283c565b602082019050919050565b600060208201905081810360008301526128a181612865565b9050919050565b7f4e487b7100000000000000000000000000000000000000000000000000000000600052601260045260246000fd5b60006128e282612338565b91506128ed83612338565b9250826128fd576128fc6128a8565b5b828206905092915050565b7f447261772072617465206e6f7420646976697369626c65000000000000000000600082015250565b600061293e601783612711565b915061294982612908565b602082019050919050565b6000602082019050818103600083015261296d81612931565b9050919050565b7f4e487b7100000000000000000000000000000000000000000000000000000000600052601160045260246000fd5b60006129ae82612338565b91506129b983612338565b92508282019050808211156129d1576129d0612974565b5b92915050565b7f4e487b7100000000000000000000000000000000000000000000000000000000600052603260045260246000fd5b6000612a1182612338565b9150612a1c83612338565b9250828202612a2a81612338565b91508282048414831517612a4157612a40612974565b5b5092915050565b6000819050919050565b6000819050919050565b6000612a77612a72612a6d84612a48565b612a52565b612338565b9050919050565b612a8781612a5c565b82525050565b6000604082019050612aa2600083018561259f565b612aaf6020830184612a7e565b9392505050565b612abf8161239b565b8114612aca57600080fd5b50565b600081519050612adc81612ab6565b92915050565b600060208284031215612af857612af7612333565b5b6000612b0684828501612acd565b91505092915050565b6000612b1a82612338565b9150612b2583612338565b9250828203905081811115612b3d57612b3c612974565b5b92915050565b6000612b4e82612338565b91507fffffffffffffffffffffffffffffffffffffffffffffffffffffffffffffffff8203612b8057612b7f612974565b5b600182019050919050565b612b94816123d1565b82525050565b600060c082019050612baf60008301896124ae565b612bbc60208301886124ae565b612bc960408301876124ae565b612bd660608301866124ae565b612be3608083018561259f565b612bf060a0830184612b8b565b979650505050505050565b6000604082019050612c10600083018561259f565b612c1d60208301846124ae565b9392505050565b7f4e6f7420656e6f756768206d6174746572000000000000000000000000000000600082015250565b6000612c5a601183612711565b9150612c6582612c24565b602082019050919050565b60006020820190508181036000830152612c8981612c4d565b9050919050565b600081519050612c9f81612533565b92915050565b600060208284031215612cbb57612cba612333565b5b6000612cc984828501612c90565b91505092915050565b7f43616c6c6572206973206e6f742074686520726967687420436f736d6f53656560008201527f6420636f6e747261637400000000000000000000000000000000000000000000602082015250565b6000612d2e602a83612711565b9150612d3982612cd2565b604082019050919050565b60006020820190508181036000830152612d5d81612d21565b9050919050565b7f45746865722076616c7565206973206e6f7420656e6f75676800000000000000600082015250565b6000612d9a601983612711565b9150612da582612d64565b602082019050919050565b60006020820190508181036000830152612dc981612d8d565b9050919050565b7f4d61747465722062616c616e6365206973206e6f7420656e6f75676800000000600082015250565b6000612e06601c83612711565b9150612e1182612dd0565b602082019050919050565b60006020820190508181036000830152612e3581612df9565b9050919050565b600060a082019050612e5160008301886124ae565b612e5e60208301876124ae565b612e6b604083018661259f565b612e78606083018561259f565b612e856080830184612b8b565b9695505050505050565b7f455243313136373a20637265617465206661696c656400000000000000000000600082015250565b6000612ec5601683612711565b9150612ed082612e8f565b602082019050919050565b60006020820190508181036000830152612ef481612eb8565b905091905056fea264697066735822122024d0de0f50d6a9063677a9313637400cbbd0118cbecc2b7f58e90340e0c539a364736f6c63430008110033",
  "immutableReferences": {},
  "source": "// SPDX-License-Identifier: MIT\npragma solidity ^0.8.7;\n\nimport \"openzeppelin-solidity/contracts/utils/math/Math.sol\";\nimport { Clones } from \"openzeppelin-solidity/contracts/proxy/Clones.sol\";\n\nimport \"./CosmoMatter.sol\";\nimport \"./CosmoSeed.sol\";\nimport \"./CosmoButter.sol\";\nimport \"./ICosmoTreasury.sol\";\n\nimport \"./SeedAccounts.sol\";\nimport \"./ButterAccounts.sol\";\n\n/**\n * @dev Manages the matter balance of the CosmoNuts collection and handles interaction with the\n * ERC20 Token to mint, burn, and allocate balances\n * Acts as storage for the ERC 721 tokens on their created Seed and Butter contracts.\n */\n contract CosmoTreasury is SeedAccounts, ButterAccounts, ICosmoTreasury {\n\n     /**\n      * @dev Saved addresses include the contract which created the Treasury: UNIVERSE_ADDRESS, and\n      * the address of the CosmoNuts contract (NFTs) which is created after the Treasury and then updated: matter_ADDRESS.\n      */\n     struct AddressOf {\n         address system;\n         address matter;\n         address treasury;\n         address cosmos;\n         address seedImplementation;\n         address butterImplementation;\n     }\n     AddressOf public addressOf;\n\n     struct Nut {\n         uint256 price;\n         uint256 rate;\n     }\n     Nut public nut;\n\n     mapping(uint256 => address) public currentOwnerOfNut; // Record of current nut owners by address\n     mapping(uint256 => uint256) public matterBalanceOfNut; // Matter balance of each Nut recorded by the Treasury\n\n     uint256[] public nutsPayeeList; // List of nuts to be provided a balance\n\n     function initialize(address _systemAddress, address _matterAddress) external {\n         addressOf.system = _systemAddress;\n         addressOf.matter = _matterAddress;\n         addressOf.treasury = address(this);\n     }\n\n     /*\n     modifier onlyUniverse {\n         require(address(msg.sender) == UNIVERSE_ADDRESS, \"Caller is not Universe\");\n         _;\n     }\n     */\n\n     /*\n     function updateCosmosAddress(address _matterAddressNew) external onlyUniverse {\n         MATTER_ADDRESS = _matterAddressNew;\n     }\n     */\n\n     //function updateNutPrice(uint256 _setNutPrice) external onlyUniverse {\n     //    NUT_PRICE = _setNutPrice;\n     //}\n\n     function getVaultLocation() public virtual override returns (address) {\n        return ICosmoNuts(addressOf.cosmos).vaultLocation();\n     }\n\n     function getPrice() public view virtual override returns (uint256) {\n         return nut.price;\n     }\n\n     function matterNeeded(uint256 _nutId) public view virtual override returns (uint256) {\n         return nut.rate ^ (numOfSeedsOf(_nutId));\n     }\n\n     function spawnSeed(uint256 _nutId, bytes32 _secretHash) external virtual override payable returns (bool) {\n         uint256 ethToHold = nut.price ^ (numOfSeedsGrownOf(_nutId));\n         require(msg.value >= ethToHold, \"Ether value is not enough\");\n\n         CosmoMatter matter = CosmoMatter(addressOf.matter);\n         uint256 matterToBurn = matterNeeded(_nutId);\n         uint256 matterOfOwner = matter.balanceOf(currentOwnerOfNut[_nutId]);\n         require(matterOfOwner >= matterToBurn, \"Matter balance is not enough\");\n\n         CosmoSeed cosmoseed = CosmoSeed(Clones.clone(addressOf.seedImplementation));\n         cosmoseed.initialize(\n             seedsCreated, _nutId, address(this), addressOf.cosmos, _secretHash\n         );\n\n         address seedLocation = address(cosmoseed);\n         integrateSeed(_nutId, seedsCreated, seedLocation);\n\n         matter.burn(matterToBurn);\n         payable(seedLocation).transfer(msg.value);\n\n         return true;\n     }\n\n     /**\n      * Called from CosmoSeed contract.\n      */\n     function seedFromNut(uint256 _seedId, uint256 _matterNeeded) external virtual override returns (bool) {\n         address seedAddress = seedLocations[_seedId];\n         require(address(msg.sender) == seedAddress, \"Caller is not the right CosmoSeed contract\");\n         //require(matter.balanceOf(address(msg.sender)) >= _matterNeeded, \"Not enough matter\");\n\n         CosmoSeed seed = CosmoSeed(seedAddress);\n\n         address nutOwner = currentOwnerOfNut[seed.nutId()];\n         CosmoMatter matter = CosmoMatter(addressOf.matter);\n         matter.transfer(nutOwner, _matterNeeded);\n         matter.mintMatter(addressOf.treasury, 1);\n\n         growSeed(_seedId);\n\n         return true;\n     }\n\n     /**\n      * Creating new butter means the creation of a contract where other users can withdraw matter from.\n      * Need to contribute butter (which can only be done if you have a Nut with the desired level of matter to give away.\n      * A secret message is provided in hash form and checked for verification to withdraw funds.\n      */\n     function newButter(\n         uint256 _nutId,\n         uint256 _matterContributed,\n         uint256 _matterDrawRate,\n         bytes32 _secretHash\n     ) external virtual override returns (bool) {\n         address nutOwner = currentOwnerOfNut[_nutId];\n         // Do we need to be doing these checks twice? Or really new check that caller is from contract (? or person who clicked?)\n         require(nutOwner == address(msg.sender), \"Caller is not the owner\");\n         require(matterBalanceOfNut[_nutId] >= _matterContributed, \"Not have enough matter\");\n         CosmoMatter matter = CosmoMatter(addressOf.matter);\n         require(_matterContributed <= matter.balanceOf(nutOwner), \"Not high enough\");\n         require(_matterContributed % _matterDrawRate == 0, \"Draw rate not divisible\");\n\n         /**\n          * A nut must have already grown a seed to start being counted as part of the deficiency list.\n          */\n         if (numOfSeedsGrownOf(_nutId) > 0) {\n             butterDeficiencyInUniverse += _matterContributed;\n             butterDeficiencyOfNut[_nutId] += _matterContributed;\n             nutsPayeeList.push(_nutId);\n         }\n\n         /**\n          * The Treasury wants to distribute its available balance to the nutsPayeeList.\n          * It will distribute the minimum of either its available balance or the deficiency in the Universe.\n          * All payees are awarded one matter and moved to the end of the list.\n          * When their maximum available balance is reached, they are removed from the payee list.\n          */\n         uint256 matterInTreasury = matter.balanceOf(addressOf.treasury);\n         if (matterInTreasury > 0) {\n             uint256 toDistribute = Math.min(matterInTreasury, butterDeficiencyInUniverse);\n\n             uint256 index = 0;\n             for (uint j = 0; j != toDistribute; j++) {\n                 uint256 allPayees = nutsPayeeList.length;\n                 if (allPayees == 0) {\n                     break;\n                 }\n\n                 if (j > allPayees) {\n                     index = 0;\n                 }\n\n                 uint256 nutPayeeId = nutsPayeeList[index];\n                 address nutOwnerPayee = currentOwnerOfNut[nutPayeeId];\n                 uint256 maxMatter = numOfSeedsGrownOf(nutPayeeId) * nut.rate;\n                 if (matterBalanceOfNut[nutPayeeId] == maxMatter) {\n                     delete nutsPayeeList[index];\n                 } else {\n                     matter.transfer(nutOwnerPayee, 1);\n                     nutsPayeeList.push(nutPayeeId);\n                     delete nutsPayeeList[index];\n\n                     butterDeficiencyInUniverse -= 1;\n                     butterDeficiencyOfNut[nutPayeeId] -= 1;\n                 }\n\n                 index++;\n            }\n         }\n\n         CosmoButter butter = CosmoButter(Clones.clone(addressOf.butterImplementation));\n         butter.initialize(\n             butterJars, _nutId, _matterContributed, _matterDrawRate, addressOf.treasury, _secretHash\n         );\n\n         matter.transfer(address(butter), _matterContributed);\n         churnButter(_nutId, butterJars, address(butter), _matterContributed);\n\n         return true;\n\n     }\n\n     /**\n      * Runs from CosmoButter contract when someone requests to draw matter.\n      */\n     function butterDrawn(\n         address _drawer,\n         uint256 _butterId,\n         uint256 _balance,\n         uint256 _currentBalance\n     ) external virtual override returns (bool) {\n         CosmoMatter matter = CosmoMatter(addressOf.matter);\n         matter.transfer(_drawer, _balance);\n         matter.mintMatter(address(this), _balance);\n         distributeButter(_butterId, _balance, _currentBalance);\n\n         return true;\n     }\n\n     function assignMintBalance(address _tokenOwner, uint256 _tokenId) external virtual override returns (bool) {\n         CosmoMatter matter = CosmoMatter(addressOf.matter);\n         require(matter.balanceOf(addressOf.treasury) >= nut.rate, \"Not enough matter\");\n         matter.transfer(_tokenOwner, nut.rate);\n         matterBalanceOfNut[_tokenId] = nut.rate;\n\n         return true;\n     }\n\n }\n",
  "sourcePath": "/home/redlentils/Seafile/Websites/avatarnft/contracts/CosmoTreasury.sol",
  "compiler": {
    "name": "solc",
    "version": "0.8.17+commit.8df45f5f.Emscripten.clang"
  },
  "schemaVersion": "3.4.10",
  "updatedAt": "2022-10-18T19:44:29.937Z",
  "devdoc": {
    "details": "Manages the matter balance of the CosmoNuts collection and handles interaction with the ERC20 Token to mint, burn, and allocate balances Acts as storage for the ERC 721 tokens on their created Seed and Butter contracts.",
    "kind": "dev",
    "methods": {},
    "version": 1
  },
  "userdoc": {
    "kind": "user",
    "methods": {
      "butterDrawn(address,uint256,uint256,uint256)": {
        "notice": "Runs from CosmoButter contract when someone requests to draw matter."
      },
      "butterWeight()": {
        "notice": "butterWeight is the amount of matter in the universe that is currently outstanding. butterSpread is the amount of matter that has been distributed from butterWeight, thus reducing its value. butterJars represent the total number of matter contracts created in the Universe."
      },
      "buttersOfNut(uint256,uint256)": {
        "notice": "buttersOfNut represents a list of all butter contracts created byt that nut. butterLocations represents the address of contract identifed by butterId."
      },
      "newButter(uint256,uint256,uint256,bytes32)": {
        "notice": "Creating new butter means the creation of a contract where other users can withdraw matter from. Need to contribute butter (which can only be done if you have a Nut with the desired level of matter to give away. A secret message is provided in hash form and checked for verification to withdraw funds."
      },
      "seedFromNut(uint256,uint256)": {
        "notice": "Called from CosmoSeed contract."
      }
    },
    "version": 1
  }
}