{
  "contractName": "CosmoTreasury",
  "abi": [
    {
      "inputs": [],
      "name": "addressOf",
      "outputs": [
        {
          "internalType": "address",
          "name": "system",
          "type": "address"
        },
        {
          "internalType": "address",
          "name": "matter",
          "type": "address"
        },
        {
          "internalType": "address",
          "name": "treasury",
          "type": "address"
        },
        {
          "internalType": "address",
          "name": "cosmos",
          "type": "address"
        },
        {
          "internalType": "address",
          "name": "seedImplementation",
          "type": "address"
        },
        {
          "internalType": "address",
          "name": "butterImplementation",
          "type": "address"
        }
      ],
      "stateMutability": "view",
      "type": "function"
    },
    {
      "inputs": [
        {
          "internalType": "uint256",
          "name": "",
          "type": "uint256"
        }
      ],
      "name": "butterChurnedByNut",
      "outputs": [
        {
          "internalType": "uint256",
          "name": "",
          "type": "uint256"
        }
      ],
      "stateMutability": "view",
      "type": "function"
    },
    {
      "inputs": [],
      "name": "butterDeficiencyInUniverse",
      "outputs": [
        {
          "internalType": "uint256",
          "name": "",
          "type": "uint256"
        }
      ],
      "stateMutability": "view",
      "type": "function"
    },
    {
      "inputs": [
        {
          "internalType": "uint256",
          "name": "",
          "type": "uint256"
        }
      ],
      "name": "butterDeficiencyOfNut",
      "outputs": [
        {
          "internalType": "uint256",
          "name": "",
          "type": "uint256"
        }
      ],
      "stateMutability": "view",
      "type": "function"
    },
    {
      "inputs": [],
      "name": "butterJars",
      "outputs": [
        {
          "internalType": "uint256",
          "name": "",
          "type": "uint256"
        }
      ],
      "stateMutability": "view",
      "type": "function"
    },
    {
      "inputs": [
        {
          "internalType": "uint256",
          "name": "",
          "type": "uint256"
        }
      ],
      "name": "butterLocations",
      "outputs": [
        {
          "internalType": "address",
          "name": "",
          "type": "address"
        }
      ],
      "stateMutability": "view",
      "type": "function"
    },
    {
      "inputs": [],
      "name": "butterSpread",
      "outputs": [
        {
          "internalType": "uint256",
          "name": "",
          "type": "uint256"
        }
      ],
      "stateMutability": "view",
      "type": "function"
    },
    {
      "inputs": [],
      "name": "butterWeight",
      "outputs": [
        {
          "internalType": "uint256",
          "name": "",
          "type": "uint256"
        }
      ],
      "stateMutability": "view",
      "type": "function"
    },
    {
      "inputs": [
        {
          "internalType": "uint256",
          "name": "",
          "type": "uint256"
        },
        {
          "internalType": "uint256",
          "name": "",
          "type": "uint256"
        }
      ],
      "name": "buttersOfNut",
      "outputs": [
        {
          "internalType": "uint256",
          "name": "",
          "type": "uint256"
        }
      ],
      "stateMutability": "view",
      "type": "function"
    },
    {
      "inputs": [
        {
          "internalType": "uint256",
          "name": "",
          "type": "uint256"
        }
      ],
      "name": "currentOwnerOfNut",
      "outputs": [
        {
          "internalType": "address",
          "name": "",
          "type": "address"
        }
      ],
      "stateMutability": "view",
      "type": "function"
    },
    {
      "inputs": [
        {
          "internalType": "uint256",
          "name": "",
          "type": "uint256"
        }
      ],
      "name": "isButterActive",
      "outputs": [
        {
          "internalType": "bool",
          "name": "",
          "type": "bool"
        }
      ],
      "stateMutability": "view",
      "type": "function"
    },
    {
      "inputs": [
        {
          "internalType": "uint256",
          "name": "",
          "type": "uint256"
        }
      ],
      "name": "isSeedActive",
      "outputs": [
        {
          "internalType": "bool",
          "name": "",
          "type": "bool"
        }
      ],
      "stateMutability": "view",
      "type": "function"
    },
    {
      "inputs": [
        {
          "internalType": "uint256",
          "name": "",
          "type": "uint256"
        },
        {
          "internalType": "uint256",
          "name": "",
          "type": "uint256"
        }
      ],
      "name": "isSeedOfNut",
      "outputs": [
        {
          "internalType": "bool",
          "name": "",
          "type": "bool"
        }
      ],
      "stateMutability": "view",
      "type": "function"
    },
    {
      "inputs": [
        {
          "internalType": "uint256",
          "name": "",
          "type": "uint256"
        }
      ],
      "name": "matterBalanceOfNut",
      "outputs": [
        {
          "internalType": "uint256",
          "name": "",
          "type": "uint256"
        }
      ],
      "stateMutability": "view",
      "type": "function"
    },
    {
      "inputs": [
        {
          "internalType": "uint256",
          "name": "",
          "type": "uint256"
        }
      ],
      "name": "matterMintedByNut",
      "outputs": [
        {
          "internalType": "uint256",
          "name": "",
          "type": "uint256"
        }
      ],
      "stateMutability": "view",
      "type": "function"
    },
    {
      "inputs": [
        {
          "internalType": "uint256",
          "name": "_nutId",
          "type": "uint256"
        }
      ],
      "name": "numOfSeedsGrownOf",
      "outputs": [
        {
          "internalType": "uint256",
          "name": "",
          "type": "uint256"
        }
      ],
      "stateMutability": "view",
      "type": "function"
    },
    {
      "inputs": [
        {
          "internalType": "uint256",
          "name": "_nutId",
          "type": "uint256"
        }
      ],
      "name": "numOfSeedsOf",
      "outputs": [
        {
          "internalType": "uint256",
          "name": "",
          "type": "uint256"
        }
      ],
      "stateMutability": "view",
      "type": "function"
    },
    {
      "inputs": [
        {
          "internalType": "uint256",
          "name": "_nutId",
          "type": "uint256"
        }
      ],
      "name": "numberOfButterJars",
      "outputs": [
        {
          "internalType": "uint256",
          "name": "",
          "type": "uint256"
        }
      ],
      "stateMutability": "view",
      "type": "function"
    },
    {
      "inputs": [],
      "name": "nut",
      "outputs": [
        {
          "internalType": "uint256",
          "name": "price",
          "type": "uint256"
        },
        {
          "internalType": "uint256",
          "name": "rate",
          "type": "uint256"
        }
      ],
      "stateMutability": "view",
      "type": "function"
    },
    {
      "inputs": [
        {
          "internalType": "uint256",
          "name": "",
          "type": "uint256"
        }
      ],
      "name": "nutOfButter",
      "outputs": [
        {
          "internalType": "uint256",
          "name": "",
          "type": "uint256"
        }
      ],
      "stateMutability": "view",
      "type": "function"
    },
    {
      "inputs": [
        {
          "internalType": "uint256",
          "name": "",
          "type": "uint256"
        }
      ],
      "name": "nutOfSeed",
      "outputs": [
        {
          "internalType": "uint256",
          "name": "",
          "type": "uint256"
        }
      ],
      "stateMutability": "view",
      "type": "function"
    },
    {
      "inputs": [
        {
          "internalType": "uint256",
          "name": "",
          "type": "uint256"
        }
      ],
      "name": "nutsPayeeList",
      "outputs": [
        {
          "internalType": "uint256",
          "name": "",
          "type": "uint256"
        }
      ],
      "stateMutability": "view",
      "type": "function"
    },
    {
      "inputs": [
        {
          "internalType": "uint256",
          "name": "",
          "type": "uint256"
        }
      ],
      "name": "seedLocations",
      "outputs": [
        {
          "internalType": "address",
          "name": "",
          "type": "address"
        }
      ],
      "stateMutability": "view",
      "type": "function"
    },
    {
      "inputs": [],
      "name": "seedsCreated",
      "outputs": [
        {
          "internalType": "uint256",
          "name": "",
          "type": "uint256"
        }
      ],
      "stateMutability": "view",
      "type": "function"
    },
    {
      "inputs": [
        {
          "internalType": "uint256",
          "name": "",
          "type": "uint256"
        },
        {
          "internalType": "uint256",
          "name": "",
          "type": "uint256"
        }
      ],
      "name": "seedsGrownOfNut",
      "outputs": [
        {
          "internalType": "uint256",
          "name": "",
          "type": "uint256"
        }
      ],
      "stateMutability": "view",
      "type": "function"
    },
    {
      "inputs": [
        {
          "internalType": "uint256",
          "name": "",
          "type": "uint256"
        },
        {
          "internalType": "uint256",
          "name": "",
          "type": "uint256"
        }
      ],
      "name": "seedsOfNut",
      "outputs": [
        {
          "internalType": "uint256",
          "name": "",
          "type": "uint256"
        }
      ],
      "stateMutability": "view",
      "type": "function"
    },
    {
      "inputs": [
        {
          "internalType": "address",
          "name": "_systemAddress",
          "type": "address"
        },
        {
          "internalType": "address",
          "name": "_matterAddress",
          "type": "address"
        },
        {
          "internalType": "address",
          "name": "_seedImplementation",
          "type": "address"
        },
        {
          "internalType": "address",
          "name": "_butterImplementation",
          "type": "address"
        },
        {
          "internalType": "uint256",
          "name": "_price",
          "type": "uint256"
        },
        {
          "internalType": "uint256",
          "name": "_rate",
          "type": "uint256"
        }
      ],
      "name": "initialize",
      "outputs": [],
      "stateMutability": "nonpayable",
      "type": "function"
    },
    {
      "inputs": [
        {
          "internalType": "address",
          "name": "_cosmoAddress",
          "type": "address"
        }
      ],
      "name": "linkCosmo",
      "outputs": [],
      "stateMutability": "nonpayable",
      "type": "function"
    },
    {
      "inputs": [],
      "name": "getVaultLocation",
      "outputs": [
        {
          "internalType": "address",
          "name": "",
          "type": "address"
        }
      ],
      "stateMutability": "nonpayable",
      "type": "function"
    },
    {
      "inputs": [],
      "name": "getPrice",
      "outputs": [
        {
          "internalType": "uint256",
          "name": "",
          "type": "uint256"
        }
      ],
      "stateMutability": "view",
      "type": "function"
    },
    {
      "inputs": [
        {
          "internalType": "uint256",
          "name": "_nutId",
          "type": "uint256"
        }
      ],
      "name": "matterNeeded",
      "outputs": [
        {
          "internalType": "uint256",
          "name": "",
          "type": "uint256"
        }
      ],
      "stateMutability": "view",
      "type": "function"
    },
    {
      "inputs": [
        {
          "internalType": "uint256",
          "name": "_nutId",
          "type": "uint256"
        },
        {
          "internalType": "bytes32",
          "name": "_secretHash",
          "type": "bytes32"
        }
      ],
      "name": "spawnSeed",
      "outputs": [
        {
          "internalType": "bool",
          "name": "",
          "type": "bool"
        }
      ],
      "stateMutability": "payable",
      "type": "function"
    },
    {
      "inputs": [
        {
          "internalType": "uint256",
          "name": "_seedId",
          "type": "uint256"
        },
        {
          "internalType": "uint256",
          "name": "_matterNeeded",
          "type": "uint256"
        }
      ],
      "name": "seedFromNut",
      "outputs": [
        {
          "internalType": "bool",
          "name": "",
          "type": "bool"
        }
      ],
      "stateMutability": "nonpayable",
      "type": "function"
    },
    {
      "inputs": [
        {
          "internalType": "uint256",
          "name": "_nutId",
          "type": "uint256"
        },
        {
          "internalType": "uint256",
          "name": "_matterContributed",
          "type": "uint256"
        },
        {
          "internalType": "uint256",
          "name": "_matterDrawRate",
          "type": "uint256"
        },
        {
          "internalType": "bytes32",
          "name": "_secretHash",
          "type": "bytes32"
        }
      ],
      "name": "newButter",
      "outputs": [
        {
          "internalType": "bool",
          "name": "",
          "type": "bool"
        }
      ],
      "stateMutability": "nonpayable",
      "type": "function"
    },
    {
      "inputs": [
        {
          "internalType": "address",
          "name": "_drawer",
          "type": "address"
        },
        {
          "internalType": "uint256",
          "name": "_butterId",
          "type": "uint256"
        },
        {
          "internalType": "uint256",
          "name": "_balance",
          "type": "uint256"
        },
        {
          "internalType": "uint256",
          "name": "_currentBalance",
          "type": "uint256"
        }
      ],
      "name": "butterDrawn",
      "outputs": [
        {
          "internalType": "bool",
          "name": "",
          "type": "bool"
        }
      ],
      "stateMutability": "nonpayable",
      "type": "function"
    },
    {
      "inputs": [
        {
          "internalType": "address",
          "name": "_tokenOwner",
          "type": "address"
        },
        {
          "internalType": "uint256",
          "name": "_tokenId",
          "type": "uint256"
        }
      ],
      "name": "assignMintBalance",
      "outputs": [
        {
          "internalType": "bool",
          "name": "",
          "type": "bool"
        }
      ],
      "stateMutability": "nonpayable",
      "type": "function"
    }
  ],
  "bytecode": "0x6080604052600080556000600755600060085560006009556000600f5534801561002857600080fd5b506130c6806100386000396000f3fe60806040526004361061020f5760003560e01c80636b651a2c11610118578063a83851b9116100a0578063df4f5ccc1161006f578063df4f5ccc146108e9578063ea988be814610914578063f50d43491461093f578063f6317f8d1461097c578063fe774f9d146109a75761020f565b8063a83851b914610816578063aef054ce14610846578063d4d8103214610883578063d7c41c79146108c05761020f565b806398d5fdca116100e757806398d5fdca1461070b5780639975a8a2146107365780639cee22b114610773578063a06fc90b146107b0578063a56c5a78146107ed5761020f565b80636b651a2c1461062957806375b689aa146106665780638ed3df0f146106915780639578d3df146106ce5761020f565b806326342ea41161019b5780633c8023ad1161016a5780633c8023ad1461050a57806347634e1c1461054757806349a6b51f146105845780634ffe5a6f146105af57806353f97bc8146105ec5761020f565b806326342ea414610428578063282adc8c146104535780633279bd4f1461049057806339dc84f4146104cd5761020f565b8063171e8441116101e2578063171e8441146102f75780631821907a146103345780631c85949c146103715780631e0b3964146103ae57806323f526c0146103eb5761020f565b806302760a481461021457806303f5de9d146102515780631298896e1461028e57806315d3b7a0146102cb575b600080fd5b34801561022057600080fd5b5061023b60048036038101906102369190612489565b6109d7565b60405161024891906124d1565b60405180910390f35b34801561025d57600080fd5b5061027860048036038101906102739190612522565b6109f7565b60405161028591906124d1565b60405180910390f35b34801561029a57600080fd5b506102b560048036038101906102b09190612589565b6110f0565b6040516102c291906125d8565b60405180910390f35b3480156102d757600080fd5b506102e0611121565b6040516102ee9291906125f3565b60405180910390f35b34801561030357600080fd5b5061031e60048036038101906103199190612489565b611133565b60405161032b91906124d1565b60405180910390f35b34801561034057600080fd5b5061035b60048036038101906103569190612489565b611153565b60405161036891906125d8565b60405180910390f35b34801561037d57600080fd5b506103986004803603810190610393919061267a565b61116b565b6040516103a591906124d1565b60405180910390f35b3480156103ba57600080fd5b506103d560048036038101906103d09190612589565b611328565b6040516103e291906125d8565b60405180910390f35b3480156103f757600080fd5b50610412600480360381019061040d9190612489565b611359565b60405161041f91906126c9565b60405180910390f35b34801561043457600080fd5b5061043d61138c565b60405161044a91906125d8565b60405180910390f35b34801561045f57600080fd5b5061047a60048036038101906104759190612489565b611392565b60405161048791906125d8565b60405180910390f35b34801561049c57600080fd5b506104b760048036038101906104b29190612489565b6113b2565b6040516104c491906125d8565b60405180910390f35b3480156104d957600080fd5b506104f460048036038101906104ef9190612489565b6113ca565b60405161050191906126c9565b60405180910390f35b34801561051657600080fd5b50610531600480360381019061052c9190612589565b6113fd565b60405161053e91906125d8565b60405180910390f35b34801561055357600080fd5b5061056e60048036038101906105699190612489565b61142e565b60405161057b91906125d8565b60405180910390f35b34801561059057600080fd5b50610599611446565b6040516105a691906125d8565b60405180910390f35b3480156105bb57600080fd5b506105d660048036038101906105d19190612489565b61144c565b6040516105e391906125d8565b60405180910390f35b3480156105f857600080fd5b50610613600480360381019061060e9190612589565b611464565b60405161062091906124d1565b60405180910390f35b34801561063557600080fd5b50610650600480360381019061064b9190612489565b611493565b60405161065d91906125d8565b60405180910390f35b34801561067257600080fd5b5061067b6114b3565b60405161068891906126c9565b60405180910390f35b34801561069d57600080fd5b506106b860048036038101906106b39190612489565b611550565b6040516106c591906125d8565b60405180910390f35b3480156106da57600080fd5b506106f560048036038101906106f09190612489565b611569565b60405161070291906125d8565b60405180910390f35b34801561071757600080fd5b5061072061158d565b60405161072d91906125d8565b60405180910390f35b34801561074257600080fd5b5061075d60048036038101906107589190612489565b61159a565b60405161076a91906125d8565b60405180910390f35b34801561077f57600080fd5b5061079a600480360381019061079591906126e4565b6115ba565b6040516107a791906124d1565b60405180910390f35b3480156107bc57600080fd5b506107d760048036038101906107d29190612589565b6116e9565b6040516107e491906124d1565b60405180910390f35b3480156107f957600080fd5b50610814600480360381019061080f919061274b565b61198e565b005b34801561082257600080fd5b5061082b6119d5565b60405161083d96959493929190612778565b60405180910390f35b34801561085257600080fd5b5061086d60048036038101906108689190612489565b611abf565b60405161087a91906126c9565b60405180910390f35b34801561088f57600080fd5b506108aa60048036038101906108a59190612489565b611af2565b6040516108b791906125d8565b60405180910390f35b3480156108cc57600080fd5b506108e760048036038101906108e291906127d9565b611b0a565b005b3480156108f557600080fd5b506108fe611c7a565b60405161090b91906125d8565b60405180910390f35b34801561092057600080fd5b50610929611c80565b60405161093691906125d8565b60405180910390f35b34801561094b57600080fd5b5061096660048036038101906109619190612489565b611c86565b60405161097391906125d8565b60405180910390f35b34801561098857600080fd5b50610991611c9e565b60405161099e91906125d8565b60405180910390f35b6109c160048036038101906109bc9190612866565b611ca4565b6040516109ce91906124d1565b60405180910390f35b60116020528060005260406000206000915054906101000a900460ff1681565b600080601a600087815260200190815260200160002060009054906101000a900473ffffffffffffffffffffffffffffffffffffffff1690503373ffffffffffffffffffffffffffffffffffffffff168173ffffffffffffffffffffffffffffffffffffffff1614610a9e576040517f08c379a0000000000000000000000000000000000000000000000000000000008152600401610a9590612903565b60405180910390fd5b84601b6000888152602001908152602001600020541015610af4576040517f08c379a0000000000000000000000000000000000000000000000000000000008152600401610aeb9061296f565b60405180910390fd5b6000601260010160009054906101000a900473ffffffffffffffffffffffffffffffffffffffff1690508073ffffffffffffffffffffffffffffffffffffffff166370a08231836040518263ffffffff1660e01b8152600401610b5791906126c9565b602060405180830381865afa158015610b74573d6000803e3d6000fd5b505050506040513d601f19601f82011682018060405250810190610b9891906129a4565b861115610bda576040517f08c379a0000000000000000000000000000000000000000000000000000000008152600401610bd190612a1d565b60405180910390fd5b60008587610be89190612a6c565b14610c28576040517f08c379a0000000000000000000000000000000000000000000000000000000008152600401610c1f90612ae9565b60405180910390fd5b6000610c3388611493565b1115610ca65785600f6000828254610c4b9190612b38565b9250508190555085601060008981526020019081526020016000206000828254610c759190612b38565b92505081905550601c8790806001815401808255809150506001900390600052602060002001600090919091909150555b60008173ffffffffffffffffffffffffffffffffffffffff166370a08231601260020160009054906101000a900473ffffffffffffffffffffffffffffffffffffffff166040518263ffffffff1660e01b8152600401610d0691906126c9565b602060405180830381865afa158015610d23573d6000803e3d6000fd5b505050506040513d601f19601f82011682018060405250810190610d4791906129a4565b90506000811115610f85576000610d6082600f54611fc7565b90506000805b828114610f81576000601c80549050905060008103610d855750610f81565b80821115610d9257600092505b6000601c8481548110610da857610da7612b6c565b5b906000526020600020015490506000601a600083815260200190815260200160002060009054906101000a900473ffffffffffffffffffffffffffffffffffffffff1690506000601860010154610dfe84611493565b610e089190612b9b565b905080601b60008581526020019081526020016000205403610e4b57601c8681548110610e3857610e37612b6c565b5b9060005260206000200160009055610f5c565b8873ffffffffffffffffffffffffffffffffffffffff1663a9059cbb8360016040518363ffffffff1660e01b8152600401610e87929190612c22565b6020604051808303816000875af1158015610ea6573d6000803e3d6000fd5b505050506040513d601f19601f82011682018060405250810190610eca9190612c77565b50601c839080600181540180825580915050600190039060005260206000200160009091909190915055601c8681548110610f0857610f07612b6c565b5b90600052602060002001600090556001600f6000828254610f299190612ca4565b925050819055506001601060008581526020019081526020016000206000828254610f549190612ca4565b925050819055505b8580610f6790612cd8565b965050505050508080610f7990612cd8565b915050610d66565b5050505b6000610fb5601260050160009054906101000a900473ffffffffffffffffffffffffffffffffffffffff16611fe0565b90508073ffffffffffffffffffffffffffffffffffffffff1663f8257f876009548b8b8b601260020160009054906101000a900473ffffffffffffffffffffffffffffffffffffffff168c6040518763ffffffff1660e01b815260040161102196959493929190612d2f565b600060405180830381600087803b15801561103b57600080fd5b505af115801561104f573d6000803e3d6000fd5b505050508273ffffffffffffffffffffffffffffffffffffffff1663a9059cbb828a6040518363ffffffff1660e01b815260040161108e929190612d90565b6020604051808303816000875af11580156110ad573d6000803e3d6000fd5b505050506040513d601f19601f820116820180604052508101906110d19190612c77565b506110e089600954838b6120b4565b6001945050505050949350505050565b6002602052816000526040600020818154811061110c57600080fd5b90600052602060002001600091509150505481565b60188060000154908060010154905082565b60066020528060005260406000206000915054906101000a900460ff1681565b600d6020528060005260406000206000915090505481565b600080601260010160009054906101000a900473ffffffffffffffffffffffffffffffffffffffff1690506018600101548173ffffffffffffffffffffffffffffffffffffffff166370a08231601260020160009054906101000a900473ffffffffffffffffffffffffffffffffffffffff166040518263ffffffff1660e01b81526004016111fa91906126c9565b602060405180830381865afa158015611217573d6000803e3d6000fd5b505050506040513d601f19601f8201168201806040525081019061123b91906129a4565b101561127c576040517f08c379a000000000000000000000000000000000000000000000000000000000815260040161127390612e05565b60405180910390fd5b8073ffffffffffffffffffffffffffffffffffffffff1663a9059cbb856018600101546040518363ffffffff1660e01b81526004016112bc929190612d90565b6020604051808303816000875af11580156112db573d6000803e3d6000fd5b505050506040513d601f19601f820116820180604052508101906112ff9190612c77565b50601860010154601b600085815260200190815260200160002081905550600191505092915050565b600a602052816000526040600020818154811061134457600080fd5b90600052602060002001600091509150505481565b60056020528060005260406000206000915054906101000a900473ffffffffffffffffffffffffffffffffffffffff1681565b60095481565b6000600a6000838152602001908152602001600020805490509050919050565b600c6020528060005260406000206000915090505481565b601a6020528060005260406000206000915054906101000a900473ffffffffffffffffffffffffffffffffffffffff1681565b6001602052816000526040600020818154811061141957600080fd5b90600052602060002001600091509150505481565b600e6020528060005260406000206000915090505481565b60085481565b60106020528060005260406000206000915090505481565b60046020528160005260406000206020528060005260406000206000915091509054906101000a900460ff1681565b600060026000838152602001908152602001600020805490509050919050565b6000601260030160009054906101000a900473ffffffffffffffffffffffffffffffffffffffff1673ffffffffffffffffffffffffffffffffffffffff16630ef8dd956040518163ffffffff1660e01b81526004016020604051808303816000875af1158015611527573d6000803e3d6000fd5b505050506040513d601f19601f8201168201806040525081019061154b9190612e3a565b905090565b600061155b8261159a565b601860010154189050919050565b601c818154811061157957600080fd5b906000526020600020016000915090505481565b6000601860000154905090565b600060016000838152602001908152602001600020805490509050919050565b600080601260010160009054906101000a900473ffffffffffffffffffffffffffffffffffffffff1690508073ffffffffffffffffffffffffffffffffffffffff1663a9059cbb87866040518363ffffffff1660e01b8152600401611620929190612d90565b6020604051808303816000875af115801561163f573d6000803e3d6000fd5b505050506040513d601f19601f820116820180604052508101906116639190612c77565b508073ffffffffffffffffffffffffffffffffffffffff16634bbc1bcd30866040518363ffffffff1660e01b815260040161169f929190612d90565b600060405180830381600087803b1580156116b957600080fd5b505af11580156116cd573d6000803e3d6000fd5b505050506116dc8585856121e7565b6001915050949350505050565b6000806005600085815260200190815260200160002060009054906101000a900473ffffffffffffffffffffffffffffffffffffffff1690508073ffffffffffffffffffffffffffffffffffffffff163373ffffffffffffffffffffffffffffffffffffffff1614611790576040517f08c379a000000000000000000000000000000000000000000000000000000000815260040161178790612ed9565b60405180910390fd5b60008190506000601a60008373ffffffffffffffffffffffffffffffffffffffff1663685771f46040518163ffffffff1660e01b8152600401602060405180830381865afa1580156117e6573d6000803e3d6000fd5b505050506040513d601f19601f8201168201806040525081019061180a91906129a4565b815260200190815260200160002060009054906101000a900473ffffffffffffffffffffffffffffffffffffffff1690506000601260010160009054906101000a900473ffffffffffffffffffffffffffffffffffffffff1690508073ffffffffffffffffffffffffffffffffffffffff1663a9059cbb83886040518363ffffffff1660e01b81526004016118a0929190612d90565b6020604051808303816000875af11580156118bf573d6000803e3d6000fd5b505050506040513d601f19601f820116820180604052508101906118e39190612c77565b508073ffffffffffffffffffffffffffffffffffffffff16634bbc1bcd601260020160009054906101000a900473ffffffffffffffffffffffffffffffffffffffff1660016040518363ffffffff1660e01b8152600401611945929190612c22565b600060405180830381600087803b15801561195f57600080fd5b505af1158015611973573d6000803e3d6000fd5b50505050611980876122a1565b600194505050505092915050565b80601260030160006101000a81548173ffffffffffffffffffffffffffffffffffffffff021916908373ffffffffffffffffffffffffffffffffffffffff16021790555050565b60128060000160009054906101000a900473ffffffffffffffffffffffffffffffffffffffff16908060010160009054906101000a900473ffffffffffffffffffffffffffffffffffffffff16908060020160009054906101000a900473ffffffffffffffffffffffffffffffffffffffff16908060030160009054906101000a900473ffffffffffffffffffffffffffffffffffffffff16908060040160009054906101000a900473ffffffffffffffffffffffffffffffffffffffff16908060050160009054906101000a900473ffffffffffffffffffffffffffffffffffffffff16905086565b600b6020528060005260406000206000915054906101000a900473ffffffffffffffffffffffffffffffffffffffff1681565b60036020528060005260406000206000915090505481565b85601260000160006101000a81548173ffffffffffffffffffffffffffffffffffffffff021916908373ffffffffffffffffffffffffffffffffffffffff16021790555084601260010160006101000a81548173ffffffffffffffffffffffffffffffffffffffff021916908373ffffffffffffffffffffffffffffffffffffffff16021790555030601260020160006101000a81548173ffffffffffffffffffffffffffffffffffffffff021916908373ffffffffffffffffffffffffffffffffffffffff160217905550816018600001819055508060186001018190555083601260040160006101000a81548173ffffffffffffffffffffffffffffffffffffffff021916908373ffffffffffffffffffffffffffffffffffffffff16021790555082601260050160006101000a81548173ffffffffffffffffffffffffffffffffffffffff021916908373ffffffffffffffffffffffffffffffffffffffff160217905550505050505050565b600f5481565b60005481565b601b6020528060005260406000206000915090505481565b60075481565b600080611cb084611493565b60186000015418905080341015611cfc576040517f08c379a0000000000000000000000000000000000000000000000000000000008152600401611cf390612f45565b60405180910390fd5b6000601260010160009054906101000a900473ffffffffffffffffffffffffffffffffffffffff1690506000611d3186611550565b905060008273ffffffffffffffffffffffffffffffffffffffff166370a08231601a60008a815260200190815260200160002060009054906101000a900473ffffffffffffffffffffffffffffffffffffffff166040518263ffffffff1660e01b8152600401611da191906126c9565b602060405180830381865afa158015611dbe573d6000803e3d6000fd5b505050506040513d601f19601f82011682018060405250810190611de291906129a4565b905081811015611e27576040517f08c379a0000000000000000000000000000000000000000000000000000000008152600401611e1e90612fb1565b60405180910390fd5b6000611e57601260040160009054906101000a900473ffffffffffffffffffffffffffffffffffffffff16611fe0565b90508073ffffffffffffffffffffffffffffffffffffffff166348257aa46000548a30601260030160009054906101000a900473ffffffffffffffffffffffffffffffffffffffff168c6040518663ffffffff1660e01b8152600401611ec1959493929190612fd1565b600060405180830381600087803b158015611edb57600080fd5b505af1158015611eef573d6000803e3d6000fd5b505050506000819050611f058960005483612323565b8473ffffffffffffffffffffffffffffffffffffffff166342966c68856040518263ffffffff1660e01b8152600401611f3e91906125d8565b600060405180830381600087803b158015611f5857600080fd5b505af1158015611f6c573d6000803e3d6000fd5b505050508073ffffffffffffffffffffffffffffffffffffffff166108fc349081150290604051600060405180830381858888f19350505050158015611fb6573d6000803e3d6000fd5b506001965050505050505092915050565b6000818310611fd65781611fd8565b825b905092915050565b60006040517f3d602d80600a3d3981f3363d3d373d3d3d363d7300000000000000000000000081528260601b60148201527f5af43d82803e903d91602b57fd5bf3000000000000000000000000000000000060288201526037816000f0915050600073ffffffffffffffffffffffffffffffffffffffff168173ffffffffffffffffffffffffffffffffffffffff16036120af576040517f08c379a00000000000000000000000000000000000000000000000000000000081526004016120a690613070565b60405180910390fd5b919050565b6001600960008282546120c79190612b38565b9250508190555080600760008282546120e09190612b38565b92505081905550600a600085815260200190815260200160002083908060018154018082558091505060019003906000526020600020016000909190919091505580600d600086815260200190815260200160002060008282546121449190612b38565b9250508190555081600b600086815260200190815260200160002060006101000a81548173ffffffffffffffffffffffffffffffffffffffff021916908373ffffffffffffffffffffffffffffffffffffffff16021790555060016011600086815260200190815260200160002060006101000a81548160ff02191690831515021790555083600e60008581526020019081526020016000208190555050505050565b81600760008282546121f99190612ca4565b9250508190555081600860008282546122129190612b38565b925050819055506000600e600085815260200190815260200160002054905082600c600083815260200190815260200160002060008282546122549190612b38565b92505081905550600083836122699190612ca4565b0361229b5760006011600086815260200190815260200160002060006101000a81548160ff0219169083151502179055505b50505050565b6000600360008381526020019081526020016000205490506002600082815260200190815260200160002082908060018154018082558091505060019003906000526020600020016000909190919091505560006006600083815260200190815260200160002060006101000a81548160ff0219169083151502179055505050565b82600360008481526020019081526020016000208190555060016000848152602001908152602001600020829080600181540180825580915050600190039060005260206000200160009091909190915055600160046000848152602001908152602001600020600085815260200190815260200160002060006101000a81548160ff021916908315150217905550806005600084815260200190815260200160002060006101000a81548173ffffffffffffffffffffffffffffffffffffffff021916908373ffffffffffffffffffffffffffffffffffffffff16021790555060016000808282546124169190612b38565b9250508190555060016006600085815260200190815260200160002060006101000a81548160ff021916908315150217905550505050565b600080fd5b6000819050919050565b61246681612453565b811461247157600080fd5b50565b6000813590506124838161245d565b92915050565b60006020828403121561249f5761249e61244e565b5b60006124ad84828501612474565b91505092915050565b60008115159050919050565b6124cb816124b6565b82525050565b60006020820190506124e660008301846124c2565b92915050565b6000819050919050565b6124ff816124ec565b811461250a57600080fd5b50565b60008135905061251c816124f6565b92915050565b6000806000806080858703121561253c5761253b61244e565b5b600061254a87828801612474565b945050602061255b87828801612474565b935050604061256c87828801612474565b925050606061257d8782880161250d565b91505092959194509250565b600080604083850312156125a05761259f61244e565b5b60006125ae85828601612474565b92505060206125bf85828601612474565b9150509250929050565b6125d281612453565b82525050565b60006020820190506125ed60008301846125c9565b92915050565b600060408201905061260860008301856125c9565b61261560208301846125c9565b9392505050565b600073ffffffffffffffffffffffffffffffffffffffff82169050919050565b60006126478261261c565b9050919050565b6126578161263c565b811461266257600080fd5b50565b6000813590506126748161264e565b92915050565b600080604083850312156126915761269061244e565b5b600061269f85828601612665565b92505060206126b085828601612474565b9150509250929050565b6126c38161263c565b82525050565b60006020820190506126de60008301846126ba565b92915050565b600080600080608085870312156126fe576126fd61244e565b5b600061270c87828801612665565b945050602061271d87828801612474565b935050604061272e87828801612474565b925050606061273f87828801612474565b91505092959194509250565b6000602082840312156127615761276061244e565b5b600061276f84828501612665565b91505092915050565b600060c08201905061278d60008301896126ba565b61279a60208301886126ba565b6127a760408301876126ba565b6127b460608301866126ba565b6127c160808301856126ba565b6127ce60a08301846126ba565b979650505050505050565b60008060008060008060c087890312156127f6576127f561244e565b5b600061280489828a01612665565b965050602061281589828a01612665565b955050604061282689828a01612665565b945050606061283789828a01612665565b935050608061284889828a01612474565b92505060a061285989828a01612474565b9150509295509295509295565b6000806040838503121561287d5761287c61244e565b5b600061288b85828601612474565b925050602061289c8582860161250d565b9150509250929050565b600082825260208201905092915050565b7f43616c6c6572206973206e6f7420746865206f776e6572000000000000000000600082015250565b60006128ed6017836128a6565b91506128f8826128b7565b602082019050919050565b6000602082019050818103600083015261291c816128e0565b9050919050565b7f4e6f74206861766520656e6f756768206d617474657200000000000000000000600082015250565b60006129596016836128a6565b915061296482612923565b602082019050919050565b600060208201905081810360008301526129888161294c565b9050919050565b60008151905061299e8161245d565b92915050565b6000602082840312156129ba576129b961244e565b5b60006129c88482850161298f565b91505092915050565b7f4e6f74206869676820656e6f7567680000000000000000000000000000000000600082015250565b6000612a07600f836128a6565b9150612a12826129d1565b602082019050919050565b60006020820190508181036000830152612a36816129fa565b9050919050565b7f4e487b7100000000000000000000000000000000000000000000000000000000600052601260045260246000fd5b6000612a7782612453565b9150612a8283612453565b925082612a9257612a91612a3d565b5b828206905092915050565b7f447261772072617465206e6f7420646976697369626c65000000000000000000600082015250565b6000612ad36017836128a6565b9150612ade82612a9d565b602082019050919050565b60006020820190508181036000830152612b0281612ac6565b9050919050565b7f4e487b7100000000000000000000000000000000000000000000000000000000600052601160045260246000fd5b6000612b4382612453565b9150612b4e83612453565b9250828201905080821115612b6657612b65612b09565b5b92915050565b7f4e487b7100000000000000000000000000000000000000000000000000000000600052603260045260246000fd5b6000612ba682612453565b9150612bb183612453565b9250828202612bbf81612453565b91508282048414831517612bd657612bd5612b09565b5b5092915050565b6000819050919050565b6000819050919050565b6000612c0c612c07612c0284612bdd565b612be7565b612453565b9050919050565b612c1c81612bf1565b82525050565b6000604082019050612c3760008301856126ba565b612c446020830184612c13565b9392505050565b612c54816124b6565b8114612c5f57600080fd5b50565b600081519050612c7181612c4b565b92915050565b600060208284031215612c8d57612c8c61244e565b5b6000612c9b84828501612c62565b91505092915050565b6000612caf82612453565b9150612cba83612453565b9250828203905081811115612cd257612cd1612b09565b5b92915050565b6000612ce382612453565b91507fffffffffffffffffffffffffffffffffffffffffffffffffffffffffffffffff8203612d1557612d14612b09565b5b600182019050919050565b612d29816124ec565b82525050565b600060c082019050612d4460008301896125c9565b612d5160208301886125c9565b612d5e60408301876125c9565b612d6b60608301866125c9565b612d7860808301856126ba565b612d8560a0830184612d20565b979650505050505050565b6000604082019050612da560008301856126ba565b612db260208301846125c9565b9392505050565b7f4e6f7420656e6f756768206d6174746572000000000000000000000000000000600082015250565b6000612def6011836128a6565b9150612dfa82612db9565b602082019050919050565b60006020820190508181036000830152612e1e81612de2565b9050919050565b600081519050612e348161264e565b92915050565b600060208284031215612e5057612e4f61244e565b5b6000612e5e84828501612e25565b91505092915050565b7f43616c6c6572206973206e6f742074686520726967687420436f736d6f53656560008201527f6420636f6e747261637400000000000000000000000000000000000000000000602082015250565b6000612ec3602a836128a6565b9150612ece82612e67565b604082019050919050565b60006020820190508181036000830152612ef281612eb6565b9050919050565b7f45746865722076616c7565206973206e6f7420656e6f75676800000000000000600082015250565b6000612f2f6019836128a6565b9150612f3a82612ef9565b602082019050919050565b60006020820190508181036000830152612f5e81612f22565b9050919050565b7f4d61747465722062616c616e6365206973206e6f7420656e6f75676800000000600082015250565b6000612f9b601c836128a6565b9150612fa682612f65565b602082019050919050565b60006020820190508181036000830152612fca81612f8e565b9050919050565b600060a082019050612fe660008301886125c9565b612ff360208301876125c9565b61300060408301866126ba565b61300d60608301856126ba565b61301a6080830184612d20565b9695505050505050565b7f455243313136373a20637265617465206661696c656400000000000000000000600082015250565b600061305a6016836128a6565b915061306582613024565b602082019050919050565b600060208201905081810360008301526130898161304d565b905091905056fea2646970667358221220560bf32d3c3e3373c7aff653c191dbe58846409b73845169e60e76a26ef319f264736f6c63430008110033",
  "immutableReferences": {},
  "source": "// SPDX-License-Identifier: MIT\npragma solidity ^0.8.7;\n\nimport \"openzeppelin-solidity/contracts/utils/math/Math.sol\";\nimport { Clones } from \"openzeppelin-solidity/contracts/proxy/Clones.sol\";\n\nimport \"./CosmoMatter.sol\";\nimport \"./CosmoSeed.sol\";\nimport \"./CosmoButter.sol\";\nimport \"./ICosmoTreasury.sol\";\n\nimport \"./SeedAccounts.sol\";\nimport \"./ButterAccounts.sol\";\n\n/**\n * @dev Manages the matter balance of the CosmoNuts collection and handles interaction with the\n * ERC20 Token to mint, burn, and allocate balances\n * Acts as storage for the ERC 721 tokens on their created Seed and Butter contracts.\n */\n contract CosmoTreasury is SeedAccounts, ButterAccounts, ICosmoTreasury {\n\n     /**\n      * @dev Saved addresses include the contract which created the Treasury: UNIVERSE_ADDRESS, and\n      * the address of the CosmoNuts contract (NFTs) which is created after the Treasury and then updated: matter_ADDRESS.\n      */\n    struct AddressOf {\n        address system;\n        address matter;\n        address treasury;\n        address cosmos;\n        address seedImplementation;\n        address butterImplementation;\n    }\n    AddressOf public addressOf;\n\n    struct Nut {\n        uint256 price;\n        uint256 rate;\n    }\n    Nut public nut;\n\n    mapping(uint256 => address) public currentOwnerOfNut; // Record of current nut owners by address\n    mapping(uint256 => uint256) public matterBalanceOfNut; // Matter balance of each Nut recorded by the Treasury\n\n    uint256[] public nutsPayeeList; // List of nuts to be provided a balance\n\n    function initialize(\n        address _systemAddress,\n        address _matterAddress,\n        address _seedImplementation,\n        address _butterImplementation,\n        uint256 _price,\n        uint256 _rate\n    ) external {\n        addressOf.system = _systemAddress;\n        addressOf.matter = _matterAddress;\n        addressOf.treasury = address(this);\n        nut.price = _price;\n        nut.rate = _rate;\n\n        addressOf.seedImplementation = _seedImplementation;\n        addressOf.butterImplementation = _butterImplementation;\n    }\n\n    /*\n    modifier onlyUniverse {\n        require(address(msg.sender) == UNIVERSE_ADDRESS, \"Caller is not Universe\");\n        _;\n    }\n    */\n\n    function linkCosmo(address _cosmoAddress) external virtual override {\n        addressOf.cosmos = _cosmoAddress;\n    }\n\n    function getVaultLocation() public virtual override returns (address) {\n       return ICosmoNuts(addressOf.cosmos).vaultLocation();\n    }\n\n    function getPrice() public view virtual override returns (uint256) {\n        return nut.price;\n    }\n\n    function matterNeeded(uint256 _nutId) public view virtual override returns (uint256) {\n        return nut.rate ^ (numOfSeedsOf(_nutId));\n    }\n\n    function spawnSeed(uint256 _nutId, bytes32 _secretHash) external virtual override payable returns (bool) {\n        uint256 ethToHold = nut.price ^ (numOfSeedsGrownOf(_nutId));\n        require(msg.value >= ethToHold, \"Ether value is not enough\");\n\n        CosmoMatter matter = CosmoMatter(addressOf.matter);\n        uint256 matterToBurn = matterNeeded(_nutId);\n        uint256 matterOfOwner = matter.balanceOf(currentOwnerOfNut[_nutId]);\n        require(matterOfOwner >= matterToBurn, \"Matter balance is not enough\");\n\n        CosmoSeed cosmoseed = CosmoSeed(Clones.clone(addressOf.seedImplementation));\n        cosmoseed.initialize(\n            seedsCreated, _nutId, address(this), addressOf.cosmos, _secretHash\n        );\n\n        address seedLocation = address(cosmoseed);\n        integrateSeed(_nutId, seedsCreated, seedLocation);\n\n        matter.burn(matterToBurn);\n        payable(seedLocation).transfer(msg.value);\n\n        return true;\n    }\n\n    /**\n     * Called from CosmoSeed contract.\n     */\n    function seedFromNut(uint256 _seedId, uint256 _matterNeeded) external virtual override returns (bool) {\n        address seedAddress = seedLocations[_seedId];\n        require(address(msg.sender) == seedAddress, \"Caller is not the right CosmoSeed contract\");\n        //require(matter.balanceOf(address(msg.sender)) >= _matterNeeded, \"Not enough matter\");\n\n        CosmoSeed seed = CosmoSeed(seedAddress);\n\n        address nutOwner = currentOwnerOfNut[seed.nutId()];\n        CosmoMatter matter = CosmoMatter(addressOf.matter);\n        matter.transfer(nutOwner, _matterNeeded);\n        matter.mintMatter(addressOf.treasury, 1);\n\n        growSeed(_seedId);\n\n        return true;\n    }\n\n    /**\n     * Creating new butter means the creation of a contract where other users can withdraw matter from.\n     * Need to contribute butter (which can only be done if you have a Nut with the desired level of matter to give away.\n     * A secret message is provided in hash form and checked for verification to withdraw funds.\n     */\n    function newButter(\n        uint256 _nutId,\n        uint256 _matterContributed,\n        uint256 _matterDrawRate,\n        bytes32 _secretHash\n    ) external virtual override returns (bool) {\n        address nutOwner = currentOwnerOfNut[_nutId];\n        // Do we need to be doing these checks twice? Or really new check that caller is from contract (? or person who clicked?)\n        require(nutOwner == address(msg.sender), \"Caller is not the owner\");\n        require(matterBalanceOfNut[_nutId] >= _matterContributed, \"Not have enough matter\");\n        CosmoMatter matter = CosmoMatter(addressOf.matter);\n        require(_matterContributed <= matter.balanceOf(nutOwner), \"Not high enough\");\n        require(_matterContributed % _matterDrawRate == 0, \"Draw rate not divisible\");\n\n        /**\n         * A nut must have already grown a seed to start being counted as part of the deficiency list.\n         */\n        if (numOfSeedsGrownOf(_nutId) > 0) {\n            butterDeficiencyInUniverse += _matterContributed;\n            butterDeficiencyOfNut[_nutId] += _matterContributed;\n            nutsPayeeList.push(_nutId);\n        }\n\n        /**\n         * The Treasury wants to distribute its available balance to the nutsPayeeList.\n         * It will distribute the minimum of either its available balance or the deficiency in the Universe.\n         * All payees are awarded one matter and moved to the end of the list.\n         * When their maximum available balance is reached, they are removed from the payee list.\n         */\n        uint256 matterInTreasury = matter.balanceOf(addressOf.treasury);\n        if (matterInTreasury > 0) {\n            uint256 toDistribute = Math.min(matterInTreasury, butterDeficiencyInUniverse);\n\n            uint256 index = 0;\n            for (uint j = 0; j != toDistribute; j++) {\n                uint256 allPayees = nutsPayeeList.length;\n                if (allPayees == 0) {\n                    break;\n                }\n\n                if (j > allPayees) {\n                    index = 0;\n                }\n\n                uint256 nutPayeeId = nutsPayeeList[index];\n                address nutOwnerPayee = currentOwnerOfNut[nutPayeeId];\n                uint256 maxMatter = numOfSeedsGrownOf(nutPayeeId) * nut.rate;\n                if (matterBalanceOfNut[nutPayeeId] == maxMatter) {\n                    delete nutsPayeeList[index];\n                } else {\n                    matter.transfer(nutOwnerPayee, 1);\n                    nutsPayeeList.push(nutPayeeId);\n                    delete nutsPayeeList[index];\n\n                    butterDeficiencyInUniverse -= 1;\n                    butterDeficiencyOfNut[nutPayeeId] -= 1;\n                }\n\n                index++;\n           }\n        }\n\n        CosmoButter butter = CosmoButter(Clones.clone(addressOf.butterImplementation));\n        butter.initialize(\n            butterJars, _nutId, _matterContributed, _matterDrawRate, addressOf.treasury, _secretHash\n        );\n\n        matter.transfer(address(butter), _matterContributed);\n        churnButter(_nutId, butterJars, address(butter), _matterContributed);\n\n        return true;\n\n    }\n\n    /**\n     * Runs from CosmoButter contract when someone requests to draw matter.\n     */\n    function butterDrawn(\n        address _drawer,\n        uint256 _butterId,\n        uint256 _balance,\n        uint256 _currentBalance\n    ) external virtual override returns (bool) {\n        CosmoMatter matter = CosmoMatter(addressOf.matter);\n        matter.transfer(_drawer, _balance);\n        matter.mintMatter(address(this), _balance);\n        distributeButter(_butterId, _balance, _currentBalance);\n\n        return true;\n    }\n\n    function assignMintBalance(address _tokenOwner, uint256 _tokenId) external virtual override returns (bool) {\n        CosmoMatter matter = CosmoMatter(addressOf.matter);\n        require(matter.balanceOf(addressOf.treasury) >= nut.rate, \"Not enough matter\");\n        matter.transfer(_tokenOwner, nut.rate);\n        matterBalanceOfNut[_tokenId] = nut.rate;\n\n        return true;\n    }\n\n}\n",
  "sourcePath": "/home/redlentils/Seafile/Websites/avatarnft/contracts/CosmoTreasury.sol",
  "compiler": {
    "name": "solc",
    "version": "0.8.17+commit.8df45f5f.Emscripten.clang"
  },
  "schemaVersion": "3.4.10",
  "updatedAt": "2022-10-20T09:50:48.628Z",
  "devdoc": {
    "details": "Manages the matter balance of the CosmoNuts collection and handles interaction with the ERC20 Token to mint, burn, and allocate balances Acts as storage for the ERC 721 tokens on their created Seed and Butter contracts.",
    "kind": "dev",
    "methods": {},
    "version": 1
  },
  "userdoc": {
    "kind": "user",
    "methods": {
      "butterDrawn(address,uint256,uint256,uint256)": {
        "notice": "Runs from CosmoButter contract when someone requests to draw matter."
      },
      "butterWeight()": {
        "notice": "butterWeight is the amount of matter in the universe that is currently outstanding. butterSpread is the amount of matter that has been distributed from butterWeight, thus reducing its value. butterJars represent the total number of matter contracts created in the Universe."
      },
      "buttersOfNut(uint256,uint256)": {
        "notice": "buttersOfNut represents a list of all butter contracts created byt that nut. butterLocations represents the address of contract identifed by butterId."
      },
      "newButter(uint256,uint256,uint256,bytes32)": {
        "notice": "Creating new butter means the creation of a contract where other users can withdraw matter from. Need to contribute butter (which can only be done if you have a Nut with the desired level of matter to give away. A secret message is provided in hash form and checked for verification to withdraw funds."
      },
      "seedFromNut(uint256,uint256)": {
        "notice": "Called from CosmoSeed contract."
      }
    },
    "version": 1
  }
}