{
  "contractName": "CosmoUniverse",
  "abi": [
    {
      "inputs": [
        {
          "internalType": "address",
          "name": "_systemAddress",
          "type": "address"
        },
        {
          "internalType": "string",
          "name": "_matterName",
          "type": "string"
        },
        {
          "internalType": "string",
          "name": "_matterSymbol",
          "type": "string"
        }
      ],
      "stateMutability": "nonpayable",
      "type": "constructor"
    },
    {
      "anonymous": false,
      "inputs": [
        {
          "indexed": true,
          "internalType": "address",
          "name": "previousOwner",
          "type": "address"
        },
        {
          "indexed": true,
          "internalType": "address",
          "name": "newOwner",
          "type": "address"
        }
      ],
      "name": "OwnershipTransferred",
      "type": "event"
    },
    {
      "inputs": [],
      "name": "MATTER_ADDRESS",
      "outputs": [
        {
          "internalType": "address",
          "name": "",
          "type": "address"
        }
      ],
      "stateMutability": "view",
      "type": "function"
    },
    {
      "inputs": [],
      "name": "SYSTEM_ADDRESS",
      "outputs": [
        {
          "internalType": "address",
          "name": "",
          "type": "address"
        }
      ],
      "stateMutability": "view",
      "type": "function"
    },
    {
      "inputs": [],
      "name": "owner",
      "outputs": [
        {
          "internalType": "address",
          "name": "",
          "type": "address"
        }
      ],
      "stateMutability": "view",
      "type": "function"
    },
    {
      "inputs": [],
      "name": "renounceOwnership",
      "outputs": [],
      "stateMutability": "nonpayable",
      "type": "function"
    },
    {
      "inputs": [
        {
          "internalType": "address",
          "name": "newOwner",
          "type": "address"
        }
      ],
      "name": "transferOwnership",
      "outputs": [],
      "stateMutability": "nonpayable",
      "type": "function"
    },
    {
      "inputs": [
        {
          "internalType": "string",
          "name": "_cosmosName",
          "type": "string"
        },
        {
          "internalType": "string",
          "name": "_cosmosSymbol",
          "type": "string"
        },
        {
          "internalType": "uint256",
          "name": "_desiredEntities",
          "type": "uint256"
        },
        {
          "internalType": "uint256",
          "name": "_matterRate",
          "type": "uint256"
        }
      ],
      "name": "bigBang",
      "outputs": [],
      "stateMutability": "nonpayable",
      "type": "function"
    }
  ],
  "bytecode": "0x60806040523480156200001157600080fd5b506040516200eb613803806200eb61833981810160405281019062000037919062000451565b620000576200004b6200017f60201b60201c565b6200018760201b60201c565b82600160006101000a81548173ffffffffffffffffffffffffffffffffffffffff021916908373ffffffffffffffffffffffffffffffffffffffff1602179055508181604051620000a8906200024b565b620000b592919062000548565b604051809103906000f080158015620000d2573d6000803e3d6000fd5b50600a60006101000a81548173ffffffffffffffffffffffffffffffffffffffff021916908373ffffffffffffffffffffffffffffffffffffffff160217905550600a60009054906101000a900473ffffffffffffffffffffffffffffffffffffffff16600260006101000a81548173ffffffffffffffffffffffffffffffffffffffff021916908373ffffffffffffffffffffffffffffffffffffffff16021790555050505062000583565b600033905090565b60008060009054906101000a900473ffffffffffffffffffffffffffffffffffffffff169050816000806101000a81548173ffffffffffffffffffffffffffffffffffffffff021916908373ffffffffffffffffffffffffffffffffffffffff1602179055508173ffffffffffffffffffffffffffffffffffffffff168173ffffffffffffffffffffffffffffffffffffffff167f8be0079c531659141344cd1fd0a4f28419497f9722a3daafe3b4186f6b6457e060405160405180910390a35050565b611f88806200cbd983390190565b6000604051905090565b600080fd5b600080fd5b600073ffffffffffffffffffffffffffffffffffffffff82169050919050565b60006200029a826200026d565b9050919050565b620002ac816200028d565b8114620002b857600080fd5b50565b600081519050620002cc81620002a1565b92915050565b600080fd5b600080fd5b6000601f19601f8301169050919050565b7f4e487b7100000000000000000000000000000000000000000000000000000000600052604160045260246000fd5b6200032782620002dc565b810181811067ffffffffffffffff82111715620003495762000348620002ed565b5b80604052505050565b60006200035e62000259565b90506200036c82826200031c565b919050565b600067ffffffffffffffff8211156200038f576200038e620002ed565b5b6200039a82620002dc565b9050602081019050919050565b60005b83811015620003c7578082015181840152602081019050620003aa565b60008484015250505050565b6000620003ea620003e48462000371565b62000352565b905082815260208101848484011115620004095762000408620002d7565b5b62000416848285620003a7565b509392505050565b600082601f830112620004365762000435620002d2565b5b815162000448848260208601620003d3565b91505092915050565b6000806000606084860312156200046d576200046c62000263565b5b60006200047d86828701620002bb565b935050602084015167ffffffffffffffff811115620004a157620004a062000268565b5b620004af868287016200041e565b925050604084015167ffffffffffffffff811115620004d357620004d262000268565b5b620004e1868287016200041e565b9150509250925092565b600081519050919050565b600082825260208201905092915050565b60006200051482620004eb565b620005208185620004f6565b935062000532818560208601620003a7565b6200053d81620002dc565b840191505092915050565b6000604082019050818103600083015262000564818562000507565b905081810360208301526200057a818462000507565b90509392505050565b61c64680620005936000396000f3fe60806040523480156200001157600080fd5b50600436106200006a5760003560e01c80633434735f146200006f57806364b1b6631462000091578063715018a614620000b35780638da5cb5b14620000bf578063a5c195f014620000e1578063f2fde38b1462000101575b600080fd5b6200007962000121565b6040516200008891906200099c565b60405180910390f35b6200009b62000147565b604051620000aa91906200099c565b60405180910390f35b620000bd6200016d565b005b620000c9620001fe565b604051620000d891906200099c565b60405180910390f35b620000ff6004803603810190620000f9919062000b6a565b62000227565b005b6200011f600480360381019062000119919062000c4b565b6200077a565b005b600160009054906101000a900473ffffffffffffffffffffffffffffffffffffffff1681565b600260009054906101000a900473ffffffffffffffffffffffffffffffffffffffff1681565b620001776200087d565b73ffffffffffffffffffffffffffffffffffffffff1662000197620001fe565b73ffffffffffffffffffffffffffffffffffffffff1614620001f0576040517f08c379a0000000000000000000000000000000000000000000000000000000008152600401620001e79062000cde565b60405180910390fd5b620001fc600062000885565b565b60008060009054906101000a900473ffffffffffffffffffffffffffffffffffffffff16905090565b620002316200087d565b73ffffffffffffffffffffffffffffffffffffffff1662000251620001fe565b73ffffffffffffffffffffffffffffffffffffffff1614620002aa576040517f08c379a0000000000000000000000000000000000000000000000000000000008152600401620002a19062000cde565b60405180910390fd5b60008183620002ba919062000d2f565b9050600a60009054906101000a900473ffffffffffffffffffffffffffffffffffffffff1673ffffffffffffffffffffffffffffffffffffffff16634bbc1bcd30836040518363ffffffff1660e01b81526004016200031b92919062000d8b565b600060405180830381600087803b1580156200033657600080fd5b505af11580156200034b573d6000803e3d6000fd5b505050506000600160009054906101000a900473ffffffffffffffffffffffffffffffffffffffff16600260009054906101000a900473ffffffffffffffffffffffffffffffffffffffff1687878787604051620003a99062000949565b620003ba9695949392919062000e30565b604051809103906000f080158015620003d7573d6000803e3d6000fd5b509050600060098054905090506040518060c001604052808281526020016001151581526020018881526020018781526020018373ffffffffffffffffffffffffffffffffffffffff1663235d2c8a6040518163ffffffff1660e01b8152600401602060405180830381865afa15801562000456573d6000803e3d6000fd5b505050506040513d601f19601f820116820180604052508101906200047c919062000ec2565b73ffffffffffffffffffffffffffffffffffffffff1681526020018373ffffffffffffffffffffffffffffffffffffffff166307604b1a6040518163ffffffff1660e01b8152600401602060405180830381865afa158015620004e3573d6000803e3d6000fd5b505050506040513d601f19601f8201168201806040525081019062000509919062000ec2565b73ffffffffffffffffffffffffffffffffffffffff1681525060036000820151816000015560208201518160010160006101000a81548160ff02191690831515021790555060408201518160020190816200056591906200112a565b5060608201518160030190816200057d91906200112a565b5060808201518160040160006101000a81548173ffffffffffffffffffffffffffffffffffffffff021916908373ffffffffffffffffffffffffffffffffffffffff16021790555060a08201518160050160006101000a81548173ffffffffffffffffffffffffffffffffffffffff021916908373ffffffffffffffffffffffffffffffffffffffff160217905550905050600960039080600181540180825580915050600190039060005260206000209060060201600090919091909150600082015481600001556001820160009054906101000a900460ff168160010160006101000a81548160ff0219169083151502179055506002820181600201908162000689919062001229565b5060038201816003019081620006a0919062001229565b506004820160009054906101000a900473ffffffffffffffffffffffffffffffffffffffff168160040160006101000a81548173ffffffffffffffffffffffffffffffffffffffff021916908373ffffffffffffffffffffffffffffffffffffffff1602179055506005820160009054906101000a900473ffffffffffffffffffffffffffffffffffffffff168160050160006101000a81548173ffffffffffffffffffffffffffffffffffffffff021916908373ffffffffffffffffffffffffffffffffffffffff160217905550505050505050505050565b620007846200087d565b73ffffffffffffffffffffffffffffffffffffffff16620007a4620001fe565b73ffffffffffffffffffffffffffffffffffffffff1614620007fd576040517f08c379a0000000000000000000000000000000000000000000000000000000008152600401620007f49062000cde565b60405180910390fd5b600073ffffffffffffffffffffffffffffffffffffffff168173ffffffffffffffffffffffffffffffffffffffff16036200086f576040517f08c379a00000000000000000000000000000000000000000000000000000000081526004016200086690620013a0565b60405180910390fd5b6200087a8162000885565b50565b600033905090565b60008060009054906101000a900473ffffffffffffffffffffffffffffffffffffffff169050816000806101000a81548173ffffffffffffffffffffffffffffffffffffffff021916908373ffffffffffffffffffffffffffffffffffffffff1602179055508173ffffffffffffffffffffffffffffffffffffffff168173ffffffffffffffffffffffffffffffffffffffff167f8be0079c531659141344cd1fd0a4f28419497f9722a3daafe3b4186f6b6457e060405160405180910390a35050565b61b24e80620013c383390190565b600073ffffffffffffffffffffffffffffffffffffffff82169050919050565b6000620009848262000957565b9050919050565b620009968162000977565b82525050565b6000602082019050620009b360008301846200098b565b92915050565b6000604051905090565b600080fd5b600080fd5b600080fd5b600080fd5b6000601f19601f8301169050919050565b7f4e487b7100000000000000000000000000000000000000000000000000000000600052604160045260246000fd5b62000a2282620009d7565b810181811067ffffffffffffffff8211171562000a445762000a43620009e8565b5b80604052505050565b600062000a59620009b9565b905062000a67828262000a17565b919050565b600067ffffffffffffffff82111562000a8a5762000a89620009e8565b5b62000a9582620009d7565b9050602081019050919050565b82818337600083830152505050565b600062000ac862000ac28462000a6c565b62000a4d565b90508281526020810184848401111562000ae75762000ae6620009d2565b5b62000af484828562000aa2565b509392505050565b600082601f83011262000b145762000b13620009cd565b5b813562000b2684826020860162000ab1565b91505092915050565b6000819050919050565b62000b448162000b2f565b811462000b5057600080fd5b50565b60008135905062000b648162000b39565b92915050565b6000806000806080858703121562000b875762000b86620009c3565b5b600085013567ffffffffffffffff81111562000ba85762000ba7620009c8565b5b62000bb68782880162000afc565b945050602085013567ffffffffffffffff81111562000bda5762000bd9620009c8565b5b62000be88782880162000afc565b935050604062000bfb8782880162000b53565b925050606062000c0e8782880162000b53565b91505092959194509250565b62000c258162000977565b811462000c3157600080fd5b50565b60008135905062000c458162000c1a565b92915050565b60006020828403121562000c645762000c63620009c3565b5b600062000c748482850162000c34565b91505092915050565b600082825260208201905092915050565b7f4f776e61626c653a2063616c6c6572206973206e6f7420746865206f776e6572600082015250565b600062000cc660208362000c7d565b915062000cd38262000c8e565b602082019050919050565b6000602082019050818103600083015262000cf98162000cb7565b9050919050565b7f4e487b7100000000000000000000000000000000000000000000000000000000600052601160045260246000fd5b600062000d3c8262000b2f565b915062000d498362000b2f565b925082820262000d598162000b2f565b9150828204841483151762000d735762000d7262000d00565b5b5092915050565b62000d858162000b2f565b82525050565b600060408201905062000da260008301856200098b565b62000db1602083018462000d7a565b9392505050565b600081519050919050565b60005b8381101562000de357808201518184015260208101905062000dc6565b60008484015250505050565b600062000dfc8262000db8565b62000e08818562000c7d565b935062000e1a81856020860162000dc3565b62000e2581620009d7565b840191505092915050565b600060c08201905062000e4760008301896200098b565b62000e5660208301886200098b565b818103604083015262000e6a818762000def565b9050818103606083015262000e80818662000def565b905062000e91608083018562000d7a565b62000ea060a083018462000d7a565b979650505050505050565b60008151905062000ebc8162000c1a565b92915050565b60006020828403121562000edb5762000eda620009c3565b5b600062000eeb8482850162000eab565b91505092915050565b7f4e487b7100000000000000000000000000000000000000000000000000000000600052602260045260246000fd5b6000600282049050600182168062000f3c57607f821691505b60208210810362000f525762000f5162000ef4565b5b50919050565b60008190508160005260206000209050919050565b60006020601f8301049050919050565b600082821b905092915050565b60006008830262000fbc7fffffffffffffffffffffffffffffffffffffffffffffffffffffffffffffffff8262000f7d565b62000fc8868362000f7d565b95508019841693508086168417925050509392505050565b6000819050919050565b60006200100b6200100562000fff8462000b2f565b62000fe0565b62000b2f565b9050919050565b6000819050919050565b620010278362000fea565b6200103f620010368262001012565b84845462000f8a565b825550505050565b600090565b6200105662001047565b620010638184846200101c565b505050565b5b818110156200108b576200107f6000826200104c565b60018101905062001069565b5050565b601f821115620010da57620010a48162000f58565b620010af8462000f6d565b81016020851015620010bf578190505b620010d7620010ce8562000f6d565b83018262001068565b50505b505050565b600082821c905092915050565b6000620010ff60001984600802620010df565b1980831691505092915050565b60006200111a8383620010ec565b9150826002028217905092915050565b620011358262000db8565b67ffffffffffffffff811115620011515762001150620009e8565b5b6200115d825462000f23565b6200116a8282856200108f565b600060209050601f831160018114620011a257600084156200118d578287015190505b6200119985826200110c565b86555062001209565b601f198416620011b28662000f58565b60005b82811015620011dc57848901518255600182019150602085019450602081019050620011b5565b86831015620011fc5784890151620011f8601f891682620010ec565b8355505b6001600288020188555050505b505050505050565b600081549050620012228162000f23565b9050919050565b8181036200123957505062001328565b620012448262001211565b67ffffffffffffffff81111562001260576200125f620009e8565b5b6200126c825462000f23565b620012798282856200108f565b6000601f831160018114620012ad576000841562001298578287015490505b620012a485826200110c565b86555062001321565b601f198416620012bd8762000f58565b9650620012ca8662000f58565b60005b82811015620012f457848901548255600182019150600185019450602081019050620012cd565b8683101562001314578489015462001310601f891682620010ec565b8355505b6001600288020188555050505b5050505050505b565b7f4f776e61626c653a206e6577206f776e657220697320746865207a65726f206160008201527f6464726573730000000000000000000000000000000000000000000000000000602082015250565b60006200138860268362000c7d565b915062001395826200132a565b604082019050919050565b60006020820190508181036000830152620013bb8162001379565b905091905056fe60806040523480156200001157600080fd5b506040516200b24e3803806200b24e833981810160405281019062000037919062000475565b8481604051620000479062000226565b6200005492919062000571565b604051809103906000f08015801562000071573d6000803e3d6000fd5b50600360006101000a81548173ffffffffffffffffffffffffffffffffffffffff021916908373ffffffffffffffffffffffffffffffffffffffff16021790555083838388600360009054906101000a900473ffffffffffffffffffffffffffffffffffffffff16604051620000e79062000234565b620000f7959493929190620005fb565b604051809103906000f08015801562000114573d6000803e3d6000fd5b50600260006101000a81548173ffffffffffffffffffffffffffffffffffffffff021916908373ffffffffffffffffffffffffffffffffffffffff160217905550600360009054906101000a900473ffffffffffffffffffffffffffffffffffffffff16600160006101000a81548173ffffffffffffffffffffffffffffffffffffffff021916908373ffffffffffffffffffffffffffffffffffffffff160217905550600260009054906101000a900473ffffffffffffffffffffffffffffffffffffffff166000806101000a81548173ffffffffffffffffffffffffffffffffffffffff021916908373ffffffffffffffffffffffffffffffffffffffff16021790555050505050505062000666565b614df580620007c983390190565b615c9080620055be83390190565b6000604051905090565b600080fd5b600080fd5b600073ffffffffffffffffffffffffffffffffffffffff82169050919050565b6000620002838262000256565b9050919050565b620002958162000276565b8114620002a157600080fd5b50565b600081519050620002b5816200028a565b92915050565b600080fd5b600080fd5b6000601f19601f8301169050919050565b7f4e487b7100000000000000000000000000000000000000000000000000000000600052604160045260246000fd5b6200031082620002c5565b810181811067ffffffffffffffff82111715620003325762000331620002d6565b5b80604052505050565b60006200034762000242565b905062000355828262000305565b919050565b600067ffffffffffffffff821115620003785762000377620002d6565b5b6200038382620002c5565b9050602081019050919050565b60005b83811015620003b057808201518184015260208101905062000393565b60008484015250505050565b6000620003d3620003cd846200035a565b6200033b565b905082815260208101848484011115620003f257620003f1620002c0565b5b620003ff84828562000390565b509392505050565b600082601f8301126200041f576200041e620002bb565b5b815162000431848260208601620003bc565b91505092915050565b6000819050919050565b6200044f816200043a565b81146200045b57600080fd5b50565b6000815190506200046f8162000444565b92915050565b60008060008060008060c087890312156200049557620004946200024c565b5b6000620004a589828a01620002a4565b9650506020620004b889828a01620002a4565b955050604087015167ffffffffffffffff811115620004dc57620004db62000251565b5b620004ea89828a0162000407565b945050606087015167ffffffffffffffff8111156200050e576200050d62000251565b5b6200051c89828a0162000407565b93505060806200052f89828a016200045e565b92505060a06200054289828a016200045e565b9150509295509295509295565b6200055a8162000276565b82525050565b6200056b816200043a565b82525050565b60006040820190506200058860008301856200054f565b62000597602083018462000560565b9392505050565b600081519050919050565b600082825260208201905092915050565b6000620005c7826200059e565b620005d38185620005a9565b9350620005e581856020860162000390565b620005f081620002c5565b840191505092915050565b600060a0820190508181036000830152620006178188620005ba565b905081810360208301526200062d8187620005ba565b90506200063e604083018662000560565b6200064d60608301856200054f565b6200065c60808301846200054f565b9695505050505050565b61015380620006766000396000f3fe608060405234801561001057600080fd5b50600436106100365760003560e01c806307604b1a1461003b578063235d2c8a14610059575b600080fd5b610043610077565b6040516100509190610102565b60405180910390f35b61006161009d565b60405161006e9190610102565b60405180910390f35b600160009054906101000a900473ffffffffffffffffffffffffffffffffffffffff1681565b60008054906101000a900473ffffffffffffffffffffffffffffffffffffffff1681565b600073ffffffffffffffffffffffffffffffffffffffff82169050919050565b60006100ec826100c1565b9050919050565b6100fc816100e1565b82525050565b600060208201905061011760008301846100f3565b9291505056fea2646970667358221220d6f37d2e3d55cba84866aa62237257b8a2c5ce840d12152a9e484f88e5ab3baa64736f6c634300081100336080604052600080556000600755600060085560006009556000600f553480156200002957600080fd5b5060405162004df538038062004df583398181016040528101906200004f9190620002e8565b81601260006101000a81548173ffffffffffffffffffffffffffffffffffffffff021916908373ffffffffffffffffffffffffffffffffffffffff16021790555080601481905550601260009054906101000a900473ffffffffffffffffffffffffffffffffffffffff16601a60006101000a81548173ffffffffffffffffffffffffffffffffffffffff021916908373ffffffffffffffffffffffffffffffffffffffff160217905550601a60009054906101000a900473ffffffffffffffffffffffffffffffffffffffff1673ffffffffffffffffffffffffffffffffffffffff166318160ddd6040518163ffffffff1660e01b8152600401602060405180830381865afa15801562000168573d6000803e3d6000fd5b505050506040513d601f19601f820116820180604052508101906200018e91906200032f565b601581905550601a60009054906101000a900473ffffffffffffffffffffffffffffffffffffffff1673ffffffffffffffffffffffffffffffffffffffff166370a08231306040518263ffffffff1660e01b8152600401620001f1919062000372565b602060405180830381865afa1580156200020f573d6000803e3d6000fd5b505050506040513d601f19601f820116820180604052508101906200023591906200032f565b60168190555050506200038f565b600080fd5b600073ffffffffffffffffffffffffffffffffffffffff82169050919050565b6000620002758262000248565b9050919050565b620002878162000268565b81146200029357600080fd5b50565b600081519050620002a7816200027c565b92915050565b6000819050919050565b620002c281620002ad565b8114620002ce57600080fd5b50565b600081519050620002e281620002b7565b92915050565b6000806040838503121562000302576200030162000243565b5b6000620003128582860162000296565b92505060206200032585828601620002d1565b9150509250929050565b60006020828403121562000348576200034762000243565b5b60006200035884828501620002d1565b91505092915050565b6200036c8162000268565b82525050565b600060208201905062000389600083018462000361565b92915050565b614a56806200039f6000396000f3fe608060405260043610620002125760003560e01c80634ffe5a6f116200011b578063b876ec0a11620000a3578063ea0f1366116200006d578063ea0f1366146200086b578063ea988be814620008af578063f50d434914620008df578063f6317f8d14620009235762000212565b8063b876ec0a14620007a7578063b8a9736d14620007c7578063d4d8103214620007f7578063df4f5ccc146200083b5762000212565b80639578d3df11620000e55780639578d3df14620006c15780639cee22b11462000705578063a89092c11462000733578063aef054ce14620007635762000212565b80634ffe5a6f14620005db57806353f97bc8146200061f57806364b1b6631462000663578063733b0bca14620006935762000212565b8063282adc8c116200019f57806339dc84f4116200016957806339dc84f414620004f35780633c89d09f146200053757806347634e1c146200056757806349a6b51f14620005ab5762000212565b8063282adc8c14620003f75780632c533085146200043b57806331ad1b42146200046b5780633279bd4f14620004af5762000212565b80631c85949c11620001e15780631c85949c14620003115780631e0b3964146200033f57806323f526c0146200038357806326342ea414620003c75762000212565b806302760a48146200021757806303f5de9d146200025b578063171e844114620002895780631821907a14620002cd575b600080fd5b3480156200022457600080fd5b506200024360048036038101906200023d919062002485565b62000953565b604051620002529190620024d4565b60405180910390f35b3480156200026857600080fd5b506200028760048036038101906200028191906200252c565b62000973565b005b3480156200029657600080fd5b50620002b56004803603810190620002af919062002485565b62001141565b604051620002c49190620024d4565b60405180910390f35b348015620002da57600080fd5b50620002f96004803603810190620002f3919062002485565b62001161565b604051620003089190620025af565b60405180910390f35b3480156200031e57600080fd5b506200033d600480360381019062000337919062002631565b62001179565b005b3480156200034c57600080fd5b506200036b600480360381019062000365919062002678565b620012a6565b6040516200037a9190620025af565b60405180910390f35b3480156200039057600080fd5b50620003af6004803603810190620003a9919062002485565b620012d8565b604051620003be9190620026d0565b60405180910390f35b348015620003d457600080fd5b50620003df6200130b565b604051620003ee9190620025af565b60405180910390f35b3480156200040457600080fd5b506200042360048036038101906200041d919062002485565b62001311565b604051620004329190620025af565b60405180910390f35b3480156200044857600080fd5b506200045362001331565b604051620004629190620025af565b60405180910390f35b3480156200047857600080fd5b5062000497600480360381019062000491919062002485565b62001337565b604051620004a69190620025af565b60405180910390f35b348015620004bc57600080fd5b50620004db6004803603810190620004d5919062002485565b6200134f565b604051620004ea9190620025af565b60405180910390f35b3480156200050057600080fd5b506200051f600480360381019062000519919062002485565b62001367565b6040516200052e9190620026d0565b60405180910390f35b3480156200054457600080fd5b506200054f6200139a565b6040516200055e9190620025af565b60405180910390f35b3480156200057457600080fd5b506200059360048036038101906200058d919062002485565b620013a0565b604051620005a29190620025af565b60405180910390f35b348015620005b857600080fd5b50620005c3620013b8565b604051620005d29190620025af565b60405180910390f35b348015620005e857600080fd5b5062000607600480360381019062000601919062002485565b620013be565b604051620006169190620025af565b60405180910390f35b3480156200062c57600080fd5b506200064b600480360381019062000645919062002678565b620013d6565b6040516200065a9190620024d4565b60405180910390f35b3480156200067057600080fd5b506200067b62001405565b6040516200068a9190620026d0565b60405180910390f35b348015620006a057600080fd5b50620006bf6004803603810190620006b9919062002678565b6200142b565b005b348015620006ce57600080fd5b50620006ed6004803603810190620006e7919062002485565b620018f3565b604051620006fc9190620025af565b60405180910390f35b3480156200071257600080fd5b506200073160048036038101906200072b9190620026ed565b62001918565b005b3480156200074057600080fd5b506200074b62001ba5565b6040516200075a9190620025af565b60405180910390f35b3480156200077057600080fd5b506200078f600480360381019062000789919062002485565b62001bab565b6040516200079e9190620026d0565b60405180910390f35b620007c56004803603810190620007bf91906200275f565b62001bde565b005b348015620007d457600080fd5b50620007df62001ff2565b604051620007ee9190620025af565b60405180910390f35b3480156200080457600080fd5b506200082360048036038101906200081d919062002485565b62001ff8565b604051620008329190620025af565b60405180910390f35b3480156200084857600080fd5b506200085362002010565b604051620008629190620025af565b60405180910390f35b3480156200087857600080fd5b5062000897600480360381019062000891919062002485565b62002016565b604051620008a69190620025af565b60405180910390f35b348015620008bc57600080fd5b50620008c76200202e565b604051620008d69190620025af565b60405180910390f35b348015620008ec57600080fd5b506200090b600480360381019062000905919062002485565b62002034565b6040516200091a9190620025af565b60405180910390f35b3480156200093057600080fd5b506200093b6200204c565b6040516200094a9190620025af565b60405180910390f35b60116020528060005260406000206000915054906101000a900460ff1681565b60006017600086815260200190815260200160002060009054906101000a900473ffffffffffffffffffffffffffffffffffffffff1690503373ffffffffffffffffffffffffffffffffffffffff168173ffffffffffffffffffffffffffffffffffffffff161462000a1c576040517f08c379a000000000000000000000000000000000000000000000000000000000815260040162000a13906200281c565b60405180910390fd5b836018600087815260200190815260200160002054101562000a75576040517f08c379a000000000000000000000000000000000000000000000000000000000815260040162000a6c906200288e565b60405180910390fd5b601a60009054906101000a900473ffffffffffffffffffffffffffffffffffffffff1673ffffffffffffffffffffffffffffffffffffffff166370a08231826040518263ffffffff1660e01b815260040162000ad29190620026d0565b602060405180830381865afa15801562000af0573d6000803e3d6000fd5b505050506040513d601f19601f8201168201806040525081019062000b169190620028c7565b84111562000b5b576040517f08c379a000000000000000000000000000000000000000000000000000000000815260040162000b529062002949565b60405180910390fd5b6000838562000b6b91906200299a565b1462000bae576040517f08c379a000000000000000000000000000000000000000000000000000000000815260040162000ba59062002a22565b60405180910390fd5b60006002600087815260200190815260200160002054111562000c3c5783600f600082825462000bdf919062002a73565b925050819055508360106000878152602001908152602001600020600082825462000c0b919062002a73565b9250508190555060198590806001815401808255809150506001900390600052602060002001600090919091909150555b601a60009054906101000a900473ffffffffffffffffffffffffffffffffffffffff1673ffffffffffffffffffffffffffffffffffffffff166370a08231306040518263ffffffff1660e01b815260040162000c999190620026d0565b602060405180830381865afa15801562000cb7573d6000803e3d6000fd5b505050506040513d601f19601f8201168201806040525081019062000cdd9190620028c7565b601681905550600060165411156200101657600062000d01601654600f5462002052565b90506000805b82811462000f6b57600060198054905090506000810362000d29575062000f6b565b8082111562000d3757600092505b60006019848154811062000d505762000d4f62002aae565b5b9060005260206000200154905060006017600083815260200190815260200160002060009054906101000a900473ffffffffffffffffffffffffffffffffffffffff1690506000601454600260008581526020019081526020016000205462000dba919062002add565b90508060186000858152602001908152602001600020540362000e02576019868154811062000dee5762000ded62002aae565b5b906000526020600020016000905562000f41565b601a60009054906101000a900473ffffffffffffffffffffffffffffffffffffffff1673ffffffffffffffffffffffffffffffffffffffff1663a9059cbb8360016040518363ffffffff1660e01b815260040162000e6292919062002b75565b6020604051808303816000875af115801562000e82573d6000803e3d6000fd5b505050506040513d601f19601f8201168201806040525081019062000ea8919062002bd3565b5060198390806001815401808255809150506001900390600052602060002001600090919091909150556019868154811062000ee95762000ee862002aae565b5b90600052602060002001600090556001600f600082825462000f0c919062002c05565b92505081905550600160106000858152602001908152602001600020600082825462000f39919062002c05565b925050819055505b858062000f4e9062002c40565b96505050505050808062000f629062002c40565b91505062000d07565b50601a60009054906101000a900473ffffffffffffffffffffffffffffffffffffffff1673ffffffffffffffffffffffffffffffffffffffff166370a08231306040518263ffffffff1660e01b815260040162000fc99190620026d0565b602060405180830381865afa15801562000fe7573d6000803e3d6000fd5b505050506040513d601f19601f820116820180604052508101906200100d9190620028c7565b60168190555050505b6000601260009054906101000a900473ffffffffffffffffffffffffffffffffffffffff163087600954888888604051620010519062002429565b62001063979695949392919062002c9e565b604051809103906000f08015801562001080573d6000803e3d6000fd5b509050601a60009054906101000a900473ffffffffffffffffffffffffffffffffffffffff1673ffffffffffffffffffffffffffffffffffffffff1663a9059cbb82876040518363ffffffff1660e01b8152600401620010e292919062002d1b565b6020604051808303816000875af115801562001102573d6000803e3d6000fd5b505050506040513d601f19601f8201168201806040525081019062001128919062002bd3565b50620011398660095483886200206d565b505050505050565b60066020528060005260406000206000915054906101000a900460ff1681565b600d6020528060005260406000206000915090505481565b6014546016541015620011c3576040517f08c379a0000000000000000000000000000000000000000000000000000000008152600401620011ba9062002d98565b60405180910390fd5b601a60009054906101000a900473ffffffffffffffffffffffffffffffffffffffff1673ffffffffffffffffffffffffffffffffffffffff1663a9059cbb836014546040518363ffffffff1660e01b81526004016200122492919062002d1b565b6020604051808303816000875af115801562001244573d6000803e3d6000fd5b505050506040513d601f19601f820116820180604052508101906200126a919062002bd3565b506014546018600083815260200190815260200160002081905550601454601660008282546200129b919062002c05565b925050819055505050565b600a6020528160005260406000208181548110620012c357600080fd5b90600052602060002001600091509150505481565b60056020528060005260406000206000915054906101000a900473ffffffffffffffffffffffffffffffffffffffff1681565b60095481565b6000600a6000838152602001908152602001600020805490509050919050565b60145481565b60016020528060005260406000206000915090505481565b600c6020528060005260406000206000915090505481565b60176020528060005260406000206000915054906101000a900473ffffffffffffffffffffffffffffffffffffffff1681565b60155481565b600e6020528060005260406000206000915090505481565b60085481565b60106020528060005260406000206000915090505481565b60046020528160005260406000206020528060005260406000206000915091509054906101000a900460ff1681565b601260009054906101000a900473ffffffffffffffffffffffffffffffffffffffff1681565b80601a60009054906101000a900473ffffffffffffffffffffffffffffffffffffffff1673ffffffffffffffffffffffffffffffffffffffff166370a08231336040518263ffffffff1660e01b8152600401620014899190620026d0565b602060405180830381865afa158015620014a7573d6000803e3d6000fd5b505050506040513d601f19601f82011682018060405250810190620014cd9190620028c7565b101562001511576040517f08c379a0000000000000000000000000000000000000000000000000000000008152600401620015089062002d98565b60405180910390fd5b60006005600084815260200190815260200160002060009054906101000a900473ffffffffffffffffffffffffffffffffffffffff16905060008190506000601760008373ffffffffffffffffffffffffffffffffffffffff16632c5553c96040518163ffffffff1660e01b8152600401602060405180830381865afa158015620015a0573d6000803e3d6000fd5b505050506040513d601f19601f82011682018060405250810190620015c69190620028c7565b815260200190815260200160002060009054906101000a900473ffffffffffffffffffffffffffffffffffffffff169050601a60009054906101000a900473ffffffffffffffffffffffffffffffffffffffff1673ffffffffffffffffffffffffffffffffffffffff1663a9059cbb82866040518363ffffffff1660e01b81526004016200165692919062002d1b565b6020604051808303816000875af115801562001676573d6000803e3d6000fd5b505050506040513d601f19601f820116820180604052508101906200169c919062002bd3565b50601a60009054906101000a900473ffffffffffffffffffffffffffffffffffffffff1673ffffffffffffffffffffffffffffffffffffffff16634bbc1bcd3060016040518363ffffffff1660e01b8152600401620016fd92919062002b75565b600060405180830381600087803b1580156200171857600080fd5b505af11580156200172d573d6000803e3d6000fd5b505050508173ffffffffffffffffffffffffffffffffffffffff166326b2c77c826040518263ffffffff1660e01b81526004016200176c9190620026d0565b600060405180830381600087803b1580156200178757600080fd5b505af11580156200179c573d6000803e3d6000fd5b50505050601a60009054906101000a900473ffffffffffffffffffffffffffffffffffffffff1673ffffffffffffffffffffffffffffffffffffffff166318160ddd6040518163ffffffff1660e01b8152600401602060405180830381865afa1580156200180e573d6000803e3d6000fd5b505050506040513d601f19601f82011682018060405250810190620018349190620028c7565b601581905550601a60009054906101000a900473ffffffffffffffffffffffffffffffffffffffff1673ffffffffffffffffffffffffffffffffffffffff166370a08231306040518263ffffffff1660e01b8152600401620018979190620026d0565b602060405180830381865afa158015620018b5573d6000803e3d6000fd5b505050506040513d601f19601f82011682018060405250810190620018db9190620028c7565b601681905550620018ec85620021a6565b5050505050565b601981815481106200190457600080fd5b906000526020600020016000915090505481565b601a60009054906101000a900473ffffffffffffffffffffffffffffffffffffffff1673ffffffffffffffffffffffffffffffffffffffff1663a9059cbb85846040518363ffffffff1660e01b81526004016200197792919062002d1b565b6020604051808303816000875af115801562001997573d6000803e3d6000fd5b505050506040513d601f19601f82011682018060405250810190620019bd919062002bd3565b50601a60009054906101000a900473ffffffffffffffffffffffffffffffffffffffff1673ffffffffffffffffffffffffffffffffffffffff16634bbc1bcd30846040518363ffffffff1660e01b815260040162001a1d92919062002d1b565b600060405180830381600087803b15801562001a3857600080fd5b505af115801562001a4d573d6000803e3d6000fd5b5050505062001a5e83838362002247565b601a60009054906101000a900473ffffffffffffffffffffffffffffffffffffffff1673ffffffffffffffffffffffffffffffffffffffff166318160ddd6040518163ffffffff1660e01b8152600401602060405180830381865afa15801562001acc573d6000803e3d6000fd5b505050506040513d601f19601f8201168201806040525081019062001af29190620028c7565b601581905550601a60009054906101000a900473ffffffffffffffffffffffffffffffffffffffff1673ffffffffffffffffffffffffffffffffffffffff166370a08231306040518263ffffffff1660e01b815260040162001b559190620026d0565b602060405180830381865afa15801562001b73573d6000803e3d6000fd5b505050506040513d601f19601f8201168201806040525081019062001b999190620028c7565b60168190555050505050565b60165481565b600b6020528060005260406000206000915054906101000a900473ffffffffffffffffffffffffffffffffffffffff1681565b60006001600260008681526020019081526020016000205462001c02919062002a73565b6013541890508034101562001c4e576040517f08c379a000000000000000000000000000000000000000000000000000000000815260040162001c459062002e0a565b60405180910390fd5b600060018060008781526020019081526020016000205462001c71919062002a73565b6014541890506000601a60009054906101000a900473ffffffffffffffffffffffffffffffffffffffff1673ffffffffffffffffffffffffffffffffffffffff166370a082316017600089815260200190815260200160002060009054906101000a900473ffffffffffffffffffffffffffffffffffffffff166040518263ffffffff1660e01b815260040162001d099190620026d0565b602060405180830381865afa15801562001d27573d6000803e3d6000fd5b505050506040513d601f19601f8201168201806040525081019062001d4d9190620028c7565b90508181101562001d95576040517f08c379a000000000000000000000000000000000000000000000000000000000815260040162001d8c9062002e7c565b60405180910390fd5b8184101562001ddb576040517f08c379a000000000000000000000000000000000000000000000000000000000815260040162001dd29062002eee565b60405180910390fd5b6000601260009054906101000a900473ffffffffffffffffffffffffffffffffffffffff1687600054883060135460405162001e179062002437565b62001e289695949392919062002f10565b604051809103906000f08015801562001e45573d6000803e3d6000fd5b50905062001e5787600054836200230a565b6000838662001e67919062002c05565b9050601a60009054906101000a900473ffffffffffffffffffffffffffffffffffffffff1673ffffffffffffffffffffffffffffffffffffffff166342966c68856040518263ffffffff1660e01b815260040162001ec69190620025af565b600060405180830381600087803b15801562001ee157600080fd5b505af115801562001ef6573d6000803e3d6000fd5b50505050601a60009054906101000a900473ffffffffffffffffffffffffffffffffffffffff1673ffffffffffffffffffffffffffffffffffffffff1663a9059cbb83836040518363ffffffff1660e01b815260040162001f5992919062002d1b565b6020604051808303816000875af115801562001f79573d6000803e3d6000fd5b505050506040513d601f19601f8201168201806040525081019062001f9f919062002bd3565b508173ffffffffffffffffffffffffffffffffffffffff166108fc349081150290604051600060405180830381858888f1935050505015801562001fe7573d6000803e3d6000fd5b505050505050505050565b60135481565b60036020528060005260406000206000915090505481565b600f5481565b60026020528060005260406000206000915090505481565b60005481565b60186020528060005260406000206000915090505481565b60075481565b600081831062002063578162002065565b825b905092915050565b60016009600082825462002082919062002a73565b9250508190555080600760008282546200209d919062002a73565b92505081905550600a600085815260200190815260200160002083908060018154018082558091505060019003906000526020600020016000909190919091505580600d6000868152602001908152602001600020600082825462002103919062002a73565b9250508190555081600b600086815260200190815260200160002060006101000a81548173ffffffffffffffffffffffffffffffffffffffff021916908373ffffffffffffffffffffffffffffffffffffffff16021790555060016011600086815260200190815260200160002060006101000a81548160ff02191690831515021790555083600e60008581526020019081526020016000208190555050505050565b60006003600083815260200190815260200160002054905060018060008381526020019081526020016000206000828254620021e3919062002c05565b92505081905550600160026000838152602001908152602001600020600082825462002210919062002a73565b9250508190555060006006600083815260200190815260200160002060006101000a81548160ff0219169083151502179055505050565b81600760008282546200225b919062002c05565b92505081905550816008600082825462002276919062002a73565b925050819055506000600e600085815260200190815260200160002054905082600c60008381526020019081526020016000206000828254620022ba919062002a73565b9250508190555060008383620022d1919062002c05565b03620023045760006011600086815260200190815260200160002060006101000a81548160ff0219169083151502179055505b50505050565b8260036000848152602001908152602001600020819055506001806000858152602001908152602001600020600082825462002347919062002a73565b92505081905550600160046000848152602001908152602001600020600085815260200190815260200160002060006101000a81548160ff021916908315150217905550806005600084815260200190815260200160002060006101000a81548173ffffffffffffffffffffffffffffffffffffffff021916908373ffffffffffffffffffffffffffffffffffffffff1602179055506001600080828254620023f1919062002a73565b9250508190555060016006600085815260200190815260200160002060006101000a81548160ff021916908315150217905550505050565b610da38062002f7e83390190565b610d008062003d2183390190565b600080fd5b6000819050919050565b6200245f816200244a565b81146200246b57600080fd5b50565b6000813590506200247f8162002454565b92915050565b6000602082840312156200249e576200249d62002445565b5b6000620024ae848285016200246e565b91505092915050565b60008115159050919050565b620024ce81620024b7565b82525050565b6000602082019050620024eb6000830184620024c3565b92915050565b6000819050919050565b6200250681620024f1565b81146200251257600080fd5b50565b6000813590506200252681620024fb565b92915050565b6000806000806080858703121562002549576200254862002445565b5b600062002559878288016200246e565b94505060206200256c878288016200246e565b93505060406200257f878288016200246e565b9250506060620025928782880162002515565b91505092959194509250565b620025a9816200244a565b82525050565b6000602082019050620025c660008301846200259e565b92915050565b600073ffffffffffffffffffffffffffffffffffffffff82169050919050565b6000620025f982620025cc565b9050919050565b6200260b81620025ec565b81146200261757600080fd5b50565b6000813590506200262b8162002600565b92915050565b600080604083850312156200264b576200264a62002445565b5b60006200265b858286016200261a565b92505060206200266e858286016200246e565b9150509250929050565b6000806040838503121562002692576200269162002445565b5b6000620026a2858286016200246e565b9250506020620026b5858286016200246e565b9150509250929050565b620026ca81620025ec565b82525050565b6000602082019050620026e76000830184620026bf565b92915050565b600080600080608085870312156200270a576200270962002445565b5b60006200271a878288016200261a565b94505060206200272d878288016200246e565b935050604062002740878288016200246e565b925050606062002753878288016200246e565b91505092959194509250565b6000806000606084860312156200277b576200277a62002445565b5b60006200278b868287016200246e565b93505060206200279e8682870162002515565b9250506040620027b1868287016200246e565b9150509250925092565b600082825260208201905092915050565b7f43616c6c6572206973206e6f7420746865206f776e6572000000000000000000600082015250565b600062002804601783620027bb565b91506200281182620027cc565b602082019050919050565b600060208201905081810360008301526200283781620027f5565b9050919050565b7f4e6f74206861766520656e6f756768206d617474657200000000000000000000600082015250565b600062002876601683620027bb565b915062002883826200283e565b602082019050919050565b60006020820190508181036000830152620028a98162002867565b9050919050565b600081519050620028c18162002454565b92915050565b600060208284031215620028e057620028df62002445565b5b6000620028f084828501620028b0565b91505092915050565b7f4e6f74206869676820656e6f7567680000000000000000000000000000000000600082015250565b600062002931600f83620027bb565b91506200293e82620028f9565b602082019050919050565b60006020820190508181036000830152620029648162002922565b9050919050565b7f4e487b7100000000000000000000000000000000000000000000000000000000600052601260045260246000fd5b6000620029a7826200244a565b9150620029b4836200244a565b925082620029c757620029c66200296b565b5b828206905092915050565b7f447261772072617465206e6f7420646976697369626c65000000000000000000600082015250565b600062002a0a601783620027bb565b915062002a1782620029d2565b602082019050919050565b6000602082019050818103600083015262002a3d81620029fb565b9050919050565b7f4e487b7100000000000000000000000000000000000000000000000000000000600052601160045260246000fd5b600062002a80826200244a565b915062002a8d836200244a565b925082820190508082111562002aa85762002aa762002a44565b5b92915050565b7f4e487b7100000000000000000000000000000000000000000000000000000000600052603260045260246000fd5b600062002aea826200244a565b915062002af7836200244a565b925082820262002b07816200244a565b9150828204841483151762002b215762002b2062002a44565b5b5092915050565b6000819050919050565b6000819050919050565b600062002b5d62002b5762002b518462002b28565b62002b32565b6200244a565b9050919050565b62002b6f8162002b3c565b82525050565b600060408201905062002b8c6000830185620026bf565b62002b9b602083018462002b64565b9392505050565b62002bad81620024b7565b811462002bb957600080fd5b50565b60008151905062002bcd8162002ba2565b92915050565b60006020828403121562002bec5762002beb62002445565b5b600062002bfc8482850162002bbc565b91505092915050565b600062002c12826200244a565b915062002c1f836200244a565b925082820390508181111562002c3a5762002c3962002a44565b5b92915050565b600062002c4d826200244a565b91507fffffffffffffffffffffffffffffffffffffffffffffffffffffffffffffffff820362002c825762002c8162002a44565b5b600182019050919050565b62002c9881620024f1565b82525050565b600060e08201905062002cb5600083018a620026bf565b62002cc46020830189620026bf565b62002cd360408301886200259e565b62002ce260608301876200259e565b62002cf160808301866200259e565b62002d0060a08301856200259e565b62002d0f60c083018462002c8d565b98975050505050505050565b600060408201905062002d326000830185620026bf565b62002d4160208301846200259e565b9392505050565b7f4e6f7420656e6f756768206d6174746572000000000000000000000000000000600082015250565b600062002d80601183620027bb565b915062002d8d8262002d48565b602082019050919050565b6000602082019050818103600083015262002db38162002d71565b9050919050565b7f45746865722076616c7565206973206e6f7420656e6f75676800000000000000600082015250565b600062002df2601983620027bb565b915062002dff8262002dba565b602082019050919050565b6000602082019050818103600083015262002e258162002de3565b9050919050565b7f4d61747465722062616c616e6365206973206e6f7420656e6f75676800000000600082015250565b600062002e64601c83620027bb565b915062002e718262002e2c565b602082019050919050565b6000602082019050818103600083015262002e978162002e55565b9050919050565b7f4e6f7420656e6f756768206d617474657220676976656e000000000000000000600082015250565b600062002ed6601783620027bb565b915062002ee38262002e9e565b602082019050919050565b6000602082019050818103600083015262002f098162002ec7565b9050919050565b600060c08201905062002f276000830189620026bf565b62002f3660208301886200259e565b62002f4560408301876200259e565b62002f54606083018662002c8d565b62002f636080830185620026bf565b62002f7260a08301846200259e565b97965050505050505056fe60806040523480156200001157600080fd5b5060405162000da338038062000da38339818101604052810190620000379190620001c9565b86600760006101000a81548173ffffffffffffffffffffffffffffffffffffffff021916908373ffffffffffffffffffffffffffffffffffffffff16021790555085600860006101000a81548173ffffffffffffffffffffffffffffffffffffffff021916908373ffffffffffffffffffffffffffffffffffffffff1602179055508460008190555080600181905550826005819055508160028190555083600381905550505050505050506200027c565b600080fd5b600073ffffffffffffffffffffffffffffffffffffffff82169050919050565b60006200011b82620000ee565b9050919050565b6200012d816200010e565b81146200013957600080fd5b50565b6000815190506200014d8162000122565b92915050565b6000819050919050565b620001688162000153565b81146200017457600080fd5b50565b60008151905062000188816200015d565b92915050565b6000819050919050565b620001a3816200018e565b8114620001af57600080fd5b50565b600081519050620001c38162000198565b92915050565b600080600080600080600060e0888a031215620001eb57620001ea620000e9565b5b6000620001fb8a828b016200013c565b97505060206200020e8a828b016200013c565b9650506040620002218a828b0162000177565b9550506060620002348a828b0162000177565b9450506080620002478a828b0162000177565b93505060a06200025a8a828b0162000177565b92505060c06200026d8a828b01620001b2565b91505092959891949750929550565b610b17806200028c6000396000f3fe608060405234801561001057600080fd5b50600436106100625760003560e01c806307604b1a1461006757806327ac1b651461008557806335f1db8d146100a157806358833c37146100bf57806389a89002146100dd578063bbb8ae35146100fb575b600080fd5b61006f610119565b60405161007c9190610498565b60405180910390f35b61009f600480360381019061009a91906106ae565b61013f565b005b6100a96103c5565b6040516100b6919061076e565b60405180910390f35b6100c76103cb565b6040516100d4919061076e565b60405180910390f35b6100e56103d1565b6040516100f2919061076e565b60405180910390f35b6101036103d7565b604051610110919061076e565b60405180910390f35b600460009054906101000a900473ffffffffffffffffffffffffffffffffffffffff1681565b60011515600660003373ffffffffffffffffffffffffffffffffffffffff1673ffffffffffffffffffffffffffffffffffffffff16815260200190815260200160002060009054906101000a900460ff161515036101d2576040517f08c379a00000000000000000000000000000000000000000000000000000000081526004016101c9906107e6565b60405180910390fd5b600060055411610217576040517f08c379a000000000000000000000000000000000000000000000000000000000815260040161020e90610852565b60405180910390fd5b610220836103dd565b50600860009054906101000a900473ffffffffffffffffffffffffffffffffffffffff1673ffffffffffffffffffffffffffffffffffffffff16639cee22b1336003546002546005546040518563ffffffff1660e01b81526004016102889493929190610872565b600060405180830381600087803b1580156102a257600080fd5b505af11580156102b6573d6000803e3d6000fd5b50505050600254600560008282546102ce91906108e6565b925050819055506001600660003373ffffffffffffffffffffffffffffffffffffffff1673ffffffffffffffffffffffffffffffffffffffff16815260200190815260200160002060006101000a81548160ff021916908315150217905550600760009054906101000a900473ffffffffffffffffffffffffffffffffffffffff1673ffffffffffffffffffffffffffffffffffffffff16639202c1ec60005484846040518463ffffffff1660e01b815260040161038e939291906109dd565b600060405180830381600087803b1580156103a857600080fd5b505af11580156103bc573d6000803e3d6000fd5b50505050505050565b60055481565b60025481565b60005481565b60035481565b600080826040516020016103f19190610a5e565b604051602081830303815290604052805190602001209050600154811461044d576040517f08c379a000000000000000000000000000000000000000000000000000000000815260040161044490610ac1565b60405180910390fd5b6001915050919050565b600073ffffffffffffffffffffffffffffffffffffffff82169050919050565b600061048282610457565b9050919050565b61049281610477565b82525050565b60006020820190506104ad6000830184610489565b92915050565b6000604051905090565b600080fd5b600080fd5b600080fd5b600080fd5b6000601f19601f8301169050919050565b7f4e487b7100000000000000000000000000000000000000000000000000000000600052604160045260246000fd5b61051a826104d1565b810181811067ffffffffffffffff82111715610539576105386104e2565b5b80604052505050565b600061054c6104b3565b90506105588282610511565b919050565b600067ffffffffffffffff821115610578576105776104e2565b5b610581826104d1565b9050602081019050919050565b82818337600083830152505050565b60006105b06105ab8461055d565b610542565b9050828152602081018484840111156105cc576105cb6104cc565b5b6105d784828561058e565b509392505050565b600082601f8301126105f4576105f36104c7565b5b813561060484826020860161059d565b91505092915050565b600067ffffffffffffffff821115610628576106276104e2565b5b610631826104d1565b9050602081019050919050565b600061065161064c8461060d565b610542565b90508281526020810184848401111561066d5761066c6104cc565b5b61067884828561058e565b509392505050565b600082601f830112610695576106946104c7565b5b81356106a584826020860161063e565b91505092915050565b6000806000606084860312156106c7576106c66104bd565b5b600084013567ffffffffffffffff8111156106e5576106e46104c2565b5b6106f1868287016105df565b935050602084013567ffffffffffffffff811115610712576107116104c2565b5b61071e868287016105df565b925050604084013567ffffffffffffffff81111561073f5761073e6104c2565b5b61074b86828701610680565b9150509250925092565b6000819050919050565b61076881610755565b82525050565b6000602082019050610783600083018461075f565b92915050565b600082825260208201905092915050565b7f43616e206f6e6c792064726177206f6e63650000000000000000000000000000600082015250565b60006107d0601283610789565b91506107db8261079a565b602082019050919050565b600060208201905081810360008301526107ff816107c3565b9050919050565b7f4e6f2062757474657220746f2064726177000000000000000000000000000000600082015250565b600061083c601183610789565b915061084782610806565b602082019050919050565b6000602082019050818103600083015261086b8161082f565b9050919050565b60006080820190506108876000830187610489565b610894602083018661075f565b6108a1604083018561075f565b6108ae606083018461075f565b95945050505050565b7f4e487b7100000000000000000000000000000000000000000000000000000000600052601160045260246000fd5b60006108f182610755565b91506108fc83610755565b9250828203905081811115610914576109136108b7565b5b92915050565b600081519050919050565b60005b83811015610943578082015181840152602081019050610928565b60008484015250505050565b600061095a8261091a565b6109648185610789565b9350610974818560208601610925565b61097d816104d1565b840191505092915050565b600081519050919050565b600082825260208201905092915050565b60006109af82610988565b6109b98185610993565b93506109c9818560208601610925565b6109d2816104d1565b840191505092915050565b60006060820190506109f2600083018661075f565b8181036020830152610a04818561094f565b90508181036040830152610a1881846109a4565b9050949350505050565b600081905092915050565b6000610a388261091a565b610a428185610a22565b9350610a52818560208601610925565b80840191505092915050565b6000610a6a8284610a2d565b915081905092915050565b7f496e70757420646f6573206e6f74206d61746368207365637265740000000000600082015250565b6000610aab601b83610789565b9150610ab682610a75565b602082019050919050565b60006020820190508181036000830152610ada81610a9e565b905091905056fea2646970667358221220617a1aa16fdbffd90cd16898ddfae49c4d347dd2b472595c06149b4c9b1602b364736f6c63430008110033608060405260405162000d0038038062000d008339818101604052810190620000299190620001fb565b85600760006101000a81548173ffffffffffffffffffffffffffffffffffffffff021916908373ffffffffffffffffffffffffffffffffffffffff16021790555081600860006101000a81548173ffffffffffffffffffffffffffffffffffffffff021916908373ffffffffffffffffffffffffffffffffffffffff16021790555084600081905550836001819055508260028190555081600360006101000a81548173ffffffffffffffffffffffffffffffffffffffff021916908373ffffffffffffffffffffffffffffffffffffffff160217905550346005819055508060048190555050505050505062000297565b600080fd5b600073ffffffffffffffffffffffffffffffffffffffff82169050919050565b60006200014d8262000120565b9050919050565b6200015f8162000140565b81146200016b57600080fd5b50565b6000815190506200017f8162000154565b92915050565b6000819050919050565b6200019a8162000185565b8114620001a657600080fd5b50565b600081519050620001ba816200018f565b92915050565b6000819050919050565b620001d581620001c0565b8114620001e157600080fd5b50565b600081519050620001f581620001ca565b92915050565b60008060008060008060c087890312156200021b576200021a6200011b565b5b60006200022b89828a016200016e565b96505060206200023e89828a01620001a9565b95505060406200025189828a01620001a9565b94505060606200026489828a01620001e4565b93505060806200027789828a016200016e565b92505060a06200028a89828a01620001a9565b9150509295509295509295565b610a5980620002a76000396000f3fe6080604052600436106100705760003560e01c80637fdca4821161004e5780637fdca482146100e75780638ad23aea14610112578063956c2dc31461013d578063c5d12c971461016657610070565b806307604b1a1461007557806326b2c77c146100a05780632c5553c9146100bc575b600080fd5b34801561008157600080fd5b5061008a610191565b6040516100979190610483565b60405180910390f35b6100ba60048036038101906100b591906104de565b6101b7565b005b3480156100c857600080fd5b506100d161027f565b6040516100de9190610524565b60405180910390f35b3480156100f357600080fd5b506100fc610285565b6040516101099190610524565b60405180910390f35b34801561011e57600080fd5b5061012761028b565b6040516101349190610524565b60405180910390f35b34801561014957600080fd5b50610164600480360381019061015f9190610726565b610291565b005b34801561017257600080fd5b5061017b6103c2565b6040516101889190610524565b60405180910390f35b600360009054906101000a900473ffffffffffffffffffffffffffffffffffffffff1681565b6000600454346101c791906107fc565b9050600360009054906101000a900473ffffffffffffffffffffffffffffffffffffffff1673ffffffffffffffffffffffffffffffffffffffff166108fc6004549081150290604051600060405180830381858888f19350505050158015610233573d6000803e3d6000fd5b508173ffffffffffffffffffffffffffffffffffffffff166108fc829081150290604051600060405180830381858888f1935050505015801561027a573d6000803e3d6000fd5b505050565b60005481565b60015481565b60055481565b61029a836103c8565b50600860009054906101000a900473ffffffffffffffffffffffffffffffffffffffff1673ffffffffffffffffffffffffffffffffffffffff1663733b0bca6001546006546040518363ffffffff1660e01b81526004016102fc929190610830565b600060405180830381600087803b15801561031657600080fd5b505af115801561032a573d6000803e3d6000fd5b50505050600760009054906101000a900473ffffffffffffffffffffffffffffffffffffffff1673ffffffffffffffffffffffffffffffffffffffff1663a0e12efe83836040518363ffffffff1660e01b815260040161038b92919061092d565b600060405180830381600087803b1580156103a557600080fd5b505af11580156103b9573d6000803e3d6000fd5b50505050505050565b60065481565b600080826040516020016103dc91906109a0565b6040516020818303038152906040528051906020012090506002548114610438576040517f08c379a000000000000000000000000000000000000000000000000000000000815260040161042f90610a03565b60405180910390fd5b6001915050919050565b600073ffffffffffffffffffffffffffffffffffffffff82169050919050565b600061046d82610442565b9050919050565b61047d81610462565b82525050565b60006020820190506104986000830184610474565b92915050565b6000604051905090565b600080fd5b600080fd5b6104bb81610462565b81146104c657600080fd5b50565b6000813590506104d8816104b2565b92915050565b6000602082840312156104f4576104f36104a8565b5b6000610502848285016104c9565b91505092915050565b6000819050919050565b61051e8161050b565b82525050565b60006020820190506105396000830184610515565b92915050565b600080fd5b600080fd5b6000601f19601f8301169050919050565b7f4e487b7100000000000000000000000000000000000000000000000000000000600052604160045260246000fd5b61059282610549565b810181811067ffffffffffffffff821117156105b1576105b061055a565b5b80604052505050565b60006105c461049e565b90506105d08282610589565b919050565b600067ffffffffffffffff8211156105f0576105ef61055a565b5b6105f982610549565b9050602081019050919050565b82818337600083830152505050565b6000610628610623846105d5565b6105ba565b90508281526020810184848401111561064457610643610544565b5b61064f848285610606565b509392505050565b600082601f83011261066c5761066b61053f565b5b813561067c848260208601610615565b91505092915050565b600067ffffffffffffffff8211156106a05761069f61055a565b5b6106a982610549565b9050602081019050919050565b60006106c96106c484610685565b6105ba565b9050828152602081018484840111156106e5576106e4610544565b5b6106f0848285610606565b509392505050565b600082601f83011261070d5761070c61053f565b5b813561071d8482602086016106b6565b91505092915050565b60008060006060848603121561073f5761073e6104a8565b5b600084013567ffffffffffffffff81111561075d5761075c6104ad565b5b61076986828701610657565b935050602084013567ffffffffffffffff81111561078a576107896104ad565b5b61079686828701610657565b925050604084013567ffffffffffffffff8111156107b7576107b66104ad565b5b6107c3868287016106f8565b9150509250925092565b7f4e487b7100000000000000000000000000000000000000000000000000000000600052601160045260246000fd5b60006108078261050b565b91506108128361050b565b925082820390508181111561082a576108296107cd565b5b92915050565b60006040820190506108456000830185610515565b6108526020830184610515565b9392505050565b600081519050919050565b600082825260208201905092915050565b60005b83811015610893578082015181840152602081019050610878565b60008484015250505050565b60006108aa82610859565b6108b48185610864565b93506108c4818560208601610875565b6108cd81610549565b840191505092915050565b600081519050919050565b600082825260208201905092915050565b60006108ff826108d8565b61090981856108e3565b9350610919818560208601610875565b61092281610549565b840191505092915050565b60006040820190508181036000830152610947818561089f565b9050818103602083015261095b81846108f4565b90509392505050565b600081905092915050565b600061097a82610859565b6109848185610964565b9350610994818560208601610875565b80840191505092915050565b60006109ac828461096f565b915081905092915050565b7f496e70757420646f6573206e6f74206d61746368207365637265740000000000600082015250565b60006109ed601b83610864565b91506109f8826109b7565b602082019050919050565b60006020820190508181036000830152610a1c816109e0565b905091905056fea26469706673582212205f4f2c3e7e2f6c1e4e9e25a815b0e99c00f2dbcef1bdffcdf92524b8e07a83a464736f6c63430008110033a26469706673582212202feee1f37310f64a37ea70645ce283fa69a4d0a68aa9b54653676078b8369a7464736f6c6343000811003360806040526305f5e1006002556000601260006101000a81548160ff0219169083151502179055503480156200003457600080fd5b5060405162005c9038038062005c9083398181016040528101906200005a9190620004a8565b848484848484848383816000806101000a81548173ffffffffffffffffffffffffffffffffffffffff021916908373ffffffffffffffffffffffffffffffffffffffff16021790555080600160006101000a81548173ffffffffffffffffffffffffffffffffffffffff021916908373ffffffffffffffffffffffffffffffffffffffff16021790555050508160049081620000f79190620007af565b508060059081620001099190620007af565b5050506200012c620001206200019a60201b60201c565b620001a260201b60201c565b6200013c6200026860201b60201c565b6011819055508260108190555080600160006101000a81548173ffffffffffffffffffffffffffffffffffffffff021916908373ffffffffffffffffffffffffffffffffffffffff1602179055505050505050505050505062000896565b600033905090565b6000600f60009054906101000a900473ffffffffffffffffffffffffffffffffffffffff16905081600f60006101000a81548173ffffffffffffffffffffffffffffffffffffffff021916908373ffffffffffffffffffffffffffffffffffffffff1602179055508173ffffffffffffffffffffffffffffffffffffffff168173ffffffffffffffffffffffffffffffffffffffff167f8be0079c531659141344cd1fd0a4f28419497f9722a3daafe3b4186f6b6457e060405160405180910390a35050565b6000600c80549050905090565b6000604051905090565b600080fd5b600080fd5b600080fd5b600080fd5b6000601f19601f8301169050919050565b7f4e487b7100000000000000000000000000000000000000000000000000000000600052604160045260246000fd5b620002de8262000293565b810181811067ffffffffffffffff821117156200030057620002ff620002a4565b5b80604052505050565b60006200031562000275565b9050620003238282620002d3565b919050565b600067ffffffffffffffff821115620003465762000345620002a4565b5b620003518262000293565b9050602081019050919050565b60005b838110156200037e57808201518184015260208101905062000361565b60008484015250505050565b6000620003a16200039b8462000328565b62000309565b905082815260208101848484011115620003c057620003bf6200028e565b5b620003cd8482856200035e565b509392505050565b600082601f830112620003ed57620003ec62000289565b5b8151620003ff8482602086016200038a565b91505092915050565b6000819050919050565b6200041d8162000408565b81146200042957600080fd5b50565b6000815190506200043d8162000412565b92915050565b600073ffffffffffffffffffffffffffffffffffffffff82169050919050565b6000620004708262000443565b9050919050565b620004828162000463565b81146200048e57600080fd5b50565b600081519050620004a28162000477565b92915050565b600080600080600060a08688031215620004c757620004c66200027f565b5b600086015167ffffffffffffffff811115620004e857620004e762000284565b5b620004f688828901620003d5565b955050602086015167ffffffffffffffff8111156200051a576200051962000284565b5b6200052888828901620003d5565b94505060406200053b888289016200042c565b93505060606200054e8882890162000491565b9250506080620005618882890162000491565b9150509295509295909350565b600081519050919050565b7f4e487b7100000000000000000000000000000000000000000000000000000000600052602260045260246000fd5b60006002820490506001821680620005c157607f821691505b602082108103620005d757620005d662000579565b5b50919050565b60008190508160005260206000209050919050565b60006020601f8301049050919050565b600082821b905092915050565b600060088302620006417fffffffffffffffffffffffffffffffffffffffffffffffffffffffffffffffff8262000602565b6200064d868362000602565b95508019841693508086168417925050509392505050565b6000819050919050565b6000620006906200068a620006848462000408565b62000665565b62000408565b9050919050565b6000819050919050565b620006ac836200066f565b620006c4620006bb8262000697565b8484546200060f565b825550505050565b600090565b620006db620006cc565b620006e8818484620006a1565b505050565b5b81811015620007105762000704600082620006d1565b600181019050620006ee565b5050565b601f8211156200075f576200072981620005dd565b6200073484620005f2565b8101602085101562000744578190505b6200075c6200075385620005f2565b830182620006ed565b50505b505050565b600082821c905092915050565b6000620007846000198460080262000764565b1980831691505092915050565b60006200079f838362000771565b9150826002028217905092915050565b620007ba826200056e565b67ffffffffffffffff811115620007d657620007d5620002a4565b5b620007e28254620005a8565b620007ef82828562000714565b600060209050601f83116001811462000827576000841562000812578287015190505b6200081e858262000791565b8655506200088e565b601f1984166200083786620005dd565b60005b8281101562000861578489015182556001820191506020850194506020810190506200083a565b868310156200088157848901516200087d601f89168262000771565b8355505b6001600288020188555050505b505050505050565b6153ea80620008a66000396000f3fe6080604052600436106101ee5760003560e01c806371ebbef41161010d578063a0e12efe116100a0578063c87b56dd1161006f578063c87b56dd146106a7578063e3501cb1146106e4578063e985e9c51461070d578063eb8d24441461074a578063f2fde38b14610775576101ee565b8063a0e12efe14610601578063a22cb4651461062a578063b88d4fde14610653578063b8a9736d1461067c576101ee565b80638da5cb5b116100dc5780638da5cb5b146105665780639202c1ec1461059157806395d89b41146105ba57806395f04d05146105e5576101ee565b806371ebbef4146104cb5780637a3a4a61146104f6578063841e4561146105215780638d48ef351461054a576101ee565b80632f745c59116101855780634f6ccce7116101545780634f6ccce7146103fd5780636352211e1461043a57806370a0823114610477578063715018a6146104b4576101ee565b80632f745c591461036957806334918dfd146103a65780633ccfd60b146103bd57806342842e0e146103d4576101ee565b8063095ea7b3116101c1578063095ea7b3146102c357806318160ddd146102ec5780632017c7c11461031757806323b872dd14610340576101ee565b806301ffc9a7146101f357806306fdde031461023057806307604b1a1461025b578063081812fc14610286575b600080fd5b3480156101ff57600080fd5b5061021a600480360381019061021591906132e9565b61079e565b6040516102279190613331565b60405180910390f35b34801561023c57600080fd5b506102456107b0565b60405161025291906133dc565b60405180910390f35b34801561026757600080fd5b50610270610842565b60405161027d919061343f565b60405180910390f35b34801561029257600080fd5b506102ad60048036038101906102a89190613490565b610868565b6040516102ba919061343f565b60405180910390f35b3480156102cf57600080fd5b506102ea60048036038101906102e591906134e9565b6108ed565b005b3480156102f857600080fd5b50610301610a04565b60405161030e9190613538565b60405180910390f35b34801561032357600080fd5b5061033e6004803603810190610339919061375f565b610a11565b005b34801561034c57600080fd5b5061036760048036038101906103629190613824565b610b2d565b005b34801561037557600080fd5b50610390600480360381019061038b91906134e9565b610b8d565b60405161039d9190613538565b60405180910390f35b3480156103b257600080fd5b506103bb610c32565b005b3480156103c957600080fd5b506103d2610cda565b005b3480156103e057600080fd5b506103fb60048036038101906103f69190613824565b610de8565b005b34801561040957600080fd5b50610424600480360381019061041f9190613490565b610e08565b6040516104319190613538565b60405180910390f35b34801561044657600080fd5b50610461600480360381019061045c9190613490565b610e79565b60405161046e919061343f565b60405180910390f35b34801561048357600080fd5b5061049e60048036038101906104999190613877565b610f2a565b6040516104ab9190613538565b60405180910390f35b3480156104c057600080fd5b506104c9610fe1565b005b3480156104d757600080fd5b506104e0611069565b6040516104ed9190613538565b60405180910390f35b34801561050257600080fd5b5061050b61106f565b6040516105189190613538565b60405180910390f35b34801561052d57600080fd5b5061054860048036038101906105439190613877565b611075565b005b610564600480360381019061055f91906138a4565b611147565b005b34801561057257600080fd5b5061057b6112ac565b604051610588919061343f565b60405180910390f35b34801561059d57600080fd5b506105b860048036038101906105b39190613957565b6112d6565b005b3480156105c657600080fd5b506105cf6112e6565b6040516105dc91906133dc565b60405180910390f35b6105ff60048036038101906105fa91906139e2565b611378565b005b34801561060d57600080fd5b5061062860048036038101906106239190613a2b565b6114ef565b005b34801561063657600080fd5b50610651600480360381019061064c9190613acf565b611515565b005b34801561065f57600080fd5b5061067a60048036038101906106759190613b0f565b61152b565b005b34801561068857600080fd5b5061069161158d565b60405161069e9190613538565b60405180910390f35b3480156106b357600080fd5b506106ce60048036038101906106c99190613490565b611593565b6040516106db91906133dc565b60405180910390f35b3480156106f057600080fd5b5061070b60048036038101906107069190613877565b6115a5565b005b34801561071957600080fd5b50610734600480360381019061072f9190613b92565b611676565b6040516107419190613331565b60405180910390f35b34801561075657600080fd5b5061075f61170a565b60405161076c9190613331565b60405180910390f35b34801561078157600080fd5b5061079c60048036038101906107979190613877565b61171d565b005b60006107a982611814565b9050919050565b6060600480546107bf90613c01565b80601f01602080910402602001604051908101604052809291908181526020018280546107eb90613c01565b80156108385780601f1061080d57610100808354040283529160200191610838565b820191906000526020600020905b81548152906001019060200180831161081b57829003601f168201915b5050505050905090565b600160009054906101000a900473ffffffffffffffffffffffffffffffffffffffff1681565b60006108738261188e565b6108b2576040517f08c379a00000000000000000000000000000000000000000000000000000000081526004016108a990613ca4565b60405180910390fd5b6008600083815260200190815260200160002060009054906101000a900473ffffffffffffffffffffffffffffffffffffffff169050919050565b60006108f882610e79565b90508073ffffffffffffffffffffffffffffffffffffffff168373ffffffffffffffffffffffffffffffffffffffff1603610968576040517f08c379a000000000000000000000000000000000000000000000000000000000815260040161095f90613d36565b60405180910390fd5b8073ffffffffffffffffffffffffffffffffffffffff166109876118fa565b73ffffffffffffffffffffffffffffffffffffffff1614806109b657506109b5816109b06118fa565b611676565b5b6109f5576040517f08c379a00000000000000000000000000000000000000000000000000000000081526004016109ec90613dc8565b60405180910390fd5b6109ff8383611902565b505050565b6000600c80549050905090565b610a1a86610e79565b73ffffffffffffffffffffffffffffffffffffffff163373ffffffffffffffffffffffffffffffffffffffff1614610a87576040517f08c379a0000000000000000000000000000000000000000000000000000000008152600401610a7e90613e34565b60405180910390fd5b600360009054906101000a900473ffffffffffffffffffffffffffffffffffffffff1673ffffffffffffffffffffffffffffffffffffffff166303f5de9d878684896040518563ffffffff1660e01b8152600401610ae89493929190613e63565b600060405180830381600087803b158015610b0257600080fd5b505af1158015610b16573d6000803e3d6000fd5b50505050610b258684846119bb565b505050505050565b610b3e610b386118fa565b82611a8f565b610b7d576040517f08c379a0000000000000000000000000000000000000000000000000000000008152600401610b7490613f1a565b60405180910390fd5b610b88838383611b6d565b505050565b6000610b9883610f2a565b8210610bd9576040517f08c379a0000000000000000000000000000000000000000000000000000000008152600401610bd090613fac565b60405180910390fd5b600a60008473ffffffffffffffffffffffffffffffffffffffff1673ffffffffffffffffffffffffffffffffffffffff168152602001908152602001600020600083815260200190815260200160002054905092915050565b610c3a6118fa565b73ffffffffffffffffffffffffffffffffffffffff16610c586112ac565b73ffffffffffffffffffffffffffffffffffffffff1614610cae576040517f08c379a0000000000000000000000000000000000000000000000000000000008152600401610ca590614018565b60405180910390fd5b601260009054906101000a900460ff1615601260006101000a81548160ff021916908315150217905550565b610ce26118fa565b73ffffffffffffffffffffffffffffffffffffffff16610d006112ac565b73ffffffffffffffffffffffffffffffffffffffff1614610d56576040517f08c379a0000000000000000000000000000000000000000000000000000000008152600401610d4d90614018565b60405180910390fd5b600047905060004711610d9e576040517f08c379a0000000000000000000000000000000000000000000000000000000008152600401610d9590614084565b60405180910390fd5b3373ffffffffffffffffffffffffffffffffffffffff166108fc829081150290604051600060405180830381858888f19350505050158015610de4573d6000803e3d6000fd5b5050565b610e038383836040518060200160405280600081525061152b565b505050565b6000610e12610a04565b8210610e53576040517f08c379a0000000000000000000000000000000000000000000000000000000008152600401610e4a90614116565b60405180910390fd5b600c8281548110610e6757610e66614136565b5b90600052602060002001549050919050565b6000806006600084815260200190815260200160002060009054906101000a900473ffffffffffffffffffffffffffffffffffffffff169050600073ffffffffffffffffffffffffffffffffffffffff168173ffffffffffffffffffffffffffffffffffffffff1603610f21576040517f08c379a0000000000000000000000000000000000000000000000000000000008152600401610f18906141d7565b60405180910390fd5b80915050919050565b60008073ffffffffffffffffffffffffffffffffffffffff168273ffffffffffffffffffffffffffffffffffffffff1603610f9a576040517f08c379a0000000000000000000000000000000000000000000000000000000008152600401610f9190614269565b60405180910390fd5b600760008373ffffffffffffffffffffffffffffffffffffffff1673ffffffffffffffffffffffffffffffffffffffff168152602001908152602001600020549050919050565b610fe96118fa565b73ffffffffffffffffffffffffffffffffffffffff166110076112ac565b73ffffffffffffffffffffffffffffffffffffffff161461105d576040517f08c379a000000000000000000000000000000000000000000000000000000000815260040161105490614018565b60405180910390fd5b6110676000611dd3565b565b60105481565b60115481565b60008054906101000a900473ffffffffffffffffffffffffffffffffffffffff1673ffffffffffffffffffffffffffffffffffffffff163373ffffffffffffffffffffffffffffffffffffffff1614611103576040517f08c379a00000000000000000000000000000000000000000000000000000000081526004016110fa906142d5565b60405180910390fd5b80600160006101000a81548173ffffffffffffffffffffffffffffffffffffffff021916908373ffffffffffffffffffffffffffffffffffffffff16021790555050565b61115085610e79565b73ffffffffffffffffffffffffffffffffffffffff163373ffffffffffffffffffffffffffffffffffffffff16146111bd576040517f08c379a00000000000000000000000000000000000000000000000000000000081526004016111b490613e34565b60405180910390fd5b6010546111c8610a04565b1015611209576040517f08c379a000000000000000000000000000000000000000000000000000000000815260040161120090614341565b60405180910390fd5b600360009054906101000a900473ffffffffffffffffffffffffffffffffffffffff1673ffffffffffffffffffffffffffffffffffffffff1663b876ec0a8686866040518463ffffffff1660e01b815260040161126893929190614361565b600060405180830381600087803b15801561128257600080fd5b505af1158015611296573d6000803e3d6000fd5b505050506112a58583836119bb565b5050505050565b6000600f60009054906101000a900473ffffffffffffffffffffffffffffffffffffffff16905090565b6112e18383836119bb565b505050565b6060600580546112f590613c01565b80601f016020809104026020016040519081016040528092919081815260200182805461132190613c01565b801561136e5780601f106113435761010080835404028352916020019161136e565b820191906000526020600020905b81548152906001019060200180831161135157829003601f168201915b5050505050905090565b601260009054906101000a900460ff166113c7576040517f08c379a00000000000000000000000000000000000000000000000000000000081526004016113be906143e4565b60405180910390fd5b6010546113d2610a04565b10611412576040517f08c379a000000000000000000000000000000000000000000000000000000000815260040161140990614450565b60405180910390fd5b611445600160009054906101000a900473ffffffffffffffffffffffffffffffffffffffff16611440610a04565b611e99565b611456611450610a04565b82611eb7565b600360009054906101000a900473ffffffffffffffffffffffffffffffffffffffff1673ffffffffffffffffffffffffffffffffffffffff16631c85949c3361149d610a04565b6040518363ffffffff1660e01b81526004016114ba929190614470565b600060405180830381600087803b1580156114d457600080fd5b505af11580156114e8573d6000803e3d6000fd5b5050505050565b60006114f9610a04565b90506115053382611e99565b6115108184846119bb565b505050565b6115276115206118fa565b8383611f24565b5050565b61153c6115366118fa565b83611a8f565b61157b576040517f08c379a000000000000000000000000000000000000000000000000000000000815260040161157290613f1a565b60405180910390fd5b61158784848484612090565b50505050565b60025481565b606061159e826120ec565b9050919050565b60008054906101000a900473ffffffffffffffffffffffffffffffffffffffff1673ffffffffffffffffffffffffffffffffffffffff163373ffffffffffffffffffffffffffffffffffffffff1614611633576040517f08c379a000000000000000000000000000000000000000000000000000000000815260040161162a906142d5565b60405180910390fd5b806000806101000a81548173ffffffffffffffffffffffffffffffffffffffff021916908373ffffffffffffffffffffffffffffffffffffffff16021790555050565b6000600960008473ffffffffffffffffffffffffffffffffffffffff1673ffffffffffffffffffffffffffffffffffffffff16815260200190815260200160002060008373ffffffffffffffffffffffffffffffffffffffff1673ffffffffffffffffffffffffffffffffffffffff16815260200190815260200160002060009054906101000a900460ff16905092915050565b601260009054906101000a900460ff1681565b6117256118fa565b73ffffffffffffffffffffffffffffffffffffffff166117436112ac565b73ffffffffffffffffffffffffffffffffffffffff1614611799576040517f08c379a000000000000000000000000000000000000000000000000000000000815260040161179090614018565b60405180910390fd5b600073ffffffffffffffffffffffffffffffffffffffff168173ffffffffffffffffffffffffffffffffffffffff1603611808576040517f08c379a00000000000000000000000000000000000000000000000000000000081526004016117ff9061450b565b60405180910390fd5b61181181611dd3565b50565b60007f780e9d63000000000000000000000000000000000000000000000000000000007bffffffffffffffffffffffffffffffffffffffffffffffffffffffff1916827bffffffffffffffffffffffffffffffffffffffffffffffffffffffff1916148061188757506118868261223d565b5b9050919050565b60008073ffffffffffffffffffffffffffffffffffffffff166006600084815260200190815260200160002060009054906101000a900473ffffffffffffffffffffffffffffffffffffffff1673ffffffffffffffffffffffffffffffffffffffff1614159050919050565b600033905090565b816008600083815260200190815260200160002060006101000a81548173ffffffffffffffffffffffffffffffffffffffff021916908373ffffffffffffffffffffffffffffffffffffffff160217905550808273ffffffffffffffffffffffffffffffffffffffff1661197583610e79565b73ffffffffffffffffffffffffffffffffffffffff167f8c5be1e5ebec7d5bd14f71427d1e84f3dd0314c0f7b2291e5b200ac8c7c3b92560405160405180910390a45050565b6119cc6119c66118fa565b84611a8f565b611a0b576040517f08c379a0000000000000000000000000000000000000000000000000000000008152600401611a0290614577565b60405180910390fd5b600082604051602001611a1e91906145d3565b604051602081830303815290604052805190602001209050611a40818361231f565b611a7f576040517f08c379a0000000000000000000000000000000000000000000000000000000008152600401611a7690614636565b60405180910390fd5b611a898484611eb7565b50505050565b6000611a9a8261188e565b611ad9576040517f08c379a0000000000000000000000000000000000000000000000000000000008152600401611ad0906146c8565b60405180910390fd5b6000611ae483610e79565b90508073ffffffffffffffffffffffffffffffffffffffff168473ffffffffffffffffffffffffffffffffffffffff161480611b265750611b258185611676565b5b80611b6457508373ffffffffffffffffffffffffffffffffffffffff16611b4c84610868565b73ffffffffffffffffffffffffffffffffffffffff16145b91505092915050565b8273ffffffffffffffffffffffffffffffffffffffff16611b8d82610e79565b73ffffffffffffffffffffffffffffffffffffffff1614611be3576040517f08c379a0000000000000000000000000000000000000000000000000000000008152600401611bda9061475a565b60405180910390fd5b600073ffffffffffffffffffffffffffffffffffffffff168273ffffffffffffffffffffffffffffffffffffffff1603611c52576040517f08c379a0000000000000000000000000000000000000000000000000000000008152600401611c49906147ec565b60405180910390fd5b611c5d8383836123c3565b611c68600082611902565b6001600760008573ffffffffffffffffffffffffffffffffffffffff1673ffffffffffffffffffffffffffffffffffffffff1681526020019081526020016000206000828254611cb8919061483b565b925050819055506001600760008473ffffffffffffffffffffffffffffffffffffffff1673ffffffffffffffffffffffffffffffffffffffff1681526020019081526020016000206000828254611d0f919061486f565b92505081905550816006600083815260200190815260200160002060006101000a81548173ffffffffffffffffffffffffffffffffffffffff021916908373ffffffffffffffffffffffffffffffffffffffff160217905550808273ffffffffffffffffffffffffffffffffffffffff168473ffffffffffffffffffffffffffffffffffffffff167fddf252ad1be2c89b69c2b068fc378daa952ba7f163c4a11628f55a4df523b3ef60405160405180910390a4611dce8383836123d3565b505050565b6000600f60009054906101000a900473ffffffffffffffffffffffffffffffffffffffff16905081600f60006101000a81548173ffffffffffffffffffffffffffffffffffffffff021916908373ffffffffffffffffffffffffffffffffffffffff1602179055508173ffffffffffffffffffffffffffffffffffffffff168173ffffffffffffffffffffffffffffffffffffffff167f8be0079c531659141344cd1fd0a4f28419497f9722a3daafe3b4186f6b6457e060405160405180910390a35050565b611eb38282604051806020016040528060008152506123d8565b5050565b611ec08261188e565b611eff576040517f08c379a0000000000000000000000000000000000000000000000000000000008152600401611ef690614915565b60405180910390fd5b80600e60008481526020019081526020016000209081611f1f9190614ae1565b505050565b8173ffffffffffffffffffffffffffffffffffffffff168373ffffffffffffffffffffffffffffffffffffffff1603611f92576040517f08c379a0000000000000000000000000000000000000000000000000000000008152600401611f8990614bff565b60405180910390fd5b80600960008573ffffffffffffffffffffffffffffffffffffffff1673ffffffffffffffffffffffffffffffffffffffff16815260200190815260200160002060008473ffffffffffffffffffffffffffffffffffffffff1673ffffffffffffffffffffffffffffffffffffffff16815260200190815260200160002060006101000a81548160ff0219169083151502179055508173ffffffffffffffffffffffffffffffffffffffff168373ffffffffffffffffffffffffffffffffffffffff167f17307eab39ab6107e8899845ad3d59bd9653f200f220920489ca2b5937696c31836040516120839190613331565b60405180910390a3505050565b61209b848484611b6d565b6120a784848484612433565b6120e6576040517f08c379a00000000000000000000000000000000000000000000000000000000081526004016120dd90614c91565b60405180910390fd5b50505050565b60606120f78261188e565b612136576040517f08c379a000000000000000000000000000000000000000000000000000000000815260040161212d90614d23565b60405180910390fd5b6000600e6000848152602001908152602001600020805461215690613c01565b80601f016020809104026020016040519081016040528092919081815260200182805461218290613c01565b80156121cf5780601f106121a4576101008083540402835291602001916121cf565b820191906000526020600020905b8154815290600101906020018083116121b257829003601f168201915b5050505050905060006121e06125ba565b905060008151036121f5578192505050612238565b60008251111561222a578082604051602001612212929190614d43565b60405160208183030381529060405292505050612238565b612233846125f7565b925050505b919050565b60007f80ac58cd000000000000000000000000000000000000000000000000000000007bffffffffffffffffffffffffffffffffffffffffffffffffffffffff1916827bffffffffffffffffffffffffffffffffffffffffffffffffffffffff1916148061230857507f5b5e139f000000000000000000000000000000000000000000000000000000007bffffffffffffffffffffffffffffffffffffffffffffffffffffffff1916827bffffffffffffffffffffffffffffffffffffffffffffffffffffffff1916145b8061231857506123178261269e565b5b9050919050565b60008060009054906101000a900473ffffffffffffffffffffffffffffffffffffffff1673ffffffffffffffffffffffffffffffffffffffff166123638484612708565b73ffffffffffffffffffffffffffffffffffffffff16146123b9576040517f08c379a00000000000000000000000000000000000000000000000000000000081526004016123b090614db3565b60405180910390fd5b6001905092915050565b6123ce838383612725565b505050565b505050565b6123e28383612837565b6123ef6000848484612433565b61242e576040517f08c379a000000000000000000000000000000000000000000000000000000000815260040161242590614c91565b60405180910390fd5b505050565b60006124548473ffffffffffffffffffffffffffffffffffffffff16612a10565b156125ad578373ffffffffffffffffffffffffffffffffffffffff1663150b7a0261247d6118fa565b8786866040518563ffffffff1660e01b815260040161249f9493929190614e28565b6020604051808303816000875af19250505080156124db57506040513d601f19601f820116820180604052508101906124d89190614e89565b60015b61255d573d806000811461250b576040519150601f19603f3d011682016040523d82523d6000602084013e612510565b606091505b506000815103612555576040517f08c379a000000000000000000000000000000000000000000000000000000000815260040161254c90614c91565b60405180910390fd5b805181602001fd5b63150b7a0260e01b7bffffffffffffffffffffffffffffffffffffffffffffffffffffffff1916817bffffffffffffffffffffffffffffffffffffffffffffffffffffffff1916149150506125b2565b600190505b949350505050565b60606040518060400160405280601581526020017f68747470733a2f2f697066732e696f2f697066732f0000000000000000000000815250905090565b60606126028261188e565b612641576040517f08c379a000000000000000000000000000000000000000000000000000000000815260040161263890614f28565b60405180910390fd5b600061264b6125ba565b9050600081511161266b5760405180602001604052806000815250612696565b8061267584612a33565b604051602001612686929190614d43565b6040516020818303038152906040525b915050919050565b60007f01ffc9a7000000000000000000000000000000000000000000000000000000007bffffffffffffffffffffffffffffffffffffffffffffffffffffffff1916827bffffffffffffffffffffffffffffffffffffffffffffffffffffffff1916149050919050565b600061271d8284612b9390919063ffffffff16565b905092915050565b612730838383612bba565b600073ffffffffffffffffffffffffffffffffffffffff168373ffffffffffffffffffffffffffffffffffffffff16036127725761276d81612bbf565b6127b1565b8173ffffffffffffffffffffffffffffffffffffffff168373ffffffffffffffffffffffffffffffffffffffff16146127b0576127af8382612c08565b5b5b600073ffffffffffffffffffffffffffffffffffffffff168273ffffffffffffffffffffffffffffffffffffffff16036127f3576127ee81612d75565b612832565b8273ffffffffffffffffffffffffffffffffffffffff168273ffffffffffffffffffffffffffffffffffffffff1614612831576128308282612e46565b5b5b505050565b600073ffffffffffffffffffffffffffffffffffffffff168273ffffffffffffffffffffffffffffffffffffffff16036128a6576040517f08c379a000000000000000000000000000000000000000000000000000000000815260040161289d90614f94565b60405180910390fd5b6128af8161188e565b156128ef576040517f08c379a00000000000000000000000000000000000000000000000000000000081526004016128e690615000565b60405180910390fd5b6128fb600083836123c3565b6001600760008473ffffffffffffffffffffffffffffffffffffffff1673ffffffffffffffffffffffffffffffffffffffff168152602001908152602001600020600082825461294b919061486f565b92505081905550816006600083815260200190815260200160002060006101000a81548173ffffffffffffffffffffffffffffffffffffffff021916908373ffffffffffffffffffffffffffffffffffffffff160217905550808273ffffffffffffffffffffffffffffffffffffffff16600073ffffffffffffffffffffffffffffffffffffffff167fddf252ad1be2c89b69c2b068fc378daa952ba7f163c4a11628f55a4df523b3ef60405160405180910390a4612a0c600083836123d3565b5050565b6000808273ffffffffffffffffffffffffffffffffffffffff163b119050919050565b606060008203612a7a576040518060400160405280600181526020017f30000000000000000000000000000000000000000000000000000000000000008152509050612b8e565b600082905060005b60008214612aac578080612a9590615020565b915050600a82612aa59190615097565b9150612a82565b60008167ffffffffffffffff811115612ac857612ac7613593565b5b6040519080825280601f01601f191660200182016040528015612afa5781602001600182028036833780820191505090505b5090505b60008514612b8757600182612b13919061483b565b9150600a85612b2291906150c8565b6030612b2e919061486f565b60f81b818381518110612b4457612b43614136565b5b60200101907effffffffffffffffffffffffffffffffffffffffffffffffffffffffffffff1916908160001a905350600a85612b809190615097565b9450612afe565b8093505050505b919050565b6000806000612ba28585612ec5565b91509150612baf81612f46565b819250505092915050565b505050565b600c80549050600d600083815260200190815260200160002081905550600c81908060018154018082558091505060019003906000526020600020016000909190919091505550565b60006001612c1584610f2a565b612c1f919061483b565b90506000600b6000848152602001908152602001600020549050818114612d04576000600a60008673ffffffffffffffffffffffffffffffffffffffff1673ffffffffffffffffffffffffffffffffffffffff168152602001908152602001600020600084815260200190815260200160002054905080600a60008773ffffffffffffffffffffffffffffffffffffffff1673ffffffffffffffffffffffffffffffffffffffff16815260200190815260200160002060008481526020019081526020016000208190555081600b600083815260200190815260200160002081905550505b600b600084815260200190815260200160002060009055600a60008573ffffffffffffffffffffffffffffffffffffffff1673ffffffffffffffffffffffffffffffffffffffff16815260200190815260200160002060008381526020019081526020016000206000905550505050565b60006001600c80549050612d89919061483b565b90506000600d60008481526020019081526020016000205490506000600c8381548110612db957612db8614136565b5b9060005260206000200154905080600c8381548110612ddb57612dda614136565b5b906000526020600020018190555081600d600083815260200190815260200160002081905550600d600085815260200190815260200160002060009055600c805480612e2a57612e296150f9565b5b6001900381819060005260206000200160009055905550505050565b6000612e5183610f2a565b905081600a60008573ffffffffffffffffffffffffffffffffffffffff1673ffffffffffffffffffffffffffffffffffffffff16815260200190815260200160002060008381526020019081526020016000208190555080600b600084815260200190815260200160002081905550505050565b6000806041835103612f065760008060006020860151925060408601519150606086015160001a9050612efa87828585613112565b94509450505050612f3f565b6040835103612f36576000806020850151915060408501519050612f2b86838361321e565b935093505050612f3f565b60006002915091505b9250929050565b60006004811115612f5a57612f59615128565b5b816004811115612f6d57612f6c615128565b5b031561310f5760016004811115612f8757612f86615128565b5b816004811115612f9a57612f99615128565b5b03612fda576040517f08c379a0000000000000000000000000000000000000000000000000000000008152600401612fd1906151a3565b60405180910390fd5b60026004811115612fee57612fed615128565b5b81600481111561300157613000615128565b5b03613041576040517f08c379a00000000000000000000000000000000000000000000000000000000081526004016130389061520f565b60405180910390fd5b6003600481111561305557613054615128565b5b81600481111561306857613067615128565b5b036130a8576040517f08c379a000000000000000000000000000000000000000000000000000000000815260040161309f906152a1565b60405180910390fd5b6004808111156130bb576130ba615128565b5b8160048111156130ce576130cd615128565b5b0361310e576040517f08c379a000000000000000000000000000000000000000000000000000000000815260040161310590615333565b60405180910390fd5b5b50565b6000807f7fffffffffffffffffffffffffffffff5d576e7357a4501ddfe92f46681b20a08360001c111561314d576000600391509150613215565b601b8560ff16141580156131655750601c8560ff1614155b15613177576000600491509150613215565b60006001878787876040516000815260200160405260405161319c949392919061536f565b6020604051602081039080840390855afa1580156131be573d6000803e3d6000fd5b505050602060405103519050600073ffffffffffffffffffffffffffffffffffffffff168173ffffffffffffffffffffffffffffffffffffffff160361320c57600060019250925050613215565b80600092509250505b94509492505050565b60008060007f7fffffffffffffffffffffffffffffffffffffffffffffffffffffffffffffff60001b841690506000601b60ff8660001c901c613261919061486f565b905061326f87828885613112565b935093505050935093915050565b6000604051905090565b600080fd5b600080fd5b60007fffffffff0000000000000000000000000000000000000000000000000000000082169050919050565b6132c681613291565b81146132d157600080fd5b50565b6000813590506132e3816132bd565b92915050565b6000602082840312156132ff576132fe613287565b5b600061330d848285016132d4565b91505092915050565b60008115159050919050565b61332b81613316565b82525050565b60006020820190506133466000830184613322565b92915050565b600081519050919050565b600082825260208201905092915050565b60005b8381101561338657808201518184015260208101905061336b565b60008484015250505050565b6000601f19601f8301169050919050565b60006133ae8261334c565b6133b88185613357565b93506133c8818560208601613368565b6133d181613392565b840191505092915050565b600060208201905081810360008301526133f681846133a3565b905092915050565b600073ffffffffffffffffffffffffffffffffffffffff82169050919050565b6000613429826133fe565b9050919050565b6134398161341e565b82525050565b60006020820190506134546000830184613430565b92915050565b6000819050919050565b61346d8161345a565b811461347857600080fd5b50565b60008135905061348a81613464565b92915050565b6000602082840312156134a6576134a5613287565b5b60006134b48482850161347b565b91505092915050565b6134c68161341e565b81146134d157600080fd5b50565b6000813590506134e3816134bd565b92915050565b60008060408385031215613500576134ff613287565b5b600061350e858286016134d4565b925050602061351f8582860161347b565b9150509250929050565b6135328161345a565b82525050565b600060208201905061354d6000830184613529565b92915050565b6000819050919050565b61356681613553565b811461357157600080fd5b50565b6000813590506135838161355d565b92915050565b600080fd5b600080fd5b7f4e487b7100000000000000000000000000000000000000000000000000000000600052604160045260246000fd5b6135cb82613392565b810181811067ffffffffffffffff821117156135ea576135e9613593565b5b80604052505050565b60006135fd61327d565b905061360982826135c2565b919050565b600067ffffffffffffffff82111561362957613628613593565b5b61363282613392565b9050602081019050919050565b82818337600083830152505050565b600061366161365c8461360e565b6135f3565b90508281526020810184848401111561367d5761367c61358e565b5b61368884828561363f565b509392505050565b600082601f8301126136a5576136a4613589565b5b81356136b584826020860161364e565b91505092915050565b600067ffffffffffffffff8211156136d9576136d8613593565b5b6136e282613392565b9050602081019050919050565b60006137026136fd846136be565b6135f3565b90508281526020810184848401111561371e5761371d61358e565b5b61372984828561363f565b509392505050565b600082601f83011261374657613745613589565b5b81356137568482602086016136ef565b91505092915050565b60008060008060008060c0878903121561377c5761377b613287565b5b600061378a89828a0161347b565b965050602061379b89828a01613574565b95505060406137ac89828a0161347b565b945050606087013567ffffffffffffffff8111156137cd576137cc61328c565b5b6137d989828a01613690565b935050608087013567ffffffffffffffff8111156137fa576137f961328c565b5b61380689828a01613731565b92505060a061381789828a0161347b565b9150509295509295509295565b60008060006060848603121561383d5761383c613287565b5b600061384b868287016134d4565b935050602061385c868287016134d4565b925050604061386d8682870161347b565b9150509250925092565b60006020828403121561388d5761388c613287565b5b600061389b848285016134d4565b91505092915050565b600080600080600060a086880312156138c0576138bf613287565b5b60006138ce8882890161347b565b95505060206138df88828901613574565b94505060406138f08882890161347b565b935050606086013567ffffffffffffffff8111156139115761391061328c565b5b61391d88828901613690565b925050608086013567ffffffffffffffff81111561393e5761393d61328c565b5b61394a88828901613731565b9150509295509295909350565b6000806000606084860312156139705761396f613287565b5b600061397e8682870161347b565b935050602084013567ffffffffffffffff81111561399f5761399e61328c565b5b6139ab86828701613690565b925050604084013567ffffffffffffffff8111156139cc576139cb61328c565b5b6139d886828701613731565b9150509250925092565b6000602082840312156139f8576139f7613287565b5b600082013567ffffffffffffffff811115613a1657613a1561328c565b5b613a2284828501613690565b91505092915050565b60008060408385031215613a4257613a41613287565b5b600083013567ffffffffffffffff811115613a6057613a5f61328c565b5b613a6c85828601613690565b925050602083013567ffffffffffffffff811115613a8d57613a8c61328c565b5b613a9985828601613731565b9150509250929050565b613aac81613316565b8114613ab757600080fd5b50565b600081359050613ac981613aa3565b92915050565b60008060408385031215613ae657613ae5613287565b5b6000613af4858286016134d4565b9250506020613b0585828601613aba565b9150509250929050565b60008060008060808587031215613b2957613b28613287565b5b6000613b37878288016134d4565b9450506020613b48878288016134d4565b9350506040613b598782880161347b565b925050606085013567ffffffffffffffff811115613b7a57613b7961328c565b5b613b8687828801613731565b91505092959194509250565b60008060408385031215613ba957613ba8613287565b5b6000613bb7858286016134d4565b9250506020613bc8858286016134d4565b9150509250929050565b7f4e487b7100000000000000000000000000000000000000000000000000000000600052602260045260246000fd5b60006002820490506001821680613c1957607f821691505b602082108103613c2c57613c2b613bd2565b5b50919050565b7f4552433732313a20617070726f76656420717565727920666f72206e6f6e657860008201527f697374656e7420746f6b656e0000000000000000000000000000000000000000602082015250565b6000613c8e602c83613357565b9150613c9982613c32565b604082019050919050565b60006020820190508181036000830152613cbd81613c81565b9050919050565b7f4552433732313a20617070726f76616c20746f2063757272656e74206f776e6560008201527f7200000000000000000000000000000000000000000000000000000000000000602082015250565b6000613d20602183613357565b9150613d2b82613cc4565b604082019050919050565b60006020820190508181036000830152613d4f81613d13565b9050919050565b7f4552433732313a20617070726f76652063616c6c6572206973206e6f74206f7760008201527f6e6572206e6f7220617070726f76656420666f7220616c6c0000000000000000602082015250565b6000613db2603883613357565b9150613dbd82613d56565b604082019050919050565b60006020820190508181036000830152613de181613da5565b9050919050565b7f43616c6c6572206973206e6f74206f776e6572206f66206e7574000000000000600082015250565b6000613e1e601a83613357565b9150613e2982613de8565b602082019050919050565b60006020820190508181036000830152613e4d81613e11565b9050919050565b613e5d81613553565b82525050565b6000608082019050613e786000830187613529565b613e856020830186613529565b613e926040830185613529565b613e9f6060830184613e54565b95945050505050565b7f4552433732313a207472616e736665722063616c6c6572206973206e6f74206f60008201527f776e6572206e6f7220617070726f766564000000000000000000000000000000602082015250565b6000613f04603183613357565b9150613f0f82613ea8565b604082019050919050565b60006020820190508181036000830152613f3381613ef7565b9050919050565b7f455243373231456e756d657261626c653a206f776e657220696e646578206f7560008201527f74206f6620626f756e6473000000000000000000000000000000000000000000602082015250565b6000613f96602b83613357565b9150613fa182613f3a565b604082019050919050565b60006020820190508181036000830152613fc581613f89565b9050919050565b7f4f776e61626c653a2063616c6c6572206973206e6f7420746865206f776e6572600082015250565b6000614002602083613357565b915061400d82613fcc565b602082019050919050565b6000602082019050818103600083015261403181613ff5565b9050919050565b7f4e6f2062616c616e636520746f20776974686472617700000000000000000000600082015250565b600061406e601683613357565b915061407982614038565b602082019050919050565b6000602082019050818103600083015261409d81614061565b9050919050565b7f455243373231456e756d657261626c653a20676c6f62616c20696e646578206f60008201527f7574206f6620626f756e64730000000000000000000000000000000000000000602082015250565b6000614100602c83613357565b915061410b826140a4565b604082019050919050565b6000602082019050818103600083015261412f816140f3565b9050919050565b7f4e487b7100000000000000000000000000000000000000000000000000000000600052603260045260246000fd5b7f4552433732313a206f776e657220717565727920666f72206e6f6e657869737460008201527f656e7420746f6b656e0000000000000000000000000000000000000000000000602082015250565b60006141c1602983613357565b91506141cc82614165565b604082019050919050565b600060208201905081810360008301526141f0816141b4565b9050919050565b7f4552433732313a2062616c616e636520717565727920666f7220746865207a6560008201527f726f206164647265737300000000000000000000000000000000000000000000602082015250565b6000614253602a83613357565b915061425e826141f7565b604082019050919050565b6000602082019050818103600083015261428281614246565b9050919050565b7f43616c6c6572206973206e6f742073797374656d000000000000000000000000600082015250565b60006142bf601483613357565b91506142ca82614289565b602082019050919050565b600060208201905081810360008301526142ee816142b2565b9050919050565b7f4e757473207374696c6c2065786973742066726f6d206372656174696f6e0000600082015250565b600061432b601e83613357565b9150614336826142f5565b602082019050919050565b6000602082019050818103600083015261435a8161431e565b9050919050565b60006060820190506143766000830186613529565b6143836020830185613e54565b6143906040830184613529565b949350505050565b7f53616c65206d7573742062652061637469766500000000000000000000000000600082015250565b60006143ce601383613357565b91506143d982614398565b602082019050919050565b600060208201905081810360008301526143fd816143c1565b9050919050565b7f45786365656420696e697469616c20737570706c79206f66206e757473000000600082015250565b600061443a601d83613357565b915061444582614404565b602082019050919050565b600060208201905081810360008301526144698161442d565b9050919050565b60006040820190506144856000830185613430565b6144926020830184613529565b9392505050565b7f4f776e61626c653a206e6577206f776e657220697320746865207a65726f206160008201527f6464726573730000000000000000000000000000000000000000000000000000602082015250565b60006144f5602683613357565b915061450082614499565b604082019050919050565b60006020820190508181036000830152614524816144e8565b9050919050565b7f43616c6c6572206973206e6f74206f776e6572206e6f7220617070726f766564600082015250565b6000614561602083613357565b915061456c8261452b565b602082019050919050565b6000602082019050818103600083015261459081614554565b9050919050565b600081905092915050565b60006145ad8261334c565b6145b78185614597565b93506145c7818560208601613368565b80840191505092915050565b60006145df82846145a2565b915081905092915050565b7f4461746120646f6573206e6f74206d61746368207369676e6174757265000000600082015250565b6000614620601d83613357565b915061462b826145ea565b602082019050919050565b6000602082019050818103600083015261464f81614613565b9050919050565b7f4552433732313a206f70657261746f7220717565727920666f72206e6f6e657860008201527f697374656e7420746f6b656e0000000000000000000000000000000000000000602082015250565b60006146b2602c83613357565b91506146bd82614656565b604082019050919050565b600060208201905081810360008301526146e1816146a5565b9050919050565b7f4552433732313a207472616e736665722066726f6d20696e636f72726563742060008201527f6f776e6572000000000000000000000000000000000000000000000000000000602082015250565b6000614744602583613357565b915061474f826146e8565b604082019050919050565b6000602082019050818103600083015261477381614737565b9050919050565b7f4552433732313a207472616e7366657220746f20746865207a65726f2061646460008201527f7265737300000000000000000000000000000000000000000000000000000000602082015250565b60006147d6602483613357565b91506147e18261477a565b604082019050919050565b60006020820190508181036000830152614805816147c9565b9050919050565b7f4e487b7100000000000000000000000000000000000000000000000000000000600052601160045260246000fd5b60006148468261345a565b91506148518361345a565b92508282039050818111156148695761486861480c565b5b92915050565b600061487a8261345a565b91506148858361345a565b925082820190508082111561489d5761489c61480c565b5b92915050565b7f45524337323155524953746f726167653a2055524920736574206f66206e6f6e60008201527f6578697374656e7420746f6b656e000000000000000000000000000000000000602082015250565b60006148ff602e83613357565b915061490a826148a3565b604082019050919050565b6000602082019050818103600083015261492e816148f2565b9050919050565b60008190508160005260206000209050919050565b60006020601f8301049050919050565b600082821b905092915050565b6000600883026149977fffffffffffffffffffffffffffffffffffffffffffffffffffffffffffffffff8261495a565b6149a1868361495a565b95508019841693508086168417925050509392505050565b6000819050919050565b60006149de6149d96149d48461345a565b6149b9565b61345a565b9050919050565b6000819050919050565b6149f8836149c3565b614a0c614a04826149e5565b848454614967565b825550505050565b600090565b614a21614a14565b614a2c8184846149ef565b505050565b5b81811015614a5057614a45600082614a19565b600181019050614a32565b5050565b601f821115614a9557614a6681614935565b614a6f8461494a565b81016020851015614a7e578190505b614a92614a8a8561494a565b830182614a31565b50505b505050565b600082821c905092915050565b6000614ab860001984600802614a9a565b1980831691505092915050565b6000614ad18383614aa7565b9150826002028217905092915050565b614aea8261334c565b67ffffffffffffffff811115614b0357614b02613593565b5b614b0d8254613c01565b614b18828285614a54565b600060209050601f831160018114614b4b5760008415614b39578287015190505b614b438582614ac5565b865550614bab565b601f198416614b5986614935565b60005b82811015614b8157848901518255600182019150602085019450602081019050614b5c565b86831015614b9e5784890151614b9a601f891682614aa7565b8355505b6001600288020188555050505b505050505050565b7f4552433732313a20617070726f766520746f2063616c6c657200000000000000600082015250565b6000614be9601983613357565b9150614bf482614bb3565b602082019050919050565b60006020820190508181036000830152614c1881614bdc565b9050919050565b7f4552433732313a207472616e7366657220746f206e6f6e20455243373231526560008201527f63656976657220696d706c656d656e7465720000000000000000000000000000602082015250565b6000614c7b603283613357565b9150614c8682614c1f565b604082019050919050565b60006020820190508181036000830152614caa81614c6e565b9050919050565b7f45524337323155524953746f726167653a2055524920717565727920666f722060008201527f6e6f6e6578697374656e7420746f6b656e000000000000000000000000000000602082015250565b6000614d0d603183613357565b9150614d1882614cb1565b604082019050919050565b60006020820190508181036000830152614d3c81614d00565b9050919050565b6000614d4f82856145a2565b9150614d5b82846145a2565b91508190509392505050565b7f496e76616c6964207369676e6174757265000000000000000000000000000000600082015250565b6000614d9d601183613357565b9150614da882614d67565b602082019050919050565b60006020820190508181036000830152614dcc81614d90565b9050919050565b600081519050919050565b600082825260208201905092915050565b6000614dfa82614dd3565b614e048185614dde565b9350614e14818560208601613368565b614e1d81613392565b840191505092915050565b6000608082019050614e3d6000830187613430565b614e4a6020830186613430565b614e576040830185613529565b8181036060830152614e698184614def565b905095945050505050565b600081519050614e83816132bd565b92915050565b600060208284031215614e9f57614e9e613287565b5b6000614ead84828501614e74565b91505092915050565b7f4552433732314d657461646174613a2055524920717565727920666f72206e6f60008201527f6e6578697374656e7420746f6b656e0000000000000000000000000000000000602082015250565b6000614f12602f83613357565b9150614f1d82614eb6565b604082019050919050565b60006020820190508181036000830152614f4181614f05565b9050919050565b7f4552433732313a206d696e7420746f20746865207a65726f2061646472657373600082015250565b6000614f7e602083613357565b9150614f8982614f48565b602082019050919050565b60006020820190508181036000830152614fad81614f71565b9050919050565b7f4552433732313a20746f6b656e20616c7265616479206d696e74656400000000600082015250565b6000614fea601c83613357565b9150614ff582614fb4565b602082019050919050565b6000602082019050818103600083015261501981614fdd565b9050919050565b600061502b8261345a565b91507fffffffffffffffffffffffffffffffffffffffffffffffffffffffffffffffff820361505d5761505c61480c565b5b600182019050919050565b7f4e487b7100000000000000000000000000000000000000000000000000000000600052601260045260246000fd5b60006150a28261345a565b91506150ad8361345a565b9250826150bd576150bc615068565b5b828204905092915050565b60006150d38261345a565b91506150de8361345a565b9250826150ee576150ed615068565b5b828206905092915050565b7f4e487b7100000000000000000000000000000000000000000000000000000000600052603160045260246000fd5b7f4e487b7100000000000000000000000000000000000000000000000000000000600052602160045260246000fd5b7f45434453413a20696e76616c6964207369676e61747572650000000000000000600082015250565b600061518d601883613357565b915061519882615157565b602082019050919050565b600060208201905081810360008301526151bc81615180565b9050919050565b7f45434453413a20696e76616c6964207369676e6174757265206c656e67746800600082015250565b60006151f9601f83613357565b9150615204826151c3565b602082019050919050565b60006020820190508181036000830152615228816151ec565b9050919050565b7f45434453413a20696e76616c6964207369676e6174757265202773272076616c60008201527f7565000000000000000000000000000000000000000000000000000000000000602082015250565b600061528b602283613357565b91506152968261522f565b604082019050919050565b600060208201905081810360008301526152ba8161527e565b9050919050565b7f45434453413a20696e76616c6964207369676e6174757265202776272076616c60008201527f7565000000000000000000000000000000000000000000000000000000000000602082015250565b600061531d602283613357565b9150615328826152c1565b604082019050919050565b6000602082019050818103600083015261534c81615310565b9050919050565b600060ff82169050919050565b61536981615353565b82525050565b60006080820190506153846000830187613e54565b6153916020830186615360565b61539e6040830185613e54565b6153ab6060830184613e54565b9594505050505056fea264697066735822122016dfdbd22b046d03d4923c4876d73f847cead1fcd73bce0ee7e56336b457930264736f6c63430008110033a2646970667358221220c61d5c87757408024d342b9891ceefb49736a7599867d9c382d812348d86909464736f6c6343000811003360806040523480156200001157600080fd5b5060405162001f8838038062001f8883398181016040528101906200003791906200021e565b818181600390816200004a9190620004ee565b5080600490816200005c9190620004ee565b5050508160059081620000709190620004ee565b508060069081620000829190620004ee565b505050620005d5565b6000604051905090565b600080fd5b600080fd5b600080fd5b600080fd5b6000601f19601f8301169050919050565b7f4e487b7100000000000000000000000000000000000000000000000000000000600052604160045260246000fd5b620000f482620000a9565b810181811067ffffffffffffffff82111715620001165762000115620000ba565b5b80604052505050565b60006200012b6200008b565b9050620001398282620000e9565b919050565b600067ffffffffffffffff8211156200015c576200015b620000ba565b5b6200016782620000a9565b9050602081019050919050565b60005b838110156200019457808201518184015260208101905062000177565b60008484015250505050565b6000620001b7620001b1846200013e565b6200011f565b905082815260208101848484011115620001d657620001d5620000a4565b5b620001e384828562000174565b509392505050565b600082601f8301126200020357620002026200009f565b5b815162000215848260208601620001a0565b91505092915050565b6000806040838503121562000238576200023762000095565b5b600083015167ffffffffffffffff8111156200025957620002586200009a565b5b6200026785828601620001eb565b925050602083015167ffffffffffffffff8111156200028b576200028a6200009a565b5b6200029985828601620001eb565b9150509250929050565b600081519050919050565b7f4e487b7100000000000000000000000000000000000000000000000000000000600052602260045260246000fd5b60006002820490506001821680620002f657607f821691505b6020821081036200030c576200030b620002ae565b5b50919050565b60008190508160005260206000209050919050565b60006020601f8301049050919050565b600082821b905092915050565b600060088302620003767fffffffffffffffffffffffffffffffffffffffffffffffffffffffffffffffff8262000337565b62000382868362000337565b95508019841693508086168417925050509392505050565b6000819050919050565b6000819050919050565b6000620003cf620003c9620003c3846200039a565b620003a4565b6200039a565b9050919050565b6000819050919050565b620003eb83620003ae565b62000403620003fa82620003d6565b84845462000344565b825550505050565b600090565b6200041a6200040b565b62000427818484620003e0565b505050565b5b818110156200044f576200044360008262000410565b6001810190506200042d565b5050565b601f8211156200049e57620004688162000312565b620004738462000327565b8101602085101562000483578190505b6200049b620004928562000327565b8301826200042c565b50505b505050565b600082821c905092915050565b6000620004c360001984600802620004a3565b1980831691505092915050565b6000620004de8383620004b0565b9150826002028217905092915050565b620004f982620002a3565b67ffffffffffffffff811115620005155762000514620000ba565b5b620005218254620002dd565b6200052e82828562000453565b600060209050601f83116001811462000566576000841562000551578287015190505b6200055d8582620004d0565b865550620005cd565b601f198416620005768662000312565b60005b82811015620005a05784890151825560018201915060208501945060208101905062000579565b86831015620005c05784890151620005bc601f891682620004b0565b8355505b6001600288020188555050505b505050505050565b6119a380620005e56000396000f3fe608060405234801561001057600080fd5b50600436106101005760003560e01c8063699aa4791161009757806395d89b411161006657806395d89b41146102af578063a457c2d7146102cd578063a9059cbb146102fd578063dd62ed3e1461032d57610100565b8063699aa4791461022757806370a082311461024557806379cc679014610275578063916965651461029157610100565b8063313ce567116100d3578063313ce567146101a157806339509351146101bf57806342966c68146101ef5780634bbc1bcd1461020b57610100565b806306fdde0314610105578063095ea7b31461012357806318160ddd1461015357806323b872dd14610171575b600080fd5b61010d61035d565b60405161011a919061108f565b60405180910390f35b61013d6004803603810190610138919061114a565b6103ef565b60405161014a91906111a5565b60405180910390f35b61015b610412565b60405161016891906111cf565b60405180910390f35b61018b600480360381019061018691906111ea565b61041c565b60405161019891906111a5565b60405180910390f35b6101a961044b565b6040516101b69190611259565b60405180910390f35b6101d960048036038101906101d4919061114a565b610454565b6040516101e691906111a5565b60405180910390f35b61020960048036038101906102049190611274565b61048b565b005b6102256004803603810190610220919061114a565b61049f565b005b61022f6104ad565b60405161023c919061108f565b60405180910390f35b61025f600480360381019061025a91906112a1565b61053b565b60405161026c91906111cf565b60405180910390f35b61028f600480360381019061028a919061114a565b610583565b005b6102996105a3565b6040516102a6919061108f565b60405180910390f35b6102b7610631565b6040516102c4919061108f565b60405180910390f35b6102e760048036038101906102e2919061114a565b6106c3565b6040516102f491906111a5565b60405180910390f35b6103176004803603810190610312919061114a565b61073a565b60405161032491906111a5565b60405180910390f35b610347600480360381019061034291906112ce565b61075d565b60405161035491906111cf565b60405180910390f35b60606003805461036c9061133d565b80601f01602080910402602001604051908101604052809291908181526020018280546103989061133d565b80156103e55780601f106103ba576101008083540402835291602001916103e5565b820191906000526020600020905b8154815290600101906020018083116103c857829003601f168201915b5050505050905090565b6000806103fa6107e4565b90506104078185856107ec565b600191505092915050565b6000600254905090565b6000806104276107e4565b90506104348582856109b5565b61043f858585610a41565b60019150509392505050565b60006012905090565b60008061045f6107e4565b9050610480818585610471858961075d565b61047b919061139d565b6107ec565b600191505092915050565b61049c6104966107e4565b82610cc0565b50565b6104a98282610e96565b5050565b600580546104ba9061133d565b80601f01602080910402602001604051908101604052809291908181526020018280546104e69061133d565b80156105335780601f1061050857610100808354040283529160200191610533565b820191906000526020600020905b81548152906001019060200180831161051657829003601f168201915b505050505081565b60008060008373ffffffffffffffffffffffffffffffffffffffff1673ffffffffffffffffffffffffffffffffffffffff168152602001908152602001600020549050919050565b6105958261058f6107e4565b836109b5565b61059f8282610cc0565b5050565b600680546105b09061133d565b80601f01602080910402602001604051908101604052809291908181526020018280546105dc9061133d565b80156106295780601f106105fe57610100808354040283529160200191610629565b820191906000526020600020905b81548152906001019060200180831161060c57829003601f168201915b505050505081565b6060600480546106409061133d565b80601f016020809104026020016040519081016040528092919081815260200182805461066c9061133d565b80156106b95780601f1061068e576101008083540402835291602001916106b9565b820191906000526020600020905b81548152906001019060200180831161069c57829003601f168201915b5050505050905090565b6000806106ce6107e4565b905060006106dc828661075d565b905083811015610721576040517f08c379a000000000000000000000000000000000000000000000000000000000815260040161071890611443565b60405180910390fd5b61072e82868684036107ec565b60019250505092915050565b6000806107456107e4565b9050610752818585610a41565b600191505092915050565b6000600160008473ffffffffffffffffffffffffffffffffffffffff1673ffffffffffffffffffffffffffffffffffffffff16815260200190815260200160002060008373ffffffffffffffffffffffffffffffffffffffff1673ffffffffffffffffffffffffffffffffffffffff16815260200190815260200160002054905092915050565b600033905090565b600073ffffffffffffffffffffffffffffffffffffffff168373ffffffffffffffffffffffffffffffffffffffff160361085b576040517f08c379a0000000000000000000000000000000000000000000000000000000008152600401610852906114d5565b60405180910390fd5b600073ffffffffffffffffffffffffffffffffffffffff168273ffffffffffffffffffffffffffffffffffffffff16036108ca576040517f08c379a00000000000000000000000000000000000000000000000000000000081526004016108c190611567565b60405180910390fd5b80600160008573ffffffffffffffffffffffffffffffffffffffff1673ffffffffffffffffffffffffffffffffffffffff16815260200190815260200160002060008473ffffffffffffffffffffffffffffffffffffffff1673ffffffffffffffffffffffffffffffffffffffff168152602001908152602001600020819055508173ffffffffffffffffffffffffffffffffffffffff168373ffffffffffffffffffffffffffffffffffffffff167f8c5be1e5ebec7d5bd14f71427d1e84f3dd0314c0f7b2291e5b200ac8c7c3b925836040516109a891906111cf565b60405180910390a3505050565b60006109c1848461075d565b90507fffffffffffffffffffffffffffffffffffffffffffffffffffffffffffffffff8114610a3b5781811015610a2d576040517f08c379a0000000000000000000000000000000000000000000000000000000008152600401610a24906115d3565b60405180910390fd5b610a3a84848484036107ec565b5b50505050565b600073ffffffffffffffffffffffffffffffffffffffff168373ffffffffffffffffffffffffffffffffffffffff1603610ab0576040517f08c379a0000000000000000000000000000000000000000000000000000000008152600401610aa790611665565b60405180910390fd5b600073ffffffffffffffffffffffffffffffffffffffff168273ffffffffffffffffffffffffffffffffffffffff1603610b1f576040517f08c379a0000000000000000000000000000000000000000000000000000000008152600401610b16906116f7565b60405180910390fd5b610b2a838383610ff5565b60008060008573ffffffffffffffffffffffffffffffffffffffff1673ffffffffffffffffffffffffffffffffffffffff16815260200190815260200160002054905081811015610bb0576040517f08c379a0000000000000000000000000000000000000000000000000000000008152600401610ba790611789565b60405180910390fd5b8181036000808673ffffffffffffffffffffffffffffffffffffffff1673ffffffffffffffffffffffffffffffffffffffff16815260200190815260200160002081905550816000808573ffffffffffffffffffffffffffffffffffffffff1673ffffffffffffffffffffffffffffffffffffffff1681526020019081526020016000206000828254610c43919061139d565b925050819055508273ffffffffffffffffffffffffffffffffffffffff168473ffffffffffffffffffffffffffffffffffffffff167fddf252ad1be2c89b69c2b068fc378daa952ba7f163c4a11628f55a4df523b3ef84604051610ca791906111cf565b60405180910390a3610cba848484610ffa565b50505050565b600073ffffffffffffffffffffffffffffffffffffffff168273ffffffffffffffffffffffffffffffffffffffff1603610d2f576040517f08c379a0000000000000000000000000000000000000000000000000000000008152600401610d269061181b565b60405180910390fd5b610d3b82600083610ff5565b60008060008473ffffffffffffffffffffffffffffffffffffffff1673ffffffffffffffffffffffffffffffffffffffff16815260200190815260200160002054905081811015610dc1576040517f08c379a0000000000000000000000000000000000000000000000000000000008152600401610db8906118ad565b60405180910390fd5b8181036000808573ffffffffffffffffffffffffffffffffffffffff1673ffffffffffffffffffffffffffffffffffffffff168152602001908152602001600020819055508160026000828254610e1891906118cd565b92505081905550600073ffffffffffffffffffffffffffffffffffffffff168373ffffffffffffffffffffffffffffffffffffffff167fddf252ad1be2c89b69c2b068fc378daa952ba7f163c4a11628f55a4df523b3ef84604051610e7d91906111cf565b60405180910390a3610e9183600084610ffa565b505050565b600073ffffffffffffffffffffffffffffffffffffffff168273ffffffffffffffffffffffffffffffffffffffff1603610f05576040517f08c379a0000000000000000000000000000000000000000000000000000000008152600401610efc9061194d565b60405180910390fd5b610f1160008383610ff5565b8060026000828254610f23919061139d565b92505081905550806000808473ffffffffffffffffffffffffffffffffffffffff1673ffffffffffffffffffffffffffffffffffffffff1681526020019081526020016000206000828254610f78919061139d565b925050819055508173ffffffffffffffffffffffffffffffffffffffff16600073ffffffffffffffffffffffffffffffffffffffff167fddf252ad1be2c89b69c2b068fc378daa952ba7f163c4a11628f55a4df523b3ef83604051610fdd91906111cf565b60405180910390a3610ff160008383610ffa565b5050565b505050565b505050565b600081519050919050565b600082825260208201905092915050565b60005b8381101561103957808201518184015260208101905061101e565b60008484015250505050565b6000601f19601f8301169050919050565b600061106182610fff565b61106b818561100a565b935061107b81856020860161101b565b61108481611045565b840191505092915050565b600060208201905081810360008301526110a98184611056565b905092915050565b600080fd5b600073ffffffffffffffffffffffffffffffffffffffff82169050919050565b60006110e1826110b6565b9050919050565b6110f1816110d6565b81146110fc57600080fd5b50565b60008135905061110e816110e8565b92915050565b6000819050919050565b61112781611114565b811461113257600080fd5b50565b6000813590506111448161111e565b92915050565b60008060408385031215611161576111606110b1565b5b600061116f858286016110ff565b925050602061118085828601611135565b9150509250929050565b60008115159050919050565b61119f8161118a565b82525050565b60006020820190506111ba6000830184611196565b92915050565b6111c981611114565b82525050565b60006020820190506111e460008301846111c0565b92915050565b600080600060608486031215611203576112026110b1565b5b6000611211868287016110ff565b9350506020611222868287016110ff565b925050604061123386828701611135565b9150509250925092565b600060ff82169050919050565b6112538161123d565b82525050565b600060208201905061126e600083018461124a565b92915050565b60006020828403121561128a576112896110b1565b5b600061129884828501611135565b91505092915050565b6000602082840312156112b7576112b66110b1565b5b60006112c5848285016110ff565b91505092915050565b600080604083850312156112e5576112e46110b1565b5b60006112f3858286016110ff565b9250506020611304858286016110ff565b9150509250929050565b7f4e487b7100000000000000000000000000000000000000000000000000000000600052602260045260246000fd5b6000600282049050600182168061135557607f821691505b6020821081036113685761136761130e565b5b50919050565b7f4e487b7100000000000000000000000000000000000000000000000000000000600052601160045260246000fd5b60006113a882611114565b91506113b383611114565b92508282019050808211156113cb576113ca61136e565b5b92915050565b7f45524332303a2064656372656173656420616c6c6f77616e63652062656c6f7760008201527f207a65726f000000000000000000000000000000000000000000000000000000602082015250565b600061142d60258361100a565b9150611438826113d1565b604082019050919050565b6000602082019050818103600083015261145c81611420565b9050919050565b7f45524332303a20617070726f76652066726f6d20746865207a65726f2061646460008201527f7265737300000000000000000000000000000000000000000000000000000000602082015250565b60006114bf60248361100a565b91506114ca82611463565b604082019050919050565b600060208201905081810360008301526114ee816114b2565b9050919050565b7f45524332303a20617070726f766520746f20746865207a65726f20616464726560008201527f7373000000000000000000000000000000000000000000000000000000000000602082015250565b600061155160228361100a565b915061155c826114f5565b604082019050919050565b6000602082019050818103600083015261158081611544565b9050919050565b7f45524332303a20696e73756666696369656e7420616c6c6f77616e6365000000600082015250565b60006115bd601d8361100a565b91506115c882611587565b602082019050919050565b600060208201905081810360008301526115ec816115b0565b9050919050565b7f45524332303a207472616e736665722066726f6d20746865207a65726f20616460008201527f6472657373000000000000000000000000000000000000000000000000000000602082015250565b600061164f60258361100a565b915061165a826115f3565b604082019050919050565b6000602082019050818103600083015261167e81611642565b9050919050565b7f45524332303a207472616e7366657220746f20746865207a65726f206164647260008201527f6573730000000000000000000000000000000000000000000000000000000000602082015250565b60006116e160238361100a565b91506116ec82611685565b604082019050919050565b60006020820190508181036000830152611710816116d4565b9050919050565b7f45524332303a207472616e7366657220616d6f756e742065786365656473206260008201527f616c616e63650000000000000000000000000000000000000000000000000000602082015250565b600061177360268361100a565b915061177e82611717565b604082019050919050565b600060208201905081810360008301526117a281611766565b9050919050565b7f45524332303a206275726e2066726f6d20746865207a65726f2061646472657360008201527f7300000000000000000000000000000000000000000000000000000000000000602082015250565b600061180560218361100a565b9150611810826117a9565b604082019050919050565b60006020820190508181036000830152611834816117f8565b9050919050565b7f45524332303a206275726e20616d6f756e7420657863656564732062616c616e60008201527f6365000000000000000000000000000000000000000000000000000000000000602082015250565b600061189760228361100a565b91506118a28261183b565b604082019050919050565b600060208201905081810360008301526118c68161188a565b9050919050565b60006118d882611114565b91506118e383611114565b92508282039050818111156118fb576118fa61136e565b5b92915050565b7f45524332303a206d696e7420746f20746865207a65726f206164647265737300600082015250565b6000611937601f8361100a565b915061194282611901565b602082019050919050565b600060208201905081810360008301526119668161192a565b905091905056fea2646970667358221220500b86a8a897271833d41f473ff9a3bf80260f0134de0299a741b64116a4b7d364736f6c63430008110033",
  "immutableReferences": {},
  "source": "// SPDX-License-Identifier: MIT\npragma solidity ^0.8.7;\n\nimport \"openzeppelin-solidity/contracts/access/Ownable.sol\";\nimport \"./CosmoMatter.sol\";\nimport \"./CosmoBang.sol\";\n\n/**\n * CosmoUniverse is the top contract for the developer to create the planned system.\n *\n */\n contract CosmoUniverse is Ownable {\n\n    address public SYSTEM_ADDRESS;\n    address public MATTER_ADDRESS;\n\n    struct Cosmo {\n        uint256 cosmoId;\n        bool status;\n        string name;\n        string symbol;\n        address cosmo_location;\n        address treasury_location;\n    }\n    Cosmo cosmo;\n    Cosmo[] cosmos;\n\n    CosmoMatter matter;\n\n    constructor(\n        address _systemAddress,\n        string memory _matterName,\n        string memory _matterSymbol\n        )\n    {\n        SYSTEM_ADDRESS = _systemAddress;\n        matter = new CosmoMatter(_matterName, _matterSymbol);\n        MATTER_ADDRESS = address(matter);\n    }\n\n    function bigBang(\n        string memory _cosmosName,\n        string memory _cosmosSymbol,\n        uint256 _desiredEntities,\n        uint256 _matterRate\n    ) public onlyOwner {\n        uint256 matterToCreate = _desiredEntities * _matterRate;\n        matter.mintMatter(address(this), matterToCreate);\n        CosmoBang bang = new CosmoBang(SYSTEM_ADDRESS, MATTER_ADDRESS, _cosmosName, _cosmosSymbol, _desiredEntities,  _matterRate);\n\n        uint256 cosmosIndex = cosmos.length;\n        cosmo = Cosmo(cosmosIndex, true, _cosmosName, _cosmosSymbol, bang.COSMO_ADDRESS(), bang.TREASURY_ADDRESS());\n        cosmos.push(cosmo);\n    }\n\n}\n",
  "sourcePath": "/home/redlentils/Seafile/Websites/avatarnft/contracts/CosmoUniverse.sol",
  "compiler": {
    "name": "solc",
    "version": "0.8.17+commit.8df45f5f.Emscripten.clang"
  },
  "schemaVersion": "3.4.10",
  "updatedAt": "2022-10-04T07:55:19.835Z",
  "devdoc": {
    "kind": "dev",
    "methods": {
      "owner()": {
        "details": "Returns the address of the current owner."
      },
      "renounceOwnership()": {
        "details": "Leaves the contract without owner. It will not be possible to call `onlyOwner` functions anymore. Can only be called by the current owner. NOTE: Renouncing ownership will leave the contract without an owner, thereby removing any functionality that is only available to the owner."
      },
      "transferOwnership(address)": {
        "details": "Transfers ownership of the contract to a new account (`newOwner`). Can only be called by the current owner."
      }
    },
    "version": 1
  },
  "userdoc": {
    "kind": "user",
    "methods": {},
    "notice": "CosmoUniverse is the top contract for the developer to create the planned system.",
    "version": 1
  }
}