{
  "contractName": "CosmoNuts",
  "abi": [
    {
      "inputs": [
        {
          "internalType": "string",
          "name": "_name",
          "type": "string"
        },
        {
          "internalType": "string",
          "name": "_symbol",
          "type": "string"
        },
        {
          "internalType": "uint256",
          "name": "_initialNFTSupply",
          "type": "uint256"
        },
        {
          "internalType": "address",
          "name": "_systemAddress",
          "type": "address"
        },
        {
          "internalType": "address",
          "name": "_treasuryAddress",
          "type": "address"
        }
      ],
      "stateMutability": "nonpayable",
      "type": "constructor"
    },
    {
      "anonymous": false,
      "inputs": [
        {
          "indexed": true,
          "internalType": "address",
          "name": "owner",
          "type": "address"
        },
        {
          "indexed": true,
          "internalType": "address",
          "name": "approved",
          "type": "address"
        },
        {
          "indexed": true,
          "internalType": "uint256",
          "name": "tokenId",
          "type": "uint256"
        }
      ],
      "name": "Approval",
      "type": "event"
    },
    {
      "anonymous": false,
      "inputs": [
        {
          "indexed": true,
          "internalType": "address",
          "name": "owner",
          "type": "address"
        },
        {
          "indexed": true,
          "internalType": "address",
          "name": "operator",
          "type": "address"
        },
        {
          "indexed": false,
          "internalType": "bool",
          "name": "approved",
          "type": "bool"
        }
      ],
      "name": "ApprovalForAll",
      "type": "event"
    },
    {
      "anonymous": false,
      "inputs": [
        {
          "indexed": true,
          "internalType": "address",
          "name": "previousOwner",
          "type": "address"
        },
        {
          "indexed": true,
          "internalType": "address",
          "name": "newOwner",
          "type": "address"
        }
      ],
      "name": "OwnershipTransferred",
      "type": "event"
    },
    {
      "anonymous": false,
      "inputs": [
        {
          "indexed": true,
          "internalType": "address",
          "name": "from",
          "type": "address"
        },
        {
          "indexed": true,
          "internalType": "address",
          "name": "to",
          "type": "address"
        },
        {
          "indexed": true,
          "internalType": "uint256",
          "name": "tokenId",
          "type": "uint256"
        }
      ],
      "name": "Transfer",
      "type": "event"
    },
    {
      "inputs": [],
      "name": "NUTS_INITIAL",
      "outputs": [
        {
          "internalType": "uint256",
          "name": "",
          "type": "uint256"
        }
      ],
      "stateMutability": "view",
      "type": "function"
    },
    {
      "inputs": [],
      "name": "SYSTEM_ADDRESS",
      "outputs": [
        {
          "internalType": "address",
          "name": "",
          "type": "address"
        }
      ],
      "stateMutability": "view",
      "type": "function"
    },
    {
      "inputs": [],
      "name": "TREASURY_ADDRESS",
      "outputs": [
        {
          "internalType": "address",
          "name": "",
          "type": "address"
        }
      ],
      "stateMutability": "view",
      "type": "function"
    },
    {
      "inputs": [
        {
          "internalType": "address",
          "name": "to",
          "type": "address"
        },
        {
          "internalType": "uint256",
          "name": "tokenId",
          "type": "uint256"
        }
      ],
      "name": "approve",
      "outputs": [],
      "stateMutability": "nonpayable",
      "type": "function"
    },
    {
      "inputs": [
        {
          "internalType": "address",
          "name": "owner",
          "type": "address"
        }
      ],
      "name": "balanceOf",
      "outputs": [
        {
          "internalType": "uint256",
          "name": "",
          "type": "uint256"
        }
      ],
      "stateMutability": "view",
      "type": "function"
    },
    {
      "inputs": [
        {
          "internalType": "uint256",
          "name": "tokenId",
          "type": "uint256"
        }
      ],
      "name": "getApproved",
      "outputs": [
        {
          "internalType": "address",
          "name": "",
          "type": "address"
        }
      ],
      "stateMutability": "view",
      "type": "function"
    },
    {
      "inputs": [
        {
          "internalType": "address",
          "name": "owner",
          "type": "address"
        },
        {
          "internalType": "address",
          "name": "operator",
          "type": "address"
        }
      ],
      "name": "isApprovedForAll",
      "outputs": [
        {
          "internalType": "bool",
          "name": "",
          "type": "bool"
        }
      ],
      "stateMutability": "view",
      "type": "function"
    },
    {
      "inputs": [
        {
          "internalType": "uint256",
          "name": "_nutId",
          "type": "uint256"
        },
        {
          "internalType": "string",
          "name": "_nutCID",
          "type": "string"
        }
      ],
      "name": "mintNut",
      "outputs": [],
      "stateMutability": "payable",
      "type": "function"
    },
    {
      "inputs": [],
      "name": "name",
      "outputs": [
        {
          "internalType": "string",
          "name": "",
          "type": "string"
        }
      ],
      "stateMutability": "view",
      "type": "function"
    },
    {
      "inputs": [],
      "name": "owner",
      "outputs": [
        {
          "internalType": "address",
          "name": "",
          "type": "address"
        }
      ],
      "stateMutability": "view",
      "type": "function"
    },
    {
      "inputs": [
        {
          "internalType": "uint256",
          "name": "tokenId",
          "type": "uint256"
        }
      ],
      "name": "ownerOf",
      "outputs": [
        {
          "internalType": "address",
          "name": "",
          "type": "address"
        }
      ],
      "stateMutability": "view",
      "type": "function"
    },
    {
      "inputs": [],
      "name": "renounceOwnership",
      "outputs": [],
      "stateMutability": "nonpayable",
      "type": "function"
    },
    {
      "inputs": [
        {
          "internalType": "address",
          "name": "from",
          "type": "address"
        },
        {
          "internalType": "address",
          "name": "to",
          "type": "address"
        },
        {
          "internalType": "uint256",
          "name": "tokenId",
          "type": "uint256"
        }
      ],
      "name": "safeTransferFrom",
      "outputs": [],
      "stateMutability": "nonpayable",
      "type": "function"
    },
    {
      "inputs": [
        {
          "internalType": "address",
          "name": "from",
          "type": "address"
        },
        {
          "internalType": "address",
          "name": "to",
          "type": "address"
        },
        {
          "internalType": "uint256",
          "name": "tokenId",
          "type": "uint256"
        },
        {
          "internalType": "bytes",
          "name": "_data",
          "type": "bytes"
        }
      ],
      "name": "safeTransferFrom",
      "outputs": [],
      "stateMutability": "nonpayable",
      "type": "function"
    },
    {
      "inputs": [
        {
          "internalType": "address",
          "name": "operator",
          "type": "address"
        },
        {
          "internalType": "bool",
          "name": "approved",
          "type": "bool"
        }
      ],
      "name": "setApprovalForAll",
      "outputs": [],
      "stateMutability": "nonpayable",
      "type": "function"
    },
    {
      "inputs": [
        {
          "internalType": "bytes4",
          "name": "interfaceId",
          "type": "bytes4"
        }
      ],
      "name": "supportsInterface",
      "outputs": [
        {
          "internalType": "bool",
          "name": "",
          "type": "bool"
        }
      ],
      "stateMutability": "view",
      "type": "function"
    },
    {
      "inputs": [],
      "name": "symbol",
      "outputs": [
        {
          "internalType": "string",
          "name": "",
          "type": "string"
        }
      ],
      "stateMutability": "view",
      "type": "function"
    },
    {
      "inputs": [
        {
          "internalType": "uint256",
          "name": "index",
          "type": "uint256"
        }
      ],
      "name": "tokenByIndex",
      "outputs": [
        {
          "internalType": "uint256",
          "name": "",
          "type": "uint256"
        }
      ],
      "stateMutability": "view",
      "type": "function"
    },
    {
      "inputs": [
        {
          "internalType": "address",
          "name": "owner",
          "type": "address"
        },
        {
          "internalType": "uint256",
          "name": "index",
          "type": "uint256"
        }
      ],
      "name": "tokenOfOwnerByIndex",
      "outputs": [
        {
          "internalType": "uint256",
          "name": "",
          "type": "uint256"
        }
      ],
      "stateMutability": "view",
      "type": "function"
    },
    {
      "inputs": [
        {
          "internalType": "uint256",
          "name": "tokenId",
          "type": "uint256"
        }
      ],
      "name": "tokenURI",
      "outputs": [
        {
          "internalType": "string",
          "name": "",
          "type": "string"
        }
      ],
      "stateMutability": "view",
      "type": "function"
    },
    {
      "inputs": [],
      "name": "totalSupply",
      "outputs": [
        {
          "internalType": "uint256",
          "name": "",
          "type": "uint256"
        }
      ],
      "stateMutability": "view",
      "type": "function"
    },
    {
      "inputs": [
        {
          "internalType": "address",
          "name": "from",
          "type": "address"
        },
        {
          "internalType": "address",
          "name": "to",
          "type": "address"
        },
        {
          "internalType": "uint256",
          "name": "tokenId",
          "type": "uint256"
        }
      ],
      "name": "transferFrom",
      "outputs": [],
      "stateMutability": "nonpayable",
      "type": "function"
    },
    {
      "inputs": [
        {
          "internalType": "address",
          "name": "newOwner",
          "type": "address"
        }
      ],
      "name": "transferOwnership",
      "outputs": [],
      "stateMutability": "nonpayable",
      "type": "function"
    },
    {
      "inputs": [
        {
          "internalType": "uint256",
          "name": "_nutId",
          "type": "uint256"
        }
      ],
      "name": "getOwnerOf",
      "outputs": [
        {
          "internalType": "address",
          "name": "",
          "type": "address"
        }
      ],
      "stateMutability": "view",
      "type": "function"
    },
    {
      "inputs": [],
      "name": "withdraw",
      "outputs": [],
      "stateMutability": "nonpayable",
      "type": "function"
    },
    {
      "inputs": [
        {
          "internalType": "string",
          "name": "_cidPath",
          "type": "string"
        },
        {
          "internalType": "bytes",
          "name": "_signature",
          "type": "bytes"
        }
      ],
      "name": "createNut",
      "outputs": [
        {
          "internalType": "bool",
          "name": "",
          "type": "bool"
        }
      ],
      "stateMutability": "nonpayable",
      "type": "function"
    },
    {
      "inputs": [
        {
          "internalType": "uint256",
          "name": "_nutId",
          "type": "uint256"
        },
        {
          "internalType": "bytes32",
          "name": "_secretHash",
          "type": "bytes32"
        },
        {
          "internalType": "string",
          "name": "_cidPath",
          "type": "string"
        },
        {
          "internalType": "bytes",
          "name": "_signature",
          "type": "bytes"
        }
      ],
      "name": "createSeed",
      "outputs": [
        {
          "internalType": "bool",
          "name": "",
          "type": "bool"
        }
      ],
      "stateMutability": "payable",
      "type": "function"
    },
    {
      "inputs": [
        {
          "internalType": "uint256",
          "name": "_nutId",
          "type": "uint256"
        },
        {
          "internalType": "bytes32",
          "name": "_secretHash",
          "type": "bytes32"
        },
        {
          "internalType": "uint256",
          "name": "_matterContributed",
          "type": "uint256"
        },
        {
          "internalType": "uint256",
          "name": "_matterDrawRate",
          "type": "uint256"
        },
        {
          "internalType": "string",
          "name": "_cidPath",
          "type": "string"
        },
        {
          "internalType": "bytes",
          "name": "_signature",
          "type": "bytes"
        }
      ],
      "name": "createButter",
      "outputs": [],
      "stateMutability": "nonpayable",
      "type": "function"
    },
    {
      "inputs": [
        {
          "internalType": "uint256",
          "name": "_tokenId",
          "type": "uint256"
        },
        {
          "internalType": "string",
          "name": "_cidPath",
          "type": "string"
        },
        {
          "internalType": "bytes",
          "name": "_signature",
          "type": "bytes"
        }
      ],
      "name": "spreadButter",
      "outputs": [
        {
          "internalType": "bool",
          "name": "",
          "type": "bool"
        }
      ],
      "stateMutability": "nonpayable",
      "type": "function"
    }
  ],
  "bytecode": "0x60806040523480156200001157600080fd5b506040516200581e3803806200581e83398181016040528101906200003791906200041e565b8484848484848481600090816200004f919062000725565b50806001908162000061919062000725565b50505062000084620000786200011d60201b60201c565b6200012560201b60201c565b82600c8190555081600d60006101000a81548173ffffffffffffffffffffffffffffffffffffffff021916908373ffffffffffffffffffffffffffffffffffffffff16021790555080600e60006101000a81548173ffffffffffffffffffffffffffffffffffffffff021916908373ffffffffffffffffffffffffffffffffffffffff160217905550505050505050505050506200080c565b600033905090565b6000600b60009054906101000a900473ffffffffffffffffffffffffffffffffffffffff16905081600b60006101000a81548173ffffffffffffffffffffffffffffffffffffffff021916908373ffffffffffffffffffffffffffffffffffffffff1602179055508173ffffffffffffffffffffffffffffffffffffffff168173ffffffffffffffffffffffffffffffffffffffff167f8be0079c531659141344cd1fd0a4f28419497f9722a3daafe3b4186f6b6457e060405160405180910390a35050565b6000604051905090565b600080fd5b600080fd5b600080fd5b600080fd5b6000601f19601f8301169050919050565b7f4e487b7100000000000000000000000000000000000000000000000000000000600052604160045260246000fd5b620002548262000209565b810181811067ffffffffffffffff821117156200027657620002756200021a565b5b80604052505050565b60006200028b620001eb565b905062000299828262000249565b919050565b600067ffffffffffffffff821115620002bc57620002bb6200021a565b5b620002c78262000209565b9050602081019050919050565b60005b83811015620002f4578082015181840152602081019050620002d7565b60008484015250505050565b60006200031762000311846200029e565b6200027f565b90508281526020810184848401111562000336576200033562000204565b5b62000343848285620002d4565b509392505050565b600082601f830112620003635762000362620001ff565b5b81516200037584826020860162000300565b91505092915050565b6000819050919050565b62000393816200037e565b81146200039f57600080fd5b50565b600081519050620003b38162000388565b92915050565b600073ffffffffffffffffffffffffffffffffffffffff82169050919050565b6000620003e682620003b9565b9050919050565b620003f881620003d9565b81146200040457600080fd5b50565b6000815190506200041881620003ed565b92915050565b600080600080600060a086880312156200043d576200043c620001f5565b5b600086015167ffffffffffffffff8111156200045e576200045d620001fa565b5b6200046c888289016200034b565b955050602086015167ffffffffffffffff81111562000490576200048f620001fa565b5b6200049e888289016200034b565b9450506040620004b188828901620003a2565b9350506060620004c48882890162000407565b9250506080620004d78882890162000407565b9150509295509295909350565b600081519050919050565b7f4e487b7100000000000000000000000000000000000000000000000000000000600052602260045260246000fd5b600060028204905060018216806200053757607f821691505b6020821081036200054d576200054c620004ef565b5b50919050565b60008190508160005260206000209050919050565b60006020601f8301049050919050565b600082821b905092915050565b600060088302620005b77fffffffffffffffffffffffffffffffffffffffffffffffffffffffffffffffff8262000578565b620005c3868362000578565b95508019841693508086168417925050509392505050565b6000819050919050565b60006200060662000600620005fa846200037e565b620005db565b6200037e565b9050919050565b6000819050919050565b6200062283620005e5565b6200063a62000631826200060d565b84845462000585565b825550505050565b600090565b6200065162000642565b6200065e81848462000617565b505050565b5b8181101562000686576200067a60008262000647565b60018101905062000664565b5050565b601f821115620006d5576200069f8162000553565b620006aa8462000568565b81016020851015620006ba578190505b620006d2620006c98562000568565b83018262000663565b50505b505050565b600082821c905092915050565b6000620006fa60001984600802620006da565b1980831691505092915050565b6000620007158383620006e7565b9150826002028217905092915050565b6200073082620004e4565b67ffffffffffffffff8111156200074c576200074b6200021a565b5b6200075882546200051e565b620007658282856200068a565b600060209050601f8311600181146200079d576000841562000788578287015190505b62000794858262000707565b86555062000804565b601f198416620007ad8662000553565b60005b82811015620007d757848901518255600182019150602085019450602081019050620007b0565b86831015620007f75784890151620007f3601f891682620006e7565b8355505b6001600288020188555050505b505050505050565b615002806200081c6000396000f3fe6080604052600436106101c25760003560e01c80636352211e116100f7578063a0e12efe11610095578063e985e9c511610064578063e985e9c51461066b578063f23c9583146106a8578063f2b97ee2146106d8578063f2fde38b14610703576101c2565b8063a0e12efe1461059f578063a22cb465146105dc578063b88d4fde14610605578063c87b56dd1461062e576101c2565b806383638710116100d157806383638710146104cf5780638da5cb5b1461050c5780639202c1ec1461053757806395d89b4114610574576101c2565b80636352211e1461043e57806370a082311461047b578063715018a6146104b8576101c2565b80632f745c591161016457806342842e0e1161013e57806342842e0e146103935780634f6ccce7146103bc57806355951ab0146103f95780635f9ff4a114610415576101c2565b80632f745c59146103145780633434735f146103515780633ccfd60b1461037c576101c2565b8063081812fc116101a0578063081812fc1461025a578063095ea7b31461029757806318160ddd146102c057806323b872dd146102eb576101c2565b806301ffc9a7146101c757806306fdde031461020457806307604b1a1461022f575b600080fd5b3480156101d357600080fd5b506101ee60048036038101906101e99190613012565b61072c565b6040516101fb919061305a565b60405180910390f35b34801561021057600080fd5b5061021961073e565b6040516102269190613105565b60405180910390f35b34801561023b57600080fd5b506102446107d0565b6040516102519190613168565b60405180910390f35b34801561026657600080fd5b50610281600480360381019061027c91906131b9565b6107f6565b60405161028e9190613168565b60405180910390f35b3480156102a357600080fd5b506102be60048036038101906102b99190613212565b61087b565b005b3480156102cc57600080fd5b506102d5610992565b6040516102e29190613261565b60405180910390f35b3480156102f757600080fd5b50610312600480360381019061030d919061327c565b61099f565b005b34801561032057600080fd5b5061033b60048036038101906103369190613212565b6109ff565b6040516103489190613261565b60405180910390f35b34801561035d57600080fd5b50610366610aa4565b6040516103739190613168565b60405180910390f35b34801561038857600080fd5b50610391610aca565b005b34801561039f57600080fd5b506103ba60048036038101906103b5919061327c565b610bd8565b005b3480156103c857600080fd5b506103e360048036038101906103de91906131b9565b610bf8565b6040516103f09190613261565b60405180910390f35b610413600480360381019061040e9190613404565b610c69565b005b34801561042157600080fd5b5061043c60048036038101906104379190613537565b610d74565b005b34801561044a57600080fd5b50610465600480360381019061046091906131b9565b610ea2565b6040516104729190613168565b60405180910390f35b34801561048757600080fd5b506104a2600480360381019061049d91906135fc565b610f53565b6040516104af9190613261565b60405180910390f35b3480156104c457600080fd5b506104cd61100a565b005b3480156104db57600080fd5b506104f660048036038101906104f191906131b9565b611092565b6040516105039190613168565b60405180910390f35b34801561051857600080fd5b506105216110a4565b60405161052e9190613168565b60405180910390f35b34801561054357600080fd5b5061055e60048036038101906105599190613629565b6110ce565b60405161056b919061305a565b60405180910390f35b34801561058057600080fd5b506105896110e6565b6040516105969190613105565b60405180910390f35b3480156105ab57600080fd5b506105c660048036038101906105c191906136b4565b611178565b6040516105d3919061305a565b60405180910390f35b3480156105e857600080fd5b5061060360048036038101906105fe9190613758565b6111a5565b005b34801561061157600080fd5b5061062c60048036038101906106279190613798565b6111bb565b005b34801561063a57600080fd5b50610655600480360381019061065091906131b9565b61121d565b6040516106629190613105565b60405180910390f35b34801561067757600080fd5b50610692600480360381019061068d919061381b565b61122f565b60405161069f919061305a565b60405180910390f35b6106c260048036038101906106bd919061385b565b6112c3565b6040516106cf919061305a565b60405180910390f35b3480156106e457600080fd5b506106ed61143f565b6040516106fa9190613261565b60405180910390f35b34801561070f57600080fd5b5061072a600480360381019061072591906135fc565b611445565b005b60006107378261153c565b9050919050565b60606000805461074d90613929565b80601f016020809104026020016040519081016040528092919081815260200182805461077990613929565b80156107c65780601f1061079b576101008083540402835291602001916107c6565b820191906000526020600020905b8154815290600101906020018083116107a957829003601f168201915b5050505050905090565b600e60009054906101000a900473ffffffffffffffffffffffffffffffffffffffff1681565b6000610801826115b6565b610840576040517f08c379a0000000000000000000000000000000000000000000000000000000008152600401610837906139cc565b60405180910390fd5b6004600083815260200190815260200160002060009054906101000a900473ffffffffffffffffffffffffffffffffffffffff169050919050565b600061088682610ea2565b90508073ffffffffffffffffffffffffffffffffffffffff168373ffffffffffffffffffffffffffffffffffffffff16036108f6576040517f08c379a00000000000000000000000000000000000000000000000000000000081526004016108ed90613a5e565b60405180910390fd5b8073ffffffffffffffffffffffffffffffffffffffff16610915611622565b73ffffffffffffffffffffffffffffffffffffffff16148061094457506109438161093e611622565b61122f565b5b610983576040517f08c379a000000000000000000000000000000000000000000000000000000000815260040161097a90613af0565b60405180910390fd5b61098d838361162a565b505050565b6000600880549050905090565b6109b06109aa611622565b826116e3565b6109ef576040517f08c379a00000000000000000000000000000000000000000000000000000000081526004016109e690613b82565b60405180910390fd5b6109fa8383836117c1565b505050565b6000610a0a83610f53565b8210610a4b576040517f08c379a0000000000000000000000000000000000000000000000000000000008152600401610a4290613c14565b60405180910390fd5b600660008473ffffffffffffffffffffffffffffffffffffffff1673ffffffffffffffffffffffffffffffffffffffff168152602001908152602001600020600083815260200190815260200160002054905092915050565b600d60009054906101000a900473ffffffffffffffffffffffffffffffffffffffff1681565b610ad2611622565b73ffffffffffffffffffffffffffffffffffffffff16610af06110a4565b73ffffffffffffffffffffffffffffffffffffffff1614610b46576040517f08c379a0000000000000000000000000000000000000000000000000000000008152600401610b3d90613c80565b60405180910390fd5b600047905060004711610b8e576040517f08c379a0000000000000000000000000000000000000000000000000000000008152600401610b8590613cec565b60405180910390fd5b3373ffffffffffffffffffffffffffffffffffffffff166108fc829081150290604051600060405180830381858888f19350505050158015610bd4573d6000803e3d6000fd5b5050565b610bf3838383604051806020016040528060008152506111bb565b505050565b6000610c02610992565b8210610c43576040517f08c379a0000000000000000000000000000000000000000000000000000000008152600401610c3a90613d7e565b60405180910390fd5b60088281548110610c5757610c56613d9e565b5b90600052602060002001549050919050565b610c9c600e60009054906101000a900473ffffffffffffffffffffffffffffffffffffffff16610c97610992565b611a27565b610cad610ca7610992565b82611a45565b600e60009054906101000a900473ffffffffffffffffffffffffffffffffffffffff1673ffffffffffffffffffffffffffffffffffffffff16631c85949c600e60009054906101000a900473ffffffffffffffffffffffffffffffffffffffff16846040518363ffffffff1660e01b8152600401610d2c929190613dcd565b6020604051808303816000875af1158015610d4b573d6000803e3d6000fd5b505050506040513d601f19601f82011682018060405250810190610d6f9190613e0b565b505050565b610d7d86610ea2565b73ffffffffffffffffffffffffffffffffffffffff163373ffffffffffffffffffffffffffffffffffffffff1614610dea576040517f08c379a0000000000000000000000000000000000000000000000000000000008152600401610de190613e84565b60405180910390fd5b600e60009054906101000a900473ffffffffffffffffffffffffffffffffffffffff1673ffffffffffffffffffffffffffffffffffffffff166303f5de9d878686896040518563ffffffff1660e01b8152600401610e4b9493929190613eb3565b6020604051808303816000875af1158015610e6a573d6000803e3d6000fd5b505050506040513d601f19601f82011682018060405250810190610e8e9190613e0b565b50610e9a868383611ab2565b505050505050565b6000806002600084815260200190815260200160002060009054906101000a900473ffffffffffffffffffffffffffffffffffffffff169050600073ffffffffffffffffffffffffffffffffffffffff168173ffffffffffffffffffffffffffffffffffffffff1603610f4a576040517f08c379a0000000000000000000000000000000000000000000000000000000008152600401610f4190613f6a565b60405180910390fd5b80915050919050565b60008073ffffffffffffffffffffffffffffffffffffffff168273ffffffffffffffffffffffffffffffffffffffff1603610fc3576040517f08c379a0000000000000000000000000000000000000000000000000000000008152600401610fba90613ffc565b60405180910390fd5b600360008373ffffffffffffffffffffffffffffffffffffffff1673ffffffffffffffffffffffffffffffffffffffff168152602001908152602001600020549050919050565b611012611622565b73ffffffffffffffffffffffffffffffffffffffff166110306110a4565b73ffffffffffffffffffffffffffffffffffffffff1614611086576040517f08c379a000000000000000000000000000000000000000000000000000000000815260040161107d90613c80565b60405180910390fd5b6110906000611b86565b565b600061109d82610ea2565b9050919050565b6000600b60009054906101000a900473ffffffffffffffffffffffffffffffffffffffff16905090565b60006110db848484611ab2565b600190509392505050565b6060600180546110f590613929565b80601f016020809104026020016040519081016040528092919081815260200182805461112190613929565b801561116e5780601f106111435761010080835404028352916020019161116e565b820191906000526020600020905b81548152906001019060200180831161115157829003601f168201915b5050505050905090565b600080611183610992565b905061118f3382611a27565b61119a818585611ab2565b600191505092915050565b6111b76111b0611622565b8383611c4c565b5050565b6111cc6111c6611622565b836116e3565b61120b576040517f08c379a000000000000000000000000000000000000000000000000000000000815260040161120290613b82565b60405180910390fd5b61121784848484611db8565b50505050565b606061122882611e14565b9050919050565b6000600560008473ffffffffffffffffffffffffffffffffffffffff1673ffffffffffffffffffffffffffffffffffffffff16815260200190815260200160002060008373ffffffffffffffffffffffffffffffffffffffff1673ffffffffffffffffffffffffffffffffffffffff16815260200190815260200160002060009054906101000a900460ff16905092915050565b60006112ce85610ea2565b73ffffffffffffffffffffffffffffffffffffffff163373ffffffffffffffffffffffffffffffffffffffff161461133b576040517f08c379a000000000000000000000000000000000000000000000000000000000815260040161133290613e84565b60405180910390fd5b600c54611346610992565b1015611387576040517f08c379a000000000000000000000000000000000000000000000000000000000815260040161137e90614068565b60405180910390fd5b600e60009054906101000a900473ffffffffffffffffffffffffffffffffffffffff1673ffffffffffffffffffffffffffffffffffffffff1663fe774f9d86866040518363ffffffff1660e01b81526004016113e4929190614088565b6020604051808303816000875af1158015611403573d6000803e3d6000fd5b505050506040513d601f19601f820116820180604052508101906114279190613e0b565b50611433858484611ab2565b60019050949350505050565b600c5481565b61144d611622565b73ffffffffffffffffffffffffffffffffffffffff1661146b6110a4565b73ffffffffffffffffffffffffffffffffffffffff16146114c1576040517f08c379a00000000000000000000000000000000000000000000000000000000081526004016114b890613c80565b60405180910390fd5b600073ffffffffffffffffffffffffffffffffffffffff168173ffffffffffffffffffffffffffffffffffffffff1603611530576040517f08c379a000000000000000000000000000000000000000000000000000000000815260040161152790614123565b60405180910390fd5b61153981611b86565b50565b60007f780e9d63000000000000000000000000000000000000000000000000000000007bffffffffffffffffffffffffffffffffffffffffffffffffffffffff1916827bffffffffffffffffffffffffffffffffffffffffffffffffffffffff191614806115af57506115ae82611f65565b5b9050919050565b60008073ffffffffffffffffffffffffffffffffffffffff166002600084815260200190815260200160002060009054906101000a900473ffffffffffffffffffffffffffffffffffffffff1673ffffffffffffffffffffffffffffffffffffffff1614159050919050565b600033905090565b816004600083815260200190815260200160002060006101000a81548173ffffffffffffffffffffffffffffffffffffffff021916908373ffffffffffffffffffffffffffffffffffffffff160217905550808273ffffffffffffffffffffffffffffffffffffffff1661169d83610ea2565b73ffffffffffffffffffffffffffffffffffffffff167f8c5be1e5ebec7d5bd14f71427d1e84f3dd0314c0f7b2291e5b200ac8c7c3b92560405160405180910390a45050565b60006116ee826115b6565b61172d576040517f08c379a0000000000000000000000000000000000000000000000000000000008152600401611724906141b5565b60405180910390fd5b600061173883610ea2565b90508073ffffffffffffffffffffffffffffffffffffffff168473ffffffffffffffffffffffffffffffffffffffff16148061177a5750611779818561122f565b5b806117b857508373ffffffffffffffffffffffffffffffffffffffff166117a0846107f6565b73ffffffffffffffffffffffffffffffffffffffff16145b91505092915050565b8273ffffffffffffffffffffffffffffffffffffffff166117e182610ea2565b73ffffffffffffffffffffffffffffffffffffffff1614611837576040517f08c379a000000000000000000000000000000000000000000000000000000000815260040161182e90614247565b60405180910390fd5b600073ffffffffffffffffffffffffffffffffffffffff168273ffffffffffffffffffffffffffffffffffffffff16036118a6576040517f08c379a000000000000000000000000000000000000000000000000000000000815260040161189d906142d9565b60405180910390fd5b6118b1838383612047565b6118bc60008261162a565b6001600360008573ffffffffffffffffffffffffffffffffffffffff1673ffffffffffffffffffffffffffffffffffffffff168152602001908152602001600020600082825461190c9190614328565b925050819055506001600360008473ffffffffffffffffffffffffffffffffffffffff1673ffffffffffffffffffffffffffffffffffffffff1681526020019081526020016000206000828254611963919061435c565b92505081905550816002600083815260200190815260200160002060006101000a81548173ffffffffffffffffffffffffffffffffffffffff021916908373ffffffffffffffffffffffffffffffffffffffff160217905550808273ffffffffffffffffffffffffffffffffffffffff168473ffffffffffffffffffffffffffffffffffffffff167fddf252ad1be2c89b69c2b068fc378daa952ba7f163c4a11628f55a4df523b3ef60405160405180910390a4611a22838383612057565b505050565b611a4182826040518060200160405280600081525061205c565b5050565b611a4e826115b6565b611a8d576040517f08c379a0000000000000000000000000000000000000000000000000000000008152600401611a8490614402565b60405180910390fd5b80600a60008481526020019081526020016000209081611aad91906145ce565b505050565b611ac3611abd611622565b846116e3565b611b02576040517f08c379a0000000000000000000000000000000000000000000000000000000008152600401611af9906146ec565b60405180910390fd5b600082604051602001611b159190614748565b604051602081830303815290604052805190602001209050611b3781836120b7565b611b76576040517f08c379a0000000000000000000000000000000000000000000000000000000008152600401611b6d906147ab565b60405180910390fd5b611b808484611a45565b50505050565b6000600b60009054906101000a900473ffffffffffffffffffffffffffffffffffffffff16905081600b60006101000a81548173ffffffffffffffffffffffffffffffffffffffff021916908373ffffffffffffffffffffffffffffffffffffffff1602179055508173ffffffffffffffffffffffffffffffffffffffff168173ffffffffffffffffffffffffffffffffffffffff167f8be0079c531659141344cd1fd0a4f28419497f9722a3daafe3b4186f6b6457e060405160405180910390a35050565b8173ffffffffffffffffffffffffffffffffffffffff168373ffffffffffffffffffffffffffffffffffffffff1603611cba576040517f08c379a0000000000000000000000000000000000000000000000000000000008152600401611cb190614817565b60405180910390fd5b80600560008573ffffffffffffffffffffffffffffffffffffffff1673ffffffffffffffffffffffffffffffffffffffff16815260200190815260200160002060008473ffffffffffffffffffffffffffffffffffffffff1673ffffffffffffffffffffffffffffffffffffffff16815260200190815260200160002060006101000a81548160ff0219169083151502179055508173ffffffffffffffffffffffffffffffffffffffff168373ffffffffffffffffffffffffffffffffffffffff167f17307eab39ab6107e8899845ad3d59bd9653f200f220920489ca2b5937696c3183604051611dab919061305a565b60405180910390a3505050565b611dc38484846117c1565b611dcf8484848461215c565b611e0e576040517f08c379a0000000000000000000000000000000000000000000000000000000008152600401611e05906148a9565b60405180910390fd5b50505050565b6060611e1f826115b6565b611e5e576040517f08c379a0000000000000000000000000000000000000000000000000000000008152600401611e559061493b565b60405180910390fd5b6000600a60008481526020019081526020016000208054611e7e90613929565b80601f0160208091040260200160405190810160405280929190818152602001828054611eaa90613929565b8015611ef75780601f10611ecc57610100808354040283529160200191611ef7565b820191906000526020600020905b815481529060010190602001808311611eda57829003601f168201915b505050505090506000611f086122e3565b90506000815103611f1d578192505050611f60565b600082511115611f52578082604051602001611f3a92919061495b565b60405160208183030381529060405292505050611f60565b611f5b84612320565b925050505b919050565b60007f80ac58cd000000000000000000000000000000000000000000000000000000007bffffffffffffffffffffffffffffffffffffffffffffffffffffffff1916827bffffffffffffffffffffffffffffffffffffffffffffffffffffffff1916148061203057507f5b5e139f000000000000000000000000000000000000000000000000000000007bffffffffffffffffffffffffffffffffffffffffffffffffffffffff1916827bffffffffffffffffffffffffffffffffffffffffffffffffffffffff1916145b80612040575061203f826123c7565b5b9050919050565b612052838383612431565b505050565b505050565b6120668383612543565b612073600084848461215c565b6120b2576040517f08c379a00000000000000000000000000000000000000000000000000000000081526004016120a9906148a9565b60405180910390fd5b505050565b6000600d60009054906101000a900473ffffffffffffffffffffffffffffffffffffffff1673ffffffffffffffffffffffffffffffffffffffff166120fc848461271c565b73ffffffffffffffffffffffffffffffffffffffff1614612152576040517f08c379a0000000000000000000000000000000000000000000000000000000008152600401612149906149cb565b60405180910390fd5b6001905092915050565b600061217d8473ffffffffffffffffffffffffffffffffffffffff16612739565b156122d6578373ffffffffffffffffffffffffffffffffffffffff1663150b7a026121a6611622565b8786866040518563ffffffff1660e01b81526004016121c89493929190614a40565b6020604051808303816000875af192505050801561220457506040513d601f19601f820116820180604052508101906122019190614aa1565b60015b612286573d8060008114612234576040519150601f19603f3d011682016040523d82523d6000602084013e612239565b606091505b50600081510361227e576040517f08c379a0000000000000000000000000000000000000000000000000000000008152600401612275906148a9565b60405180910390fd5b805181602001fd5b63150b7a0260e01b7bffffffffffffffffffffffffffffffffffffffffffffffffffffffff1916817bffffffffffffffffffffffffffffffffffffffffffffffffffffffff1916149150506122db565b600190505b949350505050565b60606040518060400160405280601581526020017f68747470733a2f2f697066732e696f2f697066732f0000000000000000000000815250905090565b606061232b826115b6565b61236a576040517f08c379a000000000000000000000000000000000000000000000000000000000815260040161236190614b40565b60405180910390fd5b60006123746122e3565b9050600081511161239457604051806020016040528060008152506123bf565b8061239e8461275c565b6040516020016123af92919061495b565b6040516020818303038152906040525b915050919050565b60007f01ffc9a7000000000000000000000000000000000000000000000000000000007bffffffffffffffffffffffffffffffffffffffffffffffffffffffff1916827bffffffffffffffffffffffffffffffffffffffffffffffffffffffff1916149050919050565b61243c8383836128bc565b600073ffffffffffffffffffffffffffffffffffffffff168373ffffffffffffffffffffffffffffffffffffffff160361247e57612479816128c1565b6124bd565b8173ffffffffffffffffffffffffffffffffffffffff168373ffffffffffffffffffffffffffffffffffffffff16146124bc576124bb838261290a565b5b5b600073ffffffffffffffffffffffffffffffffffffffff168273ffffffffffffffffffffffffffffffffffffffff16036124ff576124fa81612a77565b61253e565b8273ffffffffffffffffffffffffffffffffffffffff168273ffffffffffffffffffffffffffffffffffffffff161461253d5761253c8282612b48565b5b5b505050565b600073ffffffffffffffffffffffffffffffffffffffff168273ffffffffffffffffffffffffffffffffffffffff16036125b2576040517f08c379a00000000000000000000000000000000000000000000000000000000081526004016125a990614bac565b60405180910390fd5b6125bb816115b6565b156125fb576040517f08c379a00000000000000000000000000000000000000000000000000000000081526004016125f290614c18565b60405180910390fd5b61260760008383612047565b6001600360008473ffffffffffffffffffffffffffffffffffffffff1673ffffffffffffffffffffffffffffffffffffffff1681526020019081526020016000206000828254612657919061435c565b92505081905550816002600083815260200190815260200160002060006101000a81548173ffffffffffffffffffffffffffffffffffffffff021916908373ffffffffffffffffffffffffffffffffffffffff160217905550808273ffffffffffffffffffffffffffffffffffffffff16600073ffffffffffffffffffffffffffffffffffffffff167fddf252ad1be2c89b69c2b068fc378daa952ba7f163c4a11628f55a4df523b3ef60405160405180910390a461271860008383612057565b5050565b60006127318284612bc790919063ffffffff16565b905092915050565b6000808273ffffffffffffffffffffffffffffffffffffffff163b119050919050565b6060600082036127a3576040518060400160405280600181526020017f300000000000000000000000000000000000000000000000000000000000000081525090506128b7565b600082905060005b600082146127d55780806127be90614c38565b915050600a826127ce9190614caf565b91506127ab565b60008167ffffffffffffffff8111156127f1576127f06132d9565b5b6040519080825280601f01601f1916602001820160405280156128235781602001600182028036833780820191505090505b5090505b600085146128b05760018261283c9190614328565b9150600a8561284b9190614ce0565b6030612857919061435c565b60f81b81838151811061286d5761286c613d9e565b5b60200101907effffffffffffffffffffffffffffffffffffffffffffffffffffffffffffff1916908160001a905350600a856128a99190614caf565b9450612827565b8093505050505b919050565b505050565b6008805490506009600083815260200190815260200160002081905550600881908060018154018082558091505060019003906000526020600020016000909190919091505550565b6000600161291784610f53565b6129219190614328565b9050600060076000848152602001908152602001600020549050818114612a06576000600660008673ffffffffffffffffffffffffffffffffffffffff1673ffffffffffffffffffffffffffffffffffffffff168152602001908152602001600020600084815260200190815260200160002054905080600660008773ffffffffffffffffffffffffffffffffffffffff1673ffffffffffffffffffffffffffffffffffffffff168152602001908152602001600020600084815260200190815260200160002081905550816007600083815260200190815260200160002081905550505b6007600084815260200190815260200160002060009055600660008573ffffffffffffffffffffffffffffffffffffffff1673ffffffffffffffffffffffffffffffffffffffff16815260200190815260200160002060008381526020019081526020016000206000905550505050565b60006001600880549050612a8b9190614328565b9050600060096000848152602001908152602001600020549050600060088381548110612abb57612aba613d9e565b5b906000526020600020015490508060088381548110612add57612adc613d9e565b5b906000526020600020018190555081600960008381526020019081526020016000208190555060096000858152602001908152602001600020600090556008805480612b2c57612b2b614d11565b5b6001900381819060005260206000200160009055905550505050565b6000612b5383610f53565b905081600660008573ffffffffffffffffffffffffffffffffffffffff1673ffffffffffffffffffffffffffffffffffffffff168152602001908152602001600020600083815260200190815260200160002081905550806007600084815260200190815260200160002081905550505050565b6000806000612bd68585612bee565b91509150612be381612c6f565b819250505092915050565b6000806041835103612c2f5760008060006020860151925060408601519150606086015160001a9050612c2387828585612e3b565b94509450505050612c68565b6040835103612c5f576000806020850151915060408501519050612c54868383612f47565b935093505050612c68565b60006002915091505b9250929050565b60006004811115612c8357612c82614d40565b5b816004811115612c9657612c95614d40565b5b0315612e385760016004811115612cb057612caf614d40565b5b816004811115612cc357612cc2614d40565b5b03612d03576040517f08c379a0000000000000000000000000000000000000000000000000000000008152600401612cfa90614dbb565b60405180910390fd5b60026004811115612d1757612d16614d40565b5b816004811115612d2a57612d29614d40565b5b03612d6a576040517f08c379a0000000000000000000000000000000000000000000000000000000008152600401612d6190614e27565b60405180910390fd5b60036004811115612d7e57612d7d614d40565b5b816004811115612d9157612d90614d40565b5b03612dd1576040517f08c379a0000000000000000000000000000000000000000000000000000000008152600401612dc890614eb9565b60405180910390fd5b600480811115612de457612de3614d40565b5b816004811115612df757612df6614d40565b5b03612e37576040517f08c379a0000000000000000000000000000000000000000000000000000000008152600401612e2e90614f4b565b60405180910390fd5b5b50565b6000807f7fffffffffffffffffffffffffffffff5d576e7357a4501ddfe92f46681b20a08360001c1115612e76576000600391509150612f3e565b601b8560ff1614158015612e8e5750601c8560ff1614155b15612ea0576000600491509150612f3e565b600060018787878760405160008152602001604052604051612ec59493929190614f87565b6020604051602081039080840390855afa158015612ee7573d6000803e3d6000fd5b505050602060405103519050600073ffffffffffffffffffffffffffffffffffffffff168173ffffffffffffffffffffffffffffffffffffffff1603612f3557600060019250925050612f3e565b80600092509250505b94509492505050565b60008060007f7fffffffffffffffffffffffffffffffffffffffffffffffffffffffffffffff60001b841690506000601b60ff8660001c901c612f8a919061435c565b9050612f9887828885612e3b565b935093505050935093915050565b6000604051905090565b600080fd5b600080fd5b60007fffffffff0000000000000000000000000000000000000000000000000000000082169050919050565b612fef81612fba565b8114612ffa57600080fd5b50565b60008135905061300c81612fe6565b92915050565b60006020828403121561302857613027612fb0565b5b600061303684828501612ffd565b91505092915050565b60008115159050919050565b6130548161303f565b82525050565b600060208201905061306f600083018461304b565b92915050565b600081519050919050565b600082825260208201905092915050565b60005b838110156130af578082015181840152602081019050613094565b60008484015250505050565b6000601f19601f8301169050919050565b60006130d782613075565b6130e18185613080565b93506130f1818560208601613091565b6130fa816130bb565b840191505092915050565b6000602082019050818103600083015261311f81846130cc565b905092915050565b600073ffffffffffffffffffffffffffffffffffffffff82169050919050565b600061315282613127565b9050919050565b61316281613147565b82525050565b600060208201905061317d6000830184613159565b92915050565b6000819050919050565b61319681613183565b81146131a157600080fd5b50565b6000813590506131b38161318d565b92915050565b6000602082840312156131cf576131ce612fb0565b5b60006131dd848285016131a4565b91505092915050565b6131ef81613147565b81146131fa57600080fd5b50565b60008135905061320c816131e6565b92915050565b6000806040838503121561322957613228612fb0565b5b6000613237858286016131fd565b9250506020613248858286016131a4565b9150509250929050565b61325b81613183565b82525050565b60006020820190506132766000830184613252565b92915050565b60008060006060848603121561329557613294612fb0565b5b60006132a3868287016131fd565b93505060206132b4868287016131fd565b92505060406132c5868287016131a4565b9150509250925092565b600080fd5b600080fd5b7f4e487b7100000000000000000000000000000000000000000000000000000000600052604160045260246000fd5b613311826130bb565b810181811067ffffffffffffffff821117156133305761332f6132d9565b5b80604052505050565b6000613343612fa6565b905061334f8282613308565b919050565b600067ffffffffffffffff82111561336f5761336e6132d9565b5b613378826130bb565b9050602081019050919050565b82818337600083830152505050565b60006133a76133a284613354565b613339565b9050828152602081018484840111156133c3576133c26132d4565b5b6133ce848285613385565b509392505050565b600082601f8301126133eb576133ea6132cf565b5b81356133fb848260208601613394565b91505092915050565b6000806040838503121561341b5761341a612fb0565b5b6000613429858286016131a4565b925050602083013567ffffffffffffffff81111561344a57613449612fb5565b5b613456858286016133d6565b9150509250929050565b6000819050919050565b61347381613460565b811461347e57600080fd5b50565b6000813590506134908161346a565b92915050565b600067ffffffffffffffff8211156134b1576134b06132d9565b5b6134ba826130bb565b9050602081019050919050565b60006134da6134d584613496565b613339565b9050828152602081018484840111156134f6576134f56132d4565b5b613501848285613385565b509392505050565b600082601f83011261351e5761351d6132cf565b5b813561352e8482602086016134c7565b91505092915050565b60008060008060008060c0878903121561355457613553612fb0565b5b600061356289828a016131a4565b965050602061357389828a01613481565b955050604061358489828a016131a4565b945050606061359589828a016131a4565b935050608087013567ffffffffffffffff8111156135b6576135b5612fb5565b5b6135c289828a016133d6565b92505060a087013567ffffffffffffffff8111156135e3576135e2612fb5565b5b6135ef89828a01613509565b9150509295509295509295565b60006020828403121561361257613611612fb0565b5b6000613620848285016131fd565b91505092915050565b60008060006060848603121561364257613641612fb0565b5b6000613650868287016131a4565b935050602084013567ffffffffffffffff81111561367157613670612fb5565b5b61367d868287016133d6565b925050604084013567ffffffffffffffff81111561369e5761369d612fb5565b5b6136aa86828701613509565b9150509250925092565b600080604083850312156136cb576136ca612fb0565b5b600083013567ffffffffffffffff8111156136e9576136e8612fb5565b5b6136f5858286016133d6565b925050602083013567ffffffffffffffff81111561371657613715612fb5565b5b61372285828601613509565b9150509250929050565b6137358161303f565b811461374057600080fd5b50565b6000813590506137528161372c565b92915050565b6000806040838503121561376f5761376e612fb0565b5b600061377d858286016131fd565b925050602061378e85828601613743565b9150509250929050565b600080600080608085870312156137b2576137b1612fb0565b5b60006137c0878288016131fd565b94505060206137d1878288016131fd565b93505060406137e2878288016131a4565b925050606085013567ffffffffffffffff81111561380357613802612fb5565b5b61380f87828801613509565b91505092959194509250565b6000806040838503121561383257613831612fb0565b5b6000613840858286016131fd565b9250506020613851858286016131fd565b9150509250929050565b6000806000806080858703121561387557613874612fb0565b5b6000613883878288016131a4565b945050602061389487828801613481565b935050604085013567ffffffffffffffff8111156138b5576138b4612fb5565b5b6138c1878288016133d6565b925050606085013567ffffffffffffffff8111156138e2576138e1612fb5565b5b6138ee87828801613509565b91505092959194509250565b7f4e487b7100000000000000000000000000000000000000000000000000000000600052602260045260246000fd5b6000600282049050600182168061394157607f821691505b602082108103613954576139536138fa565b5b50919050565b7f4552433732313a20617070726f76656420717565727920666f72206e6f6e657860008201527f697374656e7420746f6b656e0000000000000000000000000000000000000000602082015250565b60006139b6602c83613080565b91506139c18261395a565b604082019050919050565b600060208201905081810360008301526139e5816139a9565b9050919050565b7f4552433732313a20617070726f76616c20746f2063757272656e74206f776e6560008201527f7200000000000000000000000000000000000000000000000000000000000000602082015250565b6000613a48602183613080565b9150613a53826139ec565b604082019050919050565b60006020820190508181036000830152613a7781613a3b565b9050919050565b7f4552433732313a20617070726f76652063616c6c6572206973206e6f74206f7760008201527f6e6572206e6f7220617070726f76656420666f7220616c6c0000000000000000602082015250565b6000613ada603883613080565b9150613ae582613a7e565b604082019050919050565b60006020820190508181036000830152613b0981613acd565b9050919050565b7f4552433732313a207472616e736665722063616c6c6572206973206e6f74206f60008201527f776e6572206e6f7220617070726f766564000000000000000000000000000000602082015250565b6000613b6c603183613080565b9150613b7782613b10565b604082019050919050565b60006020820190508181036000830152613b9b81613b5f565b9050919050565b7f455243373231456e756d657261626c653a206f776e657220696e646578206f7560008201527f74206f6620626f756e6473000000000000000000000000000000000000000000602082015250565b6000613bfe602b83613080565b9150613c0982613ba2565b604082019050919050565b60006020820190508181036000830152613c2d81613bf1565b9050919050565b7f4f776e61626c653a2063616c6c6572206973206e6f7420746865206f776e6572600082015250565b6000613c6a602083613080565b9150613c7582613c34565b602082019050919050565b60006020820190508181036000830152613c9981613c5d565b9050919050565b7f4e6f2062616c616e636520746f20776974686472617700000000000000000000600082015250565b6000613cd6601683613080565b9150613ce182613ca0565b602082019050919050565b60006020820190508181036000830152613d0581613cc9565b9050919050565b7f455243373231456e756d657261626c653a20676c6f62616c20696e646578206f60008201527f7574206f6620626f756e64730000000000000000000000000000000000000000602082015250565b6000613d68602c83613080565b9150613d7382613d0c565b604082019050919050565b60006020820190508181036000830152613d9781613d5b565b9050919050565b7f4e487b7100000000000000000000000000000000000000000000000000000000600052603260045260246000fd5b6000604082019050613de26000830185613159565b613def6020830184613252565b9392505050565b600081519050613e058161372c565b92915050565b600060208284031215613e2157613e20612fb0565b5b6000613e2f84828501613df6565b91505092915050565b7f43616c6c6572206973206e6f74206f776e6572206f66206e7574000000000000600082015250565b6000613e6e601a83613080565b9150613e7982613e38565b602082019050919050565b60006020820190508181036000830152613e9d81613e61565b9050919050565b613ead81613460565b82525050565b6000608082019050613ec86000830187613252565b613ed56020830186613252565b613ee26040830185613252565b613eef6060830184613ea4565b95945050505050565b7f4552433732313a206f776e657220717565727920666f72206e6f6e657869737460008201527f656e7420746f6b656e0000000000000000000000000000000000000000000000602082015250565b6000613f54602983613080565b9150613f5f82613ef8565b604082019050919050565b60006020820190508181036000830152613f8381613f47565b9050919050565b7f4552433732313a2062616c616e636520717565727920666f7220746865207a6560008201527f726f206164647265737300000000000000000000000000000000000000000000602082015250565b6000613fe6602a83613080565b9150613ff182613f8a565b604082019050919050565b6000602082019050818103600083015261401581613fd9565b9050919050565b7f4e757473207374696c6c2065786973742066726f6d206372656174696f6e0000600082015250565b6000614052601e83613080565b915061405d8261401c565b602082019050919050565b6000602082019050818103600083015261408181614045565b9050919050565b600060408201905061409d6000830185613252565b6140aa6020830184613ea4565b9392505050565b7f4f776e61626c653a206e6577206f776e657220697320746865207a65726f206160008201527f6464726573730000000000000000000000000000000000000000000000000000602082015250565b600061410d602683613080565b9150614118826140b1565b604082019050919050565b6000602082019050818103600083015261413c81614100565b9050919050565b7f4552433732313a206f70657261746f7220717565727920666f72206e6f6e657860008201527f697374656e7420746f6b656e0000000000000000000000000000000000000000602082015250565b600061419f602c83613080565b91506141aa82614143565b604082019050919050565b600060208201905081810360008301526141ce81614192565b9050919050565b7f4552433732313a207472616e736665722066726f6d20696e636f72726563742060008201527f6f776e6572000000000000000000000000000000000000000000000000000000602082015250565b6000614231602583613080565b915061423c826141d5565b604082019050919050565b6000602082019050818103600083015261426081614224565b9050919050565b7f4552433732313a207472616e7366657220746f20746865207a65726f2061646460008201527f7265737300000000000000000000000000000000000000000000000000000000602082015250565b60006142c3602483613080565b91506142ce82614267565b604082019050919050565b600060208201905081810360008301526142f2816142b6565b9050919050565b7f4e487b7100000000000000000000000000000000000000000000000000000000600052601160045260246000fd5b600061433382613183565b915061433e83613183565b9250828203905081811115614356576143556142f9565b5b92915050565b600061436782613183565b915061437283613183565b925082820190508082111561438a576143896142f9565b5b92915050565b7f45524337323155524953746f726167653a2055524920736574206f66206e6f6e60008201527f6578697374656e7420746f6b656e000000000000000000000000000000000000602082015250565b60006143ec602e83613080565b91506143f782614390565b604082019050919050565b6000602082019050818103600083015261441b816143df565b9050919050565b60008190508160005260206000209050919050565b60006020601f8301049050919050565b600082821b905092915050565b6000600883026144847fffffffffffffffffffffffffffffffffffffffffffffffffffffffffffffffff82614447565b61448e8683614447565b95508019841693508086168417925050509392505050565b6000819050919050565b60006144cb6144c66144c184613183565b6144a6565b613183565b9050919050565b6000819050919050565b6144e5836144b0565b6144f96144f1826144d2565b848454614454565b825550505050565b600090565b61450e614501565b6145198184846144dc565b505050565b5b8181101561453d57614532600082614506565b60018101905061451f565b5050565b601f8211156145825761455381614422565b61455c84614437565b8101602085101561456b578190505b61457f61457785614437565b83018261451e565b50505b505050565b600082821c905092915050565b60006145a560001984600802614587565b1980831691505092915050565b60006145be8383614594565b9150826002028217905092915050565b6145d782613075565b67ffffffffffffffff8111156145f0576145ef6132d9565b5b6145fa8254613929565b614605828285614541565b600060209050601f8311600181146146385760008415614626578287015190505b61463085826145b2565b865550614698565b601f19841661464686614422565b60005b8281101561466e57848901518255600182019150602085019450602081019050614649565b8683101561468b5784890151614687601f891682614594565b8355505b6001600288020188555050505b505050505050565b7f43616c6c6572206973206e6f74206f776e6572206e6f7220617070726f766564600082015250565b60006146d6602083613080565b91506146e1826146a0565b602082019050919050565b60006020820190508181036000830152614705816146c9565b9050919050565b600081905092915050565b600061472282613075565b61472c818561470c565b935061473c818560208601613091565b80840191505092915050565b60006147548284614717565b915081905092915050565b7f4461746120646f6573206e6f74206d61746368207369676e6174757265000000600082015250565b6000614795601d83613080565b91506147a08261475f565b602082019050919050565b600060208201905081810360008301526147c481614788565b9050919050565b7f4552433732313a20617070726f766520746f2063616c6c657200000000000000600082015250565b6000614801601983613080565b915061480c826147cb565b602082019050919050565b60006020820190508181036000830152614830816147f4565b9050919050565b7f4552433732313a207472616e7366657220746f206e6f6e20455243373231526560008201527f63656976657220696d706c656d656e7465720000000000000000000000000000602082015250565b6000614893603283613080565b915061489e82614837565b604082019050919050565b600060208201905081810360008301526148c281614886565b9050919050565b7f45524337323155524953746f726167653a2055524920717565727920666f722060008201527f6e6f6e6578697374656e7420746f6b656e000000000000000000000000000000602082015250565b6000614925603183613080565b9150614930826148c9565b604082019050919050565b6000602082019050818103600083015261495481614918565b9050919050565b60006149678285614717565b91506149738284614717565b91508190509392505050565b7f496e76616c6964207369676e6174757265000000000000000000000000000000600082015250565b60006149b5601183613080565b91506149c08261497f565b602082019050919050565b600060208201905081810360008301526149e4816149a8565b9050919050565b600081519050919050565b600082825260208201905092915050565b6000614a12826149eb565b614a1c81856149f6565b9350614a2c818560208601613091565b614a35816130bb565b840191505092915050565b6000608082019050614a556000830187613159565b614a626020830186613159565b614a6f6040830185613252565b8181036060830152614a818184614a07565b905095945050505050565b600081519050614a9b81612fe6565b92915050565b600060208284031215614ab757614ab6612fb0565b5b6000614ac584828501614a8c565b91505092915050565b7f4552433732314d657461646174613a2055524920717565727920666f72206e6f60008201527f6e6578697374656e7420746f6b656e0000000000000000000000000000000000602082015250565b6000614b2a602f83613080565b9150614b3582614ace565b604082019050919050565b60006020820190508181036000830152614b5981614b1d565b9050919050565b7f4552433732313a206d696e7420746f20746865207a65726f2061646472657373600082015250565b6000614b96602083613080565b9150614ba182614b60565b602082019050919050565b60006020820190508181036000830152614bc581614b89565b9050919050565b7f4552433732313a20746f6b656e20616c7265616479206d696e74656400000000600082015250565b6000614c02601c83613080565b9150614c0d82614bcc565b602082019050919050565b60006020820190508181036000830152614c3181614bf5565b9050919050565b6000614c4382613183565b91507fffffffffffffffffffffffffffffffffffffffffffffffffffffffffffffffff8203614c7557614c746142f9565b5b600182019050919050565b7f4e487b7100000000000000000000000000000000000000000000000000000000600052601260045260246000fd5b6000614cba82613183565b9150614cc583613183565b925082614cd557614cd4614c80565b5b828204905092915050565b6000614ceb82613183565b9150614cf683613183565b925082614d0657614d05614c80565b5b828206905092915050565b7f4e487b7100000000000000000000000000000000000000000000000000000000600052603160045260246000fd5b7f4e487b7100000000000000000000000000000000000000000000000000000000600052602160045260246000fd5b7f45434453413a20696e76616c6964207369676e61747572650000000000000000600082015250565b6000614da5601883613080565b9150614db082614d6f565b602082019050919050565b60006020820190508181036000830152614dd481614d98565b9050919050565b7f45434453413a20696e76616c6964207369676e6174757265206c656e67746800600082015250565b6000614e11601f83613080565b9150614e1c82614ddb565b602082019050919050565b60006020820190508181036000830152614e4081614e04565b9050919050565b7f45434453413a20696e76616c6964207369676e6174757265202773272076616c60008201527f7565000000000000000000000000000000000000000000000000000000000000602082015250565b6000614ea3602283613080565b9150614eae82614e47565b604082019050919050565b60006020820190508181036000830152614ed281614e96565b9050919050565b7f45434453413a20696e76616c6964207369676e6174757265202776272076616c60008201527f7565000000000000000000000000000000000000000000000000000000000000602082015250565b6000614f35602283613080565b9150614f4082614ed9565b604082019050919050565b60006020820190508181036000830152614f6481614f28565b9050919050565b600060ff82169050919050565b614f8181614f6b565b82525050565b6000608082019050614f9c6000830187613ea4565b614fa96020830186614f78565b614fb66040830185613ea4565b614fc36060830184613ea4565b9594505050505056fea2646970667358221220477306d85bf788e9a3ae912b4d876992cb7773fa222382ce5dbfc01e33de0b2b64736f6c63430008110033",
  "immutableReferences": {},
  "source": "// SPDX-License-Identifier: MIT\npragma solidity ^0.8.7;\n\nimport \"./CosmoCreation.sol\";\nimport \"./ICosmoNuts.sol\";\n\n/**\n * Main Contract for the NFT tokens.\n * System address resembles the public address of the software application.\n */\ncontract CosmoNuts is CosmoCreation, ICosmoNuts {\n\n    using ECDSA for bytes32;\n\n    constructor(\n        string memory _name,\n        string memory _symbol,\n        uint256 _initialNFTSupply,\n        address _systemAddress,\n        address _treasuryAddress\n    )\n        CosmoCreation(_name, _symbol, _initialNFTSupply, _systemAddress, _treasuryAddress)\n    {}\n\n    function getOwnerOf(uint256 _nutId) public view virtual override returns (address) {\n        return ownerOf(_nutId);\n    }  \n\n    // only system address?\n    function withdraw() public onlyOwner {\n        uint256 balance = address(this).balance;\n        require(address(this).balance > 0 wei, \"No balance to withdraw\");\n        payable(msg.sender).transfer(balance);\n    }\n\n    //only system address?\n    /*\n    function turnSaleOn() public onlyOwner {\n        vault.lightsOn();\n    }\n    */\n\n    /*\n     * Called from CosmoSeed to mint a new Nut\n     */\n    function createNut(\n        string memory _cidPath,\n        bytes memory _signature\n    ) external virtual override returns (bool) {\n        uint256 mintIndex = totalSupply();\n        _safeMint(msg.sender, mintIndex);\n        changeTokenURI(mintIndex, _cidPath, _signature);\n        return true;\n    }\n\n    /**\n     * Function callable by Nut owner to create a seed which has the potential to turn into a new Nut.\n     * Requires the input of a secretHash and a specified amount of Ether to create.\n     * A required level of matter must be burned which is equal to the amount of seeds you have in Universe\n     * multiplied by the matterRate.\n     */\n    function createSeed(\n        uint256 _nutId,\n        bytes32 _secretHash,\n        string memory _cidPath,\n        bytes memory _signature\n        )\n        public payable returns (bool) {\n            require(address(msg.sender) == ownerOf(_nutId), \"Caller is not owner of nut\");\n            require(totalSupply() >= NUTS_INITIAL, \"Nuts still exist from creation\");\n\n            ICosmoTreasury(TREASURY_ADDRESS).spawnSeed(_nutId, _secretHash);\n            changeTokenURI(_nutId, _cidPath, _signature);\n\n            return true;\n    }\n\n    /**\n     * Function callable by Nut owner to create a matter faucet which allows other users to draw matter\n     * Creation requires a secret hash that must be known to suppy matter\n     * Creation requires input of total number of matter in contract and the amount each user can draw at a single time\n     * Drawing any amount of matter results in the creation of new supply of matter\n     * In creating the faucet, the creator replenishes the accounts of other nut holders (tax on system to create message)\n     * Caller will also receive matter if others call on this function\n     */\n    function createButter(\n        uint256 _nutId,\n        bytes32 _secretHash,\n        uint256 _matterContributed,\n        uint256 _matterDrawRate,\n        string memory _cidPath,\n        bytes memory _signature\n    ) public {\n        require(address(msg.sender) == ownerOf(_nutId), \"Caller is not owner of nut\");\n        ICosmoTreasury(TREASURY_ADDRESS).newButter(_nutId, _matterContributed, _matterDrawRate, _secretHash);\n        changeTokenURI(_nutId, _cidPath, _signature);\n    }\n\n    /**\n     * Called by CosmoButter when some matter is drawn from the contract.\n     */\n    function spreadButter(\n        uint256 _tokenId,\n        string memory _cidPath,\n        bytes memory _signature\n        ) external virtual override returns (bool) {\n        changeTokenURI(_tokenId, _cidPath, _signature);\n        return true;\n    }\n\n}\n",
  "sourcePath": "/home/redlentils/Seafile/Websites/avatarnft/contracts/CosmoNuts.sol",
  "compiler": {
    "name": "solc",
    "version": "0.8.17+commit.8df45f5f.Emscripten.clang"
  },
  "schemaVersion": "3.4.10",
  "updatedAt": "2022-10-18T09:16:50.648Z",
  "devdoc": {
    "kind": "dev",
    "methods": {
      "approve(address,uint256)": {
        "details": "See {IERC721-approve}."
      },
      "balanceOf(address)": {
        "details": "See {IERC721-balanceOf}."
      },
      "getApproved(uint256)": {
        "details": "See {IERC721-getApproved}."
      },
      "isApprovedForAll(address,address)": {
        "details": "See {IERC721-isApprovedForAll}."
      },
      "name()": {
        "details": "See {IERC721Metadata-name}."
      },
      "owner()": {
        "details": "Returns the address of the current owner."
      },
      "ownerOf(uint256)": {
        "details": "See {IERC721-ownerOf}."
      },
      "renounceOwnership()": {
        "details": "Leaves the contract without owner. It will not be possible to call `onlyOwner` functions anymore. Can only be called by the current owner. NOTE: Renouncing ownership will leave the contract without an owner, thereby removing any functionality that is only available to the owner."
      },
      "safeTransferFrom(address,address,uint256)": {
        "details": "See {IERC721-safeTransferFrom}."
      },
      "safeTransferFrom(address,address,uint256,bytes)": {
        "details": "See {IERC721-safeTransferFrom}."
      },
      "setApprovalForAll(address,bool)": {
        "details": "See {IERC721-setApprovalForAll}."
      },
      "symbol()": {
        "details": "See {IERC721Metadata-symbol}."
      },
      "tokenByIndex(uint256)": {
        "details": "See {IERC721Enumerable-tokenByIndex}."
      },
      "tokenOfOwnerByIndex(address,uint256)": {
        "details": "See {IERC721Enumerable-tokenOfOwnerByIndex}."
      },
      "totalSupply()": {
        "details": "See {IERC721Enumerable-totalSupply}."
      },
      "transferFrom(address,address,uint256)": {
        "details": "See {IERC721-transferFrom}."
      },
      "transferOwnership(address)": {
        "details": "Transfers ownership of the contract to a new account (`newOwner`). Can only be called by the current owner."
      }
    },
    "version": 1
  },
  "userdoc": {
    "kind": "user",
    "methods": {
      "createButter(uint256,bytes32,uint256,uint256,string,bytes)": {
        "notice": "Function callable by Nut owner to create a matter faucet which allows other users to draw matter Creation requires a secret hash that must be known to suppy matter Creation requires input of total number of matter in contract and the amount each user can draw at a single time Drawing any amount of matter results in the creation of new supply of matter In creating the faucet, the creator replenishes the accounts of other nut holders (tax on system to create message) Caller will also receive matter if others call on this function"
      },
      "createSeed(uint256,bytes32,string,bytes)": {
        "notice": "Function callable by Nut owner to create a seed which has the potential to turn into a new Nut. Requires the input of a secretHash and a specified amount of Ether to create. A required level of matter must be burned which is equal to the amount of seeds you have in Universe multiplied by the matterRate."
      },
      "spreadButter(uint256,string,bytes)": {
        "notice": "Called by CosmoButter when some matter is drawn from the contract."
      }
    },
    "notice": "Main Contract for the NFT tokens. System address resembles the public address of the software application.",
    "version": 1
  }
}