{
  "contractName": "CosmoNuts",
  "abi": [
    {
      "inputs": [
        {
          "internalType": "string",
          "name": "_name",
          "type": "string"
        },
        {
          "internalType": "string",
          "name": "_symbol",
          "type": "string"
        },
        {
          "internalType": "uint256",
          "name": "_initialNFTSupply",
          "type": "uint256"
        },
        {
          "internalType": "address",
          "name": "_systemAddress",
          "type": "address"
        },
        {
          "internalType": "address",
          "name": "_treasuryAddress",
          "type": "address"
        },
        {
          "internalType": "address",
          "name": "_vaultImplementation",
          "type": "address"
        }
      ],
      "stateMutability": "nonpayable",
      "type": "constructor"
    },
    {
      "anonymous": false,
      "inputs": [
        {
          "indexed": true,
          "internalType": "address",
          "name": "owner",
          "type": "address"
        },
        {
          "indexed": true,
          "internalType": "address",
          "name": "approved",
          "type": "address"
        },
        {
          "indexed": true,
          "internalType": "uint256",
          "name": "tokenId",
          "type": "uint256"
        }
      ],
      "name": "Approval",
      "type": "event"
    },
    {
      "anonymous": false,
      "inputs": [
        {
          "indexed": true,
          "internalType": "address",
          "name": "owner",
          "type": "address"
        },
        {
          "indexed": true,
          "internalType": "address",
          "name": "operator",
          "type": "address"
        },
        {
          "indexed": false,
          "internalType": "bool",
          "name": "approved",
          "type": "bool"
        }
      ],
      "name": "ApprovalForAll",
      "type": "event"
    },
    {
      "anonymous": false,
      "inputs": [
        {
          "indexed": true,
          "internalType": "address",
          "name": "previousOwner",
          "type": "address"
        },
        {
          "indexed": true,
          "internalType": "address",
          "name": "newOwner",
          "type": "address"
        }
      ],
      "name": "OwnershipTransferred",
      "type": "event"
    },
    {
      "anonymous": false,
      "inputs": [
        {
          "indexed": true,
          "internalType": "address",
          "name": "from",
          "type": "address"
        },
        {
          "indexed": true,
          "internalType": "address",
          "name": "to",
          "type": "address"
        },
        {
          "indexed": true,
          "internalType": "uint256",
          "name": "tokenId",
          "type": "uint256"
        }
      ],
      "name": "Transfer",
      "type": "event"
    },
    {
      "inputs": [
        {
          "internalType": "address",
          "name": "to",
          "type": "address"
        },
        {
          "internalType": "uint256",
          "name": "tokenId",
          "type": "uint256"
        }
      ],
      "name": "approve",
      "outputs": [],
      "stateMutability": "nonpayable",
      "type": "function"
    },
    {
      "inputs": [
        {
          "internalType": "address",
          "name": "owner",
          "type": "address"
        }
      ],
      "name": "balanceOf",
      "outputs": [
        {
          "internalType": "uint256",
          "name": "",
          "type": "uint256"
        }
      ],
      "stateMutability": "view",
      "type": "function"
    },
    {
      "inputs": [],
      "name": "creation",
      "outputs": [
        {
          "internalType": "uint256",
          "name": "initialSupply",
          "type": "uint256"
        },
        {
          "internalType": "address",
          "name": "system",
          "type": "address"
        },
        {
          "internalType": "address",
          "name": "treasury",
          "type": "address"
        },
        {
          "internalType": "address",
          "name": "vault",
          "type": "address"
        },
        {
          "internalType": "address",
          "name": "vaultImplementation",
          "type": "address"
        }
      ],
      "stateMutability": "view",
      "type": "function"
    },
    {
      "inputs": [
        {
          "internalType": "uint256",
          "name": "tokenId",
          "type": "uint256"
        }
      ],
      "name": "getApproved",
      "outputs": [
        {
          "internalType": "address",
          "name": "",
          "type": "address"
        }
      ],
      "stateMutability": "view",
      "type": "function"
    },
    {
      "inputs": [
        {
          "internalType": "address",
          "name": "owner",
          "type": "address"
        },
        {
          "internalType": "address",
          "name": "operator",
          "type": "address"
        }
      ],
      "name": "isApprovedForAll",
      "outputs": [
        {
          "internalType": "bool",
          "name": "",
          "type": "bool"
        }
      ],
      "stateMutability": "view",
      "type": "function"
    },
    {
      "inputs": [
        {
          "internalType": "string",
          "name": "_nutCID",
          "type": "string"
        }
      ],
      "name": "mintNut",
      "outputs": [],
      "stateMutability": "payable",
      "type": "function"
    },
    {
      "inputs": [],
      "name": "name",
      "outputs": [
        {
          "internalType": "string",
          "name": "",
          "type": "string"
        }
      ],
      "stateMutability": "view",
      "type": "function"
    },
    {
      "inputs": [],
      "name": "owner",
      "outputs": [
        {
          "internalType": "address",
          "name": "",
          "type": "address"
        }
      ],
      "stateMutability": "view",
      "type": "function"
    },
    {
      "inputs": [
        {
          "internalType": "uint256",
          "name": "tokenId",
          "type": "uint256"
        }
      ],
      "name": "ownerOf",
      "outputs": [
        {
          "internalType": "address",
          "name": "",
          "type": "address"
        }
      ],
      "stateMutability": "view",
      "type": "function"
    },
    {
      "inputs": [],
      "name": "renounceOwnership",
      "outputs": [],
      "stateMutability": "nonpayable",
      "type": "function"
    },
    {
      "inputs": [
        {
          "internalType": "address",
          "name": "from",
          "type": "address"
        },
        {
          "internalType": "address",
          "name": "to",
          "type": "address"
        },
        {
          "internalType": "uint256",
          "name": "tokenId",
          "type": "uint256"
        }
      ],
      "name": "safeTransferFrom",
      "outputs": [],
      "stateMutability": "nonpayable",
      "type": "function"
    },
    {
      "inputs": [
        {
          "internalType": "address",
          "name": "from",
          "type": "address"
        },
        {
          "internalType": "address",
          "name": "to",
          "type": "address"
        },
        {
          "internalType": "uint256",
          "name": "tokenId",
          "type": "uint256"
        },
        {
          "internalType": "bytes",
          "name": "_data",
          "type": "bytes"
        }
      ],
      "name": "safeTransferFrom",
      "outputs": [],
      "stateMutability": "nonpayable",
      "type": "function"
    },
    {
      "inputs": [
        {
          "internalType": "address",
          "name": "operator",
          "type": "address"
        },
        {
          "internalType": "bool",
          "name": "approved",
          "type": "bool"
        }
      ],
      "name": "setApprovalForAll",
      "outputs": [],
      "stateMutability": "nonpayable",
      "type": "function"
    },
    {
      "inputs": [
        {
          "internalType": "bytes4",
          "name": "interfaceId",
          "type": "bytes4"
        }
      ],
      "name": "supportsInterface",
      "outputs": [
        {
          "internalType": "bool",
          "name": "",
          "type": "bool"
        }
      ],
      "stateMutability": "view",
      "type": "function"
    },
    {
      "inputs": [],
      "name": "symbol",
      "outputs": [
        {
          "internalType": "string",
          "name": "",
          "type": "string"
        }
      ],
      "stateMutability": "view",
      "type": "function"
    },
    {
      "inputs": [
        {
          "internalType": "uint256",
          "name": "index",
          "type": "uint256"
        }
      ],
      "name": "tokenByIndex",
      "outputs": [
        {
          "internalType": "uint256",
          "name": "",
          "type": "uint256"
        }
      ],
      "stateMutability": "view",
      "type": "function"
    },
    {
      "inputs": [
        {
          "internalType": "address",
          "name": "owner",
          "type": "address"
        },
        {
          "internalType": "uint256",
          "name": "index",
          "type": "uint256"
        }
      ],
      "name": "tokenOfOwnerByIndex",
      "outputs": [
        {
          "internalType": "uint256",
          "name": "",
          "type": "uint256"
        }
      ],
      "stateMutability": "view",
      "type": "function"
    },
    {
      "inputs": [
        {
          "internalType": "uint256",
          "name": "tokenId",
          "type": "uint256"
        }
      ],
      "name": "tokenURI",
      "outputs": [
        {
          "internalType": "string",
          "name": "",
          "type": "string"
        }
      ],
      "stateMutability": "view",
      "type": "function"
    },
    {
      "inputs": [],
      "name": "totalSupply",
      "outputs": [
        {
          "internalType": "uint256",
          "name": "",
          "type": "uint256"
        }
      ],
      "stateMutability": "view",
      "type": "function"
    },
    {
      "inputs": [
        {
          "internalType": "address",
          "name": "from",
          "type": "address"
        },
        {
          "internalType": "address",
          "name": "to",
          "type": "address"
        },
        {
          "internalType": "uint256",
          "name": "tokenId",
          "type": "uint256"
        }
      ],
      "name": "transferFrom",
      "outputs": [],
      "stateMutability": "nonpayable",
      "type": "function"
    },
    {
      "inputs": [
        {
          "internalType": "address",
          "name": "newOwner",
          "type": "address"
        }
      ],
      "name": "transferOwnership",
      "outputs": [],
      "stateMutability": "nonpayable",
      "type": "function"
    },
    {
      "inputs": [],
      "name": "vaultLocation",
      "outputs": [
        {
          "internalType": "address",
          "name": "",
          "type": "address"
        }
      ],
      "stateMutability": "view",
      "type": "function"
    },
    {
      "inputs": [
        {
          "internalType": "uint256",
          "name": "_nutId",
          "type": "uint256"
        },
        {
          "internalType": "string",
          "name": "_nutCID",
          "type": "string"
        }
      ],
      "name": "setTokenURI",
      "outputs": [],
      "stateMutability": "nonpayable",
      "type": "function"
    },
    {
      "inputs": [
        {
          "internalType": "uint256",
          "name": "_nutId",
          "type": "uint256"
        }
      ],
      "name": "getOwnerOf",
      "outputs": [
        {
          "internalType": "address",
          "name": "",
          "type": "address"
        }
      ],
      "stateMutability": "view",
      "type": "function"
    },
    {
      "inputs": [],
      "name": "createVault",
      "outputs": [
        {
          "internalType": "address",
          "name": "",
          "type": "address"
        }
      ],
      "stateMutability": "nonpayable",
      "type": "function"
    },
    {
      "inputs": [],
      "name": "withdraw",
      "outputs": [],
      "stateMutability": "nonpayable",
      "type": "function"
    },
    {
      "inputs": [
        {
          "internalType": "address",
          "name": "_to",
          "type": "address"
        },
        {
          "internalType": "string",
          "name": "_nutCID",
          "type": "string"
        }
      ],
      "name": "newNutMint",
      "outputs": [
        {
          "internalType": "uint256",
          "name": "",
          "type": "uint256"
        }
      ],
      "stateMutability": "nonpayable",
      "type": "function"
    },
    {
      "inputs": [
        {
          "internalType": "uint256",
          "name": "_nutId",
          "type": "uint256"
        },
        {
          "internalType": "bytes32",
          "name": "_secretHash",
          "type": "bytes32"
        },
        {
          "internalType": "string",
          "name": "_cidPath",
          "type": "string"
        },
        {
          "internalType": "bytes",
          "name": "_signature",
          "type": "bytes"
        }
      ],
      "name": "createSeed",
      "outputs": [
        {
          "internalType": "address",
          "name": "seedLocation",
          "type": "address"
        }
      ],
      "stateMutability": "payable",
      "type": "function"
    },
    {
      "inputs": [
        {
          "internalType": "uint256",
          "name": "_nutId",
          "type": "uint256"
        },
        {
          "internalType": "bytes32",
          "name": "_secretHash",
          "type": "bytes32"
        },
        {
          "internalType": "uint256",
          "name": "_matterContributed",
          "type": "uint256"
        },
        {
          "internalType": "uint256",
          "name": "_matterDrawRate",
          "type": "uint256"
        },
        {
          "internalType": "string",
          "name": "_cidPath",
          "type": "string"
        },
        {
          "internalType": "bytes",
          "name": "_signature",
          "type": "bytes"
        }
      ],
      "name": "createButter",
      "outputs": [
        {
          "internalType": "address",
          "name": "butterLocation",
          "type": "address"
        }
      ],
      "stateMutability": "nonpayable",
      "type": "function"
    }
  ],
  "bytecode": "0x60806040523480156200001157600080fd5b506040516200603a3803806200603a8339818101604052810190620000379190620004dd565b85858585858585858160009081620000509190620007f8565b508060019081620000629190620007f8565b5050506200008562000079620001dc60201b60201c565b620001e460201b60201c565b83600c6000018190555082600c60010160006101000a81548173ffffffffffffffffffffffffffffffffffffffff021916908373ffffffffffffffffffffffffffffffffffffffff16021790555081600c60020160006101000a81548173ffffffffffffffffffffffffffffffffffffffff021916908373ffffffffffffffffffffffffffffffffffffffff16021790555080600c60040160006101000a81548173ffffffffffffffffffffffffffffffffffffffff021916908373ffffffffffffffffffffffffffffffffffffffff1602179055505050505050508173ffffffffffffffffffffffffffffffffffffffff1663a56c5a78306040518263ffffffff1660e01b81526004016200019c9190620008f0565b600060405180830381600087803b158015620001b757600080fd5b505af1158015620001cc573d6000803e3d6000fd5b505050505050505050506200090d565b600033905090565b6000600b60009054906101000a900473ffffffffffffffffffffffffffffffffffffffff16905081600b60006101000a81548173ffffffffffffffffffffffffffffffffffffffff021916908373ffffffffffffffffffffffffffffffffffffffff1602179055508173ffffffffffffffffffffffffffffffffffffffff168173ffffffffffffffffffffffffffffffffffffffff167f8be0079c531659141344cd1fd0a4f28419497f9722a3daafe3b4186f6b6457e060405160405180910390a35050565b6000604051905090565b600080fd5b600080fd5b600080fd5b600080fd5b6000601f19601f8301169050919050565b7f4e487b7100000000000000000000000000000000000000000000000000000000600052604160045260246000fd5b6200031382620002c8565b810181811067ffffffffffffffff82111715620003355762000334620002d9565b5b80604052505050565b60006200034a620002aa565b905062000358828262000308565b919050565b600067ffffffffffffffff8211156200037b576200037a620002d9565b5b6200038682620002c8565b9050602081019050919050565b60005b83811015620003b357808201518184015260208101905062000396565b60008484015250505050565b6000620003d6620003d0846200035d565b6200033e565b905082815260208101848484011115620003f557620003f4620002c3565b5b6200040284828562000393565b509392505050565b600082601f830112620004225762000421620002be565b5b815162000434848260208601620003bf565b91505092915050565b6000819050919050565b62000452816200043d565b81146200045e57600080fd5b50565b600081519050620004728162000447565b92915050565b600073ffffffffffffffffffffffffffffffffffffffff82169050919050565b6000620004a58262000478565b9050919050565b620004b78162000498565b8114620004c357600080fd5b50565b600081519050620004d781620004ac565b92915050565b60008060008060008060c08789031215620004fd57620004fc620002b4565b5b600087015167ffffffffffffffff8111156200051e576200051d620002b9565b5b6200052c89828a016200040a565b965050602087015167ffffffffffffffff81111562000550576200054f620002b9565b5b6200055e89828a016200040a565b95505060406200057189828a0162000461565b94505060606200058489828a01620004c6565b93505060806200059789828a01620004c6565b92505060a0620005aa89828a01620004c6565b9150509295509295509295565b600081519050919050565b7f4e487b7100000000000000000000000000000000000000000000000000000000600052602260045260246000fd5b600060028204905060018216806200060a57607f821691505b60208210810362000620576200061f620005c2565b5b50919050565b60008190508160005260206000209050919050565b60006020601f8301049050919050565b600082821b905092915050565b6000600883026200068a7fffffffffffffffffffffffffffffffffffffffffffffffffffffffffffffffff826200064b565b6200069686836200064b565b95508019841693508086168417925050509392505050565b6000819050919050565b6000620006d9620006d3620006cd846200043d565b620006ae565b6200043d565b9050919050565b6000819050919050565b620006f583620006b8565b6200070d6200070482620006e0565b84845462000658565b825550505050565b600090565b6200072462000715565b62000731818484620006ea565b505050565b5b8181101562000759576200074d6000826200071a565b60018101905062000737565b5050565b601f821115620007a857620007728162000626565b6200077d846200063b565b810160208510156200078d578190505b620007a56200079c856200063b565b83018262000736565b50505b505050565b600082821c905092915050565b6000620007cd60001984600802620007ad565b1980831691505092915050565b6000620007e88383620007ba565b9150826002028217905092915050565b6200080382620005b7565b67ffffffffffffffff8111156200081f576200081e620002d9565b5b6200082b8254620005f1565b620008388282856200075d565b600060209050601f8311600181146200087057600084156200085b578287015190505b620008678582620007da565b865550620008d7565b601f198416620008808662000626565b60005b82811015620008aa5784890151825560018201915060208501945060208101905062000883565b86831015620008ca5784890151620008c6601f891682620007ba565b8355505b6001600288020188555050505b505050505050565b620008ea8162000498565b82525050565b6000602082019050620009076000830184620008df565b92915050565b61571d806200091d6000396000f3fe6080604052600436106101c25760003560e01c80635f9ff4a1116100f757806395f04d0511610095578063c87b56dd11610064578063c87b56dd1461065d578063e985e9c51461069a578063f23c9583146106d7578063f2fde38b14610707576101c2565b806395f04d05146105b2578063a22cb465146105ce578063a58f2eb6146105f7578063b88d4fde14610634576101c2565b8063715018a6116100d1578063715018a614610508578063836387101461051f5780638da5cb5b1461055c57806395d89b4114610587576101c2565b80635f9ff4a1146104515780636352211e1461048e57806370a08231146104cb576101c2565b806318160ddd116101645780633ccfd60b1161013e5780633ccfd60b146103a957806342842e0e146103c05780634f6ccce7146103e95780635d12928b14610426576101c2565b806318160ddd1461031857806323b872dd146103435780632f745c591461036c576101c2565b8063095ea7b3116101a0578063095ea7b31461026c5780630ef8dd951461029557806313845d2f146102c0578063162094c4146102ef576101c2565b806301ffc9a7146101c757806306fdde0314610204578063081812fc1461022f575b600080fd5b3480156101d357600080fd5b506101ee60048036038101906101e991906135b8565b610730565b6040516101fb9190613600565b60405180910390f35b34801561021057600080fd5b50610219610742565b60405161022691906136ab565b60405180910390f35b34801561023b57600080fd5b5061025660048036038101906102519190613703565b6107d4565b6040516102639190613771565b60405180910390f35b34801561027857600080fd5b50610293600480360381019061028e91906137b8565b610859565b005b3480156102a157600080fd5b506102aa610970565b6040516102b79190613771565b60405180910390f35b3480156102cc57600080fd5b506102d561099d565b6040516102e6959493929190613807565b60405180910390f35b3480156102fb57600080fd5b506103166004803603810190610311919061398f565b610a41565b005b34801561032457600080fd5b5061032d610a4f565b60405161033a91906139eb565b60405180910390f35b34801561034f57600080fd5b5061036a60048036038101906103659190613a06565b610a5c565b005b34801561037857600080fd5b50610393600480360381019061038e91906137b8565b610abc565b6040516103a091906139eb565b60405180910390f35b3480156103b557600080fd5b506103be610b61565b005b3480156103cc57600080fd5b506103e760048036038101906103e29190613a06565b610c6f565b005b3480156103f557600080fd5b50610410600480360381019061040b9190613703565b610c8f565b60405161041d91906139eb565b60405180910390f35b34801561043257600080fd5b5061043b610d00565b6040516104489190613771565b60405180910390f35b34801561045d57600080fd5b5061047860048036038101906104739190613b30565b610d10565b6040516104859190613771565b60405180910390f35b34801561049a57600080fd5b506104b560048036038101906104b09190613703565b6110cf565b6040516104c29190613771565b60405180910390f35b3480156104d757600080fd5b506104f260048036038101906104ed9190613bf5565b611180565b6040516104ff91906139eb565b60405180910390f35b34801561051457600080fd5b5061051d611237565b005b34801561052b57600080fd5b5061054660048036038101906105419190613703565b6112bf565b6040516105539190613771565b60405180910390f35b34801561056857600080fd5b506105716112d1565b60405161057e9190613771565b60405180910390f35b34801561059357600080fd5b5061059c6112fb565b6040516105a991906136ab565b60405180910390f35b6105cc60048036038101906105c79190613c22565b61138d565b005b3480156105da57600080fd5b506105f560048036038101906105f09190613c97565b611576565b005b34801561060357600080fd5b5061061e60048036038101906106199190613cd7565b61158c565b60405161062b91906139eb565b60405180910390f35b34801561064057600080fd5b5061065b60048036038101906106569190613d33565b6115b7565b005b34801561066957600080fd5b50610684600480360381019061067f9190613703565b611619565b60405161069191906136ab565b60405180910390f35b3480156106a657600080fd5b506106c160048036038101906106bc9190613db6565b61162b565b6040516106ce9190613600565b60405180910390f35b6106f160048036038101906106ec9190613df6565b6116bf565b6040516106fe9190613771565b60405180910390f35b34801561071357600080fd5b5061072e60048036038101906107299190613bf5565b611d55565b005b600061073b82611e4c565b9050919050565b60606000805461075190613ec4565b80601f016020809104026020016040519081016040528092919081815260200182805461077d90613ec4565b80156107ca5780601f1061079f576101008083540402835291602001916107ca565b820191906000526020600020905b8154815290600101906020018083116107ad57829003601f168201915b5050505050905090565b60006107df82611ec6565b61081e576040517f08c379a000000000000000000000000000000000000000000000000000000000815260040161081590613f67565b60405180910390fd5b6004600083815260200190815260200160002060009054906101000a900473ffffffffffffffffffffffffffffffffffffffff169050919050565b6000610864826110cf565b90508073ffffffffffffffffffffffffffffffffffffffff168373ffffffffffffffffffffffffffffffffffffffff16036108d4576040517f08c379a00000000000000000000000000000000000000000000000000000000081526004016108cb90613ff9565b60405180910390fd5b8073ffffffffffffffffffffffffffffffffffffffff166108f3611f32565b73ffffffffffffffffffffffffffffffffffffffff16148061092257506109218161091c611f32565b61162b565b5b610961576040517f08c379a00000000000000000000000000000000000000000000000000000000081526004016109589061408b565b60405180910390fd5b61096b8383611f3a565b505050565b6000600c60030160009054906101000a900473ffffffffffffffffffffffffffffffffffffffff16905090565b600c8060000154908060010160009054906101000a900473ffffffffffffffffffffffffffffffffffffffff16908060020160009054906101000a900473ffffffffffffffffffffffffffffffffffffffff16908060030160009054906101000a900473ffffffffffffffffffffffffffffffffffffffff16908060040160009054906101000a900473ffffffffffffffffffffffffffffffffffffffff16905085565b610a4b8282611ff3565b5050565b6000600880549050905090565b610a6d610a67611f32565b82612060565b610aac576040517f08c379a0000000000000000000000000000000000000000000000000000000008152600401610aa39061411d565b60405180910390fd5b610ab783838361213e565b505050565b6000610ac783611180565b8210610b08576040517f08c379a0000000000000000000000000000000000000000000000000000000008152600401610aff906141af565b60405180910390fd5b600660008473ffffffffffffffffffffffffffffffffffffffff1673ffffffffffffffffffffffffffffffffffffffff168152602001908152602001600020600083815260200190815260200160002054905092915050565b610b69611f32565b73ffffffffffffffffffffffffffffffffffffffff16610b876112d1565b73ffffffffffffffffffffffffffffffffffffffff1614610bdd576040517f08c379a0000000000000000000000000000000000000000000000000000000008152600401610bd49061421b565b60405180910390fd5b600047905060004711610c25576040517f08c379a0000000000000000000000000000000000000000000000000000000008152600401610c1c90614287565b60405180910390fd5b3373ffffffffffffffffffffffffffffffffffffffff166108fc829081150290604051600060405180830381858888f19350505050158015610c6b573d6000803e3d6000fd5b5050565b610c8a838383604051806020016040528060008152506115b7565b505050565b6000610c99610a4f565b8210610cda576040517f08c379a0000000000000000000000000000000000000000000000000000000008152600401610cd190614319565b60405180910390fd5b60088281548110610cee57610ced614339565b5b90600052602060002001549050919050565b6000610d0b306123a4565b905090565b6000610d1b876110cf565b73ffffffffffffffffffffffffffffffffffffffff163373ffffffffffffffffffffffffffffffffffffffff1614610d88576040517f08c379a0000000000000000000000000000000000000000000000000000000008152600401610d7f906143b4565b60405180910390fd5b60008486610d969190614403565b14610dd6576040517f08c379a0000000000000000000000000000000000000000000000000000000008152600401610dcd906144a6565b60405180910390fd5b6000600c60020160009054906101000a900473ffffffffffffffffffffffffffffffffffffffff1673ffffffffffffffffffffffffffffffffffffffff1663d798b462336040518263ffffffff1660e01b8152600401610e369190613771565b602060405180830381865afa158015610e53573d6000803e3d6000fd5b505050506040513d601f19601f82011682018060405250810190610e7791906144db565b905085811015610ebc576040517f08c379a0000000000000000000000000000000000000000000000000000000008152600401610eb39061457a565b60405180910390fd5b600c60020160009054906101000a900473ffffffffffffffffffffffffffffffffffffffff1673ffffffffffffffffffffffffffffffffffffffff1663f3d8c7a733600c60020160009054906101000a900473ffffffffffffffffffffffffffffffffffffffff16896040518463ffffffff1660e01b8152600401610f439392919061459a565b6020604051808303816000875af1158015610f62573d6000803e3d6000fd5b505050506040513d601f19601f82011682018060405250810190610f8691906145e6565b50600c60020160009054906101000a900473ffffffffffffffffffffffffffffffffffffffff1673ffffffffffffffffffffffffffffffffffffffff166303f5de9d8988888b6040518563ffffffff1660e01b8152600401610feb9493929190614622565b6020604051808303816000875af115801561100a573d6000803e3d6000fd5b505050506040513d601f19601f8201168201806040525081019061102e919061467c565b9150600c60030160009054906101000a900473ffffffffffffffffffffffffffffffffffffffff1673ffffffffffffffffffffffffffffffffffffffff1663bd6af0098986866040518463ffffffff1660e01b8152600401611092939291906146fe565b600060405180830381600087803b1580156110ac57600080fd5b505af11580156110c0573d6000803e3d6000fd5b50505050509695505050505050565b6000806002600084815260200190815260200160002060009054906101000a900473ffffffffffffffffffffffffffffffffffffffff169050600073ffffffffffffffffffffffffffffffffffffffff168173ffffffffffffffffffffffffffffffffffffffff1603611177576040517f08c379a000000000000000000000000000000000000000000000000000000000815260040161116e906147b5565b60405180910390fd5b80915050919050565b60008073ffffffffffffffffffffffffffffffffffffffff168273ffffffffffffffffffffffffffffffffffffffff16036111f0576040517f08c379a00000000000000000000000000000000000000000000000000000000081526004016111e790614847565b60405180910390fd5b600360008373ffffffffffffffffffffffffffffffffffffffff1673ffffffffffffffffffffffffffffffffffffffff168152602001908152602001600020549050919050565b61123f611f32565b73ffffffffffffffffffffffffffffffffffffffff1661125d6112d1565b73ffffffffffffffffffffffffffffffffffffffff16146112b3576040517f08c379a00000000000000000000000000000000000000000000000000000000081526004016112aa9061421b565b60405180910390fd5b6112bd60006124db565b565b60006112ca826110cf565b9050919050565b6000600b60009054906101000a900473ffffffffffffffffffffffffffffffffffffffff16905090565b60606001805461130a90613ec4565b80601f016020809104026020016040519081016040528092919081815260200182805461133690613ec4565b80156113835780601f1061135857610100808354040283529160200191611383565b820191906000526020600020905b81548152906001019060200180831161136657829003601f168201915b5050505050905090565b6000611397610a4f565b9050600c6000015481106113e0576040517f08c379a00000000000000000000000000000000000000000000000000000000081526004016113d7906148d9565b60405180910390fd5b6000600c60020160009054906101000a900473ffffffffffffffffffffffffffffffffffffffff1673ffffffffffffffffffffffffffffffffffffffff166398d5fdca6040518163ffffffff1660e01b8152600401602060405180830381865afa158015611452573d6000803e3d6000fd5b505050506040513d601f19601f8201168201806040525081019061147691906144db565b9050803410156114bb576040517f08c379a00000000000000000000000000000000000000000000000000000000081526004016114b29061496b565b60405180910390fd5b6114c533836125a1565b6114cf8284611ff3565b600c60020160009054906101000a900473ffffffffffffffffffffffffffffffffffffffff1673ffffffffffffffffffffffffffffffffffffffff1663c0bad4db336040518263ffffffff1660e01b815260040161152d9190613771565b6020604051808303816000875af115801561154c573d6000803e3d6000fd5b505050506040513d601f19601f8201168201806040525081019061157091906145e6565b50505050565b611588611581611f32565b83836125bf565b5050565b600080611597610a4f565b90506115a384826125a1565b6115ad8184611ff3565b8091505092915050565b6115c86115c2611f32565b83612060565b611607576040517f08c379a00000000000000000000000000000000000000000000000000000000081526004016115fe9061411d565b60405180910390fd5b6116138484848461272b565b50505050565b606061162482612787565b9050919050565b6000600560008473ffffffffffffffffffffffffffffffffffffffff1673ffffffffffffffffffffffffffffffffffffffff16815260200190815260200160002060008373ffffffffffffffffffffffffffffffffffffffff1673ffffffffffffffffffffffffffffffffffffffff16815260200190815260200160002060009054906101000a900460ff16905092915050565b60006116ca856110cf565b73ffffffffffffffffffffffffffffffffffffffff163373ffffffffffffffffffffffffffffffffffffffff1614611737576040517f08c379a000000000000000000000000000000000000000000000000000000000815260040161172e906143b4565b60405180910390fd5b600c60000154611745610a4f565b1015611786576040517f08c379a000000000000000000000000000000000000000000000000000000000815260040161177d906149d7565b60405180910390fd5b6000600c60020160009054906101000a900473ffffffffffffffffffffffffffffffffffffffff1673ffffffffffffffffffffffffffffffffffffffff1663bb5833af876040518263ffffffff1660e01b81526004016117e691906139eb565b602060405180830381865afa158015611803573d6000803e3d6000fd5b505050506040513d601f19601f8201168201806040525081019061182791906144db565b90508034101561186c576040517f08c379a000000000000000000000000000000000000000000000000000000000815260040161186390614a43565b60405180910390fd5b6000600c60020160009054906101000a900473ffffffffffffffffffffffffffffffffffffffff1673ffffffffffffffffffffffffffffffffffffffff16638ed3df0f886040518263ffffffff1660e01b81526004016118cc91906139eb565b602060405180830381865afa1580156118e9573d6000803e3d6000fd5b505050506040513d601f19601f8201168201806040525081019061190d91906144db565b90506000600c60020160009054906101000a900473ffffffffffffffffffffffffffffffffffffffff1673ffffffffffffffffffffffffffffffffffffffff1663d798b462336040518263ffffffff1660e01b815260040161196f9190613771565b602060405180830381865afa15801561198c573d6000803e3d6000fd5b505050506040513d601f19601f820116820180604052508101906119b091906144db565b9050818110156119f5576040517f08c379a00000000000000000000000000000000000000000000000000000000081526004016119ec90614aaf565b60405180910390fd5b600c60020160009054906101000a900473ffffffffffffffffffffffffffffffffffffffff1673ffffffffffffffffffffffffffffffffffffffff1663f3d8c7a733600c60020160009054906101000a900473ffffffffffffffffffffffffffffffffffffffff16856040518463ffffffff1660e01b8152600401611a7c9392919061459a565b6020604051808303816000875af1158015611a9b573d6000803e3d6000fd5b505050506040513d601f19601f82011682018060405250810190611abf91906145e6565b50600c60020160009054906101000a900473ffffffffffffffffffffffffffffffffffffffff1673ffffffffffffffffffffffffffffffffffffffff1663ff2cb34733846040518363ffffffff1660e01b8152600401611b20929190614acf565b6020604051808303816000875af1158015611b3f573d6000803e3d6000fd5b505050506040513d601f19601f82011682018060405250810190611b6391906144db565b50600c60020160009054906101000a900473ffffffffffffffffffffffffffffffffffffffff1673ffffffffffffffffffffffffffffffffffffffff1663fe774f9d89896040518363ffffffff1660e01b8152600401611bc4929190614af8565b6020604051808303816000875af1158015611be3573d6000803e3d6000fd5b505050506040513d601f19601f82011682018060405250810190611c07919061467c565b935060008473ffffffffffffffffffffffffffffffffffffffff1634604051611c2f90614b52565b60006040518083038185875af1925050503d8060008114611c6c576040519150601f19603f3d011682016040523d82523d6000602084013e611c71565b606091505b5050905080611cb5576040517f08c379a0000000000000000000000000000000000000000000000000000000008152600401611cac90614bb3565b60405180910390fd5b600c60030160009054906101000a900473ffffffffffffffffffffffffffffffffffffffff1673ffffffffffffffffffffffffffffffffffffffff1663bd6af0098a89896040518463ffffffff1660e01b8152600401611d17939291906146fe565b600060405180830381600087803b158015611d3157600080fd5b505af1158015611d45573d6000803e3d6000fd5b5050505050505050949350505050565b611d5d611f32565b73ffffffffffffffffffffffffffffffffffffffff16611d7b6112d1565b73ffffffffffffffffffffffffffffffffffffffff1614611dd1576040517f08c379a0000000000000000000000000000000000000000000000000000000008152600401611dc89061421b565b60405180910390fd5b600073ffffffffffffffffffffffffffffffffffffffff168173ffffffffffffffffffffffffffffffffffffffff1603611e40576040517f08c379a0000000000000000000000000000000000000000000000000000000008152600401611e3790614c45565b60405180910390fd5b611e49816124db565b50565b60007f780e9d63000000000000000000000000000000000000000000000000000000007bffffffffffffffffffffffffffffffffffffffffffffffffffffffff1916827bffffffffffffffffffffffffffffffffffffffffffffffffffffffff19161480611ebf5750611ebe826128d8565b5b9050919050565b60008073ffffffffffffffffffffffffffffffffffffffff166002600084815260200190815260200160002060009054906101000a900473ffffffffffffffffffffffffffffffffffffffff1673ffffffffffffffffffffffffffffffffffffffff1614159050919050565b600033905090565b816004600083815260200190815260200160002060006101000a81548173ffffffffffffffffffffffffffffffffffffffff021916908373ffffffffffffffffffffffffffffffffffffffff160217905550808273ffffffffffffffffffffffffffffffffffffffff16611fad836110cf565b73ffffffffffffffffffffffffffffffffffffffff167f8c5be1e5ebec7d5bd14f71427d1e84f3dd0314c0f7b2291e5b200ac8c7c3b92560405160405180910390a45050565b611ffc82611ec6565b61203b576040517f08c379a000000000000000000000000000000000000000000000000000000000815260040161203290614cd7565b60405180910390fd5b80600a6000848152602001908152602001600020908161205b9190614ea3565b505050565b600061206b82611ec6565b6120aa576040517f08c379a00000000000000000000000000000000000000000000000000000000081526004016120a190614fe7565b60405180910390fd5b60006120b5836110cf565b90508073ffffffffffffffffffffffffffffffffffffffff168473ffffffffffffffffffffffffffffffffffffffff1614806120f757506120f6818561162b565b5b8061213557508373ffffffffffffffffffffffffffffffffffffffff1661211d846107d4565b73ffffffffffffffffffffffffffffffffffffffff16145b91505092915050565b8273ffffffffffffffffffffffffffffffffffffffff1661215e826110cf565b73ffffffffffffffffffffffffffffffffffffffff16146121b4576040517f08c379a00000000000000000000000000000000000000000000000000000000081526004016121ab90615079565b60405180910390fd5b600073ffffffffffffffffffffffffffffffffffffffff168273ffffffffffffffffffffffffffffffffffffffff1603612223576040517f08c379a000000000000000000000000000000000000000000000000000000000815260040161221a9061510b565b60405180910390fd5b61222e8383836129ba565b612239600082611f3a565b6001600360008573ffffffffffffffffffffffffffffffffffffffff1673ffffffffffffffffffffffffffffffffffffffff1681526020019081526020016000206000828254612289919061515a565b925050819055506001600360008473ffffffffffffffffffffffffffffffffffffffff1673ffffffffffffffffffffffffffffffffffffffff16815260200190815260200160002060008282546122e0919061518e565b92505081905550816002600083815260200190815260200160002060006101000a81548173ffffffffffffffffffffffffffffffffffffffff021916908373ffffffffffffffffffffffffffffffffffffffff160217905550808273ffffffffffffffffffffffffffffffffffffffff168473ffffffffffffffffffffffffffffffffffffffff167fddf252ad1be2c89b69c2b068fc378daa952ba7f163c4a11628f55a4df523b3ef60405160405180910390a461239f8383836129ca565b505050565b6000806123d5600c60040160009054906101000a900473ffffffffffffffffffffffffffffffffffffffff166129cf565b90508073ffffffffffffffffffffffffffffffffffffffff1663485cc955600c60010160009054906101000a900473ffffffffffffffffffffffffffffffffffffffff16856040518363ffffffff1660e01b81526004016124379291906151c2565b600060405180830381600087803b15801561245157600080fd5b505af1158015612465573d6000803e3d6000fd5b5050505080600c60030160006101000a81548173ffffffffffffffffffffffffffffffffffffffff021916908373ffffffffffffffffffffffffffffffffffffffff160217905550600c60030160009054906101000a900473ffffffffffffffffffffffffffffffffffffffff16915050919050565b6000600b60009054906101000a900473ffffffffffffffffffffffffffffffffffffffff16905081600b60006101000a81548173ffffffffffffffffffffffffffffffffffffffff021916908373ffffffffffffffffffffffffffffffffffffffff1602179055508173ffffffffffffffffffffffffffffffffffffffff168173ffffffffffffffffffffffffffffffffffffffff167f8be0079c531659141344cd1fd0a4f28419497f9722a3daafe3b4186f6b6457e060405160405180910390a35050565b6125bb828260405180602001604052806000815250612aa3565b5050565b8173ffffffffffffffffffffffffffffffffffffffff168373ffffffffffffffffffffffffffffffffffffffff160361262d576040517f08c379a000000000000000000000000000000000000000000000000000000000815260040161262490615237565b60405180910390fd5b80600560008573ffffffffffffffffffffffffffffffffffffffff1673ffffffffffffffffffffffffffffffffffffffff16815260200190815260200160002060008473ffffffffffffffffffffffffffffffffffffffff1673ffffffffffffffffffffffffffffffffffffffff16815260200190815260200160002060006101000a81548160ff0219169083151502179055508173ffffffffffffffffffffffffffffffffffffffff168373ffffffffffffffffffffffffffffffffffffffff167f17307eab39ab6107e8899845ad3d59bd9653f200f220920489ca2b5937696c318360405161271e9190613600565b60405180910390a3505050565b61273684848461213e565b61274284848484612afe565b612781576040517f08c379a0000000000000000000000000000000000000000000000000000000008152600401612778906152c9565b60405180910390fd5b50505050565b606061279282611ec6565b6127d1576040517f08c379a00000000000000000000000000000000000000000000000000000000081526004016127c89061535b565b60405180910390fd5b6000600a600084815260200190815260200160002080546127f190613ec4565b80601f016020809104026020016040519081016040528092919081815260200182805461281d90613ec4565b801561286a5780601f1061283f5761010080835404028352916020019161286a565b820191906000526020600020905b81548152906001019060200180831161284d57829003601f168201915b50505050509050600061287b612c85565b905060008151036128905781925050506128d3565b6000825111156128c55780826040516020016128ad9291906153b7565b604051602081830303815290604052925050506128d3565b6128ce84612cc2565b925050505b919050565b60007f80ac58cd000000000000000000000000000000000000000000000000000000007bffffffffffffffffffffffffffffffffffffffffffffffffffffffff1916827bffffffffffffffffffffffffffffffffffffffffffffffffffffffff191614806129a357507f5b5e139f000000000000000000000000000000000000000000000000000000007bffffffffffffffffffffffffffffffffffffffffffffffffffffffff1916827bffffffffffffffffffffffffffffffffffffffffffffffffffffffff1916145b806129b357506129b282612d69565b5b9050919050565b6129c5838383612dd3565b505050565b505050565b60006040517f3d602d80600a3d3981f3363d3d373d3d3d363d7300000000000000000000000081528260601b60148201527f5af43d82803e903d91602b57fd5bf3000000000000000000000000000000000060288201526037816000f0915050600073ffffffffffffffffffffffffffffffffffffffff168173ffffffffffffffffffffffffffffffffffffffff1603612a9e576040517f08c379a0000000000000000000000000000000000000000000000000000000008152600401612a9590615427565b60405180910390fd5b919050565b612aad8383612ee5565b612aba6000848484612afe565b612af9576040517f08c379a0000000000000000000000000000000000000000000000000000000008152600401612af0906152c9565b60405180910390fd5b505050565b6000612b1f8473ffffffffffffffffffffffffffffffffffffffff166130be565b15612c78578373ffffffffffffffffffffffffffffffffffffffff1663150b7a02612b48611f32565b8786866040518563ffffffff1660e01b8152600401612b6a9493929190615447565b6020604051808303816000875af1925050508015612ba657506040513d601f19601f82011682018060405250810190612ba391906154a8565b60015b612c28573d8060008114612bd6576040519150601f19603f3d011682016040523d82523d6000602084013e612bdb565b606091505b506000815103612c20576040517f08c379a0000000000000000000000000000000000000000000000000000000008152600401612c17906152c9565b60405180910390fd5b805181602001fd5b63150b7a0260e01b7bffffffffffffffffffffffffffffffffffffffffffffffffffffffff1916817bffffffffffffffffffffffffffffffffffffffffffffffffffffffff191614915050612c7d565b600190505b949350505050565b60606040518060400160405280601581526020017f68747470733a2f2f697066732e696f2f697066732f0000000000000000000000815250905090565b6060612ccd82611ec6565b612d0c576040517f08c379a0000000000000000000000000000000000000000000000000000000008152600401612d0390615547565b60405180910390fd5b6000612d16612c85565b90506000815111612d365760405180602001604052806000815250612d61565b80612d40846130e1565b604051602001612d519291906153b7565b6040516020818303038152906040525b915050919050565b60007f01ffc9a7000000000000000000000000000000000000000000000000000000007bffffffffffffffffffffffffffffffffffffffffffffffffffffffff1916827bffffffffffffffffffffffffffffffffffffffffffffffffffffffff1916149050919050565b612dde838383613241565b600073ffffffffffffffffffffffffffffffffffffffff168373ffffffffffffffffffffffffffffffffffffffff1603612e2057612e1b81613246565b612e5f565b8173ffffffffffffffffffffffffffffffffffffffff168373ffffffffffffffffffffffffffffffffffffffff1614612e5e57612e5d838261328f565b5b5b600073ffffffffffffffffffffffffffffffffffffffff168273ffffffffffffffffffffffffffffffffffffffff1603612ea157612e9c816133fc565b612ee0565b8273ffffffffffffffffffffffffffffffffffffffff168273ffffffffffffffffffffffffffffffffffffffff1614612edf57612ede82826134cd565b5b5b505050565b600073ffffffffffffffffffffffffffffffffffffffff168273ffffffffffffffffffffffffffffffffffffffff1603612f54576040517f08c379a0000000000000000000000000000000000000000000000000000000008152600401612f4b906155b3565b60405180910390fd5b612f5d81611ec6565b15612f9d576040517f08c379a0000000000000000000000000000000000000000000000000000000008152600401612f949061561f565b60405180910390fd5b612fa9600083836129ba565b6001600360008473ffffffffffffffffffffffffffffffffffffffff1673ffffffffffffffffffffffffffffffffffffffff1681526020019081526020016000206000828254612ff9919061518e565b92505081905550816002600083815260200190815260200160002060006101000a81548173ffffffffffffffffffffffffffffffffffffffff021916908373ffffffffffffffffffffffffffffffffffffffff160217905550808273ffffffffffffffffffffffffffffffffffffffff16600073ffffffffffffffffffffffffffffffffffffffff167fddf252ad1be2c89b69c2b068fc378daa952ba7f163c4a11628f55a4df523b3ef60405160405180910390a46130ba600083836129ca565b5050565b6000808273ffffffffffffffffffffffffffffffffffffffff163b119050919050565b606060008203613128576040518060400160405280600181526020017f3000000000000000000000000000000000000000000000000000000000000000815250905061323c565b600082905060005b6000821461315a5780806131439061563f565b915050600a826131539190615687565b9150613130565b60008167ffffffffffffffff81111561317657613175613864565b5b6040519080825280601f01601f1916602001820160405280156131a85781602001600182028036833780820191505090505b5090505b60008514613235576001826131c1919061515a565b9150600a856131d09190614403565b60306131dc919061518e565b60f81b8183815181106131f2576131f1614339565b5b60200101907effffffffffffffffffffffffffffffffffffffffffffffffffffffffffffff1916908160001a905350600a8561322e9190615687565b94506131ac565b8093505050505b919050565b505050565b6008805490506009600083815260200190815260200160002081905550600881908060018154018082558091505060019003906000526020600020016000909190919091505550565b6000600161329c84611180565b6132a6919061515a565b905060006007600084815260200190815260200160002054905081811461338b576000600660008673ffffffffffffffffffffffffffffffffffffffff1673ffffffffffffffffffffffffffffffffffffffff168152602001908152602001600020600084815260200190815260200160002054905080600660008773ffffffffffffffffffffffffffffffffffffffff1673ffffffffffffffffffffffffffffffffffffffff168152602001908152602001600020600084815260200190815260200160002081905550816007600083815260200190815260200160002081905550505b6007600084815260200190815260200160002060009055600660008573ffffffffffffffffffffffffffffffffffffffff1673ffffffffffffffffffffffffffffffffffffffff16815260200190815260200160002060008381526020019081526020016000206000905550505050565b60006001600880549050613410919061515a565b90506000600960008481526020019081526020016000205490506000600883815481106134405761343f614339565b5b90600052602060002001549050806008838154811061346257613461614339565b5b9060005260206000200181905550816009600083815260200190815260200160002081905550600960008581526020019081526020016000206000905560088054806134b1576134b06156b8565b5b6001900381819060005260206000200160009055905550505050565b60006134d883611180565b905081600660008573ffffffffffffffffffffffffffffffffffffffff1673ffffffffffffffffffffffffffffffffffffffff168152602001908152602001600020600083815260200190815260200160002081905550806007600084815260200190815260200160002081905550505050565b6000604051905090565b600080fd5b600080fd5b60007fffffffff0000000000000000000000000000000000000000000000000000000082169050919050565b61359581613560565b81146135a057600080fd5b50565b6000813590506135b28161358c565b92915050565b6000602082840312156135ce576135cd613556565b5b60006135dc848285016135a3565b91505092915050565b60008115159050919050565b6135fa816135e5565b82525050565b600060208201905061361560008301846135f1565b92915050565b600081519050919050565b600082825260208201905092915050565b60005b8381101561365557808201518184015260208101905061363a565b60008484015250505050565b6000601f19601f8301169050919050565b600061367d8261361b565b6136878185613626565b9350613697818560208601613637565b6136a081613661565b840191505092915050565b600060208201905081810360008301526136c58184613672565b905092915050565b6000819050919050565b6136e0816136cd565b81146136eb57600080fd5b50565b6000813590506136fd816136d7565b92915050565b60006020828403121561371957613718613556565b5b6000613727848285016136ee565b91505092915050565b600073ffffffffffffffffffffffffffffffffffffffff82169050919050565b600061375b82613730565b9050919050565b61376b81613750565b82525050565b60006020820190506137866000830184613762565b92915050565b61379581613750565b81146137a057600080fd5b50565b6000813590506137b28161378c565b92915050565b600080604083850312156137cf576137ce613556565b5b60006137dd858286016137a3565b92505060206137ee858286016136ee565b9150509250929050565b613801816136cd565b82525050565b600060a08201905061381c60008301886137f8565b6138296020830187613762565b6138366040830186613762565b6138436060830185613762565b6138506080830184613762565b9695505050505050565b600080fd5b600080fd5b7f4e487b7100000000000000000000000000000000000000000000000000000000600052604160045260246000fd5b61389c82613661565b810181811067ffffffffffffffff821117156138bb576138ba613864565b5b80604052505050565b60006138ce61354c565b90506138da8282613893565b919050565b600067ffffffffffffffff8211156138fa576138f9613864565b5b61390382613661565b9050602081019050919050565b82818337600083830152505050565b600061393261392d846138df565b6138c4565b90508281526020810184848401111561394e5761394d61385f565b5b613959848285613910565b509392505050565b600082601f8301126139765761397561385a565b5b813561398684826020860161391f565b91505092915050565b600080604083850312156139a6576139a5613556565b5b60006139b4858286016136ee565b925050602083013567ffffffffffffffff8111156139d5576139d461355b565b5b6139e185828601613961565b9150509250929050565b6000602082019050613a0060008301846137f8565b92915050565b600080600060608486031215613a1f57613a1e613556565b5b6000613a2d868287016137a3565b9350506020613a3e868287016137a3565b9250506040613a4f868287016136ee565b9150509250925092565b6000819050919050565b613a6c81613a59565b8114613a7757600080fd5b50565b600081359050613a8981613a63565b92915050565b600067ffffffffffffffff821115613aaa57613aa9613864565b5b613ab382613661565b9050602081019050919050565b6000613ad3613ace84613a8f565b6138c4565b905082815260208101848484011115613aef57613aee61385f565b5b613afa848285613910565b509392505050565b600082601f830112613b1757613b1661385a565b5b8135613b27848260208601613ac0565b91505092915050565b60008060008060008060c08789031215613b4d57613b4c613556565b5b6000613b5b89828a016136ee565b9650506020613b6c89828a01613a7a565b9550506040613b7d89828a016136ee565b9450506060613b8e89828a016136ee565b935050608087013567ffffffffffffffff811115613baf57613bae61355b565b5b613bbb89828a01613961565b92505060a087013567ffffffffffffffff811115613bdc57613bdb61355b565b5b613be889828a01613b02565b9150509295509295509295565b600060208284031215613c0b57613c0a613556565b5b6000613c19848285016137a3565b91505092915050565b600060208284031215613c3857613c37613556565b5b600082013567ffffffffffffffff811115613c5657613c5561355b565b5b613c6284828501613961565b91505092915050565b613c74816135e5565b8114613c7f57600080fd5b50565b600081359050613c9181613c6b565b92915050565b60008060408385031215613cae57613cad613556565b5b6000613cbc858286016137a3565b9250506020613ccd85828601613c82565b9150509250929050565b60008060408385031215613cee57613ced613556565b5b6000613cfc858286016137a3565b925050602083013567ffffffffffffffff811115613d1d57613d1c61355b565b5b613d2985828601613961565b9150509250929050565b60008060008060808587031215613d4d57613d4c613556565b5b6000613d5b878288016137a3565b9450506020613d6c878288016137a3565b9350506040613d7d878288016136ee565b925050606085013567ffffffffffffffff811115613d9e57613d9d61355b565b5b613daa87828801613b02565b91505092959194509250565b60008060408385031215613dcd57613dcc613556565b5b6000613ddb858286016137a3565b9250506020613dec858286016137a3565b9150509250929050565b60008060008060808587031215613e1057613e0f613556565b5b6000613e1e878288016136ee565b9450506020613e2f87828801613a7a565b935050604085013567ffffffffffffffff811115613e5057613e4f61355b565b5b613e5c87828801613961565b925050606085013567ffffffffffffffff811115613e7d57613e7c61355b565b5b613e8987828801613b02565b91505092959194509250565b7f4e487b7100000000000000000000000000000000000000000000000000000000600052602260045260246000fd5b60006002820490506001821680613edc57607f821691505b602082108103613eef57613eee613e95565b5b50919050565b7f4552433732313a20617070726f76656420717565727920666f72206e6f6e657860008201527f697374656e7420746f6b656e0000000000000000000000000000000000000000602082015250565b6000613f51602c83613626565b9150613f5c82613ef5565b604082019050919050565b60006020820190508181036000830152613f8081613f44565b9050919050565b7f4552433732313a20617070726f76616c20746f2063757272656e74206f776e6560008201527f7200000000000000000000000000000000000000000000000000000000000000602082015250565b6000613fe3602183613626565b9150613fee82613f87565b604082019050919050565b6000602082019050818103600083015261401281613fd6565b9050919050565b7f4552433732313a20617070726f76652063616c6c6572206973206e6f74206f7760008201527f6e6572206e6f7220617070726f76656420666f7220616c6c0000000000000000602082015250565b6000614075603883613626565b915061408082614019565b604082019050919050565b600060208201905081810360008301526140a481614068565b9050919050565b7f4552433732313a207472616e736665722063616c6c6572206973206e6f74206f60008201527f776e6572206e6f7220617070726f766564000000000000000000000000000000602082015250565b6000614107603183613626565b9150614112826140ab565b604082019050919050565b60006020820190508181036000830152614136816140fa565b9050919050565b7f455243373231456e756d657261626c653a206f776e657220696e646578206f7560008201527f74206f6620626f756e6473000000000000000000000000000000000000000000602082015250565b6000614199602b83613626565b91506141a48261413d565b604082019050919050565b600060208201905081810360008301526141c88161418c565b9050919050565b7f4f776e61626c653a2063616c6c6572206973206e6f7420746865206f776e6572600082015250565b6000614205602083613626565b9150614210826141cf565b602082019050919050565b60006020820190508181036000830152614234816141f8565b9050919050565b7f4e6f2062616c616e636520746f20776974686472617700000000000000000000600082015250565b6000614271601683613626565b915061427c8261423b565b602082019050919050565b600060208201905081810360008301526142a081614264565b9050919050565b7f455243373231456e756d657261626c653a20676c6f62616c20696e646578206f60008201527f7574206f6620626f756e64730000000000000000000000000000000000000000602082015250565b6000614303602c83613626565b915061430e826142a7565b604082019050919050565b60006020820190508181036000830152614332816142f6565b9050919050565b7f4e487b7100000000000000000000000000000000000000000000000000000000600052603260045260246000fd5b7f43616c6c6572206973206e6f74206f776e6572206f66206e7574000000000000600082015250565b600061439e601a83613626565b91506143a982614368565b602082019050919050565b600060208201905081810360008301526143cd81614391565b9050919050565b7f4e487b7100000000000000000000000000000000000000000000000000000000600052601260045260246000fd5b600061440e826136cd565b9150614419836136cd565b925082614429576144286143d4565b5b828206905092915050565b7f447261772072617465206e6f7420706572666563746c7920646976697369626c60008201527f6520627920636f6e747269627574696f6e000000000000000000000000000000602082015250565b6000614490603183613626565b915061449b82614434565b604082019050919050565b600060208201905081810360008301526144bf81614483565b9050919050565b6000815190506144d5816136d7565b92915050565b6000602082840312156144f1576144f0613556565b5b60006144ff848285016144c6565b91505092915050565b7f4d6174746572206f776e6564206973206c657373207468616e2064657369726560008201527f6420636f6e747269627574696f6e000000000000000000000000000000000000602082015250565b6000614564602e83613626565b915061456f82614508565b604082019050919050565b6000602082019050818103600083015261459381614557565b9050919050565b60006060820190506145af6000830186613762565b6145bc6020830185613762565b6145c960408301846137f8565b949350505050565b6000815190506145e081613c6b565b92915050565b6000602082840312156145fc576145fb613556565b5b600061460a848285016145d1565b91505092915050565b61461c81613a59565b82525050565b600060808201905061463760008301876137f8565b61464460208301866137f8565b61465160408301856137f8565b61465e6060830184614613565b95945050505050565b6000815190506146768161378c565b92915050565b60006020828403121561469257614691613556565b5b60006146a084828501614667565b91505092915050565b600081519050919050565b600082825260208201905092915050565b60006146d0826146a9565b6146da81856146b4565b93506146ea818560208601613637565b6146f381613661565b840191505092915050565b600060608201905061471360008301866137f8565b81810360208301526147258185613672565b9050818103604083015261473981846146c5565b9050949350505050565b7f4552433732313a206f776e657220717565727920666f72206e6f6e657869737460008201527f656e7420746f6b656e0000000000000000000000000000000000000000000000602082015250565b600061479f602983613626565b91506147aa82614743565b604082019050919050565b600060208201905081810360008301526147ce81614792565b9050919050565b7f4552433732313a2062616c616e636520717565727920666f7220746865207a6560008201527f726f206164647265737300000000000000000000000000000000000000000000602082015250565b6000614831602a83613626565b915061483c826147d5565b604082019050919050565b6000602082019050818103600083015261486081614824565b9050919050565b7f496e697469616c20737570706c79206f66206e757473206973206465706c657460008201527f6564000000000000000000000000000000000000000000000000000000000000602082015250565b60006148c3602283613626565b91506148ce82614867565b604082019050919050565b600060208201905081810360008301526148f2816148b6565b9050919050565b7f45746865722076616c75652070726f7669646564206973206e6f7420656e6f7560008201527f6768000000000000000000000000000000000000000000000000000000000000602082015250565b6000614955602283613626565b9150614960826148f9565b604082019050919050565b6000602082019050818103600083015261498481614948565b9050919050565b7f4e757473207374696c6c2065786973742066726f6d206372656174696f6e0000600082015250565b60006149c1601e83613626565b91506149cc8261498b565b602082019050919050565b600060208201905081810360008301526149f0816149b4565b9050919050565b7f45746865722076616c7565206973206e6f7420656e6f75676800000000000000600082015250565b6000614a2d601983613626565b9150614a38826149f7565b602082019050919050565b60006020820190508181036000830152614a5c81614a20565b9050919050565b7f4d61747465722062616c616e6365206973206e6f7420656e6f75676800000000600082015250565b6000614a99601c83613626565b9150614aa482614a63565b602082019050919050565b60006020820190508181036000830152614ac881614a8c565b9050919050565b6000604082019050614ae46000830185613762565b614af160208301846137f8565b9392505050565b6000604082019050614b0d60008301856137f8565b614b1a6020830184614613565b9392505050565b600081905092915050565b50565b6000614b3c600083614b21565b9150614b4782614b2c565b600082019050919050565b6000614b5d82614b2f565b9150819050919050565b7f4574686572206e6f742073656e7420746f207365656400000000000000000000600082015250565b6000614b9d601683613626565b9150614ba882614b67565b602082019050919050565b60006020820190508181036000830152614bcc81614b90565b9050919050565b7f4f776e61626c653a206e6577206f776e657220697320746865207a65726f206160008201527f6464726573730000000000000000000000000000000000000000000000000000602082015250565b6000614c2f602683613626565b9150614c3a82614bd3565b604082019050919050565b60006020820190508181036000830152614c5e81614c22565b9050919050565b7f45524337323155524953746f726167653a2055524920736574206f66206e6f6e60008201527f6578697374656e7420746f6b656e000000000000000000000000000000000000602082015250565b6000614cc1602e83613626565b9150614ccc82614c65565b604082019050919050565b60006020820190508181036000830152614cf081614cb4565b9050919050565b60008190508160005260206000209050919050565b60006020601f8301049050919050565b600082821b905092915050565b600060088302614d597fffffffffffffffffffffffffffffffffffffffffffffffffffffffffffffffff82614d1c565b614d638683614d1c565b95508019841693508086168417925050509392505050565b6000819050919050565b6000614da0614d9b614d96846136cd565b614d7b565b6136cd565b9050919050565b6000819050919050565b614dba83614d85565b614dce614dc682614da7565b848454614d29565b825550505050565b600090565b614de3614dd6565b614dee818484614db1565b505050565b5b81811015614e1257614e07600082614ddb565b600181019050614df4565b5050565b601f821115614e5757614e2881614cf7565b614e3184614d0c565b81016020851015614e40578190505b614e54614e4c85614d0c565b830182614df3565b50505b505050565b600082821c905092915050565b6000614e7a60001984600802614e5c565b1980831691505092915050565b6000614e938383614e69565b9150826002028217905092915050565b614eac8261361b565b67ffffffffffffffff811115614ec557614ec4613864565b5b614ecf8254613ec4565b614eda828285614e16565b600060209050601f831160018114614f0d5760008415614efb578287015190505b614f058582614e87565b865550614f6d565b601f198416614f1b86614cf7565b60005b82811015614f4357848901518255600182019150602085019450602081019050614f1e565b86831015614f605784890151614f5c601f891682614e69565b8355505b6001600288020188555050505b505050505050565b7f4552433732313a206f70657261746f7220717565727920666f72206e6f6e657860008201527f697374656e7420746f6b656e0000000000000000000000000000000000000000602082015250565b6000614fd1602c83613626565b9150614fdc82614f75565b604082019050919050565b6000602082019050818103600083015261500081614fc4565b9050919050565b7f4552433732313a207472616e736665722066726f6d20696e636f72726563742060008201527f6f776e6572000000000000000000000000000000000000000000000000000000602082015250565b6000615063602583613626565b915061506e82615007565b604082019050919050565b6000602082019050818103600083015261509281615056565b9050919050565b7f4552433732313a207472616e7366657220746f20746865207a65726f2061646460008201527f7265737300000000000000000000000000000000000000000000000000000000602082015250565b60006150f5602483613626565b915061510082615099565b604082019050919050565b60006020820190508181036000830152615124816150e8565b9050919050565b7f4e487b7100000000000000000000000000000000000000000000000000000000600052601160045260246000fd5b6000615165826136cd565b9150615170836136cd565b92508282039050818111156151885761518761512b565b5b92915050565b6000615199826136cd565b91506151a4836136cd565b92508282019050808211156151bc576151bb61512b565b5b92915050565b60006040820190506151d76000830185613762565b6151e46020830184613762565b9392505050565b7f4552433732313a20617070726f766520746f2063616c6c657200000000000000600082015250565b6000615221601983613626565b915061522c826151eb565b602082019050919050565b6000602082019050818103600083015261525081615214565b9050919050565b7f4552433732313a207472616e7366657220746f206e6f6e20455243373231526560008201527f63656976657220696d706c656d656e7465720000000000000000000000000000602082015250565b60006152b3603283613626565b91506152be82615257565b604082019050919050565b600060208201905081810360008301526152e2816152a6565b9050919050565b7f45524337323155524953746f726167653a2055524920717565727920666f722060008201527f6e6f6e6578697374656e7420746f6b656e000000000000000000000000000000602082015250565b6000615345603183613626565b9150615350826152e9565b604082019050919050565b6000602082019050818103600083015261537481615338565b9050919050565b600081905092915050565b60006153918261361b565b61539b818561537b565b93506153ab818560208601613637565b80840191505092915050565b60006153c38285615386565b91506153cf8284615386565b91508190509392505050565b7f455243313136373a20637265617465206661696c656400000000000000000000600082015250565b6000615411601683613626565b915061541c826153db565b602082019050919050565b6000602082019050818103600083015261544081615404565b9050919050565b600060808201905061545c6000830187613762565b6154696020830186613762565b61547660408301856137f8565b818103606083015261548881846146c5565b905095945050505050565b6000815190506154a28161358c565b92915050565b6000602082840312156154be576154bd613556565b5b60006154cc84828501615493565b91505092915050565b7f4552433732314d657461646174613a2055524920717565727920666f72206e6f60008201527f6e6578697374656e7420746f6b656e0000000000000000000000000000000000602082015250565b6000615531602f83613626565b915061553c826154d5565b604082019050919050565b6000602082019050818103600083015261556081615524565b9050919050565b7f4552433732313a206d696e7420746f20746865207a65726f2061646472657373600082015250565b600061559d602083613626565b91506155a882615567565b602082019050919050565b600060208201905081810360008301526155cc81615590565b9050919050565b7f4552433732313a20746f6b656e20616c7265616479206d696e74656400000000600082015250565b6000615609601c83613626565b9150615614826155d3565b602082019050919050565b60006020820190508181036000830152615638816155fc565b9050919050565b600061564a826136cd565b91507fffffffffffffffffffffffffffffffffffffffffffffffffffffffffffffffff820361567c5761567b61512b565b5b600182019050919050565b6000615692826136cd565b915061569d836136cd565b9250826156ad576156ac6143d4565b5b828204905092915050565b7f4e487b7100000000000000000000000000000000000000000000000000000000600052603160045260246000fdfea2646970667358221220a3489c419d796edbf9ec8d6c0a04d42e844daeedc27ce7b635b7cf279628f11b64736f6c63430008110033",
  "immutableReferences": {},
  "source": "// SPDX-License-Identifier: MIT\npragma solidity ^0.8.7;\n\nimport \"./CosmoCreation.sol\";\nimport \"./ICosmoNuts.sol\";\nimport \"./ICosmoVault.sol\";\nimport \"./ICosmoTreasury.sol\";\n\n/**\n * Main Contract for the NFT tokens.\n * System address resembles the public address of the software application.\n */\n contract CosmoNuts is CosmoCreation, ICosmoNuts {\n\n     using ECDSA for bytes32;\n\n     constructor(\n         string memory _name,\n         string memory _symbol,\n         uint256 _initialNFTSupply,\n         address _systemAddress,\n         address _treasuryAddress,\n         address _vaultImplementation\n     )\n         CosmoCreation(\n             _name,\n             _symbol,\n             _initialNFTSupply,\n             _systemAddress,\n             _treasuryAddress,\n             _vaultImplementation\n         )\n     {\n         ICosmoTreasury(_treasuryAddress).linkCosmo(address(this));\n     }\n\n     function vaultLocation() public view override returns (address) {\n         return creation.vault;\n     }\n\n     function setTokenURI(uint256 _nutId, string memory _nutCID) external virtual override {\n         _setTokenURI(_nutId, _nutCID);\n     }\n\n     function getOwnerOf(uint256 _nutId) public view virtual override returns (address) {\n         return ownerOf(_nutId);\n     }\n\n     function createVault() external virtual override returns (address) {\n         return openVault(address(this));\n     }\n\n     // only system address?\n     function withdraw() public onlyOwner {\n         uint256 balance = address(this).balance;\n         require(address(this).balance > 0 wei, \"No balance to withdraw\");\n         payable(msg.sender).transfer(balance);\n     }\n\n     function newNutMint(address _to, string memory _nutCID) external virtual override returns (uint256) {\n         uint256 nutIndex = totalSupply();\n         _safeMint(_to, nutIndex);\n         _setTokenURI(nutIndex, _nutCID);\n         return nutIndex;\n     }\n\n     /*\n      * Called from CosmoSeed to mint a new Nut\n      */\n      // May need to have address of who to assign to sent\n      /*\n     function createNut(\n         address _caller,\n         string memory _cidPath,\n         bytes memory _signature\n     ) external virtual override returns (uint256) {\n         uint256 mintIndex = totalSupply();\n         _safeMint(_caller, mintIndex);\n\n         ICosmoVault(creation.vault).changeTokenURI(\n             mintIndex, _cidPath, _signature\n         );\n\n         return mintIndex;\n     }\n     */\n\n     /**\n      * Function callable by Nut owner to create a seed which has the potential to turn into a new Nut.\n      * Requires the input of a secretHash and a specified amount of Ether to create.\n      * A required level of matter must be burned which is equal to the amount of seeds you have in Universe\n      * multiplied by the matterRate.\n      */\n     function createSeed(\n         uint256 _nutId,\n         bytes32 _secretHash,\n         string memory _cidPath,\n         bytes memory _signature\n         )\n         public payable returns (address seedLocation) {\n             require(address(msg.sender) == ownerOf(_nutId), \"Caller is not owner of nut\");\n             require(totalSupply() >= creation.initialSupply, \"Nuts still exist from creation\");\n\n             uint256 ethToHold = ICosmoTreasury(creation.treasury).ethToHold(_nutId);\n             require(msg.value >= ethToHold, \"Ether value is not enough\");\n\n             uint256 matterNeeded = ICosmoTreasury(creation.treasury).matterNeeded(_nutId);\n             uint256 matterOfOwner = ICosmoTreasury(creation.treasury).matterOf(msg.sender);\n             require(matterOfOwner >= matterNeeded, \"Matter balance is not enough\");\n\n             ICosmoTreasury(creation.treasury).grantApproval(\n                 msg.sender,\n                 creation.treasury,\n                 matterNeeded\n             );\n\n             ICosmoTreasury(creation.treasury).burnMatterFrom(msg.sender, matterNeeded);\n\n             seedLocation = ICosmoTreasury(creation.treasury).spawnSeed(_nutId, _secretHash);\n             (bool sentToSeed, /*memory data*/) = seedLocation.call{\n                 value: msg.value\n             }(\"\");\n             require(sentToSeed, \"Ether not sent to seed\");\n\n             ICosmoVault(creation.vault).changeTokenURI(\n                 _nutId, _cidPath, _signature\n             );\n\n             return seedLocation;\n     }\n\n     /**\n      * Function callable by Nut owner to create a matter faucet which allows other users to draw matter\n      * Creation requires a secret hash that must be known to suppy matter\n      * Creation requires input of total number of matter in contract and the amount each user can draw at a single time\n      * Drawing any amount of matter results in the creation of new supply of matter\n      * In creating the faucet, the creator replenishes the accounts of other nut holders (tax on system to create message)\n      * Caller will also receive matter if others call on this function\n      */\n     function createButter(\n         uint256 _nutId,\n         bytes32 _secretHash,\n         uint256 _matterContributed,\n         uint256 _matterDrawRate,\n         string memory _cidPath,\n         bytes memory _signature\n     ) public returns (address butterLocation) {\n         require(address(msg.sender) == ownerOf(_nutId), \"Caller is not owner of nut\");\n         require(_matterContributed % _matterDrawRate == 0, \"Draw rate not perfectly divisible by contribution\");\n         uint256 matterOfOwner = ICosmoTreasury(creation.treasury).matterOf(msg.sender);\n         require(matterOfOwner >= _matterContributed, \"Matter owned is less than desired contribution\");\n\n         ICosmoTreasury(creation.treasury).grantApproval(\n             msg.sender,\n             creation.treasury,\n             _matterContributed\n         );\n\n         butterLocation = ICosmoTreasury(creation.treasury).newButter(_nutId, _matterContributed, _matterDrawRate, _secretHash);\n\n         ICosmoVault(creation.vault).changeTokenURI(\n             _nutId, _cidPath, _signature\n         );\n\n         return butterLocation;\n     }\n\n }\n",
  "sourcePath": "/home/redlentils/Seafile/Websites/avatarnft/contracts/CosmoNuts.sol",
  "compiler": {
    "name": "solc",
    "version": "0.8.17+commit.8df45f5f.Emscripten.clang"
  },
  "schemaVersion": "3.4.10",
  "updatedAt": "2022-10-28T14:21:30.731Z",
  "devdoc": {
    "kind": "dev",
    "methods": {
      "approve(address,uint256)": {
        "details": "See {IERC721-approve}."
      },
      "balanceOf(address)": {
        "details": "See {IERC721-balanceOf}."
      },
      "getApproved(uint256)": {
        "details": "See {IERC721-getApproved}."
      },
      "isApprovedForAll(address,address)": {
        "details": "See {IERC721-isApprovedForAll}."
      },
      "name()": {
        "details": "See {IERC721Metadata-name}."
      },
      "owner()": {
        "details": "Returns the address of the current owner."
      },
      "ownerOf(uint256)": {
        "details": "See {IERC721-ownerOf}."
      },
      "renounceOwnership()": {
        "details": "Leaves the contract without owner. It will not be possible to call `onlyOwner` functions anymore. Can only be called by the current owner. NOTE: Renouncing ownership will leave the contract without an owner, thereby removing any functionality that is only available to the owner."
      },
      "safeTransferFrom(address,address,uint256)": {
        "details": "See {IERC721-safeTransferFrom}."
      },
      "safeTransferFrom(address,address,uint256,bytes)": {
        "details": "See {IERC721-safeTransferFrom}."
      },
      "setApprovalForAll(address,bool)": {
        "details": "See {IERC721-setApprovalForAll}."
      },
      "symbol()": {
        "details": "See {IERC721Metadata-symbol}."
      },
      "tokenByIndex(uint256)": {
        "details": "See {IERC721Enumerable-tokenByIndex}."
      },
      "tokenOfOwnerByIndex(address,uint256)": {
        "details": "See {IERC721Enumerable-tokenOfOwnerByIndex}."
      },
      "totalSupply()": {
        "details": "See {IERC721Enumerable-totalSupply}."
      },
      "transferFrom(address,address,uint256)": {
        "details": "See {IERC721-transferFrom}."
      },
      "transferOwnership(address)": {
        "details": "Transfers ownership of the contract to a new account (`newOwner`). Can only be called by the current owner."
      }
    },
    "version": 1
  },
  "userdoc": {
    "kind": "user",
    "methods": {
      "createButter(uint256,bytes32,uint256,uint256,string,bytes)": {
        "notice": "Function callable by Nut owner to create a matter faucet which allows other users to draw matter Creation requires a secret hash that must be known to suppy matter Creation requires input of total number of matter in contract and the amount each user can draw at a single time Drawing any amount of matter results in the creation of new supply of matter In creating the faucet, the creator replenishes the accounts of other nut holders (tax on system to create message) Caller will also receive matter if others call on this function"
      },
      "createSeed(uint256,bytes32,string,bytes)": {
        "notice": "Function callable by Nut owner to create a seed which has the potential to turn into a new Nut. Requires the input of a secretHash and a specified amount of Ether to create. A required level of matter must be burned which is equal to the amount of seeds you have in Universe multiplied by the matterRate."
      }
    },
    "notice": "Main Contract for the NFT tokens. System address resembles the public address of the software application.",
    "version": 1
  }
}