{
  "contractName": "CosmoTreasury",
  "abi": [
    {
      "inputs": [
        {
          "internalType": "address",
          "name": "_matterAddress",
          "type": "address"
        },
        {
          "internalType": "uint256",
          "name": "_matterRate",
          "type": "uint256"
        }
      ],
      "stateMutability": "nonpayable",
      "type": "constructor"
    },
    {
      "inputs": [],
      "name": "MATTER_ADDRESS",
      "outputs": [
        {
          "internalType": "address",
          "name": "",
          "type": "address"
        }
      ],
      "stateMutability": "view",
      "type": "function"
    },
    {
      "inputs": [],
      "name": "MATTER_RATE",
      "outputs": [
        {
          "internalType": "uint256",
          "name": "",
          "type": "uint256"
        }
      ],
      "stateMutability": "view",
      "type": "function"
    },
    {
      "inputs": [],
      "name": "NUT_PRICE",
      "outputs": [
        {
          "internalType": "uint256",
          "name": "",
          "type": "uint256"
        }
      ],
      "stateMutability": "view",
      "type": "function"
    },
    {
      "inputs": [
        {
          "internalType": "uint256",
          "name": "",
          "type": "uint256"
        }
      ],
      "name": "butterChurnedByNut",
      "outputs": [
        {
          "internalType": "uint256",
          "name": "",
          "type": "uint256"
        }
      ],
      "stateMutability": "view",
      "type": "function"
    },
    {
      "inputs": [],
      "name": "butterDeficiencyInUniverse",
      "outputs": [
        {
          "internalType": "uint256",
          "name": "",
          "type": "uint256"
        }
      ],
      "stateMutability": "view",
      "type": "function"
    },
    {
      "inputs": [
        {
          "internalType": "uint256",
          "name": "",
          "type": "uint256"
        }
      ],
      "name": "butterDeficiencyOfNut",
      "outputs": [
        {
          "internalType": "uint256",
          "name": "",
          "type": "uint256"
        }
      ],
      "stateMutability": "view",
      "type": "function"
    },
    {
      "inputs": [],
      "name": "butterJars",
      "outputs": [
        {
          "internalType": "uint256",
          "name": "",
          "type": "uint256"
        }
      ],
      "stateMutability": "view",
      "type": "function"
    },
    {
      "inputs": [
        {
          "internalType": "uint256",
          "name": "",
          "type": "uint256"
        }
      ],
      "name": "butterLocations",
      "outputs": [
        {
          "internalType": "address",
          "name": "",
          "type": "address"
        }
      ],
      "stateMutability": "view",
      "type": "function"
    },
    {
      "inputs": [],
      "name": "butterSpread",
      "outputs": [
        {
          "internalType": "uint256",
          "name": "",
          "type": "uint256"
        }
      ],
      "stateMutability": "view",
      "type": "function"
    },
    {
      "inputs": [],
      "name": "butterWeight",
      "outputs": [
        {
          "internalType": "uint256",
          "name": "",
          "type": "uint256"
        }
      ],
      "stateMutability": "view",
      "type": "function"
    },
    {
      "inputs": [
        {
          "internalType": "uint256",
          "name": "",
          "type": "uint256"
        },
        {
          "internalType": "uint256",
          "name": "",
          "type": "uint256"
        }
      ],
      "name": "buttersOfNut",
      "outputs": [
        {
          "internalType": "uint256",
          "name": "",
          "type": "uint256"
        }
      ],
      "stateMutability": "view",
      "type": "function"
    },
    {
      "inputs": [
        {
          "internalType": "uint256",
          "name": "",
          "type": "uint256"
        }
      ],
      "name": "currentOwnerOfNut",
      "outputs": [
        {
          "internalType": "address",
          "name": "",
          "type": "address"
        }
      ],
      "stateMutability": "view",
      "type": "function"
    },
    {
      "inputs": [
        {
          "internalType": "uint256",
          "name": "",
          "type": "uint256"
        }
      ],
      "name": "isButterActive",
      "outputs": [
        {
          "internalType": "bool",
          "name": "",
          "type": "bool"
        }
      ],
      "stateMutability": "view",
      "type": "function"
    },
    {
      "inputs": [
        {
          "internalType": "uint256",
          "name": "",
          "type": "uint256"
        }
      ],
      "name": "isSeedActive",
      "outputs": [
        {
          "internalType": "bool",
          "name": "",
          "type": "bool"
        }
      ],
      "stateMutability": "view",
      "type": "function"
    },
    {
      "inputs": [
        {
          "internalType": "uint256",
          "name": "",
          "type": "uint256"
        },
        {
          "internalType": "uint256",
          "name": "",
          "type": "uint256"
        }
      ],
      "name": "isSeedOfNut",
      "outputs": [
        {
          "internalType": "bool",
          "name": "",
          "type": "bool"
        }
      ],
      "stateMutability": "view",
      "type": "function"
    },
    {
      "inputs": [
        {
          "internalType": "uint256",
          "name": "",
          "type": "uint256"
        }
      ],
      "name": "matterBalanceOfNut",
      "outputs": [
        {
          "internalType": "uint256",
          "name": "",
          "type": "uint256"
        }
      ],
      "stateMutability": "view",
      "type": "function"
    },
    {
      "inputs": [],
      "name": "matterInTreasury",
      "outputs": [
        {
          "internalType": "uint256",
          "name": "",
          "type": "uint256"
        }
      ],
      "stateMutability": "view",
      "type": "function"
    },
    {
      "inputs": [],
      "name": "matterInUniverse",
      "outputs": [
        {
          "internalType": "uint256",
          "name": "",
          "type": "uint256"
        }
      ],
      "stateMutability": "view",
      "type": "function"
    },
    {
      "inputs": [
        {
          "internalType": "uint256",
          "name": "",
          "type": "uint256"
        }
      ],
      "name": "matterMintedByNut",
      "outputs": [
        {
          "internalType": "uint256",
          "name": "",
          "type": "uint256"
        }
      ],
      "stateMutability": "view",
      "type": "function"
    },
    {
      "inputs": [
        {
          "internalType": "uint256",
          "name": "_nutId",
          "type": "uint256"
        }
      ],
      "name": "numberOfButterJars",
      "outputs": [
        {
          "internalType": "uint256",
          "name": "",
          "type": "uint256"
        }
      ],
      "stateMutability": "view",
      "type": "function"
    },
    {
      "inputs": [
        {
          "internalType": "uint256",
          "name": "",
          "type": "uint256"
        }
      ],
      "name": "nutOfButter",
      "outputs": [
        {
          "internalType": "uint256",
          "name": "",
          "type": "uint256"
        }
      ],
      "stateMutability": "view",
      "type": "function"
    },
    {
      "inputs": [
        {
          "internalType": "uint256",
          "name": "",
          "type": "uint256"
        }
      ],
      "name": "nutOfSeed",
      "outputs": [
        {
          "internalType": "uint256",
          "name": "",
          "type": "uint256"
        }
      ],
      "stateMutability": "view",
      "type": "function"
    },
    {
      "inputs": [
        {
          "internalType": "uint256",
          "name": "",
          "type": "uint256"
        }
      ],
      "name": "nutsPayeeList",
      "outputs": [
        {
          "internalType": "uint256",
          "name": "",
          "type": "uint256"
        }
      ],
      "stateMutability": "view",
      "type": "function"
    },
    {
      "inputs": [
        {
          "internalType": "uint256",
          "name": "",
          "type": "uint256"
        }
      ],
      "name": "seedLocations",
      "outputs": [
        {
          "internalType": "address",
          "name": "",
          "type": "address"
        }
      ],
      "stateMutability": "view",
      "type": "function"
    },
    {
      "inputs": [],
      "name": "seedsCreated",
      "outputs": [
        {
          "internalType": "uint256",
          "name": "",
          "type": "uint256"
        }
      ],
      "stateMutability": "view",
      "type": "function"
    },
    {
      "inputs": [
        {
          "internalType": "uint256",
          "name": "",
          "type": "uint256"
        }
      ],
      "name": "seedsGrownOfNut",
      "outputs": [
        {
          "internalType": "uint256",
          "name": "",
          "type": "uint256"
        }
      ],
      "stateMutability": "view",
      "type": "function"
    },
    {
      "inputs": [
        {
          "internalType": "uint256",
          "name": "",
          "type": "uint256"
        }
      ],
      "name": "seedsOfNut",
      "outputs": [
        {
          "internalType": "uint256",
          "name": "",
          "type": "uint256"
        }
      ],
      "stateMutability": "view",
      "type": "function"
    },
    {
      "inputs": [
        {
          "internalType": "uint256",
          "name": "_nutId",
          "type": "uint256"
        }
      ],
      "name": "calcMatterNeeded",
      "outputs": [
        {
          "internalType": "uint256",
          "name": "",
          "type": "uint256"
        }
      ],
      "stateMutability": "view",
      "type": "function"
    },
    {
      "inputs": [
        {
          "internalType": "uint256",
          "name": "_nutId",
          "type": "uint256"
        },
        {
          "internalType": "bytes32",
          "name": "_secretHash",
          "type": "bytes32"
        }
      ],
      "name": "spawnSeed",
      "outputs": [],
      "stateMutability": "payable",
      "type": "function"
    },
    {
      "inputs": [
        {
          "internalType": "uint256",
          "name": "_seedId",
          "type": "uint256"
        },
        {
          "internalType": "uint256",
          "name": "_matterNeeded",
          "type": "uint256"
        }
      ],
      "name": "growSeedFromNut",
      "outputs": [],
      "stateMutability": "nonpayable",
      "type": "function"
    },
    {
      "inputs": [
        {
          "internalType": "uint256",
          "name": "_nutId",
          "type": "uint256"
        },
        {
          "internalType": "uint256",
          "name": "_matterContributed",
          "type": "uint256"
        },
        {
          "internalType": "uint256",
          "name": "_matterDrawRate",
          "type": "uint256"
        },
        {
          "internalType": "bytes32",
          "name": "_secretHash",
          "type": "bytes32"
        }
      ],
      "name": "newButter",
      "outputs": [],
      "stateMutability": "nonpayable",
      "type": "function"
    },
    {
      "inputs": [
        {
          "internalType": "address",
          "name": "_drawer",
          "type": "address"
        },
        {
          "internalType": "uint256",
          "name": "_butterId",
          "type": "uint256"
        },
        {
          "internalType": "uint256",
          "name": "_balance",
          "type": "uint256"
        },
        {
          "internalType": "uint256",
          "name": "_currentBalance",
          "type": "uint256"
        }
      ],
      "name": "butterDrawn",
      "outputs": [],
      "stateMutability": "nonpayable",
      "type": "function"
    },
    {
      "inputs": [
        {
          "internalType": "address",
          "name": "_tokenOwner",
          "type": "address"
        },
        {
          "internalType": "uint256",
          "name": "_tokenId",
          "type": "uint256"
        }
      ],
      "name": "assignMintBalance",
      "outputs": [],
      "stateMutability": "nonpayable",
      "type": "function"
    }
  ],
  "bytecode": "0x6080604052600080556000600755600060085560006009556000600f553480156200002957600080fd5b5060405162004e5f38038062004e5f83398181016040528101906200004f9190620002e8565b81601260006101000a81548173ffffffffffffffffffffffffffffffffffffffff021916908373ffffffffffffffffffffffffffffffffffffffff16021790555080601481905550601260009054906101000a900473ffffffffffffffffffffffffffffffffffffffff16601a60006101000a81548173ffffffffffffffffffffffffffffffffffffffff021916908373ffffffffffffffffffffffffffffffffffffffff160217905550601a60009054906101000a900473ffffffffffffffffffffffffffffffffffffffff1673ffffffffffffffffffffffffffffffffffffffff166318160ddd6040518163ffffffff1660e01b8152600401602060405180830381865afa15801562000168573d6000803e3d6000fd5b505050506040513d601f19601f820116820180604052508101906200018e91906200032f565b601581905550601a60009054906101000a900473ffffffffffffffffffffffffffffffffffffffff1673ffffffffffffffffffffffffffffffffffffffff166370a08231306040518263ffffffff1660e01b8152600401620001f1919062000372565b602060405180830381865afa1580156200020f573d6000803e3d6000fd5b505050506040513d601f19601f820116820180604052508101906200023591906200032f565b60168190555050506200038f565b600080fd5b600073ffffffffffffffffffffffffffffffffffffffff82169050919050565b6000620002758262000248565b9050919050565b620002878162000268565b81146200029357600080fd5b50565b600081519050620002a7816200027c565b92915050565b6000819050919050565b620002c281620002ad565b8114620002ce57600080fd5b50565b600081519050620002e281620002b7565b92915050565b6000806040838503121562000302576200030162000243565b5b6000620003128582860162000296565b92505060206200032585828601620002d1565b9150509250929050565b60006020828403121562000348576200034762000243565b5b60006200035884828501620002d1565b91505092915050565b6200036c8162000268565b82525050565b600060208201905062000389600083018462000361565b92915050565b614ac0806200039f6000396000f3fe6080604052600436106200021e5760003560e01c806349a6b51f1162000127578063aef054ce11620000af578063ea0f13661162000079578063ea0f1366146200089b578063ea988be814620008df578063f50d4349146200090f578063f6317f8d1462000953578063fe774f9d1462000983576200021e565b8063aef054ce14620007b3578063b8a9736d14620007f7578063d4d810321462000827578063df4f5ccc146200086b576200021e565b8063733b0bca11620000f1578063733b0bca14620006e35780639578d3df14620007115780639cee22b11462000755578063a89092c11462000783576200021e565b806349a6b51f14620005fb5780634ffe5a6f146200062b57806353f97bc8146200066f57806364b1b66314620006b3576200021e565b8063282adc8c11620001ab57806334fc1228116200017557806334fc122814620004ff57806339dc84f414620005435780633c89d09f146200058757806347634e1c14620005b7576200021e565b8063282adc8c14620004035780632c533085146200044757806331ad1b4214620004775780633279bd4f14620004bb576200021e565b80631c85949c11620001ed5780631c85949c146200031d5780631e0b3964146200034b57806323f526c0146200038f57806326342ea414620003d3576200021e565b806302760a48146200022357806303f5de9d1462000267578063171e844114620002955780631821907a14620002d9575b600080fd5b3480156200023057600080fd5b506200024f60048036038101906200024991906200232d565b620009a3565b6040516200025e91906200237c565b60405180910390f35b3480156200027457600080fd5b506200029360048036038101906200028d9190620023d4565b620009c3565b005b348015620002a257600080fd5b50620002c16004803603810190620002bb91906200232d565b6200116d565b604051620002d091906200237c565b60405180910390f35b348015620002e657600080fd5b50620003056004803603810190620002ff91906200232d565b6200118d565b60405162000314919062002457565b60405180910390f35b3480156200032a57600080fd5b50620003496004803603810190620003439190620024d9565b620011a5565b005b3480156200035857600080fd5b5062000377600480360381019062000371919062002520565b620012d2565b60405162000386919062002457565b60405180910390f35b3480156200039c57600080fd5b50620003bb6004803603810190620003b591906200232d565b62001304565b604051620003ca919062002578565b60405180910390f35b348015620003e057600080fd5b50620003eb62001337565b604051620003fa919062002457565b60405180910390f35b3480156200041057600080fd5b506200042f60048036038101906200042991906200232d565b6200133d565b6040516200043e919062002457565b60405180910390f35b3480156200045457600080fd5b506200045f6200135d565b6040516200046e919062002457565b60405180910390f35b3480156200048457600080fd5b50620004a360048036038101906200049d91906200232d565b62001363565b604051620004b2919062002457565b60405180910390f35b348015620004c857600080fd5b50620004e76004803603810190620004e191906200232d565b6200137b565b604051620004f6919062002457565b60405180910390f35b3480156200050c57600080fd5b506200052b60048036038101906200052591906200232d565b62001393565b6040516200053a919062002457565b60405180910390f35b3480156200055057600080fd5b506200056f60048036038101906200056991906200232d565b620013c1565b6040516200057e919062002578565b60405180910390f35b3480156200059457600080fd5b506200059f620013f4565b604051620005ae919062002457565b60405180910390f35b348015620005c457600080fd5b50620005e36004803603810190620005dd91906200232d565b620013fa565b604051620005f2919062002457565b60405180910390f35b3480156200060857600080fd5b506200061362001412565b60405162000622919062002457565b60405180910390f35b3480156200063857600080fd5b506200065760048036038101906200065191906200232d565b62001418565b60405162000666919062002457565b60405180910390f35b3480156200067c57600080fd5b506200069b600480360381019062000695919062002520565b62001430565b604051620006aa91906200237c565b60405180910390f35b348015620006c057600080fd5b50620006cb6200145f565b604051620006da919062002578565b60405180910390f35b348015620006f057600080fd5b506200070f600480360381019062000709919062002520565b62001485565b005b3480156200071e57600080fd5b506200073d60048036038101906200073791906200232d565b620018d8565b6040516200074c919062002457565b60405180910390f35b3480156200076257600080fd5b506200078160048036038101906200077b919062002595565b620018fd565b005b3480156200079057600080fd5b506200079b62001b8a565b604051620007aa919062002457565b60405180910390f35b348015620007c057600080fd5b50620007df6004803603810190620007d991906200232d565b62001b90565b604051620007ee919062002578565b60405180910390f35b3480156200080457600080fd5b506200080f62001bc3565b6040516200081e919062002457565b60405180910390f35b3480156200083457600080fd5b506200085360048036038101906200084d91906200232d565b62001bc9565b60405162000862919062002457565b60405180910390f35b3480156200087857600080fd5b506200088362001be1565b60405162000892919062002457565b60405180910390f35b348015620008a857600080fd5b50620008c76004803603810190620008c191906200232d565b62001be7565b604051620008d6919062002457565b60405180910390f35b348015620008ec57600080fd5b50620008f762001bff565b60405162000906919062002457565b60405180910390f35b3480156200091c57600080fd5b506200093b60048036038101906200093591906200232d565b62001c05565b6040516200094a919062002457565b60405180910390f35b3480156200096057600080fd5b506200096b62001c1d565b6040516200097a919062002457565b60405180910390f35b620009a160048036038101906200099b919062002607565b62001c23565b005b60116020528060005260406000206000915054906101000a900460ff1681565b60006017600086815260200190815260200160002060009054906101000a900473ffffffffffffffffffffffffffffffffffffffff1690503373ffffffffffffffffffffffffffffffffffffffff168173ffffffffffffffffffffffffffffffffffffffff161462000a6c576040517f08c379a000000000000000000000000000000000000000000000000000000000815260040162000a6390620026af565b60405180910390fd5b836018600087815260200190815260200160002054101562000ac5576040517f08c379a000000000000000000000000000000000000000000000000000000000815260040162000abc9062002721565b60405180910390fd5b601a60009054906101000a900473ffffffffffffffffffffffffffffffffffffffff1673ffffffffffffffffffffffffffffffffffffffff166370a08231826040518263ffffffff1660e01b815260040162000b22919062002578565b602060405180830381865afa15801562000b40573d6000803e3d6000fd5b505050506040513d601f19601f8201168201806040525081019062000b6691906200275a565b84111562000bab576040517f08c379a000000000000000000000000000000000000000000000000000000000815260040162000ba290620027dc565b60405180910390fd5b6000838562000bbb91906200282d565b1462000bfe576040517f08c379a000000000000000000000000000000000000000000000000000000000815260040162000bf590620028b5565b60405180910390fd5b60006002600087815260200190815260200160002054111562000c8c5783600f600082825462000c2f919062002906565b925050819055508360106000878152602001908152602001600020600082825462000c5b919062002906565b9250508190555060198590806001815401808255809150506001900390600052602060002001600090919091909150555b601a60009054906101000a900473ffffffffffffffffffffffffffffffffffffffff1673ffffffffffffffffffffffffffffffffffffffff166370a08231306040518263ffffffff1660e01b815260040162000ce9919062002578565b602060405180830381865afa15801562000d07573d6000803e3d6000fd5b505050506040513d601f19601f8201168201806040525081019062000d2d91906200275a565b601681905550600060165411156200106657600062000d51601654600f5462001efa565b90506000805b82811462000fbb57600060198054905090506000810362000d79575062000fbb565b8082111562000d8757600092505b60006019848154811062000da05762000d9f62002941565b5b9060005260206000200154905060006017600083815260200190815260200160002060009054906101000a900473ffffffffffffffffffffffffffffffffffffffff1690506000601454600260008581526020019081526020016000205462000e0a919062002970565b90508060186000858152602001908152602001600020540362000e52576019868154811062000e3e5762000e3d62002941565b5b906000526020600020016000905562000f91565b601a60009054906101000a900473ffffffffffffffffffffffffffffffffffffffff1673ffffffffffffffffffffffffffffffffffffffff1663a9059cbb8360016040518363ffffffff1660e01b815260040162000eb292919062002a08565b6020604051808303816000875af115801562000ed2573d6000803e3d6000fd5b505050506040513d601f19601f8201168201806040525081019062000ef8919062002a66565b5060198390806001815401808255809150506001900390600052602060002001600090919091909150556019868154811062000f395762000f3862002941565b5b90600052602060002001600090556001600f600082825462000f5c919062002a98565b92505081905550600160106000858152602001908152602001600020600082825462000f89919062002a98565b925050819055505b858062000f9e9062002ad3565b96505050505050808062000fb29062002ad3565b91505062000d57565b50601a60009054906101000a900473ffffffffffffffffffffffffffffffffffffffff1673ffffffffffffffffffffffffffffffffffffffff166370a08231306040518263ffffffff1660e01b815260040162001019919062002578565b602060405180830381865afa15801562001037573d6000803e3d6000fd5b505050506040513d601f19601f820116820180604052508101906200105d91906200275a565b60168190555050505b600060095486868630876040516200107e90620022d1565b6200108f9695949392919062002b31565b604051809103906000f080158015620010ac573d6000803e3d6000fd5b509050601a60009054906101000a900473ffffffffffffffffffffffffffffffffffffffff1673ffffffffffffffffffffffffffffffffffffffff1663a9059cbb82876040518363ffffffff1660e01b81526004016200110e92919062002b9e565b6020604051808303816000875af11580156200112e573d6000803e3d6000fd5b505050506040513d601f19601f8201168201806040525081019062001154919062002a66565b506200116586600954838862001f15565b505050505050565b60066020528060005260406000206000915054906101000a900460ff1681565b600d6020528060005260406000206000915090505481565b6014546016541015620011ef576040517f08c379a0000000000000000000000000000000000000000000000000000000008152600401620011e69062002c1b565b60405180910390fd5b601a60009054906101000a900473ffffffffffffffffffffffffffffffffffffffff1673ffffffffffffffffffffffffffffffffffffffff1663a9059cbb836014546040518363ffffffff1660e01b81526004016200125092919062002b9e565b6020604051808303816000875af115801562001270573d6000803e3d6000fd5b505050506040513d601f19601f8201168201806040525081019062001296919062002a66565b50601454601860008381526020019081526020016000208190555060145460166000828254620012c7919062002a98565b925050819055505050565b600a6020528160005260406000208181548110620012ef57600080fd5b90600052602060002001600091509150505481565b60056020528060005260406000206000915054906101000a900473ffffffffffffffffffffffffffffffffffffffff1681565b60095481565b6000600a6000838152602001908152602001600020805490509050919050565b60145481565b60016020528060005260406000206000915090505481565b600c6020528060005260406000206000915090505481565b6000600180600084815260200190815260200160002054620013b6919062002906565b601454189050919050565b60176020528060005260406000206000915054906101000a900473ffffffffffffffffffffffffffffffffffffffff1681565b60155481565b600e6020528060005260406000206000915090505481565b60085481565b60106020528060005260406000206000915090505481565b60046020528160005260406000206020528060005260406000206000915091509054906101000a900460ff1681565b601260009054906101000a900473ffffffffffffffffffffffffffffffffffffffff1681565b60006005600084815260200190815260200160002060009054906101000a900473ffffffffffffffffffffffffffffffffffffffff1690508073ffffffffffffffffffffffffffffffffffffffff163373ffffffffffffffffffffffffffffffffffffffff16146200152e576040517f08c379a0000000000000000000000000000000000000000000000000000000008152600401620015259062002cb3565b60405180910390fd5b60008190506000601760008373ffffffffffffffffffffffffffffffffffffffff1663685771f46040518163ffffffff1660e01b8152600401602060405180830381865afa15801562001585573d6000803e3d6000fd5b505050506040513d601f19601f82011682018060405250810190620015ab91906200275a565b815260200190815260200160002060009054906101000a900473ffffffffffffffffffffffffffffffffffffffff169050601a60009054906101000a900473ffffffffffffffffffffffffffffffffffffffff1673ffffffffffffffffffffffffffffffffffffffff1663a9059cbb82866040518363ffffffff1660e01b81526004016200163b92919062002b9e565b6020604051808303816000875af11580156200165b573d6000803e3d6000fd5b505050506040513d601f19601f8201168201806040525081019062001681919062002a66565b50601a60009054906101000a900473ffffffffffffffffffffffffffffffffffffffff1673ffffffffffffffffffffffffffffffffffffffff16634bbc1bcd3060016040518363ffffffff1660e01b8152600401620016e292919062002a08565b600060405180830381600087803b158015620016fd57600080fd5b505af115801562001712573d6000803e3d6000fd5b505050508173ffffffffffffffffffffffffffffffffffffffff166326b2c77c826040518263ffffffff1660e01b815260040162001751919062002578565b600060405180830381600087803b1580156200176c57600080fd5b505af115801562001781573d6000803e3d6000fd5b50505050601a60009054906101000a900473ffffffffffffffffffffffffffffffffffffffff1673ffffffffffffffffffffffffffffffffffffffff166318160ddd6040518163ffffffff1660e01b8152600401602060405180830381865afa158015620017f3573d6000803e3d6000fd5b505050506040513d601f19601f820116820180604052508101906200181991906200275a565b601581905550601a60009054906101000a900473ffffffffffffffffffffffffffffffffffffffff1673ffffffffffffffffffffffffffffffffffffffff166370a08231306040518263ffffffff1660e01b81526004016200187c919062002578565b602060405180830381865afa1580156200189a573d6000803e3d6000fd5b505050506040513d601f19601f82011682018060405250810190620018c091906200275a565b601681905550620018d1856200204e565b5050505050565b60198181548110620018e957600080fd5b906000526020600020016000915090505481565b601a60009054906101000a900473ffffffffffffffffffffffffffffffffffffffff1673ffffffffffffffffffffffffffffffffffffffff1663a9059cbb85846040518363ffffffff1660e01b81526004016200195c92919062002b9e565b6020604051808303816000875af11580156200197c573d6000803e3d6000fd5b505050506040513d601f19601f82011682018060405250810190620019a2919062002a66565b50601a60009054906101000a900473ffffffffffffffffffffffffffffffffffffffff1673ffffffffffffffffffffffffffffffffffffffff16634bbc1bcd30846040518363ffffffff1660e01b815260040162001a0292919062002b9e565b600060405180830381600087803b15801562001a1d57600080fd5b505af115801562001a32573d6000803e3d6000fd5b5050505062001a43838383620020ef565b601a60009054906101000a900473ffffffffffffffffffffffffffffffffffffffff1673ffffffffffffffffffffffffffffffffffffffff166318160ddd6040518163ffffffff1660e01b8152600401602060405180830381865afa15801562001ab1573d6000803e3d6000fd5b505050506040513d601f19601f8201168201806040525081019062001ad791906200275a565b601581905550601a60009054906101000a900473ffffffffffffffffffffffffffffffffffffffff1673ffffffffffffffffffffffffffffffffffffffff166370a08231306040518263ffffffff1660e01b815260040162001b3a919062002578565b602060405180830381865afa15801562001b58573d6000803e3d6000fd5b505050506040513d601f19601f8201168201806040525081019062001b7e91906200275a565b60168190555050505050565b60165481565b600b6020528060005260406000206000915054906101000a900473ffffffffffffffffffffffffffffffffffffffff1681565b60135481565b60036020528060005260406000206000915090505481565b600f5481565b60026020528060005260406000206000915090505481565b60005481565b60186020528060005260406000206000915090505481565b60075481565b60006001600260008581526020019081526020016000205462001c47919062002906565b6013541890508034101562001c93576040517f08c379a000000000000000000000000000000000000000000000000000000000815260040162001c8a9062002d25565b60405180910390fd5b600062001ca08462001393565b90506000601a60009054906101000a900473ffffffffffffffffffffffffffffffffffffffff1673ffffffffffffffffffffffffffffffffffffffff166370a082316017600088815260200190815260200160002060009054906101000a900473ffffffffffffffffffffffffffffffffffffffff166040518263ffffffff1660e01b815260040162001d34919062002578565b602060405180830381865afa15801562001d52573d6000803e3d6000fd5b505050506040513d601f19601f8201168201806040525081019062001d7891906200275a565b90508181101562001dc0576040517f08c379a000000000000000000000000000000000000000000000000000000000815260040162001db79062002d97565b60405180910390fd5b6000805486308760405162001dd590620022df565b62001de4949392919062002db9565b604051809103906000f08015801562001e01573d6000803e3d6000fd5b509050600081905062001e188760005483620021b2565b601a60009054906101000a900473ffffffffffffffffffffffffffffffffffffffff1673ffffffffffffffffffffffffffffffffffffffff166342966c68856040518263ffffffff1660e01b815260040162001e75919062002457565b600060405180830381600087803b15801562001e9057600080fd5b505af115801562001ea5573d6000803e3d6000fd5b505050508073ffffffffffffffffffffffffffffffffffffffff166108fc349081150290604051600060405180830381858888f1935050505015801562001ef0573d6000803e3d6000fd5b5050505050505050565b600081831062001f0b578162001f0d565b825b905092915050565b60016009600082825462001f2a919062002906565b92505081905550806007600082825462001f45919062002906565b92505081905550600a600085815260200190815260200160002083908060018154018082558091505060019003906000526020600020016000909190919091505580600d6000868152602001908152602001600020600082825462001fab919062002906565b9250508190555081600b600086815260200190815260200160002060006101000a81548173ffffffffffffffffffffffffffffffffffffffff021916908373ffffffffffffffffffffffffffffffffffffffff16021790555060016011600086815260200190815260200160002060006101000a81548160ff02191690831515021790555083600e60008581526020019081526020016000208190555050505050565b600060036000838152602001908152602001600020549050600180600083815260200190815260200160002060008282546200208b919062002a98565b925050819055506001600260008381526020019081526020016000206000828254620020b8919062002906565b9250508190555060006006600083815260200190815260200160002060006101000a81548160ff0219169083151502179055505050565b816007600082825462002103919062002a98565b9250508190555081600860008282546200211e919062002906565b925050819055506000600e600085815260200190815260200160002054905082600c6000838152602001908152602001600020600082825462002162919062002906565b925050819055506000838362002179919062002a98565b03620021ac5760006011600086815260200190815260200160002060006101000a81548160ff0219169083151502179055505b50505050565b82600360008481526020019081526020016000208190555060018060008581526020019081526020016000206000828254620021ef919062002906565b92505081905550600160046000848152602001908152602001600020600085815260200190815260200160002060006101000a81548160ff021916908315150217905550806005600084815260200190815260200160002060006101000a81548173ffffffffffffffffffffffffffffffffffffffff021916908373ffffffffffffffffffffffffffffffffffffffff160217905550600160008082825462002299919062002906565b9250508190555060016006600085815260200190815260200160002060006101000a81548160ff021916908315150217905550505050565b610d218062002e0783390190565b610f638062003b2883390190565b600080fd5b6000819050919050565b6200230781620022f2565b81146200231357600080fd5b50565b6000813590506200232781620022fc565b92915050565b600060208284031215620023465762002345620022ed565b5b6000620023568482850162002316565b91505092915050565b60008115159050919050565b62002376816200235f565b82525050565b60006020820190506200239360008301846200236b565b92915050565b6000819050919050565b620023ae8162002399565b8114620023ba57600080fd5b50565b600081359050620023ce81620023a3565b92915050565b60008060008060808587031215620023f157620023f0620022ed565b5b6000620024018782880162002316565b9450506020620024148782880162002316565b9350506040620024278782880162002316565b92505060606200243a87828801620023bd565b91505092959194509250565b6200245181620022f2565b82525050565b60006020820190506200246e600083018462002446565b92915050565b600073ffffffffffffffffffffffffffffffffffffffff82169050919050565b6000620024a18262002474565b9050919050565b620024b38162002494565b8114620024bf57600080fd5b50565b600081359050620024d381620024a8565b92915050565b60008060408385031215620024f357620024f2620022ed565b5b60006200250385828601620024c2565b9250506020620025168582860162002316565b9150509250929050565b600080604083850312156200253a5762002539620022ed565b5b60006200254a8582860162002316565b92505060206200255d8582860162002316565b9150509250929050565b620025728162002494565b82525050565b60006020820190506200258f600083018462002567565b92915050565b60008060008060808587031215620025b257620025b1620022ed565b5b6000620025c287828801620024c2565b9450506020620025d58782880162002316565b9350506040620025e88782880162002316565b9250506060620025fb8782880162002316565b91505092959194509250565b60008060408385031215620026215762002620620022ed565b5b6000620026318582860162002316565b92505060206200264485828601620023bd565b9150509250929050565b600082825260208201905092915050565b7f43616c6c6572206973206e6f7420746865206f776e6572000000000000000000600082015250565b6000620026976017836200264e565b9150620026a4826200265f565b602082019050919050565b60006020820190508181036000830152620026ca8162002688565b9050919050565b7f4e6f74206861766520656e6f756768206d617474657200000000000000000000600082015250565b6000620027096016836200264e565b91506200271682620026d1565b602082019050919050565b600060208201905081810360008301526200273c81620026fa565b9050919050565b6000815190506200275481620022fc565b92915050565b600060208284031215620027735762002772620022ed565b5b6000620027838482850162002743565b91505092915050565b7f4e6f74206869676820656e6f7567680000000000000000000000000000000000600082015250565b6000620027c4600f836200264e565b9150620027d1826200278c565b602082019050919050565b60006020820190508181036000830152620027f781620027b5565b9050919050565b7f4e487b7100000000000000000000000000000000000000000000000000000000600052601260045260246000fd5b60006200283a82620022f2565b91506200284783620022f2565b9250826200285a5762002859620027fe565b5b828206905092915050565b7f447261772072617465206e6f7420646976697369626c65000000000000000000600082015250565b60006200289d6017836200264e565b9150620028aa8262002865565b602082019050919050565b60006020820190508181036000830152620028d0816200288e565b9050919050565b7f4e487b7100000000000000000000000000000000000000000000000000000000600052601160045260246000fd5b60006200291382620022f2565b91506200292083620022f2565b92508282019050808211156200293b576200293a620028d7565b5b92915050565b7f4e487b7100000000000000000000000000000000000000000000000000000000600052603260045260246000fd5b60006200297d82620022f2565b91506200298a83620022f2565b92508282026200299a81620022f2565b91508282048414831517620029b457620029b3620028d7565b5b5092915050565b6000819050919050565b6000819050919050565b6000620029f0620029ea620029e484620029bb565b620029c5565b620022f2565b9050919050565b62002a0281620029cf565b82525050565b600060408201905062002a1f600083018562002567565b62002a2e6020830184620029f7565b9392505050565b62002a40816200235f565b811462002a4c57600080fd5b50565b60008151905062002a608162002a35565b92915050565b60006020828403121562002a7f5762002a7e620022ed565b5b600062002a8f8482850162002a4f565b91505092915050565b600062002aa582620022f2565b915062002ab283620022f2565b925082820390508181111562002acd5762002acc620028d7565b5b92915050565b600062002ae082620022f2565b91507fffffffffffffffffffffffffffffffffffffffffffffffffffffffffffffffff820362002b155762002b14620028d7565b5b600182019050919050565b62002b2b8162002399565b82525050565b600060c08201905062002b48600083018962002446565b62002b57602083018862002446565b62002b66604083018762002446565b62002b75606083018662002446565b62002b84608083018562002567565b62002b9360a083018462002b20565b979650505050505050565b600060408201905062002bb5600083018562002567565b62002bc4602083018462002446565b9392505050565b7f4e6f7420656e6f756768206d6174746572000000000000000000000000000000600082015250565b600062002c036011836200264e565b915062002c108262002bcb565b602082019050919050565b6000602082019050818103600083015262002c368162002bf4565b9050919050565b7f43616c6c6572206973206e6f742074686520726967687420436f736d6f53656560008201527f6420636f6e747261637400000000000000000000000000000000000000000000602082015250565b600062002c9b602a836200264e565b915062002ca88262002c3d565b604082019050919050565b6000602082019050818103600083015262002cce8162002c8c565b9050919050565b7f45746865722076616c7565206973206e6f7420656e6f75676800000000000000600082015250565b600062002d0d6019836200264e565b915062002d1a8262002cd5565b602082019050919050565b6000602082019050818103600083015262002d408162002cfe565b9050919050565b7f4d61747465722062616c616e6365206973206e6f7420656e6f75676800000000600082015250565b600062002d7f601c836200264e565b915062002d8c8262002d47565b602082019050919050565b6000602082019050818103600083015262002db28162002d70565b9050919050565b600060808201905062002dd0600083018762002446565b62002ddf602083018662002446565b62002dee604083018562002567565b62002dfd606083018462002b20565b9594505050505056fe60806040523480156200001157600080fd5b5060405162000d2138038062000d21833981810160405281019062000037919062000283565b85600080018190555084600060010181905550836000600201819055508260006003018190555030600060040160006101000a81548173ffffffffffffffffffffffffffffffffffffffff021916908373ffffffffffffffffffffffffffffffffffffffff16021790555033600060050160006101000a81548173ffffffffffffffffffffffffffffffffffffffff021916908373ffffffffffffffffffffffffffffffffffffffff16021790555080600060060181905550600060050160009054906101000a900473ffffffffffffffffffffffffffffffffffffffff16600860006101000a81548173ffffffffffffffffffffffffffffffffffffffff021916908373ffffffffffffffffffffffffffffffffffffffff16021790555081600960006101000a81548173ffffffffffffffffffffffffffffffffffffffff021916908373ffffffffffffffffffffffffffffffffffffffff1602179055505050505050506200031f565b600080fd5b6000819050919050565b620001bd81620001a8565b8114620001c957600080fd5b50565b600081519050620001dd81620001b2565b92915050565b600073ffffffffffffffffffffffffffffffffffffffff82169050919050565b60006200021082620001e3565b9050919050565b620002228162000203565b81146200022e57600080fd5b50565b600081519050620002428162000217565b92915050565b6000819050919050565b6200025d8162000248565b81146200026957600080fd5b50565b6000815190506200027d8162000252565b92915050565b60008060008060008060c08789031215620002a357620002a2620001a3565b5b6000620002b389828a01620001cc565b9650506020620002c689828a01620001cc565b9550506040620002d989828a01620001cc565b9450506060620002ec89828a01620001cc565b9350506080620002ff89828a0162000231565b92505060a06200031289828a016200026c565b9150509295509295509295565b6109f2806200032f6000396000f3fe608060405234801561001057600080fd5b506004361061002b5760003560e01c806327ac1b6514610030575b600080fd5b61004a60048036038101906100459190610563565b61004c565b005b60011515600060070160003373ffffffffffffffffffffffffffffffffffffffff1673ffffffffffffffffffffffffffffffffffffffff16815260200190815260200160002060009054906101000a900460ff161515036100e2576040517f08c379a00000000000000000000000000000000000000000000000000000000081526004016100d990610667565b60405180910390fd5b6000806002015411610129576040517f08c379a0000000000000000000000000000000000000000000000000000000008152600401610120906106d3565b60405180910390fd5b610132836102eb565b50600960009054906101000a900473ffffffffffffffffffffffffffffffffffffffff1673ffffffffffffffffffffffffffffffffffffffff16639cee22b13360008001546000600301546000600201546040518563ffffffff1660e01b81526004016101a2949392919061074d565b600060405180830381600087803b1580156101bc57600080fd5b505af11580156101d0573d6000803e3d6000fd5b50505050600060030154600060020160008282546101ee91906107c1565b925050819055506001600060070160003373ffffffffffffffffffffffffffffffffffffffff1673ffffffffffffffffffffffffffffffffffffffff16815260200190815260200160002060006101000a81548160ff021916908315150217905550600860009054906101000a900473ffffffffffffffffffffffffffffffffffffffff1673ffffffffffffffffffffffffffffffffffffffff16639202c1ec60006001015484846040518463ffffffff1660e01b81526004016102b4939291906108b8565b600060405180830381600087803b1580156102ce57600080fd5b505af11580156102e2573d6000803e3d6000fd5b50505050505050565b600080826040516020016102ff9190610939565b604051602081830303815290604052805190602001209050600060060154811461035e576040517f08c379a00000000000000000000000000000000000000000000000000000000081526004016103559061099c565b60405180910390fd5b6001915050919050565b6000604051905090565b600080fd5b600080fd5b600080fd5b600080fd5b6000601f19601f8301169050919050565b7f4e487b7100000000000000000000000000000000000000000000000000000000600052604160045260246000fd5b6103cf82610386565b810181811067ffffffffffffffff821117156103ee576103ed610397565b5b80604052505050565b6000610401610368565b905061040d82826103c6565b919050565b600067ffffffffffffffff82111561042d5761042c610397565b5b61043682610386565b9050602081019050919050565b82818337600083830152505050565b600061046561046084610412565b6103f7565b90508281526020810184848401111561048157610480610381565b5b61048c848285610443565b509392505050565b600082601f8301126104a9576104a861037c565b5b81356104b9848260208601610452565b91505092915050565b600067ffffffffffffffff8211156104dd576104dc610397565b5b6104e682610386565b9050602081019050919050565b6000610506610501846104c2565b6103f7565b90508281526020810184848401111561052257610521610381565b5b61052d848285610443565b509392505050565b600082601f83011261054a5761054961037c565b5b813561055a8482602086016104f3565b91505092915050565b60008060006060848603121561057c5761057b610372565b5b600084013567ffffffffffffffff81111561059a57610599610377565b5b6105a686828701610494565b935050602084013567ffffffffffffffff8111156105c7576105c6610377565b5b6105d386828701610494565b925050604084013567ffffffffffffffff8111156105f4576105f3610377565b5b61060086828701610535565b9150509250925092565b600082825260208201905092915050565b7f43616e206f6e6c792064726177206f6e63650000000000000000000000000000600082015250565b600061065160128361060a565b915061065c8261061b565b602082019050919050565b6000602082019050818103600083015261068081610644565b9050919050565b7f4e6f2062757474657220746f2064726177000000000000000000000000000000600082015250565b60006106bd60118361060a565b91506106c882610687565b602082019050919050565b600060208201905081810360008301526106ec816106b0565b9050919050565b600073ffffffffffffffffffffffffffffffffffffffff82169050919050565b600061071e826106f3565b9050919050565b61072e81610713565b82525050565b6000819050919050565b61074781610734565b82525050565b60006080820190506107626000830187610725565b61076f602083018661073e565b61077c604083018561073e565b610789606083018461073e565b95945050505050565b7f4e487b7100000000000000000000000000000000000000000000000000000000600052601160045260246000fd5b60006107cc82610734565b91506107d783610734565b92508282039050818111156107ef576107ee610792565b5b92915050565b600081519050919050565b60005b8381101561081e578082015181840152602081019050610803565b60008484015250505050565b6000610835826107f5565b61083f818561060a565b935061084f818560208601610800565b61085881610386565b840191505092915050565b600081519050919050565b600082825260208201905092915050565b600061088a82610863565b610894818561086e565b93506108a4818560208601610800565b6108ad81610386565b840191505092915050565b60006060820190506108cd600083018661073e565b81810360208301526108df818561082a565b905081810360408301526108f3818461087f565b9050949350505050565b600081905092915050565b6000610913826107f5565b61091d81856108fd565b935061092d818560208601610800565b80840191505092915050565b60006109458284610908565b915081905092915050565b7f496e70757420646f6573206e6f74206d61746368207365637265740000000000600082015250565b6000610986601b8361060a565b915061099182610950565b602082019050919050565b600060208201905081810360008301526109b581610979565b905091905056fea26469706673582212202d8ef1b1c1ed5a9115a5d07401f3f0972b05fef41a34ce751049708cf13f959c64736f6c63430008110033608060405260405162000f6338038062000f638339818101604052810190620000299190620002f4565b600033905080600760006101000a81548173ffffffffffffffffffffffffffffffffffffffff021916908373ffffffffffffffffffffffffffffffffffffffff16021790555082600860006101000a81548173ffffffffffffffffffffffffffffffffffffffff021916908373ffffffffffffffffffffffffffffffffffffffff1602179055508460008001819055508360006001018190555034600060020181905550600860009054906101000a900473ffffffffffffffffffffffffffffffffffffffff1673ffffffffffffffffffffffffffffffffffffffff166334fc1228856040518263ffffffff1660e01b81526004016200012a919062000377565b602060405180830381865afa15801562000148573d6000803e3d6000fd5b505050506040513d601f19601f820116820180604052508101906200016e919062000394565b60006003018190555030600060040160006101000a81548173ffffffffffffffffffffffffffffffffffffffff021916908373ffffffffffffffffffffffffffffffffffffffff16021790555080600060050160006101000a81548173ffffffffffffffffffffffffffffffffffffffff021916908373ffffffffffffffffffffffffffffffffffffffff160217905550816000600601819055505050505050620003c6565b600080fd5b6000819050919050565b6200022e8162000219565b81146200023a57600080fd5b50565b6000815190506200024e8162000223565b92915050565b600073ffffffffffffffffffffffffffffffffffffffff82169050919050565b6000620002818262000254565b9050919050565b620002938162000274565b81146200029f57600080fd5b50565b600081519050620002b38162000288565b92915050565b6000819050919050565b620002ce81620002b9565b8114620002da57600080fd5b50565b600081519050620002ee81620002c3565b92915050565b6000806000806080858703121562000311576200031062000214565b5b600062000321878288016200023d565b945050602062000334878288016200023d565b93505060406200034787828801620002a2565b92505060606200035a87828801620002dd565b91505092959194509250565b620003718162000219565b82525050565b60006020820190506200038e600083018462000366565b92915050565b600060208284031215620003ad57620003ac62000214565b5b6000620003bd848285016200023d565b91505092915050565b610b8d80620003d66000396000f3fe60806040526004361061004a5760003560e01c806326b2c77c1461004f578063685771f41461006b5780637d94792a14610096578063956c2dc3146100c7578063c5d12c97146100f0575b600080fd5b61006960048036038101906100649190610522565b61011b565b005b34801561007757600080fd5b50610080610275565b60405161008d9190610568565b60405180910390f35b3480156100a257600080fd5b506100ab610281565b6040516100be97969594939291906105ab565b60405180910390f35b3480156100d357600080fd5b506100ee60048036038101906100e99190610801565b6102f1565b005b3480156100fc57600080fd5b50610105610427565b6040516101129190610568565b60405180910390f35b6000600860009054906101000a900473ffffffffffffffffffffffffffffffffffffffff1673ffffffffffffffffffffffffffffffffffffffff1663b8a9736d6040518163ffffffff1660e01b8152600401602060405180830381865afa15801561018a573d6000803e3d6000fd5b505050506040513d601f19601f820116820180604052508101906101ae91906108d4565b9050600081346101be9190610930565b9050600860009054906101000a900473ffffffffffffffffffffffffffffffffffffffff1673ffffffffffffffffffffffffffffffffffffffff166108fc839081150290604051600060405180830381858888f19350505050158015610228573d6000803e3d6000fd5b508273ffffffffffffffffffffffffffffffffffffffff166108fc829081150290604051600060405180830381858888f1935050505015801561026f573d6000803e3d6000fd5b50505050565b60008060010154905090565b60008060000154908060010154908060020154908060030154908060040160009054906101000a900473ffffffffffffffffffffffffffffffffffffffff16908060050160009054906101000a900473ffffffffffffffffffffffffffffffffffffffff16908060060154905087565b6102fa83610433565b50600860009054906101000a900473ffffffffffffffffffffffffffffffffffffffff1673ffffffffffffffffffffffffffffffffffffffff1663733b0bca60008001546000600301546040518363ffffffff1660e01b8152600401610361929190610964565b600060405180830381600087803b15801561037b57600080fd5b505af115801561038f573d6000803e3d6000fd5b50505050600760009054906101000a900473ffffffffffffffffffffffffffffffffffffffff1673ffffffffffffffffffffffffffffffffffffffff1663a0e12efe83836040518363ffffffff1660e01b81526004016103f0929190610a61565b600060405180830381600087803b15801561040a57600080fd5b505af115801561041e573d6000803e3d6000fd5b50505050505050565b60008060030154905090565b600080826040516020016104479190610ad4565b60405160208183030381529060405280519060200120905060006006015481146104a6576040517f08c379a000000000000000000000000000000000000000000000000000000000815260040161049d90610b37565b60405180910390fd5b6001915050919050565b6000604051905090565b600080fd5b600080fd5b600073ffffffffffffffffffffffffffffffffffffffff82169050919050565b60006104ef826104c4565b9050919050565b6104ff816104e4565b811461050a57600080fd5b50565b60008135905061051c816104f6565b92915050565b600060208284031215610538576105376104ba565b5b60006105468482850161050d565b91505092915050565b6000819050919050565b6105628161054f565b82525050565b600060208201905061057d6000830184610559565b92915050565b61058c816104e4565b82525050565b6000819050919050565b6105a581610592565b82525050565b600060e0820190506105c0600083018a610559565b6105cd6020830189610559565b6105da6040830188610559565b6105e76060830187610559565b6105f46080830186610583565b61060160a0830185610583565b61060e60c083018461059c565b98975050505050505050565b600080fd5b600080fd5b6000601f19601f8301169050919050565b7f4e487b7100000000000000000000000000000000000000000000000000000000600052604160045260246000fd5b61066d82610624565b810181811067ffffffffffffffff8211171561068c5761068b610635565b5b80604052505050565b600061069f6104b0565b90506106ab8282610664565b919050565b600067ffffffffffffffff8211156106cb576106ca610635565b5b6106d482610624565b9050602081019050919050565b82818337600083830152505050565b60006107036106fe846106b0565b610695565b90508281526020810184848401111561071f5761071e61061f565b5b61072a8482856106e1565b509392505050565b600082601f8301126107475761074661061a565b5b81356107578482602086016106f0565b91505092915050565b600067ffffffffffffffff82111561077b5761077a610635565b5b61078482610624565b9050602081019050919050565b60006107a461079f84610760565b610695565b9050828152602081018484840111156107c0576107bf61061f565b5b6107cb8482856106e1565b509392505050565b600082601f8301126107e8576107e761061a565b5b81356107f8848260208601610791565b91505092915050565b60008060006060848603121561081a576108196104ba565b5b600084013567ffffffffffffffff811115610838576108376104bf565b5b61084486828701610732565b935050602084013567ffffffffffffffff811115610865576108646104bf565b5b61087186828701610732565b925050604084013567ffffffffffffffff811115610892576108916104bf565b5b61089e868287016107d3565b9150509250925092565b6108b18161054f565b81146108bc57600080fd5b50565b6000815190506108ce816108a8565b92915050565b6000602082840312156108ea576108e96104ba565b5b60006108f8848285016108bf565b91505092915050565b7f4e487b7100000000000000000000000000000000000000000000000000000000600052601160045260246000fd5b600061093b8261054f565b91506109468361054f565b925082820390508181111561095e5761095d610901565b5b92915050565b60006040820190506109796000830185610559565b6109866020830184610559565b9392505050565b600081519050919050565b600082825260208201905092915050565b60005b838110156109c75780820151818401526020810190506109ac565b60008484015250505050565b60006109de8261098d565b6109e88185610998565b93506109f88185602086016109a9565b610a0181610624565b840191505092915050565b600081519050919050565b600082825260208201905092915050565b6000610a3382610a0c565b610a3d8185610a17565b9350610a4d8185602086016109a9565b610a5681610624565b840191505092915050565b60006040820190508181036000830152610a7b81856109d3565b90508181036020830152610a8f8184610a28565b90509392505050565b600081905092915050565b6000610aae8261098d565b610ab88185610a98565b9350610ac88185602086016109a9565b80840191505092915050565b6000610ae08284610aa3565b915081905092915050565b7f496e70757420646f6573206e6f74206d61746368207365637265740000000000600082015250565b6000610b21601b83610998565b9150610b2c82610aeb565b602082019050919050565b60006020820190508181036000830152610b5081610b14565b905091905056fea264697066735822122096c3ae346d28c1282bf94a44b1d1af4a4e4f9884bd3156d953eb788331e04cb564736f6c63430008110033a26469706673582212200dac245e272b5f90537a366edaf7ae59220ca0d92d536c701bad811da76a9ef964736f6c63430008110033",
  "immutableReferences": {},
  "source": "// SPDX-License-Identifier: MIT\npragma solidity ^0.8.7;\n\nimport \"openzeppelin-solidity/contracts/utils/math/Math.sol\";\nimport \"./CosmoMatter.sol\";\nimport \"./CosmoSeed.sol\";\nimport \"./CosmoButter.sol\";\n\nimport \"./SeedAccounts.sol\";\nimport \"./ButterAccounts.sol\";\n\n/**\n * @dev Manages the matter balance of the CosmoNuts collection and handles interaction with the\n * ERC20 Token to mint, burn, and allocate balances\n * Acts as storage for the ERC 721 tokens on their created Seed and Butter contracts.\n */\n contract CosmoTreasury is SeedAccounts, ButterAccounts {\n\n    /**\n     * @dev Saved addresses include the contract which created the Treasury: UNIVERSE_ADDRESS, and\n     * the address of the CosmoNuts contract (NFTs) which is created after the Treasury and then updated: matter_ADDRESS.\n     */\n    address public MATTER_ADDRESS;\n    uint256 public NUT_PRICE;\n    uint256 public MATTER_RATE;\n\n    /**\n     * @dev matterInUniverse is the Treasury's own account of the current ERC20 token supply available in Universe.\n     * matterInTreasury is the balanceOf ERC20 tokens that are assigned to the Treasury address and controlled by this contract.\n     * MATTER_RATE is the amount of matter it takes to create one NFT (used in calculating pricing) - set to 100\n     */\n    uint256 public matterInUniverse;\n    uint256 public matterInTreasury;\n\n    mapping(uint256 => address) public currentOwnerOfNut; // Record of current nut owners by address\n    mapping(uint256 => uint256) public matterBalanceOfNut; // Matter balance of each Nut recorded by the Treasury\n\n    uint256[] public nutsPayeeList; // List of nuts to be provided a balance\n\n    CosmoMatter matter;\n\n    /**\n     *\n     */\n    constructor(address _matterAddress, uint256 _matterRate) {\n        MATTER_ADDRESS = _matterAddress;\n        MATTER_RATE = _matterRate;\n        matter = CosmoMatter(MATTER_ADDRESS);\n        matterInUniverse = matter.totalSupply();\n        matterInTreasury = matter.balanceOf(address(this));\n    }\n\n    /*\n    modifier onlyUniverse {\n        require(address(msg.sender) == UNIVERSE_ADDRESS, \"Caller is not Universe\");\n        _;\n    }\n    */\n\n    /*\n    function updateCosmosAddress(address _matterAddressNew) external onlyUniverse {\n        MATTER_ADDRESS = _matterAddressNew;\n    }\n    */\n\n    //function updateNutPrice(uint256 _setNutPrice) external onlyUniverse {\n    //    NUT_PRICE = _setNutPrice;\n    //}\n\n    function calcMatterNeeded(uint256 _nutId) public view returns (uint256) {\n        return MATTER_RATE ^ (seedsOfNut[_nutId] + 1);\n    }\n\n    function spawnSeed(uint256 _nutId, bytes32 _secretHash) external payable {\n        uint256 ethToHold = NUT_PRICE ^ (seedsGrownOfNut[_nutId] + 1);\n        require(msg.value >= ethToHold, \"Ether value is not enough\");\n\n        uint256 matterToBurn = calcMatterNeeded(_nutId);\n        uint256 matterOfOwner = matter.balanceOf((currentOwnerOfNut[_nutId]));\n        require(matterOfOwner >= matterToBurn, \"Matter balance is not enough\");\n\n        CosmoSeed cosmoseed = new CosmoSeed(\n            seedsCreated, _nutId, address(this), _secretHash\n        );\n        address seedLocation = address(cosmoseed);\n        integrateSeed(_nutId, seedsCreated, seedLocation);\n\n        matter.burn(matterToBurn);\n        payable(seedLocation).transfer(msg.value);\n    }\n\n    /**\n     * Called from CosmoSeed contract.\n     */\n    function growSeedFromNut(uint256 _seedId, uint256 _matterNeeded) external {\n        address seedAddress = seedLocations[_seedId];\n        require(address(msg.sender) == seedAddress, \"Caller is not the right CosmoSeed contract\");\n        //require(matter.balanceOf(address(msg.sender)) >= _matterNeeded, \"Not enough matter\");\n\n        CosmoSeed cosmoseed = CosmoSeed(seedAddress);\n\n        address nutOwner = currentOwnerOfNut[cosmoseed.nutId()];\n        matter.transfer(nutOwner, _matterNeeded);\n        matter.mintMatter(address(this), 1);\n\n        cosmoseed.degradeSeed(nutOwner);\n\n        matterInUniverse = matter.totalSupply();\n        matterInTreasury = matter.balanceOf(address(this));\n\n        growSeed(_seedId);\n\n    }\n\n    /**\n     * Creating new butter means the creation of a contract where other users can withdraw matter from.\n     * Need to contribute butter (which can only be done if you have a Nut with the desired level of matter to give away.\n     * A secret message is provided in hash form and checked for verification to withdraw funds.\n     */\n    function newButter(uint256 _nutId, uint256 _matterContributed, uint256 _matterDrawRate, bytes32 _secretHash) external {\n        address nutOwner = currentOwnerOfNut[_nutId];\n        // Do we need to be doing these checks twice? Or really new check that caller is from contract (? or person who clicked?)\n        require(nutOwner == address(msg.sender), \"Caller is not the owner\");\n        require(matterBalanceOfNut[_nutId] >= _matterContributed, \"Not have enough matter\");\n        require(_matterContributed <= matter.balanceOf(nutOwner), \"Not high enough\");\n        require(_matterContributed % _matterDrawRate == 0, \"Draw rate not divisible\");\n\n        /**\n         * A nut must have already grown a seed to start being counted as part of the deficiency list.\n         */\n        if (seedsGrownOfNut[_nutId] > 0) {\n            butterDeficiencyInUniverse += _matterContributed;\n            butterDeficiencyOfNut[_nutId] += _matterContributed;\n            nutsPayeeList.push(_nutId);\n        }\n\n        /**\n         * The Treasury wants to distribute its available balance to the nutsPayeeList.\n         * It will distribute the minimum of either its available balance or the deficiency in the Universe.\n         * All payees are awarded one matter and moved to the end of the list.\n         * When their maximum available balance is reached, they are removed from the payee list.\n         */\n        matterInTreasury = matter.balanceOf(address(this));\n        if (matterInTreasury > 0) {\n            uint256 toDistribute = Math.min(matterInTreasury, butterDeficiencyInUniverse);\n\n            uint256 index = 0;\n            for (uint j = 0; j != toDistribute; j++) {\n                uint256 allPayees = nutsPayeeList.length;\n                if (allPayees == 0) {\n                    break;\n                }\n\n                if (j > allPayees) {\n                    index = 0;\n                }\n\n                uint256 nutPayeeId = nutsPayeeList[index];\n                address nutOwnerPayee = currentOwnerOfNut[nutPayeeId];\n                uint256 maxMatter = seedsGrownOfNut[nutPayeeId] * MATTER_RATE;\n                if (matterBalanceOfNut[nutPayeeId] == maxMatter) {\n                    delete nutsPayeeList[index];\n                } else {\n                    matter.transfer(nutOwnerPayee, 1);\n                    nutsPayeeList.push(nutPayeeId);\n                    delete nutsPayeeList[index];\n\n                    butterDeficiencyInUniverse -= 1;\n                    butterDeficiencyOfNut[nutPayeeId] -= 1;\n                }\n\n                index++;\n           }\n           matterInTreasury = matter.balanceOf(address(this));\n        }\n\n        CosmoButter butter = new CosmoButter(\n            butterJars, _nutId, _matterContributed, _matterDrawRate, address(this), _secretHash\n        );\n        matter.transfer(address(butter), _matterContributed);\n        churnButter(_nutId, butterJars, address(butter), _matterContributed);\n\n    }\n\n    /**\n     * Runs from CosmoButter contract when someone requests to draw matter.\n     */\n    function butterDrawn(address _drawer, uint256 _butterId, uint256 _balance, uint256 _currentBalance) external {\n        matter.transfer(_drawer, _balance);\n        matter.mintMatter(address(this), _balance);\n        distributeButter(_butterId, _balance, _currentBalance);\n\n        matterInUniverse = matter.totalSupply();\n        matterInTreasury = matter.balanceOf(address(this));\n    }\n\n    function assignMintBalance(address _tokenOwner, uint256 _tokenId) external {\n        require(matterInTreasury >= MATTER_RATE, \"Not enough matter\");\n        matter.transfer(_tokenOwner, MATTER_RATE);\n        matterBalanceOfNut[_tokenId] = MATTER_RATE;\n        matterInTreasury -= MATTER_RATE;\n    }\n\n}\n",
  "sourcePath": "/home/redlentils/Seafile/Websites/avatarnft/contracts/CosmoTreasury.sol",
  "compiler": {
    "name": "solc",
    "version": "0.8.17+commit.8df45f5f.Emscripten.clang"
  },
  "schemaVersion": "3.4.10",
  "updatedAt": "2022-10-04T18:24:40.639Z",
  "devdoc": {
    "details": "Manages the matter balance of the CosmoNuts collection and handles interaction with the ERC20 Token to mint, burn, and allocate balances Acts as storage for the ERC 721 tokens on their created Seed and Butter contracts.",
    "kind": "dev",
    "methods": {},
    "stateVariables": {
      "MATTER_ADDRESS": {
        "details": "Saved addresses include the contract which created the Treasury: UNIVERSE_ADDRESS, and the address of the CosmoNuts contract (NFTs) which is created after the Treasury and then updated: matter_ADDRESS."
      },
      "matterInUniverse": {
        "details": "matterInUniverse is the Treasury's own account of the current ERC20 token supply available in Universe. matterInTreasury is the balanceOf ERC20 tokens that are assigned to the Treasury address and controlled by this contract. MATTER_RATE is the amount of matter it takes to create one NFT (used in calculating pricing) - set to 100"
      }
    },
    "version": 1
  },
  "userdoc": {
    "kind": "user",
    "methods": {
      "butterDrawn(address,uint256,uint256,uint256)": {
        "notice": "Runs from CosmoButter contract when someone requests to draw matter."
      },
      "butterWeight()": {
        "notice": "butterWeight is the amount of matter in the universe thta is currently outstanding. butterSpread is the amount of matter that has been distributed from butterWeight, thus reducing its value. butterJams represent the total number of matter contracts created in the Universe."
      },
      "buttersOfNut(uint256,uint256)": {
        "notice": "buttersOfNut represents a list of all butter contracts created byt that nut. butterLocations represents the address of contract identifed by butterId."
      },
      "growSeedFromNut(uint256,uint256)": {
        "notice": "Called from CosmoSeed contract."
      },
      "newButter(uint256,uint256,uint256,bytes32)": {
        "notice": "Creating new butter means the creation of a contract where other users can withdraw matter from. Need to contribute butter (which can only be done if you have a Nut with the desired level of matter to give away. A secret message is provided in hash form and checked for verification to withdraw funds."
      }
    },
    "version": 1
  }
}