{
  "contractName": "CosmoTreasury",
  "abi": [
    {
      "inputs": [
        {
          "internalType": "address",
          "name": "_systemAddress",
          "type": "address"
        },
        {
          "internalType": "address",
          "name": "_matterAddress",
          "type": "address"
        }
      ],
      "stateMutability": "nonpayable",
      "type": "constructor"
    },
    {
      "inputs": [],
      "name": "addressOf",
      "outputs": [
        {
          "internalType": "address",
          "name": "system",
          "type": "address"
        },
        {
          "internalType": "address",
          "name": "matter",
          "type": "address"
        },
        {
          "internalType": "address",
          "name": "treasury",
          "type": "address"
        },
        {
          "internalType": "address",
          "name": "cosmos",
          "type": "address"
        }
      ],
      "stateMutability": "view",
      "type": "function"
    },
    {
      "inputs": [
        {
          "internalType": "uint256",
          "name": "",
          "type": "uint256"
        }
      ],
      "name": "butterChurnedByNut",
      "outputs": [
        {
          "internalType": "uint256",
          "name": "",
          "type": "uint256"
        }
      ],
      "stateMutability": "view",
      "type": "function"
    },
    {
      "inputs": [],
      "name": "butterDeficiencyInUniverse",
      "outputs": [
        {
          "internalType": "uint256",
          "name": "",
          "type": "uint256"
        }
      ],
      "stateMutability": "view",
      "type": "function"
    },
    {
      "inputs": [
        {
          "internalType": "uint256",
          "name": "",
          "type": "uint256"
        }
      ],
      "name": "butterDeficiencyOfNut",
      "outputs": [
        {
          "internalType": "uint256",
          "name": "",
          "type": "uint256"
        }
      ],
      "stateMutability": "view",
      "type": "function"
    },
    {
      "inputs": [],
      "name": "butterJars",
      "outputs": [
        {
          "internalType": "uint256",
          "name": "",
          "type": "uint256"
        }
      ],
      "stateMutability": "view",
      "type": "function"
    },
    {
      "inputs": [
        {
          "internalType": "uint256",
          "name": "",
          "type": "uint256"
        }
      ],
      "name": "butterLocations",
      "outputs": [
        {
          "internalType": "address",
          "name": "",
          "type": "address"
        }
      ],
      "stateMutability": "view",
      "type": "function"
    },
    {
      "inputs": [],
      "name": "butterSpread",
      "outputs": [
        {
          "internalType": "uint256",
          "name": "",
          "type": "uint256"
        }
      ],
      "stateMutability": "view",
      "type": "function"
    },
    {
      "inputs": [],
      "name": "butterWeight",
      "outputs": [
        {
          "internalType": "uint256",
          "name": "",
          "type": "uint256"
        }
      ],
      "stateMutability": "view",
      "type": "function"
    },
    {
      "inputs": [
        {
          "internalType": "uint256",
          "name": "",
          "type": "uint256"
        },
        {
          "internalType": "uint256",
          "name": "",
          "type": "uint256"
        }
      ],
      "name": "buttersOfNut",
      "outputs": [
        {
          "internalType": "uint256",
          "name": "",
          "type": "uint256"
        }
      ],
      "stateMutability": "view",
      "type": "function"
    },
    {
      "inputs": [
        {
          "internalType": "uint256",
          "name": "",
          "type": "uint256"
        }
      ],
      "name": "currentOwnerOfNut",
      "outputs": [
        {
          "internalType": "address",
          "name": "",
          "type": "address"
        }
      ],
      "stateMutability": "view",
      "type": "function"
    },
    {
      "inputs": [
        {
          "internalType": "uint256",
          "name": "",
          "type": "uint256"
        }
      ],
      "name": "isButterActive",
      "outputs": [
        {
          "internalType": "bool",
          "name": "",
          "type": "bool"
        }
      ],
      "stateMutability": "view",
      "type": "function"
    },
    {
      "inputs": [
        {
          "internalType": "uint256",
          "name": "",
          "type": "uint256"
        }
      ],
      "name": "isSeedActive",
      "outputs": [
        {
          "internalType": "bool",
          "name": "",
          "type": "bool"
        }
      ],
      "stateMutability": "view",
      "type": "function"
    },
    {
      "inputs": [
        {
          "internalType": "uint256",
          "name": "",
          "type": "uint256"
        },
        {
          "internalType": "uint256",
          "name": "",
          "type": "uint256"
        }
      ],
      "name": "isSeedOfNut",
      "outputs": [
        {
          "internalType": "bool",
          "name": "",
          "type": "bool"
        }
      ],
      "stateMutability": "view",
      "type": "function"
    },
    {
      "inputs": [
        {
          "internalType": "uint256",
          "name": "",
          "type": "uint256"
        }
      ],
      "name": "matterBalanceOfNut",
      "outputs": [
        {
          "internalType": "uint256",
          "name": "",
          "type": "uint256"
        }
      ],
      "stateMutability": "view",
      "type": "function"
    },
    {
      "inputs": [
        {
          "internalType": "uint256",
          "name": "",
          "type": "uint256"
        }
      ],
      "name": "matterMintedByNut",
      "outputs": [
        {
          "internalType": "uint256",
          "name": "",
          "type": "uint256"
        }
      ],
      "stateMutability": "view",
      "type": "function"
    },
    {
      "inputs": [
        {
          "internalType": "uint256",
          "name": "_nutId",
          "type": "uint256"
        }
      ],
      "name": "numOfSeedsGrownOf",
      "outputs": [
        {
          "internalType": "uint256",
          "name": "",
          "type": "uint256"
        }
      ],
      "stateMutability": "view",
      "type": "function"
    },
    {
      "inputs": [
        {
          "internalType": "uint256",
          "name": "_nutId",
          "type": "uint256"
        }
      ],
      "name": "numOfSeedsOf",
      "outputs": [
        {
          "internalType": "uint256",
          "name": "",
          "type": "uint256"
        }
      ],
      "stateMutability": "view",
      "type": "function"
    },
    {
      "inputs": [
        {
          "internalType": "uint256",
          "name": "_nutId",
          "type": "uint256"
        }
      ],
      "name": "numberOfButterJars",
      "outputs": [
        {
          "internalType": "uint256",
          "name": "",
          "type": "uint256"
        }
      ],
      "stateMutability": "view",
      "type": "function"
    },
    {
      "inputs": [],
      "name": "nut",
      "outputs": [
        {
          "internalType": "uint256",
          "name": "price",
          "type": "uint256"
        },
        {
          "internalType": "uint256",
          "name": "rate",
          "type": "uint256"
        }
      ],
      "stateMutability": "view",
      "type": "function"
    },
    {
      "inputs": [
        {
          "internalType": "uint256",
          "name": "",
          "type": "uint256"
        }
      ],
      "name": "nutOfButter",
      "outputs": [
        {
          "internalType": "uint256",
          "name": "",
          "type": "uint256"
        }
      ],
      "stateMutability": "view",
      "type": "function"
    },
    {
      "inputs": [
        {
          "internalType": "uint256",
          "name": "",
          "type": "uint256"
        }
      ],
      "name": "nutOfSeed",
      "outputs": [
        {
          "internalType": "uint256",
          "name": "",
          "type": "uint256"
        }
      ],
      "stateMutability": "view",
      "type": "function"
    },
    {
      "inputs": [
        {
          "internalType": "uint256",
          "name": "",
          "type": "uint256"
        }
      ],
      "name": "nutsPayeeList",
      "outputs": [
        {
          "internalType": "uint256",
          "name": "",
          "type": "uint256"
        }
      ],
      "stateMutability": "view",
      "type": "function"
    },
    {
      "inputs": [
        {
          "internalType": "uint256",
          "name": "",
          "type": "uint256"
        }
      ],
      "name": "seedLocations",
      "outputs": [
        {
          "internalType": "address",
          "name": "",
          "type": "address"
        }
      ],
      "stateMutability": "view",
      "type": "function"
    },
    {
      "inputs": [],
      "name": "seedsCreated",
      "outputs": [
        {
          "internalType": "uint256",
          "name": "",
          "type": "uint256"
        }
      ],
      "stateMutability": "view",
      "type": "function"
    },
    {
      "inputs": [
        {
          "internalType": "uint256",
          "name": "",
          "type": "uint256"
        },
        {
          "internalType": "uint256",
          "name": "",
          "type": "uint256"
        }
      ],
      "name": "seedsGrownOfNut",
      "outputs": [
        {
          "internalType": "uint256",
          "name": "",
          "type": "uint256"
        }
      ],
      "stateMutability": "view",
      "type": "function"
    },
    {
      "inputs": [
        {
          "internalType": "uint256",
          "name": "",
          "type": "uint256"
        },
        {
          "internalType": "uint256",
          "name": "",
          "type": "uint256"
        }
      ],
      "name": "seedsOfNut",
      "outputs": [
        {
          "internalType": "uint256",
          "name": "",
          "type": "uint256"
        }
      ],
      "stateMutability": "view",
      "type": "function"
    },
    {
      "inputs": [
        {
          "internalType": "uint256",
          "name": "_nutId",
          "type": "uint256"
        }
      ],
      "name": "matterNeeded",
      "outputs": [
        {
          "internalType": "uint256",
          "name": "",
          "type": "uint256"
        }
      ],
      "stateMutability": "view",
      "type": "function"
    },
    {
      "inputs": [
        {
          "internalType": "uint256",
          "name": "_nutId",
          "type": "uint256"
        },
        {
          "internalType": "bytes32",
          "name": "_secretHash",
          "type": "bytes32"
        }
      ],
      "name": "spawnSeed",
      "outputs": [],
      "stateMutability": "payable",
      "type": "function"
    },
    {
      "inputs": [
        {
          "internalType": "uint256",
          "name": "_seedId",
          "type": "uint256"
        },
        {
          "internalType": "uint256",
          "name": "_matterNeeded",
          "type": "uint256"
        }
      ],
      "name": "seedFromNut",
      "outputs": [],
      "stateMutability": "nonpayable",
      "type": "function"
    },
    {
      "inputs": [
        {
          "internalType": "uint256",
          "name": "_nutId",
          "type": "uint256"
        },
        {
          "internalType": "uint256",
          "name": "_matterContributed",
          "type": "uint256"
        },
        {
          "internalType": "uint256",
          "name": "_matterDrawRate",
          "type": "uint256"
        },
        {
          "internalType": "bytes32",
          "name": "_secretHash",
          "type": "bytes32"
        }
      ],
      "name": "newButter",
      "outputs": [],
      "stateMutability": "nonpayable",
      "type": "function"
    },
    {
      "inputs": [
        {
          "internalType": "address",
          "name": "_drawer",
          "type": "address"
        },
        {
          "internalType": "uint256",
          "name": "_butterId",
          "type": "uint256"
        },
        {
          "internalType": "uint256",
          "name": "_balance",
          "type": "uint256"
        },
        {
          "internalType": "uint256",
          "name": "_currentBalance",
          "type": "uint256"
        }
      ],
      "name": "butterDrawn",
      "outputs": [],
      "stateMutability": "nonpayable",
      "type": "function"
    },
    {
      "inputs": [
        {
          "internalType": "address",
          "name": "_tokenOwner",
          "type": "address"
        },
        {
          "internalType": "uint256",
          "name": "_tokenId",
          "type": "uint256"
        }
      ],
      "name": "assignMintBalance",
      "outputs": [],
      "stateMutability": "nonpayable",
      "type": "function"
    }
  ],
  "bytecode": "0x6080604052600080556000600755600060085560006009556000600f553480156200002957600080fd5b5060405162004d9538038062004d9583398181016040528101906200004f91906200018d565b81601260000160006101000a81548173ffffffffffffffffffffffffffffffffffffffff021916908373ffffffffffffffffffffffffffffffffffffffff16021790555080601260010160006101000a81548173ffffffffffffffffffffffffffffffffffffffff021916908373ffffffffffffffffffffffffffffffffffffffff16021790555030601260020160006101000a81548173ffffffffffffffffffffffffffffffffffffffff021916908373ffffffffffffffffffffffffffffffffffffffff1602179055505050620001d4565b600080fd5b600073ffffffffffffffffffffffffffffffffffffffff82169050919050565b6000620001558262000128565b9050919050565b620001678162000148565b81146200017357600080fd5b50565b60008151905062000187816200015c565b92915050565b60008060408385031215620001a757620001a662000123565b5b6000620001b78582860162000176565b9250506020620001ca8582860162000176565b9150509250929050565b614bb180620001e46000396000f3fe608060405260043610620002125760003560e01c80634ffe5a6f116200011b578063a83851b911620000a3578063ea988be8116200006d578063ea988be814620008cf578063f50d434914620008ff578063f6317f8d1462000943578063fe774f9d14620009735762000212565b8063a83851b914620007e4578063aef054ce1462000817578063d4d81032146200085b578063df4f5ccc146200089f5762000212565b80639578d3df11620000e55780639578d3df14620007005780639975a8a214620007445780639cee22b11462000788578063a06fc90b14620007b65762000212565b80634ffe5a6f14620005f057806353f97bc814620006345780636b651a2c14620006785780638ed3df0f14620006bc5762000212565b806323f526c0116200019f57806339dc84f4116200016957806339dc84f414620004f45780633c8023ad146200053857806347634e1c146200057c57806349a6b51f14620005c05762000212565b806323f526c014620003f857806326342ea4146200043c578063282adc8c146200046c5780633279bd4f14620004b05762000212565b8063171e844111620001e1578063171e844114620002fe5780631821907a14620003425780631c85949c14620003865780631e0b396414620003b45762000212565b806302760a48146200021757806303f5de9d146200025b5780631298896e146200028957806315d3b7a014620002cd575b600080fd5b3480156200022457600080fd5b506200024360048036038101906200023d919062002122565b62000993565b60405162000252919062002171565b60405180910390f35b3480156200026857600080fd5b50620002876004803603810190620002819190620021c9565b620009b3565b005b3480156200029657600080fd5b50620002b56004803603810190620002af91906200223b565b62001135565b604051620002c4919062002293565b60405180910390f35b348015620002da57600080fd5b50620002e562001167565b604051620002f5929190620022b0565b60405180910390f35b3480156200030b57600080fd5b506200032a600480360381019062000324919062002122565b62001179565b60405162000339919062002171565b60405180910390f35b3480156200034f57600080fd5b506200036e600480360381019062000368919062002122565b62001199565b6040516200037d919062002293565b60405180910390f35b3480156200039357600080fd5b50620003b26004803603810190620003ac919062002342565b620011b1565b005b348015620003c157600080fd5b50620003e06004803603810190620003da91906200223b565b62001374565b604051620003ef919062002293565b60405180910390f35b3480156200040557600080fd5b506200042460048036038101906200041e919062002122565b620013a6565b6040516200043391906200239a565b60405180910390f35b3480156200044957600080fd5b5062000454620013d9565b60405162000463919062002293565b60405180910390f35b3480156200047957600080fd5b5062000498600480360381019062000492919062002122565b620013df565b604051620004a7919062002293565b60405180910390f35b348015620004bd57600080fd5b50620004dc6004803603810190620004d6919062002122565b620013ff565b604051620004eb919062002293565b60405180910390f35b3480156200050157600080fd5b506200052060048036038101906200051a919062002122565b62001417565b6040516200052f91906200239a565b60405180910390f35b3480156200054557600080fd5b506200056460048036038101906200055e91906200223b565b6200144a565b60405162000573919062002293565b60405180910390f35b3480156200058957600080fd5b50620005a86004803603810190620005a2919062002122565b6200147c565b604051620005b7919062002293565b60405180910390f35b348015620005cd57600080fd5b50620005d862001494565b604051620005e7919062002293565b60405180910390f35b348015620005fd57600080fd5b506200061c600480360381019062000616919062002122565b6200149a565b6040516200062b919062002293565b60405180910390f35b3480156200064157600080fd5b506200066060048036038101906200065a91906200223b565b620014b2565b6040516200066f919062002171565b60405180910390f35b3480156200068557600080fd5b50620006a460048036038101906200069e919062002122565b620014e1565b604051620006b3919062002293565b60405180910390f35b348015620006c957600080fd5b50620006e86004803603810190620006e2919062002122565b62001501565b604051620006f7919062002293565b60405180910390f35b3480156200070d57600080fd5b506200072c600480360381019062000726919062002122565b6200151c565b6040516200073b919062002293565b60405180910390f35b3480156200075157600080fd5b506200077060048036038101906200076a919062002122565b62001541565b6040516200077f919062002293565b60405180910390f35b3480156200079557600080fd5b50620007b46004803603810190620007ae9190620023b7565b62001561565b005b348015620007c357600080fd5b50620007e26004803603810190620007dc91906200223b565b62001694565b005b348015620007f157600080fd5b50620007fc62001943565b6040516200080e949392919062002429565b60405180910390f35b3480156200082457600080fd5b506200084360048036038101906200083d919062002122565b620019e1565b6040516200085291906200239a565b60405180910390f35b3480156200086857600080fd5b5062000887600480360381019062000881919062002122565b62001a14565b60405162000896919062002293565b60405180910390f35b348015620008ac57600080fd5b50620008b762001a2c565b604051620008c6919062002293565b60405180910390f35b348015620008dc57600080fd5b50620008e762001a32565b604051620008f6919062002293565b60405180910390f35b3480156200090c57600080fd5b506200092b600480360381019062000925919062002122565b62001a38565b6040516200093a919062002293565b60405180910390f35b3480156200095057600080fd5b506200095b62001a50565b6040516200096a919062002293565b60405180910390f35b6200099160048036038101906200098b919062002476565b62001a56565b005b60116020528060005260406000206000915054906101000a900460ff1681565b60006018600086815260200190815260200160002060009054906101000a900473ffffffffffffffffffffffffffffffffffffffff1690503373ffffffffffffffffffffffffffffffffffffffff168173ffffffffffffffffffffffffffffffffffffffff161462000a5c576040517f08c379a000000000000000000000000000000000000000000000000000000000815260040162000a53906200251e565b60405180910390fd5b836019600087815260200190815260200160002054101562000ab5576040517f08c379a000000000000000000000000000000000000000000000000000000000815260040162000aac9062002590565b60405180910390fd5b6000601260010160009054906101000a900473ffffffffffffffffffffffffffffffffffffffff1690508073ffffffffffffffffffffffffffffffffffffffff166370a08231836040518263ffffffff1660e01b815260040162000b1a91906200239a565b602060405180830381865afa15801562000b38573d6000803e3d6000fd5b505050506040513d601f19601f8201168201806040525081019062000b5e9190620025c9565b85111562000ba3576040517f08c379a000000000000000000000000000000000000000000000000000000000815260040162000b9a906200264b565b60405180910390fd5b6000848662000bb391906200269c565b1462000bf6576040517f08c379a000000000000000000000000000000000000000000000000000000000815260040162000bed9062002724565b60405180910390fd5b600062000c0387620014e1565b111562000c7b5784600f600082825462000c1e919062002775565b925050819055508460106000888152602001908152602001600020600082825462000c4a919062002775565b92505081905550601a8690806001815401808255809150506001900390600052602060002001600090919091909150555b60008173ffffffffffffffffffffffffffffffffffffffff166370a08231601260020160009054906101000a900473ffffffffffffffffffffffffffffffffffffffff166040518263ffffffff1660e01b815260040162000cdd91906200239a565b602060405180830381865afa15801562000cfb573d6000803e3d6000fd5b505050506040513d601f19601f8201168201806040525081019062000d219190620025c9565b905060008111156200102957600062000d3d82600f5462001d00565b90506000805b82811462000f7f576000601a8054905090506000810362000d65575062000f7f565b8082111562000d7357600092505b6000601a848154811062000d8c5762000d8b620027b0565b5b9060005260206000200154905060006018600083815260200190815260200160002060009054906101000a900473ffffffffffffffffffffffffffffffffffffffff169050600060166001015462000de484620014e1565b62000df09190620027df565b90508060196000858152602001908152602001600020540362000e3857601a868154811062000e245762000e23620027b0565b5b906000526020600020016000905562000f55565b8873ffffffffffffffffffffffffffffffffffffffff1663a9059cbb8360016040518363ffffffff1660e01b815260040162000e7692919062002877565b6020604051808303816000875af115801562000e96573d6000803e3d6000fd5b505050506040513d601f19601f8201168201806040525081019062000ebc9190620028d5565b50601a839080600181540180825580915050600190039060005260206000200160009091909190915055601a868154811062000efd5762000efc620027b0565b5b90600052602060002001600090556001600f600082825462000f20919062002907565b92505081905550600160106000858152602001908152602001600020600082825462000f4d919062002907565b925050819055505b858062000f629062002942565b96505050505050808062000f769062002942565b91505062000d43565b508373ffffffffffffffffffffffffffffffffffffffff166370a08231601260020160009054906101000a900473ffffffffffffffffffffffffffffffffffffffff166040518263ffffffff1660e01b815260040162000fe091906200239a565b602060405180830381865afa15801562000ffe573d6000803e3d6000fd5b505050506040513d601f19601f82011682018060405250810190620010249190620025c9565b925050505b6000600954888888601260020160009054906101000a900473ffffffffffffffffffffffffffffffffffffffff16896040516200106690620020c6565b6200107796959493929190620029a0565b604051809103906000f08015801562001094573d6000803e3d6000fd5b5090508273ffffffffffffffffffffffffffffffffffffffff1663a9059cbb82896040518363ffffffff1660e01b8152600401620010d492919062002a0d565b6020604051808303816000875af1158015620010f4573d6000803e3d6000fd5b505050506040513d601f19601f820116820180604052508101906200111a9190620028d5565b506200112b88600954838a62001d1b565b5050505050505050565b600260205281600052604060002081815481106200115257600080fd5b90600052602060002001600091509150505481565b60168060000154908060010154905082565b60066020528060005260406000206000915054906101000a900460ff1681565b600d6020528060005260406000206000915090505481565b6000601260010160009054906101000a900473ffffffffffffffffffffffffffffffffffffffff1690506016600101548173ffffffffffffffffffffffffffffffffffffffff166370a08231601260020160009054906101000a900473ffffffffffffffffffffffffffffffffffffffff166040518263ffffffff1660e01b81526004016200124191906200239a565b602060405180830381865afa1580156200125f573d6000803e3d6000fd5b505050506040513d601f19601f82011682018060405250810190620012859190620025c9565b1015620012c9576040517f08c379a0000000000000000000000000000000000000000000000000000000008152600401620012c09062002a8a565b60405180910390fd5b8073ffffffffffffffffffffffffffffffffffffffff1663a9059cbb846016600101546040518363ffffffff1660e01b81526004016200130b92919062002a0d565b6020604051808303816000875af11580156200132b573d6000803e3d6000fd5b505050506040513d601f19601f82011682018060405250810190620013519190620028d5565b506016600101546019600084815260200190815260200160002081905550505050565b600a60205281600052604060002081815481106200139157600080fd5b90600052602060002001600091509150505481565b60056020528060005260406000206000915054906101000a900473ffffffffffffffffffffffffffffffffffffffff1681565b60095481565b6000600a6000838152602001908152602001600020805490509050919050565b600c6020528060005260406000206000915090505481565b60186020528060005260406000206000915054906101000a900473ffffffffffffffffffffffffffffffffffffffff1681565b600160205281600052604060002081815481106200146757600080fd5b90600052602060002001600091509150505481565b600e6020528060005260406000206000915090505481565b60085481565b60106020528060005260406000206000915090505481565b60046020528160005260406000206020528060005260406000206000915091509054906101000a900460ff1681565b600060026000838152602001908152602001600020805490509050919050565b60006200150e8262001541565b601660010154189050919050565b601a81815481106200152d57600080fd5b906000526020600020016000915090505481565b600060016000838152602001908152602001600020805490509050919050565b6000601260010160009054906101000a900473ffffffffffffffffffffffffffffffffffffffff1690508073ffffffffffffffffffffffffffffffffffffffff1663a9059cbb86856040518363ffffffff1660e01b8152600401620015c892919062002a0d565b6020604051808303816000875af1158015620015e8573d6000803e3d6000fd5b505050506040513d601f19601f820116820180604052508101906200160e9190620028d5565b508073ffffffffffffffffffffffffffffffffffffffff16634bbc1bcd30856040518363ffffffff1660e01b81526004016200164c92919062002a0d565b600060405180830381600087803b1580156200166757600080fd5b505af11580156200167c573d6000803e3d6000fd5b505050506200168d84848462001e54565b5050505050565b60006005600084815260200190815260200160002060009054906101000a900473ffffffffffffffffffffffffffffffffffffffff1690508073ffffffffffffffffffffffffffffffffffffffff163373ffffffffffffffffffffffffffffffffffffffff16146200173d576040517f08c379a0000000000000000000000000000000000000000000000000000000008152600401620017349062002b22565b60405180910390fd5b60008190506000601860008373ffffffffffffffffffffffffffffffffffffffff1663685771f46040518163ffffffff1660e01b8152600401602060405180830381865afa15801562001794573d6000803e3d6000fd5b505050506040513d601f19601f82011682018060405250810190620017ba9190620025c9565b815260200190815260200160002060009054906101000a900473ffffffffffffffffffffffffffffffffffffffff1690506000601260010160009054906101000a900473ffffffffffffffffffffffffffffffffffffffff1690508073ffffffffffffffffffffffffffffffffffffffff1663a9059cbb83876040518363ffffffff1660e01b81526004016200185292919062002a0d565b6020604051808303816000875af115801562001872573d6000803e3d6000fd5b505050506040513d601f19601f82011682018060405250810190620018989190620028d5565b508073ffffffffffffffffffffffffffffffffffffffff16634bbc1bcd601260020160009054906101000a900473ffffffffffffffffffffffffffffffffffffffff1660016040518363ffffffff1660e01b8152600401620018fc92919062002877565b600060405180830381600087803b1580156200191757600080fd5b505af11580156200192c573d6000803e3d6000fd5b505050506200193b8662001f17565b505050505050565b60128060000160009054906101000a900473ffffffffffffffffffffffffffffffffffffffff16908060010160009054906101000a900473ffffffffffffffffffffffffffffffffffffffff16908060020160009054906101000a900473ffffffffffffffffffffffffffffffffffffffff16908060030160009054906101000a900473ffffffffffffffffffffffffffffffffffffffff16905084565b600b6020528060005260406000206000915054906101000a900473ffffffffffffffffffffffffffffffffffffffff1681565b60036020528060005260406000206000915090505481565b600f5481565b60005481565b60196020528060005260406000206000915090505481565b60075481565b600062001a6383620014e1565b6016600001541890508034101562001ab2576040517f08c379a000000000000000000000000000000000000000000000000000000000815260040162001aa99062002b94565b60405180910390fd5b6000601260010160009054906101000a900473ffffffffffffffffffffffffffffffffffffffff169050600062001ae98562001501565b905060008273ffffffffffffffffffffffffffffffffffffffff166370a082316018600089815260200190815260200160002060009054906101000a900473ffffffffffffffffffffffffffffffffffffffff166040518263ffffffff1660e01b815260040162001b5b91906200239a565b602060405180830381865afa15801562001b79573d6000803e3d6000fd5b505050506040513d601f19601f8201168201806040525081019062001b9f9190620025c9565b90508181101562001be7576040517f08c379a000000000000000000000000000000000000000000000000000000000815260040162001bde9062002c06565b60405180910390fd5b6000805487308860405162001bfc90620020d4565b62001c0b949392919062002c28565b604051809103906000f08015801562001c28573d6000803e3d6000fd5b509050600081905062001c3f886000548362001f99565b8473ffffffffffffffffffffffffffffffffffffffff166342966c68856040518263ffffffff1660e01b815260040162001c7a919062002293565b600060405180830381600087803b15801562001c9557600080fd5b505af115801562001caa573d6000803e3d6000fd5b505050508073ffffffffffffffffffffffffffffffffffffffff166108fc349081150290604051600060405180830381858888f1935050505015801562001cf5573d6000803e3d6000fd5b505050505050505050565b600081831062001d11578162001d13565b825b905092915050565b60016009600082825462001d30919062002775565b92505081905550806007600082825462001d4b919062002775565b92505081905550600a600085815260200190815260200160002083908060018154018082558091505060019003906000526020600020016000909190919091505580600d6000868152602001908152602001600020600082825462001db1919062002775565b9250508190555081600b600086815260200190815260200160002060006101000a81548173ffffffffffffffffffffffffffffffffffffffff021916908373ffffffffffffffffffffffffffffffffffffffff16021790555060016011600086815260200190815260200160002060006101000a81548160ff02191690831515021790555083600e60008581526020019081526020016000208190555050505050565b816007600082825462001e68919062002907565b92505081905550816008600082825462001e83919062002775565b925050819055506000600e600085815260200190815260200160002054905082600c6000838152602001908152602001600020600082825462001ec7919062002775565b925050819055506000838362001ede919062002907565b0362001f115760006011600086815260200190815260200160002060006101000a81548160ff0219169083151502179055505b50505050565b6000600360008381526020019081526020016000205490506002600082815260200190815260200160002082908060018154018082558091505060019003906000526020600020016000909190919091505560006006600083815260200190815260200160002060006101000a81548160ff0219169083151502179055505050565b82600360008481526020019081526020016000208190555060016000848152602001908152602001600020829080600181540180825580915050600190039060005260206000200160009091909190915055600160046000848152602001908152602001600020600085815260200190815260200160002060006101000a81548160ff021916908315150217905550806005600084815260200190815260200160002060006101000a81548173ffffffffffffffffffffffffffffffffffffffff021916908373ffffffffffffffffffffffffffffffffffffffff16021790555060016000808282546200208e919062002775565b9250508190555060016006600085815260200190815260200160002060006101000a81548160ff021916908315150217905550505050565b610d218062002c7683390190565b6111e5806200399783390190565b600080fd5b6000819050919050565b620020fc81620020e7565b81146200210857600080fd5b50565b6000813590506200211c81620020f1565b92915050565b6000602082840312156200213b576200213a620020e2565b5b60006200214b848285016200210b565b91505092915050565b60008115159050919050565b6200216b8162002154565b82525050565b600060208201905062002188600083018462002160565b92915050565b6000819050919050565b620021a3816200218e565b8114620021af57600080fd5b50565b600081359050620021c38162002198565b92915050565b60008060008060808587031215620021e657620021e5620020e2565b5b6000620021f6878288016200210b565b945050602062002209878288016200210b565b93505060406200221c878288016200210b565b92505060606200222f87828801620021b2565b91505092959194509250565b60008060408385031215620022555762002254620020e2565b5b600062002265858286016200210b565b925050602062002278858286016200210b565b9150509250929050565b6200228d81620020e7565b82525050565b6000602082019050620022aa600083018462002282565b92915050565b6000604082019050620022c7600083018562002282565b620022d6602083018462002282565b9392505050565b600073ffffffffffffffffffffffffffffffffffffffff82169050919050565b60006200230a82620022dd565b9050919050565b6200231c81620022fd565b81146200232857600080fd5b50565b6000813590506200233c8162002311565b92915050565b600080604083850312156200235c576200235b620020e2565b5b60006200236c858286016200232b565b92505060206200237f858286016200210b565b9150509250929050565b6200239481620022fd565b82525050565b6000602082019050620023b1600083018462002389565b92915050565b60008060008060808587031215620023d457620023d3620020e2565b5b6000620023e4878288016200232b565b9450506020620023f7878288016200210b565b93505060406200240a878288016200210b565b92505060606200241d878288016200210b565b91505092959194509250565b600060808201905062002440600083018762002389565b6200244f602083018662002389565b6200245e604083018562002389565b6200246d606083018462002389565b95945050505050565b6000806040838503121562002490576200248f620020e2565b5b6000620024a0858286016200210b565b9250506020620024b385828601620021b2565b9150509250929050565b600082825260208201905092915050565b7f43616c6c6572206973206e6f7420746865206f776e6572000000000000000000600082015250565b600062002506601783620024bd565b91506200251382620024ce565b602082019050919050565b600060208201905081810360008301526200253981620024f7565b9050919050565b7f4e6f74206861766520656e6f756768206d617474657200000000000000000000600082015250565b600062002578601683620024bd565b9150620025858262002540565b602082019050919050565b60006020820190508181036000830152620025ab8162002569565b9050919050565b600081519050620025c381620020f1565b92915050565b600060208284031215620025e257620025e1620020e2565b5b6000620025f284828501620025b2565b91505092915050565b7f4e6f74206869676820656e6f7567680000000000000000000000000000000000600082015250565b600062002633600f83620024bd565b91506200264082620025fb565b602082019050919050565b60006020820190508181036000830152620026668162002624565b9050919050565b7f4e487b7100000000000000000000000000000000000000000000000000000000600052601260045260246000fd5b6000620026a982620020e7565b9150620026b683620020e7565b925082620026c957620026c86200266d565b5b828206905092915050565b7f447261772072617465206e6f7420646976697369626c65000000000000000000600082015250565b60006200270c601783620024bd565b91506200271982620026d4565b602082019050919050565b600060208201905081810360008301526200273f81620026fd565b9050919050565b7f4e487b7100000000000000000000000000000000000000000000000000000000600052601160045260246000fd5b60006200278282620020e7565b91506200278f83620020e7565b9250828201905080821115620027aa57620027a962002746565b5b92915050565b7f4e487b7100000000000000000000000000000000000000000000000000000000600052603260045260246000fd5b6000620027ec82620020e7565b9150620027f983620020e7565b92508282026200280981620020e7565b9150828204841483151762002823576200282262002746565b5b5092915050565b6000819050919050565b6000819050919050565b60006200285f6200285962002853846200282a565b62002834565b620020e7565b9050919050565b62002871816200283e565b82525050565b60006040820190506200288e600083018562002389565b6200289d602083018462002866565b9392505050565b620028af8162002154565b8114620028bb57600080fd5b50565b600081519050620028cf81620028a4565b92915050565b600060208284031215620028ee57620028ed620020e2565b5b6000620028fe84828501620028be565b91505092915050565b60006200291482620020e7565b91506200292183620020e7565b92508282039050818111156200293c576200293b62002746565b5b92915050565b60006200294f82620020e7565b91507fffffffffffffffffffffffffffffffffffffffffffffffffffffffffffffffff820362002984576200298362002746565b5b600182019050919050565b6200299a816200218e565b82525050565b600060c082019050620029b7600083018962002282565b620029c6602083018862002282565b620029d5604083018762002282565b620029e4606083018662002282565b620029f3608083018562002389565b62002a0260a08301846200298f565b979650505050505050565b600060408201905062002a24600083018562002389565b62002a33602083018462002282565b9392505050565b7f4e6f7420656e6f756768206d6174746572000000000000000000000000000000600082015250565b600062002a72601183620024bd565b915062002a7f8262002a3a565b602082019050919050565b6000602082019050818103600083015262002aa58162002a63565b9050919050565b7f43616c6c6572206973206e6f742074686520726967687420436f736d6f53656560008201527f6420636f6e747261637400000000000000000000000000000000000000000000602082015250565b600062002b0a602a83620024bd565b915062002b178262002aac565b604082019050919050565b6000602082019050818103600083015262002b3d8162002afb565b9050919050565b7f45746865722076616c7565206973206e6f7420656e6f75676800000000000000600082015250565b600062002b7c601983620024bd565b915062002b898262002b44565b602082019050919050565b6000602082019050818103600083015262002baf8162002b6d565b9050919050565b7f4d61747465722062616c616e6365206973206e6f7420656e6f75676800000000600082015250565b600062002bee601c83620024bd565b915062002bfb8262002bb6565b602082019050919050565b6000602082019050818103600083015262002c218162002bdf565b9050919050565b600060808201905062002c3f600083018762002282565b62002c4e602083018662002282565b62002c5d604083018562002389565b62002c6c60608301846200298f565b9594505050505056fe60806040523480156200001157600080fd5b5060405162000d2138038062000d21833981810160405281019062000037919062000283565b85600080018190555084600060010181905550836000600201819055508260006003018190555030600060040160006101000a81548173ffffffffffffffffffffffffffffffffffffffff021916908373ffffffffffffffffffffffffffffffffffffffff16021790555033600060050160006101000a81548173ffffffffffffffffffffffffffffffffffffffff021916908373ffffffffffffffffffffffffffffffffffffffff16021790555080600060060181905550600060050160009054906101000a900473ffffffffffffffffffffffffffffffffffffffff16600860006101000a81548173ffffffffffffffffffffffffffffffffffffffff021916908373ffffffffffffffffffffffffffffffffffffffff16021790555081600960006101000a81548173ffffffffffffffffffffffffffffffffffffffff021916908373ffffffffffffffffffffffffffffffffffffffff1602179055505050505050506200031f565b600080fd5b6000819050919050565b620001bd81620001a8565b8114620001c957600080fd5b50565b600081519050620001dd81620001b2565b92915050565b600073ffffffffffffffffffffffffffffffffffffffff82169050919050565b60006200021082620001e3565b9050919050565b620002228162000203565b81146200022e57600080fd5b50565b600081519050620002428162000217565b92915050565b6000819050919050565b6200025d8162000248565b81146200026957600080fd5b50565b6000815190506200027d8162000252565b92915050565b60008060008060008060c08789031215620002a357620002a2620001a3565b5b6000620002b389828a01620001cc565b9650506020620002c689828a01620001cc565b9550506040620002d989828a01620001cc565b9450506060620002ec89828a01620001cc565b9350506080620002ff89828a0162000231565b92505060a06200031289828a016200026c565b9150509295509295509295565b6109f2806200032f6000396000f3fe608060405234801561001057600080fd5b506004361061002b5760003560e01c806327ac1b6514610030575b600080fd5b61004a60048036038101906100459190610563565b61004c565b005b60011515600060070160003373ffffffffffffffffffffffffffffffffffffffff1673ffffffffffffffffffffffffffffffffffffffff16815260200190815260200160002060009054906101000a900460ff161515036100e2576040517f08c379a00000000000000000000000000000000000000000000000000000000081526004016100d990610667565b60405180910390fd5b6000806002015411610129576040517f08c379a0000000000000000000000000000000000000000000000000000000008152600401610120906106d3565b60405180910390fd5b610132836102eb565b50600960009054906101000a900473ffffffffffffffffffffffffffffffffffffffff1673ffffffffffffffffffffffffffffffffffffffff16639cee22b13360008001546000600301546000600201546040518563ffffffff1660e01b81526004016101a2949392919061074d565b600060405180830381600087803b1580156101bc57600080fd5b505af11580156101d0573d6000803e3d6000fd5b50505050600060030154600060020160008282546101ee91906107c1565b925050819055506001600060070160003373ffffffffffffffffffffffffffffffffffffffff1673ffffffffffffffffffffffffffffffffffffffff16815260200190815260200160002060006101000a81548160ff021916908315150217905550600860009054906101000a900473ffffffffffffffffffffffffffffffffffffffff1673ffffffffffffffffffffffffffffffffffffffff16639202c1ec60006001015484846040518463ffffffff1660e01b81526004016102b4939291906108b8565b600060405180830381600087803b1580156102ce57600080fd5b505af11580156102e2573d6000803e3d6000fd5b50505050505050565b600080826040516020016102ff9190610939565b604051602081830303815290604052805190602001209050600060060154811461035e576040517f08c379a00000000000000000000000000000000000000000000000000000000081526004016103559061099c565b60405180910390fd5b6001915050919050565b6000604051905090565b600080fd5b600080fd5b600080fd5b600080fd5b6000601f19601f8301169050919050565b7f4e487b7100000000000000000000000000000000000000000000000000000000600052604160045260246000fd5b6103cf82610386565b810181811067ffffffffffffffff821117156103ee576103ed610397565b5b80604052505050565b6000610401610368565b905061040d82826103c6565b919050565b600067ffffffffffffffff82111561042d5761042c610397565b5b61043682610386565b9050602081019050919050565b82818337600083830152505050565b600061046561046084610412565b6103f7565b90508281526020810184848401111561048157610480610381565b5b61048c848285610443565b509392505050565b600082601f8301126104a9576104a861037c565b5b81356104b9848260208601610452565b91505092915050565b600067ffffffffffffffff8211156104dd576104dc610397565b5b6104e682610386565b9050602081019050919050565b6000610506610501846104c2565b6103f7565b90508281526020810184848401111561052257610521610381565b5b61052d848285610443565b509392505050565b600082601f83011261054a5761054961037c565b5b813561055a8482602086016104f3565b91505092915050565b60008060006060848603121561057c5761057b610372565b5b600084013567ffffffffffffffff81111561059a57610599610377565b5b6105a686828701610494565b935050602084013567ffffffffffffffff8111156105c7576105c6610377565b5b6105d386828701610494565b925050604084013567ffffffffffffffff8111156105f4576105f3610377565b5b61060086828701610535565b9150509250925092565b600082825260208201905092915050565b7f43616e206f6e6c792064726177206f6e63650000000000000000000000000000600082015250565b600061065160128361060a565b915061065c8261061b565b602082019050919050565b6000602082019050818103600083015261068081610644565b9050919050565b7f4e6f2062757474657220746f2064726177000000000000000000000000000000600082015250565b60006106bd60118361060a565b91506106c882610687565b602082019050919050565b600060208201905081810360008301526106ec816106b0565b9050919050565b600073ffffffffffffffffffffffffffffffffffffffff82169050919050565b600061071e826106f3565b9050919050565b61072e81610713565b82525050565b6000819050919050565b61074781610734565b82525050565b60006080820190506107626000830187610725565b61076f602083018661073e565b61077c604083018561073e565b610789606083018461073e565b95945050505050565b7f4e487b7100000000000000000000000000000000000000000000000000000000600052601160045260246000fd5b60006107cc82610734565b91506107d783610734565b92508282039050818111156107ef576107ee610792565b5b92915050565b600081519050919050565b60005b8381101561081e578082015181840152602081019050610803565b60008484015250505050565b6000610835826107f5565b61083f818561060a565b935061084f818560208601610800565b61085881610386565b840191505092915050565b600081519050919050565b600082825260208201905092915050565b600061088a82610863565b610894818561086e565b93506108a4818560208601610800565b6108ad81610386565b840191505092915050565b60006060820190506108cd600083018661073e565b81810360208301526108df818561082a565b905081810360408301526108f3818461087f565b9050949350505050565b600081905092915050565b6000610913826107f5565b61091d81856108fd565b935061092d818560208601610800565b80840191505092915050565b60006109458284610908565b915081905092915050565b7f496e70757420646f6573206e6f74206d61746368207365637265740000000000600082015250565b6000610986601b8361060a565b915061099182610950565b602082019050919050565b600060208201905081810360008301526109b581610979565b905091905056fea26469706673582212203d880ee6ed1535080a772fdb1fb665ad97bea9443e3109aa796f00520793e1ce64736f6c634300081100336080604052604051620011e5380380620011e58339818101604052810190620000299190620002f4565b600033905080600760006101000a81548173ffffffffffffffffffffffffffffffffffffffff021916908373ffffffffffffffffffffffffffffffffffffffff16021790555082600860006101000a81548173ffffffffffffffffffffffffffffffffffffffff021916908373ffffffffffffffffffffffffffffffffffffffff1602179055508460008001819055508360006001018190555034600060020181905550600860009054906101000a900473ffffffffffffffffffffffffffffffffffffffff1673ffffffffffffffffffffffffffffffffffffffff166334fc1228856040518263ffffffff1660e01b81526004016200012a919062000377565b602060405180830381865afa15801562000148573d6000803e3d6000fd5b505050506040513d601f19601f820116820180604052508101906200016e919062000394565b60006003018190555030600060040160006101000a81548173ffffffffffffffffffffffffffffffffffffffff021916908373ffffffffffffffffffffffffffffffffffffffff16021790555080600060050160006101000a81548173ffffffffffffffffffffffffffffffffffffffff021916908373ffffffffffffffffffffffffffffffffffffffff160217905550816000600601819055505050505050620003c6565b600080fd5b6000819050919050565b6200022e8162000219565b81146200023a57600080fd5b50565b6000815190506200024e8162000223565b92915050565b600073ffffffffffffffffffffffffffffffffffffffff82169050919050565b6000620002818262000254565b9050919050565b620002938162000274565b81146200029f57600080fd5b50565b600081519050620002b38162000288565b92915050565b6000819050919050565b620002ce81620002b9565b8114620002da57600080fd5b50565b600081519050620002ee81620002c3565b92915050565b6000806000806080858703121562000311576200031062000214565b5b600062000321878288016200023d565b945050602062000334878288016200023d565b93505060406200034787828801620002a2565b92505060606200035a87828801620002dd565b91505092959194509250565b620003718162000219565b82525050565b60006020820190506200038e600083018462000366565b92915050565b600060208284031215620003ad57620003ac62000214565b5b6000620003bd848285016200023d565b91505092915050565b610e0f80620003d66000396000f3fe608060405234801561001057600080fd5b506004361061004c5760003560e01c8063685771f4146100515780637d94792a1461006f578063956c2dc314610093578063c5d12c97146100af575b600080fd5b6100596100cd565b6040516100669190610656565b60405180910390f35b6100776100d9565b60405161008a97969594939291906106cb565b60405180910390f35b6100ad60048036038101906100a89190610935565b610149565b005b6100b76105b4565b6040516100c49190610656565b60405180910390f35b60008060010154905090565b60008060000154908060010154908060020154908060030154908060040160009054906101000a900473ffffffffffffffffffffffffffffffffffffffff16908060050160009054906101000a900473ffffffffffffffffffffffffffffffffffffffff16908060060154905087565b610152836105c0565b50600860009054906101000a900473ffffffffffffffffffffffffffffffffffffffff1673ffffffffffffffffffffffffffffffffffffffff1663f27890f260008001546040518263ffffffff1660e01b81526004016101b29190610656565b600060405180830381600087803b1580156101cc57600080fd5b505af11580156101e0573d6000803e3d6000fd5b50505050600760009054906101000a900473ffffffffffffffffffffffffffffffffffffffff1673ffffffffffffffffffffffffffffffffffffffff1663a0e12efe83836040518363ffffffff1660e01b8152600401610241929190610ab0565b600060405180830381600087803b15801561025b57600080fd5b505af115801561026f573d6000803e3d6000fd5b505050506000600860009054906101000a900473ffffffffffffffffffffffffffffffffffffffff1673ffffffffffffffffffffffffffffffffffffffff1663b8a9736d6040518163ffffffff1660e01b8152600401602060405180830381865afa1580156102e2573d6000803e3d6000fd5b505050506040513d601f19601f820116820180604052508101906103069190610b13565b90506000600860009054906101000a900473ffffffffffffffffffffffffffffffffffffffff1673ffffffffffffffffffffffffffffffffffffffff166307604b1a6040518163ffffffff1660e01b8152600401602060405180830381865afa158015610377573d6000803e3d6000fd5b505050506040513d601f19601f8201168201806040525081019061039b9190610b6c565b73ffffffffffffffffffffffffffffffffffffffff16826040516103be90610bca565b60006040518083038185875af1925050503d80600081146103fb576040519150601f19603f3d011682016040523d82523d6000602084013e610400565b606091505b5050905080610444576040517f08c379a000000000000000000000000000000000000000000000000000000000815260040161043b90610c2b565b60405180910390fd5b6000826000600201546104579190610c7a565b90506000600760009054906101000a900473ffffffffffffffffffffffffffffffffffffffff1673ffffffffffffffffffffffffffffffffffffffff16636352211e6000600101546040518263ffffffff1660e01b81526004016104bb9190610656565b602060405180830381865afa1580156104d8573d6000803e3d6000fd5b505050506040513d601f19601f820116820180604052508101906104fc9190610b6c565b905060008173ffffffffffffffffffffffffffffffffffffffff168360405161052490610bca565b60006040518083038185875af1925050503d8060008114610561576040519150601f19603f3d011682016040523d82523d6000602084013e610566565b606091505b50509050806105aa576040517f08c379a00000000000000000000000000000000000000000000000000000000081526004016105a190610cfa565b60405180910390fd5b5050505050505050565b60008060030154905090565b600080826040516020016105d49190610d56565b6040516020818303038152906040528051906020012090506000600601548114610633576040517f08c379a000000000000000000000000000000000000000000000000000000000815260040161062a90610db9565b60405180910390fd5b6001915050919050565b6000819050919050565b6106508161063d565b82525050565b600060208201905061066b6000830184610647565b92915050565b600073ffffffffffffffffffffffffffffffffffffffff82169050919050565b600061069c82610671565b9050919050565b6106ac81610691565b82525050565b6000819050919050565b6106c5816106b2565b82525050565b600060e0820190506106e0600083018a610647565b6106ed6020830189610647565b6106fa6040830188610647565b6107076060830187610647565b61071460808301866106a3565b61072160a08301856106a3565b61072e60c08301846106bc565b98975050505050505050565b6000604051905090565b600080fd5b600080fd5b600080fd5b600080fd5b6000601f19601f8301169050919050565b7f4e487b7100000000000000000000000000000000000000000000000000000000600052604160045260246000fd5b6107a182610758565b810181811067ffffffffffffffff821117156107c0576107bf610769565b5b80604052505050565b60006107d361073a565b90506107df8282610798565b919050565b600067ffffffffffffffff8211156107ff576107fe610769565b5b61080882610758565b9050602081019050919050565b82818337600083830152505050565b6000610837610832846107e4565b6107c9565b90508281526020810184848401111561085357610852610753565b5b61085e848285610815565b509392505050565b600082601f83011261087b5761087a61074e565b5b813561088b848260208601610824565b91505092915050565b600067ffffffffffffffff8211156108af576108ae610769565b5b6108b882610758565b9050602081019050919050565b60006108d86108d384610894565b6107c9565b9050828152602081018484840111156108f4576108f3610753565b5b6108ff848285610815565b509392505050565b600082601f83011261091c5761091b61074e565b5b813561092c8482602086016108c5565b91505092915050565b60008060006060848603121561094e5761094d610744565b5b600084013567ffffffffffffffff81111561096c5761096b610749565b5b61097886828701610866565b935050602084013567ffffffffffffffff81111561099957610998610749565b5b6109a586828701610866565b925050604084013567ffffffffffffffff8111156109c6576109c5610749565b5b6109d286828701610907565b9150509250925092565b600081519050919050565b600082825260208201905092915050565b60005b83811015610a165780820151818401526020810190506109fb565b60008484015250505050565b6000610a2d826109dc565b610a3781856109e7565b9350610a478185602086016109f8565b610a5081610758565b840191505092915050565b600081519050919050565b600082825260208201905092915050565b6000610a8282610a5b565b610a8c8185610a66565b9350610a9c8185602086016109f8565b610aa581610758565b840191505092915050565b60006040820190508181036000830152610aca8185610a22565b90508181036020830152610ade8184610a77565b90509392505050565b610af08161063d565b8114610afb57600080fd5b50565b600081519050610b0d81610ae7565b92915050565b600060208284031215610b2957610b28610744565b5b6000610b3784828501610afe565b91505092915050565b610b4981610691565b8114610b5457600080fd5b50565b600081519050610b6681610b40565b92915050565b600060208284031215610b8257610b81610744565b5b6000610b9084828501610b57565b91505092915050565b600081905092915050565b50565b6000610bb4600083610b99565b9150610bbf82610ba4565b600082019050919050565b6000610bd582610ba7565b9150819050919050565b7f4574686572206e6f742073656e7420746f205472656173757279000000000000600082015250565b6000610c15601a836109e7565b9150610c2082610bdf565b602082019050919050565b60006020820190508181036000830152610c4481610c08565b9050919050565b7f4e487b7100000000000000000000000000000000000000000000000000000000600052601160045260246000fd5b6000610c858261063d565b9150610c908361063d565b9250828203905081811115610ca857610ca7610c4b565b5b92915050565b7f4574686572206e6f742073656e7420746f20706172656e74206e757400000000600082015250565b6000610ce4601c836109e7565b9150610cef82610cae565b602082019050919050565b60006020820190508181036000830152610d1381610cd7565b9050919050565b600081905092915050565b6000610d30826109dc565b610d3a8185610d1a565b9350610d4a8185602086016109f8565b80840191505092915050565b6000610d628284610d25565b915081905092915050565b7f496e70757420646f6573206e6f74206d61746368207365637265740000000000600082015250565b6000610da3601b836109e7565b9150610dae82610d6d565b602082019050919050565b60006020820190508181036000830152610dd281610d96565b905091905056fea26469706673582212208e8ea42eb05fdb7ea0a9631a86c3fe2fc9fc18aca4df1ed6836fe4bd88915b3f64736f6c63430008110033a2646970667358221220a5bb18f331ec99e4b594c447ed4be0ff4e63c2bbc9fe0497cf1745821aa7bc2864736f6c63430008110033",
  "immutableReferences": {},
  "source": "// SPDX-License-Identifier: MIT\npragma solidity ^0.8.7;\n\nimport \"openzeppelin-solidity/contracts/utils/math/Math.sol\";\nimport \"./CosmoMatter.sol\";\nimport \"./CosmoSeed.sol\";\nimport \"./CosmoButter.sol\";\nimport \"./CosmoVault.sol\";\n\nimport \"./SeedAccounts.sol\";\nimport \"./ButterAccounts.sol\";\n\n/**\n * @dev Manages the matter balance of the CosmoNuts collection and handles interaction with the\n * ERC20 Token to mint, burn, and allocate balances\n * Acts as storage for the ERC 721 tokens on their created Seed and Butter contracts.\n */\n contract CosmoTreasury is SeedAccounts, ButterAccounts {\n\n    /**\n     * @dev Saved addresses include the contract which created the Treasury: UNIVERSE_ADDRESS, and\n     * the address of the CosmoNuts contract (NFTs) which is created after the Treasury and then updated: matter_ADDRESS.\n     */\n    struct AddressOf {\n        address system;\n        address matter;\n        address treasury;\n        address cosmos;\n    }\n    AddressOf public addressOf;\n\n    struct Nut {\n        uint256 price;\n        uint256 rate;\n    }\n    Nut public nut;\n\n    mapping(uint256 => address) public currentOwnerOfNut; // Record of current nut owners by address\n    mapping(uint256 => uint256) public matterBalanceOfNut; // Matter balance of each Nut recorded by the Treasury\n\n    uint256[] public nutsPayeeList; // List of nuts to be provided a balance\n\n    /**\n     *\n     */\n    constructor(address _systemAddress, address _matterAddress) {\n        addressOf.system = _systemAddress;\n        addressOf.matter = _matterAddress;\n        addressOf.treasury = address(this);\n        //nut.price = _nutPrice;\n        //nut.rate = _matterRate;\n    }\n\n    /*\n    modifier onlyUniverse {\n        require(address(msg.sender) == UNIVERSE_ADDRESS, \"Caller is not Universe\");\n        _;\n    }\n    */\n\n    /*\n    function updateCosmosAddress(address _matterAddressNew) external onlyUniverse {\n        MATTER_ADDRESS = _matterAddressNew;\n    }\n    */\n\n    //function updateNutPrice(uint256 _setNutPrice) external onlyUniverse {\n    //    NUT_PRICE = _setNutPrice;\n    //}\n\n    function matterNeeded(uint256 _nutId) public view returns (uint256) {\n        return nut.rate ^ (numOfSeedsOf(_nutId));\n    }\n\n    function spawnSeed(uint256 _nutId, bytes32 _secretHash) external payable {\n        uint256 ethToHold = nut.price ^ (numOfSeedsGrownOf(_nutId));\n        require(msg.value >= ethToHold, \"Ether value is not enough\");\n\n        CosmoMatter matter = CosmoMatter(addressOf.matter);\n        uint256 matterToBurn = matterNeeded(_nutId);\n        uint256 matterOfOwner = matter.balanceOf((currentOwnerOfNut[_nutId]));\n        require(matterOfOwner >= matterToBurn, \"Matter balance is not enough\");\n\n        CosmoSeed cosmoseed = new CosmoSeed(\n            seedsCreated, _nutId, address(this), _secretHash\n        );\n        address seedLocation = address(cosmoseed);\n        integrateSeed(_nutId, seedsCreated, seedLocation);\n\n        matter.burn(matterToBurn);\n        payable(seedLocation).transfer(msg.value);\n    }\n\n    /**\n     * Called from CosmoSeed contract.\n     */\n    function seedFromNut(uint256 _seedId, uint256 _matterNeeded) external {\n        address seedAddress = seedLocations[_seedId];\n        require(address(msg.sender) == seedAddress, \"Caller is not the right CosmoSeed contract\");\n        //require(matter.balanceOf(address(msg.sender)) >= _matterNeeded, \"Not enough matter\");\n\n        CosmoSeed seed = CosmoSeed(seedAddress);\n\n        address nutOwner = currentOwnerOfNut[seed.nutId()];\n        CosmoMatter matter = CosmoMatter(addressOf.matter);\n        matter.transfer(nutOwner, _matterNeeded);\n        matter.mintMatter(addressOf.treasury, 1);\n\n        growSeed(_seedId);\n    }\n\n    /**\n     * Creating new butter means the creation of a contract where other users can withdraw matter from.\n     * Need to contribute butter (which can only be done if you have a Nut with the desired level of matter to give away.\n     * A secret message is provided in hash form and checked for verification to withdraw funds.\n     */\n    function newButter(uint256 _nutId, uint256 _matterContributed, uint256 _matterDrawRate, bytes32 _secretHash) external {\n        address nutOwner = currentOwnerOfNut[_nutId];\n        // Do we need to be doing these checks twice? Or really new check that caller is from contract (? or person who clicked?)\n        require(nutOwner == address(msg.sender), \"Caller is not the owner\");\n        require(matterBalanceOfNut[_nutId] >= _matterContributed, \"Not have enough matter\");\n        CosmoMatter matter = CosmoMatter(addressOf.matter);\n        require(_matterContributed <= matter.balanceOf(nutOwner), \"Not high enough\");\n        require(_matterContributed % _matterDrawRate == 0, \"Draw rate not divisible\");\n\n        /**\n         * A nut must have already grown a seed to start being counted as part of the deficiency list.\n         */\n        if (numOfSeedsGrownOf(_nutId) > 0) {\n            butterDeficiencyInUniverse += _matterContributed;\n            butterDeficiencyOfNut[_nutId] += _matterContributed;\n            nutsPayeeList.push(_nutId);\n        }\n\n        /**\n         * The Treasury wants to distribute its available balance to the nutsPayeeList.\n         * It will distribute the minimum of either its available balance or the deficiency in the Universe.\n         * All payees are awarded one matter and moved to the end of the list.\n         * When their maximum available balance is reached, they are removed from the payee list.\n         */\n        uint256 matterInTreasury = matter.balanceOf(addressOf.treasury);\n        if (matterInTreasury > 0) {\n            uint256 toDistribute = Math.min(matterInTreasury, butterDeficiencyInUniverse);\n\n            uint256 index = 0;\n            for (uint j = 0; j != toDistribute; j++) {\n                uint256 allPayees = nutsPayeeList.length;\n                if (allPayees == 0) {\n                    break;\n                }\n\n                if (j > allPayees) {\n                    index = 0;\n                }\n\n                uint256 nutPayeeId = nutsPayeeList[index];\n                address nutOwnerPayee = currentOwnerOfNut[nutPayeeId];\n                uint256 maxMatter = numOfSeedsGrownOf(nutPayeeId) * nut.rate;\n                if (matterBalanceOfNut[nutPayeeId] == maxMatter) {\n                    delete nutsPayeeList[index];\n                } else {\n                    matter.transfer(nutOwnerPayee, 1);\n                    nutsPayeeList.push(nutPayeeId);\n                    delete nutsPayeeList[index];\n\n                    butterDeficiencyInUniverse -= 1;\n                    butterDeficiencyOfNut[nutPayeeId] -= 1;\n                }\n\n                index++;\n           }\n           matterInTreasury = matter.balanceOf(addressOf.treasury);\n        }\n\n        CosmoButter butter = new CosmoButter(\n            butterJars, _nutId, _matterContributed, _matterDrawRate, addressOf.treasury, _secretHash\n        );\n        matter.transfer(address(butter), _matterContributed);\n        churnButter(_nutId, butterJars, address(butter), _matterContributed);\n\n    }\n\n    /**\n     * Runs from CosmoButter contract when someone requests to draw matter.\n     */\n    function butterDrawn(address _drawer, uint256 _butterId, uint256 _balance, uint256 _currentBalance) external {\n        CosmoMatter matter = CosmoMatter(addressOf.matter);\n        matter.transfer(_drawer, _balance);\n        matter.mintMatter(address(this), _balance);\n        distributeButter(_butterId, _balance, _currentBalance);\n\n    }\n\n    function assignMintBalance(address _tokenOwner, uint256 _tokenId) external {\n        CosmoMatter matter = CosmoMatter(addressOf.matter);\n        require(matter.balanceOf(addressOf.treasury) >= nut.rate, \"Not enough matter\");\n        matter.transfer(_tokenOwner, nut.rate);\n        matterBalanceOfNut[_tokenId] = nut.rate;\n    }\n\n}\n",
  "sourcePath": "/home/redlentils/Seafile/Websites/avatarnft/contracts/CosmoTreasury.sol",
  "compiler": {
    "name": "solc",
    "version": "0.8.17+commit.8df45f5f.Emscripten.clang"
  },
  "schemaVersion": "3.4.10",
  "updatedAt": "2022-10-07T08:00:39.341Z",
  "devdoc": {
    "details": "Manages the matter balance of the CosmoNuts collection and handles interaction with the ERC20 Token to mint, burn, and allocate balances Acts as storage for the ERC 721 tokens on their created Seed and Butter contracts.",
    "kind": "dev",
    "methods": {},
    "version": 1
  },
  "userdoc": {
    "kind": "user",
    "methods": {
      "butterDrawn(address,uint256,uint256,uint256)": {
        "notice": "Runs from CosmoButter contract when someone requests to draw matter."
      },
      "butterWeight()": {
        "notice": "butterWeight is the amount of matter in the universe thta is currently outstanding. butterSpread is the amount of matter that has been distributed from butterWeight, thus reducing its value. butterJams represent the total number of matter contracts created in the Universe."
      },
      "buttersOfNut(uint256,uint256)": {
        "notice": "buttersOfNut represents a list of all butter contracts created byt that nut. butterLocations represents the address of contract identifed by butterId."
      },
      "newButter(uint256,uint256,uint256,bytes32)": {
        "notice": "Creating new butter means the creation of a contract where other users can withdraw matter from. Need to contribute butter (which can only be done if you have a Nut with the desired level of matter to give away. A secret message is provided in hash form and checked for verification to withdraw funds."
      },
      "seedFromNut(uint256,uint256)": {
        "notice": "Called from CosmoSeed contract."
      }
    },
    "version": 1
  }
}