{
  "contractName": "CosmoNuts",
  "abi": [
    {
      "inputs": [
        {
          "internalType": "string",
          "name": "_name",
          "type": "string"
        },
        {
          "internalType": "string",
          "name": "_symbol",
          "type": "string"
        },
        {
          "internalType": "uint256",
          "name": "_initialNFTSupply",
          "type": "uint256"
        },
        {
          "internalType": "address",
          "name": "_systemAddress",
          "type": "address"
        },
        {
          "internalType": "address",
          "name": "_treasuryAddress",
          "type": "address"
        }
      ],
      "stateMutability": "nonpayable",
      "type": "constructor"
    },
    {
      "anonymous": false,
      "inputs": [
        {
          "indexed": true,
          "internalType": "address",
          "name": "owner",
          "type": "address"
        },
        {
          "indexed": true,
          "internalType": "address",
          "name": "approved",
          "type": "address"
        },
        {
          "indexed": true,
          "internalType": "uint256",
          "name": "tokenId",
          "type": "uint256"
        }
      ],
      "name": "Approval",
      "type": "event"
    },
    {
      "anonymous": false,
      "inputs": [
        {
          "indexed": true,
          "internalType": "address",
          "name": "owner",
          "type": "address"
        },
        {
          "indexed": true,
          "internalType": "address",
          "name": "operator",
          "type": "address"
        },
        {
          "indexed": false,
          "internalType": "bool",
          "name": "approved",
          "type": "bool"
        }
      ],
      "name": "ApprovalForAll",
      "type": "event"
    },
    {
      "anonymous": false,
      "inputs": [
        {
          "indexed": true,
          "internalType": "address",
          "name": "previousOwner",
          "type": "address"
        },
        {
          "indexed": true,
          "internalType": "address",
          "name": "newOwner",
          "type": "address"
        }
      ],
      "name": "OwnershipTransferred",
      "type": "event"
    },
    {
      "anonymous": false,
      "inputs": [
        {
          "indexed": true,
          "internalType": "address",
          "name": "from",
          "type": "address"
        },
        {
          "indexed": true,
          "internalType": "address",
          "name": "to",
          "type": "address"
        },
        {
          "indexed": true,
          "internalType": "uint256",
          "name": "tokenId",
          "type": "uint256"
        }
      ],
      "name": "Transfer",
      "type": "event"
    },
    {
      "inputs": [],
      "name": "NUTS_INITIAL",
      "outputs": [
        {
          "internalType": "uint256",
          "name": "",
          "type": "uint256"
        }
      ],
      "stateMutability": "view",
      "type": "function"
    },
    {
      "inputs": [],
      "name": "SYSTEM_ADDRESS",
      "outputs": [
        {
          "internalType": "address",
          "name": "",
          "type": "address"
        }
      ],
      "stateMutability": "view",
      "type": "function"
    },
    {
      "inputs": [],
      "name": "TREASURY_ADDRESS",
      "outputs": [
        {
          "internalType": "address",
          "name": "",
          "type": "address"
        }
      ],
      "stateMutability": "view",
      "type": "function"
    },
    {
      "inputs": [],
      "name": "VAULT_ADDRESS",
      "outputs": [
        {
          "internalType": "address",
          "name": "",
          "type": "address"
        }
      ],
      "stateMutability": "view",
      "type": "function"
    },
    {
      "inputs": [
        {
          "internalType": "address",
          "name": "to",
          "type": "address"
        },
        {
          "internalType": "uint256",
          "name": "tokenId",
          "type": "uint256"
        }
      ],
      "name": "approve",
      "outputs": [],
      "stateMutability": "nonpayable",
      "type": "function"
    },
    {
      "inputs": [
        {
          "internalType": "address",
          "name": "owner",
          "type": "address"
        }
      ],
      "name": "balanceOf",
      "outputs": [
        {
          "internalType": "uint256",
          "name": "",
          "type": "uint256"
        }
      ],
      "stateMutability": "view",
      "type": "function"
    },
    {
      "inputs": [
        {
          "internalType": "uint256",
          "name": "tokenId",
          "type": "uint256"
        }
      ],
      "name": "getApproved",
      "outputs": [
        {
          "internalType": "address",
          "name": "",
          "type": "address"
        }
      ],
      "stateMutability": "view",
      "type": "function"
    },
    {
      "inputs": [
        {
          "internalType": "address",
          "name": "owner",
          "type": "address"
        },
        {
          "internalType": "address",
          "name": "operator",
          "type": "address"
        }
      ],
      "name": "isApprovedForAll",
      "outputs": [
        {
          "internalType": "bool",
          "name": "",
          "type": "bool"
        }
      ],
      "stateMutability": "view",
      "type": "function"
    },
    {
      "inputs": [
        {
          "internalType": "uint256",
          "name": "_nutId",
          "type": "uint256"
        },
        {
          "internalType": "string",
          "name": "_nutCID",
          "type": "string"
        }
      ],
      "name": "mintNut",
      "outputs": [],
      "stateMutability": "payable",
      "type": "function"
    },
    {
      "inputs": [],
      "name": "name",
      "outputs": [
        {
          "internalType": "string",
          "name": "",
          "type": "string"
        }
      ],
      "stateMutability": "view",
      "type": "function"
    },
    {
      "inputs": [],
      "name": "owner",
      "outputs": [
        {
          "internalType": "address",
          "name": "",
          "type": "address"
        }
      ],
      "stateMutability": "view",
      "type": "function"
    },
    {
      "inputs": [
        {
          "internalType": "uint256",
          "name": "tokenId",
          "type": "uint256"
        }
      ],
      "name": "ownerOf",
      "outputs": [
        {
          "internalType": "address",
          "name": "",
          "type": "address"
        }
      ],
      "stateMutability": "view",
      "type": "function"
    },
    {
      "inputs": [],
      "name": "renounceOwnership",
      "outputs": [],
      "stateMutability": "nonpayable",
      "type": "function"
    },
    {
      "inputs": [
        {
          "internalType": "address",
          "name": "from",
          "type": "address"
        },
        {
          "internalType": "address",
          "name": "to",
          "type": "address"
        },
        {
          "internalType": "uint256",
          "name": "tokenId",
          "type": "uint256"
        }
      ],
      "name": "safeTransferFrom",
      "outputs": [],
      "stateMutability": "nonpayable",
      "type": "function"
    },
    {
      "inputs": [
        {
          "internalType": "address",
          "name": "from",
          "type": "address"
        },
        {
          "internalType": "address",
          "name": "to",
          "type": "address"
        },
        {
          "internalType": "uint256",
          "name": "tokenId",
          "type": "uint256"
        },
        {
          "internalType": "bytes",
          "name": "_data",
          "type": "bytes"
        }
      ],
      "name": "safeTransferFrom",
      "outputs": [],
      "stateMutability": "nonpayable",
      "type": "function"
    },
    {
      "inputs": [
        {
          "internalType": "address",
          "name": "operator",
          "type": "address"
        },
        {
          "internalType": "bool",
          "name": "approved",
          "type": "bool"
        }
      ],
      "name": "setApprovalForAll",
      "outputs": [],
      "stateMutability": "nonpayable",
      "type": "function"
    },
    {
      "inputs": [
        {
          "internalType": "bytes4",
          "name": "interfaceId",
          "type": "bytes4"
        }
      ],
      "name": "supportsInterface",
      "outputs": [
        {
          "internalType": "bool",
          "name": "",
          "type": "bool"
        }
      ],
      "stateMutability": "view",
      "type": "function"
    },
    {
      "inputs": [],
      "name": "symbol",
      "outputs": [
        {
          "internalType": "string",
          "name": "",
          "type": "string"
        }
      ],
      "stateMutability": "view",
      "type": "function"
    },
    {
      "inputs": [
        {
          "internalType": "uint256",
          "name": "index",
          "type": "uint256"
        }
      ],
      "name": "tokenByIndex",
      "outputs": [
        {
          "internalType": "uint256",
          "name": "",
          "type": "uint256"
        }
      ],
      "stateMutability": "view",
      "type": "function"
    },
    {
      "inputs": [
        {
          "internalType": "address",
          "name": "owner",
          "type": "address"
        },
        {
          "internalType": "uint256",
          "name": "index",
          "type": "uint256"
        }
      ],
      "name": "tokenOfOwnerByIndex",
      "outputs": [
        {
          "internalType": "uint256",
          "name": "",
          "type": "uint256"
        }
      ],
      "stateMutability": "view",
      "type": "function"
    },
    {
      "inputs": [
        {
          "internalType": "uint256",
          "name": "tokenId",
          "type": "uint256"
        }
      ],
      "name": "tokenURI",
      "outputs": [
        {
          "internalType": "string",
          "name": "",
          "type": "string"
        }
      ],
      "stateMutability": "view",
      "type": "function"
    },
    {
      "inputs": [],
      "name": "totalSupply",
      "outputs": [
        {
          "internalType": "uint256",
          "name": "",
          "type": "uint256"
        }
      ],
      "stateMutability": "view",
      "type": "function"
    },
    {
      "inputs": [
        {
          "internalType": "address",
          "name": "from",
          "type": "address"
        },
        {
          "internalType": "address",
          "name": "to",
          "type": "address"
        },
        {
          "internalType": "uint256",
          "name": "tokenId",
          "type": "uint256"
        }
      ],
      "name": "transferFrom",
      "outputs": [],
      "stateMutability": "nonpayable",
      "type": "function"
    },
    {
      "inputs": [
        {
          "internalType": "address",
          "name": "newOwner",
          "type": "address"
        }
      ],
      "name": "transferOwnership",
      "outputs": [],
      "stateMutability": "nonpayable",
      "type": "function"
    },
    {
      "inputs": [],
      "name": "vaultImplementation",
      "outputs": [
        {
          "internalType": "address",
          "name": "",
          "type": "address"
        }
      ],
      "stateMutability": "view",
      "type": "function"
    },
    {
      "inputs": [
        {
          "internalType": "uint256",
          "name": "_nutId",
          "type": "uint256"
        },
        {
          "internalType": "string",
          "name": "_nutCID",
          "type": "string"
        }
      ],
      "name": "setTokenURI",
      "outputs": [],
      "stateMutability": "nonpayable",
      "type": "function"
    },
    {
      "inputs": [
        {
          "internalType": "uint256",
          "name": "_nutId",
          "type": "uint256"
        }
      ],
      "name": "getOwnerOf",
      "outputs": [
        {
          "internalType": "address",
          "name": "",
          "type": "address"
        }
      ],
      "stateMutability": "view",
      "type": "function"
    },
    {
      "inputs": [],
      "name": "createVault",
      "outputs": [
        {
          "internalType": "address",
          "name": "",
          "type": "address"
        }
      ],
      "stateMutability": "nonpayable",
      "type": "function"
    },
    {
      "inputs": [],
      "name": "withdraw",
      "outputs": [],
      "stateMutability": "nonpayable",
      "type": "function"
    },
    {
      "inputs": [
        {
          "internalType": "string",
          "name": "_cidPath",
          "type": "string"
        },
        {
          "internalType": "bytes",
          "name": "_signature",
          "type": "bytes"
        }
      ],
      "name": "createNut",
      "outputs": [
        {
          "internalType": "bool",
          "name": "",
          "type": "bool"
        }
      ],
      "stateMutability": "nonpayable",
      "type": "function"
    },
    {
      "inputs": [
        {
          "internalType": "uint256",
          "name": "_nutId",
          "type": "uint256"
        },
        {
          "internalType": "bytes32",
          "name": "_secretHash",
          "type": "bytes32"
        },
        {
          "internalType": "string",
          "name": "_cidPath",
          "type": "string"
        },
        {
          "internalType": "bytes",
          "name": "_signature",
          "type": "bytes"
        }
      ],
      "name": "createSeed",
      "outputs": [
        {
          "internalType": "bool",
          "name": "",
          "type": "bool"
        }
      ],
      "stateMutability": "payable",
      "type": "function"
    },
    {
      "inputs": [
        {
          "internalType": "uint256",
          "name": "_nutId",
          "type": "uint256"
        },
        {
          "internalType": "bytes32",
          "name": "_secretHash",
          "type": "bytes32"
        },
        {
          "internalType": "uint256",
          "name": "_matterContributed",
          "type": "uint256"
        },
        {
          "internalType": "uint256",
          "name": "_matterDrawRate",
          "type": "uint256"
        },
        {
          "internalType": "string",
          "name": "_cidPath",
          "type": "string"
        },
        {
          "internalType": "bytes",
          "name": "_signature",
          "type": "bytes"
        }
      ],
      "name": "createButter",
      "outputs": [],
      "stateMutability": "nonpayable",
      "type": "function"
    },
    {
      "inputs": [
        {
          "internalType": "uint256",
          "name": "_tokenId",
          "type": "uint256"
        },
        {
          "internalType": "string",
          "name": "_cidPath",
          "type": "string"
        },
        {
          "internalType": "bytes",
          "name": "_signature",
          "type": "bytes"
        }
      ],
      "name": "spreadButter",
      "outputs": [
        {
          "internalType": "bool",
          "name": "",
          "type": "bool"
        }
      ],
      "stateMutability": "nonpayable",
      "type": "function"
    }
  ],
  "bytecode": "0x60806040523480156200001157600080fd5b50604051620054f5380380620054f583398181016040528101906200003791906200041e565b8484848484848481600090816200004f919062000725565b50806001908162000061919062000725565b50505062000084620000786200011d60201b60201c565b6200012560201b60201c565b82600c8190555081600d60006101000a81548173ffffffffffffffffffffffffffffffffffffffff021916908373ffffffffffffffffffffffffffffffffffffffff16021790555080600e60006101000a81548173ffffffffffffffffffffffffffffffffffffffff021916908373ffffffffffffffffffffffffffffffffffffffff160217905550505050505050505050506200080c565b600033905090565b6000600b60009054906101000a900473ffffffffffffffffffffffffffffffffffffffff16905081600b60006101000a81548173ffffffffffffffffffffffffffffffffffffffff021916908373ffffffffffffffffffffffffffffffffffffffff1602179055508173ffffffffffffffffffffffffffffffffffffffff168173ffffffffffffffffffffffffffffffffffffffff167f8be0079c531659141344cd1fd0a4f28419497f9722a3daafe3b4186f6b6457e060405160405180910390a35050565b6000604051905090565b600080fd5b600080fd5b600080fd5b600080fd5b6000601f19601f8301169050919050565b7f4e487b7100000000000000000000000000000000000000000000000000000000600052604160045260246000fd5b620002548262000209565b810181811067ffffffffffffffff821117156200027657620002756200021a565b5b80604052505050565b60006200028b620001eb565b905062000299828262000249565b919050565b600067ffffffffffffffff821115620002bc57620002bb6200021a565b5b620002c78262000209565b9050602081019050919050565b60005b83811015620002f4578082015181840152602081019050620002d7565b60008484015250505050565b60006200031762000311846200029e565b6200027f565b90508281526020810184848401111562000336576200033562000204565b5b62000343848285620002d4565b509392505050565b600082601f830112620003635762000362620001ff565b5b81516200037584826020860162000300565b91505092915050565b6000819050919050565b62000393816200037e565b81146200039f57600080fd5b50565b600081519050620003b38162000388565b92915050565b600073ffffffffffffffffffffffffffffffffffffffff82169050919050565b6000620003e682620003b9565b9050919050565b620003f881620003d9565b81146200040457600080fd5b50565b6000815190506200041881620003ed565b92915050565b600080600080600060a086880312156200043d576200043c620001f5565b5b600086015167ffffffffffffffff8111156200045e576200045d620001fa565b5b6200046c888289016200034b565b955050602086015167ffffffffffffffff81111562000490576200048f620001fa565b5b6200049e888289016200034b565b9450506040620004b188828901620003a2565b9350506060620004c48882890162000407565b9250506080620004d78882890162000407565b9150509295509295909350565b600081519050919050565b7f4e487b7100000000000000000000000000000000000000000000000000000000600052602260045260246000fd5b600060028204905060018216806200053757607f821691505b6020821081036200054d576200054c620004ef565b5b50919050565b60008190508160005260206000209050919050565b60006020601f8301049050919050565b600082821b905092915050565b600060088302620005b77fffffffffffffffffffffffffffffffffffffffffffffffffffffffffffffffff8262000578565b620005c3868362000578565b95508019841693508086168417925050509392505050565b6000819050919050565b60006200060662000600620005fa846200037e565b620005db565b6200037e565b9050919050565b6000819050919050565b6200062283620005e5565b6200063a62000631826200060d565b84845462000585565b825550505050565b600090565b6200065162000642565b6200065e81848462000617565b505050565b5b8181101562000686576200067a60008262000647565b60018101905062000664565b5050565b601f821115620006d5576200069f8162000553565b620006aa8462000568565b81016020851015620006ba578190505b620006d2620006c98562000568565b83018262000663565b50505b505050565b600082821c905092915050565b6000620006fa60001984600802620006da565b1980831691505092915050565b6000620007158383620006e7565b9150826002028217905092915050565b6200073082620004e4565b67ffffffffffffffff8111156200074c576200074b6200021a565b5b6200075882546200051e565b620007658282856200068a565b600060209050601f8311600181146200079d576000841562000788578287015190505b62000794858262000707565b86555062000804565b601f198416620007ad8662000553565b60005b82811015620007d757848901518255600182019150602085019450602081019050620007b0565b86831015620007f75784890151620007f3601f891682620006e7565b8355505b6001600288020188555050505b505050505050565b614cd9806200081c6000396000f3fe6080604052600436106101ee5760003560e01c80636352211e1161010d578063a0e12efe116100a0578063c87b56dd1161006f578063c87b56dd14610704578063e985e9c514610741578063f23c95831461077e578063f2b97ee2146107ae578063f2fde38b146107d9576101ee565b8063a0e12efe1461064a578063a22cb46514610687578063b88d4fde146106b0578063bba48a90146106d9576101ee565b80638da5cb5b116100dc5780638da5cb5b1461058c5780639092c31c146105b75780639202c1ec146105e257806395d89b411461061f576101ee565b80636352211e146104be57806370a08231146104fb578063715018a614610538578063836387101461054f576101ee565b80632f745c59116101855780634f6ccce7116101545780634f6ccce71461041157806355951ab01461044e5780635d12928b1461046a5780635f9ff4a114610495576101ee565b80632f745c59146103695780633434735f146103a65780633ccfd60b146103d157806342842e0e146103e8576101ee565b8063095ea7b3116101c1578063095ea7b3146102c3578063162094c4146102ec57806318160ddd1461031557806323b872dd14610340576101ee565b806301ffc9a7146101f357806306fdde031461023057806307604b1a1461025b578063081812fc14610286575b600080fd5b3480156101ff57600080fd5b5061021a60048036038101906102159190612ff6565b610802565b604051610227919061303e565b60405180910390f35b34801561023c57600080fd5b50610245610814565b60405161025291906130e9565b60405180910390f35b34801561026757600080fd5b506102706108a6565b60405161027d919061314c565b60405180910390f35b34801561029257600080fd5b506102ad60048036038101906102a8919061319d565b6108cc565b6040516102ba919061314c565b60405180910390f35b3480156102cf57600080fd5b506102ea60048036038101906102e591906131f6565b610951565b005b3480156102f857600080fd5b50610313600480360381019061030e919061336b565b610a68565b005b34801561032157600080fd5b5061032a610a76565b60405161033791906133d6565b60405180910390f35b34801561034c57600080fd5b50610367600480360381019061036291906133f1565b610a83565b005b34801561037557600080fd5b50610390600480360381019061038b91906131f6565b610ae3565b60405161039d91906133d6565b60405180910390f35b3480156103b257600080fd5b506103bb610b88565b6040516103c8919061314c565b60405180910390f35b3480156103dd57600080fd5b506103e6610bae565b005b3480156103f457600080fd5b5061040f600480360381019061040a91906133f1565b610cbc565b005b34801561041d57600080fd5b506104386004803603810190610433919061319d565b610cdc565b60405161044591906133d6565b60405180910390f35b6104686004803603810190610463919061336b565b610d4d565b005b34801561047657600080fd5b5061047f610e58565b60405161048c919061314c565b60405180910390f35b3480156104a157600080fd5b506104bc60048036038101906104b7919061351b565b610e8b565b005b3480156104ca57600080fd5b506104e560048036038101906104e0919061319d565b61103f565b6040516104f2919061314c565b60405180910390f35b34801561050757600080fd5b50610522600480360381019061051d91906135e0565b6110f0565b60405161052f91906133d6565b60405180910390f35b34801561054457600080fd5b5061054d6111a7565b005b34801561055b57600080fd5b506105766004803603810190610571919061319d565b61122f565b604051610583919061314c565b60405180910390f35b34801561059857600080fd5b506105a1611241565b6040516105ae919061314c565b60405180910390f35b3480156105c357600080fd5b506105cc61126b565b6040516105d9919061314c565b60405180910390f35b3480156105ee57600080fd5b506106096004803603810190610604919061360d565b611291565b604051610616919061303e565b60405180910390f35b34801561062b57600080fd5b5061063461132f565b60405161064191906130e9565b60405180910390f35b34801561065657600080fd5b50610671600480360381019061066c9190613698565b6113c1565b60405161067e919061303e565b60405180910390f35b34801561069357600080fd5b506106ae60048036038101906106a9919061373c565b611474565b005b3480156106bc57600080fd5b506106d760048036038101906106d2919061377c565b61148a565b005b3480156106e557600080fd5b506106ee6114ec565b6040516106fb919061314c565b60405180910390f35b34801561071057600080fd5b5061072b6004803603810190610726919061319d565b611512565b60405161073891906130e9565b60405180910390f35b34801561074d57600080fd5b50610768600480360381019061076391906137ff565b611524565b604051610775919061303e565b60405180910390f35b6107986004803603810190610793919061383f565b6115b8565b6040516107a5919061303e565b60405180910390f35b3480156107ba57600080fd5b506107c36117ba565b6040516107d091906133d6565b60405180910390f35b3480156107e557600080fd5b5061080060048036038101906107fb91906135e0565b6117c0565b005b600061080d826118b7565b9050919050565b6060600080546108239061390d565b80601f016020809104026020016040519081016040528092919081815260200182805461084f9061390d565b801561089c5780601f106108715761010080835404028352916020019161089c565b820191906000526020600020905b81548152906001019060200180831161087f57829003601f168201915b5050505050905090565b600e60009054906101000a900473ffffffffffffffffffffffffffffffffffffffff1681565b60006108d782611931565b610916576040517f08c379a000000000000000000000000000000000000000000000000000000000815260040161090d906139b0565b60405180910390fd5b6004600083815260200190815260200160002060009054906101000a900473ffffffffffffffffffffffffffffffffffffffff169050919050565b600061095c8261103f565b90508073ffffffffffffffffffffffffffffffffffffffff168373ffffffffffffffffffffffffffffffffffffffff16036109cc576040517f08c379a00000000000000000000000000000000000000000000000000000000081526004016109c390613a42565b60405180910390fd5b8073ffffffffffffffffffffffffffffffffffffffff166109eb61199d565b73ffffffffffffffffffffffffffffffffffffffff161480610a1a5750610a1981610a1461199d565b611524565b5b610a59576040517f08c379a0000000000000000000000000000000000000000000000000000000008152600401610a5090613ad4565b60405180910390fd5b610a6383836119a5565b505050565b610a728282611a5e565b5050565b6000600880549050905090565b610a94610a8e61199d565b82611acb565b610ad3576040517f08c379a0000000000000000000000000000000000000000000000000000000008152600401610aca90613b66565b60405180910390fd5b610ade838383611ba9565b505050565b6000610aee836110f0565b8210610b2f576040517f08c379a0000000000000000000000000000000000000000000000000000000008152600401610b2690613bf8565b60405180910390fd5b600660008473ffffffffffffffffffffffffffffffffffffffff1673ffffffffffffffffffffffffffffffffffffffff168152602001908152602001600020600083815260200190815260200160002054905092915050565b600d60009054906101000a900473ffffffffffffffffffffffffffffffffffffffff1681565b610bb661199d565b73ffffffffffffffffffffffffffffffffffffffff16610bd4611241565b73ffffffffffffffffffffffffffffffffffffffff1614610c2a576040517f08c379a0000000000000000000000000000000000000000000000000000000008152600401610c2190613c64565b60405180910390fd5b600047905060004711610c72576040517f08c379a0000000000000000000000000000000000000000000000000000000008152600401610c6990613cd0565b60405180910390fd5b3373ffffffffffffffffffffffffffffffffffffffff166108fc829081150290604051600060405180830381858888f19350505050158015610cb8573d6000803e3d6000fd5b5050565b610cd78383836040518060200160405280600081525061148a565b505050565b6000610ce6610a76565b8210610d27576040517f08c379a0000000000000000000000000000000000000000000000000000000008152600401610d1e90613d62565b60405180910390fd5b60088281548110610d3b57610d3a613d82565b5b90600052602060002001549050919050565b610d80600e60009054906101000a900473ffffffffffffffffffffffffffffffffffffffff16610d7b610a76565b611e0f565b610d91610d8b610a76565b82611a5e565b600e60009054906101000a900473ffffffffffffffffffffffffffffffffffffffff1673ffffffffffffffffffffffffffffffffffffffff16631c85949c600e60009054906101000a900473ffffffffffffffffffffffffffffffffffffffff16846040518363ffffffff1660e01b8152600401610e10929190613db1565b6020604051808303816000875af1158015610e2f573d6000803e3d6000fd5b505050506040513d601f19601f82011682018060405250810190610e539190613def565b505050565b6000610e86600d60009054906101000a900473ffffffffffffffffffffffffffffffffffffffff1630611e2d565b905090565b610e948661103f565b73ffffffffffffffffffffffffffffffffffffffff163373ffffffffffffffffffffffffffffffffffffffff1614610f01576040517f08c379a0000000000000000000000000000000000000000000000000000000008152600401610ef890613e68565b60405180910390fd5b600e60009054906101000a900473ffffffffffffffffffffffffffffffffffffffff1673ffffffffffffffffffffffffffffffffffffffff166303f5de9d878686896040518563ffffffff1660e01b8152600401610f629493929190613e97565b6020604051808303816000875af1158015610f81573d6000803e3d6000fd5b505050506040513d601f19601f82011682018060405250810190610fa59190613def565b50600f60009054906101000a900473ffffffffffffffffffffffffffffffffffffffff1673ffffffffffffffffffffffffffffffffffffffff1663bd6af0098784846040518463ffffffff1660e01b815260040161100593929190613f31565b600060405180830381600087803b15801561101f57600080fd5b505af1158015611033573d6000803e3d6000fd5b50505050505050505050565b6000806002600084815260200190815260200160002060009054906101000a900473ffffffffffffffffffffffffffffffffffffffff169050600073ffffffffffffffffffffffffffffffffffffffff168173ffffffffffffffffffffffffffffffffffffffff16036110e7576040517f08c379a00000000000000000000000000000000000000000000000000000000081526004016110de90613fe8565b60405180910390fd5b80915050919050565b60008073ffffffffffffffffffffffffffffffffffffffff168273ffffffffffffffffffffffffffffffffffffffff1603611160576040517f08c379a00000000000000000000000000000000000000000000000000000000081526004016111579061407a565b60405180910390fd5b600360008373ffffffffffffffffffffffffffffffffffffffff1673ffffffffffffffffffffffffffffffffffffffff168152602001908152602001600020549050919050565b6111af61199d565b73ffffffffffffffffffffffffffffffffffffffff166111cd611241565b73ffffffffffffffffffffffffffffffffffffffff1614611223576040517f08c379a000000000000000000000000000000000000000000000000000000000815260040161121a90613c64565b60405180910390fd5b61122d6000611f37565b565b600061123a8261103f565b9050919050565b6000600b60009054906101000a900473ffffffffffffffffffffffffffffffffffffffff16905090565b600f60009054906101000a900473ffffffffffffffffffffffffffffffffffffffff1681565b6000600f60009054906101000a900473ffffffffffffffffffffffffffffffffffffffff1673ffffffffffffffffffffffffffffffffffffffff1663bd6af0098585856040518463ffffffff1660e01b81526004016112f293929190613f31565b600060405180830381600087803b15801561130c57600080fd5b505af1158015611320573d6000803e3d6000fd5b50505050600190509392505050565b60606001805461133e9061390d565b80601f016020809104026020016040519081016040528092919081815260200182805461136a9061390d565b80156113b75780601f1061138c576101008083540402835291602001916113b7565b820191906000526020600020905b81548152906001019060200180831161139a57829003601f168201915b5050505050905090565b6000806113cc610a76565b90506113d83382611e0f565b600f60009054906101000a900473ffffffffffffffffffffffffffffffffffffffff1673ffffffffffffffffffffffffffffffffffffffff1663bd6af0098286866040518463ffffffff1660e01b815260040161143793929190613f31565b600060405180830381600087803b15801561145157600080fd5b505af1158015611465573d6000803e3d6000fd5b50505050600191505092915050565b61148661147f61199d565b8383611ffd565b5050565b61149b61149561199d565b83611acb565b6114da576040517f08c379a00000000000000000000000000000000000000000000000000000000081526004016114d190613b66565b60405180910390fd5b6114e684848484612169565b50505050565b601060009054906101000a900473ffffffffffffffffffffffffffffffffffffffff1681565b606061151d826121c5565b9050919050565b6000600560008473ffffffffffffffffffffffffffffffffffffffff1673ffffffffffffffffffffffffffffffffffffffff16815260200190815260200160002060008373ffffffffffffffffffffffffffffffffffffffff1673ffffffffffffffffffffffffffffffffffffffff16815260200190815260200160002060009054906101000a900460ff16905092915050565b60006115c38561103f565b73ffffffffffffffffffffffffffffffffffffffff163373ffffffffffffffffffffffffffffffffffffffff1614611630576040517f08c379a000000000000000000000000000000000000000000000000000000000815260040161162790613e68565b60405180910390fd5b600c5461163b610a76565b101561167c576040517f08c379a0000000000000000000000000000000000000000000000000000000008152600401611673906140e6565b60405180910390fd5b600e60009054906101000a900473ffffffffffffffffffffffffffffffffffffffff1673ffffffffffffffffffffffffffffffffffffffff1663fe774f9d86866040518363ffffffff1660e01b81526004016116d9929190614106565b6020604051808303816000875af11580156116f8573d6000803e3d6000fd5b505050506040513d601f19601f8201168201806040525081019061171c9190613def565b50600f60009054906101000a900473ffffffffffffffffffffffffffffffffffffffff1673ffffffffffffffffffffffffffffffffffffffff1663bd6af0098685856040518463ffffffff1660e01b815260040161177c93929190613f31565b600060405180830381600087803b15801561179657600080fd5b505af11580156117aa573d6000803e3d6000fd5b5050505060019050949350505050565b600c5481565b6117c861199d565b73ffffffffffffffffffffffffffffffffffffffff166117e6611241565b73ffffffffffffffffffffffffffffffffffffffff161461183c576040517f08c379a000000000000000000000000000000000000000000000000000000000815260040161183390613c64565b60405180910390fd5b600073ffffffffffffffffffffffffffffffffffffffff168173ffffffffffffffffffffffffffffffffffffffff16036118ab576040517f08c379a00000000000000000000000000000000000000000000000000000000081526004016118a2906141a1565b60405180910390fd5b6118b481611f37565b50565b60007f780e9d63000000000000000000000000000000000000000000000000000000007bffffffffffffffffffffffffffffffffffffffffffffffffffffffff1916827bffffffffffffffffffffffffffffffffffffffffffffffffffffffff1916148061192a575061192982612316565b5b9050919050565b60008073ffffffffffffffffffffffffffffffffffffffff166002600084815260200190815260200160002060009054906101000a900473ffffffffffffffffffffffffffffffffffffffff1673ffffffffffffffffffffffffffffffffffffffff1614159050919050565b600033905090565b816004600083815260200190815260200160002060006101000a81548173ffffffffffffffffffffffffffffffffffffffff021916908373ffffffffffffffffffffffffffffffffffffffff160217905550808273ffffffffffffffffffffffffffffffffffffffff16611a188361103f565b73ffffffffffffffffffffffffffffffffffffffff167f8c5be1e5ebec7d5bd14f71427d1e84f3dd0314c0f7b2291e5b200ac8c7c3b92560405160405180910390a45050565b611a6782611931565b611aa6576040517f08c379a0000000000000000000000000000000000000000000000000000000008152600401611a9d90614233565b60405180910390fd5b80600a60008481526020019081526020016000209081611ac691906143ff565b505050565b6000611ad682611931565b611b15576040517f08c379a0000000000000000000000000000000000000000000000000000000008152600401611b0c90614543565b60405180910390fd5b6000611b208361103f565b90508073ffffffffffffffffffffffffffffffffffffffff168473ffffffffffffffffffffffffffffffffffffffff161480611b625750611b618185611524565b5b80611ba057508373ffffffffffffffffffffffffffffffffffffffff16611b88846108cc565b73ffffffffffffffffffffffffffffffffffffffff16145b91505092915050565b8273ffffffffffffffffffffffffffffffffffffffff16611bc98261103f565b73ffffffffffffffffffffffffffffffffffffffff1614611c1f576040517f08c379a0000000000000000000000000000000000000000000000000000000008152600401611c16906145d5565b60405180910390fd5b600073ffffffffffffffffffffffffffffffffffffffff168273ffffffffffffffffffffffffffffffffffffffff1603611c8e576040517f08c379a0000000000000000000000000000000000000000000000000000000008152600401611c8590614667565b60405180910390fd5b611c998383836123f8565b611ca46000826119a5565b6001600360008573ffffffffffffffffffffffffffffffffffffffff1673ffffffffffffffffffffffffffffffffffffffff1681526020019081526020016000206000828254611cf491906146b6565b925050819055506001600360008473ffffffffffffffffffffffffffffffffffffffff1673ffffffffffffffffffffffffffffffffffffffff1681526020019081526020016000206000828254611d4b91906146ea565b92505081905550816002600083815260200190815260200160002060006101000a81548173ffffffffffffffffffffffffffffffffffffffff021916908373ffffffffffffffffffffffffffffffffffffffff160217905550808273ffffffffffffffffffffffffffffffffffffffff168473ffffffffffffffffffffffffffffffffffffffff167fddf252ad1be2c89b69c2b068fc378daa952ba7f163c4a11628f55a4df523b3ef60405160405180910390a4611e0a838383612408565b505050565b611e2982826040518060200160405280600081525061240d565b5050565b600080611e5b601060009054906101000a900473ffffffffffffffffffffffffffffffffffffffff16612468565b90508073ffffffffffffffffffffffffffffffffffffffff1663485cc95585856040518363ffffffff1660e01b8152600401611e9892919061471e565b600060405180830381600087803b158015611eb257600080fd5b505af1158015611ec6573d6000803e3d6000fd5b5050505080600f60006101000a81548173ffffffffffffffffffffffffffffffffffffffff021916908373ffffffffffffffffffffffffffffffffffffffff160217905550600f60009054906101000a900473ffffffffffffffffffffffffffffffffffffffff1691505092915050565b6000600b60009054906101000a900473ffffffffffffffffffffffffffffffffffffffff16905081600b60006101000a81548173ffffffffffffffffffffffffffffffffffffffff021916908373ffffffffffffffffffffffffffffffffffffffff1602179055508173ffffffffffffffffffffffffffffffffffffffff168173ffffffffffffffffffffffffffffffffffffffff167f8be0079c531659141344cd1fd0a4f28419497f9722a3daafe3b4186f6b6457e060405160405180910390a35050565b8173ffffffffffffffffffffffffffffffffffffffff168373ffffffffffffffffffffffffffffffffffffffff160361206b576040517f08c379a000000000000000000000000000000000000000000000000000000000815260040161206290614793565b60405180910390fd5b80600560008573ffffffffffffffffffffffffffffffffffffffff1673ffffffffffffffffffffffffffffffffffffffff16815260200190815260200160002060008473ffffffffffffffffffffffffffffffffffffffff1673ffffffffffffffffffffffffffffffffffffffff16815260200190815260200160002060006101000a81548160ff0219169083151502179055508173ffffffffffffffffffffffffffffffffffffffff168373ffffffffffffffffffffffffffffffffffffffff167f17307eab39ab6107e8899845ad3d59bd9653f200f220920489ca2b5937696c318360405161215c919061303e565b60405180910390a3505050565b612174848484611ba9565b6121808484848461253c565b6121bf576040517f08c379a00000000000000000000000000000000000000000000000000000000081526004016121b690614825565b60405180910390fd5b50505050565b60606121d082611931565b61220f576040517f08c379a0000000000000000000000000000000000000000000000000000000008152600401612206906148b7565b60405180910390fd5b6000600a6000848152602001908152602001600020805461222f9061390d565b80601f016020809104026020016040519081016040528092919081815260200182805461225b9061390d565b80156122a85780601f1061227d576101008083540402835291602001916122a8565b820191906000526020600020905b81548152906001019060200180831161228b57829003601f168201915b5050505050905060006122b96126c3565b905060008151036122ce578192505050612311565b6000825111156123035780826040516020016122eb929190614913565b60405160208183030381529060405292505050612311565b61230c84612700565b925050505b919050565b60007f80ac58cd000000000000000000000000000000000000000000000000000000007bffffffffffffffffffffffffffffffffffffffffffffffffffffffff1916827bffffffffffffffffffffffffffffffffffffffffffffffffffffffff191614806123e157507f5b5e139f000000000000000000000000000000000000000000000000000000007bffffffffffffffffffffffffffffffffffffffffffffffffffffffff1916827bffffffffffffffffffffffffffffffffffffffffffffffffffffffff1916145b806123f157506123f0826127a7565b5b9050919050565b612403838383612811565b505050565b505050565b6124178383612923565b612424600084848461253c565b612463576040517f08c379a000000000000000000000000000000000000000000000000000000000815260040161245a90614825565b60405180910390fd5b505050565b60006040517f3d602d80600a3d3981f3363d3d373d3d3d363d7300000000000000000000000081528260601b60148201527f5af43d82803e903d91602b57fd5bf3000000000000000000000000000000000060288201526037816000f0915050600073ffffffffffffffffffffffffffffffffffffffff168173ffffffffffffffffffffffffffffffffffffffff1603612537576040517f08c379a000000000000000000000000000000000000000000000000000000000815260040161252e90614983565b60405180910390fd5b919050565b600061255d8473ffffffffffffffffffffffffffffffffffffffff16612afc565b156126b6578373ffffffffffffffffffffffffffffffffffffffff1663150b7a0261258661199d565b8786866040518563ffffffff1660e01b81526004016125a894939291906149a3565b6020604051808303816000875af19250505080156125e457506040513d601f19601f820116820180604052508101906125e19190614a04565b60015b612666573d8060008114612614576040519150601f19603f3d011682016040523d82523d6000602084013e612619565b606091505b50600081510361265e576040517f08c379a000000000000000000000000000000000000000000000000000000000815260040161265590614825565b60405180910390fd5b805181602001fd5b63150b7a0260e01b7bffffffffffffffffffffffffffffffffffffffffffffffffffffffff1916817bffffffffffffffffffffffffffffffffffffffffffffffffffffffff1916149150506126bb565b600190505b949350505050565b60606040518060400160405280601581526020017f68747470733a2f2f697066732e696f2f697066732f0000000000000000000000815250905090565b606061270b82611931565b61274a576040517f08c379a000000000000000000000000000000000000000000000000000000000815260040161274190614aa3565b60405180910390fd5b60006127546126c3565b90506000815111612774576040518060200160405280600081525061279f565b8061277e84612b1f565b60405160200161278f929190614913565b6040516020818303038152906040525b915050919050565b60007f01ffc9a7000000000000000000000000000000000000000000000000000000007bffffffffffffffffffffffffffffffffffffffffffffffffffffffff1916827bffffffffffffffffffffffffffffffffffffffffffffffffffffffff1916149050919050565b61281c838383612c7f565b600073ffffffffffffffffffffffffffffffffffffffff168373ffffffffffffffffffffffffffffffffffffffff160361285e5761285981612c84565b61289d565b8173ffffffffffffffffffffffffffffffffffffffff168373ffffffffffffffffffffffffffffffffffffffff161461289c5761289b8382612ccd565b5b5b600073ffffffffffffffffffffffffffffffffffffffff168273ffffffffffffffffffffffffffffffffffffffff16036128df576128da81612e3a565b61291e565b8273ffffffffffffffffffffffffffffffffffffffff168273ffffffffffffffffffffffffffffffffffffffff161461291d5761291c8282612f0b565b5b5b505050565b600073ffffffffffffffffffffffffffffffffffffffff168273ffffffffffffffffffffffffffffffffffffffff1603612992576040517f08c379a000000000000000000000000000000000000000000000000000000000815260040161298990614b0f565b60405180910390fd5b61299b81611931565b156129db576040517f08c379a00000000000000000000000000000000000000000000000000000000081526004016129d290614b7b565b60405180910390fd5b6129e7600083836123f8565b6001600360008473ffffffffffffffffffffffffffffffffffffffff1673ffffffffffffffffffffffffffffffffffffffff1681526020019081526020016000206000828254612a3791906146ea565b92505081905550816002600083815260200190815260200160002060006101000a81548173ffffffffffffffffffffffffffffffffffffffff021916908373ffffffffffffffffffffffffffffffffffffffff160217905550808273ffffffffffffffffffffffffffffffffffffffff16600073ffffffffffffffffffffffffffffffffffffffff167fddf252ad1be2c89b69c2b068fc378daa952ba7f163c4a11628f55a4df523b3ef60405160405180910390a4612af860008383612408565b5050565b6000808273ffffffffffffffffffffffffffffffffffffffff163b119050919050565b606060008203612b66576040518060400160405280600181526020017f30000000000000000000000000000000000000000000000000000000000000008152509050612c7a565b600082905060005b60008214612b98578080612b8190614b9b565b915050600a82612b919190614c12565b9150612b6e565b60008167ffffffffffffffff811115612bb457612bb3613240565b5b6040519080825280601f01601f191660200182016040528015612be65781602001600182028036833780820191505090505b5090505b60008514612c7357600182612bff91906146b6565b9150600a85612c0e9190614c43565b6030612c1a91906146ea565b60f81b818381518110612c3057612c2f613d82565b5b60200101907effffffffffffffffffffffffffffffffffffffffffffffffffffffffffffff1916908160001a905350600a85612c6c9190614c12565b9450612bea565b8093505050505b919050565b505050565b6008805490506009600083815260200190815260200160002081905550600881908060018154018082558091505060019003906000526020600020016000909190919091505550565b60006001612cda846110f0565b612ce491906146b6565b9050600060076000848152602001908152602001600020549050818114612dc9576000600660008673ffffffffffffffffffffffffffffffffffffffff1673ffffffffffffffffffffffffffffffffffffffff168152602001908152602001600020600084815260200190815260200160002054905080600660008773ffffffffffffffffffffffffffffffffffffffff1673ffffffffffffffffffffffffffffffffffffffff168152602001908152602001600020600084815260200190815260200160002081905550816007600083815260200190815260200160002081905550505b6007600084815260200190815260200160002060009055600660008573ffffffffffffffffffffffffffffffffffffffff1673ffffffffffffffffffffffffffffffffffffffff16815260200190815260200160002060008381526020019081526020016000206000905550505050565b60006001600880549050612e4e91906146b6565b9050600060096000848152602001908152602001600020549050600060088381548110612e7e57612e7d613d82565b5b906000526020600020015490508060088381548110612ea057612e9f613d82565b5b906000526020600020018190555081600960008381526020019081526020016000208190555060096000858152602001908152602001600020600090556008805480612eef57612eee614c74565b5b6001900381819060005260206000200160009055905550505050565b6000612f16836110f0565b905081600660008573ffffffffffffffffffffffffffffffffffffffff1673ffffffffffffffffffffffffffffffffffffffff168152602001908152602001600020600083815260200190815260200160002081905550806007600084815260200190815260200160002081905550505050565b6000604051905090565b600080fd5b600080fd5b60007fffffffff0000000000000000000000000000000000000000000000000000000082169050919050565b612fd381612f9e565b8114612fde57600080fd5b50565b600081359050612ff081612fca565b92915050565b60006020828403121561300c5761300b612f94565b5b600061301a84828501612fe1565b91505092915050565b60008115159050919050565b61303881613023565b82525050565b6000602082019050613053600083018461302f565b92915050565b600081519050919050565b600082825260208201905092915050565b60005b83811015613093578082015181840152602081019050613078565b60008484015250505050565b6000601f19601f8301169050919050565b60006130bb82613059565b6130c58185613064565b93506130d5818560208601613075565b6130de8161309f565b840191505092915050565b6000602082019050818103600083015261310381846130b0565b905092915050565b600073ffffffffffffffffffffffffffffffffffffffff82169050919050565b60006131368261310b565b9050919050565b6131468161312b565b82525050565b6000602082019050613161600083018461313d565b92915050565b6000819050919050565b61317a81613167565b811461318557600080fd5b50565b60008135905061319781613171565b92915050565b6000602082840312156131b3576131b2612f94565b5b60006131c184828501613188565b91505092915050565b6131d38161312b565b81146131de57600080fd5b50565b6000813590506131f0816131ca565b92915050565b6000806040838503121561320d5761320c612f94565b5b600061321b858286016131e1565b925050602061322c85828601613188565b9150509250929050565b600080fd5b600080fd5b7f4e487b7100000000000000000000000000000000000000000000000000000000600052604160045260246000fd5b6132788261309f565b810181811067ffffffffffffffff8211171561329757613296613240565b5b80604052505050565b60006132aa612f8a565b90506132b6828261326f565b919050565b600067ffffffffffffffff8211156132d6576132d5613240565b5b6132df8261309f565b9050602081019050919050565b82818337600083830152505050565b600061330e613309846132bb565b6132a0565b90508281526020810184848401111561332a5761332961323b565b5b6133358482856132ec565b509392505050565b600082601f83011261335257613351613236565b5b81356133628482602086016132fb565b91505092915050565b6000806040838503121561338257613381612f94565b5b600061339085828601613188565b925050602083013567ffffffffffffffff8111156133b1576133b0612f99565b5b6133bd8582860161333d565b9150509250929050565b6133d081613167565b82525050565b60006020820190506133eb60008301846133c7565b92915050565b60008060006060848603121561340a57613409612f94565b5b6000613418868287016131e1565b9350506020613429868287016131e1565b925050604061343a86828701613188565b9150509250925092565b6000819050919050565b61345781613444565b811461346257600080fd5b50565b6000813590506134748161344e565b92915050565b600067ffffffffffffffff82111561349557613494613240565b5b61349e8261309f565b9050602081019050919050565b60006134be6134b98461347a565b6132a0565b9050828152602081018484840111156134da576134d961323b565b5b6134e58482856132ec565b509392505050565b600082601f83011261350257613501613236565b5b81356135128482602086016134ab565b91505092915050565b60008060008060008060c0878903121561353857613537612f94565b5b600061354689828a01613188565b965050602061355789828a01613465565b955050604061356889828a01613188565b945050606061357989828a01613188565b935050608087013567ffffffffffffffff81111561359a57613599612f99565b5b6135a689828a0161333d565b92505060a087013567ffffffffffffffff8111156135c7576135c6612f99565b5b6135d389828a016134ed565b9150509295509295509295565b6000602082840312156135f6576135f5612f94565b5b6000613604848285016131e1565b91505092915050565b60008060006060848603121561362657613625612f94565b5b600061363486828701613188565b935050602084013567ffffffffffffffff81111561365557613654612f99565b5b6136618682870161333d565b925050604084013567ffffffffffffffff81111561368257613681612f99565b5b61368e868287016134ed565b9150509250925092565b600080604083850312156136af576136ae612f94565b5b600083013567ffffffffffffffff8111156136cd576136cc612f99565b5b6136d98582860161333d565b925050602083013567ffffffffffffffff8111156136fa576136f9612f99565b5b613706858286016134ed565b9150509250929050565b61371981613023565b811461372457600080fd5b50565b60008135905061373681613710565b92915050565b6000806040838503121561375357613752612f94565b5b6000613761858286016131e1565b925050602061377285828601613727565b9150509250929050565b6000806000806080858703121561379657613795612f94565b5b60006137a4878288016131e1565b94505060206137b5878288016131e1565b93505060406137c687828801613188565b925050606085013567ffffffffffffffff8111156137e7576137e6612f99565b5b6137f3878288016134ed565b91505092959194509250565b6000806040838503121561381657613815612f94565b5b6000613824858286016131e1565b9250506020613835858286016131e1565b9150509250929050565b6000806000806080858703121561385957613858612f94565b5b600061386787828801613188565b945050602061387887828801613465565b935050604085013567ffffffffffffffff81111561389957613898612f99565b5b6138a58782880161333d565b925050606085013567ffffffffffffffff8111156138c6576138c5612f99565b5b6138d2878288016134ed565b91505092959194509250565b7f4e487b7100000000000000000000000000000000000000000000000000000000600052602260045260246000fd5b6000600282049050600182168061392557607f821691505b602082108103613938576139376138de565b5b50919050565b7f4552433732313a20617070726f76656420717565727920666f72206e6f6e657860008201527f697374656e7420746f6b656e0000000000000000000000000000000000000000602082015250565b600061399a602c83613064565b91506139a58261393e565b604082019050919050565b600060208201905081810360008301526139c98161398d565b9050919050565b7f4552433732313a20617070726f76616c20746f2063757272656e74206f776e6560008201527f7200000000000000000000000000000000000000000000000000000000000000602082015250565b6000613a2c602183613064565b9150613a37826139d0565b604082019050919050565b60006020820190508181036000830152613a5b81613a1f565b9050919050565b7f4552433732313a20617070726f76652063616c6c6572206973206e6f74206f7760008201527f6e6572206e6f7220617070726f76656420666f7220616c6c0000000000000000602082015250565b6000613abe603883613064565b9150613ac982613a62565b604082019050919050565b60006020820190508181036000830152613aed81613ab1565b9050919050565b7f4552433732313a207472616e736665722063616c6c6572206973206e6f74206f60008201527f776e6572206e6f7220617070726f766564000000000000000000000000000000602082015250565b6000613b50603183613064565b9150613b5b82613af4565b604082019050919050565b60006020820190508181036000830152613b7f81613b43565b9050919050565b7f455243373231456e756d657261626c653a206f776e657220696e646578206f7560008201527f74206f6620626f756e6473000000000000000000000000000000000000000000602082015250565b6000613be2602b83613064565b9150613bed82613b86565b604082019050919050565b60006020820190508181036000830152613c1181613bd5565b9050919050565b7f4f776e61626c653a2063616c6c6572206973206e6f7420746865206f776e6572600082015250565b6000613c4e602083613064565b9150613c5982613c18565b602082019050919050565b60006020820190508181036000830152613c7d81613c41565b9050919050565b7f4e6f2062616c616e636520746f20776974686472617700000000000000000000600082015250565b6000613cba601683613064565b9150613cc582613c84565b602082019050919050565b60006020820190508181036000830152613ce981613cad565b9050919050565b7f455243373231456e756d657261626c653a20676c6f62616c20696e646578206f60008201527f7574206f6620626f756e64730000000000000000000000000000000000000000602082015250565b6000613d4c602c83613064565b9150613d5782613cf0565b604082019050919050565b60006020820190508181036000830152613d7b81613d3f565b9050919050565b7f4e487b7100000000000000000000000000000000000000000000000000000000600052603260045260246000fd5b6000604082019050613dc6600083018561313d565b613dd360208301846133c7565b9392505050565b600081519050613de981613710565b92915050565b600060208284031215613e0557613e04612f94565b5b6000613e1384828501613dda565b91505092915050565b7f43616c6c6572206973206e6f74206f776e6572206f66206e7574000000000000600082015250565b6000613e52601a83613064565b9150613e5d82613e1c565b602082019050919050565b60006020820190508181036000830152613e8181613e45565b9050919050565b613e9181613444565b82525050565b6000608082019050613eac60008301876133c7565b613eb960208301866133c7565b613ec660408301856133c7565b613ed36060830184613e88565b95945050505050565b600081519050919050565b600082825260208201905092915050565b6000613f0382613edc565b613f0d8185613ee7565b9350613f1d818560208601613075565b613f268161309f565b840191505092915050565b6000606082019050613f4660008301866133c7565b8181036020830152613f5881856130b0565b90508181036040830152613f6c8184613ef8565b9050949350505050565b7f4552433732313a206f776e657220717565727920666f72206e6f6e657869737460008201527f656e7420746f6b656e0000000000000000000000000000000000000000000000602082015250565b6000613fd2602983613064565b9150613fdd82613f76565b604082019050919050565b6000602082019050818103600083015261400181613fc5565b9050919050565b7f4552433732313a2062616c616e636520717565727920666f7220746865207a6560008201527f726f206164647265737300000000000000000000000000000000000000000000602082015250565b6000614064602a83613064565b915061406f82614008565b604082019050919050565b6000602082019050818103600083015261409381614057565b9050919050565b7f4e757473207374696c6c2065786973742066726f6d206372656174696f6e0000600082015250565b60006140d0601e83613064565b91506140db8261409a565b602082019050919050565b600060208201905081810360008301526140ff816140c3565b9050919050565b600060408201905061411b60008301856133c7565b6141286020830184613e88565b9392505050565b7f4f776e61626c653a206e6577206f776e657220697320746865207a65726f206160008201527f6464726573730000000000000000000000000000000000000000000000000000602082015250565b600061418b602683613064565b91506141968261412f565b604082019050919050565b600060208201905081810360008301526141ba8161417e565b9050919050565b7f45524337323155524953746f726167653a2055524920736574206f66206e6f6e60008201527f6578697374656e7420746f6b656e000000000000000000000000000000000000602082015250565b600061421d602e83613064565b9150614228826141c1565b604082019050919050565b6000602082019050818103600083015261424c81614210565b9050919050565b60008190508160005260206000209050919050565b60006020601f8301049050919050565b600082821b905092915050565b6000600883026142b57fffffffffffffffffffffffffffffffffffffffffffffffffffffffffffffffff82614278565b6142bf8683614278565b95508019841693508086168417925050509392505050565b6000819050919050565b60006142fc6142f76142f284613167565b6142d7565b613167565b9050919050565b6000819050919050565b614316836142e1565b61432a61432282614303565b848454614285565b825550505050565b600090565b61433f614332565b61434a81848461430d565b505050565b5b8181101561436e57614363600082614337565b600181019050614350565b5050565b601f8211156143b35761438481614253565b61438d84614268565b8101602085101561439c578190505b6143b06143a885614268565b83018261434f565b50505b505050565b600082821c905092915050565b60006143d6600019846008026143b8565b1980831691505092915050565b60006143ef83836143c5565b9150826002028217905092915050565b61440882613059565b67ffffffffffffffff81111561442157614420613240565b5b61442b825461390d565b614436828285614372565b600060209050601f8311600181146144695760008415614457578287015190505b61446185826143e3565b8655506144c9565b601f19841661447786614253565b60005b8281101561449f5784890151825560018201915060208501945060208101905061447a565b868310156144bc57848901516144b8601f8916826143c5565b8355505b6001600288020188555050505b505050505050565b7f4552433732313a206f70657261746f7220717565727920666f72206e6f6e657860008201527f697374656e7420746f6b656e0000000000000000000000000000000000000000602082015250565b600061452d602c83613064565b9150614538826144d1565b604082019050919050565b6000602082019050818103600083015261455c81614520565b9050919050565b7f4552433732313a207472616e736665722066726f6d20696e636f72726563742060008201527f6f776e6572000000000000000000000000000000000000000000000000000000602082015250565b60006145bf602583613064565b91506145ca82614563565b604082019050919050565b600060208201905081810360008301526145ee816145b2565b9050919050565b7f4552433732313a207472616e7366657220746f20746865207a65726f2061646460008201527f7265737300000000000000000000000000000000000000000000000000000000602082015250565b6000614651602483613064565b915061465c826145f5565b604082019050919050565b6000602082019050818103600083015261468081614644565b9050919050565b7f4e487b7100000000000000000000000000000000000000000000000000000000600052601160045260246000fd5b60006146c182613167565b91506146cc83613167565b92508282039050818111156146e4576146e3614687565b5b92915050565b60006146f582613167565b915061470083613167565b925082820190508082111561471857614717614687565b5b92915050565b6000604082019050614733600083018561313d565b614740602083018461313d565b9392505050565b7f4552433732313a20617070726f766520746f2063616c6c657200000000000000600082015250565b600061477d601983613064565b915061478882614747565b602082019050919050565b600060208201905081810360008301526147ac81614770565b9050919050565b7f4552433732313a207472616e7366657220746f206e6f6e20455243373231526560008201527f63656976657220696d706c656d656e7465720000000000000000000000000000602082015250565b600061480f603283613064565b915061481a826147b3565b604082019050919050565b6000602082019050818103600083015261483e81614802565b9050919050565b7f45524337323155524953746f726167653a2055524920717565727920666f722060008201527f6e6f6e6578697374656e7420746f6b656e000000000000000000000000000000602082015250565b60006148a1603183613064565b91506148ac82614845565b604082019050919050565b600060208201905081810360008301526148d081614894565b9050919050565b600081905092915050565b60006148ed82613059565b6148f781856148d7565b9350614907818560208601613075565b80840191505092915050565b600061491f82856148e2565b915061492b82846148e2565b91508190509392505050565b7f455243313136373a20637265617465206661696c656400000000000000000000600082015250565b600061496d601683613064565b915061497882614937565b602082019050919050565b6000602082019050818103600083015261499c81614960565b9050919050565b60006080820190506149b8600083018761313d565b6149c5602083018661313d565b6149d260408301856133c7565b81810360608301526149e48184613ef8565b905095945050505050565b6000815190506149fe81612fca565b92915050565b600060208284031215614a1a57614a19612f94565b5b6000614a28848285016149ef565b91505092915050565b7f4552433732314d657461646174613a2055524920717565727920666f72206e6f60008201527f6e6578697374656e7420746f6b656e0000000000000000000000000000000000602082015250565b6000614a8d602f83613064565b9150614a9882614a31565b604082019050919050565b60006020820190508181036000830152614abc81614a80565b9050919050565b7f4552433732313a206d696e7420746f20746865207a65726f2061646472657373600082015250565b6000614af9602083613064565b9150614b0482614ac3565b602082019050919050565b60006020820190508181036000830152614b2881614aec565b9050919050565b7f4552433732313a20746f6b656e20616c7265616479206d696e74656400000000600082015250565b6000614b65601c83613064565b9150614b7082614b2f565b602082019050919050565b60006020820190508181036000830152614b9481614b58565b9050919050565b6000614ba682613167565b91507fffffffffffffffffffffffffffffffffffffffffffffffffffffffffffffffff8203614bd857614bd7614687565b5b600182019050919050565b7f4e487b7100000000000000000000000000000000000000000000000000000000600052601260045260246000fd5b6000614c1d82613167565b9150614c2883613167565b925082614c3857614c37614be3565b5b828204905092915050565b6000614c4e82613167565b9150614c5983613167565b925082614c6957614c68614be3565b5b828206905092915050565b7f4e487b7100000000000000000000000000000000000000000000000000000000600052603160045260246000fdfea2646970667358221220835ce8da9e9f2de566b48fa9562fb2324b2604aea7f464155d2b1c221c29cc8c64736f6c63430008110033",
  "immutableReferences": {},
  "source": "// SPDX-License-Identifier: MIT\npragma solidity ^0.8.7;\n\nimport \"./CosmoCreation.sol\";\nimport \"./ICosmoNuts.sol\";\nimport \"./ICosmoVault.sol\";\n\n/**\n * Main Contract for the NFT tokens.\n * System address resembles the public address of the software application.\n */\ncontract CosmoNuts is CosmoCreation, ICosmoNuts {\n\n    using ECDSA for bytes32;\n\n    constructor(\n        string memory _name,\n        string memory _symbol,\n        uint256 _initialNFTSupply,\n        address _systemAddress,\n        address _treasuryAddress\n    )\n        CosmoCreation(_name, _symbol, _initialNFTSupply, _systemAddress, _treasuryAddress)\n    {}\n\n    function setTokenURI(uint256 _nutId, string memory _nutCID) external virtual override {\n        _setTokenURI(_nutId, _nutCID);\n    }\n\n    function getOwnerOf(uint256 _nutId) public view virtual override returns (address) {\n        return ownerOf(_nutId);\n    }\n\n    function createVault() external virtual override returns (address) {\n        return openVault(SYSTEM_ADDRESS, address(this));\n    }\n\n    // only system address?\n    function withdraw() public onlyOwner {\n        uint256 balance = address(this).balance;\n        require(address(this).balance > 0 wei, \"No balance to withdraw\");\n        payable(msg.sender).transfer(balance);\n    }\n\n    //only system address?\n    /*\n    function turnSaleOn() public onlyOwner {\n        vault.lightsOn();\n    }\n    */\n\n    /*\n     * Called from CosmoSeed to mint a new Nut\n     */\n    function createNut(\n        string memory _cidPath,\n        bytes memory _signature\n    ) external virtual override returns (bool) {\n        uint256 mintIndex = totalSupply();\n        _safeMint(msg.sender, mintIndex);\n        //changeTokenURI(mintIndex, _cidPath, _signature);\n        ICosmoVault(VAULT_ADDRESS).changeTokenURI(\n            mintIndex, _cidPath, _signature\n        );\n        return true;\n    }\n\n    /**\n     * Function callable by Nut owner to create a seed which has the potential to turn into a new Nut.\n     * Requires the input of a secretHash and a specified amount of Ether to create.\n     * A required level of matter must be burned which is equal to the amount of seeds you have in Universe\n     * multiplied by the matterRate.\n     */\n    function createSeed(\n        uint256 _nutId,\n        bytes32 _secretHash,\n        string memory _cidPath,\n        bytes memory _signature\n        )\n        public payable returns (bool) {\n            require(address(msg.sender) == ownerOf(_nutId), \"Caller is not owner of nut\");\n            require(totalSupply() >= NUTS_INITIAL, \"Nuts still exist from creation\");\n\n            ICosmoTreasury(TREASURY_ADDRESS).spawnSeed(_nutId, _secretHash);\n            //changeTokenURI(_nutId, _cidPath, _signature);\n            ICosmoVault(VAULT_ADDRESS).changeTokenURI(\n                _nutId, _cidPath, _signature\n            );\n\n            return true;\n    }\n\n    /**\n     * Function callable by Nut owner to create a matter faucet which allows other users to draw matter\n     * Creation requires a secret hash that must be known to suppy matter\n     * Creation requires input of total number of matter in contract and the amount each user can draw at a single time\n     * Drawing any amount of matter results in the creation of new supply of matter\n     * In creating the faucet, the creator replenishes the accounts of other nut holders (tax on system to create message)\n     * Caller will also receive matter if others call on this function\n     */\n    function createButter(\n        uint256 _nutId,\n        bytes32 _secretHash,\n        uint256 _matterContributed,\n        uint256 _matterDrawRate,\n        string memory _cidPath,\n        bytes memory _signature\n    ) public {\n        require(address(msg.sender) == ownerOf(_nutId), \"Caller is not owner of nut\");\n        ICosmoTreasury(TREASURY_ADDRESS).newButter(_nutId, _matterContributed, _matterDrawRate, _secretHash);\n        //changeTokenURI(_nutId, _cidPath, _signature);\n        ICosmoVault(VAULT_ADDRESS).changeTokenURI(\n            _nutId, _cidPath, _signature\n        );\n    }\n\n    /**\n     * Called by CosmoButter when some matter is drawn from the contract.\n     */\n    function spreadButter(\n        uint256 _tokenId,\n        string memory _cidPath,\n        bytes memory _signature\n        ) external virtual override returns (bool) {\n        //changeTokenURI(_tokenId, _cidPath, _signature);\n        ICosmoVault(VAULT_ADDRESS).changeTokenURI(\n            _tokenId, _cidPath, _signature\n        );\n        return true;\n    }\n\n}\n",
  "sourcePath": "/home/redlentils/Seafile/Websites/avatarnft/contracts/CosmoNuts.sol",
  "compiler": {
    "name": "solc",
    "version": "0.8.17+commit.8df45f5f.Emscripten.clang"
  },
  "schemaVersion": "3.4.10",
  "updatedAt": "2022-10-18T14:09:13.544Z",
  "devdoc": {
    "kind": "dev",
    "methods": {
      "approve(address,uint256)": {
        "details": "See {IERC721-approve}."
      },
      "balanceOf(address)": {
        "details": "See {IERC721-balanceOf}."
      },
      "getApproved(uint256)": {
        "details": "See {IERC721-getApproved}."
      },
      "isApprovedForAll(address,address)": {
        "details": "See {IERC721-isApprovedForAll}."
      },
      "name()": {
        "details": "See {IERC721Metadata-name}."
      },
      "owner()": {
        "details": "Returns the address of the current owner."
      },
      "ownerOf(uint256)": {
        "details": "See {IERC721-ownerOf}."
      },
      "renounceOwnership()": {
        "details": "Leaves the contract without owner. It will not be possible to call `onlyOwner` functions anymore. Can only be called by the current owner. NOTE: Renouncing ownership will leave the contract without an owner, thereby removing any functionality that is only available to the owner."
      },
      "safeTransferFrom(address,address,uint256)": {
        "details": "See {IERC721-safeTransferFrom}."
      },
      "safeTransferFrom(address,address,uint256,bytes)": {
        "details": "See {IERC721-safeTransferFrom}."
      },
      "setApprovalForAll(address,bool)": {
        "details": "See {IERC721-setApprovalForAll}."
      },
      "symbol()": {
        "details": "See {IERC721Metadata-symbol}."
      },
      "tokenByIndex(uint256)": {
        "details": "See {IERC721Enumerable-tokenByIndex}."
      },
      "tokenOfOwnerByIndex(address,uint256)": {
        "details": "See {IERC721Enumerable-tokenOfOwnerByIndex}."
      },
      "totalSupply()": {
        "details": "See {IERC721Enumerable-totalSupply}."
      },
      "transferFrom(address,address,uint256)": {
        "details": "See {IERC721-transferFrom}."
      },
      "transferOwnership(address)": {
        "details": "Transfers ownership of the contract to a new account (`newOwner`). Can only be called by the current owner."
      }
    },
    "version": 1
  },
  "userdoc": {
    "kind": "user",
    "methods": {
      "createButter(uint256,bytes32,uint256,uint256,string,bytes)": {
        "notice": "Function callable by Nut owner to create a matter faucet which allows other users to draw matter Creation requires a secret hash that must be known to suppy matter Creation requires input of total number of matter in contract and the amount each user can draw at a single time Drawing any amount of matter results in the creation of new supply of matter In creating the faucet, the creator replenishes the accounts of other nut holders (tax on system to create message) Caller will also receive matter if others call on this function"
      },
      "createSeed(uint256,bytes32,string,bytes)": {
        "notice": "Function callable by Nut owner to create a seed which has the potential to turn into a new Nut. Requires the input of a secretHash and a specified amount of Ether to create. A required level of matter must be burned which is equal to the amount of seeds you have in Universe multiplied by the matterRate."
      },
      "spreadButter(uint256,string,bytes)": {
        "notice": "Called by CosmoButter when some matter is drawn from the contract."
      }
    },
    "notice": "Main Contract for the NFT tokens. System address resembles the public address of the software application.",
    "version": 1
  }
}