{
  "contractName": "CosmoBang",
  "abi": [
    {
      "inputs": [],
      "name": "COSMO_ADDRESS",
      "outputs": [
        {
          "internalType": "address",
          "name": "",
          "type": "address"
        }
      ],
      "stateMutability": "view",
      "type": "function"
    },
    {
      "inputs": [],
      "name": "TREASURY_ADDRESS",
      "outputs": [
        {
          "internalType": "address",
          "name": "",
          "type": "address"
        }
      ],
      "stateMutability": "view",
      "type": "function"
    },
    {
      "inputs": [
        {
          "internalType": "address",
          "name": "_systemAddress",
          "type": "address"
        },
        {
          "internalType": "address",
          "name": "_matterAddress",
          "type": "address"
        },
        {
          "internalType": "string",
          "name": "_cosmosName",
          "type": "string"
        },
        {
          "internalType": "string",
          "name": "_cosmosSymbol",
          "type": "string"
        },
        {
          "internalType": "uint256",
          "name": "_desiredEntities",
          "type": "uint256"
        },
        {
          "internalType": "uint256",
          "name": "_matterRate",
          "type": "uint256"
        }
      ],
      "name": "nutBang",
      "outputs": [],
      "stateMutability": "nonpayable",
      "type": "function"
    }
  ],
  "bytecode": "0x608060405234801561001057600080fd5b5061aee2806100206000396000f3fe60806040523480156200001157600080fd5b5060043610620000465760003560e01c806307604b1a146200004b578063235d2c8a146200006d5780635c2aa1e4146200008f575b600080fd5b62000055620000af565b60405162000064919062000345565b60405180910390f35b62000077620000d5565b60405162000086919062000345565b60405180910390f35b620000ad6004803603810190620000a7919062000544565b620000f9565b005b600160009054906101000a900473ffffffffffffffffffffffffffffffffffffffff1681565b60008054906101000a900473ffffffffffffffffffffffffffffffffffffffff1681565b84816040516200010990620002e4565b620001169291906200062f565b604051809103906000f08015801562000133573d6000803e3d6000fd5b50600360006101000a81548173ffffffffffffffffffffffffffffffffffffffff021916908373ffffffffffffffffffffffffffffffffffffffff16021790555083838388600360009054906101000a900473ffffffffffffffffffffffffffffffffffffffff16604051620001a990620002f2565b620001b9959493929190620006e5565b604051809103906000f080158015620001d6573d6000803e3d6000fd5b50600260006101000a81548173ffffffffffffffffffffffffffffffffffffffff021916908373ffffffffffffffffffffffffffffffffffffffff160217905550600360009054906101000a900473ffffffffffffffffffffffffffffffffffffffff16600160006101000a81548173ffffffffffffffffffffffffffffffffffffffff021916908373ffffffffffffffffffffffffffffffffffffffff160217905550600260009054906101000a900473ffffffffffffffffffffffffffffffffffffffff166000806101000a81548173ffffffffffffffffffffffffffffffffffffffff021916908373ffffffffffffffffffffffffffffffffffffffff160217905550505050505050565b614ab0806200075183390190565b615cac806200520183390190565b600073ffffffffffffffffffffffffffffffffffffffff82169050919050565b60006200032d8262000300565b9050919050565b6200033f8162000320565b82525050565b60006020820190506200035c600083018462000334565b92915050565b6000604051905090565b600080fd5b600080fd5b620003818162000320565b81146200038d57600080fd5b50565b600081359050620003a18162000376565b92915050565b600080fd5b600080fd5b6000601f19601f8301169050919050565b7f4e487b7100000000000000000000000000000000000000000000000000000000600052604160045260246000fd5b620003fc82620003b1565b810181811067ffffffffffffffff821117156200041e576200041d620003c2565b5b80604052505050565b60006200043362000362565b9050620004418282620003f1565b919050565b600067ffffffffffffffff821115620004645762000463620003c2565b5b6200046f82620003b1565b9050602081019050919050565b82818337600083830152505050565b6000620004a26200049c8462000446565b62000427565b905082815260208101848484011115620004c157620004c0620003ac565b5b620004ce8482856200047c565b509392505050565b600082601f830112620004ee57620004ed620003a7565b5b8135620005008482602086016200048b565b91505092915050565b6000819050919050565b6200051e8162000509565b81146200052a57600080fd5b50565b6000813590506200053e8162000513565b92915050565b60008060008060008060c087890312156200056457620005636200036c565b5b60006200057489828a0162000390565b96505060206200058789828a0162000390565b955050604087013567ffffffffffffffff811115620005ab57620005aa62000371565b5b620005b989828a01620004d6565b945050606087013567ffffffffffffffff811115620005dd57620005dc62000371565b5b620005eb89828a01620004d6565b9350506080620005fe89828a016200052d565b92505060a06200061189828a016200052d565b9150509295509295509295565b620006298162000509565b82525050565b600060408201905062000646600083018562000334565b6200065560208301846200061e565b9392505050565b600081519050919050565b600082825260208201905092915050565b60005b83811015620006985780820151818401526020810190506200067b565b60008484015250505050565b6000620006b1826200065c565b620006bd818562000667565b9350620006cf81856020860162000678565b620006da81620003b1565b840191505092915050565b600060a0820190508181036000830152620007018188620006a4565b90508181036020830152620007178187620006a4565b90506200072860408301866200061e565b62000737606083018562000334565b62000746608083018462000334565b969550505050505056fe6080604052600080556000600755600060085560006009556000600f553480156200002957600080fd5b5060405162004ab038038062004ab083398181016040528101906200004f919062000144565b81601260006101000a81548173ffffffffffffffffffffffffffffffffffffffff021916908373ffffffffffffffffffffffffffffffffffffffff1602179055508060148190555050506200018b565b600080fd5b600073ffffffffffffffffffffffffffffffffffffffff82169050919050565b6000620000d182620000a4565b9050919050565b620000e381620000c4565b8114620000ef57600080fd5b50565b6000815190506200010381620000d8565b92915050565b6000819050919050565b6200011e8162000109565b81146200012a57600080fd5b50565b6000815190506200013e8162000113565b92915050565b600080604083850312156200015e576200015d6200009f565b5b60006200016e85828601620000f2565b925050602062000181858286016200012d565b9150509250929050565b614915806200019b6000396000f3fe608060405260043610620002065760003560e01c806349a6b51f116200011b578063b8a9736d11620000a3578063ea988be8116200006d578063ea988be81462000867578063f50d43491462000897578063f6317f8d14620008db578063fe774f9d146200090b5762000206565b8063b8a9736d146200077f578063d4d8103214620007af578063df4f5ccc14620007f3578063ea0f136614620008235762000206565b8063733b0bca11620000e5578063733b0bca146200069b5780639578d3df14620006c95780639cee22b1146200070d578063aef054ce146200073b5762000206565b806349a6b51f14620005b35780634ffe5a6f14620005e357806353f97bc8146200062757806364b1b663146200066b5762000206565b806326342ea4116200019f5780633279bd4f11620001695780633279bd4f14620004a357806334fc122814620004e757806339dc84f4146200052b57806347634e1c146200056f5762000206565b806326342ea414620003bb578063282adc8c14620003eb5780632c533085146200042f57806331ad1b42146200045f5762000206565b80631821907a11620001e15780631821907a14620002c15780631c85949c14620003055780631e0b3964146200033357806323f526c014620003775762000206565b806302760a48146200020b57806303f5de9d146200024f578063171e8441146200027d575b600080fd5b3480156200021857600080fd5b5062000237600480360381019062000231919062001f3e565b6200092b565b60405162000246919062001f8d565b60405180910390f35b3480156200025c57600080fd5b506200027b600480360381019062000275919062001fe5565b6200094b565b005b3480156200028a57600080fd5b50620002a96004803603810190620002a3919062001f3e565b6200106a565b604051620002b8919062001f8d565b60405180910390f35b348015620002ce57600080fd5b50620002ed6004803603810190620002e7919062001f3e565b6200108a565b604051620002fc919062002068565b60405180910390f35b3480156200031257600080fd5b506200033160048036038101906200032b9190620020ea565b620010a2565b005b3480156200034057600080fd5b506200035f600480360381019062000359919062002131565b62001234565b6040516200036e919062002068565b60405180910390f35b3480156200038457600080fd5b50620003a360048036038101906200039d919062001f3e565b62001266565b604051620003b2919062002189565b60405180910390f35b348015620003c857600080fd5b50620003d362001299565b604051620003e2919062002068565b60405180910390f35b348015620003f857600080fd5b5062000417600480360381019062000411919062001f3e565b6200129f565b60405162000426919062002068565b60405180910390f35b3480156200043c57600080fd5b5062000447620012bf565b60405162000456919062002068565b60405180910390f35b3480156200046c57600080fd5b506200048b600480360381019062000485919062001f3e565b620012c5565b6040516200049a919062002068565b60405180910390f35b348015620004b057600080fd5b50620004cf6004803603810190620004c9919062001f3e565b620012dd565b604051620004de919062002068565b60405180910390f35b348015620004f457600080fd5b506200051360048036038101906200050d919062001f3e565b620012f5565b60405162000522919062002068565b60405180910390f35b3480156200053857600080fd5b5062000557600480360381019062000551919062001f3e565b62001323565b60405162000566919062002189565b60405180910390f35b3480156200057c57600080fd5b506200059b600480360381019062000595919062001f3e565b62001356565b604051620005aa919062002068565b60405180910390f35b348015620005c057600080fd5b50620005cb6200136e565b604051620005da919062002068565b60405180910390f35b348015620005f057600080fd5b506200060f600480360381019062000609919062001f3e565b62001374565b6040516200061e919062002068565b60405180910390f35b3480156200063457600080fd5b506200065360048036038101906200064d919062002131565b6200138c565b60405162000662919062001f8d565b60405180910390f35b3480156200067857600080fd5b5062000683620013bb565b60405162000692919062002189565b60405180910390f35b348015620006a857600080fd5b50620006c76004803603810190620006c1919062002131565b620013e1565b005b348015620006d657600080fd5b50620006f56004803603810190620006ef919062001f3e565b62001668565b60405162000704919062002068565b60405180910390f35b3480156200071a57600080fd5b50620007396004803603810190620007339190620021a6565b6200168d565b005b3480156200074857600080fd5b5062000767600480360381019062000761919062001f3e565b620017bd565b60405162000776919062002189565b60405180910390f35b3480156200078c57600080fd5b5062000797620017f0565b604051620007a6919062002068565b60405180910390f35b348015620007bc57600080fd5b50620007db6004803603810190620007d5919062001f3e565b620017f6565b604051620007ea919062002068565b60405180910390f35b3480156200080057600080fd5b506200080b6200180e565b6040516200081a919062002068565b60405180910390f35b3480156200083057600080fd5b506200084f600480360381019062000849919062001f3e565b62001814565b6040516200085e919062002068565b60405180910390f35b3480156200087457600080fd5b506200087f6200182c565b6040516200088e919062002068565b60405180910390f35b348015620008a457600080fd5b50620008c36004803603810190620008bd919062001f3e565b62001832565b604051620008d2919062002068565b60405180910390f35b348015620008e857600080fd5b50620008f36200184a565b60405162000902919062002068565b60405180910390f35b62000929600480360381019062000923919062002218565b62001850565b005b60116020528060005260406000206000915054906101000a900460ff1681565b60006015600086815260200190815260200160002060009054906101000a900473ffffffffffffffffffffffffffffffffffffffff1690506000601260009054906101000a900473ffffffffffffffffffffffffffffffffffffffff1690503373ffffffffffffffffffffffffffffffffffffffff168273ffffffffffffffffffffffffffffffffffffffff161462000a1b576040517f08c379a000000000000000000000000000000000000000000000000000000000815260040162000a1290620022c0565b60405180910390fd5b846016600088815260200190815260200160002054101562000a74576040517f08c379a000000000000000000000000000000000000000000000000000000000815260040162000a6b9062002332565b60405180910390fd5b8073ffffffffffffffffffffffffffffffffffffffff166370a08231836040518263ffffffff1660e01b815260040162000aaf919062002189565b602060405180830381865afa15801562000acd573d6000803e3d6000fd5b505050506040513d601f19601f8201168201806040525081019062000af391906200236b565b85111562000b38576040517f08c379a000000000000000000000000000000000000000000000000000000000815260040162000b2f90620023ed565b60405180910390fd5b6000848662000b4891906200243e565b1462000b8b576040517f08c379a000000000000000000000000000000000000000000000000000000000815260040162000b8290620024c6565b60405180910390fd5b60006002600088815260200190815260200160002054111562000c195784600f600082825462000bbc919062002517565b925050819055508460106000888152602001908152602001600020600082825462000be8919062002517565b9250508190555060178690806001815401808255809150506001900390600052602060002001600090919091909150555b60008173ffffffffffffffffffffffffffffffffffffffff166370a08231306040518263ffffffff1660e01b815260040162000c56919062002189565b602060405180830381865afa15801562000c74573d6000803e3d6000fd5b505050506040513d601f19601f8201168201806040525081019062000c9a91906200236b565b9050600081111562000f8357600062000cb682600f5462001b0b565b90506000805b82811462000efe57600060178054905090506000810362000cde575062000efe565b8082111562000cec57600092505b60006017848154811062000d055762000d0462002552565b5b9060005260206000200154905060006015600083815260200190815260200160002060009054906101000a900473ffffffffffffffffffffffffffffffffffffffff1690506000601454600260008581526020019081526020016000205462000d6f919062002581565b90508060166000858152602001908152602001600020540362000db7576017868154811062000da35762000da262002552565b5b906000526020600020016000905562000ed4565b8873ffffffffffffffffffffffffffffffffffffffff1663a9059cbb8360016040518363ffffffff1660e01b815260040162000df592919062002619565b6020604051808303816000875af115801562000e15573d6000803e3d6000fd5b505050506040513d601f19601f8201168201806040525081019062000e3b919062002677565b5060178390806001815401808255809150506001900390600052602060002001600090919091909150556017868154811062000e7c5762000e7b62002552565b5b90600052602060002001600090556001600f600082825462000e9f9190620026a9565b92505081905550600160106000858152602001908152602001600020600082825462000ecc9190620026a9565b925050819055505b858062000ee190620026e4565b96505050505050808062000ef590620026e4565b91505062000cbc565b508373ffffffffffffffffffffffffffffffffffffffff166370a08231306040518263ffffffff1660e01b815260040162000f3a919062002189565b602060405180830381865afa15801562000f58573d6000803e3d6000fd5b505050506040513d601f19601f8201168201806040525081019062000f7e91906200236b565b925050505b6000600954888888308960405162000f9b9062001ee2565b62000fac9695949392919062002742565b604051809103906000f08015801562000fc9573d6000803e3d6000fd5b5090508273ffffffffffffffffffffffffffffffffffffffff1663a9059cbb82896040518363ffffffff1660e01b815260040162001009929190620027af565b6020604051808303816000875af115801562001029573d6000803e3d6000fd5b505050506040513d601f19601f820116820180604052508101906200104f919062002677565b506200106088600954838a62001b26565b5050505050505050565b60066020528060005260406000206000915054906101000a900460ff1681565b600d6020528060005260406000206000915090505481565b6000601260009054906101000a900473ffffffffffffffffffffffffffffffffffffffff1690506014548173ffffffffffffffffffffffffffffffffffffffff166370a08231306040518263ffffffff1660e01b815260040162001107919062002189565b602060405180830381865afa15801562001125573d6000803e3d6000fd5b505050506040513d601f19601f820116820180604052508101906200114b91906200236b565b10156200118f576040517f08c379a000000000000000000000000000000000000000000000000000000000815260040162001186906200282c565b60405180910390fd5b8073ffffffffffffffffffffffffffffffffffffffff1663a9059cbb846014546040518363ffffffff1660e01b8152600401620011ce929190620027af565b6020604051808303816000875af1158015620011ee573d6000803e3d6000fd5b505050506040513d601f19601f8201168201806040525081019062001214919062002677565b506014546016600084815260200190815260200160002081905550505050565b600a60205281600052604060002081815481106200125157600080fd5b90600052602060002001600091509150505481565b60056020528060005260406000206000915054906101000a900473ffffffffffffffffffffffffffffffffffffffff1681565b60095481565b6000600a6000838152602001908152602001600020805490509050919050565b60145481565b60016020528060005260406000206000915090505481565b600c6020528060005260406000206000915090505481565b600060018060008481526020019081526020016000205462001318919062002517565b601454189050919050565b60156020528060005260406000206000915054906101000a900473ffffffffffffffffffffffffffffffffffffffff1681565b600e6020528060005260406000206000915090505481565b60085481565b60106020528060005260406000206000915090505481565b60046020528160005260406000206020528060005260406000206000915091509054906101000a900460ff1681565b601260009054906101000a900473ffffffffffffffffffffffffffffffffffffffff1681565b60006005600084815260200190815260200160002060009054906101000a900473ffffffffffffffffffffffffffffffffffffffff1690508073ffffffffffffffffffffffffffffffffffffffff163373ffffffffffffffffffffffffffffffffffffffff16146200148a576040517f08c379a00000000000000000000000000000000000000000000000000000000081526004016200148190620028c4565b60405180910390fd5b60008190506000601560008373ffffffffffffffffffffffffffffffffffffffff1663685771f46040518163ffffffff1660e01b8152600401602060405180830381865afa158015620014e1573d6000803e3d6000fd5b505050506040513d601f19601f820116820180604052508101906200150791906200236b565b815260200190815260200160002060009054906101000a900473ffffffffffffffffffffffffffffffffffffffff1690506000601260009054906101000a900473ffffffffffffffffffffffffffffffffffffffff1690508073ffffffffffffffffffffffffffffffffffffffff1663a9059cbb83876040518363ffffffff1660e01b81526004016200159c929190620027af565b6020604051808303816000875af1158015620015bc573d6000803e3d6000fd5b505050506040513d601f19601f82011682018060405250810190620015e2919062002677565b508073ffffffffffffffffffffffffffffffffffffffff16634bbc1bcd3060016040518363ffffffff1660e01b81526004016200162192919062002619565b600060405180830381600087803b1580156200163c57600080fd5b505af115801562001651573d6000803e3d6000fd5b50505050620016608662001c5f565b505050505050565b601781815481106200167957600080fd5b906000526020600020016000915090505481565b6000601260009054906101000a900473ffffffffffffffffffffffffffffffffffffffff1690508073ffffffffffffffffffffffffffffffffffffffff1663a9059cbb86856040518363ffffffff1660e01b8152600401620016f1929190620027af565b6020604051808303816000875af115801562001711573d6000803e3d6000fd5b505050506040513d601f19601f8201168201806040525081019062001737919062002677565b508073ffffffffffffffffffffffffffffffffffffffff16634bbc1bcd30856040518363ffffffff1660e01b815260040162001775929190620027af565b600060405180830381600087803b1580156200179057600080fd5b505af1158015620017a5573d6000803e3d6000fd5b50505050620017b684848462001d00565b5050505050565b600b6020528060005260406000206000915054906101000a900473ffffffffffffffffffffffffffffffffffffffff1681565b60135481565b60036020528060005260406000206000915090505481565b600f5481565b60026020528060005260406000206000915090505481565b60005481565b60166020528060005260406000206000915090505481565b60075481565b60006001600260008581526020019081526020016000205462001874919062002517565b60135418905080341015620018c0576040517f08c379a0000000000000000000000000000000000000000000000000000000008152600401620018b79062002936565b60405180910390fd5b6000601260009054906101000a900473ffffffffffffffffffffffffffffffffffffffff1690506000620018f485620012f5565b905060008273ffffffffffffffffffffffffffffffffffffffff166370a082316015600089815260200190815260200160002060009054906101000a900473ffffffffffffffffffffffffffffffffffffffff166040518263ffffffff1660e01b815260040162001966919062002189565b602060405180830381865afa15801562001984573d6000803e3d6000fd5b505050506040513d601f19601f82011682018060405250810190620019aa91906200236b565b905081811015620019f2576040517f08c379a0000000000000000000000000000000000000000000000000000000008152600401620019e990620029a8565b60405180910390fd5b6000805487308860405162001a079062001ef0565b62001a169493929190620029ca565b604051809103906000f08015801562001a33573d6000803e3d6000fd5b509050600081905062001a4a886000548362001dc3565b8473ffffffffffffffffffffffffffffffffffffffff166342966c68856040518263ffffffff1660e01b815260040162001a85919062002068565b600060405180830381600087803b15801562001aa057600080fd5b505af115801562001ab5573d6000803e3d6000fd5b505050508073ffffffffffffffffffffffffffffffffffffffff166108fc349081150290604051600060405180830381858888f1935050505015801562001b00573d6000803e3d6000fd5b505050505050505050565b600081831062001b1c578162001b1e565b825b905092915050565b60016009600082825462001b3b919062002517565b92505081905550806007600082825462001b56919062002517565b92505081905550600a600085815260200190815260200160002083908060018154018082558091505060019003906000526020600020016000909190919091505580600d6000868152602001908152602001600020600082825462001bbc919062002517565b9250508190555081600b600086815260200190815260200160002060006101000a81548173ffffffffffffffffffffffffffffffffffffffff021916908373ffffffffffffffffffffffffffffffffffffffff16021790555060016011600086815260200190815260200160002060006101000a81548160ff02191690831515021790555083600e60008581526020019081526020016000208190555050505050565b6000600360008381526020019081526020016000205490506001806000838152602001908152602001600020600082825462001c9c9190620026a9565b92505081905550600160026000838152602001908152602001600020600082825462001cc9919062002517565b9250508190555060006006600083815260200190815260200160002060006101000a81548160ff0219169083151502179055505050565b816007600082825462001d149190620026a9565b92505081905550816008600082825462001d2f919062002517565b925050819055506000600e600085815260200190815260200160002054905082600c6000838152602001908152602001600020600082825462001d73919062002517565b925050819055506000838362001d8a9190620026a9565b0362001dbd5760006011600086815260200190815260200160002060006101000a81548160ff0219169083151502179055505b50505050565b8260036000848152602001908152602001600020819055506001806000858152602001908152602001600020600082825462001e00919062002517565b92505081905550600160046000848152602001908152602001600020600085815260200190815260200160002060006101000a81548160ff021916908315150217905550806005600084815260200190815260200160002060006101000a81548173ffffffffffffffffffffffffffffffffffffffff021916908373ffffffffffffffffffffffffffffffffffffffff160217905550600160008082825462001eaa919062002517565b9250508190555060016006600085815260200190815260200160002060006101000a81548160ff021916908315150217905550505050565b610d218062002a1883390190565b6111a7806200373983390190565b600080fd5b6000819050919050565b62001f188162001f03565b811462001f2457600080fd5b50565b60008135905062001f388162001f0d565b92915050565b60006020828403121562001f575762001f5662001efe565b5b600062001f678482850162001f27565b91505092915050565b60008115159050919050565b62001f878162001f70565b82525050565b600060208201905062001fa4600083018462001f7c565b92915050565b6000819050919050565b62001fbf8162001faa565b811462001fcb57600080fd5b50565b60008135905062001fdf8162001fb4565b92915050565b6000806000806080858703121562002002576200200162001efe565b5b6000620020128782880162001f27565b9450506020620020258782880162001f27565b9350506040620020388782880162001f27565b92505060606200204b8782880162001fce565b91505092959194509250565b620020628162001f03565b82525050565b60006020820190506200207f600083018462002057565b92915050565b600073ffffffffffffffffffffffffffffffffffffffff82169050919050565b6000620020b28262002085565b9050919050565b620020c481620020a5565b8114620020d057600080fd5b50565b600081359050620020e481620020b9565b92915050565b6000806040838503121562002104576200210362001efe565b5b60006200211485828601620020d3565b9250506020620021278582860162001f27565b9150509250929050565b600080604083850312156200214b576200214a62001efe565b5b60006200215b8582860162001f27565b92505060206200216e8582860162001f27565b9150509250929050565b6200218381620020a5565b82525050565b6000602082019050620021a0600083018462002178565b92915050565b60008060008060808587031215620021c357620021c262001efe565b5b6000620021d387828801620020d3565b9450506020620021e68782880162001f27565b9350506040620021f98782880162001f27565b92505060606200220c8782880162001f27565b91505092959194509250565b6000806040838503121562002232576200223162001efe565b5b6000620022428582860162001f27565b9250506020620022558582860162001fce565b9150509250929050565b600082825260208201905092915050565b7f43616c6c6572206973206e6f7420746865206f776e6572000000000000000000600082015250565b6000620022a86017836200225f565b9150620022b58262002270565b602082019050919050565b60006020820190508181036000830152620022db8162002299565b9050919050565b7f4e6f74206861766520656e6f756768206d617474657200000000000000000000600082015250565b60006200231a6016836200225f565b91506200232782620022e2565b602082019050919050565b600060208201905081810360008301526200234d816200230b565b9050919050565b600081519050620023658162001f0d565b92915050565b60006020828403121562002384576200238362001efe565b5b6000620023948482850162002354565b91505092915050565b7f4e6f74206869676820656e6f7567680000000000000000000000000000000000600082015250565b6000620023d5600f836200225f565b9150620023e2826200239d565b602082019050919050565b600060208201905081810360008301526200240881620023c6565b9050919050565b7f4e487b7100000000000000000000000000000000000000000000000000000000600052601260045260246000fd5b60006200244b8262001f03565b9150620024588362001f03565b9250826200246b576200246a6200240f565b5b828206905092915050565b7f447261772072617465206e6f7420646976697369626c65000000000000000000600082015250565b6000620024ae6017836200225f565b9150620024bb8262002476565b602082019050919050565b60006020820190508181036000830152620024e1816200249f565b9050919050565b7f4e487b7100000000000000000000000000000000000000000000000000000000600052601160045260246000fd5b6000620025248262001f03565b9150620025318362001f03565b92508282019050808211156200254c576200254b620024e8565b5b92915050565b7f4e487b7100000000000000000000000000000000000000000000000000000000600052603260045260246000fd5b60006200258e8262001f03565b91506200259b8362001f03565b9250828202620025ab8162001f03565b91508282048414831517620025c557620025c4620024e8565b5b5092915050565b6000819050919050565b6000819050919050565b600062002601620025fb620025f584620025cc565b620025d6565b62001f03565b9050919050565b6200261381620025e0565b82525050565b600060408201905062002630600083018562002178565b6200263f602083018462002608565b9392505050565b620026518162001f70565b81146200265d57600080fd5b50565b600081519050620026718162002646565b92915050565b60006020828403121562002690576200268f62001efe565b5b6000620026a08482850162002660565b91505092915050565b6000620026b68262001f03565b9150620026c38362001f03565b9250828203905081811115620026de57620026dd620024e8565b5b92915050565b6000620026f18262001f03565b91507fffffffffffffffffffffffffffffffffffffffffffffffffffffffffffffffff8203620027265762002725620024e8565b5b600182019050919050565b6200273c8162001faa565b82525050565b600060c08201905062002759600083018962002057565b62002768602083018862002057565b62002777604083018762002057565b62002786606083018662002057565b62002795608083018562002178565b620027a460a083018462002731565b979650505050505050565b6000604082019050620027c6600083018562002178565b620027d5602083018462002057565b9392505050565b7f4e6f7420656e6f756768206d6174746572000000000000000000000000000000600082015250565b6000620028146011836200225f565b91506200282182620027dc565b602082019050919050565b60006020820190508181036000830152620028478162002805565b9050919050565b7f43616c6c6572206973206e6f742074686520726967687420436f736d6f53656560008201527f6420636f6e747261637400000000000000000000000000000000000000000000602082015250565b6000620028ac602a836200225f565b9150620028b9826200284e565b604082019050919050565b60006020820190508181036000830152620028df816200289d565b9050919050565b7f45746865722076616c7565206973206e6f7420656e6f75676800000000000000600082015250565b60006200291e6019836200225f565b91506200292b82620028e6565b602082019050919050565b6000602082019050818103600083015262002951816200290f565b9050919050565b7f4d61747465722062616c616e6365206973206e6f7420656e6f75676800000000600082015250565b600062002990601c836200225f565b91506200299d8262002958565b602082019050919050565b60006020820190508181036000830152620029c38162002981565b9050919050565b6000608082019050620029e1600083018762002057565b620029f0602083018662002057565b620029ff604083018562002178565b62002a0e606083018462002731565b9594505050505056fe60806040523480156200001157600080fd5b5060405162000d2138038062000d21833981810160405281019062000037919062000283565b85600080018190555084600060010181905550836000600201819055508260006003018190555030600060040160006101000a81548173ffffffffffffffffffffffffffffffffffffffff021916908373ffffffffffffffffffffffffffffffffffffffff16021790555033600060050160006101000a81548173ffffffffffffffffffffffffffffffffffffffff021916908373ffffffffffffffffffffffffffffffffffffffff16021790555080600060060181905550600060050160009054906101000a900473ffffffffffffffffffffffffffffffffffffffff16600860006101000a81548173ffffffffffffffffffffffffffffffffffffffff021916908373ffffffffffffffffffffffffffffffffffffffff16021790555081600960006101000a81548173ffffffffffffffffffffffffffffffffffffffff021916908373ffffffffffffffffffffffffffffffffffffffff1602179055505050505050506200031f565b600080fd5b6000819050919050565b620001bd81620001a8565b8114620001c957600080fd5b50565b600081519050620001dd81620001b2565b92915050565b600073ffffffffffffffffffffffffffffffffffffffff82169050919050565b60006200021082620001e3565b9050919050565b620002228162000203565b81146200022e57600080fd5b50565b600081519050620002428162000217565b92915050565b6000819050919050565b6200025d8162000248565b81146200026957600080fd5b50565b6000815190506200027d8162000252565b92915050565b60008060008060008060c08789031215620002a357620002a2620001a3565b5b6000620002b389828a01620001cc565b9650506020620002c689828a01620001cc565b9550506040620002d989828a01620001cc565b9450506060620002ec89828a01620001cc565b9350506080620002ff89828a0162000231565b92505060a06200031289828a016200026c565b9150509295509295509295565b6109f2806200032f6000396000f3fe608060405234801561001057600080fd5b506004361061002b5760003560e01c806327ac1b6514610030575b600080fd5b61004a60048036038101906100459190610563565b61004c565b005b60011515600060070160003373ffffffffffffffffffffffffffffffffffffffff1673ffffffffffffffffffffffffffffffffffffffff16815260200190815260200160002060009054906101000a900460ff161515036100e2576040517f08c379a00000000000000000000000000000000000000000000000000000000081526004016100d990610667565b60405180910390fd5b6000806002015411610129576040517f08c379a0000000000000000000000000000000000000000000000000000000008152600401610120906106d3565b60405180910390fd5b610132836102eb565b50600960009054906101000a900473ffffffffffffffffffffffffffffffffffffffff1673ffffffffffffffffffffffffffffffffffffffff16639cee22b13360008001546000600301546000600201546040518563ffffffff1660e01b81526004016101a2949392919061074d565b600060405180830381600087803b1580156101bc57600080fd5b505af11580156101d0573d6000803e3d6000fd5b50505050600060030154600060020160008282546101ee91906107c1565b925050819055506001600060070160003373ffffffffffffffffffffffffffffffffffffffff1673ffffffffffffffffffffffffffffffffffffffff16815260200190815260200160002060006101000a81548160ff021916908315150217905550600860009054906101000a900473ffffffffffffffffffffffffffffffffffffffff1673ffffffffffffffffffffffffffffffffffffffff16639202c1ec60006001015484846040518463ffffffff1660e01b81526004016102b4939291906108b8565b600060405180830381600087803b1580156102ce57600080fd5b505af11580156102e2573d6000803e3d6000fd5b50505050505050565b600080826040516020016102ff9190610939565b604051602081830303815290604052805190602001209050600060060154811461035e576040517f08c379a00000000000000000000000000000000000000000000000000000000081526004016103559061099c565b60405180910390fd5b6001915050919050565b6000604051905090565b600080fd5b600080fd5b600080fd5b600080fd5b6000601f19601f8301169050919050565b7f4e487b7100000000000000000000000000000000000000000000000000000000600052604160045260246000fd5b6103cf82610386565b810181811067ffffffffffffffff821117156103ee576103ed610397565b5b80604052505050565b6000610401610368565b905061040d82826103c6565b919050565b600067ffffffffffffffff82111561042d5761042c610397565b5b61043682610386565b9050602081019050919050565b82818337600083830152505050565b600061046561046084610412565b6103f7565b90508281526020810184848401111561048157610480610381565b5b61048c848285610443565b509392505050565b600082601f8301126104a9576104a861037c565b5b81356104b9848260208601610452565b91505092915050565b600067ffffffffffffffff8211156104dd576104dc610397565b5b6104e682610386565b9050602081019050919050565b6000610506610501846104c2565b6103f7565b90508281526020810184848401111561052257610521610381565b5b61052d848285610443565b509392505050565b600082601f83011261054a5761054961037c565b5b813561055a8482602086016104f3565b91505092915050565b60008060006060848603121561057c5761057b610372565b5b600084013567ffffffffffffffff81111561059a57610599610377565b5b6105a686828701610494565b935050602084013567ffffffffffffffff8111156105c7576105c6610377565b5b6105d386828701610494565b925050604084013567ffffffffffffffff8111156105f4576105f3610377565b5b61060086828701610535565b9150509250925092565b600082825260208201905092915050565b7f43616e206f6e6c792064726177206f6e63650000000000000000000000000000600082015250565b600061065160128361060a565b915061065c8261061b565b602082019050919050565b6000602082019050818103600083015261068081610644565b9050919050565b7f4e6f2062757474657220746f2064726177000000000000000000000000000000600082015250565b60006106bd60118361060a565b91506106c882610687565b602082019050919050565b600060208201905081810360008301526106ec816106b0565b9050919050565b600073ffffffffffffffffffffffffffffffffffffffff82169050919050565b600061071e826106f3565b9050919050565b61072e81610713565b82525050565b6000819050919050565b61074781610734565b82525050565b60006080820190506107626000830187610725565b61076f602083018661073e565b61077c604083018561073e565b610789606083018461073e565b95945050505050565b7f4e487b7100000000000000000000000000000000000000000000000000000000600052601160045260246000fd5b60006107cc82610734565b91506107d783610734565b92508282039050818111156107ef576107ee610792565b5b92915050565b600081519050919050565b60005b8381101561081e578082015181840152602081019050610803565b60008484015250505050565b6000610835826107f5565b61083f818561060a565b935061084f818560208601610800565b61085881610386565b840191505092915050565b600081519050919050565b600082825260208201905092915050565b600061088a82610863565b610894818561086e565b93506108a4818560208601610800565b6108ad81610386565b840191505092915050565b60006060820190506108cd600083018661073e565b81810360208301526108df818561082a565b905081810360408301526108f3818461087f565b9050949350505050565b600081905092915050565b6000610913826107f5565b61091d81856108fd565b935061092d818560208601610800565b80840191505092915050565b60006109458284610908565b915081905092915050565b7f496e70757420646f6573206e6f74206d61746368207365637265740000000000600082015250565b6000610986601b8361060a565b915061099182610950565b602082019050919050565b600060208201905081810360008301526109b581610979565b905091905056fea2646970667358221220c20f0938c13e9b29ee8a6f57a43e4343ceaf28782c8056d01afd303eed99ad8d64736f6c634300081100336080604052604051620011a7380380620011a78339818101604052810190620000299190620002f4565b600033905080600760006101000a81548173ffffffffffffffffffffffffffffffffffffffff021916908373ffffffffffffffffffffffffffffffffffffffff16021790555082600860006101000a81548173ffffffffffffffffffffffffffffffffffffffff021916908373ffffffffffffffffffffffffffffffffffffffff1602179055508460008001819055508360006001018190555034600060020181905550600860009054906101000a900473ffffffffffffffffffffffffffffffffffffffff1673ffffffffffffffffffffffffffffffffffffffff166334fc1228856040518263ffffffff1660e01b81526004016200012a919062000377565b602060405180830381865afa15801562000148573d6000803e3d6000fd5b505050506040513d601f19601f820116820180604052508101906200016e919062000394565b60006003018190555030600060040160006101000a81548173ffffffffffffffffffffffffffffffffffffffff021916908373ffffffffffffffffffffffffffffffffffffffff16021790555080600060050160006101000a81548173ffffffffffffffffffffffffffffffffffffffff021916908373ffffffffffffffffffffffffffffffffffffffff160217905550816000600601819055505050505050620003c6565b600080fd5b6000819050919050565b6200022e8162000219565b81146200023a57600080fd5b50565b6000815190506200024e8162000223565b92915050565b600073ffffffffffffffffffffffffffffffffffffffff82169050919050565b6000620002818262000254565b9050919050565b620002938162000274565b81146200029f57600080fd5b50565b600081519050620002b38162000288565b92915050565b6000819050919050565b620002ce81620002b9565b8114620002da57600080fd5b50565b600081519050620002ee81620002c3565b92915050565b6000806000806080858703121562000311576200031062000214565b5b600062000321878288016200023d565b945050602062000334878288016200023d565b93505060406200034787828801620002a2565b92505060606200035a87828801620002dd565b91505092959194509250565b620003718162000219565b82525050565b60006020820190506200038e600083018462000366565b92915050565b600060208284031215620003ad57620003ac62000214565b5b6000620003bd848285016200023d565b91505092915050565b610dd180620003d66000396000f3fe608060405234801561001057600080fd5b506004361061004c5760003560e01c8063685771f4146100515780637d94792a1461006f578063956c2dc314610093578063c5d12c97146100af575b600080fd5b6100596100cd565b60405161006691906105ef565b60405180910390f35b6100776100d9565b60405161008a9796959493929190610664565b60405180910390f35b6100ad60048036038101906100a891906108ce565b610149565b005b6100b761054d565b6040516100c491906105ef565b60405180910390f35b60008060010154905090565b60008060000154908060010154908060020154908060030154908060040160009054906101000a900473ffffffffffffffffffffffffffffffffffffffff16908060050160009054906101000a900473ffffffffffffffffffffffffffffffffffffffff16908060060154905087565b61015283610559565b50600860009054906101000a900473ffffffffffffffffffffffffffffffffffffffff1673ffffffffffffffffffffffffffffffffffffffff1663733b0bca60008001546000600301546040518363ffffffff1660e01b81526004016101b9929190610975565b600060405180830381600087803b1580156101d357600080fd5b505af11580156101e7573d6000803e3d6000fd5b50505050600760009054906101000a900473ffffffffffffffffffffffffffffffffffffffff1673ffffffffffffffffffffffffffffffffffffffff1663a0e12efe83836040518363ffffffff1660e01b8152600401610248929190610a72565b600060405180830381600087803b15801561026257600080fd5b505af1158015610276573d6000803e3d6000fd5b505050506000600860009054906101000a900473ffffffffffffffffffffffffffffffffffffffff1673ffffffffffffffffffffffffffffffffffffffff1663b8a9736d6040518163ffffffff1660e01b8152600401602060405180830381865afa1580156102e9573d6000803e3d6000fd5b505050506040513d601f19601f8201168201806040525081019061030d9190610ad5565b90506000600860009054906101000a900473ffffffffffffffffffffffffffffffffffffffff1673ffffffffffffffffffffffffffffffffffffffff168260405161035790610b33565b60006040518083038185875af1925050503d8060008114610394576040519150601f19603f3d011682016040523d82523d6000602084013e610399565b606091505b50509050806103dd576040517f08c379a00000000000000000000000000000000000000000000000000000000081526004016103d490610b94565b60405180910390fd5b6000826000600201546103f09190610be3565b90506000600760009054906101000a900473ffffffffffffffffffffffffffffffffffffffff1673ffffffffffffffffffffffffffffffffffffffff16636352211e6000600101546040518263ffffffff1660e01b815260040161045491906105ef565b602060405180830381865afa158015610471573d6000803e3d6000fd5b505050506040513d601f19601f820116820180604052508101906104959190610c43565b905060008173ffffffffffffffffffffffffffffffffffffffff16836040516104bd90610b33565b60006040518083038185875af1925050503d80600081146104fa576040519150601f19603f3d011682016040523d82523d6000602084013e6104ff565b606091505b5050905080610543576040517f08c379a000000000000000000000000000000000000000000000000000000000815260040161053a90610cbc565b60405180910390fd5b5050505050505050565b60008060030154905090565b6000808260405160200161056d9190610d18565b60405160208183030381529060405280519060200120905060006006015481146105cc576040517f08c379a00000000000000000000000000000000000000000000000000000000081526004016105c390610d7b565b60405180910390fd5b6001915050919050565b6000819050919050565b6105e9816105d6565b82525050565b600060208201905061060460008301846105e0565b92915050565b600073ffffffffffffffffffffffffffffffffffffffff82169050919050565b60006106358261060a565b9050919050565b6106458161062a565b82525050565b6000819050919050565b61065e8161064b565b82525050565b600060e082019050610679600083018a6105e0565b61068660208301896105e0565b61069360408301886105e0565b6106a060608301876105e0565b6106ad608083018661063c565b6106ba60a083018561063c565b6106c760c0830184610655565b98975050505050505050565b6000604051905090565b600080fd5b600080fd5b600080fd5b600080fd5b6000601f19601f8301169050919050565b7f4e487b7100000000000000000000000000000000000000000000000000000000600052604160045260246000fd5b61073a826106f1565b810181811067ffffffffffffffff8211171561075957610758610702565b5b80604052505050565b600061076c6106d3565b90506107788282610731565b919050565b600067ffffffffffffffff82111561079857610797610702565b5b6107a1826106f1565b9050602081019050919050565b82818337600083830152505050565b60006107d06107cb8461077d565b610762565b9050828152602081018484840111156107ec576107eb6106ec565b5b6107f78482856107ae565b509392505050565b600082601f830112610814576108136106e7565b5b81356108248482602086016107bd565b91505092915050565b600067ffffffffffffffff82111561084857610847610702565b5b610851826106f1565b9050602081019050919050565b600061087161086c8461082d565b610762565b90508281526020810184848401111561088d5761088c6106ec565b5b6108988482856107ae565b509392505050565b600082601f8301126108b5576108b46106e7565b5b81356108c584826020860161085e565b91505092915050565b6000806000606084860312156108e7576108e66106dd565b5b600084013567ffffffffffffffff811115610905576109046106e2565b5b610911868287016107ff565b935050602084013567ffffffffffffffff811115610932576109316106e2565b5b61093e868287016107ff565b925050604084013567ffffffffffffffff81111561095f5761095e6106e2565b5b61096b868287016108a0565b9150509250925092565b600060408201905061098a60008301856105e0565b61099760208301846105e0565b9392505050565b600081519050919050565b600082825260208201905092915050565b60005b838110156109d85780820151818401526020810190506109bd565b60008484015250505050565b60006109ef8261099e565b6109f981856109a9565b9350610a098185602086016109ba565b610a12816106f1565b840191505092915050565b600081519050919050565b600082825260208201905092915050565b6000610a4482610a1d565b610a4e8185610a28565b9350610a5e8185602086016109ba565b610a67816106f1565b840191505092915050565b60006040820190508181036000830152610a8c81856109e4565b90508181036020830152610aa08184610a39565b90509392505050565b610ab2816105d6565b8114610abd57600080fd5b50565b600081519050610acf81610aa9565b92915050565b600060208284031215610aeb57610aea6106dd565b5b6000610af984828501610ac0565b91505092915050565b600081905092915050565b50565b6000610b1d600083610b02565b9150610b2882610b0d565b600082019050919050565b6000610b3e82610b10565b9150819050919050565b7f4574686572206e6f742073656e7420746f205472656173757279000000000000600082015250565b6000610b7e601a836109a9565b9150610b8982610b48565b602082019050919050565b60006020820190508181036000830152610bad81610b71565b9050919050565b7f4e487b7100000000000000000000000000000000000000000000000000000000600052601160045260246000fd5b6000610bee826105d6565b9150610bf9836105d6565b9250828203905081811115610c1157610c10610bb4565b5b92915050565b610c208161062a565b8114610c2b57600080fd5b50565b600081519050610c3d81610c17565b92915050565b600060208284031215610c5957610c586106dd565b5b6000610c6784828501610c2e565b91505092915050565b7f4574686572206e6f742073656e7420746f20706172656e74206e757400000000600082015250565b6000610ca6601c836109a9565b9150610cb182610c70565b602082019050919050565b60006020820190508181036000830152610cd581610c99565b9050919050565b600081905092915050565b6000610cf28261099e565b610cfc8185610cdc565b9350610d0c8185602086016109ba565b80840191505092915050565b6000610d248284610ce7565b915081905092915050565b7f496e70757420646f6573206e6f74206d61746368207365637265740000000000600082015250565b6000610d65601b836109a9565b9150610d7082610d2f565b602082019050919050565b60006020820190508181036000830152610d9481610d58565b905091905056fea2646970667358221220c76ab29c697727efde08779d4795a5ab97c98cd8605f39234a8abc7cb7d3ce8564736f6c63430008110033a26469706673582212205a006a7bd6e4cf4b2952003f49275f70c282a08b474ac57e572df47277a8083c64736f6c6343000811003360806040526305f5e1006002556000601260006101000a81548160ff0219169083151502179055503480156200003457600080fd5b5060405162005cac38038062005cac83398181016040528101906200005a9190620004e9565b848484848484848383816000806101000a81548173ffffffffffffffffffffffffffffffffffffffff021916908373ffffffffffffffffffffffffffffffffffffffff16021790555080600160006101000a81548173ffffffffffffffffffffffffffffffffffffffff021916908373ffffffffffffffffffffffffffffffffffffffff16021790555080600360006101000a81548173ffffffffffffffffffffffffffffffffffffffff021916908373ffffffffffffffffffffffffffffffffffffffff16021790555050508160049081620001389190620007f0565b5080600590816200014a9190620007f0565b5050506200016d62000161620001db60201b60201c565b620001e360201b60201c565b6200017d620002a960201b60201c565b6011819055508260108190555080600160006101000a81548173ffffffffffffffffffffffffffffffffffffffff021916908373ffffffffffffffffffffffffffffffffffffffff16021790555050505050505050505050620008d7565b600033905090565b6000600f60009054906101000a900473ffffffffffffffffffffffffffffffffffffffff16905081600f60006101000a81548173ffffffffffffffffffffffffffffffffffffffff021916908373ffffffffffffffffffffffffffffffffffffffff1602179055508173ffffffffffffffffffffffffffffffffffffffff168173ffffffffffffffffffffffffffffffffffffffff167f8be0079c531659141344cd1fd0a4f28419497f9722a3daafe3b4186f6b6457e060405160405180910390a35050565b6000600c80549050905090565b6000604051905090565b600080fd5b600080fd5b600080fd5b600080fd5b6000601f19601f8301169050919050565b7f4e487b7100000000000000000000000000000000000000000000000000000000600052604160045260246000fd5b6200031f82620002d4565b810181811067ffffffffffffffff82111715620003415762000340620002e5565b5b80604052505050565b600062000356620002b6565b905062000364828262000314565b919050565b600067ffffffffffffffff821115620003875762000386620002e5565b5b6200039282620002d4565b9050602081019050919050565b60005b83811015620003bf578082015181840152602081019050620003a2565b60008484015250505050565b6000620003e2620003dc8462000369565b6200034a565b905082815260208101848484011115620004015762000400620002cf565b5b6200040e8482856200039f565b509392505050565b600082601f8301126200042e576200042d620002ca565b5b815162000440848260208601620003cb565b91505092915050565b6000819050919050565b6200045e8162000449565b81146200046a57600080fd5b50565b6000815190506200047e8162000453565b92915050565b600073ffffffffffffffffffffffffffffffffffffffff82169050919050565b6000620004b18262000484565b9050919050565b620004c381620004a4565b8114620004cf57600080fd5b50565b600081519050620004e381620004b8565b92915050565b600080600080600060a08688031215620005085762000507620002c0565b5b600086015167ffffffffffffffff811115620005295762000528620002c5565b5b620005378882890162000416565b955050602086015167ffffffffffffffff8111156200055b576200055a620002c5565b5b620005698882890162000416565b94505060406200057c888289016200046d565b93505060606200058f88828901620004d2565b9250506080620005a288828901620004d2565b9150509295509295909350565b600081519050919050565b7f4e487b7100000000000000000000000000000000000000000000000000000000600052602260045260246000fd5b600060028204905060018216806200060257607f821691505b602082108103620006185762000617620005ba565b5b50919050565b60008190508160005260206000209050919050565b60006020601f8301049050919050565b600082821b905092915050565b600060088302620006827fffffffffffffffffffffffffffffffffffffffffffffffffffffffffffffffff8262000643565b6200068e868362000643565b95508019841693508086168417925050509392505050565b6000819050919050565b6000620006d1620006cb620006c58462000449565b620006a6565b62000449565b9050919050565b6000819050919050565b620006ed83620006b0565b62000705620006fc82620006d8565b84845462000650565b825550505050565b600090565b6200071c6200070d565b62000729818484620006e2565b505050565b5b8181101562000751576200074560008262000712565b6001810190506200072f565b5050565b601f821115620007a0576200076a816200061e565b620007758462000633565b8101602085101562000785578190505b6200079d620007948562000633565b8301826200072e565b50505b505050565b600082821c905092915050565b6000620007c560001984600802620007a5565b1980831691505092915050565b6000620007e08383620007b2565b9150826002028217905092915050565b620007fb82620005af565b67ffffffffffffffff811115620008175762000816620002e5565b5b620008238254620005e9565b6200083082828562000755565b600060209050601f83116001811462000868576000841562000853578287015190505b6200085f8582620007d2565b865550620008cf565b601f19841662000878866200061e565b60005b82811015620008a2578489015182556001820191506020850194506020810190506200087b565b86831015620008c25784890151620008be601f891682620007b2565b8355505b6001600288020188555050505b505050505050565b6153c580620008e76000396000f3fe6080604052600436106101ee5760003560e01c806371ebbef41161010d578063a22cb465116100a0578063e3501cb11161006f578063e3501cb1146106c8578063e985e9c5146106f1578063eb8d24441461072e578063f23c958314610759578063f2fde38b14610775576101ee565b8063a22cb4651461060e578063b88d4fde14610637578063b8a9736d14610660578063c87b56dd1461068b576101ee565b80639202c1ec116100dc5780639202c1ec1461057557806395d89b411461059e57806395f04d05146105c9578063a0e12efe146105e5576101ee565b806371ebbef4146104cb5780637a3a4a61146104f6578063841e4561146105215780638da5cb5b1461054a576101ee565b80632f745c59116101855780634f6ccce7116101545780634f6ccce7146103fd5780636352211e1461043a57806370a0823114610477578063715018a6146104b4576101ee565b80632f745c591461036957806334918dfd146103a65780633ccfd60b146103bd57806342842e0e146103d4576101ee565b8063095ea7b3116101c1578063095ea7b3146102c357806318160ddd146102ec5780632017c7c11461031757806323b872dd14610340576101ee565b806301ffc9a7146101f357806306fdde031461023057806307604b1a1461025b578063081812fc14610286575b600080fd5b3480156101ff57600080fd5b5061021a600480360381019061021591906132e6565b61079e565b604051610227919061332e565b60405180910390f35b34801561023c57600080fd5b506102456107b0565b60405161025291906133d9565b60405180910390f35b34801561026757600080fd5b50610270610842565b60405161027d919061343c565b60405180910390f35b34801561029257600080fd5b506102ad60048036038101906102a8919061348d565b610868565b6040516102ba919061343c565b60405180910390f35b3480156102cf57600080fd5b506102ea60048036038101906102e591906134e6565b6108ed565b005b3480156102f857600080fd5b50610301610a04565b60405161030e9190613535565b60405180910390f35b34801561032357600080fd5b5061033e6004803603810190610339919061375c565b610a11565b005b34801561034c57600080fd5b5061036760048036038101906103629190613821565b610b2d565b005b34801561037557600080fd5b50610390600480360381019061038b91906134e6565b610b8d565b60405161039d9190613535565b60405180910390f35b3480156103b257600080fd5b506103bb610c32565b005b3480156103c957600080fd5b506103d2610cda565b005b3480156103e057600080fd5b506103fb60048036038101906103f69190613821565b610de8565b005b34801561040957600080fd5b50610424600480360381019061041f919061348d565b610e08565b6040516104319190613535565b60405180910390f35b34801561044657600080fd5b50610461600480360381019061045c919061348d565b610e79565b60405161046e919061343c565b60405180910390f35b34801561048357600080fd5b5061049e60048036038101906104999190613874565b610f2a565b6040516104ab9190613535565b60405180910390f35b3480156104c057600080fd5b506104c9610fe1565b005b3480156104d757600080fd5b506104e0611069565b6040516104ed9190613535565b60405180910390f35b34801561050257600080fd5b5061050b61106f565b6040516105189190613535565b60405180910390f35b34801561052d57600080fd5b5061054860048036038101906105439190613874565b611075565b005b34801561055657600080fd5b5061055f611147565b60405161056c919061343c565b60405180910390f35b34801561058157600080fd5b5061059c600480360381019061059791906138a1565b611171565b005b3480156105aa57600080fd5b506105b3611181565b6040516105c091906133d9565b60405180910390f35b6105e360048036038101906105de919061392c565b611213565b005b3480156105f157600080fd5b5061060c60048036038101906106079190613975565b61138a565b005b34801561061a57600080fd5b5061063560048036038101906106309190613a19565b6113b0565b005b34801561064357600080fd5b5061065e60048036038101906106599190613a59565b6113c6565b005b34801561066c57600080fd5b50610675611428565b6040516106829190613535565b60405180910390f35b34801561069757600080fd5b506106b260048036038101906106ad919061348d565b61142e565b6040516106bf91906133d9565b60405180910390f35b3480156106d457600080fd5b506106ef60048036038101906106ea9190613874565b611440565b005b3480156106fd57600080fd5b5061071860048036038101906107139190613adc565b611511565b604051610725919061332e565b60405180910390f35b34801561073a57600080fd5b506107436115a5565b604051610750919061332e565b60405180910390f35b610773600480360381019061076e9190613b1c565b6115b8565b005b34801561078157600080fd5b5061079c60048036038101906107979190613874565b61171a565b005b60006107a982611811565b9050919050565b6060600480546107bf90613bea565b80601f01602080910402602001604051908101604052809291908181526020018280546107eb90613bea565b80156108385780601f1061080d57610100808354040283529160200191610838565b820191906000526020600020905b81548152906001019060200180831161081b57829003601f168201915b5050505050905090565b600160009054906101000a900473ffffffffffffffffffffffffffffffffffffffff1681565b60006108738261188b565b6108b2576040517f08c379a00000000000000000000000000000000000000000000000000000000081526004016108a990613c8d565b60405180910390fd5b6008600083815260200190815260200160002060009054906101000a900473ffffffffffffffffffffffffffffffffffffffff169050919050565b60006108f882610e79565b90508073ffffffffffffffffffffffffffffffffffffffff168373ffffffffffffffffffffffffffffffffffffffff1603610968576040517f08c379a000000000000000000000000000000000000000000000000000000000815260040161095f90613d1f565b60405180910390fd5b8073ffffffffffffffffffffffffffffffffffffffff166109876118f7565b73ffffffffffffffffffffffffffffffffffffffff1614806109b657506109b5816109b06118f7565b611511565b5b6109f5576040517f08c379a00000000000000000000000000000000000000000000000000000000081526004016109ec90613db1565b60405180910390fd5b6109ff83836118ff565b505050565b6000600c80549050905090565b610a1a86610e79565b73ffffffffffffffffffffffffffffffffffffffff163373ffffffffffffffffffffffffffffffffffffffff1614610a87576040517f08c379a0000000000000000000000000000000000000000000000000000000008152600401610a7e90613e1d565b60405180910390fd5b600360009054906101000a900473ffffffffffffffffffffffffffffffffffffffff1673ffffffffffffffffffffffffffffffffffffffff166303f5de9d878684896040518563ffffffff1660e01b8152600401610ae89493929190613e4c565b600060405180830381600087803b158015610b0257600080fd5b505af1158015610b16573d6000803e3d6000fd5b50505050610b258684846119b8565b505050505050565b610b3e610b386118f7565b82611a8c565b610b7d576040517f08c379a0000000000000000000000000000000000000000000000000000000008152600401610b7490613f03565b60405180910390fd5b610b88838383611b6a565b505050565b6000610b9883610f2a565b8210610bd9576040517f08c379a0000000000000000000000000000000000000000000000000000000008152600401610bd090613f95565b60405180910390fd5b600a60008473ffffffffffffffffffffffffffffffffffffffff1673ffffffffffffffffffffffffffffffffffffffff168152602001908152602001600020600083815260200190815260200160002054905092915050565b610c3a6118f7565b73ffffffffffffffffffffffffffffffffffffffff16610c58611147565b73ffffffffffffffffffffffffffffffffffffffff1614610cae576040517f08c379a0000000000000000000000000000000000000000000000000000000008152600401610ca590614001565b60405180910390fd5b601260009054906101000a900460ff1615601260006101000a81548160ff021916908315150217905550565b610ce26118f7565b73ffffffffffffffffffffffffffffffffffffffff16610d00611147565b73ffffffffffffffffffffffffffffffffffffffff1614610d56576040517f08c379a0000000000000000000000000000000000000000000000000000000008152600401610d4d90614001565b60405180910390fd5b600047905060004711610d9e576040517f08c379a0000000000000000000000000000000000000000000000000000000008152600401610d959061406d565b60405180910390fd5b3373ffffffffffffffffffffffffffffffffffffffff166108fc829081150290604051600060405180830381858888f19350505050158015610de4573d6000803e3d6000fd5b5050565b610e03838383604051806020016040528060008152506113c6565b505050565b6000610e12610a04565b8210610e53576040517f08c379a0000000000000000000000000000000000000000000000000000000008152600401610e4a906140ff565b60405180910390fd5b600c8281548110610e6757610e6661411f565b5b90600052602060002001549050919050565b6000806006600084815260200190815260200160002060009054906101000a900473ffffffffffffffffffffffffffffffffffffffff169050600073ffffffffffffffffffffffffffffffffffffffff168173ffffffffffffffffffffffffffffffffffffffff1603610f21576040517f08c379a0000000000000000000000000000000000000000000000000000000008152600401610f18906141c0565b60405180910390fd5b80915050919050565b60008073ffffffffffffffffffffffffffffffffffffffff168273ffffffffffffffffffffffffffffffffffffffff1603610f9a576040517f08c379a0000000000000000000000000000000000000000000000000000000008152600401610f9190614252565b60405180910390fd5b600760008373ffffffffffffffffffffffffffffffffffffffff1673ffffffffffffffffffffffffffffffffffffffff168152602001908152602001600020549050919050565b610fe96118f7565b73ffffffffffffffffffffffffffffffffffffffff16611007611147565b73ffffffffffffffffffffffffffffffffffffffff161461105d576040517f08c379a000000000000000000000000000000000000000000000000000000000815260040161105490614001565b60405180910390fd5b6110676000611dd0565b565b60105481565b60115481565b60008054906101000a900473ffffffffffffffffffffffffffffffffffffffff1673ffffffffffffffffffffffffffffffffffffffff163373ffffffffffffffffffffffffffffffffffffffff1614611103576040517f08c379a00000000000000000000000000000000000000000000000000000000081526004016110fa906142be565b60405180910390fd5b80600160006101000a81548173ffffffffffffffffffffffffffffffffffffffff021916908373ffffffffffffffffffffffffffffffffffffffff16021790555050565b6000600f60009054906101000a900473ffffffffffffffffffffffffffffffffffffffff16905090565b61117c8383836119b8565b505050565b60606005805461119090613bea565b80601f01602080910402602001604051908101604052809291908181526020018280546111bc90613bea565b80156112095780601f106111de57610100808354040283529160200191611209565b820191906000526020600020905b8154815290600101906020018083116111ec57829003601f168201915b5050505050905090565b601260009054906101000a900460ff16611262576040517f08c379a00000000000000000000000000000000000000000000000000000000081526004016112599061432a565b60405180910390fd5b60105461126d610a04565b106112ad576040517f08c379a00000000000000000000000000000000000000000000000000000000081526004016112a490614396565b60405180910390fd5b6112e0600160009054906101000a900473ffffffffffffffffffffffffffffffffffffffff166112db610a04565b611e96565b6112f16112eb610a04565b82611eb4565b600360009054906101000a900473ffffffffffffffffffffffffffffffffffffffff1673ffffffffffffffffffffffffffffffffffffffff16631c85949c33611338610a04565b6040518363ffffffff1660e01b81526004016113559291906143b6565b600060405180830381600087803b15801561136f57600080fd5b505af1158015611383573d6000803e3d6000fd5b5050505050565b6000611394610a04565b90506113a03382611e96565b6113ab8184846119b8565b505050565b6113c26113bb6118f7565b8383611f21565b5050565b6113d76113d16118f7565b83611a8c565b611416576040517f08c379a000000000000000000000000000000000000000000000000000000000815260040161140d90613f03565b60405180910390fd5b6114228484848461208d565b50505050565b60025481565b6060611439826120e9565b9050919050565b60008054906101000a900473ffffffffffffffffffffffffffffffffffffffff1673ffffffffffffffffffffffffffffffffffffffff163373ffffffffffffffffffffffffffffffffffffffff16146114ce576040517f08c379a00000000000000000000000000000000000000000000000000000000081526004016114c5906142be565b60405180910390fd5b806000806101000a81548173ffffffffffffffffffffffffffffffffffffffff021916908373ffffffffffffffffffffffffffffffffffffffff16021790555050565b6000600960008473ffffffffffffffffffffffffffffffffffffffff1673ffffffffffffffffffffffffffffffffffffffff16815260200190815260200160002060008373ffffffffffffffffffffffffffffffffffffffff1673ffffffffffffffffffffffffffffffffffffffff16815260200190815260200160002060009054906101000a900460ff16905092915050565b601260009054906101000a900460ff1681565b6115c184610e79565b73ffffffffffffffffffffffffffffffffffffffff163373ffffffffffffffffffffffffffffffffffffffff161461162e576040517f08c379a000000000000000000000000000000000000000000000000000000000815260040161162590613e1d565b60405180910390fd5b601054611639610a04565b101561167a576040517f08c379a00000000000000000000000000000000000000000000000000000000081526004016116719061442b565b60405180910390fd5b600360009054906101000a900473ffffffffffffffffffffffffffffffffffffffff1673ffffffffffffffffffffffffffffffffffffffff1663fe774f9d85856040518363ffffffff1660e01b81526004016116d792919061444b565b600060405180830381600087803b1580156116f157600080fd5b505af1158015611705573d6000803e3d6000fd5b505050506117148483836119b8565b50505050565b6117226118f7565b73ffffffffffffffffffffffffffffffffffffffff16611740611147565b73ffffffffffffffffffffffffffffffffffffffff1614611796576040517f08c379a000000000000000000000000000000000000000000000000000000000815260040161178d90614001565b60405180910390fd5b600073ffffffffffffffffffffffffffffffffffffffff168173ffffffffffffffffffffffffffffffffffffffff1603611805576040517f08c379a00000000000000000000000000000000000000000000000000000000081526004016117fc906144e6565b60405180910390fd5b61180e81611dd0565b50565b60007f780e9d63000000000000000000000000000000000000000000000000000000007bffffffffffffffffffffffffffffffffffffffffffffffffffffffff1916827bffffffffffffffffffffffffffffffffffffffffffffffffffffffff1916148061188457506118838261223a565b5b9050919050565b60008073ffffffffffffffffffffffffffffffffffffffff166006600084815260200190815260200160002060009054906101000a900473ffffffffffffffffffffffffffffffffffffffff1673ffffffffffffffffffffffffffffffffffffffff1614159050919050565b600033905090565b816008600083815260200190815260200160002060006101000a81548173ffffffffffffffffffffffffffffffffffffffff021916908373ffffffffffffffffffffffffffffffffffffffff160217905550808273ffffffffffffffffffffffffffffffffffffffff1661197283610e79565b73ffffffffffffffffffffffffffffffffffffffff167f8c5be1e5ebec7d5bd14f71427d1e84f3dd0314c0f7b2291e5b200ac8c7c3b92560405160405180910390a45050565b6119c96119c36118f7565b84611a8c565b611a08576040517f08c379a00000000000000000000000000000000000000000000000000000000081526004016119ff90614552565b60405180910390fd5b600082604051602001611a1b91906145ae565b604051602081830303815290604052805190602001209050611a3d818361231c565b611a7c576040517f08c379a0000000000000000000000000000000000000000000000000000000008152600401611a7390614611565b60405180910390fd5b611a868484611eb4565b50505050565b6000611a978261188b565b611ad6576040517f08c379a0000000000000000000000000000000000000000000000000000000008152600401611acd906146a3565b60405180910390fd5b6000611ae183610e79565b90508073ffffffffffffffffffffffffffffffffffffffff168473ffffffffffffffffffffffffffffffffffffffff161480611b235750611b228185611511565b5b80611b6157508373ffffffffffffffffffffffffffffffffffffffff16611b4984610868565b73ffffffffffffffffffffffffffffffffffffffff16145b91505092915050565b8273ffffffffffffffffffffffffffffffffffffffff16611b8a82610e79565b73ffffffffffffffffffffffffffffffffffffffff1614611be0576040517f08c379a0000000000000000000000000000000000000000000000000000000008152600401611bd790614735565b60405180910390fd5b600073ffffffffffffffffffffffffffffffffffffffff168273ffffffffffffffffffffffffffffffffffffffff1603611c4f576040517f08c379a0000000000000000000000000000000000000000000000000000000008152600401611c46906147c7565b60405180910390fd5b611c5a8383836123c0565b611c656000826118ff565b6001600760008573ffffffffffffffffffffffffffffffffffffffff1673ffffffffffffffffffffffffffffffffffffffff1681526020019081526020016000206000828254611cb59190614816565b925050819055506001600760008473ffffffffffffffffffffffffffffffffffffffff1673ffffffffffffffffffffffffffffffffffffffff1681526020019081526020016000206000828254611d0c919061484a565b92505081905550816006600083815260200190815260200160002060006101000a81548173ffffffffffffffffffffffffffffffffffffffff021916908373ffffffffffffffffffffffffffffffffffffffff160217905550808273ffffffffffffffffffffffffffffffffffffffff168473ffffffffffffffffffffffffffffffffffffffff167fddf252ad1be2c89b69c2b068fc378daa952ba7f163c4a11628f55a4df523b3ef60405160405180910390a4611dcb8383836123d0565b505050565b6000600f60009054906101000a900473ffffffffffffffffffffffffffffffffffffffff16905081600f60006101000a81548173ffffffffffffffffffffffffffffffffffffffff021916908373ffffffffffffffffffffffffffffffffffffffff1602179055508173ffffffffffffffffffffffffffffffffffffffff168173ffffffffffffffffffffffffffffffffffffffff167f8be0079c531659141344cd1fd0a4f28419497f9722a3daafe3b4186f6b6457e060405160405180910390a35050565b611eb08282604051806020016040528060008152506123d5565b5050565b611ebd8261188b565b611efc576040517f08c379a0000000000000000000000000000000000000000000000000000000008152600401611ef3906148f0565b60405180910390fd5b80600e60008481526020019081526020016000209081611f1c9190614abc565b505050565b8173ffffffffffffffffffffffffffffffffffffffff168373ffffffffffffffffffffffffffffffffffffffff1603611f8f576040517f08c379a0000000000000000000000000000000000000000000000000000000008152600401611f8690614bda565b60405180910390fd5b80600960008573ffffffffffffffffffffffffffffffffffffffff1673ffffffffffffffffffffffffffffffffffffffff16815260200190815260200160002060008473ffffffffffffffffffffffffffffffffffffffff1673ffffffffffffffffffffffffffffffffffffffff16815260200190815260200160002060006101000a81548160ff0219169083151502179055508173ffffffffffffffffffffffffffffffffffffffff168373ffffffffffffffffffffffffffffffffffffffff167f17307eab39ab6107e8899845ad3d59bd9653f200f220920489ca2b5937696c3183604051612080919061332e565b60405180910390a3505050565b612098848484611b6a565b6120a484848484612430565b6120e3576040517f08c379a00000000000000000000000000000000000000000000000000000000081526004016120da90614c6c565b60405180910390fd5b50505050565b60606120f48261188b565b612133576040517f08c379a000000000000000000000000000000000000000000000000000000000815260040161212a90614cfe565b60405180910390fd5b6000600e6000848152602001908152602001600020805461215390613bea565b80601f016020809104026020016040519081016040528092919081815260200182805461217f90613bea565b80156121cc5780601f106121a1576101008083540402835291602001916121cc565b820191906000526020600020905b8154815290600101906020018083116121af57829003601f168201915b5050505050905060006121dd6125b7565b905060008151036121f2578192505050612235565b60008251111561222757808260405160200161220f929190614d1e565b60405160208183030381529060405292505050612235565b612230846125f4565b925050505b919050565b60007f80ac58cd000000000000000000000000000000000000000000000000000000007bffffffffffffffffffffffffffffffffffffffffffffffffffffffff1916827bffffffffffffffffffffffffffffffffffffffffffffffffffffffff1916148061230557507f5b5e139f000000000000000000000000000000000000000000000000000000007bffffffffffffffffffffffffffffffffffffffffffffffffffffffff1916827bffffffffffffffffffffffffffffffffffffffffffffffffffffffff1916145b8061231557506123148261269b565b5b9050919050565b60008060009054906101000a900473ffffffffffffffffffffffffffffffffffffffff1673ffffffffffffffffffffffffffffffffffffffff166123608484612705565b73ffffffffffffffffffffffffffffffffffffffff16146123b6576040517f08c379a00000000000000000000000000000000000000000000000000000000081526004016123ad90614d8e565b60405180910390fd5b6001905092915050565b6123cb838383612722565b505050565b505050565b6123df8383612834565b6123ec6000848484612430565b61242b576040517f08c379a000000000000000000000000000000000000000000000000000000000815260040161242290614c6c565b60405180910390fd5b505050565b60006124518473ffffffffffffffffffffffffffffffffffffffff16612a0d565b156125aa578373ffffffffffffffffffffffffffffffffffffffff1663150b7a0261247a6118f7565b8786866040518563ffffffff1660e01b815260040161249c9493929190614e03565b6020604051808303816000875af19250505080156124d857506040513d601f19601f820116820180604052508101906124d59190614e64565b60015b61255a573d8060008114612508576040519150601f19603f3d011682016040523d82523d6000602084013e61250d565b606091505b506000815103612552576040517f08c379a000000000000000000000000000000000000000000000000000000000815260040161254990614c6c565b60405180910390fd5b805181602001fd5b63150b7a0260e01b7bffffffffffffffffffffffffffffffffffffffffffffffffffffffff1916817bffffffffffffffffffffffffffffffffffffffffffffffffffffffff1916149150506125af565b600190505b949350505050565b60606040518060400160405280601581526020017f68747470733a2f2f697066732e696f2f697066732f0000000000000000000000815250905090565b60606125ff8261188b565b61263e576040517f08c379a000000000000000000000000000000000000000000000000000000000815260040161263590614f03565b60405180910390fd5b60006126486125b7565b905060008151116126685760405180602001604052806000815250612693565b8061267284612a30565b604051602001612683929190614d1e565b6040516020818303038152906040525b915050919050565b60007f01ffc9a7000000000000000000000000000000000000000000000000000000007bffffffffffffffffffffffffffffffffffffffffffffffffffffffff1916827bffffffffffffffffffffffffffffffffffffffffffffffffffffffff1916149050919050565b600061271a8284612b9090919063ffffffff16565b905092915050565b61272d838383612bb7565b600073ffffffffffffffffffffffffffffffffffffffff168373ffffffffffffffffffffffffffffffffffffffff160361276f5761276a81612bbc565b6127ae565b8173ffffffffffffffffffffffffffffffffffffffff168373ffffffffffffffffffffffffffffffffffffffff16146127ad576127ac8382612c05565b5b5b600073ffffffffffffffffffffffffffffffffffffffff168273ffffffffffffffffffffffffffffffffffffffff16036127f0576127eb81612d72565b61282f565b8273ffffffffffffffffffffffffffffffffffffffff168273ffffffffffffffffffffffffffffffffffffffff161461282e5761282d8282612e43565b5b5b505050565b600073ffffffffffffffffffffffffffffffffffffffff168273ffffffffffffffffffffffffffffffffffffffff16036128a3576040517f08c379a000000000000000000000000000000000000000000000000000000000815260040161289a90614f6f565b60405180910390fd5b6128ac8161188b565b156128ec576040517f08c379a00000000000000000000000000000000000000000000000000000000081526004016128e390614fdb565b60405180910390fd5b6128f8600083836123c0565b6001600760008473ffffffffffffffffffffffffffffffffffffffff1673ffffffffffffffffffffffffffffffffffffffff1681526020019081526020016000206000828254612948919061484a565b92505081905550816006600083815260200190815260200160002060006101000a81548173ffffffffffffffffffffffffffffffffffffffff021916908373ffffffffffffffffffffffffffffffffffffffff160217905550808273ffffffffffffffffffffffffffffffffffffffff16600073ffffffffffffffffffffffffffffffffffffffff167fddf252ad1be2c89b69c2b068fc378daa952ba7f163c4a11628f55a4df523b3ef60405160405180910390a4612a09600083836123d0565b5050565b6000808273ffffffffffffffffffffffffffffffffffffffff163b119050919050565b606060008203612a77576040518060400160405280600181526020017f30000000000000000000000000000000000000000000000000000000000000008152509050612b8b565b600082905060005b60008214612aa9578080612a9290614ffb565b915050600a82612aa29190615072565b9150612a7f565b60008167ffffffffffffffff811115612ac557612ac4613590565b5b6040519080825280601f01601f191660200182016040528015612af75781602001600182028036833780820191505090505b5090505b60008514612b8457600182612b109190614816565b9150600a85612b1f91906150a3565b6030612b2b919061484a565b60f81b818381518110612b4157612b4061411f565b5b60200101907effffffffffffffffffffffffffffffffffffffffffffffffffffffffffffff1916908160001a905350600a85612b7d9190615072565b9450612afb565b8093505050505b919050565b6000806000612b9f8585612ec2565b91509150612bac81612f43565b819250505092915050565b505050565b600c80549050600d600083815260200190815260200160002081905550600c81908060018154018082558091505060019003906000526020600020016000909190919091505550565b60006001612c1284610f2a565b612c1c9190614816565b90506000600b6000848152602001908152602001600020549050818114612d01576000600a60008673ffffffffffffffffffffffffffffffffffffffff1673ffffffffffffffffffffffffffffffffffffffff168152602001908152602001600020600084815260200190815260200160002054905080600a60008773ffffffffffffffffffffffffffffffffffffffff1673ffffffffffffffffffffffffffffffffffffffff16815260200190815260200160002060008481526020019081526020016000208190555081600b600083815260200190815260200160002081905550505b600b600084815260200190815260200160002060009055600a60008573ffffffffffffffffffffffffffffffffffffffff1673ffffffffffffffffffffffffffffffffffffffff16815260200190815260200160002060008381526020019081526020016000206000905550505050565b60006001600c80549050612d869190614816565b90506000600d60008481526020019081526020016000205490506000600c8381548110612db657612db561411f565b5b9060005260206000200154905080600c8381548110612dd857612dd761411f565b5b906000526020600020018190555081600d600083815260200190815260200160002081905550600d600085815260200190815260200160002060009055600c805480612e2757612e266150d4565b5b6001900381819060005260206000200160009055905550505050565b6000612e4e83610f2a565b905081600a60008573ffffffffffffffffffffffffffffffffffffffff1673ffffffffffffffffffffffffffffffffffffffff16815260200190815260200160002060008381526020019081526020016000208190555080600b600084815260200190815260200160002081905550505050565b6000806041835103612f035760008060006020860151925060408601519150606086015160001a9050612ef78782858561310f565b94509450505050612f3c565b6040835103612f33576000806020850151915060408501519050612f2886838361321b565b935093505050612f3c565b60006002915091505b9250929050565b60006004811115612f5757612f56615103565b5b816004811115612f6a57612f69615103565b5b031561310c5760016004811115612f8457612f83615103565b5b816004811115612f9757612f96615103565b5b03612fd7576040517f08c379a0000000000000000000000000000000000000000000000000000000008152600401612fce9061517e565b60405180910390fd5b60026004811115612feb57612fea615103565b5b816004811115612ffe57612ffd615103565b5b0361303e576040517f08c379a0000000000000000000000000000000000000000000000000000000008152600401613035906151ea565b60405180910390fd5b6003600481111561305257613051615103565b5b81600481111561306557613064615103565b5b036130a5576040517f08c379a000000000000000000000000000000000000000000000000000000000815260040161309c9061527c565b60405180910390fd5b6004808111156130b8576130b7615103565b5b8160048111156130cb576130ca615103565b5b0361310b576040517f08c379a00000000000000000000000000000000000000000000000000000000081526004016131029061530e565b60405180910390fd5b5b50565b6000807f7fffffffffffffffffffffffffffffff5d576e7357a4501ddfe92f46681b20a08360001c111561314a576000600391509150613212565b601b8560ff16141580156131625750601c8560ff1614155b15613174576000600491509150613212565b600060018787878760405160008152602001604052604051613199949392919061534a565b6020604051602081039080840390855afa1580156131bb573d6000803e3d6000fd5b505050602060405103519050600073ffffffffffffffffffffffffffffffffffffffff168173ffffffffffffffffffffffffffffffffffffffff160361320957600060019250925050613212565b80600092509250505b94509492505050565b60008060007f7fffffffffffffffffffffffffffffffffffffffffffffffffffffffffffffff60001b841690506000601b60ff8660001c901c61325e919061484a565b905061326c8782888561310f565b935093505050935093915050565b6000604051905090565b600080fd5b600080fd5b60007fffffffff0000000000000000000000000000000000000000000000000000000082169050919050565b6132c38161328e565b81146132ce57600080fd5b50565b6000813590506132e0816132ba565b92915050565b6000602082840312156132fc576132fb613284565b5b600061330a848285016132d1565b91505092915050565b60008115159050919050565b61332881613313565b82525050565b6000602082019050613343600083018461331f565b92915050565b600081519050919050565b600082825260208201905092915050565b60005b83811015613383578082015181840152602081019050613368565b60008484015250505050565b6000601f19601f8301169050919050565b60006133ab82613349565b6133b58185613354565b93506133c5818560208601613365565b6133ce8161338f565b840191505092915050565b600060208201905081810360008301526133f381846133a0565b905092915050565b600073ffffffffffffffffffffffffffffffffffffffff82169050919050565b6000613426826133fb565b9050919050565b6134368161341b565b82525050565b6000602082019050613451600083018461342d565b92915050565b6000819050919050565b61346a81613457565b811461347557600080fd5b50565b60008135905061348781613461565b92915050565b6000602082840312156134a3576134a2613284565b5b60006134b184828501613478565b91505092915050565b6134c38161341b565b81146134ce57600080fd5b50565b6000813590506134e0816134ba565b92915050565b600080604083850312156134fd576134fc613284565b5b600061350b858286016134d1565b925050602061351c85828601613478565b9150509250929050565b61352f81613457565b82525050565b600060208201905061354a6000830184613526565b92915050565b6000819050919050565b61356381613550565b811461356e57600080fd5b50565b6000813590506135808161355a565b92915050565b600080fd5b600080fd5b7f4e487b7100000000000000000000000000000000000000000000000000000000600052604160045260246000fd5b6135c88261338f565b810181811067ffffffffffffffff821117156135e7576135e6613590565b5b80604052505050565b60006135fa61327a565b905061360682826135bf565b919050565b600067ffffffffffffffff82111561362657613625613590565b5b61362f8261338f565b9050602081019050919050565b82818337600083830152505050565b600061365e6136598461360b565b6135f0565b90508281526020810184848401111561367a5761367961358b565b5b61368584828561363c565b509392505050565b600082601f8301126136a2576136a1613586565b5b81356136b284826020860161364b565b91505092915050565b600067ffffffffffffffff8211156136d6576136d5613590565b5b6136df8261338f565b9050602081019050919050565b60006136ff6136fa846136bb565b6135f0565b90508281526020810184848401111561371b5761371a61358b565b5b61372684828561363c565b509392505050565b600082601f83011261374357613742613586565b5b81356137538482602086016136ec565b91505092915050565b60008060008060008060c0878903121561377957613778613284565b5b600061378789828a01613478565b965050602061379889828a01613571565b95505060406137a989828a01613478565b945050606087013567ffffffffffffffff8111156137ca576137c9613289565b5b6137d689828a0161368d565b935050608087013567ffffffffffffffff8111156137f7576137f6613289565b5b61380389828a0161372e565b92505060a061381489828a01613478565b9150509295509295509295565b60008060006060848603121561383a57613839613284565b5b6000613848868287016134d1565b9350506020613859868287016134d1565b925050604061386a86828701613478565b9150509250925092565b60006020828403121561388a57613889613284565b5b6000613898848285016134d1565b91505092915050565b6000806000606084860312156138ba576138b9613284565b5b60006138c886828701613478565b935050602084013567ffffffffffffffff8111156138e9576138e8613289565b5b6138f58682870161368d565b925050604084013567ffffffffffffffff81111561391657613915613289565b5b6139228682870161372e565b9150509250925092565b60006020828403121561394257613941613284565b5b600082013567ffffffffffffffff8111156139605761395f613289565b5b61396c8482850161368d565b91505092915050565b6000806040838503121561398c5761398b613284565b5b600083013567ffffffffffffffff8111156139aa576139a9613289565b5b6139b68582860161368d565b925050602083013567ffffffffffffffff8111156139d7576139d6613289565b5b6139e38582860161372e565b9150509250929050565b6139f681613313565b8114613a0157600080fd5b50565b600081359050613a13816139ed565b92915050565b60008060408385031215613a3057613a2f613284565b5b6000613a3e858286016134d1565b9250506020613a4f85828601613a04565b9150509250929050565b60008060008060808587031215613a7357613a72613284565b5b6000613a81878288016134d1565b9450506020613a92878288016134d1565b9350506040613aa387828801613478565b925050606085013567ffffffffffffffff811115613ac457613ac3613289565b5b613ad08782880161372e565b91505092959194509250565b60008060408385031215613af357613af2613284565b5b6000613b01858286016134d1565b9250506020613b12858286016134d1565b9150509250929050565b60008060008060808587031215613b3657613b35613284565b5b6000613b4487828801613478565b9450506020613b5587828801613571565b935050604085013567ffffffffffffffff811115613b7657613b75613289565b5b613b828782880161368d565b925050606085013567ffffffffffffffff811115613ba357613ba2613289565b5b613baf8782880161372e565b91505092959194509250565b7f4e487b7100000000000000000000000000000000000000000000000000000000600052602260045260246000fd5b60006002820490506001821680613c0257607f821691505b602082108103613c1557613c14613bbb565b5b50919050565b7f4552433732313a20617070726f76656420717565727920666f72206e6f6e657860008201527f697374656e7420746f6b656e0000000000000000000000000000000000000000602082015250565b6000613c77602c83613354565b9150613c8282613c1b565b604082019050919050565b60006020820190508181036000830152613ca681613c6a565b9050919050565b7f4552433732313a20617070726f76616c20746f2063757272656e74206f776e6560008201527f7200000000000000000000000000000000000000000000000000000000000000602082015250565b6000613d09602183613354565b9150613d1482613cad565b604082019050919050565b60006020820190508181036000830152613d3881613cfc565b9050919050565b7f4552433732313a20617070726f76652063616c6c6572206973206e6f74206f7760008201527f6e6572206e6f7220617070726f76656420666f7220616c6c0000000000000000602082015250565b6000613d9b603883613354565b9150613da682613d3f565b604082019050919050565b60006020820190508181036000830152613dca81613d8e565b9050919050565b7f43616c6c6572206973206e6f74206f776e6572206f66206e7574000000000000600082015250565b6000613e07601a83613354565b9150613e1282613dd1565b602082019050919050565b60006020820190508181036000830152613e3681613dfa565b9050919050565b613e4681613550565b82525050565b6000608082019050613e616000830187613526565b613e6e6020830186613526565b613e7b6040830185613526565b613e886060830184613e3d565b95945050505050565b7f4552433732313a207472616e736665722063616c6c6572206973206e6f74206f60008201527f776e6572206e6f7220617070726f766564000000000000000000000000000000602082015250565b6000613eed603183613354565b9150613ef882613e91565b604082019050919050565b60006020820190508181036000830152613f1c81613ee0565b9050919050565b7f455243373231456e756d657261626c653a206f776e657220696e646578206f7560008201527f74206f6620626f756e6473000000000000000000000000000000000000000000602082015250565b6000613f7f602b83613354565b9150613f8a82613f23565b604082019050919050565b60006020820190508181036000830152613fae81613f72565b9050919050565b7f4f776e61626c653a2063616c6c6572206973206e6f7420746865206f776e6572600082015250565b6000613feb602083613354565b9150613ff682613fb5565b602082019050919050565b6000602082019050818103600083015261401a81613fde565b9050919050565b7f4e6f2062616c616e636520746f20776974686472617700000000000000000000600082015250565b6000614057601683613354565b915061406282614021565b602082019050919050565b600060208201905081810360008301526140868161404a565b9050919050565b7f455243373231456e756d657261626c653a20676c6f62616c20696e646578206f60008201527f7574206f6620626f756e64730000000000000000000000000000000000000000602082015250565b60006140e9602c83613354565b91506140f48261408d565b604082019050919050565b60006020820190508181036000830152614118816140dc565b9050919050565b7f4e487b7100000000000000000000000000000000000000000000000000000000600052603260045260246000fd5b7f4552433732313a206f776e657220717565727920666f72206e6f6e657869737460008201527f656e7420746f6b656e0000000000000000000000000000000000000000000000602082015250565b60006141aa602983613354565b91506141b58261414e565b604082019050919050565b600060208201905081810360008301526141d98161419d565b9050919050565b7f4552433732313a2062616c616e636520717565727920666f7220746865207a6560008201527f726f206164647265737300000000000000000000000000000000000000000000602082015250565b600061423c602a83613354565b9150614247826141e0565b604082019050919050565b6000602082019050818103600083015261426b8161422f565b9050919050565b7f43616c6c6572206973206e6f742073797374656d000000000000000000000000600082015250565b60006142a8601483613354565b91506142b382614272565b602082019050919050565b600060208201905081810360008301526142d78161429b565b9050919050565b7f53616c65206d7573742062652061637469766500000000000000000000000000600082015250565b6000614314601383613354565b915061431f826142de565b602082019050919050565b6000602082019050818103600083015261434381614307565b9050919050565b7f45786365656420696e697469616c20737570706c79206f66206e757473000000600082015250565b6000614380601d83613354565b915061438b8261434a565b602082019050919050565b600060208201905081810360008301526143af81614373565b9050919050565b60006040820190506143cb600083018561342d565b6143d86020830184613526565b9392505050565b7f4e757473207374696c6c2065786973742066726f6d206372656174696f6e0000600082015250565b6000614415601e83613354565b9150614420826143df565b602082019050919050565b6000602082019050818103600083015261444481614408565b9050919050565b60006040820190506144606000830185613526565b61446d6020830184613e3d565b9392505050565b7f4f776e61626c653a206e6577206f776e657220697320746865207a65726f206160008201527f6464726573730000000000000000000000000000000000000000000000000000602082015250565b60006144d0602683613354565b91506144db82614474565b604082019050919050565b600060208201905081810360008301526144ff816144c3565b9050919050565b7f43616c6c6572206973206e6f74206f776e6572206e6f7220617070726f766564600082015250565b600061453c602083613354565b915061454782614506565b602082019050919050565b6000602082019050818103600083015261456b8161452f565b9050919050565b600081905092915050565b600061458882613349565b6145928185614572565b93506145a2818560208601613365565b80840191505092915050565b60006145ba828461457d565b915081905092915050565b7f4461746120646f6573206e6f74206d61746368207369676e6174757265000000600082015250565b60006145fb601d83613354565b9150614606826145c5565b602082019050919050565b6000602082019050818103600083015261462a816145ee565b9050919050565b7f4552433732313a206f70657261746f7220717565727920666f72206e6f6e657860008201527f697374656e7420746f6b656e0000000000000000000000000000000000000000602082015250565b600061468d602c83613354565b915061469882614631565b604082019050919050565b600060208201905081810360008301526146bc81614680565b9050919050565b7f4552433732313a207472616e736665722066726f6d20696e636f72726563742060008201527f6f776e6572000000000000000000000000000000000000000000000000000000602082015250565b600061471f602583613354565b915061472a826146c3565b604082019050919050565b6000602082019050818103600083015261474e81614712565b9050919050565b7f4552433732313a207472616e7366657220746f20746865207a65726f2061646460008201527f7265737300000000000000000000000000000000000000000000000000000000602082015250565b60006147b1602483613354565b91506147bc82614755565b604082019050919050565b600060208201905081810360008301526147e0816147a4565b9050919050565b7f4e487b7100000000000000000000000000000000000000000000000000000000600052601160045260246000fd5b600061482182613457565b915061482c83613457565b9250828203905081811115614844576148436147e7565b5b92915050565b600061485582613457565b915061486083613457565b9250828201905080821115614878576148776147e7565b5b92915050565b7f45524337323155524953746f726167653a2055524920736574206f66206e6f6e60008201527f6578697374656e7420746f6b656e000000000000000000000000000000000000602082015250565b60006148da602e83613354565b91506148e58261487e565b604082019050919050565b60006020820190508181036000830152614909816148cd565b9050919050565b60008190508160005260206000209050919050565b60006020601f8301049050919050565b600082821b905092915050565b6000600883026149727fffffffffffffffffffffffffffffffffffffffffffffffffffffffffffffffff82614935565b61497c8683614935565b95508019841693508086168417925050509392505050565b6000819050919050565b60006149b96149b46149af84613457565b614994565b613457565b9050919050565b6000819050919050565b6149d38361499e565b6149e76149df826149c0565b848454614942565b825550505050565b600090565b6149fc6149ef565b614a078184846149ca565b505050565b5b81811015614a2b57614a206000826149f4565b600181019050614a0d565b5050565b601f821115614a7057614a4181614910565b614a4a84614925565b81016020851015614a59578190505b614a6d614a6585614925565b830182614a0c565b50505b505050565b600082821c905092915050565b6000614a9360001984600802614a75565b1980831691505092915050565b6000614aac8383614a82565b9150826002028217905092915050565b614ac582613349565b67ffffffffffffffff811115614ade57614add613590565b5b614ae88254613bea565b614af3828285614a2f565b600060209050601f831160018114614b265760008415614b14578287015190505b614b1e8582614aa0565b865550614b86565b601f198416614b3486614910565b60005b82811015614b5c57848901518255600182019150602085019450602081019050614b37565b86831015614b795784890151614b75601f891682614a82565b8355505b6001600288020188555050505b505050505050565b7f4552433732313a20617070726f766520746f2063616c6c657200000000000000600082015250565b6000614bc4601983613354565b9150614bcf82614b8e565b602082019050919050565b60006020820190508181036000830152614bf381614bb7565b9050919050565b7f4552433732313a207472616e7366657220746f206e6f6e20455243373231526560008201527f63656976657220696d706c656d656e7465720000000000000000000000000000602082015250565b6000614c56603283613354565b9150614c6182614bfa565b604082019050919050565b60006020820190508181036000830152614c8581614c49565b9050919050565b7f45524337323155524953746f726167653a2055524920717565727920666f722060008201527f6e6f6e6578697374656e7420746f6b656e000000000000000000000000000000602082015250565b6000614ce8603183613354565b9150614cf382614c8c565b604082019050919050565b60006020820190508181036000830152614d1781614cdb565b9050919050565b6000614d2a828561457d565b9150614d36828461457d565b91508190509392505050565b7f496e76616c6964207369676e6174757265000000000000000000000000000000600082015250565b6000614d78601183613354565b9150614d8382614d42565b602082019050919050565b60006020820190508181036000830152614da781614d6b565b9050919050565b600081519050919050565b600082825260208201905092915050565b6000614dd582614dae565b614ddf8185614db9565b9350614def818560208601613365565b614df88161338f565b840191505092915050565b6000608082019050614e18600083018761342d565b614e25602083018661342d565b614e326040830185613526565b8181036060830152614e448184614dca565b905095945050505050565b600081519050614e5e816132ba565b92915050565b600060208284031215614e7a57614e79613284565b5b6000614e8884828501614e4f565b91505092915050565b7f4552433732314d657461646174613a2055524920717565727920666f72206e6f60008201527f6e6578697374656e7420746f6b656e0000000000000000000000000000000000602082015250565b6000614eed602f83613354565b9150614ef882614e91565b604082019050919050565b60006020820190508181036000830152614f1c81614ee0565b9050919050565b7f4552433732313a206d696e7420746f20746865207a65726f2061646472657373600082015250565b6000614f59602083613354565b9150614f6482614f23565b602082019050919050565b60006020820190508181036000830152614f8881614f4c565b9050919050565b7f4552433732313a20746f6b656e20616c7265616479206d696e74656400000000600082015250565b6000614fc5601c83613354565b9150614fd082614f8f565b602082019050919050565b60006020820190508181036000830152614ff481614fb8565b9050919050565b600061500682613457565b91507fffffffffffffffffffffffffffffffffffffffffffffffffffffffffffffffff8203615038576150376147e7565b5b600182019050919050565b7f4e487b7100000000000000000000000000000000000000000000000000000000600052601260045260246000fd5b600061507d82613457565b915061508883613457565b92508261509857615097615043565b5b828204905092915050565b60006150ae82613457565b91506150b983613457565b9250826150c9576150c8615043565b5b828206905092915050565b7f4e487b7100000000000000000000000000000000000000000000000000000000600052603160045260246000fd5b7f4e487b7100000000000000000000000000000000000000000000000000000000600052602160045260246000fd5b7f45434453413a20696e76616c6964207369676e61747572650000000000000000600082015250565b6000615168601883613354565b915061517382615132565b602082019050919050565b600060208201905081810360008301526151978161515b565b9050919050565b7f45434453413a20696e76616c6964207369676e6174757265206c656e67746800600082015250565b60006151d4601f83613354565b91506151df8261519e565b602082019050919050565b60006020820190508181036000830152615203816151c7565b9050919050565b7f45434453413a20696e76616c6964207369676e6174757265202773272076616c60008201527f7565000000000000000000000000000000000000000000000000000000000000602082015250565b6000615266602283613354565b91506152718261520a565b604082019050919050565b6000602082019050818103600083015261529581615259565b9050919050565b7f45434453413a20696e76616c6964207369676e6174757265202776272076616c60008201527f7565000000000000000000000000000000000000000000000000000000000000602082015250565b60006152f8602283613354565b91506153038261529c565b604082019050919050565b60006020820190508181036000830152615327816152eb565b9050919050565b600060ff82169050919050565b6153448161532e565b82525050565b600060808201905061535f6000830187613e3d565b61536c602083018661533b565b6153796040830185613e3d565b6153866060830184613e3d565b9594505050505056fea2646970667358221220cef95e07c9c626e10202c6c14ca8ec296b86e64190735204e41277276f46ea8564736f6c63430008110033a2646970667358221220558ac1d82b7d09fb0f0388d5eab5c98b67f96efebac33b7648a1e884751ec5bc64736f6c63430008110033",
  "immutableReferences": {},
  "source": "// SPDX-License-Identifier: MIT\npragma solidity ^0.8.7;\n\nimport \"./CosmoNuts.sol\";\nimport \"./CosmoTreasury.sol\";\n\ncontract CosmoBang {\n\n    address public COSMO_ADDRESS;\n    address public TREASURY_ADDRESS;\n\n    CosmoNuts nuts;\n    CosmoTreasury treasury;\n\n    /**\n    constructor(\n        address _systemAddress,\n        address _matterAddress,\n        string memory _cosmosName,\n        string memory _cosmosSymbol,\n        uint256 _desiredEntities,\n        uint256 _matterRate\n    ) {\n        treasury = new CosmoTreasury(_matterAddress, _matterRate);\n        cosmonuts = new CosmoNuts(_cosmosName, _cosmosSymbol, _desiredEntities, _systemAddress, address(treasury));\n        TREASURY_ADDRESS = address(treasury);\n        COSMO_ADDRESS = address(cosmonuts);\n    }\n    */\n\n    function nutBang(\n        address _systemAddress,\n        address _matterAddress,\n        string memory _cosmosName,\n        string memory _cosmosSymbol,\n        uint256 _desiredEntities,\n        uint256 _matterRate\n    ) external {\n        treasury = new CosmoTreasury(_matterAddress, _matterRate);\n        nuts = new CosmoNuts(_cosmosName, _cosmosSymbol, _desiredEntities, _systemAddress, address(treasury));\n        TREASURY_ADDRESS = address(treasury);\n        COSMO_ADDRESS = address(nuts);\n    }\n\n}\n",
  "sourcePath": "/home/redlentils/Seafile/Websites/avatarnft/contracts/CosmoBang.sol",
  "compiler": {
    "name": "solc",
    "version": "0.8.17+commit.8df45f5f.Emscripten.clang"
  },
  "schemaVersion": "3.4.10",
  "updatedAt": "2022-10-05T17:41:35.058Z",
  "devdoc": {
    "kind": "dev",
    "methods": {},
    "version": 1
  },
  "userdoc": {
    "kind": "user",
    "methods": {
      "nutBang(address,address,string,string,uint256,uint256)": {
        "notice": "constructor( address _systemAddress, address _matterAddress, string memory _cosmosName, string memory _cosmosSymbol, uint256 _desiredEntities, uint256 _matterRate ) { treasury = new CosmoTreasury(_matterAddress, _matterRate); cosmonuts = new CosmoNuts(_cosmosName, _cosmosSymbol, _desiredEntities, _systemAddress, address(treasury)); TREASURY_ADDRESS = address(treasury); COSMO_ADDRESS = address(cosmonuts); }"
      }
    },
    "version": 1
  }
}