{
  "contractName": "CosmoUniverse",
  "abi": [
    {
      "inputs": [
        {
          "internalType": "address",
          "name": "_systemAddress",
          "type": "address"
        },
        {
          "internalType": "string",
          "name": "_matterName",
          "type": "string"
        },
        {
          "internalType": "string",
          "name": "_matterSymbol",
          "type": "string"
        }
      ],
      "stateMutability": "nonpayable",
      "type": "constructor"
    },
    {
      "anonymous": false,
      "inputs": [
        {
          "indexed": true,
          "internalType": "address",
          "name": "previousOwner",
          "type": "address"
        },
        {
          "indexed": true,
          "internalType": "address",
          "name": "newOwner",
          "type": "address"
        }
      ],
      "name": "OwnershipTransferred",
      "type": "event"
    },
    {
      "inputs": [],
      "name": "MATTER_ADDRESS",
      "outputs": [
        {
          "internalType": "address",
          "name": "",
          "type": "address"
        }
      ],
      "stateMutability": "view",
      "type": "function"
    },
    {
      "inputs": [],
      "name": "SYSTEM_ADDRESS",
      "outputs": [
        {
          "internalType": "address",
          "name": "",
          "type": "address"
        }
      ],
      "stateMutability": "view",
      "type": "function"
    },
    {
      "inputs": [
        {
          "internalType": "uint256",
          "name": "",
          "type": "uint256"
        }
      ],
      "name": "bangs",
      "outputs": [
        {
          "internalType": "string",
          "name": "name",
          "type": "string"
        },
        {
          "internalType": "address",
          "name": "implementation",
          "type": "address"
        },
        {
          "internalType": "address",
          "name": "cosmo",
          "type": "address"
        }
      ],
      "stateMutability": "view",
      "type": "function"
    },
    {
      "inputs": [],
      "name": "owner",
      "outputs": [
        {
          "internalType": "address",
          "name": "",
          "type": "address"
        }
      ],
      "stateMutability": "view",
      "type": "function"
    },
    {
      "inputs": [],
      "name": "renounceOwnership",
      "outputs": [],
      "stateMutability": "nonpayable",
      "type": "function"
    },
    {
      "inputs": [
        {
          "internalType": "address",
          "name": "newOwner",
          "type": "address"
        }
      ],
      "name": "transferOwnership",
      "outputs": [],
      "stateMutability": "nonpayable",
      "type": "function"
    },
    {
      "inputs": [
        {
          "internalType": "string",
          "name": "_cosmosName",
          "type": "string"
        },
        {
          "internalType": "string",
          "name": "_cosmosSymbol",
          "type": "string"
        },
        {
          "internalType": "uint256",
          "name": "_desiredEntities",
          "type": "uint256"
        }
      ],
      "name": "bigBang",
      "outputs": [
        {
          "internalType": "address",
          "name": "",
          "type": "address"
        }
      ],
      "stateMutability": "nonpayable",
      "type": "function"
    }
  ],
  "bytecode": "0x608060405260006001553480156200001657600080fd5b50604051620036b2380380620036b283398181016040528101906200003c919062000456565b6200005c620000506200018460201b60201c565b6200018c60201b60201c565b82600260006101000a81548173ffffffffffffffffffffffffffffffffffffffff021916908373ffffffffffffffffffffffffffffffffffffffff1602179055508181604051620000ad9062000250565b620000ba9291906200054d565b604051809103906000f080158015620000d7573d6000803e3d6000fd5b50600860006101000a81548173ffffffffffffffffffffffffffffffffffffffff021916908373ffffffffffffffffffffffffffffffffffffffff160217905550600860009054906101000a900473ffffffffffffffffffffffffffffffffffffffff16600360006101000a81548173ffffffffffffffffffffffffffffffffffffffff021916908373ffffffffffffffffffffffffffffffffffffffff16021790555050505062000588565b600033905090565b60008060009054906101000a900473ffffffffffffffffffffffffffffffffffffffff169050816000806101000a81548173ffffffffffffffffffffffffffffffffffffffff021916908373ffffffffffffffffffffffffffffffffffffffff1602179055508173ffffffffffffffffffffffffffffffffffffffff168173ffffffffffffffffffffffffffffffffffffffff167f8be0079c531659141344cd1fd0a4f28419497f9722a3daafe3b4186f6b6457e060405160405180910390a35050565b611df680620018bc83390190565b6000604051905090565b600080fd5b600080fd5b600073ffffffffffffffffffffffffffffffffffffffff82169050919050565b60006200029f8262000272565b9050919050565b620002b18162000292565b8114620002bd57600080fd5b50565b600081519050620002d181620002a6565b92915050565b600080fd5b600080fd5b6000601f19601f8301169050919050565b7f4e487b7100000000000000000000000000000000000000000000000000000000600052604160045260246000fd5b6200032c82620002e1565b810181811067ffffffffffffffff821117156200034e576200034d620002f2565b5b80604052505050565b6000620003636200025e565b905062000371828262000321565b919050565b600067ffffffffffffffff821115620003945762000393620002f2565b5b6200039f82620002e1565b9050602081019050919050565b60005b83811015620003cc578082015181840152602081019050620003af565b60008484015250505050565b6000620003ef620003e98462000376565b62000357565b9050828152602081018484840111156200040e576200040d620002dc565b5b6200041b848285620003ac565b509392505050565b600082601f8301126200043b576200043a620002d7565b5b81516200044d848260208601620003d8565b91505092915050565b60008060006060848603121562000472576200047162000268565b5b60006200048286828701620002c0565b935050602084015167ffffffffffffffff811115620004a657620004a56200026d565b5b620004b48682870162000423565b925050604084015167ffffffffffffffff811115620004d857620004d76200026d565b5b620004e68682870162000423565b9150509250925092565b600081519050919050565b600082825260208201905092915050565b60006200051982620004f0565b620005258185620004fb565b935062000537818560208601620003ac565b6200054281620002e1565b840191505092915050565b600060408201905081810360008301526200056981856200050c565b905081810360208301526200057f81846200050c565b90509392505050565b61132480620005986000396000f3fe608060405234801561001057600080fd5b506004361061007d5760003560e01c806373b8f3d41161005b57806373b8f3d4146100c857806378759351146100f85780638da5cb5b1461012a578063f2fde38b146101485761007d565b80633434735f1461008257806364b1b663146100a0578063715018a6146100be575b600080fd5b61008a610164565b6040516100979190610970565b60405180910390f35b6100a861018a565b6040516100b59190610970565b60405180910390f35b6100c66101b0565b005b6100e260048036038101906100dd9190610b1b565b610238565b6040516100ef9190610970565b60405180910390f35b610112600480360381019061010d9190610ba6565b61057d565b60405161012193929190610c52565b60405180910390f35b61013261066f565b60405161013f9190610970565b60405180910390f35b610162600480360381019061015d9190610cbc565b610698565b005b600260009054906101000a900473ffffffffffffffffffffffffffffffffffffffff1681565b600360009054906101000a900473ffffffffffffffffffffffffffffffffffffffff1681565b6101b861078f565b73ffffffffffffffffffffffffffffffffffffffff166101d661066f565b73ffffffffffffffffffffffffffffffffffffffff161461022c576040517f08c379a000000000000000000000000000000000000000000000000000000000815260040161022390610d35565b60405180910390fd5b6102366000610797565b565b600061024261078f565b73ffffffffffffffffffffffffffffffffffffffff1661026061066f565b73ffffffffffffffffffffffffffffffffffffffff16146102b6576040517f08c379a00000000000000000000000000000000000000000000000000000000081526004016102ad90610d35565b60405180910390fd5b60006102e6600460010160009054906101000a900473ffffffffffffffffffffffffffffffffffffffff1661085b565b90508073ffffffffffffffffffffffffffffffffffffffff1663485cc955600260009054906101000a900473ffffffffffffffffffffffffffffffffffffffff16600360009054906101000a900473ffffffffffffffffffffffffffffffffffffffff166040518363ffffffff1660e01b8152600401610367929190610d55565b600060405180830381600087803b15801561038157600080fd5b505af1158015610395573d6000803e3d6000fd5b5050505060008173ffffffffffffffffffffffffffffffffffffffff1663679d11498787876040518463ffffffff1660e01b81526004016103d893929190610d8d565b6020604051808303816000875af11580156103f7573d6000803e3d6000fd5b505050506040513d601f19601f8201168201806040525081019061041b9190610de7565b9050856004600001908161042f9190611020565b5080600460020160006101000a81548173ffffffffffffffffffffffffffffffffffffffff021916908373ffffffffffffffffffffffffffffffffffffffff16021790555060046007600060015481526020019081526020016000206000820181600001908161049f9190611108565b506001820160009054906101000a900473ffffffffffffffffffffffffffffffffffffffff168160010160006101000a81548173ffffffffffffffffffffffffffffffffffffffff021916908373ffffffffffffffffffffffffffffffffffffffff1602179055506002820160009054906101000a900473ffffffffffffffffffffffffffffffffffffffff168160020160006101000a81548173ffffffffffffffffffffffffffffffffffffffff021916908373ffffffffffffffffffffffffffffffffffffffff16021790555090505080925050509392505050565b60076020528060005260406000206000915090508060000180546105a090610e43565b80601f01602080910402602001604051908101604052809291908181526020018280546105cc90610e43565b80156106195780601f106105ee57610100808354040283529160200191610619565b820191906000526020600020905b8154815290600101906020018083116105fc57829003601f168201915b5050505050908060010160009054906101000a900473ffffffffffffffffffffffffffffffffffffffff16908060020160009054906101000a900473ffffffffffffffffffffffffffffffffffffffff16905083565b60008060009054906101000a900473ffffffffffffffffffffffffffffffffffffffff16905090565b6106a061078f565b73ffffffffffffffffffffffffffffffffffffffff166106be61066f565b73ffffffffffffffffffffffffffffffffffffffff1614610714576040517f08c379a000000000000000000000000000000000000000000000000000000000815260040161070b90610d35565b60405180910390fd5b600073ffffffffffffffffffffffffffffffffffffffff168173ffffffffffffffffffffffffffffffffffffffff1603610783576040517f08c379a000000000000000000000000000000000000000000000000000000000815260040161077a90611262565b60405180910390fd5b61078c81610797565b50565b600033905090565b60008060009054906101000a900473ffffffffffffffffffffffffffffffffffffffff169050816000806101000a81548173ffffffffffffffffffffffffffffffffffffffff021916908373ffffffffffffffffffffffffffffffffffffffff1602179055508173ffffffffffffffffffffffffffffffffffffffff168173ffffffffffffffffffffffffffffffffffffffff167f8be0079c531659141344cd1fd0a4f28419497f9722a3daafe3b4186f6b6457e060405160405180910390a35050565b60006040517f3d602d80600a3d3981f3363d3d373d3d3d363d7300000000000000000000000081528260601b60148201527f5af43d82803e903d91602b57fd5bf3000000000000000000000000000000000060288201526037816000f0915050600073ffffffffffffffffffffffffffffffffffffffff168173ffffffffffffffffffffffffffffffffffffffff160361092a576040517f08c379a0000000000000000000000000000000000000000000000000000000008152600401610921906112ce565b60405180910390fd5b919050565b600073ffffffffffffffffffffffffffffffffffffffff82169050919050565b600061095a8261092f565b9050919050565b61096a8161094f565b82525050565b60006020820190506109856000830184610961565b92915050565b6000604051905090565b600080fd5b600080fd5b600080fd5b600080fd5b6000601f19601f8301169050919050565b7f4e487b7100000000000000000000000000000000000000000000000000000000600052604160045260246000fd5b6109f2826109a9565b810181811067ffffffffffffffff82111715610a1157610a106109ba565b5b80604052505050565b6000610a2461098b565b9050610a3082826109e9565b919050565b600067ffffffffffffffff821115610a5057610a4f6109ba565b5b610a59826109a9565b9050602081019050919050565b82818337600083830152505050565b6000610a88610a8384610a35565b610a1a565b905082815260208101848484011115610aa457610aa36109a4565b5b610aaf848285610a66565b509392505050565b600082601f830112610acc57610acb61099f565b5b8135610adc848260208601610a75565b91505092915050565b6000819050919050565b610af881610ae5565b8114610b0357600080fd5b50565b600081359050610b1581610aef565b92915050565b600080600060608486031215610b3457610b33610995565b5b600084013567ffffffffffffffff811115610b5257610b5161099a565b5b610b5e86828701610ab7565b935050602084013567ffffffffffffffff811115610b7f57610b7e61099a565b5b610b8b86828701610ab7565b9250506040610b9c86828701610b06565b9150509250925092565b600060208284031215610bbc57610bbb610995565b5b6000610bca84828501610b06565b91505092915050565b600081519050919050565b600082825260208201905092915050565b60005b83811015610c0d578082015181840152602081019050610bf2565b60008484015250505050565b6000610c2482610bd3565b610c2e8185610bde565b9350610c3e818560208601610bef565b610c47816109a9565b840191505092915050565b60006060820190508181036000830152610c6c8186610c19565b9050610c7b6020830185610961565b610c886040830184610961565b949350505050565b610c998161094f565b8114610ca457600080fd5b50565b600081359050610cb681610c90565b92915050565b600060208284031215610cd257610cd1610995565b5b6000610ce084828501610ca7565b91505092915050565b7f4f776e61626c653a2063616c6c6572206973206e6f7420746865206f776e6572600082015250565b6000610d1f602083610bde565b9150610d2a82610ce9565b602082019050919050565b60006020820190508181036000830152610d4e81610d12565b9050919050565b6000604082019050610d6a6000830185610961565b610d776020830184610961565b9392505050565b610d8781610ae5565b82525050565b60006060820190508181036000830152610da78186610c19565b90508181036020830152610dbb8185610c19565b9050610dca6040830184610d7e565b949350505050565b600081519050610de181610c90565b92915050565b600060208284031215610dfd57610dfc610995565b5b6000610e0b84828501610dd2565b91505092915050565b7f4e487b7100000000000000000000000000000000000000000000000000000000600052602260045260246000fd5b60006002820490506001821680610e5b57607f821691505b602082108103610e6e57610e6d610e14565b5b50919050565b60008190508160005260206000209050919050565b60006020601f8301049050919050565b600082821b905092915050565b600060088302610ed67fffffffffffffffffffffffffffffffffffffffffffffffffffffffffffffffff82610e99565b610ee08683610e99565b95508019841693508086168417925050509392505050565b6000819050919050565b6000610f1d610f18610f1384610ae5565b610ef8565b610ae5565b9050919050565b6000819050919050565b610f3783610f02565b610f4b610f4382610f24565b848454610ea6565b825550505050565b600090565b610f60610f53565b610f6b818484610f2e565b505050565b5b81811015610f8f57610f84600082610f58565b600181019050610f71565b5050565b601f821115610fd457610fa581610e74565b610fae84610e89565b81016020851015610fbd578190505b610fd1610fc985610e89565b830182610f70565b50505b505050565b600082821c905092915050565b6000610ff760001984600802610fd9565b1980831691505092915050565b60006110108383610fe6565b9150826002028217905092915050565b61102982610bd3565b67ffffffffffffffff811115611042576110416109ba565b5b61104c8254610e43565b611057828285610f93565b600060209050601f83116001811461108a5760008415611078578287015190505b6110828582611004565b8655506110ea565b601f19841661109886610e74565b60005b828110156110c05784890151825560018201915060208501945060208101905061109b565b868310156110dd57848901516110d9601f891682610fe6565b8355505b6001600288020188555050505b505050505050565b60008154905061110181610e43565b9050919050565b8181036111165750506111ee565b61111f826110f2565b67ffffffffffffffff811115611138576111376109ba565b5b6111428254610e43565b61114d828285610f93565b6000601f83116001811461117c576000841561116a578287015490505b6111748582611004565b8655506111e7565b601f19841661118a87610e74565b965061119586610e74565b60005b828110156111bd57848901548255600182019150600185019450602081019050611198565b868310156111da57848901546111d6601f891682610fe6565b8355505b6001600288020188555050505b5050505050505b565b7f4f776e61626c653a206e6577206f776e657220697320746865207a65726f206160008201527f6464726573730000000000000000000000000000000000000000000000000000602082015250565b600061124c602683610bde565b9150611257826111f0565b604082019050919050565b6000602082019050818103600083015261127b8161123f565b9050919050565b7f455243313136373a20637265617465206661696c656400000000000000000000600082015250565b60006112b8601683610bde565b91506112c382611282565b602082019050919050565b600060208201905081810360008301526112e7816112ab565b905091905056fea264697066735822122028e629ebc2b1954833cfdf32834bbe62bd0f40b16d19e710b2951a96809ccf8764736f6c6343000811003360806040523480156200001157600080fd5b5060405162001df638038062001df68339818101604052810190620000379190620001fa565b818181600390816200004a9190620004ca565b5080600490816200005c9190620004ca565b5050505050620005b1565b6000604051905090565b600080fd5b600080fd5b600080fd5b600080fd5b6000601f19601f8301169050919050565b7f4e487b7100000000000000000000000000000000000000000000000000000000600052604160045260246000fd5b620000d08262000085565b810181811067ffffffffffffffff82111715620000f257620000f162000096565b5b80604052505050565b60006200010762000067565b9050620001158282620000c5565b919050565b600067ffffffffffffffff82111562000138576200013762000096565b5b620001438262000085565b9050602081019050919050565b60005b838110156200017057808201518184015260208101905062000153565b60008484015250505050565b6000620001936200018d846200011a565b620000fb565b905082815260208101848484011115620001b257620001b162000080565b5b620001bf84828562000150565b509392505050565b600082601f830112620001df57620001de6200007b565b5b8151620001f18482602086016200017c565b91505092915050565b6000806040838503121562000214576200021362000071565b5b600083015167ffffffffffffffff81111562000235576200023462000076565b5b6200024385828601620001c7565b925050602083015167ffffffffffffffff81111562000267576200026662000076565b5b6200027585828601620001c7565b9150509250929050565b600081519050919050565b7f4e487b7100000000000000000000000000000000000000000000000000000000600052602260045260246000fd5b60006002820490506001821680620002d257607f821691505b602082108103620002e857620002e76200028a565b5b50919050565b60008190508160005260206000209050919050565b60006020601f8301049050919050565b600082821b905092915050565b600060088302620003527fffffffffffffffffffffffffffffffffffffffffffffffffffffffffffffffff8262000313565b6200035e868362000313565b95508019841693508086168417925050509392505050565b6000819050919050565b6000819050919050565b6000620003ab620003a56200039f8462000376565b62000380565b62000376565b9050919050565b6000819050919050565b620003c7836200038a565b620003df620003d682620003b2565b84845462000320565b825550505050565b600090565b620003f6620003e7565b62000403818484620003bc565b505050565b5b818110156200042b576200041f600082620003ec565b60018101905062000409565b5050565b601f8211156200047a576200044481620002ee565b6200044f8462000303565b810160208510156200045f578190505b620004776200046e8562000303565b83018262000408565b50505b505050565b600082821c905092915050565b60006200049f600019846008026200047f565b1980831691505092915050565b6000620004ba83836200048c565b9150826002028217905092915050565b620004d5826200027f565b67ffffffffffffffff811115620004f157620004f062000096565b5b620004fd8254620002b9565b6200050a8282856200042f565b600060209050601f8311600181146200054257600084156200052d578287015190505b620005398582620004ac565b865550620005a9565b601f1984166200055286620002ee565b60005b828110156200057c5784890151825560018201915060208501945060208101905062000555565b868310156200059c578489015162000598601f8916826200048c565b8355505b6001600288020188555050505b505050505050565b61183580620005c16000396000f3fe608060405234801561001057600080fd5b50600436106100ea5760003560e01c80634bbc1bcd1161008c57806395d89b411161006657806395d89b411461025d578063a457c2d71461027b578063a9059cbb146102ab578063dd62ed3e146102db576100ea565b80634bbc1bcd146101f557806370a082311461021157806379cc679014610241576100ea565b806323b872dd116100c857806323b872dd1461015b578063313ce5671461018b57806339509351146101a957806342966c68146101d9576100ea565b806306fdde03146100ef578063095ea7b31461010d57806318160ddd1461013d575b600080fd5b6100f761030b565b6040516101049190610f21565b60405180910390f35b61012760048036038101906101229190610fdc565b61039d565b6040516101349190611037565b60405180910390f35b6101456103c0565b6040516101529190611061565b60405180910390f35b6101756004803603810190610170919061107c565b6103ca565b6040516101829190611037565b60405180910390f35b6101936103f9565b6040516101a091906110eb565b60405180910390f35b6101c360048036038101906101be9190610fdc565b610402565b6040516101d09190611037565b60405180910390f35b6101f360048036038101906101ee9190611106565b610439565b005b61020f600480360381019061020a9190610fdc565b61044d565b005b61022b60048036038101906102269190611133565b61045b565b6040516102389190611061565b60405180910390f35b61025b60048036038101906102569190610fdc565b6104a3565b005b6102656104c3565b6040516102729190610f21565b60405180910390f35b61029560048036038101906102909190610fdc565b610555565b6040516102a29190611037565b60405180910390f35b6102c560048036038101906102c09190610fdc565b6105cc565b6040516102d29190611037565b60405180910390f35b6102f560048036038101906102f09190611160565b6105ef565b6040516103029190611061565b60405180910390f35b60606003805461031a906111cf565b80601f0160208091040260200160405190810160405280929190818152602001828054610346906111cf565b80156103935780601f1061036857610100808354040283529160200191610393565b820191906000526020600020905b81548152906001019060200180831161037657829003601f168201915b5050505050905090565b6000806103a8610676565b90506103b581858561067e565b600191505092915050565b6000600254905090565b6000806103d5610676565b90506103e2858285610847565b6103ed8585856108d3565b60019150509392505050565b60006012905090565b60008061040d610676565b905061042e81858561041f85896105ef565b610429919061122f565b61067e565b600191505092915050565b61044a610444610676565b82610b52565b50565b6104578282610d28565b5050565b60008060008373ffffffffffffffffffffffffffffffffffffffff1673ffffffffffffffffffffffffffffffffffffffff168152602001908152602001600020549050919050565b6104b5826104af610676565b83610847565b6104bf8282610b52565b5050565b6060600480546104d2906111cf565b80601f01602080910402602001604051908101604052809291908181526020018280546104fe906111cf565b801561054b5780601f106105205761010080835404028352916020019161054b565b820191906000526020600020905b81548152906001019060200180831161052e57829003601f168201915b5050505050905090565b600080610560610676565b9050600061056e82866105ef565b9050838110156105b3576040517f08c379a00000000000000000000000000000000000000000000000000000000081526004016105aa906112d5565b60405180910390fd5b6105c0828686840361067e565b60019250505092915050565b6000806105d7610676565b90506105e48185856108d3565b600191505092915050565b6000600160008473ffffffffffffffffffffffffffffffffffffffff1673ffffffffffffffffffffffffffffffffffffffff16815260200190815260200160002060008373ffffffffffffffffffffffffffffffffffffffff1673ffffffffffffffffffffffffffffffffffffffff16815260200190815260200160002054905092915050565b600033905090565b600073ffffffffffffffffffffffffffffffffffffffff168373ffffffffffffffffffffffffffffffffffffffff16036106ed576040517f08c379a00000000000000000000000000000000000000000000000000000000081526004016106e490611367565b60405180910390fd5b600073ffffffffffffffffffffffffffffffffffffffff168273ffffffffffffffffffffffffffffffffffffffff160361075c576040517f08c379a0000000000000000000000000000000000000000000000000000000008152600401610753906113f9565b60405180910390fd5b80600160008573ffffffffffffffffffffffffffffffffffffffff1673ffffffffffffffffffffffffffffffffffffffff16815260200190815260200160002060008473ffffffffffffffffffffffffffffffffffffffff1673ffffffffffffffffffffffffffffffffffffffff168152602001908152602001600020819055508173ffffffffffffffffffffffffffffffffffffffff168373ffffffffffffffffffffffffffffffffffffffff167f8c5be1e5ebec7d5bd14f71427d1e84f3dd0314c0f7b2291e5b200ac8c7c3b9258360405161083a9190611061565b60405180910390a3505050565b600061085384846105ef565b90507fffffffffffffffffffffffffffffffffffffffffffffffffffffffffffffffff81146108cd57818110156108bf576040517f08c379a00000000000000000000000000000000000000000000000000000000081526004016108b690611465565b60405180910390fd5b6108cc848484840361067e565b5b50505050565b600073ffffffffffffffffffffffffffffffffffffffff168373ffffffffffffffffffffffffffffffffffffffff1603610942576040517f08c379a0000000000000000000000000000000000000000000000000000000008152600401610939906114f7565b60405180910390fd5b600073ffffffffffffffffffffffffffffffffffffffff168273ffffffffffffffffffffffffffffffffffffffff16036109b1576040517f08c379a00000000000000000000000000000000000000000000000000000000081526004016109a890611589565b60405180910390fd5b6109bc838383610e87565b60008060008573ffffffffffffffffffffffffffffffffffffffff1673ffffffffffffffffffffffffffffffffffffffff16815260200190815260200160002054905081811015610a42576040517f08c379a0000000000000000000000000000000000000000000000000000000008152600401610a399061161b565b60405180910390fd5b8181036000808673ffffffffffffffffffffffffffffffffffffffff1673ffffffffffffffffffffffffffffffffffffffff16815260200190815260200160002081905550816000808573ffffffffffffffffffffffffffffffffffffffff1673ffffffffffffffffffffffffffffffffffffffff1681526020019081526020016000206000828254610ad5919061122f565b925050819055508273ffffffffffffffffffffffffffffffffffffffff168473ffffffffffffffffffffffffffffffffffffffff167fddf252ad1be2c89b69c2b068fc378daa952ba7f163c4a11628f55a4df523b3ef84604051610b399190611061565b60405180910390a3610b4c848484610e8c565b50505050565b600073ffffffffffffffffffffffffffffffffffffffff168273ffffffffffffffffffffffffffffffffffffffff1603610bc1576040517f08c379a0000000000000000000000000000000000000000000000000000000008152600401610bb8906116ad565b60405180910390fd5b610bcd82600083610e87565b60008060008473ffffffffffffffffffffffffffffffffffffffff1673ffffffffffffffffffffffffffffffffffffffff16815260200190815260200160002054905081811015610c53576040517f08c379a0000000000000000000000000000000000000000000000000000000008152600401610c4a9061173f565b60405180910390fd5b8181036000808573ffffffffffffffffffffffffffffffffffffffff1673ffffffffffffffffffffffffffffffffffffffff168152602001908152602001600020819055508160026000828254610caa919061175f565b92505081905550600073ffffffffffffffffffffffffffffffffffffffff168373ffffffffffffffffffffffffffffffffffffffff167fddf252ad1be2c89b69c2b068fc378daa952ba7f163c4a11628f55a4df523b3ef84604051610d0f9190611061565b60405180910390a3610d2383600084610e8c565b505050565b600073ffffffffffffffffffffffffffffffffffffffff168273ffffffffffffffffffffffffffffffffffffffff1603610d97576040517f08c379a0000000000000000000000000000000000000000000000000000000008152600401610d8e906117df565b60405180910390fd5b610da360008383610e87565b8060026000828254610db5919061122f565b92505081905550806000808473ffffffffffffffffffffffffffffffffffffffff1673ffffffffffffffffffffffffffffffffffffffff1681526020019081526020016000206000828254610e0a919061122f565b925050819055508173ffffffffffffffffffffffffffffffffffffffff16600073ffffffffffffffffffffffffffffffffffffffff167fddf252ad1be2c89b69c2b068fc378daa952ba7f163c4a11628f55a4df523b3ef83604051610e6f9190611061565b60405180910390a3610e8360008383610e8c565b5050565b505050565b505050565b600081519050919050565b600082825260208201905092915050565b60005b83811015610ecb578082015181840152602081019050610eb0565b60008484015250505050565b6000601f19601f8301169050919050565b6000610ef382610e91565b610efd8185610e9c565b9350610f0d818560208601610ead565b610f1681610ed7565b840191505092915050565b60006020820190508181036000830152610f3b8184610ee8565b905092915050565b600080fd5b600073ffffffffffffffffffffffffffffffffffffffff82169050919050565b6000610f7382610f48565b9050919050565b610f8381610f68565b8114610f8e57600080fd5b50565b600081359050610fa081610f7a565b92915050565b6000819050919050565b610fb981610fa6565b8114610fc457600080fd5b50565b600081359050610fd681610fb0565b92915050565b60008060408385031215610ff357610ff2610f43565b5b600061100185828601610f91565b925050602061101285828601610fc7565b9150509250929050565b60008115159050919050565b6110318161101c565b82525050565b600060208201905061104c6000830184611028565b92915050565b61105b81610fa6565b82525050565b60006020820190506110766000830184611052565b92915050565b60008060006060848603121561109557611094610f43565b5b60006110a386828701610f91565b93505060206110b486828701610f91565b92505060406110c586828701610fc7565b9150509250925092565b600060ff82169050919050565b6110e5816110cf565b82525050565b600060208201905061110060008301846110dc565b92915050565b60006020828403121561111c5761111b610f43565b5b600061112a84828501610fc7565b91505092915050565b60006020828403121561114957611148610f43565b5b600061115784828501610f91565b91505092915050565b6000806040838503121561117757611176610f43565b5b600061118585828601610f91565b925050602061119685828601610f91565b9150509250929050565b7f4e487b7100000000000000000000000000000000000000000000000000000000600052602260045260246000fd5b600060028204905060018216806111e757607f821691505b6020821081036111fa576111f96111a0565b5b50919050565b7f4e487b7100000000000000000000000000000000000000000000000000000000600052601160045260246000fd5b600061123a82610fa6565b915061124583610fa6565b925082820190508082111561125d5761125c611200565b5b92915050565b7f45524332303a2064656372656173656420616c6c6f77616e63652062656c6f7760008201527f207a65726f000000000000000000000000000000000000000000000000000000602082015250565b60006112bf602583610e9c565b91506112ca82611263565b604082019050919050565b600060208201905081810360008301526112ee816112b2565b9050919050565b7f45524332303a20617070726f76652066726f6d20746865207a65726f2061646460008201527f7265737300000000000000000000000000000000000000000000000000000000602082015250565b6000611351602483610e9c565b915061135c826112f5565b604082019050919050565b6000602082019050818103600083015261138081611344565b9050919050565b7f45524332303a20617070726f766520746f20746865207a65726f20616464726560008201527f7373000000000000000000000000000000000000000000000000000000000000602082015250565b60006113e3602283610e9c565b91506113ee82611387565b604082019050919050565b60006020820190508181036000830152611412816113d6565b9050919050565b7f45524332303a20696e73756666696369656e7420616c6c6f77616e6365000000600082015250565b600061144f601d83610e9c565b915061145a82611419565b602082019050919050565b6000602082019050818103600083015261147e81611442565b9050919050565b7f45524332303a207472616e736665722066726f6d20746865207a65726f20616460008201527f6472657373000000000000000000000000000000000000000000000000000000602082015250565b60006114e1602583610e9c565b91506114ec82611485565b604082019050919050565b60006020820190508181036000830152611510816114d4565b9050919050565b7f45524332303a207472616e7366657220746f20746865207a65726f206164647260008201527f6573730000000000000000000000000000000000000000000000000000000000602082015250565b6000611573602383610e9c565b915061157e82611517565b604082019050919050565b600060208201905081810360008301526115a281611566565b9050919050565b7f45524332303a207472616e7366657220616d6f756e742065786365656473206260008201527f616c616e63650000000000000000000000000000000000000000000000000000602082015250565b6000611605602683610e9c565b9150611610826115a9565b604082019050919050565b60006020820190508181036000830152611634816115f8565b9050919050565b7f45524332303a206275726e2066726f6d20746865207a65726f2061646472657360008201527f7300000000000000000000000000000000000000000000000000000000000000602082015250565b6000611697602183610e9c565b91506116a28261163b565b604082019050919050565b600060208201905081810360008301526116c68161168a565b9050919050565b7f45524332303a206275726e20616d6f756e7420657863656564732062616c616e60008201527f6365000000000000000000000000000000000000000000000000000000000000602082015250565b6000611729602283610e9c565b9150611734826116cd565b604082019050919050565b600060208201905081810360008301526117588161171c565b9050919050565b600061176a82610fa6565b915061177583610fa6565b925082820390508181111561178d5761178c611200565b5b92915050565b7f45524332303a206d696e7420746f20746865207a65726f206164647265737300600082015250565b60006117c9601f83610e9c565b91506117d482611793565b602082019050919050565b600060208201905081810360008301526117f8816117bc565b905091905056fea2646970667358221220651af7018f891595fa313c1ee4d501140df4ba53bebe4bafe45b5d16a2faa6ee64736f6c63430008110033",
  "immutableReferences": {},
  "source": "// SPDX-License-Identifier: MIT\npragma solidity ^0.8.7;\n\nimport \"openzeppelin-solidity/contracts/access/Ownable.sol\";\nimport { Clones } from \"openzeppelin-solidity/contracts/proxy/Clones.sol\";\nimport \"./CosmoMatter.sol\";\nimport \"./CosmoBang.sol\";\nimport \"./ICosmoBang.sol\";\n\n/**\n * CosmoUniverse is the top contract for the developer to create the planned system.\n * The creation of this contract creates an ERC20 coin called CosmoMatter.\n * The owner of this contract has the option to create a big bang starting the CosmoNuts universe.\n * Each universe is comprised of an NFT collection and a Treasury to manage funds of that NFT collection.\n */\n contract CosmoUniverse is Ownable {\n\n    uint256 COSMOS_INDEX = 0;\n    address public SYSTEM_ADDRESS;\n    address public MATTER_ADDRESS;\n\n    struct Bang {\n        string name;\n        address implementation;\n        address cosmo;\n    }\n    Bang bang;\n    mapping(uint256 => Bang) public bangs;\n\n    CosmoMatter matter;\n\n    constructor(\n        address _systemAddress,\n        string memory _matterName,\n        string memory _matterSymbol\n    )\n    {\n        SYSTEM_ADDRESS = _systemAddress;\n        matter = new CosmoMatter(_matterName, _matterSymbol);\n        MATTER_ADDRESS = address(matter);\n    }\n\n    function bigBang(\n        string memory _cosmosName,\n        string memory _cosmosSymbol,\n        uint256 _desiredEntities\n    ) public onlyOwner returns (address) {\n        CosmoBang cosmobang = CosmoBang(Clones.clone(bang.implementation));\n        cosmobang.initialize(SYSTEM_ADDRESS, MATTER_ADDRESS);\n\n        address cosmoAddress = ICosmoBang(address(cosmobang)).createCosmo(\n            _cosmosName,\n            _cosmosSymbol,\n            _desiredEntities\n        );\n\n        bang.name = _cosmosName;\n        bang.cosmo = cosmoAddress;\n        bangs[COSMOS_INDEX] = bang;\n\n        return cosmoAddress;\n    }\n\n}\n",
  "sourcePath": "/home/redlentils/Seafile/Websites/avatarnft/contracts/CosmoUniverse.sol",
  "compiler": {
    "name": "solc",
    "version": "0.8.17+commit.8df45f5f.Emscripten.clang"
  },
  "schemaVersion": "3.4.10",
  "updatedAt": "2022-10-18T19:38:54.426Z",
  "devdoc": {
    "kind": "dev",
    "methods": {
      "owner()": {
        "details": "Returns the address of the current owner."
      },
      "renounceOwnership()": {
        "details": "Leaves the contract without owner. It will not be possible to call `onlyOwner` functions anymore. Can only be called by the current owner. NOTE: Renouncing ownership will leave the contract without an owner, thereby removing any functionality that is only available to the owner."
      },
      "transferOwnership(address)": {
        "details": "Transfers ownership of the contract to a new account (`newOwner`). Can only be called by the current owner."
      }
    },
    "version": 1
  },
  "userdoc": {
    "kind": "user",
    "methods": {},
    "notice": "CosmoUniverse is the top contract for the developer to create the planned system. The creation of this contract creates an ERC20 coin called CosmoMatter. The owner of this contract has the option to create a big bang starting the CosmoNuts universe. Each universe is comprised of an NFT collection and a Treasury to manage funds of that NFT collection.",
    "version": 1
  }
}