{
  "contractName": "CosmoButter",
  "abi": [
    {
      "inputs": [
        {
          "internalType": "uint256",
          "name": "_butterId",
          "type": "uint256"
        },
        {
          "internalType": "uint256",
          "name": "_nutId",
          "type": "uint256"
        },
        {
          "internalType": "uint256",
          "name": "_butterAmount",
          "type": "uint256"
        },
        {
          "internalType": "uint256",
          "name": "_drawRate",
          "type": "uint256"
        },
        {
          "internalType": "address",
          "name": "_treasuryAddress",
          "type": "address"
        },
        {
          "internalType": "bytes32",
          "name": "_secretHash",
          "type": "bytes32"
        }
      ],
      "stateMutability": "nonpayable",
      "type": "constructor"
    },
    {
      "inputs": [
        {
          "internalType": "string",
          "name": "_secret",
          "type": "string"
        },
        {
          "internalType": "string",
          "name": "_cidPath",
          "type": "string"
        },
        {
          "internalType": "bytes",
          "name": "_signature",
          "type": "bytes"
        }
      ],
      "name": "drawButter",
      "outputs": [],
      "stateMutability": "nonpayable",
      "type": "function"
    }
  ],
  "bytecode": "0x60806040523480156200001157600080fd5b5060405162000daa38038062000daa833981810160405281019062000037919062000283565b85600080018190555084600060010181905550836000600201819055508260006003018190555030600060040160006101000a81548173ffffffffffffffffffffffffffffffffffffffff021916908373ffffffffffffffffffffffffffffffffffffffff16021790555033600060050160006101000a81548173ffffffffffffffffffffffffffffffffffffffff021916908373ffffffffffffffffffffffffffffffffffffffff16021790555080600060060181905550600060050160009054906101000a900473ffffffffffffffffffffffffffffffffffffffff16600860006101000a81548173ffffffffffffffffffffffffffffffffffffffff021916908373ffffffffffffffffffffffffffffffffffffffff16021790555081600960006101000a81548173ffffffffffffffffffffffffffffffffffffffff021916908373ffffffffffffffffffffffffffffffffffffffff1602179055505050505050506200031f565b600080fd5b6000819050919050565b620001bd81620001a8565b8114620001c957600080fd5b50565b600081519050620001dd81620001b2565b92915050565b600073ffffffffffffffffffffffffffffffffffffffff82169050919050565b60006200021082620001e3565b9050919050565b620002228162000203565b81146200022e57600080fd5b50565b600081519050620002428162000217565b92915050565b6000819050919050565b6200025d8162000248565b81146200026957600080fd5b50565b6000815190506200027d8162000252565b92915050565b60008060008060008060c08789031215620002a357620002a2620001a3565b5b6000620002b389828a01620001cc565b9650506020620002c689828a01620001cc565b9550506040620002d989828a01620001cc565b9450506060620002ec89828a01620001cc565b9350506080620002ff89828a0162000231565b92505060a06200031289828a016200026c565b9150509295509295509295565b610a7b806200032f6000396000f3fe608060405234801561001057600080fd5b506004361061002b5760003560e01c806327ac1b6514610030575b600080fd5b61004a60048036038101906100459190610587565b61004c565b005b60011515600060070160003373ffffffffffffffffffffffffffffffffffffffff1673ffffffffffffffffffffffffffffffffffffffff16815260200190815260200160002060009054906101000a900460ff161515036100e2576040517f08c379a00000000000000000000000000000000000000000000000000000000081526004016100d99061068b565b60405180910390fd5b6000806002015411610129576040517f08c379a0000000000000000000000000000000000000000000000000000000008152600401610120906106f7565b60405180910390fd5b6101328361030f565b50600960009054906101000a900473ffffffffffffffffffffffffffffffffffffffff1673ffffffffffffffffffffffffffffffffffffffff16639cee22b13360008001546000600301546000600201546040518563ffffffff1660e01b81526004016101a29493929190610771565b6020604051808303816000875af11580156101c1573d6000803e3d6000fd5b505050506040513d601f19601f820116820180604052508101906101e591906107ee565b5060006003015460006002016000828254610200919061084a565b925050819055506001600060070160003373ffffffffffffffffffffffffffffffffffffffff1673ffffffffffffffffffffffffffffffffffffffff16815260200190815260200160002060006101000a81548160ff021916908315150217905550600860009054906101000a900473ffffffffffffffffffffffffffffffffffffffff1673ffffffffffffffffffffffffffffffffffffffff16639202c1ec60006001015484846040518463ffffffff1660e01b81526004016102c693929190610941565b6020604051808303816000875af11580156102e5573d6000803e3d6000fd5b505050506040513d601f19601f8201168201806040525081019061030991906107ee565b50505050565b6000808260405160200161032391906109c2565b6040516020818303038152906040528051906020012090506000600601548114610382576040517f08c379a000000000000000000000000000000000000000000000000000000000815260040161037990610a25565b60405180910390fd5b6001915050919050565b6000604051905090565b600080fd5b600080fd5b600080fd5b600080fd5b6000601f19601f8301169050919050565b7f4e487b7100000000000000000000000000000000000000000000000000000000600052604160045260246000fd5b6103f3826103aa565b810181811067ffffffffffffffff82111715610412576104116103bb565b5b80604052505050565b600061042561038c565b905061043182826103ea565b919050565b600067ffffffffffffffff821115610451576104506103bb565b5b61045a826103aa565b9050602081019050919050565b82818337600083830152505050565b600061048961048484610436565b61041b565b9050828152602081018484840111156104a5576104a46103a5565b5b6104b0848285610467565b509392505050565b600082601f8301126104cd576104cc6103a0565b5b81356104dd848260208601610476565b91505092915050565b600067ffffffffffffffff821115610501576105006103bb565b5b61050a826103aa565b9050602081019050919050565b600061052a610525846104e6565b61041b565b905082815260208101848484011115610546576105456103a5565b5b610551848285610467565b509392505050565b600082601f83011261056e5761056d6103a0565b5b813561057e848260208601610517565b91505092915050565b6000806000606084860312156105a05761059f610396565b5b600084013567ffffffffffffffff8111156105be576105bd61039b565b5b6105ca868287016104b8565b935050602084013567ffffffffffffffff8111156105eb576105ea61039b565b5b6105f7868287016104b8565b925050604084013567ffffffffffffffff8111156106185761061761039b565b5b61062486828701610559565b9150509250925092565b600082825260208201905092915050565b7f43616e206f6e6c792064726177206f6e63650000000000000000000000000000600082015250565b600061067560128361062e565b91506106808261063f565b602082019050919050565b600060208201905081810360008301526106a481610668565b9050919050565b7f4e6f2062757474657220746f2064726177000000000000000000000000000000600082015250565b60006106e160118361062e565b91506106ec826106ab565b602082019050919050565b60006020820190508181036000830152610710816106d4565b9050919050565b600073ffffffffffffffffffffffffffffffffffffffff82169050919050565b600061074282610717565b9050919050565b61075281610737565b82525050565b6000819050919050565b61076b81610758565b82525050565b60006080820190506107866000830187610749565b6107936020830186610762565b6107a06040830185610762565b6107ad6060830184610762565b95945050505050565b60008115159050919050565b6107cb816107b6565b81146107d657600080fd5b50565b6000815190506107e8816107c2565b92915050565b60006020828403121561080457610803610396565b5b6000610812848285016107d9565b91505092915050565b7f4e487b7100000000000000000000000000000000000000000000000000000000600052601160045260246000fd5b600061085582610758565b915061086083610758565b92508282039050818111156108785761087761081b565b5b92915050565b600081519050919050565b60005b838110156108a757808201518184015260208101905061088c565b60008484015250505050565b60006108be8261087e565b6108c8818561062e565b93506108d8818560208601610889565b6108e1816103aa565b840191505092915050565b600081519050919050565b600082825260208201905092915050565b6000610913826108ec565b61091d81856108f7565b935061092d818560208601610889565b610936816103aa565b840191505092915050565b60006060820190506109566000830186610762565b818103602083015261096881856108b3565b9050818103604083015261097c8184610908565b9050949350505050565b600081905092915050565b600061099c8261087e565b6109a68185610986565b93506109b6818560208601610889565b80840191505092915050565b60006109ce8284610991565b915081905092915050565b7f496e70757420646f6573206e6f74206d61746368207365637265740000000000600082015250565b6000610a0f601b8361062e565b9150610a1a826109d9565b602082019050919050565b60006020820190508181036000830152610a3e81610a02565b905091905056fea2646970667358221220cea9116840c015711fcda7ef4fb50300af411142463ab8de13b8018e404ed0e064736f6c63430008110033",
  "immutableReferences": {},
  "source": "// SPDX-License-Identifier: MIT\npragma solidity ^0.8.7;\n\nimport \"./CosmoNuts.sol\";\nimport \"./CosmoTreasury.sol\";\n\n/**\n * A contract created by a CosmoNut which contains a certain amount of matter,\n * and can be drawn by others if the secret is known.\n */\ncontract CosmoButter {\n\n    struct Butter {\n        uint256 id;\n        uint256 nutId;\n        uint256 amount;\n        uint256 drawRate;\n        address location;\n        address nutLocation;\n        bytes32 secretHash;\n        mapping(address => bool) drawnBefore;\n    }\n    Butter butter;\n\n    CosmoNuts nuts;\n    CosmoTreasury treasury;\n\n    constructor(\n        uint256 _butterId,\n        uint256 _nutId,\n        uint256 _butterAmount,\n        uint256 _drawRate,\n        address _treasuryAddress,\n        bytes32 _secretHash\n    ) {\n        butter.id = _butterId;\n        butter.nutId = _nutId;\n        butter.amount = _butterAmount;\n        butter.drawRate = _drawRate;\n        butter.location = address(this);\n        butter.nutLocation = address(msg.sender);\n        butter.secretHash = _secretHash;\n\n        nuts = CosmoNuts(butter.nutLocation);\n        treasury = CosmoTreasury(_treasuryAddress);\n    }\n\n    modifier onlyOnce {\n        require(butter.drawnBefore[msg.sender] != true, \"Can only draw once\");\n        _;\n    }\n\n    /**\n     * Function callable from anyone, but can only be done once per Ethereum address.\n     */\n    function drawButter(string memory _secret, string memory _cidPath, bytes memory _signature) onlyOnce public {\n        require(butter.amount > 0 wei, \"No butter to draw\");\n        verifySecret(_secret);\n\n        treasury.butterDrawn(msg.sender, butter.id, butter.drawRate, butter.amount);\n        butter.amount -= butter.drawRate;\n        butter.drawnBefore[msg.sender] = true;\n\n        nuts.spreadButter(butter.nutId, _cidPath, _signature);\n    }\n\n    /**\n     * Takes a string input and hashes it; compares to the SECRET_HASH in the contract\n     * If it matches, returns true.\n     */\n    function verifySecret(string memory _input) private view returns(bool) {\n        bytes32 inputHash = keccak256(abi.encodePacked(_input));\n        require(inputHash == butter.secretHash, \"Input does not match secret\");\n        return true;\n    }\n\n\n}\n",
  "sourcePath": "/home/redlentils/Seafile/Websites/avatarnft/contracts/CosmoButter.sol",
  "compiler": {
    "name": "solc",
    "version": "0.8.17+commit.8df45f5f.Emscripten.clang"
  },
  "schemaVersion": "3.4.10",
  "updatedAt": "2022-10-18T05:13:26.758Z",
  "devdoc": {
    "kind": "dev",
    "methods": {},
    "version": 1
  },
  "userdoc": {
    "kind": "user",
    "methods": {
      "drawButter(string,string,bytes)": {
        "notice": "Function callable from anyone, but can only be done once per Ethereum address."
      }
    },
    "notice": "A contract created by a CosmoNut which contains a certain amount of matter, and can be drawn by others if the secret is known.",
    "version": 1
  }
}