{
  "contractName": "CosmoCreation",
  "abi": [
    {
      "inputs": [
        {
          "internalType": "string",
          "name": "_name",
          "type": "string"
        },
        {
          "internalType": "string",
          "name": "_symbol",
          "type": "string"
        },
        {
          "internalType": "uint256",
          "name": "_supply",
          "type": "uint256"
        },
        {
          "internalType": "address",
          "name": "_systemAddress",
          "type": "address"
        },
        {
          "internalType": "address",
          "name": "_treasuryAddress",
          "type": "address"
        }
      ],
      "stateMutability": "nonpayable",
      "type": "constructor"
    },
    {
      "anonymous": false,
      "inputs": [
        {
          "indexed": true,
          "internalType": "address",
          "name": "owner",
          "type": "address"
        },
        {
          "indexed": true,
          "internalType": "address",
          "name": "approved",
          "type": "address"
        },
        {
          "indexed": true,
          "internalType": "uint256",
          "name": "tokenId",
          "type": "uint256"
        }
      ],
      "name": "Approval",
      "type": "event"
    },
    {
      "anonymous": false,
      "inputs": [
        {
          "indexed": true,
          "internalType": "address",
          "name": "owner",
          "type": "address"
        },
        {
          "indexed": true,
          "internalType": "address",
          "name": "operator",
          "type": "address"
        },
        {
          "indexed": false,
          "internalType": "bool",
          "name": "approved",
          "type": "bool"
        }
      ],
      "name": "ApprovalForAll",
      "type": "event"
    },
    {
      "anonymous": false,
      "inputs": [
        {
          "indexed": true,
          "internalType": "address",
          "name": "previousOwner",
          "type": "address"
        },
        {
          "indexed": true,
          "internalType": "address",
          "name": "newOwner",
          "type": "address"
        }
      ],
      "name": "OwnershipTransferred",
      "type": "event"
    },
    {
      "anonymous": false,
      "inputs": [
        {
          "indexed": true,
          "internalType": "address",
          "name": "from",
          "type": "address"
        },
        {
          "indexed": true,
          "internalType": "address",
          "name": "to",
          "type": "address"
        },
        {
          "indexed": true,
          "internalType": "uint256",
          "name": "tokenId",
          "type": "uint256"
        }
      ],
      "name": "Transfer",
      "type": "event"
    },
    {
      "inputs": [
        {
          "internalType": "address",
          "name": "to",
          "type": "address"
        },
        {
          "internalType": "uint256",
          "name": "tokenId",
          "type": "uint256"
        }
      ],
      "name": "approve",
      "outputs": [],
      "stateMutability": "nonpayable",
      "type": "function"
    },
    {
      "inputs": [
        {
          "internalType": "address",
          "name": "owner",
          "type": "address"
        }
      ],
      "name": "balanceOf",
      "outputs": [
        {
          "internalType": "uint256",
          "name": "",
          "type": "uint256"
        }
      ],
      "stateMutability": "view",
      "type": "function"
    },
    {
      "inputs": [],
      "name": "creation",
      "outputs": [
        {
          "internalType": "uint256",
          "name": "initialSupply",
          "type": "uint256"
        },
        {
          "internalType": "address",
          "name": "system",
          "type": "address"
        },
        {
          "internalType": "address",
          "name": "treasury",
          "type": "address"
        },
        {
          "internalType": "address",
          "name": "vault",
          "type": "address"
        },
        {
          "internalType": "address",
          "name": "vaultImplementation",
          "type": "address"
        }
      ],
      "stateMutability": "view",
      "type": "function"
    },
    {
      "inputs": [
        {
          "internalType": "uint256",
          "name": "tokenId",
          "type": "uint256"
        }
      ],
      "name": "getApproved",
      "outputs": [
        {
          "internalType": "address",
          "name": "",
          "type": "address"
        }
      ],
      "stateMutability": "view",
      "type": "function"
    },
    {
      "inputs": [
        {
          "internalType": "address",
          "name": "owner",
          "type": "address"
        },
        {
          "internalType": "address",
          "name": "operator",
          "type": "address"
        }
      ],
      "name": "isApprovedForAll",
      "outputs": [
        {
          "internalType": "bool",
          "name": "",
          "type": "bool"
        }
      ],
      "stateMutability": "view",
      "type": "function"
    },
    {
      "inputs": [],
      "name": "name",
      "outputs": [
        {
          "internalType": "string",
          "name": "",
          "type": "string"
        }
      ],
      "stateMutability": "view",
      "type": "function"
    },
    {
      "inputs": [],
      "name": "owner",
      "outputs": [
        {
          "internalType": "address",
          "name": "",
          "type": "address"
        }
      ],
      "stateMutability": "view",
      "type": "function"
    },
    {
      "inputs": [
        {
          "internalType": "uint256",
          "name": "tokenId",
          "type": "uint256"
        }
      ],
      "name": "ownerOf",
      "outputs": [
        {
          "internalType": "address",
          "name": "",
          "type": "address"
        }
      ],
      "stateMutability": "view",
      "type": "function"
    },
    {
      "inputs": [],
      "name": "renounceOwnership",
      "outputs": [],
      "stateMutability": "nonpayable",
      "type": "function"
    },
    {
      "inputs": [
        {
          "internalType": "address",
          "name": "from",
          "type": "address"
        },
        {
          "internalType": "address",
          "name": "to",
          "type": "address"
        },
        {
          "internalType": "uint256",
          "name": "tokenId",
          "type": "uint256"
        }
      ],
      "name": "safeTransferFrom",
      "outputs": [],
      "stateMutability": "nonpayable",
      "type": "function"
    },
    {
      "inputs": [
        {
          "internalType": "address",
          "name": "from",
          "type": "address"
        },
        {
          "internalType": "address",
          "name": "to",
          "type": "address"
        },
        {
          "internalType": "uint256",
          "name": "tokenId",
          "type": "uint256"
        },
        {
          "internalType": "bytes",
          "name": "_data",
          "type": "bytes"
        }
      ],
      "name": "safeTransferFrom",
      "outputs": [],
      "stateMutability": "nonpayable",
      "type": "function"
    },
    {
      "inputs": [
        {
          "internalType": "address",
          "name": "operator",
          "type": "address"
        },
        {
          "internalType": "bool",
          "name": "approved",
          "type": "bool"
        }
      ],
      "name": "setApprovalForAll",
      "outputs": [],
      "stateMutability": "nonpayable",
      "type": "function"
    },
    {
      "inputs": [],
      "name": "symbol",
      "outputs": [
        {
          "internalType": "string",
          "name": "",
          "type": "string"
        }
      ],
      "stateMutability": "view",
      "type": "function"
    },
    {
      "inputs": [
        {
          "internalType": "uint256",
          "name": "index",
          "type": "uint256"
        }
      ],
      "name": "tokenByIndex",
      "outputs": [
        {
          "internalType": "uint256",
          "name": "",
          "type": "uint256"
        }
      ],
      "stateMutability": "view",
      "type": "function"
    },
    {
      "inputs": [
        {
          "internalType": "address",
          "name": "owner",
          "type": "address"
        },
        {
          "internalType": "uint256",
          "name": "index",
          "type": "uint256"
        }
      ],
      "name": "tokenOfOwnerByIndex",
      "outputs": [
        {
          "internalType": "uint256",
          "name": "",
          "type": "uint256"
        }
      ],
      "stateMutability": "view",
      "type": "function"
    },
    {
      "inputs": [],
      "name": "totalSupply",
      "outputs": [
        {
          "internalType": "uint256",
          "name": "",
          "type": "uint256"
        }
      ],
      "stateMutability": "view",
      "type": "function"
    },
    {
      "inputs": [
        {
          "internalType": "address",
          "name": "from",
          "type": "address"
        },
        {
          "internalType": "address",
          "name": "to",
          "type": "address"
        },
        {
          "internalType": "uint256",
          "name": "tokenId",
          "type": "uint256"
        }
      ],
      "name": "transferFrom",
      "outputs": [],
      "stateMutability": "nonpayable",
      "type": "function"
    },
    {
      "inputs": [
        {
          "internalType": "address",
          "name": "newOwner",
          "type": "address"
        }
      ],
      "name": "transferOwnership",
      "outputs": [],
      "stateMutability": "nonpayable",
      "type": "function"
    },
    {
      "inputs": [
        {
          "internalType": "uint256",
          "name": "_nutId",
          "type": "uint256"
        },
        {
          "internalType": "string",
          "name": "_nutCID",
          "type": "string"
        }
      ],
      "name": "mintNut",
      "outputs": [],
      "stateMutability": "payable",
      "type": "function"
    },
    {
      "inputs": [
        {
          "internalType": "uint256",
          "name": "tokenId",
          "type": "uint256"
        }
      ],
      "name": "tokenURI",
      "outputs": [
        {
          "internalType": "string",
          "name": "",
          "type": "string"
        }
      ],
      "stateMutability": "view",
      "type": "function"
    },
    {
      "inputs": [
        {
          "internalType": "bytes4",
          "name": "interfaceId",
          "type": "bytes4"
        }
      ],
      "name": "supportsInterface",
      "outputs": [
        {
          "internalType": "bool",
          "name": "",
          "type": "bool"
        }
      ],
      "stateMutability": "view",
      "type": "function"
    }
  ],
  "bytecode": "0x60806040523480156200001157600080fd5b50604051620044f1380380620044f183398181016040528101906200003791906200041d565b848481600090816200004a919062000724565b5080600190816200005c919062000724565b5050506200007f620000736200011c60201b60201c565b6200012460201b60201c565b82600c6000018190555081600c60010160006101000a81548173ffffffffffffffffffffffffffffffffffffffff021916908373ffffffffffffffffffffffffffffffffffffffff16021790555080600c60020160006101000a81548173ffffffffffffffffffffffffffffffffffffffff021916908373ffffffffffffffffffffffffffffffffffffffff16021790555050505050506200080b565b600033905090565b6000600b60009054906101000a900473ffffffffffffffffffffffffffffffffffffffff16905081600b60006101000a81548173ffffffffffffffffffffffffffffffffffffffff021916908373ffffffffffffffffffffffffffffffffffffffff1602179055508173ffffffffffffffffffffffffffffffffffffffff168173ffffffffffffffffffffffffffffffffffffffff167f8be0079c531659141344cd1fd0a4f28419497f9722a3daafe3b4186f6b6457e060405160405180910390a35050565b6000604051905090565b600080fd5b600080fd5b600080fd5b600080fd5b6000601f19601f8301169050919050565b7f4e487b7100000000000000000000000000000000000000000000000000000000600052604160045260246000fd5b620002538262000208565b810181811067ffffffffffffffff8211171562000275576200027462000219565b5b80604052505050565b60006200028a620001ea565b905062000298828262000248565b919050565b600067ffffffffffffffff821115620002bb57620002ba62000219565b5b620002c68262000208565b9050602081019050919050565b60005b83811015620002f3578082015181840152602081019050620002d6565b60008484015250505050565b60006200031662000310846200029d565b6200027e565b90508281526020810184848401111562000335576200033462000203565b5b62000342848285620002d3565b509392505050565b600082601f830112620003625762000361620001fe565b5b815162000374848260208601620002ff565b91505092915050565b6000819050919050565b62000392816200037d565b81146200039e57600080fd5b50565b600081519050620003b28162000387565b92915050565b600073ffffffffffffffffffffffffffffffffffffffff82169050919050565b6000620003e582620003b8565b9050919050565b620003f781620003d8565b81146200040357600080fd5b50565b6000815190506200041781620003ec565b92915050565b600080600080600060a086880312156200043c576200043b620001f4565b5b600086015167ffffffffffffffff8111156200045d576200045c620001f9565b5b6200046b888289016200034a565b955050602086015167ffffffffffffffff8111156200048f576200048e620001f9565b5b6200049d888289016200034a565b9450506040620004b088828901620003a1565b9350506060620004c38882890162000406565b9250506080620004d68882890162000406565b9150509295509295909350565b600081519050919050565b7f4e487b7100000000000000000000000000000000000000000000000000000000600052602260045260246000fd5b600060028204905060018216806200053657607f821691505b6020821081036200054c576200054b620004ee565b5b50919050565b60008190508160005260206000209050919050565b60006020601f8301049050919050565b600082821b905092915050565b600060088302620005b67fffffffffffffffffffffffffffffffffffffffffffffffffffffffffffffffff8262000577565b620005c2868362000577565b95508019841693508086168417925050509392505050565b6000819050919050565b600062000605620005ff620005f9846200037d565b620005da565b6200037d565b9050919050565b6000819050919050565b6200062183620005e4565b6200063962000630826200060c565b84845462000584565b825550505050565b600090565b6200065062000641565b6200065d81848462000616565b505050565b5b8181101562000685576200067960008262000646565b60018101905062000663565b5050565b601f821115620006d4576200069e8162000552565b620006a98462000567565b81016020851015620006b9578190505b620006d1620006c88562000567565b83018262000662565b50505b505050565b600082821c905092915050565b6000620006f960001984600802620006d9565b1980831691505092915050565b6000620007148383620006e6565b9150826002028217905092915050565b6200072f82620004e3565b67ffffffffffffffff8111156200074b576200074a62000219565b5b6200075782546200051d565b6200076482828562000689565b600060209050601f8311600181146200079c576000841562000787578287015190505b62000793858262000706565b86555062000803565b601f198416620007ac8662000552565b60005b82811015620007d657848901518255600182019150602085019450602081019050620007af565b86831015620007f65784890151620007f2601f891682620006e6565b8355505b6001600288020188555050505b505050505050565b613cd6806200081b6000396000f3fe60806040526004361061012a5760003560e01c806355951ab0116100ab57806395d89b411161006f57806395d89b41146103fb578063a22cb46514610426578063b88d4fde1461044f578063c87b56dd14610478578063e985e9c5146104b5578063f2fde38b146104f25761012a565b806355951ab0146103235780636352211e1461033f57806370a082311461037c578063715018a6146103b95780638da5cb5b146103d05761012a565b806318160ddd116100f257806318160ddd1461022c57806323b872dd146102575780632f745c591461028057806342842e0e146102bd5780634f6ccce7146102e65761012a565b806301ffc9a71461012f57806306fdde031461016c578063081812fc14610197578063095ea7b3146101d457806313845d2f146101fd575b600080fd5b34801561013b57600080fd5b50610156600480360381019061015191906124d8565b61051b565b6040516101639190612520565b60405180910390f35b34801561017857600080fd5b5061018161052d565b60405161018e91906125cb565b60405180910390f35b3480156101a357600080fd5b506101be60048036038101906101b99190612623565b6105bf565b6040516101cb9190612691565b60405180910390f35b3480156101e057600080fd5b506101fb60048036038101906101f691906126d8565b610644565b005b34801561020957600080fd5b5061021261075b565b604051610223959493929190612727565b60405180910390f35b34801561023857600080fd5b506102416107ff565b60405161024e919061277a565b60405180910390f35b34801561026357600080fd5b5061027e60048036038101906102799190612795565b61080c565b005b34801561028c57600080fd5b506102a760048036038101906102a291906126d8565b61086c565b6040516102b4919061277a565b60405180910390f35b3480156102c957600080fd5b506102e460048036038101906102df9190612795565b610911565b005b3480156102f257600080fd5b5061030d60048036038101906103089190612623565b610931565b60405161031a919061277a565b60405180910390f35b61033d6004803603810190610338919061291d565b6109a2565b005b34801561034b57600080fd5b5061036660048036038101906103619190612623565b610ab6565b6040516103739190612691565b60405180910390f35b34801561038857600080fd5b506103a3600480360381019061039e9190612979565b610b67565b6040516103b0919061277a565b60405180910390f35b3480156103c557600080fd5b506103ce610c1e565b005b3480156103dc57600080fd5b506103e5610ca6565b6040516103f29190612691565b60405180910390f35b34801561040757600080fd5b50610410610cd0565b60405161041d91906125cb565b60405180910390f35b34801561043257600080fd5b5061044d600480360381019061044891906129d2565b610d62565b005b34801561045b57600080fd5b5061047660048036038101906104719190612ab3565b610d78565b005b34801561048457600080fd5b5061049f600480360381019061049a9190612623565b610dda565b6040516104ac91906125cb565b60405180910390f35b3480156104c157600080fd5b506104dc60048036038101906104d79190612b36565b610dec565b6040516104e99190612520565b60405180910390f35b3480156104fe57600080fd5b5061051960048036038101906105149190612979565b610e80565b005b600061052682610f77565b9050919050565b60606000805461053c90612ba5565b80601f016020809104026020016040519081016040528092919081815260200182805461056890612ba5565b80156105b55780601f1061058a576101008083540402835291602001916105b5565b820191906000526020600020905b81548152906001019060200180831161059857829003601f168201915b5050505050905090565b60006105ca82610ff1565b610609576040517f08c379a000000000000000000000000000000000000000000000000000000000815260040161060090612c48565b60405180910390fd5b6004600083815260200190815260200160002060009054906101000a900473ffffffffffffffffffffffffffffffffffffffff169050919050565b600061064f82610ab6565b90508073ffffffffffffffffffffffffffffffffffffffff168373ffffffffffffffffffffffffffffffffffffffff16036106bf576040517f08c379a00000000000000000000000000000000000000000000000000000000081526004016106b690612cda565b60405180910390fd5b8073ffffffffffffffffffffffffffffffffffffffff166106de61105d565b73ffffffffffffffffffffffffffffffffffffffff16148061070d575061070c8161070761105d565b610dec565b5b61074c576040517f08c379a000000000000000000000000000000000000000000000000000000000815260040161074390612d6c565b60405180910390fd5b6107568383611065565b505050565b600c8060000154908060010160009054906101000a900473ffffffffffffffffffffffffffffffffffffffff16908060020160009054906101000a900473ffffffffffffffffffffffffffffffffffffffff16908060030160009054906101000a900473ffffffffffffffffffffffffffffffffffffffff16908060040160009054906101000a900473ffffffffffffffffffffffffffffffffffffffff16905085565b6000600880549050905090565b61081d61081761105d565b8261111e565b61085c576040517f08c379a000000000000000000000000000000000000000000000000000000000815260040161085390612dfe565b60405180910390fd5b6108678383836111fc565b505050565b600061087783610b67565b82106108b8576040517f08c379a00000000000000000000000000000000000000000000000000000000081526004016108af90612e90565b60405180910390fd5b600660008473ffffffffffffffffffffffffffffffffffffffff1673ffffffffffffffffffffffffffffffffffffffff168152602001908152602001600020600083815260200190815260200160002054905092915050565b61092c83838360405180602001604052806000815250610d78565b505050565b600061093b6107ff565b821061097c576040517f08c379a000000000000000000000000000000000000000000000000000000000815260040161097390612f22565b60405180910390fd5b600882815481106109905761098f612f42565b5b90600052602060002001549050919050565b6109d8600c60020160009054906101000a900473ffffffffffffffffffffffffffffffffffffffff166109d36107ff565b611462565b6109e96109e36107ff565b82611480565b600c60020160009054906101000a900473ffffffffffffffffffffffffffffffffffffffff1673ffffffffffffffffffffffffffffffffffffffff16631c85949c600c60020160009054906101000a900473ffffffffffffffffffffffffffffffffffffffff16846040518363ffffffff1660e01b8152600401610a6e929190612f71565b6020604051808303816000875af1158015610a8d573d6000803e3d6000fd5b505050506040513d601f19601f82011682018060405250810190610ab19190612faf565b505050565b6000806002600084815260200190815260200160002060009054906101000a900473ffffffffffffffffffffffffffffffffffffffff169050600073ffffffffffffffffffffffffffffffffffffffff168173ffffffffffffffffffffffffffffffffffffffff1603610b5e576040517f08c379a0000000000000000000000000000000000000000000000000000000008152600401610b559061304e565b60405180910390fd5b80915050919050565b60008073ffffffffffffffffffffffffffffffffffffffff168273ffffffffffffffffffffffffffffffffffffffff1603610bd7576040517f08c379a0000000000000000000000000000000000000000000000000000000008152600401610bce906130e0565b60405180910390fd5b600360008373ffffffffffffffffffffffffffffffffffffffff1673ffffffffffffffffffffffffffffffffffffffff168152602001908152602001600020549050919050565b610c2661105d565b73ffffffffffffffffffffffffffffffffffffffff16610c44610ca6565b73ffffffffffffffffffffffffffffffffffffffff1614610c9a576040517f08c379a0000000000000000000000000000000000000000000000000000000008152600401610c919061314c565b60405180910390fd5b610ca460006114ed565b565b6000600b60009054906101000a900473ffffffffffffffffffffffffffffffffffffffff16905090565b606060018054610cdf90612ba5565b80601f0160208091040260200160405190810160405280929190818152602001828054610d0b90612ba5565b8015610d585780601f10610d2d57610100808354040283529160200191610d58565b820191906000526020600020905b815481529060010190602001808311610d3b57829003601f168201915b5050505050905090565b610d74610d6d61105d565b83836115b3565b5050565b610d89610d8361105d565b8361111e565b610dc8576040517f08c379a0000000000000000000000000000000000000000000000000000000008152600401610dbf90612dfe565b60405180910390fd5b610dd48484848461171f565b50505050565b6060610de58261177b565b9050919050565b6000600560008473ffffffffffffffffffffffffffffffffffffffff1673ffffffffffffffffffffffffffffffffffffffff16815260200190815260200160002060008373ffffffffffffffffffffffffffffffffffffffff1673ffffffffffffffffffffffffffffffffffffffff16815260200190815260200160002060009054906101000a900460ff16905092915050565b610e8861105d565b73ffffffffffffffffffffffffffffffffffffffff16610ea6610ca6565b73ffffffffffffffffffffffffffffffffffffffff1614610efc576040517f08c379a0000000000000000000000000000000000000000000000000000000008152600401610ef39061314c565b60405180910390fd5b600073ffffffffffffffffffffffffffffffffffffffff168173ffffffffffffffffffffffffffffffffffffffff1603610f6b576040517f08c379a0000000000000000000000000000000000000000000000000000000008152600401610f62906131de565b60405180910390fd5b610f74816114ed565b50565b60007f780e9d63000000000000000000000000000000000000000000000000000000007bffffffffffffffffffffffffffffffffffffffffffffffffffffffff1916827bffffffffffffffffffffffffffffffffffffffffffffffffffffffff19161480610fea5750610fe9826118cc565b5b9050919050565b60008073ffffffffffffffffffffffffffffffffffffffff166002600084815260200190815260200160002060009054906101000a900473ffffffffffffffffffffffffffffffffffffffff1673ffffffffffffffffffffffffffffffffffffffff1614159050919050565b600033905090565b816004600083815260200190815260200160002060006101000a81548173ffffffffffffffffffffffffffffffffffffffff021916908373ffffffffffffffffffffffffffffffffffffffff160217905550808273ffffffffffffffffffffffffffffffffffffffff166110d883610ab6565b73ffffffffffffffffffffffffffffffffffffffff167f8c5be1e5ebec7d5bd14f71427d1e84f3dd0314c0f7b2291e5b200ac8c7c3b92560405160405180910390a45050565b600061112982610ff1565b611168576040517f08c379a000000000000000000000000000000000000000000000000000000000815260040161115f90613270565b60405180910390fd5b600061117383610ab6565b90508073ffffffffffffffffffffffffffffffffffffffff168473ffffffffffffffffffffffffffffffffffffffff1614806111b557506111b48185610dec565b5b806111f357508373ffffffffffffffffffffffffffffffffffffffff166111db846105bf565b73ffffffffffffffffffffffffffffffffffffffff16145b91505092915050565b8273ffffffffffffffffffffffffffffffffffffffff1661121c82610ab6565b73ffffffffffffffffffffffffffffffffffffffff1614611272576040517f08c379a000000000000000000000000000000000000000000000000000000000815260040161126990613302565b60405180910390fd5b600073ffffffffffffffffffffffffffffffffffffffff168273ffffffffffffffffffffffffffffffffffffffff16036112e1576040517f08c379a00000000000000000000000000000000000000000000000000000000081526004016112d890613394565b60405180910390fd5b6112ec8383836119ae565b6112f7600082611065565b6001600360008573ffffffffffffffffffffffffffffffffffffffff1673ffffffffffffffffffffffffffffffffffffffff168152602001908152602001600020600082825461134791906133e3565b925050819055506001600360008473ffffffffffffffffffffffffffffffffffffffff1673ffffffffffffffffffffffffffffffffffffffff168152602001908152602001600020600082825461139e9190613417565b92505081905550816002600083815260200190815260200160002060006101000a81548173ffffffffffffffffffffffffffffffffffffffff021916908373ffffffffffffffffffffffffffffffffffffffff160217905550808273ffffffffffffffffffffffffffffffffffffffff168473ffffffffffffffffffffffffffffffffffffffff167fddf252ad1be2c89b69c2b068fc378daa952ba7f163c4a11628f55a4df523b3ef60405160405180910390a461145d8383836119be565b505050565b61147c8282604051806020016040528060008152506119c3565b5050565b61148982610ff1565b6114c8576040517f08c379a00000000000000000000000000000000000000000000000000000000081526004016114bf906134bd565b60405180910390fd5b80600a600084815260200190815260200160002090816114e89190613689565b505050565b6000600b60009054906101000a900473ffffffffffffffffffffffffffffffffffffffff16905081600b60006101000a81548173ffffffffffffffffffffffffffffffffffffffff021916908373ffffffffffffffffffffffffffffffffffffffff1602179055508173ffffffffffffffffffffffffffffffffffffffff168173ffffffffffffffffffffffffffffffffffffffff167f8be0079c531659141344cd1fd0a4f28419497f9722a3daafe3b4186f6b6457e060405160405180910390a35050565b8173ffffffffffffffffffffffffffffffffffffffff168373ffffffffffffffffffffffffffffffffffffffff1603611621576040517f08c379a0000000000000000000000000000000000000000000000000000000008152600401611618906137a7565b60405180910390fd5b80600560008573ffffffffffffffffffffffffffffffffffffffff1673ffffffffffffffffffffffffffffffffffffffff16815260200190815260200160002060008473ffffffffffffffffffffffffffffffffffffffff1673ffffffffffffffffffffffffffffffffffffffff16815260200190815260200160002060006101000a81548160ff0219169083151502179055508173ffffffffffffffffffffffffffffffffffffffff168373ffffffffffffffffffffffffffffffffffffffff167f17307eab39ab6107e8899845ad3d59bd9653f200f220920489ca2b5937696c31836040516117129190612520565b60405180910390a3505050565b61172a8484846111fc565b61173684848484611a1e565b611775576040517f08c379a000000000000000000000000000000000000000000000000000000000815260040161176c90613839565b60405180910390fd5b50505050565b606061178682610ff1565b6117c5576040517f08c379a00000000000000000000000000000000000000000000000000000000081526004016117bc906138cb565b60405180910390fd5b6000600a600084815260200190815260200160002080546117e590612ba5565b80601f016020809104026020016040519081016040528092919081815260200182805461181190612ba5565b801561185e5780601f106118335761010080835404028352916020019161185e565b820191906000526020600020905b81548152906001019060200180831161184157829003601f168201915b50505050509050600061186f611ba5565b905060008151036118845781925050506118c7565b6000825111156118b95780826040516020016118a1929190613927565b604051602081830303815290604052925050506118c7565b6118c284611be2565b925050505b919050565b60007f80ac58cd000000000000000000000000000000000000000000000000000000007bffffffffffffffffffffffffffffffffffffffffffffffffffffffff1916827bffffffffffffffffffffffffffffffffffffffffffffffffffffffff1916148061199757507f5b5e139f000000000000000000000000000000000000000000000000000000007bffffffffffffffffffffffffffffffffffffffffffffffffffffffff1916827bffffffffffffffffffffffffffffffffffffffffffffffffffffffff1916145b806119a757506119a682611c89565b5b9050919050565b6119b9838383611cf3565b505050565b505050565b6119cd8383611e05565b6119da6000848484611a1e565b611a19576040517f08c379a0000000000000000000000000000000000000000000000000000000008152600401611a1090613839565b60405180910390fd5b505050565b6000611a3f8473ffffffffffffffffffffffffffffffffffffffff16611fde565b15611b98578373ffffffffffffffffffffffffffffffffffffffff1663150b7a02611a6861105d565b8786866040518563ffffffff1660e01b8152600401611a8a94939291906139a0565b6020604051808303816000875af1925050508015611ac657506040513d601f19601f82011682018060405250810190611ac39190613a01565b60015b611b48573d8060008114611af6576040519150601f19603f3d011682016040523d82523d6000602084013e611afb565b606091505b506000815103611b40576040517f08c379a0000000000000000000000000000000000000000000000000000000008152600401611b3790613839565b60405180910390fd5b805181602001fd5b63150b7a0260e01b7bffffffffffffffffffffffffffffffffffffffffffffffffffffffff1916817bffffffffffffffffffffffffffffffffffffffffffffffffffffffff191614915050611b9d565b600190505b949350505050565b60606040518060400160405280601581526020017f68747470733a2f2f697066732e696f2f697066732f0000000000000000000000815250905090565b6060611bed82610ff1565b611c2c576040517f08c379a0000000000000000000000000000000000000000000000000000000008152600401611c2390613aa0565b60405180910390fd5b6000611c36611ba5565b90506000815111611c565760405180602001604052806000815250611c81565b80611c6084612001565b604051602001611c71929190613927565b6040516020818303038152906040525b915050919050565b60007f01ffc9a7000000000000000000000000000000000000000000000000000000007bffffffffffffffffffffffffffffffffffffffffffffffffffffffff1916827bffffffffffffffffffffffffffffffffffffffffffffffffffffffff1916149050919050565b611cfe838383612161565b600073ffffffffffffffffffffffffffffffffffffffff168373ffffffffffffffffffffffffffffffffffffffff1603611d4057611d3b81612166565b611d7f565b8173ffffffffffffffffffffffffffffffffffffffff168373ffffffffffffffffffffffffffffffffffffffff1614611d7e57611d7d83826121af565b5b5b600073ffffffffffffffffffffffffffffffffffffffff168273ffffffffffffffffffffffffffffffffffffffff1603611dc157611dbc8161231c565b611e00565b8273ffffffffffffffffffffffffffffffffffffffff168273ffffffffffffffffffffffffffffffffffffffff1614611dff57611dfe82826123ed565b5b5b505050565b600073ffffffffffffffffffffffffffffffffffffffff168273ffffffffffffffffffffffffffffffffffffffff1603611e74576040517f08c379a0000000000000000000000000000000000000000000000000000000008152600401611e6b90613b0c565b60405180910390fd5b611e7d81610ff1565b15611ebd576040517f08c379a0000000000000000000000000000000000000000000000000000000008152600401611eb490613b78565b60405180910390fd5b611ec9600083836119ae565b6001600360008473ffffffffffffffffffffffffffffffffffffffff1673ffffffffffffffffffffffffffffffffffffffff1681526020019081526020016000206000828254611f199190613417565b92505081905550816002600083815260200190815260200160002060006101000a81548173ffffffffffffffffffffffffffffffffffffffff021916908373ffffffffffffffffffffffffffffffffffffffff160217905550808273ffffffffffffffffffffffffffffffffffffffff16600073ffffffffffffffffffffffffffffffffffffffff167fddf252ad1be2c89b69c2b068fc378daa952ba7f163c4a11628f55a4df523b3ef60405160405180910390a4611fda600083836119be565b5050565b6000808273ffffffffffffffffffffffffffffffffffffffff163b119050919050565b606060008203612048576040518060400160405280600181526020017f3000000000000000000000000000000000000000000000000000000000000000815250905061215c565b600082905060005b6000821461207a57808061206390613b98565b915050600a826120739190613c0f565b9150612050565b60008167ffffffffffffffff811115612096576120956127f2565b5b6040519080825280601f01601f1916602001820160405280156120c85781602001600182028036833780820191505090505b5090505b60008514612155576001826120e191906133e3565b9150600a856120f09190613c40565b60306120fc9190613417565b60f81b81838151811061211257612111612f42565b5b60200101907effffffffffffffffffffffffffffffffffffffffffffffffffffffffffffff1916908160001a905350600a8561214e9190613c0f565b94506120cc565b8093505050505b919050565b505050565b6008805490506009600083815260200190815260200160002081905550600881908060018154018082558091505060019003906000526020600020016000909190919091505550565b600060016121bc84610b67565b6121c691906133e3565b90506000600760008481526020019081526020016000205490508181146122ab576000600660008673ffffffffffffffffffffffffffffffffffffffff1673ffffffffffffffffffffffffffffffffffffffff168152602001908152602001600020600084815260200190815260200160002054905080600660008773ffffffffffffffffffffffffffffffffffffffff1673ffffffffffffffffffffffffffffffffffffffff168152602001908152602001600020600084815260200190815260200160002081905550816007600083815260200190815260200160002081905550505b6007600084815260200190815260200160002060009055600660008573ffffffffffffffffffffffffffffffffffffffff1673ffffffffffffffffffffffffffffffffffffffff16815260200190815260200160002060008381526020019081526020016000206000905550505050565b6000600160088054905061233091906133e3565b90506000600960008481526020019081526020016000205490506000600883815481106123605761235f612f42565b5b90600052602060002001549050806008838154811061238257612381612f42565b5b9060005260206000200181905550816009600083815260200190815260200160002081905550600960008581526020019081526020016000206000905560088054806123d1576123d0613c71565b5b6001900381819060005260206000200160009055905550505050565b60006123f883610b67565b905081600660008573ffffffffffffffffffffffffffffffffffffffff1673ffffffffffffffffffffffffffffffffffffffff168152602001908152602001600020600083815260200190815260200160002081905550806007600084815260200190815260200160002081905550505050565b6000604051905090565b600080fd5b600080fd5b60007fffffffff0000000000000000000000000000000000000000000000000000000082169050919050565b6124b581612480565b81146124c057600080fd5b50565b6000813590506124d2816124ac565b92915050565b6000602082840312156124ee576124ed612476565b5b60006124fc848285016124c3565b91505092915050565b60008115159050919050565b61251a81612505565b82525050565b60006020820190506125356000830184612511565b92915050565b600081519050919050565b600082825260208201905092915050565b60005b8381101561257557808201518184015260208101905061255a565b60008484015250505050565b6000601f19601f8301169050919050565b600061259d8261253b565b6125a78185612546565b93506125b7818560208601612557565b6125c081612581565b840191505092915050565b600060208201905081810360008301526125e58184612592565b905092915050565b6000819050919050565b612600816125ed565b811461260b57600080fd5b50565b60008135905061261d816125f7565b92915050565b60006020828403121561263957612638612476565b5b60006126478482850161260e565b91505092915050565b600073ffffffffffffffffffffffffffffffffffffffff82169050919050565b600061267b82612650565b9050919050565b61268b81612670565b82525050565b60006020820190506126a66000830184612682565b92915050565b6126b581612670565b81146126c057600080fd5b50565b6000813590506126d2816126ac565b92915050565b600080604083850312156126ef576126ee612476565b5b60006126fd858286016126c3565b925050602061270e8582860161260e565b9150509250929050565b612721816125ed565b82525050565b600060a08201905061273c6000830188612718565b6127496020830187612682565b6127566040830186612682565b6127636060830185612682565b6127706080830184612682565b9695505050505050565b600060208201905061278f6000830184612718565b92915050565b6000806000606084860312156127ae576127ad612476565b5b60006127bc868287016126c3565b93505060206127cd868287016126c3565b92505060406127de8682870161260e565b9150509250925092565b600080fd5b600080fd5b7f4e487b7100000000000000000000000000000000000000000000000000000000600052604160045260246000fd5b61282a82612581565b810181811067ffffffffffffffff82111715612849576128486127f2565b5b80604052505050565b600061285c61246c565b90506128688282612821565b919050565b600067ffffffffffffffff821115612888576128876127f2565b5b61289182612581565b9050602081019050919050565b82818337600083830152505050565b60006128c06128bb8461286d565b612852565b9050828152602081018484840111156128dc576128db6127ed565b5b6128e784828561289e565b509392505050565b600082601f830112612904576129036127e8565b5b81356129148482602086016128ad565b91505092915050565b6000806040838503121561293457612933612476565b5b60006129428582860161260e565b925050602083013567ffffffffffffffff8111156129635761296261247b565b5b61296f858286016128ef565b9150509250929050565b60006020828403121561298f5761298e612476565b5b600061299d848285016126c3565b91505092915050565b6129af81612505565b81146129ba57600080fd5b50565b6000813590506129cc816129a6565b92915050565b600080604083850312156129e9576129e8612476565b5b60006129f7858286016126c3565b9250506020612a08858286016129bd565b9150509250929050565b600067ffffffffffffffff821115612a2d57612a2c6127f2565b5b612a3682612581565b9050602081019050919050565b6000612a56612a5184612a12565b612852565b905082815260208101848484011115612a7257612a716127ed565b5b612a7d84828561289e565b509392505050565b600082601f830112612a9a57612a996127e8565b5b8135612aaa848260208601612a43565b91505092915050565b60008060008060808587031215612acd57612acc612476565b5b6000612adb878288016126c3565b9450506020612aec878288016126c3565b9350506040612afd8782880161260e565b925050606085013567ffffffffffffffff811115612b1e57612b1d61247b565b5b612b2a87828801612a85565b91505092959194509250565b60008060408385031215612b4d57612b4c612476565b5b6000612b5b858286016126c3565b9250506020612b6c858286016126c3565b9150509250929050565b7f4e487b7100000000000000000000000000000000000000000000000000000000600052602260045260246000fd5b60006002820490506001821680612bbd57607f821691505b602082108103612bd057612bcf612b76565b5b50919050565b7f4552433732313a20617070726f76656420717565727920666f72206e6f6e657860008201527f697374656e7420746f6b656e0000000000000000000000000000000000000000602082015250565b6000612c32602c83612546565b9150612c3d82612bd6565b604082019050919050565b60006020820190508181036000830152612c6181612c25565b9050919050565b7f4552433732313a20617070726f76616c20746f2063757272656e74206f776e6560008201527f7200000000000000000000000000000000000000000000000000000000000000602082015250565b6000612cc4602183612546565b9150612ccf82612c68565b604082019050919050565b60006020820190508181036000830152612cf381612cb7565b9050919050565b7f4552433732313a20617070726f76652063616c6c6572206973206e6f74206f7760008201527f6e6572206e6f7220617070726f76656420666f7220616c6c0000000000000000602082015250565b6000612d56603883612546565b9150612d6182612cfa565b604082019050919050565b60006020820190508181036000830152612d8581612d49565b9050919050565b7f4552433732313a207472616e736665722063616c6c6572206973206e6f74206f60008201527f776e6572206e6f7220617070726f766564000000000000000000000000000000602082015250565b6000612de8603183612546565b9150612df382612d8c565b604082019050919050565b60006020820190508181036000830152612e1781612ddb565b9050919050565b7f455243373231456e756d657261626c653a206f776e657220696e646578206f7560008201527f74206f6620626f756e6473000000000000000000000000000000000000000000602082015250565b6000612e7a602b83612546565b9150612e8582612e1e565b604082019050919050565b60006020820190508181036000830152612ea981612e6d565b9050919050565b7f455243373231456e756d657261626c653a20676c6f62616c20696e646578206f60008201527f7574206f6620626f756e64730000000000000000000000000000000000000000602082015250565b6000612f0c602c83612546565b9150612f1782612eb0565b604082019050919050565b60006020820190508181036000830152612f3b81612eff565b9050919050565b7f4e487b7100000000000000000000000000000000000000000000000000000000600052603260045260246000fd5b6000604082019050612f866000830185612682565b612f936020830184612718565b9392505050565b600081519050612fa9816129a6565b92915050565b600060208284031215612fc557612fc4612476565b5b6000612fd384828501612f9a565b91505092915050565b7f4552433732313a206f776e657220717565727920666f72206e6f6e657869737460008201527f656e7420746f6b656e0000000000000000000000000000000000000000000000602082015250565b6000613038602983612546565b915061304382612fdc565b604082019050919050565b600060208201905081810360008301526130678161302b565b9050919050565b7f4552433732313a2062616c616e636520717565727920666f7220746865207a6560008201527f726f206164647265737300000000000000000000000000000000000000000000602082015250565b60006130ca602a83612546565b91506130d58261306e565b604082019050919050565b600060208201905081810360008301526130f9816130bd565b9050919050565b7f4f776e61626c653a2063616c6c6572206973206e6f7420746865206f776e6572600082015250565b6000613136602083612546565b915061314182613100565b602082019050919050565b6000602082019050818103600083015261316581613129565b9050919050565b7f4f776e61626c653a206e6577206f776e657220697320746865207a65726f206160008201527f6464726573730000000000000000000000000000000000000000000000000000602082015250565b60006131c8602683612546565b91506131d38261316c565b604082019050919050565b600060208201905081810360008301526131f7816131bb565b9050919050565b7f4552433732313a206f70657261746f7220717565727920666f72206e6f6e657860008201527f697374656e7420746f6b656e0000000000000000000000000000000000000000602082015250565b600061325a602c83612546565b9150613265826131fe565b604082019050919050565b600060208201905081810360008301526132898161324d565b9050919050565b7f4552433732313a207472616e736665722066726f6d20696e636f72726563742060008201527f6f776e6572000000000000000000000000000000000000000000000000000000602082015250565b60006132ec602583612546565b91506132f782613290565b604082019050919050565b6000602082019050818103600083015261331b816132df565b9050919050565b7f4552433732313a207472616e7366657220746f20746865207a65726f2061646460008201527f7265737300000000000000000000000000000000000000000000000000000000602082015250565b600061337e602483612546565b915061338982613322565b604082019050919050565b600060208201905081810360008301526133ad81613371565b9050919050565b7f4e487b7100000000000000000000000000000000000000000000000000000000600052601160045260246000fd5b60006133ee826125ed565b91506133f9836125ed565b9250828203905081811115613411576134106133b4565b5b92915050565b6000613422826125ed565b915061342d836125ed565b9250828201905080821115613445576134446133b4565b5b92915050565b7f45524337323155524953746f726167653a2055524920736574206f66206e6f6e60008201527f6578697374656e7420746f6b656e000000000000000000000000000000000000602082015250565b60006134a7602e83612546565b91506134b28261344b565b604082019050919050565b600060208201905081810360008301526134d68161349a565b9050919050565b60008190508160005260206000209050919050565b60006020601f8301049050919050565b600082821b905092915050565b60006008830261353f7fffffffffffffffffffffffffffffffffffffffffffffffffffffffffffffffff82613502565b6135498683613502565b95508019841693508086168417925050509392505050565b6000819050919050565b600061358661358161357c846125ed565b613561565b6125ed565b9050919050565b6000819050919050565b6135a08361356b565b6135b46135ac8261358d565b84845461350f565b825550505050565b600090565b6135c96135bc565b6135d4818484613597565b505050565b5b818110156135f8576135ed6000826135c1565b6001810190506135da565b5050565b601f82111561363d5761360e816134dd565b613617846134f2565b81016020851015613626578190505b61363a613632856134f2565b8301826135d9565b50505b505050565b600082821c905092915050565b600061366060001984600802613642565b1980831691505092915050565b6000613679838361364f565b9150826002028217905092915050565b6136928261253b565b67ffffffffffffffff8111156136ab576136aa6127f2565b5b6136b58254612ba5565b6136c08282856135fc565b600060209050601f8311600181146136f357600084156136e1578287015190505b6136eb858261366d565b865550613753565b601f198416613701866134dd565b60005b8281101561372957848901518255600182019150602085019450602081019050613704565b868310156137465784890151613742601f89168261364f565b8355505b6001600288020188555050505b505050505050565b7f4552433732313a20617070726f766520746f2063616c6c657200000000000000600082015250565b6000613791601983612546565b915061379c8261375b565b602082019050919050565b600060208201905081810360008301526137c081613784565b9050919050565b7f4552433732313a207472616e7366657220746f206e6f6e20455243373231526560008201527f63656976657220696d706c656d656e7465720000000000000000000000000000602082015250565b6000613823603283612546565b915061382e826137c7565b604082019050919050565b6000602082019050818103600083015261385281613816565b9050919050565b7f45524337323155524953746f726167653a2055524920717565727920666f722060008201527f6e6f6e6578697374656e7420746f6b656e000000000000000000000000000000602082015250565b60006138b5603183612546565b91506138c082613859565b604082019050919050565b600060208201905081810360008301526138e4816138a8565b9050919050565b600081905092915050565b60006139018261253b565b61390b81856138eb565b935061391b818560208601612557565b80840191505092915050565b600061393382856138f6565b915061393f82846138f6565b91508190509392505050565b600081519050919050565b600082825260208201905092915050565b60006139728261394b565b61397c8185613956565b935061398c818560208601612557565b61399581612581565b840191505092915050565b60006080820190506139b56000830187612682565b6139c26020830186612682565b6139cf6040830185612718565b81810360608301526139e18184613967565b905095945050505050565b6000815190506139fb816124ac565b92915050565b600060208284031215613a1757613a16612476565b5b6000613a25848285016139ec565b91505092915050565b7f4552433732314d657461646174613a2055524920717565727920666f72206e6f60008201527f6e6578697374656e7420746f6b656e0000000000000000000000000000000000602082015250565b6000613a8a602f83612546565b9150613a9582613a2e565b604082019050919050565b60006020820190508181036000830152613ab981613a7d565b9050919050565b7f4552433732313a206d696e7420746f20746865207a65726f2061646472657373600082015250565b6000613af6602083612546565b9150613b0182613ac0565b602082019050919050565b60006020820190508181036000830152613b2581613ae9565b9050919050565b7f4552433732313a20746f6b656e20616c7265616479206d696e74656400000000600082015250565b6000613b62601c83612546565b9150613b6d82613b2c565b602082019050919050565b60006020820190508181036000830152613b9181613b55565b9050919050565b6000613ba3826125ed565b91507fffffffffffffffffffffffffffffffffffffffffffffffffffffffffffffffff8203613bd557613bd46133b4565b5b600182019050919050565b7f4e487b7100000000000000000000000000000000000000000000000000000000600052601260045260246000fd5b6000613c1a826125ed565b9150613c25836125ed565b925082613c3557613c34613be0565b5b828204905092915050565b6000613c4b826125ed565b9150613c56836125ed565b925082613c6657613c65613be0565b5b828206905092915050565b7f4e487b7100000000000000000000000000000000000000000000000000000000600052603160045260246000fdfea2646970667358221220eac6f10e60d8a8cc5f98286c5150713be2832094f6f941444742b5fa2a03fca064736f6c63430008110033",
  "immutableReferences": {},
  "source": "// SPDX-License-Identifier: MIT\npragma solidity ^0.8.7;\n\nimport \"openzeppelin-solidity/contracts/token/ERC721/ERC721.sol\";\nimport \"openzeppelin-solidity/contracts/token/ERC721/extensions/ERC721Enumerable.sol\";\nimport \"openzeppelin-solidity/contracts/token/ERC721/extensions/ERC721URIStorage.sol\";\nimport \"openzeppelin-solidity/contracts/access/Ownable.sol\";\nimport \"openzeppelin-solidity/contracts/utils/cryptography/ECDSA.sol\";\nimport { Clones } from \"openzeppelin-solidity/contracts/proxy/Clones.sol\";\n\nimport \"./ICosmoTreasury.sol\";\nimport \"./CosmoVault.sol\";\n\ncontract CosmoCreation is ERC721, ERC721Enumerable, ERC721URIStorage, Ownable {\n\n    struct Creation {\n        uint256 initialSupply;\n        address system;\n        address treasury;\n        address vault;\n        address vaultImplementation;\n    }\n    Creation public creation;\n\n    using ECDSA for bytes32;\n\n    constructor(\n        string memory _name,\n        string memory _symbol,\n        uint256 _supply,\n        address _systemAddress,\n        address _treasuryAddress\n    )\n    ERC721(_name, _symbol)\n    {\n        creation.initialSupply = _supply;\n        creation.system = _systemAddress;\n        creation.treasury = _treasuryAddress;\n    }\n\n    function _baseURI() internal pure override returns (string memory) {\n        return \"https://ipfs.io/ipfs/\";\n    }\n\n    function openVault(\n        address _cosmosAddress\n    ) internal returns (address) {\n        CosmoVault vault = CosmoVault(Clones.clone(creation.vaultImplementation));\n        vault.initialize(creation.system, _cosmosAddress);\n        creation.vault = address(vault);\n        return creation.vault;\n    }\n\n    function mintNut(uint256 _nutId, string memory _nutCID) public payable {\n        //require(vault.SALE_STATUS(), \"Sale must be active\");\n        //require(totalSupply() < vault.NUTS_INITIAL(), \"Exceed initial supply of nuts\");\n        //require(NUT_PRICE * _numberOfNuts <= msg.value, \"Ether value is not correct\");\n\n        _safeMint(creation.treasury, totalSupply());\n        _setTokenURI(totalSupply(), _nutCID);\n        ICosmoTreasury(creation.treasury).assignMintBalance(creation.treasury, _nutId);\n    }\n\n    // ----- The following functions are overrides required by Solidity -----\n    function _beforeTokenTransfer(address from, address to, uint256 tokenId) internal override(ERC721, ERC721Enumerable) {\n        super._beforeTokenTransfer(from, to, tokenId);\n    }\n\n    function _burn(uint256 tokenId) internal override(ERC721, ERC721URIStorage) {\n        super._burn(tokenId);\n    }\n\n    function tokenURI(uint256 tokenId) public view override(ERC721, ERC721URIStorage) returns (string memory) {\n        return super.tokenURI(tokenId);\n    }\n\n    function supportsInterface(bytes4 interfaceId) public view override(ERC721, ERC721Enumerable) returns (bool) {\n        return super.supportsInterface(interfaceId);\n    }\n    // -----      -----     -----     -----     -----\n}\n",
  "sourcePath": "/home/redlentils/Seafile/Websites/avatarnft/contracts/CosmoCreation.sol",
  "compiler": {
    "name": "solc",
    "version": "0.8.17+commit.8df45f5f.Emscripten.clang"
  },
  "schemaVersion": "3.4.10",
  "updatedAt": "2022-10-19T18:53:30.213Z",
  "devdoc": {
    "kind": "dev",
    "methods": {
      "approve(address,uint256)": {
        "details": "See {IERC721-approve}."
      },
      "balanceOf(address)": {
        "details": "See {IERC721-balanceOf}."
      },
      "getApproved(uint256)": {
        "details": "See {IERC721-getApproved}."
      },
      "isApprovedForAll(address,address)": {
        "details": "See {IERC721-isApprovedForAll}."
      },
      "name()": {
        "details": "See {IERC721Metadata-name}."
      },
      "owner()": {
        "details": "Returns the address of the current owner."
      },
      "ownerOf(uint256)": {
        "details": "See {IERC721-ownerOf}."
      },
      "renounceOwnership()": {
        "details": "Leaves the contract without owner. It will not be possible to call `onlyOwner` functions anymore. Can only be called by the current owner. NOTE: Renouncing ownership will leave the contract without an owner, thereby removing any functionality that is only available to the owner."
      },
      "safeTransferFrom(address,address,uint256)": {
        "details": "See {IERC721-safeTransferFrom}."
      },
      "safeTransferFrom(address,address,uint256,bytes)": {
        "details": "See {IERC721-safeTransferFrom}."
      },
      "setApprovalForAll(address,bool)": {
        "details": "See {IERC721-setApprovalForAll}."
      },
      "symbol()": {
        "details": "See {IERC721Metadata-symbol}."
      },
      "tokenByIndex(uint256)": {
        "details": "See {IERC721Enumerable-tokenByIndex}."
      },
      "tokenOfOwnerByIndex(address,uint256)": {
        "details": "See {IERC721Enumerable-tokenOfOwnerByIndex}."
      },
      "totalSupply()": {
        "details": "See {IERC721Enumerable-totalSupply}."
      },
      "transferFrom(address,address,uint256)": {
        "details": "See {IERC721-transferFrom}."
      },
      "transferOwnership(address)": {
        "details": "Transfers ownership of the contract to a new account (`newOwner`). Can only be called by the current owner."
      }
    },
    "version": 1
  },
  "userdoc": {
    "kind": "user",
    "methods": {},
    "version": 1
  }
}