{
  "contractName": "CosmoUniverse",
  "abi": [
    {
      "inputs": [
        {
          "internalType": "address",
          "name": "_systemAddress",
          "type": "address"
        },
        {
          "internalType": "string",
          "name": "_matterName",
          "type": "string"
        },
        {
          "internalType": "string",
          "name": "_matterSymbol",
          "type": "string"
        }
      ],
      "stateMutability": "nonpayable",
      "type": "constructor"
    },
    {
      "anonymous": false,
      "inputs": [
        {
          "indexed": true,
          "internalType": "address",
          "name": "previousOwner",
          "type": "address"
        },
        {
          "indexed": true,
          "internalType": "address",
          "name": "newOwner",
          "type": "address"
        }
      ],
      "name": "OwnershipTransferred",
      "type": "event"
    },
    {
      "inputs": [],
      "name": "MATTER_ADDRESS",
      "outputs": [
        {
          "internalType": "address",
          "name": "",
          "type": "address"
        }
      ],
      "stateMutability": "view",
      "type": "function"
    },
    {
      "inputs": [],
      "name": "SYSTEM_ADDRESS",
      "outputs": [
        {
          "internalType": "address",
          "name": "",
          "type": "address"
        }
      ],
      "stateMutability": "view",
      "type": "function"
    },
    {
      "inputs": [],
      "name": "owner",
      "outputs": [
        {
          "internalType": "address",
          "name": "",
          "type": "address"
        }
      ],
      "stateMutability": "view",
      "type": "function"
    },
    {
      "inputs": [],
      "name": "renounceOwnership",
      "outputs": [],
      "stateMutability": "nonpayable",
      "type": "function"
    },
    {
      "inputs": [
        {
          "internalType": "address",
          "name": "newOwner",
          "type": "address"
        }
      ],
      "name": "transferOwnership",
      "outputs": [],
      "stateMutability": "nonpayable",
      "type": "function"
    },
    {
      "inputs": [
        {
          "internalType": "string",
          "name": "_cosmosName",
          "type": "string"
        },
        {
          "internalType": "string",
          "name": "_cosmosSymbol",
          "type": "string"
        },
        {
          "internalType": "uint256",
          "name": "_desiredEntities",
          "type": "uint256"
        }
      ],
      "name": "bigBang",
      "outputs": [
        {
          "internalType": "address",
          "name": "",
          "type": "address"
        }
      ],
      "stateMutability": "nonpayable",
      "type": "function"
    }
  ],
  "bytecode": "0x608060405260006001553480156200001657600080fd5b50604051620031673803806200316783398181016040528101906200003c919062000456565b6200005c620000506200018460201b60201c565b6200018c60201b60201c565b82600260006101000a81548173ffffffffffffffffffffffffffffffffffffffff021916908373ffffffffffffffffffffffffffffffffffffffff1602179055508181604051620000ad9062000250565b620000ba9291906200054d565b604051809103906000f080158015620000d7573d6000803e3d6000fd5b50600560006101000a81548173ffffffffffffffffffffffffffffffffffffffff021916908373ffffffffffffffffffffffffffffffffffffffff160217905550600560009054906101000a900473ffffffffffffffffffffffffffffffffffffffff16600360006101000a81548173ffffffffffffffffffffffffffffffffffffffff021916908373ffffffffffffffffffffffffffffffffffffffff16021790555050505062000588565b600033905090565b60008060009054906101000a900473ffffffffffffffffffffffffffffffffffffffff169050816000806101000a81548173ffffffffffffffffffffffffffffffffffffffff021916908373ffffffffffffffffffffffffffffffffffffffff1602179055508173ffffffffffffffffffffffffffffffffffffffff168173ffffffffffffffffffffffffffffffffffffffff167f8be0079c531659141344cd1fd0a4f28419497f9722a3daafe3b4186f6b6457e060405160405180910390a35050565b611f8880620011df83390190565b6000604051905090565b600080fd5b600080fd5b600073ffffffffffffffffffffffffffffffffffffffff82169050919050565b60006200029f8262000272565b9050919050565b620002b18162000292565b8114620002bd57600080fd5b50565b600081519050620002d181620002a6565b92915050565b600080fd5b600080fd5b6000601f19601f8301169050919050565b7f4e487b7100000000000000000000000000000000000000000000000000000000600052604160045260246000fd5b6200032c82620002e1565b810181811067ffffffffffffffff821117156200034e576200034d620002f2565b5b80604052505050565b6000620003636200025e565b905062000371828262000321565b919050565b600067ffffffffffffffff821115620003945762000393620002f2565b5b6200039f82620002e1565b9050602081019050919050565b60005b83811015620003cc578082015181840152602081019050620003af565b60008484015250505050565b6000620003ef620003e98462000376565b62000357565b9050828152602081018484840111156200040e576200040d620002dc565b5b6200041b848285620003ac565b509392505050565b600082601f8301126200043b576200043a620002d7565b5b81516200044d848260208601620003d8565b91505092915050565b60008060006060848603121562000472576200047162000268565b5b60006200048286828701620002c0565b935050602084015167ffffffffffffffff811115620004a657620004a56200026d565b5b620004b48682870162000423565b925050604084015167ffffffffffffffff811115620004d857620004d76200026d565b5b620004e68682870162000423565b9150509250925092565b600081519050919050565b600082825260208201905092915050565b60006200051982620004f0565b620005258185620004fb565b935062000537818560208601620003ac565b6200054281620002e1565b840191505092915050565b600060408201905081810360008301526200056981856200050c565b905081810360208301526200057f81846200050c565b90509392505050565b610c4780620005986000396000f3fe608060405234801561001057600080fd5b50600436106100625760003560e01c80633434735f1461006757806364b1b66314610085578063715018a6146100a357806373b8f3d4146100ad5780638da5cb5b146100dd578063f2fde38b146100fb575b600080fd5b61006f610117565b60405161007c91906106da565b60405180910390f35b61008d61013d565b60405161009a91906106da565b60405180910390f35b6100ab610163565b005b6100c760048036038101906100c29190610885565b6101eb565b6040516100d491906106da565b60405180910390f35b6100e56103d9565b6040516100f291906106da565b60405180910390f35b6101156004803603810190610110919061093c565b610402565b005b600260009054906101000a900473ffffffffffffffffffffffffffffffffffffffff1681565b600360009054906101000a900473ffffffffffffffffffffffffffffffffffffffff1681565b61016b6104f9565b73ffffffffffffffffffffffffffffffffffffffff166101896103d9565b73ffffffffffffffffffffffffffffffffffffffff16146101df576040517f08c379a00000000000000000000000000000000000000000000000000000000081526004016101d6906109c6565b60405180910390fd5b6101e96000610501565b565b60006101f56104f9565b73ffffffffffffffffffffffffffffffffffffffff166102136103d9565b73ffffffffffffffffffffffffffffffffffffffff1614610269576040517f08c379a0000000000000000000000000000000000000000000000000000000008152600401610260906109c6565b60405180910390fd5b6000610296600460009054906101000a900473ffffffffffffffffffffffffffffffffffffffff166105c5565b90508073ffffffffffffffffffffffffffffffffffffffff1663485cc955600260009054906101000a900473ffffffffffffffffffffffffffffffffffffffff16600360009054906101000a900473ffffffffffffffffffffffffffffffffffffffff166040518363ffffffff1660e01b81526004016103179291906109e6565b600060405180830381600087803b15801561033157600080fd5b505af1158015610345573d6000803e3d6000fd5b5050505060008173ffffffffffffffffffffffffffffffffffffffff1663679d11498787876040518463ffffffff1660e01b815260040161038893929190610a8c565b6020604051808303816000875af11580156103a7573d6000803e3d6000fd5b505050506040513d601f19601f820116820180604052508101906103cb9190610ae6565b905080925050509392505050565b60008060009054906101000a900473ffffffffffffffffffffffffffffffffffffffff16905090565b61040a6104f9565b73ffffffffffffffffffffffffffffffffffffffff166104286103d9565b73ffffffffffffffffffffffffffffffffffffffff161461047e576040517f08c379a0000000000000000000000000000000000000000000000000000000008152600401610475906109c6565b60405180910390fd5b600073ffffffffffffffffffffffffffffffffffffffff168173ffffffffffffffffffffffffffffffffffffffff16036104ed576040517f08c379a00000000000000000000000000000000000000000000000000000000081526004016104e490610b85565b60405180910390fd5b6104f681610501565b50565b600033905090565b60008060009054906101000a900473ffffffffffffffffffffffffffffffffffffffff169050816000806101000a81548173ffffffffffffffffffffffffffffffffffffffff021916908373ffffffffffffffffffffffffffffffffffffffff1602179055508173ffffffffffffffffffffffffffffffffffffffff168173ffffffffffffffffffffffffffffffffffffffff167f8be0079c531659141344cd1fd0a4f28419497f9722a3daafe3b4186f6b6457e060405160405180910390a35050565b60006040517f3d602d80600a3d3981f3363d3d373d3d3d363d7300000000000000000000000081528260601b60148201527f5af43d82803e903d91602b57fd5bf3000000000000000000000000000000000060288201526037816000f0915050600073ffffffffffffffffffffffffffffffffffffffff168173ffffffffffffffffffffffffffffffffffffffff1603610694576040517f08c379a000000000000000000000000000000000000000000000000000000000815260040161068b90610bf1565b60405180910390fd5b919050565b600073ffffffffffffffffffffffffffffffffffffffff82169050919050565b60006106c482610699565b9050919050565b6106d4816106b9565b82525050565b60006020820190506106ef60008301846106cb565b92915050565b6000604051905090565b600080fd5b600080fd5b600080fd5b600080fd5b6000601f19601f8301169050919050565b7f4e487b7100000000000000000000000000000000000000000000000000000000600052604160045260246000fd5b61075c82610713565b810181811067ffffffffffffffff8211171561077b5761077a610724565b5b80604052505050565b600061078e6106f5565b905061079a8282610753565b919050565b600067ffffffffffffffff8211156107ba576107b9610724565b5b6107c382610713565b9050602081019050919050565b82818337600083830152505050565b60006107f26107ed8461079f565b610784565b90508281526020810184848401111561080e5761080d61070e565b5b6108198482856107d0565b509392505050565b600082601f83011261083657610835610709565b5b81356108468482602086016107df565b91505092915050565b6000819050919050565b6108628161084f565b811461086d57600080fd5b50565b60008135905061087f81610859565b92915050565b60008060006060848603121561089e5761089d6106ff565b5b600084013567ffffffffffffffff8111156108bc576108bb610704565b5b6108c886828701610821565b935050602084013567ffffffffffffffff8111156108e9576108e8610704565b5b6108f586828701610821565b925050604061090686828701610870565b9150509250925092565b610919816106b9565b811461092457600080fd5b50565b60008135905061093681610910565b92915050565b600060208284031215610952576109516106ff565b5b600061096084828501610927565b91505092915050565b600082825260208201905092915050565b7f4f776e61626c653a2063616c6c6572206973206e6f7420746865206f776e6572600082015250565b60006109b0602083610969565b91506109bb8261097a565b602082019050919050565b600060208201905081810360008301526109df816109a3565b9050919050565b60006040820190506109fb60008301856106cb565b610a0860208301846106cb565b9392505050565b600081519050919050565b60005b83811015610a38578082015181840152602081019050610a1d565b60008484015250505050565b6000610a4f82610a0f565b610a598185610969565b9350610a69818560208601610a1a565b610a7281610713565b840191505092915050565b610a868161084f565b82525050565b60006060820190508181036000830152610aa68186610a44565b90508181036020830152610aba8185610a44565b9050610ac96040830184610a7d565b949350505050565b600081519050610ae081610910565b92915050565b600060208284031215610afc57610afb6106ff565b5b6000610b0a84828501610ad1565b91505092915050565b7f4f776e61626c653a206e6577206f776e657220697320746865207a65726f206160008201527f6464726573730000000000000000000000000000000000000000000000000000602082015250565b6000610b6f602683610969565b9150610b7a82610b13565b604082019050919050565b60006020820190508181036000830152610b9e81610b62565b9050919050565b7f455243313136373a20637265617465206661696c656400000000000000000000600082015250565b6000610bdb601683610969565b9150610be682610ba5565b602082019050919050565b60006020820190508181036000830152610c0a81610bce565b905091905056fea26469706673582212206263b462dd38f78f53c832bfc4c9666b0a5ea5ef5429065f9c44291689ddb81c64736f6c6343000811003360806040523480156200001157600080fd5b5060405162001f8838038062001f8883398181016040528101906200003791906200021e565b818181600390816200004a9190620004ee565b5080600490816200005c9190620004ee565b5050508160059081620000709190620004ee565b508060069081620000829190620004ee565b505050620005d5565b6000604051905090565b600080fd5b600080fd5b600080fd5b600080fd5b6000601f19601f8301169050919050565b7f4e487b7100000000000000000000000000000000000000000000000000000000600052604160045260246000fd5b620000f482620000a9565b810181811067ffffffffffffffff82111715620001165762000115620000ba565b5b80604052505050565b60006200012b6200008b565b9050620001398282620000e9565b919050565b600067ffffffffffffffff8211156200015c576200015b620000ba565b5b6200016782620000a9565b9050602081019050919050565b60005b838110156200019457808201518184015260208101905062000177565b60008484015250505050565b6000620001b7620001b1846200013e565b6200011f565b905082815260208101848484011115620001d657620001d5620000a4565b5b620001e384828562000174565b509392505050565b600082601f8301126200020357620002026200009f565b5b815162000215848260208601620001a0565b91505092915050565b6000806040838503121562000238576200023762000095565b5b600083015167ffffffffffffffff8111156200025957620002586200009a565b5b6200026785828601620001eb565b925050602083015167ffffffffffffffff8111156200028b576200028a6200009a565b5b6200029985828601620001eb565b9150509250929050565b600081519050919050565b7f4e487b7100000000000000000000000000000000000000000000000000000000600052602260045260246000fd5b60006002820490506001821680620002f657607f821691505b6020821081036200030c576200030b620002ae565b5b50919050565b60008190508160005260206000209050919050565b60006020601f8301049050919050565b600082821b905092915050565b600060088302620003767fffffffffffffffffffffffffffffffffffffffffffffffffffffffffffffffff8262000337565b62000382868362000337565b95508019841693508086168417925050509392505050565b6000819050919050565b6000819050919050565b6000620003cf620003c9620003c3846200039a565b620003a4565b6200039a565b9050919050565b6000819050919050565b620003eb83620003ae565b62000403620003fa82620003d6565b84845462000344565b825550505050565b600090565b6200041a6200040b565b62000427818484620003e0565b505050565b5b818110156200044f576200044360008262000410565b6001810190506200042d565b5050565b601f8211156200049e57620004688162000312565b620004738462000327565b8101602085101562000483578190505b6200049b620004928562000327565b8301826200042c565b50505b505050565b600082821c905092915050565b6000620004c360001984600802620004a3565b1980831691505092915050565b6000620004de8383620004b0565b9150826002028217905092915050565b620004f982620002a3565b67ffffffffffffffff811115620005155762000514620000ba565b5b620005218254620002dd565b6200052e82828562000453565b600060209050601f83116001811462000566576000841562000551578287015190505b6200055d8582620004d0565b865550620005cd565b601f198416620005768662000312565b60005b82811015620005a05784890151825560018201915060208501945060208101905062000579565b86831015620005c05784890151620005bc601f891682620004b0565b8355505b6001600288020188555050505b505050505050565b6119a380620005e56000396000f3fe608060405234801561001057600080fd5b50600436106101005760003560e01c8063699aa4791161009757806395d89b411161006657806395d89b41146102af578063a457c2d7146102cd578063a9059cbb146102fd578063dd62ed3e1461032d57610100565b8063699aa4791461022757806370a082311461024557806379cc679014610275578063916965651461029157610100565b8063313ce567116100d3578063313ce567146101a157806339509351146101bf57806342966c68146101ef5780634bbc1bcd1461020b57610100565b806306fdde0314610105578063095ea7b31461012357806318160ddd1461015357806323b872dd14610171575b600080fd5b61010d61035d565b60405161011a919061108f565b60405180910390f35b61013d6004803603810190610138919061114a565b6103ef565b60405161014a91906111a5565b60405180910390f35b61015b610412565b60405161016891906111cf565b60405180910390f35b61018b600480360381019061018691906111ea565b61041c565b60405161019891906111a5565b60405180910390f35b6101a961044b565b6040516101b69190611259565b60405180910390f35b6101d960048036038101906101d4919061114a565b610454565b6040516101e691906111a5565b60405180910390f35b61020960048036038101906102049190611274565b61048b565b005b6102256004803603810190610220919061114a565b61049f565b005b61022f6104ad565b60405161023c919061108f565b60405180910390f35b61025f600480360381019061025a91906112a1565b61053b565b60405161026c91906111cf565b60405180910390f35b61028f600480360381019061028a919061114a565b610583565b005b6102996105a3565b6040516102a6919061108f565b60405180910390f35b6102b7610631565b6040516102c4919061108f565b60405180910390f35b6102e760048036038101906102e2919061114a565b6106c3565b6040516102f491906111a5565b60405180910390f35b6103176004803603810190610312919061114a565b61073a565b60405161032491906111a5565b60405180910390f35b610347600480360381019061034291906112ce565b61075d565b60405161035491906111cf565b60405180910390f35b60606003805461036c9061133d565b80601f01602080910402602001604051908101604052809291908181526020018280546103989061133d565b80156103e55780601f106103ba576101008083540402835291602001916103e5565b820191906000526020600020905b8154815290600101906020018083116103c857829003601f168201915b5050505050905090565b6000806103fa6107e4565b90506104078185856107ec565b600191505092915050565b6000600254905090565b6000806104276107e4565b90506104348582856109b5565b61043f858585610a41565b60019150509392505050565b60006012905090565b60008061045f6107e4565b9050610480818585610471858961075d565b61047b919061139d565b6107ec565b600191505092915050565b61049c6104966107e4565b82610cc0565b50565b6104a98282610e96565b5050565b600580546104ba9061133d565b80601f01602080910402602001604051908101604052809291908181526020018280546104e69061133d565b80156105335780601f1061050857610100808354040283529160200191610533565b820191906000526020600020905b81548152906001019060200180831161051657829003601f168201915b505050505081565b60008060008373ffffffffffffffffffffffffffffffffffffffff1673ffffffffffffffffffffffffffffffffffffffff168152602001908152602001600020549050919050565b6105958261058f6107e4565b836109b5565b61059f8282610cc0565b5050565b600680546105b09061133d565b80601f01602080910402602001604051908101604052809291908181526020018280546105dc9061133d565b80156106295780601f106105fe57610100808354040283529160200191610629565b820191906000526020600020905b81548152906001019060200180831161060c57829003601f168201915b505050505081565b6060600480546106409061133d565b80601f016020809104026020016040519081016040528092919081815260200182805461066c9061133d565b80156106b95780601f1061068e576101008083540402835291602001916106b9565b820191906000526020600020905b81548152906001019060200180831161069c57829003601f168201915b5050505050905090565b6000806106ce6107e4565b905060006106dc828661075d565b905083811015610721576040517f08c379a000000000000000000000000000000000000000000000000000000000815260040161071890611443565b60405180910390fd5b61072e82868684036107ec565b60019250505092915050565b6000806107456107e4565b9050610752818585610a41565b600191505092915050565b6000600160008473ffffffffffffffffffffffffffffffffffffffff1673ffffffffffffffffffffffffffffffffffffffff16815260200190815260200160002060008373ffffffffffffffffffffffffffffffffffffffff1673ffffffffffffffffffffffffffffffffffffffff16815260200190815260200160002054905092915050565b600033905090565b600073ffffffffffffffffffffffffffffffffffffffff168373ffffffffffffffffffffffffffffffffffffffff160361085b576040517f08c379a0000000000000000000000000000000000000000000000000000000008152600401610852906114d5565b60405180910390fd5b600073ffffffffffffffffffffffffffffffffffffffff168273ffffffffffffffffffffffffffffffffffffffff16036108ca576040517f08c379a00000000000000000000000000000000000000000000000000000000081526004016108c190611567565b60405180910390fd5b80600160008573ffffffffffffffffffffffffffffffffffffffff1673ffffffffffffffffffffffffffffffffffffffff16815260200190815260200160002060008473ffffffffffffffffffffffffffffffffffffffff1673ffffffffffffffffffffffffffffffffffffffff168152602001908152602001600020819055508173ffffffffffffffffffffffffffffffffffffffff168373ffffffffffffffffffffffffffffffffffffffff167f8c5be1e5ebec7d5bd14f71427d1e84f3dd0314c0f7b2291e5b200ac8c7c3b925836040516109a891906111cf565b60405180910390a3505050565b60006109c1848461075d565b90507fffffffffffffffffffffffffffffffffffffffffffffffffffffffffffffffff8114610a3b5781811015610a2d576040517f08c379a0000000000000000000000000000000000000000000000000000000008152600401610a24906115d3565b60405180910390fd5b610a3a84848484036107ec565b5b50505050565b600073ffffffffffffffffffffffffffffffffffffffff168373ffffffffffffffffffffffffffffffffffffffff1603610ab0576040517f08c379a0000000000000000000000000000000000000000000000000000000008152600401610aa790611665565b60405180910390fd5b600073ffffffffffffffffffffffffffffffffffffffff168273ffffffffffffffffffffffffffffffffffffffff1603610b1f576040517f08c379a0000000000000000000000000000000000000000000000000000000008152600401610b16906116f7565b60405180910390fd5b610b2a838383610ff5565b60008060008573ffffffffffffffffffffffffffffffffffffffff1673ffffffffffffffffffffffffffffffffffffffff16815260200190815260200160002054905081811015610bb0576040517f08c379a0000000000000000000000000000000000000000000000000000000008152600401610ba790611789565b60405180910390fd5b8181036000808673ffffffffffffffffffffffffffffffffffffffff1673ffffffffffffffffffffffffffffffffffffffff16815260200190815260200160002081905550816000808573ffffffffffffffffffffffffffffffffffffffff1673ffffffffffffffffffffffffffffffffffffffff1681526020019081526020016000206000828254610c43919061139d565b925050819055508273ffffffffffffffffffffffffffffffffffffffff168473ffffffffffffffffffffffffffffffffffffffff167fddf252ad1be2c89b69c2b068fc378daa952ba7f163c4a11628f55a4df523b3ef84604051610ca791906111cf565b60405180910390a3610cba848484610ffa565b50505050565b600073ffffffffffffffffffffffffffffffffffffffff168273ffffffffffffffffffffffffffffffffffffffff1603610d2f576040517f08c379a0000000000000000000000000000000000000000000000000000000008152600401610d269061181b565b60405180910390fd5b610d3b82600083610ff5565b60008060008473ffffffffffffffffffffffffffffffffffffffff1673ffffffffffffffffffffffffffffffffffffffff16815260200190815260200160002054905081811015610dc1576040517f08c379a0000000000000000000000000000000000000000000000000000000008152600401610db8906118ad565b60405180910390fd5b8181036000808573ffffffffffffffffffffffffffffffffffffffff1673ffffffffffffffffffffffffffffffffffffffff168152602001908152602001600020819055508160026000828254610e1891906118cd565b92505081905550600073ffffffffffffffffffffffffffffffffffffffff168373ffffffffffffffffffffffffffffffffffffffff167fddf252ad1be2c89b69c2b068fc378daa952ba7f163c4a11628f55a4df523b3ef84604051610e7d91906111cf565b60405180910390a3610e9183600084610ffa565b505050565b600073ffffffffffffffffffffffffffffffffffffffff168273ffffffffffffffffffffffffffffffffffffffff1603610f05576040517f08c379a0000000000000000000000000000000000000000000000000000000008152600401610efc9061194d565b60405180910390fd5b610f1160008383610ff5565b8060026000828254610f23919061139d565b92505081905550806000808473ffffffffffffffffffffffffffffffffffffffff1673ffffffffffffffffffffffffffffffffffffffff1681526020019081526020016000206000828254610f78919061139d565b925050819055508173ffffffffffffffffffffffffffffffffffffffff16600073ffffffffffffffffffffffffffffffffffffffff167fddf252ad1be2c89b69c2b068fc378daa952ba7f163c4a11628f55a4df523b3ef83604051610fdd91906111cf565b60405180910390a3610ff160008383610ffa565b5050565b505050565b505050565b600081519050919050565b600082825260208201905092915050565b60005b8381101561103957808201518184015260208101905061101e565b60008484015250505050565b6000601f19601f8301169050919050565b600061106182610fff565b61106b818561100a565b935061107b81856020860161101b565b61108481611045565b840191505092915050565b600060208201905081810360008301526110a98184611056565b905092915050565b600080fd5b600073ffffffffffffffffffffffffffffffffffffffff82169050919050565b60006110e1826110b6565b9050919050565b6110f1816110d6565b81146110fc57600080fd5b50565b60008135905061110e816110e8565b92915050565b6000819050919050565b61112781611114565b811461113257600080fd5b50565b6000813590506111448161111e565b92915050565b60008060408385031215611161576111606110b1565b5b600061116f858286016110ff565b925050602061118085828601611135565b9150509250929050565b60008115159050919050565b61119f8161118a565b82525050565b60006020820190506111ba6000830184611196565b92915050565b6111c981611114565b82525050565b60006020820190506111e460008301846111c0565b92915050565b600080600060608486031215611203576112026110b1565b5b6000611211868287016110ff565b9350506020611222868287016110ff565b925050604061123386828701611135565b9150509250925092565b600060ff82169050919050565b6112538161123d565b82525050565b600060208201905061126e600083018461124a565b92915050565b60006020828403121561128a576112896110b1565b5b600061129884828501611135565b91505092915050565b6000602082840312156112b7576112b66110b1565b5b60006112c5848285016110ff565b91505092915050565b600080604083850312156112e5576112e46110b1565b5b60006112f3858286016110ff565b9250506020611304858286016110ff565b9150509250929050565b7f4e487b7100000000000000000000000000000000000000000000000000000000600052602260045260246000fd5b6000600282049050600182168061135557607f821691505b6020821081036113685761136761130e565b5b50919050565b7f4e487b7100000000000000000000000000000000000000000000000000000000600052601160045260246000fd5b60006113a882611114565b91506113b383611114565b92508282019050808211156113cb576113ca61136e565b5b92915050565b7f45524332303a2064656372656173656420616c6c6f77616e63652062656c6f7760008201527f207a65726f000000000000000000000000000000000000000000000000000000602082015250565b600061142d60258361100a565b9150611438826113d1565b604082019050919050565b6000602082019050818103600083015261145c81611420565b9050919050565b7f45524332303a20617070726f76652066726f6d20746865207a65726f2061646460008201527f7265737300000000000000000000000000000000000000000000000000000000602082015250565b60006114bf60248361100a565b91506114ca82611463565b604082019050919050565b600060208201905081810360008301526114ee816114b2565b9050919050565b7f45524332303a20617070726f766520746f20746865207a65726f20616464726560008201527f7373000000000000000000000000000000000000000000000000000000000000602082015250565b600061155160228361100a565b915061155c826114f5565b604082019050919050565b6000602082019050818103600083015261158081611544565b9050919050565b7f45524332303a20696e73756666696369656e7420616c6c6f77616e6365000000600082015250565b60006115bd601d8361100a565b91506115c882611587565b602082019050919050565b600060208201905081810360008301526115ec816115b0565b9050919050565b7f45524332303a207472616e736665722066726f6d20746865207a65726f20616460008201527f6472657373000000000000000000000000000000000000000000000000000000602082015250565b600061164f60258361100a565b915061165a826115f3565b604082019050919050565b6000602082019050818103600083015261167e81611642565b9050919050565b7f45524332303a207472616e7366657220746f20746865207a65726f206164647260008201527f6573730000000000000000000000000000000000000000000000000000000000602082015250565b60006116e160238361100a565b91506116ec82611685565b604082019050919050565b60006020820190508181036000830152611710816116d4565b9050919050565b7f45524332303a207472616e7366657220616d6f756e742065786365656473206260008201527f616c616e63650000000000000000000000000000000000000000000000000000602082015250565b600061177360268361100a565b915061177e82611717565b604082019050919050565b600060208201905081810360008301526117a281611766565b9050919050565b7f45524332303a206275726e2066726f6d20746865207a65726f2061646472657360008201527f7300000000000000000000000000000000000000000000000000000000000000602082015250565b600061180560218361100a565b9150611810826117a9565b604082019050919050565b60006020820190508181036000830152611834816117f8565b9050919050565b7f45524332303a206275726e20616d6f756e7420657863656564732062616c616e60008201527f6365000000000000000000000000000000000000000000000000000000000000602082015250565b600061189760228361100a565b91506118a28261183b565b604082019050919050565b600060208201905081810360008301526118c68161188a565b9050919050565b60006118d882611114565b91506118e383611114565b92508282039050818111156118fb576118fa61136e565b5b92915050565b7f45524332303a206d696e7420746f20746865207a65726f206164647265737300600082015250565b6000611937601f8361100a565b915061194282611901565b602082019050919050565b600060208201905081810360008301526119668161192a565b905091905056fea26469706673582212207bee98e8aa06d137da54189fb79d050dead096b062edf8eedb348d3247d178f164736f6c63430008110033",
  "immutableReferences": {},
  "source": "// SPDX-License-Identifier: MIT\npragma solidity ^0.8.7;\n\nimport \"openzeppelin-solidity/contracts/access/Ownable.sol\";\nimport { Clones } from \"openzeppelin-solidity/contracts/proxy/Clones.sol\";\nimport \"./CosmoMatter.sol\";\nimport \"./CosmoBang.sol\";\n//import \"./CosmoBuilder.sol\";\n//import \"./CosmoVault.sol\";\nimport \"./ICosmoBang.sol\";\n\n/**\n * CosmoUniverse is the top contract for the developer to create the planned system.\n * The creation of this contract creates an ERC20 coin called CosmoMatter.\n * The owner of this contract has the option to create a big bang starting the CosmoNuts universe.\n * Each universe is comprised of an NFT collection and a Treasury to manage funds of that NFT collection.\n */\n contract CosmoUniverse is Ownable {\n\n    uint256 COSMOS_INDEX = 0;\n\n    address public SYSTEM_ADDRESS;\n    address public MATTER_ADDRESS;\n    //address private BUILDER_ADDRESS;\n\n    address implementationAddress;\n\n    /*\n    struct Cosmo {\n        bool status;\n        uint256 id;\n        uint256 price;\n        uint256 rate;\n        uint256 amount;\n        string name;\n        string symbol;\n        address location;\n        address vaultLocation;\n    }\n    Cosmo cosmo;\n    mapping(uint256 => Cosmo) public cosmos;\n    */\n\n    CosmoMatter matter;\n    //CosmoBuilder builder;\n    //CosmoBang bang;\n\n    constructor(\n        address _systemAddress,\n        string memory _matterName,\n        string memory _matterSymbol\n    )\n    {\n        SYSTEM_ADDRESS = _systemAddress;\n        matter = new CosmoMatter(_matterName, _matterSymbol);\n        MATTER_ADDRESS = address(matter);\n\n        //builder = new CosmoBuilder(_systemAddress);\n        //BUILDER_ADDRESS = address(builder);\n        //bang = new CosmoBang(_systemAddress, _matterAddress);\n    }\n\n    function bigBang(\n        string memory _cosmosName,\n        string memory _cosmosSymbol,\n        uint256 _desiredEntities\n        //address _vaultAddress\n    ) public onlyOwner returns (address) {\n        /*\n        CosmoBang bang = new CosmoBang(\n            _cosmosName,\n            _cosmosSymbol,\n            _desiredEntities,\n            SYSTEM_ADDRESS,\n            MATTER_ADDRESS\n        );\n        */\n        //CosmoBang bang = new CosmoBang(SYSTEM_ADDRESS, MATTER_ADDRESS);\n        CosmoBang bang = CosmoBang(Clones.clone(implementationAddress));\n        bang.initialize(SYSTEM_ADDRESS, MATTER_ADDRESS);\n\n        address cosmoAddress = ICosmoBang(address(bang)).createCosmo(\n            _cosmosName,\n            _cosmosSymbol,\n            _desiredEntities\n        );\n\n        return cosmoAddress;\n        //return ICosmoBang(address(bang)).createCosmo();\n        //return ICosmoBang(address(bang)).COSMO_ADDRESS();\n        //return CosmoBang(address(bang)).COSMO_ADDRESS();\n\n    }\n\n    /*\n    function buildASystem(\n        uint256 _id,\n        uint256 _price,\n        uint256 _rate,\n        uint256 _amount,\n        string memory _name,\n        string memory _symbol\n    ) public {\n        //CosmoSystems builder = new CosmoSystems(\n        //    _id, _price, _rate, _amount, _name, _symbol\n        //);\n        //CosmoSystems builder = new CosmoSystems(SYSTEM_ADDRESS);\n        //BUILDER_ADDRESS = address(builder);\n\n        //cosmos[COSMOS_INDEX].id = _id;\n        //cosmos[COSMOS_INDEX].price = _price;\n        //cosmos[COSMOS_INDEX].rate =  _rate;\n        //cosmos[COSMOS_INDEX].amount = _amount;\n        //cosmos[COSMOS_INDEX].name = _name;\n        //cosmos[COSMOS_INDEX].symbol = _symbol;\n\n        //cosmos[COSMOS_INDEX].vaultLocation = builder.createVault(MATTER_ADDRESS);\n\n        builder.insertSystemInfo(\n            _id, _price, _rate, _amount, _name, _symbol\n        );\n    }\n    */\n\n    /*\n    function deployCosmo(\n        uint256 _id,\n        uint256 _price,\n        uint256 _rate,\n        uint256 _amount,\n        string memory _name,\n        string memory _symbol\n    ) public {\n        cosmos[COSMOS_INDEX].id = _id;\n        cosmos[COSMOS_INDEX].price = _price;\n        cosmos[COSMOS_INDEX].rate =  _rate;\n        cosmos[COSMOS_INDEX].amount = _amount;\n        cosmos[COSMOS_INDEX].name = _name;\n        cosmos[COSMOS_INDEX].symbol = _symbol;\n\n        createVault();\n    }\n    */\n\n    /*\n    function makeMatter(string memory _matterName, string memory _matterSymbol) public {\n        matter = new CosmoMatter(_matterName, _matterSymbol);\n        MATTER_ADDRESS = address(matter);\n    }\n    */\n\n    /*\n    function bigBang() public {\n        // seperate out mattertocreate later as a function that can be viewed before bigBang;\n        //uint256 matterToCreate = cosmos[COSMOS_INDEX].rate * cosmos[COSMOS_INDEX].amount;\n        //matter = CosmoMatter(MATTER_ADDRESS);\n        //matter.mintMatter(cosmos[COSMOS_INDEX].vaultLocation, matterToCreate);\n        //CosmoSystems builder = CosmoSystems(BUILDER_ADDRESS);\n        builder.createCosmo(\n            //cosmo.name,\n            //cosmo.symbol,\n            //cosmo.amount,\n            //cosmos[COSMOS_INDEX].name,\n            //cosmos[COSMOS_INDEX].symbol,\n            //cosmos[COSMOS_INDEX].amount,\n            MATTER_ADDRESS\n        );\n    }\n    */\n\n    /**\n     * The function starts the CosmoNuts universe.\n     * The amount of matter created is dependent on the desired number of NFT tokens needed and their rate.\n     * Total matter created is ultimately equal to number of NFT tokens times the selected rate.\n     */\n     /*\n    function bigBang(\n        string memory _cosmosName,\n        string memory _cosmosSymbol,\n        uint256 _nutPrice,\n        uint256 _nutRate,\n        uint256 _desiredEntities\n    ) public onlyOwner {\n        //CosmoBang bang = CosmoBang(bangAddress);\n        uint256 matterToCreate = _nutRate * _desiredEntities;\n        matter.mintMatter(address(this), matterToCreate);\n        address[] memory cosmoAddresses = bang.nutBang(\n            _cosmosName,\n            _cosmosSymbol,\n            _nutPrice,\n            _nutRate,\n            _desiredEntities\n        );\n\n        cosmo.id = COSMOS_INDEX;\n        cosmo.status = true;\n        cosmo.name = _cosmosName;\n        cosmo.symbol = _cosmosSymbol;\n        cosmo.location = cosmoAddresses[0];\n        cosmo.vaultLocation = cosmoAddresses[1];\n\n        cosmos[COSMOS_INDEX] = cosmo;\n    }\n    */\n\n}\n",
  "sourcePath": "/home/redlentils/Seafile/Websites/avatarnft/contracts/CosmoUniverse.sol",
  "compiler": {
    "name": "solc",
    "version": "0.8.17+commit.8df45f5f.Emscripten.clang"
  },
  "schemaVersion": "3.4.10",
  "updatedAt": "2022-10-18T06:08:11.331Z",
  "devdoc": {
    "kind": "dev",
    "methods": {
      "owner()": {
        "details": "Returns the address of the current owner."
      },
      "renounceOwnership()": {
        "details": "Leaves the contract without owner. It will not be possible to call `onlyOwner` functions anymore. Can only be called by the current owner. NOTE: Renouncing ownership will leave the contract without an owner, thereby removing any functionality that is only available to the owner."
      },
      "transferOwnership(address)": {
        "details": "Transfers ownership of the contract to a new account (`newOwner`). Can only be called by the current owner."
      }
    },
    "version": 1
  },
  "userdoc": {
    "kind": "user",
    "methods": {},
    "notice": "CosmoUniverse is the top contract for the developer to create the planned system. The creation of this contract creates an ERC20 coin called CosmoMatter. The owner of this contract has the option to create a big bang starting the CosmoNuts universe. Each universe is comprised of an NFT collection and a Treasury to manage funds of that NFT collection.",
    "version": 1
  }
}