{
  "contractName": "CosmoVault",
  "abi": [
    {
      "inputs": [
        {
          "internalType": "address",
          "name": "_systemAddress",
          "type": "address"
        },
        {
          "internalType": "address",
          "name": "_cosmosAddress",
          "type": "address"
        }
      ],
      "name": "initialize",
      "outputs": [],
      "stateMutability": "nonpayable",
      "type": "function"
    },
    {
      "inputs": [
        {
          "internalType": "uint256",
          "name": "_tokenId",
          "type": "uint256"
        },
        {
          "internalType": "string",
          "name": "_cidPath",
          "type": "string"
        },
        {
          "internalType": "bytes",
          "name": "_signature",
          "type": "bytes"
        }
      ],
      "name": "changeTokenURI",
      "outputs": [],
      "stateMutability": "nonpayable",
      "type": "function"
    }
  ],
  "bytecode": "0x608060405234801561001057600080fd5b50610f2e806100206000396000f3fe608060405234801561001057600080fd5b50600436106100365760003560e01c8063485cc9551461003b578063bd6af00914610057575b600080fd5b6100556004803603810190610050919061071f565b610073565b005b610071600480360381019061006c919061097c565b6100fe565b005b816000800160006101000a81548173ffffffffffffffffffffffffffffffffffffffff021916908373ffffffffffffffffffffffffffffffffffffffff16021790555080600060010160006101000a81548173ffffffffffffffffffffffffffffffffffffffff021916908373ffffffffffffffffffffffffffffffffffffffff1602179055505050565b6000826040516020016101119190610a78565b604051602081830303815290604052805190602001209050610133818361020a565b610172576040517f08c379a000000000000000000000000000000000000000000000000000000000815260040161016990610aec565b60405180910390fd5b600060010160009054906101000a900473ffffffffffffffffffffffffffffffffffffffff1673ffffffffffffffffffffffffffffffffffffffff1663162094c485856040518363ffffffff1660e01b81526004016101d2929190610b54565b600060405180830381600087803b1580156101ec57600080fd5b505af1158015610200573d6000803e3d6000fd5b5050505050505050565b60008060000160009054906101000a900473ffffffffffffffffffffffffffffffffffffffff1673ffffffffffffffffffffffffffffffffffffffff1661025184846102b1565b73ffffffffffffffffffffffffffffffffffffffff16146102a7576040517f08c379a000000000000000000000000000000000000000000000000000000000815260040161029e90610bd0565b60405180910390fd5b6001905092915050565b60006102c682846102ce90919063ffffffff16565b905092915050565b60008060006102dd85856102f5565b915091506102ea81610376565b819250505092915050565b60008060418351036103365760008060006020860151925060408601519150606086015160001a905061032a87828585610542565b9450945050505061036f565b604083510361036657600080602085015191506040850151905061035b86838361064e565b93509350505061036f565b60006002915091505b9250929050565b6000600481111561038a57610389610bf0565b5b81600481111561039d5761039c610bf0565b5b031561053f57600160048111156103b7576103b6610bf0565b5b8160048111156103ca576103c9610bf0565b5b0361040a576040517f08c379a000000000000000000000000000000000000000000000000000000000815260040161040190610c6b565b60405180910390fd5b6002600481111561041e5761041d610bf0565b5b81600481111561043157610430610bf0565b5b03610471576040517f08c379a000000000000000000000000000000000000000000000000000000000815260040161046890610cd7565b60405180910390fd5b6003600481111561048557610484610bf0565b5b81600481111561049857610497610bf0565b5b036104d8576040517f08c379a00000000000000000000000000000000000000000000000000000000081526004016104cf90610d69565b60405180910390fd5b6004808111156104eb576104ea610bf0565b5b8160048111156104fe576104fd610bf0565b5b0361053e576040517f08c379a000000000000000000000000000000000000000000000000000000000815260040161053590610dfb565b60405180910390fd5b5b50565b6000807f7fffffffffffffffffffffffffffffff5d576e7357a4501ddfe92f46681b20a08360001c111561057d576000600391509150610645565b601b8560ff16141580156105955750601c8560ff1614155b156105a7576000600491509150610645565b6000600187878787604051600081526020016040526040516105cc9493929190610e50565b6020604051602081039080840390855afa1580156105ee573d6000803e3d6000fd5b505050602060405103519050600073ffffffffffffffffffffffffffffffffffffffff168173ffffffffffffffffffffffffffffffffffffffff160361063c57600060019250925050610645565b80600092509250505b94509492505050565b60008060007f7fffffffffffffffffffffffffffffffffffffffffffffffffffffffffffffff60001b841690506000601b60ff8660001c901c6106919190610ec4565b905061069f87828885610542565b935093505050935093915050565b6000604051905090565b600080fd5b600080fd5b600073ffffffffffffffffffffffffffffffffffffffff82169050919050565b60006106ec826106c1565b9050919050565b6106fc816106e1565b811461070757600080fd5b50565b600081359050610719816106f3565b92915050565b60008060408385031215610736576107356106b7565b5b60006107448582860161070a565b92505060206107558582860161070a565b9150509250929050565b6000819050919050565b6107728161075f565b811461077d57600080fd5b50565b60008135905061078f81610769565b92915050565b600080fd5b600080fd5b6000601f19601f8301169050919050565b7f4e487b7100000000000000000000000000000000000000000000000000000000600052604160045260246000fd5b6107e88261079f565b810181811067ffffffffffffffff82111715610807576108066107b0565b5b80604052505050565b600061081a6106ad565b905061082682826107df565b919050565b600067ffffffffffffffff821115610846576108456107b0565b5b61084f8261079f565b9050602081019050919050565b82818337600083830152505050565b600061087e6108798461082b565b610810565b90508281526020810184848401111561089a5761089961079a565b5b6108a584828561085c565b509392505050565b600082601f8301126108c2576108c1610795565b5b81356108d284826020860161086b565b91505092915050565b600067ffffffffffffffff8211156108f6576108f56107b0565b5b6108ff8261079f565b9050602081019050919050565b600061091f61091a846108db565b610810565b90508281526020810184848401111561093b5761093a61079a565b5b61094684828561085c565b509392505050565b600082601f83011261096357610962610795565b5b813561097384826020860161090c565b91505092915050565b600080600060608486031215610995576109946106b7565b5b60006109a386828701610780565b935050602084013567ffffffffffffffff8111156109c4576109c36106bc565b5b6109d0868287016108ad565b925050604084013567ffffffffffffffff8111156109f1576109f06106bc565b5b6109fd8682870161094e565b9150509250925092565b600081519050919050565b600081905092915050565b60005b83811015610a3b578082015181840152602081019050610a20565b60008484015250505050565b6000610a5282610a07565b610a5c8185610a12565b9350610a6c818560208601610a1d565b80840191505092915050565b6000610a848284610a47565b915081905092915050565b600082825260208201905092915050565b7f4461746120646f6573206e6f74206d61746368207369676e6174757265000000600082015250565b6000610ad6601d83610a8f565b9150610ae182610aa0565b602082019050919050565b60006020820190508181036000830152610b0581610ac9565b9050919050565b610b158161075f565b82525050565b6000610b2682610a07565b610b308185610a8f565b9350610b40818560208601610a1d565b610b498161079f565b840191505092915050565b6000604082019050610b696000830185610b0c565b8181036020830152610b7b8184610b1b565b90509392505050565b7f496e76616c6964207369676e6174757265000000000000000000000000000000600082015250565b6000610bba601183610a8f565b9150610bc582610b84565b602082019050919050565b60006020820190508181036000830152610be981610bad565b9050919050565b7f4e487b7100000000000000000000000000000000000000000000000000000000600052602160045260246000fd5b7f45434453413a20696e76616c6964207369676e61747572650000000000000000600082015250565b6000610c55601883610a8f565b9150610c6082610c1f565b602082019050919050565b60006020820190508181036000830152610c8481610c48565b9050919050565b7f45434453413a20696e76616c6964207369676e6174757265206c656e67746800600082015250565b6000610cc1601f83610a8f565b9150610ccc82610c8b565b602082019050919050565b60006020820190508181036000830152610cf081610cb4565b9050919050565b7f45434453413a20696e76616c6964207369676e6174757265202773272076616c60008201527f7565000000000000000000000000000000000000000000000000000000000000602082015250565b6000610d53602283610a8f565b9150610d5e82610cf7565b604082019050919050565b60006020820190508181036000830152610d8281610d46565b9050919050565b7f45434453413a20696e76616c6964207369676e6174757265202776272076616c60008201527f7565000000000000000000000000000000000000000000000000000000000000602082015250565b6000610de5602283610a8f565b9150610df082610d89565b604082019050919050565b60006020820190508181036000830152610e1481610dd8565b9050919050565b6000819050919050565b610e2e81610e1b565b82525050565b600060ff82169050919050565b610e4a81610e34565b82525050565b6000608082019050610e656000830187610e25565b610e726020830186610e41565b610e7f6040830185610e25565b610e8c6060830184610e25565b95945050505050565b7f4e487b7100000000000000000000000000000000000000000000000000000000600052601160045260246000fd5b6000610ecf8261075f565b9150610eda8361075f565b9250828201905080821115610ef257610ef1610e95565b5b9291505056fea264697066735822122064fcb9eb9d8f548b63ab3db74759ca7ec2855fd159ff323eaa10aa53b022595164736f6c63430008110033",
  "immutableReferences": {},
  "source": "// SPDX-License-Identifier: MIT\npragma solidity ^0.8.7;\n\nimport \"openzeppelin-solidity/contracts/utils/cryptography/ECDSA.sol\";\n\nimport \"./ICosmoNuts.sol\";\nimport \"./ICosmoVault.sol\";\n\ncontract CosmoVault is ICosmoVault {\n\n    struct Vault {\n        address system;\n        address cosmos;\n    }\n    Vault private vault;\n\n    using ECDSA for bytes32;\n\n    function initialize(address _systemAddress, address _cosmosAddress) external {\n        vault.system = _systemAddress;\n        vault.cosmos = _cosmosAddress;\n    }\n\n    function changeTokenURI(uint256 _tokenId, string memory _cidPath, bytes memory _signature) external virtual override {\n        //require(_isApprovedOrOwner(_msgSender(), _tokenId), \"Caller is not owner nor approved\");\n        bytes32 pathHash = keccak256(abi.encodePacked(_cidPath));\n        require(isVerified(pathHash, _signature), \"Data does not match signature\");\n\n        ICosmoNuts(vault.cosmos).setTokenURI(_tokenId, _cidPath);\n    }\n\n    function signerAddress(bytes32 _hash, bytes memory _signature) internal pure returns (address) {\n        return _hash.recover(_signature);\n    }\n\n    function isVerified(bytes32 _pathHash, bytes memory _signature) internal view returns (bool) {\n        // *Research* - Should you include the following \"\\x19Ethereum Signed Message:\\n32\"\n        require(signerAddress(_pathHash, _signature) == vault.system, \"Invalid signature\");\n        return true;\n    }\n\n}\n",
  "sourcePath": "/home/redlentils/Seafile/Websites/avatarnft/contracts/CosmoVault.sol",
  "compiler": {
    "name": "solc",
    "version": "0.8.17+commit.8df45f5f.Emscripten.clang"
  },
  "schemaVersion": "3.4.10",
  "updatedAt": "2022-10-20T07:27:03.500Z",
  "devdoc": {
    "kind": "dev",
    "methods": {},
    "version": 1
  },
  "userdoc": {
    "kind": "user",
    "methods": {},
    "version": 1
  }
}