{
  "contractName": "CosmoBang",
  "abi": [
    {
      "inputs": [
        {
          "internalType": "address",
          "name": "_systemAddress",
          "type": "address"
        },
        {
          "internalType": "address",
          "name": "_matterAddress",
          "type": "address"
        },
        {
          "internalType": "uint256",
          "name": "_nutPrice",
          "type": "uint256"
        },
        {
          "internalType": "uint256",
          "name": "_matterRate",
          "type": "uint256"
        }
      ],
      "stateMutability": "nonpayable",
      "type": "constructor"
    },
    {
      "inputs": [],
      "name": "COSMOS_ADDRESS",
      "outputs": [
        {
          "internalType": "address",
          "name": "",
          "type": "address"
        }
      ],
      "stateMutability": "view",
      "type": "function"
    },
    {
      "inputs": [],
      "name": "MATTER_RATE",
      "outputs": [
        {
          "internalType": "uint256",
          "name": "",
          "type": "uint256"
        }
      ],
      "stateMutability": "view",
      "type": "function"
    },
    {
      "inputs": [],
      "name": "NUT_PRICE",
      "outputs": [
        {
          "internalType": "uint256",
          "name": "",
          "type": "uint256"
        }
      ],
      "stateMutability": "view",
      "type": "function"
    },
    {
      "inputs": [],
      "name": "SYSTEM_ADDRESS",
      "outputs": [
        {
          "internalType": "address",
          "name": "",
          "type": "address"
        }
      ],
      "stateMutability": "view",
      "type": "function"
    },
    {
      "inputs": [],
      "name": "TREASURY_ADDRESS",
      "outputs": [
        {
          "internalType": "address",
          "name": "",
          "type": "address"
        }
      ],
      "stateMutability": "view",
      "type": "function"
    },
    {
      "inputs": [
        {
          "internalType": "uint256",
          "name": "_nutId",
          "type": "uint256"
        }
      ],
      "name": "calcMatterNeeded",
      "outputs": [
        {
          "internalType": "uint256",
          "name": "",
          "type": "uint256"
        }
      ],
      "stateMutability": "view",
      "type": "function"
    },
    {
      "inputs": [
        {
          "internalType": "uint256",
          "name": "_nutIndex",
          "type": "uint256"
        }
      ],
      "name": "giveMintBalance",
      "outputs": [],
      "stateMutability": "nonpayable",
      "type": "function"
    },
    {
      "inputs": [
        {
          "internalType": "uint256",
          "name": "_seedId",
          "type": "uint256"
        }
      ],
      "name": "growSeedFromNut",
      "outputs": [],
      "stateMutability": "nonpayable",
      "type": "function"
    },
    {
      "inputs": [
        {
          "internalType": "bytes32",
          "name": "_pathHash",
          "type": "bytes32"
        },
        {
          "internalType": "bytes",
          "name": "_signature",
          "type": "bytes"
        }
      ],
      "name": "isVerified",
      "outputs": [
        {
          "internalType": "bool",
          "name": "",
          "type": "bool"
        }
      ],
      "stateMutability": "view",
      "type": "function"
    },
    {
      "inputs": [
        {
          "internalType": "uint256",
          "name": "_nutId",
          "type": "uint256"
        },
        {
          "internalType": "uint256",
          "name": "_matterContributed",
          "type": "uint256"
        },
        {
          "internalType": "bytes32",
          "name": "_secretHash",
          "type": "bytes32"
        }
      ],
      "name": "newButterJar",
      "outputs": [],
      "stateMutability": "nonpayable",
      "type": "function"
    },
    {
      "inputs": [
        {
          "internalType": "uint256",
          "name": "_nutId",
          "type": "uint256"
        },
        {
          "internalType": "bytes32",
          "name": "_secretHash",
          "type": "bytes32"
        }
      ],
      "name": "newSeed",
      "outputs": [],
      "stateMutability": "nonpayable",
      "type": "function"
    },
    {
      "inputs": [
        {
          "internalType": "string",
          "name": "_cosmosName",
          "type": "string"
        },
        {
          "internalType": "string",
          "name": "_cosmosSymbol",
          "type": "string"
        },
        {
          "internalType": "uint256",
          "name": "_desiredEntities",
          "type": "uint256"
        }
      ],
      "name": "nutBang",
      "outputs": [],
      "stateMutability": "nonpayable",
      "type": "function"
    }
  ],
  "bytecode": "0x60806040523480156200001157600080fd5b506040516200bb363803806200bb368339818101604052810190620000379190620001ec565b83838383838382846040516200004d9062000139565b6200005c949392919062000280565b604051809103906000f08015801562000079573d6000803e3d6000fd5b50600460006101000a81548173ffffffffffffffffffffffffffffffffffffffff021916908373ffffffffffffffffffffffffffffffffffffffff160217905550600460009054906101000a900473ffffffffffffffffffffffffffffffffffffffff16600160006101000a81548173ffffffffffffffffffffffffffffffffffffffff021916908373ffffffffffffffffffffffffffffffffffffffff16021790555081600281905550806003819055505050505050505050620002cd565b614cca8062006e6c83390190565b600080fd5b600073ffffffffffffffffffffffffffffffffffffffff82169050919050565b600062000179826200014c565b9050919050565b6200018b816200016c565b81146200019757600080fd5b50565b600081519050620001ab8162000180565b92915050565b6000819050919050565b620001c681620001b1565b8114620001d257600080fd5b50565b600081519050620001e681620001bb565b92915050565b6000806000806080858703121562000209576200020862000147565b5b600062000219878288016200019a565b94505060206200022c878288016200019a565b93505060406200023f87828801620001d5565b92505060606200025287828801620001d5565b91505092959194509250565b62000269816200016c565b82525050565b6200027a81620001b1565b82525050565b60006080820190506200029760008301876200025e565b620002a660208301866200025e565b620002b560408301856200026f565b620002c460608301846200026f565b95945050505050565b616b8f80620002dd6000396000f3fe60806040523480156200001157600080fd5b5060043610620000c45760003560e01c80637fcacc0e116200007b5780637fcacc0e14620001a757806386d3d87114620001dd578063911da06214620001fd578063b8a9736d146200021d578063f27890f2146200023f578063f7c85d2e146200025f57620000c4565b806307604b1a14620000c95780632c53308514620000eb5780633434735f146200010d578063347518a8146200012f57806334fc1228146200014f5780635294abf91462000185575b600080fd5b620000d36200027f565b604051620000e2919062000d5d565b60405180910390f35b620000f5620002a5565b60405162000104919062000d95565b60405180910390f35b62000117620002ab565b60405162000126919062000d5d565b60405180910390f35b6200014d600480360381019062000147919062000df7565b620002cf565b005b6200016d600480360381019062000167919062000df7565b62000387565b6040516200017c919062000d95565b60405180910390f35b6200018f62000431565b6040516200019e919062000d5d565b60405180910390f35b620001c56004803603810190620001bf919062000fc6565b62000457565b604051620001d4919062001049565b60405180910390f35b620001fb6004803603810190620001f5919062001066565b62000572565b005b6200021b6004803603810190620002159190620010ad565b62000609565b005b62000227620006a7565b60405162000236919062000d95565b60405180910390f35b6200025d600480360381019062000257919062000df7565b620006ad565b005b6200027d6004803603810190620002779190620011bd565b620007f9565b005b600160009054906101000a900473ffffffffffffffffffffffffffffffffffffffff1681565b60035481565b60008054906101000a900473ffffffffffffffffffffffffffffffffffffffff1681565b600460009054906101000a900473ffffffffffffffffffffffffffffffffffffffff1673ffffffffffffffffffffffffffffffffffffffff16631c85949c600160009054906101000a900473ffffffffffffffffffffffffffffffffffffffff16836040518363ffffffff1660e01b81526004016200035092919062001257565b600060405180830381600087803b1580156200036b57600080fd5b505af115801562000380573d6000803e3d6000fd5b5050505050565b6000600460009054906101000a900473ffffffffffffffffffffffffffffffffffffffff1673ffffffffffffffffffffffffffffffffffffffff16638ed3df0f836040518263ffffffff1660e01b8152600401620003e6919062000d95565b602060405180830381865afa15801562000404573d6000803e3d6000fd5b505050506040513d601f19601f820116820180604052508101906200042a91906200129b565b9050919050565b600560009054906101000a900473ffffffffffffffffffffffffffffffffffffffff1681565b6000600460009054906101000a900473ffffffffffffffffffffffffffffffffffffffff1673ffffffffffffffffffffffffffffffffffffffff16633434735f6040518163ffffffff1660e01b8152600401602060405180830381865afa158015620004c7573d6000803e3d6000fd5b505050506040513d601f19601f82011682018060405250810190620004ed9190620012fe565b73ffffffffffffffffffffffffffffffffffffffff166200050f8484620008c7565b73ffffffffffffffffffffffffffffffffffffffff161462000568576040517f08c379a00000000000000000000000000000000000000000000000000000000081526004016200055f9062001391565b60405180910390fd5b6001905092915050565b600460009054906101000a900473ffffffffffffffffffffffffffffffffffffffff1673ffffffffffffffffffffffffffffffffffffffff1663fe774f9d83836040518363ffffffff1660e01b8152600401620005d1929190620013c4565b600060405180830381600087803b158015620005ec57600080fd5b505af115801562000601573d6000803e3d6000fd5b505050505050565b600460009054906101000a900473ffffffffffffffffffffffffffffffffffffffff1673ffffffffffffffffffffffffffffffffffffffff166303f5de9d8484600354856040518563ffffffff1660e01b81526004016200066e9493929190620013f1565b600060405180830381600087803b1580156200068957600080fd5b505af11580156200069e573d6000803e3d6000fd5b50505050505050565b60025481565b6000600460009054906101000a900473ffffffffffffffffffffffffffffffffffffffff1673ffffffffffffffffffffffffffffffffffffffff1663d4d81032836040518263ffffffff1660e01b81526004016200070c919062000d95565b602060405180830381865afa1580156200072a573d6000803e3d6000fd5b505050506040513d601f19601f820116820180604052508101906200075091906200129b565b905060006200075f8262000387565b9050600460009054906101000a900473ffffffffffffffffffffffffffffffffffffffff1673ffffffffffffffffffffffffffffffffffffffff1663a06fc90b84836040518363ffffffff1660e01b8152600401620007c09291906200143e565b600060405180830381600087803b158015620007db57600080fd5b505af1158015620007f0573d6000803e3d6000fd5b50505050505050565b600083838360008054906101000a900473ffffffffffffffffffffffffffffffffffffffff16600160009054906101000a900473ffffffffffffffffffffffffffffffffffffffff16604051620008509062000d0a565b62000860959493929190620014e3565b604051809103906000f0801580156200087d573d6000803e3d6000fd5b50905080600560006101000a81548173ffffffffffffffffffffffffffffffffffffffff021916908373ffffffffffffffffffffffffffffffffffffffff16021790555050505050565b6000620008de8284620008e690919063ffffffff16565b905092915050565b6000806000620008f7858562000911565b9150915062000906816200099a565b819250505092915050565b6000806041835103620009565760008060006020860151925060408601519150606086015160001a9050620009498782858562000b91565b9450945050505062000993565b60408351036200098a5760008060208501519150604085015190506200097e86838362000ca7565b93509350505062000993565b60006002915091505b9250929050565b60006004811115620009b157620009b06200154e565b5b816004811115620009c757620009c66200154e565b5b031562000b8e5760016004811115620009e557620009e46200154e565b5b816004811115620009fb57620009fa6200154e565b5b0362000a3e576040517f08c379a000000000000000000000000000000000000000000000000000000000815260040162000a3590620015cd565b60405180910390fd5b6002600481111562000a555762000a546200154e565b5b81600481111562000a6b5762000a6a6200154e565b5b0362000aae576040517f08c379a000000000000000000000000000000000000000000000000000000000815260040162000aa5906200163f565b60405180910390fd5b6003600481111562000ac55762000ac46200154e565b5b81600481111562000adb5762000ada6200154e565b5b0362000b1e576040517f08c379a000000000000000000000000000000000000000000000000000000000815260040162000b1590620016d7565b60405180910390fd5b60048081111562000b345762000b336200154e565b5b81600481111562000b4a5762000b496200154e565b5b0362000b8d576040517f08c379a000000000000000000000000000000000000000000000000000000000815260040162000b84906200176f565b60405180910390fd5b5b50565b6000807f7fffffffffffffffffffffffffffffff5d576e7357a4501ddfe92f46681b20a08360001c111562000bce57600060039150915062000c9e565b601b8560ff161415801562000be75750601c8560ff1614155b1562000bfb57600060049150915062000c9e565b60006001878787876040516000815260200160405260405162000c229493929190620017af565b6020604051602081039080840390855afa15801562000c45573d6000803e3d6000fd5b505050602060405103519050600073ffffffffffffffffffffffffffffffffffffffff168173ffffffffffffffffffffffffffffffffffffffff160362000c955760006001925092505062000c9e565b80600092509250505b94509492505050565b60008060007f7fffffffffffffffffffffffffffffffffffffffffffffffffffffffffffffff60001b841690506000601b60ff8660001c901c62000cec91906200182b565b905062000cfc8782888562000b91565b935093505050935093915050565b6152f3806200186783390190565b600073ffffffffffffffffffffffffffffffffffffffff82169050919050565b600062000d458262000d18565b9050919050565b62000d578162000d38565b82525050565b600060208201905062000d74600083018462000d4c565b92915050565b6000819050919050565b62000d8f8162000d7a565b82525050565b600060208201905062000dac600083018462000d84565b92915050565b6000604051905090565b600080fd5b600080fd5b62000dd18162000d7a565b811462000ddd57600080fd5b50565b60008135905062000df18162000dc6565b92915050565b60006020828403121562000e105762000e0f62000dbc565b5b600062000e208482850162000de0565b91505092915050565b6000819050919050565b62000e3e8162000e29565b811462000e4a57600080fd5b50565b60008135905062000e5e8162000e33565b92915050565b600080fd5b600080fd5b6000601f19601f8301169050919050565b7f4e487b7100000000000000000000000000000000000000000000000000000000600052604160045260246000fd5b62000eb98262000e6e565b810181811067ffffffffffffffff8211171562000edb5762000eda62000e7f565b5b80604052505050565b600062000ef062000db2565b905062000efe828262000eae565b919050565b600067ffffffffffffffff82111562000f215762000f2062000e7f565b5b62000f2c8262000e6e565b9050602081019050919050565b82818337600083830152505050565b600062000f5f62000f598462000f03565b62000ee4565b90508281526020810184848401111562000f7e5762000f7d62000e69565b5b62000f8b84828562000f39565b509392505050565b600082601f83011262000fab5762000faa62000e64565b5b813562000fbd84826020860162000f48565b91505092915050565b6000806040838503121562000fe05762000fdf62000dbc565b5b600062000ff08582860162000e4d565b925050602083013567ffffffffffffffff81111562001014576200101362000dc1565b5b620010228582860162000f93565b9150509250929050565b60008115159050919050565b62001043816200102c565b82525050565b600060208201905062001060600083018462001038565b92915050565b6000806040838503121562001080576200107f62000dbc565b5b6000620010908582860162000de0565b9250506020620010a38582860162000e4d565b9150509250929050565b600080600060608486031215620010c957620010c862000dbc565b5b6000620010d98682870162000de0565b9350506020620010ec8682870162000de0565b9250506040620010ff8682870162000e4d565b9150509250925092565b600067ffffffffffffffff82111562001127576200112662000e7f565b5b620011328262000e6e565b9050602081019050919050565b600062001156620011508462001109565b62000ee4565b90508281526020810184848401111562001175576200117462000e69565b5b6200118284828562000f39565b509392505050565b600082601f830112620011a257620011a162000e64565b5b8135620011b48482602086016200113f565b91505092915050565b600080600060608486031215620011d957620011d862000dbc565b5b600084013567ffffffffffffffff811115620011fa57620011f962000dc1565b5b62001208868287016200118a565b935050602084013567ffffffffffffffff8111156200122c576200122b62000dc1565b5b6200123a868287016200118a565b92505060406200124d8682870162000de0565b9150509250925092565b60006040820190506200126e600083018562000d4c565b6200127d602083018462000d84565b9392505050565b600081519050620012958162000dc6565b92915050565b600060208284031215620012b457620012b362000dbc565b5b6000620012c48482850162001284565b91505092915050565b620012d88162000d38565b8114620012e457600080fd5b50565b600081519050620012f881620012cd565b92915050565b60006020828403121562001317576200131662000dbc565b5b60006200132784828501620012e7565b91505092915050565b600082825260208201905092915050565b7f496e76616c6964207369676e6174757265000000000000000000000000000000600082015250565b60006200137960118362001330565b9150620013868262001341565b602082019050919050565b60006020820190508181036000830152620013ac816200136a565b9050919050565b620013be8162000e29565b82525050565b6000604082019050620013db600083018562000d84565b620013ea6020830184620013b3565b9392505050565b600060808201905062001408600083018762000d84565b62001417602083018662000d84565b62001426604083018562000d84565b620014356060830184620013b3565b95945050505050565b600060408201905062001455600083018562000d84565b62001464602083018462000d84565b9392505050565b600081519050919050565b60005b838110156200149657808201518184015260208101905062001479565b60008484015250505050565b6000620014af826200146b565b620014bb818562001330565b9350620014cd81856020860162001476565b620014d88162000e6e565b840191505092915050565b600060a0820190508181036000830152620014ff8188620014a2565b90508181036020830152620015158187620014a2565b905062001526604083018662000d84565b62001535606083018562000d4c565b62001544608083018462000d4c565b9695505050505050565b7f4e487b7100000000000000000000000000000000000000000000000000000000600052602160045260246000fd5b7f45434453413a20696e76616c6964207369676e61747572650000000000000000600082015250565b6000620015b560188362001330565b9150620015c2826200157d565b602082019050919050565b60006020820190508181036000830152620015e881620015a6565b9050919050565b7f45434453413a20696e76616c6964207369676e6174757265206c656e67746800600082015250565b600062001627601f8362001330565b91506200163482620015ef565b602082019050919050565b600060208201905081810360008301526200165a8162001618565b9050919050565b7f45434453413a20696e76616c6964207369676e6174757265202773272076616c60008201527f7565000000000000000000000000000000000000000000000000000000000000602082015250565b6000620016bf60228362001330565b9150620016cc8262001661565b604082019050919050565b60006020820190508181036000830152620016f281620016b0565b9050919050565b7f45434453413a20696e76616c6964207369676e6174757265202776272076616c60008201527f7565000000000000000000000000000000000000000000000000000000000000602082015250565b60006200175760228362001330565b91506200176482620016f9565b604082019050919050565b600060208201905081810360008301526200178a8162001748565b9050919050565b600060ff82169050919050565b620017a98162001791565b82525050565b6000608082019050620017c66000830187620013b3565b620017d560208301866200179e565b620017e46040830185620013b3565b620017f36060830184620013b3565b95945050505050565b7f4e487b7100000000000000000000000000000000000000000000000000000000600052601160045260246000fd5b6000620018388262000d7a565b9150620018458362000d7a565b925082820190508082111562001860576200185f620017fc565b5b9291505056fe60806040526000600e60006101000a81548160ff0219169083151502179055503480156200002c57600080fd5b50604051620052f3380380620052f38339818101604052810190620000529190620004ed565b8484848383838160009081620000699190620007f4565b5080600190816200007b9190620007f4565b5050506200009e62000092620001df60201b60201c565b620001e760201b60201c565b620000ae620002ad60201b60201c565b600d8190555081600c8190555080600f60006101000a81548173ffffffffffffffffffffffffffffffffffffffff021916908373ffffffffffffffffffffffffffffffffffffffff160217905550600f60009054906101000a900473ffffffffffffffffffffffffffffffffffffffff1673ffffffffffffffffffffffffffffffffffffffff166307604b1a6040518163ffffffff1660e01b8152600401602060405180830381865afa1580156200016a573d6000803e3d6000fd5b505050506040513d601f19601f82011682018060405250810190620001909190620008db565b600e60016101000a81548173ffffffffffffffffffffffffffffffffffffffff021916908373ffffffffffffffffffffffffffffffffffffffff1602179055505050505050505050506200090d565b600033905090565b6000600b60009054906101000a900473ffffffffffffffffffffffffffffffffffffffff16905081600b60006101000a81548173ffffffffffffffffffffffffffffffffffffffff021916908373ffffffffffffffffffffffffffffffffffffffff1602179055508173ffffffffffffffffffffffffffffffffffffffff168173ffffffffffffffffffffffffffffffffffffffff167f8be0079c531659141344cd1fd0a4f28419497f9722a3daafe3b4186f6b6457e060405160405180910390a35050565b6000600880549050905090565b6000604051905090565b600080fd5b600080fd5b600080fd5b600080fd5b6000601f19601f8301169050919050565b7f4e487b7100000000000000000000000000000000000000000000000000000000600052604160045260246000fd5b6200032382620002d8565b810181811067ffffffffffffffff82111715620003455762000344620002e9565b5b80604052505050565b60006200035a620002ba565b905062000368828262000318565b919050565b600067ffffffffffffffff8211156200038b576200038a620002e9565b5b6200039682620002d8565b9050602081019050919050565b60005b83811015620003c3578082015181840152602081019050620003a6565b60008484015250505050565b6000620003e6620003e0846200036d565b6200034e565b905082815260208101848484011115620004055762000404620002d3565b5b62000412848285620003a3565b509392505050565b600082601f830112620004325762000431620002ce565b5b815162000444848260208601620003cf565b91505092915050565b6000819050919050565b62000462816200044d565b81146200046e57600080fd5b50565b600081519050620004828162000457565b92915050565b600073ffffffffffffffffffffffffffffffffffffffff82169050919050565b6000620004b58262000488565b9050919050565b620004c781620004a8565b8114620004d357600080fd5b50565b600081519050620004e781620004bc565b92915050565b600080600080600060a086880312156200050c576200050b620002c4565b5b600086015167ffffffffffffffff8111156200052d576200052c620002c9565b5b6200053b888289016200041a565b955050602086015167ffffffffffffffff8111156200055f576200055e620002c9565b5b6200056d888289016200041a565b9450506040620005808882890162000471565b93505060606200059388828901620004d6565b9250506080620005a688828901620004d6565b9150509295509295909350565b600081519050919050565b7f4e487b7100000000000000000000000000000000000000000000000000000000600052602260045260246000fd5b600060028204905060018216806200060657607f821691505b6020821081036200061c576200061b620005be565b5b50919050565b60008190508160005260206000209050919050565b60006020601f8301049050919050565b600082821b905092915050565b600060088302620006867fffffffffffffffffffffffffffffffffffffffffffffffffffffffffffffffff8262000647565b62000692868362000647565b95508019841693508086168417925050509392505050565b6000819050919050565b6000620006d5620006cf620006c9846200044d565b620006aa565b6200044d565b9050919050565b6000819050919050565b620006f183620006b4565b620007096200070082620006dc565b84845462000654565b825550505050565b600090565b6200072062000711565b6200072d818484620006e6565b505050565b5b8181101562000755576200074960008262000716565b60018101905062000733565b5050565b601f821115620007a4576200076e8162000622565b620007798462000637565b8101602085101562000789578190505b620007a1620007988562000637565b83018262000732565b50505b505050565b600082821c905092915050565b6000620007c960001984600802620007a9565b1980831691505092915050565b6000620007e48383620007b6565b9150826002028217905092915050565b620007ff82620005b3565b67ffffffffffffffff8111156200081b576200081a620002e9565b5b620008278254620005ed565b6200083482828562000759565b600060209050601f8311600181146200086c576000841562000857578287015190505b620008638582620007d6565b865550620008d3565b601f1984166200087c8662000622565b60005b82811015620008a6578489015182556001820191506020850194506020810190506200087f565b86831015620008c65784890151620008c2601f891682620007b6565b8355505b6001600288020188555050505b505050505050565b600060208284031215620008f457620008f3620002c4565b5b60006200090484828501620004d6565b91505092915050565b6149d6806200091d6000396000f3fe6080604052600436106101c25760003560e01c806371ebbef4116100f7578063a22cb46511610095578063eb8d244411610064578063eb8d244414610631578063eedc76541461065c578063f23c958314610685578063f2fde38b146106a1576101c2565b8063a22cb46514610565578063b88d4fde1461058e578063c87b56dd146105b7578063e985e9c5146105f4576101c2565b80639202c1ec116100d15780639202c1ec146104cc57806395d89b41146104f557806395f04d0514610520578063a0e12efe1461053c576101c2565b806371ebbef41461044b5780637a3a4a61146104765780638da5cb5b146104a1576101c2565b806334918dfd116101645780634f6ccce71161013e5780634f6ccce71461037d5780636352211e146103ba57806370a08231146103f7578063715018a614610434576101c2565b806334918dfd146103265780633ccfd60b1461033d57806342842e0e14610354576101c2565b8063095ea7b3116101a0578063095ea7b31461026c57806318160ddd1461029557806323b872dd146102c05780632f745c59146102e9576101c2565b806301ffc9a7146101c757806306fdde0314610204578063081812fc1461022f575b600080fd5b3480156101d357600080fd5b506101ee60048036038101906101e99190612c32565b6106ca565b6040516101fb9190612c7a565b60405180910390f35b34801561021057600080fd5b506102196106dc565b6040516102269190612d25565b60405180910390f35b34801561023b57600080fd5b5061025660048036038101906102519190612d7d565b61076e565b6040516102639190612deb565b60405180910390f35b34801561027857600080fd5b50610293600480360381019061028e9190612e32565b6107f3565b005b3480156102a157600080fd5b506102aa61090a565b6040516102b79190612e81565b60405180910390f35b3480156102cc57600080fd5b506102e760048036038101906102e29190612e9c565b610917565b005b3480156102f557600080fd5b50610310600480360381019061030b9190612e32565b610977565b60405161031d9190612e81565b60405180910390f35b34801561033257600080fd5b5061033b610a1c565b005b34801561034957600080fd5b50610352610ac4565b005b34801561036057600080fd5b5061037b60048036038101906103769190612e9c565b610bd2565b005b34801561038957600080fd5b506103a4600480360381019061039f9190612d7d565b610bf2565b6040516103b19190612e81565b60405180910390f35b3480156103c657600080fd5b506103e160048036038101906103dc9190612d7d565b610c63565b6040516103ee9190612deb565b60405180910390f35b34801561040357600080fd5b5061041e60048036038101906104199190612eef565b610d14565b60405161042b9190612e81565b60405180910390f35b34801561044057600080fd5b50610449610dcb565b005b34801561045757600080fd5b50610460610e53565b60405161046d9190612e81565b60405180910390f35b34801561048257600080fd5b5061048b610e59565b6040516104989190612e81565b60405180910390f35b3480156104ad57600080fd5b506104b6610e5f565b6040516104c39190612deb565b60405180910390f35b3480156104d857600080fd5b506104f360048036038101906104ee91906130f2565b610e89565b005b34801561050157600080fd5b5061050a610e99565b6040516105179190612d25565b60405180910390f35b61053a6004803603810190610535919061317d565b610f2b565b005b34801561054857600080fd5b50610563600480360381019061055e91906131c6565b6110a0565b005b34801561057157600080fd5b5061058c6004803603810190610587919061326a565b6110c6565b005b34801561059a57600080fd5b506105b560048036038101906105b091906132aa565b6110dc565b005b3480156105c357600080fd5b506105de60048036038101906105d99190612d7d565b61113e565b6040516105eb9190612d25565b60405180910390f35b34801561060057600080fd5b5061061b6004803603810190610616919061332d565b611150565b6040516106289190612c7a565b60405180910390f35b34801561063d57600080fd5b506106466111e4565b6040516106539190612c7a565b60405180910390f35b34801561066857600080fd5b50610683600480360381019061067e91906133a3565b6111f7565b005b61069f600480360381019061069a9190613456565b611310565b005b3480156106ad57600080fd5b506106c860048036038101906106c39190612eef565b611472565b005b60006106d582611569565b9050919050565b6060600080546106eb90613524565b80601f016020809104026020016040519081016040528092919081815260200182805461071790613524565b80156107645780601f1061073957610100808354040283529160200191610764565b820191906000526020600020905b81548152906001019060200180831161074757829003601f168201915b5050505050905090565b6000610779826115e3565b6107b8576040517f08c379a00000000000000000000000000000000000000000000000000000000081526004016107af906135c7565b60405180910390fd5b6004600083815260200190815260200160002060009054906101000a900473ffffffffffffffffffffffffffffffffffffffff169050919050565b60006107fe82610c63565b90508073ffffffffffffffffffffffffffffffffffffffff168373ffffffffffffffffffffffffffffffffffffffff160361086e576040517f08c379a000000000000000000000000000000000000000000000000000000000815260040161086590613659565b60405180910390fd5b8073ffffffffffffffffffffffffffffffffffffffff1661088d61164f565b73ffffffffffffffffffffffffffffffffffffffff1614806108bc57506108bb816108b661164f565b611150565b5b6108fb576040517f08c379a00000000000000000000000000000000000000000000000000000000081526004016108f2906136eb565b60405180910390fd5b6109058383611657565b505050565b6000600880549050905090565b61092861092261164f565b82611710565b610967576040517f08c379a000000000000000000000000000000000000000000000000000000000815260040161095e9061377d565b60405180910390fd5b6109728383836117ee565b505050565b600061098283610d14565b82106109c3576040517f08c379a00000000000000000000000000000000000000000000000000000000081526004016109ba9061380f565b60405180910390fd5b600660008473ffffffffffffffffffffffffffffffffffffffff1673ffffffffffffffffffffffffffffffffffffffff168152602001908152602001600020600083815260200190815260200160002054905092915050565b610a2461164f565b73ffffffffffffffffffffffffffffffffffffffff16610a42610e5f565b73ffffffffffffffffffffffffffffffffffffffff1614610a98576040517f08c379a0000000000000000000000000000000000000000000000000000000008152600401610a8f9061387b565b60405180910390fd5b600e60009054906101000a900460ff1615600e60006101000a81548160ff021916908315150217905550565b610acc61164f565b73ffffffffffffffffffffffffffffffffffffffff16610aea610e5f565b73ffffffffffffffffffffffffffffffffffffffff1614610b40576040517f08c379a0000000000000000000000000000000000000000000000000000000008152600401610b379061387b565b60405180910390fd5b600047905060004711610b88576040517f08c379a0000000000000000000000000000000000000000000000000000000008152600401610b7f906138e7565b60405180910390fd5b3373ffffffffffffffffffffffffffffffffffffffff166108fc829081150290604051600060405180830381858888f19350505050158015610bce573d6000803e3d6000fd5b5050565b610bed838383604051806020016040528060008152506110dc565b505050565b6000610bfc61090a565b8210610c3d576040517f08c379a0000000000000000000000000000000000000000000000000000000008152600401610c3490613979565b60405180910390fd5b60088281548110610c5157610c50613999565b5b90600052602060002001549050919050565b6000806002600084815260200190815260200160002060009054906101000a900473ffffffffffffffffffffffffffffffffffffffff169050600073ffffffffffffffffffffffffffffffffffffffff168173ffffffffffffffffffffffffffffffffffffffff1603610d0b576040517f08c379a0000000000000000000000000000000000000000000000000000000008152600401610d0290613a3a565b60405180910390fd5b80915050919050565b60008073ffffffffffffffffffffffffffffffffffffffff168273ffffffffffffffffffffffffffffffffffffffff1603610d84576040517f08c379a0000000000000000000000000000000000000000000000000000000008152600401610d7b90613acc565b60405180910390fd5b600360008373ffffffffffffffffffffffffffffffffffffffff1673ffffffffffffffffffffffffffffffffffffffff168152602001908152602001600020549050919050565b610dd361164f565b73ffffffffffffffffffffffffffffffffffffffff16610df1610e5f565b73ffffffffffffffffffffffffffffffffffffffff1614610e47576040517f08c379a0000000000000000000000000000000000000000000000000000000008152600401610e3e9061387b565b60405180910390fd5b610e516000611a54565b565b600c5481565b600d5481565b6000600b60009054906101000a900473ffffffffffffffffffffffffffffffffffffffff16905090565b610e94838383611b1a565b505050565b606060018054610ea890613524565b80601f0160208091040260200160405190810160405280929190818152602001828054610ed490613524565b8015610f215780601f10610ef657610100808354040283529160200191610f21565b820191906000526020600020905b815481529060010190602001808311610f0457829003601f168201915b5050505050905090565b600e60009054906101000a900460ff16610f7a576040517f08c379a0000000000000000000000000000000000000000000000000000000008152600401610f7190613b38565b60405180910390fd5b600c54610f8561090a565b10610fc5576040517f08c379a0000000000000000000000000000000000000000000000000000000008152600401610fbc90613ba4565b60405180910390fd5b610ff8600e60019054906101000a900473ffffffffffffffffffffffffffffffffffffffff16610ff361090a565b611c82565b61100961100361090a565b82611ca0565b600f60009054906101000a900473ffffffffffffffffffffffffffffffffffffffff1673ffffffffffffffffffffffffffffffffffffffff1663347518a861104f61090a565b6040518263ffffffff1660e01b815260040161106b9190612e81565b600060405180830381600087803b15801561108557600080fd5b505af1158015611099573d6000803e3d6000fd5b5050505050565b60006110aa61090a565b90506110b63382611c82565b6110c1818484611b1a565b505050565b6110d86110d161164f565b8383611d0d565b5050565b6110ed6110e761164f565b83611710565b61112c576040517f08c379a00000000000000000000000000000000000000000000000000000000081526004016111239061377d565b60405180910390fd5b61113884848484611e79565b50505050565b606061114982611ed5565b9050919050565b6000600560008473ffffffffffffffffffffffffffffffffffffffff1673ffffffffffffffffffffffffffffffffffffffff16815260200190815260200160002060008373ffffffffffffffffffffffffffffffffffffffff1673ffffffffffffffffffffffffffffffffffffffff16815260200190815260200160002060009054906101000a900460ff16905092915050565b600e60009054906101000a900460ff1681565b61120085610c63565b73ffffffffffffffffffffffffffffffffffffffff163373ffffffffffffffffffffffffffffffffffffffff161461126d576040517f08c379a000000000000000000000000000000000000000000000000000000000815260040161126490613c10565b60405180910390fd5b600f60009054906101000a900473ffffffffffffffffffffffffffffffffffffffff1673ffffffffffffffffffffffffffffffffffffffff1663911da0628685876040518463ffffffff1660e01b81526004016112cc93929190613c3f565b600060405180830381600087803b1580156112e657600080fd5b505af11580156112fa573d6000803e3d6000fd5b50505050611309858383611b1a565b5050505050565b61131984610c63565b73ffffffffffffffffffffffffffffffffffffffff163373ffffffffffffffffffffffffffffffffffffffff1614611386576040517f08c379a000000000000000000000000000000000000000000000000000000000815260040161137d90613c10565b60405180910390fd5b600c5461139161090a565b10156113d2576040517f08c379a00000000000000000000000000000000000000000000000000000000081526004016113c990613cc2565b60405180910390fd5b600f60009054906101000a900473ffffffffffffffffffffffffffffffffffffffff1673ffffffffffffffffffffffffffffffffffffffff166386d3d87185856040518363ffffffff1660e01b815260040161142f929190613ce2565b600060405180830381600087803b15801561144957600080fd5b505af115801561145d573d6000803e3d6000fd5b5050505061146c848383611b1a565b50505050565b61147a61164f565b73ffffffffffffffffffffffffffffffffffffffff16611498610e5f565b73ffffffffffffffffffffffffffffffffffffffff16146114ee576040517f08c379a00000000000000000000000000000000000000000000000000000000081526004016114e59061387b565b60405180910390fd5b600073ffffffffffffffffffffffffffffffffffffffff168173ffffffffffffffffffffffffffffffffffffffff160361155d576040517f08c379a000000000000000000000000000000000000000000000000000000000815260040161155490613d7d565b60405180910390fd5b61156681611a54565b50565b60007f780e9d63000000000000000000000000000000000000000000000000000000007bffffffffffffffffffffffffffffffffffffffffffffffffffffffff1916827bffffffffffffffffffffffffffffffffffffffffffffffffffffffff191614806115dc57506115db82612026565b5b9050919050565b60008073ffffffffffffffffffffffffffffffffffffffff166002600084815260200190815260200160002060009054906101000a900473ffffffffffffffffffffffffffffffffffffffff1673ffffffffffffffffffffffffffffffffffffffff1614159050919050565b600033905090565b816004600083815260200190815260200160002060006101000a81548173ffffffffffffffffffffffffffffffffffffffff021916908373ffffffffffffffffffffffffffffffffffffffff160217905550808273ffffffffffffffffffffffffffffffffffffffff166116ca83610c63565b73ffffffffffffffffffffffffffffffffffffffff167f8c5be1e5ebec7d5bd14f71427d1e84f3dd0314c0f7b2291e5b200ac8c7c3b92560405160405180910390a45050565b600061171b826115e3565b61175a576040517f08c379a000000000000000000000000000000000000000000000000000000000815260040161175190613e0f565b60405180910390fd5b600061176583610c63565b90508073ffffffffffffffffffffffffffffffffffffffff168473ffffffffffffffffffffffffffffffffffffffff1614806117a757506117a68185611150565b5b806117e557508373ffffffffffffffffffffffffffffffffffffffff166117cd8461076e565b73ffffffffffffffffffffffffffffffffffffffff16145b91505092915050565b8273ffffffffffffffffffffffffffffffffffffffff1661180e82610c63565b73ffffffffffffffffffffffffffffffffffffffff1614611864576040517f08c379a000000000000000000000000000000000000000000000000000000000815260040161185b90613ea1565b60405180910390fd5b600073ffffffffffffffffffffffffffffffffffffffff168273ffffffffffffffffffffffffffffffffffffffff16036118d3576040517f08c379a00000000000000000000000000000000000000000000000000000000081526004016118ca90613f33565b60405180910390fd5b6118de838383612108565b6118e9600082611657565b6001600360008573ffffffffffffffffffffffffffffffffffffffff1673ffffffffffffffffffffffffffffffffffffffff16815260200190815260200160002060008282546119399190613f82565b925050819055506001600360008473ffffffffffffffffffffffffffffffffffffffff1673ffffffffffffffffffffffffffffffffffffffff16815260200190815260200160002060008282546119909190613fb6565b92505081905550816002600083815260200190815260200160002060006101000a81548173ffffffffffffffffffffffffffffffffffffffff021916908373ffffffffffffffffffffffffffffffffffffffff160217905550808273ffffffffffffffffffffffffffffffffffffffff168473ffffffffffffffffffffffffffffffffffffffff167fddf252ad1be2c89b69c2b068fc378daa952ba7f163c4a11628f55a4df523b3ef60405160405180910390a4611a4f838383612118565b505050565b6000600b60009054906101000a900473ffffffffffffffffffffffffffffffffffffffff16905081600b60006101000a81548173ffffffffffffffffffffffffffffffffffffffff021916908373ffffffffffffffffffffffffffffffffffffffff1602179055508173ffffffffffffffffffffffffffffffffffffffff168173ffffffffffffffffffffffffffffffffffffffff167f8be0079c531659141344cd1fd0a4f28419497f9722a3daafe3b4186f6b6457e060405160405180910390a35050565b611b2b611b2561164f565b84611710565b611b6a576040517f08c379a0000000000000000000000000000000000000000000000000000000008152600401611b6190614036565b60405180910390fd5b600082604051602001611b7d9190614092565b604051602081830303815290604052805190602001209050600f60009054906101000a900473ffffffffffffffffffffffffffffffffffffffff1673ffffffffffffffffffffffffffffffffffffffff16637fcacc0e82846040518363ffffffff1660e01b8152600401611bf29291906140fe565b602060405180830381865afa158015611c0f573d6000803e3d6000fd5b505050506040513d601f19601f82011682018060405250810190611c339190614143565b611c72576040517f08c379a0000000000000000000000000000000000000000000000000000000008152600401611c69906141bc565b60405180910390fd5b611c7c8484611ca0565b50505050565b611c9c82826040518060200160405280600081525061211d565b5050565b611ca9826115e3565b611ce8576040517f08c379a0000000000000000000000000000000000000000000000000000000008152600401611cdf9061424e565b60405180910390fd5b80600a60008481526020019081526020016000209081611d08919061441a565b505050565b8173ffffffffffffffffffffffffffffffffffffffff168373ffffffffffffffffffffffffffffffffffffffff1603611d7b576040517f08c379a0000000000000000000000000000000000000000000000000000000008152600401611d7290614538565b60405180910390fd5b80600560008573ffffffffffffffffffffffffffffffffffffffff1673ffffffffffffffffffffffffffffffffffffffff16815260200190815260200160002060008473ffffffffffffffffffffffffffffffffffffffff1673ffffffffffffffffffffffffffffffffffffffff16815260200190815260200160002060006101000a81548160ff0219169083151502179055508173ffffffffffffffffffffffffffffffffffffffff168373ffffffffffffffffffffffffffffffffffffffff167f17307eab39ab6107e8899845ad3d59bd9653f200f220920489ca2b5937696c3183604051611e6c9190612c7a565b60405180910390a3505050565b611e848484846117ee565b611e9084848484612178565b611ecf576040517f08c379a0000000000000000000000000000000000000000000000000000000008152600401611ec6906145ca565b60405180910390fd5b50505050565b6060611ee0826115e3565b611f1f576040517f08c379a0000000000000000000000000000000000000000000000000000000008152600401611f169061465c565b60405180910390fd5b6000600a60008481526020019081526020016000208054611f3f90613524565b80601f0160208091040260200160405190810160405280929190818152602001828054611f6b90613524565b8015611fb85780601f10611f8d57610100808354040283529160200191611fb8565b820191906000526020600020905b815481529060010190602001808311611f9b57829003601f168201915b505050505090506000611fc96122ff565b90506000815103611fde578192505050612021565b600082511115612013578082604051602001611ffb92919061467c565b60405160208183030381529060405292505050612021565b61201c8461233c565b925050505b919050565b60007f80ac58cd000000000000000000000000000000000000000000000000000000007bffffffffffffffffffffffffffffffffffffffffffffffffffffffff1916827bffffffffffffffffffffffffffffffffffffffffffffffffffffffff191614806120f157507f5b5e139f000000000000000000000000000000000000000000000000000000007bffffffffffffffffffffffffffffffffffffffffffffffffffffffff1916827bffffffffffffffffffffffffffffffffffffffffffffffffffffffff1916145b806121015750612100826123e3565b5b9050919050565b61211383838361244d565b505050565b505050565b612127838361255f565b6121346000848484612178565b612173576040517f08c379a000000000000000000000000000000000000000000000000000000000815260040161216a906145ca565b60405180910390fd5b505050565b60006121998473ffffffffffffffffffffffffffffffffffffffff16612738565b156122f2578373ffffffffffffffffffffffffffffffffffffffff1663150b7a026121c261164f565b8786866040518563ffffffff1660e01b81526004016121e494939291906146a0565b6020604051808303816000875af192505050801561222057506040513d601f19601f8201168201806040525081019061221d9190614701565b60015b6122a2573d8060008114612250576040519150601f19603f3d011682016040523d82523d6000602084013e612255565b606091505b50600081510361229a576040517f08c379a0000000000000000000000000000000000000000000000000000000008152600401612291906145ca565b60405180910390fd5b805181602001fd5b63150b7a0260e01b7bffffffffffffffffffffffffffffffffffffffffffffffffffffffff1916817bffffffffffffffffffffffffffffffffffffffffffffffffffffffff1916149150506122f7565b600190505b949350505050565b60606040518060400160405280601581526020017f68747470733a2f2f697066732e696f2f697066732f0000000000000000000000815250905090565b6060612347826115e3565b612386576040517f08c379a000000000000000000000000000000000000000000000000000000000815260040161237d906147a0565b60405180910390fd5b60006123906122ff565b905060008151116123b057604051806020016040528060008152506123db565b806123ba8461275b565b6040516020016123cb92919061467c565b6040516020818303038152906040525b915050919050565b60007f01ffc9a7000000000000000000000000000000000000000000000000000000007bffffffffffffffffffffffffffffffffffffffffffffffffffffffff1916827bffffffffffffffffffffffffffffffffffffffffffffffffffffffff1916149050919050565b6124588383836128bb565b600073ffffffffffffffffffffffffffffffffffffffff168373ffffffffffffffffffffffffffffffffffffffff160361249a57612495816128c0565b6124d9565b8173ffffffffffffffffffffffffffffffffffffffff168373ffffffffffffffffffffffffffffffffffffffff16146124d8576124d78382612909565b5b5b600073ffffffffffffffffffffffffffffffffffffffff168273ffffffffffffffffffffffffffffffffffffffff160361251b5761251681612a76565b61255a565b8273ffffffffffffffffffffffffffffffffffffffff168273ffffffffffffffffffffffffffffffffffffffff1614612559576125588282612b47565b5b5b505050565b600073ffffffffffffffffffffffffffffffffffffffff168273ffffffffffffffffffffffffffffffffffffffff16036125ce576040517f08c379a00000000000000000000000000000000000000000000000000000000081526004016125c59061480c565b60405180910390fd5b6125d7816115e3565b15612617576040517f08c379a000000000000000000000000000000000000000000000000000000000815260040161260e90614878565b60405180910390fd5b61262360008383612108565b6001600360008473ffffffffffffffffffffffffffffffffffffffff1673ffffffffffffffffffffffffffffffffffffffff16815260200190815260200160002060008282546126739190613fb6565b92505081905550816002600083815260200190815260200160002060006101000a81548173ffffffffffffffffffffffffffffffffffffffff021916908373ffffffffffffffffffffffffffffffffffffffff160217905550808273ffffffffffffffffffffffffffffffffffffffff16600073ffffffffffffffffffffffffffffffffffffffff167fddf252ad1be2c89b69c2b068fc378daa952ba7f163c4a11628f55a4df523b3ef60405160405180910390a461273460008383612118565b5050565b6000808273ffffffffffffffffffffffffffffffffffffffff163b119050919050565b6060600082036127a2576040518060400160405280600181526020017f300000000000000000000000000000000000000000000000000000000000000081525090506128b6565b600082905060005b600082146127d45780806127bd90614898565b915050600a826127cd919061490f565b91506127aa565b60008167ffffffffffffffff8111156127f0576127ef612f26565b5b6040519080825280601f01601f1916602001820160405280156128225781602001600182028036833780820191505090505b5090505b600085146128af5760018261283b9190613f82565b9150600a8561284a9190614940565b60306128569190613fb6565b60f81b81838151811061286c5761286b613999565b5b60200101907effffffffffffffffffffffffffffffffffffffffffffffffffffffffffffff1916908160001a905350600a856128a8919061490f565b9450612826565b8093505050505b919050565b505050565b6008805490506009600083815260200190815260200160002081905550600881908060018154018082558091505060019003906000526020600020016000909190919091505550565b6000600161291684610d14565b6129209190613f82565b9050600060076000848152602001908152602001600020549050818114612a05576000600660008673ffffffffffffffffffffffffffffffffffffffff1673ffffffffffffffffffffffffffffffffffffffff168152602001908152602001600020600084815260200190815260200160002054905080600660008773ffffffffffffffffffffffffffffffffffffffff1673ffffffffffffffffffffffffffffffffffffffff168152602001908152602001600020600084815260200190815260200160002081905550816007600083815260200190815260200160002081905550505b6007600084815260200190815260200160002060009055600660008573ffffffffffffffffffffffffffffffffffffffff1673ffffffffffffffffffffffffffffffffffffffff16815260200190815260200160002060008381526020019081526020016000206000905550505050565b60006001600880549050612a8a9190613f82565b9050600060096000848152602001908152602001600020549050600060088381548110612aba57612ab9613999565b5b906000526020600020015490508060088381548110612adc57612adb613999565b5b906000526020600020018190555081600960008381526020019081526020016000208190555060096000858152602001908152602001600020600090556008805480612b2b57612b2a614971565b5b6001900381819060005260206000200160009055905550505050565b6000612b5283610d14565b905081600660008573ffffffffffffffffffffffffffffffffffffffff1673ffffffffffffffffffffffffffffffffffffffff168152602001908152602001600020600083815260200190815260200160002081905550806007600084815260200190815260200160002081905550505050565b6000604051905090565b600080fd5b600080fd5b60007fffffffff0000000000000000000000000000000000000000000000000000000082169050919050565b612c0f81612bda565b8114612c1a57600080fd5b50565b600081359050612c2c81612c06565b92915050565b600060208284031215612c4857612c47612bd0565b5b6000612c5684828501612c1d565b91505092915050565b60008115159050919050565b612c7481612c5f565b82525050565b6000602082019050612c8f6000830184612c6b565b92915050565b600081519050919050565b600082825260208201905092915050565b60005b83811015612ccf578082015181840152602081019050612cb4565b60008484015250505050565b6000601f19601f8301169050919050565b6000612cf782612c95565b612d018185612ca0565b9350612d11818560208601612cb1565b612d1a81612cdb565b840191505092915050565b60006020820190508181036000830152612d3f8184612cec565b905092915050565b6000819050919050565b612d5a81612d47565b8114612d6557600080fd5b50565b600081359050612d7781612d51565b92915050565b600060208284031215612d9357612d92612bd0565b5b6000612da184828501612d68565b91505092915050565b600073ffffffffffffffffffffffffffffffffffffffff82169050919050565b6000612dd582612daa565b9050919050565b612de581612dca565b82525050565b6000602082019050612e006000830184612ddc565b92915050565b612e0f81612dca565b8114612e1a57600080fd5b50565b600081359050612e2c81612e06565b92915050565b60008060408385031215612e4957612e48612bd0565b5b6000612e5785828601612e1d565b9250506020612e6885828601612d68565b9150509250929050565b612e7b81612d47565b82525050565b6000602082019050612e966000830184612e72565b92915050565b600080600060608486031215612eb557612eb4612bd0565b5b6000612ec386828701612e1d565b9350506020612ed486828701612e1d565b9250506040612ee586828701612d68565b9150509250925092565b600060208284031215612f0557612f04612bd0565b5b6000612f1384828501612e1d565b91505092915050565b600080fd5b600080fd5b7f4e487b7100000000000000000000000000000000000000000000000000000000600052604160045260246000fd5b612f5e82612cdb565b810181811067ffffffffffffffff82111715612f7d57612f7c612f26565b5b80604052505050565b6000612f90612bc6565b9050612f9c8282612f55565b919050565b600067ffffffffffffffff821115612fbc57612fbb612f26565b5b612fc582612cdb565b9050602081019050919050565b82818337600083830152505050565b6000612ff4612fef84612fa1565b612f86565b9050828152602081018484840111156130105761300f612f21565b5b61301b848285612fd2565b509392505050565b600082601f83011261303857613037612f1c565b5b8135613048848260208601612fe1565b91505092915050565b600067ffffffffffffffff82111561306c5761306b612f26565b5b61307582612cdb565b9050602081019050919050565b600061309561309084613051565b612f86565b9050828152602081018484840111156130b1576130b0612f21565b5b6130bc848285612fd2565b509392505050565b600082601f8301126130d9576130d8612f1c565b5b81356130e9848260208601613082565b91505092915050565b60008060006060848603121561310b5761310a612bd0565b5b600061311986828701612d68565b935050602084013567ffffffffffffffff81111561313a57613139612bd5565b5b61314686828701613023565b925050604084013567ffffffffffffffff81111561316757613166612bd5565b5b613173868287016130c4565b9150509250925092565b60006020828403121561319357613192612bd0565b5b600082013567ffffffffffffffff8111156131b1576131b0612bd5565b5b6131bd84828501613023565b91505092915050565b600080604083850312156131dd576131dc612bd0565b5b600083013567ffffffffffffffff8111156131fb576131fa612bd5565b5b61320785828601613023565b925050602083013567ffffffffffffffff81111561322857613227612bd5565b5b613234858286016130c4565b9150509250929050565b61324781612c5f565b811461325257600080fd5b50565b6000813590506132648161323e565b92915050565b6000806040838503121561328157613280612bd0565b5b600061328f85828601612e1d565b92505060206132a085828601613255565b9150509250929050565b600080600080608085870312156132c4576132c3612bd0565b5b60006132d287828801612e1d565b94505060206132e387828801612e1d565b93505060406132f487828801612d68565b925050606085013567ffffffffffffffff81111561331557613314612bd5565b5b613321878288016130c4565b91505092959194509250565b6000806040838503121561334457613343612bd0565b5b600061335285828601612e1d565b925050602061336385828601612e1d565b9150509250929050565b6000819050919050565b6133808161336d565b811461338b57600080fd5b50565b60008135905061339d81613377565b92915050565b600080600080600060a086880312156133bf576133be612bd0565b5b60006133cd88828901612d68565b95505060206133de8882890161338e565b94505060406133ef88828901612d68565b935050606086013567ffffffffffffffff8111156134105761340f612bd5565b5b61341c88828901613023565b925050608086013567ffffffffffffffff81111561343d5761343c612bd5565b5b613449888289016130c4565b9150509295509295909350565b600080600080608085870312156134705761346f612bd0565b5b600061347e87828801612d68565b945050602061348f8782880161338e565b935050604085013567ffffffffffffffff8111156134b0576134af612bd5565b5b6134bc87828801613023565b925050606085013567ffffffffffffffff8111156134dd576134dc612bd5565b5b6134e9878288016130c4565b91505092959194509250565b7f4e487b7100000000000000000000000000000000000000000000000000000000600052602260045260246000fd5b6000600282049050600182168061353c57607f821691505b60208210810361354f5761354e6134f5565b5b50919050565b7f4552433732313a20617070726f76656420717565727920666f72206e6f6e657860008201527f697374656e7420746f6b656e0000000000000000000000000000000000000000602082015250565b60006135b1602c83612ca0565b91506135bc82613555565b604082019050919050565b600060208201905081810360008301526135e0816135a4565b9050919050565b7f4552433732313a20617070726f76616c20746f2063757272656e74206f776e6560008201527f7200000000000000000000000000000000000000000000000000000000000000602082015250565b6000613643602183612ca0565b915061364e826135e7565b604082019050919050565b6000602082019050818103600083015261367281613636565b9050919050565b7f4552433732313a20617070726f76652063616c6c6572206973206e6f74206f7760008201527f6e6572206e6f7220617070726f76656420666f7220616c6c0000000000000000602082015250565b60006136d5603883612ca0565b91506136e082613679565b604082019050919050565b60006020820190508181036000830152613704816136c8565b9050919050565b7f4552433732313a207472616e736665722063616c6c6572206973206e6f74206f60008201527f776e6572206e6f7220617070726f766564000000000000000000000000000000602082015250565b6000613767603183612ca0565b91506137728261370b565b604082019050919050565b600060208201905081810360008301526137968161375a565b9050919050565b7f455243373231456e756d657261626c653a206f776e657220696e646578206f7560008201527f74206f6620626f756e6473000000000000000000000000000000000000000000602082015250565b60006137f9602b83612ca0565b91506138048261379d565b604082019050919050565b60006020820190508181036000830152613828816137ec565b9050919050565b7f4f776e61626c653a2063616c6c6572206973206e6f7420746865206f776e6572600082015250565b6000613865602083612ca0565b91506138708261382f565b602082019050919050565b6000602082019050818103600083015261389481613858565b9050919050565b7f4e6f2062616c616e636520746f20776974686472617700000000000000000000600082015250565b60006138d1601683612ca0565b91506138dc8261389b565b602082019050919050565b60006020820190508181036000830152613900816138c4565b9050919050565b7f455243373231456e756d657261626c653a20676c6f62616c20696e646578206f60008201527f7574206f6620626f756e64730000000000000000000000000000000000000000602082015250565b6000613963602c83612ca0565b915061396e82613907565b604082019050919050565b6000602082019050818103600083015261399281613956565b9050919050565b7f4e487b7100000000000000000000000000000000000000000000000000000000600052603260045260246000fd5b7f4552433732313a206f776e657220717565727920666f72206e6f6e657869737460008201527f656e7420746f6b656e0000000000000000000000000000000000000000000000602082015250565b6000613a24602983612ca0565b9150613a2f826139c8565b604082019050919050565b60006020820190508181036000830152613a5381613a17565b9050919050565b7f4552433732313a2062616c616e636520717565727920666f7220746865207a6560008201527f726f206164647265737300000000000000000000000000000000000000000000602082015250565b6000613ab6602a83612ca0565b9150613ac182613a5a565b604082019050919050565b60006020820190508181036000830152613ae581613aa9565b9050919050565b7f53616c65206d7573742062652061637469766500000000000000000000000000600082015250565b6000613b22601383612ca0565b9150613b2d82613aec565b602082019050919050565b60006020820190508181036000830152613b5181613b15565b9050919050565b7f45786365656420696e697469616c20737570706c79206f66206e757473000000600082015250565b6000613b8e601d83612ca0565b9150613b9982613b58565b602082019050919050565b60006020820190508181036000830152613bbd81613b81565b9050919050565b7f43616c6c6572206973206e6f74206f776e6572206f66206e7574000000000000600082015250565b6000613bfa601a83612ca0565b9150613c0582613bc4565b602082019050919050565b60006020820190508181036000830152613c2981613bed565b9050919050565b613c398161336d565b82525050565b6000606082019050613c546000830186612e72565b613c616020830185612e72565b613c6e6040830184613c30565b949350505050565b7f4e757473207374696c6c2065786973742066726f6d206372656174696f6e0000600082015250565b6000613cac601e83612ca0565b9150613cb782613c76565b602082019050919050565b60006020820190508181036000830152613cdb81613c9f565b9050919050565b6000604082019050613cf76000830185612e72565b613d046020830184613c30565b9392505050565b7f4f776e61626c653a206e6577206f776e657220697320746865207a65726f206160008201527f6464726573730000000000000000000000000000000000000000000000000000602082015250565b6000613d67602683612ca0565b9150613d7282613d0b565b604082019050919050565b60006020820190508181036000830152613d9681613d5a565b9050919050565b7f4552433732313a206f70657261746f7220717565727920666f72206e6f6e657860008201527f697374656e7420746f6b656e0000000000000000000000000000000000000000602082015250565b6000613df9602c83612ca0565b9150613e0482613d9d565b604082019050919050565b60006020820190508181036000830152613e2881613dec565b9050919050565b7f4552433732313a207472616e736665722066726f6d20696e636f72726563742060008201527f6f776e6572000000000000000000000000000000000000000000000000000000602082015250565b6000613e8b602583612ca0565b9150613e9682613e2f565b604082019050919050565b60006020820190508181036000830152613eba81613e7e565b9050919050565b7f4552433732313a207472616e7366657220746f20746865207a65726f2061646460008201527f7265737300000000000000000000000000000000000000000000000000000000602082015250565b6000613f1d602483612ca0565b9150613f2882613ec1565b604082019050919050565b60006020820190508181036000830152613f4c81613f10565b9050919050565b7f4e487b7100000000000000000000000000000000000000000000000000000000600052601160045260246000fd5b6000613f8d82612d47565b9150613f9883612d47565b9250828203905081811115613fb057613faf613f53565b5b92915050565b6000613fc182612d47565b9150613fcc83612d47565b9250828201905080821115613fe457613fe3613f53565b5b92915050565b7f43616c6c6572206973206e6f74206f776e6572206e6f7220617070726f766564600082015250565b6000614020602083612ca0565b915061402b82613fea565b602082019050919050565b6000602082019050818103600083015261404f81614013565b9050919050565b600081905092915050565b600061406c82612c95565b6140768185614056565b9350614086818560208601612cb1565b80840191505092915050565b600061409e8284614061565b915081905092915050565b600081519050919050565b600082825260208201905092915050565b60006140d0826140a9565b6140da81856140b4565b93506140ea818560208601612cb1565b6140f381612cdb565b840191505092915050565b60006040820190506141136000830185613c30565b818103602083015261412581846140c5565b90509392505050565b60008151905061413d8161323e565b92915050565b60006020828403121561415957614158612bd0565b5b60006141678482850161412e565b91505092915050565b7f4461746120646f6573206e6f74206d61746368207369676e6174757265000000600082015250565b60006141a6601d83612ca0565b91506141b182614170565b602082019050919050565b600060208201905081810360008301526141d581614199565b9050919050565b7f45524337323155524953746f726167653a2055524920736574206f66206e6f6e60008201527f6578697374656e7420746f6b656e000000000000000000000000000000000000602082015250565b6000614238602e83612ca0565b9150614243826141dc565b604082019050919050565b600060208201905081810360008301526142678161422b565b9050919050565b60008190508160005260206000209050919050565b60006020601f8301049050919050565b600082821b905092915050565b6000600883026142d07fffffffffffffffffffffffffffffffffffffffffffffffffffffffffffffffff82614293565b6142da8683614293565b95508019841693508086168417925050509392505050565b6000819050919050565b600061431761431261430d84612d47565b6142f2565b612d47565b9050919050565b6000819050919050565b614331836142fc565b61434561433d8261431e565b8484546142a0565b825550505050565b600090565b61435a61434d565b614365818484614328565b505050565b5b818110156143895761437e600082614352565b60018101905061436b565b5050565b601f8211156143ce5761439f8161426e565b6143a884614283565b810160208510156143b7578190505b6143cb6143c385614283565b83018261436a565b50505b505050565b600082821c905092915050565b60006143f1600019846008026143d3565b1980831691505092915050565b600061440a83836143e0565b9150826002028217905092915050565b61442382612c95565b67ffffffffffffffff81111561443c5761443b612f26565b5b6144468254613524565b61445182828561438d565b600060209050601f8311600181146144845760008415614472578287015190505b61447c85826143fe565b8655506144e4565b601f1984166144928661426e565b60005b828110156144ba57848901518255600182019150602085019450602081019050614495565b868310156144d757848901516144d3601f8916826143e0565b8355505b6001600288020188555050505b505050505050565b7f4552433732313a20617070726f766520746f2063616c6c657200000000000000600082015250565b6000614522601983612ca0565b915061452d826144ec565b602082019050919050565b6000602082019050818103600083015261455181614515565b9050919050565b7f4552433732313a207472616e7366657220746f206e6f6e20455243373231526560008201527f63656976657220696d706c656d656e7465720000000000000000000000000000602082015250565b60006145b4603283612ca0565b91506145bf82614558565b604082019050919050565b600060208201905081810360008301526145e3816145a7565b9050919050565b7f45524337323155524953746f726167653a2055524920717565727920666f722060008201527f6e6f6e6578697374656e7420746f6b656e000000000000000000000000000000602082015250565b6000614646603183612ca0565b9150614651826145ea565b604082019050919050565b6000602082019050818103600083015261467581614639565b9050919050565b60006146888285614061565b91506146948284614061565b91508190509392505050565b60006080820190506146b56000830187612ddc565b6146c26020830186612ddc565b6146cf6040830185612e72565b81810360608301526146e181846140c5565b905095945050505050565b6000815190506146fb81612c06565b92915050565b60006020828403121561471757614716612bd0565b5b6000614725848285016146ec565b91505092915050565b7f4552433732314d657461646174613a2055524920717565727920666f72206e6f60008201527f6e6578697374656e7420746f6b656e0000000000000000000000000000000000602082015250565b600061478a602f83612ca0565b91506147958261472e565b604082019050919050565b600060208201905081810360008301526147b98161477d565b9050919050565b7f4552433732313a206d696e7420746f20746865207a65726f2061646472657373600082015250565b60006147f6602083612ca0565b9150614801826147c0565b602082019050919050565b60006020820190508181036000830152614825816147e9565b9050919050565b7f4552433732313a20746f6b656e20616c7265616479206d696e74656400000000600082015250565b6000614862601c83612ca0565b915061486d8261482c565b602082019050919050565b6000602082019050818103600083015261489181614855565b9050919050565b60006148a382612d47565b91507fffffffffffffffffffffffffffffffffffffffffffffffffffffffffffffffff82036148d5576148d4613f53565b5b600182019050919050565b7f4e487b7100000000000000000000000000000000000000000000000000000000600052601260045260246000fd5b600061491a82612d47565b915061492583612d47565b925082614935576149346148e0565b5b828204905092915050565b600061494b82612d47565b915061495683612d47565b925082614966576149656148e0565b5b828206905092915050565b7f4e487b7100000000000000000000000000000000000000000000000000000000600052603160045260246000fdfea2646970667358221220d14c0050ccd96dcb45c9c068939d876bf91a5e5c2a67823326e58f3c68c259ce64736f6c63430008110033a264697066735822122012ec328829a7168aeb53d79845bcc4a45a9476f2b0fc4d1498f3d0ccdbb0f59964736f6c634300081100336080604052600080556000600755600060085560006009556000600f553480156200002957600080fd5b5060405162004cca38038062004cca83398181016040528101906200004f9190620001cf565b83601260006101000a81548173ffffffffffffffffffffffffffffffffffffffff021916908373ffffffffffffffffffffffffffffffffffffffff16021790555082601360006101000a81548173ffffffffffffffffffffffffffffffffffffffff021916908373ffffffffffffffffffffffffffffffffffffffff160217905550816017819055508060168190555030601460006101000a81548173ffffffffffffffffffffffffffffffffffffffff021916908373ffffffffffffffffffffffffffffffffffffffff1602179055505050505062000241565b600080fd5b600073ffffffffffffffffffffffffffffffffffffffff82169050919050565b60006200015c826200012f565b9050919050565b6200016e816200014f565b81146200017a57600080fd5b50565b6000815190506200018e8162000163565b92915050565b6000819050919050565b620001a98162000194565b8114620001b557600080fd5b50565b600081519050620001c9816200019e565b92915050565b60008060008060808587031215620001ec57620001eb6200012a565b5b6000620001fc878288016200017d565b94505060206200020f878288016200017d565b93505060406200022287828801620001b8565b92505060606200023587828801620001b8565b91505092959194509250565b614a7980620002516000396000f3fe6080604052600436106200022a5760003560e01c806349a6b51f1162000127578063aef054ce11620000af578063ea0f13661162000079578063ea0f136614620008d7578063ea988be8146200091b578063f50d4349146200094b578063f6317f8d146200098f578063fe774f9d14620009bf576200022a565b8063aef054ce14620007ef578063b8a9736d1462000833578063d4d810321462000863578063df4f5ccc14620008a7576200022a565b80638ed3df0f11620000f15780638ed3df0f146200070b5780639578d3df146200074f5780639cee22b11462000793578063a06fc90b14620007c1576200022a565b806349a6b51f14620006235780634ffe5a6f146200065357806353f97bc8146200069757806364b1b66314620006db576200022a565b806323f526c011620001b757806331ad1b42116200018157806331ad1b4214620004e35780633279bd4f14620005275780633434735f146200056b57806339dc84f4146200059b57806347634e1c14620005df576200022a565b806323f526c014620003fb57806326342ea4146200043f578063282adc8c146200046f5780632c53308514620004b3576200022a565b80631821907a11620001f95780631821907a14620003155780631c85949c14620003595780631e0b39641462000387578063235d2c8a14620003cb576200022a565b806302760a48146200022f57806303f5de9d146200027357806307604b1a14620002a1578063171e844114620002d1575b600080fd5b3480156200023c57600080fd5b506200025b600480360381019062000255919062002064565b620009df565b6040516200026a9190620020b3565b60405180910390f35b3480156200028057600080fd5b506200029f60048036038101906200029991906200210b565b620009ff565b005b348015620002ae57600080fd5b50620002b96200111e565b604051620002c89190620021c2565b60405180910390f35b348015620002de57600080fd5b50620002fd6004803603810190620002f7919062002064565b62001144565b6040516200030c9190620020b3565b60405180910390f35b3480156200032257600080fd5b506200034160048036038101906200033b919062002064565b62001164565b604051620003509190620021f0565b60405180910390f35b3480156200036657600080fd5b506200038560048036038101906200037f91906200223e565b6200117c565b005b3480156200039457600080fd5b50620003b36004803603810190620003ad919062002285565b6200130e565b604051620003c29190620021f0565b60405180910390f35b348015620003d857600080fd5b50620003e362001340565b604051620003f29190620021c2565b60405180910390f35b3480156200040857600080fd5b5062000427600480360381019062000421919062002064565b62001366565b604051620004369190620021c2565b60405180910390f35b3480156200044c57600080fd5b506200045762001399565b604051620004669190620021f0565b60405180910390f35b3480156200047c57600080fd5b506200049b600480360381019062000495919062002064565b6200139f565b604051620004aa9190620021f0565b60405180910390f35b348015620004c057600080fd5b50620004cb620013bf565b604051620004da9190620021f0565b60405180910390f35b348015620004f057600080fd5b506200050f600480360381019062000509919062002064565b620013c5565b6040516200051e9190620021f0565b60405180910390f35b3480156200053457600080fd5b506200055360048036038101906200054d919062002064565b620013dd565b604051620005629190620021f0565b60405180910390f35b3480156200057857600080fd5b5062000583620013f5565b604051620005929190620021c2565b60405180910390f35b348015620005a857600080fd5b50620005c76004803603810190620005c1919062002064565b6200141b565b604051620005d69190620021c2565b60405180910390f35b348015620005ec57600080fd5b506200060b600480360381019062000605919062002064565b6200144e565b6040516200061a9190620021f0565b60405180910390f35b3480156200063057600080fd5b506200063b62001466565b6040516200064a9190620021f0565b60405180910390f35b3480156200066057600080fd5b506200067f600480360381019062000679919062002064565b6200146c565b6040516200068e9190620021f0565b60405180910390f35b348015620006a457600080fd5b50620006c36004803603810190620006bd919062002285565b62001484565b604051620006d29190620020b3565b60405180910390f35b348015620006e857600080fd5b50620006f3620014b3565b604051620007029190620021c2565b60405180910390f35b3480156200071857600080fd5b5062000737600480360381019062000731919062002064565b620014d9565b604051620007469190620021f0565b60405180910390f35b3480156200075c57600080fd5b506200077b600480360381019062000775919062002064565b62001507565b6040516200078a9190620021f0565b60405180910390f35b348015620007a057600080fd5b50620007bf6004803603810190620007b99190620022cc565b6200152c565b005b348015620007ce57600080fd5b50620007ed6004803603810190620007e7919062002285565b6200165c565b005b348015620007fc57600080fd5b506200081b600480360381019062000815919062002064565b620018e3565b6040516200082a9190620021c2565b60405180910390f35b3480156200084057600080fd5b506200084b62001916565b6040516200085a9190620021f0565b60405180910390f35b3480156200087057600080fd5b506200088f600480360381019062000889919062002064565b6200191c565b6040516200089e9190620021f0565b60405180910390f35b348015620008b457600080fd5b50620008bf62001934565b604051620008ce9190620021f0565b60405180910390f35b348015620008e457600080fd5b50620009036004803603810190620008fd919062002064565b6200193a565b604051620009129190620021f0565b60405180910390f35b3480156200092857600080fd5b506200093362001952565b604051620009429190620021f0565b60405180910390f35b3480156200095857600080fd5b5062000977600480360381019062000971919062002064565b62001958565b604051620009869190620021f0565b60405180910390f35b3480156200099c57600080fd5b50620009a762001970565b604051620009b69190620021f0565b60405180910390f35b620009dd6004803603810190620009d791906200233e565b62001976565b005b60116020528060005260406000206000915054906101000a900460ff1681565b60006018600086815260200190815260200160002060009054906101000a900473ffffffffffffffffffffffffffffffffffffffff1690503373ffffffffffffffffffffffffffffffffffffffff168173ffffffffffffffffffffffffffffffffffffffff161462000aa8576040517f08c379a000000000000000000000000000000000000000000000000000000000815260040162000a9f90620023e6565b60405180910390fd5b836019600087815260200190815260200160002054101562000b01576040517f08c379a000000000000000000000000000000000000000000000000000000000815260040162000af89062002458565b60405180910390fd5b6000601360009054906101000a900473ffffffffffffffffffffffffffffffffffffffff1690508073ffffffffffffffffffffffffffffffffffffffff166370a08231836040518263ffffffff1660e01b815260040162000b639190620021c2565b602060405180830381865afa15801562000b81573d6000803e3d6000fd5b505050506040513d601f19601f8201168201806040525081019062000ba7919062002491565b85111562000bec576040517f08c379a000000000000000000000000000000000000000000000000000000000815260040162000be39062002513565b60405180910390fd5b6000848662000bfc919062002564565b1462000c3f576040517f08c379a000000000000000000000000000000000000000000000000000000000815260040162000c3690620025ec565b60405180910390fd5b60006002600088815260200190815260200160002054111562000ccd5784600f600082825462000c7091906200263d565b925050819055508460106000888152602001908152602001600020600082825462000c9c91906200263d565b92505081905550601a8690806001815401808255809150506001900390600052602060002001600090919091909150555b60008173ffffffffffffffffffffffffffffffffffffffff166370a08231306040518263ffffffff1660e01b815260040162000d0a9190620021c2565b602060405180830381865afa15801562000d28573d6000803e3d6000fd5b505050506040513d601f19601f8201168201806040525081019062000d4e919062002491565b905060008111156200103757600062000d6a82600f5462001c31565b90506000805b82811462000fb2576000601a8054905090506000810362000d92575062000fb2565b8082111562000da057600092505b6000601a848154811062000db95762000db862002678565b5b9060005260206000200154905060006018600083815260200190815260200160002060009054906101000a900473ffffffffffffffffffffffffffffffffffffffff1690506000601754600260008581526020019081526020016000205462000e239190620026a7565b90508060196000858152602001908152602001600020540362000e6b57601a868154811062000e575762000e5662002678565b5b906000526020600020016000905562000f88565b8873ffffffffffffffffffffffffffffffffffffffff1663a9059cbb8360016040518363ffffffff1660e01b815260040162000ea99291906200273f565b6020604051808303816000875af115801562000ec9573d6000803e3d6000fd5b505050506040513d601f19601f8201168201806040525081019062000eef91906200279d565b50601a839080600181540180825580915050600190039060005260206000200160009091909190915055601a868154811062000f305762000f2f62002678565b5b90600052602060002001600090556001600f600082825462000f539190620027cf565b92505081905550600160106000858152602001908152602001600020600082825462000f809190620027cf565b925050819055505b858062000f95906200280a565b96505050505050808062000fa9906200280a565b91505062000d70565b508373ffffffffffffffffffffffffffffffffffffffff166370a08231306040518263ffffffff1660e01b815260040162000fee9190620021c2565b602060405180830381865afa1580156200100c573d6000803e3d6000fd5b505050506040513d601f19601f8201168201806040525081019062001032919062002491565b925050505b600060095488888830896040516200104f9062002008565b620010609695949392919062002868565b604051809103906000f0801580156200107d573d6000803e3d6000fd5b5090508273ffffffffffffffffffffffffffffffffffffffff1663a9059cbb82896040518363ffffffff1660e01b8152600401620010bd929190620028d5565b6020604051808303816000875af1158015620010dd573d6000803e3d6000fd5b505050506040513d601f19601f820116820180604052508101906200110391906200279d565b506200111488600954838a62001c4c565b5050505050505050565b601460009054906101000a900473ffffffffffffffffffffffffffffffffffffffff1681565b60066020528060005260406000206000915054906101000a900460ff1681565b600d6020528060005260406000206000915090505481565b6000601360009054906101000a900473ffffffffffffffffffffffffffffffffffffffff1690506017548173ffffffffffffffffffffffffffffffffffffffff166370a08231306040518263ffffffff1660e01b8152600401620011e19190620021c2565b602060405180830381865afa158015620011ff573d6000803e3d6000fd5b505050506040513d601f19601f8201168201806040525081019062001225919062002491565b101562001269576040517f08c379a0000000000000000000000000000000000000000000000000000000008152600401620012609062002952565b60405180910390fd5b8073ffffffffffffffffffffffffffffffffffffffff1663a9059cbb846017546040518363ffffffff1660e01b8152600401620012a8929190620028d5565b6020604051808303816000875af1158015620012c8573d6000803e3d6000fd5b505050506040513d601f19601f82011682018060405250810190620012ee91906200279d565b506017546019600084815260200190815260200160002081905550505050565b600a60205281600052604060002081815481106200132b57600080fd5b90600052602060002001600091509150505481565b601560009054906101000a900473ffffffffffffffffffffffffffffffffffffffff1681565b60056020528060005260406000206000915054906101000a900473ffffffffffffffffffffffffffffffffffffffff1681565b60095481565b6000600a6000838152602001908152602001600020805490509050919050565b60175481565b60016020528060005260406000206000915090505481565b600c6020528060005260406000206000915090505481565b601260009054906101000a900473ffffffffffffffffffffffffffffffffffffffff1681565b60186020528060005260406000206000915054906101000a900473ffffffffffffffffffffffffffffffffffffffff1681565b600e6020528060005260406000206000915090505481565b60085481565b60106020528060005260406000206000915090505481565b60046020528160005260406000206020528060005260406000206000915091509054906101000a900460ff1681565b601360009054906101000a900473ffffffffffffffffffffffffffffffffffffffff1681565b6000600180600084815260200190815260200160002054620014fc91906200263d565b601754189050919050565b601a81815481106200151857600080fd5b906000526020600020016000915090505481565b6000601360009054906101000a900473ffffffffffffffffffffffffffffffffffffffff1690508073ffffffffffffffffffffffffffffffffffffffff1663a9059cbb86856040518363ffffffff1660e01b815260040162001590929190620028d5565b6020604051808303816000875af1158015620015b0573d6000803e3d6000fd5b505050506040513d601f19601f82011682018060405250810190620015d691906200279d565b508073ffffffffffffffffffffffffffffffffffffffff16634bbc1bcd30856040518363ffffffff1660e01b815260040162001614929190620028d5565b600060405180830381600087803b1580156200162f57600080fd5b505af115801562001644573d6000803e3d6000fd5b505050506200165584848462001d85565b5050505050565b60006005600084815260200190815260200160002060009054906101000a900473ffffffffffffffffffffffffffffffffffffffff1690508073ffffffffffffffffffffffffffffffffffffffff163373ffffffffffffffffffffffffffffffffffffffff161462001705576040517f08c379a0000000000000000000000000000000000000000000000000000000008152600401620016fc90620029ea565b60405180910390fd5b60008190506000601860008373ffffffffffffffffffffffffffffffffffffffff1663685771f46040518163ffffffff1660e01b8152600401602060405180830381865afa1580156200175c573d6000803e3d6000fd5b505050506040513d601f19601f8201168201806040525081019062001782919062002491565b815260200190815260200160002060009054906101000a900473ffffffffffffffffffffffffffffffffffffffff1690506000601360009054906101000a900473ffffffffffffffffffffffffffffffffffffffff1690508073ffffffffffffffffffffffffffffffffffffffff1663a9059cbb83876040518363ffffffff1660e01b815260040162001817929190620028d5565b6020604051808303816000875af115801562001837573d6000803e3d6000fd5b505050506040513d601f19601f820116820180604052508101906200185d91906200279d565b508073ffffffffffffffffffffffffffffffffffffffff16634bbc1bcd3060016040518363ffffffff1660e01b81526004016200189c9291906200273f565b600060405180830381600087803b158015620018b757600080fd5b505af1158015620018cc573d6000803e3d6000fd5b50505050620018db8662001e48565b505050505050565b600b6020528060005260406000206000915054906101000a900473ffffffffffffffffffffffffffffffffffffffff1681565b60165481565b60036020528060005260406000206000915090505481565b600f5481565b60026020528060005260406000206000915090505481565b60005481565b60196020528060005260406000206000915090505481565b60075481565b6000600160026000858152602001908152602001600020546200199a91906200263d565b60165418905080341015620019e6576040517f08c379a0000000000000000000000000000000000000000000000000000000008152600401620019dd9062002a5c565b60405180910390fd5b6000601360009054906101000a900473ffffffffffffffffffffffffffffffffffffffff169050600062001a1a85620014d9565b905060008273ffffffffffffffffffffffffffffffffffffffff166370a082316018600089815260200190815260200160002060009054906101000a900473ffffffffffffffffffffffffffffffffffffffff166040518263ffffffff1660e01b815260040162001a8c9190620021c2565b602060405180830381865afa15801562001aaa573d6000803e3d6000fd5b505050506040513d601f19601f8201168201806040525081019062001ad0919062002491565b90508181101562001b18576040517f08c379a000000000000000000000000000000000000000000000000000000000815260040162001b0f9062002ace565b60405180910390fd5b6000805487308860405162001b2d9062002016565b62001b3c949392919062002af0565b604051809103906000f08015801562001b59573d6000803e3d6000fd5b509050600081905062001b70886000548362001ee9565b8473ffffffffffffffffffffffffffffffffffffffff166342966c68856040518263ffffffff1660e01b815260040162001bab9190620021f0565b600060405180830381600087803b15801562001bc657600080fd5b505af115801562001bdb573d6000803e3d6000fd5b505050508073ffffffffffffffffffffffffffffffffffffffff166108fc349081150290604051600060405180830381858888f1935050505015801562001c26573d6000803e3d6000fd5b505050505050505050565b600081831062001c42578162001c44565b825b905092915050565b60016009600082825462001c6191906200263d565b92505081905550806007600082825462001c7c91906200263d565b92505081905550600a600085815260200190815260200160002083908060018154018082558091505060019003906000526020600020016000909190919091505580600d6000868152602001908152602001600020600082825462001ce291906200263d565b9250508190555081600b600086815260200190815260200160002060006101000a81548173ffffffffffffffffffffffffffffffffffffffff021916908373ffffffffffffffffffffffffffffffffffffffff16021790555060016011600086815260200190815260200160002060006101000a81548160ff02191690831515021790555083600e60008581526020019081526020016000208190555050505050565b816007600082825462001d999190620027cf565b92505081905550816008600082825462001db491906200263d565b925050819055506000600e600085815260200190815260200160002054905082600c6000838152602001908152602001600020600082825462001df891906200263d565b925050819055506000838362001e0f9190620027cf565b0362001e425760006011600086815260200190815260200160002060006101000a81548160ff0219169083151502179055505b50505050565b6000600360008381526020019081526020016000205490506001806000838152602001908152602001600020600082825462001e859190620027cf565b92505081905550600160026000838152602001908152602001600020600082825462001eb291906200263d565b9250508190555060006006600083815260200190815260200160002060006101000a81548160ff0219169083151502179055505050565b8260036000848152602001908152602001600020819055506001806000858152602001908152602001600020600082825462001f2691906200263d565b92505081905550600160046000848152602001908152602001600020600085815260200190815260200160002060006101000a81548160ff021916908315150217905550806005600084815260200190815260200160002060006101000a81548173ffffffffffffffffffffffffffffffffffffffff021916908373ffffffffffffffffffffffffffffffffffffffff160217905550600160008082825462001fd091906200263d565b9250508190555060016006600085815260200190815260200160002060006101000a81548160ff021916908315150217905550505050565b610d218062002b3e83390190565b6111e5806200385f83390190565b600080fd5b6000819050919050565b6200203e8162002029565b81146200204a57600080fd5b50565b6000813590506200205e8162002033565b92915050565b6000602082840312156200207d576200207c62002024565b5b60006200208d848285016200204d565b91505092915050565b60008115159050919050565b620020ad8162002096565b82525050565b6000602082019050620020ca6000830184620020a2565b92915050565b6000819050919050565b620020e581620020d0565b8114620020f157600080fd5b50565b6000813590506200210581620020da565b92915050565b6000806000806080858703121562002128576200212762002024565b5b600062002138878288016200204d565b94505060206200214b878288016200204d565b93505060406200215e878288016200204d565b92505060606200217187828801620020f4565b91505092959194509250565b600073ffffffffffffffffffffffffffffffffffffffff82169050919050565b6000620021aa826200217d565b9050919050565b620021bc816200219d565b82525050565b6000602082019050620021d96000830184620021b1565b92915050565b620021ea8162002029565b82525050565b6000602082019050620022076000830184620021df565b92915050565b62002218816200219d565b81146200222457600080fd5b50565b60008135905062002238816200220d565b92915050565b6000806040838503121562002258576200225762002024565b5b6000620022688582860162002227565b92505060206200227b858286016200204d565b9150509250929050565b600080604083850312156200229f576200229e62002024565b5b6000620022af858286016200204d565b9250506020620022c2858286016200204d565b9150509250929050565b60008060008060808587031215620022e957620022e862002024565b5b6000620022f98782880162002227565b94505060206200230c878288016200204d565b93505060406200231f878288016200204d565b925050606062002332878288016200204d565b91505092959194509250565b6000806040838503121562002358576200235762002024565b5b600062002368858286016200204d565b92505060206200237b85828601620020f4565b9150509250929050565b600082825260208201905092915050565b7f43616c6c6572206973206e6f7420746865206f776e6572000000000000000000600082015250565b6000620023ce60178362002385565b9150620023db8262002396565b602082019050919050565b600060208201905081810360008301526200240181620023bf565b9050919050565b7f4e6f74206861766520656e6f756768206d617474657200000000000000000000600082015250565b60006200244060168362002385565b91506200244d8262002408565b602082019050919050565b60006020820190508181036000830152620024738162002431565b9050919050565b6000815190506200248b8162002033565b92915050565b600060208284031215620024aa57620024a962002024565b5b6000620024ba848285016200247a565b91505092915050565b7f4e6f74206869676820656e6f7567680000000000000000000000000000000000600082015250565b6000620024fb600f8362002385565b91506200250882620024c3565b602082019050919050565b600060208201905081810360008301526200252e81620024ec565b9050919050565b7f4e487b7100000000000000000000000000000000000000000000000000000000600052601260045260246000fd5b6000620025718262002029565b91506200257e8362002029565b92508262002591576200259062002535565b5b828206905092915050565b7f447261772072617465206e6f7420646976697369626c65000000000000000000600082015250565b6000620025d460178362002385565b9150620025e1826200259c565b602082019050919050565b600060208201905081810360008301526200260781620025c5565b9050919050565b7f4e487b7100000000000000000000000000000000000000000000000000000000600052601160045260246000fd5b60006200264a8262002029565b9150620026578362002029565b92508282019050808211156200267257620026716200260e565b5b92915050565b7f4e487b7100000000000000000000000000000000000000000000000000000000600052603260045260246000fd5b6000620026b48262002029565b9150620026c18362002029565b9250828202620026d18162002029565b91508282048414831517620026eb57620026ea6200260e565b5b5092915050565b6000819050919050565b6000819050919050565b600062002727620027216200271b84620026f2565b620026fc565b62002029565b9050919050565b620027398162002706565b82525050565b6000604082019050620027566000830185620021b1565b6200276560208301846200272e565b9392505050565b620027778162002096565b81146200278357600080fd5b50565b60008151905062002797816200276c565b92915050565b600060208284031215620027b657620027b562002024565b5b6000620027c68482850162002786565b91505092915050565b6000620027dc8262002029565b9150620027e98362002029565b92508282039050818111156200280457620028036200260e565b5b92915050565b6000620028178262002029565b91507fffffffffffffffffffffffffffffffffffffffffffffffffffffffffffffffff82036200284c576200284b6200260e565b5b600182019050919050565b6200286281620020d0565b82525050565b600060c0820190506200287f6000830189620021df565b6200288e6020830188620021df565b6200289d6040830187620021df565b620028ac6060830186620021df565b620028bb6080830185620021b1565b620028ca60a083018462002857565b979650505050505050565b6000604082019050620028ec6000830185620021b1565b620028fb6020830184620021df565b9392505050565b7f4e6f7420656e6f756768206d6174746572000000000000000000000000000000600082015250565b60006200293a60118362002385565b9150620029478262002902565b602082019050919050565b600060208201905081810360008301526200296d816200292b565b9050919050565b7f43616c6c6572206973206e6f742074686520726967687420436f736d6f53656560008201527f6420636f6e747261637400000000000000000000000000000000000000000000602082015250565b6000620029d2602a8362002385565b9150620029df8262002974565b604082019050919050565b6000602082019050818103600083015262002a0581620029c3565b9050919050565b7f45746865722076616c7565206973206e6f7420656e6f75676800000000000000600082015250565b600062002a4460198362002385565b915062002a518262002a0c565b602082019050919050565b6000602082019050818103600083015262002a778162002a35565b9050919050565b7f4d61747465722062616c616e6365206973206e6f7420656e6f75676800000000600082015250565b600062002ab6601c8362002385565b915062002ac38262002a7e565b602082019050919050565b6000602082019050818103600083015262002ae98162002aa7565b9050919050565b600060808201905062002b076000830187620021df565b62002b166020830186620021df565b62002b256040830185620021b1565b62002b34606083018462002857565b9594505050505056fe60806040523480156200001157600080fd5b5060405162000d2138038062000d21833981810160405281019062000037919062000283565b85600080018190555084600060010181905550836000600201819055508260006003018190555030600060040160006101000a81548173ffffffffffffffffffffffffffffffffffffffff021916908373ffffffffffffffffffffffffffffffffffffffff16021790555033600060050160006101000a81548173ffffffffffffffffffffffffffffffffffffffff021916908373ffffffffffffffffffffffffffffffffffffffff16021790555080600060060181905550600060050160009054906101000a900473ffffffffffffffffffffffffffffffffffffffff16600860006101000a81548173ffffffffffffffffffffffffffffffffffffffff021916908373ffffffffffffffffffffffffffffffffffffffff16021790555081600960006101000a81548173ffffffffffffffffffffffffffffffffffffffff021916908373ffffffffffffffffffffffffffffffffffffffff1602179055505050505050506200031f565b600080fd5b6000819050919050565b620001bd81620001a8565b8114620001c957600080fd5b50565b600081519050620001dd81620001b2565b92915050565b600073ffffffffffffffffffffffffffffffffffffffff82169050919050565b60006200021082620001e3565b9050919050565b620002228162000203565b81146200022e57600080fd5b50565b600081519050620002428162000217565b92915050565b6000819050919050565b6200025d8162000248565b81146200026957600080fd5b50565b6000815190506200027d8162000252565b92915050565b60008060008060008060c08789031215620002a357620002a2620001a3565b5b6000620002b389828a01620001cc565b9650506020620002c689828a01620001cc565b9550506040620002d989828a01620001cc565b9450506060620002ec89828a01620001cc565b9350506080620002ff89828a0162000231565b92505060a06200031289828a016200026c565b9150509295509295509295565b6109f2806200032f6000396000f3fe608060405234801561001057600080fd5b506004361061002b5760003560e01c806327ac1b6514610030575b600080fd5b61004a60048036038101906100459190610563565b61004c565b005b60011515600060070160003373ffffffffffffffffffffffffffffffffffffffff1673ffffffffffffffffffffffffffffffffffffffff16815260200190815260200160002060009054906101000a900460ff161515036100e2576040517f08c379a00000000000000000000000000000000000000000000000000000000081526004016100d990610667565b60405180910390fd5b6000806002015411610129576040517f08c379a0000000000000000000000000000000000000000000000000000000008152600401610120906106d3565b60405180910390fd5b610132836102eb565b50600960009054906101000a900473ffffffffffffffffffffffffffffffffffffffff1673ffffffffffffffffffffffffffffffffffffffff16639cee22b13360008001546000600301546000600201546040518563ffffffff1660e01b81526004016101a2949392919061074d565b600060405180830381600087803b1580156101bc57600080fd5b505af11580156101d0573d6000803e3d6000fd5b50505050600060030154600060020160008282546101ee91906107c1565b925050819055506001600060070160003373ffffffffffffffffffffffffffffffffffffffff1673ffffffffffffffffffffffffffffffffffffffff16815260200190815260200160002060006101000a81548160ff021916908315150217905550600860009054906101000a900473ffffffffffffffffffffffffffffffffffffffff1673ffffffffffffffffffffffffffffffffffffffff16639202c1ec60006001015484846040518463ffffffff1660e01b81526004016102b4939291906108b8565b600060405180830381600087803b1580156102ce57600080fd5b505af11580156102e2573d6000803e3d6000fd5b50505050505050565b600080826040516020016102ff9190610939565b604051602081830303815290604052805190602001209050600060060154811461035e576040517f08c379a00000000000000000000000000000000000000000000000000000000081526004016103559061099c565b60405180910390fd5b6001915050919050565b6000604051905090565b600080fd5b600080fd5b600080fd5b600080fd5b6000601f19601f8301169050919050565b7f4e487b7100000000000000000000000000000000000000000000000000000000600052604160045260246000fd5b6103cf82610386565b810181811067ffffffffffffffff821117156103ee576103ed610397565b5b80604052505050565b6000610401610368565b905061040d82826103c6565b919050565b600067ffffffffffffffff82111561042d5761042c610397565b5b61043682610386565b9050602081019050919050565b82818337600083830152505050565b600061046561046084610412565b6103f7565b90508281526020810184848401111561048157610480610381565b5b61048c848285610443565b509392505050565b600082601f8301126104a9576104a861037c565b5b81356104b9848260208601610452565b91505092915050565b600067ffffffffffffffff8211156104dd576104dc610397565b5b6104e682610386565b9050602081019050919050565b6000610506610501846104c2565b6103f7565b90508281526020810184848401111561052257610521610381565b5b61052d848285610443565b509392505050565b600082601f83011261054a5761054961037c565b5b813561055a8482602086016104f3565b91505092915050565b60008060006060848603121561057c5761057b610372565b5b600084013567ffffffffffffffff81111561059a57610599610377565b5b6105a686828701610494565b935050602084013567ffffffffffffffff8111156105c7576105c6610377565b5b6105d386828701610494565b925050604084013567ffffffffffffffff8111156105f4576105f3610377565b5b61060086828701610535565b9150509250925092565b600082825260208201905092915050565b7f43616e206f6e6c792064726177206f6e63650000000000000000000000000000600082015250565b600061065160128361060a565b915061065c8261061b565b602082019050919050565b6000602082019050818103600083015261068081610644565b9050919050565b7f4e6f2062757474657220746f2064726177000000000000000000000000000000600082015250565b60006106bd60118361060a565b91506106c882610687565b602082019050919050565b600060208201905081810360008301526106ec816106b0565b9050919050565b600073ffffffffffffffffffffffffffffffffffffffff82169050919050565b600061071e826106f3565b9050919050565b61072e81610713565b82525050565b6000819050919050565b61074781610734565b82525050565b60006080820190506107626000830187610725565b61076f602083018661073e565b61077c604083018561073e565b610789606083018461073e565b95945050505050565b7f4e487b7100000000000000000000000000000000000000000000000000000000600052601160045260246000fd5b60006107cc82610734565b91506107d783610734565b92508282039050818111156107ef576107ee610792565b5b92915050565b600081519050919050565b60005b8381101561081e578082015181840152602081019050610803565b60008484015250505050565b6000610835826107f5565b61083f818561060a565b935061084f818560208601610800565b61085881610386565b840191505092915050565b600081519050919050565b600082825260208201905092915050565b600061088a82610863565b610894818561086e565b93506108a4818560208601610800565b6108ad81610386565b840191505092915050565b60006060820190506108cd600083018661073e565b81810360208301526108df818561082a565b905081810360408301526108f3818461087f565b9050949350505050565b600081905092915050565b6000610913826107f5565b61091d81856108fd565b935061092d818560208601610800565b80840191505092915050565b60006109458284610908565b915081905092915050565b7f496e70757420646f6573206e6f74206d61746368207365637265740000000000600082015250565b6000610986601b8361060a565b915061099182610950565b602082019050919050565b600060208201905081810360008301526109b581610979565b905091905056fea2646970667358221220a448291b28b63abe94569b74444b34fec82bbdb93fee3646a7bd77ec0019e9fc64736f6c634300081100336080604052604051620011e5380380620011e58339818101604052810190620000299190620002f4565b600033905080600760006101000a81548173ffffffffffffffffffffffffffffffffffffffff021916908373ffffffffffffffffffffffffffffffffffffffff16021790555082600860006101000a81548173ffffffffffffffffffffffffffffffffffffffff021916908373ffffffffffffffffffffffffffffffffffffffff1602179055508460008001819055508360006001018190555034600060020181905550600860009054906101000a900473ffffffffffffffffffffffffffffffffffffffff1673ffffffffffffffffffffffffffffffffffffffff166334fc1228856040518263ffffffff1660e01b81526004016200012a919062000377565b602060405180830381865afa15801562000148573d6000803e3d6000fd5b505050506040513d601f19601f820116820180604052508101906200016e919062000394565b60006003018190555030600060040160006101000a81548173ffffffffffffffffffffffffffffffffffffffff021916908373ffffffffffffffffffffffffffffffffffffffff16021790555080600060050160006101000a81548173ffffffffffffffffffffffffffffffffffffffff021916908373ffffffffffffffffffffffffffffffffffffffff160217905550816000600601819055505050505050620003c6565b600080fd5b6000819050919050565b6200022e8162000219565b81146200023a57600080fd5b50565b6000815190506200024e8162000223565b92915050565b600073ffffffffffffffffffffffffffffffffffffffff82169050919050565b6000620002818262000254565b9050919050565b620002938162000274565b81146200029f57600080fd5b50565b600081519050620002b38162000288565b92915050565b6000819050919050565b620002ce81620002b9565b8114620002da57600080fd5b50565b600081519050620002ee81620002c3565b92915050565b6000806000806080858703121562000311576200031062000214565b5b600062000321878288016200023d565b945050602062000334878288016200023d565b93505060406200034787828801620002a2565b92505060606200035a87828801620002dd565b91505092959194509250565b620003718162000219565b82525050565b60006020820190506200038e600083018462000366565b92915050565b600060208284031215620003ad57620003ac62000214565b5b6000620003bd848285016200023d565b91505092915050565b610e0f80620003d66000396000f3fe608060405234801561001057600080fd5b506004361061004c5760003560e01c8063685771f4146100515780637d94792a1461006f578063956c2dc314610093578063c5d12c97146100af575b600080fd5b6100596100cd565b6040516100669190610656565b60405180910390f35b6100776100d9565b60405161008a97969594939291906106cb565b60405180910390f35b6100ad60048036038101906100a89190610935565b610149565b005b6100b76105b4565b6040516100c49190610656565b60405180910390f35b60008060010154905090565b60008060000154908060010154908060020154908060030154908060040160009054906101000a900473ffffffffffffffffffffffffffffffffffffffff16908060050160009054906101000a900473ffffffffffffffffffffffffffffffffffffffff16908060060154905087565b610152836105c0565b50600860009054906101000a900473ffffffffffffffffffffffffffffffffffffffff1673ffffffffffffffffffffffffffffffffffffffff1663f27890f260008001546040518263ffffffff1660e01b81526004016101b29190610656565b600060405180830381600087803b1580156101cc57600080fd5b505af11580156101e0573d6000803e3d6000fd5b50505050600760009054906101000a900473ffffffffffffffffffffffffffffffffffffffff1673ffffffffffffffffffffffffffffffffffffffff1663a0e12efe83836040518363ffffffff1660e01b8152600401610241929190610ab0565b600060405180830381600087803b15801561025b57600080fd5b505af115801561026f573d6000803e3d6000fd5b505050506000600860009054906101000a900473ffffffffffffffffffffffffffffffffffffffff1673ffffffffffffffffffffffffffffffffffffffff1663b8a9736d6040518163ffffffff1660e01b8152600401602060405180830381865afa1580156102e2573d6000803e3d6000fd5b505050506040513d601f19601f820116820180604052508101906103069190610b13565b90506000600860009054906101000a900473ffffffffffffffffffffffffffffffffffffffff1673ffffffffffffffffffffffffffffffffffffffff166307604b1a6040518163ffffffff1660e01b8152600401602060405180830381865afa158015610377573d6000803e3d6000fd5b505050506040513d601f19601f8201168201806040525081019061039b9190610b6c565b73ffffffffffffffffffffffffffffffffffffffff16826040516103be90610bca565b60006040518083038185875af1925050503d80600081146103fb576040519150601f19603f3d011682016040523d82523d6000602084013e610400565b606091505b5050905080610444576040517f08c379a000000000000000000000000000000000000000000000000000000000815260040161043b90610c2b565b60405180910390fd5b6000826000600201546104579190610c7a565b90506000600760009054906101000a900473ffffffffffffffffffffffffffffffffffffffff1673ffffffffffffffffffffffffffffffffffffffff16636352211e6000600101546040518263ffffffff1660e01b81526004016104bb9190610656565b602060405180830381865afa1580156104d8573d6000803e3d6000fd5b505050506040513d601f19601f820116820180604052508101906104fc9190610b6c565b905060008173ffffffffffffffffffffffffffffffffffffffff168360405161052490610bca565b60006040518083038185875af1925050503d8060008114610561576040519150601f19603f3d011682016040523d82523d6000602084013e610566565b606091505b50509050806105aa576040517f08c379a00000000000000000000000000000000000000000000000000000000081526004016105a190610cfa565b60405180910390fd5b5050505050505050565b60008060030154905090565b600080826040516020016105d49190610d56565b6040516020818303038152906040528051906020012090506000600601548114610633576040517f08c379a000000000000000000000000000000000000000000000000000000000815260040161062a90610db9565b60405180910390fd5b6001915050919050565b6000819050919050565b6106508161063d565b82525050565b600060208201905061066b6000830184610647565b92915050565b600073ffffffffffffffffffffffffffffffffffffffff82169050919050565b600061069c82610671565b9050919050565b6106ac81610691565b82525050565b6000819050919050565b6106c5816106b2565b82525050565b600060e0820190506106e0600083018a610647565b6106ed6020830189610647565b6106fa6040830188610647565b6107076060830187610647565b61071460808301866106a3565b61072160a08301856106a3565b61072e60c08301846106bc565b98975050505050505050565b6000604051905090565b600080fd5b600080fd5b600080fd5b600080fd5b6000601f19601f8301169050919050565b7f4e487b7100000000000000000000000000000000000000000000000000000000600052604160045260246000fd5b6107a182610758565b810181811067ffffffffffffffff821117156107c0576107bf610769565b5b80604052505050565b60006107d361073a565b90506107df8282610798565b919050565b600067ffffffffffffffff8211156107ff576107fe610769565b5b61080882610758565b9050602081019050919050565b82818337600083830152505050565b6000610837610832846107e4565b6107c9565b90508281526020810184848401111561085357610852610753565b5b61085e848285610815565b509392505050565b600082601f83011261087b5761087a61074e565b5b813561088b848260208601610824565b91505092915050565b600067ffffffffffffffff8211156108af576108ae610769565b5b6108b882610758565b9050602081019050919050565b60006108d86108d384610894565b6107c9565b9050828152602081018484840111156108f4576108f3610753565b5b6108ff848285610815565b509392505050565b600082601f83011261091c5761091b61074e565b5b813561092c8482602086016108c5565b91505092915050565b60008060006060848603121561094e5761094d610744565b5b600084013567ffffffffffffffff81111561096c5761096b610749565b5b61097886828701610866565b935050602084013567ffffffffffffffff81111561099957610998610749565b5b6109a586828701610866565b925050604084013567ffffffffffffffff8111156109c6576109c5610749565b5b6109d286828701610907565b9150509250925092565b600081519050919050565b600082825260208201905092915050565b60005b83811015610a165780820151818401526020810190506109fb565b60008484015250505050565b6000610a2d826109dc565b610a3781856109e7565b9350610a478185602086016109f8565b610a5081610758565b840191505092915050565b600081519050919050565b600082825260208201905092915050565b6000610a8282610a5b565b610a8c8185610a66565b9350610a9c8185602086016109f8565b610aa581610758565b840191505092915050565b60006040820190508181036000830152610aca8185610a22565b90508181036020830152610ade8184610a77565b90509392505050565b610af08161063d565b8114610afb57600080fd5b50565b600081519050610b0d81610ae7565b92915050565b600060208284031215610b2957610b28610744565b5b6000610b3784828501610afe565b91505092915050565b610b4981610691565b8114610b5457600080fd5b50565b600081519050610b6681610b40565b92915050565b600060208284031215610b8257610b81610744565b5b6000610b9084828501610b57565b91505092915050565b600081905092915050565b50565b6000610bb4600083610b99565b9150610bbf82610ba4565b600082019050919050565b6000610bd582610ba7565b9150819050919050565b7f4574686572206e6f742073656e7420746f205472656173757279000000000000600082015250565b6000610c15601a836109e7565b9150610c2082610bdf565b602082019050919050565b60006020820190508181036000830152610c4481610c08565b9050919050565b7f4e487b7100000000000000000000000000000000000000000000000000000000600052601160045260246000fd5b6000610c858261063d565b9150610c908361063d565b9250828203905081811115610ca857610ca7610c4b565b5b92915050565b7f4574686572206e6f742073656e7420746f20706172656e74206e757400000000600082015250565b6000610ce4601c836109e7565b9150610cef82610cae565b602082019050919050565b60006020820190508181036000830152610d1381610cd7565b9050919050565b600081905092915050565b6000610d30826109dc565b610d3a8185610d1a565b9350610d4a8185602086016109f8565b80840191505092915050565b6000610d628284610d25565b915081905092915050565b7f496e70757420646f6573206e6f74206d61746368207365637265740000000000600082015250565b6000610da3601b836109e7565b9150610dae82610d6d565b602082019050919050565b60006020820190508181036000830152610dd281610d96565b905091905056fea264697066735822122083bc631ddaf19f81b476cddad578e2d08e4d5c1b3bdd94e3fee05e4c575d93ff64736f6c63430008110033a2646970667358221220e6d0831046272256c8670a25ad5ba3a76dbb3041adadd2005f114eaeb96baff364736f6c63430008110033",
  "immutableReferences": {},
  "source": "// SPDX-License-Identifier: MIT\npragma solidity ^0.8.7;\n\nimport \"./CosmoNuts.sol\";\n//import \"./CosmoTreasury.sol\";\nimport \"./CosmoVault.sol\";\n\ncontract CosmoBang is CosmoVault {\n\n    //address public SYSTEM_ADDRESS;\n    //address public MATTER_ADDRESS;\n    //address public TREASURY_ADDRESS;\n    address public COSMOS_ADDRESS;\n\n    //CosmoTreasury treasury;\n    //CosmoNuts nuts;\n\n    constructor(\n        address _systemAddress,\n        address _matterAddress,\n        //string memory _cosmosName,\n        //string memory _cosmosSymbol,\n        uint256 _nutPrice,\n        //uint256 _desiredEntities,\n        uint256 _matterRate\n    )\n    CosmoVault(_systemAddress, _matterAddress, _nutPrice, _matterRate)\n    //CosmoTreasury(_matterAddress, _matterRate, _nutPrice)\n\n    //CosmoNuts(_cosmosName, _cosmosSymbol, _desiredEntities, _systemAddress, address(treasury))\n    {\n        //treasury = new CosmoTreasury(_matterAddress, _matterRate);\n        //cosmonuts = new CosmoNuts(_cosmosName, _cosmosSymbol, _desiredEntities, _systemAddress, address(treasury));\n        //COSMO_ADDRESS = address(nuts);\n        //MATTER_ADDRESS = _matterAddress;\n        //treasury = CosmoTreasury(address(treasury));\n\n    }\n\n    function nutBang(\n        string memory _cosmosName,\n        string memory _cosmosSymbol,\n        uint256 _desiredEntities\n    ) external {\n        CosmoNuts nuts = new CosmoNuts(_cosmosName, _cosmosSymbol, _desiredEntities, SYSTEM_ADDRESS, TREASURY_ADDRESS);\n        COSMOS_ADDRESS = address(nuts);\n    }\n\n    /*\n    function nutBang(\n        address _systemAddress,\n        address _matterAddress,\n        string memory _cosmosName,\n        string memory _cosmosSymbol,\n        uint256 _desiredEntities,\n        uint256 _matterRate\n    ) external {\n        CosmoTreasury treasury = new CosmoTreasury(_matterAddress, _matterRate);\n        CosmoNuts nuts = new CosmoNuts(_cosmosName, _cosmosSymbol, _desiredEntities, _systemAddress, address(treasury));\n        TREASURY_ADDRESS = address(treasury);\n        COSMO_ADDRESS = address(nuts);\n    }\n    */\n\n}\n",
  "sourcePath": "/home/redlentils/Seafile/Websites/avatarnft/contracts/CosmoBang.sol",
  "compiler": {
    "name": "solc",
    "version": "0.8.17+commit.8df45f5f.Emscripten.clang"
  },
  "schemaVersion": "3.4.10",
  "updatedAt": "2022-10-06T15:44:21.426Z",
  "devdoc": {
    "kind": "dev",
    "methods": {},
    "version": 1
  },
  "userdoc": {
    "kind": "user",
    "methods": {},
    "version": 1
  }
}