{
  "contractName": "CosmoNuts",
  "abi": [
    {
      "inputs": [
        {
          "internalType": "string",
          "name": "_name",
          "type": "string"
        },
        {
          "internalType": "string",
          "name": "_symbol",
          "type": "string"
        },
        {
          "internalType": "uint256",
          "name": "_initialNFTSupply",
          "type": "uint256"
        },
        {
          "internalType": "address",
          "name": "_systemAddress",
          "type": "address"
        },
        {
          "internalType": "address",
          "name": "_treasuryAddress",
          "type": "address"
        }
      ],
      "stateMutability": "nonpayable",
      "type": "constructor"
    },
    {
      "anonymous": false,
      "inputs": [
        {
          "indexed": true,
          "internalType": "address",
          "name": "owner",
          "type": "address"
        },
        {
          "indexed": true,
          "internalType": "address",
          "name": "approved",
          "type": "address"
        },
        {
          "indexed": true,
          "internalType": "uint256",
          "name": "tokenId",
          "type": "uint256"
        }
      ],
      "name": "Approval",
      "type": "event"
    },
    {
      "anonymous": false,
      "inputs": [
        {
          "indexed": true,
          "internalType": "address",
          "name": "owner",
          "type": "address"
        },
        {
          "indexed": true,
          "internalType": "address",
          "name": "operator",
          "type": "address"
        },
        {
          "indexed": false,
          "internalType": "bool",
          "name": "approved",
          "type": "bool"
        }
      ],
      "name": "ApprovalForAll",
      "type": "event"
    },
    {
      "anonymous": false,
      "inputs": [
        {
          "indexed": true,
          "internalType": "address",
          "name": "previousOwner",
          "type": "address"
        },
        {
          "indexed": true,
          "internalType": "address",
          "name": "newOwner",
          "type": "address"
        }
      ],
      "name": "OwnershipTransferred",
      "type": "event"
    },
    {
      "anonymous": false,
      "inputs": [
        {
          "indexed": true,
          "internalType": "address",
          "name": "from",
          "type": "address"
        },
        {
          "indexed": true,
          "internalType": "address",
          "name": "to",
          "type": "address"
        },
        {
          "indexed": true,
          "internalType": "uint256",
          "name": "tokenId",
          "type": "uint256"
        }
      ],
      "name": "Transfer",
      "type": "event"
    },
    {
      "inputs": [
        {
          "internalType": "address",
          "name": "to",
          "type": "address"
        },
        {
          "internalType": "uint256",
          "name": "tokenId",
          "type": "uint256"
        }
      ],
      "name": "approve",
      "outputs": [],
      "stateMutability": "nonpayable",
      "type": "function"
    },
    {
      "inputs": [
        {
          "internalType": "address",
          "name": "owner",
          "type": "address"
        }
      ],
      "name": "balanceOf",
      "outputs": [
        {
          "internalType": "uint256",
          "name": "",
          "type": "uint256"
        }
      ],
      "stateMutability": "view",
      "type": "function"
    },
    {
      "inputs": [],
      "name": "creation",
      "outputs": [
        {
          "internalType": "uint256",
          "name": "initialSupply",
          "type": "uint256"
        },
        {
          "internalType": "address",
          "name": "system",
          "type": "address"
        },
        {
          "internalType": "address",
          "name": "treasury",
          "type": "address"
        },
        {
          "internalType": "address",
          "name": "vault",
          "type": "address"
        },
        {
          "internalType": "address",
          "name": "vaultImplementation",
          "type": "address"
        }
      ],
      "stateMutability": "view",
      "type": "function"
    },
    {
      "inputs": [
        {
          "internalType": "uint256",
          "name": "tokenId",
          "type": "uint256"
        }
      ],
      "name": "getApproved",
      "outputs": [
        {
          "internalType": "address",
          "name": "",
          "type": "address"
        }
      ],
      "stateMutability": "view",
      "type": "function"
    },
    {
      "inputs": [
        {
          "internalType": "address",
          "name": "owner",
          "type": "address"
        },
        {
          "internalType": "address",
          "name": "operator",
          "type": "address"
        }
      ],
      "name": "isApprovedForAll",
      "outputs": [
        {
          "internalType": "bool",
          "name": "",
          "type": "bool"
        }
      ],
      "stateMutability": "view",
      "type": "function"
    },
    {
      "inputs": [
        {
          "internalType": "uint256",
          "name": "_nutId",
          "type": "uint256"
        },
        {
          "internalType": "string",
          "name": "_nutCID",
          "type": "string"
        }
      ],
      "name": "mintNut",
      "outputs": [],
      "stateMutability": "payable",
      "type": "function"
    },
    {
      "inputs": [],
      "name": "name",
      "outputs": [
        {
          "internalType": "string",
          "name": "",
          "type": "string"
        }
      ],
      "stateMutability": "view",
      "type": "function"
    },
    {
      "inputs": [],
      "name": "owner",
      "outputs": [
        {
          "internalType": "address",
          "name": "",
          "type": "address"
        }
      ],
      "stateMutability": "view",
      "type": "function"
    },
    {
      "inputs": [
        {
          "internalType": "uint256",
          "name": "tokenId",
          "type": "uint256"
        }
      ],
      "name": "ownerOf",
      "outputs": [
        {
          "internalType": "address",
          "name": "",
          "type": "address"
        }
      ],
      "stateMutability": "view",
      "type": "function"
    },
    {
      "inputs": [],
      "name": "renounceOwnership",
      "outputs": [],
      "stateMutability": "nonpayable",
      "type": "function"
    },
    {
      "inputs": [
        {
          "internalType": "address",
          "name": "from",
          "type": "address"
        },
        {
          "internalType": "address",
          "name": "to",
          "type": "address"
        },
        {
          "internalType": "uint256",
          "name": "tokenId",
          "type": "uint256"
        }
      ],
      "name": "safeTransferFrom",
      "outputs": [],
      "stateMutability": "nonpayable",
      "type": "function"
    },
    {
      "inputs": [
        {
          "internalType": "address",
          "name": "from",
          "type": "address"
        },
        {
          "internalType": "address",
          "name": "to",
          "type": "address"
        },
        {
          "internalType": "uint256",
          "name": "tokenId",
          "type": "uint256"
        },
        {
          "internalType": "bytes",
          "name": "_data",
          "type": "bytes"
        }
      ],
      "name": "safeTransferFrom",
      "outputs": [],
      "stateMutability": "nonpayable",
      "type": "function"
    },
    {
      "inputs": [
        {
          "internalType": "address",
          "name": "operator",
          "type": "address"
        },
        {
          "internalType": "bool",
          "name": "approved",
          "type": "bool"
        }
      ],
      "name": "setApprovalForAll",
      "outputs": [],
      "stateMutability": "nonpayable",
      "type": "function"
    },
    {
      "inputs": [
        {
          "internalType": "bytes4",
          "name": "interfaceId",
          "type": "bytes4"
        }
      ],
      "name": "supportsInterface",
      "outputs": [
        {
          "internalType": "bool",
          "name": "",
          "type": "bool"
        }
      ],
      "stateMutability": "view",
      "type": "function"
    },
    {
      "inputs": [],
      "name": "symbol",
      "outputs": [
        {
          "internalType": "string",
          "name": "",
          "type": "string"
        }
      ],
      "stateMutability": "view",
      "type": "function"
    },
    {
      "inputs": [
        {
          "internalType": "uint256",
          "name": "index",
          "type": "uint256"
        }
      ],
      "name": "tokenByIndex",
      "outputs": [
        {
          "internalType": "uint256",
          "name": "",
          "type": "uint256"
        }
      ],
      "stateMutability": "view",
      "type": "function"
    },
    {
      "inputs": [
        {
          "internalType": "address",
          "name": "owner",
          "type": "address"
        },
        {
          "internalType": "uint256",
          "name": "index",
          "type": "uint256"
        }
      ],
      "name": "tokenOfOwnerByIndex",
      "outputs": [
        {
          "internalType": "uint256",
          "name": "",
          "type": "uint256"
        }
      ],
      "stateMutability": "view",
      "type": "function"
    },
    {
      "inputs": [
        {
          "internalType": "uint256",
          "name": "tokenId",
          "type": "uint256"
        }
      ],
      "name": "tokenURI",
      "outputs": [
        {
          "internalType": "string",
          "name": "",
          "type": "string"
        }
      ],
      "stateMutability": "view",
      "type": "function"
    },
    {
      "inputs": [],
      "name": "totalSupply",
      "outputs": [
        {
          "internalType": "uint256",
          "name": "",
          "type": "uint256"
        }
      ],
      "stateMutability": "view",
      "type": "function"
    },
    {
      "inputs": [
        {
          "internalType": "address",
          "name": "from",
          "type": "address"
        },
        {
          "internalType": "address",
          "name": "to",
          "type": "address"
        },
        {
          "internalType": "uint256",
          "name": "tokenId",
          "type": "uint256"
        }
      ],
      "name": "transferFrom",
      "outputs": [],
      "stateMutability": "nonpayable",
      "type": "function"
    },
    {
      "inputs": [
        {
          "internalType": "address",
          "name": "newOwner",
          "type": "address"
        }
      ],
      "name": "transferOwnership",
      "outputs": [],
      "stateMutability": "nonpayable",
      "type": "function"
    },
    {
      "inputs": [
        {
          "internalType": "uint256",
          "name": "_nutId",
          "type": "uint256"
        },
        {
          "internalType": "string",
          "name": "_nutCID",
          "type": "string"
        }
      ],
      "name": "setTokenURI",
      "outputs": [],
      "stateMutability": "nonpayable",
      "type": "function"
    },
    {
      "inputs": [
        {
          "internalType": "uint256",
          "name": "_nutId",
          "type": "uint256"
        }
      ],
      "name": "getOwnerOf",
      "outputs": [
        {
          "internalType": "address",
          "name": "",
          "type": "address"
        }
      ],
      "stateMutability": "view",
      "type": "function"
    },
    {
      "inputs": [],
      "name": "createVault",
      "outputs": [
        {
          "internalType": "address",
          "name": "",
          "type": "address"
        }
      ],
      "stateMutability": "nonpayable",
      "type": "function"
    },
    {
      "inputs": [],
      "name": "withdraw",
      "outputs": [],
      "stateMutability": "nonpayable",
      "type": "function"
    },
    {
      "inputs": [
        {
          "internalType": "string",
          "name": "_cidPath",
          "type": "string"
        },
        {
          "internalType": "bytes",
          "name": "_signature",
          "type": "bytes"
        }
      ],
      "name": "createNut",
      "outputs": [
        {
          "internalType": "bool",
          "name": "",
          "type": "bool"
        }
      ],
      "stateMutability": "nonpayable",
      "type": "function"
    },
    {
      "inputs": [
        {
          "internalType": "uint256",
          "name": "_nutId",
          "type": "uint256"
        },
        {
          "internalType": "bytes32",
          "name": "_secretHash",
          "type": "bytes32"
        },
        {
          "internalType": "string",
          "name": "_cidPath",
          "type": "string"
        },
        {
          "internalType": "bytes",
          "name": "_signature",
          "type": "bytes"
        }
      ],
      "name": "createSeed",
      "outputs": [
        {
          "internalType": "bool",
          "name": "",
          "type": "bool"
        }
      ],
      "stateMutability": "payable",
      "type": "function"
    },
    {
      "inputs": [
        {
          "internalType": "uint256",
          "name": "_nutId",
          "type": "uint256"
        },
        {
          "internalType": "bytes32",
          "name": "_secretHash",
          "type": "bytes32"
        },
        {
          "internalType": "uint256",
          "name": "_matterContributed",
          "type": "uint256"
        },
        {
          "internalType": "uint256",
          "name": "_matterDrawRate",
          "type": "uint256"
        },
        {
          "internalType": "string",
          "name": "_cidPath",
          "type": "string"
        },
        {
          "internalType": "bytes",
          "name": "_signature",
          "type": "bytes"
        }
      ],
      "name": "createButter",
      "outputs": [],
      "stateMutability": "nonpayable",
      "type": "function"
    },
    {
      "inputs": [
        {
          "internalType": "uint256",
          "name": "_tokenId",
          "type": "uint256"
        },
        {
          "internalType": "string",
          "name": "_cidPath",
          "type": "string"
        },
        {
          "internalType": "bytes",
          "name": "_signature",
          "type": "bytes"
        }
      ],
      "name": "spreadButter",
      "outputs": [
        {
          "internalType": "bool",
          "name": "",
          "type": "bool"
        }
      ],
      "stateMutability": "nonpayable",
      "type": "function"
    }
  ],
  "bytecode": "0x60806040523480156200001157600080fd5b50604051620054ab380380620054ab833981810160405281019062000037919062000427565b8484848484848481600090816200004f91906200072e565b5080600190816200006191906200072e565b50505062000084620000786200012660201b60201c565b6200012e60201b60201c565b82600c6000018190555081600c60010160006101000a81548173ffffffffffffffffffffffffffffffffffffffff021916908373ffffffffffffffffffffffffffffffffffffffff16021790555080600c60020160006101000a81548173ffffffffffffffffffffffffffffffffffffffff021916908373ffffffffffffffffffffffffffffffffffffffff1602179055505050505050505050505062000815565b600033905090565b6000600b60009054906101000a900473ffffffffffffffffffffffffffffffffffffffff16905081600b60006101000a81548173ffffffffffffffffffffffffffffffffffffffff021916908373ffffffffffffffffffffffffffffffffffffffff1602179055508173ffffffffffffffffffffffffffffffffffffffff168173ffffffffffffffffffffffffffffffffffffffff167f8be0079c531659141344cd1fd0a4f28419497f9722a3daafe3b4186f6b6457e060405160405180910390a35050565b6000604051905090565b600080fd5b600080fd5b600080fd5b600080fd5b6000601f19601f8301169050919050565b7f4e487b7100000000000000000000000000000000000000000000000000000000600052604160045260246000fd5b6200025d8262000212565b810181811067ffffffffffffffff821117156200027f576200027e62000223565b5b80604052505050565b600062000294620001f4565b9050620002a2828262000252565b919050565b600067ffffffffffffffff821115620002c557620002c462000223565b5b620002d08262000212565b9050602081019050919050565b60005b83811015620002fd578082015181840152602081019050620002e0565b60008484015250505050565b6000620003206200031a84620002a7565b62000288565b9050828152602081018484840111156200033f576200033e6200020d565b5b6200034c848285620002dd565b509392505050565b600082601f8301126200036c576200036b62000208565b5b81516200037e84826020860162000309565b91505092915050565b6000819050919050565b6200039c8162000387565b8114620003a857600080fd5b50565b600081519050620003bc8162000391565b92915050565b600073ffffffffffffffffffffffffffffffffffffffff82169050919050565b6000620003ef82620003c2565b9050919050565b6200040181620003e2565b81146200040d57600080fd5b50565b6000815190506200042181620003f6565b92915050565b600080600080600060a08688031215620004465762000445620001fe565b5b600086015167ffffffffffffffff81111562000467576200046662000203565b5b620004758882890162000354565b955050602086015167ffffffffffffffff81111562000499576200049862000203565b5b620004a78882890162000354565b9450506040620004ba88828901620003ab565b9350506060620004cd8882890162000410565b9250506080620004e08882890162000410565b9150509295509295909350565b600081519050919050565b7f4e487b7100000000000000000000000000000000000000000000000000000000600052602260045260246000fd5b600060028204905060018216806200054057607f821691505b602082108103620005565762000555620004f8565b5b50919050565b60008190508160005260206000209050919050565b60006020601f8301049050919050565b600082821b905092915050565b600060088302620005c07fffffffffffffffffffffffffffffffffffffffffffffffffffffffffffffffff8262000581565b620005cc868362000581565b95508019841693508086168417925050509392505050565b6000819050919050565b60006200060f62000609620006038462000387565b620005e4565b62000387565b9050919050565b6000819050919050565b6200062b83620005ee565b620006436200063a8262000616565b8484546200058e565b825550505050565b600090565b6200065a6200064b565b6200066781848462000620565b505050565b5b818110156200068f576200068360008262000650565b6001810190506200066d565b5050565b601f821115620006de57620006a8816200055c565b620006b38462000571565b81016020851015620006c3578190505b620006db620006d28562000571565b8301826200066c565b50505b505050565b600082821c905092915050565b60006200070360001984600802620006e3565b1980831691505092915050565b60006200071e8383620006f0565b9150826002028217905092915050565b6200073982620004ed565b67ffffffffffffffff81111562000755576200075462000223565b5b62000761825462000527565b6200076e82828562000693565b600060209050601f831160018114620007a6576000841562000791578287015190505b6200079d858262000710565b8655506200080d565b601f198416620007b6866200055c565b60005b82811015620007e057848901518255600182019150602085019450602081019050620007b9565b86831015620008005784890151620007fc601f891682620006f0565b8355505b6001600288020188555050505b505050505050565b614c8680620008256000396000f3fe6080604052600436106101c25760003560e01c80635f9ff4a1116100f757806395d89b4111610095578063c87b56dd11610064578063c87b56dd1461065b578063e985e9c514610698578063f23c9583146106d5578063f2fde38b14610705576101c2565b806395d89b41146105a1578063a0e12efe146105cc578063a22cb46514610609578063b88d4fde14610632576101c2565b8063715018a6116100d1578063715018a6146104e557806383638710146104fc5780638da5cb5b146105395780639202c1ec14610564576101c2565b80635f9ff4a1146104425780636352211e1461046b57806370a08231146104a8576101c2565b806323b872dd1161016457806342842e0e1161013e57806342842e0e146103955780634f6ccce7146103be57806355951ab0146103fb5780635d12928b14610417576101c2565b806323b872dd146103185780632f745c59146103415780633ccfd60b1461037e576101c2565b8063095ea7b3116101a0578063095ea7b31461026c57806313845d2f14610295578063162094c4146102c457806318160ddd146102ed576101c2565b806301ffc9a7146101c757806306fdde0314610204578063081812fc1461022f575b600080fd5b3480156101d357600080fd5b506101ee60048036038101906101e99190612f50565b61072e565b6040516101fb9190612f98565b60405180910390f35b34801561021057600080fd5b50610219610740565b6040516102269190613043565b60405180910390f35b34801561023b57600080fd5b506102566004803603810190610251919061309b565b6107d2565b6040516102639190613109565b60405180910390f35b34801561027857600080fd5b50610293600480360381019061028e9190613150565b610857565b005b3480156102a157600080fd5b506102aa61096e565b6040516102bb95949392919061319f565b60405180910390f35b3480156102d057600080fd5b506102eb60048036038101906102e69190613327565b610a12565b005b3480156102f957600080fd5b50610302610a20565b60405161030f9190613383565b60405180910390f35b34801561032457600080fd5b5061033f600480360381019061033a919061339e565b610a2d565b005b34801561034d57600080fd5b5061036860048036038101906103639190613150565b610a8d565b6040516103759190613383565b60405180910390f35b34801561038a57600080fd5b50610393610b32565b005b3480156103a157600080fd5b506103bc60048036038101906103b7919061339e565b610c40565b005b3480156103ca57600080fd5b506103e560048036038101906103e0919061309b565b610c60565b6040516103f29190613383565b60405180910390f35b61041560048036038101906104109190613327565b610cd1565b005b34801561042357600080fd5b5061042c610de5565b6040516104399190613109565b60405180910390f35b34801561044e57600080fd5b50610469600480360381019061046491906134c8565b610df5565b005b34801561047757600080fd5b50610492600480360381019061048d919061309b565b610faf565b60405161049f9190613109565b60405180910390f35b3480156104b457600080fd5b506104cf60048036038101906104ca919061358d565b611060565b6040516104dc9190613383565b60405180910390f35b3480156104f157600080fd5b506104fa611117565b005b34801561050857600080fd5b50610523600480360381019061051e919061309b565b61119f565b6040516105309190613109565b60405180910390f35b34801561054557600080fd5b5061054e6111b1565b60405161055b9190613109565b60405180910390f35b34801561057057600080fd5b5061058b600480360381019061058691906135ba565b6111db565b6040516105989190612f98565b60405180910390f35b3480156105ad57600080fd5b506105b661127c565b6040516105c39190613043565b60405180910390f35b3480156105d857600080fd5b506105f360048036038101906105ee9190613645565b61130e565b6040516106009190612f98565b60405180910390f35b34801561061557600080fd5b50610630600480360381019061062b91906136e9565b6113c4565b005b34801561063e57600080fd5b5061065960048036038101906106549190613729565b6113da565b005b34801561066757600080fd5b50610682600480360381019061067d919061309b565b61143c565b60405161068f9190613043565b60405180910390f35b3480156106a457600080fd5b506106bf60048036038101906106ba91906137ac565b61144e565b6040516106cc9190612f98565b60405180910390f35b6106ef60048036038101906106ea91906137ec565b6114e2565b6040516106fc9190612f98565b60405180910390f35b34801561071157600080fd5b5061072c6004803603810190610727919061358d565b6116ed565b005b6000610739826117e4565b9050919050565b60606000805461074f906138ba565b80601f016020809104026020016040519081016040528092919081815260200182805461077b906138ba565b80156107c85780601f1061079d576101008083540402835291602001916107c8565b820191906000526020600020905b8154815290600101906020018083116107ab57829003601f168201915b5050505050905090565b60006107dd8261185e565b61081c576040517f08c379a00000000000000000000000000000000000000000000000000000000081526004016108139061395d565b60405180910390fd5b6004600083815260200190815260200160002060009054906101000a900473ffffffffffffffffffffffffffffffffffffffff169050919050565b600061086282610faf565b90508073ffffffffffffffffffffffffffffffffffffffff168373ffffffffffffffffffffffffffffffffffffffff16036108d2576040517f08c379a00000000000000000000000000000000000000000000000000000000081526004016108c9906139ef565b60405180910390fd5b8073ffffffffffffffffffffffffffffffffffffffff166108f16118ca565b73ffffffffffffffffffffffffffffffffffffffff161480610920575061091f8161091a6118ca565b61144e565b5b61095f576040517f08c379a000000000000000000000000000000000000000000000000000000000815260040161095690613a81565b60405180910390fd5b61096983836118d2565b505050565b600c8060000154908060010160009054906101000a900473ffffffffffffffffffffffffffffffffffffffff16908060020160009054906101000a900473ffffffffffffffffffffffffffffffffffffffff16908060030160009054906101000a900473ffffffffffffffffffffffffffffffffffffffff16908060040160009054906101000a900473ffffffffffffffffffffffffffffffffffffffff16905085565b610a1c828261198b565b5050565b6000600880549050905090565b610a3e610a386118ca565b826119f8565b610a7d576040517f08c379a0000000000000000000000000000000000000000000000000000000008152600401610a7490613b13565b60405180910390fd5b610a88838383611ad6565b505050565b6000610a9883611060565b8210610ad9576040517f08c379a0000000000000000000000000000000000000000000000000000000008152600401610ad090613ba5565b60405180910390fd5b600660008473ffffffffffffffffffffffffffffffffffffffff1673ffffffffffffffffffffffffffffffffffffffff168152602001908152602001600020600083815260200190815260200160002054905092915050565b610b3a6118ca565b73ffffffffffffffffffffffffffffffffffffffff16610b586111b1565b73ffffffffffffffffffffffffffffffffffffffff1614610bae576040517f08c379a0000000000000000000000000000000000000000000000000000000008152600401610ba590613c11565b60405180910390fd5b600047905060004711610bf6576040517f08c379a0000000000000000000000000000000000000000000000000000000008152600401610bed90613c7d565b60405180910390fd5b3373ffffffffffffffffffffffffffffffffffffffff166108fc829081150290604051600060405180830381858888f19350505050158015610c3c573d6000803e3d6000fd5b5050565b610c5b838383604051806020016040528060008152506113da565b505050565b6000610c6a610a20565b8210610cab576040517f08c379a0000000000000000000000000000000000000000000000000000000008152600401610ca290613d0f565b60405180910390fd5b60088281548110610cbf57610cbe613d2f565b5b90600052602060002001549050919050565b610d07600c60020160009054906101000a900473ffffffffffffffffffffffffffffffffffffffff16610d02610a20565b611d3c565b610d18610d12610a20565b8261198b565b600c60020160009054906101000a900473ffffffffffffffffffffffffffffffffffffffff1673ffffffffffffffffffffffffffffffffffffffff16631c85949c600c60020160009054906101000a900473ffffffffffffffffffffffffffffffffffffffff16846040518363ffffffff1660e01b8152600401610d9d929190613d5e565b6020604051808303816000875af1158015610dbc573d6000803e3d6000fd5b505050506040513d601f19601f82011682018060405250810190610de09190613d9c565b505050565b6000610df030611d5a565b905090565b610dfe86610faf565b73ffffffffffffffffffffffffffffffffffffffff163373ffffffffffffffffffffffffffffffffffffffff1614610e6b576040517f08c379a0000000000000000000000000000000000000000000000000000000008152600401610e6290613e15565b60405180910390fd5b600c60020160009054906101000a900473ffffffffffffffffffffffffffffffffffffffff1673ffffffffffffffffffffffffffffffffffffffff166303f5de9d878686896040518563ffffffff1660e01b8152600401610ecf9493929190613e44565b6020604051808303816000875af1158015610eee573d6000803e3d6000fd5b505050506040513d601f19601f82011682018060405250810190610f129190613d9c565b50600c60030160009054906101000a900473ffffffffffffffffffffffffffffffffffffffff1673ffffffffffffffffffffffffffffffffffffffff1663bd6af0098784846040518463ffffffff1660e01b8152600401610f7593929190613ede565b600060405180830381600087803b158015610f8f57600080fd5b505af1158015610fa3573d6000803e3d6000fd5b50505050505050505050565b6000806002600084815260200190815260200160002060009054906101000a900473ffffffffffffffffffffffffffffffffffffffff169050600073ffffffffffffffffffffffffffffffffffffffff168173ffffffffffffffffffffffffffffffffffffffff1603611057576040517f08c379a000000000000000000000000000000000000000000000000000000000815260040161104e90613f95565b60405180910390fd5b80915050919050565b60008073ffffffffffffffffffffffffffffffffffffffff168273ffffffffffffffffffffffffffffffffffffffff16036110d0576040517f08c379a00000000000000000000000000000000000000000000000000000000081526004016110c790614027565b60405180910390fd5b600360008373ffffffffffffffffffffffffffffffffffffffff1673ffffffffffffffffffffffffffffffffffffffff168152602001908152602001600020549050919050565b61111f6118ca565b73ffffffffffffffffffffffffffffffffffffffff1661113d6111b1565b73ffffffffffffffffffffffffffffffffffffffff1614611193576040517f08c379a000000000000000000000000000000000000000000000000000000000815260040161118a90613c11565b60405180910390fd5b61119d6000611e91565b565b60006111aa82610faf565b9050919050565b6000600b60009054906101000a900473ffffffffffffffffffffffffffffffffffffffff16905090565b6000600c60030160009054906101000a900473ffffffffffffffffffffffffffffffffffffffff1673ffffffffffffffffffffffffffffffffffffffff1663bd6af0098585856040518463ffffffff1660e01b815260040161123f93929190613ede565b600060405180830381600087803b15801561125957600080fd5b505af115801561126d573d6000803e3d6000fd5b50505050600190509392505050565b60606001805461128b906138ba565b80601f01602080910402602001604051908101604052809291908181526020018280546112b7906138ba565b80156113045780601f106112d957610100808354040283529160200191611304565b820191906000526020600020905b8154815290600101906020018083116112e757829003601f168201915b5050505050905090565b600080611319610a20565b90506113253382611d3c565b600c60030160009054906101000a900473ffffffffffffffffffffffffffffffffffffffff1673ffffffffffffffffffffffffffffffffffffffff1663bd6af0098286866040518463ffffffff1660e01b815260040161138793929190613ede565b600060405180830381600087803b1580156113a157600080fd5b505af11580156113b5573d6000803e3d6000fd5b50505050600191505092915050565b6113d66113cf6118ca565b8383611f57565b5050565b6113eb6113e56118ca565b836119f8565b61142a576040517f08c379a000000000000000000000000000000000000000000000000000000000815260040161142190613b13565b60405180910390fd5b611436848484846120c3565b50505050565b60606114478261211f565b9050919050565b6000600560008473ffffffffffffffffffffffffffffffffffffffff1673ffffffffffffffffffffffffffffffffffffffff16815260200190815260200160002060008373ffffffffffffffffffffffffffffffffffffffff1673ffffffffffffffffffffffffffffffffffffffff16815260200190815260200160002060009054906101000a900460ff16905092915050565b60006114ed85610faf565b73ffffffffffffffffffffffffffffffffffffffff163373ffffffffffffffffffffffffffffffffffffffff161461155a576040517f08c379a000000000000000000000000000000000000000000000000000000000815260040161155190613e15565b60405180910390fd5b600c60000154611568610a20565b10156115a9576040517f08c379a00000000000000000000000000000000000000000000000000000000081526004016115a090614093565b60405180910390fd5b600c60020160009054906101000a900473ffffffffffffffffffffffffffffffffffffffff1673ffffffffffffffffffffffffffffffffffffffff1663fe774f9d86866040518363ffffffff1660e01b81526004016116099291906140b3565b6020604051808303816000875af1158015611628573d6000803e3d6000fd5b505050506040513d601f19601f8201168201806040525081019061164c9190613d9c565b50600c60030160009054906101000a900473ffffffffffffffffffffffffffffffffffffffff1673ffffffffffffffffffffffffffffffffffffffff1663bd6af0098685856040518463ffffffff1660e01b81526004016116af93929190613ede565b600060405180830381600087803b1580156116c957600080fd5b505af11580156116dd573d6000803e3d6000fd5b5050505060019050949350505050565b6116f56118ca565b73ffffffffffffffffffffffffffffffffffffffff166117136111b1565b73ffffffffffffffffffffffffffffffffffffffff1614611769576040517f08c379a000000000000000000000000000000000000000000000000000000000815260040161176090613c11565b60405180910390fd5b600073ffffffffffffffffffffffffffffffffffffffff168173ffffffffffffffffffffffffffffffffffffffff16036117d8576040517f08c379a00000000000000000000000000000000000000000000000000000000081526004016117cf9061414e565b60405180910390fd5b6117e181611e91565b50565b60007f780e9d63000000000000000000000000000000000000000000000000000000007bffffffffffffffffffffffffffffffffffffffffffffffffffffffff1916827bffffffffffffffffffffffffffffffffffffffffffffffffffffffff19161480611857575061185682612270565b5b9050919050565b60008073ffffffffffffffffffffffffffffffffffffffff166002600084815260200190815260200160002060009054906101000a900473ffffffffffffffffffffffffffffffffffffffff1673ffffffffffffffffffffffffffffffffffffffff1614159050919050565b600033905090565b816004600083815260200190815260200160002060006101000a81548173ffffffffffffffffffffffffffffffffffffffff021916908373ffffffffffffffffffffffffffffffffffffffff160217905550808273ffffffffffffffffffffffffffffffffffffffff1661194583610faf565b73ffffffffffffffffffffffffffffffffffffffff167f8c5be1e5ebec7d5bd14f71427d1e84f3dd0314c0f7b2291e5b200ac8c7c3b92560405160405180910390a45050565b6119948261185e565b6119d3576040517f08c379a00000000000000000000000000000000000000000000000000000000081526004016119ca906141e0565b60405180910390fd5b80600a600084815260200190815260200160002090816119f391906143ac565b505050565b6000611a038261185e565b611a42576040517f08c379a0000000000000000000000000000000000000000000000000000000008152600401611a39906144f0565b60405180910390fd5b6000611a4d83610faf565b90508073ffffffffffffffffffffffffffffffffffffffff168473ffffffffffffffffffffffffffffffffffffffff161480611a8f5750611a8e818561144e565b5b80611acd57508373ffffffffffffffffffffffffffffffffffffffff16611ab5846107d2565b73ffffffffffffffffffffffffffffffffffffffff16145b91505092915050565b8273ffffffffffffffffffffffffffffffffffffffff16611af682610faf565b73ffffffffffffffffffffffffffffffffffffffff1614611b4c576040517f08c379a0000000000000000000000000000000000000000000000000000000008152600401611b4390614582565b60405180910390fd5b600073ffffffffffffffffffffffffffffffffffffffff168273ffffffffffffffffffffffffffffffffffffffff1603611bbb576040517f08c379a0000000000000000000000000000000000000000000000000000000008152600401611bb290614614565b60405180910390fd5b611bc6838383612352565b611bd16000826118d2565b6001600360008573ffffffffffffffffffffffffffffffffffffffff1673ffffffffffffffffffffffffffffffffffffffff1681526020019081526020016000206000828254611c219190614663565b925050819055506001600360008473ffffffffffffffffffffffffffffffffffffffff1673ffffffffffffffffffffffffffffffffffffffff1681526020019081526020016000206000828254611c789190614697565b92505081905550816002600083815260200190815260200160002060006101000a81548173ffffffffffffffffffffffffffffffffffffffff021916908373ffffffffffffffffffffffffffffffffffffffff160217905550808273ffffffffffffffffffffffffffffffffffffffff168473ffffffffffffffffffffffffffffffffffffffff167fddf252ad1be2c89b69c2b068fc378daa952ba7f163c4a11628f55a4df523b3ef60405160405180910390a4611d37838383612362565b505050565b611d56828260405180602001604052806000815250612367565b5050565b600080611d8b600c60040160009054906101000a900473ffffffffffffffffffffffffffffffffffffffff166123c2565b90508073ffffffffffffffffffffffffffffffffffffffff1663485cc955600c60010160009054906101000a900473ffffffffffffffffffffffffffffffffffffffff16856040518363ffffffff1660e01b8152600401611ded9291906146cb565b600060405180830381600087803b158015611e0757600080fd5b505af1158015611e1b573d6000803e3d6000fd5b5050505080600c60030160006101000a81548173ffffffffffffffffffffffffffffffffffffffff021916908373ffffffffffffffffffffffffffffffffffffffff160217905550600c60030160009054906101000a900473ffffffffffffffffffffffffffffffffffffffff16915050919050565b6000600b60009054906101000a900473ffffffffffffffffffffffffffffffffffffffff16905081600b60006101000a81548173ffffffffffffffffffffffffffffffffffffffff021916908373ffffffffffffffffffffffffffffffffffffffff1602179055508173ffffffffffffffffffffffffffffffffffffffff168173ffffffffffffffffffffffffffffffffffffffff167f8be0079c531659141344cd1fd0a4f28419497f9722a3daafe3b4186f6b6457e060405160405180910390a35050565b8173ffffffffffffffffffffffffffffffffffffffff168373ffffffffffffffffffffffffffffffffffffffff1603611fc5576040517f08c379a0000000000000000000000000000000000000000000000000000000008152600401611fbc90614740565b60405180910390fd5b80600560008573ffffffffffffffffffffffffffffffffffffffff1673ffffffffffffffffffffffffffffffffffffffff16815260200190815260200160002060008473ffffffffffffffffffffffffffffffffffffffff1673ffffffffffffffffffffffffffffffffffffffff16815260200190815260200160002060006101000a81548160ff0219169083151502179055508173ffffffffffffffffffffffffffffffffffffffff168373ffffffffffffffffffffffffffffffffffffffff167f17307eab39ab6107e8899845ad3d59bd9653f200f220920489ca2b5937696c31836040516120b69190612f98565b60405180910390a3505050565b6120ce848484611ad6565b6120da84848484612496565b612119576040517f08c379a0000000000000000000000000000000000000000000000000000000008152600401612110906147d2565b60405180910390fd5b50505050565b606061212a8261185e565b612169576040517f08c379a000000000000000000000000000000000000000000000000000000000815260040161216090614864565b60405180910390fd5b6000600a60008481526020019081526020016000208054612189906138ba565b80601f01602080910402602001604051908101604052809291908181526020018280546121b5906138ba565b80156122025780601f106121d757610100808354040283529160200191612202565b820191906000526020600020905b8154815290600101906020018083116121e557829003601f168201915b50505050509050600061221361261d565b9050600081510361222857819250505061226b565b60008251111561225d5780826040516020016122459291906148c0565b6040516020818303038152906040529250505061226b565b6122668461265a565b925050505b919050565b60007f80ac58cd000000000000000000000000000000000000000000000000000000007bffffffffffffffffffffffffffffffffffffffffffffffffffffffff1916827bffffffffffffffffffffffffffffffffffffffffffffffffffffffff1916148061233b57507f5b5e139f000000000000000000000000000000000000000000000000000000007bffffffffffffffffffffffffffffffffffffffffffffffffffffffff1916827bffffffffffffffffffffffffffffffffffffffffffffffffffffffff1916145b8061234b575061234a82612701565b5b9050919050565b61235d83838361276b565b505050565b505050565b612371838361287d565b61237e6000848484612496565b6123bd576040517f08c379a00000000000000000000000000000000000000000000000000000000081526004016123b4906147d2565b60405180910390fd5b505050565b60006040517f3d602d80600a3d3981f3363d3d373d3d3d363d7300000000000000000000000081528260601b60148201527f5af43d82803e903d91602b57fd5bf3000000000000000000000000000000000060288201526037816000f0915050600073ffffffffffffffffffffffffffffffffffffffff168173ffffffffffffffffffffffffffffffffffffffff1603612491576040517f08c379a000000000000000000000000000000000000000000000000000000000815260040161248890614930565b60405180910390fd5b919050565b60006124b78473ffffffffffffffffffffffffffffffffffffffff16612a56565b15612610578373ffffffffffffffffffffffffffffffffffffffff1663150b7a026124e06118ca565b8786866040518563ffffffff1660e01b81526004016125029493929190614950565b6020604051808303816000875af192505050801561253e57506040513d601f19601f8201168201806040525081019061253b91906149b1565b60015b6125c0573d806000811461256e576040519150601f19603f3d011682016040523d82523d6000602084013e612573565b606091505b5060008151036125b8576040517f08c379a00000000000000000000000000000000000000000000000000000000081526004016125af906147d2565b60405180910390fd5b805181602001fd5b63150b7a0260e01b7bffffffffffffffffffffffffffffffffffffffffffffffffffffffff1916817bffffffffffffffffffffffffffffffffffffffffffffffffffffffff191614915050612615565b600190505b949350505050565b60606040518060400160405280601581526020017f68747470733a2f2f697066732e696f2f697066732f0000000000000000000000815250905090565b60606126658261185e565b6126a4576040517f08c379a000000000000000000000000000000000000000000000000000000000815260040161269b90614a50565b60405180910390fd5b60006126ae61261d565b905060008151116126ce57604051806020016040528060008152506126f9565b806126d884612a79565b6040516020016126e99291906148c0565b6040516020818303038152906040525b915050919050565b60007f01ffc9a7000000000000000000000000000000000000000000000000000000007bffffffffffffffffffffffffffffffffffffffffffffffffffffffff1916827bffffffffffffffffffffffffffffffffffffffffffffffffffffffff1916149050919050565b612776838383612bd9565b600073ffffffffffffffffffffffffffffffffffffffff168373ffffffffffffffffffffffffffffffffffffffff16036127b8576127b381612bde565b6127f7565b8173ffffffffffffffffffffffffffffffffffffffff168373ffffffffffffffffffffffffffffffffffffffff16146127f6576127f58382612c27565b5b5b600073ffffffffffffffffffffffffffffffffffffffff168273ffffffffffffffffffffffffffffffffffffffff16036128395761283481612d94565b612878565b8273ffffffffffffffffffffffffffffffffffffffff168273ffffffffffffffffffffffffffffffffffffffff1614612877576128768282612e65565b5b5b505050565b600073ffffffffffffffffffffffffffffffffffffffff168273ffffffffffffffffffffffffffffffffffffffff16036128ec576040517f08c379a00000000000000000000000000000000000000000000000000000000081526004016128e390614abc565b60405180910390fd5b6128f58161185e565b15612935576040517f08c379a000000000000000000000000000000000000000000000000000000000815260040161292c90614b28565b60405180910390fd5b61294160008383612352565b6001600360008473ffffffffffffffffffffffffffffffffffffffff1673ffffffffffffffffffffffffffffffffffffffff16815260200190815260200160002060008282546129919190614697565b92505081905550816002600083815260200190815260200160002060006101000a81548173ffffffffffffffffffffffffffffffffffffffff021916908373ffffffffffffffffffffffffffffffffffffffff160217905550808273ffffffffffffffffffffffffffffffffffffffff16600073ffffffffffffffffffffffffffffffffffffffff167fddf252ad1be2c89b69c2b068fc378daa952ba7f163c4a11628f55a4df523b3ef60405160405180910390a4612a5260008383612362565b5050565b6000808273ffffffffffffffffffffffffffffffffffffffff163b119050919050565b606060008203612ac0576040518060400160405280600181526020017f30000000000000000000000000000000000000000000000000000000000000008152509050612bd4565b600082905060005b60008214612af2578080612adb90614b48565b915050600a82612aeb9190614bbf565b9150612ac8565b60008167ffffffffffffffff811115612b0e57612b0d6131fc565b5b6040519080825280601f01601f191660200182016040528015612b405781602001600182028036833780820191505090505b5090505b60008514612bcd57600182612b599190614663565b9150600a85612b689190614bf0565b6030612b749190614697565b60f81b818381518110612b8a57612b89613d2f565b5b60200101907effffffffffffffffffffffffffffffffffffffffffffffffffffffffffffff1916908160001a905350600a85612bc69190614bbf565b9450612b44565b8093505050505b919050565b505050565b6008805490506009600083815260200190815260200160002081905550600881908060018154018082558091505060019003906000526020600020016000909190919091505550565b60006001612c3484611060565b612c3e9190614663565b9050600060076000848152602001908152602001600020549050818114612d23576000600660008673ffffffffffffffffffffffffffffffffffffffff1673ffffffffffffffffffffffffffffffffffffffff168152602001908152602001600020600084815260200190815260200160002054905080600660008773ffffffffffffffffffffffffffffffffffffffff1673ffffffffffffffffffffffffffffffffffffffff168152602001908152602001600020600084815260200190815260200160002081905550816007600083815260200190815260200160002081905550505b6007600084815260200190815260200160002060009055600660008573ffffffffffffffffffffffffffffffffffffffff1673ffffffffffffffffffffffffffffffffffffffff16815260200190815260200160002060008381526020019081526020016000206000905550505050565b60006001600880549050612da89190614663565b9050600060096000848152602001908152602001600020549050600060088381548110612dd857612dd7613d2f565b5b906000526020600020015490508060088381548110612dfa57612df9613d2f565b5b906000526020600020018190555081600960008381526020019081526020016000208190555060096000858152602001908152602001600020600090556008805480612e4957612e48614c21565b5b6001900381819060005260206000200160009055905550505050565b6000612e7083611060565b905081600660008573ffffffffffffffffffffffffffffffffffffffff1673ffffffffffffffffffffffffffffffffffffffff168152602001908152602001600020600083815260200190815260200160002081905550806007600084815260200190815260200160002081905550505050565b6000604051905090565b600080fd5b600080fd5b60007fffffffff0000000000000000000000000000000000000000000000000000000082169050919050565b612f2d81612ef8565b8114612f3857600080fd5b50565b600081359050612f4a81612f24565b92915050565b600060208284031215612f6657612f65612eee565b5b6000612f7484828501612f3b565b91505092915050565b60008115159050919050565b612f9281612f7d565b82525050565b6000602082019050612fad6000830184612f89565b92915050565b600081519050919050565b600082825260208201905092915050565b60005b83811015612fed578082015181840152602081019050612fd2565b60008484015250505050565b6000601f19601f8301169050919050565b600061301582612fb3565b61301f8185612fbe565b935061302f818560208601612fcf565b61303881612ff9565b840191505092915050565b6000602082019050818103600083015261305d818461300a565b905092915050565b6000819050919050565b61307881613065565b811461308357600080fd5b50565b6000813590506130958161306f565b92915050565b6000602082840312156130b1576130b0612eee565b5b60006130bf84828501613086565b91505092915050565b600073ffffffffffffffffffffffffffffffffffffffff82169050919050565b60006130f3826130c8565b9050919050565b613103816130e8565b82525050565b600060208201905061311e60008301846130fa565b92915050565b61312d816130e8565b811461313857600080fd5b50565b60008135905061314a81613124565b92915050565b6000806040838503121561316757613166612eee565b5b60006131758582860161313b565b925050602061318685828601613086565b9150509250929050565b61319981613065565b82525050565b600060a0820190506131b46000830188613190565b6131c160208301876130fa565b6131ce60408301866130fa565b6131db60608301856130fa565b6131e860808301846130fa565b9695505050505050565b600080fd5b600080fd5b7f4e487b7100000000000000000000000000000000000000000000000000000000600052604160045260246000fd5b61323482612ff9565b810181811067ffffffffffffffff82111715613253576132526131fc565b5b80604052505050565b6000613266612ee4565b9050613272828261322b565b919050565b600067ffffffffffffffff821115613292576132916131fc565b5b61329b82612ff9565b9050602081019050919050565b82818337600083830152505050565b60006132ca6132c584613277565b61325c565b9050828152602081018484840111156132e6576132e56131f7565b5b6132f18482856132a8565b509392505050565b600082601f83011261330e5761330d6131f2565b5b813561331e8482602086016132b7565b91505092915050565b6000806040838503121561333e5761333d612eee565b5b600061334c85828601613086565b925050602083013567ffffffffffffffff81111561336d5761336c612ef3565b5b613379858286016132f9565b9150509250929050565b60006020820190506133986000830184613190565b92915050565b6000806000606084860312156133b7576133b6612eee565b5b60006133c58682870161313b565b93505060206133d68682870161313b565b92505060406133e786828701613086565b9150509250925092565b6000819050919050565b613404816133f1565b811461340f57600080fd5b50565b600081359050613421816133fb565b92915050565b600067ffffffffffffffff821115613442576134416131fc565b5b61344b82612ff9565b9050602081019050919050565b600061346b61346684613427565b61325c565b905082815260208101848484011115613487576134866131f7565b5b6134928482856132a8565b509392505050565b600082601f8301126134af576134ae6131f2565b5b81356134bf848260208601613458565b91505092915050565b60008060008060008060c087890312156134e5576134e4612eee565b5b60006134f389828a01613086565b965050602061350489828a01613412565b955050604061351589828a01613086565b945050606061352689828a01613086565b935050608087013567ffffffffffffffff81111561354757613546612ef3565b5b61355389828a016132f9565b92505060a087013567ffffffffffffffff81111561357457613573612ef3565b5b61358089828a0161349a565b9150509295509295509295565b6000602082840312156135a3576135a2612eee565b5b60006135b18482850161313b565b91505092915050565b6000806000606084860312156135d3576135d2612eee565b5b60006135e186828701613086565b935050602084013567ffffffffffffffff81111561360257613601612ef3565b5b61360e868287016132f9565b925050604084013567ffffffffffffffff81111561362f5761362e612ef3565b5b61363b8682870161349a565b9150509250925092565b6000806040838503121561365c5761365b612eee565b5b600083013567ffffffffffffffff81111561367a57613679612ef3565b5b613686858286016132f9565b925050602083013567ffffffffffffffff8111156136a7576136a6612ef3565b5b6136b38582860161349a565b9150509250929050565b6136c681612f7d565b81146136d157600080fd5b50565b6000813590506136e3816136bd565b92915050565b60008060408385031215613700576136ff612eee565b5b600061370e8582860161313b565b925050602061371f858286016136d4565b9150509250929050565b6000806000806080858703121561374357613742612eee565b5b60006137518782880161313b565b94505060206137628782880161313b565b935050604061377387828801613086565b925050606085013567ffffffffffffffff81111561379457613793612ef3565b5b6137a08782880161349a565b91505092959194509250565b600080604083850312156137c3576137c2612eee565b5b60006137d18582860161313b565b92505060206137e28582860161313b565b9150509250929050565b6000806000806080858703121561380657613805612eee565b5b600061381487828801613086565b945050602061382587828801613412565b935050604085013567ffffffffffffffff81111561384657613845612ef3565b5b613852878288016132f9565b925050606085013567ffffffffffffffff81111561387357613872612ef3565b5b61387f8782880161349a565b91505092959194509250565b7f4e487b7100000000000000000000000000000000000000000000000000000000600052602260045260246000fd5b600060028204905060018216806138d257607f821691505b6020821081036138e5576138e461388b565b5b50919050565b7f4552433732313a20617070726f76656420717565727920666f72206e6f6e657860008201527f697374656e7420746f6b656e0000000000000000000000000000000000000000602082015250565b6000613947602c83612fbe565b9150613952826138eb565b604082019050919050565b600060208201905081810360008301526139768161393a565b9050919050565b7f4552433732313a20617070726f76616c20746f2063757272656e74206f776e6560008201527f7200000000000000000000000000000000000000000000000000000000000000602082015250565b60006139d9602183612fbe565b91506139e48261397d565b604082019050919050565b60006020820190508181036000830152613a08816139cc565b9050919050565b7f4552433732313a20617070726f76652063616c6c6572206973206e6f74206f7760008201527f6e6572206e6f7220617070726f76656420666f7220616c6c0000000000000000602082015250565b6000613a6b603883612fbe565b9150613a7682613a0f565b604082019050919050565b60006020820190508181036000830152613a9a81613a5e565b9050919050565b7f4552433732313a207472616e736665722063616c6c6572206973206e6f74206f60008201527f776e6572206e6f7220617070726f766564000000000000000000000000000000602082015250565b6000613afd603183612fbe565b9150613b0882613aa1565b604082019050919050565b60006020820190508181036000830152613b2c81613af0565b9050919050565b7f455243373231456e756d657261626c653a206f776e657220696e646578206f7560008201527f74206f6620626f756e6473000000000000000000000000000000000000000000602082015250565b6000613b8f602b83612fbe565b9150613b9a82613b33565b604082019050919050565b60006020820190508181036000830152613bbe81613b82565b9050919050565b7f4f776e61626c653a2063616c6c6572206973206e6f7420746865206f776e6572600082015250565b6000613bfb602083612fbe565b9150613c0682613bc5565b602082019050919050565b60006020820190508181036000830152613c2a81613bee565b9050919050565b7f4e6f2062616c616e636520746f20776974686472617700000000000000000000600082015250565b6000613c67601683612fbe565b9150613c7282613c31565b602082019050919050565b60006020820190508181036000830152613c9681613c5a565b9050919050565b7f455243373231456e756d657261626c653a20676c6f62616c20696e646578206f60008201527f7574206f6620626f756e64730000000000000000000000000000000000000000602082015250565b6000613cf9602c83612fbe565b9150613d0482613c9d565b604082019050919050565b60006020820190508181036000830152613d2881613cec565b9050919050565b7f4e487b7100000000000000000000000000000000000000000000000000000000600052603260045260246000fd5b6000604082019050613d7360008301856130fa565b613d806020830184613190565b9392505050565b600081519050613d96816136bd565b92915050565b600060208284031215613db257613db1612eee565b5b6000613dc084828501613d87565b91505092915050565b7f43616c6c6572206973206e6f74206f776e6572206f66206e7574000000000000600082015250565b6000613dff601a83612fbe565b9150613e0a82613dc9565b602082019050919050565b60006020820190508181036000830152613e2e81613df2565b9050919050565b613e3e816133f1565b82525050565b6000608082019050613e596000830187613190565b613e666020830186613190565b613e736040830185613190565b613e806060830184613e35565b95945050505050565b600081519050919050565b600082825260208201905092915050565b6000613eb082613e89565b613eba8185613e94565b9350613eca818560208601612fcf565b613ed381612ff9565b840191505092915050565b6000606082019050613ef36000830186613190565b8181036020830152613f05818561300a565b90508181036040830152613f198184613ea5565b9050949350505050565b7f4552433732313a206f776e657220717565727920666f72206e6f6e657869737460008201527f656e7420746f6b656e0000000000000000000000000000000000000000000000602082015250565b6000613f7f602983612fbe565b9150613f8a82613f23565b604082019050919050565b60006020820190508181036000830152613fae81613f72565b9050919050565b7f4552433732313a2062616c616e636520717565727920666f7220746865207a6560008201527f726f206164647265737300000000000000000000000000000000000000000000602082015250565b6000614011602a83612fbe565b915061401c82613fb5565b604082019050919050565b6000602082019050818103600083015261404081614004565b9050919050565b7f4e757473207374696c6c2065786973742066726f6d206372656174696f6e0000600082015250565b600061407d601e83612fbe565b915061408882614047565b602082019050919050565b600060208201905081810360008301526140ac81614070565b9050919050565b60006040820190506140c86000830185613190565b6140d56020830184613e35565b9392505050565b7f4f776e61626c653a206e6577206f776e657220697320746865207a65726f206160008201527f6464726573730000000000000000000000000000000000000000000000000000602082015250565b6000614138602683612fbe565b9150614143826140dc565b604082019050919050565b600060208201905081810360008301526141678161412b565b9050919050565b7f45524337323155524953746f726167653a2055524920736574206f66206e6f6e60008201527f6578697374656e7420746f6b656e000000000000000000000000000000000000602082015250565b60006141ca602e83612fbe565b91506141d58261416e565b604082019050919050565b600060208201905081810360008301526141f9816141bd565b9050919050565b60008190508160005260206000209050919050565b60006020601f8301049050919050565b600082821b905092915050565b6000600883026142627fffffffffffffffffffffffffffffffffffffffffffffffffffffffffffffffff82614225565b61426c8683614225565b95508019841693508086168417925050509392505050565b6000819050919050565b60006142a96142a461429f84613065565b614284565b613065565b9050919050565b6000819050919050565b6142c38361428e565b6142d76142cf826142b0565b848454614232565b825550505050565b600090565b6142ec6142df565b6142f78184846142ba565b505050565b5b8181101561431b576143106000826142e4565b6001810190506142fd565b5050565b601f8211156143605761433181614200565b61433a84614215565b81016020851015614349578190505b61435d61435585614215565b8301826142fc565b50505b505050565b600082821c905092915050565b600061438360001984600802614365565b1980831691505092915050565b600061439c8383614372565b9150826002028217905092915050565b6143b582612fb3565b67ffffffffffffffff8111156143ce576143cd6131fc565b5b6143d882546138ba565b6143e382828561431f565b600060209050601f8311600181146144165760008415614404578287015190505b61440e8582614390565b865550614476565b601f19841661442486614200565b60005b8281101561444c57848901518255600182019150602085019450602081019050614427565b868310156144695784890151614465601f891682614372565b8355505b6001600288020188555050505b505050505050565b7f4552433732313a206f70657261746f7220717565727920666f72206e6f6e657860008201527f697374656e7420746f6b656e0000000000000000000000000000000000000000602082015250565b60006144da602c83612fbe565b91506144e58261447e565b604082019050919050565b60006020820190508181036000830152614509816144cd565b9050919050565b7f4552433732313a207472616e736665722066726f6d20696e636f72726563742060008201527f6f776e6572000000000000000000000000000000000000000000000000000000602082015250565b600061456c602583612fbe565b915061457782614510565b604082019050919050565b6000602082019050818103600083015261459b8161455f565b9050919050565b7f4552433732313a207472616e7366657220746f20746865207a65726f2061646460008201527f7265737300000000000000000000000000000000000000000000000000000000602082015250565b60006145fe602483612fbe565b9150614609826145a2565b604082019050919050565b6000602082019050818103600083015261462d816145f1565b9050919050565b7f4e487b7100000000000000000000000000000000000000000000000000000000600052601160045260246000fd5b600061466e82613065565b915061467983613065565b925082820390508181111561469157614690614634565b5b92915050565b60006146a282613065565b91506146ad83613065565b92508282019050808211156146c5576146c4614634565b5b92915050565b60006040820190506146e060008301856130fa565b6146ed60208301846130fa565b9392505050565b7f4552433732313a20617070726f766520746f2063616c6c657200000000000000600082015250565b600061472a601983612fbe565b9150614735826146f4565b602082019050919050565b600060208201905081810360008301526147598161471d565b9050919050565b7f4552433732313a207472616e7366657220746f206e6f6e20455243373231526560008201527f63656976657220696d706c656d656e7465720000000000000000000000000000602082015250565b60006147bc603283612fbe565b91506147c782614760565b604082019050919050565b600060208201905081810360008301526147eb816147af565b9050919050565b7f45524337323155524953746f726167653a2055524920717565727920666f722060008201527f6e6f6e6578697374656e7420746f6b656e000000000000000000000000000000602082015250565b600061484e603183612fbe565b9150614859826147f2565b604082019050919050565b6000602082019050818103600083015261487d81614841565b9050919050565b600081905092915050565b600061489a82612fb3565b6148a48185614884565b93506148b4818560208601612fcf565b80840191505092915050565b60006148cc828561488f565b91506148d8828461488f565b91508190509392505050565b7f455243313136373a20637265617465206661696c656400000000000000000000600082015250565b600061491a601683612fbe565b9150614925826148e4565b602082019050919050565b600060208201905081810360008301526149498161490d565b9050919050565b600060808201905061496560008301876130fa565b61497260208301866130fa565b61497f6040830185613190565b81810360608301526149918184613ea5565b905095945050505050565b6000815190506149ab81612f24565b92915050565b6000602082840312156149c7576149c6612eee565b5b60006149d58482850161499c565b91505092915050565b7f4552433732314d657461646174613a2055524920717565727920666f72206e6f60008201527f6e6578697374656e7420746f6b656e0000000000000000000000000000000000602082015250565b6000614a3a602f83612fbe565b9150614a45826149de565b604082019050919050565b60006020820190508181036000830152614a6981614a2d565b9050919050565b7f4552433732313a206d696e7420746f20746865207a65726f2061646472657373600082015250565b6000614aa6602083612fbe565b9150614ab182614a70565b602082019050919050565b60006020820190508181036000830152614ad581614a99565b9050919050565b7f4552433732313a20746f6b656e20616c7265616479206d696e74656400000000600082015250565b6000614b12601c83612fbe565b9150614b1d82614adc565b602082019050919050565b60006020820190508181036000830152614b4181614b05565b9050919050565b6000614b5382613065565b91507fffffffffffffffffffffffffffffffffffffffffffffffffffffffffffffffff8203614b8557614b84614634565b5b600182019050919050565b7f4e487b7100000000000000000000000000000000000000000000000000000000600052601260045260246000fd5b6000614bca82613065565b9150614bd583613065565b925082614be557614be4614b90565b5b828204905092915050565b6000614bfb82613065565b9150614c0683613065565b925082614c1657614c15614b90565b5b828206905092915050565b7f4e487b7100000000000000000000000000000000000000000000000000000000600052603160045260246000fdfea26469706673582212201f0e177966709f9dedd95db3f87f402fd6afaa5477e12f29ce31aeeccc5e9f9564736f6c63430008110033",
  "immutableReferences": {},
  "source": "// SPDX-License-Identifier: MIT\npragma solidity ^0.8.7;\n\nimport \"./CosmoCreation.sol\";\nimport \"./ICosmoNuts.sol\";\nimport \"./ICosmoVault.sol\";\n\n/**\n * Main Contract for the NFT tokens.\n * System address resembles the public address of the software application.\n */\n contract CosmoNuts is CosmoCreation, ICosmoNuts {\n\n    using ECDSA for bytes32;\n\n    constructor(\n        string memory _name,\n        string memory _symbol,\n        uint256 _initialNFTSupply,\n        address _systemAddress,\n        address _treasuryAddress\n    )\n        CosmoCreation(_name, _symbol, _initialNFTSupply, _systemAddress, _treasuryAddress)\n    {}\n\n    function setTokenURI(uint256 _nutId, string memory _nutCID) external virtual override {\n        _setTokenURI(_nutId, _nutCID);\n    }\n\n    function getOwnerOf(uint256 _nutId) public view virtual override returns (address) {\n        return ownerOf(_nutId);\n    }\n\n    function createVault() external virtual override returns (address) {\n        return openVault(address(this));\n    }\n\n    // only system address?\n    function withdraw() public onlyOwner {\n        uint256 balance = address(this).balance;\n        require(address(this).balance > 0 wei, \"No balance to withdraw\");\n        payable(msg.sender).transfer(balance);\n    }\n\n    /*\n     * Called from CosmoSeed to mint a new Nut\n     */\n    function createNut(\n        string memory _cidPath,\n        bytes memory _signature\n    ) external virtual override returns (bool) {\n        uint256 mintIndex = totalSupply();\n        _safeMint(msg.sender, mintIndex);\n        ICosmoVault(creation.vault).changeTokenURI(\n            mintIndex, _cidPath, _signature\n        );\n        return true;\n    }\n\n    /**\n     * Function callable by Nut owner to create a seed which has the potential to turn into a new Nut.\n     * Requires the input of a secretHash and a specified amount of Ether to create.\n     * A required level of matter must be burned which is equal to the amount of seeds you have in Universe\n     * multiplied by the matterRate.\n     */\n    function createSeed(\n        uint256 _nutId,\n        bytes32 _secretHash,\n        string memory _cidPath,\n        bytes memory _signature\n        )\n        public payable returns (bool) {\n            require(address(msg.sender) == ownerOf(_nutId), \"Caller is not owner of nut\");\n            require(totalSupply() >= creation.initialSupply, \"Nuts still exist from creation\");\n\n            ICosmoTreasury(creation.treasury).spawnSeed(_nutId, _secretHash);\n            ICosmoVault(creation.vault).changeTokenURI(\n                _nutId, _cidPath, _signature\n            );\n\n            return true;\n    }\n\n    /**\n     * Function callable by Nut owner to create a matter faucet which allows other users to draw matter\n     * Creation requires a secret hash that must be known to suppy matter\n     * Creation requires input of total number of matter in contract and the amount each user can draw at a single time\n     * Drawing any amount of matter results in the creation of new supply of matter\n     * In creating the faucet, the creator replenishes the accounts of other nut holders (tax on system to create message)\n     * Caller will also receive matter if others call on this function\n     */\n    function createButter(\n        uint256 _nutId,\n        bytes32 _secretHash,\n        uint256 _matterContributed,\n        uint256 _matterDrawRate,\n        string memory _cidPath,\n        bytes memory _signature\n    ) public {\n        require(address(msg.sender) == ownerOf(_nutId), \"Caller is not owner of nut\");\n        ICosmoTreasury(creation.treasury).newButter(_nutId, _matterContributed, _matterDrawRate, _secretHash);\n        ICosmoVault(creation.vault).changeTokenURI(\n            _nutId, _cidPath, _signature\n        );\n    }\n\n    /**\n     * Called by CosmoButter when some matter is drawn from the contract.\n     */\n    function spreadButter(\n        uint256 _tokenId,\n        string memory _cidPath,\n        bytes memory _signature\n        ) external virtual override returns (bool) {\n        ICosmoVault(creation.vault).changeTokenURI(\n            _tokenId, _cidPath, _signature\n        );\n        return true;\n    }\n\n}\n",
  "sourcePath": "/home/redlentils/Seafile/Websites/avatarnft/contracts/CosmoNuts.sol",
  "compiler": {
    "name": "solc",
    "version": "0.8.17+commit.8df45f5f.Emscripten.clang"
  },
  "schemaVersion": "3.4.10",
  "updatedAt": "2022-10-18T17:34:28.729Z",
  "devdoc": {
    "kind": "dev",
    "methods": {
      "approve(address,uint256)": {
        "details": "See {IERC721-approve}."
      },
      "balanceOf(address)": {
        "details": "See {IERC721-balanceOf}."
      },
      "getApproved(uint256)": {
        "details": "See {IERC721-getApproved}."
      },
      "isApprovedForAll(address,address)": {
        "details": "See {IERC721-isApprovedForAll}."
      },
      "name()": {
        "details": "See {IERC721Metadata-name}."
      },
      "owner()": {
        "details": "Returns the address of the current owner."
      },
      "ownerOf(uint256)": {
        "details": "See {IERC721-ownerOf}."
      },
      "renounceOwnership()": {
        "details": "Leaves the contract without owner. It will not be possible to call `onlyOwner` functions anymore. Can only be called by the current owner. NOTE: Renouncing ownership will leave the contract without an owner, thereby removing any functionality that is only available to the owner."
      },
      "safeTransferFrom(address,address,uint256)": {
        "details": "See {IERC721-safeTransferFrom}."
      },
      "safeTransferFrom(address,address,uint256,bytes)": {
        "details": "See {IERC721-safeTransferFrom}."
      },
      "setApprovalForAll(address,bool)": {
        "details": "See {IERC721-setApprovalForAll}."
      },
      "symbol()": {
        "details": "See {IERC721Metadata-symbol}."
      },
      "tokenByIndex(uint256)": {
        "details": "See {IERC721Enumerable-tokenByIndex}."
      },
      "tokenOfOwnerByIndex(address,uint256)": {
        "details": "See {IERC721Enumerable-tokenOfOwnerByIndex}."
      },
      "totalSupply()": {
        "details": "See {IERC721Enumerable-totalSupply}."
      },
      "transferFrom(address,address,uint256)": {
        "details": "See {IERC721-transferFrom}."
      },
      "transferOwnership(address)": {
        "details": "Transfers ownership of the contract to a new account (`newOwner`). Can only be called by the current owner."
      }
    },
    "version": 1
  },
  "userdoc": {
    "kind": "user",
    "methods": {
      "createButter(uint256,bytes32,uint256,uint256,string,bytes)": {
        "notice": "Function callable by Nut owner to create a matter faucet which allows other users to draw matter Creation requires a secret hash that must be known to suppy matter Creation requires input of total number of matter in contract and the amount each user can draw at a single time Drawing any amount of matter results in the creation of new supply of matter In creating the faucet, the creator replenishes the accounts of other nut holders (tax on system to create message) Caller will also receive matter if others call on this function"
      },
      "createSeed(uint256,bytes32,string,bytes)": {
        "notice": "Function callable by Nut owner to create a seed which has the potential to turn into a new Nut. Requires the input of a secretHash and a specified amount of Ether to create. A required level of matter must be burned which is equal to the amount of seeds you have in Universe multiplied by the matterRate."
      },
      "spreadButter(uint256,string,bytes)": {
        "notice": "Called by CosmoButter when some matter is drawn from the contract."
      }
    },
    "notice": "Main Contract for the NFT tokens. System address resembles the public address of the software application.",
    "version": 1
  }
}