{
  "contractName": "CosmoNuts",
  "abi": [
    {
      "inputs": [
        {
          "internalType": "string",
          "name": "_name",
          "type": "string"
        },
        {
          "internalType": "string",
          "name": "_symbol",
          "type": "string"
        },
        {
          "internalType": "uint256",
          "name": "_initialNFTSupply",
          "type": "uint256"
        },
        {
          "internalType": "address",
          "name": "_systemAddress",
          "type": "address"
        },
        {
          "internalType": "address",
          "name": "_vaultAddress",
          "type": "address"
        }
      ],
      "stateMutability": "nonpayable",
      "type": "constructor"
    },
    {
      "anonymous": false,
      "inputs": [
        {
          "indexed": true,
          "internalType": "address",
          "name": "owner",
          "type": "address"
        },
        {
          "indexed": true,
          "internalType": "address",
          "name": "approved",
          "type": "address"
        },
        {
          "indexed": true,
          "internalType": "uint256",
          "name": "tokenId",
          "type": "uint256"
        }
      ],
      "name": "Approval",
      "type": "event"
    },
    {
      "anonymous": false,
      "inputs": [
        {
          "indexed": true,
          "internalType": "address",
          "name": "owner",
          "type": "address"
        },
        {
          "indexed": true,
          "internalType": "address",
          "name": "operator",
          "type": "address"
        },
        {
          "indexed": false,
          "internalType": "bool",
          "name": "approved",
          "type": "bool"
        }
      ],
      "name": "ApprovalForAll",
      "type": "event"
    },
    {
      "anonymous": false,
      "inputs": [
        {
          "indexed": true,
          "internalType": "address",
          "name": "previousOwner",
          "type": "address"
        },
        {
          "indexed": true,
          "internalType": "address",
          "name": "newOwner",
          "type": "address"
        }
      ],
      "name": "OwnershipTransferred",
      "type": "event"
    },
    {
      "anonymous": false,
      "inputs": [
        {
          "indexed": true,
          "internalType": "address",
          "name": "from",
          "type": "address"
        },
        {
          "indexed": true,
          "internalType": "address",
          "name": "to",
          "type": "address"
        },
        {
          "indexed": true,
          "internalType": "uint256",
          "name": "tokenId",
          "type": "uint256"
        }
      ],
      "name": "Transfer",
      "type": "event"
    },
    {
      "inputs": [],
      "name": "INITIAL_NUTS",
      "outputs": [
        {
          "internalType": "uint256",
          "name": "",
          "type": "uint256"
        }
      ],
      "stateMutability": "view",
      "type": "function"
    },
    {
      "inputs": [
        {
          "internalType": "address",
          "name": "to",
          "type": "address"
        },
        {
          "internalType": "uint256",
          "name": "tokenId",
          "type": "uint256"
        }
      ],
      "name": "approve",
      "outputs": [],
      "stateMutability": "nonpayable",
      "type": "function"
    },
    {
      "inputs": [
        {
          "internalType": "address",
          "name": "owner",
          "type": "address"
        }
      ],
      "name": "balanceOf",
      "outputs": [
        {
          "internalType": "uint256",
          "name": "",
          "type": "uint256"
        }
      ],
      "stateMutability": "view",
      "type": "function"
    },
    {
      "inputs": [
        {
          "internalType": "uint256",
          "name": "tokenId",
          "type": "uint256"
        }
      ],
      "name": "getApproved",
      "outputs": [
        {
          "internalType": "address",
          "name": "",
          "type": "address"
        }
      ],
      "stateMutability": "view",
      "type": "function"
    },
    {
      "inputs": [
        {
          "internalType": "address",
          "name": "owner",
          "type": "address"
        },
        {
          "internalType": "address",
          "name": "operator",
          "type": "address"
        }
      ],
      "name": "isApprovedForAll",
      "outputs": [
        {
          "internalType": "bool",
          "name": "",
          "type": "bool"
        }
      ],
      "stateMutability": "view",
      "type": "function"
    },
    {
      "inputs": [
        {
          "internalType": "string",
          "name": "_nutCID",
          "type": "string"
        }
      ],
      "name": "mintNut",
      "outputs": [],
      "stateMutability": "payable",
      "type": "function"
    },
    {
      "inputs": [],
      "name": "name",
      "outputs": [
        {
          "internalType": "string",
          "name": "",
          "type": "string"
        }
      ],
      "stateMutability": "view",
      "type": "function"
    },
    {
      "inputs": [],
      "name": "owner",
      "outputs": [
        {
          "internalType": "address",
          "name": "",
          "type": "address"
        }
      ],
      "stateMutability": "view",
      "type": "function"
    },
    {
      "inputs": [
        {
          "internalType": "uint256",
          "name": "tokenId",
          "type": "uint256"
        }
      ],
      "name": "ownerOf",
      "outputs": [
        {
          "internalType": "address",
          "name": "",
          "type": "address"
        }
      ],
      "stateMutability": "view",
      "type": "function"
    },
    {
      "inputs": [],
      "name": "renounceOwnership",
      "outputs": [],
      "stateMutability": "nonpayable",
      "type": "function"
    },
    {
      "inputs": [
        {
          "internalType": "address",
          "name": "from",
          "type": "address"
        },
        {
          "internalType": "address",
          "name": "to",
          "type": "address"
        },
        {
          "internalType": "uint256",
          "name": "tokenId",
          "type": "uint256"
        }
      ],
      "name": "safeTransferFrom",
      "outputs": [],
      "stateMutability": "nonpayable",
      "type": "function"
    },
    {
      "inputs": [
        {
          "internalType": "address",
          "name": "from",
          "type": "address"
        },
        {
          "internalType": "address",
          "name": "to",
          "type": "address"
        },
        {
          "internalType": "uint256",
          "name": "tokenId",
          "type": "uint256"
        },
        {
          "internalType": "bytes",
          "name": "_data",
          "type": "bytes"
        }
      ],
      "name": "safeTransferFrom",
      "outputs": [],
      "stateMutability": "nonpayable",
      "type": "function"
    },
    {
      "inputs": [],
      "name": "saleIsActive",
      "outputs": [
        {
          "internalType": "bool",
          "name": "",
          "type": "bool"
        }
      ],
      "stateMutability": "view",
      "type": "function"
    },
    {
      "inputs": [
        {
          "internalType": "address",
          "name": "operator",
          "type": "address"
        },
        {
          "internalType": "bool",
          "name": "approved",
          "type": "bool"
        }
      ],
      "name": "setApprovalForAll",
      "outputs": [],
      "stateMutability": "nonpayable",
      "type": "function"
    },
    {
      "inputs": [
        {
          "internalType": "bytes4",
          "name": "interfaceId",
          "type": "bytes4"
        }
      ],
      "name": "supportsInterface",
      "outputs": [
        {
          "internalType": "bool",
          "name": "",
          "type": "bool"
        }
      ],
      "stateMutability": "view",
      "type": "function"
    },
    {
      "inputs": [],
      "name": "symbol",
      "outputs": [
        {
          "internalType": "string",
          "name": "",
          "type": "string"
        }
      ],
      "stateMutability": "view",
      "type": "function"
    },
    {
      "inputs": [
        {
          "internalType": "uint256",
          "name": "index",
          "type": "uint256"
        }
      ],
      "name": "tokenByIndex",
      "outputs": [
        {
          "internalType": "uint256",
          "name": "",
          "type": "uint256"
        }
      ],
      "stateMutability": "view",
      "type": "function"
    },
    {
      "inputs": [
        {
          "internalType": "address",
          "name": "owner",
          "type": "address"
        },
        {
          "internalType": "uint256",
          "name": "index",
          "type": "uint256"
        }
      ],
      "name": "tokenOfOwnerByIndex",
      "outputs": [
        {
          "internalType": "uint256",
          "name": "",
          "type": "uint256"
        }
      ],
      "stateMutability": "view",
      "type": "function"
    },
    {
      "inputs": [
        {
          "internalType": "uint256",
          "name": "tokenId",
          "type": "uint256"
        }
      ],
      "name": "tokenURI",
      "outputs": [
        {
          "internalType": "string",
          "name": "",
          "type": "string"
        }
      ],
      "stateMutability": "view",
      "type": "function"
    },
    {
      "inputs": [],
      "name": "totalNuts",
      "outputs": [
        {
          "internalType": "uint256",
          "name": "",
          "type": "uint256"
        }
      ],
      "stateMutability": "view",
      "type": "function"
    },
    {
      "inputs": [],
      "name": "totalSupply",
      "outputs": [
        {
          "internalType": "uint256",
          "name": "",
          "type": "uint256"
        }
      ],
      "stateMutability": "view",
      "type": "function"
    },
    {
      "inputs": [
        {
          "internalType": "address",
          "name": "from",
          "type": "address"
        },
        {
          "internalType": "address",
          "name": "to",
          "type": "address"
        },
        {
          "internalType": "uint256",
          "name": "tokenId",
          "type": "uint256"
        }
      ],
      "name": "transferFrom",
      "outputs": [],
      "stateMutability": "nonpayable",
      "type": "function"
    },
    {
      "inputs": [
        {
          "internalType": "address",
          "name": "newOwner",
          "type": "address"
        }
      ],
      "name": "transferOwnership",
      "outputs": [],
      "stateMutability": "nonpayable",
      "type": "function"
    },
    {
      "inputs": [],
      "name": "withdraw",
      "outputs": [],
      "stateMutability": "nonpayable",
      "type": "function"
    },
    {
      "inputs": [],
      "name": "flipSaleState",
      "outputs": [],
      "stateMutability": "nonpayable",
      "type": "function"
    },
    {
      "inputs": [
        {
          "internalType": "string",
          "name": "_cidPath",
          "type": "string"
        },
        {
          "internalType": "bytes",
          "name": "_signature",
          "type": "bytes"
        }
      ],
      "name": "createNut",
      "outputs": [],
      "stateMutability": "nonpayable",
      "type": "function"
    },
    {
      "inputs": [
        {
          "internalType": "uint256",
          "name": "_nutId",
          "type": "uint256"
        },
        {
          "internalType": "bytes32",
          "name": "_secretHash",
          "type": "bytes32"
        },
        {
          "internalType": "string",
          "name": "_cidPath",
          "type": "string"
        },
        {
          "internalType": "bytes",
          "name": "_signature",
          "type": "bytes"
        }
      ],
      "name": "createSeed",
      "outputs": [],
      "stateMutability": "payable",
      "type": "function"
    },
    {
      "inputs": [
        {
          "internalType": "uint256",
          "name": "_nutId",
          "type": "uint256"
        },
        {
          "internalType": "bytes32",
          "name": "_secretHash",
          "type": "bytes32"
        },
        {
          "internalType": "uint256",
          "name": "_matterContributed",
          "type": "uint256"
        },
        {
          "internalType": "string",
          "name": "_cidPath",
          "type": "string"
        },
        {
          "internalType": "bytes",
          "name": "_signature",
          "type": "bytes"
        }
      ],
      "name": "createButter",
      "outputs": [],
      "stateMutability": "nonpayable",
      "type": "function"
    },
    {
      "inputs": [
        {
          "internalType": "uint256",
          "name": "_tokenId",
          "type": "uint256"
        },
        {
          "internalType": "string",
          "name": "_cidPath",
          "type": "string"
        },
        {
          "internalType": "bytes",
          "name": "_signature",
          "type": "bytes"
        }
      ],
      "name": "spreadButter",
      "outputs": [],
      "stateMutability": "nonpayable",
      "type": "function"
    }
  ],
  "bytecode": "0x60806040526000600e60006101000a81548160ff0219169083151502179055503480156200002c57600080fd5b50604051620052f3380380620052f38339818101604052810190620000529190620004ed565b8484848383838160009081620000699190620007f4565b5080600190816200007b9190620007f4565b5050506200009e62000092620001df60201b60201c565b620001e760201b60201c565b620000ae620002ad60201b60201c565b600d8190555081600c8190555080600f60006101000a81548173ffffffffffffffffffffffffffffffffffffffff021916908373ffffffffffffffffffffffffffffffffffffffff160217905550600f60009054906101000a900473ffffffffffffffffffffffffffffffffffffffff1673ffffffffffffffffffffffffffffffffffffffff166307604b1a6040518163ffffffff1660e01b8152600401602060405180830381865afa1580156200016a573d6000803e3d6000fd5b505050506040513d601f19601f82011682018060405250810190620001909190620008db565b600e60016101000a81548173ffffffffffffffffffffffffffffffffffffffff021916908373ffffffffffffffffffffffffffffffffffffffff1602179055505050505050505050506200090d565b600033905090565b6000600b60009054906101000a900473ffffffffffffffffffffffffffffffffffffffff16905081600b60006101000a81548173ffffffffffffffffffffffffffffffffffffffff021916908373ffffffffffffffffffffffffffffffffffffffff1602179055508173ffffffffffffffffffffffffffffffffffffffff168173ffffffffffffffffffffffffffffffffffffffff167f8be0079c531659141344cd1fd0a4f28419497f9722a3daafe3b4186f6b6457e060405160405180910390a35050565b6000600880549050905090565b6000604051905090565b600080fd5b600080fd5b600080fd5b600080fd5b6000601f19601f8301169050919050565b7f4e487b7100000000000000000000000000000000000000000000000000000000600052604160045260246000fd5b6200032382620002d8565b810181811067ffffffffffffffff82111715620003455762000344620002e9565b5b80604052505050565b60006200035a620002ba565b905062000368828262000318565b919050565b600067ffffffffffffffff8211156200038b576200038a620002e9565b5b6200039682620002d8565b9050602081019050919050565b60005b83811015620003c3578082015181840152602081019050620003a6565b60008484015250505050565b6000620003e6620003e0846200036d565b6200034e565b905082815260208101848484011115620004055762000404620002d3565b5b62000412848285620003a3565b509392505050565b600082601f830112620004325762000431620002ce565b5b815162000444848260208601620003cf565b91505092915050565b6000819050919050565b62000462816200044d565b81146200046e57600080fd5b50565b600081519050620004828162000457565b92915050565b600073ffffffffffffffffffffffffffffffffffffffff82169050919050565b6000620004b58262000488565b9050919050565b620004c781620004a8565b8114620004d357600080fd5b50565b600081519050620004e781620004bc565b92915050565b600080600080600060a086880312156200050c576200050b620002c4565b5b600086015167ffffffffffffffff8111156200052d576200052c620002c9565b5b6200053b888289016200041a565b955050602086015167ffffffffffffffff8111156200055f576200055e620002c9565b5b6200056d888289016200041a565b9450506040620005808882890162000471565b93505060606200059388828901620004d6565b9250506080620005a688828901620004d6565b9150509295509295909350565b600081519050919050565b7f4e487b7100000000000000000000000000000000000000000000000000000000600052602260045260246000fd5b600060028204905060018216806200060657607f821691505b6020821081036200061c576200061b620005be565b5b50919050565b60008190508160005260206000209050919050565b60006020601f8301049050919050565b600082821b905092915050565b600060088302620006867fffffffffffffffffffffffffffffffffffffffffffffffffffffffffffffffff8262000647565b62000692868362000647565b95508019841693508086168417925050509392505050565b6000819050919050565b6000620006d5620006cf620006c9846200044d565b620006aa565b6200044d565b9050919050565b6000819050919050565b620006f183620006b4565b620007096200070082620006dc565b84845462000654565b825550505050565b600090565b6200072062000711565b6200072d818484620006e6565b505050565b5b8181101562000755576200074960008262000716565b60018101905062000733565b5050565b601f821115620007a4576200076e8162000622565b620007798462000637565b8101602085101562000789578190505b620007a1620007988562000637565b83018262000732565b50505b505050565b600082821c905092915050565b6000620007c960001984600802620007a9565b1980831691505092915050565b6000620007e48383620007b6565b9150826002028217905092915050565b620007ff82620005b3565b67ffffffffffffffff8111156200081b576200081a620002e9565b5b620008278254620005ed565b6200083482828562000759565b600060209050601f8311600181146200086c576000841562000857578287015190505b620008638582620007d6565b865550620008d3565b601f1984166200087c8662000622565b60005b82811015620008a6578489015182556001820191506020850194506020810190506200087f565b86831015620008c65784890151620008c2601f891682620007b6565b8355505b6001600288020188555050505b505050505050565b600060208284031215620008f457620008f3620002c4565b5b60006200090484828501620004d6565b91505092915050565b6149d6806200091d6000396000f3fe6080604052600436106101c25760003560e01c806371ebbef4116100f7578063a22cb46511610095578063eb8d244411610064578063eb8d244414610631578063eedc76541461065c578063f23c958314610685578063f2fde38b146106a1576101c2565b8063a22cb46514610565578063b88d4fde1461058e578063c87b56dd146105b7578063e985e9c5146105f4576101c2565b80639202c1ec116100d15780639202c1ec146104cc57806395d89b41146104f557806395f04d0514610520578063a0e12efe1461053c576101c2565b806371ebbef41461044b5780637a3a4a61146104765780638da5cb5b146104a1576101c2565b806334918dfd116101645780634f6ccce71161013e5780634f6ccce71461037d5780636352211e146103ba57806370a08231146103f7578063715018a614610434576101c2565b806334918dfd146103265780633ccfd60b1461033d57806342842e0e14610354576101c2565b8063095ea7b3116101a0578063095ea7b31461026c57806318160ddd1461029557806323b872dd146102c05780632f745c59146102e9576101c2565b806301ffc9a7146101c757806306fdde0314610204578063081812fc1461022f575b600080fd5b3480156101d357600080fd5b506101ee60048036038101906101e99190612c32565b6106ca565b6040516101fb9190612c7a565b60405180910390f35b34801561021057600080fd5b506102196106dc565b6040516102269190612d25565b60405180910390f35b34801561023b57600080fd5b5061025660048036038101906102519190612d7d565b61076e565b6040516102639190612deb565b60405180910390f35b34801561027857600080fd5b50610293600480360381019061028e9190612e32565b6107f3565b005b3480156102a157600080fd5b506102aa61090a565b6040516102b79190612e81565b60405180910390f35b3480156102cc57600080fd5b506102e760048036038101906102e29190612e9c565b610917565b005b3480156102f557600080fd5b50610310600480360381019061030b9190612e32565b610977565b60405161031d9190612e81565b60405180910390f35b34801561033257600080fd5b5061033b610a1c565b005b34801561034957600080fd5b50610352610ac4565b005b34801561036057600080fd5b5061037b60048036038101906103769190612e9c565b610bd2565b005b34801561038957600080fd5b506103a4600480360381019061039f9190612d7d565b610bf2565b6040516103b19190612e81565b60405180910390f35b3480156103c657600080fd5b506103e160048036038101906103dc9190612d7d565b610c63565b6040516103ee9190612deb565b60405180910390f35b34801561040357600080fd5b5061041e60048036038101906104199190612eef565b610d14565b60405161042b9190612e81565b60405180910390f35b34801561044057600080fd5b50610449610dcb565b005b34801561045757600080fd5b50610460610e53565b60405161046d9190612e81565b60405180910390f35b34801561048257600080fd5b5061048b610e59565b6040516104989190612e81565b60405180910390f35b3480156104ad57600080fd5b506104b6610e5f565b6040516104c39190612deb565b60405180910390f35b3480156104d857600080fd5b506104f360048036038101906104ee91906130f2565b610e89565b005b34801561050157600080fd5b5061050a610e99565b6040516105179190612d25565b60405180910390f35b61053a6004803603810190610535919061317d565b610f2b565b005b34801561054857600080fd5b50610563600480360381019061055e91906131c6565b6110a0565b005b34801561057157600080fd5b5061058c6004803603810190610587919061326a565b6110c6565b005b34801561059a57600080fd5b506105b560048036038101906105b091906132aa565b6110dc565b005b3480156105c357600080fd5b506105de60048036038101906105d99190612d7d565b61113e565b6040516105eb9190612d25565b60405180910390f35b34801561060057600080fd5b5061061b6004803603810190610616919061332d565b611150565b6040516106289190612c7a565b60405180910390f35b34801561063d57600080fd5b506106466111e4565b6040516106539190612c7a565b60405180910390f35b34801561066857600080fd5b50610683600480360381019061067e91906133a3565b6111f7565b005b61069f600480360381019061069a9190613456565b611310565b005b3480156106ad57600080fd5b506106c860048036038101906106c39190612eef565b611472565b005b60006106d582611569565b9050919050565b6060600080546106eb90613524565b80601f016020809104026020016040519081016040528092919081815260200182805461071790613524565b80156107645780601f1061073957610100808354040283529160200191610764565b820191906000526020600020905b81548152906001019060200180831161074757829003601f168201915b5050505050905090565b6000610779826115e3565b6107b8576040517f08c379a00000000000000000000000000000000000000000000000000000000081526004016107af906135c7565b60405180910390fd5b6004600083815260200190815260200160002060009054906101000a900473ffffffffffffffffffffffffffffffffffffffff169050919050565b60006107fe82610c63565b90508073ffffffffffffffffffffffffffffffffffffffff168373ffffffffffffffffffffffffffffffffffffffff160361086e576040517f08c379a000000000000000000000000000000000000000000000000000000000815260040161086590613659565b60405180910390fd5b8073ffffffffffffffffffffffffffffffffffffffff1661088d61164f565b73ffffffffffffffffffffffffffffffffffffffff1614806108bc57506108bb816108b661164f565b611150565b5b6108fb576040517f08c379a00000000000000000000000000000000000000000000000000000000081526004016108f2906136eb565b60405180910390fd5b6109058383611657565b505050565b6000600880549050905090565b61092861092261164f565b82611710565b610967576040517f08c379a000000000000000000000000000000000000000000000000000000000815260040161095e9061377d565b60405180910390fd5b6109728383836117ee565b505050565b600061098283610d14565b82106109c3576040517f08c379a00000000000000000000000000000000000000000000000000000000081526004016109ba9061380f565b60405180910390fd5b600660008473ffffffffffffffffffffffffffffffffffffffff1673ffffffffffffffffffffffffffffffffffffffff168152602001908152602001600020600083815260200190815260200160002054905092915050565b610a2461164f565b73ffffffffffffffffffffffffffffffffffffffff16610a42610e5f565b73ffffffffffffffffffffffffffffffffffffffff1614610a98576040517f08c379a0000000000000000000000000000000000000000000000000000000008152600401610a8f9061387b565b60405180910390fd5b600e60009054906101000a900460ff1615600e60006101000a81548160ff021916908315150217905550565b610acc61164f565b73ffffffffffffffffffffffffffffffffffffffff16610aea610e5f565b73ffffffffffffffffffffffffffffffffffffffff1614610b40576040517f08c379a0000000000000000000000000000000000000000000000000000000008152600401610b379061387b565b60405180910390fd5b600047905060004711610b88576040517f08c379a0000000000000000000000000000000000000000000000000000000008152600401610b7f906138e7565b60405180910390fd5b3373ffffffffffffffffffffffffffffffffffffffff166108fc829081150290604051600060405180830381858888f19350505050158015610bce573d6000803e3d6000fd5b5050565b610bed838383604051806020016040528060008152506110dc565b505050565b6000610bfc61090a565b8210610c3d576040517f08c379a0000000000000000000000000000000000000000000000000000000008152600401610c3490613979565b60405180910390fd5b60088281548110610c5157610c50613999565b5b90600052602060002001549050919050565b6000806002600084815260200190815260200160002060009054906101000a900473ffffffffffffffffffffffffffffffffffffffff169050600073ffffffffffffffffffffffffffffffffffffffff168173ffffffffffffffffffffffffffffffffffffffff1603610d0b576040517f08c379a0000000000000000000000000000000000000000000000000000000008152600401610d0290613a3a565b60405180910390fd5b80915050919050565b60008073ffffffffffffffffffffffffffffffffffffffff168273ffffffffffffffffffffffffffffffffffffffff1603610d84576040517f08c379a0000000000000000000000000000000000000000000000000000000008152600401610d7b90613acc565b60405180910390fd5b600360008373ffffffffffffffffffffffffffffffffffffffff1673ffffffffffffffffffffffffffffffffffffffff168152602001908152602001600020549050919050565b610dd361164f565b73ffffffffffffffffffffffffffffffffffffffff16610df1610e5f565b73ffffffffffffffffffffffffffffffffffffffff1614610e47576040517f08c379a0000000000000000000000000000000000000000000000000000000008152600401610e3e9061387b565b60405180910390fd5b610e516000611a54565b565b600c5481565b600d5481565b6000600b60009054906101000a900473ffffffffffffffffffffffffffffffffffffffff16905090565b610e94838383611b1a565b505050565b606060018054610ea890613524565b80601f0160208091040260200160405190810160405280929190818152602001828054610ed490613524565b8015610f215780601f10610ef657610100808354040283529160200191610f21565b820191906000526020600020905b815481529060010190602001808311610f0457829003601f168201915b5050505050905090565b600e60009054906101000a900460ff16610f7a576040517f08c379a0000000000000000000000000000000000000000000000000000000008152600401610f7190613b38565b60405180910390fd5b600c54610f8561090a565b10610fc5576040517f08c379a0000000000000000000000000000000000000000000000000000000008152600401610fbc90613ba4565b60405180910390fd5b610ff8600e60019054906101000a900473ffffffffffffffffffffffffffffffffffffffff16610ff361090a565b611c82565b61100961100361090a565b82611ca0565b600f60009054906101000a900473ffffffffffffffffffffffffffffffffffffffff1673ffffffffffffffffffffffffffffffffffffffff1663347518a861104f61090a565b6040518263ffffffff1660e01b815260040161106b9190612e81565b600060405180830381600087803b15801561108557600080fd5b505af1158015611099573d6000803e3d6000fd5b5050505050565b60006110aa61090a565b90506110b63382611c82565b6110c1818484611b1a565b505050565b6110d86110d161164f565b8383611d0d565b5050565b6110ed6110e761164f565b83611710565b61112c576040517f08c379a00000000000000000000000000000000000000000000000000000000081526004016111239061377d565b60405180910390fd5b61113884848484611e79565b50505050565b606061114982611ed5565b9050919050565b6000600560008473ffffffffffffffffffffffffffffffffffffffff1673ffffffffffffffffffffffffffffffffffffffff16815260200190815260200160002060008373ffffffffffffffffffffffffffffffffffffffff1673ffffffffffffffffffffffffffffffffffffffff16815260200190815260200160002060009054906101000a900460ff16905092915050565b600e60009054906101000a900460ff1681565b61120085610c63565b73ffffffffffffffffffffffffffffffffffffffff163373ffffffffffffffffffffffffffffffffffffffff161461126d576040517f08c379a000000000000000000000000000000000000000000000000000000000815260040161126490613c10565b60405180910390fd5b600f60009054906101000a900473ffffffffffffffffffffffffffffffffffffffff1673ffffffffffffffffffffffffffffffffffffffff1663911da0628685876040518463ffffffff1660e01b81526004016112cc93929190613c3f565b600060405180830381600087803b1580156112e657600080fd5b505af11580156112fa573d6000803e3d6000fd5b50505050611309858383611b1a565b5050505050565b61131984610c63565b73ffffffffffffffffffffffffffffffffffffffff163373ffffffffffffffffffffffffffffffffffffffff1614611386576040517f08c379a000000000000000000000000000000000000000000000000000000000815260040161137d90613c10565b60405180910390fd5b600c5461139161090a565b10156113d2576040517f08c379a00000000000000000000000000000000000000000000000000000000081526004016113c990613cc2565b60405180910390fd5b600f60009054906101000a900473ffffffffffffffffffffffffffffffffffffffff1673ffffffffffffffffffffffffffffffffffffffff166386d3d87185856040518363ffffffff1660e01b815260040161142f929190613ce2565b600060405180830381600087803b15801561144957600080fd5b505af115801561145d573d6000803e3d6000fd5b5050505061146c848383611b1a565b50505050565b61147a61164f565b73ffffffffffffffffffffffffffffffffffffffff16611498610e5f565b73ffffffffffffffffffffffffffffffffffffffff16146114ee576040517f08c379a00000000000000000000000000000000000000000000000000000000081526004016114e59061387b565b60405180910390fd5b600073ffffffffffffffffffffffffffffffffffffffff168173ffffffffffffffffffffffffffffffffffffffff160361155d576040517f08c379a000000000000000000000000000000000000000000000000000000000815260040161155490613d7d565b60405180910390fd5b61156681611a54565b50565b60007f780e9d63000000000000000000000000000000000000000000000000000000007bffffffffffffffffffffffffffffffffffffffffffffffffffffffff1916827bffffffffffffffffffffffffffffffffffffffffffffffffffffffff191614806115dc57506115db82612026565b5b9050919050565b60008073ffffffffffffffffffffffffffffffffffffffff166002600084815260200190815260200160002060009054906101000a900473ffffffffffffffffffffffffffffffffffffffff1673ffffffffffffffffffffffffffffffffffffffff1614159050919050565b600033905090565b816004600083815260200190815260200160002060006101000a81548173ffffffffffffffffffffffffffffffffffffffff021916908373ffffffffffffffffffffffffffffffffffffffff160217905550808273ffffffffffffffffffffffffffffffffffffffff166116ca83610c63565b73ffffffffffffffffffffffffffffffffffffffff167f8c5be1e5ebec7d5bd14f71427d1e84f3dd0314c0f7b2291e5b200ac8c7c3b92560405160405180910390a45050565b600061171b826115e3565b61175a576040517f08c379a000000000000000000000000000000000000000000000000000000000815260040161175190613e0f565b60405180910390fd5b600061176583610c63565b90508073ffffffffffffffffffffffffffffffffffffffff168473ffffffffffffffffffffffffffffffffffffffff1614806117a757506117a68185611150565b5b806117e557508373ffffffffffffffffffffffffffffffffffffffff166117cd8461076e565b73ffffffffffffffffffffffffffffffffffffffff16145b91505092915050565b8273ffffffffffffffffffffffffffffffffffffffff1661180e82610c63565b73ffffffffffffffffffffffffffffffffffffffff1614611864576040517f08c379a000000000000000000000000000000000000000000000000000000000815260040161185b90613ea1565b60405180910390fd5b600073ffffffffffffffffffffffffffffffffffffffff168273ffffffffffffffffffffffffffffffffffffffff16036118d3576040517f08c379a00000000000000000000000000000000000000000000000000000000081526004016118ca90613f33565b60405180910390fd5b6118de838383612108565b6118e9600082611657565b6001600360008573ffffffffffffffffffffffffffffffffffffffff1673ffffffffffffffffffffffffffffffffffffffff16815260200190815260200160002060008282546119399190613f82565b925050819055506001600360008473ffffffffffffffffffffffffffffffffffffffff1673ffffffffffffffffffffffffffffffffffffffff16815260200190815260200160002060008282546119909190613fb6565b92505081905550816002600083815260200190815260200160002060006101000a81548173ffffffffffffffffffffffffffffffffffffffff021916908373ffffffffffffffffffffffffffffffffffffffff160217905550808273ffffffffffffffffffffffffffffffffffffffff168473ffffffffffffffffffffffffffffffffffffffff167fddf252ad1be2c89b69c2b068fc378daa952ba7f163c4a11628f55a4df523b3ef60405160405180910390a4611a4f838383612118565b505050565b6000600b60009054906101000a900473ffffffffffffffffffffffffffffffffffffffff16905081600b60006101000a81548173ffffffffffffffffffffffffffffffffffffffff021916908373ffffffffffffffffffffffffffffffffffffffff1602179055508173ffffffffffffffffffffffffffffffffffffffff168173ffffffffffffffffffffffffffffffffffffffff167f8be0079c531659141344cd1fd0a4f28419497f9722a3daafe3b4186f6b6457e060405160405180910390a35050565b611b2b611b2561164f565b84611710565b611b6a576040517f08c379a0000000000000000000000000000000000000000000000000000000008152600401611b6190614036565b60405180910390fd5b600082604051602001611b7d9190614092565b604051602081830303815290604052805190602001209050600f60009054906101000a900473ffffffffffffffffffffffffffffffffffffffff1673ffffffffffffffffffffffffffffffffffffffff16637fcacc0e82846040518363ffffffff1660e01b8152600401611bf29291906140fe565b602060405180830381865afa158015611c0f573d6000803e3d6000fd5b505050506040513d601f19601f82011682018060405250810190611c339190614143565b611c72576040517f08c379a0000000000000000000000000000000000000000000000000000000008152600401611c69906141bc565b60405180910390fd5b611c7c8484611ca0565b50505050565b611c9c82826040518060200160405280600081525061211d565b5050565b611ca9826115e3565b611ce8576040517f08c379a0000000000000000000000000000000000000000000000000000000008152600401611cdf9061424e565b60405180910390fd5b80600a60008481526020019081526020016000209081611d08919061441a565b505050565b8173ffffffffffffffffffffffffffffffffffffffff168373ffffffffffffffffffffffffffffffffffffffff1603611d7b576040517f08c379a0000000000000000000000000000000000000000000000000000000008152600401611d7290614538565b60405180910390fd5b80600560008573ffffffffffffffffffffffffffffffffffffffff1673ffffffffffffffffffffffffffffffffffffffff16815260200190815260200160002060008473ffffffffffffffffffffffffffffffffffffffff1673ffffffffffffffffffffffffffffffffffffffff16815260200190815260200160002060006101000a81548160ff0219169083151502179055508173ffffffffffffffffffffffffffffffffffffffff168373ffffffffffffffffffffffffffffffffffffffff167f17307eab39ab6107e8899845ad3d59bd9653f200f220920489ca2b5937696c3183604051611e6c9190612c7a565b60405180910390a3505050565b611e848484846117ee565b611e9084848484612178565b611ecf576040517f08c379a0000000000000000000000000000000000000000000000000000000008152600401611ec6906145ca565b60405180910390fd5b50505050565b6060611ee0826115e3565b611f1f576040517f08c379a0000000000000000000000000000000000000000000000000000000008152600401611f169061465c565b60405180910390fd5b6000600a60008481526020019081526020016000208054611f3f90613524565b80601f0160208091040260200160405190810160405280929190818152602001828054611f6b90613524565b8015611fb85780601f10611f8d57610100808354040283529160200191611fb8565b820191906000526020600020905b815481529060010190602001808311611f9b57829003601f168201915b505050505090506000611fc96122ff565b90506000815103611fde578192505050612021565b600082511115612013578082604051602001611ffb92919061467c565b60405160208183030381529060405292505050612021565b61201c8461233c565b925050505b919050565b60007f80ac58cd000000000000000000000000000000000000000000000000000000007bffffffffffffffffffffffffffffffffffffffffffffffffffffffff1916827bffffffffffffffffffffffffffffffffffffffffffffffffffffffff191614806120f157507f5b5e139f000000000000000000000000000000000000000000000000000000007bffffffffffffffffffffffffffffffffffffffffffffffffffffffff1916827bffffffffffffffffffffffffffffffffffffffffffffffffffffffff1916145b806121015750612100826123e3565b5b9050919050565b61211383838361244d565b505050565b505050565b612127838361255f565b6121346000848484612178565b612173576040517f08c379a000000000000000000000000000000000000000000000000000000000815260040161216a906145ca565b60405180910390fd5b505050565b60006121998473ffffffffffffffffffffffffffffffffffffffff16612738565b156122f2578373ffffffffffffffffffffffffffffffffffffffff1663150b7a026121c261164f565b8786866040518563ffffffff1660e01b81526004016121e494939291906146a0565b6020604051808303816000875af192505050801561222057506040513d601f19601f8201168201806040525081019061221d9190614701565b60015b6122a2573d8060008114612250576040519150601f19603f3d011682016040523d82523d6000602084013e612255565b606091505b50600081510361229a576040517f08c379a0000000000000000000000000000000000000000000000000000000008152600401612291906145ca565b60405180910390fd5b805181602001fd5b63150b7a0260e01b7bffffffffffffffffffffffffffffffffffffffffffffffffffffffff1916817bffffffffffffffffffffffffffffffffffffffffffffffffffffffff1916149150506122f7565b600190505b949350505050565b60606040518060400160405280601581526020017f68747470733a2f2f697066732e696f2f697066732f0000000000000000000000815250905090565b6060612347826115e3565b612386576040517f08c379a000000000000000000000000000000000000000000000000000000000815260040161237d906147a0565b60405180910390fd5b60006123906122ff565b905060008151116123b057604051806020016040528060008152506123db565b806123ba8461275b565b6040516020016123cb92919061467c565b6040516020818303038152906040525b915050919050565b60007f01ffc9a7000000000000000000000000000000000000000000000000000000007bffffffffffffffffffffffffffffffffffffffffffffffffffffffff1916827bffffffffffffffffffffffffffffffffffffffffffffffffffffffff1916149050919050565b6124588383836128bb565b600073ffffffffffffffffffffffffffffffffffffffff168373ffffffffffffffffffffffffffffffffffffffff160361249a57612495816128c0565b6124d9565b8173ffffffffffffffffffffffffffffffffffffffff168373ffffffffffffffffffffffffffffffffffffffff16146124d8576124d78382612909565b5b5b600073ffffffffffffffffffffffffffffffffffffffff168273ffffffffffffffffffffffffffffffffffffffff160361251b5761251681612a76565b61255a565b8273ffffffffffffffffffffffffffffffffffffffff168273ffffffffffffffffffffffffffffffffffffffff1614612559576125588282612b47565b5b5b505050565b600073ffffffffffffffffffffffffffffffffffffffff168273ffffffffffffffffffffffffffffffffffffffff16036125ce576040517f08c379a00000000000000000000000000000000000000000000000000000000081526004016125c59061480c565b60405180910390fd5b6125d7816115e3565b15612617576040517f08c379a000000000000000000000000000000000000000000000000000000000815260040161260e90614878565b60405180910390fd5b61262360008383612108565b6001600360008473ffffffffffffffffffffffffffffffffffffffff1673ffffffffffffffffffffffffffffffffffffffff16815260200190815260200160002060008282546126739190613fb6565b92505081905550816002600083815260200190815260200160002060006101000a81548173ffffffffffffffffffffffffffffffffffffffff021916908373ffffffffffffffffffffffffffffffffffffffff160217905550808273ffffffffffffffffffffffffffffffffffffffff16600073ffffffffffffffffffffffffffffffffffffffff167fddf252ad1be2c89b69c2b068fc378daa952ba7f163c4a11628f55a4df523b3ef60405160405180910390a461273460008383612118565b5050565b6000808273ffffffffffffffffffffffffffffffffffffffff163b119050919050565b6060600082036127a2576040518060400160405280600181526020017f300000000000000000000000000000000000000000000000000000000000000081525090506128b6565b600082905060005b600082146127d45780806127bd90614898565b915050600a826127cd919061490f565b91506127aa565b60008167ffffffffffffffff8111156127f0576127ef612f26565b5b6040519080825280601f01601f1916602001820160405280156128225781602001600182028036833780820191505090505b5090505b600085146128af5760018261283b9190613f82565b9150600a8561284a9190614940565b60306128569190613fb6565b60f81b81838151811061286c5761286b613999565b5b60200101907effffffffffffffffffffffffffffffffffffffffffffffffffffffffffffff1916908160001a905350600a856128a8919061490f565b9450612826565b8093505050505b919050565b505050565b6008805490506009600083815260200190815260200160002081905550600881908060018154018082558091505060019003906000526020600020016000909190919091505550565b6000600161291684610d14565b6129209190613f82565b9050600060076000848152602001908152602001600020549050818114612a05576000600660008673ffffffffffffffffffffffffffffffffffffffff1673ffffffffffffffffffffffffffffffffffffffff168152602001908152602001600020600084815260200190815260200160002054905080600660008773ffffffffffffffffffffffffffffffffffffffff1673ffffffffffffffffffffffffffffffffffffffff168152602001908152602001600020600084815260200190815260200160002081905550816007600083815260200190815260200160002081905550505b6007600084815260200190815260200160002060009055600660008573ffffffffffffffffffffffffffffffffffffffff1673ffffffffffffffffffffffffffffffffffffffff16815260200190815260200160002060008381526020019081526020016000206000905550505050565b60006001600880549050612a8a9190613f82565b9050600060096000848152602001908152602001600020549050600060088381548110612aba57612ab9613999565b5b906000526020600020015490508060088381548110612adc57612adb613999565b5b906000526020600020018190555081600960008381526020019081526020016000208190555060096000858152602001908152602001600020600090556008805480612b2b57612b2a614971565b5b6001900381819060005260206000200160009055905550505050565b6000612b5283610d14565b905081600660008573ffffffffffffffffffffffffffffffffffffffff1673ffffffffffffffffffffffffffffffffffffffff168152602001908152602001600020600083815260200190815260200160002081905550806007600084815260200190815260200160002081905550505050565b6000604051905090565b600080fd5b600080fd5b60007fffffffff0000000000000000000000000000000000000000000000000000000082169050919050565b612c0f81612bda565b8114612c1a57600080fd5b50565b600081359050612c2c81612c06565b92915050565b600060208284031215612c4857612c47612bd0565b5b6000612c5684828501612c1d565b91505092915050565b60008115159050919050565b612c7481612c5f565b82525050565b6000602082019050612c8f6000830184612c6b565b92915050565b600081519050919050565b600082825260208201905092915050565b60005b83811015612ccf578082015181840152602081019050612cb4565b60008484015250505050565b6000601f19601f8301169050919050565b6000612cf782612c95565b612d018185612ca0565b9350612d11818560208601612cb1565b612d1a81612cdb565b840191505092915050565b60006020820190508181036000830152612d3f8184612cec565b905092915050565b6000819050919050565b612d5a81612d47565b8114612d6557600080fd5b50565b600081359050612d7781612d51565b92915050565b600060208284031215612d9357612d92612bd0565b5b6000612da184828501612d68565b91505092915050565b600073ffffffffffffffffffffffffffffffffffffffff82169050919050565b6000612dd582612daa565b9050919050565b612de581612dca565b82525050565b6000602082019050612e006000830184612ddc565b92915050565b612e0f81612dca565b8114612e1a57600080fd5b50565b600081359050612e2c81612e06565b92915050565b60008060408385031215612e4957612e48612bd0565b5b6000612e5785828601612e1d565b9250506020612e6885828601612d68565b9150509250929050565b612e7b81612d47565b82525050565b6000602082019050612e966000830184612e72565b92915050565b600080600060608486031215612eb557612eb4612bd0565b5b6000612ec386828701612e1d565b9350506020612ed486828701612e1d565b9250506040612ee586828701612d68565b9150509250925092565b600060208284031215612f0557612f04612bd0565b5b6000612f1384828501612e1d565b91505092915050565b600080fd5b600080fd5b7f4e487b7100000000000000000000000000000000000000000000000000000000600052604160045260246000fd5b612f5e82612cdb565b810181811067ffffffffffffffff82111715612f7d57612f7c612f26565b5b80604052505050565b6000612f90612bc6565b9050612f9c8282612f55565b919050565b600067ffffffffffffffff821115612fbc57612fbb612f26565b5b612fc582612cdb565b9050602081019050919050565b82818337600083830152505050565b6000612ff4612fef84612fa1565b612f86565b9050828152602081018484840111156130105761300f612f21565b5b61301b848285612fd2565b509392505050565b600082601f83011261303857613037612f1c565b5b8135613048848260208601612fe1565b91505092915050565b600067ffffffffffffffff82111561306c5761306b612f26565b5b61307582612cdb565b9050602081019050919050565b600061309561309084613051565b612f86565b9050828152602081018484840111156130b1576130b0612f21565b5b6130bc848285612fd2565b509392505050565b600082601f8301126130d9576130d8612f1c565b5b81356130e9848260208601613082565b91505092915050565b60008060006060848603121561310b5761310a612bd0565b5b600061311986828701612d68565b935050602084013567ffffffffffffffff81111561313a57613139612bd5565b5b61314686828701613023565b925050604084013567ffffffffffffffff81111561316757613166612bd5565b5b613173868287016130c4565b9150509250925092565b60006020828403121561319357613192612bd0565b5b600082013567ffffffffffffffff8111156131b1576131b0612bd5565b5b6131bd84828501613023565b91505092915050565b600080604083850312156131dd576131dc612bd0565b5b600083013567ffffffffffffffff8111156131fb576131fa612bd5565b5b61320785828601613023565b925050602083013567ffffffffffffffff81111561322857613227612bd5565b5b613234858286016130c4565b9150509250929050565b61324781612c5f565b811461325257600080fd5b50565b6000813590506132648161323e565b92915050565b6000806040838503121561328157613280612bd0565b5b600061328f85828601612e1d565b92505060206132a085828601613255565b9150509250929050565b600080600080608085870312156132c4576132c3612bd0565b5b60006132d287828801612e1d565b94505060206132e387828801612e1d565b93505060406132f487828801612d68565b925050606085013567ffffffffffffffff81111561331557613314612bd5565b5b613321878288016130c4565b91505092959194509250565b6000806040838503121561334457613343612bd0565b5b600061335285828601612e1d565b925050602061336385828601612e1d565b9150509250929050565b6000819050919050565b6133808161336d565b811461338b57600080fd5b50565b60008135905061339d81613377565b92915050565b600080600080600060a086880312156133bf576133be612bd0565b5b60006133cd88828901612d68565b95505060206133de8882890161338e565b94505060406133ef88828901612d68565b935050606086013567ffffffffffffffff8111156134105761340f612bd5565b5b61341c88828901613023565b925050608086013567ffffffffffffffff81111561343d5761343c612bd5565b5b613449888289016130c4565b9150509295509295909350565b600080600080608085870312156134705761346f612bd0565b5b600061347e87828801612d68565b945050602061348f8782880161338e565b935050604085013567ffffffffffffffff8111156134b0576134af612bd5565b5b6134bc87828801613023565b925050606085013567ffffffffffffffff8111156134dd576134dc612bd5565b5b6134e9878288016130c4565b91505092959194509250565b7f4e487b7100000000000000000000000000000000000000000000000000000000600052602260045260246000fd5b6000600282049050600182168061353c57607f821691505b60208210810361354f5761354e6134f5565b5b50919050565b7f4552433732313a20617070726f76656420717565727920666f72206e6f6e657860008201527f697374656e7420746f6b656e0000000000000000000000000000000000000000602082015250565b60006135b1602c83612ca0565b91506135bc82613555565b604082019050919050565b600060208201905081810360008301526135e0816135a4565b9050919050565b7f4552433732313a20617070726f76616c20746f2063757272656e74206f776e6560008201527f7200000000000000000000000000000000000000000000000000000000000000602082015250565b6000613643602183612ca0565b915061364e826135e7565b604082019050919050565b6000602082019050818103600083015261367281613636565b9050919050565b7f4552433732313a20617070726f76652063616c6c6572206973206e6f74206f7760008201527f6e6572206e6f7220617070726f76656420666f7220616c6c0000000000000000602082015250565b60006136d5603883612ca0565b91506136e082613679565b604082019050919050565b60006020820190508181036000830152613704816136c8565b9050919050565b7f4552433732313a207472616e736665722063616c6c6572206973206e6f74206f60008201527f776e6572206e6f7220617070726f766564000000000000000000000000000000602082015250565b6000613767603183612ca0565b91506137728261370b565b604082019050919050565b600060208201905081810360008301526137968161375a565b9050919050565b7f455243373231456e756d657261626c653a206f776e657220696e646578206f7560008201527f74206f6620626f756e6473000000000000000000000000000000000000000000602082015250565b60006137f9602b83612ca0565b91506138048261379d565b604082019050919050565b60006020820190508181036000830152613828816137ec565b9050919050565b7f4f776e61626c653a2063616c6c6572206973206e6f7420746865206f776e6572600082015250565b6000613865602083612ca0565b91506138708261382f565b602082019050919050565b6000602082019050818103600083015261389481613858565b9050919050565b7f4e6f2062616c616e636520746f20776974686472617700000000000000000000600082015250565b60006138d1601683612ca0565b91506138dc8261389b565b602082019050919050565b60006020820190508181036000830152613900816138c4565b9050919050565b7f455243373231456e756d657261626c653a20676c6f62616c20696e646578206f60008201527f7574206f6620626f756e64730000000000000000000000000000000000000000602082015250565b6000613963602c83612ca0565b915061396e82613907565b604082019050919050565b6000602082019050818103600083015261399281613956565b9050919050565b7f4e487b7100000000000000000000000000000000000000000000000000000000600052603260045260246000fd5b7f4552433732313a206f776e657220717565727920666f72206e6f6e657869737460008201527f656e7420746f6b656e0000000000000000000000000000000000000000000000602082015250565b6000613a24602983612ca0565b9150613a2f826139c8565b604082019050919050565b60006020820190508181036000830152613a5381613a17565b9050919050565b7f4552433732313a2062616c616e636520717565727920666f7220746865207a6560008201527f726f206164647265737300000000000000000000000000000000000000000000602082015250565b6000613ab6602a83612ca0565b9150613ac182613a5a565b604082019050919050565b60006020820190508181036000830152613ae581613aa9565b9050919050565b7f53616c65206d7573742062652061637469766500000000000000000000000000600082015250565b6000613b22601383612ca0565b9150613b2d82613aec565b602082019050919050565b60006020820190508181036000830152613b5181613b15565b9050919050565b7f45786365656420696e697469616c20737570706c79206f66206e757473000000600082015250565b6000613b8e601d83612ca0565b9150613b9982613b58565b602082019050919050565b60006020820190508181036000830152613bbd81613b81565b9050919050565b7f43616c6c6572206973206e6f74206f776e6572206f66206e7574000000000000600082015250565b6000613bfa601a83612ca0565b9150613c0582613bc4565b602082019050919050565b60006020820190508181036000830152613c2981613bed565b9050919050565b613c398161336d565b82525050565b6000606082019050613c546000830186612e72565b613c616020830185612e72565b613c6e6040830184613c30565b949350505050565b7f4e757473207374696c6c2065786973742066726f6d206372656174696f6e0000600082015250565b6000613cac601e83612ca0565b9150613cb782613c76565b602082019050919050565b60006020820190508181036000830152613cdb81613c9f565b9050919050565b6000604082019050613cf76000830185612e72565b613d046020830184613c30565b9392505050565b7f4f776e61626c653a206e6577206f776e657220697320746865207a65726f206160008201527f6464726573730000000000000000000000000000000000000000000000000000602082015250565b6000613d67602683612ca0565b9150613d7282613d0b565b604082019050919050565b60006020820190508181036000830152613d9681613d5a565b9050919050565b7f4552433732313a206f70657261746f7220717565727920666f72206e6f6e657860008201527f697374656e7420746f6b656e0000000000000000000000000000000000000000602082015250565b6000613df9602c83612ca0565b9150613e0482613d9d565b604082019050919050565b60006020820190508181036000830152613e2881613dec565b9050919050565b7f4552433732313a207472616e736665722066726f6d20696e636f72726563742060008201527f6f776e6572000000000000000000000000000000000000000000000000000000602082015250565b6000613e8b602583612ca0565b9150613e9682613e2f565b604082019050919050565b60006020820190508181036000830152613eba81613e7e565b9050919050565b7f4552433732313a207472616e7366657220746f20746865207a65726f2061646460008201527f7265737300000000000000000000000000000000000000000000000000000000602082015250565b6000613f1d602483612ca0565b9150613f2882613ec1565b604082019050919050565b60006020820190508181036000830152613f4c81613f10565b9050919050565b7f4e487b7100000000000000000000000000000000000000000000000000000000600052601160045260246000fd5b6000613f8d82612d47565b9150613f9883612d47565b9250828203905081811115613fb057613faf613f53565b5b92915050565b6000613fc182612d47565b9150613fcc83612d47565b9250828201905080821115613fe457613fe3613f53565b5b92915050565b7f43616c6c6572206973206e6f74206f776e6572206e6f7220617070726f766564600082015250565b6000614020602083612ca0565b915061402b82613fea565b602082019050919050565b6000602082019050818103600083015261404f81614013565b9050919050565b600081905092915050565b600061406c82612c95565b6140768185614056565b9350614086818560208601612cb1565b80840191505092915050565b600061409e8284614061565b915081905092915050565b600081519050919050565b600082825260208201905092915050565b60006140d0826140a9565b6140da81856140b4565b93506140ea818560208601612cb1565b6140f381612cdb565b840191505092915050565b60006040820190506141136000830185613c30565b818103602083015261412581846140c5565b90509392505050565b60008151905061413d8161323e565b92915050565b60006020828403121561415957614158612bd0565b5b60006141678482850161412e565b91505092915050565b7f4461746120646f6573206e6f74206d61746368207369676e6174757265000000600082015250565b60006141a6601d83612ca0565b91506141b182614170565b602082019050919050565b600060208201905081810360008301526141d581614199565b9050919050565b7f45524337323155524953746f726167653a2055524920736574206f66206e6f6e60008201527f6578697374656e7420746f6b656e000000000000000000000000000000000000602082015250565b6000614238602e83612ca0565b9150614243826141dc565b604082019050919050565b600060208201905081810360008301526142678161422b565b9050919050565b60008190508160005260206000209050919050565b60006020601f8301049050919050565b600082821b905092915050565b6000600883026142d07fffffffffffffffffffffffffffffffffffffffffffffffffffffffffffffffff82614293565b6142da8683614293565b95508019841693508086168417925050509392505050565b6000819050919050565b600061431761431261430d84612d47565b6142f2565b612d47565b9050919050565b6000819050919050565b614331836142fc565b61434561433d8261431e565b8484546142a0565b825550505050565b600090565b61435a61434d565b614365818484614328565b505050565b5b818110156143895761437e600082614352565b60018101905061436b565b5050565b601f8211156143ce5761439f8161426e565b6143a884614283565b810160208510156143b7578190505b6143cb6143c385614283565b83018261436a565b50505b505050565b600082821c905092915050565b60006143f1600019846008026143d3565b1980831691505092915050565b600061440a83836143e0565b9150826002028217905092915050565b61442382612c95565b67ffffffffffffffff81111561443c5761443b612f26565b5b6144468254613524565b61445182828561438d565b600060209050601f8311600181146144845760008415614472578287015190505b61447c85826143fe565b8655506144e4565b601f1984166144928661426e565b60005b828110156144ba57848901518255600182019150602085019450602081019050614495565b868310156144d757848901516144d3601f8916826143e0565b8355505b6001600288020188555050505b505050505050565b7f4552433732313a20617070726f766520746f2063616c6c657200000000000000600082015250565b6000614522601983612ca0565b915061452d826144ec565b602082019050919050565b6000602082019050818103600083015261455181614515565b9050919050565b7f4552433732313a207472616e7366657220746f206e6f6e20455243373231526560008201527f63656976657220696d706c656d656e7465720000000000000000000000000000602082015250565b60006145b4603283612ca0565b91506145bf82614558565b604082019050919050565b600060208201905081810360008301526145e3816145a7565b9050919050565b7f45524337323155524953746f726167653a2055524920717565727920666f722060008201527f6e6f6e6578697374656e7420746f6b656e000000000000000000000000000000602082015250565b6000614646603183612ca0565b9150614651826145ea565b604082019050919050565b6000602082019050818103600083015261467581614639565b9050919050565b60006146888285614061565b91506146948284614061565b91508190509392505050565b60006080820190506146b56000830187612ddc565b6146c26020830186612ddc565b6146cf6040830185612e72565b81810360608301526146e181846140c5565b905095945050505050565b6000815190506146fb81612c06565b92915050565b60006020828403121561471757614716612bd0565b5b6000614725848285016146ec565b91505092915050565b7f4552433732314d657461646174613a2055524920717565727920666f72206e6f60008201527f6e6578697374656e7420746f6b656e0000000000000000000000000000000000602082015250565b600061478a602f83612ca0565b91506147958261472e565b604082019050919050565b600060208201905081810360008301526147b98161477d565b9050919050565b7f4552433732313a206d696e7420746f20746865207a65726f2061646472657373600082015250565b60006147f6602083612ca0565b9150614801826147c0565b602082019050919050565b60006020820190508181036000830152614825816147e9565b9050919050565b7f4552433732313a20746f6b656e20616c7265616479206d696e74656400000000600082015250565b6000614862601c83612ca0565b915061486d8261482c565b602082019050919050565b6000602082019050818103600083015261489181614855565b9050919050565b60006148a382612d47565b91507fffffffffffffffffffffffffffffffffffffffffffffffffffffffffffffffff82036148d5576148d4613f53565b5b600182019050919050565b7f4e487b7100000000000000000000000000000000000000000000000000000000600052601260045260246000fd5b600061491a82612d47565b915061492583612d47565b925082614935576149346148e0565b5b828204905092915050565b600061494b82612d47565b915061495683612d47565b925082614966576149656148e0565b5b828206905092915050565b7f4e487b7100000000000000000000000000000000000000000000000000000000600052603160045260246000fdfea2646970667358221220f5651ec09c1d395dbe761e4f68081d84067fce7b0d6f1614711a9b5186dda53764736f6c63430008110033",
  "immutableReferences": {},
  "source": "// SPDX-License-Identifier: MIT\npragma solidity ^0.8.7;\n\nimport \"./CosmoCreation.sol\";\n\n/**\n * Main Contract for the NFT tokens.\n * System address resembles the public address of the software application.\n */\n contract CosmoNuts is CosmoCreation {\n\n    using ECDSA for bytes32;\n\n    constructor(\n        string memory _name,\n        string memory _symbol,\n        uint256 _initialNFTSupply,\n        address _systemAddress,\n        address _vaultAddress\n    )\n        CosmoCreation(_name, _symbol, _initialNFTSupply, _vaultAddress)\n    {}\n\n    // only system address?\n    function withdraw() public onlyOwner {\n        uint256 balance = address(this).balance;\n        require(address(this).balance > 0 wei, \"No balance to withdraw\");\n        payable(msg.sender).transfer(balance);\n    }\n\n    // only system address?\n    function flipSaleState() public onlyOwner {\n        saleIsActive = !saleIsActive;\n    }\n\n    /*\n     * Called from CosmoSeed to mint a new Nut\n     */\n    function createNut(\n        string memory _cidPath,\n        bytes memory _signature\n    ) external {\n        uint256 mintIndex = totalSupply();\n        _safeMint(msg.sender, mintIndex);\n        changeTokenURI(mintIndex, _cidPath, _signature);\n    }\n\n    /**\n     * Function callable by Nut owner to create a seed which has the potential to turn into a new Nut.\n     * Requires the input of a secretHash and a specified amount of Ether to create.\n     * A required level of matter must be burned which is equal to the amount of seeds you have in Universe\n     * multiplied by the matterRate.\n     */\n    function createSeed(\n        uint256 _nutId,\n        bytes32 _secretHash,\n        string memory _cidPath,\n        bytes memory _signature\n        )\n        public payable {\n            require(address(msg.sender) == ownerOf(_nutId), \"Caller is not owner of nut\");\n            require(totalSupply() >= INITIAL_NUTS, \"Nuts still exist from creation\");\n\n            vault.newSeed(_nutId, _secretHash);\n            changeTokenURI(_nutId, _cidPath, _signature);\n    }\n\n    /**\n     * Function callable by Nut owner to create a matter faucet which allows other users to draw matter\n     * Creation requires a secret hash that must be known to suppy matter\n     * Creation requires input of total number of matter in contract and the amount each user can draw at a single time\n     * Drawing any amount of matter results in the creation of new supply of matter\n     * In creating the faucet, the creator replenishes the accounts of other nut holders (tax on system to create message)\n     * Caller will also receive matter if others call on this function\n     */\n    function createButter(\n        uint256 _nutId,\n        bytes32 _secretHash,\n        uint256 _matterContributed,\n        string memory _cidPath,\n        bytes memory _signature\n        //uint256 _drawRate\n    ) public {\n        require(address(msg.sender) == ownerOf(_nutId), \"Caller is not owner of nut\");\n        vault.newButterJar(_nutId, _matterContributed, _secretHash);\n        changeTokenURI(_nutId, _cidPath, _signature);\n    }\n\n    /**\n     * Called by CosmoButter when some matter is drawn from the contract.\n     */\n    function spreadButter(\n        uint256 _tokenId,\n        string memory _cidPath,\n        bytes memory _signature\n        ) external {\n        changeTokenURI(_tokenId, _cidPath, _signature);\n    }\n\n}\n",
  "sourcePath": "/home/redlentils/Seafile/Websites/avatarnft/contracts/CosmoNuts.sol",
  "compiler": {
    "name": "solc",
    "version": "0.8.17+commit.8df45f5f.Emscripten.clang"
  },
  "schemaVersion": "3.4.10",
  "updatedAt": "2022-10-06T18:37:19.484Z",
  "devdoc": {
    "kind": "dev",
    "methods": {
      "approve(address,uint256)": {
        "details": "See {IERC721-approve}."
      },
      "balanceOf(address)": {
        "details": "See {IERC721-balanceOf}."
      },
      "getApproved(uint256)": {
        "details": "See {IERC721-getApproved}."
      },
      "isApprovedForAll(address,address)": {
        "details": "See {IERC721-isApprovedForAll}."
      },
      "name()": {
        "details": "See {IERC721Metadata-name}."
      },
      "owner()": {
        "details": "Returns the address of the current owner."
      },
      "ownerOf(uint256)": {
        "details": "See {IERC721-ownerOf}."
      },
      "renounceOwnership()": {
        "details": "Leaves the contract without owner. It will not be possible to call `onlyOwner` functions anymore. Can only be called by the current owner. NOTE: Renouncing ownership will leave the contract without an owner, thereby removing any functionality that is only available to the owner."
      },
      "safeTransferFrom(address,address,uint256)": {
        "details": "See {IERC721-safeTransferFrom}."
      },
      "safeTransferFrom(address,address,uint256,bytes)": {
        "details": "See {IERC721-safeTransferFrom}."
      },
      "setApprovalForAll(address,bool)": {
        "details": "See {IERC721-setApprovalForAll}."
      },
      "symbol()": {
        "details": "See {IERC721Metadata-symbol}."
      },
      "tokenByIndex(uint256)": {
        "details": "See {IERC721Enumerable-tokenByIndex}."
      },
      "tokenOfOwnerByIndex(address,uint256)": {
        "details": "See {IERC721Enumerable-tokenOfOwnerByIndex}."
      },
      "totalSupply()": {
        "details": "See {IERC721Enumerable-totalSupply}."
      },
      "transferFrom(address,address,uint256)": {
        "details": "See {IERC721-transferFrom}."
      },
      "transferOwnership(address)": {
        "details": "Transfers ownership of the contract to a new account (`newOwner`). Can only be called by the current owner."
      }
    },
    "version": 1
  },
  "userdoc": {
    "kind": "user",
    "methods": {
      "createButter(uint256,bytes32,uint256,string,bytes)": {
        "notice": "Function callable by Nut owner to create a matter faucet which allows other users to draw matter Creation requires a secret hash that must be known to suppy matter Creation requires input of total number of matter in contract and the amount each user can draw at a single time Drawing any amount of matter results in the creation of new supply of matter In creating the faucet, the creator replenishes the accounts of other nut holders (tax on system to create message) Caller will also receive matter if others call on this function"
      },
      "createSeed(uint256,bytes32,string,bytes)": {
        "notice": "Function callable by Nut owner to create a seed which has the potential to turn into a new Nut. Requires the input of a secretHash and a specified amount of Ether to create. A required level of matter must be burned which is equal to the amount of seeds you have in Universe multiplied by the matterRate."
      },
      "spreadButter(uint256,string,bytes)": {
        "notice": "Called by CosmoButter when some matter is drawn from the contract."
      }
    },
    "notice": "Main Contract for the NFT tokens. System address resembles the public address of the software application.",
    "version": 1
  }
}