{
  "contractName": "CosmoSeed",
  "abi": [
    {
      "inputs": [],
      "name": "seed",
      "outputs": [
        {
          "internalType": "uint256",
          "name": "id",
          "type": "uint256"
        },
        {
          "internalType": "uint256",
          "name": "nutId",
          "type": "uint256"
        },
        {
          "internalType": "uint256",
          "name": "heldEther",
          "type": "uint256"
        },
        {
          "internalType": "uint256",
          "name": "matterNeeded",
          "type": "uint256"
        },
        {
          "internalType": "address",
          "name": "location",
          "type": "address"
        },
        {
          "internalType": "address",
          "name": "matter",
          "type": "address"
        },
        {
          "internalType": "address",
          "name": "treasury",
          "type": "address"
        },
        {
          "internalType": "address",
          "name": "cosmos",
          "type": "address"
        },
        {
          "internalType": "bytes32",
          "name": "secretHash",
          "type": "bytes32"
        }
      ],
      "stateMutability": "view",
      "type": "function"
    },
    {
      "stateMutability": "payable",
      "type": "receive"
    },
    {
      "inputs": [
        {
          "internalType": "uint256",
          "name": "_seedId",
          "type": "uint256"
        },
        {
          "internalType": "uint256",
          "name": "_nutId",
          "type": "uint256"
        },
        {
          "internalType": "address",
          "name": "_matter",
          "type": "address"
        },
        {
          "internalType": "address",
          "name": "_treasury",
          "type": "address"
        },
        {
          "internalType": "address",
          "name": "_cosmos",
          "type": "address"
        },
        {
          "internalType": "bytes32",
          "name": "_secretHash",
          "type": "bytes32"
        }
      ],
      "name": "initialize",
      "outputs": [],
      "stateMutability": "nonpayable",
      "type": "function"
    },
    {
      "inputs": [],
      "name": "matterNeeded",
      "outputs": [
        {
          "internalType": "uint256",
          "name": "",
          "type": "uint256"
        }
      ],
      "stateMutability": "view",
      "type": "function"
    },
    {
      "inputs": [],
      "name": "nutId",
      "outputs": [
        {
          "internalType": "uint256",
          "name": "",
          "type": "uint256"
        }
      ],
      "stateMutability": "view",
      "type": "function"
    },
    {
      "inputs": [
        {
          "internalType": "string",
          "name": "_secret",
          "type": "string"
        },
        {
          "internalType": "string",
          "name": "_cidPath",
          "type": "string"
        },
        {
          "internalType": "bytes",
          "name": "_signature",
          "type": "bytes"
        }
      ],
      "name": "spawnNut",
      "outputs": [
        {
          "internalType": "bool",
          "name": "",
          "type": "bool"
        }
      ],
      "stateMutability": "nonpayable",
      "type": "function"
    },
    {
      "inputs": [],
      "name": "getBalance",
      "outputs": [
        {
          "internalType": "uint256",
          "name": "",
          "type": "uint256"
        }
      ],
      "stateMutability": "view",
      "type": "function"
    }
  ],
  "bytecode": "0x608060405234801561001057600080fd5b506117b7806100206000396000f3fe6080604052600436106100595760003560e01c806312065fe01461006e5780634cf30bf914610099578063685771f4146100c25780637d94792a146100ed578063956c2dc314610120578063c5d12c971461015d57610069565b3661006957346000600201819055005b600080fd5b34801561007a57600080fd5b50610083610188565b6040516100909190610d49565b60405180910390f35b3480156100a557600080fd5b506100c060048036038101906100bb9190610e38565b610190565b005b3480156100ce57600080fd5b506100d7610352565b6040516100e49190610d49565b60405180910390f35b3480156100f957600080fd5b5061010261035e565b60405161011799989796959493929190610ee3565b60405180910390f35b34801561012c57600080fd5b5061014760048036038101906101429190611157565b61041a565b6040516101549190611219565b60405180910390f35b34801561016957600080fd5b50610172610ca7565b60405161017f9190610d49565b60405180910390f35b600047905090565b85600080018190555084600060010181905550600080600201819055508273ffffffffffffffffffffffffffffffffffffffff16638ed3df0f866040518263ffffffff1660e01b81526004016101e69190610d49565b602060405180830381865afa158015610203573d6000803e3d6000fd5b505050506040513d601f19601f820116820180604052508101906102279190611249565b60006003018190555030600060040160006101000a81548173ffffffffffffffffffffffffffffffffffffffff021916908373ffffffffffffffffffffffffffffffffffffffff16021790555083600060050160006101000a81548173ffffffffffffffffffffffffffffffffffffffff021916908373ffffffffffffffffffffffffffffffffffffffff16021790555082600060060160006101000a81548173ffffffffffffffffffffffffffffffffffffffff021916908373ffffffffffffffffffffffffffffffffffffffff16021790555081600060070160006101000a81548173ffffffffffffffffffffffffffffffffffffffff021916908373ffffffffffffffffffffffffffffffffffffffff16021790555080600060080181905550505050505050565b60008060010154905090565b60008060000154908060010154908060020154908060030154908060040160009054906101000a900473ffffffffffffffffffffffffffffffffffffffff16908060050160009054906101000a900473ffffffffffffffffffffffffffffffffffffffff16908060060160009054906101000a900473ffffffffffffffffffffffffffffffffffffffff16908060070160009054906101000a900473ffffffffffffffffffffffffffffffffffffffff16908060080154905089565b600061042584610cb3565b5060008060060160009054906101000a900473ffffffffffffffffffffffffffffffffffffffff1673ffffffffffffffffffffffffffffffffffffffff1663d798b462336040518263ffffffff1660e01b81526004016104859190611276565b602060405180830381865afa1580156104a2573d6000803e3d6000fd5b505050506040513d601f19601f820116820180604052508101906104c69190611249565b9050600060030154811015610510576040517f08c379a0000000000000000000000000000000000000000000000000000000008152600401610507906112ee565b60405180910390fd5b600060050160009054906101000a900473ffffffffffffffffffffffffffffffffffffffff1673ffffffffffffffffffffffffffffffffffffffff1663f3d8c7a733306000600301546040518463ffffffff1660e01b81526004016105779392919061130e565b6020604051808303816000875af1158015610596573d6000803e3d6000fd5b505050506040513d601f19601f820116820180604052508101906105ba9190611371565b5060008060070160009054906101000a900473ffffffffffffffffffffffffffffffffffffffff1673ffffffffffffffffffffffffffffffffffffffff1663836387106000600101546040518263ffffffff1660e01b815260040161061f9190610d49565b602060405180830381865afa15801561063c573d6000803e3d6000fd5b505050506040513d601f19601f8201168201806040525081019061066091906113b3565b9050600060050160009054906101000a900473ffffffffffffffffffffffffffffffffffffffff1673ffffffffffffffffffffffffffffffffffffffff166328c59aef33836000600301546040518463ffffffff1660e01b81526004016106c99392919061130e565b600060405180830381600087803b1580156106e357600080fd5b505af11580156106f7573d6000803e3d6000fd5b5050505060008060070160009054906101000a900473ffffffffffffffffffffffffffffffffffffffff1673ffffffffffffffffffffffffffffffffffffffff1663a58f2eb633886040518363ffffffff1660e01b815260040161075c92919061144e565b6020604051808303816000875af115801561077b573d6000803e3d6000fd5b505050506040513d601f19601f8201168201806040525081019061079f9190611249565b905060008060060160009054906101000a900473ffffffffffffffffffffffffffffffffffffffff1673ffffffffffffffffffffffffffffffffffffffff166375b689aa6040518163ffffffff1660e01b81526004016020604051808303816000875af1158015610814573d6000803e3d6000fd5b505050506040513d601f19601f8201168201806040525081019061083891906113b3565b90508073ffffffffffffffffffffffffffffffffffffffff1663bd6af0098389896040518463ffffffff1660e01b8152600401610877939291906114d3565b600060405180830381600087803b15801561089157600080fd5b505af11580156108a5573d6000803e3d6000fd5b50505050600060050160009054906101000a900473ffffffffffffffffffffffffffffffffffffffff1673ffffffffffffffffffffffffffffffffffffffff16634bbc1bcd336000600301546040518363ffffffff1660e01b815260040161090e929190611518565b6020604051808303816000875af115801561092d573d6000803e3d6000fd5b505050506040513d601f19601f820116820180604052508101906109519190611249565b50600060060160009054906101000a900473ffffffffffffffffffffffffffffffffffffffff1673ffffffffffffffffffffffffffffffffffffffff16630a4d2f0c60008001546040518263ffffffff1660e01b81526004016109b49190610d49565b6020604051808303816000875af11580156109d3573d6000803e3d6000fd5b505050506040513d601f19601f820116820180604052508101906109f79190611371565b5060008060060160009054906101000a900473ffffffffffffffffffffffffffffffffffffffff1673ffffffffffffffffffffffffffffffffffffffff166398d5fdca6040518163ffffffff1660e01b8152600401602060405180830381865afa158015610a69573d6000803e3d6000fd5b505050506040513d601f19601f82011682018060405250810190610a8d9190611249565b905060008060060160009054906101000a900473ffffffffffffffffffffffffffffffffffffffff1673ffffffffffffffffffffffffffffffffffffffff1663ad0ca9066040518163ffffffff1660e01b8152600401602060405180830381865afa158015610b00573d6000803e3d6000fd5b505050506040513d601f19601f82011682018060405250810190610b2491906113b3565b905060008173ffffffffffffffffffffffffffffffffffffffff1683604051610b4c90611572565b60006040518083038185875af1925050503d8060008114610b89576040519150601f19603f3d011682016040523d82523d6000602084013e610b8e565b606091505b5050905080610bd2576040517f08c379a0000000000000000000000000000000000000000000000000000000008152600401610bc9906115d3565b60405180910390fd5b600083600060020154610be59190611622565b905060008773ffffffffffffffffffffffffffffffffffffffff1682604051610c0d90611572565b60006040518083038185875af1925050503d8060008114610c4a576040519150601f19603f3d011682016040523d82523d6000602084013e610c4f565b606091505b5050905080610c93576040517f08c379a0000000000000000000000000000000000000000000000000000000008152600401610c8a906116a2565b60405180910390fd5b600199505050505050505050509392505050565b60008060030154905090565b60008082604051602001610cc791906116fe565b6040516020818303038152906040528051906020012090506000600801548114610d26576040517f08c379a0000000000000000000000000000000000000000000000000000000008152600401610d1d90611761565b60405180910390fd5b6001915050919050565b6000819050919050565b610d4381610d30565b82525050565b6000602082019050610d5e6000830184610d3a565b92915050565b6000604051905090565b600080fd5b600080fd5b610d8181610d30565b8114610d8c57600080fd5b50565b600081359050610d9e81610d78565b92915050565b600073ffffffffffffffffffffffffffffffffffffffff82169050919050565b6000610dcf82610da4565b9050919050565b610ddf81610dc4565b8114610dea57600080fd5b50565b600081359050610dfc81610dd6565b92915050565b6000819050919050565b610e1581610e02565b8114610e2057600080fd5b50565b600081359050610e3281610e0c565b92915050565b60008060008060008060c08789031215610e5557610e54610d6e565b5b6000610e6389828a01610d8f565b9650506020610e7489828a01610d8f565b9550506040610e8589828a01610ded565b9450506060610e9689828a01610ded565b9350506080610ea789828a01610ded565b92505060a0610eb889828a01610e23565b9150509295509295509295565b610ece81610dc4565b82525050565b610edd81610e02565b82525050565b600061012082019050610ef9600083018c610d3a565b610f06602083018b610d3a565b610f13604083018a610d3a565b610f206060830189610d3a565b610f2d6080830188610ec5565b610f3a60a0830187610ec5565b610f4760c0830186610ec5565b610f5460e0830185610ec5565b610f62610100830184610ed4565b9a9950505050505050505050565b600080fd5b600080fd5b6000601f19601f8301169050919050565b7f4e487b7100000000000000000000000000000000000000000000000000000000600052604160045260246000fd5b610fc382610f7a565b810181811067ffffffffffffffff82111715610fe257610fe1610f8b565b5b80604052505050565b6000610ff5610d64565b90506110018282610fba565b919050565b600067ffffffffffffffff82111561102157611020610f8b565b5b61102a82610f7a565b9050602081019050919050565b82818337600083830152505050565b600061105961105484611006565b610feb565b90508281526020810184848401111561107557611074610f75565b5b611080848285611037565b509392505050565b600082601f83011261109d5761109c610f70565b5b81356110ad848260208601611046565b91505092915050565b600067ffffffffffffffff8211156110d1576110d0610f8b565b5b6110da82610f7a565b9050602081019050919050565b60006110fa6110f5846110b6565b610feb565b90508281526020810184848401111561111657611115610f75565b5b611121848285611037565b509392505050565b600082601f83011261113e5761113d610f70565b5b813561114e8482602086016110e7565b91505092915050565b6000806000606084860312156111705761116f610d6e565b5b600084013567ffffffffffffffff81111561118e5761118d610d73565b5b61119a86828701611088565b935050602084013567ffffffffffffffff8111156111bb576111ba610d73565b5b6111c786828701611088565b925050604084013567ffffffffffffffff8111156111e8576111e7610d73565b5b6111f486828701611129565b9150509250925092565b60008115159050919050565b611213816111fe565b82525050565b600060208201905061122e600083018461120a565b92915050565b60008151905061124381610d78565b92915050565b60006020828403121561125f5761125e610d6e565b5b600061126d84828501611234565b91505092915050565b600060208201905061128b6000830184610ec5565b92915050565b600082825260208201905092915050565b7f4e6f7420656e6f756768206d617474657220746f20737061776e2061206e7574600082015250565b60006112d8602083611291565b91506112e3826112a2565b602082019050919050565b60006020820190508181036000830152611307816112cb565b9050919050565b60006060820190506113236000830186610ec5565b6113306020830185610ec5565b61133d6040830184610d3a565b949350505050565b61134e816111fe565b811461135957600080fd5b50565b60008151905061136b81611345565b92915050565b60006020828403121561138757611386610d6e565b5b60006113958482850161135c565b91505092915050565b6000815190506113ad81610dd6565b92915050565b6000602082840312156113c9576113c8610d6e565b5b60006113d78482850161139e565b91505092915050565b600081519050919050565b60005b838110156114095780820151818401526020810190506113ee565b60008484015250505050565b6000611420826113e0565b61142a8185611291565b935061143a8185602086016113eb565b61144381610f7a565b840191505092915050565b60006040820190506114636000830185610ec5565b81810360208301526114758184611415565b90509392505050565b600081519050919050565b600082825260208201905092915050565b60006114a58261147e565b6114af8185611489565b93506114bf8185602086016113eb565b6114c881610f7a565b840191505092915050565b60006060820190506114e86000830186610d3a565b81810360208301526114fa8185611415565b9050818103604083015261150e818461149a565b9050949350505050565b600060408201905061152d6000830185610ec5565b61153a6020830184610d3a565b9392505050565b600081905092915050565b50565b600061155c600083611541565b91506115678261154c565b600082019050919050565b600061157d8261154f565b9150819050919050565b7f4574686572206e6f742073656e7420746f2053797374656d0000000000000000600082015250565b60006115bd601883611291565b91506115c882611587565b602082019050919050565b600060208201905081810360008301526115ec816115b0565b9050919050565b7f4e487b7100000000000000000000000000000000000000000000000000000000600052601160045260246000fd5b600061162d82610d30565b915061163883610d30565b92508282039050818111156116505761164f6115f3565b5b92915050565b7f4574686572206e6f742073656e7420746f20706172656e74206e757400000000600082015250565b600061168c601c83611291565b915061169782611656565b602082019050919050565b600060208201905081810360008301526116bb8161167f565b9050919050565b600081905092915050565b60006116d8826113e0565b6116e281856116c2565b93506116f28185602086016113eb565b80840191505092915050565b600061170a82846116cd565b915081905092915050565b7f496e70757420646f6573206e6f74206d61746368207365637265740000000000600082015250565b600061174b601b83611291565b915061175682611715565b602082019050919050565b6000602082019050818103600083015261177a8161173e565b905091905056fea2646970667358221220b7422ee0f6c459928ff560b33b4658e6957305209cdce0a18c02bd16ecdfa68a64736f6c63430008110033",
  "immutableReferences": {},
  "source": "// SPDX-License-Identifier: MIT\npragma solidity ^0.8.7;\n\nimport \"./ICosmoTreasury.sol\";\nimport \"./ICosmoNuts.sol\";\nimport \"./ICosmoSeed.sol\";\nimport \"./ICosmoMatter.sol\";\nimport \"./ICosmoVault.sol\";\n\n/**\n * Contract created from a CosmoNut.  This contract holds a set amount of ether.\n * Ether is unlocked when the predetermined amount of matter is transferred to nut owner.\n */\n contract CosmoSeed is ICosmoSeed {\n\n     struct Seed {\n         uint256 id;\n         uint256 nutId;\n         //uint256 nutPrice;\n         uint256 heldEther;\n         uint256 matterNeeded;\n         address location;\n         //address system;\n         address matter;\n         address treasury;\n         address cosmos;\n         bytes32 secretHash;\n     }\n     Seed public seed;\n\n     function initialize(\n         uint256 _seedId,\n         uint256 _nutId,\n         //uint256 _nutPrice,\n         //address _system,\n         address _matter,\n         address _treasury,\n         address _cosmos,\n         bytes32 _secretHash\n     //) public payable {\n     ) external virtual override {\n         seed.id = _seedId;\n         seed.nutId = _nutId;\n         //seed.nutPrice = _nutPrice;\n         //seed.heldEther = msg.value;\n         seed.heldEther = 0;\n         seed.matterNeeded = ICosmoTreasury(_treasury).matterNeeded(_nutId);\n         //seed.location = payable(address(this));\n         seed.location = address(this);\n         //seed.system = _system;\n         seed.matter = _matter;\n         seed.treasury = _treasury;\n         seed.cosmos = _cosmos;\n         seed.secretHash = _secretHash;\n     }\n\n     function matterNeeded() public view returns (uint256) {\n         return seed.matterNeeded;\n     }\n\n     function nutId() public view returns (uint256) {\n         return seed.nutId;\n     }\n\n     /**\n      * Takes a string input and hashes it; compares to the SECRET_HASH in the contract\n      * If it matches, returns true\n      */\n     function verifySecret(string memory _input) private view returns(bool) {\n         bytes32 inputHash = keccak256(abi.encodePacked(_input));\n         require(inputHash == seed.secretHash, \"Input does not match secret\");\n         return true;\n     }\n\n     /**\n      * Can be called from anyone who comes across, asks for secret from user\n      * The application fills out the path and signature\n      * If provided secret is correct, a new CosmoNut is minted and assigned to caller\n      */\n     function spawnNut(string memory _secret, string memory _cidPath, bytes memory _signature) public returns (bool) {\n         verifySecret(_secret); // Check whether provided secret is correct\n\n         uint256 matterOfCaller = ICosmoTreasury(seed.treasury).matterOf(msg.sender);\n         require(matterOfCaller >= seed.matterNeeded, \"Not enough matter to spawn a nut\");\n\n         ICosmoMatter(seed.matter).grantApproval(\n             msg.sender,\n             address(this),\n             seed.matterNeeded\n         );\n\n         address parentNutOwner = ICosmoNuts(seed.cosmos).getOwnerOf(seed.nutId);\n\n         ICosmoMatter(seed.matter).transferMatterFrom(msg.sender, parentNutOwner, seed.matterNeeded);\n\n         uint256 newNutId = ICosmoNuts(seed.cosmos).newNutMint(msg.sender, _cidPath);\n\n         address vault = ICosmoTreasury(seed.treasury).getVaultLocation();\n         ICosmoVault(vault).changeTokenURI(\n             newNutId, _cidPath, _signature\n         );\n\n         ICosmoMatter(seed.matter).mintMatter(\n             msg.sender,\n             seed.matterNeeded\n         );\n\n         ICosmoTreasury(seed.treasury).growSeed(seed.id);\n\n         //ICosmoTreasury(seed.treasury).seedFromNut(seed.id);\n         //ICosmoNuts(seed.cosmos).createNut(msg.sender, _cidPath, _signature);\n\n         /**\n          * Sending the original set price to Treasury.  This is payment for a new NFT (nut).\n          * Consider implication - tax - and decision to keep?\n          */\n         uint256 nutPrice = ICosmoTreasury(seed.treasury).getPrice();\n         address system = ICosmoTreasury(seed.treasury).getSystem();\n         (bool sentToSystem,/*memory data*/) = system.call{\n             value: nutPrice\n         }(\"\");\n         require(sentToSystem, \"Ether not sent to System\");\n\n         /**\n          * Sending remaining amount back to current nut owner who created the seed.\n          */\n         uint256 returnAmount = seed.heldEther - nutPrice;\n         //if (returnAmount > 0) {\n         (bool sentToParent,/*memory data*/) = parentNutOwner.call{\n             value: returnAmount\n         }(\"\");\n         require(sentToParent, \"Ether not sent to parent nut\");\n         //}\n\n         return true;\n     }\n\n     /**\n      * Functions below relate to receiving ether.  This contract holds ether.\n      */\n      // Function to receive Ether, msg.data must be empty\n     receive() external payable {\n         seed.heldEther = msg.value;\n     }\n\n     // Fallback function is called when msg.data is not empty\n     //fallback() external payable {}\n\n     function getBalance() public view virtual override returns (uint256) {\n         return address(this).balance;\n     }\n\n }\n",
  "sourcePath": "/home/redlentils/Seafile/Websites/avatarnft/contracts/CosmoSeed.sol",
  "compiler": {
    "name": "solc",
    "version": "0.8.17+commit.8df45f5f.Emscripten.clang"
  },
  "schemaVersion": "3.4.10",
  "updatedAt": "2022-10-28T14:21:30.747Z",
  "devdoc": {
    "kind": "dev",
    "methods": {},
    "version": 1
  },
  "userdoc": {
    "kind": "user",
    "methods": {
      "spawnNut(string,string,bytes)": {
        "notice": "Can be called from anyone who comes across, asks for secret from user The application fills out the path and signature If provided secret is correct, a new CosmoNut is minted and assigned to caller"
      }
    },
    "notice": "Contract created from a CosmoNut.  This contract holds a set amount of ether. Ether is unlocked when the predetermined amount of matter is transferred to nut owner.",
    "version": 1
  }
}