{
  "contractName": "CosmoTreasury",
  "abi": [
    {
      "inputs": [
        {
          "internalType": "address",
          "name": "_systemAddress",
          "type": "address"
        },
        {
          "internalType": "address",
          "name": "_matterAddress",
          "type": "address"
        }
      ],
      "stateMutability": "nonpayable",
      "type": "constructor"
    },
    {
      "inputs": [],
      "name": "addressOf",
      "outputs": [
        {
          "internalType": "address",
          "name": "system",
          "type": "address"
        },
        {
          "internalType": "address",
          "name": "matter",
          "type": "address"
        },
        {
          "internalType": "address",
          "name": "treasury",
          "type": "address"
        },
        {
          "internalType": "address",
          "name": "cosmos",
          "type": "address"
        },
        {
          "internalType": "address",
          "name": "seedImplementation",
          "type": "address"
        },
        {
          "internalType": "address",
          "name": "butterImplementation",
          "type": "address"
        }
      ],
      "stateMutability": "view",
      "type": "function"
    },
    {
      "inputs": [
        {
          "internalType": "uint256",
          "name": "",
          "type": "uint256"
        }
      ],
      "name": "butterChurnedByNut",
      "outputs": [
        {
          "internalType": "uint256",
          "name": "",
          "type": "uint256"
        }
      ],
      "stateMutability": "view",
      "type": "function"
    },
    {
      "inputs": [],
      "name": "butterDeficiencyInUniverse",
      "outputs": [
        {
          "internalType": "uint256",
          "name": "",
          "type": "uint256"
        }
      ],
      "stateMutability": "view",
      "type": "function"
    },
    {
      "inputs": [
        {
          "internalType": "uint256",
          "name": "",
          "type": "uint256"
        }
      ],
      "name": "butterDeficiencyOfNut",
      "outputs": [
        {
          "internalType": "uint256",
          "name": "",
          "type": "uint256"
        }
      ],
      "stateMutability": "view",
      "type": "function"
    },
    {
      "inputs": [],
      "name": "butterJars",
      "outputs": [
        {
          "internalType": "uint256",
          "name": "",
          "type": "uint256"
        }
      ],
      "stateMutability": "view",
      "type": "function"
    },
    {
      "inputs": [
        {
          "internalType": "uint256",
          "name": "",
          "type": "uint256"
        }
      ],
      "name": "butterLocations",
      "outputs": [
        {
          "internalType": "address",
          "name": "",
          "type": "address"
        }
      ],
      "stateMutability": "view",
      "type": "function"
    },
    {
      "inputs": [],
      "name": "butterSpread",
      "outputs": [
        {
          "internalType": "uint256",
          "name": "",
          "type": "uint256"
        }
      ],
      "stateMutability": "view",
      "type": "function"
    },
    {
      "inputs": [],
      "name": "butterWeight",
      "outputs": [
        {
          "internalType": "uint256",
          "name": "",
          "type": "uint256"
        }
      ],
      "stateMutability": "view",
      "type": "function"
    },
    {
      "inputs": [
        {
          "internalType": "uint256",
          "name": "",
          "type": "uint256"
        },
        {
          "internalType": "uint256",
          "name": "",
          "type": "uint256"
        }
      ],
      "name": "buttersOfNut",
      "outputs": [
        {
          "internalType": "uint256",
          "name": "",
          "type": "uint256"
        }
      ],
      "stateMutability": "view",
      "type": "function"
    },
    {
      "inputs": [
        {
          "internalType": "uint256",
          "name": "",
          "type": "uint256"
        }
      ],
      "name": "currentOwnerOfNut",
      "outputs": [
        {
          "internalType": "address",
          "name": "",
          "type": "address"
        }
      ],
      "stateMutability": "view",
      "type": "function"
    },
    {
      "inputs": [
        {
          "internalType": "uint256",
          "name": "",
          "type": "uint256"
        }
      ],
      "name": "isButterActive",
      "outputs": [
        {
          "internalType": "bool",
          "name": "",
          "type": "bool"
        }
      ],
      "stateMutability": "view",
      "type": "function"
    },
    {
      "inputs": [
        {
          "internalType": "uint256",
          "name": "",
          "type": "uint256"
        }
      ],
      "name": "isSeedActive",
      "outputs": [
        {
          "internalType": "bool",
          "name": "",
          "type": "bool"
        }
      ],
      "stateMutability": "view",
      "type": "function"
    },
    {
      "inputs": [
        {
          "internalType": "uint256",
          "name": "",
          "type": "uint256"
        },
        {
          "internalType": "uint256",
          "name": "",
          "type": "uint256"
        }
      ],
      "name": "isSeedOfNut",
      "outputs": [
        {
          "internalType": "bool",
          "name": "",
          "type": "bool"
        }
      ],
      "stateMutability": "view",
      "type": "function"
    },
    {
      "inputs": [
        {
          "internalType": "uint256",
          "name": "",
          "type": "uint256"
        }
      ],
      "name": "matterBalanceOfNut",
      "outputs": [
        {
          "internalType": "uint256",
          "name": "",
          "type": "uint256"
        }
      ],
      "stateMutability": "view",
      "type": "function"
    },
    {
      "inputs": [
        {
          "internalType": "uint256",
          "name": "",
          "type": "uint256"
        }
      ],
      "name": "matterMintedByNut",
      "outputs": [
        {
          "internalType": "uint256",
          "name": "",
          "type": "uint256"
        }
      ],
      "stateMutability": "view",
      "type": "function"
    },
    {
      "inputs": [
        {
          "internalType": "uint256",
          "name": "_nutId",
          "type": "uint256"
        }
      ],
      "name": "numOfSeedsGrownOf",
      "outputs": [
        {
          "internalType": "uint256",
          "name": "",
          "type": "uint256"
        }
      ],
      "stateMutability": "view",
      "type": "function"
    },
    {
      "inputs": [
        {
          "internalType": "uint256",
          "name": "_nutId",
          "type": "uint256"
        }
      ],
      "name": "numOfSeedsOf",
      "outputs": [
        {
          "internalType": "uint256",
          "name": "",
          "type": "uint256"
        }
      ],
      "stateMutability": "view",
      "type": "function"
    },
    {
      "inputs": [
        {
          "internalType": "uint256",
          "name": "_nutId",
          "type": "uint256"
        }
      ],
      "name": "numberOfButterJars",
      "outputs": [
        {
          "internalType": "uint256",
          "name": "",
          "type": "uint256"
        }
      ],
      "stateMutability": "view",
      "type": "function"
    },
    {
      "inputs": [],
      "name": "nut",
      "outputs": [
        {
          "internalType": "uint256",
          "name": "price",
          "type": "uint256"
        },
        {
          "internalType": "uint256",
          "name": "rate",
          "type": "uint256"
        }
      ],
      "stateMutability": "view",
      "type": "function"
    },
    {
      "inputs": [
        {
          "internalType": "uint256",
          "name": "",
          "type": "uint256"
        }
      ],
      "name": "nutOfButter",
      "outputs": [
        {
          "internalType": "uint256",
          "name": "",
          "type": "uint256"
        }
      ],
      "stateMutability": "view",
      "type": "function"
    },
    {
      "inputs": [
        {
          "internalType": "uint256",
          "name": "",
          "type": "uint256"
        }
      ],
      "name": "nutOfSeed",
      "outputs": [
        {
          "internalType": "uint256",
          "name": "",
          "type": "uint256"
        }
      ],
      "stateMutability": "view",
      "type": "function"
    },
    {
      "inputs": [
        {
          "internalType": "uint256",
          "name": "",
          "type": "uint256"
        }
      ],
      "name": "nutsPayeeList",
      "outputs": [
        {
          "internalType": "uint256",
          "name": "",
          "type": "uint256"
        }
      ],
      "stateMutability": "view",
      "type": "function"
    },
    {
      "inputs": [
        {
          "internalType": "uint256",
          "name": "",
          "type": "uint256"
        }
      ],
      "name": "seedLocations",
      "outputs": [
        {
          "internalType": "address",
          "name": "",
          "type": "address"
        }
      ],
      "stateMutability": "view",
      "type": "function"
    },
    {
      "inputs": [],
      "name": "seedsCreated",
      "outputs": [
        {
          "internalType": "uint256",
          "name": "",
          "type": "uint256"
        }
      ],
      "stateMutability": "view",
      "type": "function"
    },
    {
      "inputs": [
        {
          "internalType": "uint256",
          "name": "",
          "type": "uint256"
        },
        {
          "internalType": "uint256",
          "name": "",
          "type": "uint256"
        }
      ],
      "name": "seedsGrownOfNut",
      "outputs": [
        {
          "internalType": "uint256",
          "name": "",
          "type": "uint256"
        }
      ],
      "stateMutability": "view",
      "type": "function"
    },
    {
      "inputs": [
        {
          "internalType": "uint256",
          "name": "",
          "type": "uint256"
        },
        {
          "internalType": "uint256",
          "name": "",
          "type": "uint256"
        }
      ],
      "name": "seedsOfNut",
      "outputs": [
        {
          "internalType": "uint256",
          "name": "",
          "type": "uint256"
        }
      ],
      "stateMutability": "view",
      "type": "function"
    },
    {
      "inputs": [],
      "name": "getPrice",
      "outputs": [
        {
          "internalType": "uint256",
          "name": "",
          "type": "uint256"
        }
      ],
      "stateMutability": "view",
      "type": "function"
    },
    {
      "inputs": [
        {
          "internalType": "uint256",
          "name": "_nutId",
          "type": "uint256"
        }
      ],
      "name": "matterNeeded",
      "outputs": [
        {
          "internalType": "uint256",
          "name": "",
          "type": "uint256"
        }
      ],
      "stateMutability": "view",
      "type": "function"
    },
    {
      "inputs": [
        {
          "internalType": "uint256",
          "name": "_nutId",
          "type": "uint256"
        },
        {
          "internalType": "bytes32",
          "name": "_secretHash",
          "type": "bytes32"
        }
      ],
      "name": "spawnSeed",
      "outputs": [
        {
          "internalType": "bool",
          "name": "",
          "type": "bool"
        }
      ],
      "stateMutability": "payable",
      "type": "function"
    },
    {
      "inputs": [
        {
          "internalType": "uint256",
          "name": "_seedId",
          "type": "uint256"
        },
        {
          "internalType": "uint256",
          "name": "_matterNeeded",
          "type": "uint256"
        }
      ],
      "name": "seedFromNut",
      "outputs": [
        {
          "internalType": "bool",
          "name": "",
          "type": "bool"
        }
      ],
      "stateMutability": "nonpayable",
      "type": "function"
    },
    {
      "inputs": [
        {
          "internalType": "uint256",
          "name": "_nutId",
          "type": "uint256"
        },
        {
          "internalType": "uint256",
          "name": "_matterContributed",
          "type": "uint256"
        },
        {
          "internalType": "uint256",
          "name": "_matterDrawRate",
          "type": "uint256"
        },
        {
          "internalType": "bytes32",
          "name": "_secretHash",
          "type": "bytes32"
        }
      ],
      "name": "newButter",
      "outputs": [
        {
          "internalType": "bool",
          "name": "",
          "type": "bool"
        }
      ],
      "stateMutability": "nonpayable",
      "type": "function"
    },
    {
      "inputs": [
        {
          "internalType": "address",
          "name": "_drawer",
          "type": "address"
        },
        {
          "internalType": "uint256",
          "name": "_butterId",
          "type": "uint256"
        },
        {
          "internalType": "uint256",
          "name": "_balance",
          "type": "uint256"
        },
        {
          "internalType": "uint256",
          "name": "_currentBalance",
          "type": "uint256"
        }
      ],
      "name": "butterDrawn",
      "outputs": [
        {
          "internalType": "bool",
          "name": "",
          "type": "bool"
        }
      ],
      "stateMutability": "nonpayable",
      "type": "function"
    },
    {
      "inputs": [
        {
          "internalType": "address",
          "name": "_tokenOwner",
          "type": "address"
        },
        {
          "internalType": "uint256",
          "name": "_tokenId",
          "type": "uint256"
        }
      ],
      "name": "assignMintBalance",
      "outputs": [
        {
          "internalType": "bool",
          "name": "",
          "type": "bool"
        }
      ],
      "stateMutability": "nonpayable",
      "type": "function"
    }
  ],
  "bytecode": "0x6080604052600080556000600755600060085560006009556000600f553480156200002957600080fd5b5060405162002f5d38038062002f5d83398181016040528101906200004f91906200018d565b81601260000160006101000a81548173ffffffffffffffffffffffffffffffffffffffff021916908373ffffffffffffffffffffffffffffffffffffffff16021790555080601260010160006101000a81548173ffffffffffffffffffffffffffffffffffffffff021916908373ffffffffffffffffffffffffffffffffffffffff16021790555030601260020160006101000a81548173ffffffffffffffffffffffffffffffffffffffff021916908373ffffffffffffffffffffffffffffffffffffffff1602179055505050620001d4565b600080fd5b600073ffffffffffffffffffffffffffffffffffffffff82169050919050565b6000620001558262000128565b9050919050565b620001678162000148565b81146200017357600080fd5b50565b60008151905062000187816200015c565b92915050565b60008060408385031215620001a757620001a662000123565b5b6000620001b78582860162000176565b9250506020620001ca8582860162000176565b9150509250929050565b612d7980620001e46000396000f3fe6080604052600436106101ee5760003560e01c80634ffe5a6f1161010d578063a06fc90b116100a0578063df4f5ccc1161006f578063df4f5ccc1461084b578063ea988be814610876578063f50d4349146108a1578063f6317f8d146108de578063fe774f9d14610909576101ee565b8063a06fc90b14610764578063a83851b9146107a1578063aef054ce146107d1578063d4d810321461080e576101ee565b80639578d3df116100dc5780639578d3df1461068257806398d5fdca146106bf5780639975a8a2146106ea5780639cee22b114610727576101ee565b80634ffe5a6f1461058e57806353f97bc8146105cb5780636b651a2c146106085780638ed3df0f14610645576101ee565b806323f526c01161018557806339dc84f41161015457806339dc84f4146104ac5780633c8023ad146104e957806347634e1c1461052657806349a6b51f14610563576101ee565b806323f526c0146103ca57806326342ea414610407578063282adc8c146104325780633279bd4f1461046f576101ee565b8063171e8441116101c1578063171e8441146102d65780631821907a146103135780631c85949c146103505780631e0b39641461038d576101ee565b806302760a48146101f357806303f5de9d146102305780631298896e1461026d57806315d3b7a0146102aa575b600080fd5b3480156101ff57600080fd5b5061021a60048036038101906102159190612238565b610939565b6040516102279190612280565b60405180910390f35b34801561023c57600080fd5b50610257600480360381019061025291906122d1565b610959565b6040516102649190612280565b60405180910390f35b34801561027957600080fd5b50610294600480360381019061028f9190612338565b6110f3565b6040516102a19190612387565b60405180910390f35b3480156102b657600080fd5b506102bf611124565b6040516102cd9291906123a2565b60405180910390f35b3480156102e257600080fd5b506102fd60048036038101906102f89190612238565b611136565b60405161030a9190612280565b60405180910390f35b34801561031f57600080fd5b5061033a60048036038101906103359190612238565b611156565b6040516103479190612387565b60405180910390f35b34801561035c57600080fd5b5061037760048036038101906103729190612429565b61116e565b6040516103849190612280565b60405180910390f35b34801561039957600080fd5b506103b460048036038101906103af9190612338565b61132b565b6040516103c19190612387565b60405180910390f35b3480156103d657600080fd5b506103f160048036038101906103ec9190612238565b61135c565b6040516103fe9190612478565b60405180910390f35b34801561041357600080fd5b5061041c61138f565b6040516104299190612387565b60405180910390f35b34801561043e57600080fd5b5061045960048036038101906104549190612238565b611395565b6040516104669190612387565b60405180910390f35b34801561047b57600080fd5b5061049660048036038101906104919190612238565b6113b5565b6040516104a39190612387565b60405180910390f35b3480156104b857600080fd5b506104d360048036038101906104ce9190612238565b6113cd565b6040516104e09190612478565b60405180910390f35b3480156104f557600080fd5b50610510600480360381019061050b9190612338565b611400565b60405161051d9190612387565b60405180910390f35b34801561053257600080fd5b5061054d60048036038101906105489190612238565b611431565b60405161055a9190612387565b60405180910390f35b34801561056f57600080fd5b50610578611449565b6040516105859190612387565b60405180910390f35b34801561059a57600080fd5b506105b560048036038101906105b09190612238565b61144f565b6040516105c29190612387565b60405180910390f35b3480156105d757600080fd5b506105f260048036038101906105ed9190612338565b611467565b6040516105ff9190612280565b60405180910390f35b34801561061457600080fd5b5061062f600480360381019061062a9190612238565b611496565b60405161063c9190612387565b60405180910390f35b34801561065157600080fd5b5061066c60048036038101906106679190612238565b6114b6565b6040516106799190612387565b60405180910390f35b34801561068e57600080fd5b506106a960048036038101906106a49190612238565b6114cf565b6040516106b69190612387565b60405180910390f35b3480156106cb57600080fd5b506106d46114f3565b6040516106e19190612387565b60405180910390f35b3480156106f657600080fd5b50610711600480360381019061070c9190612238565b611500565b60405161071e9190612387565b60405180910390f35b34801561073357600080fd5b5061074e60048036038101906107499190612493565b611520565b60405161075b9190612280565b60405180910390f35b34801561077057600080fd5b5061078b60048036038101906107869190612338565b61164f565b6040516107989190612280565b60405180910390f35b3480156107ad57600080fd5b506107b66118f4565b6040516107c8969594939291906124fa565b60405180910390f35b3480156107dd57600080fd5b506107f860048036038101906107f39190612238565b6119de565b6040516108059190612478565b60405180910390f35b34801561081a57600080fd5b5061083560048036038101906108309190612238565b611a11565b6040516108429190612387565b60405180910390f35b34801561085757600080fd5b50610860611a29565b60405161086d9190612387565b60405180910390f35b34801561088257600080fd5b5061088b611a2f565b6040516108989190612387565b60405180910390f35b3480156108ad57600080fd5b506108c860048036038101906108c39190612238565b611a35565b6040516108d59190612387565b60405180910390f35b3480156108ea57600080fd5b506108f3611a4d565b6040516109009190612387565b60405180910390f35b610923600480360381019061091e919061255b565b611a53565b6040516109309190612280565b60405180910390f35b60116020528060005260406000206000915054906101000a900460ff1681565b600080601a600087815260200190815260200160002060009054906101000a900473ffffffffffffffffffffffffffffffffffffffff1690503373ffffffffffffffffffffffffffffffffffffffff168173ffffffffffffffffffffffffffffffffffffffff1614610a00576040517f08c379a00000000000000000000000000000000000000000000000000000000081526004016109f7906125f8565b60405180910390fd5b84601b6000888152602001908152602001600020541015610a56576040517f08c379a0000000000000000000000000000000000000000000000000000000008152600401610a4d90612664565b60405180910390fd5b6000601260010160009054906101000a900473ffffffffffffffffffffffffffffffffffffffff1690508073ffffffffffffffffffffffffffffffffffffffff166370a08231836040518263ffffffff1660e01b8152600401610ab99190612478565b602060405180830381865afa158015610ad6573d6000803e3d6000fd5b505050506040513d601f19601f82011682018060405250810190610afa9190612699565b861115610b3c576040517f08c379a0000000000000000000000000000000000000000000000000000000008152600401610b3390612712565b60405180910390fd5b60008587610b4a9190612761565b14610b8a576040517f08c379a0000000000000000000000000000000000000000000000000000000008152600401610b81906127de565b60405180910390fd5b6000610b9588611496565b1115610c085785600f6000828254610bad919061282d565b9250508190555085601060008981526020019081526020016000206000828254610bd7919061282d565b92505081905550601c8790806001815401808255809150506001900390600052602060002001600090919091909150555b60008173ffffffffffffffffffffffffffffffffffffffff166370a08231601260020160009054906101000a900473ffffffffffffffffffffffffffffffffffffffff166040518263ffffffff1660e01b8152600401610c689190612478565b602060405180830381865afa158015610c85573d6000803e3d6000fd5b505050506040513d601f19601f82011682018060405250810190610ca99190612699565b90506000811115610f88576000610cc282600f54611d76565b90506000805b828114610ee3576000601c80549050905060008103610ce75750610ee3565b80821115610cf457600092505b6000601c8481548110610d0a57610d09612861565b5b906000526020600020015490506000601a600083815260200190815260200160002060009054906101000a900473ffffffffffffffffffffffffffffffffffffffff1690506000601860010154610d6084611496565b610d6a9190612890565b905080601b60008581526020019081526020016000205403610dad57601c8681548110610d9a57610d99612861565b5b9060005260206000200160009055610ebe565b8873ffffffffffffffffffffffffffffffffffffffff1663a9059cbb8360016040518363ffffffff1660e01b8152600401610de9929190612917565b6020604051808303816000875af1158015610e08573d6000803e3d6000fd5b505050506040513d601f19601f82011682018060405250810190610e2c919061296c565b50601c839080600181540180825580915050600190039060005260206000200160009091909190915055601c8681548110610e6a57610e69612861565b5b90600052602060002001600090556001600f6000828254610e8b9190612999565b925050819055506001601060008581526020019081526020016000206000828254610eb69190612999565b925050819055505b8580610ec9906129cd565b965050505050508080610edb906129cd565b915050610cc8565b508373ffffffffffffffffffffffffffffffffffffffff166370a08231601260020160009054906101000a900473ffffffffffffffffffffffffffffffffffffffff166040518263ffffffff1660e01b8152600401610f429190612478565b602060405180830381865afa158015610f5f573d6000803e3d6000fd5b505050506040513d601f19601f82011682018060405250810190610f839190612699565b925050505b6000610fb8601260050160009054906101000a900473ffffffffffffffffffffffffffffffffffffffff16611d8f565b90508073ffffffffffffffffffffffffffffffffffffffff1663f8257f876009548b8b8b601260020160009054906101000a900473ffffffffffffffffffffffffffffffffffffffff168c6040518763ffffffff1660e01b815260040161102496959493929190612a24565b600060405180830381600087803b15801561103e57600080fd5b505af1158015611052573d6000803e3d6000fd5b505050508273ffffffffffffffffffffffffffffffffffffffff1663a9059cbb828a6040518363ffffffff1660e01b8152600401611091929190612a85565b6020604051808303816000875af11580156110b0573d6000803e3d6000fd5b505050506040513d601f19601f820116820180604052508101906110d4919061296c565b506110e389600954838b611e63565b6001945050505050949350505050565b6002602052816000526040600020818154811061110f57600080fd5b90600052602060002001600091509150505481565b60188060000154908060010154905082565b60066020528060005260406000206000915054906101000a900460ff1681565b600d6020528060005260406000206000915090505481565b600080601260010160009054906101000a900473ffffffffffffffffffffffffffffffffffffffff1690506018600101548173ffffffffffffffffffffffffffffffffffffffff166370a08231601260020160009054906101000a900473ffffffffffffffffffffffffffffffffffffffff166040518263ffffffff1660e01b81526004016111fd9190612478565b602060405180830381865afa15801561121a573d6000803e3d6000fd5b505050506040513d601f19601f8201168201806040525081019061123e9190612699565b101561127f576040517f08c379a000000000000000000000000000000000000000000000000000000000815260040161127690612afa565b60405180910390fd5b8073ffffffffffffffffffffffffffffffffffffffff1663a9059cbb856018600101546040518363ffffffff1660e01b81526004016112bf929190612a85565b6020604051808303816000875af11580156112de573d6000803e3d6000fd5b505050506040513d601f19601f82011682018060405250810190611302919061296c565b50601860010154601b600085815260200190815260200160002081905550600191505092915050565b600a602052816000526040600020818154811061134757600080fd5b90600052602060002001600091509150505481565b60056020528060005260406000206000915054906101000a900473ffffffffffffffffffffffffffffffffffffffff1681565b60095481565b6000600a6000838152602001908152602001600020805490509050919050565b600c6020528060005260406000206000915090505481565b601a6020528060005260406000206000915054906101000a900473ffffffffffffffffffffffffffffffffffffffff1681565b6001602052816000526040600020818154811061141c57600080fd5b90600052602060002001600091509150505481565b600e6020528060005260406000206000915090505481565b60085481565b60106020528060005260406000206000915090505481565b60046020528160005260406000206020528060005260406000206000915091509054906101000a900460ff1681565b600060026000838152602001908152602001600020805490509050919050565b60006114c182611500565b601860010154189050919050565b601c81815481106114df57600080fd5b906000526020600020016000915090505481565b6000601860000154905090565b600060016000838152602001908152602001600020805490509050919050565b600080601260010160009054906101000a900473ffffffffffffffffffffffffffffffffffffffff1690508073ffffffffffffffffffffffffffffffffffffffff1663a9059cbb87866040518363ffffffff1660e01b8152600401611586929190612a85565b6020604051808303816000875af11580156115a5573d6000803e3d6000fd5b505050506040513d601f19601f820116820180604052508101906115c9919061296c565b508073ffffffffffffffffffffffffffffffffffffffff16634bbc1bcd30866040518363ffffffff1660e01b8152600401611605929190612a85565b600060405180830381600087803b15801561161f57600080fd5b505af1158015611633573d6000803e3d6000fd5b50505050611642858585611f96565b6001915050949350505050565b6000806005600085815260200190815260200160002060009054906101000a900473ffffffffffffffffffffffffffffffffffffffff1690508073ffffffffffffffffffffffffffffffffffffffff163373ffffffffffffffffffffffffffffffffffffffff16146116f6576040517f08c379a00000000000000000000000000000000000000000000000000000000081526004016116ed90612b8c565b60405180910390fd5b60008190506000601a60008373ffffffffffffffffffffffffffffffffffffffff1663685771f46040518163ffffffff1660e01b8152600401602060405180830381865afa15801561174c573d6000803e3d6000fd5b505050506040513d601f19601f820116820180604052508101906117709190612699565b815260200190815260200160002060009054906101000a900473ffffffffffffffffffffffffffffffffffffffff1690506000601260010160009054906101000a900473ffffffffffffffffffffffffffffffffffffffff1690508073ffffffffffffffffffffffffffffffffffffffff1663a9059cbb83886040518363ffffffff1660e01b8152600401611806929190612a85565b6020604051808303816000875af1158015611825573d6000803e3d6000fd5b505050506040513d601f19601f82011682018060405250810190611849919061296c565b508073ffffffffffffffffffffffffffffffffffffffff16634bbc1bcd601260020160009054906101000a900473ffffffffffffffffffffffffffffffffffffffff1660016040518363ffffffff1660e01b81526004016118ab929190612917565b600060405180830381600087803b1580156118c557600080fd5b505af11580156118d9573d6000803e3d6000fd5b505050506118e687612050565b600194505050505092915050565b60128060000160009054906101000a900473ffffffffffffffffffffffffffffffffffffffff16908060010160009054906101000a900473ffffffffffffffffffffffffffffffffffffffff16908060020160009054906101000a900473ffffffffffffffffffffffffffffffffffffffff16908060030160009054906101000a900473ffffffffffffffffffffffffffffffffffffffff16908060040160009054906101000a900473ffffffffffffffffffffffffffffffffffffffff16908060050160009054906101000a900473ffffffffffffffffffffffffffffffffffffffff16905086565b600b6020528060005260406000206000915054906101000a900473ffffffffffffffffffffffffffffffffffffffff1681565b60036020528060005260406000206000915090505481565b600f5481565b60005481565b601b6020528060005260406000206000915090505481565b60075481565b600080611a5f84611496565b60186000015418905080341015611aab576040517f08c379a0000000000000000000000000000000000000000000000000000000008152600401611aa290612bf8565b60405180910390fd5b6000601260010160009054906101000a900473ffffffffffffffffffffffffffffffffffffffff1690506000611ae0866114b6565b905060008273ffffffffffffffffffffffffffffffffffffffff166370a08231601a60008a815260200190815260200160002060009054906101000a900473ffffffffffffffffffffffffffffffffffffffff166040518263ffffffff1660e01b8152600401611b509190612478565b602060405180830381865afa158015611b6d573d6000803e3d6000fd5b505050506040513d601f19601f82011682018060405250810190611b919190612699565b905081811015611bd6576040517f08c379a0000000000000000000000000000000000000000000000000000000008152600401611bcd90612c64565b60405180910390fd5b6000611c06601260040160009054906101000a900473ffffffffffffffffffffffffffffffffffffffff16611d8f565b90508073ffffffffffffffffffffffffffffffffffffffff166348257aa46000548a30601260030160009054906101000a900473ffffffffffffffffffffffffffffffffffffffff168c6040518663ffffffff1660e01b8152600401611c70959493929190612c84565b600060405180830381600087803b158015611c8a57600080fd5b505af1158015611c9e573d6000803e3d6000fd5b505050506000819050611cb489600054836120d2565b8473ffffffffffffffffffffffffffffffffffffffff166342966c68856040518263ffffffff1660e01b8152600401611ced9190612387565b600060405180830381600087803b158015611d0757600080fd5b505af1158015611d1b573d6000803e3d6000fd5b505050508073ffffffffffffffffffffffffffffffffffffffff166108fc349081150290604051600060405180830381858888f19350505050158015611d65573d6000803e3d6000fd5b506001965050505050505092915050565b6000818310611d855781611d87565b825b905092915050565b60006040517f3d602d80600a3d3981f3363d3d373d3d3d363d7300000000000000000000000081528260601b60148201527f5af43d82803e903d91602b57fd5bf3000000000000000000000000000000000060288201526037816000f0915050600073ffffffffffffffffffffffffffffffffffffffff168173ffffffffffffffffffffffffffffffffffffffff1603611e5e576040517f08c379a0000000000000000000000000000000000000000000000000000000008152600401611e5590612d23565b60405180910390fd5b919050565b600160096000828254611e76919061282d565b925050819055508060076000828254611e8f919061282d565b92505081905550600a600085815260200190815260200160002083908060018154018082558091505060019003906000526020600020016000909190919091505580600d60008681526020019081526020016000206000828254611ef3919061282d565b9250508190555081600b600086815260200190815260200160002060006101000a81548173ffffffffffffffffffffffffffffffffffffffff021916908373ffffffffffffffffffffffffffffffffffffffff16021790555060016011600086815260200190815260200160002060006101000a81548160ff02191690831515021790555083600e60008581526020019081526020016000208190555050505050565b8160076000828254611fa89190612999565b925050819055508160086000828254611fc1919061282d565b925050819055506000600e600085815260200190815260200160002054905082600c60008381526020019081526020016000206000828254612003919061282d565b92505081905550600083836120189190612999565b0361204a5760006011600086815260200190815260200160002060006101000a81548160ff0219169083151502179055505b50505050565b6000600360008381526020019081526020016000205490506002600082815260200190815260200160002082908060018154018082558091505060019003906000526020600020016000909190919091505560006006600083815260200190815260200160002060006101000a81548160ff0219169083151502179055505050565b82600360008481526020019081526020016000208190555060016000848152602001908152602001600020829080600181540180825580915050600190039060005260206000200160009091909190915055600160046000848152602001908152602001600020600085815260200190815260200160002060006101000a81548160ff021916908315150217905550806005600084815260200190815260200160002060006101000a81548173ffffffffffffffffffffffffffffffffffffffff021916908373ffffffffffffffffffffffffffffffffffffffff16021790555060016000808282546121c5919061282d565b9250508190555060016006600085815260200190815260200160002060006101000a81548160ff021916908315150217905550505050565b600080fd5b6000819050919050565b61221581612202565b811461222057600080fd5b50565b6000813590506122328161220c565b92915050565b60006020828403121561224e5761224d6121fd565b5b600061225c84828501612223565b91505092915050565b60008115159050919050565b61227a81612265565b82525050565b60006020820190506122956000830184612271565b92915050565b6000819050919050565b6122ae8161229b565b81146122b957600080fd5b50565b6000813590506122cb816122a5565b92915050565b600080600080608085870312156122eb576122ea6121fd565b5b60006122f987828801612223565b945050602061230a87828801612223565b935050604061231b87828801612223565b925050606061232c878288016122bc565b91505092959194509250565b6000806040838503121561234f5761234e6121fd565b5b600061235d85828601612223565b925050602061236e85828601612223565b9150509250929050565b61238181612202565b82525050565b600060208201905061239c6000830184612378565b92915050565b60006040820190506123b76000830185612378565b6123c46020830184612378565b9392505050565b600073ffffffffffffffffffffffffffffffffffffffff82169050919050565b60006123f6826123cb565b9050919050565b612406816123eb565b811461241157600080fd5b50565b600081359050612423816123fd565b92915050565b600080604083850312156124405761243f6121fd565b5b600061244e85828601612414565b925050602061245f85828601612223565b9150509250929050565b612472816123eb565b82525050565b600060208201905061248d6000830184612469565b92915050565b600080600080608085870312156124ad576124ac6121fd565b5b60006124bb87828801612414565b94505060206124cc87828801612223565b93505060406124dd87828801612223565b92505060606124ee87828801612223565b91505092959194509250565b600060c08201905061250f6000830189612469565b61251c6020830188612469565b6125296040830187612469565b6125366060830186612469565b6125436080830185612469565b61255060a0830184612469565b979650505050505050565b60008060408385031215612572576125716121fd565b5b600061258085828601612223565b9250506020612591858286016122bc565b9150509250929050565b600082825260208201905092915050565b7f43616c6c6572206973206e6f7420746865206f776e6572000000000000000000600082015250565b60006125e260178361259b565b91506125ed826125ac565b602082019050919050565b60006020820190508181036000830152612611816125d5565b9050919050565b7f4e6f74206861766520656e6f756768206d617474657200000000000000000000600082015250565b600061264e60168361259b565b915061265982612618565b602082019050919050565b6000602082019050818103600083015261267d81612641565b9050919050565b6000815190506126938161220c565b92915050565b6000602082840312156126af576126ae6121fd565b5b60006126bd84828501612684565b91505092915050565b7f4e6f74206869676820656e6f7567680000000000000000000000000000000000600082015250565b60006126fc600f8361259b565b9150612707826126c6565b602082019050919050565b6000602082019050818103600083015261272b816126ef565b9050919050565b7f4e487b7100000000000000000000000000000000000000000000000000000000600052601260045260246000fd5b600061276c82612202565b915061277783612202565b92508261278757612786612732565b5b828206905092915050565b7f447261772072617465206e6f7420646976697369626c65000000000000000000600082015250565b60006127c860178361259b565b91506127d382612792565b602082019050919050565b600060208201905081810360008301526127f7816127bb565b9050919050565b7f4e487b7100000000000000000000000000000000000000000000000000000000600052601160045260246000fd5b600061283882612202565b915061284383612202565b925082820190508082111561285b5761285a6127fe565b5b92915050565b7f4e487b7100000000000000000000000000000000000000000000000000000000600052603260045260246000fd5b600061289b82612202565b91506128a683612202565b92508282026128b481612202565b915082820484148315176128cb576128ca6127fe565b5b5092915050565b6000819050919050565b6000819050919050565b60006129016128fc6128f7846128d2565b6128dc565b612202565b9050919050565b612911816128e6565b82525050565b600060408201905061292c6000830185612469565b6129396020830184612908565b9392505050565b61294981612265565b811461295457600080fd5b50565b60008151905061296681612940565b92915050565b600060208284031215612982576129816121fd565b5b600061299084828501612957565b91505092915050565b60006129a482612202565b91506129af83612202565b92508282039050818111156129c7576129c66127fe565b5b92915050565b60006129d882612202565b91507fffffffffffffffffffffffffffffffffffffffffffffffffffffffffffffffff8203612a0a57612a096127fe565b5b600182019050919050565b612a1e8161229b565b82525050565b600060c082019050612a396000830189612378565b612a466020830188612378565b612a536040830187612378565b612a606060830186612378565b612a6d6080830185612469565b612a7a60a0830184612a15565b979650505050505050565b6000604082019050612a9a6000830185612469565b612aa76020830184612378565b9392505050565b7f4e6f7420656e6f756768206d6174746572000000000000000000000000000000600082015250565b6000612ae460118361259b565b9150612aef82612aae565b602082019050919050565b60006020820190508181036000830152612b1381612ad7565b9050919050565b7f43616c6c6572206973206e6f742074686520726967687420436f736d6f53656560008201527f6420636f6e747261637400000000000000000000000000000000000000000000602082015250565b6000612b76602a8361259b565b9150612b8182612b1a565b604082019050919050565b60006020820190508181036000830152612ba581612b69565b9050919050565b7f45746865722076616c7565206973206e6f7420656e6f75676800000000000000600082015250565b6000612be260198361259b565b9150612bed82612bac565b602082019050919050565b60006020820190508181036000830152612c1181612bd5565b9050919050565b7f4d61747465722062616c616e6365206973206e6f7420656e6f75676800000000600082015250565b6000612c4e601c8361259b565b9150612c5982612c18565b602082019050919050565b60006020820190508181036000830152612c7d81612c41565b9050919050565b600060a082019050612c996000830188612378565b612ca66020830187612378565b612cb36040830186612469565b612cc06060830185612469565b612ccd6080830184612a15565b9695505050505050565b7f455243313136373a20637265617465206661696c656400000000000000000000600082015250565b6000612d0d60168361259b565b9150612d1882612cd7565b602082019050919050565b60006020820190508181036000830152612d3c81612d00565b905091905056fea26469706673582212208ba4c29207d1f0d7b7ad033fe1069ae3315e2e4e3b07bfcad0c8134cd3a5c7d664736f6c63430008110033",
  "immutableReferences": {},
  "source": "// SPDX-License-Identifier: MIT\npragma solidity ^0.8.7;\n\nimport \"openzeppelin-solidity/contracts/utils/math/Math.sol\";\nimport { Clones } from \"openzeppelin-solidity/contracts/proxy/Clones.sol\";\n\nimport \"./CosmoMatter.sol\";\nimport \"./CosmoSeed.sol\";\nimport \"./CosmoButter.sol\";\nimport \"./ICosmoTreasury.sol\";\n\nimport \"./SeedAccounts.sol\";\nimport \"./ButterAccounts.sol\";\n\n/**\n * @dev Manages the matter balance of the CosmoNuts collection and handles interaction with the\n * ERC20 Token to mint, burn, and allocate balances\n * Acts as storage for the ERC 721 tokens on their created Seed and Butter contracts.\n */\n contract CosmoTreasury is SeedAccounts, ButterAccounts, ICosmoTreasury {\n\n     /**\n      * @dev Saved addresses include the contract which created the Treasury: UNIVERSE_ADDRESS, and\n      * the address of the CosmoNuts contract (NFTs) which is created after the Treasury and then updated: matter_ADDRESS.\n      */\n     struct AddressOf {\n         address system;\n         address matter;\n         address treasury;\n         address cosmos;\n         address seedImplementation;\n         address butterImplementation;\n     }\n     AddressOf public addressOf;\n\n     struct Nut {\n         uint256 price;\n         uint256 rate;\n     }\n     Nut public nut;\n\n     mapping(uint256 => address) public currentOwnerOfNut; // Record of current nut owners by address\n     mapping(uint256 => uint256) public matterBalanceOfNut; // Matter balance of each Nut recorded by the Treasury\n\n     uint256[] public nutsPayeeList; // List of nuts to be provided a balance\n\n     /**\n      *\n      */\n     constructor(address _systemAddress, address _matterAddress) {\n         addressOf.system = _systemAddress;\n         addressOf.matter = _matterAddress;\n         addressOf.treasury = address(this);\n     }\n\n     /*\n     modifier onlyUniverse {\n         require(address(msg.sender) == UNIVERSE_ADDRESS, \"Caller is not Universe\");\n         _;\n     }\n     */\n\n     /*\n     function updateCosmosAddress(address _matterAddressNew) external onlyUniverse {\n         MATTER_ADDRESS = _matterAddressNew;\n     }\n     */\n\n     //function updateNutPrice(uint256 _setNutPrice) external onlyUniverse {\n     //    NUT_PRICE = _setNutPrice;\n     //}\n\n     function getPrice() public view virtual override returns (uint256) {\n         return nut.price;\n     }\n\n     function matterNeeded(uint256 _nutId) public view virtual override returns (uint256) {\n         return nut.rate ^ (numOfSeedsOf(_nutId));\n     }\n\n     function spawnSeed(uint256 _nutId, bytes32 _secretHash) external virtual override payable returns (bool) {\n         uint256 ethToHold = nut.price ^ (numOfSeedsGrownOf(_nutId));\n         require(msg.value >= ethToHold, \"Ether value is not enough\");\n\n         CosmoMatter matter = CosmoMatter(addressOf.matter);\n         uint256 matterToBurn = matterNeeded(_nutId);\n         uint256 matterOfOwner = matter.balanceOf(currentOwnerOfNut[_nutId]);\n         require(matterOfOwner >= matterToBurn, \"Matter balance is not enough\");\n\n         CosmoSeed cosmoseed = CosmoSeed(Clones.clone(addressOf.seedImplementation));\n         cosmoseed.initialize(\n             seedsCreated, _nutId, address(this), addressOf.cosmos, _secretHash\n         );\n\n         address seedLocation = address(cosmoseed);\n         integrateSeed(_nutId, seedsCreated, seedLocation);\n\n         matter.burn(matterToBurn);\n         payable(seedLocation).transfer(msg.value);\n\n         return true;\n     }\n\n     /**\n      * Called from CosmoSeed contract.\n      */\n     function seedFromNut(uint256 _seedId, uint256 _matterNeeded) external virtual override returns (bool) {\n         address seedAddress = seedLocations[_seedId];\n         require(address(msg.sender) == seedAddress, \"Caller is not the right CosmoSeed contract\");\n         //require(matter.balanceOf(address(msg.sender)) >= _matterNeeded, \"Not enough matter\");\n\n         CosmoSeed seed = CosmoSeed(seedAddress);\n\n         address nutOwner = currentOwnerOfNut[seed.nutId()];\n         CosmoMatter matter = CosmoMatter(addressOf.matter);\n         matter.transfer(nutOwner, _matterNeeded);\n         matter.mintMatter(addressOf.treasury, 1);\n\n         growSeed(_seedId);\n\n         return true;\n     }\n\n     /**\n      * Creating new butter means the creation of a contract where other users can withdraw matter from.\n      * Need to contribute butter (which can only be done if you have a Nut with the desired level of matter to give away.\n      * A secret message is provided in hash form and checked for verification to withdraw funds.\n      */\n     function newButter(\n         uint256 _nutId,\n         uint256 _matterContributed,\n         uint256 _matterDrawRate,\n         bytes32 _secretHash\n     ) external virtual override returns (bool) {\n         address nutOwner = currentOwnerOfNut[_nutId];\n         // Do we need to be doing these checks twice? Or really new check that caller is from contract (? or person who clicked?)\n         require(nutOwner == address(msg.sender), \"Caller is not the owner\");\n         require(matterBalanceOfNut[_nutId] >= _matterContributed, \"Not have enough matter\");\n         CosmoMatter matter = CosmoMatter(addressOf.matter);\n         require(_matterContributed <= matter.balanceOf(nutOwner), \"Not high enough\");\n         require(_matterContributed % _matterDrawRate == 0, \"Draw rate not divisible\");\n\n         /**\n          * A nut must have already grown a seed to start being counted as part of the deficiency list.\n          */\n         if (numOfSeedsGrownOf(_nutId) > 0) {\n             butterDeficiencyInUniverse += _matterContributed;\n             butterDeficiencyOfNut[_nutId] += _matterContributed;\n             nutsPayeeList.push(_nutId);\n         }\n\n         /**\n          * The Treasury wants to distribute its available balance to the nutsPayeeList.\n          * It will distribute the minimum of either its available balance or the deficiency in the Universe.\n          * All payees are awarded one matter and moved to the end of the list.\n          * When their maximum available balance is reached, they are removed from the payee list.\n          */\n         uint256 matterInTreasury = matter.balanceOf(addressOf.treasury);\n         if (matterInTreasury > 0) {\n             uint256 toDistribute = Math.min(matterInTreasury, butterDeficiencyInUniverse);\n\n             uint256 index = 0;\n             for (uint j = 0; j != toDistribute; j++) {\n                 uint256 allPayees = nutsPayeeList.length;\n                 if (allPayees == 0) {\n                     break;\n                 }\n\n                 if (j > allPayees) {\n                     index = 0;\n                 }\n\n                 uint256 nutPayeeId = nutsPayeeList[index];\n                 address nutOwnerPayee = currentOwnerOfNut[nutPayeeId];\n                 uint256 maxMatter = numOfSeedsGrownOf(nutPayeeId) * nut.rate;\n                 if (matterBalanceOfNut[nutPayeeId] == maxMatter) {\n                     delete nutsPayeeList[index];\n                 } else {\n                     matter.transfer(nutOwnerPayee, 1);\n                     nutsPayeeList.push(nutPayeeId);\n                     delete nutsPayeeList[index];\n\n                     butterDeficiencyInUniverse -= 1;\n                     butterDeficiencyOfNut[nutPayeeId] -= 1;\n                 }\n\n                 index++;\n            }\n            matterInTreasury = matter.balanceOf(addressOf.treasury);\n         }\n\n         CosmoButter butter = CosmoButter(Clones.clone(addressOf.butterImplementation));\n         butter.initialize(\n             butterJars, _nutId, _matterContributed, _matterDrawRate, addressOf.treasury, _secretHash\n         );\n\n         matter.transfer(address(butter), _matterContributed);\n         churnButter(_nutId, butterJars, address(butter), _matterContributed);\n\n         return true;\n\n     }\n\n     /**\n      * Runs from CosmoButter contract when someone requests to draw matter.\n      */\n     function butterDrawn(\n         address _drawer,\n         uint256 _butterId,\n         uint256 _balance,\n         uint256 _currentBalance\n     ) external virtual override returns (bool) {\n         CosmoMatter matter = CosmoMatter(addressOf.matter);\n         matter.transfer(_drawer, _balance);\n         matter.mintMatter(address(this), _balance);\n         distributeButter(_butterId, _balance, _currentBalance);\n\n         return true;\n     }\n\n     function assignMintBalance(address _tokenOwner, uint256 _tokenId) external virtual override returns (bool) {\n         CosmoMatter matter = CosmoMatter(addressOf.matter);\n         require(matter.balanceOf(addressOf.treasury) >= nut.rate, \"Not enough matter\");\n         matter.transfer(_tokenOwner, nut.rate);\n         matterBalanceOfNut[_tokenId] = nut.rate;\n\n         return true;\n     }\n\n }\n",
  "sourcePath": "/home/redlentils/Seafile/Websites/avatarnft/contracts/CosmoTreasury.sol",
  "compiler": {
    "name": "solc",
    "version": "0.8.17+commit.8df45f5f.Emscripten.clang"
  },
  "schemaVersion": "3.4.10",
  "updatedAt": "2022-10-18T09:16:50.680Z",
  "devdoc": {
    "details": "Manages the matter balance of the CosmoNuts collection and handles interaction with the ERC20 Token to mint, burn, and allocate balances Acts as storage for the ERC 721 tokens on their created Seed and Butter contracts.",
    "kind": "dev",
    "methods": {},
    "version": 1
  },
  "userdoc": {
    "kind": "user",
    "methods": {
      "butterDrawn(address,uint256,uint256,uint256)": {
        "notice": "Runs from CosmoButter contract when someone requests to draw matter."
      },
      "butterWeight()": {
        "notice": "butterWeight is the amount of matter in the universe that is currently outstanding. butterSpread is the amount of matter that has been distributed from butterWeight, thus reducing its value. butterJars represent the total number of matter contracts created in the Universe."
      },
      "buttersOfNut(uint256,uint256)": {
        "notice": "buttersOfNut represents a list of all butter contracts created byt that nut. butterLocations represents the address of contract identifed by butterId."
      },
      "newButter(uint256,uint256,uint256,bytes32)": {
        "notice": "Creating new butter means the creation of a contract where other users can withdraw matter from. Need to contribute butter (which can only be done if you have a Nut with the desired level of matter to give away. A secret message is provided in hash form and checked for verification to withdraw funds."
      },
      "seedFromNut(uint256,uint256)": {
        "notice": "Called from CosmoSeed contract."
      }
    },
    "version": 1
  }
}