{
  "contractName": "CosmoCreation",
  "abi": [
    {
      "inputs": [
        {
          "internalType": "string",
          "name": "_name",
          "type": "string"
        },
        {
          "internalType": "string",
          "name": "_symbol",
          "type": "string"
        },
        {
          "internalType": "uint256",
          "name": "_supply",
          "type": "uint256"
        },
        {
          "internalType": "address",
          "name": "_systemAddress",
          "type": "address"
        },
        {
          "internalType": "address",
          "name": "_treasuryAddress",
          "type": "address"
        },
        {
          "internalType": "address",
          "name": "_vaultImplementation",
          "type": "address"
        }
      ],
      "stateMutability": "nonpayable",
      "type": "constructor"
    },
    {
      "anonymous": false,
      "inputs": [
        {
          "indexed": true,
          "internalType": "address",
          "name": "owner",
          "type": "address"
        },
        {
          "indexed": true,
          "internalType": "address",
          "name": "approved",
          "type": "address"
        },
        {
          "indexed": true,
          "internalType": "uint256",
          "name": "tokenId",
          "type": "uint256"
        }
      ],
      "name": "Approval",
      "type": "event"
    },
    {
      "anonymous": false,
      "inputs": [
        {
          "indexed": true,
          "internalType": "address",
          "name": "owner",
          "type": "address"
        },
        {
          "indexed": true,
          "internalType": "address",
          "name": "operator",
          "type": "address"
        },
        {
          "indexed": false,
          "internalType": "bool",
          "name": "approved",
          "type": "bool"
        }
      ],
      "name": "ApprovalForAll",
      "type": "event"
    },
    {
      "anonymous": false,
      "inputs": [
        {
          "indexed": true,
          "internalType": "address",
          "name": "previousOwner",
          "type": "address"
        },
        {
          "indexed": true,
          "internalType": "address",
          "name": "newOwner",
          "type": "address"
        }
      ],
      "name": "OwnershipTransferred",
      "type": "event"
    },
    {
      "anonymous": false,
      "inputs": [
        {
          "indexed": true,
          "internalType": "address",
          "name": "from",
          "type": "address"
        },
        {
          "indexed": true,
          "internalType": "address",
          "name": "to",
          "type": "address"
        },
        {
          "indexed": true,
          "internalType": "uint256",
          "name": "tokenId",
          "type": "uint256"
        }
      ],
      "name": "Transfer",
      "type": "event"
    },
    {
      "inputs": [
        {
          "internalType": "address",
          "name": "to",
          "type": "address"
        },
        {
          "internalType": "uint256",
          "name": "tokenId",
          "type": "uint256"
        }
      ],
      "name": "approve",
      "outputs": [],
      "stateMutability": "nonpayable",
      "type": "function"
    },
    {
      "inputs": [
        {
          "internalType": "address",
          "name": "owner",
          "type": "address"
        }
      ],
      "name": "balanceOf",
      "outputs": [
        {
          "internalType": "uint256",
          "name": "",
          "type": "uint256"
        }
      ],
      "stateMutability": "view",
      "type": "function"
    },
    {
      "inputs": [],
      "name": "creation",
      "outputs": [
        {
          "internalType": "uint256",
          "name": "initialSupply",
          "type": "uint256"
        },
        {
          "internalType": "address",
          "name": "system",
          "type": "address"
        },
        {
          "internalType": "address",
          "name": "treasury",
          "type": "address"
        },
        {
          "internalType": "address",
          "name": "vault",
          "type": "address"
        },
        {
          "internalType": "address",
          "name": "vaultImplementation",
          "type": "address"
        }
      ],
      "stateMutability": "view",
      "type": "function"
    },
    {
      "inputs": [
        {
          "internalType": "uint256",
          "name": "tokenId",
          "type": "uint256"
        }
      ],
      "name": "getApproved",
      "outputs": [
        {
          "internalType": "address",
          "name": "",
          "type": "address"
        }
      ],
      "stateMutability": "view",
      "type": "function"
    },
    {
      "inputs": [
        {
          "internalType": "address",
          "name": "owner",
          "type": "address"
        },
        {
          "internalType": "address",
          "name": "operator",
          "type": "address"
        }
      ],
      "name": "isApprovedForAll",
      "outputs": [
        {
          "internalType": "bool",
          "name": "",
          "type": "bool"
        }
      ],
      "stateMutability": "view",
      "type": "function"
    },
    {
      "inputs": [],
      "name": "name",
      "outputs": [
        {
          "internalType": "string",
          "name": "",
          "type": "string"
        }
      ],
      "stateMutability": "view",
      "type": "function"
    },
    {
      "inputs": [],
      "name": "owner",
      "outputs": [
        {
          "internalType": "address",
          "name": "",
          "type": "address"
        }
      ],
      "stateMutability": "view",
      "type": "function"
    },
    {
      "inputs": [
        {
          "internalType": "uint256",
          "name": "tokenId",
          "type": "uint256"
        }
      ],
      "name": "ownerOf",
      "outputs": [
        {
          "internalType": "address",
          "name": "",
          "type": "address"
        }
      ],
      "stateMutability": "view",
      "type": "function"
    },
    {
      "inputs": [],
      "name": "renounceOwnership",
      "outputs": [],
      "stateMutability": "nonpayable",
      "type": "function"
    },
    {
      "inputs": [
        {
          "internalType": "address",
          "name": "from",
          "type": "address"
        },
        {
          "internalType": "address",
          "name": "to",
          "type": "address"
        },
        {
          "internalType": "uint256",
          "name": "tokenId",
          "type": "uint256"
        }
      ],
      "name": "safeTransferFrom",
      "outputs": [],
      "stateMutability": "nonpayable",
      "type": "function"
    },
    {
      "inputs": [
        {
          "internalType": "address",
          "name": "from",
          "type": "address"
        },
        {
          "internalType": "address",
          "name": "to",
          "type": "address"
        },
        {
          "internalType": "uint256",
          "name": "tokenId",
          "type": "uint256"
        },
        {
          "internalType": "bytes",
          "name": "_data",
          "type": "bytes"
        }
      ],
      "name": "safeTransferFrom",
      "outputs": [],
      "stateMutability": "nonpayable",
      "type": "function"
    },
    {
      "inputs": [
        {
          "internalType": "address",
          "name": "operator",
          "type": "address"
        },
        {
          "internalType": "bool",
          "name": "approved",
          "type": "bool"
        }
      ],
      "name": "setApprovalForAll",
      "outputs": [],
      "stateMutability": "nonpayable",
      "type": "function"
    },
    {
      "inputs": [],
      "name": "symbol",
      "outputs": [
        {
          "internalType": "string",
          "name": "",
          "type": "string"
        }
      ],
      "stateMutability": "view",
      "type": "function"
    },
    {
      "inputs": [
        {
          "internalType": "uint256",
          "name": "index",
          "type": "uint256"
        }
      ],
      "name": "tokenByIndex",
      "outputs": [
        {
          "internalType": "uint256",
          "name": "",
          "type": "uint256"
        }
      ],
      "stateMutability": "view",
      "type": "function"
    },
    {
      "inputs": [
        {
          "internalType": "address",
          "name": "owner",
          "type": "address"
        },
        {
          "internalType": "uint256",
          "name": "index",
          "type": "uint256"
        }
      ],
      "name": "tokenOfOwnerByIndex",
      "outputs": [
        {
          "internalType": "uint256",
          "name": "",
          "type": "uint256"
        }
      ],
      "stateMutability": "view",
      "type": "function"
    },
    {
      "inputs": [],
      "name": "totalSupply",
      "outputs": [
        {
          "internalType": "uint256",
          "name": "",
          "type": "uint256"
        }
      ],
      "stateMutability": "view",
      "type": "function"
    },
    {
      "inputs": [
        {
          "internalType": "address",
          "name": "from",
          "type": "address"
        },
        {
          "internalType": "address",
          "name": "to",
          "type": "address"
        },
        {
          "internalType": "uint256",
          "name": "tokenId",
          "type": "uint256"
        }
      ],
      "name": "transferFrom",
      "outputs": [],
      "stateMutability": "nonpayable",
      "type": "function"
    },
    {
      "inputs": [
        {
          "internalType": "address",
          "name": "newOwner",
          "type": "address"
        }
      ],
      "name": "transferOwnership",
      "outputs": [],
      "stateMutability": "nonpayable",
      "type": "function"
    },
    {
      "inputs": [
        {
          "internalType": "string",
          "name": "_nutCID",
          "type": "string"
        }
      ],
      "name": "mintNut",
      "outputs": [],
      "stateMutability": "payable",
      "type": "function"
    },
    {
      "inputs": [
        {
          "internalType": "uint256",
          "name": "tokenId",
          "type": "uint256"
        }
      ],
      "name": "tokenURI",
      "outputs": [
        {
          "internalType": "string",
          "name": "",
          "type": "string"
        }
      ],
      "stateMutability": "view",
      "type": "function"
    },
    {
      "inputs": [
        {
          "internalType": "bytes4",
          "name": "interfaceId",
          "type": "bytes4"
        }
      ],
      "name": "supportsInterface",
      "outputs": [
        {
          "internalType": "bool",
          "name": "",
          "type": "bool"
        }
      ],
      "stateMutability": "view",
      "type": "function"
    }
  ],
  "bytecode": "0x60806040523480156200001157600080fd5b506040516200474938038062004749833981810160405281019062000037919062000462565b858581600090816200004a91906200077d565b5080600190816200005c91906200077d565b5050506200007f620000736200016160201b60201c565b6200016960201b60201c565b83600c6000018190555082600c60010160006101000a81548173ffffffffffffffffffffffffffffffffffffffff021916908373ffffffffffffffffffffffffffffffffffffffff16021790555081600c60020160006101000a81548173ffffffffffffffffffffffffffffffffffffffff021916908373ffffffffffffffffffffffffffffffffffffffff16021790555080600c60040160006101000a81548173ffffffffffffffffffffffffffffffffffffffff021916908373ffffffffffffffffffffffffffffffffffffffff16021790555050505050505062000864565b600033905090565b6000600b60009054906101000a900473ffffffffffffffffffffffffffffffffffffffff16905081600b60006101000a81548173ffffffffffffffffffffffffffffffffffffffff021916908373ffffffffffffffffffffffffffffffffffffffff1602179055508173ffffffffffffffffffffffffffffffffffffffff168173ffffffffffffffffffffffffffffffffffffffff167f8be0079c531659141344cd1fd0a4f28419497f9722a3daafe3b4186f6b6457e060405160405180910390a35050565b6000604051905090565b600080fd5b600080fd5b600080fd5b600080fd5b6000601f19601f8301169050919050565b7f4e487b7100000000000000000000000000000000000000000000000000000000600052604160045260246000fd5b62000298826200024d565b810181811067ffffffffffffffff82111715620002ba57620002b96200025e565b5b80604052505050565b6000620002cf6200022f565b9050620002dd82826200028d565b919050565b600067ffffffffffffffff8211156200030057620002ff6200025e565b5b6200030b826200024d565b9050602081019050919050565b60005b83811015620003385780820151818401526020810190506200031b565b60008484015250505050565b60006200035b6200035584620002e2565b620002c3565b9050828152602081018484840111156200037a576200037962000248565b5b6200038784828562000318565b509392505050565b600082601f830112620003a757620003a662000243565b5b8151620003b984826020860162000344565b91505092915050565b6000819050919050565b620003d781620003c2565b8114620003e357600080fd5b50565b600081519050620003f781620003cc565b92915050565b600073ffffffffffffffffffffffffffffffffffffffff82169050919050565b60006200042a82620003fd565b9050919050565b6200043c816200041d565b81146200044857600080fd5b50565b6000815190506200045c8162000431565b92915050565b60008060008060008060c0878903121562000482576200048162000239565b5b600087015167ffffffffffffffff811115620004a357620004a26200023e565b5b620004b189828a016200038f565b965050602087015167ffffffffffffffff811115620004d557620004d46200023e565b5b620004e389828a016200038f565b9550506040620004f689828a01620003e6565b94505060606200050989828a016200044b565b93505060806200051c89828a016200044b565b92505060a06200052f89828a016200044b565b9150509295509295509295565b600081519050919050565b7f4e487b7100000000000000000000000000000000000000000000000000000000600052602260045260246000fd5b600060028204905060018216806200058f57607f821691505b602082108103620005a557620005a462000547565b5b50919050565b60008190508160005260206000209050919050565b60006020601f8301049050919050565b600082821b905092915050565b6000600883026200060f7fffffffffffffffffffffffffffffffffffffffffffffffffffffffffffffffff82620005d0565b6200061b8683620005d0565b95508019841693508086168417925050509392505050565b6000819050919050565b60006200065e620006586200065284620003c2565b62000633565b620003c2565b9050919050565b6000819050919050565b6200067a836200063d565b62000692620006898262000665565b848454620005dd565b825550505050565b600090565b620006a96200069a565b620006b68184846200066f565b505050565b5b81811015620006de57620006d26000826200069f565b600181019050620006bc565b5050565b601f8211156200072d57620006f781620005ab565b6200070284620005c0565b8101602085101562000712578190505b6200072a6200072185620005c0565b830182620006bb565b50505b505050565b600082821c905092915050565b6000620007526000198460080262000732565b1980831691505092915050565b60006200076d83836200073f565b9150826002028217905092915050565b62000788826200053c565b67ffffffffffffffff811115620007a457620007a36200025e565b5b620007b0825462000576565b620007bd828285620006e2565b600060209050601f831160018114620007f55760008415620007e0578287015190505b620007ec85826200075f565b8655506200085c565b601f1984166200080586620005ab565b60005b828110156200082f5784890151825560018201915060208501945060208101905062000808565b868310156200084f57848901516200084b601f8916826200073f565b8355505b6001600288020188555050505b505050505050565b613ed580620008746000396000f3fe60806040526004361061012a5760003560e01c80636352211e116100ab57806395f04d051161006f57806395f04d051461040a578063a22cb46514610426578063b88d4fde1461044f578063c87b56dd14610478578063e985e9c5146104b5578063f2fde38b146104f25761012a565b80636352211e1461032357806370a0823114610360578063715018a61461039d5780638da5cb5b146103b457806395d89b41146103df5761012a565b806318160ddd116100f257806318160ddd1461022c57806323b872dd146102575780632f745c591461028057806342842e0e146102bd5780634f6ccce7146102e65761012a565b806301ffc9a71461012f57806306fdde031461016c578063081812fc14610197578063095ea7b3146101d457806313845d2f146101fd575b600080fd5b34801561013b57600080fd5b50610156600480360381019061015191906125ad565b61051b565b60405161016391906125f5565b60405180910390f35b34801561017857600080fd5b5061018161052d565b60405161018e91906126a0565b60405180910390f35b3480156101a357600080fd5b506101be60048036038101906101b991906126f8565b6105bf565b6040516101cb9190612766565b60405180910390f35b3480156101e057600080fd5b506101fb60048036038101906101f691906127ad565b610644565b005b34801561020957600080fd5b5061021261075b565b6040516102239594939291906127fc565b60405180910390f35b34801561023857600080fd5b506102416107ff565b60405161024e919061284f565b60405180910390f35b34801561026357600080fd5b5061027e6004803603810190610279919061286a565b61080c565b005b34801561028c57600080fd5b506102a760048036038101906102a291906127ad565b61086c565b6040516102b4919061284f565b60405180910390f35b3480156102c957600080fd5b506102e460048036038101906102df919061286a565b610911565b005b3480156102f257600080fd5b5061030d600480360381019061030891906126f8565b610931565b60405161031a919061284f565b60405180910390f35b34801561032f57600080fd5b5061034a600480360381019061034591906126f8565b6109a2565b6040516103579190612766565b60405180910390f35b34801561036c57600080fd5b50610387600480360381019061038291906128bd565b610a53565b604051610394919061284f565b60405180910390f35b3480156103a957600080fd5b506103b2610b0a565b005b3480156103c057600080fd5b506103c9610b92565b6040516103d69190612766565b60405180910390f35b3480156103eb57600080fd5b506103f4610bbc565b60405161040191906126a0565b60405180910390f35b610424600480360381019061041f9190612a1f565b610c4e565b005b34801561043257600080fd5b5061044d60048036038101906104489190612a94565b610e37565b005b34801561045b57600080fd5b5061047660048036038101906104719190612b75565b610e4d565b005b34801561048457600080fd5b5061049f600480360381019061049a91906126f8565b610eaf565b6040516104ac91906126a0565b60405180910390f35b3480156104c157600080fd5b506104dc60048036038101906104d79190612bf8565b610ec1565b6040516104e991906125f5565b60405180910390f35b3480156104fe57600080fd5b50610519600480360381019061051491906128bd565b610f55565b005b60006105268261104c565b9050919050565b60606000805461053c90612c67565b80601f016020809104026020016040519081016040528092919081815260200182805461056890612c67565b80156105b55780601f1061058a576101008083540402835291602001916105b5565b820191906000526020600020905b81548152906001019060200180831161059857829003601f168201915b5050505050905090565b60006105ca826110c6565b610609576040517f08c379a000000000000000000000000000000000000000000000000000000000815260040161060090612d0a565b60405180910390fd5b6004600083815260200190815260200160002060009054906101000a900473ffffffffffffffffffffffffffffffffffffffff169050919050565b600061064f826109a2565b90508073ffffffffffffffffffffffffffffffffffffffff168373ffffffffffffffffffffffffffffffffffffffff16036106bf576040517f08c379a00000000000000000000000000000000000000000000000000000000081526004016106b690612d9c565b60405180910390fd5b8073ffffffffffffffffffffffffffffffffffffffff166106de611132565b73ffffffffffffffffffffffffffffffffffffffff16148061070d575061070c81610707611132565b610ec1565b5b61074c576040517f08c379a000000000000000000000000000000000000000000000000000000000815260040161074390612e2e565b60405180910390fd5b610756838361113a565b505050565b600c8060000154908060010160009054906101000a900473ffffffffffffffffffffffffffffffffffffffff16908060020160009054906101000a900473ffffffffffffffffffffffffffffffffffffffff16908060030160009054906101000a900473ffffffffffffffffffffffffffffffffffffffff16908060040160009054906101000a900473ffffffffffffffffffffffffffffffffffffffff16905085565b6000600880549050905090565b61081d610817611132565b826111f3565b61085c576040517f08c379a000000000000000000000000000000000000000000000000000000000815260040161085390612ec0565b60405180910390fd5b6108678383836112d1565b505050565b600061087783610a53565b82106108b8576040517f08c379a00000000000000000000000000000000000000000000000000000000081526004016108af90612f52565b60405180910390fd5b600660008473ffffffffffffffffffffffffffffffffffffffff1673ffffffffffffffffffffffffffffffffffffffff168152602001908152602001600020600083815260200190815260200160002054905092915050565b61092c83838360405180602001604052806000815250610e4d565b505050565b600061093b6107ff565b821061097c576040517f08c379a000000000000000000000000000000000000000000000000000000000815260040161097390612fe4565b60405180910390fd5b600882815481106109905761098f613004565b5b90600052602060002001549050919050565b6000806002600084815260200190815260200160002060009054906101000a900473ffffffffffffffffffffffffffffffffffffffff169050600073ffffffffffffffffffffffffffffffffffffffff168173ffffffffffffffffffffffffffffffffffffffff1603610a4a576040517f08c379a0000000000000000000000000000000000000000000000000000000008152600401610a41906130a5565b60405180910390fd5b80915050919050565b60008073ffffffffffffffffffffffffffffffffffffffff168273ffffffffffffffffffffffffffffffffffffffff1603610ac3576040517f08c379a0000000000000000000000000000000000000000000000000000000008152600401610aba90613137565b60405180910390fd5b600360008373ffffffffffffffffffffffffffffffffffffffff1673ffffffffffffffffffffffffffffffffffffffff168152602001908152602001600020549050919050565b610b12611132565b73ffffffffffffffffffffffffffffffffffffffff16610b30610b92565b73ffffffffffffffffffffffffffffffffffffffff1614610b86576040517f08c379a0000000000000000000000000000000000000000000000000000000008152600401610b7d906131a3565b60405180910390fd5b610b906000611537565b565b6000600b60009054906101000a900473ffffffffffffffffffffffffffffffffffffffff16905090565b606060018054610bcb90612c67565b80601f0160208091040260200160405190810160405280929190818152602001828054610bf790612c67565b8015610c445780601f10610c1957610100808354040283529160200191610c44565b820191906000526020600020905b815481529060010190602001808311610c2757829003601f168201915b5050505050905090565b6000610c586107ff565b9050600c600001548110610ca1576040517f08c379a0000000000000000000000000000000000000000000000000000000008152600401610c9890613235565b60405180910390fd5b6000600c60020160009054906101000a900473ffffffffffffffffffffffffffffffffffffffff1673ffffffffffffffffffffffffffffffffffffffff166398d5fdca6040518163ffffffff1660e01b8152600401602060405180830381865afa158015610d13573d6000803e3d6000fd5b505050506040513d601f19601f82011682018060405250810190610d37919061326a565b905080341015610d7c576040517f08c379a0000000000000000000000000000000000000000000000000000000008152600401610d7390613309565b60405180910390fd5b610d8633836115fd565b610d90828461161b565b600c60020160009054906101000a900473ffffffffffffffffffffffffffffffffffffffff1673ffffffffffffffffffffffffffffffffffffffff1663c0bad4db336040518263ffffffff1660e01b8152600401610dee9190612766565b6020604051808303816000875af1158015610e0d573d6000803e3d6000fd5b505050506040513d601f19601f82011682018060405250810190610e31919061333e565b50505050565b610e49610e42611132565b8383611688565b5050565b610e5e610e58611132565b836111f3565b610e9d576040517f08c379a0000000000000000000000000000000000000000000000000000000008152600401610e9490612ec0565b60405180910390fd5b610ea9848484846117f4565b50505050565b6060610eba82611850565b9050919050565b6000600560008473ffffffffffffffffffffffffffffffffffffffff1673ffffffffffffffffffffffffffffffffffffffff16815260200190815260200160002060008373ffffffffffffffffffffffffffffffffffffffff1673ffffffffffffffffffffffffffffffffffffffff16815260200190815260200160002060009054906101000a900460ff16905092915050565b610f5d611132565b73ffffffffffffffffffffffffffffffffffffffff16610f7b610b92565b73ffffffffffffffffffffffffffffffffffffffff1614610fd1576040517f08c379a0000000000000000000000000000000000000000000000000000000008152600401610fc8906131a3565b60405180910390fd5b600073ffffffffffffffffffffffffffffffffffffffff168173ffffffffffffffffffffffffffffffffffffffff1603611040576040517f08c379a0000000000000000000000000000000000000000000000000000000008152600401611037906133dd565b60405180910390fd5b61104981611537565b50565b60007f780e9d63000000000000000000000000000000000000000000000000000000007bffffffffffffffffffffffffffffffffffffffffffffffffffffffff1916827bffffffffffffffffffffffffffffffffffffffffffffffffffffffff191614806110bf57506110be826119a1565b5b9050919050565b60008073ffffffffffffffffffffffffffffffffffffffff166002600084815260200190815260200160002060009054906101000a900473ffffffffffffffffffffffffffffffffffffffff1673ffffffffffffffffffffffffffffffffffffffff1614159050919050565b600033905090565b816004600083815260200190815260200160002060006101000a81548173ffffffffffffffffffffffffffffffffffffffff021916908373ffffffffffffffffffffffffffffffffffffffff160217905550808273ffffffffffffffffffffffffffffffffffffffff166111ad836109a2565b73ffffffffffffffffffffffffffffffffffffffff167f8c5be1e5ebec7d5bd14f71427d1e84f3dd0314c0f7b2291e5b200ac8c7c3b92560405160405180910390a45050565b60006111fe826110c6565b61123d576040517f08c379a00000000000000000000000000000000000000000000000000000000081526004016112349061346f565b60405180910390fd5b6000611248836109a2565b90508073ffffffffffffffffffffffffffffffffffffffff168473ffffffffffffffffffffffffffffffffffffffff16148061128a57506112898185610ec1565b5b806112c857508373ffffffffffffffffffffffffffffffffffffffff166112b0846105bf565b73ffffffffffffffffffffffffffffffffffffffff16145b91505092915050565b8273ffffffffffffffffffffffffffffffffffffffff166112f1826109a2565b73ffffffffffffffffffffffffffffffffffffffff1614611347576040517f08c379a000000000000000000000000000000000000000000000000000000000815260040161133e90613501565b60405180910390fd5b600073ffffffffffffffffffffffffffffffffffffffff168273ffffffffffffffffffffffffffffffffffffffff16036113b6576040517f08c379a00000000000000000000000000000000000000000000000000000000081526004016113ad90613593565b60405180910390fd5b6113c1838383611a83565b6113cc60008261113a565b6001600360008573ffffffffffffffffffffffffffffffffffffffff1673ffffffffffffffffffffffffffffffffffffffff168152602001908152602001600020600082825461141c91906135e2565b925050819055506001600360008473ffffffffffffffffffffffffffffffffffffffff1673ffffffffffffffffffffffffffffffffffffffff16815260200190815260200160002060008282546114739190613616565b92505081905550816002600083815260200190815260200160002060006101000a81548173ffffffffffffffffffffffffffffffffffffffff021916908373ffffffffffffffffffffffffffffffffffffffff160217905550808273ffffffffffffffffffffffffffffffffffffffff168473ffffffffffffffffffffffffffffffffffffffff167fddf252ad1be2c89b69c2b068fc378daa952ba7f163c4a11628f55a4df523b3ef60405160405180910390a4611532838383611a93565b505050565b6000600b60009054906101000a900473ffffffffffffffffffffffffffffffffffffffff16905081600b60006101000a81548173ffffffffffffffffffffffffffffffffffffffff021916908373ffffffffffffffffffffffffffffffffffffffff1602179055508173ffffffffffffffffffffffffffffffffffffffff168173ffffffffffffffffffffffffffffffffffffffff167f8be0079c531659141344cd1fd0a4f28419497f9722a3daafe3b4186f6b6457e060405160405180910390a35050565b611617828260405180602001604052806000815250611a98565b5050565b611624826110c6565b611663576040517f08c379a000000000000000000000000000000000000000000000000000000000815260040161165a906136bc565b60405180910390fd5b80600a600084815260200190815260200160002090816116839190613888565b505050565b8173ffffffffffffffffffffffffffffffffffffffff168373ffffffffffffffffffffffffffffffffffffffff16036116f6576040517f08c379a00000000000000000000000000000000000000000000000000000000081526004016116ed906139a6565b60405180910390fd5b80600560008573ffffffffffffffffffffffffffffffffffffffff1673ffffffffffffffffffffffffffffffffffffffff16815260200190815260200160002060008473ffffffffffffffffffffffffffffffffffffffff1673ffffffffffffffffffffffffffffffffffffffff16815260200190815260200160002060006101000a81548160ff0219169083151502179055508173ffffffffffffffffffffffffffffffffffffffff168373ffffffffffffffffffffffffffffffffffffffff167f17307eab39ab6107e8899845ad3d59bd9653f200f220920489ca2b5937696c31836040516117e791906125f5565b60405180910390a3505050565b6117ff8484846112d1565b61180b84848484611af3565b61184a576040517f08c379a000000000000000000000000000000000000000000000000000000000815260040161184190613a38565b60405180910390fd5b50505050565b606061185b826110c6565b61189a576040517f08c379a000000000000000000000000000000000000000000000000000000000815260040161189190613aca565b60405180910390fd5b6000600a600084815260200190815260200160002080546118ba90612c67565b80601f01602080910402602001604051908101604052809291908181526020018280546118e690612c67565b80156119335780601f1061190857610100808354040283529160200191611933565b820191906000526020600020905b81548152906001019060200180831161191657829003601f168201915b505050505090506000611944611c7a565b9050600081510361195957819250505061199c565b60008251111561198e578082604051602001611976929190613b26565b6040516020818303038152906040529250505061199c565b61199784611cb7565b925050505b919050565b60007f80ac58cd000000000000000000000000000000000000000000000000000000007bffffffffffffffffffffffffffffffffffffffffffffffffffffffff1916827bffffffffffffffffffffffffffffffffffffffffffffffffffffffff19161480611a6c57507f5b5e139f000000000000000000000000000000000000000000000000000000007bffffffffffffffffffffffffffffffffffffffffffffffffffffffff1916827bffffffffffffffffffffffffffffffffffffffffffffffffffffffff1916145b80611a7c5750611a7b82611d5e565b5b9050919050565b611a8e838383611dc8565b505050565b505050565b611aa28383611eda565b611aaf6000848484611af3565b611aee576040517f08c379a0000000000000000000000000000000000000000000000000000000008152600401611ae590613a38565b60405180910390fd5b505050565b6000611b148473ffffffffffffffffffffffffffffffffffffffff166120b3565b15611c6d578373ffffffffffffffffffffffffffffffffffffffff1663150b7a02611b3d611132565b8786866040518563ffffffff1660e01b8152600401611b5f9493929190613b9f565b6020604051808303816000875af1925050508015611b9b57506040513d601f19601f82011682018060405250810190611b989190613c00565b60015b611c1d573d8060008114611bcb576040519150601f19603f3d011682016040523d82523d6000602084013e611bd0565b606091505b506000815103611c15576040517f08c379a0000000000000000000000000000000000000000000000000000000008152600401611c0c90613a38565b60405180910390fd5b805181602001fd5b63150b7a0260e01b7bffffffffffffffffffffffffffffffffffffffffffffffffffffffff1916817bffffffffffffffffffffffffffffffffffffffffffffffffffffffff191614915050611c72565b600190505b949350505050565b60606040518060400160405280601581526020017f68747470733a2f2f697066732e696f2f697066732f0000000000000000000000815250905090565b6060611cc2826110c6565b611d01576040517f08c379a0000000000000000000000000000000000000000000000000000000008152600401611cf890613c9f565b60405180910390fd5b6000611d0b611c7a565b90506000815111611d2b5760405180602001604052806000815250611d56565b80611d35846120d6565b604051602001611d46929190613b26565b6040516020818303038152906040525b915050919050565b60007f01ffc9a7000000000000000000000000000000000000000000000000000000007bffffffffffffffffffffffffffffffffffffffffffffffffffffffff1916827bffffffffffffffffffffffffffffffffffffffffffffffffffffffff1916149050919050565b611dd3838383612236565b600073ffffffffffffffffffffffffffffffffffffffff168373ffffffffffffffffffffffffffffffffffffffff1603611e1557611e108161223b565b611e54565b8173ffffffffffffffffffffffffffffffffffffffff168373ffffffffffffffffffffffffffffffffffffffff1614611e5357611e528382612284565b5b5b600073ffffffffffffffffffffffffffffffffffffffff168273ffffffffffffffffffffffffffffffffffffffff1603611e9657611e91816123f1565b611ed5565b8273ffffffffffffffffffffffffffffffffffffffff168273ffffffffffffffffffffffffffffffffffffffff1614611ed457611ed382826124c2565b5b5b505050565b600073ffffffffffffffffffffffffffffffffffffffff168273ffffffffffffffffffffffffffffffffffffffff1603611f49576040517f08c379a0000000000000000000000000000000000000000000000000000000008152600401611f4090613d0b565b60405180910390fd5b611f52816110c6565b15611f92576040517f08c379a0000000000000000000000000000000000000000000000000000000008152600401611f8990613d77565b60405180910390fd5b611f9e60008383611a83565b6001600360008473ffffffffffffffffffffffffffffffffffffffff1673ffffffffffffffffffffffffffffffffffffffff1681526020019081526020016000206000828254611fee9190613616565b92505081905550816002600083815260200190815260200160002060006101000a81548173ffffffffffffffffffffffffffffffffffffffff021916908373ffffffffffffffffffffffffffffffffffffffff160217905550808273ffffffffffffffffffffffffffffffffffffffff16600073ffffffffffffffffffffffffffffffffffffffff167fddf252ad1be2c89b69c2b068fc378daa952ba7f163c4a11628f55a4df523b3ef60405160405180910390a46120af60008383611a93565b5050565b6000808273ffffffffffffffffffffffffffffffffffffffff163b119050919050565b60606000820361211d576040518060400160405280600181526020017f30000000000000000000000000000000000000000000000000000000000000008152509050612231565b600082905060005b6000821461214f57808061213890613d97565b915050600a826121489190613e0e565b9150612125565b60008167ffffffffffffffff81111561216b5761216a6128f4565b5b6040519080825280601f01601f19166020018201604052801561219d5781602001600182028036833780820191505090505b5090505b6000851461222a576001826121b691906135e2565b9150600a856121c59190613e3f565b60306121d19190613616565b60f81b8183815181106121e7576121e6613004565b5b60200101907effffffffffffffffffffffffffffffffffffffffffffffffffffffffffffff1916908160001a905350600a856122239190613e0e565b94506121a1565b8093505050505b919050565b505050565b6008805490506009600083815260200190815260200160002081905550600881908060018154018082558091505060019003906000526020600020016000909190919091505550565b6000600161229184610a53565b61229b91906135e2565b9050600060076000848152602001908152602001600020549050818114612380576000600660008673ffffffffffffffffffffffffffffffffffffffff1673ffffffffffffffffffffffffffffffffffffffff168152602001908152602001600020600084815260200190815260200160002054905080600660008773ffffffffffffffffffffffffffffffffffffffff1673ffffffffffffffffffffffffffffffffffffffff168152602001908152602001600020600084815260200190815260200160002081905550816007600083815260200190815260200160002081905550505b6007600084815260200190815260200160002060009055600660008573ffffffffffffffffffffffffffffffffffffffff1673ffffffffffffffffffffffffffffffffffffffff16815260200190815260200160002060008381526020019081526020016000206000905550505050565b6000600160088054905061240591906135e2565b905060006009600084815260200190815260200160002054905060006008838154811061243557612434613004565b5b90600052602060002001549050806008838154811061245757612456613004565b5b9060005260206000200181905550816009600083815260200190815260200160002081905550600960008581526020019081526020016000206000905560088054806124a6576124a5613e70565b5b6001900381819060005260206000200160009055905550505050565b60006124cd83610a53565b905081600660008573ffffffffffffffffffffffffffffffffffffffff1673ffffffffffffffffffffffffffffffffffffffff168152602001908152602001600020600083815260200190815260200160002081905550806007600084815260200190815260200160002081905550505050565b6000604051905090565b600080fd5b600080fd5b60007fffffffff0000000000000000000000000000000000000000000000000000000082169050919050565b61258a81612555565b811461259557600080fd5b50565b6000813590506125a781612581565b92915050565b6000602082840312156125c3576125c261254b565b5b60006125d184828501612598565b91505092915050565b60008115159050919050565b6125ef816125da565b82525050565b600060208201905061260a60008301846125e6565b92915050565b600081519050919050565b600082825260208201905092915050565b60005b8381101561264a57808201518184015260208101905061262f565b60008484015250505050565b6000601f19601f8301169050919050565b600061267282612610565b61267c818561261b565b935061268c81856020860161262c565b61269581612656565b840191505092915050565b600060208201905081810360008301526126ba8184612667565b905092915050565b6000819050919050565b6126d5816126c2565b81146126e057600080fd5b50565b6000813590506126f2816126cc565b92915050565b60006020828403121561270e5761270d61254b565b5b600061271c848285016126e3565b91505092915050565b600073ffffffffffffffffffffffffffffffffffffffff82169050919050565b600061275082612725565b9050919050565b61276081612745565b82525050565b600060208201905061277b6000830184612757565b92915050565b61278a81612745565b811461279557600080fd5b50565b6000813590506127a781612781565b92915050565b600080604083850312156127c4576127c361254b565b5b60006127d285828601612798565b92505060206127e3858286016126e3565b9150509250929050565b6127f6816126c2565b82525050565b600060a08201905061281160008301886127ed565b61281e6020830187612757565b61282b6040830186612757565b6128386060830185612757565b6128456080830184612757565b9695505050505050565b600060208201905061286460008301846127ed565b92915050565b6000806000606084860312156128835761288261254b565b5b600061289186828701612798565b93505060206128a286828701612798565b92505060406128b3868287016126e3565b9150509250925092565b6000602082840312156128d3576128d261254b565b5b60006128e184828501612798565b91505092915050565b600080fd5b600080fd5b7f4e487b7100000000000000000000000000000000000000000000000000000000600052604160045260246000fd5b61292c82612656565b810181811067ffffffffffffffff8211171561294b5761294a6128f4565b5b80604052505050565b600061295e612541565b905061296a8282612923565b919050565b600067ffffffffffffffff82111561298a576129896128f4565b5b61299382612656565b9050602081019050919050565b82818337600083830152505050565b60006129c26129bd8461296f565b612954565b9050828152602081018484840111156129de576129dd6128ef565b5b6129e98482856129a0565b509392505050565b600082601f830112612a0657612a056128ea565b5b8135612a168482602086016129af565b91505092915050565b600060208284031215612a3557612a3461254b565b5b600082013567ffffffffffffffff811115612a5357612a52612550565b5b612a5f848285016129f1565b91505092915050565b612a71816125da565b8114612a7c57600080fd5b50565b600081359050612a8e81612a68565b92915050565b60008060408385031215612aab57612aaa61254b565b5b6000612ab985828601612798565b9250506020612aca85828601612a7f565b9150509250929050565b600067ffffffffffffffff821115612aef57612aee6128f4565b5b612af882612656565b9050602081019050919050565b6000612b18612b1384612ad4565b612954565b905082815260208101848484011115612b3457612b336128ef565b5b612b3f8482856129a0565b509392505050565b600082601f830112612b5c57612b5b6128ea565b5b8135612b6c848260208601612b05565b91505092915050565b60008060008060808587031215612b8f57612b8e61254b565b5b6000612b9d87828801612798565b9450506020612bae87828801612798565b9350506040612bbf878288016126e3565b925050606085013567ffffffffffffffff811115612be057612bdf612550565b5b612bec87828801612b47565b91505092959194509250565b60008060408385031215612c0f57612c0e61254b565b5b6000612c1d85828601612798565b9250506020612c2e85828601612798565b9150509250929050565b7f4e487b7100000000000000000000000000000000000000000000000000000000600052602260045260246000fd5b60006002820490506001821680612c7f57607f821691505b602082108103612c9257612c91612c38565b5b50919050565b7f4552433732313a20617070726f76656420717565727920666f72206e6f6e657860008201527f697374656e7420746f6b656e0000000000000000000000000000000000000000602082015250565b6000612cf4602c8361261b565b9150612cff82612c98565b604082019050919050565b60006020820190508181036000830152612d2381612ce7565b9050919050565b7f4552433732313a20617070726f76616c20746f2063757272656e74206f776e6560008201527f7200000000000000000000000000000000000000000000000000000000000000602082015250565b6000612d8660218361261b565b9150612d9182612d2a565b604082019050919050565b60006020820190508181036000830152612db581612d79565b9050919050565b7f4552433732313a20617070726f76652063616c6c6572206973206e6f74206f7760008201527f6e6572206e6f7220617070726f76656420666f7220616c6c0000000000000000602082015250565b6000612e1860388361261b565b9150612e2382612dbc565b604082019050919050565b60006020820190508181036000830152612e4781612e0b565b9050919050565b7f4552433732313a207472616e736665722063616c6c6572206973206e6f74206f60008201527f776e6572206e6f7220617070726f766564000000000000000000000000000000602082015250565b6000612eaa60318361261b565b9150612eb582612e4e565b604082019050919050565b60006020820190508181036000830152612ed981612e9d565b9050919050565b7f455243373231456e756d657261626c653a206f776e657220696e646578206f7560008201527f74206f6620626f756e6473000000000000000000000000000000000000000000602082015250565b6000612f3c602b8361261b565b9150612f4782612ee0565b604082019050919050565b60006020820190508181036000830152612f6b81612f2f565b9050919050565b7f455243373231456e756d657261626c653a20676c6f62616c20696e646578206f60008201527f7574206f6620626f756e64730000000000000000000000000000000000000000602082015250565b6000612fce602c8361261b565b9150612fd982612f72565b604082019050919050565b60006020820190508181036000830152612ffd81612fc1565b9050919050565b7f4e487b7100000000000000000000000000000000000000000000000000000000600052603260045260246000fd5b7f4552433732313a206f776e657220717565727920666f72206e6f6e657869737460008201527f656e7420746f6b656e0000000000000000000000000000000000000000000000602082015250565b600061308f60298361261b565b915061309a82613033565b604082019050919050565b600060208201905081810360008301526130be81613082565b9050919050565b7f4552433732313a2062616c616e636520717565727920666f7220746865207a6560008201527f726f206164647265737300000000000000000000000000000000000000000000602082015250565b6000613121602a8361261b565b915061312c826130c5565b604082019050919050565b6000602082019050818103600083015261315081613114565b9050919050565b7f4f776e61626c653a2063616c6c6572206973206e6f7420746865206f776e6572600082015250565b600061318d60208361261b565b915061319882613157565b602082019050919050565b600060208201905081810360008301526131bc81613180565b9050919050565b7f496e697469616c20737570706c79206f66206e757473206973206465706c657460008201527f6564000000000000000000000000000000000000000000000000000000000000602082015250565b600061321f60228361261b565b915061322a826131c3565b604082019050919050565b6000602082019050818103600083015261324e81613212565b9050919050565b600081519050613264816126cc565b92915050565b6000602082840312156132805761327f61254b565b5b600061328e84828501613255565b91505092915050565b7f45746865722076616c75652070726f7669646564206973206e6f7420656e6f7560008201527f6768000000000000000000000000000000000000000000000000000000000000602082015250565b60006132f360228361261b565b91506132fe82613297565b604082019050919050565b60006020820190508181036000830152613322816132e6565b9050919050565b60008151905061333881612a68565b92915050565b6000602082840312156133545761335361254b565b5b600061336284828501613329565b91505092915050565b7f4f776e61626c653a206e6577206f776e657220697320746865207a65726f206160008201527f6464726573730000000000000000000000000000000000000000000000000000602082015250565b60006133c760268361261b565b91506133d28261336b565b604082019050919050565b600060208201905081810360008301526133f6816133ba565b9050919050565b7f4552433732313a206f70657261746f7220717565727920666f72206e6f6e657860008201527f697374656e7420746f6b656e0000000000000000000000000000000000000000602082015250565b6000613459602c8361261b565b9150613464826133fd565b604082019050919050565b600060208201905081810360008301526134888161344c565b9050919050565b7f4552433732313a207472616e736665722066726f6d20696e636f72726563742060008201527f6f776e6572000000000000000000000000000000000000000000000000000000602082015250565b60006134eb60258361261b565b91506134f68261348f565b604082019050919050565b6000602082019050818103600083015261351a816134de565b9050919050565b7f4552433732313a207472616e7366657220746f20746865207a65726f2061646460008201527f7265737300000000000000000000000000000000000000000000000000000000602082015250565b600061357d60248361261b565b915061358882613521565b604082019050919050565b600060208201905081810360008301526135ac81613570565b9050919050565b7f4e487b7100000000000000000000000000000000000000000000000000000000600052601160045260246000fd5b60006135ed826126c2565b91506135f8836126c2565b92508282039050818111156136105761360f6135b3565b5b92915050565b6000613621826126c2565b915061362c836126c2565b9250828201905080821115613644576136436135b3565b5b92915050565b7f45524337323155524953746f726167653a2055524920736574206f66206e6f6e60008201527f6578697374656e7420746f6b656e000000000000000000000000000000000000602082015250565b60006136a6602e8361261b565b91506136b18261364a565b604082019050919050565b600060208201905081810360008301526136d581613699565b9050919050565b60008190508160005260206000209050919050565b60006020601f8301049050919050565b600082821b905092915050565b60006008830261373e7fffffffffffffffffffffffffffffffffffffffffffffffffffffffffffffffff82613701565b6137488683613701565b95508019841693508086168417925050509392505050565b6000819050919050565b600061378561378061377b846126c2565b613760565b6126c2565b9050919050565b6000819050919050565b61379f8361376a565b6137b36137ab8261378c565b84845461370e565b825550505050565b600090565b6137c86137bb565b6137d3818484613796565b505050565b5b818110156137f7576137ec6000826137c0565b6001810190506137d9565b5050565b601f82111561383c5761380d816136dc565b613816846136f1565b81016020851015613825578190505b613839613831856136f1565b8301826137d8565b50505b505050565b600082821c905092915050565b600061385f60001984600802613841565b1980831691505092915050565b6000613878838361384e565b9150826002028217905092915050565b61389182612610565b67ffffffffffffffff8111156138aa576138a96128f4565b5b6138b48254612c67565b6138bf8282856137fb565b600060209050601f8311600181146138f257600084156138e0578287015190505b6138ea858261386c565b865550613952565b601f198416613900866136dc565b60005b8281101561392857848901518255600182019150602085019450602081019050613903565b868310156139455784890151613941601f89168261384e565b8355505b6001600288020188555050505b505050505050565b7f4552433732313a20617070726f766520746f2063616c6c657200000000000000600082015250565b600061399060198361261b565b915061399b8261395a565b602082019050919050565b600060208201905081810360008301526139bf81613983565b9050919050565b7f4552433732313a207472616e7366657220746f206e6f6e20455243373231526560008201527f63656976657220696d706c656d656e7465720000000000000000000000000000602082015250565b6000613a2260328361261b565b9150613a2d826139c6565b604082019050919050565b60006020820190508181036000830152613a5181613a15565b9050919050565b7f45524337323155524953746f726167653a2055524920717565727920666f722060008201527f6e6f6e6578697374656e7420746f6b656e000000000000000000000000000000602082015250565b6000613ab460318361261b565b9150613abf82613a58565b604082019050919050565b60006020820190508181036000830152613ae381613aa7565b9050919050565b600081905092915050565b6000613b0082612610565b613b0a8185613aea565b9350613b1a81856020860161262c565b80840191505092915050565b6000613b328285613af5565b9150613b3e8284613af5565b91508190509392505050565b600081519050919050565b600082825260208201905092915050565b6000613b7182613b4a565b613b7b8185613b55565b9350613b8b81856020860161262c565b613b9481612656565b840191505092915050565b6000608082019050613bb46000830187612757565b613bc16020830186612757565b613bce60408301856127ed565b8181036060830152613be08184613b66565b905095945050505050565b600081519050613bfa81612581565b92915050565b600060208284031215613c1657613c1561254b565b5b6000613c2484828501613beb565b91505092915050565b7f4552433732314d657461646174613a2055524920717565727920666f72206e6f60008201527f6e6578697374656e7420746f6b656e0000000000000000000000000000000000602082015250565b6000613c89602f8361261b565b9150613c9482613c2d565b604082019050919050565b60006020820190508181036000830152613cb881613c7c565b9050919050565b7f4552433732313a206d696e7420746f20746865207a65726f2061646472657373600082015250565b6000613cf560208361261b565b9150613d0082613cbf565b602082019050919050565b60006020820190508181036000830152613d2481613ce8565b9050919050565b7f4552433732313a20746f6b656e20616c7265616479206d696e74656400000000600082015250565b6000613d61601c8361261b565b9150613d6c82613d2b565b602082019050919050565b60006020820190508181036000830152613d9081613d54565b9050919050565b6000613da2826126c2565b91507fffffffffffffffffffffffffffffffffffffffffffffffffffffffffffffffff8203613dd457613dd36135b3565b5b600182019050919050565b7f4e487b7100000000000000000000000000000000000000000000000000000000600052601260045260246000fd5b6000613e19826126c2565b9150613e24836126c2565b925082613e3457613e33613ddf565b5b828204905092915050565b6000613e4a826126c2565b9150613e55836126c2565b925082613e6557613e64613ddf565b5b828206905092915050565b7f4e487b7100000000000000000000000000000000000000000000000000000000600052603160045260246000fdfea26469706673582212201bcb19e1e13c8cdb3de935eb0ad4ab72efadea8a7b5794d4d4f1891c9b6aa7d564736f6c63430008110033",
  "immutableReferences": {},
  "source": "// SPDX-License-Identifier: MIT\npragma solidity ^0.8.7;\n\nimport \"openzeppelin-solidity/contracts/token/ERC721/ERC721.sol\";\nimport \"openzeppelin-solidity/contracts/token/ERC721/extensions/ERC721Enumerable.sol\";\nimport \"openzeppelin-solidity/contracts/token/ERC721/extensions/ERC721URIStorage.sol\";\nimport \"openzeppelin-solidity/contracts/access/Ownable.sol\";\nimport \"openzeppelin-solidity/contracts/utils/cryptography/ECDSA.sol\";\nimport { Clones } from \"openzeppelin-solidity/contracts/proxy/Clones.sol\";\n\nimport \"./ICosmoTreasury.sol\";\nimport \"./CosmoVault.sol\";\n\ncontract CosmoCreation is ERC721, ERC721Enumerable, ERC721URIStorage, Ownable {\n\n    struct Creation {\n        uint256 initialSupply;\n        address system;\n        address treasury;\n        address vault;\n        address vaultImplementation;\n    }\n    Creation public creation;\n\n    using ECDSA for bytes32;\n\n    constructor(\n        string memory _name,\n        string memory _symbol,\n        uint256 _supply,\n        address _systemAddress,\n        address _treasuryAddress,\n        address _vaultImplementation\n    )\n    ERC721(_name, _symbol)\n    {\n        creation.initialSupply = _supply;\n        creation.system = _systemAddress;\n        creation.treasury = _treasuryAddress;\n        creation.vaultImplementation = _vaultImplementation;\n    }\n\n    function _baseURI() internal pure override returns (string memory) {\n        return \"https://ipfs.io/ipfs/\";\n    }\n\n    function openVault(\n        address _cosmosAddress\n    ) internal returns (address) {\n        CosmoVault vault = CosmoVault(Clones.clone(creation.vaultImplementation));\n        vault.initialize(creation.system, _cosmosAddress);\n        creation.vault = address(vault);\n        return creation.vault;\n    }\n\n    function mintNut(string memory _nutCID) public payable {\n        uint256 nutIndex = totalSupply();\n        require(nutIndex < creation.initialSupply, \"Initial supply of nuts is depleted\");\n        uint256 nutPrice = ICosmoTreasury(creation.treasury).getPrice();\n        require(msg.value >= nutPrice, \"Ether value provided is not enough\");\n\n        _safeMint(msg.sender, nutIndex);\n        _setTokenURI(nutIndex, _nutCID);\n        ICosmoTreasury(creation.treasury).assignMintBalance(msg.sender);\n    }\n\n    // ----- The following functions are overrides required by Solidity -----\n    function _beforeTokenTransfer(address from, address to, uint256 tokenId) internal override(ERC721, ERC721Enumerable) {\n        super._beforeTokenTransfer(from, to, tokenId);\n    }\n\n    function _burn(uint256 tokenId) internal override(ERC721, ERC721URIStorage) {\n        super._burn(tokenId);\n    }\n\n    function tokenURI(uint256 tokenId) public view override(ERC721, ERC721URIStorage) returns (string memory) {\n        return super.tokenURI(tokenId);\n    }\n\n    function supportsInterface(bytes4 interfaceId) public view override(ERC721, ERC721Enumerable) returns (bool) {\n        return super.supportsInterface(interfaceId);\n    }\n    // -----      -----     -----     -----     -----\n}\n",
  "sourcePath": "/home/redlentils/Seafile/Websites/avatarnft/contracts/CosmoCreation.sol",
  "compiler": {
    "name": "solc",
    "version": "0.8.17+commit.8df45f5f.Emscripten.clang"
  },
  "schemaVersion": "3.4.10",
  "updatedAt": "2022-10-28T15:21:01.268Z",
  "devdoc": {
    "kind": "dev",
    "methods": {
      "approve(address,uint256)": {
        "details": "See {IERC721-approve}."
      },
      "balanceOf(address)": {
        "details": "See {IERC721-balanceOf}."
      },
      "getApproved(uint256)": {
        "details": "See {IERC721-getApproved}."
      },
      "isApprovedForAll(address,address)": {
        "details": "See {IERC721-isApprovedForAll}."
      },
      "name()": {
        "details": "See {IERC721Metadata-name}."
      },
      "owner()": {
        "details": "Returns the address of the current owner."
      },
      "ownerOf(uint256)": {
        "details": "See {IERC721-ownerOf}."
      },
      "renounceOwnership()": {
        "details": "Leaves the contract without owner. It will not be possible to call `onlyOwner` functions anymore. Can only be called by the current owner. NOTE: Renouncing ownership will leave the contract without an owner, thereby removing any functionality that is only available to the owner."
      },
      "safeTransferFrom(address,address,uint256)": {
        "details": "See {IERC721-safeTransferFrom}."
      },
      "safeTransferFrom(address,address,uint256,bytes)": {
        "details": "See {IERC721-safeTransferFrom}."
      },
      "setApprovalForAll(address,bool)": {
        "details": "See {IERC721-setApprovalForAll}."
      },
      "symbol()": {
        "details": "See {IERC721Metadata-symbol}."
      },
      "tokenByIndex(uint256)": {
        "details": "See {IERC721Enumerable-tokenByIndex}."
      },
      "tokenOfOwnerByIndex(address,uint256)": {
        "details": "See {IERC721Enumerable-tokenOfOwnerByIndex}."
      },
      "totalSupply()": {
        "details": "See {IERC721Enumerable-totalSupply}."
      },
      "transferFrom(address,address,uint256)": {
        "details": "See {IERC721-transferFrom}."
      },
      "transferOwnership(address)": {
        "details": "Transfers ownership of the contract to a new account (`newOwner`). Can only be called by the current owner."
      }
    },
    "version": 1
  },
  "userdoc": {
    "kind": "user",
    "methods": {},
    "version": 1
  }
}