{
  "contractName": "SeedAccounts",
  "abi": [
    {
      "inputs": [
        {
          "internalType": "uint256",
          "name": "",
          "type": "uint256"
        }
      ],
      "name": "isSeedActive",
      "outputs": [
        {
          "internalType": "bool",
          "name": "",
          "type": "bool"
        }
      ],
      "stateMutability": "view",
      "type": "function"
    },
    {
      "inputs": [
        {
          "internalType": "uint256",
          "name": "",
          "type": "uint256"
        },
        {
          "internalType": "uint256",
          "name": "",
          "type": "uint256"
        }
      ],
      "name": "isSeedOfNut",
      "outputs": [
        {
          "internalType": "bool",
          "name": "",
          "type": "bool"
        }
      ],
      "stateMutability": "view",
      "type": "function"
    },
    {
      "inputs": [
        {
          "internalType": "uint256",
          "name": "",
          "type": "uint256"
        }
      ],
      "name": "nutOfSeed",
      "outputs": [
        {
          "internalType": "uint256",
          "name": "",
          "type": "uint256"
        }
      ],
      "stateMutability": "view",
      "type": "function"
    },
    {
      "inputs": [
        {
          "internalType": "uint256",
          "name": "",
          "type": "uint256"
        }
      ],
      "name": "seedLocations",
      "outputs": [
        {
          "internalType": "address",
          "name": "",
          "type": "address"
        }
      ],
      "stateMutability": "view",
      "type": "function"
    },
    {
      "inputs": [],
      "name": "seedsCreated",
      "outputs": [
        {
          "internalType": "uint256",
          "name": "",
          "type": "uint256"
        }
      ],
      "stateMutability": "view",
      "type": "function"
    },
    {
      "inputs": [
        {
          "internalType": "uint256",
          "name": "",
          "type": "uint256"
        }
      ],
      "name": "seedsGrownOfNut",
      "outputs": [
        {
          "internalType": "uint256",
          "name": "",
          "type": "uint256"
        }
      ],
      "stateMutability": "view",
      "type": "function"
    },
    {
      "inputs": [
        {
          "internalType": "uint256",
          "name": "",
          "type": "uint256"
        }
      ],
      "name": "seedsOfNut",
      "outputs": [
        {
          "internalType": "uint256",
          "name": "",
          "type": "uint256"
        }
      ],
      "stateMutability": "view",
      "type": "function"
    }
  ],
  "bytecode": "0x60806040526000805534801561001457600080fd5b5061042a806100246000396000f3fe608060405234801561001057600080fd5b506004361061007d5760003560e01c806353f97bc81161005b57806353f97bc814610112578063d4d8103214610142578063ea0f136614610172578063ea988be8146101a25761007d565b8063171e84411461008257806323f526c0146100b257806331ad1b42146100e2575b600080fd5b61009c600480360381019061009791906102cb565b6101c0565b6040516100a99190610313565b60405180910390f35b6100cc60048036038101906100c791906102cb565b6101e0565b6040516100d9919061036f565b60405180910390f35b6100fc60048036038101906100f791906102cb565b610213565b6040516101099190610399565b60405180910390f35b61012c600480360381019061012791906103b4565b61022b565b6040516101399190610313565b60405180910390f35b61015c600480360381019061015791906102cb565b61025a565b6040516101699190610399565b60405180910390f35b61018c600480360381019061018791906102cb565b610272565b6040516101999190610399565b60405180910390f35b6101aa61028a565b6040516101b79190610399565b60405180910390f35b60066020528060005260406000206000915054906101000a900460ff1681565b60056020528060005260406000206000915054906101000a900473ffffffffffffffffffffffffffffffffffffffff1681565b60016020528060005260406000206000915090505481565b60046020528160005260406000206020528060005260406000206000915091509054906101000a900460ff1681565b60036020528060005260406000206000915090505481565b60026020528060005260406000206000915090505481565b60005481565b600080fd5b6000819050919050565b6102a881610295565b81146102b357600080fd5b50565b6000813590506102c58161029f565b92915050565b6000602082840312156102e1576102e0610290565b5b60006102ef848285016102b6565b91505092915050565b60008115159050919050565b61030d816102f8565b82525050565b60006020820190506103286000830184610304565b92915050565b600073ffffffffffffffffffffffffffffffffffffffff82169050919050565b60006103598261032e565b9050919050565b6103698161034e565b82525050565b60006020820190506103846000830184610360565b92915050565b61039381610295565b82525050565b60006020820190506103ae600083018461038a565b92915050565b600080604083850312156103cb576103ca610290565b5b60006103d9858286016102b6565b92505060206103ea858286016102b6565b915050925092905056fea264697066735822122075a16244efa5028178ab3fb7b1b4525791ad66b047bbc6a36f086a01f2382d7a64736f6c63430008110033",
  "immutableReferences": {},
  "source": "// SPDX-License-Identifier: MIT\npragma solidity ^0.8.7;\n\ncontract SeedAccounts {\n\n    uint256 public seedsCreated = 0; // Number of seeds that have been created (never reduced)\n    mapping(uint256 => uint256) public seedsOfNut; // Number of seeds created by this Nut in the Universe\n    mapping(uint256 => uint256) public seedsGrownOfNut; // Seeds grown of Nut\n    mapping(uint256 => uint256) public nutOfSeed; // The parent nut of the given seed\n    mapping(uint256 => mapping(uint256 => bool)) public isSeedOfNut; // ** HERE CONVERT THIS\n    mapping(uint256 => address) public seedLocations;\n    mapping(uint256 => bool) public isSeedActive;\n\n    function integrateSeed(\n        uint256 _nutId,\n        uint256 _seedId,\n        address _seedLocation\n    ) internal {\n        nutOfSeed[_seedId] = _nutId;\n        seedsOfNut[_nutId] += 1;\n        isSeedOfNut[_seedId][_nutId] = true;\n        seedLocations[_seedId] = _seedLocation;\n        seedsCreated += 1;\n        isSeedActive[_nutId] = true;\n    }\n\n    function growSeed(uint256 _seedId) internal {\n        uint256 nutId = nutOfSeed[_seedId];\n        seedsOfNut[nutId] -= 1;\n        seedsGrownOfNut[nutId] += 1;\n        isSeedActive[nutId] = false;\n    }\n\n}\n",
  "sourcePath": "/home/redlentils/Seafile/Websites/avatarnft/contracts/SeedAccounts.sol",
  "compiler": {
    "name": "solc",
    "version": "0.8.17+commit.8df45f5f.Emscripten.clang"
  },
  "schemaVersion": "3.4.10",
  "updatedAt": "2022-10-03T18:15:56.536Z",
  "devdoc": {
    "kind": "dev",
    "methods": {},
    "version": 1
  },
  "userdoc": {
    "kind": "user",
    "methods": {},
    "version": 1
  }
}