{
  "contractName": "SeedAccounts",
  "abi": [
    {
      "inputs": [
        {
          "internalType": "uint256",
          "name": "",
          "type": "uint256"
        }
      ],
      "name": "isSeedActive",
      "outputs": [
        {
          "internalType": "bool",
          "name": "",
          "type": "bool"
        }
      ],
      "stateMutability": "view",
      "type": "function"
    },
    {
      "inputs": [
        {
          "internalType": "uint256",
          "name": "",
          "type": "uint256"
        },
        {
          "internalType": "uint256",
          "name": "",
          "type": "uint256"
        }
      ],
      "name": "isSeedOfNut",
      "outputs": [
        {
          "internalType": "bool",
          "name": "",
          "type": "bool"
        }
      ],
      "stateMutability": "view",
      "type": "function"
    },
    {
      "inputs": [
        {
          "internalType": "uint256",
          "name": "",
          "type": "uint256"
        }
      ],
      "name": "nutOfSeed",
      "outputs": [
        {
          "internalType": "uint256",
          "name": "",
          "type": "uint256"
        }
      ],
      "stateMutability": "view",
      "type": "function"
    },
    {
      "inputs": [
        {
          "internalType": "uint256",
          "name": "",
          "type": "uint256"
        }
      ],
      "name": "seedLocations",
      "outputs": [
        {
          "internalType": "address",
          "name": "",
          "type": "address"
        }
      ],
      "stateMutability": "view",
      "type": "function"
    },
    {
      "inputs": [],
      "name": "seedsCreated",
      "outputs": [
        {
          "internalType": "uint256",
          "name": "",
          "type": "uint256"
        }
      ],
      "stateMutability": "view",
      "type": "function"
    },
    {
      "inputs": [
        {
          "internalType": "uint256",
          "name": "",
          "type": "uint256"
        },
        {
          "internalType": "uint256",
          "name": "",
          "type": "uint256"
        }
      ],
      "name": "seedsGrownOfNut",
      "outputs": [
        {
          "internalType": "uint256",
          "name": "",
          "type": "uint256"
        }
      ],
      "stateMutability": "view",
      "type": "function"
    },
    {
      "inputs": [
        {
          "internalType": "uint256",
          "name": "",
          "type": "uint256"
        },
        {
          "internalType": "uint256",
          "name": "",
          "type": "uint256"
        }
      ],
      "name": "seedsOfNut",
      "outputs": [
        {
          "internalType": "uint256",
          "name": "",
          "type": "uint256"
        }
      ],
      "stateMutability": "view",
      "type": "function"
    },
    {
      "inputs": [
        {
          "internalType": "uint256",
          "name": "_nutId",
          "type": "uint256"
        }
      ],
      "name": "numOfSeedsOf",
      "outputs": [
        {
          "internalType": "uint256",
          "name": "",
          "type": "uint256"
        }
      ],
      "stateMutability": "view",
      "type": "function"
    },
    {
      "inputs": [
        {
          "internalType": "uint256",
          "name": "_nutId",
          "type": "uint256"
        }
      ],
      "name": "numOfSeedsGrownOf",
      "outputs": [
        {
          "internalType": "uint256",
          "name": "",
          "type": "uint256"
        }
      ],
      "stateMutability": "view",
      "type": "function"
    }
  ],
  "bytecode": "0x60806040526000805534801561001457600080fd5b50610512806100246000396000f3fe608060405234801561001057600080fd5b50600436106100935760003560e01c806353f97bc81161006657806353f97bc8146101585780636b651a2c146101885780639975a8a2146101b8578063d4d81032146101e8578063ea988be81461021857610093565b80631298896e14610098578063171e8441146100c857806323f526c0146100f85780633c8023ad14610128575b600080fd5b6100b260048036038101906100ad91906103b3565b610236565b6040516100bf9190610402565b60405180910390f35b6100e260048036038101906100dd919061041d565b610267565b6040516100ef9190610465565b60405180910390f35b610112600480360381019061010d919061041d565b610287565b60405161011f91906104c1565b60405180910390f35b610142600480360381019061013d91906103b3565b6102ba565b60405161014f9190610402565b60405180910390f35b610172600480360381019061016d91906103b3565b6102eb565b60405161017f9190610465565b60405180910390f35b6101a2600480360381019061019d919061041d565b61031a565b6040516101af9190610402565b60405180910390f35b6101d260048036038101906101cd919061041d565b61033a565b6040516101df9190610402565b60405180910390f35b61020260048036038101906101fd919061041d565b61035a565b60405161020f9190610402565b60405180910390f35b610220610372565b60405161022d9190610402565b60405180910390f35b6002602052816000526040600020818154811061025257600080fd5b90600052602060002001600091509150505481565b60066020528060005260406000206000915054906101000a900460ff1681565b60056020528060005260406000206000915054906101000a900473ffffffffffffffffffffffffffffffffffffffff1681565b600160205281600052604060002081815481106102d657600080fd5b90600052602060002001600091509150505481565b60046020528160005260406000206020528060005260406000206000915091509054906101000a900460ff1681565b600060026000838152602001908152602001600020805490509050919050565b600060016000838152602001908152602001600020805490509050919050565b60036020528060005260406000206000915090505481565b60005481565b600080fd5b6000819050919050565b6103908161037d565b811461039b57600080fd5b50565b6000813590506103ad81610387565b92915050565b600080604083850312156103ca576103c9610378565b5b60006103d88582860161039e565b92505060206103e98582860161039e565b9150509250929050565b6103fc8161037d565b82525050565b600060208201905061041760008301846103f3565b92915050565b60006020828403121561043357610432610378565b5b60006104418482850161039e565b91505092915050565b60008115159050919050565b61045f8161044a565b82525050565b600060208201905061047a6000830184610456565b92915050565b600073ffffffffffffffffffffffffffffffffffffffff82169050919050565b60006104ab82610480565b9050919050565b6104bb816104a0565b82525050565b60006020820190506104d660008301846104b2565b9291505056fea2646970667358221220a623fa860b35901693f1e4c0a9201a3065bccc1ad6e250b1b34f52bb62e99e5264736f6c63430008110033",
  "immutableReferences": {},
  "source": "// SPDX-License-Identifier: MIT\npragma solidity ^0.8.7;\n\ncontract SeedAccounts {\n\n    uint256 public seedsCreated = 0; // Number of seeds that have been created (never reduced)\n    mapping(uint256 => uint256[]) public seedsOfNut;\n    mapping(uint256 => uint256[]) public seedsGrownOfNut;\n    mapping(uint256 => uint256) public nutOfSeed; // The parent nut of the given seed\n    mapping(uint256 => mapping(uint256 => bool)) public isSeedOfNut;\n    mapping(uint256 => address) public seedLocations;\n    mapping(uint256 => bool) public isSeedActive;\n\n    function numOfSeedsOf(uint256 _nutId) public view returns (uint256) {\n        return seedsOfNut[_nutId].length;\n    }\n\n    function numOfSeedsGrownOf(uint256 _nutId) public view returns (uint256) {\n        return seedsGrownOfNut[_nutId].length;\n    }\n\n    function integrateSeed(\n        uint256 _nutId,\n        uint256 _seedId,\n        address _seedLocation\n    ) internal {\n        nutOfSeed[_seedId] = _nutId;\n        seedsOfNut[_nutId].push(_seedId);\n        isSeedOfNut[_seedId][_nutId] = true;\n        seedLocations[_seedId] = _seedLocation;\n        seedsCreated += 1;\n        isSeedActive[_nutId] = true;\n    }\n\n    function growSeed(uint256 _seedId) internal {\n        uint256 nutId = nutOfSeed[_seedId];\n        seedsGrownOfNut[nutId].push(_seedId);\n        isSeedActive[nutId] = false;\n    }\n\n}\n",
  "sourcePath": "/home/redlentils/Seafile/Websites/avatarnft/contracts/SeedAccounts.sol",
  "compiler": {
    "name": "solc",
    "version": "0.8.17+commit.8df45f5f.Emscripten.clang"
  },
  "schemaVersion": "3.4.10",
  "updatedAt": "2022-10-07T10:00:29.483Z",
  "devdoc": {
    "kind": "dev",
    "methods": {},
    "version": 1
  },
  "userdoc": {
    "kind": "user",
    "methods": {},
    "version": 1
  }
}